{
	"Perfect.sol": {
		"Factory": {
			"abi": [
				{
					"inputs": [
						{
							"internalType": "address",
							"name": "_admin",
							"type": "address"
						}
					],
					"stateMutability": "nonpayable",
					"type": "constructor"
				},
				{
					"anonymous": false,
					"inputs": [
						{
							"indexed": true,
							"internalType": "address",
							"name": "previousOwner",
							"type": "address"
						},
						{
							"indexed": true,
							"internalType": "address",
							"name": "newOwner",
							"type": "address"
						}
					],
					"name": "OwnershipTransferred",
					"type": "event"
				},
				{
					"anonymous": false,
					"inputs": [
						{
							"indexed": false,
							"internalType": "address",
							"name": "minter",
							"type": "address"
						},
						{
							"indexed": false,
							"internalType": "address",
							"name": "Factory",
							"type": "address"
						},
						{
							"indexed": false,
							"internalType": "uint256",
							"name": "index",
							"type": "uint256"
						}
					],
					"name": "minter",
					"type": "event"
				},
				{
					"inputs": [
						{
							"internalType": "address",
							"name": "nft",
							"type": "address"
						},
						{
							"internalType": "uint256",
							"name": "subcontractId",
							"type": "uint256"
						},
						{
							"internalType": "uint256",
							"name": "tokenid",
							"type": "uint256"
						}
					],
					"name": "CheckTokenId",
					"outputs": [
						{
							"internalType": "bool",
							"name": "",
							"type": "bool"
						}
					],
					"stateMutability": "view",
					"type": "function"
				},
				{
					"inputs": [
						{
							"internalType": "address",
							"name": "nft",
							"type": "address"
						},
						{
							"internalType": "uint256",
							"name": "subcontractId",
							"type": "uint256"
						}
					],
					"name": "IstokenStoredOnMap",
					"outputs": [
						{
							"internalType": "uint256[]",
							"name": "",
							"type": "uint256[]"
						}
					],
					"stateMutability": "view",
					"type": "function"
				},
				{
					"inputs": [
						{
							"internalType": "address",
							"name": "nft",
							"type": "address"
						},
						{
							"internalType": "uint256",
							"name": "from",
							"type": "uint256"
						},
						{
							"internalType": "uint256",
							"name": "to",
							"type": "uint256"
						}
					],
					"name": "NewtransferBySubContract",
					"outputs": [],
					"stateMutability": "nonpayable",
					"type": "function"
				},
				{
					"inputs": [
						{
							"internalType": "address",
							"name": "nft",
							"type": "address"
						},
						{
							"internalType": "uint256[]",
							"name": "tokenid",
							"type": "uint256[]"
						}
					],
					"name": "RestoreFactorynft",
					"outputs": [],
					"stateMutability": "nonpayable",
					"type": "function"
				},
				{
					"inputs": [
						{
							"internalType": "address",
							"name": "nft",
							"type": "address"
						},
						{
							"internalType": "uint256[]",
							"name": "tokenid",
							"type": "uint256[]"
						},
						{
							"internalType": "uint256",
							"name": "subcontractId",
							"type": "uint256"
						}
					],
					"name": "RestoreNftFromSubcontract",
					"outputs": [],
					"stateMutability": "nonpayable",
					"type": "function"
				},
				{
					"inputs": [],
					"name": "admin",
					"outputs": [
						{
							"internalType": "address",
							"name": "",
							"type": "address"
						}
					],
					"stateMutability": "view",
					"type": "function"
				},
				{
					"inputs": [
						{
							"internalType": "uint256",
							"name": "amount",
							"type": "uint256"
						}
					],
					"name": "deploy",
					"outputs": [],
					"stateMutability": "nonpayable",
					"type": "function"
				},
				{
					"inputs": [
						{
							"internalType": "address",
							"name": "nft",
							"type": "address"
						},
						{
							"internalType": "uint256",
							"name": "amount",
							"type": "uint256"
						},
						{
							"internalType": "bytes",
							"name": "param",
							"type": "bytes"
						}
					],
					"name": "mint",
					"outputs": [],
					"stateMutability": "nonpayable",
					"type": "function"
				},
				{
					"inputs": [
						{
							"internalType": "address",
							"name": "nft",
							"type": "address"
						},
						{
							"internalType": "uint256",
							"name": "amount",
							"type": "uint256"
						},
						{
							"internalType": "bytes",
							"name": "param",
							"type": "bytes"
						}
					],
					"name": "mintAndTransfer",
					"outputs": [],
					"stateMutability": "nonpayable",
					"type": "function"
				},
				{
					"inputs": [
						{
							"internalType": "address",
							"name": "nft",
							"type": "address"
						},
						{
							"internalType": "uint256",
							"name": "amount",
							"type": "uint256"
						},
						{
							"internalType": "bytes",
							"name": "param",
							"type": "bytes"
						}
					],
					"name": "mintBySubContract",
					"outputs": [],
					"stateMutability": "payable",
					"type": "function"
				},
				{
					"inputs": [
						{
							"internalType": "uint256",
							"name": "",
							"type": "uint256"
						}
					],
					"name": "minters",
					"outputs": [
						{
							"internalType": "address",
							"name": "",
							"type": "address"
						}
					],
					"stateMutability": "view",
					"type": "function"
				},
				{
					"inputs": [
						{
							"internalType": "address",
							"name": "",
							"type": "address"
						},
						{
							"internalType": "address",
							"name": "",
							"type": "address"
						},
						{
							"internalType": "uint256",
							"name": "_tokenId",
							"type": "uint256"
						},
						{
							"internalType": "bytes",
							"name": "",
							"type": "bytes"
						}
					],
					"name": "onERC721Received",
					"outputs": [
						{
							"internalType": "bytes4",
							"name": "",
							"type": "bytes4"
						}
					],
					"stateMutability": "nonpayable",
					"type": "function"
				},
				{
					"inputs": [],
					"name": "owner",
					"outputs": [
						{
							"internalType": "address",
							"name": "",
							"type": "address"
						}
					],
					"stateMutability": "view",
					"type": "function"
				},
				{
					"inputs": [],
					"name": "renounceOwnership",
					"outputs": [],
					"stateMutability": "nonpayable",
					"type": "function"
				},
				{
					"inputs": [
						{
							"internalType": "address",
							"name": "nft",
							"type": "address"
						},
						{
							"internalType": "uint256",
							"name": "subcontractId",
							"type": "uint256"
						}
					],
					"name": "tokenbalanceBySubcontract",
					"outputs": [
						{
							"internalType": "uint256",
							"name": "",
							"type": "uint256"
						}
					],
					"stateMutability": "view",
					"type": "function"
				},
				{
					"inputs": [],
					"name": "totalSubcontract",
					"outputs": [
						{
							"internalType": "uint256",
							"name": "",
							"type": "uint256"
						}
					],
					"stateMutability": "view",
					"type": "function"
				},
				{
					"inputs": [
						{
							"internalType": "address",
							"name": "nft",
							"type": "address"
						},
						{
							"internalType": "uint256",
							"name": "amount",
							"type": "uint256"
						}
					],
					"name": "transferBySubContract",
					"outputs": [],
					"stateMutability": "nonpayable",
					"type": "function"
				},
				{
					"inputs": [
						{
							"internalType": "address",
							"name": "newOwner",
							"type": "address"
						}
					],
					"name": "transferOwnership",
					"outputs": [],
					"stateMutability": "nonpayable",
					"type": "function"
				}
			],
			"devdoc": {
				"kind": "dev",
				"methods": {
					"CheckTokenId(address,uint256,uint256)": {
						"details": "{CheckTokenId}. Must have a valid nft subcontractId = minters index start from 0; tokenid = collection tokenid if the owner and minters match it will return true"
					},
					"IstokenStoredOnMap(address,uint256)": {
						"details": "{CheckTokenId}. Must have a valid nft subcontractId = minters index start from 0; This will check is data stored on mapping or not if not it will show blank []"
					},
					"RestoreFactorynft(address,uint256[])": {
						"details": "{RestoreFactorynft}. Must have a valid nft uint256[] array of tokenid like [1,2]"
					},
					"owner()": {
						"details": "Returns the address of the current owner."
					},
					"renounceOwnership()": {
						"details": "Leaves the contract without owner. It will not be possible to call `onlyOwner` functions anymore. Can only be called by the current owner. NOTE: Renouncing ownership will leave the contract without an owner, thereby removing any functionality that is only available to the owner."
					},
					"tokenbalanceBySubcontract(address,uint256)": {
						"details": "{tokenbalanceBySubcontract}. subcontractId = minters index start from 0; return balance of the minters"
					},
					"transferOwnership(address)": {
						"details": "Transfers ownership of the contract to a new account (`newOwner`). Can only be called by the current owner."
					}
				},
				"version": 1
			},
			"evm": {
				"assembly": "    /* \"Perfect.sol\":1865:6566  contract Factory is IERC721Receiver,Ownable{... */\n  mstore(0x40, 0x80)\n    /* \"Perfect.sol\":2003:2004  0 */\n  0x00\n    /* \"Perfect.sol\":1988:2004  uint256 salt = 0 */\n  0x03\n  sstore\n    /* \"Perfect.sol\":2096:2155  constructor(address _admin) {... */\n  callvalue\n  dup1\n  iszero\n  tag_1\n  jumpi\n  0x00\n  dup1\n  revert\ntag_1:\n  pop\n  mload(0x40)\n  sub(codesize, bytecodeSize)\n  dup1\n  bytecodeSize\n  dup4\n  codecopy\n  dup2\n  dup2\n  add\n  0x40\n  mstore\n  dup2\n  add\n  swap1\n  tag_2\n  swap2\n  swap1\n  tag_3\n  jump\t// in\ntag_2:\n    /* \"@openzeppelin/contracts/access/Ownable.sol\":936:968  _transferOwnership(_msgSender()) */\n  tag_7\n    /* \"@openzeppelin/contracts/access/Ownable.sol\":955:967  _msgSender() */\n  tag_8\n    /* \"@openzeppelin/contracts/access/Ownable.sol\":955:965  _msgSender */\n  shl(0x20, tag_9)\n    /* \"@openzeppelin/contracts/access/Ownable.sol\":955:967  _msgSender() */\n  0x20\n  shr\n  jump\t// in\ntag_8:\n    /* \"@openzeppelin/contracts/access/Ownable.sol\":936:954  _transferOwnership */\n  shl(0x20, tag_10)\n    /* \"@openzeppelin/contracts/access/Ownable.sol\":936:968  _transferOwnership(_msgSender()) */\n  0x20\n  shr\n  jump\t// in\ntag_7:\n    /* \"Perfect.sol\":2142:2148  _admin */\n  dup1\n    /* \"Perfect.sol\":2134:2139  admin */\n  0x01\n  0x00\n    /* \"Perfect.sol\":2134:2148  admin = _admin */\n  0x0100\n  exp\n  dup2\n  sload\n  dup2\n  0xffffffffffffffffffffffffffffffffffffffff\n  mul\n  not\n  and\n  swap1\n  dup4\n  0xffffffffffffffffffffffffffffffffffffffff\n  and\n  mul\n  or\n  swap1\n  sstore\n  pop\n    /* \"Perfect.sol\":2096:2155  constructor(address _admin) {... */\n  pop\n    /* \"Perfect.sol\":1865:6566  contract Factory is IERC721Receiver,Ownable{... */\n  jump(tag_12)\n    /* \"@openzeppelin/contracts/utils/Context.sol\":640:736  function _msgSender() internal view virtual returns (address) {... */\ntag_9:\n    /* \"@openzeppelin/contracts/utils/Context.sol\":693:700  address */\n  0x00\n    /* \"@openzeppelin/contracts/utils/Context.sol\":719:729  msg.sender */\n  caller\n    /* \"@openzeppelin/contracts/utils/Context.sol\":712:729  return msg.sender */\n  swap1\n  pop\n    /* \"@openzeppelin/contracts/utils/Context.sol\":640:736  function _msgSender() internal view virtual returns (address) {... */\n  swap1\n  jump\t// out\n    /* \"@openzeppelin/contracts/access/Ownable.sol\":2433:2620  function _transferOwnership(address newOwner) internal virtual {... */\ntag_10:\n    /* \"@openzeppelin/contracts/access/Ownable.sol\":2506:2522  address oldOwner */\n  0x00\n    /* \"@openzeppelin/contracts/access/Ownable.sol\":2525:2531  _owner */\n  dup1\n  0x00\n  swap1\n  sload\n  swap1\n  0x0100\n  exp\n  swap1\n  div\n  0xffffffffffffffffffffffffffffffffffffffff\n  and\n    /* \"@openzeppelin/contracts/access/Ownable.sol\":2506:2531  address oldOwner = _owner */\n  swap1\n  pop\n    /* \"@openzeppelin/contracts/access/Ownable.sol\":2550:2558  newOwner */\n  dup2\n    /* \"@openzeppelin/contracts/access/Ownable.sol\":2541:2547  _owner */\n  0x00\n  dup1\n    /* \"@openzeppelin/contracts/access/Ownable.sol\":2541:2558  _owner = newOwner */\n  0x0100\n  exp\n  dup2\n  sload\n  dup2\n  0xffffffffffffffffffffffffffffffffffffffff\n  mul\n  not\n  and\n  swap1\n  dup4\n  0xffffffffffffffffffffffffffffffffffffffff\n  and\n  mul\n  or\n  swap1\n  sstore\n  pop\n    /* \"@openzeppelin/contracts/access/Ownable.sol\":2604:2612  newOwner */\n  dup2\n    /* \"@openzeppelin/contracts/access/Ownable.sol\":2573:2613  OwnershipTransferred(oldOwner, newOwner) */\n  0xffffffffffffffffffffffffffffffffffffffff\n  and\n    /* \"@openzeppelin/contracts/access/Ownable.sol\":2594:2602  oldOwner */\n  dup2\n    /* \"@openzeppelin/contracts/access/Ownable.sol\":2573:2613  OwnershipTransferred(oldOwner, newOwner) */\n  0xffffffffffffffffffffffffffffffffffffffff\n  and\n  0x8be0079c531659141344cd1fd0a4f28419497f9722a3daafe3b4186f6b6457e0\n  mload(0x40)\n  mload(0x40)\n  dup1\n  swap2\n  sub\n  swap1\n  log3\n    /* \"@openzeppelin/contracts/access/Ownable.sol\":2496:2620  {... */\n  pop\n    /* \"@openzeppelin/contracts/access/Ownable.sol\":2433:2620  function _transferOwnership(address newOwner) internal virtual {... */\n  pop\n  jump\t// out\n    /* \"#utility.yul\":88:205   */\ntag_16:\n    /* \"#utility.yul\":197:198   */\n  0x00\n    /* \"#utility.yul\":194:195   */\n  dup1\n    /* \"#utility.yul\":187:199   */\n  revert\n    /* \"#utility.yul\":334:460   */\ntag_18:\n    /* \"#utility.yul\":371:378   */\n  0x00\n    /* \"#utility.yul\":411:453   */\n  0xffffffffffffffffffffffffffffffffffffffff\n    /* \"#utility.yul\":404:409   */\n  dup3\n    /* \"#utility.yul\":400:454   */\n  and\n    /* \"#utility.yul\":389:454   */\n  swap1\n  pop\n    /* \"#utility.yul\":334:460   */\n  swap2\n  swap1\n  pop\n  jump\t// out\n    /* \"#utility.yul\":466:562   */\ntag_19:\n    /* \"#utility.yul\":503:510   */\n  0x00\n    /* \"#utility.yul\":532:556   */\n  tag_28\n    /* \"#utility.yul\":550:555   */\n  dup3\n    /* \"#utility.yul\":532:556   */\n  tag_18\n  jump\t// in\ntag_28:\n    /* \"#utility.yul\":521:556   */\n  swap1\n  pop\n    /* \"#utility.yul\":466:562   */\n  swap2\n  swap1\n  pop\n  jump\t// out\n    /* \"#utility.yul\":568:690   */\ntag_20:\n    /* \"#utility.yul\":641:665   */\n  tag_30\n    /* \"#utility.yul\":659:664   */\n  dup2\n    /* \"#utility.yul\":641:665   */\n  tag_19\n  jump\t// in\ntag_30:\n    /* \"#utility.yul\":634:639   */\n  dup2\n    /* \"#utility.yul\":631:666   */\n  eq\n    /* \"#utility.yul\":621:684   */\n  tag_31\n  jumpi\n    /* \"#utility.yul\":680:681   */\n  0x00\n    /* \"#utility.yul\":677:678   */\n  dup1\n    /* \"#utility.yul\":670:682   */\n  revert\n    /* \"#utility.yul\":621:684   */\ntag_31:\n    /* \"#utility.yul\":568:690   */\n  pop\n  jump\t// out\n    /* \"#utility.yul\":696:839   */\ntag_21:\n    /* \"#utility.yul\":753:758   */\n  0x00\n    /* \"#utility.yul\":784:790   */\n  dup2\n    /* \"#utility.yul\":778:791   */\n  mload\n    /* \"#utility.yul\":769:791   */\n  swap1\n  pop\n    /* \"#utility.yul\":800:833   */\n  tag_33\n    /* \"#utility.yul\":827:832   */\n  dup2\n    /* \"#utility.yul\":800:833   */\n  tag_20\n  jump\t// in\ntag_33:\n    /* \"#utility.yul\":696:839   */\n  swap3\n  swap2\n  pop\n  pop\n  jump\t// out\n    /* \"#utility.yul\":845:1196   */\ntag_3:\n    /* \"#utility.yul\":915:921   */\n  0x00\n    /* \"#utility.yul\":964:966   */\n  0x20\n    /* \"#utility.yul\":952:961   */\n  dup3\n    /* \"#utility.yul\":943:950   */\n  dup5\n    /* \"#utility.yul\":939:962   */\n  sub\n    /* \"#utility.yul\":935:967   */\n  slt\n    /* \"#utility.yul\":932:1051   */\n  iszero\n  tag_35\n  jumpi\n    /* \"#utility.yul\":970:1049   */\n  tag_36\n  tag_16\n  jump\t// in\ntag_36:\n    /* \"#utility.yul\":932:1051   */\ntag_35:\n    /* \"#utility.yul\":1090:1091   */\n  0x00\n    /* \"#utility.yul\":1115:1179   */\n  tag_37\n    /* \"#utility.yul\":1171:1178   */\n  dup5\n    /* \"#utility.yul\":1162:1168   */\n  dup3\n    /* \"#utility.yul\":1151:1160   */\n  dup6\n    /* \"#utility.yul\":1147:1169   */\n  add\n    /* \"#utility.yul\":1115:1179   */\n  tag_21\n  jump\t// in\ntag_37:\n    /* \"#utility.yul\":1105:1179   */\n  swap2\n  pop\n    /* \"#utility.yul\":1061:1189   */\n  pop\n    /* \"#utility.yul\":845:1196   */\n  swap3\n  swap2\n  pop\n  pop\n  jump\t// out\n    /* \"Perfect.sol\":1865:6566  contract Factory is IERC721Receiver,Ownable{... */\ntag_12:\n  dataSize(sub_0)\n  dup1\n  dataOffset(sub_0)\n  0x00\n  codecopy\n  0x00\n  return\nstop\n\nsub_0: assembly {\n        /* \"Perfect.sol\":1865:6566  contract Factory is IERC721Receiver,Ownable{... */\n      mstore(0x40, 0x80)\n      jumpi(tag_1, lt(calldatasize, 0x04))\n      shr(0xe0, calldataload(0x00))\n      dup1\n      0x8da5cb5b\n      gt\n      tag_20\n      jumpi\n      dup1\n      0xb1d95a5c\n      gt\n      tag_21\n      jumpi\n      dup1\n      0xb1d95a5c\n      eq\n      tag_15\n      jumpi\n      dup1\n      0xc6046f77\n      eq\n      tag_16\n      jumpi\n      dup1\n      0xf2fde38b\n      eq\n      tag_17\n      jumpi\n      dup1\n      0xf4bbc568\n      eq\n      tag_18\n      jumpi\n      dup1\n      0xf851a440\n      eq\n      tag_19\n      jumpi\n      jump(tag_1)\n    tag_21:\n      dup1\n      0x8da5cb5b\n      eq\n      tag_11\n      jumpi\n      dup1\n      0x94d008ef\n      eq\n      tag_12\n      jumpi\n      dup1\n      0xa5e38751\n      eq\n      tag_13\n      jumpi\n      dup1\n      0xb0eb1c9e\n      eq\n      tag_14\n      jumpi\n      jump(tag_1)\n    tag_20:\n      dup1\n      0x5a0f1001\n      gt\n      tag_22\n      jumpi\n      dup1\n      0x5a0f1001\n      eq\n      tag_6\n      jumpi\n      dup1\n      0x5f24be25\n      eq\n      tag_7\n      jumpi\n      dup1\n      0x715018a6\n      eq\n      tag_8\n      jumpi\n      dup1\n      0x73738a9d\n      eq\n      tag_9\n      jumpi\n      dup1\n      0x8623ec7b\n      eq\n      tag_10\n      jumpi\n      jump(tag_1)\n    tag_22:\n      dup1\n      0x150b7a02\n      eq\n      tag_2\n      jumpi\n      dup1\n      0x17b87dbb\n      eq\n      tag_3\n      jumpi\n      dup1\n      0x2aca6cea\n      eq\n      tag_4\n      jumpi\n      dup1\n      0x4e702ab3\n      eq\n      tag_5\n      jumpi\n    tag_1:\n      0x00\n      dup1\n      revert\n        /* \"Perfect.sol\":6335:6564  function onERC721Received(... */\n    tag_2:\n      callvalue\n      dup1\n      iszero\n      tag_23\n      jumpi\n      0x00\n      dup1\n      revert\n    tag_23:\n      pop\n      tag_24\n      0x04\n      dup1\n      calldatasize\n      sub\n      dup2\n      add\n      swap1\n      tag_25\n      swap2\n      swap1\n      tag_26\n      jump\t// in\n    tag_25:\n      tag_27\n      jump\t// in\n    tag_24:\n      mload(0x40)\n      tag_28\n      swap2\n      swap1\n      tag_29\n      jump\t// in\n    tag_28:\n      mload(0x40)\n      dup1\n      swap2\n      sub\n      swap1\n      return\n        /* \"Perfect.sol\":6246:6328  function totalSubcontract() external view returns(uint256){... */\n    tag_3:\n      callvalue\n      dup1\n      iszero\n      tag_30\n      jumpi\n      0x00\n      dup1\n      revert\n    tag_30:\n      pop\n      tag_31\n      tag_32\n      jump\t// in\n    tag_31:\n      mload(0x40)\n      tag_33\n      swap2\n      swap1\n      tag_34\n      jump\t// in\n    tag_33:\n      mload(0x40)\n      dup1\n      swap2\n      sub\n      swap1\n      return\n        /* \"Perfect.sol\":5117:5332  function tokenbalanceBySubcontract(address nft,uint256 subcontractId) external view returns(uint256){... */\n    tag_4:\n      callvalue\n      dup1\n      iszero\n      tag_35\n      jumpi\n      0x00\n      dup1\n      revert\n    tag_35:\n      pop\n      tag_36\n      0x04\n      dup1\n      calldatasize\n      sub\n      dup2\n      add\n      swap1\n      tag_37\n      swap2\n      swap1\n      tag_38\n      jump\t// in\n    tag_37:\n      tag_39\n      jump\t// in\n    tag_36:\n      mload(0x40)\n      tag_40\n      swap2\n      swap1\n      tag_34\n      jump\t// in\n    tag_40:\n      mload(0x40)\n      dup1\n      swap2\n      sub\n      swap1\n      return\n        /* \"Perfect.sol\":3273:3477  function transferBySubContract(... */\n    tag_5:\n      callvalue\n      dup1\n      iszero\n      tag_41\n      jumpi\n      0x00\n      dup1\n      revert\n    tag_41:\n      pop\n      tag_42\n      0x04\n      dup1\n      calldatasize\n      sub\n      dup2\n      add\n      swap1\n      tag_43\n      swap2\n      swap1\n      tag_38\n      jump\t// in\n    tag_43:\n      tag_44\n      jump\t// in\n    tag_42:\n      stop\n        /* \"Perfect.sol\":3483:3685  function NewtransferBySubContract(... */\n    tag_6:\n      callvalue\n      dup1\n      iszero\n      tag_45\n      jumpi\n      0x00\n      dup1\n      revert\n    tag_45:\n      pop\n      tag_46\n      0x04\n      dup1\n      calldatasize\n      sub\n      dup2\n      add\n      swap1\n      tag_47\n      swap2\n      swap1\n      tag_48\n      jump\t// in\n    tag_47:\n      tag_49\n      jump\t// in\n    tag_46:\n      stop\n        /* \"Perfect.sol\":6062:6235  function IstokenStoredOnMap(address nft,uint256 subcontractId) external view returns(uint256[] memory){... */\n    tag_7:\n      callvalue\n      dup1\n      iszero\n      tag_50\n      jumpi\n      0x00\n      dup1\n      revert\n    tag_50:\n      pop\n      tag_51\n      0x04\n      dup1\n      calldatasize\n      sub\n      dup2\n      add\n      swap1\n      tag_52\n      swap2\n      swap1\n      tag_38\n      jump\t// in\n    tag_52:\n      tag_53\n      jump\t// in\n    tag_51:\n      mload(0x40)\n      tag_54\n      swap2\n      swap1\n      tag_55\n      jump\t// in\n    tag_54:\n      mload(0x40)\n      dup1\n      swap2\n      sub\n      swap1\n      return\n        /* \"@openzeppelin/contracts/access/Ownable.sol\":1831:1932  function renounceOwnership() public virtual onlyOwner {... */\n    tag_8:\n      callvalue\n      dup1\n      iszero\n      tag_56\n      jumpi\n      0x00\n      dup1\n      revert\n    tag_56:\n      pop\n      tag_57\n      tag_58\n      jump\t// in\n    tag_57:\n      stop\n        /* \"Perfect.sol\":4122:4379  function RestoreFactorynft(address nft,uint256[] calldata tokenid) external {... */\n    tag_9:\n      callvalue\n      dup1\n      iszero\n      tag_59\n      jumpi\n      0x00\n      dup1\n      revert\n    tag_59:\n      pop\n      tag_60\n      0x04\n      dup1\n      calldatasize\n      sub\n      dup2\n      add\n      swap1\n      tag_61\n      swap2\n      swap1\n      tag_62\n      jump\t// in\n    tag_61:\n      tag_63\n      jump\t// in\n    tag_60:\n      stop\n        /* \"Perfect.sol\":1940:1982  mapping(uint256 => address) public minters */\n    tag_10:\n      callvalue\n      dup1\n      iszero\n      tag_64\n      jumpi\n      0x00\n      dup1\n      revert\n    tag_64:\n      pop\n      tag_65\n      0x04\n      dup1\n      calldatasize\n      sub\n      dup2\n      add\n      swap1\n      tag_66\n      swap2\n      swap1\n      tag_67\n      jump\t// in\n    tag_66:\n      tag_68\n      jump\t// in\n    tag_65:\n      mload(0x40)\n      tag_69\n      swap2\n      swap1\n      tag_70\n      jump\t// in\n    tag_69:\n      mload(0x40)\n      dup1\n      swap2\n      sub\n      swap1\n      return\n        /* \"@openzeppelin/contracts/access/Ownable.sol\":1201:1286  function owner() public view virtual returns (address) {... */\n    tag_11:\n      callvalue\n      dup1\n      iszero\n      tag_71\n      jumpi\n      0x00\n      dup1\n      revert\n    tag_71:\n      pop\n      tag_72\n      tag_73\n      jump\t// in\n    tag_72:\n      mload(0x40)\n      tag_74\n      swap2\n      swap1\n      tag_70\n      jump\t// in\n    tag_74:\n      mload(0x40)\n      dup1\n      swap2\n      sub\n      swap1\n      return\n        /* \"Perfect.sol\":4719:4965  function mint(... */\n    tag_12:\n      callvalue\n      dup1\n      iszero\n      tag_75\n      jumpi\n      0x00\n      dup1\n      revert\n    tag_75:\n      pop\n      tag_76\n      0x04\n      dup1\n      calldatasize\n      sub\n      dup2\n      add\n      swap1\n      tag_77\n      swap2\n      swap1\n      tag_78\n      jump\t// in\n    tag_77:\n      tag_79\n      jump\t// in\n    tag_76:\n      stop\n        /* \"Perfect.sol\":2374:2958  function deploy(uint256 amount) external onlyOwner {... */\n    tag_13:\n      callvalue\n      dup1\n      iszero\n      tag_80\n      jumpi\n      0x00\n      dup1\n      revert\n    tag_80:\n      pop\n      tag_81\n      0x04\n      dup1\n      calldatasize\n      sub\n      dup2\n      add\n      swap1\n      tag_82\n      swap2\n      swap1\n      tag_67\n      jump\t// in\n    tag_82:\n      tag_83\n      jump\t// in\n    tag_81:\n      stop\n        /* \"Perfect.sol\":5559:5839  function CheckTokenId(address nft,uint256 subcontractId,uint256 tokenid) external view returns(bool){... */\n    tag_14:\n      callvalue\n      dup1\n      iszero\n      tag_84\n      jumpi\n      0x00\n      dup1\n      revert\n    tag_84:\n      pop\n      tag_85\n      0x04\n      dup1\n      calldatasize\n      sub\n      dup2\n      add\n      swap1\n      tag_86\n      swap2\n      swap1\n      tag_48\n      jump\t// in\n    tag_86:\n      tag_87\n      jump\t// in\n    tag_85:\n      mload(0x40)\n      tag_88\n      swap2\n      swap1\n      tag_89\n      jump\t// in\n    tag_88:\n      mload(0x40)\n      dup1\n      swap2\n      sub\n      swap1\n      return\n        /* \"Perfect.sol\":3780:3992  function RestoreNftFromSubcontract(... */\n    tag_15:\n      callvalue\n      dup1\n      iszero\n      tag_90\n      jumpi\n      0x00\n      dup1\n      revert\n    tag_90:\n      pop\n      tag_91\n      0x04\n      dup1\n      calldatasize\n      sub\n      dup2\n      add\n      swap1\n      tag_92\n      swap2\n      swap1\n      tag_93\n      jump\t// in\n    tag_92:\n      tag_94\n      jump\t// in\n    tag_91:\n      stop\n        /* \"Perfect.sol\":4386:4713  function mintAndTransfer(... */\n    tag_16:\n      callvalue\n      dup1\n      iszero\n      tag_95\n      jumpi\n      0x00\n      dup1\n      revert\n    tag_95:\n      pop\n      tag_96\n      0x04\n      dup1\n      calldatasize\n      sub\n      dup2\n      add\n      swap1\n      tag_97\n      swap2\n      swap1\n      tag_78\n      jump\t// in\n    tag_97:\n      tag_98\n      jump\t// in\n    tag_96:\n      stop\n        /* \"@openzeppelin/contracts/access/Ownable.sol\":2081:2279  function transferOwnership(address newOwner) public virtual onlyOwner {... */\n    tag_17:\n      callvalue\n      dup1\n      iszero\n      tag_99\n      jumpi\n      0x00\n      dup1\n      revert\n    tag_99:\n      pop\n      tag_100\n      0x04\n      dup1\n      calldatasize\n      sub\n      dup2\n      add\n      swap1\n      tag_101\n      swap2\n      swap1\n      tag_102\n      jump\t// in\n    tag_101:\n      tag_103\n      jump\t// in\n    tag_100:\n      stop\n        /* \"Perfect.sol\":2966:3265  function mintBySubContract(... */\n    tag_18:\n      tag_104\n      0x04\n      dup1\n      calldatasize\n      sub\n      dup2\n      add\n      swap1\n      tag_105\n      swap2\n      swap1\n      tag_78\n      jump\t// in\n    tag_105:\n      tag_106\n      jump\t// in\n    tag_104:\n      stop\n        /* \"Perfect.sol\":1914:1934  address public admin */\n    tag_19:\n      callvalue\n      dup1\n      iszero\n      tag_107\n      jumpi\n      0x00\n      dup1\n      revert\n    tag_107:\n      pop\n      tag_108\n      tag_109\n      jump\t// in\n    tag_108:\n      mload(0x40)\n      tag_110\n      swap2\n      swap1\n      tag_70\n      jump\t// in\n    tag_110:\n      mload(0x40)\n      dup1\n      swap2\n      sub\n      swap1\n      return\n        /* \"Perfect.sol\":6335:6564  function onERC721Received(... */\n    tag_27:\n        /* \"Perfect.sol\":6474:6480  bytes4 */\n      0x00\n        /* \"Perfect.sol\":6502:6510  _tokenId */\n      dup3\n        /* \"Perfect.sol\":6492:6499  tokenId */\n      0x04\n        /* \"Perfect.sol\":6492:6510  tokenId = _tokenId */\n      dup2\n      swap1\n      sstore\n      pop\n        /* \"Perfect.sol\":6527:6557  this.onERC721Received.selector */\n      shl(0xe0, 0x150b7a02)\n        /* \"Perfect.sol\":6520:6557  return this.onERC721Received.selector */\n      swap1\n      pop\n        /* \"Perfect.sol\":6335:6564  function onERC721Received(... */\n      swap5\n      swap4\n      pop\n      pop\n      pop\n      pop\n      jump\t// out\n        /* \"Perfect.sol\":6246:6328  function totalSubcontract() external view returns(uint256){... */\n    tag_32:\n        /* \"Perfect.sol\":6296:6303  uint256 */\n      0x00\n        /* \"Perfect.sol\":6317:6321  salt */\n      sload(0x03)\n        /* \"Perfect.sol\":6310:6321  return salt */\n      swap1\n      pop\n        /* \"Perfect.sol\":6246:6328  function totalSubcontract() external view returns(uint256){... */\n      swap1\n      jump\t// out\n        /* \"Perfect.sol\":5117:5332  function tokenbalanceBySubcontract(address nft,uint256 subcontractId) external view returns(uint256){... */\n    tag_39:\n        /* \"Perfect.sol\":5209:5216  uint256 */\n      0x00\n        /* \"Perfect.sol\":5223:5247  IERC721 nftTokenContract */\n      dup1\n        /* \"Perfect.sol\":5258:5261  nft */\n      dup4\n        /* \"Perfect.sol\":5223:5262  IERC721 nftTokenContract = IERC721(nft) */\n      swap1\n      pop\n        /* \"Perfect.sol\":5275:5291  nftTokenContract */\n      dup1\n        /* \"Perfect.sol\":5275:5301  nftTokenContract.balanceOf */\n      0xffffffffffffffffffffffffffffffffffffffff\n      and\n      0x70a08231\n        /* \"Perfect.sol\":5302:5309  minters */\n      0x02\n        /* \"Perfect.sol\":5302:5324  minters[subcontractId] */\n      0x00\n        /* \"Perfect.sol\":5310:5323  subcontractId */\n      dup7\n        /* \"Perfect.sol\":5302:5324  minters[subcontractId] */\n      dup2\n      mstore\n      0x20\n      add\n      swap1\n      dup2\n      mstore\n      0x20\n      add\n      0x00\n      keccak256\n      0x00\n      swap1\n      sload\n      swap1\n      0x0100\n      exp\n      swap1\n      div\n      0xffffffffffffffffffffffffffffffffffffffff\n      and\n        /* \"Perfect.sol\":5275:5325  nftTokenContract.balanceOf(minters[subcontractId]) */\n      mload(0x40)\n      dup3\n      0xffffffff\n      and\n      0xe0\n      shl\n      dup2\n      mstore\n      0x04\n      add\n      tag_114\n      swap2\n      swap1\n      tag_70\n      jump\t// in\n    tag_114:\n      0x20\n      mload(0x40)\n      dup1\n      dup4\n      sub\n      dup2\n      dup7\n      gas\n      staticcall\n      iszero\n      dup1\n      iszero\n      tag_116\n      jumpi\n      returndatasize\n      0x00\n      dup1\n      returndatacopy\n      revert(0x00, returndatasize)\n    tag_116:\n      pop\n      pop\n      pop\n      pop\n      mload(0x40)\n      returndatasize\n      not(0x1f)\n      0x1f\n      dup3\n      add\n      and\n      dup3\n      add\n      dup1\n      0x40\n      mstore\n      pop\n      dup2\n      add\n      swap1\n      tag_117\n      swap2\n      swap1\n      tag_118\n      jump\t// in\n    tag_117:\n        /* \"Perfect.sol\":5268:5325  return nftTokenContract.balanceOf(minters[subcontractId]) */\n      swap2\n      pop\n      pop\n        /* \"Perfect.sol\":5117:5332  function tokenbalanceBySubcontract(address nft,uint256 subcontractId) external view returns(uint256){... */\n      swap3\n      swap2\n      pop\n      pop\n      jump\t// out\n        /* \"Perfect.sol\":3273:3477  function transferBySubContract(... */\n    tag_44:\n        /* \"Perfect.sol\":3378:3387  uint256 i */\n      0x00\n        /* \"Perfect.sol\":3374:3471  for(uint256 i = 0; i < amount; i ++) {... */\n    tag_120:\n        /* \"Perfect.sol\":3397:3403  amount */\n      dup2\n        /* \"Perfect.sol\":3393:3394  i */\n      dup2\n        /* \"Perfect.sol\":3393:3403  i < amount */\n      lt\n        /* \"Perfect.sol\":3374:3471  for(uint256 i = 0; i < amount; i ++) {... */\n      iszero\n      tag_121\n      jumpi\n        /* \"Perfect.sol\":3435:3442  minters */\n      0x02\n        /* \"Perfect.sol\":3435:3445  minters[i] */\n      0x00\n        /* \"Perfect.sol\":3443:3444  i */\n      dup3\n        /* \"Perfect.sol\":3435:3445  minters[i] */\n      dup2\n      mstore\n      0x20\n      add\n      swap1\n      dup2\n      mstore\n      0x20\n      add\n      0x00\n      keccak256\n      0x00\n      swap1\n      sload\n      swap1\n      0x0100\n      exp\n      swap1\n      div\n      0xffffffffffffffffffffffffffffffffffffffff\n      and\n        /* \"Perfect.sol\":3425:3455  NftMinter(minters[i]).transfer */\n      0xffffffffffffffffffffffffffffffffffffffff\n      and\n      0x1a695230\n        /* \"Perfect.sol\":3456:3459  nft */\n      dup5\n        /* \"Perfect.sol\":3425:3460  NftMinter(minters[i]).transfer(nft) */\n      mload(0x40)\n      dup3\n      0xffffffff\n      and\n      0xe0\n      shl\n      dup2\n      mstore\n      0x04\n      add\n      tag_123\n      swap2\n      swap1\n      tag_70\n      jump\t// in\n    tag_123:\n      0x00\n      mload(0x40)\n      dup1\n      dup4\n      sub\n      dup2\n      0x00\n      dup8\n      dup1\n      extcodesize\n      iszero\n      dup1\n      iszero\n      tag_124\n      jumpi\n      0x00\n      dup1\n      revert\n    tag_124:\n      pop\n      gas\n      call\n      iszero\n      dup1\n      iszero\n      tag_126\n      jumpi\n      returndatasize\n      0x00\n      dup1\n      returndatacopy\n      revert(0x00, returndatasize)\n    tag_126:\n      pop\n      pop\n      pop\n      pop\n        /* \"Perfect.sol\":3405:3409  i ++ */\n      dup1\n      dup1\n      tag_127\n      swap1\n      tag_128\n      jump\t// in\n    tag_127:\n      swap2\n      pop\n      pop\n        /* \"Perfect.sol\":3374:3471  for(uint256 i = 0; i < amount; i ++) {... */\n      jump(tag_120)\n    tag_121:\n      pop\n        /* \"Perfect.sol\":3273:3477  function transferBySubContract(... */\n      pop\n      pop\n      jump\t// out\n        /* \"Perfect.sol\":3483:3685  function NewtransferBySubContract(... */\n    tag_49:\n        /* \"Perfect.sol\":3591:3597  uint i */\n      0x00\n        /* \"Perfect.sol\":3600:3604  from */\n      dup3\n        /* \"Perfect.sol\":3591:3604  uint i = from */\n      swap1\n      pop\n        /* \"Perfect.sol\":3587:3679  for(uint i = from; i < to; i++) {... */\n    tag_130:\n        /* \"Perfect.sol\":3610:3612  to */\n      dup2\n        /* \"Perfect.sol\":3606:3607  i */\n      dup2\n        /* \"Perfect.sol\":3606:3612  i < to */\n      lt\n        /* \"Perfect.sol\":3587:3679  for(uint i = from; i < to; i++) {... */\n      iszero\n      tag_131\n      jumpi\n        /* \"Perfect.sol\":3643:3650  minters */\n      0x02\n        /* \"Perfect.sol\":3643:3653  minters[i] */\n      0x00\n        /* \"Perfect.sol\":3651:3652  i */\n      dup3\n        /* \"Perfect.sol\":3643:3653  minters[i] */\n      dup2\n      mstore\n      0x20\n      add\n      swap1\n      dup2\n      mstore\n      0x20\n      add\n      0x00\n      keccak256\n      0x00\n      swap1\n      sload\n      swap1\n      0x0100\n      exp\n      swap1\n      div\n      0xffffffffffffffffffffffffffffffffffffffff\n      and\n        /* \"Perfect.sol\":3633:3663  NftMinter(minters[i]).transfer */\n      0xffffffffffffffffffffffffffffffffffffffff\n      and\n      0x1a695230\n        /* \"Perfect.sol\":3664:3667  nft */\n      dup6\n        /* \"Perfect.sol\":3633:3668  NftMinter(minters[i]).transfer(nft) */\n      mload(0x40)\n      dup3\n      0xffffffff\n      and\n      0xe0\n      shl\n      dup2\n      mstore\n      0x04\n      add\n      tag_133\n      swap2\n      swap1\n      tag_70\n      jump\t// in\n    tag_133:\n      0x00\n      mload(0x40)\n      dup1\n      dup4\n      sub\n      dup2\n      0x00\n      dup8\n      dup1\n      extcodesize\n      iszero\n      dup1\n      iszero\n      tag_134\n      jumpi\n      0x00\n      dup1\n      revert\n    tag_134:\n      pop\n      gas\n      call\n      iszero\n      dup1\n      iszero\n      tag_136\n      jumpi\n      returndatasize\n      0x00\n      dup1\n      returndatacopy\n      revert(0x00, returndatasize)\n    tag_136:\n      pop\n      pop\n      pop\n      pop\n        /* \"Perfect.sol\":3614:3617  i++ */\n      dup1\n      dup1\n      tag_137\n      swap1\n      tag_128\n      jump\t// in\n    tag_137:\n      swap2\n      pop\n      pop\n        /* \"Perfect.sol\":3587:3679  for(uint i = from; i < to; i++) {... */\n      jump(tag_130)\n    tag_131:\n      pop\n        /* \"Perfect.sol\":3483:3685  function NewtransferBySubContract(... */\n      pop\n      pop\n      pop\n      jump\t// out\n        /* \"Perfect.sol\":6062:6235  function IstokenStoredOnMap(address nft,uint256 subcontractId) external view returns(uint256[] memory){... */\n    tag_53:\n        /* \"Perfect.sol\":6147:6163  uint256[] memory */\n      0x60\n        /* \"Perfect.sol\":6188:6195  minters */\n      0x02\n        /* \"Perfect.sol\":6188:6210  minters[subcontractId] */\n      0x00\n        /* \"Perfect.sol\":6196:6209  subcontractId */\n      dup4\n        /* \"Perfect.sol\":6188:6210  minters[subcontractId] */\n      dup2\n      mstore\n      0x20\n      add\n      swap1\n      dup2\n      mstore\n      0x20\n      add\n      0x00\n      keccak256\n      0x00\n      swap1\n      sload\n      swap1\n      0x0100\n      exp\n      swap1\n      div\n      0xffffffffffffffffffffffffffffffffffffffff\n      and\n        /* \"Perfect.sol\":6178:6225  NftMinter(minters[subcontractId]).tokenIdsByNFT */\n      0xffffffffffffffffffffffffffffffffffffffff\n      and\n      0xc57a1166\n        /* \"Perfect.sol\":6226:6229  nft */\n      dup5\n        /* \"Perfect.sol\":6178:6230  NftMinter(minters[subcontractId]).tokenIdsByNFT(nft) */\n      mload(0x40)\n      dup3\n      0xffffffff\n      and\n      0xe0\n      shl\n      dup2\n      mstore\n      0x04\n      add\n      tag_139\n      swap2\n      swap1\n      tag_70\n      jump\t// in\n    tag_139:\n      0x00\n      mload(0x40)\n      dup1\n      dup4\n      sub\n      dup2\n      dup7\n      gas\n      staticcall\n      iszero\n      dup1\n      iszero\n      tag_141\n      jumpi\n      returndatasize\n      0x00\n      dup1\n      returndatacopy\n      revert(0x00, returndatasize)\n    tag_141:\n      pop\n      pop\n      pop\n      pop\n      mload(0x40)\n      returndatasize\n      0x00\n      dup3\n      returndatacopy\n      returndatasize\n      not(0x1f)\n      0x1f\n      dup3\n      add\n      and\n      dup3\n      add\n      dup1\n      0x40\n      mstore\n      pop\n      dup2\n      add\n      swap1\n      tag_142\n      swap2\n      swap1\n      tag_143\n      jump\t// in\n    tag_142:\n        /* \"Perfect.sol\":6171:6230  return NftMinter(minters[subcontractId]).tokenIdsByNFT(nft) */\n      swap1\n      pop\n        /* \"Perfect.sol\":6062:6235  function IstokenStoredOnMap(address nft,uint256 subcontractId) external view returns(uint256[] memory){... */\n      swap3\n      swap2\n      pop\n      pop\n      jump\t// out\n        /* \"@openzeppelin/contracts/access/Ownable.sol\":1831:1932  function renounceOwnership() public virtual onlyOwner {... */\n    tag_58:\n        /* \"@openzeppelin/contracts/access/Ownable.sol\":1094:1107  _checkOwner() */\n      tag_145\n        /* \"@openzeppelin/contracts/access/Ownable.sol\":1094:1105  _checkOwner */\n      tag_146\n        /* \"@openzeppelin/contracts/access/Ownable.sol\":1094:1107  _checkOwner() */\n      jump\t// in\n    tag_145:\n        /* \"@openzeppelin/contracts/access/Ownable.sol\":1895:1925  _transferOwnership(address(0)) */\n      tag_148\n        /* \"@openzeppelin/contracts/access/Ownable.sol\":1922:1923  0 */\n      0x00\n        /* \"@openzeppelin/contracts/access/Ownable.sol\":1895:1913  _transferOwnership */\n      tag_149\n        /* \"@openzeppelin/contracts/access/Ownable.sol\":1895:1925  _transferOwnership(address(0)) */\n      jump\t// in\n    tag_148:\n        /* \"@openzeppelin/contracts/access/Ownable.sol\":1831:1932  function renounceOwnership() public virtual onlyOwner {... */\n      jump\t// out\n        /* \"Perfect.sol\":4122:4379  function RestoreFactorynft(address nft,uint256[] calldata tokenid) external {... */\n    tag_63:\n        /* \"Perfect.sol\":4208:4223  uint256 _length */\n      0x00\n        /* \"Perfect.sol\":4226:4233  tokenid */\n      dup3\n      dup3\n        /* \"Perfect.sol\":4226:4240  tokenid.length */\n      swap1\n      pop\n        /* \"Perfect.sol\":4208:4240  uint256 _length = tokenid.length */\n      swap1\n      pop\n        /* \"Perfect.sol\":4256:4265  uint256 i */\n      0x00\n        /* \"Perfect.sol\":4251:4374  for (uint256 i = 0; i < _length; i++ ) {... */\n    tag_151:\n        /* \"Perfect.sol\":4275:4282  _length */\n      dup2\n        /* \"Perfect.sol\":4271:4272  i */\n      dup2\n        /* \"Perfect.sol\":4271:4282  i < _length */\n      lt\n        /* \"Perfect.sol\":4251:4374  for (uint256 i = 0; i < _length; i++ ) {... */\n      iszero\n      tag_152\n      jumpi\n        /* \"Perfect.sol\":4312:4315  nft */\n      dup5\n        /* \"Perfect.sol\":4304:4329  IERC721(nft).transferFrom */\n      0xffffffffffffffffffffffffffffffffffffffff\n      and\n      0x23b872dd\n        /* \"Perfect.sol\":4338:4342  this */\n      address\n        /* \"Perfect.sol\":4345:4350  admin */\n      0x01\n      0x00\n      swap1\n      sload\n      swap1\n      0x0100\n      exp\n      swap1\n      div\n      0xffffffffffffffffffffffffffffffffffffffff\n      and\n        /* \"Perfect.sol\":4352:4359  tokenid */\n      dup8\n      dup8\n        /* \"Perfect.sol\":4360:4361  i */\n      dup7\n        /* \"Perfect.sol\":4352:4362  tokenid[i] */\n      dup2\n      dup2\n      lt\n      tag_154\n      jumpi\n      tag_155\n      tag_156\n      jump\t// in\n    tag_155:\n    tag_154:\n      swap1\n      pop\n      0x20\n      mul\n      add\n      calldataload\n        /* \"Perfect.sol\":4304:4363  IERC721(nft).transferFrom(address(this), admin, tokenid[i]) */\n      mload(0x40)\n      dup5\n      0xffffffff\n      and\n      0xe0\n      shl\n      dup2\n      mstore\n      0x04\n      add\n      tag_157\n      swap4\n      swap3\n      swap2\n      swap1\n      tag_158\n      jump\t// in\n    tag_157:\n      0x00\n      mload(0x40)\n      dup1\n      dup4\n      sub\n      dup2\n      0x00\n      dup8\n      dup1\n      extcodesize\n      iszero\n      dup1\n      iszero\n      tag_159\n      jumpi\n      0x00\n      dup1\n      revert\n    tag_159:\n      pop\n      gas\n      call\n      iszero\n      dup1\n      iszero\n      tag_161\n      jumpi\n      returndatasize\n      0x00\n      dup1\n      returndatacopy\n      revert(0x00, returndatasize)\n    tag_161:\n      pop\n      pop\n      pop\n      pop\n        /* \"Perfect.sol\":4284:4287  i++ */\n      dup1\n      dup1\n      tag_162\n      swap1\n      tag_128\n      jump\t// in\n    tag_162:\n      swap2\n      pop\n      pop\n        /* \"Perfect.sol\":4251:4374  for (uint256 i = 0; i < _length; i++ ) {... */\n      jump(tag_151)\n    tag_152:\n      pop\n        /* \"Perfect.sol\":4198:4379  {... */\n      pop\n        /* \"Perfect.sol\":4122:4379  function RestoreFactorynft(address nft,uint256[] calldata tokenid) external {... */\n      pop\n      pop\n      pop\n      jump\t// out\n        /* \"Perfect.sol\":1940:1982  mapping(uint256 => address) public minters */\n    tag_68:\n      mstore(0x20, 0x02)\n      dup1\n      0x00\n      mstore\n      keccak256(0x00, 0x40)\n      0x00\n      swap2\n      pop\n      sload\n      swap1\n      0x0100\n      exp\n      swap1\n      div\n      0xffffffffffffffffffffffffffffffffffffffff\n      and\n      dup2\n      jump\t// out\n        /* \"@openzeppelin/contracts/access/Ownable.sol\":1201:1286  function owner() public view virtual returns (address) {... */\n    tag_73:\n        /* \"@openzeppelin/contracts/access/Ownable.sol\":1247:1254  address */\n      0x00\n        /* \"@openzeppelin/contracts/access/Ownable.sol\":1273:1279  _owner */\n      dup1\n      0x00\n      swap1\n      sload\n      swap1\n      0x0100\n      exp\n      swap1\n      div\n      0xffffffffffffffffffffffffffffffffffffffff\n      and\n        /* \"@openzeppelin/contracts/access/Ownable.sol\":1266:1279  return _owner */\n      swap1\n      pop\n        /* \"@openzeppelin/contracts/access/Ownable.sol\":1201:1286  function owner() public view virtual returns (address) {... */\n      swap1\n      jump\t// out\n        /* \"Perfect.sol\":4719:4965  function mint(... */\n    tag_79:\n        /* \"Perfect.sol\":4837:4846  uint256 i */\n      0x00\n        /* \"Perfect.sol\":4833:4959  for(uint256 i = 0; i < amount; i ++) {... */\n    tag_165:\n        /* \"Perfect.sol\":4856:4862  amount */\n      dup4\n        /* \"Perfect.sol\":4852:4853  i */\n      dup2\n        /* \"Perfect.sol\":4852:4862  i < amount */\n      lt\n        /* \"Perfect.sol\":4833:4959  for(uint256 i = 0; i < amount; i ++) {... */\n      iszero\n      tag_166\n      jumpi\n        /* \"Perfect.sol\":4885:4897  bool success */\n      0x00\n        /* \"Perfect.sol\":4903:4906  nft */\n      dup6\n        /* \"Perfect.sol\":4903:4911  nft.call */\n      0xffffffffffffffffffffffffffffffffffffffff\n      and\n        /* \"Perfect.sol\":4912:4917  param */\n      dup5\n      dup5\n        /* \"Perfect.sol\":4903:4918  nft.call(param) */\n      mload(0x40)\n      tag_168\n      swap3\n      swap2\n      swap1\n      tag_169\n      jump\t// in\n    tag_168:\n      0x00\n      mload(0x40)\n      dup1\n      dup4\n      sub\n      dup2\n      0x00\n      dup7\n      gas\n      call\n      swap2\n      pop\n      pop\n      returndatasize\n      dup1\n      0x00\n      dup2\n      eq\n      tag_172\n      jumpi\n      mload(0x40)\n      swap2\n      pop\n      and(add(returndatasize, 0x3f), not(0x1f))\n      dup3\n      add\n      0x40\n      mstore\n      returndatasize\n      dup3\n      mstore\n      returndatasize\n      0x00\n      0x20\n      dup5\n      add\n      returndatacopy\n      jump(tag_171)\n    tag_172:\n      0x60\n      swap2\n      pop\n    tag_171:\n      pop\n        /* \"Perfect.sol\":4884:4918  (bool success, ) = nft.call(param) */\n      pop\n      swap1\n      pop\n        /* \"Perfect.sol\":4940:4947  success */\n      dup1\n        /* \"Perfect.sol\":4932:4948  require(success) */\n      tag_173\n      jumpi\n      0x00\n      dup1\n      revert\n    tag_173:\n        /* \"Perfect.sol\":4870:4959  {... */\n      pop\n        /* \"Perfect.sol\":4864:4868  i ++ */\n      dup1\n      dup1\n      tag_174\n      swap1\n      tag_128\n      jump\t// in\n    tag_174:\n      swap2\n      pop\n      pop\n        /* \"Perfect.sol\":4833:4959  for(uint256 i = 0; i < amount; i ++) {... */\n      jump(tag_165)\n    tag_166:\n      pop\n        /* \"Perfect.sol\":4719:4965  function mint(... */\n      pop\n      pop\n      pop\n      pop\n      jump\t// out\n        /* \"Perfect.sol\":2374:2958  function deploy(uint256 amount) external onlyOwner {... */\n    tag_83:\n        /* \"@openzeppelin/contracts/access/Ownable.sol\":1094:1107  _checkOwner() */\n      tag_176\n        /* \"@openzeppelin/contracts/access/Ownable.sol\":1094:1105  _checkOwner */\n      tag_146\n        /* \"@openzeppelin/contracts/access/Ownable.sol\":1094:1107  _checkOwner() */\n      jump\t// in\n    tag_176:\n        /* \"Perfect.sol\":2435:2456  bytes memory bytecode */\n      0x00\n        /* \"Perfect.sol\":2459:2472  getBytecode() */\n      tag_178\n        /* \"Perfect.sol\":2459:2470  getBytecode */\n      tag_179\n        /* \"Perfect.sol\":2459:2472  getBytecode() */\n      jump\t// in\n    tag_178:\n        /* \"Perfect.sol\":2435:2472  bytes memory bytecode = getBytecode() */\n      swap1\n      pop\n        /* \"Perfect.sol\":2486:2495  uint256 i */\n      0x00\n        /* \"Perfect.sol\":2482:2952  for(uint256 i = 0; i < amount; i ++) {... */\n    tag_180:\n        /* \"Perfect.sol\":2505:2511  amount */\n      dup3\n        /* \"Perfect.sol\":2501:2502  i */\n      dup2\n        /* \"Perfect.sol\":2501:2511  i < amount */\n      lt\n        /* \"Perfect.sol\":2482:2952  for(uint256 i = 0; i < amount; i ++) {... */\n      iszero\n      tag_181\n      jumpi\n        /* \"Perfect.sol\":2533:2545  address addr */\n      0x00\n        /* \"Perfect.sol\":2559:2572  uint256 _salt */\n      dup1\n        /* \"Perfect.sol\":2575:2579  salt */\n      sload(0x03)\n        /* \"Perfect.sol\":2559:2579  uint256 _salt = salt */\n      swap1\n      pop\n        /* \"Perfect.sol\":2687:2692  _salt */\n      dup1\n        /* \"Perfect.sol\":2676:2684  bytecode */\n      dup5\n        /* \"Perfect.sol\":2670:2685  mload(bytecode) */\n      mload\n        /* \"Perfect.sol\":2663:2667  0x20 */\n      0x20\n        /* \"Perfect.sol\":2653:2661  bytecode */\n      dup7\n        /* \"Perfect.sol\":2649:2668  add(bytecode, 0x20) */\n      add\n        /* \"Perfect.sol\":2636:2647  callvalue() */\n      callvalue\n        /* \"Perfect.sol\":2628:2693  create2(callvalue(), add(bytecode, 0x20), mload(bytecode), _salt) */\n      create2\n        /* \"Perfect.sol\":2620:2693  addr := create2(callvalue(), add(bytecode, 0x20), mload(bytecode), _salt) */\n      swap2\n      pop\n        /* \"Perfect.sol\":2733:2737  addr */\n      dup2\n        /* \"Perfect.sol\":2721:2738  extcodesize(addr) */\n      extcodesize\n        /* \"Perfect.sol\":2711:2792  if iszero(extcodesize(addr)) {... */\n      tag_183\n      jumpi\n        /* \"Perfect.sol\":2772:2773  0 */\n      0x00\n        /* \"Perfect.sol\":2769:2770  0 */\n      dup1\n        /* \"Perfect.sol\":2762:2774  revert(0, 0) */\n      revert\n        /* \"Perfect.sol\":2711:2792  if iszero(extcodesize(addr)) {... */\n    tag_183:\n        /* \"Perfect.sol\":2861:2865  addr */\n      dup2\n        /* \"Perfect.sol\":2845:2852  minters */\n      0x02\n        /* \"Perfect.sol\":2845:2858  minters[salt] */\n      0x00\n        /* \"Perfect.sol\":2853:2857  salt */\n      sload(0x03)\n        /* \"Perfect.sol\":2845:2858  minters[salt] */\n      dup2\n      mstore\n      0x20\n      add\n      swap1\n      dup2\n      mstore\n      0x20\n      add\n      0x00\n      keccak256\n      0x00\n        /* \"Perfect.sol\":2845:2865  minters[salt] = addr */\n      0x0100\n      exp\n      dup2\n      sload\n      dup2\n      0xffffffffffffffffffffffffffffffffffffffff\n      mul\n      not\n      and\n      swap1\n      dup4\n      0xffffffffffffffffffffffffffffffffffffffff\n      and\n      mul\n      or\n      swap1\n      sstore\n      pop\n        /* \"Perfect.sol\":2879:2883  salt */\n      0x03\n      0x00\n        /* \"Perfect.sol\":2879:2885  salt++ */\n      dup2\n      sload\n      dup1\n      swap3\n      swap2\n      swap1\n      tag_184\n      swap1\n      tag_128\n      jump\t// in\n    tag_184:\n      swap2\n      swap1\n      pop\n      sstore\n      pop\n        /* \"Perfect.sol\":2904:2932  minter(addr,msg.sender,salt) */\n      0xb0b65434ab7a8e35e9fb03abe77a52cc1bc3664d803dc0685d76a38492e42c35\n        /* \"Perfect.sol\":2911:2915  addr */\n      dup3\n        /* \"Perfect.sol\":2916:2926  msg.sender */\n      caller\n        /* \"Perfect.sol\":2927:2931  salt */\n      sload(0x03)\n        /* \"Perfect.sol\":2904:2932  minter(addr,msg.sender,salt) */\n      mload(0x40)\n      tag_185\n      swap4\n      swap3\n      swap2\n      swap1\n      tag_158\n      jump\t// in\n    tag_185:\n      mload(0x40)\n      dup1\n      swap2\n      sub\n      swap1\n      log1\n        /* \"Perfect.sol\":2519:2952  {... */\n      pop\n      pop\n        /* \"Perfect.sol\":2513:2517  i ++ */\n      dup1\n      dup1\n      tag_186\n      swap1\n      tag_128\n      jump\t// in\n    tag_186:\n      swap2\n      pop\n      pop\n        /* \"Perfect.sol\":2482:2952  for(uint256 i = 0; i < amount; i ++) {... */\n      jump(tag_180)\n    tag_181:\n      pop\n        /* \"Perfect.sol\":2425:2958  {... */\n      pop\n        /* \"Perfect.sol\":2374:2958  function deploy(uint256 amount) external onlyOwner {... */\n      pop\n      jump\t// out\n        /* \"Perfect.sol\":5559:5839  function CheckTokenId(address nft,uint256 subcontractId,uint256 tokenid) external view returns(bool){... */\n    tag_87:\n        /* \"Perfect.sol\":5654:5658  bool */\n      0x00\n        /* \"Perfect.sol\":5665:5689  IERC721 nftTokenContract */\n      dup1\n        /* \"Perfect.sol\":5700:5703  nft */\n      dup5\n        /* \"Perfect.sol\":5665:5704  IERC721 nftTokenContract = IERC721(nft) */\n      swap1\n      pop\n        /* \"Perfect.sol\":5748:5755  minters */\n      0x02\n        /* \"Perfect.sol\":5748:5770  minters[subcontractId] */\n      0x00\n        /* \"Perfect.sol\":5756:5769  subcontractId */\n      dup6\n        /* \"Perfect.sol\":5748:5770  minters[subcontractId] */\n      dup2\n      mstore\n      0x20\n      add\n      swap1\n      dup2\n      mstore\n      0x20\n      add\n      0x00\n      keccak256\n      0x00\n      swap1\n      sload\n      swap1\n      0x0100\n      exp\n      swap1\n      div\n      0xffffffffffffffffffffffffffffffffffffffff\n      and\n        /* \"Perfect.sol\":5713:5770  nftTokenContract.ownerOf(tokenid)==minters[subcontractId] */\n      0xffffffffffffffffffffffffffffffffffffffff\n      and\n        /* \"Perfect.sol\":5713:5729  nftTokenContract */\n      dup2\n        /* \"Perfect.sol\":5713:5737  nftTokenContract.ownerOf */\n      0xffffffffffffffffffffffffffffffffffffffff\n      and\n      0x6352211e\n        /* \"Perfect.sol\":5738:5745  tokenid */\n      dup6\n        /* \"Perfect.sol\":5713:5746  nftTokenContract.ownerOf(tokenid) */\n      mload(0x40)\n      dup3\n      0xffffffff\n      and\n      0xe0\n      shl\n      dup2\n      mstore\n      0x04\n      add\n      tag_188\n      swap2\n      swap1\n      tag_34\n      jump\t// in\n    tag_188:\n      0x20\n      mload(0x40)\n      dup1\n      dup4\n      sub\n      dup2\n      dup7\n      gas\n      staticcall\n      iszero\n      dup1\n      iszero\n      tag_190\n      jumpi\n      returndatasize\n      0x00\n      dup1\n      returndatacopy\n      revert(0x00, returndatasize)\n    tag_190:\n      pop\n      pop\n      pop\n      pop\n      mload(0x40)\n      returndatasize\n      not(0x1f)\n      0x1f\n      dup3\n      add\n      and\n      dup3\n      add\n      dup1\n      0x40\n      mstore\n      pop\n      dup2\n      add\n      swap1\n      tag_191\n      swap2\n      swap1\n      tag_192\n      jump\t// in\n    tag_191:\n        /* \"Perfect.sol\":5713:5770  nftTokenContract.ownerOf(tokenid)==minters[subcontractId] */\n      0xffffffffffffffffffffffffffffffffffffffff\n      and\n      sub\n        /* \"Perfect.sol\":5710:5832  if(nftTokenContract.ownerOf(tokenid)==minters[subcontractId]){... */\n      tag_193\n      jumpi\n        /* \"Perfect.sol\":5788:5792  true */\n      0x01\n        /* \"Perfect.sol\":5781:5792  return true */\n      swap2\n      pop\n      pop\n      jump(tag_187)\n        /* \"Perfect.sol\":5710:5832  if(nftTokenContract.ownerOf(tokenid)==minters[subcontractId]){... */\n    tag_193:\n        /* \"Perfect.sol\":5820:5825  false */\n      0x00\n        /* \"Perfect.sol\":5813:5825  return false */\n      swap2\n      pop\n      pop\n        /* \"Perfect.sol\":5559:5839  function CheckTokenId(address nft,uint256 subcontractId,uint256 tokenid) external view returns(bool){... */\n    tag_187:\n      swap4\n      swap3\n      pop\n      pop\n      pop\n      jump\t// out\n        /* \"Perfect.sol\":3780:3992  function RestoreNftFromSubcontract(... */\n    tag_94:\n        /* \"Perfect.sol\":3929:3936  minters */\n      0x02\n        /* \"Perfect.sol\":3929:3951  minters[subcontractId] */\n      0x00\n        /* \"Perfect.sol\":3937:3950  subcontractId */\n      dup3\n        /* \"Perfect.sol\":3929:3951  minters[subcontractId] */\n      dup2\n      mstore\n      0x20\n      add\n      swap1\n      dup2\n      mstore\n      0x20\n      add\n      0x00\n      keccak256\n      0x00\n      swap1\n      sload\n      swap1\n      0x0100\n      exp\n      swap1\n      div\n      0xffffffffffffffffffffffffffffffffffffffff\n      and\n        /* \"Perfect.sol\":3919:3972  NftMinter(minters[subcontractId]).RestorebymultipleID */\n      0xffffffffffffffffffffffffffffffffffffffff\n      and\n      0x3e1a037c\n        /* \"Perfect.sol\":3973:3976  nft */\n      dup6\n        /* \"Perfect.sol\":3977:3984  tokenid */\n      dup6\n      dup6\n        /* \"Perfect.sol\":3919:3985  NftMinter(minters[subcontractId]).RestorebymultipleID(nft,tokenid) */\n      mload(0x40)\n      dup5\n      0xffffffff\n      and\n      0xe0\n      shl\n      dup2\n      mstore\n      0x04\n      add\n      tag_196\n      swap4\n      swap3\n      swap2\n      swap1\n      tag_197\n      jump\t// in\n    tag_196:\n      0x00\n      mload(0x40)\n      dup1\n      dup4\n      sub\n      dup2\n      0x00\n      dup8\n      dup1\n      extcodesize\n      iszero\n      dup1\n      iszero\n      tag_198\n      jumpi\n      0x00\n      dup1\n      revert\n    tag_198:\n      pop\n      gas\n      call\n      iszero\n      dup1\n      iszero\n      tag_200\n      jumpi\n      returndatasize\n      0x00\n      dup1\n      returndatacopy\n      revert(0x00, returndatasize)\n    tag_200:\n      pop\n      pop\n      pop\n      pop\n        /* \"Perfect.sol\":3780:3992  function RestoreNftFromSubcontract(... */\n      pop\n      pop\n      pop\n      pop\n      jump\t// out\n        /* \"Perfect.sol\":4386:4713  function mintAndTransfer(... */\n    tag_98:\n        /* \"Perfect.sol\":4515:4524  uint256 i */\n      0x00\n        /* \"Perfect.sol\":4511:4707  for(uint256 i = 0; i < amount; i ++) {... */\n    tag_202:\n        /* \"Perfect.sol\":4534:4540  amount */\n      dup4\n        /* \"Perfect.sol\":4530:4531  i */\n      dup2\n        /* \"Perfect.sol\":4530:4540  i < amount */\n      lt\n        /* \"Perfect.sol\":4511:4707  for(uint256 i = 0; i < amount; i ++) {... */\n      iszero\n      tag_203\n      jumpi\n        /* \"Perfect.sol\":4563:4575  bool success */\n      0x00\n        /* \"Perfect.sol\":4581:4584  nft */\n      dup6\n        /* \"Perfect.sol\":4581:4589  nft.call */\n      0xffffffffffffffffffffffffffffffffffffffff\n      and\n        /* \"Perfect.sol\":4590:4595  param */\n      dup5\n      dup5\n        /* \"Perfect.sol\":4581:4596  nft.call(param) */\n      mload(0x40)\n      tag_205\n      swap3\n      swap2\n      swap1\n      tag_169\n      jump\t// in\n    tag_205:\n      0x00\n      mload(0x40)\n      dup1\n      dup4\n      sub\n      dup2\n      0x00\n      dup7\n      gas\n      call\n      swap2\n      pop\n      pop\n      returndatasize\n      dup1\n      0x00\n      dup2\n      eq\n      tag_208\n      jumpi\n      mload(0x40)\n      swap2\n      pop\n      and(add(returndatasize, 0x3f), not(0x1f))\n      dup3\n      add\n      0x40\n      mstore\n      returndatasize\n      dup3\n      mstore\n      returndatasize\n      0x00\n      0x20\n      dup5\n      add\n      returndatacopy\n      jump(tag_207)\n    tag_208:\n      0x60\n      swap2\n      pop\n    tag_207:\n      pop\n        /* \"Perfect.sol\":4562:4596  (bool success, ) = nft.call(param) */\n      pop\n      swap1\n      pop\n        /* \"Perfect.sol\":4618:4625  success */\n      dup1\n        /* \"Perfect.sol\":4610:4626  require(success) */\n      tag_209\n      jumpi\n      0x00\n      dup1\n      revert\n    tag_209:\n        /* \"Perfect.sol\":4648:4651  nft */\n      dup6\n        /* \"Perfect.sol\":4640:4665  IERC721(nft).transferFrom */\n      0xffffffffffffffffffffffffffffffffffffffff\n      and\n      0x23b872dd\n        /* \"Perfect.sol\":4674:4678  this */\n      address\n        /* \"Perfect.sol\":4681:4686  admin */\n      0x01\n      0x00\n      swap1\n      sload\n      swap1\n      0x0100\n      exp\n      swap1\n      div\n      0xffffffffffffffffffffffffffffffffffffffff\n      and\n        /* \"Perfect.sol\":4688:4695  tokenId */\n      sload(0x04)\n        /* \"Perfect.sol\":4640:4696  IERC721(nft).transferFrom(address(this), admin, tokenId) */\n      mload(0x40)\n      dup5\n      0xffffffff\n      and\n      0xe0\n      shl\n      dup2\n      mstore\n      0x04\n      add\n      tag_210\n      swap4\n      swap3\n      swap2\n      swap1\n      tag_158\n      jump\t// in\n    tag_210:\n      0x00\n      mload(0x40)\n      dup1\n      dup4\n      sub\n      dup2\n      0x00\n      dup8\n      dup1\n      extcodesize\n      iszero\n      dup1\n      iszero\n      tag_211\n      jumpi\n      0x00\n      dup1\n      revert\n    tag_211:\n      pop\n      gas\n      call\n      iszero\n      dup1\n      iszero\n      tag_213\n      jumpi\n      returndatasize\n      0x00\n      dup1\n      returndatacopy\n      revert(0x00, returndatasize)\n    tag_213:\n      pop\n      pop\n      pop\n      pop\n        /* \"Perfect.sol\":4548:4707  {... */\n      pop\n        /* \"Perfect.sol\":4542:4546  i ++ */\n      dup1\n      dup1\n      tag_214\n      swap1\n      tag_128\n      jump\t// in\n    tag_214:\n      swap2\n      pop\n      pop\n        /* \"Perfect.sol\":4511:4707  for(uint256 i = 0; i < amount; i ++) {... */\n      jump(tag_202)\n    tag_203:\n      pop\n        /* \"Perfect.sol\":4386:4713  function mintAndTransfer(... */\n      pop\n      pop\n      pop\n      pop\n      jump\t// out\n        /* \"@openzeppelin/contracts/access/Ownable.sol\":2081:2279  function transferOwnership(address newOwner) public virtual onlyOwner {... */\n    tag_103:\n        /* \"@openzeppelin/contracts/access/Ownable.sol\":1094:1107  _checkOwner() */\n      tag_216\n        /* \"@openzeppelin/contracts/access/Ownable.sol\":1094:1105  _checkOwner */\n      tag_146\n        /* \"@openzeppelin/contracts/access/Ownable.sol\":1094:1107  _checkOwner() */\n      jump\t// in\n    tag_216:\n        /* \"@openzeppelin/contracts/access/Ownable.sol\":2189:2190  0 */\n      0x00\n        /* \"@openzeppelin/contracts/access/Ownable.sol\":2169:2191  newOwner != address(0) */\n      0xffffffffffffffffffffffffffffffffffffffff\n      and\n        /* \"@openzeppelin/contracts/access/Ownable.sol\":2169:2177  newOwner */\n      dup2\n        /* \"@openzeppelin/contracts/access/Ownable.sol\":2169:2191  newOwner != address(0) */\n      0xffffffffffffffffffffffffffffffffffffffff\n      and\n      sub\n        /* \"@openzeppelin/contracts/access/Ownable.sol\":2161:2234  require(newOwner != address(0), \"Ownable: new owner is the zero address\") */\n      tag_218\n      jumpi\n      mload(0x40)\n      0x08c379a000000000000000000000000000000000000000000000000000000000\n      dup2\n      mstore\n      0x04\n      add\n      tag_219\n      swap1\n      tag_220\n      jump\t// in\n    tag_219:\n      mload(0x40)\n      dup1\n      swap2\n      sub\n      swap1\n      revert\n    tag_218:\n        /* \"@openzeppelin/contracts/access/Ownable.sol\":2244:2272  _transferOwnership(newOwner) */\n      tag_221\n        /* \"@openzeppelin/contracts/access/Ownable.sol\":2263:2271  newOwner */\n      dup2\n        /* \"@openzeppelin/contracts/access/Ownable.sol\":2244:2262  _transferOwnership */\n      tag_149\n        /* \"@openzeppelin/contracts/access/Ownable.sol\":2244:2272  _transferOwnership(newOwner) */\n      jump\t// in\n    tag_221:\n        /* \"@openzeppelin/contracts/access/Ownable.sol\":2081:2279  function transferOwnership(address newOwner) public virtual onlyOwner {... */\n      pop\n      jump\t// out\n        /* \"Perfect.sol\":2966:3265  function mintBySubContract(... */\n    tag_106:\n        /* \"Perfect.sol\":3101:3114  uint256 price */\n      0x00\n        /* \"Perfect.sol\":3129:3135  amount */\n      dup4\n        /* \"Perfect.sol\":3117:3126  msg.value */\n      callvalue\n        /* \"Perfect.sol\":3117:3135  msg.value / amount */\n      tag_223\n      swap2\n      swap1\n      tag_224\n      jump\t// in\n    tag_223:\n        /* \"Perfect.sol\":3101:3135  uint256 price = msg.value / amount */\n      swap1\n      pop\n        /* \"Perfect.sol\":3149:3158  uint256 i */\n      0x00\n        /* \"Perfect.sol\":3145:3259  for(uint256 i = 0; i < amount; i ++) {... */\n    tag_225:\n        /* \"Perfect.sol\":3168:3174  amount */\n      dup5\n        /* \"Perfect.sol\":3164:3165  i */\n      dup2\n        /* \"Perfect.sol\":3164:3174  i < amount */\n      lt\n        /* \"Perfect.sol\":3145:3259  for(uint256 i = 0; i < amount; i ++) {... */\n      iszero\n      tag_226\n      jumpi\n        /* \"Perfect.sol\":3206:3213  minters */\n      0x02\n        /* \"Perfect.sol\":3206:3216  minters[i] */\n      0x00\n        /* \"Perfect.sol\":3214:3215  i */\n      dup3\n        /* \"Perfect.sol\":3206:3216  minters[i] */\n      dup2\n      mstore\n      0x20\n      add\n      swap1\n      dup2\n      mstore\n      0x20\n      add\n      0x00\n      keccak256\n      0x00\n      swap1\n      sload\n      swap1\n      0x0100\n      exp\n      swap1\n      div\n      0xffffffffffffffffffffffffffffffffffffffff\n      and\n        /* \"Perfect.sol\":3196:3222  NftMinter(minters[i]).mint */\n      0xffffffffffffffffffffffffffffffffffffffff\n      and\n      0xb510391f\n        /* \"Perfect.sol\":3230:3235  price */\n      dup4\n        /* \"Perfect.sol\":3237:3240  nft */\n      dup9\n        /* \"Perfect.sol\":3242:3247  param */\n      dup8\n      dup8\n        /* \"Perfect.sol\":3196:3248  NftMinter(minters[i]).mint{value: price}(nft, param) */\n      mload(0x40)\n      dup6\n      0xffffffff\n      and\n      0xe0\n      shl\n      dup2\n      mstore\n      0x04\n      add\n      tag_228\n      swap4\n      swap3\n      swap2\n      swap1\n      tag_229\n      jump\t// in\n    tag_228:\n      0x00\n      mload(0x40)\n      dup1\n      dup4\n      sub\n      dup2\n      dup6\n      dup9\n      dup1\n      extcodesize\n      iszero\n      dup1\n      iszero\n      tag_230\n      jumpi\n      0x00\n      dup1\n      revert\n    tag_230:\n      pop\n      gas\n      call\n      iszero\n      dup1\n      iszero\n      tag_232\n      jumpi\n      returndatasize\n      0x00\n      dup1\n      returndatacopy\n      revert(0x00, returndatasize)\n    tag_232:\n      pop\n      pop\n      pop\n      pop\n      pop\n        /* \"Perfect.sol\":3176:3180  i ++ */\n      dup1\n      dup1\n      tag_233\n      swap1\n      tag_128\n      jump\t// in\n    tag_233:\n      swap2\n      pop\n      pop\n        /* \"Perfect.sol\":3145:3259  for(uint256 i = 0; i < amount; i ++) {... */\n      jump(tag_225)\n    tag_226:\n      pop\n        /* \"Perfect.sol\":3091:3265  {... */\n      pop\n        /* \"Perfect.sol\":2966:3265  function mintBySubContract(... */\n      pop\n      pop\n      pop\n      pop\n      jump\t// out\n        /* \"Perfect.sol\":1914:1934  address public admin */\n    tag_109:\n      0x01\n      0x00\n      swap1\n      sload\n      swap1\n      0x0100\n      exp\n      swap1\n      div\n      0xffffffffffffffffffffffffffffffffffffffff\n      and\n      dup2\n      jump\t// out\n        /* \"@openzeppelin/contracts/access/Ownable.sol\":1359:1489  function _checkOwner() internal view virtual {... */\n    tag_146:\n        /* \"@openzeppelin/contracts/access/Ownable.sol\":1433:1445  _msgSender() */\n      tag_235\n        /* \"@openzeppelin/contracts/access/Ownable.sol\":1433:1443  _msgSender */\n      tag_236\n        /* \"@openzeppelin/contracts/access/Ownable.sol\":1433:1445  _msgSender() */\n      jump\t// in\n    tag_235:\n        /* \"@openzeppelin/contracts/access/Ownable.sol\":1422:1445  owner() == _msgSender() */\n      0xffffffffffffffffffffffffffffffffffffffff\n      and\n        /* \"@openzeppelin/contracts/access/Ownable.sol\":1422:1429  owner() */\n      tag_237\n        /* \"@openzeppelin/contracts/access/Ownable.sol\":1422:1427  owner */\n      tag_73\n        /* \"@openzeppelin/contracts/access/Ownable.sol\":1422:1429  owner() */\n      jump\t// in\n    tag_237:\n        /* \"@openzeppelin/contracts/access/Ownable.sol\":1422:1445  owner() == _msgSender() */\n      0xffffffffffffffffffffffffffffffffffffffff\n      and\n      eq\n        /* \"@openzeppelin/contracts/access/Ownable.sol\":1414:1482  require(owner() == _msgSender(), \"Ownable: caller is not the owner\") */\n      tag_238\n      jumpi\n      mload(0x40)\n      0x08c379a000000000000000000000000000000000000000000000000000000000\n      dup2\n      mstore\n      0x04\n      add\n      tag_239\n      swap1\n      tag_240\n      jump\t// in\n    tag_239:\n      mload(0x40)\n      dup1\n      swap2\n      sub\n      swap1\n      revert\n    tag_238:\n        /* \"@openzeppelin/contracts/access/Ownable.sol\":1359:1489  function _checkOwner() internal view virtual {... */\n      jump\t// out\n        /* \"@openzeppelin/contracts/access/Ownable.sol\":2433:2620  function _transferOwnership(address newOwner) internal virtual {... */\n    tag_149:\n        /* \"@openzeppelin/contracts/access/Ownable.sol\":2506:2522  address oldOwner */\n      0x00\n        /* \"@openzeppelin/contracts/access/Ownable.sol\":2525:2531  _owner */\n      dup1\n      0x00\n      swap1\n      sload\n      swap1\n      0x0100\n      exp\n      swap1\n      div\n      0xffffffffffffffffffffffffffffffffffffffff\n      and\n        /* \"@openzeppelin/contracts/access/Ownable.sol\":2506:2531  address oldOwner = _owner */\n      swap1\n      pop\n        /* \"@openzeppelin/contracts/access/Ownable.sol\":2550:2558  newOwner */\n      dup2\n        /* \"@openzeppelin/contracts/access/Ownable.sol\":2541:2547  _owner */\n      0x00\n      dup1\n        /* \"@openzeppelin/contracts/access/Ownable.sol\":2541:2558  _owner = newOwner */\n      0x0100\n      exp\n      dup2\n      sload\n      dup2\n      0xffffffffffffffffffffffffffffffffffffffff\n      mul\n      not\n      and\n      swap1\n      dup4\n      0xffffffffffffffffffffffffffffffffffffffff\n      and\n      mul\n      or\n      swap1\n      sstore\n      pop\n        /* \"@openzeppelin/contracts/access/Ownable.sol\":2604:2612  newOwner */\n      dup2\n        /* \"@openzeppelin/contracts/access/Ownable.sol\":2573:2613  OwnershipTransferred(oldOwner, newOwner) */\n      0xffffffffffffffffffffffffffffffffffffffff\n      and\n        /* \"@openzeppelin/contracts/access/Ownable.sol\":2594:2602  oldOwner */\n      dup2\n        /* \"@openzeppelin/contracts/access/Ownable.sol\":2573:2613  OwnershipTransferred(oldOwner, newOwner) */\n      0xffffffffffffffffffffffffffffffffffffffff\n      and\n      0x8be0079c531659141344cd1fd0a4f28419497f9722a3daafe3b4186f6b6457e0\n      mload(0x40)\n      mload(0x40)\n      dup1\n      swap2\n      sub\n      swap1\n      log3\n        /* \"@openzeppelin/contracts/access/Ownable.sol\":2496:2620  {... */\n      pop\n        /* \"@openzeppelin/contracts/access/Ownable.sol\":2433:2620  function _transferOwnership(address newOwner) internal virtual {... */\n      pop\n      jump\t// out\n        /* \"Perfect.sol\":2161:2361  function getBytecode() internal view returns (bytes memory) {... */\n    tag_179:\n        /* \"Perfect.sol\":2207:2219  bytes memory */\n      0x60\n        /* \"Perfect.sol\":2231:2252  bytes memory bytecode */\n      0x00\n        /* \"Perfect.sol\":2255:2283  type(NftMinter).creationCode */\n      mload(0x40)\n      dup1\n      0x20\n      add\n      tag_243\n      swap1\n      tag_244\n      jump\t// in\n    tag_243:\n      0x20\n      dup3\n      add\n      dup2\n      sub\n      dup3\n      mstore\n      not(0x1f)\n      0x1f\n      dup3\n      add\n      and\n      0x40\n      mstore\n      pop\n        /* \"Perfect.sol\":2231:2283  bytes memory bytecode = type(NftMinter).creationCode */\n      swap1\n      pop\n        /* \"Perfect.sol\":2326:2334  bytecode */\n      dup1\n        /* \"Perfect.sol\":2347:2352  admin */\n      0x01\n      0x00\n      swap1\n      sload\n      swap1\n      0x0100\n      exp\n      swap1\n      div\n      0xffffffffffffffffffffffffffffffffffffffff\n      and\n        /* \"Perfect.sol\":2336:2353  abi.encode(admin) */\n      add(0x20, mload(0x40))\n      tag_245\n      swap2\n      swap1\n      tag_70\n      jump\t// in\n    tag_245:\n      mload(0x40)\n      0x20\n      dup2\n      dup4\n      sub\n      sub\n      dup2\n      mstore\n      swap1\n      0x40\n      mstore\n        /* \"Perfect.sol\":2309:2354  abi.encodePacked(bytecode, abi.encode(admin)) */\n      add(0x20, mload(0x40))\n      tag_246\n      swap3\n      swap2\n      swap1\n      tag_247\n      jump\t// in\n    tag_246:\n      mload(0x40)\n      0x20\n      dup2\n      dup4\n      sub\n      sub\n      dup2\n      mstore\n      swap1\n      0x40\n      mstore\n        /* \"Perfect.sol\":2302:2354  return abi.encodePacked(bytecode, abi.encode(admin)) */\n      swap2\n      pop\n      pop\n        /* \"Perfect.sol\":2161:2361  function getBytecode() internal view returns (bytes memory) {... */\n      swap1\n      jump\t// out\n        /* \"@openzeppelin/contracts/utils/Context.sol\":640:736  function _msgSender() internal view virtual returns (address) {... */\n    tag_236:\n        /* \"@openzeppelin/contracts/utils/Context.sol\":693:700  address */\n      0x00\n        /* \"@openzeppelin/contracts/utils/Context.sol\":719:729  msg.sender */\n      caller\n        /* \"@openzeppelin/contracts/utils/Context.sol\":712:729  return msg.sender */\n      swap1\n      pop\n        /* \"@openzeppelin/contracts/utils/Context.sol\":640:736  function _msgSender() internal view virtual returns (address) {... */\n      swap1\n      jump\t// out\n    tag_244:\n      dataSize(sub_0)\n      dup1\n      dataOffset(sub_0)\n      dup4\n      codecopy\n      add\n      swap1\n      jump\t// out\n        /* \"#utility.yul\":7:82   */\n    tag_249:\n        /* \"#utility.yul\":40:46   */\n      0x00\n        /* \"#utility.yul\":73:75   */\n      0x40\n        /* \"#utility.yul\":67:76   */\n      mload\n        /* \"#utility.yul\":57:76   */\n      swap1\n      pop\n        /* \"#utility.yul\":7:82   */\n      swap1\n      jump\t// out\n        /* \"#utility.yul\":88:205   */\n    tag_250:\n        /* \"#utility.yul\":197:198   */\n      0x00\n        /* \"#utility.yul\":194:195   */\n      dup1\n        /* \"#utility.yul\":187:199   */\n      revert\n        /* \"#utility.yul\":211:328   */\n    tag_251:\n        /* \"#utility.yul\":320:321   */\n      0x00\n        /* \"#utility.yul\":317:318   */\n      dup1\n        /* \"#utility.yul\":310:322   */\n      revert\n        /* \"#utility.yul\":334:460   */\n    tag_252:\n        /* \"#utility.yul\":371:378   */\n      0x00\n        /* \"#utility.yul\":411:453   */\n      0xffffffffffffffffffffffffffffffffffffffff\n        /* \"#utility.yul\":404:409   */\n      dup3\n        /* \"#utility.yul\":400:454   */\n      and\n        /* \"#utility.yul\":389:454   */\n      swap1\n      pop\n        /* \"#utility.yul\":334:460   */\n      swap2\n      swap1\n      pop\n      jump\t// out\n        /* \"#utility.yul\":466:562   */\n    tag_253:\n        /* \"#utility.yul\":503:510   */\n      0x00\n        /* \"#utility.yul\":532:556   */\n      tag_314\n        /* \"#utility.yul\":550:555   */\n      dup3\n        /* \"#utility.yul\":532:556   */\n      tag_252\n      jump\t// in\n    tag_314:\n        /* \"#utility.yul\":521:556   */\n      swap1\n      pop\n        /* \"#utility.yul\":466:562   */\n      swap2\n      swap1\n      pop\n      jump\t// out\n        /* \"#utility.yul\":568:690   */\n    tag_254:\n        /* \"#utility.yul\":641:665   */\n      tag_316\n        /* \"#utility.yul\":659:664   */\n      dup2\n        /* \"#utility.yul\":641:665   */\n      tag_253\n      jump\t// in\n    tag_316:\n        /* \"#utility.yul\":634:639   */\n      dup2\n        /* \"#utility.yul\":631:666   */\n      eq\n        /* \"#utility.yul\":621:684   */\n      tag_317\n      jumpi\n        /* \"#utility.yul\":680:681   */\n      0x00\n        /* \"#utility.yul\":677:678   */\n      dup1\n        /* \"#utility.yul\":670:682   */\n      revert\n        /* \"#utility.yul\":621:684   */\n    tag_317:\n        /* \"#utility.yul\":568:690   */\n      pop\n      jump\t// out\n        /* \"#utility.yul\":696:835   */\n    tag_255:\n        /* \"#utility.yul\":742:747   */\n      0x00\n        /* \"#utility.yul\":780:786   */\n      dup2\n        /* \"#utility.yul\":767:787   */\n      calldataload\n        /* \"#utility.yul\":758:787   */\n      swap1\n      pop\n        /* \"#utility.yul\":796:829   */\n      tag_319\n        /* \"#utility.yul\":823:828   */\n      dup2\n        /* \"#utility.yul\":796:829   */\n      tag_254\n      jump\t// in\n    tag_319:\n        /* \"#utility.yul\":696:835   */\n      swap3\n      swap2\n      pop\n      pop\n      jump\t// out\n        /* \"#utility.yul\":841:918   */\n    tag_256:\n        /* \"#utility.yul\":878:885   */\n      0x00\n        /* \"#utility.yul\":907:912   */\n      dup2\n        /* \"#utility.yul\":896:912   */\n      swap1\n      pop\n        /* \"#utility.yul\":841:918   */\n      swap2\n      swap1\n      pop\n      jump\t// out\n        /* \"#utility.yul\":924:1046   */\n    tag_257:\n        /* \"#utility.yul\":997:1021   */\n      tag_322\n        /* \"#utility.yul\":1015:1020   */\n      dup2\n        /* \"#utility.yul\":997:1021   */\n      tag_256\n      jump\t// in\n    tag_322:\n        /* \"#utility.yul\":990:995   */\n      dup2\n        /* \"#utility.yul\":987:1022   */\n      eq\n        /* \"#utility.yul\":977:1040   */\n      tag_323\n      jumpi\n        /* \"#utility.yul\":1036:1037   */\n      0x00\n        /* \"#utility.yul\":1033:1034   */\n      dup1\n        /* \"#utility.yul\":1026:1038   */\n      revert\n        /* \"#utility.yul\":977:1040   */\n    tag_323:\n        /* \"#utility.yul\":924:1046   */\n      pop\n      jump\t// out\n        /* \"#utility.yul\":1052:1191   */\n    tag_258:\n        /* \"#utility.yul\":1098:1103   */\n      0x00\n        /* \"#utility.yul\":1136:1142   */\n      dup2\n        /* \"#utility.yul\":1123:1143   */\n      calldataload\n        /* \"#utility.yul\":1114:1143   */\n      swap1\n      pop\n        /* \"#utility.yul\":1152:1185   */\n      tag_325\n        /* \"#utility.yul\":1179:1184   */\n      dup2\n        /* \"#utility.yul\":1152:1185   */\n      tag_257\n      jump\t// in\n    tag_325:\n        /* \"#utility.yul\":1052:1191   */\n      swap3\n      swap2\n      pop\n      pop\n      jump\t// out\n        /* \"#utility.yul\":1197:1314   */\n    tag_259:\n        /* \"#utility.yul\":1306:1307   */\n      0x00\n        /* \"#utility.yul\":1303:1304   */\n      dup1\n        /* \"#utility.yul\":1296:1308   */\n      revert\n        /* \"#utility.yul\":1320:1437   */\n    tag_260:\n        /* \"#utility.yul\":1429:1430   */\n      0x00\n        /* \"#utility.yul\":1426:1427   */\n      dup1\n        /* \"#utility.yul\":1419:1431   */\n      revert\n        /* \"#utility.yul\":1443:1545   */\n    tag_261:\n        /* \"#utility.yul\":1484:1490   */\n      0x00\n        /* \"#utility.yul\":1535:1537   */\n      0x1f\n        /* \"#utility.yul\":1531:1538   */\n      not\n        /* \"#utility.yul\":1526:1528   */\n      0x1f\n        /* \"#utility.yul\":1519:1524   */\n      dup4\n        /* \"#utility.yul\":1515:1529   */\n      add\n        /* \"#utility.yul\":1511:1539   */\n      and\n        /* \"#utility.yul\":1501:1539   */\n      swap1\n      pop\n        /* \"#utility.yul\":1443:1545   */\n      swap2\n      swap1\n      pop\n      jump\t// out\n        /* \"#utility.yul\":1551:1731   */\n    tag_262:\n        /* \"#utility.yul\":1599:1676   */\n      0x4e487b7100000000000000000000000000000000000000000000000000000000\n        /* \"#utility.yul\":1596:1597   */\n      0x00\n        /* \"#utility.yul\":1589:1677   */\n      mstore\n        /* \"#utility.yul\":1696:1700   */\n      0x41\n        /* \"#utility.yul\":1693:1694   */\n      0x04\n        /* \"#utility.yul\":1686:1701   */\n      mstore\n        /* \"#utility.yul\":1720:1724   */\n      0x24\n        /* \"#utility.yul\":1717:1718   */\n      0x00\n        /* \"#utility.yul\":1710:1725   */\n      revert\n        /* \"#utility.yul\":1737:2018   */\n    tag_263:\n        /* \"#utility.yul\":1820:1847   */\n      tag_331\n        /* \"#utility.yul\":1842:1846   */\n      dup3\n        /* \"#utility.yul\":1820:1847   */\n      tag_261\n      jump\t// in\n    tag_331:\n        /* \"#utility.yul\":1812:1818   */\n      dup2\n        /* \"#utility.yul\":1808:1848   */\n      add\n        /* \"#utility.yul\":1950:1956   */\n      dup2\n        /* \"#utility.yul\":1938:1948   */\n      dup2\n        /* \"#utility.yul\":1935:1957   */\n      lt\n        /* \"#utility.yul\":1914:1932   */\n      0xffffffffffffffff\n        /* \"#utility.yul\":1902:1912   */\n      dup3\n        /* \"#utility.yul\":1899:1933   */\n      gt\n        /* \"#utility.yul\":1896:1958   */\n      or\n        /* \"#utility.yul\":1893:1981   */\n      iszero\n      tag_332\n      jumpi\n        /* \"#utility.yul\":1961:1979   */\n      tag_333\n      tag_262\n      jump\t// in\n    tag_333:\n        /* \"#utility.yul\":1893:1981   */\n    tag_332:\n        /* \"#utility.yul\":2001:2011   */\n      dup1\n        /* \"#utility.yul\":1997:1999   */\n      0x40\n        /* \"#utility.yul\":1990:2012   */\n      mstore\n        /* \"#utility.yul\":1780:2018   */\n      pop\n        /* \"#utility.yul\":1737:2018   */\n      pop\n      pop\n      jump\t// out\n        /* \"#utility.yul\":2024:2153   */\n    tag_264:\n        /* \"#utility.yul\":2058:2064   */\n      0x00\n        /* \"#utility.yul\":2085:2105   */\n      tag_335\n      tag_249\n      jump\t// in\n    tag_335:\n        /* \"#utility.yul\":2075:2105   */\n      swap1\n      pop\n        /* \"#utility.yul\":2114:2147   */\n      tag_336\n        /* \"#utility.yul\":2142:2146   */\n      dup3\n        /* \"#utility.yul\":2134:2140   */\n      dup3\n        /* \"#utility.yul\":2114:2147   */\n      tag_263\n      jump\t// in\n    tag_336:\n        /* \"#utility.yul\":2024:2153   */\n      swap2\n      swap1\n      pop\n      jump\t// out\n        /* \"#utility.yul\":2159:2466   */\n    tag_265:\n        /* \"#utility.yul\":2220:2224   */\n      0x00\n        /* \"#utility.yul\":2310:2328   */\n      0xffffffffffffffff\n        /* \"#utility.yul\":2302:2308   */\n      dup3\n        /* \"#utility.yul\":2299:2329   */\n      gt\n        /* \"#utility.yul\":2296:2352   */\n      iszero\n      tag_338\n      jumpi\n        /* \"#utility.yul\":2332:2350   */\n      tag_339\n      tag_262\n      jump\t// in\n    tag_339:\n        /* \"#utility.yul\":2296:2352   */\n    tag_338:\n        /* \"#utility.yul\":2370:2399   */\n      tag_340\n        /* \"#utility.yul\":2392:2398   */\n      dup3\n        /* \"#utility.yul\":2370:2399   */\n      tag_261\n      jump\t// in\n    tag_340:\n        /* \"#utility.yul\":2362:2399   */\n      swap1\n      pop\n        /* \"#utility.yul\":2454:2458   */\n      0x20\n        /* \"#utility.yul\":2448:2452   */\n      dup2\n        /* \"#utility.yul\":2444:2459   */\n      add\n        /* \"#utility.yul\":2436:2459   */\n      swap1\n      pop\n        /* \"#utility.yul\":2159:2466   */\n      swap2\n      swap1\n      pop\n      jump\t// out\n        /* \"#utility.yul\":2472:2618   */\n    tag_266:\n        /* \"#utility.yul\":2569:2575   */\n      dup3\n        /* \"#utility.yul\":2564:2567   */\n      dup2\n        /* \"#utility.yul\":2559:2562   */\n      dup4\n        /* \"#utility.yul\":2546:2576   */\n      calldatacopy\n        /* \"#utility.yul\":2610:2611   */\n      0x00\n        /* \"#utility.yul\":2601:2607   */\n      dup4\n        /* \"#utility.yul\":2596:2599   */\n      dup4\n        /* \"#utility.yul\":2592:2608   */\n      add\n        /* \"#utility.yul\":2585:2612   */\n      mstore\n        /* \"#utility.yul\":2472:2618   */\n      pop\n      pop\n      pop\n      jump\t// out\n        /* \"#utility.yul\":2624:3047   */\n    tag_267:\n        /* \"#utility.yul\":2701:2706   */\n      0x00\n        /* \"#utility.yul\":2726:2791   */\n      tag_343\n        /* \"#utility.yul\":2742:2790   */\n      tag_344\n        /* \"#utility.yul\":2783:2789   */\n      dup5\n        /* \"#utility.yul\":2742:2790   */\n      tag_265\n      jump\t// in\n    tag_344:\n        /* \"#utility.yul\":2726:2791   */\n      tag_264\n      jump\t// in\n    tag_343:\n        /* \"#utility.yul\":2717:2791   */\n      swap1\n      pop\n        /* \"#utility.yul\":2814:2820   */\n      dup3\n        /* \"#utility.yul\":2807:2812   */\n      dup2\n        /* \"#utility.yul\":2800:2821   */\n      mstore\n        /* \"#utility.yul\":2852:2856   */\n      0x20\n        /* \"#utility.yul\":2845:2850   */\n      dup2\n        /* \"#utility.yul\":2841:2857   */\n      add\n        /* \"#utility.yul\":2890:2893   */\n      dup5\n        /* \"#utility.yul\":2881:2887   */\n      dup5\n        /* \"#utility.yul\":2876:2879   */\n      dup5\n        /* \"#utility.yul\":2872:2888   */\n      add\n        /* \"#utility.yul\":2869:2894   */\n      gt\n        /* \"#utility.yul\":2866:2978   */\n      iszero\n      tag_345\n      jumpi\n        /* \"#utility.yul\":2897:2976   */\n      tag_346\n      tag_260\n      jump\t// in\n    tag_346:\n        /* \"#utility.yul\":2866:2978   */\n    tag_345:\n        /* \"#utility.yul\":2987:3041   */\n      tag_347\n        /* \"#utility.yul\":3034:3040   */\n      dup5\n        /* \"#utility.yul\":3029:3032   */\n      dup3\n        /* \"#utility.yul\":3024:3027   */\n      dup6\n        /* \"#utility.yul\":2987:3041   */\n      tag_266\n      jump\t// in\n    tag_347:\n        /* \"#utility.yul\":2707:3047   */\n      pop\n        /* \"#utility.yul\":2624:3047   */\n      swap4\n      swap3\n      pop\n      pop\n      pop\n      jump\t// out\n        /* \"#utility.yul\":3066:3404   */\n    tag_268:\n        /* \"#utility.yul\":3121:3126   */\n      0x00\n        /* \"#utility.yul\":3170:3173   */\n      dup3\n        /* \"#utility.yul\":3163:3167   */\n      0x1f\n        /* \"#utility.yul\":3155:3161   */\n      dup4\n        /* \"#utility.yul\":3151:3168   */\n      add\n        /* \"#utility.yul\":3147:3174   */\n      slt\n        /* \"#utility.yul\":3137:3259   */\n      tag_349\n      jumpi\n        /* \"#utility.yul\":3178:3257   */\n      tag_350\n      tag_259\n      jump\t// in\n    tag_350:\n        /* \"#utility.yul\":3137:3259   */\n    tag_349:\n        /* \"#utility.yul\":3295:3301   */\n      dup2\n        /* \"#utility.yul\":3282:3302   */\n      calldataload\n        /* \"#utility.yul\":3320:3398   */\n      tag_351\n        /* \"#utility.yul\":3394:3397   */\n      dup5\n        /* \"#utility.yul\":3386:3392   */\n      dup3\n        /* \"#utility.yul\":3379:3383   */\n      0x20\n        /* \"#utility.yul\":3371:3377   */\n      dup7\n        /* \"#utility.yul\":3367:3384   */\n      add\n        /* \"#utility.yul\":3320:3398   */\n      tag_267\n      jump\t// in\n    tag_351:\n        /* \"#utility.yul\":3311:3398   */\n      swap2\n      pop\n        /* \"#utility.yul\":3127:3404   */\n      pop\n        /* \"#utility.yul\":3066:3404   */\n      swap3\n      swap2\n      pop\n      pop\n      jump\t// out\n        /* \"#utility.yul\":3410:4353   */\n    tag_26:\n        /* \"#utility.yul\":3505:3511   */\n      0x00\n        /* \"#utility.yul\":3513:3519   */\n      dup1\n        /* \"#utility.yul\":3521:3527   */\n      0x00\n        /* \"#utility.yul\":3529:3535   */\n      dup1\n        /* \"#utility.yul\":3578:3581   */\n      0x80\n        /* \"#utility.yul\":3566:3575   */\n      dup6\n        /* \"#utility.yul\":3557:3564   */\n      dup8\n        /* \"#utility.yul\":3553:3576   */\n      sub\n        /* \"#utility.yul\":3549:3582   */\n      slt\n        /* \"#utility.yul\":3546:3666   */\n      iszero\n      tag_353\n      jumpi\n        /* \"#utility.yul\":3585:3664   */\n      tag_354\n      tag_250\n      jump\t// in\n    tag_354:\n        /* \"#utility.yul\":3546:3666   */\n    tag_353:\n        /* \"#utility.yul\":3705:3706   */\n      0x00\n        /* \"#utility.yul\":3730:3783   */\n      tag_355\n        /* \"#utility.yul\":3775:3782   */\n      dup8\n        /* \"#utility.yul\":3766:3772   */\n      dup3\n        /* \"#utility.yul\":3755:3764   */\n      dup9\n        /* \"#utility.yul\":3751:3773   */\n      add\n        /* \"#utility.yul\":3730:3783   */\n      tag_255\n      jump\t// in\n    tag_355:\n        /* \"#utility.yul\":3720:3783   */\n      swap5\n      pop\n        /* \"#utility.yul\":3676:3793   */\n      pop\n        /* \"#utility.yul\":3832:3834   */\n      0x20\n        /* \"#utility.yul\":3858:3911   */\n      tag_356\n        /* \"#utility.yul\":3903:3910   */\n      dup8\n        /* \"#utility.yul\":3894:3900   */\n      dup3\n        /* \"#utility.yul\":3883:3892   */\n      dup9\n        /* \"#utility.yul\":3879:3901   */\n      add\n        /* \"#utility.yul\":3858:3911   */\n      tag_255\n      jump\t// in\n    tag_356:\n        /* \"#utility.yul\":3848:3911   */\n      swap4\n      pop\n        /* \"#utility.yul\":3803:3921   */\n      pop\n        /* \"#utility.yul\":3960:3962   */\n      0x40\n        /* \"#utility.yul\":3986:4039   */\n      tag_357\n        /* \"#utility.yul\":4031:4038   */\n      dup8\n        /* \"#utility.yul\":4022:4028   */\n      dup3\n        /* \"#utility.yul\":4011:4020   */\n      dup9\n        /* \"#utility.yul\":4007:4029   */\n      add\n        /* \"#utility.yul\":3986:4039   */\n      tag_258\n      jump\t// in\n    tag_357:\n        /* \"#utility.yul\":3976:4039   */\n      swap3\n      pop\n        /* \"#utility.yul\":3931:4049   */\n      pop\n        /* \"#utility.yul\":4116:4118   */\n      0x60\n        /* \"#utility.yul\":4105:4114   */\n      dup6\n        /* \"#utility.yul\":4101:4119   */\n      add\n        /* \"#utility.yul\":4088:4120   */\n      calldataload\n        /* \"#utility.yul\":4147:4165   */\n      0xffffffffffffffff\n        /* \"#utility.yul\":4139:4145   */\n      dup2\n        /* \"#utility.yul\":4136:4166   */\n      gt\n        /* \"#utility.yul\":4133:4250   */\n      iszero\n      tag_358\n      jumpi\n        /* \"#utility.yul\":4169:4248   */\n      tag_359\n      tag_251\n      jump\t// in\n    tag_359:\n        /* \"#utility.yul\":4133:4250   */\n    tag_358:\n        /* \"#utility.yul\":4274:4336   */\n      tag_360\n        /* \"#utility.yul\":4328:4335   */\n      dup8\n        /* \"#utility.yul\":4319:4325   */\n      dup3\n        /* \"#utility.yul\":4308:4317   */\n      dup9\n        /* \"#utility.yul\":4304:4326   */\n      add\n        /* \"#utility.yul\":4274:4336   */\n      tag_268\n      jump\t// in\n    tag_360:\n        /* \"#utility.yul\":4264:4336   */\n      swap2\n      pop\n        /* \"#utility.yul\":4059:4346   */\n      pop\n        /* \"#utility.yul\":3410:4353   */\n      swap3\n      swap6\n      swap2\n      swap5\n      pop\n      swap3\n      pop\n      jump\t// out\n        /* \"#utility.yul\":4359:4508   */\n    tag_269:\n        /* \"#utility.yul\":4395:4402   */\n      0x00\n        /* \"#utility.yul\":4435:4501   */\n      0xffffffff00000000000000000000000000000000000000000000000000000000\n        /* \"#utility.yul\":4428:4433   */\n      dup3\n        /* \"#utility.yul\":4424:4502   */\n      and\n        /* \"#utility.yul\":4413:4502   */\n      swap1\n      pop\n        /* \"#utility.yul\":4359:4508   */\n      swap2\n      swap1\n      pop\n      jump\t// out\n        /* \"#utility.yul\":4514:4629   */\n    tag_270:\n        /* \"#utility.yul\":4599:4622   */\n      tag_363\n        /* \"#utility.yul\":4616:4621   */\n      dup2\n        /* \"#utility.yul\":4599:4622   */\n      tag_269\n      jump\t// in\n    tag_363:\n        /* \"#utility.yul\":4594:4597   */\n      dup3\n        /* \"#utility.yul\":4587:4623   */\n      mstore\n        /* \"#utility.yul\":4514:4629   */\n      pop\n      pop\n      jump\t// out\n        /* \"#utility.yul\":4635:4853   */\n    tag_29:\n        /* \"#utility.yul\":4726:4730   */\n      0x00\n        /* \"#utility.yul\":4764:4766   */\n      0x20\n        /* \"#utility.yul\":4753:4762   */\n      dup3\n        /* \"#utility.yul\":4749:4767   */\n      add\n        /* \"#utility.yul\":4741:4767   */\n      swap1\n      pop\n        /* \"#utility.yul\":4777:4846   */\n      tag_365\n        /* \"#utility.yul\":4843:4844   */\n      0x00\n        /* \"#utility.yul\":4832:4841   */\n      dup4\n        /* \"#utility.yul\":4828:4845   */\n      add\n        /* \"#utility.yul\":4819:4825   */\n      dup5\n        /* \"#utility.yul\":4777:4846   */\n      tag_270\n      jump\t// in\n    tag_365:\n        /* \"#utility.yul\":4635:4853   */\n      swap3\n      swap2\n      pop\n      pop\n      jump\t// out\n        /* \"#utility.yul\":4859:4977   */\n    tag_271:\n        /* \"#utility.yul\":4946:4970   */\n      tag_367\n        /* \"#utility.yul\":4964:4969   */\n      dup2\n        /* \"#utility.yul\":4946:4970   */\n      tag_256\n      jump\t// in\n    tag_367:\n        /* \"#utility.yul\":4941:4944   */\n      dup3\n        /* \"#utility.yul\":4934:4971   */\n      mstore\n        /* \"#utility.yul\":4859:4977   */\n      pop\n      pop\n      jump\t// out\n        /* \"#utility.yul\":4983:5205   */\n    tag_34:\n        /* \"#utility.yul\":5076:5080   */\n      0x00\n        /* \"#utility.yul\":5114:5116   */\n      0x20\n        /* \"#utility.yul\":5103:5112   */\n      dup3\n        /* \"#utility.yul\":5099:5117   */\n      add\n        /* \"#utility.yul\":5091:5117   */\n      swap1\n      pop\n        /* \"#utility.yul\":5127:5198   */\n      tag_369\n        /* \"#utility.yul\":5195:5196   */\n      0x00\n        /* \"#utility.yul\":5184:5193   */\n      dup4\n        /* \"#utility.yul\":5180:5197   */\n      add\n        /* \"#utility.yul\":5171:5177   */\n      dup5\n        /* \"#utility.yul\":5127:5198   */\n      tag_271\n      jump\t// in\n    tag_369:\n        /* \"#utility.yul\":4983:5205   */\n      swap3\n      swap2\n      pop\n      pop\n      jump\t// out\n        /* \"#utility.yul\":5211:5685   */\n    tag_38:\n        /* \"#utility.yul\":5279:5285   */\n      0x00\n        /* \"#utility.yul\":5287:5293   */\n      dup1\n        /* \"#utility.yul\":5336:5338   */\n      0x40\n        /* \"#utility.yul\":5324:5333   */\n      dup4\n        /* \"#utility.yul\":5315:5322   */\n      dup6\n        /* \"#utility.yul\":5311:5334   */\n      sub\n        /* \"#utility.yul\":5307:5339   */\n      slt\n        /* \"#utility.yul\":5304:5423   */\n      iszero\n      tag_371\n      jumpi\n        /* \"#utility.yul\":5342:5421   */\n      tag_372\n      tag_250\n      jump\t// in\n    tag_372:\n        /* \"#utility.yul\":5304:5423   */\n    tag_371:\n        /* \"#utility.yul\":5462:5463   */\n      0x00\n        /* \"#utility.yul\":5487:5540   */\n      tag_373\n        /* \"#utility.yul\":5532:5539   */\n      dup6\n        /* \"#utility.yul\":5523:5529   */\n      dup3\n        /* \"#utility.yul\":5512:5521   */\n      dup7\n        /* \"#utility.yul\":5508:5530   */\n      add\n        /* \"#utility.yul\":5487:5540   */\n      tag_255\n      jump\t// in\n    tag_373:\n        /* \"#utility.yul\":5477:5540   */\n      swap3\n      pop\n        /* \"#utility.yul\":5433:5550   */\n      pop\n        /* \"#utility.yul\":5589:5591   */\n      0x20\n        /* \"#utility.yul\":5615:5668   */\n      tag_374\n        /* \"#utility.yul\":5660:5667   */\n      dup6\n        /* \"#utility.yul\":5651:5657   */\n      dup3\n        /* \"#utility.yul\":5640:5649   */\n      dup7\n        /* \"#utility.yul\":5636:5658   */\n      add\n        /* \"#utility.yul\":5615:5668   */\n      tag_258\n      jump\t// in\n    tag_374:\n        /* \"#utility.yul\":5605:5668   */\n      swap2\n      pop\n        /* \"#utility.yul\":5560:5678   */\n      pop\n        /* \"#utility.yul\":5211:5685   */\n      swap3\n      pop\n      swap3\n      swap1\n      pop\n      jump\t// out\n        /* \"#utility.yul\":5691:6310   */\n    tag_48:\n        /* \"#utility.yul\":5768:5774   */\n      0x00\n        /* \"#utility.yul\":5776:5782   */\n      dup1\n        /* \"#utility.yul\":5784:5790   */\n      0x00\n        /* \"#utility.yul\":5833:5835   */\n      0x60\n        /* \"#utility.yul\":5821:5830   */\n      dup5\n        /* \"#utility.yul\":5812:5819   */\n      dup7\n        /* \"#utility.yul\":5808:5831   */\n      sub\n        /* \"#utility.yul\":5804:5836   */\n      slt\n        /* \"#utility.yul\":5801:5920   */\n      iszero\n      tag_376\n      jumpi\n        /* \"#utility.yul\":5839:5918   */\n      tag_377\n      tag_250\n      jump\t// in\n    tag_377:\n        /* \"#utility.yul\":5801:5920   */\n    tag_376:\n        /* \"#utility.yul\":5959:5960   */\n      0x00\n        /* \"#utility.yul\":5984:6037   */\n      tag_378\n        /* \"#utility.yul\":6029:6036   */\n      dup7\n        /* \"#utility.yul\":6020:6026   */\n      dup3\n        /* \"#utility.yul\":6009:6018   */\n      dup8\n        /* \"#utility.yul\":6005:6027   */\n      add\n        /* \"#utility.yul\":5984:6037   */\n      tag_255\n      jump\t// in\n    tag_378:\n        /* \"#utility.yul\":5974:6037   */\n      swap4\n      pop\n        /* \"#utility.yul\":5930:6047   */\n      pop\n        /* \"#utility.yul\":6086:6088   */\n      0x20\n        /* \"#utility.yul\":6112:6165   */\n      tag_379\n        /* \"#utility.yul\":6157:6164   */\n      dup7\n        /* \"#utility.yul\":6148:6154   */\n      dup3\n        /* \"#utility.yul\":6137:6146   */\n      dup8\n        /* \"#utility.yul\":6133:6155   */\n      add\n        /* \"#utility.yul\":6112:6165   */\n      tag_258\n      jump\t// in\n    tag_379:\n        /* \"#utility.yul\":6102:6165   */\n      swap3\n      pop\n        /* \"#utility.yul\":6057:6175   */\n      pop\n        /* \"#utility.yul\":6214:6216   */\n      0x40\n        /* \"#utility.yul\":6240:6293   */\n      tag_380\n        /* \"#utility.yul\":6285:6292   */\n      dup7\n        /* \"#utility.yul\":6276:6282   */\n      dup3\n        /* \"#utility.yul\":6265:6274   */\n      dup8\n        /* \"#utility.yul\":6261:6283   */\n      add\n        /* \"#utility.yul\":6240:6293   */\n      tag_258\n      jump\t// in\n    tag_380:\n        /* \"#utility.yul\":6230:6293   */\n      swap2\n      pop\n        /* \"#utility.yul\":6185:6303   */\n      pop\n        /* \"#utility.yul\":5691:6310   */\n      swap3\n      pop\n      swap3\n      pop\n      swap3\n      jump\t// out\n        /* \"#utility.yul\":6316:6430   */\n    tag_272:\n        /* \"#utility.yul\":6383:6389   */\n      0x00\n        /* \"#utility.yul\":6417:6422   */\n      dup2\n        /* \"#utility.yul\":6411:6423   */\n      mload\n        /* \"#utility.yul\":6401:6423   */\n      swap1\n      pop\n        /* \"#utility.yul\":6316:6430   */\n      swap2\n      swap1\n      pop\n      jump\t// out\n        /* \"#utility.yul\":6436:6620   */\n    tag_273:\n        /* \"#utility.yul\":6535:6546   */\n      0x00\n        /* \"#utility.yul\":6569:6575   */\n      dup3\n        /* \"#utility.yul\":6564:6567   */\n      dup3\n        /* \"#utility.yul\":6557:6576   */\n      mstore\n        /* \"#utility.yul\":6609:6613   */\n      0x20\n        /* \"#utility.yul\":6604:6607   */\n      dup3\n        /* \"#utility.yul\":6600:6614   */\n      add\n        /* \"#utility.yul\":6585:6614   */\n      swap1\n      pop\n        /* \"#utility.yul\":6436:6620   */\n      swap3\n      swap2\n      pop\n      pop\n      jump\t// out\n        /* \"#utility.yul\":6626:6758   */\n    tag_274:\n        /* \"#utility.yul\":6693:6697   */\n      0x00\n        /* \"#utility.yul\":6716:6719   */\n      dup2\n        /* \"#utility.yul\":6708:6719   */\n      swap1\n      pop\n        /* \"#utility.yul\":6746:6750   */\n      0x20\n        /* \"#utility.yul\":6741:6744   */\n      dup3\n        /* \"#utility.yul\":6737:6751   */\n      add\n        /* \"#utility.yul\":6729:6751   */\n      swap1\n      pop\n        /* \"#utility.yul\":6626:6758   */\n      swap2\n      swap1\n      pop\n      jump\t// out\n        /* \"#utility.yul\":6764:6872   */\n    tag_275:\n        /* \"#utility.yul\":6841:6865   */\n      tag_385\n        /* \"#utility.yul\":6859:6864   */\n      dup2\n        /* \"#utility.yul\":6841:6865   */\n      tag_256\n      jump\t// in\n    tag_385:\n        /* \"#utility.yul\":6836:6839   */\n      dup3\n        /* \"#utility.yul\":6829:6866   */\n      mstore\n        /* \"#utility.yul\":6764:6872   */\n      pop\n      pop\n      jump\t// out\n        /* \"#utility.yul\":6878:7057   */\n    tag_276:\n        /* \"#utility.yul\":6947:6957   */\n      0x00\n        /* \"#utility.yul\":6968:7014   */\n      tag_387\n        /* \"#utility.yul\":7010:7013   */\n      dup4\n        /* \"#utility.yul\":7002:7008   */\n      dup4\n        /* \"#utility.yul\":6968:7014   */\n      tag_275\n      jump\t// in\n    tag_387:\n        /* \"#utility.yul\":7046:7050   */\n      0x20\n        /* \"#utility.yul\":7041:7044   */\n      dup4\n        /* \"#utility.yul\":7037:7051   */\n      add\n        /* \"#utility.yul\":7023:7051   */\n      swap1\n      pop\n        /* \"#utility.yul\":6878:7057   */\n      swap3\n      swap2\n      pop\n      pop\n      jump\t// out\n        /* \"#utility.yul\":7063:7176   */\n    tag_277:\n        /* \"#utility.yul\":7133:7137   */\n      0x00\n        /* \"#utility.yul\":7165:7169   */\n      0x20\n        /* \"#utility.yul\":7160:7163   */\n      dup3\n        /* \"#utility.yul\":7156:7170   */\n      add\n        /* \"#utility.yul\":7148:7170   */\n      swap1\n      pop\n        /* \"#utility.yul\":7063:7176   */\n      swap2\n      swap1\n      pop\n      jump\t// out\n        /* \"#utility.yul\":7212:7944   */\n    tag_278:\n        /* \"#utility.yul\":7331:7334   */\n      0x00\n        /* \"#utility.yul\":7360:7414   */\n      tag_390\n        /* \"#utility.yul\":7408:7413   */\n      dup3\n        /* \"#utility.yul\":7360:7414   */\n      tag_272\n      jump\t// in\n    tag_390:\n        /* \"#utility.yul\":7430:7516   */\n      tag_391\n        /* \"#utility.yul\":7509:7515   */\n      dup2\n        /* \"#utility.yul\":7504:7507   */\n      dup6\n        /* \"#utility.yul\":7430:7516   */\n      tag_273\n      jump\t// in\n    tag_391:\n        /* \"#utility.yul\":7423:7516   */\n      swap4\n      pop\n        /* \"#utility.yul\":7540:7596   */\n      tag_392\n        /* \"#utility.yul\":7590:7595   */\n      dup4\n        /* \"#utility.yul\":7540:7596   */\n      tag_274\n      jump\t// in\n    tag_392:\n        /* \"#utility.yul\":7619:7626   */\n      dup1\n        /* \"#utility.yul\":7650:7651   */\n      0x00\n        /* \"#utility.yul\":7635:7919   */\n    tag_393:\n        /* \"#utility.yul\":7660:7666   */\n      dup4\n        /* \"#utility.yul\":7657:7658   */\n      dup2\n        /* \"#utility.yul\":7654:7667   */\n      lt\n        /* \"#utility.yul\":7635:7919   */\n      iszero\n      tag_395\n      jumpi\n        /* \"#utility.yul\":7736:7742   */\n      dup2\n        /* \"#utility.yul\":7730:7743   */\n      mload\n        /* \"#utility.yul\":7763:7826   */\n      tag_396\n        /* \"#utility.yul\":7822:7825   */\n      dup9\n        /* \"#utility.yul\":7807:7820   */\n      dup3\n        /* \"#utility.yul\":7763:7826   */\n      tag_276\n      jump\t// in\n    tag_396:\n        /* \"#utility.yul\":7756:7826   */\n      swap8\n      pop\n        /* \"#utility.yul\":7849:7909   */\n      tag_397\n        /* \"#utility.yul\":7902:7908   */\n      dup4\n        /* \"#utility.yul\":7849:7909   */\n      tag_277\n      jump\t// in\n    tag_397:\n        /* \"#utility.yul\":7839:7909   */\n      swap3\n      pop\n        /* \"#utility.yul\":7695:7919   */\n      pop\n        /* \"#utility.yul\":7682:7683   */\n      0x01\n        /* \"#utility.yul\":7679:7680   */\n      dup2\n        /* \"#utility.yul\":7675:7684   */\n      add\n        /* \"#utility.yul\":7670:7684   */\n      swap1\n      pop\n        /* \"#utility.yul\":7635:7919   */\n      jump(tag_393)\n    tag_395:\n        /* \"#utility.yul\":7639:7653   */\n      pop\n        /* \"#utility.yul\":7935:7938   */\n      dup6\n        /* \"#utility.yul\":7928:7938   */\n      swap4\n      pop\n        /* \"#utility.yul\":7336:7944   */\n      pop\n      pop\n      pop\n        /* \"#utility.yul\":7212:7944   */\n      swap3\n      swap2\n      pop\n      pop\n      jump\t// out\n        /* \"#utility.yul\":7950:8323   */\n    tag_55:\n        /* \"#utility.yul\":8093:8097   */\n      0x00\n        /* \"#utility.yul\":8131:8133   */\n      0x20\n        /* \"#utility.yul\":8120:8129   */\n      dup3\n        /* \"#utility.yul\":8116:8134   */\n      add\n        /* \"#utility.yul\":8108:8134   */\n      swap1\n      pop\n        /* \"#utility.yul\":8180:8189   */\n      dup2\n        /* \"#utility.yul\":8174:8178   */\n      dup2\n        /* \"#utility.yul\":8170:8190   */\n      sub\n        /* \"#utility.yul\":8166:8167   */\n      0x00\n        /* \"#utility.yul\":8155:8164   */\n      dup4\n        /* \"#utility.yul\":8151:8168   */\n      add\n        /* \"#utility.yul\":8144:8191   */\n      mstore\n        /* \"#utility.yul\":8208:8316   */\n      tag_399\n        /* \"#utility.yul\":8311:8315   */\n      dup2\n        /* \"#utility.yul\":8302:8308   */\n      dup5\n        /* \"#utility.yul\":8208:8316   */\n      tag_278\n      jump\t// in\n    tag_399:\n        /* \"#utility.yul\":8200:8316   */\n      swap1\n      pop\n        /* \"#utility.yul\":7950:8323   */\n      swap3\n      swap2\n      pop\n      pop\n      jump\t// out\n        /* \"#utility.yul\":8329:8446   */\n    tag_279:\n        /* \"#utility.yul\":8438:8439   */\n      0x00\n        /* \"#utility.yul\":8435:8436   */\n      dup1\n        /* \"#utility.yul\":8428:8440   */\n      revert\n        /* \"#utility.yul\":8452:8569   */\n    tag_280:\n        /* \"#utility.yul\":8561:8562   */\n      0x00\n        /* \"#utility.yul\":8558:8559   */\n      dup1\n        /* \"#utility.yul\":8551:8563   */\n      revert\n        /* \"#utility.yul\":8592:9160   */\n    tag_281:\n        /* \"#utility.yul\":8665:8673   */\n      0x00\n        /* \"#utility.yul\":8675:8681   */\n      dup1\n        /* \"#utility.yul\":8725:8728   */\n      dup4\n        /* \"#utility.yul\":8718:8722   */\n      0x1f\n        /* \"#utility.yul\":8710:8716   */\n      dup5\n        /* \"#utility.yul\":8706:8723   */\n      add\n        /* \"#utility.yul\":8702:8729   */\n      slt\n        /* \"#utility.yul\":8692:8814   */\n      tag_403\n      jumpi\n        /* \"#utility.yul\":8733:8812   */\n      tag_404\n      tag_259\n      jump\t// in\n    tag_404:\n        /* \"#utility.yul\":8692:8814   */\n    tag_403:\n        /* \"#utility.yul\":8846:8852   */\n      dup3\n        /* \"#utility.yul\":8833:8853   */\n      calldataload\n        /* \"#utility.yul\":8823:8853   */\n      swap1\n      pop\n        /* \"#utility.yul\":8876:8894   */\n      0xffffffffffffffff\n        /* \"#utility.yul\":8868:8874   */\n      dup2\n        /* \"#utility.yul\":8865:8895   */\n      gt\n        /* \"#utility.yul\":8862:8979   */\n      iszero\n      tag_405\n      jumpi\n        /* \"#utility.yul\":8898:8977   */\n      tag_406\n      tag_279\n      jump\t// in\n    tag_406:\n        /* \"#utility.yul\":8862:8979   */\n    tag_405:\n        /* \"#utility.yul\":9012:9016   */\n      0x20\n        /* \"#utility.yul\":9004:9010   */\n      dup4\n        /* \"#utility.yul\":9000:9017   */\n      add\n        /* \"#utility.yul\":8988:9017   */\n      swap2\n      pop\n        /* \"#utility.yul\":9066:9069   */\n      dup4\n        /* \"#utility.yul\":9058:9062   */\n      0x20\n        /* \"#utility.yul\":9050:9056   */\n      dup3\n        /* \"#utility.yul\":9046:9063   */\n      mul\n        /* \"#utility.yul\":9036:9044   */\n      dup4\n        /* \"#utility.yul\":9032:9064   */\n      add\n        /* \"#utility.yul\":9029:9070   */\n      gt\n        /* \"#utility.yul\":9026:9154   */\n      iszero\n      tag_407\n      jumpi\n        /* \"#utility.yul\":9073:9152   */\n      tag_408\n      tag_280\n      jump\t// in\n    tag_408:\n        /* \"#utility.yul\":9026:9154   */\n    tag_407:\n        /* \"#utility.yul\":8592:9160   */\n      swap3\n      pop\n      swap3\n      swap1\n      pop\n      jump\t// out\n        /* \"#utility.yul\":9166:9870   */\n    tag_62:\n        /* \"#utility.yul\":9261:9267   */\n      0x00\n        /* \"#utility.yul\":9269:9275   */\n      dup1\n        /* \"#utility.yul\":9277:9283   */\n      0x00\n        /* \"#utility.yul\":9326:9328   */\n      0x40\n        /* \"#utility.yul\":9314:9323   */\n      dup5\n        /* \"#utility.yul\":9305:9312   */\n      dup7\n        /* \"#utility.yul\":9301:9324   */\n      sub\n        /* \"#utility.yul\":9297:9329   */\n      slt\n        /* \"#utility.yul\":9294:9413   */\n      iszero\n      tag_410\n      jumpi\n        /* \"#utility.yul\":9332:9411   */\n      tag_411\n      tag_250\n      jump\t// in\n    tag_411:\n        /* \"#utility.yul\":9294:9413   */\n    tag_410:\n        /* \"#utility.yul\":9452:9453   */\n      0x00\n        /* \"#utility.yul\":9477:9530   */\n      tag_412\n        /* \"#utility.yul\":9522:9529   */\n      dup7\n        /* \"#utility.yul\":9513:9519   */\n      dup3\n        /* \"#utility.yul\":9502:9511   */\n      dup8\n        /* \"#utility.yul\":9498:9520   */\n      add\n        /* \"#utility.yul\":9477:9530   */\n      tag_255\n      jump\t// in\n    tag_412:\n        /* \"#utility.yul\":9467:9530   */\n      swap4\n      pop\n        /* \"#utility.yul\":9423:9540   */\n      pop\n        /* \"#utility.yul\":9607:9609   */\n      0x20\n        /* \"#utility.yul\":9596:9605   */\n      dup5\n        /* \"#utility.yul\":9592:9610   */\n      add\n        /* \"#utility.yul\":9579:9611   */\n      calldataload\n        /* \"#utility.yul\":9638:9656   */\n      0xffffffffffffffff\n        /* \"#utility.yul\":9630:9636   */\n      dup2\n        /* \"#utility.yul\":9627:9657   */\n      gt\n        /* \"#utility.yul\":9624:9741   */\n      iszero\n      tag_413\n      jumpi\n        /* \"#utility.yul\":9660:9739   */\n      tag_414\n      tag_251\n      jump\t// in\n    tag_414:\n        /* \"#utility.yul\":9624:9741   */\n    tag_413:\n        /* \"#utility.yul\":9773:9853   */\n      tag_415\n        /* \"#utility.yul\":9845:9852   */\n      dup7\n        /* \"#utility.yul\":9836:9842   */\n      dup3\n        /* \"#utility.yul\":9825:9834   */\n      dup8\n        /* \"#utility.yul\":9821:9843   */\n      add\n        /* \"#utility.yul\":9773:9853   */\n      tag_281\n      jump\t// in\n    tag_415:\n        /* \"#utility.yul\":9755:9853   */\n      swap3\n      pop\n      swap3\n      pop\n        /* \"#utility.yul\":9550:9863   */\n      pop\n        /* \"#utility.yul\":9166:9870   */\n      swap3\n      pop\n      swap3\n      pop\n      swap3\n      jump\t// out\n        /* \"#utility.yul\":9876:10205   */\n    tag_67:\n        /* \"#utility.yul\":9935:9941   */\n      0x00\n        /* \"#utility.yul\":9984:9986   */\n      0x20\n        /* \"#utility.yul\":9972:9981   */\n      dup3\n        /* \"#utility.yul\":9963:9970   */\n      dup5\n        /* \"#utility.yul\":9959:9982   */\n      sub\n        /* \"#utility.yul\":9955:9987   */\n      slt\n        /* \"#utility.yul\":9952:10071   */\n      iszero\n      tag_417\n      jumpi\n        /* \"#utility.yul\":9990:10069   */\n      tag_418\n      tag_250\n      jump\t// in\n    tag_418:\n        /* \"#utility.yul\":9952:10071   */\n    tag_417:\n        /* \"#utility.yul\":10110:10111   */\n      0x00\n        /* \"#utility.yul\":10135:10188   */\n      tag_419\n        /* \"#utility.yul\":10180:10187   */\n      dup5\n        /* \"#utility.yul\":10171:10177   */\n      dup3\n        /* \"#utility.yul\":10160:10169   */\n      dup6\n        /* \"#utility.yul\":10156:10178   */\n      add\n        /* \"#utility.yul\":10135:10188   */\n      tag_258\n      jump\t// in\n    tag_419:\n        /* \"#utility.yul\":10125:10188   */\n      swap2\n      pop\n        /* \"#utility.yul\":10081:10198   */\n      pop\n        /* \"#utility.yul\":9876:10205   */\n      swap3\n      swap2\n      pop\n      pop\n      jump\t// out\n        /* \"#utility.yul\":10211:10329   */\n    tag_282:\n        /* \"#utility.yul\":10298:10322   */\n      tag_421\n        /* \"#utility.yul\":10316:10321   */\n      dup2\n        /* \"#utility.yul\":10298:10322   */\n      tag_253\n      jump\t// in\n    tag_421:\n        /* \"#utility.yul\":10293:10296   */\n      dup3\n        /* \"#utility.yul\":10286:10323   */\n      mstore\n        /* \"#utility.yul\":10211:10329   */\n      pop\n      pop\n      jump\t// out\n        /* \"#utility.yul\":10335:10557   */\n    tag_70:\n        /* \"#utility.yul\":10428:10432   */\n      0x00\n        /* \"#utility.yul\":10466:10468   */\n      0x20\n        /* \"#utility.yul\":10455:10464   */\n      dup3\n        /* \"#utility.yul\":10451:10469   */\n      add\n        /* \"#utility.yul\":10443:10469   */\n      swap1\n      pop\n        /* \"#utility.yul\":10479:10550   */\n      tag_423\n        /* \"#utility.yul\":10547:10548   */\n      0x00\n        /* \"#utility.yul\":10536:10545   */\n      dup4\n        /* \"#utility.yul\":10532:10549   */\n      add\n        /* \"#utility.yul\":10523:10529   */\n      dup5\n        /* \"#utility.yul\":10479:10550   */\n      tag_282\n      jump\t// in\n    tag_423:\n        /* \"#utility.yul\":10335:10557   */\n      swap3\n      swap2\n      pop\n      pop\n      jump\t// out\n        /* \"#utility.yul\":10576:11128   */\n    tag_283:\n        /* \"#utility.yul\":10633:10641   */\n      0x00\n        /* \"#utility.yul\":10643:10649   */\n      dup1\n        /* \"#utility.yul\":10693:10696   */\n      dup4\n        /* \"#utility.yul\":10686:10690   */\n      0x1f\n        /* \"#utility.yul\":10678:10684   */\n      dup5\n        /* \"#utility.yul\":10674:10691   */\n      add\n        /* \"#utility.yul\":10670:10697   */\n      slt\n        /* \"#utility.yul\":10660:10782   */\n      tag_425\n      jumpi\n        /* \"#utility.yul\":10701:10780   */\n      tag_426\n      tag_259\n      jump\t// in\n    tag_426:\n        /* \"#utility.yul\":10660:10782   */\n    tag_425:\n        /* \"#utility.yul\":10814:10820   */\n      dup3\n        /* \"#utility.yul\":10801:10821   */\n      calldataload\n        /* \"#utility.yul\":10791:10821   */\n      swap1\n      pop\n        /* \"#utility.yul\":10844:10862   */\n      0xffffffffffffffff\n        /* \"#utility.yul\":10836:10842   */\n      dup2\n        /* \"#utility.yul\":10833:10863   */\n      gt\n        /* \"#utility.yul\":10830:10947   */\n      iszero\n      tag_427\n      jumpi\n        /* \"#utility.yul\":10866:10945   */\n      tag_428\n      tag_279\n      jump\t// in\n    tag_428:\n        /* \"#utility.yul\":10830:10947   */\n    tag_427:\n        /* \"#utility.yul\":10980:10984   */\n      0x20\n        /* \"#utility.yul\":10972:10978   */\n      dup4\n        /* \"#utility.yul\":10968:10985   */\n      add\n        /* \"#utility.yul\":10956:10985   */\n      swap2\n      pop\n        /* \"#utility.yul\":11034:11037   */\n      dup4\n        /* \"#utility.yul\":11026:11030   */\n      0x01\n        /* \"#utility.yul\":11018:11024   */\n      dup3\n        /* \"#utility.yul\":11014:11031   */\n      mul\n        /* \"#utility.yul\":11004:11012   */\n      dup4\n        /* \"#utility.yul\":11000:11032   */\n      add\n        /* \"#utility.yul\":10997:11038   */\n      gt\n        /* \"#utility.yul\":10994:11122   */\n      iszero\n      tag_429\n      jumpi\n        /* \"#utility.yul\":11041:11120   */\n      tag_430\n      tag_280\n      jump\t// in\n    tag_430:\n        /* \"#utility.yul\":10994:11122   */\n    tag_429:\n        /* \"#utility.yul\":10576:11128   */\n      swap3\n      pop\n      swap3\n      swap1\n      pop\n      jump\t// out\n        /* \"#utility.yul\":11134:11951   */\n    tag_78:\n        /* \"#utility.yul\":11222:11228   */\n      0x00\n        /* \"#utility.yul\":11230:11236   */\n      dup1\n        /* \"#utility.yul\":11238:11244   */\n      0x00\n        /* \"#utility.yul\":11246:11252   */\n      dup1\n        /* \"#utility.yul\":11295:11297   */\n      0x60\n        /* \"#utility.yul\":11283:11292   */\n      dup6\n        /* \"#utility.yul\":11274:11281   */\n      dup8\n        /* \"#utility.yul\":11270:11293   */\n      sub\n        /* \"#utility.yul\":11266:11298   */\n      slt\n        /* \"#utility.yul\":11263:11382   */\n      iszero\n      tag_432\n      jumpi\n        /* \"#utility.yul\":11301:11380   */\n      tag_433\n      tag_250\n      jump\t// in\n    tag_433:\n        /* \"#utility.yul\":11263:11382   */\n    tag_432:\n        /* \"#utility.yul\":11421:11422   */\n      0x00\n        /* \"#utility.yul\":11446:11499   */\n      tag_434\n        /* \"#utility.yul\":11491:11498   */\n      dup8\n        /* \"#utility.yul\":11482:11488   */\n      dup3\n        /* \"#utility.yul\":11471:11480   */\n      dup9\n        /* \"#utility.yul\":11467:11489   */\n      add\n        /* \"#utility.yul\":11446:11499   */\n      tag_255\n      jump\t// in\n    tag_434:\n        /* \"#utility.yul\":11436:11499   */\n      swap5\n      pop\n        /* \"#utility.yul\":11392:11509   */\n      pop\n        /* \"#utility.yul\":11548:11550   */\n      0x20\n        /* \"#utility.yul\":11574:11627   */\n      tag_435\n        /* \"#utility.yul\":11619:11626   */\n      dup8\n        /* \"#utility.yul\":11610:11616   */\n      dup3\n        /* \"#utility.yul\":11599:11608   */\n      dup9\n        /* \"#utility.yul\":11595:11617   */\n      add\n        /* \"#utility.yul\":11574:11627   */\n      tag_258\n      jump\t// in\n    tag_435:\n        /* \"#utility.yul\":11564:11627   */\n      swap4\n      pop\n        /* \"#utility.yul\":11519:11637   */\n      pop\n        /* \"#utility.yul\":11704:11706   */\n      0x40\n        /* \"#utility.yul\":11693:11702   */\n      dup6\n        /* \"#utility.yul\":11689:11707   */\n      add\n        /* \"#utility.yul\":11676:11708   */\n      calldataload\n        /* \"#utility.yul\":11735:11753   */\n      0xffffffffffffffff\n        /* \"#utility.yul\":11727:11733   */\n      dup2\n        /* \"#utility.yul\":11724:11754   */\n      gt\n        /* \"#utility.yul\":11721:11838   */\n      iszero\n      tag_436\n      jumpi\n        /* \"#utility.yul\":11757:11836   */\n      tag_437\n      tag_251\n      jump\t// in\n    tag_437:\n        /* \"#utility.yul\":11721:11838   */\n    tag_436:\n        /* \"#utility.yul\":11870:11934   */\n      tag_438\n        /* \"#utility.yul\":11926:11933   */\n      dup8\n        /* \"#utility.yul\":11917:11923   */\n      dup3\n        /* \"#utility.yul\":11906:11915   */\n      dup9\n        /* \"#utility.yul\":11902:11924   */\n      add\n        /* \"#utility.yul\":11870:11934   */\n      tag_283\n      jump\t// in\n    tag_438:\n        /* \"#utility.yul\":11852:11934   */\n      swap3\n      pop\n      swap3\n      pop\n        /* \"#utility.yul\":11647:11944   */\n      pop\n        /* \"#utility.yul\":11134:11951   */\n      swap3\n      swap6\n      swap2\n      swap5\n      pop\n      swap3\n      pop\n      jump\t// out\n        /* \"#utility.yul\":11957:12047   */\n    tag_284:\n        /* \"#utility.yul\":11991:11998   */\n      0x00\n        /* \"#utility.yul\":12034:12039   */\n      dup2\n        /* \"#utility.yul\":12027:12040   */\n      iszero\n        /* \"#utility.yul\":12020:12041   */\n      iszero\n        /* \"#utility.yul\":12009:12041   */\n      swap1\n      pop\n        /* \"#utility.yul\":11957:12047   */\n      swap2\n      swap1\n      pop\n      jump\t// out\n        /* \"#utility.yul\":12053:12162   */\n    tag_285:\n        /* \"#utility.yul\":12134:12155   */\n      tag_441\n        /* \"#utility.yul\":12149:12154   */\n      dup2\n        /* \"#utility.yul\":12134:12155   */\n      tag_284\n      jump\t// in\n    tag_441:\n        /* \"#utility.yul\":12129:12132   */\n      dup3\n        /* \"#utility.yul\":12122:12156   */\n      mstore\n        /* \"#utility.yul\":12053:12162   */\n      pop\n      pop\n      jump\t// out\n        /* \"#utility.yul\":12168:12378   */\n    tag_89:\n        /* \"#utility.yul\":12255:12259   */\n      0x00\n        /* \"#utility.yul\":12293:12295   */\n      0x20\n        /* \"#utility.yul\":12282:12291   */\n      dup3\n        /* \"#utility.yul\":12278:12296   */\n      add\n        /* \"#utility.yul\":12270:12296   */\n      swap1\n      pop\n        /* \"#utility.yul\":12306:12371   */\n      tag_443\n        /* \"#utility.yul\":12368:12369   */\n      0x00\n        /* \"#utility.yul\":12357:12366   */\n      dup4\n        /* \"#utility.yul\":12353:12370   */\n      add\n        /* \"#utility.yul\":12344:12350   */\n      dup5\n        /* \"#utility.yul\":12306:12371   */\n      tag_285\n      jump\t// in\n    tag_443:\n        /* \"#utility.yul\":12168:12378   */\n      swap3\n      swap2\n      pop\n      pop\n      jump\t// out\n        /* \"#utility.yul\":12384:13233   */\n    tag_93:\n        /* \"#utility.yul\":12488:12494   */\n      0x00\n        /* \"#utility.yul\":12496:12502   */\n      dup1\n        /* \"#utility.yul\":12504:12510   */\n      0x00\n        /* \"#utility.yul\":12512:12518   */\n      dup1\n        /* \"#utility.yul\":12561:12563   */\n      0x60\n        /* \"#utility.yul\":12549:12558   */\n      dup6\n        /* \"#utility.yul\":12540:12547   */\n      dup8\n        /* \"#utility.yul\":12536:12559   */\n      sub\n        /* \"#utility.yul\":12532:12564   */\n      slt\n        /* \"#utility.yul\":12529:12648   */\n      iszero\n      tag_445\n      jumpi\n        /* \"#utility.yul\":12567:12646   */\n      tag_446\n      tag_250\n      jump\t// in\n    tag_446:\n        /* \"#utility.yul\":12529:12648   */\n    tag_445:\n        /* \"#utility.yul\":12687:12688   */\n      0x00\n        /* \"#utility.yul\":12712:12765   */\n      tag_447\n        /* \"#utility.yul\":12757:12764   */\n      dup8\n        /* \"#utility.yul\":12748:12754   */\n      dup3\n        /* \"#utility.yul\":12737:12746   */\n      dup9\n        /* \"#utility.yul\":12733:12755   */\n      add\n        /* \"#utility.yul\":12712:12765   */\n      tag_255\n      jump\t// in\n    tag_447:\n        /* \"#utility.yul\":12702:12765   */\n      swap5\n      pop\n        /* \"#utility.yul\":12658:12775   */\n      pop\n        /* \"#utility.yul\":12842:12844   */\n      0x20\n        /* \"#utility.yul\":12831:12840   */\n      dup6\n        /* \"#utility.yul\":12827:12845   */\n      add\n        /* \"#utility.yul\":12814:12846   */\n      calldataload\n        /* \"#utility.yul\":12873:12891   */\n      0xffffffffffffffff\n        /* \"#utility.yul\":12865:12871   */\n      dup2\n        /* \"#utility.yul\":12862:12892   */\n      gt\n        /* \"#utility.yul\":12859:12976   */\n      iszero\n      tag_448\n      jumpi\n        /* \"#utility.yul\":12895:12974   */\n      tag_449\n      tag_251\n      jump\t// in\n    tag_449:\n        /* \"#utility.yul\":12859:12976   */\n    tag_448:\n        /* \"#utility.yul\":13008:13088   */\n      tag_450\n        /* \"#utility.yul\":13080:13087   */\n      dup8\n        /* \"#utility.yul\":13071:13077   */\n      dup3\n        /* \"#utility.yul\":13060:13069   */\n      dup9\n        /* \"#utility.yul\":13056:13078   */\n      add\n        /* \"#utility.yul\":13008:13088   */\n      tag_281\n      jump\t// in\n    tag_450:\n        /* \"#utility.yul\":12990:13088   */\n      swap4\n      pop\n      swap4\n      pop\n        /* \"#utility.yul\":12785:13098   */\n      pop\n        /* \"#utility.yul\":13137:13139   */\n      0x40\n        /* \"#utility.yul\":13163:13216   */\n      tag_451\n        /* \"#utility.yul\":13208:13215   */\n      dup8\n        /* \"#utility.yul\":13199:13205   */\n      dup3\n        /* \"#utility.yul\":13188:13197   */\n      dup9\n        /* \"#utility.yul\":13184:13206   */\n      add\n        /* \"#utility.yul\":13163:13216   */\n      tag_258\n      jump\t// in\n    tag_451:\n        /* \"#utility.yul\":13153:13216   */\n      swap2\n      pop\n        /* \"#utility.yul\":13108:13226   */\n      pop\n        /* \"#utility.yul\":12384:13233   */\n      swap3\n      swap6\n      swap2\n      swap5\n      pop\n      swap3\n      pop\n      jump\t// out\n        /* \"#utility.yul\":13239:13568   */\n    tag_102:\n        /* \"#utility.yul\":13298:13304   */\n      0x00\n        /* \"#utility.yul\":13347:13349   */\n      0x20\n        /* \"#utility.yul\":13335:13344   */\n      dup3\n        /* \"#utility.yul\":13326:13333   */\n      dup5\n        /* \"#utility.yul\":13322:13345   */\n      sub\n        /* \"#utility.yul\":13318:13350   */\n      slt\n        /* \"#utility.yul\":13315:13434   */\n      iszero\n      tag_453\n      jumpi\n        /* \"#utility.yul\":13353:13432   */\n      tag_454\n      tag_250\n      jump\t// in\n    tag_454:\n        /* \"#utility.yul\":13315:13434   */\n    tag_453:\n        /* \"#utility.yul\":13473:13474   */\n      0x00\n        /* \"#utility.yul\":13498:13551   */\n      tag_455\n        /* \"#utility.yul\":13543:13550   */\n      dup5\n        /* \"#utility.yul\":13534:13540   */\n      dup3\n        /* \"#utility.yul\":13523:13532   */\n      dup6\n        /* \"#utility.yul\":13519:13541   */\n      add\n        /* \"#utility.yul\":13498:13551   */\n      tag_255\n      jump\t// in\n    tag_455:\n        /* \"#utility.yul\":13488:13551   */\n      swap2\n      pop\n        /* \"#utility.yul\":13444:13561   */\n      pop\n        /* \"#utility.yul\":13239:13568   */\n      swap3\n      swap2\n      pop\n      pop\n      jump\t// out\n        /* \"#utility.yul\":13574:13717   */\n    tag_286:\n        /* \"#utility.yul\":13631:13636   */\n      0x00\n        /* \"#utility.yul\":13662:13668   */\n      dup2\n        /* \"#utility.yul\":13656:13669   */\n      mload\n        /* \"#utility.yul\":13647:13669   */\n      swap1\n      pop\n        /* \"#utility.yul\":13678:13711   */\n      tag_457\n        /* \"#utility.yul\":13705:13710   */\n      dup2\n        /* \"#utility.yul\":13678:13711   */\n      tag_257\n      jump\t// in\n    tag_457:\n        /* \"#utility.yul\":13574:13717   */\n      swap3\n      swap2\n      pop\n      pop\n      jump\t// out\n        /* \"#utility.yul\":13723:14074   */\n    tag_118:\n        /* \"#utility.yul\":13793:13799   */\n      0x00\n        /* \"#utility.yul\":13842:13844   */\n      0x20\n        /* \"#utility.yul\":13830:13839   */\n      dup3\n        /* \"#utility.yul\":13821:13828   */\n      dup5\n        /* \"#utility.yul\":13817:13840   */\n      sub\n        /* \"#utility.yul\":13813:13845   */\n      slt\n        /* \"#utility.yul\":13810:13929   */\n      iszero\n      tag_459\n      jumpi\n        /* \"#utility.yul\":13848:13927   */\n      tag_460\n      tag_250\n      jump\t// in\n    tag_460:\n        /* \"#utility.yul\":13810:13929   */\n    tag_459:\n        /* \"#utility.yul\":13968:13969   */\n      0x00\n        /* \"#utility.yul\":13993:14057   */\n      tag_461\n        /* \"#utility.yul\":14049:14056   */\n      dup5\n        /* \"#utility.yul\":14040:14046   */\n      dup3\n        /* \"#utility.yul\":14029:14038   */\n      dup6\n        /* \"#utility.yul\":14025:14047   */\n      add\n        /* \"#utility.yul\":13993:14057   */\n      tag_286\n      jump\t// in\n    tag_461:\n        /* \"#utility.yul\":13983:14057   */\n      swap2\n      pop\n        /* \"#utility.yul\":13939:14067   */\n      pop\n        /* \"#utility.yul\":13723:14074   */\n      swap3\n      swap2\n      pop\n      pop\n      jump\t// out\n        /* \"#utility.yul\":14080:14260   */\n    tag_287:\n        /* \"#utility.yul\":14128:14205   */\n      0x4e487b7100000000000000000000000000000000000000000000000000000000\n        /* \"#utility.yul\":14125:14126   */\n      0x00\n        /* \"#utility.yul\":14118:14206   */\n      mstore\n        /* \"#utility.yul\":14225:14229   */\n      0x11\n        /* \"#utility.yul\":14222:14223   */\n      0x04\n        /* \"#utility.yul\":14215:14230   */\n      mstore\n        /* \"#utility.yul\":14249:14253   */\n      0x24\n        /* \"#utility.yul\":14246:14247   */\n      0x00\n        /* \"#utility.yul\":14239:14254   */\n      revert\n        /* \"#utility.yul\":14266:14499   */\n    tag_128:\n        /* \"#utility.yul\":14305:14308   */\n      0x00\n        /* \"#utility.yul\":14328:14352   */\n      tag_464\n        /* \"#utility.yul\":14346:14351   */\n      dup3\n        /* \"#utility.yul\":14328:14352   */\n      tag_256\n      jump\t// in\n    tag_464:\n        /* \"#utility.yul\":14319:14352   */\n      swap2\n      pop\n        /* \"#utility.yul\":14374:14440   */\n      0xffffffffffffffffffffffffffffffffffffffffffffffffffffffffffffffff\n        /* \"#utility.yul\":14367:14372   */\n      dup3\n        /* \"#utility.yul\":14364:14441   */\n      sub\n        /* \"#utility.yul\":14361:14464   */\n      tag_465\n      jumpi\n        /* \"#utility.yul\":14444:14462   */\n      tag_466\n      tag_287\n      jump\t// in\n    tag_466:\n        /* \"#utility.yul\":14361:14464   */\n    tag_465:\n        /* \"#utility.yul\":14491:14492   */\n      0x01\n        /* \"#utility.yul\":14484:14489   */\n      dup3\n        /* \"#utility.yul\":14480:14493   */\n      add\n        /* \"#utility.yul\":14473:14493   */\n      swap1\n      pop\n        /* \"#utility.yul\":14266:14499   */\n      swap2\n      swap1\n      pop\n      jump\t// out\n        /* \"#utility.yul\":14505:14816   */\n    tag_288:\n        /* \"#utility.yul\":14582:14586   */\n      0x00\n        /* \"#utility.yul\":14672:14690   */\n      0xffffffffffffffff\n        /* \"#utility.yul\":14664:14670   */\n      dup3\n        /* \"#utility.yul\":14661:14691   */\n      gt\n        /* \"#utility.yul\":14658:14714   */\n      iszero\n      tag_468\n      jumpi\n        /* \"#utility.yul\":14694:14712   */\n      tag_469\n      tag_262\n      jump\t// in\n    tag_469:\n        /* \"#utility.yul\":14658:14714   */\n    tag_468:\n        /* \"#utility.yul\":14744:14748   */\n      0x20\n        /* \"#utility.yul\":14736:14742   */\n      dup3\n        /* \"#utility.yul\":14732:14749   */\n      mul\n        /* \"#utility.yul\":14724:14749   */\n      swap1\n      pop\n        /* \"#utility.yul\":14804:14808   */\n      0x20\n        /* \"#utility.yul\":14798:14802   */\n      dup2\n        /* \"#utility.yul\":14794:14809   */\n      add\n        /* \"#utility.yul\":14786:14809   */\n      swap1\n      pop\n        /* \"#utility.yul\":14505:14816   */\n      swap2\n      swap1\n      pop\n      jump\t// out\n        /* \"#utility.yul\":14839:15571   */\n    tag_289:\n        /* \"#utility.yul\":14946:14951   */\n      0x00\n        /* \"#utility.yul\":14971:15052   */\n      tag_471\n        /* \"#utility.yul\":14987:15051   */\n      tag_472\n        /* \"#utility.yul\":15044:15050   */\n      dup5\n        /* \"#utility.yul\":14987:15051   */\n      tag_288\n      jump\t// in\n    tag_472:\n        /* \"#utility.yul\":14971:15052   */\n      tag_264\n      jump\t// in\n    tag_471:\n        /* \"#utility.yul\":14962:15052   */\n      swap1\n      pop\n        /* \"#utility.yul\":15072:15077   */\n      dup1\n        /* \"#utility.yul\":15101:15107   */\n      dup4\n        /* \"#utility.yul\":15094:15099   */\n      dup3\n        /* \"#utility.yul\":15087:15108   */\n      mstore\n        /* \"#utility.yul\":15135:15139   */\n      0x20\n        /* \"#utility.yul\":15128:15133   */\n      dup3\n        /* \"#utility.yul\":15124:15140   */\n      add\n        /* \"#utility.yul\":15117:15140   */\n      swap1\n      pop\n        /* \"#utility.yul\":15188:15192   */\n      0x20\n        /* \"#utility.yul\":15180:15186   */\n      dup5\n        /* \"#utility.yul\":15176:15193   */\n      mul\n        /* \"#utility.yul\":15168:15174   */\n      dup4\n        /* \"#utility.yul\":15164:15194   */\n      add\n        /* \"#utility.yul\":15217:15220   */\n      dup6\n        /* \"#utility.yul\":15209:15215   */\n      dup2\n        /* \"#utility.yul\":15206:15221   */\n      gt\n        /* \"#utility.yul\":15203:15325   */\n      iszero\n      tag_473\n      jumpi\n        /* \"#utility.yul\":15236:15315   */\n      tag_474\n      tag_280\n      jump\t// in\n    tag_474:\n        /* \"#utility.yul\":15203:15325   */\n    tag_473:\n        /* \"#utility.yul\":15351:15357   */\n      dup4\n        /* \"#utility.yul\":15334:15565   */\n    tag_475:\n        /* \"#utility.yul\":15368:15374   */\n      dup2\n        /* \"#utility.yul\":15363:15366   */\n      dup2\n        /* \"#utility.yul\":15360:15375   */\n      lt\n        /* \"#utility.yul\":15334:15565   */\n      iszero\n      tag_477\n      jumpi\n        /* \"#utility.yul\":15443:15446   */\n      dup1\n        /* \"#utility.yul\":15472:15520   */\n      tag_478\n        /* \"#utility.yul\":15516:15519   */\n      dup9\n        /* \"#utility.yul\":15504:15514   */\n      dup3\n        /* \"#utility.yul\":15472:15520   */\n      tag_286\n      jump\t// in\n    tag_478:\n        /* \"#utility.yul\":15467:15470   */\n      dup5\n        /* \"#utility.yul\":15460:15521   */\n      mstore\n        /* \"#utility.yul\":15550:15554   */\n      0x20\n        /* \"#utility.yul\":15545:15548   */\n      dup5\n        /* \"#utility.yul\":15541:15555   */\n      add\n        /* \"#utility.yul\":15534:15555   */\n      swap4\n      pop\n        /* \"#utility.yul\":15410:15565   */\n      pop\n        /* \"#utility.yul\":15394:15398   */\n      0x20\n        /* \"#utility.yul\":15389:15392   */\n      dup2\n        /* \"#utility.yul\":15385:15399   */\n      add\n        /* \"#utility.yul\":15378:15399   */\n      swap1\n      pop\n        /* \"#utility.yul\":15334:15565   */\n      jump(tag_475)\n    tag_477:\n        /* \"#utility.yul\":15338:15359   */\n      pop\n        /* \"#utility.yul\":14952:15571   */\n      pop\n      pop\n        /* \"#utility.yul\":14839:15571   */\n      swap4\n      swap3\n      pop\n      pop\n      pop\n      jump\t// out\n        /* \"#utility.yul\":15594:15979   */\n    tag_290:\n        /* \"#utility.yul\":15676:15681   */\n      0x00\n        /* \"#utility.yul\":15725:15728   */\n      dup3\n        /* \"#utility.yul\":15718:15722   */\n      0x1f\n        /* \"#utility.yul\":15710:15716   */\n      dup4\n        /* \"#utility.yul\":15706:15723   */\n      add\n        /* \"#utility.yul\":15702:15729   */\n      slt\n        /* \"#utility.yul\":15692:15814   */\n      tag_480\n      jumpi\n        /* \"#utility.yul\":15733:15812   */\n      tag_481\n      tag_259\n      jump\t// in\n    tag_481:\n        /* \"#utility.yul\":15692:15814   */\n    tag_480:\n        /* \"#utility.yul\":15843:15849   */\n      dup2\n        /* \"#utility.yul\":15837:15850   */\n      mload\n        /* \"#utility.yul\":15868:15973   */\n      tag_482\n        /* \"#utility.yul\":15969:15972   */\n      dup5\n        /* \"#utility.yul\":15961:15967   */\n      dup3\n        /* \"#utility.yul\":15954:15958   */\n      0x20\n        /* \"#utility.yul\":15946:15952   */\n      dup7\n        /* \"#utility.yul\":15942:15959   */\n      add\n        /* \"#utility.yul\":15868:15973   */\n      tag_289\n      jump\t// in\n    tag_482:\n        /* \"#utility.yul\":15859:15973   */\n      swap2\n      pop\n        /* \"#utility.yul\":15682:15979   */\n      pop\n        /* \"#utility.yul\":15594:15979   */\n      swap3\n      swap2\n      pop\n      pop\n      jump\t// out\n        /* \"#utility.yul\":15985:16539   */\n    tag_143:\n        /* \"#utility.yul\":16080:16086   */\n      0x00\n        /* \"#utility.yul\":16129:16131   */\n      0x20\n        /* \"#utility.yul\":16117:16126   */\n      dup3\n        /* \"#utility.yul\":16108:16115   */\n      dup5\n        /* \"#utility.yul\":16104:16127   */\n      sub\n        /* \"#utility.yul\":16100:16132   */\n      slt\n        /* \"#utility.yul\":16097:16216   */\n      iszero\n      tag_484\n      jumpi\n        /* \"#utility.yul\":16135:16214   */\n      tag_485\n      tag_250\n      jump\t// in\n    tag_485:\n        /* \"#utility.yul\":16097:16216   */\n    tag_484:\n        /* \"#utility.yul\":16276:16277   */\n      0x00\n        /* \"#utility.yul\":16265:16274   */\n      dup3\n        /* \"#utility.yul\":16261:16278   */\n      add\n        /* \"#utility.yul\":16255:16279   */\n      mload\n        /* \"#utility.yul\":16306:16324   */\n      0xffffffffffffffff\n        /* \"#utility.yul\":16298:16304   */\n      dup2\n        /* \"#utility.yul\":16295:16325   */\n      gt\n        /* \"#utility.yul\":16292:16409   */\n      iszero\n      tag_486\n      jumpi\n        /* \"#utility.yul\":16328:16407   */\n      tag_487\n      tag_251\n      jump\t// in\n    tag_487:\n        /* \"#utility.yul\":16292:16409   */\n    tag_486:\n        /* \"#utility.yul\":16433:16522   */\n      tag_488\n        /* \"#utility.yul\":16514:16521   */\n      dup5\n        /* \"#utility.yul\":16505:16511   */\n      dup3\n        /* \"#utility.yul\":16494:16503   */\n      dup6\n        /* \"#utility.yul\":16490:16512   */\n      add\n        /* \"#utility.yul\":16433:16522   */\n      tag_290\n      jump\t// in\n    tag_488:\n        /* \"#utility.yul\":16423:16522   */\n      swap2\n      pop\n        /* \"#utility.yul\":16226:16532   */\n      pop\n        /* \"#utility.yul\":15985:16539   */\n      swap3\n      swap2\n      pop\n      pop\n      jump\t// out\n        /* \"#utility.yul\":16545:16725   */\n    tag_156:\n        /* \"#utility.yul\":16593:16670   */\n      0x4e487b7100000000000000000000000000000000000000000000000000000000\n        /* \"#utility.yul\":16590:16591   */\n      0x00\n        /* \"#utility.yul\":16583:16671   */\n      mstore\n        /* \"#utility.yul\":16690:16694   */\n      0x32\n        /* \"#utility.yul\":16687:16688   */\n      0x04\n        /* \"#utility.yul\":16680:16695   */\n      mstore\n        /* \"#utility.yul\":16714:16718   */\n      0x24\n        /* \"#utility.yul\":16711:16712   */\n      0x00\n        /* \"#utility.yul\":16704:16719   */\n      revert\n        /* \"#utility.yul\":16731:17173   */\n    tag_158:\n        /* \"#utility.yul\":16880:16884   */\n      0x00\n        /* \"#utility.yul\":16918:16920   */\n      0x60\n        /* \"#utility.yul\":16907:16916   */\n      dup3\n        /* \"#utility.yul\":16903:16921   */\n      add\n        /* \"#utility.yul\":16895:16921   */\n      swap1\n      pop\n        /* \"#utility.yul\":16931:17002   */\n      tag_491\n        /* \"#utility.yul\":16999:17000   */\n      0x00\n        /* \"#utility.yul\":16988:16997   */\n      dup4\n        /* \"#utility.yul\":16984:17001   */\n      add\n        /* \"#utility.yul\":16975:16981   */\n      dup7\n        /* \"#utility.yul\":16931:17002   */\n      tag_282\n      jump\t// in\n    tag_491:\n        /* \"#utility.yul\":17012:17084   */\n      tag_492\n        /* \"#utility.yul\":17080:17082   */\n      0x20\n        /* \"#utility.yul\":17069:17078   */\n      dup4\n        /* \"#utility.yul\":17065:17083   */\n      add\n        /* \"#utility.yul\":17056:17062   */\n      dup6\n        /* \"#utility.yul\":17012:17084   */\n      tag_282\n      jump\t// in\n    tag_492:\n        /* \"#utility.yul\":17094:17166   */\n      tag_493\n        /* \"#utility.yul\":17162:17164   */\n      0x40\n        /* \"#utility.yul\":17151:17160   */\n      dup4\n        /* \"#utility.yul\":17147:17165   */\n      add\n        /* \"#utility.yul\":17138:17144   */\n      dup5\n        /* \"#utility.yul\":17094:17166   */\n      tag_271\n      jump\t// in\n    tag_493:\n        /* \"#utility.yul\":16731:17173   */\n      swap5\n      swap4\n      pop\n      pop\n      pop\n      pop\n      jump\t// out\n        /* \"#utility.yul\":17179:17326   */\n    tag_291:\n        /* \"#utility.yul\":17280:17291   */\n      0x00\n        /* \"#utility.yul\":17317:17320   */\n      dup2\n        /* \"#utility.yul\":17302:17320   */\n      swap1\n      pop\n        /* \"#utility.yul\":17179:17326   */\n      swap3\n      swap2\n      pop\n      pop\n      jump\t// out\n        /* \"#utility.yul\":17354:17681   */\n    tag_292:\n        /* \"#utility.yul\":17468:17471   */\n      0x00\n        /* \"#utility.yul\":17489:17577   */\n      tag_496\n        /* \"#utility.yul\":17570:17576   */\n      dup4\n        /* \"#utility.yul\":17565:17568   */\n      dup6\n        /* \"#utility.yul\":17489:17577   */\n      tag_291\n      jump\t// in\n    tag_496:\n        /* \"#utility.yul\":17482:17577   */\n      swap4\n      pop\n        /* \"#utility.yul\":17587:17643   */\n      tag_497\n        /* \"#utility.yul\":17636:17642   */\n      dup4\n        /* \"#utility.yul\":17631:17634   */\n      dup6\n        /* \"#utility.yul\":17624:17629   */\n      dup5\n        /* \"#utility.yul\":17587:17643   */\n      tag_266\n      jump\t// in\n    tag_497:\n        /* \"#utility.yul\":17668:17674   */\n      dup3\n        /* \"#utility.yul\":17663:17666   */\n      dup5\n        /* \"#utility.yul\":17659:17675   */\n      add\n        /* \"#utility.yul\":17652:17675   */\n      swap1\n      pop\n        /* \"#utility.yul\":17354:17681   */\n      swap4\n      swap3\n      pop\n      pop\n      pop\n      jump\t// out\n        /* \"#utility.yul\":17687:17978   */\n    tag_169:\n        /* \"#utility.yul\":17827:17830   */\n      0x00\n        /* \"#utility.yul\":17849:17952   */\n      tag_499\n        /* \"#utility.yul\":17948:17951   */\n      dup3\n        /* \"#utility.yul\":17939:17945   */\n      dup5\n        /* \"#utility.yul\":17931:17937   */\n      dup7\n        /* \"#utility.yul\":17849:17952   */\n      tag_292\n      jump\t// in\n    tag_499:\n        /* \"#utility.yul\":17842:17952   */\n      swap2\n      pop\n        /* \"#utility.yul\":17969:17972   */\n      dup2\n        /* \"#utility.yul\":17962:17972   */\n      swap1\n      pop\n        /* \"#utility.yul\":17687:17978   */\n      swap4\n      swap3\n      pop\n      pop\n      pop\n      jump\t// out\n        /* \"#utility.yul\":17984:18127   */\n    tag_293:\n        /* \"#utility.yul\":18041:18046   */\n      0x00\n        /* \"#utility.yul\":18072:18078   */\n      dup2\n        /* \"#utility.yul\":18066:18079   */\n      mload\n        /* \"#utility.yul\":18057:18079   */\n      swap1\n      pop\n        /* \"#utility.yul\":18088:18121   */\n      tag_501\n        /* \"#utility.yul\":18115:18120   */\n      dup2\n        /* \"#utility.yul\":18088:18121   */\n      tag_254\n      jump\t// in\n    tag_501:\n        /* \"#utility.yul\":17984:18127   */\n      swap3\n      swap2\n      pop\n      pop\n      jump\t// out\n        /* \"#utility.yul\":18133:18484   */\n    tag_192:\n        /* \"#utility.yul\":18203:18209   */\n      0x00\n        /* \"#utility.yul\":18252:18254   */\n      0x20\n        /* \"#utility.yul\":18240:18249   */\n      dup3\n        /* \"#utility.yul\":18231:18238   */\n      dup5\n        /* \"#utility.yul\":18227:18250   */\n      sub\n        /* \"#utility.yul\":18223:18255   */\n      slt\n        /* \"#utility.yul\":18220:18339   */\n      iszero\n      tag_503\n      jumpi\n        /* \"#utility.yul\":18258:18337   */\n      tag_504\n      tag_250\n      jump\t// in\n    tag_504:\n        /* \"#utility.yul\":18220:18339   */\n    tag_503:\n        /* \"#utility.yul\":18378:18379   */\n      0x00\n        /* \"#utility.yul\":18403:18467   */\n      tag_505\n        /* \"#utility.yul\":18459:18466   */\n      dup5\n        /* \"#utility.yul\":18450:18456   */\n      dup3\n        /* \"#utility.yul\":18439:18448   */\n      dup6\n        /* \"#utility.yul\":18435:18457   */\n      add\n        /* \"#utility.yul\":18403:18467   */\n      tag_293\n      jump\t// in\n    tag_505:\n        /* \"#utility.yul\":18393:18467   */\n      swap2\n      pop\n        /* \"#utility.yul\":18349:18477   */\n      pop\n        /* \"#utility.yul\":18133:18484   */\n      swap3\n      swap2\n      pop\n      pop\n      jump\t// out\n        /* \"#utility.yul\":18490:18607   */\n    tag_294:\n        /* \"#utility.yul\":18599:18600   */\n      0x00\n        /* \"#utility.yul\":18596:18597   */\n      dup1\n        /* \"#utility.yul\":18589:18601   */\n      revert\n        /* \"#utility.yul\":18613:18711   */\n    tag_295:\n        /* \"#utility.yul\":18697:18703   */\n      dup3\n        /* \"#utility.yul\":18692:18695   */\n      dup2\n        /* \"#utility.yul\":18687:18690   */\n      dup4\n        /* \"#utility.yul\":18674:18704   */\n      calldatacopy\n        /* \"#utility.yul\":18613:18711   */\n      pop\n      pop\n      pop\n      jump\t// out\n        /* \"#utility.yul\":18747:19284   */\n    tag_296:\n        /* \"#utility.yul\":18875:18878   */\n      0x00\n        /* \"#utility.yul\":18896:18982   */\n      tag_509\n        /* \"#utility.yul\":18975:18981   */\n      dup4\n        /* \"#utility.yul\":18970:18973   */\n      dup6\n        /* \"#utility.yul\":18896:18982   */\n      tag_273\n      jump\t// in\n    tag_509:\n        /* \"#utility.yul\":18889:18982   */\n      swap4\n      pop\n        /* \"#utility.yul\":19006:19072   */\n      0x07ffffffffffffffffffffffffffffffffffffffffffffffffffffffffffffff\n        /* \"#utility.yul\":18998:19004   */\n      dup4\n        /* \"#utility.yul\":18995:19073   */\n      gt\n        /* \"#utility.yul\":18992:19157   */\n      iszero\n      tag_510\n      jumpi\n        /* \"#utility.yul\":19076:19155   */\n      tag_511\n      tag_294\n      jump\t// in\n    tag_511:\n        /* \"#utility.yul\":18992:19157   */\n    tag_510:\n        /* \"#utility.yul\":19188:19192   */\n      0x20\n        /* \"#utility.yul\":19180:19186   */\n      dup4\n        /* \"#utility.yul\":19176:19193   */\n      mul\n        /* \"#utility.yul\":19166:19193   */\n      swap3\n      pop\n        /* \"#utility.yul\":19203:19246   */\n      tag_512\n        /* \"#utility.yul\":19239:19245   */\n      dup4\n        /* \"#utility.yul\":19234:19237   */\n      dup6\n        /* \"#utility.yul\":19227:19232   */\n      dup5\n        /* \"#utility.yul\":19203:19246   */\n      tag_295\n      jump\t// in\n    tag_512:\n        /* \"#utility.yul\":19271:19277   */\n      dup3\n        /* \"#utility.yul\":19266:19269   */\n      dup5\n        /* \"#utility.yul\":19262:19278   */\n      add\n        /* \"#utility.yul\":19255:19278   */\n      swap1\n      pop\n        /* \"#utility.yul\":18747:19284   */\n      swap4\n      swap3\n      pop\n      pop\n      pop\n      jump\t// out\n        /* \"#utility.yul\":19290:19793   */\n    tag_197:\n        /* \"#utility.yul\":19471:19475   */\n      0x00\n        /* \"#utility.yul\":19509:19511   */\n      0x40\n        /* \"#utility.yul\":19498:19507   */\n      dup3\n        /* \"#utility.yul\":19494:19512   */\n      add\n        /* \"#utility.yul\":19486:19512   */\n      swap1\n      pop\n        /* \"#utility.yul\":19522:19593   */\n      tag_514\n        /* \"#utility.yul\":19590:19591   */\n      0x00\n        /* \"#utility.yul\":19579:19588   */\n      dup4\n        /* \"#utility.yul\":19575:19592   */\n      add\n        /* \"#utility.yul\":19566:19572   */\n      dup7\n        /* \"#utility.yul\":19522:19593   */\n      tag_282\n      jump\t// in\n    tag_514:\n        /* \"#utility.yul\":19640:19649   */\n      dup2\n        /* \"#utility.yul\":19634:19638   */\n      dup2\n        /* \"#utility.yul\":19630:19650   */\n      sub\n        /* \"#utility.yul\":19625:19627   */\n      0x20\n        /* \"#utility.yul\":19614:19623   */\n      dup4\n        /* \"#utility.yul\":19610:19628   */\n      add\n        /* \"#utility.yul\":19603:19651   */\n      mstore\n        /* \"#utility.yul\":19668:19786   */\n      tag_515\n        /* \"#utility.yul\":19781:19785   */\n      dup2\n        /* \"#utility.yul\":19772:19778   */\n      dup5\n        /* \"#utility.yul\":19764:19770   */\n      dup7\n        /* \"#utility.yul\":19668:19786   */\n      tag_296\n      jump\t// in\n    tag_515:\n        /* \"#utility.yul\":19660:19786   */\n      swap1\n      pop\n        /* \"#utility.yul\":19290:19793   */\n      swap5\n      swap4\n      pop\n      pop\n      pop\n      pop\n      jump\t// out\n        /* \"#utility.yul\":19799:19968   */\n    tag_297:\n        /* \"#utility.yul\":19883:19894   */\n      0x00\n        /* \"#utility.yul\":19917:19923   */\n      dup3\n        /* \"#utility.yul\":19912:19915   */\n      dup3\n        /* \"#utility.yul\":19905:19924   */\n      mstore\n        /* \"#utility.yul\":19957:19961   */\n      0x20\n        /* \"#utility.yul\":19952:19955   */\n      dup3\n        /* \"#utility.yul\":19948:19962   */\n      add\n        /* \"#utility.yul\":19933:19962   */\n      swap1\n      pop\n        /* \"#utility.yul\":19799:19968   */\n      swap3\n      swap2\n      pop\n      pop\n      jump\t// out\n        /* \"#utility.yul\":19974:20199   */\n    tag_298:\n        /* \"#utility.yul\":20114:20148   */\n      0x4f776e61626c653a206e6577206f776e657220697320746865207a65726f2061\n        /* \"#utility.yul\":20110:20111   */\n      0x00\n        /* \"#utility.yul\":20102:20108   */\n      dup3\n        /* \"#utility.yul\":20098:20112   */\n      add\n        /* \"#utility.yul\":20091:20149   */\n      mstore\n        /* \"#utility.yul\":20183:20191   */\n      0x6464726573730000000000000000000000000000000000000000000000000000\n        /* \"#utility.yul\":20178:20180   */\n      0x20\n        /* \"#utility.yul\":20170:20176   */\n      dup3\n        /* \"#utility.yul\":20166:20181   */\n      add\n        /* \"#utility.yul\":20159:20192   */\n      mstore\n        /* \"#utility.yul\":19974:20199   */\n      pop\n      jump\t// out\n        /* \"#utility.yul\":20205:20571   */\n    tag_299:\n        /* \"#utility.yul\":20347:20350   */\n      0x00\n        /* \"#utility.yul\":20368:20435   */\n      tag_519\n        /* \"#utility.yul\":20432:20434   */\n      0x26\n        /* \"#utility.yul\":20427:20430   */\n      dup4\n        /* \"#utility.yul\":20368:20435   */\n      tag_297\n      jump\t// in\n    tag_519:\n        /* \"#utility.yul\":20361:20435   */\n      swap2\n      pop\n        /* \"#utility.yul\":20444:20537   */\n      tag_520\n        /* \"#utility.yul\":20533:20536   */\n      dup3\n        /* \"#utility.yul\":20444:20537   */\n      tag_298\n      jump\t// in\n    tag_520:\n        /* \"#utility.yul\":20562:20564   */\n      0x40\n        /* \"#utility.yul\":20557:20560   */\n      dup3\n        /* \"#utility.yul\":20553:20565   */\n      add\n        /* \"#utility.yul\":20546:20565   */\n      swap1\n      pop\n        /* \"#utility.yul\":20205:20571   */\n      swap2\n      swap1\n      pop\n      jump\t// out\n        /* \"#utility.yul\":20577:20996   */\n    tag_220:\n        /* \"#utility.yul\":20743:20747   */\n      0x00\n        /* \"#utility.yul\":20781:20783   */\n      0x20\n        /* \"#utility.yul\":20770:20779   */\n      dup3\n        /* \"#utility.yul\":20766:20784   */\n      add\n        /* \"#utility.yul\":20758:20784   */\n      swap1\n      pop\n        /* \"#utility.yul\":20830:20839   */\n      dup2\n        /* \"#utility.yul\":20824:20828   */\n      dup2\n        /* \"#utility.yul\":20820:20840   */\n      sub\n        /* \"#utility.yul\":20816:20817   */\n      0x00\n        /* \"#utility.yul\":20805:20814   */\n      dup4\n        /* \"#utility.yul\":20801:20818   */\n      add\n        /* \"#utility.yul\":20794:20841   */\n      mstore\n        /* \"#utility.yul\":20858:20989   */\n      tag_522\n        /* \"#utility.yul\":20984:20988   */\n      dup2\n        /* \"#utility.yul\":20858:20989   */\n      tag_299\n      jump\t// in\n    tag_522:\n        /* \"#utility.yul\":20850:20989   */\n      swap1\n      pop\n        /* \"#utility.yul\":20577:20996   */\n      swap2\n      swap1\n      pop\n      jump\t// out\n        /* \"#utility.yul\":21002:21182   */\n    tag_300:\n        /* \"#utility.yul\":21050:21127   */\n      0x4e487b7100000000000000000000000000000000000000000000000000000000\n        /* \"#utility.yul\":21047:21048   */\n      0x00\n        /* \"#utility.yul\":21040:21128   */\n      mstore\n        /* \"#utility.yul\":21147:21151   */\n      0x12\n        /* \"#utility.yul\":21144:21145   */\n      0x04\n        /* \"#utility.yul\":21137:21152   */\n      mstore\n        /* \"#utility.yul\":21171:21175   */\n      0x24\n        /* \"#utility.yul\":21168:21169   */\n      0x00\n        /* \"#utility.yul\":21161:21176   */\n      revert\n        /* \"#utility.yul\":21188:21373   */\n    tag_224:\n        /* \"#utility.yul\":21228:21229   */\n      0x00\n        /* \"#utility.yul\":21245:21265   */\n      tag_525\n        /* \"#utility.yul\":21263:21264   */\n      dup3\n        /* \"#utility.yul\":21245:21265   */\n      tag_256\n      jump\t// in\n    tag_525:\n        /* \"#utility.yul\":21240:21265   */\n      swap2\n      pop\n        /* \"#utility.yul\":21279:21299   */\n      tag_526\n        /* \"#utility.yul\":21297:21298   */\n      dup4\n        /* \"#utility.yul\":21279:21299   */\n      tag_256\n      jump\t// in\n    tag_526:\n        /* \"#utility.yul\":21274:21299   */\n      swap3\n      pop\n        /* \"#utility.yul\":21318:21319   */\n      dup3\n        /* \"#utility.yul\":21308:21343   */\n      tag_527\n      jumpi\n        /* \"#utility.yul\":21323:21341   */\n      tag_528\n      tag_300\n      jump\t// in\n    tag_528:\n        /* \"#utility.yul\":21308:21343   */\n    tag_527:\n        /* \"#utility.yul\":21365:21366   */\n      dup3\n        /* \"#utility.yul\":21362:21363   */\n      dup3\n        /* \"#utility.yul\":21358:21367   */\n      div\n        /* \"#utility.yul\":21353:21367   */\n      swap1\n      pop\n        /* \"#utility.yul\":21188:21373   */\n      swap3\n      swap2\n      pop\n      pop\n      jump\t// out\n        /* \"#utility.yul\":21379:21547   */\n    tag_301:\n        /* \"#utility.yul\":21462:21473   */\n      0x00\n        /* \"#utility.yul\":21496:21502   */\n      dup3\n        /* \"#utility.yul\":21491:21494   */\n      dup3\n        /* \"#utility.yul\":21484:21503   */\n      mstore\n        /* \"#utility.yul\":21536:21540   */\n      0x20\n        /* \"#utility.yul\":21531:21534   */\n      dup3\n        /* \"#utility.yul\":21527:21541   */\n      add\n        /* \"#utility.yul\":21512:21541   */\n      swap1\n      pop\n        /* \"#utility.yul\":21379:21547   */\n      swap3\n      swap2\n      pop\n      pop\n      jump\t// out\n        /* \"#utility.yul\":21575:21889   */\n    tag_302:\n        /* \"#utility.yul\":21671:21674   */\n      0x00\n        /* \"#utility.yul\":21692:21762   */\n      tag_531\n        /* \"#utility.yul\":21755:21761   */\n      dup4\n        /* \"#utility.yul\":21750:21753   */\n      dup6\n        /* \"#utility.yul\":21692:21762   */\n      tag_301\n      jump\t// in\n    tag_531:\n        /* \"#utility.yul\":21685:21762   */\n      swap4\n      pop\n        /* \"#utility.yul\":21772:21828   */\n      tag_532\n        /* \"#utility.yul\":21821:21827   */\n      dup4\n        /* \"#utility.yul\":21816:21819   */\n      dup6\n        /* \"#utility.yul\":21809:21814   */\n      dup5\n        /* \"#utility.yul\":21772:21828   */\n      tag_266\n      jump\t// in\n    tag_532:\n        /* \"#utility.yul\":21853:21882   */\n      tag_533\n        /* \"#utility.yul\":21875:21881   */\n      dup4\n        /* \"#utility.yul\":21853:21882   */\n      tag_261\n      jump\t// in\n    tag_533:\n        /* \"#utility.yul\":21848:21851   */\n      dup5\n        /* \"#utility.yul\":21844:21883   */\n      add\n        /* \"#utility.yul\":21837:21883   */\n      swap1\n      pop\n        /* \"#utility.yul\":21575:21889   */\n      swap4\n      swap3\n      pop\n      pop\n      pop\n      jump\t// out\n        /* \"#utility.yul\":21895:22334   */\n    tag_229:\n        /* \"#utility.yul\":22044:22048   */\n      0x00\n        /* \"#utility.yul\":22082:22084   */\n      0x40\n        /* \"#utility.yul\":22071:22080   */\n      dup3\n        /* \"#utility.yul\":22067:22085   */\n      add\n        /* \"#utility.yul\":22059:22085   */\n      swap1\n      pop\n        /* \"#utility.yul\":22095:22166   */\n      tag_535\n        /* \"#utility.yul\":22163:22164   */\n      0x00\n        /* \"#utility.yul\":22152:22161   */\n      dup4\n        /* \"#utility.yul\":22148:22165   */\n      add\n        /* \"#utility.yul\":22139:22145   */\n      dup7\n        /* \"#utility.yul\":22095:22166   */\n      tag_282\n      jump\t// in\n    tag_535:\n        /* \"#utility.yul\":22213:22222   */\n      dup2\n        /* \"#utility.yul\":22207:22211   */\n      dup2\n        /* \"#utility.yul\":22203:22223   */\n      sub\n        /* \"#utility.yul\":22198:22200   */\n      0x20\n        /* \"#utility.yul\":22187:22196   */\n      dup4\n        /* \"#utility.yul\":22183:22201   */\n      add\n        /* \"#utility.yul\":22176:22224   */\n      mstore\n        /* \"#utility.yul\":22241:22327   */\n      tag_536\n        /* \"#utility.yul\":22322:22326   */\n      dup2\n        /* \"#utility.yul\":22313:22319   */\n      dup5\n        /* \"#utility.yul\":22305:22311   */\n      dup7\n        /* \"#utility.yul\":22241:22327   */\n      tag_302\n      jump\t// in\n    tag_536:\n        /* \"#utility.yul\":22233:22327   */\n      swap1\n      pop\n        /* \"#utility.yul\":21895:22334   */\n      swap5\n      swap4\n      pop\n      pop\n      pop\n      pop\n      jump\t// out\n        /* \"#utility.yul\":22340:22522   */\n    tag_303:\n        /* \"#utility.yul\":22480:22514   */\n      0x4f776e61626c653a2063616c6c6572206973206e6f7420746865206f776e6572\n        /* \"#utility.yul\":22476:22477   */\n      0x00\n        /* \"#utility.yul\":22468:22474   */\n      dup3\n        /* \"#utility.yul\":22464:22478   */\n      add\n        /* \"#utility.yul\":22457:22515   */\n      mstore\n        /* \"#utility.yul\":22340:22522   */\n      pop\n      jump\t// out\n        /* \"#utility.yul\":22528:22894   */\n    tag_304:\n        /* \"#utility.yul\":22670:22673   */\n      0x00\n        /* \"#utility.yul\":22691:22758   */\n      tag_539\n        /* \"#utility.yul\":22755:22757   */\n      0x20\n        /* \"#utility.yul\":22750:22753   */\n      dup4\n        /* \"#utility.yul\":22691:22758   */\n      tag_297\n      jump\t// in\n    tag_539:\n        /* \"#utility.yul\":22684:22758   */\n      swap2\n      pop\n        /* \"#utility.yul\":22767:22860   */\n      tag_540\n        /* \"#utility.yul\":22856:22859   */\n      dup3\n        /* \"#utility.yul\":22767:22860   */\n      tag_303\n      jump\t// in\n    tag_540:\n        /* \"#utility.yul\":22885:22887   */\n      0x20\n        /* \"#utility.yul\":22880:22883   */\n      dup3\n        /* \"#utility.yul\":22876:22888   */\n      add\n        /* \"#utility.yul\":22869:22888   */\n      swap1\n      pop\n        /* \"#utility.yul\":22528:22894   */\n      swap2\n      swap1\n      pop\n      jump\t// out\n        /* \"#utility.yul\":22900:23319   */\n    tag_240:\n        /* \"#utility.yul\":23066:23070   */\n      0x00\n        /* \"#utility.yul\":23104:23106   */\n      0x20\n        /* \"#utility.yul\":23093:23102   */\n      dup3\n        /* \"#utility.yul\":23089:23107   */\n      add\n        /* \"#utility.yul\":23081:23107   */\n      swap1\n      pop\n        /* \"#utility.yul\":23153:23162   */\n      dup2\n        /* \"#utility.yul\":23147:23151   */\n      dup2\n        /* \"#utility.yul\":23143:23163   */\n      sub\n        /* \"#utility.yul\":23139:23140   */\n      0x00\n        /* \"#utility.yul\":23128:23137   */\n      dup4\n        /* \"#utility.yul\":23124:23141   */\n      add\n        /* \"#utility.yul\":23117:23164   */\n      mstore\n        /* \"#utility.yul\":23181:23312   */\n      tag_542\n        /* \"#utility.yul\":23307:23311   */\n      dup2\n        /* \"#utility.yul\":23181:23312   */\n      tag_304\n      jump\t// in\n    tag_542:\n        /* \"#utility.yul\":23173:23312   */\n      swap1\n      pop\n        /* \"#utility.yul\":22900:23319   */\n      swap2\n      swap1\n      pop\n      jump\t// out\n        /* \"#utility.yul\":23325:23423   */\n    tag_305:\n        /* \"#utility.yul\":23376:23382   */\n      0x00\n        /* \"#utility.yul\":23410:23415   */\n      dup2\n        /* \"#utility.yul\":23404:23416   */\n      mload\n        /* \"#utility.yul\":23394:23416   */\n      swap1\n      pop\n        /* \"#utility.yul\":23325:23423   */\n      swap2\n      swap1\n      pop\n      jump\t// out\n        /* \"#utility.yul\":23429:23675   */\n    tag_306:\n        /* \"#utility.yul\":23510:23511   */\n      0x00\n        /* \"#utility.yul\":23520:23633   */\n    tag_545:\n        /* \"#utility.yul\":23534:23540   */\n      dup4\n        /* \"#utility.yul\":23531:23532   */\n      dup2\n        /* \"#utility.yul\":23528:23541   */\n      lt\n        /* \"#utility.yul\":23520:23633   */\n      iszero\n      tag_547\n      jumpi\n        /* \"#utility.yul\":23619:23620   */\n      dup1\n        /* \"#utility.yul\":23614:23617   */\n      dup3\n        /* \"#utility.yul\":23610:23621   */\n      add\n        /* \"#utility.yul\":23604:23622   */\n      mload\n        /* \"#utility.yul\":23600:23601   */\n      dup2\n        /* \"#utility.yul\":23595:23598   */\n      dup5\n        /* \"#utility.yul\":23591:23602   */\n      add\n        /* \"#utility.yul\":23584:23623   */\n      mstore\n        /* \"#utility.yul\":23556:23558   */\n      0x20\n        /* \"#utility.yul\":23553:23554   */\n      dup2\n        /* \"#utility.yul\":23549:23559   */\n      add\n        /* \"#utility.yul\":23544:23559   */\n      swap1\n      pop\n        /* \"#utility.yul\":23520:23633   */\n      jump(tag_545)\n    tag_547:\n        /* \"#utility.yul\":23667:23668   */\n      0x00\n        /* \"#utility.yul\":23658:23664   */\n      dup5\n        /* \"#utility.yul\":23653:23656   */\n      dup5\n        /* \"#utility.yul\":23649:23665   */\n      add\n        /* \"#utility.yul\":23642:23669   */\n      mstore\n        /* \"#utility.yul\":23491:23675   */\n      pop\n        /* \"#utility.yul\":23429:23675   */\n      pop\n      pop\n      pop\n      jump\t// out\n        /* \"#utility.yul\":23681:24067   */\n    tag_307:\n        /* \"#utility.yul\":23785:23788   */\n      0x00\n        /* \"#utility.yul\":23813:23851   */\n      tag_549\n        /* \"#utility.yul\":23845:23850   */\n      dup3\n        /* \"#utility.yul\":23813:23851   */\n      tag_305\n      jump\t// in\n    tag_549:\n        /* \"#utility.yul\":23867:23955   */\n      tag_550\n        /* \"#utility.yul\":23948:23954   */\n      dup2\n        /* \"#utility.yul\":23943:23946   */\n      dup6\n        /* \"#utility.yul\":23867:23955   */\n      tag_291\n      jump\t// in\n    tag_550:\n        /* \"#utility.yul\":23860:23955   */\n      swap4\n      pop\n        /* \"#utility.yul\":23964:24029   */\n      tag_551\n        /* \"#utility.yul\":24022:24028   */\n      dup2\n        /* \"#utility.yul\":24017:24020   */\n      dup6\n        /* \"#utility.yul\":24010:24014   */\n      0x20\n        /* \"#utility.yul\":24003:24008   */\n      dup7\n        /* \"#utility.yul\":23999:24015   */\n      add\n        /* \"#utility.yul\":23964:24029   */\n      tag_306\n      jump\t// in\n    tag_551:\n        /* \"#utility.yul\":24054:24060   */\n      dup1\n        /* \"#utility.yul\":24049:24052   */\n      dup5\n        /* \"#utility.yul\":24045:24061   */\n      add\n        /* \"#utility.yul\":24038:24061   */\n      swap2\n      pop\n        /* \"#utility.yul\":23789:24067   */\n      pop\n        /* \"#utility.yul\":23681:24067   */\n      swap3\n      swap2\n      pop\n      pop\n      jump\t// out\n        /* \"#utility.yul\":24073:24500   */\n    tag_247:\n        /* \"#utility.yul\":24249:24252   */\n      0x00\n        /* \"#utility.yul\":24271:24364   */\n      tag_553\n        /* \"#utility.yul\":24360:24363   */\n      dup3\n        /* \"#utility.yul\":24351:24357   */\n      dup6\n        /* \"#utility.yul\":24271:24364   */\n      tag_307\n      jump\t// in\n    tag_553:\n        /* \"#utility.yul\":24264:24364   */\n      swap2\n      pop\n        /* \"#utility.yul\":24381:24474   */\n      tag_554\n        /* \"#utility.yul\":24470:24473   */\n      dup3\n        /* \"#utility.yul\":24461:24467   */\n      dup5\n        /* \"#utility.yul\":24381:24474   */\n      tag_307\n      jump\t// in\n    tag_554:\n        /* \"#utility.yul\":24374:24474   */\n      swap2\n      pop\n        /* \"#utility.yul\":24491:24494   */\n      dup2\n        /* \"#utility.yul\":24484:24494   */\n      swap1\n      pop\n        /* \"#utility.yul\":24073:24500   */\n      swap4\n      swap3\n      pop\n      pop\n      pop\n      jump\t// out\n    stop\n\n    sub_0: assembly {\n            /* \"Perfect.sol\":239:1861  contract NftMinter is IERC721Receiver{... */\n          mstore(0x40, 0x80)\n            /* \"Perfect.sol\":371:430  constructor(address _admin) {... */\n          callvalue\n          dup1\n          iszero\n          tag_1\n          jumpi\n          0x00\n          dup1\n          revert\n        tag_1:\n          pop\n          mload(0x40)\n          sub(codesize, bytecodeSize)\n          dup1\n          bytecodeSize\n          dup4\n          codecopy\n          dup2\n          dup2\n          add\n          0x40\n          mstore\n          dup2\n          add\n          swap1\n          tag_2\n          swap2\n          swap1\n          tag_3\n          jump\t// in\n        tag_2:\n            /* \"Perfect.sol\":417:423  _admin */\n          dup1\n            /* \"Perfect.sol\":409:414  admin */\n          0x00\n          dup1\n            /* \"Perfect.sol\":409:423  admin = _admin */\n          0x0100\n          exp\n          dup2\n          sload\n          dup2\n          0xffffffffffffffffffffffffffffffffffffffff\n          mul\n          not\n          and\n          swap1\n          dup4\n          0xffffffffffffffffffffffffffffffffffffffff\n          and\n          mul\n          or\n          swap1\n          sstore\n          pop\n            /* \"Perfect.sol\":371:430  constructor(address _admin) {... */\n          pop\n            /* \"Perfect.sol\":239:1861  contract NftMinter is IERC721Receiver{... */\n          jump(tag_6)\n            /* \"#utility.yul\":88:205   */\n        tag_8:\n            /* \"#utility.yul\":197:198   */\n          0x00\n            /* \"#utility.yul\":194:195   */\n          dup1\n            /* \"#utility.yul\":187:199   */\n          revert\n            /* \"#utility.yul\":334:460   */\n        tag_10:\n            /* \"#utility.yul\":371:378   */\n          0x00\n            /* \"#utility.yul\":411:453   */\n          0xffffffffffffffffffffffffffffffffffffffff\n            /* \"#utility.yul\":404:409   */\n          dup3\n            /* \"#utility.yul\":400:454   */\n          and\n            /* \"#utility.yul\":389:454   */\n          swap1\n          pop\n            /* \"#utility.yul\":334:460   */\n          swap2\n          swap1\n          pop\n          jump\t// out\n            /* \"#utility.yul\":466:562   */\n        tag_11:\n            /* \"#utility.yul\":503:510   */\n          0x00\n            /* \"#utility.yul\":532:556   */\n          tag_20\n            /* \"#utility.yul\":550:555   */\n          dup3\n            /* \"#utility.yul\":532:556   */\n          tag_10\n          jump\t// in\n        tag_20:\n            /* \"#utility.yul\":521:556   */\n          swap1\n          pop\n            /* \"#utility.yul\":466:562   */\n          swap2\n          swap1\n          pop\n          jump\t// out\n            /* \"#utility.yul\":568:690   */\n        tag_12:\n            /* \"#utility.yul\":641:665   */\n          tag_22\n            /* \"#utility.yul\":659:664   */\n          dup2\n            /* \"#utility.yul\":641:665   */\n          tag_11\n          jump\t// in\n        tag_22:\n            /* \"#utility.yul\":634:639   */\n          dup2\n            /* \"#utility.yul\":631:666   */\n          eq\n            /* \"#utility.yul\":621:684   */\n          tag_23\n          jumpi\n            /* \"#utility.yul\":680:681   */\n          0x00\n            /* \"#utility.yul\":677:678   */\n          dup1\n            /* \"#utility.yul\":670:682   */\n          revert\n            /* \"#utility.yul\":621:684   */\n        tag_23:\n            /* \"#utility.yul\":568:690   */\n          pop\n          jump\t// out\n            /* \"#utility.yul\":696:839   */\n        tag_13:\n            /* \"#utility.yul\":753:758   */\n          0x00\n            /* \"#utility.yul\":784:790   */\n          dup2\n            /* \"#utility.yul\":778:791   */\n          mload\n            /* \"#utility.yul\":769:791   */\n          swap1\n          pop\n            /* \"#utility.yul\":800:833   */\n          tag_25\n            /* \"#utility.yul\":827:832   */\n          dup2\n            /* \"#utility.yul\":800:833   */\n          tag_12\n          jump\t// in\n        tag_25:\n            /* \"#utility.yul\":696:839   */\n          swap3\n          swap2\n          pop\n          pop\n          jump\t// out\n            /* \"#utility.yul\":845:1196   */\n        tag_3:\n            /* \"#utility.yul\":915:921   */\n          0x00\n            /* \"#utility.yul\":964:966   */\n          0x20\n            /* \"#utility.yul\":952:961   */\n          dup3\n            /* \"#utility.yul\":943:950   */\n          dup5\n            /* \"#utility.yul\":939:962   */\n          sub\n            /* \"#utility.yul\":935:967   */\n          slt\n            /* \"#utility.yul\":932:1051   */\n          iszero\n          tag_27\n          jumpi\n            /* \"#utility.yul\":970:1049   */\n          tag_28\n          tag_8\n          jump\t// in\n        tag_28:\n            /* \"#utility.yul\":932:1051   */\n        tag_27:\n            /* \"#utility.yul\":1090:1091   */\n          0x00\n            /* \"#utility.yul\":1115:1179   */\n          tag_29\n            /* \"#utility.yul\":1171:1178   */\n          dup5\n            /* \"#utility.yul\":1162:1168   */\n          dup3\n            /* \"#utility.yul\":1151:1160   */\n          dup6\n            /* \"#utility.yul\":1147:1169   */\n          add\n            /* \"#utility.yul\":1115:1179   */\n          tag_13\n          jump\t// in\n        tag_29:\n            /* \"#utility.yul\":1105:1179   */\n          swap2\n          pop\n            /* \"#utility.yul\":1061:1189   */\n          pop\n            /* \"#utility.yul\":845:1196   */\n          swap3\n          swap2\n          pop\n          pop\n          jump\t// out\n            /* \"Perfect.sol\":239:1861  contract NftMinter is IERC721Receiver{... */\n        tag_6:\n          dataSize(sub_0)\n          dup1\n          dataOffset(sub_0)\n          0x00\n          codecopy\n          0x00\n          return\n        stop\n\n        sub_0: assembly {\n                /* \"Perfect.sol\":239:1861  contract NftMinter is IERC721Receiver{... */\n              mstore(0x40, 0x80)\n              jumpi(tag_1, lt(calldatasize, 0x04))\n              shr(0xe0, calldataload(0x00))\n              dup1\n              0x86aaa506\n              gt\n              tag_9\n              jumpi\n              dup1\n              0x86aaa506\n              eq\n              tag_5\n              jumpi\n              dup1\n              0xb510391f\n              eq\n              tag_6\n              jumpi\n              dup1\n              0xc57a1166\n              eq\n              tag_7\n              jumpi\n              dup1\n              0xf851a440\n              eq\n              tag_8\n              jumpi\n              jump(tag_1)\n            tag_9:\n              dup1\n              0x150b7a02\n              eq\n              tag_2\n              jumpi\n              dup1\n              0x1a695230\n              eq\n              tag_3\n              jumpi\n              dup1\n              0x3e1a037c\n              eq\n              tag_4\n              jumpi\n            tag_1:\n              0x00\n              dup1\n              revert\n                /* \"Perfect.sol\":1462:1726  function onERC721Received(... */\n            tag_2:\n              callvalue\n              dup1\n              iszero\n              tag_10\n              jumpi\n              0x00\n              dup1\n              revert\n            tag_10:\n              pop\n              tag_11\n              0x04\n              dup1\n              calldatasize\n              sub\n              dup2\n              add\n              swap1\n              tag_12\n              swap2\n              swap1\n              tag_13\n              jump\t// in\n            tag_12:\n              tag_14\n              jump\t// in\n            tag_11:\n              mload(0x40)\n              tag_15\n              swap2\n              swap1\n              tag_16\n              jump\t// in\n            tag_15:\n              mload(0x40)\n              dup1\n              swap2\n              sub\n              swap1\n              return\n                /* \"Perfect.sol\":639:966  function transfer(address nft) external {... */\n            tag_3:\n              callvalue\n              dup1\n              iszero\n              tag_17\n              jumpi\n              0x00\n              dup1\n              revert\n            tag_17:\n              pop\n              tag_18\n              0x04\n              dup1\n              calldatasize\n              sub\n              dup2\n              add\n              swap1\n              tag_19\n              swap2\n              swap1\n              tag_20\n              jump\t// in\n            tag_19:\n              tag_21\n              jump\t// in\n            tag_18:\n              stop\n                /* \"Perfect.sol\":970:1265  function RestorebymultipleID(address nft,uint256[] calldata tokenid) external {... */\n            tag_4:\n              callvalue\n              dup1\n              iszero\n              tag_22\n              jumpi\n              0x00\n              dup1\n              revert\n            tag_22:\n              pop\n              tag_23\n              0x04\n              dup1\n              calldatasize\n              sub\n              dup2\n              add\n              swap1\n              tag_24\n              swap2\n              swap1\n              tag_25\n              jump\t// in\n            tag_24:\n              tag_26\n              jump\t// in\n            tag_23:\n              stop\n                /* \"Perfect.sol\":1269:1455  function Restorebysingleid(address nft,uint256 tokenid) external {... */\n            tag_5:\n              callvalue\n              dup1\n              iszero\n              tag_27\n              jumpi\n              0x00\n              dup1\n              revert\n            tag_27:\n              pop\n              tag_28\n              0x04\n              dup1\n              calldatasize\n              sub\n              dup2\n              add\n              swap1\n              tag_29\n              swap2\n              swap1\n              tag_30\n              jump\t// in\n            tag_29:\n              tag_31\n              jump\t// in\n            tag_28:\n              stop\n                /* \"Perfect.sol\":436:630  function mint(... */\n            tag_6:\n              tag_32\n              0x04\n              dup1\n              calldatasize\n              sub\n              dup2\n              add\n              swap1\n              tag_33\n              swap2\n              swap1\n              tag_34\n              jump\t// in\n            tag_33:\n              tag_35\n              jump\t// in\n            tag_32:\n              stop\n                /* \"Perfect.sol\":1732:1854  function tokenIdsByNFT(address nft) external view returns(uint256[] memory){... */\n            tag_7:\n              callvalue\n              dup1\n              iszero\n              tag_36\n              jumpi\n              0x00\n              dup1\n              revert\n            tag_36:\n              pop\n              tag_37\n              0x04\n              dup1\n              calldatasize\n              sub\n              dup2\n              add\n              swap1\n              tag_38\n              swap2\n              swap1\n              tag_20\n              jump\t// in\n            tag_38:\n              tag_39\n              jump\t// in\n            tag_37:\n              mload(0x40)\n              tag_40\n              swap2\n              swap1\n              tag_41\n              jump\t// in\n            tag_40:\n              mload(0x40)\n              dup1\n              swap2\n              sub\n              swap1\n              return\n                /* \"Perfect.sol\":283:303  address public admin */\n            tag_8:\n              callvalue\n              dup1\n              iszero\n              tag_42\n              jumpi\n              0x00\n              dup1\n              revert\n            tag_42:\n              pop\n              tag_43\n              tag_44\n              jump\t// in\n            tag_43:\n              mload(0x40)\n              tag_45\n              swap2\n              swap1\n              tag_46\n              jump\t// in\n            tag_45:\n              mload(0x40)\n              dup1\n              swap2\n              sub\n              swap1\n              return\n                /* \"Perfect.sol\":1462:1726  function onERC721Received(... */\n            tag_14:\n                /* \"Perfect.sol\":1609:1615  bytes4 */\n              0x00\n                /* \"Perfect.sol\":1627:1645  tokenIdsByContract */\n              0x01\n                /* \"Perfect.sol\":1627:1657  tokenIdsByContract[msg.sender] */\n              0x00\n                /* \"Perfect.sol\":1646:1656  msg.sender */\n              caller\n                /* \"Perfect.sol\":1627:1657  tokenIdsByContract[msg.sender] */\n              0xffffffffffffffffffffffffffffffffffffffff\n              and\n              0xffffffffffffffffffffffffffffffffffffffff\n              and\n              dup2\n              mstore\n              0x20\n              add\n              swap1\n              dup2\n              mstore\n              0x20\n              add\n              0x00\n              keccak256\n                /* \"Perfect.sol\":1663:1671  _tokenId */\n              dup4\n                /* \"Perfect.sol\":1627:1672  tokenIdsByContract[msg.sender].push(_tokenId) */\n              swap1\n              dup1\n              0x01\n              dup2\n              sload\n              add\n              dup1\n              dup3\n              sstore\n              dup1\n              swap2\n              pop\n              pop\n              0x01\n              swap1\n              sub\n              swap1\n              0x00\n              mstore\n              keccak256(0x00, 0x20)\n              add\n              0x00\n              swap1\n              swap2\n              swap1\n              swap2\n              swap1\n              swap2\n              pop\n              sstore\n                /* \"Perfect.sol\":1689:1719  this.onERC721Received.selector */\n              shl(0xe0, 0x150b7a02)\n                /* \"Perfect.sol\":1682:1719  return this.onERC721Received.selector */\n              swap1\n              pop\n                /* \"Perfect.sol\":1462:1726  function onERC721Received(... */\n              swap5\n              swap4\n              pop\n              pop\n              pop\n              pop\n              jump\t// out\n                /* \"Perfect.sol\":639:966  function transfer(address nft) external {... */\n            tag_21:\n                /* \"Perfect.sol\":689:715  uint256[] memory _tokenIds */\n              0x00\n                /* \"Perfect.sol\":718:736  tokenIdsByContract */\n              0x01\n                /* \"Perfect.sol\":718:741  tokenIdsByContract[nft] */\n              0x00\n                /* \"Perfect.sol\":737:740  nft */\n              dup4\n                /* \"Perfect.sol\":718:741  tokenIdsByContract[nft] */\n              0xffffffffffffffffffffffffffffffffffffffff\n              and\n              0xffffffffffffffffffffffffffffffffffffffff\n              and\n              dup2\n              mstore\n              0x20\n              add\n              swap1\n              dup2\n              mstore\n              0x20\n              add\n              0x00\n              keccak256\n                /* \"Perfect.sol\":689:741  uint256[] memory _tokenIds = tokenIdsByContract[nft] */\n              dup1\n              sload\n              dup1\n              0x20\n              mul\n              0x20\n              add\n              mload(0x40)\n              swap1\n              dup2\n              add\n              0x40\n              mstore\n              dup1\n              swap3\n              swap2\n              swap1\n              dup2\n              dup2\n              mstore\n              0x20\n              add\n              dup3\n              dup1\n              sload\n              dup1\n              iszero\n              tag_50\n              jumpi\n              0x20\n              mul\n              dup3\n              add\n              swap2\n              swap1\n              0x00\n              mstore\n              keccak256(0x00, 0x20)\n              swap1\n            tag_51:\n              dup2\n              sload\n              dup2\n              mstore\n              0x20\n              add\n              swap1\n              0x01\n              add\n              swap1\n              dup1\n              dup4\n              gt\n              tag_51\n              jumpi\n            tag_50:\n              pop\n              pop\n              pop\n              pop\n              pop\n              swap1\n              pop\n                /* \"Perfect.sol\":751:766  uint256 _length */\n              0x00\n                /* \"Perfect.sol\":769:778  _tokenIds */\n              dup2\n                /* \"Perfect.sol\":769:785  _tokenIds.length */\n              mload\n                /* \"Perfect.sol\":751:785  uint256 _length = _tokenIds.length */\n              swap1\n              pop\n                /* \"Perfect.sol\":800:809  uint256 i */\n              0x00\n                /* \"Perfect.sol\":795:920  for (uint256 i = 0; i < _length; i++ ) {... */\n            tag_52:\n                /* \"Perfect.sol\":819:826  _length */\n              dup2\n                /* \"Perfect.sol\":815:816  i */\n              dup2\n                /* \"Perfect.sol\":815:826  i < _length */\n              lt\n                /* \"Perfect.sol\":795:920  for (uint256 i = 0; i < _length; i++ ) {... */\n              iszero\n              tag_53\n              jumpi\n                /* \"Perfect.sol\":856:859  nft */\n              dup4\n                /* \"Perfect.sol\":848:873  IERC721(nft).transferFrom */\n              0xffffffffffffffffffffffffffffffffffffffff\n              and\n              0x23b872dd\n                /* \"Perfect.sol\":882:886  this */\n              address\n                /* \"Perfect.sol\":889:894  admin */\n              0x00\n              dup1\n              sload\n              swap1\n              0x0100\n              exp\n              swap1\n              div\n              0xffffffffffffffffffffffffffffffffffffffff\n              and\n                /* \"Perfect.sol\":896:905  _tokenIds */\n              dup7\n                /* \"Perfect.sol\":906:907  i */\n              dup6\n                /* \"Perfect.sol\":896:908  _tokenIds[i] */\n              dup2\n              mload\n              dup2\n              lt\n              tag_55\n              jumpi\n              tag_56\n              tag_57\n              jump\t// in\n            tag_56:\n            tag_55:\n              0x20\n              mul\n              0x20\n              add\n              add\n              mload\n                /* \"Perfect.sol\":848:909  IERC721(nft).transferFrom(address(this), admin, _tokenIds[i]) */\n              mload(0x40)\n              dup5\n              0xffffffff\n              and\n              0xe0\n              shl\n              dup2\n              mstore\n              0x04\n              add\n              tag_58\n              swap4\n              swap3\n              swap2\n              swap1\n              tag_59\n              jump\t// in\n            tag_58:\n              0x00\n              mload(0x40)\n              dup1\n              dup4\n              sub\n              dup2\n              0x00\n              dup8\n              dup1\n              extcodesize\n              iszero\n              dup1\n              iszero\n              tag_60\n              jumpi\n              0x00\n              dup1\n              revert\n            tag_60:\n              pop\n              gas\n              call\n              iszero\n              dup1\n              iszero\n              tag_62\n              jumpi\n              returndatasize\n              0x00\n              dup1\n              returndatacopy\n              revert(0x00, returndatasize)\n            tag_62:\n              pop\n              pop\n              pop\n              pop\n                /* \"Perfect.sol\":828:831  i++ */\n              dup1\n              dup1\n              tag_63\n              swap1\n              tag_64\n              jump\t// in\n            tag_63:\n              swap2\n              pop\n              pop\n                /* \"Perfect.sol\":795:920  for (uint256 i = 0; i < _length; i++ ) {... */\n              jump(tag_52)\n            tag_53:\n              pop\n                /* \"Perfect.sol\":936:954  tokenIdsByContract */\n              0x01\n                /* \"Perfect.sol\":936:959  tokenIdsByContract[nft] */\n              0x00\n                /* \"Perfect.sol\":955:958  nft */\n              dup5\n                /* \"Perfect.sol\":936:959  tokenIdsByContract[nft] */\n              0xffffffffffffffffffffffffffffffffffffffff\n              and\n              0xffffffffffffffffffffffffffffffffffffffff\n              and\n              dup2\n              mstore\n              0x20\n              add\n              swap1\n              dup2\n              mstore\n              0x20\n              add\n              0x00\n              keccak256\n              0x00\n                /* \"Perfect.sol\":929:959  delete tokenIdsByContract[nft] */\n              tag_65\n              swap2\n              swap1\n              tag_66\n              jump\t// in\n            tag_65:\n                /* \"Perfect.sol\":679:966  {... */\n              pop\n              pop\n                /* \"Perfect.sol\":639:966  function transfer(address nft) external {... */\n              pop\n              jump\t// out\n                /* \"Perfect.sol\":970:1265  function RestorebymultipleID(address nft,uint256[] calldata tokenid) external {... */\n            tag_26:\n                /* \"Perfect.sol\":1058:1073  uint256 _length */\n              0x00\n                /* \"Perfect.sol\":1076:1083  tokenid */\n              dup3\n              dup3\n                /* \"Perfect.sol\":1076:1090  tokenid.length */\n              swap1\n              pop\n                /* \"Perfect.sol\":1058:1090  uint256 _length = tokenid.length */\n              swap1\n              pop\n                /* \"Perfect.sol\":1106:1115  uint256 i */\n              0x00\n                /* \"Perfect.sol\":1101:1224  for (uint256 i = 0; i < _length; i++ ) {... */\n            tag_68:\n                /* \"Perfect.sol\":1125:1132  _length */\n              dup2\n                /* \"Perfect.sol\":1121:1122  i */\n              dup2\n                /* \"Perfect.sol\":1121:1132  i < _length */\n              lt\n                /* \"Perfect.sol\":1101:1224  for (uint256 i = 0; i < _length; i++ ) {... */\n              iszero\n              tag_69\n              jumpi\n                /* \"Perfect.sol\":1162:1165  nft */\n              dup5\n                /* \"Perfect.sol\":1154:1179  IERC721(nft).transferFrom */\n              0xffffffffffffffffffffffffffffffffffffffff\n              and\n              0x23b872dd\n                /* \"Perfect.sol\":1188:1192  this */\n              address\n                /* \"Perfect.sol\":1195:1200  admin */\n              0x00\n              dup1\n              sload\n              swap1\n              0x0100\n              exp\n              swap1\n              div\n              0xffffffffffffffffffffffffffffffffffffffff\n              and\n                /* \"Perfect.sol\":1202:1209  tokenid */\n              dup8\n              dup8\n                /* \"Perfect.sol\":1210:1211  i */\n              dup7\n                /* \"Perfect.sol\":1202:1212  tokenid[i] */\n              dup2\n              dup2\n              lt\n              tag_71\n              jumpi\n              tag_72\n              tag_57\n              jump\t// in\n            tag_72:\n            tag_71:\n              swap1\n              pop\n              0x20\n              mul\n              add\n              calldataload\n                /* \"Perfect.sol\":1154:1213  IERC721(nft).transferFrom(address(this), admin, tokenid[i]) */\n              mload(0x40)\n              dup5\n              0xffffffff\n              and\n              0xe0\n              shl\n              dup2\n              mstore\n              0x04\n              add\n              tag_73\n              swap4\n              swap3\n              swap2\n              swap1\n              tag_59\n              jump\t// in\n            tag_73:\n              0x00\n              mload(0x40)\n              dup1\n              dup4\n              sub\n              dup2\n              0x00\n              dup8\n              dup1\n              extcodesize\n              iszero\n              dup1\n              iszero\n              tag_74\n              jumpi\n              0x00\n              dup1\n              revert\n            tag_74:\n              pop\n              gas\n              call\n              iszero\n              dup1\n              iszero\n              tag_76\n              jumpi\n              returndatasize\n              0x00\n              dup1\n              returndatacopy\n              revert(0x00, returndatasize)\n            tag_76:\n              pop\n              pop\n              pop\n              pop\n                /* \"Perfect.sol\":1134:1137  i++ */\n              dup1\n              dup1\n              tag_77\n              swap1\n              tag_64\n              jump\t// in\n            tag_77:\n              swap2\n              pop\n              pop\n                /* \"Perfect.sol\":1101:1224  for (uint256 i = 0; i < _length; i++ ) {... */\n              jump(tag_68)\n            tag_69:\n              pop\n                /* \"Perfect.sol\":1237:1255  tokenIdsByContract */\n              0x01\n                /* \"Perfect.sol\":1237:1260  tokenIdsByContract[nft] */\n              0x00\n                /* \"Perfect.sol\":1256:1259  nft */\n              dup6\n                /* \"Perfect.sol\":1237:1260  tokenIdsByContract[nft] */\n              0xffffffffffffffffffffffffffffffffffffffff\n              and\n              0xffffffffffffffffffffffffffffffffffffffff\n              and\n              dup2\n              mstore\n              0x20\n              add\n              swap1\n              dup2\n              mstore\n              0x20\n              add\n              0x00\n              keccak256\n              0x00\n                /* \"Perfect.sol\":1230:1260  delete tokenIdsByContract[nft] */\n              tag_78\n              swap2\n              swap1\n              tag_66\n              jump\t// in\n            tag_78:\n                /* \"Perfect.sol\":1048:1265  {... */\n              pop\n                /* \"Perfect.sol\":970:1265  function RestorebymultipleID(address nft,uint256[] calldata tokenid) external {... */\n              pop\n              pop\n              pop\n              jump\t// out\n                /* \"Perfect.sol\":1269:1455  function Restorebysingleid(address nft,uint256 tokenid) external {... */\n            tag_31:\n                /* \"Perfect.sol\":1357:1360  nft */\n              dup2\n                /* \"Perfect.sol\":1349:1374  IERC721(nft).transferFrom */\n              0xffffffffffffffffffffffffffffffffffffffff\n              and\n              0x23b872dd\n                /* \"Perfect.sol\":1383:1387  this */\n              address\n                /* \"Perfect.sol\":1390:1395  admin */\n              0x00\n              dup1\n              sload\n              swap1\n              0x0100\n              exp\n              swap1\n              div\n              0xffffffffffffffffffffffffffffffffffffffff\n              and\n                /* \"Perfect.sol\":1397:1404  tokenid */\n              dup5\n                /* \"Perfect.sol\":1349:1405  IERC721(nft).transferFrom(address(this), admin, tokenid) */\n              mload(0x40)\n              dup5\n              0xffffffff\n              and\n              0xe0\n              shl\n              dup2\n              mstore\n              0x04\n              add\n              tag_80\n              swap4\n              swap3\n              swap2\n              swap1\n              tag_59\n              jump\t// in\n            tag_80:\n              0x00\n              mload(0x40)\n              dup1\n              dup4\n              sub\n              dup2\n              0x00\n              dup8\n              dup1\n              extcodesize\n              iszero\n              dup1\n              iszero\n              tag_81\n              jumpi\n              0x00\n              dup1\n              revert\n            tag_81:\n              pop\n              gas\n              call\n              iszero\n              dup1\n              iszero\n              tag_83\n              jumpi\n              returndatasize\n              0x00\n              dup1\n              returndatacopy\n              revert(0x00, returndatasize)\n            tag_83:\n              pop\n              pop\n              pop\n              pop\n                /* \"Perfect.sol\":1427:1445  tokenIdsByContract */\n              0x01\n                /* \"Perfect.sol\":1427:1450  tokenIdsByContract[nft] */\n              0x00\n                /* \"Perfect.sol\":1446:1449  nft */\n              dup4\n                /* \"Perfect.sol\":1427:1450  tokenIdsByContract[nft] */\n              0xffffffffffffffffffffffffffffffffffffffff\n              and\n              0xffffffffffffffffffffffffffffffffffffffff\n              and\n              dup2\n              mstore\n              0x20\n              add\n              swap1\n              dup2\n              mstore\n              0x20\n              add\n              0x00\n              keccak256\n              0x00\n                /* \"Perfect.sol\":1420:1450  delete tokenIdsByContract[nft] */\n              tag_84\n              swap2\n              swap1\n              tag_66\n              jump\t// in\n            tag_84:\n                /* \"Perfect.sol\":1269:1455  function Restorebysingleid(address nft,uint256 tokenid) external {... */\n              pop\n              pop\n              jump\t// out\n                /* \"Perfect.sol\":436:630  function mint(... */\n            tag_35:\n                /* \"Perfect.sol\":539:551  bool success */\n              0x00\n                /* \"Perfect.sol\":557:560  nft */\n              dup4\n                /* \"Perfect.sol\":557:565  nft.call */\n              0xffffffffffffffffffffffffffffffffffffffff\n              and\n                /* \"Perfect.sol\":573:582  msg.value */\n              callvalue\n                /* \"Perfect.sol\":584:589  param */\n              dup5\n              dup5\n                /* \"Perfect.sol\":557:590  nft.call{value: msg.value}(param) */\n              mload(0x40)\n              tag_86\n              swap3\n              swap2\n              swap1\n              tag_87\n              jump\t// in\n            tag_86:\n              0x00\n              mload(0x40)\n              dup1\n              dup4\n              sub\n              dup2\n              dup6\n              dup8\n              gas\n              call\n              swap3\n              pop\n              pop\n              pop\n              returndatasize\n              dup1\n              0x00\n              dup2\n              eq\n              tag_90\n              jumpi\n              mload(0x40)\n              swap2\n              pop\n              and(add(returndatasize, 0x3f), not(0x1f))\n              dup3\n              add\n              0x40\n              mstore\n              returndatasize\n              dup3\n              mstore\n              returndatasize\n              0x00\n              0x20\n              dup5\n              add\n              returndatacopy\n              jump(tag_89)\n            tag_90:\n              0x60\n              swap2\n              pop\n            tag_89:\n              pop\n                /* \"Perfect.sol\":538:590  (bool success, ) = nft.call{value: msg.value}(param) */\n              pop\n              swap1\n              pop\n                /* \"Perfect.sol\":608:615  success */\n              dup1\n                /* \"Perfect.sol\":600:616  require(success) */\n              tag_91\n              jumpi\n              0x00\n              dup1\n              revert\n            tag_91:\n                /* \"Perfect.sol\":528:630  {... */\n              pop\n                /* \"Perfect.sol\":436:630  function mint(... */\n              pop\n              pop\n              pop\n              jump\t// out\n                /* \"Perfect.sol\":1732:1854  function tokenIdsByNFT(address nft) external view returns(uint256[] memory){... */\n            tag_39:\n                /* \"Perfect.sol\":1790:1806  uint256[] memory */\n              0x60\n                /* \"Perfect.sol\":1824:1842  tokenIdsByContract */\n              0x01\n                /* \"Perfect.sol\":1824:1847  tokenIdsByContract[nft] */\n              0x00\n                /* \"Perfect.sol\":1843:1846  nft */\n              dup4\n                /* \"Perfect.sol\":1824:1847  tokenIdsByContract[nft] */\n              0xffffffffffffffffffffffffffffffffffffffff\n              and\n              0xffffffffffffffffffffffffffffffffffffffff\n              and\n              dup2\n              mstore\n              0x20\n              add\n              swap1\n              dup2\n              mstore\n              0x20\n              add\n              0x00\n              keccak256\n                /* \"Perfect.sol\":1817:1847  return tokenIdsByContract[nft] */\n              dup1\n              sload\n              dup1\n              0x20\n              mul\n              0x20\n              add\n              mload(0x40)\n              swap1\n              dup2\n              add\n              0x40\n              mstore\n              dup1\n              swap3\n              swap2\n              swap1\n              dup2\n              dup2\n              mstore\n              0x20\n              add\n              dup3\n              dup1\n              sload\n              dup1\n              iszero\n              tag_93\n              jumpi\n              0x20\n              mul\n              dup3\n              add\n              swap2\n              swap1\n              0x00\n              mstore\n              keccak256(0x00, 0x20)\n              swap1\n            tag_94:\n              dup2\n              sload\n              dup2\n              mstore\n              0x20\n              add\n              swap1\n              0x01\n              add\n              swap1\n              dup1\n              dup4\n              gt\n              tag_94\n              jumpi\n            tag_93:\n              pop\n              pop\n              pop\n              pop\n              pop\n              swap1\n              pop\n                /* \"Perfect.sol\":1732:1854  function tokenIdsByNFT(address nft) external view returns(uint256[] memory){... */\n              swap2\n              swap1\n              pop\n              jump\t// out\n                /* \"Perfect.sol\":283:303  address public admin */\n            tag_44:\n              0x00\n              dup1\n              sload\n              swap1\n              0x0100\n              exp\n              swap1\n              div\n              0xffffffffffffffffffffffffffffffffffffffff\n              and\n              dup2\n              jump\t// out\n            tag_66:\n              pop\n              dup1\n              sload\n              0x00\n              dup3\n              sstore\n              swap1\n              0x00\n              mstore\n              keccak256(0x00, 0x20)\n              swap1\n              dup2\n              add\n              swap1\n              tag_96\n              swap2\n              swap1\n              tag_97\n              jump\t// in\n            tag_96:\n              pop\n              jump\t// out\n            tag_97:\n            tag_98:\n              dup1\n              dup3\n              gt\n              iszero\n              tag_99\n              jumpi\n              0x00\n              dup2\n              0x00\n              swap1\n              sstore\n              pop\n              0x01\n              add\n              jump(tag_98)\n            tag_99:\n              pop\n              swap1\n              jump\t// out\n                /* \"#utility.yul\":7:82   */\n            tag_100:\n                /* \"#utility.yul\":40:46   */\n              0x00\n                /* \"#utility.yul\":73:75   */\n              0x40\n                /* \"#utility.yul\":67:76   */\n              mload\n                /* \"#utility.yul\":57:76   */\n              swap1\n              pop\n                /* \"#utility.yul\":7:82   */\n              swap1\n              jump\t// out\n                /* \"#utility.yul\":88:205   */\n            tag_101:\n                /* \"#utility.yul\":197:198   */\n              0x00\n                /* \"#utility.yul\":194:195   */\n              dup1\n                /* \"#utility.yul\":187:199   */\n              revert\n                /* \"#utility.yul\":211:328   */\n            tag_102:\n                /* \"#utility.yul\":320:321   */\n              0x00\n                /* \"#utility.yul\":317:318   */\n              dup1\n                /* \"#utility.yul\":310:322   */\n              revert\n                /* \"#utility.yul\":334:460   */\n            tag_103:\n                /* \"#utility.yul\":371:378   */\n              0x00\n                /* \"#utility.yul\":411:453   */\n              0xffffffffffffffffffffffffffffffffffffffff\n                /* \"#utility.yul\":404:409   */\n              dup3\n                /* \"#utility.yul\":400:454   */\n              and\n                /* \"#utility.yul\":389:454   */\n              swap1\n              pop\n                /* \"#utility.yul\":334:460   */\n              swap2\n              swap1\n              pop\n              jump\t// out\n                /* \"#utility.yul\":466:562   */\n            tag_104:\n                /* \"#utility.yul\":503:510   */\n              0x00\n                /* \"#utility.yul\":532:556   */\n              tag_144\n                /* \"#utility.yul\":550:555   */\n              dup3\n                /* \"#utility.yul\":532:556   */\n              tag_103\n              jump\t// in\n            tag_144:\n                /* \"#utility.yul\":521:556   */\n              swap1\n              pop\n                /* \"#utility.yul\":466:562   */\n              swap2\n              swap1\n              pop\n              jump\t// out\n                /* \"#utility.yul\":568:690   */\n            tag_105:\n                /* \"#utility.yul\":641:665   */\n              tag_146\n                /* \"#utility.yul\":659:664   */\n              dup2\n                /* \"#utility.yul\":641:665   */\n              tag_104\n              jump\t// in\n            tag_146:\n                /* \"#utility.yul\":634:639   */\n              dup2\n                /* \"#utility.yul\":631:666   */\n              eq\n                /* \"#utility.yul\":621:684   */\n              tag_147\n              jumpi\n                /* \"#utility.yul\":680:681   */\n              0x00\n                /* \"#utility.yul\":677:678   */\n              dup1\n                /* \"#utility.yul\":670:682   */\n              revert\n                /* \"#utility.yul\":621:684   */\n            tag_147:\n                /* \"#utility.yul\":568:690   */\n              pop\n              jump\t// out\n                /* \"#utility.yul\":696:835   */\n            tag_106:\n                /* \"#utility.yul\":742:747   */\n              0x00\n                /* \"#utility.yul\":780:786   */\n              dup2\n                /* \"#utility.yul\":767:787   */\n              calldataload\n                /* \"#utility.yul\":758:787   */\n              swap1\n              pop\n                /* \"#utility.yul\":796:829   */\n              tag_149\n                /* \"#utility.yul\":823:828   */\n              dup2\n                /* \"#utility.yul\":796:829   */\n              tag_105\n              jump\t// in\n            tag_149:\n                /* \"#utility.yul\":696:835   */\n              swap3\n              swap2\n              pop\n              pop\n              jump\t// out\n                /* \"#utility.yul\":841:918   */\n            tag_107:\n                /* \"#utility.yul\":878:885   */\n              0x00\n                /* \"#utility.yul\":907:912   */\n              dup2\n                /* \"#utility.yul\":896:912   */\n              swap1\n              pop\n                /* \"#utility.yul\":841:918   */\n              swap2\n              swap1\n              pop\n              jump\t// out\n                /* \"#utility.yul\":924:1046   */\n            tag_108:\n                /* \"#utility.yul\":997:1021   */\n              tag_152\n                /* \"#utility.yul\":1015:1020   */\n              dup2\n                /* \"#utility.yul\":997:1021   */\n              tag_107\n              jump\t// in\n            tag_152:\n                /* \"#utility.yul\":990:995   */\n              dup2\n                /* \"#utility.yul\":987:1022   */\n              eq\n                /* \"#utility.yul\":977:1040   */\n              tag_153\n              jumpi\n                /* \"#utility.yul\":1036:1037   */\n              0x00\n                /* \"#utility.yul\":1033:1034   */\n              dup1\n                /* \"#utility.yul\":1026:1038   */\n              revert\n                /* \"#utility.yul\":977:1040   */\n            tag_153:\n                /* \"#utility.yul\":924:1046   */\n              pop\n              jump\t// out\n                /* \"#utility.yul\":1052:1191   */\n            tag_109:\n                /* \"#utility.yul\":1098:1103   */\n              0x00\n                /* \"#utility.yul\":1136:1142   */\n              dup2\n                /* \"#utility.yul\":1123:1143   */\n              calldataload\n                /* \"#utility.yul\":1114:1143   */\n              swap1\n              pop\n                /* \"#utility.yul\":1152:1185   */\n              tag_155\n                /* \"#utility.yul\":1179:1184   */\n              dup2\n                /* \"#utility.yul\":1152:1185   */\n              tag_108\n              jump\t// in\n            tag_155:\n                /* \"#utility.yul\":1052:1191   */\n              swap3\n              swap2\n              pop\n              pop\n              jump\t// out\n                /* \"#utility.yul\":1197:1314   */\n            tag_110:\n                /* \"#utility.yul\":1306:1307   */\n              0x00\n                /* \"#utility.yul\":1303:1304   */\n              dup1\n                /* \"#utility.yul\":1296:1308   */\n              revert\n                /* \"#utility.yul\":1320:1437   */\n            tag_111:\n                /* \"#utility.yul\":1429:1430   */\n              0x00\n                /* \"#utility.yul\":1426:1427   */\n              dup1\n                /* \"#utility.yul\":1419:1431   */\n              revert\n                /* \"#utility.yul\":1443:1545   */\n            tag_112:\n                /* \"#utility.yul\":1484:1490   */\n              0x00\n                /* \"#utility.yul\":1535:1537   */\n              0x1f\n                /* \"#utility.yul\":1531:1538   */\n              not\n                /* \"#utility.yul\":1526:1528   */\n              0x1f\n                /* \"#utility.yul\":1519:1524   */\n              dup4\n                /* \"#utility.yul\":1515:1529   */\n              add\n                /* \"#utility.yul\":1511:1539   */\n              and\n                /* \"#utility.yul\":1501:1539   */\n              swap1\n              pop\n                /* \"#utility.yul\":1443:1545   */\n              swap2\n              swap1\n              pop\n              jump\t// out\n                /* \"#utility.yul\":1551:1731   */\n            tag_113:\n                /* \"#utility.yul\":1599:1676   */\n              0x4e487b7100000000000000000000000000000000000000000000000000000000\n                /* \"#utility.yul\":1596:1597   */\n              0x00\n                /* \"#utility.yul\":1589:1677   */\n              mstore\n                /* \"#utility.yul\":1696:1700   */\n              0x41\n                /* \"#utility.yul\":1693:1694   */\n              0x04\n                /* \"#utility.yul\":1686:1701   */\n              mstore\n                /* \"#utility.yul\":1720:1724   */\n              0x24\n                /* \"#utility.yul\":1717:1718   */\n              0x00\n                /* \"#utility.yul\":1710:1725   */\n              revert\n                /* \"#utility.yul\":1737:2018   */\n            tag_114:\n                /* \"#utility.yul\":1820:1847   */\n              tag_161\n                /* \"#utility.yul\":1842:1846   */\n              dup3\n                /* \"#utility.yul\":1820:1847   */\n              tag_112\n              jump\t// in\n            tag_161:\n                /* \"#utility.yul\":1812:1818   */\n              dup2\n                /* \"#utility.yul\":1808:1848   */\n              add\n                /* \"#utility.yul\":1950:1956   */\n              dup2\n                /* \"#utility.yul\":1938:1948   */\n              dup2\n                /* \"#utility.yul\":1935:1957   */\n              lt\n                /* \"#utility.yul\":1914:1932   */\n              0xffffffffffffffff\n                /* \"#utility.yul\":1902:1912   */\n              dup3\n                /* \"#utility.yul\":1899:1933   */\n              gt\n                /* \"#utility.yul\":1896:1958   */\n              or\n                /* \"#utility.yul\":1893:1981   */\n              iszero\n              tag_162\n              jumpi\n                /* \"#utility.yul\":1961:1979   */\n              tag_163\n              tag_113\n              jump\t// in\n            tag_163:\n                /* \"#utility.yul\":1893:1981   */\n            tag_162:\n                /* \"#utility.yul\":2001:2011   */\n              dup1\n                /* \"#utility.yul\":1997:1999   */\n              0x40\n                /* \"#utility.yul\":1990:2012   */\n              mstore\n                /* \"#utility.yul\":1780:2018   */\n              pop\n                /* \"#utility.yul\":1737:2018   */\n              pop\n              pop\n              jump\t// out\n                /* \"#utility.yul\":2024:2153   */\n            tag_115:\n                /* \"#utility.yul\":2058:2064   */\n              0x00\n                /* \"#utility.yul\":2085:2105   */\n              tag_165\n              tag_100\n              jump\t// in\n            tag_165:\n                /* \"#utility.yul\":2075:2105   */\n              swap1\n              pop\n                /* \"#utility.yul\":2114:2147   */\n              tag_166\n                /* \"#utility.yul\":2142:2146   */\n              dup3\n                /* \"#utility.yul\":2134:2140   */\n              dup3\n                /* \"#utility.yul\":2114:2147   */\n              tag_114\n              jump\t// in\n            tag_166:\n                /* \"#utility.yul\":2024:2153   */\n              swap2\n              swap1\n              pop\n              jump\t// out\n                /* \"#utility.yul\":2159:2466   */\n            tag_116:\n                /* \"#utility.yul\":2220:2224   */\n              0x00\n                /* \"#utility.yul\":2310:2328   */\n              0xffffffffffffffff\n                /* \"#utility.yul\":2302:2308   */\n              dup3\n                /* \"#utility.yul\":2299:2329   */\n              gt\n                /* \"#utility.yul\":2296:2352   */\n              iszero\n              tag_168\n              jumpi\n                /* \"#utility.yul\":2332:2350   */\n              tag_169\n              tag_113\n              jump\t// in\n            tag_169:\n                /* \"#utility.yul\":2296:2352   */\n            tag_168:\n                /* \"#utility.yul\":2370:2399   */\n              tag_170\n                /* \"#utility.yul\":2392:2398   */\n              dup3\n                /* \"#utility.yul\":2370:2399   */\n              tag_112\n              jump\t// in\n            tag_170:\n                /* \"#utility.yul\":2362:2399   */\n              swap1\n              pop\n                /* \"#utility.yul\":2454:2458   */\n              0x20\n                /* \"#utility.yul\":2448:2452   */\n              dup2\n                /* \"#utility.yul\":2444:2459   */\n              add\n                /* \"#utility.yul\":2436:2459   */\n              swap1\n              pop\n                /* \"#utility.yul\":2159:2466   */\n              swap2\n              swap1\n              pop\n              jump\t// out\n                /* \"#utility.yul\":2472:2618   */\n            tag_117:\n                /* \"#utility.yul\":2569:2575   */\n              dup3\n                /* \"#utility.yul\":2564:2567   */\n              dup2\n                /* \"#utility.yul\":2559:2562   */\n              dup4\n                /* \"#utility.yul\":2546:2576   */\n              calldatacopy\n                /* \"#utility.yul\":2610:2611   */\n              0x00\n                /* \"#utility.yul\":2601:2607   */\n              dup4\n                /* \"#utility.yul\":2596:2599   */\n              dup4\n                /* \"#utility.yul\":2592:2608   */\n              add\n                /* \"#utility.yul\":2585:2612   */\n              mstore\n                /* \"#utility.yul\":2472:2618   */\n              pop\n              pop\n              pop\n              jump\t// out\n                /* \"#utility.yul\":2624:3047   */\n            tag_118:\n                /* \"#utility.yul\":2701:2706   */\n              0x00\n                /* \"#utility.yul\":2726:2791   */\n              tag_173\n                /* \"#utility.yul\":2742:2790   */\n              tag_174\n                /* \"#utility.yul\":2783:2789   */\n              dup5\n                /* \"#utility.yul\":2742:2790   */\n              tag_116\n              jump\t// in\n            tag_174:\n                /* \"#utility.yul\":2726:2791   */\n              tag_115\n              jump\t// in\n            tag_173:\n                /* \"#utility.yul\":2717:2791   */\n              swap1\n              pop\n                /* \"#utility.yul\":2814:2820   */\n              dup3\n                /* \"#utility.yul\":2807:2812   */\n              dup2\n                /* \"#utility.yul\":2800:2821   */\n              mstore\n                /* \"#utility.yul\":2852:2856   */\n              0x20\n                /* \"#utility.yul\":2845:2850   */\n              dup2\n                /* \"#utility.yul\":2841:2857   */\n              add\n                /* \"#utility.yul\":2890:2893   */\n              dup5\n                /* \"#utility.yul\":2881:2887   */\n              dup5\n                /* \"#utility.yul\":2876:2879   */\n              dup5\n                /* \"#utility.yul\":2872:2888   */\n              add\n                /* \"#utility.yul\":2869:2894   */\n              gt\n                /* \"#utility.yul\":2866:2978   */\n              iszero\n              tag_175\n              jumpi\n                /* \"#utility.yul\":2897:2976   */\n              tag_176\n              tag_111\n              jump\t// in\n            tag_176:\n                /* \"#utility.yul\":2866:2978   */\n            tag_175:\n                /* \"#utility.yul\":2987:3041   */\n              tag_177\n                /* \"#utility.yul\":3034:3040   */\n              dup5\n                /* \"#utility.yul\":3029:3032   */\n              dup3\n                /* \"#utility.yul\":3024:3027   */\n              dup6\n                /* \"#utility.yul\":2987:3041   */\n              tag_117\n              jump\t// in\n            tag_177:\n                /* \"#utility.yul\":2707:3047   */\n              pop\n                /* \"#utility.yul\":2624:3047   */\n              swap4\n              swap3\n              pop\n              pop\n              pop\n              jump\t// out\n                /* \"#utility.yul\":3066:3404   */\n            tag_119:\n                /* \"#utility.yul\":3121:3126   */\n              0x00\n                /* \"#utility.yul\":3170:3173   */\n              dup3\n                /* \"#utility.yul\":3163:3167   */\n              0x1f\n                /* \"#utility.yul\":3155:3161   */\n              dup4\n                /* \"#utility.yul\":3151:3168   */\n              add\n                /* \"#utility.yul\":3147:3174   */\n              slt\n                /* \"#utility.yul\":3137:3259   */\n              tag_179\n              jumpi\n                /* \"#utility.yul\":3178:3257   */\n              tag_180\n              tag_110\n              jump\t// in\n            tag_180:\n                /* \"#utility.yul\":3137:3259   */\n            tag_179:\n                /* \"#utility.yul\":3295:3301   */\n              dup2\n                /* \"#utility.yul\":3282:3302   */\n              calldataload\n                /* \"#utility.yul\":3320:3398   */\n              tag_181\n                /* \"#utility.yul\":3394:3397   */\n              dup5\n                /* \"#utility.yul\":3386:3392   */\n              dup3\n                /* \"#utility.yul\":3379:3383   */\n              0x20\n                /* \"#utility.yul\":3371:3377   */\n              dup7\n                /* \"#utility.yul\":3367:3384   */\n              add\n                /* \"#utility.yul\":3320:3398   */\n              tag_118\n              jump\t// in\n            tag_181:\n                /* \"#utility.yul\":3311:3398   */\n              swap2\n              pop\n                /* \"#utility.yul\":3127:3404   */\n              pop\n                /* \"#utility.yul\":3066:3404   */\n              swap3\n              swap2\n              pop\n              pop\n              jump\t// out\n                /* \"#utility.yul\":3410:4353   */\n            tag_13:\n                /* \"#utility.yul\":3505:3511   */\n              0x00\n                /* \"#utility.yul\":3513:3519   */\n              dup1\n                /* \"#utility.yul\":3521:3527   */\n              0x00\n                /* \"#utility.yul\":3529:3535   */\n              dup1\n                /* \"#utility.yul\":3578:3581   */\n              0x80\n                /* \"#utility.yul\":3566:3575   */\n              dup6\n                /* \"#utility.yul\":3557:3564   */\n              dup8\n                /* \"#utility.yul\":3553:3576   */\n              sub\n                /* \"#utility.yul\":3549:3582   */\n              slt\n                /* \"#utility.yul\":3546:3666   */\n              iszero\n              tag_183\n              jumpi\n                /* \"#utility.yul\":3585:3664   */\n              tag_184\n              tag_101\n              jump\t// in\n            tag_184:\n                /* \"#utility.yul\":3546:3666   */\n            tag_183:\n                /* \"#utility.yul\":3705:3706   */\n              0x00\n                /* \"#utility.yul\":3730:3783   */\n              tag_185\n                /* \"#utility.yul\":3775:3782   */\n              dup8\n                /* \"#utility.yul\":3766:3772   */\n              dup3\n                /* \"#utility.yul\":3755:3764   */\n              dup9\n                /* \"#utility.yul\":3751:3773   */\n              add\n                /* \"#utility.yul\":3730:3783   */\n              tag_106\n              jump\t// in\n            tag_185:\n                /* \"#utility.yul\":3720:3783   */\n              swap5\n              pop\n                /* \"#utility.yul\":3676:3793   */\n              pop\n                /* \"#utility.yul\":3832:3834   */\n              0x20\n                /* \"#utility.yul\":3858:3911   */\n              tag_186\n                /* \"#utility.yul\":3903:3910   */\n              dup8\n                /* \"#utility.yul\":3894:3900   */\n              dup3\n                /* \"#utility.yul\":3883:3892   */\n              dup9\n                /* \"#utility.yul\":3879:3901   */\n              add\n                /* \"#utility.yul\":3858:3911   */\n              tag_106\n              jump\t// in\n            tag_186:\n                /* \"#utility.yul\":3848:3911   */\n              swap4\n              pop\n                /* \"#utility.yul\":3803:3921   */\n              pop\n                /* \"#utility.yul\":3960:3962   */\n              0x40\n                /* \"#utility.yul\":3986:4039   */\n              tag_187\n                /* \"#utility.yul\":4031:4038   */\n              dup8\n                /* \"#utility.yul\":4022:4028   */\n              dup3\n                /* \"#utility.yul\":4011:4020   */\n              dup9\n                /* \"#utility.yul\":4007:4029   */\n              add\n                /* \"#utility.yul\":3986:4039   */\n              tag_109\n              jump\t// in\n            tag_187:\n                /* \"#utility.yul\":3976:4039   */\n              swap3\n              pop\n                /* \"#utility.yul\":3931:4049   */\n              pop\n                /* \"#utility.yul\":4116:4118   */\n              0x60\n                /* \"#utility.yul\":4105:4114   */\n              dup6\n                /* \"#utility.yul\":4101:4119   */\n              add\n                /* \"#utility.yul\":4088:4120   */\n              calldataload\n                /* \"#utility.yul\":4147:4165   */\n              0xffffffffffffffff\n                /* \"#utility.yul\":4139:4145   */\n              dup2\n                /* \"#utility.yul\":4136:4166   */\n              gt\n                /* \"#utility.yul\":4133:4250   */\n              iszero\n              tag_188\n              jumpi\n                /* \"#utility.yul\":4169:4248   */\n              tag_189\n              tag_102\n              jump\t// in\n            tag_189:\n                /* \"#utility.yul\":4133:4250   */\n            tag_188:\n                /* \"#utility.yul\":4274:4336   */\n              tag_190\n                /* \"#utility.yul\":4328:4335   */\n              dup8\n                /* \"#utility.yul\":4319:4325   */\n              dup3\n                /* \"#utility.yul\":4308:4317   */\n              dup9\n                /* \"#utility.yul\":4304:4326   */\n              add\n                /* \"#utility.yul\":4274:4336   */\n              tag_119\n              jump\t// in\n            tag_190:\n                /* \"#utility.yul\":4264:4336   */\n              swap2\n              pop\n                /* \"#utility.yul\":4059:4346   */\n              pop\n                /* \"#utility.yul\":3410:4353   */\n              swap3\n              swap6\n              swap2\n              swap5\n              pop\n              swap3\n              pop\n              jump\t// out\n                /* \"#utility.yul\":4359:4508   */\n            tag_120:\n                /* \"#utility.yul\":4395:4402   */\n              0x00\n                /* \"#utility.yul\":4435:4501   */\n              0xffffffff00000000000000000000000000000000000000000000000000000000\n                /* \"#utility.yul\":4428:4433   */\n              dup3\n                /* \"#utility.yul\":4424:4502   */\n              and\n                /* \"#utility.yul\":4413:4502   */\n              swap1\n              pop\n                /* \"#utility.yul\":4359:4508   */\n              swap2\n              swap1\n              pop\n              jump\t// out\n                /* \"#utility.yul\":4514:4629   */\n            tag_121:\n                /* \"#utility.yul\":4599:4622   */\n              tag_193\n                /* \"#utility.yul\":4616:4621   */\n              dup2\n                /* \"#utility.yul\":4599:4622   */\n              tag_120\n              jump\t// in\n            tag_193:\n                /* \"#utility.yul\":4594:4597   */\n              dup3\n                /* \"#utility.yul\":4587:4623   */\n              mstore\n                /* \"#utility.yul\":4514:4629   */\n              pop\n              pop\n              jump\t// out\n                /* \"#utility.yul\":4635:4853   */\n            tag_16:\n                /* \"#utility.yul\":4726:4730   */\n              0x00\n                /* \"#utility.yul\":4764:4766   */\n              0x20\n                /* \"#utility.yul\":4753:4762   */\n              dup3\n                /* \"#utility.yul\":4749:4767   */\n              add\n                /* \"#utility.yul\":4741:4767   */\n              swap1\n              pop\n                /* \"#utility.yul\":4777:4846   */\n              tag_195\n                /* \"#utility.yul\":4843:4844   */\n              0x00\n                /* \"#utility.yul\":4832:4841   */\n              dup4\n                /* \"#utility.yul\":4828:4845   */\n              add\n                /* \"#utility.yul\":4819:4825   */\n              dup5\n                /* \"#utility.yul\":4777:4846   */\n              tag_121\n              jump\t// in\n            tag_195:\n                /* \"#utility.yul\":4635:4853   */\n              swap3\n              swap2\n              pop\n              pop\n              jump\t// out\n                /* \"#utility.yul\":4859:5188   */\n            tag_20:\n                /* \"#utility.yul\":4918:4924   */\n              0x00\n                /* \"#utility.yul\":4967:4969   */\n              0x20\n                /* \"#utility.yul\":4955:4964   */\n              dup3\n                /* \"#utility.yul\":4946:4953   */\n              dup5\n                /* \"#utility.yul\":4942:4965   */\n              sub\n                /* \"#utility.yul\":4938:4970   */\n              slt\n                /* \"#utility.yul\":4935:5054   */\n              iszero\n              tag_197\n              jumpi\n                /* \"#utility.yul\":4973:5052   */\n              tag_198\n              tag_101\n              jump\t// in\n            tag_198:\n                /* \"#utility.yul\":4935:5054   */\n            tag_197:\n                /* \"#utility.yul\":5093:5094   */\n              0x00\n                /* \"#utility.yul\":5118:5171   */\n              tag_199\n                /* \"#utility.yul\":5163:5170   */\n              dup5\n                /* \"#utility.yul\":5154:5160   */\n              dup3\n                /* \"#utility.yul\":5143:5152   */\n              dup6\n                /* \"#utility.yul\":5139:5161   */\n              add\n                /* \"#utility.yul\":5118:5171   */\n              tag_106\n              jump\t// in\n            tag_199:\n                /* \"#utility.yul\":5108:5171   */\n              swap2\n              pop\n                /* \"#utility.yul\":5064:5181   */\n              pop\n                /* \"#utility.yul\":4859:5188   */\n              swap3\n              swap2\n              pop\n              pop\n              jump\t// out\n                /* \"#utility.yul\":5194:5311   */\n            tag_122:\n                /* \"#utility.yul\":5303:5304   */\n              0x00\n                /* \"#utility.yul\":5300:5301   */\n              dup1\n                /* \"#utility.yul\":5293:5305   */\n              revert\n                /* \"#utility.yul\":5317:5434   */\n            tag_123:\n                /* \"#utility.yul\":5426:5427   */\n              0x00\n                /* \"#utility.yul\":5423:5424   */\n              dup1\n                /* \"#utility.yul\":5416:5428   */\n              revert\n                /* \"#utility.yul\":5457:6025   */\n            tag_124:\n                /* \"#utility.yul\":5530:5538   */\n              0x00\n                /* \"#utility.yul\":5540:5546   */\n              dup1\n                /* \"#utility.yul\":5590:5593   */\n              dup4\n                /* \"#utility.yul\":5583:5587   */\n              0x1f\n                /* \"#utility.yul\":5575:5581   */\n              dup5\n                /* \"#utility.yul\":5571:5588   */\n              add\n                /* \"#utility.yul\":5567:5594   */\n              slt\n                /* \"#utility.yul\":5557:5679   */\n              tag_203\n              jumpi\n                /* \"#utility.yul\":5598:5677   */\n              tag_204\n              tag_110\n              jump\t// in\n            tag_204:\n                /* \"#utility.yul\":5557:5679   */\n            tag_203:\n                /* \"#utility.yul\":5711:5717   */\n              dup3\n                /* \"#utility.yul\":5698:5718   */\n              calldataload\n                /* \"#utility.yul\":5688:5718   */\n              swap1\n              pop\n                /* \"#utility.yul\":5741:5759   */\n              0xffffffffffffffff\n                /* \"#utility.yul\":5733:5739   */\n              dup2\n                /* \"#utility.yul\":5730:5760   */\n              gt\n                /* \"#utility.yul\":5727:5844   */\n              iszero\n              tag_205\n              jumpi\n                /* \"#utility.yul\":5763:5842   */\n              tag_206\n              tag_122\n              jump\t// in\n            tag_206:\n                /* \"#utility.yul\":5727:5844   */\n            tag_205:\n                /* \"#utility.yul\":5877:5881   */\n              0x20\n                /* \"#utility.yul\":5869:5875   */\n              dup4\n                /* \"#utility.yul\":5865:5882   */\n              add\n                /* \"#utility.yul\":5853:5882   */\n              swap2\n              pop\n                /* \"#utility.yul\":5931:5934   */\n              dup4\n                /* \"#utility.yul\":5923:5927   */\n              0x20\n                /* \"#utility.yul\":5915:5921   */\n              dup3\n                /* \"#utility.yul\":5911:5928   */\n              mul\n                /* \"#utility.yul\":5901:5909   */\n              dup4\n                /* \"#utility.yul\":5897:5929   */\n              add\n                /* \"#utility.yul\":5894:5935   */\n              gt\n                /* \"#utility.yul\":5891:6019   */\n              iszero\n              tag_207\n              jumpi\n                /* \"#utility.yul\":5938:6017   */\n              tag_208\n              tag_123\n              jump\t// in\n            tag_208:\n                /* \"#utility.yul\":5891:6019   */\n            tag_207:\n                /* \"#utility.yul\":5457:6025   */\n              swap3\n              pop\n              swap3\n              swap1\n              pop\n              jump\t// out\n                /* \"#utility.yul\":6031:6735   */\n            tag_25:\n                /* \"#utility.yul\":6126:6132   */\n              0x00\n                /* \"#utility.yul\":6134:6140   */\n              dup1\n                /* \"#utility.yul\":6142:6148   */\n              0x00\n                /* \"#utility.yul\":6191:6193   */\n              0x40\n                /* \"#utility.yul\":6179:6188   */\n              dup5\n                /* \"#utility.yul\":6170:6177   */\n              dup7\n                /* \"#utility.yul\":6166:6189   */\n              sub\n                /* \"#utility.yul\":6162:6194   */\n              slt\n                /* \"#utility.yul\":6159:6278   */\n              iszero\n              tag_210\n              jumpi\n                /* \"#utility.yul\":6197:6276   */\n              tag_211\n              tag_101\n              jump\t// in\n            tag_211:\n                /* \"#utility.yul\":6159:6278   */\n            tag_210:\n                /* \"#utility.yul\":6317:6318   */\n              0x00\n                /* \"#utility.yul\":6342:6395   */\n              tag_212\n                /* \"#utility.yul\":6387:6394   */\n              dup7\n                /* \"#utility.yul\":6378:6384   */\n              dup3\n                /* \"#utility.yul\":6367:6376   */\n              dup8\n                /* \"#utility.yul\":6363:6385   */\n              add\n                /* \"#utility.yul\":6342:6395   */\n              tag_106\n              jump\t// in\n            tag_212:\n                /* \"#utility.yul\":6332:6395   */\n              swap4\n              pop\n                /* \"#utility.yul\":6288:6405   */\n              pop\n                /* \"#utility.yul\":6472:6474   */\n              0x20\n                /* \"#utility.yul\":6461:6470   */\n              dup5\n                /* \"#utility.yul\":6457:6475   */\n              add\n                /* \"#utility.yul\":6444:6476   */\n              calldataload\n                /* \"#utility.yul\":6503:6521   */\n              0xffffffffffffffff\n                /* \"#utility.yul\":6495:6501   */\n              dup2\n                /* \"#utility.yul\":6492:6522   */\n              gt\n                /* \"#utility.yul\":6489:6606   */\n              iszero\n              tag_213\n              jumpi\n                /* \"#utility.yul\":6525:6604   */\n              tag_214\n              tag_102\n              jump\t// in\n            tag_214:\n                /* \"#utility.yul\":6489:6606   */\n            tag_213:\n                /* \"#utility.yul\":6638:6718   */\n              tag_215\n                /* \"#utility.yul\":6710:6717   */\n              dup7\n                /* \"#utility.yul\":6701:6707   */\n              dup3\n                /* \"#utility.yul\":6690:6699   */\n              dup8\n                /* \"#utility.yul\":6686:6708   */\n              add\n                /* \"#utility.yul\":6638:6718   */\n              tag_124\n              jump\t// in\n            tag_215:\n                /* \"#utility.yul\":6620:6718   */\n              swap3\n              pop\n              swap3\n              pop\n                /* \"#utility.yul\":6415:6728   */\n              pop\n                /* \"#utility.yul\":6031:6735   */\n              swap3\n              pop\n              swap3\n              pop\n              swap3\n              jump\t// out\n                /* \"#utility.yul\":6741:7215   */\n            tag_30:\n                /* \"#utility.yul\":6809:6815   */\n              0x00\n                /* \"#utility.yul\":6817:6823   */\n              dup1\n                /* \"#utility.yul\":6866:6868   */\n              0x40\n                /* \"#utility.yul\":6854:6863   */\n              dup4\n                /* \"#utility.yul\":6845:6852   */\n              dup6\n                /* \"#utility.yul\":6841:6864   */\n              sub\n                /* \"#utility.yul\":6837:6869   */\n              slt\n                /* \"#utility.yul\":6834:6953   */\n              iszero\n              tag_217\n              jumpi\n                /* \"#utility.yul\":6872:6951   */\n              tag_218\n              tag_101\n              jump\t// in\n            tag_218:\n                /* \"#utility.yul\":6834:6953   */\n            tag_217:\n                /* \"#utility.yul\":6992:6993   */\n              0x00\n                /* \"#utility.yul\":7017:7070   */\n              tag_219\n                /* \"#utility.yul\":7062:7069   */\n              dup6\n                /* \"#utility.yul\":7053:7059   */\n              dup3\n                /* \"#utility.yul\":7042:7051   */\n              dup7\n                /* \"#utility.yul\":7038:7060   */\n              add\n                /* \"#utility.yul\":7017:7070   */\n              tag_106\n              jump\t// in\n            tag_219:\n                /* \"#utility.yul\":7007:7070   */\n              swap3\n              pop\n                /* \"#utility.yul\":6963:7080   */\n              pop\n                /* \"#utility.yul\":7119:7121   */\n              0x20\n                /* \"#utility.yul\":7145:7198   */\n              tag_220\n                /* \"#utility.yul\":7190:7197   */\n              dup6\n                /* \"#utility.yul\":7181:7187   */\n              dup3\n                /* \"#utility.yul\":7170:7179   */\n              dup7\n                /* \"#utility.yul\":7166:7188   */\n              add\n                /* \"#utility.yul\":7145:7198   */\n              tag_109\n              jump\t// in\n            tag_220:\n                /* \"#utility.yul\":7135:7198   */\n              swap2\n              pop\n                /* \"#utility.yul\":7090:7208   */\n              pop\n                /* \"#utility.yul\":6741:7215   */\n              swap3\n              pop\n              swap3\n              swap1\n              pop\n              jump\t// out\n                /* \"#utility.yul\":7234:7786   */\n            tag_125:\n                /* \"#utility.yul\":7291:7299   */\n              0x00\n                /* \"#utility.yul\":7301:7307   */\n              dup1\n                /* \"#utility.yul\":7351:7354   */\n              dup4\n                /* \"#utility.yul\":7344:7348   */\n              0x1f\n                /* \"#utility.yul\":7336:7342   */\n              dup5\n                /* \"#utility.yul\":7332:7349   */\n              add\n                /* \"#utility.yul\":7328:7355   */\n              slt\n                /* \"#utility.yul\":7318:7440   */\n              tag_222\n              jumpi\n                /* \"#utility.yul\":7359:7438   */\n              tag_223\n              tag_110\n              jump\t// in\n            tag_223:\n                /* \"#utility.yul\":7318:7440   */\n            tag_222:\n                /* \"#utility.yul\":7472:7478   */\n              dup3\n                /* \"#utility.yul\":7459:7479   */\n              calldataload\n                /* \"#utility.yul\":7449:7479   */\n              swap1\n              pop\n                /* \"#utility.yul\":7502:7520   */\n              0xffffffffffffffff\n                /* \"#utility.yul\":7494:7500   */\n              dup2\n                /* \"#utility.yul\":7491:7521   */\n              gt\n                /* \"#utility.yul\":7488:7605   */\n              iszero\n              tag_224\n              jumpi\n                /* \"#utility.yul\":7524:7603   */\n              tag_225\n              tag_122\n              jump\t// in\n            tag_225:\n                /* \"#utility.yul\":7488:7605   */\n            tag_224:\n                /* \"#utility.yul\":7638:7642   */\n              0x20\n                /* \"#utility.yul\":7630:7636   */\n              dup4\n                /* \"#utility.yul\":7626:7643   */\n              add\n                /* \"#utility.yul\":7614:7643   */\n              swap2\n              pop\n                /* \"#utility.yul\":7692:7695   */\n              dup4\n                /* \"#utility.yul\":7684:7688   */\n              0x01\n                /* \"#utility.yul\":7676:7682   */\n              dup3\n                /* \"#utility.yul\":7672:7689   */\n              mul\n                /* \"#utility.yul\":7662:7670   */\n              dup4\n                /* \"#utility.yul\":7658:7690   */\n              add\n                /* \"#utility.yul\":7655:7696   */\n              gt\n                /* \"#utility.yul\":7652:7780   */\n              iszero\n              tag_226\n              jumpi\n                /* \"#utility.yul\":7699:7778   */\n              tag_227\n              tag_123\n              jump\t// in\n            tag_227:\n                /* \"#utility.yul\":7652:7780   */\n            tag_226:\n                /* \"#utility.yul\":7234:7786   */\n              swap3\n              pop\n              swap3\n              swap1\n              pop\n              jump\t// out\n                /* \"#utility.yul\":7792:8464   */\n            tag_34:\n                /* \"#utility.yul\":7871:7877   */\n              0x00\n                /* \"#utility.yul\":7879:7885   */\n              dup1\n                /* \"#utility.yul\":7887:7893   */\n              0x00\n                /* \"#utility.yul\":7936:7938   */\n              0x40\n                /* \"#utility.yul\":7924:7933   */\n              dup5\n                /* \"#utility.yul\":7915:7922   */\n              dup7\n                /* \"#utility.yul\":7911:7934   */\n              sub\n                /* \"#utility.yul\":7907:7939   */\n              slt\n                /* \"#utility.yul\":7904:8023   */\n              iszero\n              tag_229\n              jumpi\n                /* \"#utility.yul\":7942:8021   */\n              tag_230\n              tag_101\n              jump\t// in\n            tag_230:\n                /* \"#utility.yul\":7904:8023   */\n            tag_229:\n                /* \"#utility.yul\":8062:8063   */\n              0x00\n                /* \"#utility.yul\":8087:8140   */\n              tag_231\n                /* \"#utility.yul\":8132:8139   */\n              dup7\n                /* \"#utility.yul\":8123:8129   */\n              dup3\n                /* \"#utility.yul\":8112:8121   */\n              dup8\n                /* \"#utility.yul\":8108:8130   */\n              add\n                /* \"#utility.yul\":8087:8140   */\n              tag_106\n              jump\t// in\n            tag_231:\n                /* \"#utility.yul\":8077:8140   */\n              swap4\n              pop\n                /* \"#utility.yul\":8033:8150   */\n              pop\n                /* \"#utility.yul\":8217:8219   */\n              0x20\n                /* \"#utility.yul\":8206:8215   */\n              dup5\n                /* \"#utility.yul\":8202:8220   */\n              add\n                /* \"#utility.yul\":8189:8221   */\n              calldataload\n                /* \"#utility.yul\":8248:8266   */\n              0xffffffffffffffff\n                /* \"#utility.yul\":8240:8246   */\n              dup2\n                /* \"#utility.yul\":8237:8267   */\n              gt\n                /* \"#utility.yul\":8234:8351   */\n              iszero\n              tag_232\n              jumpi\n                /* \"#utility.yul\":8270:8349   */\n              tag_233\n              tag_102\n              jump\t// in\n            tag_233:\n                /* \"#utility.yul\":8234:8351   */\n            tag_232:\n                /* \"#utility.yul\":8383:8447   */\n              tag_234\n                /* \"#utility.yul\":8439:8446   */\n              dup7\n                /* \"#utility.yul\":8430:8436   */\n              dup3\n                /* \"#utility.yul\":8419:8428   */\n              dup8\n                /* \"#utility.yul\":8415:8437   */\n              add\n                /* \"#utility.yul\":8383:8447   */\n              tag_125\n              jump\t// in\n            tag_234:\n                /* \"#utility.yul\":8365:8447   */\n              swap3\n              pop\n              swap3\n              pop\n                /* \"#utility.yul\":8160:8457   */\n              pop\n                /* \"#utility.yul\":7792:8464   */\n              swap3\n              pop\n              swap3\n              pop\n              swap3\n              jump\t// out\n                /* \"#utility.yul\":8470:8584   */\n            tag_126:\n                /* \"#utility.yul\":8537:8543   */\n              0x00\n                /* \"#utility.yul\":8571:8576   */\n              dup2\n                /* \"#utility.yul\":8565:8577   */\n              mload\n                /* \"#utility.yul\":8555:8577   */\n              swap1\n              pop\n                /* \"#utility.yul\":8470:8584   */\n              swap2\n              swap1\n              pop\n              jump\t// out\n                /* \"#utility.yul\":8590:8774   */\n            tag_127:\n                /* \"#utility.yul\":8689:8700   */\n              0x00\n                /* \"#utility.yul\":8723:8729   */\n              dup3\n                /* \"#utility.yul\":8718:8721   */\n              dup3\n                /* \"#utility.yul\":8711:8730   */\n              mstore\n                /* \"#utility.yul\":8763:8767   */\n              0x20\n                /* \"#utility.yul\":8758:8761   */\n              dup3\n                /* \"#utility.yul\":8754:8768   */\n              add\n                /* \"#utility.yul\":8739:8768   */\n              swap1\n              pop\n                /* \"#utility.yul\":8590:8774   */\n              swap3\n              swap2\n              pop\n              pop\n              jump\t// out\n                /* \"#utility.yul\":8780:8912   */\n            tag_128:\n                /* \"#utility.yul\":8847:8851   */\n              0x00\n                /* \"#utility.yul\":8870:8873   */\n              dup2\n                /* \"#utility.yul\":8862:8873   */\n              swap1\n              pop\n                /* \"#utility.yul\":8900:8904   */\n              0x20\n                /* \"#utility.yul\":8895:8898   */\n              dup3\n                /* \"#utility.yul\":8891:8905   */\n              add\n                /* \"#utility.yul\":8883:8905   */\n              swap1\n              pop\n                /* \"#utility.yul\":8780:8912   */\n              swap2\n              swap1\n              pop\n              jump\t// out\n                /* \"#utility.yul\":8918:9026   */\n            tag_129:\n                /* \"#utility.yul\":8995:9019   */\n              tag_239\n                /* \"#utility.yul\":9013:9018   */\n              dup2\n                /* \"#utility.yul\":8995:9019   */\n              tag_107\n              jump\t// in\n            tag_239:\n                /* \"#utility.yul\":8990:8993   */\n              dup3\n                /* \"#utility.yul\":8983:9020   */\n              mstore\n                /* \"#utility.yul\":8918:9026   */\n              pop\n              pop\n              jump\t// out\n                /* \"#utility.yul\":9032:9211   */\n            tag_130:\n                /* \"#utility.yul\":9101:9111   */\n              0x00\n                /* \"#utility.yul\":9122:9168   */\n              tag_241\n                /* \"#utility.yul\":9164:9167   */\n              dup4\n                /* \"#utility.yul\":9156:9162   */\n              dup4\n                /* \"#utility.yul\":9122:9168   */\n              tag_129\n              jump\t// in\n            tag_241:\n                /* \"#utility.yul\":9200:9204   */\n              0x20\n                /* \"#utility.yul\":9195:9198   */\n              dup4\n                /* \"#utility.yul\":9191:9205   */\n              add\n                /* \"#utility.yul\":9177:9205   */\n              swap1\n              pop\n                /* \"#utility.yul\":9032:9211   */\n              swap3\n              swap2\n              pop\n              pop\n              jump\t// out\n                /* \"#utility.yul\":9217:9330   */\n            tag_131:\n                /* \"#utility.yul\":9287:9291   */\n              0x00\n                /* \"#utility.yul\":9319:9323   */\n              0x20\n                /* \"#utility.yul\":9314:9317   */\n              dup3\n                /* \"#utility.yul\":9310:9324   */\n              add\n                /* \"#utility.yul\":9302:9324   */\n              swap1\n              pop\n                /* \"#utility.yul\":9217:9330   */\n              swap2\n              swap1\n              pop\n              jump\t// out\n                /* \"#utility.yul\":9366:10098   */\n            tag_132:\n                /* \"#utility.yul\":9485:9488   */\n              0x00\n                /* \"#utility.yul\":9514:9568   */\n              tag_244\n                /* \"#utility.yul\":9562:9567   */\n              dup3\n                /* \"#utility.yul\":9514:9568   */\n              tag_126\n              jump\t// in\n            tag_244:\n                /* \"#utility.yul\":9584:9670   */\n              tag_245\n                /* \"#utility.yul\":9663:9669   */\n              dup2\n                /* \"#utility.yul\":9658:9661   */\n              dup6\n                /* \"#utility.yul\":9584:9670   */\n              tag_127\n              jump\t// in\n            tag_245:\n                /* \"#utility.yul\":9577:9670   */\n              swap4\n              pop\n                /* \"#utility.yul\":9694:9750   */\n              tag_246\n                /* \"#utility.yul\":9744:9749   */\n              dup4\n                /* \"#utility.yul\":9694:9750   */\n              tag_128\n              jump\t// in\n            tag_246:\n                /* \"#utility.yul\":9773:9780   */\n              dup1\n                /* \"#utility.yul\":9804:9805   */\n              0x00\n                /* \"#utility.yul\":9789:10073   */\n            tag_247:\n                /* \"#utility.yul\":9814:9820   */\n              dup4\n                /* \"#utility.yul\":9811:9812   */\n              dup2\n                /* \"#utility.yul\":9808:9821   */\n              lt\n                /* \"#utility.yul\":9789:10073   */\n              iszero\n              tag_249\n              jumpi\n                /* \"#utility.yul\":9890:9896   */\n              dup2\n                /* \"#utility.yul\":9884:9897   */\n              mload\n                /* \"#utility.yul\":9917:9980   */\n              tag_250\n                /* \"#utility.yul\":9976:9979   */\n              dup9\n                /* \"#utility.yul\":9961:9974   */\n              dup3\n                /* \"#utility.yul\":9917:9980   */\n              tag_130\n              jump\t// in\n            tag_250:\n                /* \"#utility.yul\":9910:9980   */\n              swap8\n              pop\n                /* \"#utility.yul\":10003:10063   */\n              tag_251\n                /* \"#utility.yul\":10056:10062   */\n              dup4\n                /* \"#utility.yul\":10003:10063   */\n              tag_131\n              jump\t// in\n            tag_251:\n                /* \"#utility.yul\":9993:10063   */\n              swap3\n              pop\n                /* \"#utility.yul\":9849:10073   */\n              pop\n                /* \"#utility.yul\":9836:9837   */\n              0x01\n                /* \"#utility.yul\":9833:9834   */\n              dup2\n                /* \"#utility.yul\":9829:9838   */\n              add\n                /* \"#utility.yul\":9824:9838   */\n              swap1\n              pop\n                /* \"#utility.yul\":9789:10073   */\n              jump(tag_247)\n            tag_249:\n                /* \"#utility.yul\":9793:9807   */\n              pop\n                /* \"#utility.yul\":10089:10092   */\n              dup6\n                /* \"#utility.yul\":10082:10092   */\n              swap4\n              pop\n                /* \"#utility.yul\":9490:10098   */\n              pop\n              pop\n              pop\n                /* \"#utility.yul\":9366:10098   */\n              swap3\n              swap2\n              pop\n              pop\n              jump\t// out\n                /* \"#utility.yul\":10104:10477   */\n            tag_41:\n                /* \"#utility.yul\":10247:10251   */\n              0x00\n                /* \"#utility.yul\":10285:10287   */\n              0x20\n                /* \"#utility.yul\":10274:10283   */\n              dup3\n                /* \"#utility.yul\":10270:10288   */\n              add\n                /* \"#utility.yul\":10262:10288   */\n              swap1\n              pop\n                /* \"#utility.yul\":10334:10343   */\n              dup2\n                /* \"#utility.yul\":10328:10332   */\n              dup2\n                /* \"#utility.yul\":10324:10344   */\n              sub\n                /* \"#utility.yul\":10320:10321   */\n              0x00\n                /* \"#utility.yul\":10309:10318   */\n              dup4\n                /* \"#utility.yul\":10305:10322   */\n              add\n                /* \"#utility.yul\":10298:10345   */\n              mstore\n                /* \"#utility.yul\":10362:10470   */\n              tag_253\n                /* \"#utility.yul\":10465:10469   */\n              dup2\n                /* \"#utility.yul\":10456:10462   */\n              dup5\n                /* \"#utility.yul\":10362:10470   */\n              tag_132\n              jump\t// in\n            tag_253:\n                /* \"#utility.yul\":10354:10470   */\n              swap1\n              pop\n                /* \"#utility.yul\":10104:10477   */\n              swap3\n              swap2\n              pop\n              pop\n              jump\t// out\n                /* \"#utility.yul\":10483:10601   */\n            tag_133:\n                /* \"#utility.yul\":10570:10594   */\n              tag_255\n                /* \"#utility.yul\":10588:10593   */\n              dup2\n                /* \"#utility.yul\":10570:10594   */\n              tag_104\n              jump\t// in\n            tag_255:\n                /* \"#utility.yul\":10565:10568   */\n              dup3\n                /* \"#utility.yul\":10558:10595   */\n              mstore\n                /* \"#utility.yul\":10483:10601   */\n              pop\n              pop\n              jump\t// out\n                /* \"#utility.yul\":10607:10829   */\n            tag_46:\n                /* \"#utility.yul\":10700:10704   */\n              0x00\n                /* \"#utility.yul\":10738:10740   */\n              0x20\n                /* \"#utility.yul\":10727:10736   */\n              dup3\n                /* \"#utility.yul\":10723:10741   */\n              add\n                /* \"#utility.yul\":10715:10741   */\n              swap1\n              pop\n                /* \"#utility.yul\":10751:10822   */\n              tag_257\n                /* \"#utility.yul\":10819:10820   */\n              0x00\n                /* \"#utility.yul\":10808:10817   */\n              dup4\n                /* \"#utility.yul\":10804:10821   */\n              add\n                /* \"#utility.yul\":10795:10801   */\n              dup5\n                /* \"#utility.yul\":10751:10822   */\n              tag_133\n              jump\t// in\n            tag_257:\n                /* \"#utility.yul\":10607:10829   */\n              swap3\n              swap2\n              pop\n              pop\n              jump\t// out\n                /* \"#utility.yul\":10835:11015   */\n            tag_57:\n                /* \"#utility.yul\":10883:10960   */\n              0x4e487b7100000000000000000000000000000000000000000000000000000000\n                /* \"#utility.yul\":10880:10881   */\n              0x00\n                /* \"#utility.yul\":10873:10961   */\n              mstore\n                /* \"#utility.yul\":10980:10984   */\n              0x32\n                /* \"#utility.yul\":10977:10978   */\n              0x04\n                /* \"#utility.yul\":10970:10985   */\n              mstore\n                /* \"#utility.yul\":11004:11008   */\n              0x24\n                /* \"#utility.yul\":11001:11002   */\n              0x00\n                /* \"#utility.yul\":10994:11009   */\n              revert\n                /* \"#utility.yul\":11021:11139   */\n            tag_134:\n                /* \"#utility.yul\":11108:11132   */\n              tag_260\n                /* \"#utility.yul\":11126:11131   */\n              dup2\n                /* \"#utility.yul\":11108:11132   */\n              tag_107\n              jump\t// in\n            tag_260:\n                /* \"#utility.yul\":11103:11106   */\n              dup3\n                /* \"#utility.yul\":11096:11133   */\n              mstore\n                /* \"#utility.yul\":11021:11139   */\n              pop\n              pop\n              jump\t// out\n                /* \"#utility.yul\":11145:11587   */\n            tag_59:\n                /* \"#utility.yul\":11294:11298   */\n              0x00\n                /* \"#utility.yul\":11332:11334   */\n              0x60\n                /* \"#utility.yul\":11321:11330   */\n              dup3\n                /* \"#utility.yul\":11317:11335   */\n              add\n                /* \"#utility.yul\":11309:11335   */\n              swap1\n              pop\n                /* \"#utility.yul\":11345:11416   */\n              tag_262\n                /* \"#utility.yul\":11413:11414   */\n              0x00\n                /* \"#utility.yul\":11402:11411   */\n              dup4\n                /* \"#utility.yul\":11398:11415   */\n              add\n                /* \"#utility.yul\":11389:11395   */\n              dup7\n                /* \"#utility.yul\":11345:11416   */\n              tag_133\n              jump\t// in\n            tag_262:\n                /* \"#utility.yul\":11426:11498   */\n              tag_263\n                /* \"#utility.yul\":11494:11496   */\n              0x20\n                /* \"#utility.yul\":11483:11492   */\n              dup4\n                /* \"#utility.yul\":11479:11497   */\n              add\n                /* \"#utility.yul\":11470:11476   */\n              dup6\n                /* \"#utility.yul\":11426:11498   */\n              tag_133\n              jump\t// in\n            tag_263:\n                /* \"#utility.yul\":11508:11580   */\n              tag_264\n                /* \"#utility.yul\":11576:11578   */\n              0x40\n                /* \"#utility.yul\":11565:11574   */\n              dup4\n                /* \"#utility.yul\":11561:11579   */\n              add\n                /* \"#utility.yul\":11552:11558   */\n              dup5\n                /* \"#utility.yul\":11508:11580   */\n              tag_134\n              jump\t// in\n            tag_264:\n                /* \"#utility.yul\":11145:11587   */\n              swap5\n              swap4\n              pop\n              pop\n              pop\n              pop\n              jump\t// out\n                /* \"#utility.yul\":11593:11773   */\n            tag_135:\n                /* \"#utility.yul\":11641:11718   */\n              0x4e487b7100000000000000000000000000000000000000000000000000000000\n                /* \"#utility.yul\":11638:11639   */\n              0x00\n                /* \"#utility.yul\":11631:11719   */\n              mstore\n                /* \"#utility.yul\":11738:11742   */\n              0x11\n                /* \"#utility.yul\":11735:11736   */\n              0x04\n                /* \"#utility.yul\":11728:11743   */\n              mstore\n                /* \"#utility.yul\":11762:11766   */\n              0x24\n                /* \"#utility.yul\":11759:11760   */\n              0x00\n                /* \"#utility.yul\":11752:11767   */\n              revert\n                /* \"#utility.yul\":11779:12012   */\n            tag_64:\n                /* \"#utility.yul\":11818:11821   */\n              0x00\n                /* \"#utility.yul\":11841:11865   */\n              tag_267\n                /* \"#utility.yul\":11859:11864   */\n              dup3\n                /* \"#utility.yul\":11841:11865   */\n              tag_107\n              jump\t// in\n            tag_267:\n                /* \"#utility.yul\":11832:11865   */\n              swap2\n              pop\n                /* \"#utility.yul\":11887:11953   */\n              0xffffffffffffffffffffffffffffffffffffffffffffffffffffffffffffffff\n                /* \"#utility.yul\":11880:11885   */\n              dup3\n                /* \"#utility.yul\":11877:11954   */\n              sub\n                /* \"#utility.yul\":11874:11977   */\n              tag_268\n              jumpi\n                /* \"#utility.yul\":11957:11975   */\n              tag_269\n              tag_135\n              jump\t// in\n            tag_269:\n                /* \"#utility.yul\":11874:11977   */\n            tag_268:\n                /* \"#utility.yul\":12004:12005   */\n              0x01\n                /* \"#utility.yul\":11997:12002   */\n              dup3\n                /* \"#utility.yul\":11993:12006   */\n              add\n                /* \"#utility.yul\":11986:12006   */\n              swap1\n              pop\n                /* \"#utility.yul\":11779:12012   */\n              swap2\n              swap1\n              pop\n              jump\t// out\n                /* \"#utility.yul\":12018:12165   */\n            tag_136:\n                /* \"#utility.yul\":12119:12130   */\n              0x00\n                /* \"#utility.yul\":12156:12159   */\n              dup2\n                /* \"#utility.yul\":12141:12159   */\n              swap1\n              pop\n                /* \"#utility.yul\":12018:12165   */\n              swap3\n              swap2\n              pop\n              pop\n              jump\t// out\n                /* \"#utility.yul\":12193:12520   */\n            tag_137:\n                /* \"#utility.yul\":12307:12310   */\n              0x00\n                /* \"#utility.yul\":12328:12416   */\n              tag_272\n                /* \"#utility.yul\":12409:12415   */\n              dup4\n                /* \"#utility.yul\":12404:12407   */\n              dup6\n                /* \"#utility.yul\":12328:12416   */\n              tag_136\n              jump\t// in\n            tag_272:\n                /* \"#utility.yul\":12321:12416   */\n              swap4\n              pop\n                /* \"#utility.yul\":12426:12482   */\n              tag_273\n                /* \"#utility.yul\":12475:12481   */\n              dup4\n                /* \"#utility.yul\":12470:12473   */\n              dup6\n                /* \"#utility.yul\":12463:12468   */\n              dup5\n                /* \"#utility.yul\":12426:12482   */\n              tag_117\n              jump\t// in\n            tag_273:\n                /* \"#utility.yul\":12507:12513   */\n              dup3\n                /* \"#utility.yul\":12502:12505   */\n              dup5\n                /* \"#utility.yul\":12498:12514   */\n              add\n                /* \"#utility.yul\":12491:12514   */\n              swap1\n              pop\n                /* \"#utility.yul\":12193:12520   */\n              swap4\n              swap3\n              pop\n              pop\n              pop\n              jump\t// out\n                /* \"#utility.yul\":12526:12817   */\n            tag_87:\n                /* \"#utility.yul\":12666:12669   */\n              0x00\n                /* \"#utility.yul\":12688:12791   */\n              tag_275\n                /* \"#utility.yul\":12787:12790   */\n              dup3\n                /* \"#utility.yul\":12778:12784   */\n              dup5\n                /* \"#utility.yul\":12770:12776   */\n              dup7\n                /* \"#utility.yul\":12688:12791   */\n              tag_137\n              jump\t// in\n            tag_275:\n                /* \"#utility.yul\":12681:12791   */\n              swap2\n              pop\n                /* \"#utility.yul\":12808:12811   */\n              dup2\n                /* \"#utility.yul\":12801:12811   */\n              swap1\n              pop\n                /* \"#utility.yul\":12526:12817   */\n              swap4\n              swap3\n              pop\n              pop\n              pop\n              jump\t// out\n\n            auxdata: 0xa26469706673582212204d02627411bce4024d948153d65754ad9e9458d2983ff3a468640116b183eba164736f6c63430008110033\n        }\n    }\n\n    auxdata: 0xa2646970667358221220da477f2550394dc8df89dcd01e4640bed72c231fd2297cbfe3297a0ea84e8d1164736f6c63430008110033\n}\n",
				"bytecode": {
					"linkReferences": {},
					"object": "608060405260006003553480156200001657600080fd5b506040516200313e3803806200313e83398181016040528101906200003c9190620001da565b6200005c62000050620000a460201b60201c565b620000ac60201b60201c565b80600160006101000a81548173ffffffffffffffffffffffffffffffffffffffff021916908373ffffffffffffffffffffffffffffffffffffffff160217905550506200020c565b600033905090565b60008060009054906101000a900473ffffffffffffffffffffffffffffffffffffffff169050816000806101000a81548173ffffffffffffffffffffffffffffffffffffffff021916908373ffffffffffffffffffffffffffffffffffffffff1602179055508173ffffffffffffffffffffffffffffffffffffffff168173ffffffffffffffffffffffffffffffffffffffff167f8be0079c531659141344cd1fd0a4f28419497f9722a3daafe3b4186f6b6457e060405160405180910390a35050565b600080fd5b600073ffffffffffffffffffffffffffffffffffffffff82169050919050565b6000620001a28262000175565b9050919050565b620001b48162000195565b8114620001c057600080fd5b50565b600081519050620001d481620001a9565b92915050565b600060208284031215620001f357620001f262000170565b5b60006200020384828501620001c3565b91505092915050565b612f22806200021c6000396000f3fe608060405260043610620001225760003560e01c80638da5cb5b11620000a3578063b1d95a5c116200006d578063b1d95a5c14620003db578063c6046f771462000409578063f2fde38b1462000437578063f4bbc5681462000465578063f851a44014620004855762000122565b80638da5cb5b146200030b57806394d008ef146200033b578063a5e387511462000369578063b0eb1c9e14620003975762000122565b80635a0f100111620000f15780635a0f1001146200020d5780635f24be25146200023b578063715018a6146200027f57806373738a9d14620002995780638623ec7b14620002c75762000122565b8063150b7a02146200012757806317b87dbb146200016b5780632aca6cea146200019b5780634e702ab314620001df575b600080fd5b3480156200013457600080fd5b506200015360048036038101906200014d91906200138c565b620004b5565b6040516200016291906200145a565b60405180910390f35b3480156200017857600080fd5b5062000183620004d0565b60405162000192919062001488565b60405180910390f35b348015620001a857600080fd5b50620001c76004803603810190620001c19190620014a5565b620004da565b604051620001d6919062001488565b60405180910390f35b348015620001ec57600080fd5b506200020b6004803603810190620002059190620014a5565b6200059b565b005b3480156200021a57600080fd5b50620002396004803603810190620002339190620014ec565b62000664565b005b3480156200024857600080fd5b50620002676004803603810190620002619190620014a5565b62000731565b60405162000276919062001616565b60405180910390f35b3480156200028c57600080fd5b5062000297620007f2565b005b348015620002a657600080fd5b50620002c56004803603810190620002bf9190620016a3565b6200080a565b005b348015620002d457600080fd5b50620002f36004803603810190620002ed91906200170d565b620008ec565b60405162000302919062001750565b60405180910390f35b3480156200031857600080fd5b50620003236200091f565b60405162000332919062001750565b60405180910390f35b3480156200034857600080fd5b50620003676004803603810190620003619190620017cc565b62000948565b005b3480156200037657600080fd5b506200039560048036038101906200038f91906200170d565b620009f0565b005b348015620003a457600080fd5b50620003c36004803603810190620003bd9190620014ec565b62000afd565b604051620003d2919062001869565b60405180910390f35b348015620003e857600080fd5b5062000407600480360381019062000401919062001886565b62000c00565b005b3480156200041657600080fd5b506200043560048036038101906200042f9190620017cc565b62000cac565b005b3480156200044457600080fd5b506200046360048036038101906200045d919062001906565b62000deb565b005b6200048360048036038101906200047d9190620017cc565b62000e75565b005b3480156200049257600080fd5b506200049d62000f58565b604051620004ac919062001750565b60405180910390f35b60008260048190555063150b7a0260e01b9050949350505050565b6000600354905090565b6000808390508073ffffffffffffffffffffffffffffffffffffffff166370a082316002600086815260200190815260200160002060009054906101000a900473ffffffffffffffffffffffffffffffffffffffff166040518263ffffffff1660e01b81526004016200054e919062001750565b602060405180830381865afa1580156200056c573d6000803e3d6000fd5b505050506040513d601f19601f820116820180604052508101906200059291906200194f565b91505092915050565b60005b818110156200065f576002600082815260200190815260200160002060009054906101000a900473ffffffffffffffffffffffffffffffffffffffff1673ffffffffffffffffffffffffffffffffffffffff16631a695230846040518263ffffffff1660e01b815260040162000615919062001750565b600060405180830381600087803b1580156200063057600080fd5b505af115801562000645573d6000803e3d6000fd5b5050505080806200065690620019b0565b9150506200059e565b505050565b60008290505b818110156200072b576002600082815260200190815260200160002060009054906101000a900473ffffffffffffffffffffffffffffffffffffffff1673ffffffffffffffffffffffffffffffffffffffff16631a695230856040518263ffffffff1660e01b8152600401620006e1919062001750565b600060405180830381600087803b158015620006fc57600080fd5b505af115801562000711573d6000803e3d6000fd5b5050505080806200072290620019b0565b9150506200066a565b50505050565b60606002600083815260200190815260200160002060009054906101000a900473ffffffffffffffffffffffffffffffffffffffff1673ffffffffffffffffffffffffffffffffffffffff1663c57a1166846040518263ffffffff1660e01b8152600401620007a1919062001750565b600060405180830381865afa158015620007bf573d6000803e3d6000fd5b505050506040513d6000823e3d601f19601f82011682018060405250810190620007ea919062001ad3565b905092915050565b620007fc62000f7e565b62000808600062001003565b565b600082829050905060005b81811015620008e5578473ffffffffffffffffffffffffffffffffffffffff166323b872dd30600160009054906101000a900473ffffffffffffffffffffffffffffffffffffffff1687878681811062000874576200087362001b24565b5b905060200201356040518463ffffffff1660e01b81526004016200089b9392919062001b53565b600060405180830381600087803b158015620008b657600080fd5b505af1158015620008cb573d6000803e3d6000fd5b505050508080620008dc90620019b0565b91505062000815565b5050505050565b60026020528060005260406000206000915054906101000a900473ffffffffffffffffffffffffffffffffffffffff1681565b60008060009054906101000a900473ffffffffffffffffffffffffffffffffffffffff16905090565b60005b83811015620009e95760008573ffffffffffffffffffffffffffffffffffffffff1684846040516200097f92919062001bc4565b6000604051808303816000865af19150503d8060008114620009be576040519150601f19603f3d011682016040523d82523d6000602084013e620009c3565b606091505b5050905080620009d257600080fd5b508080620009e090620019b0565b9150506200094b565b5050505050565b620009fa62000f7e565b600062000a06620010c7565b905060005b8281101562000af85760008060035490508084516020860134f59150813b62000a3357600080fd5b8160026000600354815260200190815260200160002060006101000a81548173ffffffffffffffffffffffffffffffffffffffff021916908373ffffffffffffffffffffffffffffffffffffffff1602179055506003600081548092919062000a9c90620019b0565b91905055507fb0b65434ab7a8e35e9fb03abe77a52cc1bc3664d803dc0685d76a38492e42c35823360035460405162000ad89392919062001b53565b60405180910390a15050808062000aef90620019b0565b91505062000a0b565b505050565b6000808490506002600085815260200190815260200160002060009054906101000a900473ffffffffffffffffffffffffffffffffffffffff1673ffffffffffffffffffffffffffffffffffffffff168173ffffffffffffffffffffffffffffffffffffffff16636352211e856040518263ffffffff1660e01b815260040162000b88919062001488565b602060405180830381865afa15801562000ba6573d6000803e3d6000fd5b505050506040513d601f19601f8201168201806040525081019062000bcc919062001bf6565b73ffffffffffffffffffffffffffffffffffffffff160362000bf357600191505062000bf9565b60009150505b9392505050565b6002600082815260200190815260200160002060009054906101000a900473ffffffffffffffffffffffffffffffffffffffff1673ffffffffffffffffffffffffffffffffffffffff16633e1a037c8585856040518463ffffffff1660e01b815260040162000c729392919062001c99565b600060405180830381600087803b15801562000c8d57600080fd5b505af115801562000ca2573d6000803e3d6000fd5b5050505050505050565b60005b8381101562000de45760008573ffffffffffffffffffffffffffffffffffffffff16848460405162000ce392919062001bc4565b6000604051808303816000865af19150503d806000811462000d22576040519150601f19603f3d011682016040523d82523d6000602084013e62000d27565b606091505b505090508062000d3657600080fd5b8573ffffffffffffffffffffffffffffffffffffffff166323b872dd30600160009054906101000a900473ffffffffffffffffffffffffffffffffffffffff166004546040518463ffffffff1660e01b815260040162000d999392919062001b53565b600060405180830381600087803b15801562000db457600080fd5b505af115801562000dc9573d6000803e3d6000fd5b5050505050808062000ddb90620019b0565b91505062000caf565b5050505050565b62000df562000f7e565b600073ffffffffffffffffffffffffffffffffffffffff168173ffffffffffffffffffffffffffffffffffffffff160362000e67576040517f08c379a000000000000000000000000000000000000000000000000000000000815260040162000e5e9062001d56565b60405180910390fd5b62000e728162001003565b50565b6000833462000e85919062001da7565b905060005b8481101562000f50576002600082815260200190815260200160002060009054906101000a900473ffffffffffffffffffffffffffffffffffffffff1673ffffffffffffffffffffffffffffffffffffffff1663b510391f838887876040518563ffffffff1660e01b815260040162000f069392919062001e23565b6000604051808303818588803b15801562000f2057600080fd5b505af115801562000f35573d6000803e3d6000fd5b5050505050808062000f4790620019b0565b91505062000e8a565b505050505050565b600160009054906101000a900473ffffffffffffffffffffffffffffffffffffffff1681565b62000f8862001160565b73ffffffffffffffffffffffffffffffffffffffff1662000fa86200091f565b73ffffffffffffffffffffffffffffffffffffffff161462001001576040517f08c379a000000000000000000000000000000000000000000000000000000000815260040162000ff89062001ea9565b60405180910390fd5b565b60008060009054906101000a900473ffffffffffffffffffffffffffffffffffffffff169050816000806101000a81548173ffffffffffffffffffffffffffffffffffffffff021916908373ffffffffffffffffffffffffffffffffffffffff1602179055508173ffffffffffffffffffffffffffffffffffffffff168173ffffffffffffffffffffffffffffffffffffffff167f8be0079c531659141344cd1fd0a4f28419497f9722a3daafe3b4186f6b6457e060405160405180910390a35050565b6060600060405180602001620010dd9062001168565b6020820181038252601f19601f82011660405250905080600160009054906101000a900473ffffffffffffffffffffffffffffffffffffffff1660405160200162001129919062001750565b6040516020818303038152906040526040516020016200114b92919062001f39565b60405160208183030381529060405291505090565b600033905090565b610f8b8062001f6283390190565b6000604051905090565b600080fd5b600080fd5b600073ffffffffffffffffffffffffffffffffffffffff82169050919050565b6000620011b7826200118a565b9050919050565b620011c981620011aa565b8114620011d557600080fd5b50565b600081359050620011e981620011be565b92915050565b6000819050919050565b6200120481620011ef565b81146200121057600080fd5b50565b6000813590506200122481620011f9565b92915050565b600080fd5b600080fd5b6000601f19601f8301169050919050565b7f4e487b7100000000000000000000000000000000000000000000000000000000600052604160045260246000fd5b6200127f8262001234565b810181811067ffffffffffffffff82111715620012a157620012a062001245565b5b80604052505050565b6000620012b662001176565b9050620012c4828262001274565b919050565b600067ffffffffffffffff821115620012e757620012e662001245565b5b620012f28262001234565b9050602081019050919050565b82818337600083830152505050565b6000620013256200131f84620012c9565b620012aa565b9050828152602081018484840111156200134457620013436200122f565b5b62001351848285620012ff565b509392505050565b600082601f8301126200137157620013706200122a565b5b8135620013838482602086016200130e565b91505092915050565b60008060008060808587031215620013a957620013a862001180565b5b6000620013b987828801620011d8565b9450506020620013cc87828801620011d8565b9350506040620013df8782880162001213565b925050606085013567ffffffffffffffff81111562001403576200140262001185565b5b620014118782880162001359565b91505092959194509250565b60007fffffffff0000000000000000000000000000000000000000000000000000000082169050919050565b62001454816200141d565b82525050565b600060208201905062001471600083018462001449565b92915050565b6200148281620011ef565b82525050565b60006020820190506200149f600083018462001477565b92915050565b60008060408385031215620014bf57620014be62001180565b5b6000620014cf85828601620011d8565b9250506020620014e28582860162001213565b9150509250929050565b60008060006060848603121562001508576200150762001180565b5b60006200151886828701620011d8565b93505060206200152b8682870162001213565b92505060406200153e8682870162001213565b9150509250925092565b600081519050919050565b600082825260208201905092915050565b6000819050602082019050919050565b6200157f81620011ef565b82525050565b600062001593838362001574565b60208301905092915050565b6000602082019050919050565b6000620015b98262001548565b620015c5818562001553565b9350620015d28362001564565b8060005b8381101562001609578151620015ed888262001585565b9750620015fa836200159f565b925050600181019050620015d6565b5085935050505092915050565b60006020820190508181036000830152620016328184620015ac565b905092915050565b600080fd5b600080fd5b60008083601f8401126200165d576200165c6200122a565b5b8235905067ffffffffffffffff8111156200167d576200167c6200163a565b5b6020830191508360208202830111156200169c576200169b6200163f565b5b9250929050565b600080600060408486031215620016bf57620016be62001180565b5b6000620016cf86828701620011d8565b935050602084013567ffffffffffffffff811115620016f357620016f262001185565b5b620017018682870162001644565b92509250509250925092565b60006020828403121562001726576200172562001180565b5b6000620017368482850162001213565b91505092915050565b6200174a81620011aa565b82525050565b60006020820190506200176760008301846200173f565b92915050565b60008083601f8401126200178657620017856200122a565b5b8235905067ffffffffffffffff811115620017a657620017a56200163a565b5b602083019150836001820283011115620017c557620017c46200163f565b5b9250929050565b60008060008060608587031215620017e957620017e862001180565b5b6000620017f987828801620011d8565b94505060206200180c8782880162001213565b935050604085013567ffffffffffffffff81111562001830576200182f62001185565b5b6200183e878288016200176d565b925092505092959194509250565b60008115159050919050565b62001863816200184c565b82525050565b600060208201905062001880600083018462001858565b92915050565b60008060008060608587031215620018a357620018a262001180565b5b6000620018b387828801620011d8565b945050602085013567ffffffffffffffff811115620018d757620018d662001185565b5b620018e58782880162001644565b93509350506040620018fa8782880162001213565b91505092959194509250565b6000602082840312156200191f576200191e62001180565b5b60006200192f84828501620011d8565b91505092915050565b6000815190506200194981620011f9565b92915050565b60006020828403121562001968576200196762001180565b5b6000620019788482850162001938565b91505092915050565b7f4e487b7100000000000000000000000000000000000000000000000000000000600052601160045260246000fd5b6000620019bd82620011ef565b91507fffffffffffffffffffffffffffffffffffffffffffffffffffffffffffffffff8203620019f257620019f162001981565b5b600182019050919050565b600067ffffffffffffffff82111562001a1b5762001a1a62001245565b5b602082029050602081019050919050565b600062001a4362001a3d84620019fd565b620012aa565b9050808382526020820190506020840283018581111562001a695762001a686200163f565b5b835b8181101562001a96578062001a81888262001938565b84526020840193505060208101905062001a6b565b5050509392505050565b600082601f83011262001ab85762001ab76200122a565b5b815162001aca84826020860162001a2c565b91505092915050565b60006020828403121562001aec5762001aeb62001180565b5b600082015167ffffffffffffffff81111562001b0d5762001b0c62001185565b5b62001b1b8482850162001aa0565b91505092915050565b7f4e487b7100000000000000000000000000000000000000000000000000000000600052603260045260246000fd5b600060608201905062001b6a60008301866200173f565b62001b7960208301856200173f565b62001b88604083018462001477565b949350505050565b600081905092915050565b600062001ba9838562001b90565b935062001bb8838584620012ff565b82840190509392505050565b600062001bd382848662001b9b565b91508190509392505050565b60008151905062001bf081620011be565b92915050565b60006020828403121562001c0f5762001c0e62001180565b5b600062001c1f8482850162001bdf565b91505092915050565b600080fd5b82818337505050565b600062001c44838562001553565b93507f07ffffffffffffffffffffffffffffffffffffffffffffffffffffffffffffff83111562001c7a5762001c7962001c28565b5b60208302925062001c8d83858462001c2d565b82840190509392505050565b600060408201905062001cb060008301866200173f565b818103602083015262001cc581848662001c36565b9050949350505050565b600082825260208201905092915050565b7f4f776e61626c653a206e6577206f776e657220697320746865207a65726f206160008201527f6464726573730000000000000000000000000000000000000000000000000000602082015250565b600062001d3e60268362001ccf565b915062001d4b8262001ce0565b604082019050919050565b6000602082019050818103600083015262001d718162001d2f565b9050919050565b7f4e487b7100000000000000000000000000000000000000000000000000000000600052601260045260246000fd5b600062001db482620011ef565b915062001dc183620011ef565b92508262001dd45762001dd362001d78565b5b828204905092915050565b600082825260208201905092915050565b600062001dfe838562001ddf565b935062001e0d838584620012ff565b62001e188362001234565b840190509392505050565b600060408201905062001e3a60008301866200173f565b818103602083015262001e4f81848662001df0565b9050949350505050565b7f4f776e61626c653a2063616c6c6572206973206e6f7420746865206f776e6572600082015250565b600062001e9160208362001ccf565b915062001e9e8262001e59565b602082019050919050565b6000602082019050818103600083015262001ec48162001e82565b9050919050565b600081519050919050565b60005b8381101562001ef657808201518184015260208101905062001ed9565b60008484015250505050565b600062001f0f8262001ecb565b62001f1b818562001b90565b935062001f2d81856020860162001ed6565b80840191505092915050565b600062001f47828562001f02565b915062001f55828462001f02565b9150819050939250505056fe608060405234801561001057600080fd5b5060405162000f8b38038062000f8b833981810160405281019061003491906100dd565b806000806101000a81548173ffffffffffffffffffffffffffffffffffffffff021916908373ffffffffffffffffffffffffffffffffffffffff1602179055505061010a565b600080fd5b600073ffffffffffffffffffffffffffffffffffffffff82169050919050565b60006100aa8261007f565b9050919050565b6100ba8161009f565b81146100c557600080fd5b50565b6000815190506100d7816100b1565b92915050565b6000602082840312156100f3576100f261007a565b5b6000610101848285016100c8565b91505092915050565b610e71806200011a6000396000f3fe6080604052600436106100705760003560e01c806386aaa5061161004e57806386aaa50614610104578063b510391f1461012d578063c57a116614610149578063f851a4401461018657610070565b8063150b7a02146100755780631a695230146100b25780633e1a037c146100db575b600080fd5b34801561008157600080fd5b5061009c60048036038101906100979190610940565b6101b1565b6040516100a991906109fe565b60405180910390f35b3480156100be57600080fd5b506100d960048036038101906100d49190610a19565b61022b565b005b3480156100e757600080fd5b5061010260048036038101906100fd9190610aa6565b6103db565b005b34801561011057600080fd5b5061012b60048036038101906101269190610b06565b6104fb565b005b61014760048036038101906101429190610b9c565b6105d9565b005b34801561015557600080fd5b50610170600480360381019061016b9190610a19565b610659565b60405161017d9190610cba565b60405180910390f35b34801561019257600080fd5b5061019b6106f0565b6040516101a89190610ceb565b60405180910390f35b6000600160003373ffffffffffffffffffffffffffffffffffffffff1673ffffffffffffffffffffffffffffffffffffffff16815260200190815260200160002083908060018154018082558091505060019003906000526020600020016000909190919091505563150b7a0260e01b9050949350505050565b6000600160008373ffffffffffffffffffffffffffffffffffffffff1673ffffffffffffffffffffffffffffffffffffffff1681526020019081526020016000208054806020026020016040519081016040528092919081815260200182805480156102b657602002820191906000526020600020905b8154815260200190600101908083116102a2575b5050505050905060008151905060005b8181101561038a578373ffffffffffffffffffffffffffffffffffffffff166323b872dd3060008054906101000a900473ffffffffffffffffffffffffffffffffffffffff1686858151811061031f5761031e610d06565b5b60200260200101516040518463ffffffff1660e01b815260040161034593929190610d44565b600060405180830381600087803b15801561035f57600080fd5b505af1158015610373573d6000803e3d6000fd5b50505050808061038290610daa565b9150506102c6565b50600160008473ffffffffffffffffffffffffffffffffffffffff1673ffffffffffffffffffffffffffffffffffffffff16815260200190815260200160002060006103d69190610714565b505050565b600082829050905060005b818110156104a9578473ffffffffffffffffffffffffffffffffffffffff166323b872dd3060008054906101000a900473ffffffffffffffffffffffffffffffffffffffff1687878681811061043f5761043e610d06565b5b905060200201356040518463ffffffff1660e01b815260040161046493929190610d44565b600060405180830381600087803b15801561047e57600080fd5b505af1158015610492573d6000803e3d6000fd5b5050505080806104a190610daa565b9150506103e6565b50600160008573ffffffffffffffffffffffffffffffffffffffff1673ffffffffffffffffffffffffffffffffffffffff16815260200190815260200160002060006104f59190610714565b50505050565b8173ffffffffffffffffffffffffffffffffffffffff166323b872dd3060008054906101000a900473ffffffffffffffffffffffffffffffffffffffff16846040518463ffffffff1660e01b815260040161055893929190610d44565b600060405180830381600087803b15801561057257600080fd5b505af1158015610586573d6000803e3d6000fd5b50505050600160008373ffffffffffffffffffffffffffffffffffffffff1673ffffffffffffffffffffffffffffffffffffffff16815260200190815260200160002060006105d59190610714565b5050565b60008373ffffffffffffffffffffffffffffffffffffffff16348484604051610603929190610e22565b60006040518083038185875af1925050503d8060008114610640576040519150601f19603f3d011682016040523d82523d6000602084013e610645565b606091505b505090508061065357600080fd5b50505050565b6060600160008373ffffffffffffffffffffffffffffffffffffffff1673ffffffffffffffffffffffffffffffffffffffff1681526020019081526020016000208054806020026020016040519081016040528092919081815260200182805480156106e457602002820191906000526020600020905b8154815260200190600101908083116106d0575b50505050509050919050565b60008054906101000a900473ffffffffffffffffffffffffffffffffffffffff1681565b50805460008255906000526020600020908101906107329190610735565b50565b5b8082111561074e576000816000905550600101610736565b5090565b6000604051905090565b600080fd5b600080fd5b600073ffffffffffffffffffffffffffffffffffffffff82169050919050565b600061079182610766565b9050919050565b6107a181610786565b81146107ac57600080fd5b50565b6000813590506107be81610798565b92915050565b6000819050919050565b6107d7816107c4565b81146107e257600080fd5b50565b6000813590506107f4816107ce565b92915050565b600080fd5b600080fd5b6000601f19601f8301169050919050565b7f4e487b7100000000000000000000000000000000000000000000000000000000600052604160045260246000fd5b61084d82610804565b810181811067ffffffffffffffff8211171561086c5761086b610815565b5b80604052505050565b600061087f610752565b905061088b8282610844565b919050565b600067ffffffffffffffff8211156108ab576108aa610815565b5b6108b482610804565b9050602081019050919050565b82818337600083830152505050565b60006108e36108de84610890565b610875565b9050828152602081018484840111156108ff576108fe6107ff565b5b61090a8482856108c1565b509392505050565b600082601f830112610927576109266107fa565b5b81356109378482602086016108d0565b91505092915050565b6000806000806080858703121561095a5761095961075c565b5b6000610968878288016107af565b9450506020610979878288016107af565b935050604061098a878288016107e5565b925050606085013567ffffffffffffffff8111156109ab576109aa610761565b5b6109b787828801610912565b91505092959194509250565b60007fffffffff0000000000000000000000000000000000000000000000000000000082169050919050565b6109f8816109c3565b82525050565b6000602082019050610a1360008301846109ef565b92915050565b600060208284031215610a2f57610a2e61075c565b5b6000610a3d848285016107af565b91505092915050565b600080fd5b600080fd5b60008083601f840112610a6657610a656107fa565b5b8235905067ffffffffffffffff811115610a8357610a82610a46565b5b602083019150836020820283011115610a9f57610a9e610a4b565b5b9250929050565b600080600060408486031215610abf57610abe61075c565b5b6000610acd868287016107af565b935050602084013567ffffffffffffffff811115610aee57610aed610761565b5b610afa86828701610a50565b92509250509250925092565b60008060408385031215610b1d57610b1c61075c565b5b6000610b2b858286016107af565b9250506020610b3c858286016107e5565b9150509250929050565b60008083601f840112610b5c57610b5b6107fa565b5b8235905067ffffffffffffffff811115610b7957610b78610a46565b5b602083019150836001820283011115610b9557610b94610a4b565b5b9250929050565b600080600060408486031215610bb557610bb461075c565b5b6000610bc3868287016107af565b935050602084013567ffffffffffffffff811115610be457610be3610761565b5b610bf086828701610b46565b92509250509250925092565b600081519050919050565b600082825260208201905092915050565b6000819050602082019050919050565b610c31816107c4565b82525050565b6000610c438383610c28565b60208301905092915050565b6000602082019050919050565b6000610c6782610bfc565b610c718185610c07565b9350610c7c83610c18565b8060005b83811015610cad578151610c948882610c37565b9750610c9f83610c4f565b925050600181019050610c80565b5085935050505092915050565b60006020820190508181036000830152610cd48184610c5c565b905092915050565b610ce581610786565b82525050565b6000602082019050610d006000830184610cdc565b92915050565b7f4e487b7100000000000000000000000000000000000000000000000000000000600052603260045260246000fd5b610d3e816107c4565b82525050565b6000606082019050610d596000830186610cdc565b610d666020830185610cdc565b610d736040830184610d35565b949350505050565b7f4e487b7100000000000000000000000000000000000000000000000000000000600052601160045260246000fd5b6000610db5826107c4565b91507fffffffffffffffffffffffffffffffffffffffffffffffffffffffffffffffff8203610de757610de6610d7b565b5b600182019050919050565b600081905092915050565b6000610e098385610df2565b9350610e168385846108c1565b82840190509392505050565b6000610e2f828486610dfd565b9150819050939250505056fea26469706673582212204d02627411bce4024d948153d65754ad9e9458d2983ff3a468640116b183eba164736f6c63430008110033a2646970667358221220da477f2550394dc8df89dcd01e4640bed72c231fd2297cbfe3297a0ea84e8d1164736f6c63430008110033",
					"opcodes": "PUSH1 0x80 PUSH1 0x40 MSTORE PUSH1 0x0 PUSH1 0x3 SSTORE CALLVALUE DUP1 ISZERO PUSH3 0x16 JUMPI PUSH1 0x0 DUP1 REVERT JUMPDEST POP PUSH1 0x40 MLOAD PUSH3 0x313E CODESIZE SUB DUP1 PUSH3 0x313E DUP4 CODECOPY DUP2 DUP2 ADD PUSH1 0x40 MSTORE DUP2 ADD SWAP1 PUSH3 0x3C SWAP2 SWAP1 PUSH3 0x1DA JUMP JUMPDEST PUSH3 0x5C PUSH3 0x50 PUSH3 0xA4 PUSH1 0x20 SHL PUSH1 0x20 SHR JUMP JUMPDEST PUSH3 0xAC PUSH1 0x20 SHL PUSH1 0x20 SHR JUMP JUMPDEST DUP1 PUSH1 0x1 PUSH1 0x0 PUSH2 0x100 EXP DUP2 SLOAD DUP2 PUSH20 0xFFFFFFFFFFFFFFFFFFFFFFFFFFFFFFFFFFFFFFFF MUL NOT AND SWAP1 DUP4 PUSH20 0xFFFFFFFFFFFFFFFFFFFFFFFFFFFFFFFFFFFFFFFF AND MUL OR SWAP1 SSTORE POP POP PUSH3 0x20C JUMP JUMPDEST PUSH1 0x0 CALLER SWAP1 POP SWAP1 JUMP JUMPDEST PUSH1 0x0 DUP1 PUSH1 0x0 SWAP1 SLOAD SWAP1 PUSH2 0x100 EXP SWAP1 DIV PUSH20 0xFFFFFFFFFFFFFFFFFFFFFFFFFFFFFFFFFFFFFFFF AND SWAP1 POP DUP2 PUSH1 0x0 DUP1 PUSH2 0x100 EXP DUP2 SLOAD DUP2 PUSH20 0xFFFFFFFFFFFFFFFFFFFFFFFFFFFFFFFFFFFFFFFF MUL NOT AND SWAP1 DUP4 PUSH20 0xFFFFFFFFFFFFFFFFFFFFFFFFFFFFFFFFFFFFFFFF AND MUL OR SWAP1 SSTORE POP DUP2 PUSH20 0xFFFFFFFFFFFFFFFFFFFFFFFFFFFFFFFFFFFFFFFF AND DUP2 PUSH20 0xFFFFFFFFFFFFFFFFFFFFFFFFFFFFFFFFFFFFFFFF AND PUSH32 0x8BE0079C531659141344CD1FD0A4F28419497F9722A3DAAFE3B4186F6B6457E0 PUSH1 0x40 MLOAD PUSH1 0x40 MLOAD DUP1 SWAP2 SUB SWAP1 LOG3 POP POP JUMP JUMPDEST PUSH1 0x0 DUP1 REVERT JUMPDEST PUSH1 0x0 PUSH20 0xFFFFFFFFFFFFFFFFFFFFFFFFFFFFFFFFFFFFFFFF DUP3 AND SWAP1 POP SWAP2 SWAP1 POP JUMP JUMPDEST PUSH1 0x0 PUSH3 0x1A2 DUP3 PUSH3 0x175 JUMP JUMPDEST SWAP1 POP SWAP2 SWAP1 POP JUMP JUMPDEST PUSH3 0x1B4 DUP2 PUSH3 0x195 JUMP JUMPDEST DUP2 EQ PUSH3 0x1C0 JUMPI PUSH1 0x0 DUP1 REVERT JUMPDEST POP JUMP JUMPDEST PUSH1 0x0 DUP2 MLOAD SWAP1 POP PUSH3 0x1D4 DUP2 PUSH3 0x1A9 JUMP JUMPDEST SWAP3 SWAP2 POP POP JUMP JUMPDEST PUSH1 0x0 PUSH1 0x20 DUP3 DUP5 SUB SLT ISZERO PUSH3 0x1F3 JUMPI PUSH3 0x1F2 PUSH3 0x170 JUMP JUMPDEST JUMPDEST PUSH1 0x0 PUSH3 0x203 DUP5 DUP3 DUP6 ADD PUSH3 0x1C3 JUMP JUMPDEST SWAP2 POP POP SWAP3 SWAP2 POP POP JUMP JUMPDEST PUSH2 0x2F22 DUP1 PUSH3 0x21C PUSH1 0x0 CODECOPY PUSH1 0x0 RETURN INVALID PUSH1 0x80 PUSH1 0x40 MSTORE PUSH1 0x4 CALLDATASIZE LT PUSH3 0x122 JUMPI PUSH1 0x0 CALLDATALOAD PUSH1 0xE0 SHR DUP1 PUSH4 0x8DA5CB5B GT PUSH3 0xA3 JUMPI DUP1 PUSH4 0xB1D95A5C GT PUSH3 0x6D JUMPI DUP1 PUSH4 0xB1D95A5C EQ PUSH3 0x3DB JUMPI DUP1 PUSH4 0xC6046F77 EQ PUSH3 0x409 JUMPI DUP1 PUSH4 0xF2FDE38B EQ PUSH3 0x437 JUMPI DUP1 PUSH4 0xF4BBC568 EQ PUSH3 0x465 JUMPI DUP1 PUSH4 0xF851A440 EQ PUSH3 0x485 JUMPI PUSH3 0x122 JUMP JUMPDEST DUP1 PUSH4 0x8DA5CB5B EQ PUSH3 0x30B JUMPI DUP1 PUSH4 0x94D008EF EQ PUSH3 0x33B JUMPI DUP1 PUSH4 0xA5E38751 EQ PUSH3 0x369 JUMPI DUP1 PUSH4 0xB0EB1C9E EQ PUSH3 0x397 JUMPI PUSH3 0x122 JUMP JUMPDEST DUP1 PUSH4 0x5A0F1001 GT PUSH3 0xF1 JUMPI DUP1 PUSH4 0x5A0F1001 EQ PUSH3 0x20D JUMPI DUP1 PUSH4 0x5F24BE25 EQ PUSH3 0x23B JUMPI DUP1 PUSH4 0x715018A6 EQ PUSH3 0x27F JUMPI DUP1 PUSH4 0x73738A9D EQ PUSH3 0x299 JUMPI DUP1 PUSH4 0x8623EC7B EQ PUSH3 0x2C7 JUMPI PUSH3 0x122 JUMP JUMPDEST DUP1 PUSH4 0x150B7A02 EQ PUSH3 0x127 JUMPI DUP1 PUSH4 0x17B87DBB EQ PUSH3 0x16B JUMPI DUP1 PUSH4 0x2ACA6CEA EQ PUSH3 0x19B JUMPI DUP1 PUSH4 0x4E702AB3 EQ PUSH3 0x1DF JUMPI JUMPDEST PUSH1 0x0 DUP1 REVERT JUMPDEST CALLVALUE DUP1 ISZERO PUSH3 0x134 JUMPI PUSH1 0x0 DUP1 REVERT JUMPDEST POP PUSH3 0x153 PUSH1 0x4 DUP1 CALLDATASIZE SUB DUP2 ADD SWAP1 PUSH3 0x14D SWAP2 SWAP1 PUSH3 0x138C JUMP JUMPDEST PUSH3 0x4B5 JUMP JUMPDEST PUSH1 0x40 MLOAD PUSH3 0x162 SWAP2 SWAP1 PUSH3 0x145A JUMP JUMPDEST PUSH1 0x40 MLOAD DUP1 SWAP2 SUB SWAP1 RETURN JUMPDEST CALLVALUE DUP1 ISZERO PUSH3 0x178 JUMPI PUSH1 0x0 DUP1 REVERT JUMPDEST POP PUSH3 0x183 PUSH3 0x4D0 JUMP JUMPDEST PUSH1 0x40 MLOAD PUSH3 0x192 SWAP2 SWAP1 PUSH3 0x1488 JUMP JUMPDEST PUSH1 0x40 MLOAD DUP1 SWAP2 SUB SWAP1 RETURN JUMPDEST CALLVALUE DUP1 ISZERO PUSH3 0x1A8 JUMPI PUSH1 0x0 DUP1 REVERT JUMPDEST POP PUSH3 0x1C7 PUSH1 0x4 DUP1 CALLDATASIZE SUB DUP2 ADD SWAP1 PUSH3 0x1C1 SWAP2 SWAP1 PUSH3 0x14A5 JUMP JUMPDEST PUSH3 0x4DA JUMP JUMPDEST PUSH1 0x40 MLOAD PUSH3 0x1D6 SWAP2 SWAP1 PUSH3 0x1488 JUMP JUMPDEST PUSH1 0x40 MLOAD DUP1 SWAP2 SUB SWAP1 RETURN JUMPDEST CALLVALUE DUP1 ISZERO PUSH3 0x1EC JUMPI PUSH1 0x0 DUP1 REVERT JUMPDEST POP PUSH3 0x20B PUSH1 0x4 DUP1 CALLDATASIZE SUB DUP2 ADD SWAP1 PUSH3 0x205 SWAP2 SWAP1 PUSH3 0x14A5 JUMP JUMPDEST PUSH3 0x59B JUMP JUMPDEST STOP JUMPDEST CALLVALUE DUP1 ISZERO PUSH3 0x21A JUMPI PUSH1 0x0 DUP1 REVERT JUMPDEST POP PUSH3 0x239 PUSH1 0x4 DUP1 CALLDATASIZE SUB DUP2 ADD SWAP1 PUSH3 0x233 SWAP2 SWAP1 PUSH3 0x14EC JUMP JUMPDEST PUSH3 0x664 JUMP JUMPDEST STOP JUMPDEST CALLVALUE DUP1 ISZERO PUSH3 0x248 JUMPI PUSH1 0x0 DUP1 REVERT JUMPDEST POP PUSH3 0x267 PUSH1 0x4 DUP1 CALLDATASIZE SUB DUP2 ADD SWAP1 PUSH3 0x261 SWAP2 SWAP1 PUSH3 0x14A5 JUMP JUMPDEST PUSH3 0x731 JUMP JUMPDEST PUSH1 0x40 MLOAD PUSH3 0x276 SWAP2 SWAP1 PUSH3 0x1616 JUMP JUMPDEST PUSH1 0x40 MLOAD DUP1 SWAP2 SUB SWAP1 RETURN JUMPDEST CALLVALUE DUP1 ISZERO PUSH3 0x28C JUMPI PUSH1 0x0 DUP1 REVERT JUMPDEST POP PUSH3 0x297 PUSH3 0x7F2 JUMP JUMPDEST STOP JUMPDEST CALLVALUE DUP1 ISZERO PUSH3 0x2A6 JUMPI PUSH1 0x0 DUP1 REVERT JUMPDEST POP PUSH3 0x2C5 PUSH1 0x4 DUP1 CALLDATASIZE SUB DUP2 ADD SWAP1 PUSH3 0x2BF SWAP2 SWAP1 PUSH3 0x16A3 JUMP JUMPDEST PUSH3 0x80A JUMP JUMPDEST STOP JUMPDEST CALLVALUE DUP1 ISZERO PUSH3 0x2D4 JUMPI PUSH1 0x0 DUP1 REVERT JUMPDEST POP PUSH3 0x2F3 PUSH1 0x4 DUP1 CALLDATASIZE SUB DUP2 ADD SWAP1 PUSH3 0x2ED SWAP2 SWAP1 PUSH3 0x170D JUMP JUMPDEST PUSH3 0x8EC JUMP JUMPDEST PUSH1 0x40 MLOAD PUSH3 0x302 SWAP2 SWAP1 PUSH3 0x1750 JUMP JUMPDEST PUSH1 0x40 MLOAD DUP1 SWAP2 SUB SWAP1 RETURN JUMPDEST CALLVALUE DUP1 ISZERO PUSH3 0x318 JUMPI PUSH1 0x0 DUP1 REVERT JUMPDEST POP PUSH3 0x323 PUSH3 0x91F JUMP JUMPDEST PUSH1 0x40 MLOAD PUSH3 0x332 SWAP2 SWAP1 PUSH3 0x1750 JUMP JUMPDEST PUSH1 0x40 MLOAD DUP1 SWAP2 SUB SWAP1 RETURN JUMPDEST CALLVALUE DUP1 ISZERO PUSH3 0x348 JUMPI PUSH1 0x0 DUP1 REVERT JUMPDEST POP PUSH3 0x367 PUSH1 0x4 DUP1 CALLDATASIZE SUB DUP2 ADD SWAP1 PUSH3 0x361 SWAP2 SWAP1 PUSH3 0x17CC JUMP JUMPDEST PUSH3 0x948 JUMP JUMPDEST STOP JUMPDEST CALLVALUE DUP1 ISZERO PUSH3 0x376 JUMPI PUSH1 0x0 DUP1 REVERT JUMPDEST POP PUSH3 0x395 PUSH1 0x4 DUP1 CALLDATASIZE SUB DUP2 ADD SWAP1 PUSH3 0x38F SWAP2 SWAP1 PUSH3 0x170D JUMP JUMPDEST PUSH3 0x9F0 JUMP JUMPDEST STOP JUMPDEST CALLVALUE DUP1 ISZERO PUSH3 0x3A4 JUMPI PUSH1 0x0 DUP1 REVERT JUMPDEST POP PUSH3 0x3C3 PUSH1 0x4 DUP1 CALLDATASIZE SUB DUP2 ADD SWAP1 PUSH3 0x3BD SWAP2 SWAP1 PUSH3 0x14EC JUMP JUMPDEST PUSH3 0xAFD JUMP JUMPDEST PUSH1 0x40 MLOAD PUSH3 0x3D2 SWAP2 SWAP1 PUSH3 0x1869 JUMP JUMPDEST PUSH1 0x40 MLOAD DUP1 SWAP2 SUB SWAP1 RETURN JUMPDEST CALLVALUE DUP1 ISZERO PUSH3 0x3E8 JUMPI PUSH1 0x0 DUP1 REVERT JUMPDEST POP PUSH3 0x407 PUSH1 0x4 DUP1 CALLDATASIZE SUB DUP2 ADD SWAP1 PUSH3 0x401 SWAP2 SWAP1 PUSH3 0x1886 JUMP JUMPDEST PUSH3 0xC00 JUMP JUMPDEST STOP JUMPDEST CALLVALUE DUP1 ISZERO PUSH3 0x416 JUMPI PUSH1 0x0 DUP1 REVERT JUMPDEST POP PUSH3 0x435 PUSH1 0x4 DUP1 CALLDATASIZE SUB DUP2 ADD SWAP1 PUSH3 0x42F SWAP2 SWAP1 PUSH3 0x17CC JUMP JUMPDEST PUSH3 0xCAC JUMP JUMPDEST STOP JUMPDEST CALLVALUE DUP1 ISZERO PUSH3 0x444 JUMPI PUSH1 0x0 DUP1 REVERT JUMPDEST POP PUSH3 0x463 PUSH1 0x4 DUP1 CALLDATASIZE SUB DUP2 ADD SWAP1 PUSH3 0x45D SWAP2 SWAP1 PUSH3 0x1906 JUMP JUMPDEST PUSH3 0xDEB JUMP JUMPDEST STOP JUMPDEST PUSH3 0x483 PUSH1 0x4 DUP1 CALLDATASIZE SUB DUP2 ADD SWAP1 PUSH3 0x47D SWAP2 SWAP1 PUSH3 0x17CC JUMP JUMPDEST PUSH3 0xE75 JUMP JUMPDEST STOP JUMPDEST CALLVALUE DUP1 ISZERO PUSH3 0x492 JUMPI PUSH1 0x0 DUP1 REVERT JUMPDEST POP PUSH3 0x49D PUSH3 0xF58 JUMP JUMPDEST PUSH1 0x40 MLOAD PUSH3 0x4AC SWAP2 SWAP1 PUSH3 0x1750 JUMP JUMPDEST PUSH1 0x40 MLOAD DUP1 SWAP2 SUB SWAP1 RETURN JUMPDEST PUSH1 0x0 DUP3 PUSH1 0x4 DUP2 SWAP1 SSTORE POP PUSH4 0x150B7A02 PUSH1 0xE0 SHL SWAP1 POP SWAP5 SWAP4 POP POP POP POP JUMP JUMPDEST PUSH1 0x0 PUSH1 0x3 SLOAD SWAP1 POP SWAP1 JUMP JUMPDEST PUSH1 0x0 DUP1 DUP4 SWAP1 POP DUP1 PUSH20 0xFFFFFFFFFFFFFFFFFFFFFFFFFFFFFFFFFFFFFFFF AND PUSH4 0x70A08231 PUSH1 0x2 PUSH1 0x0 DUP7 DUP2 MSTORE PUSH1 0x20 ADD SWAP1 DUP2 MSTORE PUSH1 0x20 ADD PUSH1 0x0 KECCAK256 PUSH1 0x0 SWAP1 SLOAD SWAP1 PUSH2 0x100 EXP SWAP1 DIV PUSH20 0xFFFFFFFFFFFFFFFFFFFFFFFFFFFFFFFFFFFFFFFF AND PUSH1 0x40 MLOAD DUP3 PUSH4 0xFFFFFFFF AND PUSH1 0xE0 SHL DUP2 MSTORE PUSH1 0x4 ADD PUSH3 0x54E SWAP2 SWAP1 PUSH3 0x1750 JUMP JUMPDEST PUSH1 0x20 PUSH1 0x40 MLOAD DUP1 DUP4 SUB DUP2 DUP7 GAS STATICCALL ISZERO DUP1 ISZERO PUSH3 0x56C JUMPI RETURNDATASIZE PUSH1 0x0 DUP1 RETURNDATACOPY RETURNDATASIZE PUSH1 0x0 REVERT JUMPDEST POP POP POP POP PUSH1 0x40 MLOAD RETURNDATASIZE PUSH1 0x1F NOT PUSH1 0x1F DUP3 ADD AND DUP3 ADD DUP1 PUSH1 0x40 MSTORE POP DUP2 ADD SWAP1 PUSH3 0x592 SWAP2 SWAP1 PUSH3 0x194F JUMP JUMPDEST SWAP2 POP POP SWAP3 SWAP2 POP POP JUMP JUMPDEST PUSH1 0x0 JUMPDEST DUP2 DUP2 LT ISZERO PUSH3 0x65F JUMPI PUSH1 0x2 PUSH1 0x0 DUP3 DUP2 MSTORE PUSH1 0x20 ADD SWAP1 DUP2 MSTORE PUSH1 0x20 ADD PUSH1 0x0 KECCAK256 PUSH1 0x0 SWAP1 SLOAD SWAP1 PUSH2 0x100 EXP SWAP1 DIV PUSH20 0xFFFFFFFFFFFFFFFFFFFFFFFFFFFFFFFFFFFFFFFF AND PUSH20 0xFFFFFFFFFFFFFFFFFFFFFFFFFFFFFFFFFFFFFFFF AND PUSH4 0x1A695230 DUP5 PUSH1 0x40 MLOAD DUP3 PUSH4 0xFFFFFFFF AND PUSH1 0xE0 SHL DUP2 MSTORE PUSH1 0x4 ADD PUSH3 0x615 SWAP2 SWAP1 PUSH3 0x1750 JUMP JUMPDEST PUSH1 0x0 PUSH1 0x40 MLOAD DUP1 DUP4 SUB DUP2 PUSH1 0x0 DUP8 DUP1 EXTCODESIZE ISZERO DUP1 ISZERO PUSH3 0x630 JUMPI PUSH1 0x0 DUP1 REVERT JUMPDEST POP GAS CALL ISZERO DUP1 ISZERO PUSH3 0x645 JUMPI RETURNDATASIZE PUSH1 0x0 DUP1 RETURNDATACOPY RETURNDATASIZE PUSH1 0x0 REVERT JUMPDEST POP POP POP POP DUP1 DUP1 PUSH3 0x656 SWAP1 PUSH3 0x19B0 JUMP JUMPDEST SWAP2 POP POP PUSH3 0x59E JUMP JUMPDEST POP POP POP JUMP JUMPDEST PUSH1 0x0 DUP3 SWAP1 POP JUMPDEST DUP2 DUP2 LT ISZERO PUSH3 0x72B JUMPI PUSH1 0x2 PUSH1 0x0 DUP3 DUP2 MSTORE PUSH1 0x20 ADD SWAP1 DUP2 MSTORE PUSH1 0x20 ADD PUSH1 0x0 KECCAK256 PUSH1 0x0 SWAP1 SLOAD SWAP1 PUSH2 0x100 EXP SWAP1 DIV PUSH20 0xFFFFFFFFFFFFFFFFFFFFFFFFFFFFFFFFFFFFFFFF AND PUSH20 0xFFFFFFFFFFFFFFFFFFFFFFFFFFFFFFFFFFFFFFFF AND PUSH4 0x1A695230 DUP6 PUSH1 0x40 MLOAD DUP3 PUSH4 0xFFFFFFFF AND PUSH1 0xE0 SHL DUP2 MSTORE PUSH1 0x4 ADD PUSH3 0x6E1 SWAP2 SWAP1 PUSH3 0x1750 JUMP JUMPDEST PUSH1 0x0 PUSH1 0x40 MLOAD DUP1 DUP4 SUB DUP2 PUSH1 0x0 DUP8 DUP1 EXTCODESIZE ISZERO DUP1 ISZERO PUSH3 0x6FC JUMPI PUSH1 0x0 DUP1 REVERT JUMPDEST POP GAS CALL ISZERO DUP1 ISZERO PUSH3 0x711 JUMPI RETURNDATASIZE PUSH1 0x0 DUP1 RETURNDATACOPY RETURNDATASIZE PUSH1 0x0 REVERT JUMPDEST POP POP POP POP DUP1 DUP1 PUSH3 0x722 SWAP1 PUSH3 0x19B0 JUMP JUMPDEST SWAP2 POP POP PUSH3 0x66A JUMP JUMPDEST POP POP POP POP JUMP JUMPDEST PUSH1 0x60 PUSH1 0x2 PUSH1 0x0 DUP4 DUP2 MSTORE PUSH1 0x20 ADD SWAP1 DUP2 MSTORE PUSH1 0x20 ADD PUSH1 0x0 KECCAK256 PUSH1 0x0 SWAP1 SLOAD SWAP1 PUSH2 0x100 EXP SWAP1 DIV PUSH20 0xFFFFFFFFFFFFFFFFFFFFFFFFFFFFFFFFFFFFFFFF AND PUSH20 0xFFFFFFFFFFFFFFFFFFFFFFFFFFFFFFFFFFFFFFFF AND PUSH4 0xC57A1166 DUP5 PUSH1 0x40 MLOAD DUP3 PUSH4 0xFFFFFFFF AND PUSH1 0xE0 SHL DUP2 MSTORE PUSH1 0x4 ADD PUSH3 0x7A1 SWAP2 SWAP1 PUSH3 0x1750 JUMP JUMPDEST PUSH1 0x0 PUSH1 0x40 MLOAD DUP1 DUP4 SUB DUP2 DUP7 GAS STATICCALL ISZERO DUP1 ISZERO PUSH3 0x7BF JUMPI RETURNDATASIZE PUSH1 0x0 DUP1 RETURNDATACOPY RETURNDATASIZE PUSH1 0x0 REVERT JUMPDEST POP POP POP POP PUSH1 0x40 MLOAD RETURNDATASIZE PUSH1 0x0 DUP3 RETURNDATACOPY RETURNDATASIZE PUSH1 0x1F NOT PUSH1 0x1F DUP3 ADD AND DUP3 ADD DUP1 PUSH1 0x40 MSTORE POP DUP2 ADD SWAP1 PUSH3 0x7EA SWAP2 SWAP1 PUSH3 0x1AD3 JUMP JUMPDEST SWAP1 POP SWAP3 SWAP2 POP POP JUMP JUMPDEST PUSH3 0x7FC PUSH3 0xF7E JUMP JUMPDEST PUSH3 0x808 PUSH1 0x0 PUSH3 0x1003 JUMP JUMPDEST JUMP JUMPDEST PUSH1 0x0 DUP3 DUP3 SWAP1 POP SWAP1 POP PUSH1 0x0 JUMPDEST DUP2 DUP2 LT ISZERO PUSH3 0x8E5 JUMPI DUP5 PUSH20 0xFFFFFFFFFFFFFFFFFFFFFFFFFFFFFFFFFFFFFFFF AND PUSH4 0x23B872DD ADDRESS PUSH1 0x1 PUSH1 0x0 SWAP1 SLOAD SWAP1 PUSH2 0x100 EXP SWAP1 DIV PUSH20 0xFFFFFFFFFFFFFFFFFFFFFFFFFFFFFFFFFFFFFFFF AND DUP8 DUP8 DUP7 DUP2 DUP2 LT PUSH3 0x874 JUMPI PUSH3 0x873 PUSH3 0x1B24 JUMP JUMPDEST JUMPDEST SWAP1 POP PUSH1 0x20 MUL ADD CALLDATALOAD PUSH1 0x40 MLOAD DUP5 PUSH4 0xFFFFFFFF AND PUSH1 0xE0 SHL DUP2 MSTORE PUSH1 0x4 ADD PUSH3 0x89B SWAP4 SWAP3 SWAP2 SWAP1 PUSH3 0x1B53 JUMP JUMPDEST PUSH1 0x0 PUSH1 0x40 MLOAD DUP1 DUP4 SUB DUP2 PUSH1 0x0 DUP8 DUP1 EXTCODESIZE ISZERO DUP1 ISZERO PUSH3 0x8B6 JUMPI PUSH1 0x0 DUP1 REVERT JUMPDEST POP GAS CALL ISZERO DUP1 ISZERO PUSH3 0x8CB JUMPI RETURNDATASIZE PUSH1 0x0 DUP1 RETURNDATACOPY RETURNDATASIZE PUSH1 0x0 REVERT JUMPDEST POP POP POP POP DUP1 DUP1 PUSH3 0x8DC SWAP1 PUSH3 0x19B0 JUMP JUMPDEST SWAP2 POP POP PUSH3 0x815 JUMP JUMPDEST POP POP POP POP POP JUMP JUMPDEST PUSH1 0x2 PUSH1 0x20 MSTORE DUP1 PUSH1 0x0 MSTORE PUSH1 0x40 PUSH1 0x0 KECCAK256 PUSH1 0x0 SWAP2 POP SLOAD SWAP1 PUSH2 0x100 EXP SWAP1 DIV PUSH20 0xFFFFFFFFFFFFFFFFFFFFFFFFFFFFFFFFFFFFFFFF AND DUP2 JUMP JUMPDEST PUSH1 0x0 DUP1 PUSH1 0x0 SWAP1 SLOAD SWAP1 PUSH2 0x100 EXP SWAP1 DIV PUSH20 0xFFFFFFFFFFFFFFFFFFFFFFFFFFFFFFFFFFFFFFFF AND SWAP1 POP SWAP1 JUMP JUMPDEST PUSH1 0x0 JUMPDEST DUP4 DUP2 LT ISZERO PUSH3 0x9E9 JUMPI PUSH1 0x0 DUP6 PUSH20 0xFFFFFFFFFFFFFFFFFFFFFFFFFFFFFFFFFFFFFFFF AND DUP5 DUP5 PUSH1 0x40 MLOAD PUSH3 0x97F SWAP3 SWAP2 SWAP1 PUSH3 0x1BC4 JUMP JUMPDEST PUSH1 0x0 PUSH1 0x40 MLOAD DUP1 DUP4 SUB DUP2 PUSH1 0x0 DUP7 GAS CALL SWAP2 POP POP RETURNDATASIZE DUP1 PUSH1 0x0 DUP2 EQ PUSH3 0x9BE JUMPI PUSH1 0x40 MLOAD SWAP2 POP PUSH1 0x1F NOT PUSH1 0x3F RETURNDATASIZE ADD AND DUP3 ADD PUSH1 0x40 MSTORE RETURNDATASIZE DUP3 MSTORE RETURNDATASIZE PUSH1 0x0 PUSH1 0x20 DUP5 ADD RETURNDATACOPY PUSH3 0x9C3 JUMP JUMPDEST PUSH1 0x60 SWAP2 POP JUMPDEST POP POP SWAP1 POP DUP1 PUSH3 0x9D2 JUMPI PUSH1 0x0 DUP1 REVERT JUMPDEST POP DUP1 DUP1 PUSH3 0x9E0 SWAP1 PUSH3 0x19B0 JUMP JUMPDEST SWAP2 POP POP PUSH3 0x94B JUMP JUMPDEST POP POP POP POP POP JUMP JUMPDEST PUSH3 0x9FA PUSH3 0xF7E JUMP JUMPDEST PUSH1 0x0 PUSH3 0xA06 PUSH3 0x10C7 JUMP JUMPDEST SWAP1 POP PUSH1 0x0 JUMPDEST DUP3 DUP2 LT ISZERO PUSH3 0xAF8 JUMPI PUSH1 0x0 DUP1 PUSH1 0x3 SLOAD SWAP1 POP DUP1 DUP5 MLOAD PUSH1 0x20 DUP7 ADD CALLVALUE CREATE2 SWAP2 POP DUP2 EXTCODESIZE PUSH3 0xA33 JUMPI PUSH1 0x0 DUP1 REVERT JUMPDEST DUP2 PUSH1 0x2 PUSH1 0x0 PUSH1 0x3 SLOAD DUP2 MSTORE PUSH1 0x20 ADD SWAP1 DUP2 MSTORE PUSH1 0x20 ADD PUSH1 0x0 KECCAK256 PUSH1 0x0 PUSH2 0x100 EXP DUP2 SLOAD DUP2 PUSH20 0xFFFFFFFFFFFFFFFFFFFFFFFFFFFFFFFFFFFFFFFF MUL NOT AND SWAP1 DUP4 PUSH20 0xFFFFFFFFFFFFFFFFFFFFFFFFFFFFFFFFFFFFFFFF AND MUL OR SWAP1 SSTORE POP PUSH1 0x3 PUSH1 0x0 DUP2 SLOAD DUP1 SWAP3 SWAP2 SWAP1 PUSH3 0xA9C SWAP1 PUSH3 0x19B0 JUMP JUMPDEST SWAP2 SWAP1 POP SSTORE POP PUSH32 0xB0B65434AB7A8E35E9FB03ABE77A52CC1BC3664D803DC0685D76A38492E42C35 DUP3 CALLER PUSH1 0x3 SLOAD PUSH1 0x40 MLOAD PUSH3 0xAD8 SWAP4 SWAP3 SWAP2 SWAP1 PUSH3 0x1B53 JUMP JUMPDEST PUSH1 0x40 MLOAD DUP1 SWAP2 SUB SWAP1 LOG1 POP POP DUP1 DUP1 PUSH3 0xAEF SWAP1 PUSH3 0x19B0 JUMP JUMPDEST SWAP2 POP POP PUSH3 0xA0B JUMP JUMPDEST POP POP POP JUMP JUMPDEST PUSH1 0x0 DUP1 DUP5 SWAP1 POP PUSH1 0x2 PUSH1 0x0 DUP6 DUP2 MSTORE PUSH1 0x20 ADD SWAP1 DUP2 MSTORE PUSH1 0x20 ADD PUSH1 0x0 KECCAK256 PUSH1 0x0 SWAP1 SLOAD SWAP1 PUSH2 0x100 EXP SWAP1 DIV PUSH20 0xFFFFFFFFFFFFFFFFFFFFFFFFFFFFFFFFFFFFFFFF AND PUSH20 0xFFFFFFFFFFFFFFFFFFFFFFFFFFFFFFFFFFFFFFFF AND DUP2 PUSH20 0xFFFFFFFFFFFFFFFFFFFFFFFFFFFFFFFFFFFFFFFF AND PUSH4 0x6352211E DUP6 PUSH1 0x40 MLOAD DUP3 PUSH4 0xFFFFFFFF AND PUSH1 0xE0 SHL DUP2 MSTORE PUSH1 0x4 ADD PUSH3 0xB88 SWAP2 SWAP1 PUSH3 0x1488 JUMP JUMPDEST PUSH1 0x20 PUSH1 0x40 MLOAD DUP1 DUP4 SUB DUP2 DUP7 GAS STATICCALL ISZERO DUP1 ISZERO PUSH3 0xBA6 JUMPI RETURNDATASIZE PUSH1 0x0 DUP1 RETURNDATACOPY RETURNDATASIZE PUSH1 0x0 REVERT JUMPDEST POP POP POP POP PUSH1 0x40 MLOAD RETURNDATASIZE PUSH1 0x1F NOT PUSH1 0x1F DUP3 ADD AND DUP3 ADD DUP1 PUSH1 0x40 MSTORE POP DUP2 ADD SWAP1 PUSH3 0xBCC SWAP2 SWAP1 PUSH3 0x1BF6 JUMP JUMPDEST PUSH20 0xFFFFFFFFFFFFFFFFFFFFFFFFFFFFFFFFFFFFFFFF AND SUB PUSH3 0xBF3 JUMPI PUSH1 0x1 SWAP2 POP POP PUSH3 0xBF9 JUMP JUMPDEST PUSH1 0x0 SWAP2 POP POP JUMPDEST SWAP4 SWAP3 POP POP POP JUMP JUMPDEST PUSH1 0x2 PUSH1 0x0 DUP3 DUP2 MSTORE PUSH1 0x20 ADD SWAP1 DUP2 MSTORE PUSH1 0x20 ADD PUSH1 0x0 KECCAK256 PUSH1 0x0 SWAP1 SLOAD SWAP1 PUSH2 0x100 EXP SWAP1 DIV PUSH20 0xFFFFFFFFFFFFFFFFFFFFFFFFFFFFFFFFFFFFFFFF AND PUSH20 0xFFFFFFFFFFFFFFFFFFFFFFFFFFFFFFFFFFFFFFFF AND PUSH4 0x3E1A037C DUP6 DUP6 DUP6 PUSH1 0x40 MLOAD DUP5 PUSH4 0xFFFFFFFF AND PUSH1 0xE0 SHL DUP2 MSTORE PUSH1 0x4 ADD PUSH3 0xC72 SWAP4 SWAP3 SWAP2 SWAP1 PUSH3 0x1C99 JUMP JUMPDEST PUSH1 0x0 PUSH1 0x40 MLOAD DUP1 DUP4 SUB DUP2 PUSH1 0x0 DUP8 DUP1 EXTCODESIZE ISZERO DUP1 ISZERO PUSH3 0xC8D JUMPI PUSH1 0x0 DUP1 REVERT JUMPDEST POP GAS CALL ISZERO DUP1 ISZERO PUSH3 0xCA2 JUMPI RETURNDATASIZE PUSH1 0x0 DUP1 RETURNDATACOPY RETURNDATASIZE PUSH1 0x0 REVERT JUMPDEST POP POP POP POP POP POP POP POP JUMP JUMPDEST PUSH1 0x0 JUMPDEST DUP4 DUP2 LT ISZERO PUSH3 0xDE4 JUMPI PUSH1 0x0 DUP6 PUSH20 0xFFFFFFFFFFFFFFFFFFFFFFFFFFFFFFFFFFFFFFFF AND DUP5 DUP5 PUSH1 0x40 MLOAD PUSH3 0xCE3 SWAP3 SWAP2 SWAP1 PUSH3 0x1BC4 JUMP JUMPDEST PUSH1 0x0 PUSH1 0x40 MLOAD DUP1 DUP4 SUB DUP2 PUSH1 0x0 DUP7 GAS CALL SWAP2 POP POP RETURNDATASIZE DUP1 PUSH1 0x0 DUP2 EQ PUSH3 0xD22 JUMPI PUSH1 0x40 MLOAD SWAP2 POP PUSH1 0x1F NOT PUSH1 0x3F RETURNDATASIZE ADD AND DUP3 ADD PUSH1 0x40 MSTORE RETURNDATASIZE DUP3 MSTORE RETURNDATASIZE PUSH1 0x0 PUSH1 0x20 DUP5 ADD RETURNDATACOPY PUSH3 0xD27 JUMP JUMPDEST PUSH1 0x60 SWAP2 POP JUMPDEST POP POP SWAP1 POP DUP1 PUSH3 0xD36 JUMPI PUSH1 0x0 DUP1 REVERT JUMPDEST DUP6 PUSH20 0xFFFFFFFFFFFFFFFFFFFFFFFFFFFFFFFFFFFFFFFF AND PUSH4 0x23B872DD ADDRESS PUSH1 0x1 PUSH1 0x0 SWAP1 SLOAD SWAP1 PUSH2 0x100 EXP SWAP1 DIV PUSH20 0xFFFFFFFFFFFFFFFFFFFFFFFFFFFFFFFFFFFFFFFF AND PUSH1 0x4 SLOAD PUSH1 0x40 MLOAD DUP5 PUSH4 0xFFFFFFFF AND PUSH1 0xE0 SHL DUP2 MSTORE PUSH1 0x4 ADD PUSH3 0xD99 SWAP4 SWAP3 SWAP2 SWAP1 PUSH3 0x1B53 JUMP JUMPDEST PUSH1 0x0 PUSH1 0x40 MLOAD DUP1 DUP4 SUB DUP2 PUSH1 0x0 DUP8 DUP1 EXTCODESIZE ISZERO DUP1 ISZERO PUSH3 0xDB4 JUMPI PUSH1 0x0 DUP1 REVERT JUMPDEST POP GAS CALL ISZERO DUP1 ISZERO PUSH3 0xDC9 JUMPI RETURNDATASIZE PUSH1 0x0 DUP1 RETURNDATACOPY RETURNDATASIZE PUSH1 0x0 REVERT JUMPDEST POP POP POP POP POP DUP1 DUP1 PUSH3 0xDDB SWAP1 PUSH3 0x19B0 JUMP JUMPDEST SWAP2 POP POP PUSH3 0xCAF JUMP JUMPDEST POP POP POP POP POP JUMP JUMPDEST PUSH3 0xDF5 PUSH3 0xF7E JUMP JUMPDEST PUSH1 0x0 PUSH20 0xFFFFFFFFFFFFFFFFFFFFFFFFFFFFFFFFFFFFFFFF AND DUP2 PUSH20 0xFFFFFFFFFFFFFFFFFFFFFFFFFFFFFFFFFFFFFFFF AND SUB PUSH3 0xE67 JUMPI PUSH1 0x40 MLOAD PUSH32 0x8C379A000000000000000000000000000000000000000000000000000000000 DUP2 MSTORE PUSH1 0x4 ADD PUSH3 0xE5E SWAP1 PUSH3 0x1D56 JUMP JUMPDEST PUSH1 0x40 MLOAD DUP1 SWAP2 SUB SWAP1 REVERT JUMPDEST PUSH3 0xE72 DUP2 PUSH3 0x1003 JUMP JUMPDEST POP JUMP JUMPDEST PUSH1 0x0 DUP4 CALLVALUE PUSH3 0xE85 SWAP2 SWAP1 PUSH3 0x1DA7 JUMP JUMPDEST SWAP1 POP PUSH1 0x0 JUMPDEST DUP5 DUP2 LT ISZERO PUSH3 0xF50 JUMPI PUSH1 0x2 PUSH1 0x0 DUP3 DUP2 MSTORE PUSH1 0x20 ADD SWAP1 DUP2 MSTORE PUSH1 0x20 ADD PUSH1 0x0 KECCAK256 PUSH1 0x0 SWAP1 SLOAD SWAP1 PUSH2 0x100 EXP SWAP1 DIV PUSH20 0xFFFFFFFFFFFFFFFFFFFFFFFFFFFFFFFFFFFFFFFF AND PUSH20 0xFFFFFFFFFFFFFFFFFFFFFFFFFFFFFFFFFFFFFFFF AND PUSH4 0xB510391F DUP4 DUP9 DUP8 DUP8 PUSH1 0x40 MLOAD DUP6 PUSH4 0xFFFFFFFF AND PUSH1 0xE0 SHL DUP2 MSTORE PUSH1 0x4 ADD PUSH3 0xF06 SWAP4 SWAP3 SWAP2 SWAP1 PUSH3 0x1E23 JUMP JUMPDEST PUSH1 0x0 PUSH1 0x40 MLOAD DUP1 DUP4 SUB DUP2 DUP6 DUP9 DUP1 EXTCODESIZE ISZERO DUP1 ISZERO PUSH3 0xF20 JUMPI PUSH1 0x0 DUP1 REVERT JUMPDEST POP GAS CALL ISZERO DUP1 ISZERO PUSH3 0xF35 JUMPI RETURNDATASIZE PUSH1 0x0 DUP1 RETURNDATACOPY RETURNDATASIZE PUSH1 0x0 REVERT JUMPDEST POP POP POP POP POP DUP1 DUP1 PUSH3 0xF47 SWAP1 PUSH3 0x19B0 JUMP JUMPDEST SWAP2 POP POP PUSH3 0xE8A JUMP JUMPDEST POP POP POP POP POP POP JUMP JUMPDEST PUSH1 0x1 PUSH1 0x0 SWAP1 SLOAD SWAP1 PUSH2 0x100 EXP SWAP1 DIV PUSH20 0xFFFFFFFFFFFFFFFFFFFFFFFFFFFFFFFFFFFFFFFF AND DUP2 JUMP JUMPDEST PUSH3 0xF88 PUSH3 0x1160 JUMP JUMPDEST PUSH20 0xFFFFFFFFFFFFFFFFFFFFFFFFFFFFFFFFFFFFFFFF AND PUSH3 0xFA8 PUSH3 0x91F JUMP JUMPDEST PUSH20 0xFFFFFFFFFFFFFFFFFFFFFFFFFFFFFFFFFFFFFFFF AND EQ PUSH3 0x1001 JUMPI PUSH1 0x40 MLOAD PUSH32 0x8C379A000000000000000000000000000000000000000000000000000000000 DUP2 MSTORE PUSH1 0x4 ADD PUSH3 0xFF8 SWAP1 PUSH3 0x1EA9 JUMP JUMPDEST PUSH1 0x40 MLOAD DUP1 SWAP2 SUB SWAP1 REVERT JUMPDEST JUMP JUMPDEST PUSH1 0x0 DUP1 PUSH1 0x0 SWAP1 SLOAD SWAP1 PUSH2 0x100 EXP SWAP1 DIV PUSH20 0xFFFFFFFFFFFFFFFFFFFFFFFFFFFFFFFFFFFFFFFF AND SWAP1 POP DUP2 PUSH1 0x0 DUP1 PUSH2 0x100 EXP DUP2 SLOAD DUP2 PUSH20 0xFFFFFFFFFFFFFFFFFFFFFFFFFFFFFFFFFFFFFFFF MUL NOT AND SWAP1 DUP4 PUSH20 0xFFFFFFFFFFFFFFFFFFFFFFFFFFFFFFFFFFFFFFFF AND MUL OR SWAP1 SSTORE POP DUP2 PUSH20 0xFFFFFFFFFFFFFFFFFFFFFFFFFFFFFFFFFFFFFFFF AND DUP2 PUSH20 0xFFFFFFFFFFFFFFFFFFFFFFFFFFFFFFFFFFFFFFFF AND PUSH32 0x8BE0079C531659141344CD1FD0A4F28419497F9722A3DAAFE3B4186F6B6457E0 PUSH1 0x40 MLOAD PUSH1 0x40 MLOAD DUP1 SWAP2 SUB SWAP1 LOG3 POP POP JUMP JUMPDEST PUSH1 0x60 PUSH1 0x0 PUSH1 0x40 MLOAD DUP1 PUSH1 0x20 ADD PUSH3 0x10DD SWAP1 PUSH3 0x1168 JUMP JUMPDEST PUSH1 0x20 DUP3 ADD DUP2 SUB DUP3 MSTORE PUSH1 0x1F NOT PUSH1 0x1F DUP3 ADD AND PUSH1 0x40 MSTORE POP SWAP1 POP DUP1 PUSH1 0x1 PUSH1 0x0 SWAP1 SLOAD SWAP1 PUSH2 0x100 EXP SWAP1 DIV PUSH20 0xFFFFFFFFFFFFFFFFFFFFFFFFFFFFFFFFFFFFFFFF AND PUSH1 0x40 MLOAD PUSH1 0x20 ADD PUSH3 0x1129 SWAP2 SWAP1 PUSH3 0x1750 JUMP JUMPDEST PUSH1 0x40 MLOAD PUSH1 0x20 DUP2 DUP4 SUB SUB DUP2 MSTORE SWAP1 PUSH1 0x40 MSTORE PUSH1 0x40 MLOAD PUSH1 0x20 ADD PUSH3 0x114B SWAP3 SWAP2 SWAP1 PUSH3 0x1F39 JUMP JUMPDEST PUSH1 0x40 MLOAD PUSH1 0x20 DUP2 DUP4 SUB SUB DUP2 MSTORE SWAP1 PUSH1 0x40 MSTORE SWAP2 POP POP SWAP1 JUMP JUMPDEST PUSH1 0x0 CALLER SWAP1 POP SWAP1 JUMP JUMPDEST PUSH2 0xF8B DUP1 PUSH3 0x1F62 DUP4 CODECOPY ADD SWAP1 JUMP JUMPDEST PUSH1 0x0 PUSH1 0x40 MLOAD SWAP1 POP SWAP1 JUMP JUMPDEST PUSH1 0x0 DUP1 REVERT JUMPDEST PUSH1 0x0 DUP1 REVERT JUMPDEST PUSH1 0x0 PUSH20 0xFFFFFFFFFFFFFFFFFFFFFFFFFFFFFFFFFFFFFFFF DUP3 AND SWAP1 POP SWAP2 SWAP1 POP JUMP JUMPDEST PUSH1 0x0 PUSH3 0x11B7 DUP3 PUSH3 0x118A JUMP JUMPDEST SWAP1 POP SWAP2 SWAP1 POP JUMP JUMPDEST PUSH3 0x11C9 DUP2 PUSH3 0x11AA JUMP JUMPDEST DUP2 EQ PUSH3 0x11D5 JUMPI PUSH1 0x0 DUP1 REVERT JUMPDEST POP JUMP JUMPDEST PUSH1 0x0 DUP2 CALLDATALOAD SWAP1 POP PUSH3 0x11E9 DUP2 PUSH3 0x11BE JUMP JUMPDEST SWAP3 SWAP2 POP POP JUMP JUMPDEST PUSH1 0x0 DUP2 SWAP1 POP SWAP2 SWAP1 POP JUMP JUMPDEST PUSH3 0x1204 DUP2 PUSH3 0x11EF JUMP JUMPDEST DUP2 EQ PUSH3 0x1210 JUMPI PUSH1 0x0 DUP1 REVERT JUMPDEST POP JUMP JUMPDEST PUSH1 0x0 DUP2 CALLDATALOAD SWAP1 POP PUSH3 0x1224 DUP2 PUSH3 0x11F9 JUMP JUMPDEST SWAP3 SWAP2 POP POP JUMP JUMPDEST PUSH1 0x0 DUP1 REVERT JUMPDEST PUSH1 0x0 DUP1 REVERT JUMPDEST PUSH1 0x0 PUSH1 0x1F NOT PUSH1 0x1F DUP4 ADD AND SWAP1 POP SWAP2 SWAP1 POP JUMP JUMPDEST PUSH32 0x4E487B7100000000000000000000000000000000000000000000000000000000 PUSH1 0x0 MSTORE PUSH1 0x41 PUSH1 0x4 MSTORE PUSH1 0x24 PUSH1 0x0 REVERT JUMPDEST PUSH3 0x127F DUP3 PUSH3 0x1234 JUMP JUMPDEST DUP2 ADD DUP2 DUP2 LT PUSH8 0xFFFFFFFFFFFFFFFF DUP3 GT OR ISZERO PUSH3 0x12A1 JUMPI PUSH3 0x12A0 PUSH3 0x1245 JUMP JUMPDEST JUMPDEST DUP1 PUSH1 0x40 MSTORE POP POP POP JUMP JUMPDEST PUSH1 0x0 PUSH3 0x12B6 PUSH3 0x1176 JUMP JUMPDEST SWAP1 POP PUSH3 0x12C4 DUP3 DUP3 PUSH3 0x1274 JUMP JUMPDEST SWAP2 SWAP1 POP JUMP JUMPDEST PUSH1 0x0 PUSH8 0xFFFFFFFFFFFFFFFF DUP3 GT ISZERO PUSH3 0x12E7 JUMPI PUSH3 0x12E6 PUSH3 0x1245 JUMP JUMPDEST JUMPDEST PUSH3 0x12F2 DUP3 PUSH3 0x1234 JUMP JUMPDEST SWAP1 POP PUSH1 0x20 DUP2 ADD SWAP1 POP SWAP2 SWAP1 POP JUMP JUMPDEST DUP3 DUP2 DUP4 CALLDATACOPY PUSH1 0x0 DUP4 DUP4 ADD MSTORE POP POP POP JUMP JUMPDEST PUSH1 0x0 PUSH3 0x1325 PUSH3 0x131F DUP5 PUSH3 0x12C9 JUMP JUMPDEST PUSH3 0x12AA JUMP JUMPDEST SWAP1 POP DUP3 DUP2 MSTORE PUSH1 0x20 DUP2 ADD DUP5 DUP5 DUP5 ADD GT ISZERO PUSH3 0x1344 JUMPI PUSH3 0x1343 PUSH3 0x122F JUMP JUMPDEST JUMPDEST PUSH3 0x1351 DUP5 DUP3 DUP6 PUSH3 0x12FF JUMP JUMPDEST POP SWAP4 SWAP3 POP POP POP JUMP JUMPDEST PUSH1 0x0 DUP3 PUSH1 0x1F DUP4 ADD SLT PUSH3 0x1371 JUMPI PUSH3 0x1370 PUSH3 0x122A JUMP JUMPDEST JUMPDEST DUP2 CALLDATALOAD PUSH3 0x1383 DUP5 DUP3 PUSH1 0x20 DUP7 ADD PUSH3 0x130E JUMP JUMPDEST SWAP2 POP POP SWAP3 SWAP2 POP POP JUMP JUMPDEST PUSH1 0x0 DUP1 PUSH1 0x0 DUP1 PUSH1 0x80 DUP6 DUP8 SUB SLT ISZERO PUSH3 0x13A9 JUMPI PUSH3 0x13A8 PUSH3 0x1180 JUMP JUMPDEST JUMPDEST PUSH1 0x0 PUSH3 0x13B9 DUP8 DUP3 DUP9 ADD PUSH3 0x11D8 JUMP JUMPDEST SWAP5 POP POP PUSH1 0x20 PUSH3 0x13CC DUP8 DUP3 DUP9 ADD PUSH3 0x11D8 JUMP JUMPDEST SWAP4 POP POP PUSH1 0x40 PUSH3 0x13DF DUP8 DUP3 DUP9 ADD PUSH3 0x1213 JUMP JUMPDEST SWAP3 POP POP PUSH1 0x60 DUP6 ADD CALLDATALOAD PUSH8 0xFFFFFFFFFFFFFFFF DUP2 GT ISZERO PUSH3 0x1403 JUMPI PUSH3 0x1402 PUSH3 0x1185 JUMP JUMPDEST JUMPDEST PUSH3 0x1411 DUP8 DUP3 DUP9 ADD PUSH3 0x1359 JUMP JUMPDEST SWAP2 POP POP SWAP3 SWAP6 SWAP2 SWAP5 POP SWAP3 POP JUMP JUMPDEST PUSH1 0x0 PUSH32 0xFFFFFFFF00000000000000000000000000000000000000000000000000000000 DUP3 AND SWAP1 POP SWAP2 SWAP1 POP JUMP JUMPDEST PUSH3 0x1454 DUP2 PUSH3 0x141D JUMP JUMPDEST DUP3 MSTORE POP POP JUMP JUMPDEST PUSH1 0x0 PUSH1 0x20 DUP3 ADD SWAP1 POP PUSH3 0x1471 PUSH1 0x0 DUP4 ADD DUP5 PUSH3 0x1449 JUMP JUMPDEST SWAP3 SWAP2 POP POP JUMP JUMPDEST PUSH3 0x1482 DUP2 PUSH3 0x11EF JUMP JUMPDEST DUP3 MSTORE POP POP JUMP JUMPDEST PUSH1 0x0 PUSH1 0x20 DUP3 ADD SWAP1 POP PUSH3 0x149F PUSH1 0x0 DUP4 ADD DUP5 PUSH3 0x1477 JUMP JUMPDEST SWAP3 SWAP2 POP POP JUMP JUMPDEST PUSH1 0x0 DUP1 PUSH1 0x40 DUP4 DUP6 SUB SLT ISZERO PUSH3 0x14BF JUMPI PUSH3 0x14BE PUSH3 0x1180 JUMP JUMPDEST JUMPDEST PUSH1 0x0 PUSH3 0x14CF DUP6 DUP3 DUP7 ADD PUSH3 0x11D8 JUMP JUMPDEST SWAP3 POP POP PUSH1 0x20 PUSH3 0x14E2 DUP6 DUP3 DUP7 ADD PUSH3 0x1213 JUMP JUMPDEST SWAP2 POP POP SWAP3 POP SWAP3 SWAP1 POP JUMP JUMPDEST PUSH1 0x0 DUP1 PUSH1 0x0 PUSH1 0x60 DUP5 DUP7 SUB SLT ISZERO PUSH3 0x1508 JUMPI PUSH3 0x1507 PUSH3 0x1180 JUMP JUMPDEST JUMPDEST PUSH1 0x0 PUSH3 0x1518 DUP7 DUP3 DUP8 ADD PUSH3 0x11D8 JUMP JUMPDEST SWAP4 POP POP PUSH1 0x20 PUSH3 0x152B DUP7 DUP3 DUP8 ADD PUSH3 0x1213 JUMP JUMPDEST SWAP3 POP POP PUSH1 0x40 PUSH3 0x153E DUP7 DUP3 DUP8 ADD PUSH3 0x1213 JUMP JUMPDEST SWAP2 POP POP SWAP3 POP SWAP3 POP SWAP3 JUMP JUMPDEST PUSH1 0x0 DUP2 MLOAD SWAP1 POP SWAP2 SWAP1 POP JUMP JUMPDEST PUSH1 0x0 DUP3 DUP3 MSTORE PUSH1 0x20 DUP3 ADD SWAP1 POP SWAP3 SWAP2 POP POP JUMP JUMPDEST PUSH1 0x0 DUP2 SWAP1 POP PUSH1 0x20 DUP3 ADD SWAP1 POP SWAP2 SWAP1 POP JUMP JUMPDEST PUSH3 0x157F DUP2 PUSH3 0x11EF JUMP JUMPDEST DUP3 MSTORE POP POP JUMP JUMPDEST PUSH1 0x0 PUSH3 0x1593 DUP4 DUP4 PUSH3 0x1574 JUMP JUMPDEST PUSH1 0x20 DUP4 ADD SWAP1 POP SWAP3 SWAP2 POP POP JUMP JUMPDEST PUSH1 0x0 PUSH1 0x20 DUP3 ADD SWAP1 POP SWAP2 SWAP1 POP JUMP JUMPDEST PUSH1 0x0 PUSH3 0x15B9 DUP3 PUSH3 0x1548 JUMP JUMPDEST PUSH3 0x15C5 DUP2 DUP6 PUSH3 0x1553 JUMP JUMPDEST SWAP4 POP PUSH3 0x15D2 DUP4 PUSH3 0x1564 JUMP JUMPDEST DUP1 PUSH1 0x0 JUMPDEST DUP4 DUP2 LT ISZERO PUSH3 0x1609 JUMPI DUP2 MLOAD PUSH3 0x15ED DUP9 DUP3 PUSH3 0x1585 JUMP JUMPDEST SWAP8 POP PUSH3 0x15FA DUP4 PUSH3 0x159F JUMP JUMPDEST SWAP3 POP POP PUSH1 0x1 DUP2 ADD SWAP1 POP PUSH3 0x15D6 JUMP JUMPDEST POP DUP6 SWAP4 POP POP POP POP SWAP3 SWAP2 POP POP JUMP JUMPDEST PUSH1 0x0 PUSH1 0x20 DUP3 ADD SWAP1 POP DUP2 DUP2 SUB PUSH1 0x0 DUP4 ADD MSTORE PUSH3 0x1632 DUP2 DUP5 PUSH3 0x15AC JUMP JUMPDEST SWAP1 POP SWAP3 SWAP2 POP POP JUMP JUMPDEST PUSH1 0x0 DUP1 REVERT JUMPDEST PUSH1 0x0 DUP1 REVERT JUMPDEST PUSH1 0x0 DUP1 DUP4 PUSH1 0x1F DUP5 ADD SLT PUSH3 0x165D JUMPI PUSH3 0x165C PUSH3 0x122A JUMP JUMPDEST JUMPDEST DUP3 CALLDATALOAD SWAP1 POP PUSH8 0xFFFFFFFFFFFFFFFF DUP2 GT ISZERO PUSH3 0x167D JUMPI PUSH3 0x167C PUSH3 0x163A JUMP JUMPDEST JUMPDEST PUSH1 0x20 DUP4 ADD SWAP2 POP DUP4 PUSH1 0x20 DUP3 MUL DUP4 ADD GT ISZERO PUSH3 0x169C JUMPI PUSH3 0x169B PUSH3 0x163F JUMP JUMPDEST JUMPDEST SWAP3 POP SWAP3 SWAP1 POP JUMP JUMPDEST PUSH1 0x0 DUP1 PUSH1 0x0 PUSH1 0x40 DUP5 DUP7 SUB SLT ISZERO PUSH3 0x16BF JUMPI PUSH3 0x16BE PUSH3 0x1180 JUMP JUMPDEST JUMPDEST PUSH1 0x0 PUSH3 0x16CF DUP7 DUP3 DUP8 ADD PUSH3 0x11D8 JUMP JUMPDEST SWAP4 POP POP PUSH1 0x20 DUP5 ADD CALLDATALOAD PUSH8 0xFFFFFFFFFFFFFFFF DUP2 GT ISZERO PUSH3 0x16F3 JUMPI PUSH3 0x16F2 PUSH3 0x1185 JUMP JUMPDEST JUMPDEST PUSH3 0x1701 DUP7 DUP3 DUP8 ADD PUSH3 0x1644 JUMP JUMPDEST SWAP3 POP SWAP3 POP POP SWAP3 POP SWAP3 POP SWAP3 JUMP JUMPDEST PUSH1 0x0 PUSH1 0x20 DUP3 DUP5 SUB SLT ISZERO PUSH3 0x1726 JUMPI PUSH3 0x1725 PUSH3 0x1180 JUMP JUMPDEST JUMPDEST PUSH1 0x0 PUSH3 0x1736 DUP5 DUP3 DUP6 ADD PUSH3 0x1213 JUMP JUMPDEST SWAP2 POP POP SWAP3 SWAP2 POP POP JUMP JUMPDEST PUSH3 0x174A DUP2 PUSH3 0x11AA JUMP JUMPDEST DUP3 MSTORE POP POP JUMP JUMPDEST PUSH1 0x0 PUSH1 0x20 DUP3 ADD SWAP1 POP PUSH3 0x1767 PUSH1 0x0 DUP4 ADD DUP5 PUSH3 0x173F JUMP JUMPDEST SWAP3 SWAP2 POP POP JUMP JUMPDEST PUSH1 0x0 DUP1 DUP4 PUSH1 0x1F DUP5 ADD SLT PUSH3 0x1786 JUMPI PUSH3 0x1785 PUSH3 0x122A JUMP JUMPDEST JUMPDEST DUP3 CALLDATALOAD SWAP1 POP PUSH8 0xFFFFFFFFFFFFFFFF DUP2 GT ISZERO PUSH3 0x17A6 JUMPI PUSH3 0x17A5 PUSH3 0x163A JUMP JUMPDEST JUMPDEST PUSH1 0x20 DUP4 ADD SWAP2 POP DUP4 PUSH1 0x1 DUP3 MUL DUP4 ADD GT ISZERO PUSH3 0x17C5 JUMPI PUSH3 0x17C4 PUSH3 0x163F JUMP JUMPDEST JUMPDEST SWAP3 POP SWAP3 SWAP1 POP JUMP JUMPDEST PUSH1 0x0 DUP1 PUSH1 0x0 DUP1 PUSH1 0x60 DUP6 DUP8 SUB SLT ISZERO PUSH3 0x17E9 JUMPI PUSH3 0x17E8 PUSH3 0x1180 JUMP JUMPDEST JUMPDEST PUSH1 0x0 PUSH3 0x17F9 DUP8 DUP3 DUP9 ADD PUSH3 0x11D8 JUMP JUMPDEST SWAP5 POP POP PUSH1 0x20 PUSH3 0x180C DUP8 DUP3 DUP9 ADD PUSH3 0x1213 JUMP JUMPDEST SWAP4 POP POP PUSH1 0x40 DUP6 ADD CALLDATALOAD PUSH8 0xFFFFFFFFFFFFFFFF DUP2 GT ISZERO PUSH3 0x1830 JUMPI PUSH3 0x182F PUSH3 0x1185 JUMP JUMPDEST JUMPDEST PUSH3 0x183E DUP8 DUP3 DUP9 ADD PUSH3 0x176D JUMP JUMPDEST SWAP3 POP SWAP3 POP POP SWAP3 SWAP6 SWAP2 SWAP5 POP SWAP3 POP JUMP JUMPDEST PUSH1 0x0 DUP2 ISZERO ISZERO SWAP1 POP SWAP2 SWAP1 POP JUMP JUMPDEST PUSH3 0x1863 DUP2 PUSH3 0x184C JUMP JUMPDEST DUP3 MSTORE POP POP JUMP JUMPDEST PUSH1 0x0 PUSH1 0x20 DUP3 ADD SWAP1 POP PUSH3 0x1880 PUSH1 0x0 DUP4 ADD DUP5 PUSH3 0x1858 JUMP JUMPDEST SWAP3 SWAP2 POP POP JUMP JUMPDEST PUSH1 0x0 DUP1 PUSH1 0x0 DUP1 PUSH1 0x60 DUP6 DUP8 SUB SLT ISZERO PUSH3 0x18A3 JUMPI PUSH3 0x18A2 PUSH3 0x1180 JUMP JUMPDEST JUMPDEST PUSH1 0x0 PUSH3 0x18B3 DUP8 DUP3 DUP9 ADD PUSH3 0x11D8 JUMP JUMPDEST SWAP5 POP POP PUSH1 0x20 DUP6 ADD CALLDATALOAD PUSH8 0xFFFFFFFFFFFFFFFF DUP2 GT ISZERO PUSH3 0x18D7 JUMPI PUSH3 0x18D6 PUSH3 0x1185 JUMP JUMPDEST JUMPDEST PUSH3 0x18E5 DUP8 DUP3 DUP9 ADD PUSH3 0x1644 JUMP JUMPDEST SWAP4 POP SWAP4 POP POP PUSH1 0x40 PUSH3 0x18FA DUP8 DUP3 DUP9 ADD PUSH3 0x1213 JUMP JUMPDEST SWAP2 POP POP SWAP3 SWAP6 SWAP2 SWAP5 POP SWAP3 POP JUMP JUMPDEST PUSH1 0x0 PUSH1 0x20 DUP3 DUP5 SUB SLT ISZERO PUSH3 0x191F JUMPI PUSH3 0x191E PUSH3 0x1180 JUMP JUMPDEST JUMPDEST PUSH1 0x0 PUSH3 0x192F DUP5 DUP3 DUP6 ADD PUSH3 0x11D8 JUMP JUMPDEST SWAP2 POP POP SWAP3 SWAP2 POP POP JUMP JUMPDEST PUSH1 0x0 DUP2 MLOAD SWAP1 POP PUSH3 0x1949 DUP2 PUSH3 0x11F9 JUMP JUMPDEST SWAP3 SWAP2 POP POP JUMP JUMPDEST PUSH1 0x0 PUSH1 0x20 DUP3 DUP5 SUB SLT ISZERO PUSH3 0x1968 JUMPI PUSH3 0x1967 PUSH3 0x1180 JUMP JUMPDEST JUMPDEST PUSH1 0x0 PUSH3 0x1978 DUP5 DUP3 DUP6 ADD PUSH3 0x1938 JUMP JUMPDEST SWAP2 POP POP SWAP3 SWAP2 POP POP JUMP JUMPDEST PUSH32 0x4E487B7100000000000000000000000000000000000000000000000000000000 PUSH1 0x0 MSTORE PUSH1 0x11 PUSH1 0x4 MSTORE PUSH1 0x24 PUSH1 0x0 REVERT JUMPDEST PUSH1 0x0 PUSH3 0x19BD DUP3 PUSH3 0x11EF JUMP JUMPDEST SWAP2 POP PUSH32 0xFFFFFFFFFFFFFFFFFFFFFFFFFFFFFFFFFFFFFFFFFFFFFFFFFFFFFFFFFFFFFFFF DUP3 SUB PUSH3 0x19F2 JUMPI PUSH3 0x19F1 PUSH3 0x1981 JUMP JUMPDEST JUMPDEST PUSH1 0x1 DUP3 ADD SWAP1 POP SWAP2 SWAP1 POP JUMP JUMPDEST PUSH1 0x0 PUSH8 0xFFFFFFFFFFFFFFFF DUP3 GT ISZERO PUSH3 0x1A1B JUMPI PUSH3 0x1A1A PUSH3 0x1245 JUMP JUMPDEST JUMPDEST PUSH1 0x20 DUP3 MUL SWAP1 POP PUSH1 0x20 DUP2 ADD SWAP1 POP SWAP2 SWAP1 POP JUMP JUMPDEST PUSH1 0x0 PUSH3 0x1A43 PUSH3 0x1A3D DUP5 PUSH3 0x19FD JUMP JUMPDEST PUSH3 0x12AA JUMP JUMPDEST SWAP1 POP DUP1 DUP4 DUP3 MSTORE PUSH1 0x20 DUP3 ADD SWAP1 POP PUSH1 0x20 DUP5 MUL DUP4 ADD DUP6 DUP2 GT ISZERO PUSH3 0x1A69 JUMPI PUSH3 0x1A68 PUSH3 0x163F JUMP JUMPDEST JUMPDEST DUP4 JUMPDEST DUP2 DUP2 LT ISZERO PUSH3 0x1A96 JUMPI DUP1 PUSH3 0x1A81 DUP9 DUP3 PUSH3 0x1938 JUMP JUMPDEST DUP5 MSTORE PUSH1 0x20 DUP5 ADD SWAP4 POP POP PUSH1 0x20 DUP2 ADD SWAP1 POP PUSH3 0x1A6B JUMP JUMPDEST POP POP POP SWAP4 SWAP3 POP POP POP JUMP JUMPDEST PUSH1 0x0 DUP3 PUSH1 0x1F DUP4 ADD SLT PUSH3 0x1AB8 JUMPI PUSH3 0x1AB7 PUSH3 0x122A JUMP JUMPDEST JUMPDEST DUP2 MLOAD PUSH3 0x1ACA DUP5 DUP3 PUSH1 0x20 DUP7 ADD PUSH3 0x1A2C JUMP JUMPDEST SWAP2 POP POP SWAP3 SWAP2 POP POP JUMP JUMPDEST PUSH1 0x0 PUSH1 0x20 DUP3 DUP5 SUB SLT ISZERO PUSH3 0x1AEC JUMPI PUSH3 0x1AEB PUSH3 0x1180 JUMP JUMPDEST JUMPDEST PUSH1 0x0 DUP3 ADD MLOAD PUSH8 0xFFFFFFFFFFFFFFFF DUP2 GT ISZERO PUSH3 0x1B0D JUMPI PUSH3 0x1B0C PUSH3 0x1185 JUMP JUMPDEST JUMPDEST PUSH3 0x1B1B DUP5 DUP3 DUP6 ADD PUSH3 0x1AA0 JUMP JUMPDEST SWAP2 POP POP SWAP3 SWAP2 POP POP JUMP JUMPDEST PUSH32 0x4E487B7100000000000000000000000000000000000000000000000000000000 PUSH1 0x0 MSTORE PUSH1 0x32 PUSH1 0x4 MSTORE PUSH1 0x24 PUSH1 0x0 REVERT JUMPDEST PUSH1 0x0 PUSH1 0x60 DUP3 ADD SWAP1 POP PUSH3 0x1B6A PUSH1 0x0 DUP4 ADD DUP7 PUSH3 0x173F JUMP JUMPDEST PUSH3 0x1B79 PUSH1 0x20 DUP4 ADD DUP6 PUSH3 0x173F JUMP JUMPDEST PUSH3 0x1B88 PUSH1 0x40 DUP4 ADD DUP5 PUSH3 0x1477 JUMP JUMPDEST SWAP5 SWAP4 POP POP POP POP JUMP JUMPDEST PUSH1 0x0 DUP2 SWAP1 POP SWAP3 SWAP2 POP POP JUMP JUMPDEST PUSH1 0x0 PUSH3 0x1BA9 DUP4 DUP6 PUSH3 0x1B90 JUMP JUMPDEST SWAP4 POP PUSH3 0x1BB8 DUP4 DUP6 DUP5 PUSH3 0x12FF JUMP JUMPDEST DUP3 DUP5 ADD SWAP1 POP SWAP4 SWAP3 POP POP POP JUMP JUMPDEST PUSH1 0x0 PUSH3 0x1BD3 DUP3 DUP5 DUP7 PUSH3 0x1B9B JUMP JUMPDEST SWAP2 POP DUP2 SWAP1 POP SWAP4 SWAP3 POP POP POP JUMP JUMPDEST PUSH1 0x0 DUP2 MLOAD SWAP1 POP PUSH3 0x1BF0 DUP2 PUSH3 0x11BE JUMP JUMPDEST SWAP3 SWAP2 POP POP JUMP JUMPDEST PUSH1 0x0 PUSH1 0x20 DUP3 DUP5 SUB SLT ISZERO PUSH3 0x1C0F JUMPI PUSH3 0x1C0E PUSH3 0x1180 JUMP JUMPDEST JUMPDEST PUSH1 0x0 PUSH3 0x1C1F DUP5 DUP3 DUP6 ADD PUSH3 0x1BDF JUMP JUMPDEST SWAP2 POP POP SWAP3 SWAP2 POP POP JUMP JUMPDEST PUSH1 0x0 DUP1 REVERT JUMPDEST DUP3 DUP2 DUP4 CALLDATACOPY POP POP POP JUMP JUMPDEST PUSH1 0x0 PUSH3 0x1C44 DUP4 DUP6 PUSH3 0x1553 JUMP JUMPDEST SWAP4 POP PUSH32 0x7FFFFFFFFFFFFFFFFFFFFFFFFFFFFFFFFFFFFFFFFFFFFFFFFFFFFFFFFFFFFFF DUP4 GT ISZERO PUSH3 0x1C7A JUMPI PUSH3 0x1C79 PUSH3 0x1C28 JUMP JUMPDEST JUMPDEST PUSH1 0x20 DUP4 MUL SWAP3 POP PUSH3 0x1C8D DUP4 DUP6 DUP5 PUSH3 0x1C2D JUMP JUMPDEST DUP3 DUP5 ADD SWAP1 POP SWAP4 SWAP3 POP POP POP JUMP JUMPDEST PUSH1 0x0 PUSH1 0x40 DUP3 ADD SWAP1 POP PUSH3 0x1CB0 PUSH1 0x0 DUP4 ADD DUP7 PUSH3 0x173F JUMP JUMPDEST DUP2 DUP2 SUB PUSH1 0x20 DUP4 ADD MSTORE PUSH3 0x1CC5 DUP2 DUP5 DUP7 PUSH3 0x1C36 JUMP JUMPDEST SWAP1 POP SWAP5 SWAP4 POP POP POP POP JUMP JUMPDEST PUSH1 0x0 DUP3 DUP3 MSTORE PUSH1 0x20 DUP3 ADD SWAP1 POP SWAP3 SWAP2 POP POP JUMP JUMPDEST PUSH32 0x4F776E61626C653A206E6577206F776E657220697320746865207A65726F2061 PUSH1 0x0 DUP3 ADD MSTORE PUSH32 0x6464726573730000000000000000000000000000000000000000000000000000 PUSH1 0x20 DUP3 ADD MSTORE POP JUMP JUMPDEST PUSH1 0x0 PUSH3 0x1D3E PUSH1 0x26 DUP4 PUSH3 0x1CCF JUMP JUMPDEST SWAP2 POP PUSH3 0x1D4B DUP3 PUSH3 0x1CE0 JUMP JUMPDEST PUSH1 0x40 DUP3 ADD SWAP1 POP SWAP2 SWAP1 POP JUMP JUMPDEST PUSH1 0x0 PUSH1 0x20 DUP3 ADD SWAP1 POP DUP2 DUP2 SUB PUSH1 0x0 DUP4 ADD MSTORE PUSH3 0x1D71 DUP2 PUSH3 0x1D2F JUMP JUMPDEST SWAP1 POP SWAP2 SWAP1 POP JUMP JUMPDEST PUSH32 0x4E487B7100000000000000000000000000000000000000000000000000000000 PUSH1 0x0 MSTORE PUSH1 0x12 PUSH1 0x4 MSTORE PUSH1 0x24 PUSH1 0x0 REVERT JUMPDEST PUSH1 0x0 PUSH3 0x1DB4 DUP3 PUSH3 0x11EF JUMP JUMPDEST SWAP2 POP PUSH3 0x1DC1 DUP4 PUSH3 0x11EF JUMP JUMPDEST SWAP3 POP DUP3 PUSH3 0x1DD4 JUMPI PUSH3 0x1DD3 PUSH3 0x1D78 JUMP JUMPDEST JUMPDEST DUP3 DUP3 DIV SWAP1 POP SWAP3 SWAP2 POP POP JUMP JUMPDEST PUSH1 0x0 DUP3 DUP3 MSTORE PUSH1 0x20 DUP3 ADD SWAP1 POP SWAP3 SWAP2 POP POP JUMP JUMPDEST PUSH1 0x0 PUSH3 0x1DFE DUP4 DUP6 PUSH3 0x1DDF JUMP JUMPDEST SWAP4 POP PUSH3 0x1E0D DUP4 DUP6 DUP5 PUSH3 0x12FF JUMP JUMPDEST PUSH3 0x1E18 DUP4 PUSH3 0x1234 JUMP JUMPDEST DUP5 ADD SWAP1 POP SWAP4 SWAP3 POP POP POP JUMP JUMPDEST PUSH1 0x0 PUSH1 0x40 DUP3 ADD SWAP1 POP PUSH3 0x1E3A PUSH1 0x0 DUP4 ADD DUP7 PUSH3 0x173F JUMP JUMPDEST DUP2 DUP2 SUB PUSH1 0x20 DUP4 ADD MSTORE PUSH3 0x1E4F DUP2 DUP5 DUP7 PUSH3 0x1DF0 JUMP JUMPDEST SWAP1 POP SWAP5 SWAP4 POP POP POP POP JUMP JUMPDEST PUSH32 0x4F776E61626C653A2063616C6C6572206973206E6F7420746865206F776E6572 PUSH1 0x0 DUP3 ADD MSTORE POP JUMP JUMPDEST PUSH1 0x0 PUSH3 0x1E91 PUSH1 0x20 DUP4 PUSH3 0x1CCF JUMP JUMPDEST SWAP2 POP PUSH3 0x1E9E DUP3 PUSH3 0x1E59 JUMP JUMPDEST PUSH1 0x20 DUP3 ADD SWAP1 POP SWAP2 SWAP1 POP JUMP JUMPDEST PUSH1 0x0 PUSH1 0x20 DUP3 ADD SWAP1 POP DUP2 DUP2 SUB PUSH1 0x0 DUP4 ADD MSTORE PUSH3 0x1EC4 DUP2 PUSH3 0x1E82 JUMP JUMPDEST SWAP1 POP SWAP2 SWAP1 POP JUMP JUMPDEST PUSH1 0x0 DUP2 MLOAD SWAP1 POP SWAP2 SWAP1 POP JUMP JUMPDEST PUSH1 0x0 JUMPDEST DUP4 DUP2 LT ISZERO PUSH3 0x1EF6 JUMPI DUP1 DUP3 ADD MLOAD DUP2 DUP5 ADD MSTORE PUSH1 0x20 DUP2 ADD SWAP1 POP PUSH3 0x1ED9 JUMP JUMPDEST PUSH1 0x0 DUP5 DUP5 ADD MSTORE POP POP POP POP JUMP JUMPDEST PUSH1 0x0 PUSH3 0x1F0F DUP3 PUSH3 0x1ECB JUMP JUMPDEST PUSH3 0x1F1B DUP2 DUP6 PUSH3 0x1B90 JUMP JUMPDEST SWAP4 POP PUSH3 0x1F2D DUP2 DUP6 PUSH1 0x20 DUP7 ADD PUSH3 0x1ED6 JUMP JUMPDEST DUP1 DUP5 ADD SWAP2 POP POP SWAP3 SWAP2 POP POP JUMP JUMPDEST PUSH1 0x0 PUSH3 0x1F47 DUP3 DUP6 PUSH3 0x1F02 JUMP JUMPDEST SWAP2 POP PUSH3 0x1F55 DUP3 DUP5 PUSH3 0x1F02 JUMP JUMPDEST SWAP2 POP DUP2 SWAP1 POP SWAP4 SWAP3 POP POP POP JUMP INVALID PUSH1 0x80 PUSH1 0x40 MSTORE CALLVALUE DUP1 ISZERO PUSH2 0x10 JUMPI PUSH1 0x0 DUP1 REVERT JUMPDEST POP PUSH1 0x40 MLOAD PUSH3 0xF8B CODESIZE SUB DUP1 PUSH3 0xF8B DUP4 CODECOPY DUP2 DUP2 ADD PUSH1 0x40 MSTORE DUP2 ADD SWAP1 PUSH2 0x34 SWAP2 SWAP1 PUSH2 0xDD JUMP JUMPDEST DUP1 PUSH1 0x0 DUP1 PUSH2 0x100 EXP DUP2 SLOAD DUP2 PUSH20 0xFFFFFFFFFFFFFFFFFFFFFFFFFFFFFFFFFFFFFFFF MUL NOT AND SWAP1 DUP4 PUSH20 0xFFFFFFFFFFFFFFFFFFFFFFFFFFFFFFFFFFFFFFFF AND MUL OR SWAP1 SSTORE POP POP PUSH2 0x10A JUMP JUMPDEST PUSH1 0x0 DUP1 REVERT JUMPDEST PUSH1 0x0 PUSH20 0xFFFFFFFFFFFFFFFFFFFFFFFFFFFFFFFFFFFFFFFF DUP3 AND SWAP1 POP SWAP2 SWAP1 POP JUMP JUMPDEST PUSH1 0x0 PUSH2 0xAA DUP3 PUSH2 0x7F JUMP JUMPDEST SWAP1 POP SWAP2 SWAP1 POP JUMP JUMPDEST PUSH2 0xBA DUP2 PUSH2 0x9F JUMP JUMPDEST DUP2 EQ PUSH2 0xC5 JUMPI PUSH1 0x0 DUP1 REVERT JUMPDEST POP JUMP JUMPDEST PUSH1 0x0 DUP2 MLOAD SWAP1 POP PUSH2 0xD7 DUP2 PUSH2 0xB1 JUMP JUMPDEST SWAP3 SWAP2 POP POP JUMP JUMPDEST PUSH1 0x0 PUSH1 0x20 DUP3 DUP5 SUB SLT ISZERO PUSH2 0xF3 JUMPI PUSH2 0xF2 PUSH2 0x7A JUMP JUMPDEST JUMPDEST PUSH1 0x0 PUSH2 0x101 DUP5 DUP3 DUP6 ADD PUSH2 0xC8 JUMP JUMPDEST SWAP2 POP POP SWAP3 SWAP2 POP POP JUMP JUMPDEST PUSH2 0xE71 DUP1 PUSH3 0x11A PUSH1 0x0 CODECOPY PUSH1 0x0 RETURN INVALID PUSH1 0x80 PUSH1 0x40 MSTORE PUSH1 0x4 CALLDATASIZE LT PUSH2 0x70 JUMPI PUSH1 0x0 CALLDATALOAD PUSH1 0xE0 SHR DUP1 PUSH4 0x86AAA506 GT PUSH2 0x4E JUMPI DUP1 PUSH4 0x86AAA506 EQ PUSH2 0x104 JUMPI DUP1 PUSH4 0xB510391F EQ PUSH2 0x12D JUMPI DUP1 PUSH4 0xC57A1166 EQ PUSH2 0x149 JUMPI DUP1 PUSH4 0xF851A440 EQ PUSH2 0x186 JUMPI PUSH2 0x70 JUMP JUMPDEST DUP1 PUSH4 0x150B7A02 EQ PUSH2 0x75 JUMPI DUP1 PUSH4 0x1A695230 EQ PUSH2 0xB2 JUMPI DUP1 PUSH4 0x3E1A037C EQ PUSH2 0xDB JUMPI JUMPDEST PUSH1 0x0 DUP1 REVERT JUMPDEST CALLVALUE DUP1 ISZERO PUSH2 0x81 JUMPI PUSH1 0x0 DUP1 REVERT JUMPDEST POP PUSH2 0x9C PUSH1 0x4 DUP1 CALLDATASIZE SUB DUP2 ADD SWAP1 PUSH2 0x97 SWAP2 SWAP1 PUSH2 0x940 JUMP JUMPDEST PUSH2 0x1B1 JUMP JUMPDEST PUSH1 0x40 MLOAD PUSH2 0xA9 SWAP2 SWAP1 PUSH2 0x9FE JUMP JUMPDEST PUSH1 0x40 MLOAD DUP1 SWAP2 SUB SWAP1 RETURN JUMPDEST CALLVALUE DUP1 ISZERO PUSH2 0xBE JUMPI PUSH1 0x0 DUP1 REVERT JUMPDEST POP PUSH2 0xD9 PUSH1 0x4 DUP1 CALLDATASIZE SUB DUP2 ADD SWAP1 PUSH2 0xD4 SWAP2 SWAP1 PUSH2 0xA19 JUMP JUMPDEST PUSH2 0x22B JUMP JUMPDEST STOP JUMPDEST CALLVALUE DUP1 ISZERO PUSH2 0xE7 JUMPI PUSH1 0x0 DUP1 REVERT JUMPDEST POP PUSH2 0x102 PUSH1 0x4 DUP1 CALLDATASIZE SUB DUP2 ADD SWAP1 PUSH2 0xFD SWAP2 SWAP1 PUSH2 0xAA6 JUMP JUMPDEST PUSH2 0x3DB JUMP JUMPDEST STOP JUMPDEST CALLVALUE DUP1 ISZERO PUSH2 0x110 JUMPI PUSH1 0x0 DUP1 REVERT JUMPDEST POP PUSH2 0x12B PUSH1 0x4 DUP1 CALLDATASIZE SUB DUP2 ADD SWAP1 PUSH2 0x126 SWAP2 SWAP1 PUSH2 0xB06 JUMP JUMPDEST PUSH2 0x4FB JUMP JUMPDEST STOP JUMPDEST PUSH2 0x147 PUSH1 0x4 DUP1 CALLDATASIZE SUB DUP2 ADD SWAP1 PUSH2 0x142 SWAP2 SWAP1 PUSH2 0xB9C JUMP JUMPDEST PUSH2 0x5D9 JUMP JUMPDEST STOP JUMPDEST CALLVALUE DUP1 ISZERO PUSH2 0x155 JUMPI PUSH1 0x0 DUP1 REVERT JUMPDEST POP PUSH2 0x170 PUSH1 0x4 DUP1 CALLDATASIZE SUB DUP2 ADD SWAP1 PUSH2 0x16B SWAP2 SWAP1 PUSH2 0xA19 JUMP JUMPDEST PUSH2 0x659 JUMP JUMPDEST PUSH1 0x40 MLOAD PUSH2 0x17D SWAP2 SWAP1 PUSH2 0xCBA JUMP JUMPDEST PUSH1 0x40 MLOAD DUP1 SWAP2 SUB SWAP1 RETURN JUMPDEST CALLVALUE DUP1 ISZERO PUSH2 0x192 JUMPI PUSH1 0x0 DUP1 REVERT JUMPDEST POP PUSH2 0x19B PUSH2 0x6F0 JUMP JUMPDEST PUSH1 0x40 MLOAD PUSH2 0x1A8 SWAP2 SWAP1 PUSH2 0xCEB JUMP JUMPDEST PUSH1 0x40 MLOAD DUP1 SWAP2 SUB SWAP1 RETURN JUMPDEST PUSH1 0x0 PUSH1 0x1 PUSH1 0x0 CALLER PUSH20 0xFFFFFFFFFFFFFFFFFFFFFFFFFFFFFFFFFFFFFFFF AND PUSH20 0xFFFFFFFFFFFFFFFFFFFFFFFFFFFFFFFFFFFFFFFF AND DUP2 MSTORE PUSH1 0x20 ADD SWAP1 DUP2 MSTORE PUSH1 0x20 ADD PUSH1 0x0 KECCAK256 DUP4 SWAP1 DUP1 PUSH1 0x1 DUP2 SLOAD ADD DUP1 DUP3 SSTORE DUP1 SWAP2 POP POP PUSH1 0x1 SWAP1 SUB SWAP1 PUSH1 0x0 MSTORE PUSH1 0x20 PUSH1 0x0 KECCAK256 ADD PUSH1 0x0 SWAP1 SWAP2 SWAP1 SWAP2 SWAP1 SWAP2 POP SSTORE PUSH4 0x150B7A02 PUSH1 0xE0 SHL SWAP1 POP SWAP5 SWAP4 POP POP POP POP JUMP JUMPDEST PUSH1 0x0 PUSH1 0x1 PUSH1 0x0 DUP4 PUSH20 0xFFFFFFFFFFFFFFFFFFFFFFFFFFFFFFFFFFFFFFFF AND PUSH20 0xFFFFFFFFFFFFFFFFFFFFFFFFFFFFFFFFFFFFFFFF AND DUP2 MSTORE PUSH1 0x20 ADD SWAP1 DUP2 MSTORE PUSH1 0x20 ADD PUSH1 0x0 KECCAK256 DUP1 SLOAD DUP1 PUSH1 0x20 MUL PUSH1 0x20 ADD PUSH1 0x40 MLOAD SWAP1 DUP2 ADD PUSH1 0x40 MSTORE DUP1 SWAP3 SWAP2 SWAP1 DUP2 DUP2 MSTORE PUSH1 0x20 ADD DUP3 DUP1 SLOAD DUP1 ISZERO PUSH2 0x2B6 JUMPI PUSH1 0x20 MUL DUP3 ADD SWAP2 SWAP1 PUSH1 0x0 MSTORE PUSH1 0x20 PUSH1 0x0 KECCAK256 SWAP1 JUMPDEST DUP2 SLOAD DUP2 MSTORE PUSH1 0x20 ADD SWAP1 PUSH1 0x1 ADD SWAP1 DUP1 DUP4 GT PUSH2 0x2A2 JUMPI JUMPDEST POP POP POP POP POP SWAP1 POP PUSH1 0x0 DUP2 MLOAD SWAP1 POP PUSH1 0x0 JUMPDEST DUP2 DUP2 LT ISZERO PUSH2 0x38A JUMPI DUP4 PUSH20 0xFFFFFFFFFFFFFFFFFFFFFFFFFFFFFFFFFFFFFFFF AND PUSH4 0x23B872DD ADDRESS PUSH1 0x0 DUP1 SLOAD SWAP1 PUSH2 0x100 EXP SWAP1 DIV PUSH20 0xFFFFFFFFFFFFFFFFFFFFFFFFFFFFFFFFFFFFFFFF AND DUP7 DUP6 DUP2 MLOAD DUP2 LT PUSH2 0x31F JUMPI PUSH2 0x31E PUSH2 0xD06 JUMP JUMPDEST JUMPDEST PUSH1 0x20 MUL PUSH1 0x20 ADD ADD MLOAD PUSH1 0x40 MLOAD DUP5 PUSH4 0xFFFFFFFF AND PUSH1 0xE0 SHL DUP2 MSTORE PUSH1 0x4 ADD PUSH2 0x345 SWAP4 SWAP3 SWAP2 SWAP1 PUSH2 0xD44 JUMP JUMPDEST PUSH1 0x0 PUSH1 0x40 MLOAD DUP1 DUP4 SUB DUP2 PUSH1 0x0 DUP8 DUP1 EXTCODESIZE ISZERO DUP1 ISZERO PUSH2 0x35F JUMPI PUSH1 0x0 DUP1 REVERT JUMPDEST POP GAS CALL ISZERO DUP1 ISZERO PUSH2 0x373 JUMPI RETURNDATASIZE PUSH1 0x0 DUP1 RETURNDATACOPY RETURNDATASIZE PUSH1 0x0 REVERT JUMPDEST POP POP POP POP DUP1 DUP1 PUSH2 0x382 SWAP1 PUSH2 0xDAA JUMP JUMPDEST SWAP2 POP POP PUSH2 0x2C6 JUMP JUMPDEST POP PUSH1 0x1 PUSH1 0x0 DUP5 PUSH20 0xFFFFFFFFFFFFFFFFFFFFFFFFFFFFFFFFFFFFFFFF AND PUSH20 0xFFFFFFFFFFFFFFFFFFFFFFFFFFFFFFFFFFFFFFFF AND DUP2 MSTORE PUSH1 0x20 ADD SWAP1 DUP2 MSTORE PUSH1 0x20 ADD PUSH1 0x0 KECCAK256 PUSH1 0x0 PUSH2 0x3D6 SWAP2 SWAP1 PUSH2 0x714 JUMP JUMPDEST POP POP POP JUMP JUMPDEST PUSH1 0x0 DUP3 DUP3 SWAP1 POP SWAP1 POP PUSH1 0x0 JUMPDEST DUP2 DUP2 LT ISZERO PUSH2 0x4A9 JUMPI DUP5 PUSH20 0xFFFFFFFFFFFFFFFFFFFFFFFFFFFFFFFFFFFFFFFF AND PUSH4 0x23B872DD ADDRESS PUSH1 0x0 DUP1 SLOAD SWAP1 PUSH2 0x100 EXP SWAP1 DIV PUSH20 0xFFFFFFFFFFFFFFFFFFFFFFFFFFFFFFFFFFFFFFFF AND DUP8 DUP8 DUP7 DUP2 DUP2 LT PUSH2 0x43F JUMPI PUSH2 0x43E PUSH2 0xD06 JUMP JUMPDEST JUMPDEST SWAP1 POP PUSH1 0x20 MUL ADD CALLDATALOAD PUSH1 0x40 MLOAD DUP5 PUSH4 0xFFFFFFFF AND PUSH1 0xE0 SHL DUP2 MSTORE PUSH1 0x4 ADD PUSH2 0x464 SWAP4 SWAP3 SWAP2 SWAP1 PUSH2 0xD44 JUMP JUMPDEST PUSH1 0x0 PUSH1 0x40 MLOAD DUP1 DUP4 SUB DUP2 PUSH1 0x0 DUP8 DUP1 EXTCODESIZE ISZERO DUP1 ISZERO PUSH2 0x47E JUMPI PUSH1 0x0 DUP1 REVERT JUMPDEST POP GAS CALL ISZERO DUP1 ISZERO PUSH2 0x492 JUMPI RETURNDATASIZE PUSH1 0x0 DUP1 RETURNDATACOPY RETURNDATASIZE PUSH1 0x0 REVERT JUMPDEST POP POP POP POP DUP1 DUP1 PUSH2 0x4A1 SWAP1 PUSH2 0xDAA JUMP JUMPDEST SWAP2 POP POP PUSH2 0x3E6 JUMP JUMPDEST POP PUSH1 0x1 PUSH1 0x0 DUP6 PUSH20 0xFFFFFFFFFFFFFFFFFFFFFFFFFFFFFFFFFFFFFFFF AND PUSH20 0xFFFFFFFFFFFFFFFFFFFFFFFFFFFFFFFFFFFFFFFF AND DUP2 MSTORE PUSH1 0x20 ADD SWAP1 DUP2 MSTORE PUSH1 0x20 ADD PUSH1 0x0 KECCAK256 PUSH1 0x0 PUSH2 0x4F5 SWAP2 SWAP1 PUSH2 0x714 JUMP JUMPDEST POP POP POP POP JUMP JUMPDEST DUP2 PUSH20 0xFFFFFFFFFFFFFFFFFFFFFFFFFFFFFFFFFFFFFFFF AND PUSH4 0x23B872DD ADDRESS PUSH1 0x0 DUP1 SLOAD SWAP1 PUSH2 0x100 EXP SWAP1 DIV PUSH20 0xFFFFFFFFFFFFFFFFFFFFFFFFFFFFFFFFFFFFFFFF AND DUP5 PUSH1 0x40 MLOAD DUP5 PUSH4 0xFFFFFFFF AND PUSH1 0xE0 SHL DUP2 MSTORE PUSH1 0x4 ADD PUSH2 0x558 SWAP4 SWAP3 SWAP2 SWAP1 PUSH2 0xD44 JUMP JUMPDEST PUSH1 0x0 PUSH1 0x40 MLOAD DUP1 DUP4 SUB DUP2 PUSH1 0x0 DUP8 DUP1 EXTCODESIZE ISZERO DUP1 ISZERO PUSH2 0x572 JUMPI PUSH1 0x0 DUP1 REVERT JUMPDEST POP GAS CALL ISZERO DUP1 ISZERO PUSH2 0x586 JUMPI RETURNDATASIZE PUSH1 0x0 DUP1 RETURNDATACOPY RETURNDATASIZE PUSH1 0x0 REVERT JUMPDEST POP POP POP POP PUSH1 0x1 PUSH1 0x0 DUP4 PUSH20 0xFFFFFFFFFFFFFFFFFFFFFFFFFFFFFFFFFFFFFFFF AND PUSH20 0xFFFFFFFFFFFFFFFFFFFFFFFFFFFFFFFFFFFFFFFF AND DUP2 MSTORE PUSH1 0x20 ADD SWAP1 DUP2 MSTORE PUSH1 0x20 ADD PUSH1 0x0 KECCAK256 PUSH1 0x0 PUSH2 0x5D5 SWAP2 SWAP1 PUSH2 0x714 JUMP JUMPDEST POP POP JUMP JUMPDEST PUSH1 0x0 DUP4 PUSH20 0xFFFFFFFFFFFFFFFFFFFFFFFFFFFFFFFFFFFFFFFF AND CALLVALUE DUP5 DUP5 PUSH1 0x40 MLOAD PUSH2 0x603 SWAP3 SWAP2 SWAP1 PUSH2 0xE22 JUMP JUMPDEST PUSH1 0x0 PUSH1 0x40 MLOAD DUP1 DUP4 SUB DUP2 DUP6 DUP8 GAS CALL SWAP3 POP POP POP RETURNDATASIZE DUP1 PUSH1 0x0 DUP2 EQ PUSH2 0x640 JUMPI PUSH1 0x40 MLOAD SWAP2 POP PUSH1 0x1F NOT PUSH1 0x3F RETURNDATASIZE ADD AND DUP3 ADD PUSH1 0x40 MSTORE RETURNDATASIZE DUP3 MSTORE RETURNDATASIZE PUSH1 0x0 PUSH1 0x20 DUP5 ADD RETURNDATACOPY PUSH2 0x645 JUMP JUMPDEST PUSH1 0x60 SWAP2 POP JUMPDEST POP POP SWAP1 POP DUP1 PUSH2 0x653 JUMPI PUSH1 0x0 DUP1 REVERT JUMPDEST POP POP POP POP JUMP JUMPDEST PUSH1 0x60 PUSH1 0x1 PUSH1 0x0 DUP4 PUSH20 0xFFFFFFFFFFFFFFFFFFFFFFFFFFFFFFFFFFFFFFFF AND PUSH20 0xFFFFFFFFFFFFFFFFFFFFFFFFFFFFFFFFFFFFFFFF AND DUP2 MSTORE PUSH1 0x20 ADD SWAP1 DUP2 MSTORE PUSH1 0x20 ADD PUSH1 0x0 KECCAK256 DUP1 SLOAD DUP1 PUSH1 0x20 MUL PUSH1 0x20 ADD PUSH1 0x40 MLOAD SWAP1 DUP2 ADD PUSH1 0x40 MSTORE DUP1 SWAP3 SWAP2 SWAP1 DUP2 DUP2 MSTORE PUSH1 0x20 ADD DUP3 DUP1 SLOAD DUP1 ISZERO PUSH2 0x6E4 JUMPI PUSH1 0x20 MUL DUP3 ADD SWAP2 SWAP1 PUSH1 0x0 MSTORE PUSH1 0x20 PUSH1 0x0 KECCAK256 SWAP1 JUMPDEST DUP2 SLOAD DUP2 MSTORE PUSH1 0x20 ADD SWAP1 PUSH1 0x1 ADD SWAP1 DUP1 DUP4 GT PUSH2 0x6D0 JUMPI JUMPDEST POP POP POP POP POP SWAP1 POP SWAP2 SWAP1 POP JUMP JUMPDEST PUSH1 0x0 DUP1 SLOAD SWAP1 PUSH2 0x100 EXP SWAP1 DIV PUSH20 0xFFFFFFFFFFFFFFFFFFFFFFFFFFFFFFFFFFFFFFFF AND DUP2 JUMP JUMPDEST POP DUP1 SLOAD PUSH1 0x0 DUP3 SSTORE SWAP1 PUSH1 0x0 MSTORE PUSH1 0x20 PUSH1 0x0 KECCAK256 SWAP1 DUP2 ADD SWAP1 PUSH2 0x732 SWAP2 SWAP1 PUSH2 0x735 JUMP JUMPDEST POP JUMP JUMPDEST JUMPDEST DUP1 DUP3 GT ISZERO PUSH2 0x74E JUMPI PUSH1 0x0 DUP2 PUSH1 0x0 SWAP1 SSTORE POP PUSH1 0x1 ADD PUSH2 0x736 JUMP JUMPDEST POP SWAP1 JUMP JUMPDEST PUSH1 0x0 PUSH1 0x40 MLOAD SWAP1 POP SWAP1 JUMP JUMPDEST PUSH1 0x0 DUP1 REVERT JUMPDEST PUSH1 0x0 DUP1 REVERT JUMPDEST PUSH1 0x0 PUSH20 0xFFFFFFFFFFFFFFFFFFFFFFFFFFFFFFFFFFFFFFFF DUP3 AND SWAP1 POP SWAP2 SWAP1 POP JUMP JUMPDEST PUSH1 0x0 PUSH2 0x791 DUP3 PUSH2 0x766 JUMP JUMPDEST SWAP1 POP SWAP2 SWAP1 POP JUMP JUMPDEST PUSH2 0x7A1 DUP2 PUSH2 0x786 JUMP JUMPDEST DUP2 EQ PUSH2 0x7AC JUMPI PUSH1 0x0 DUP1 REVERT JUMPDEST POP JUMP JUMPDEST PUSH1 0x0 DUP2 CALLDATALOAD SWAP1 POP PUSH2 0x7BE DUP2 PUSH2 0x798 JUMP JUMPDEST SWAP3 SWAP2 POP POP JUMP JUMPDEST PUSH1 0x0 DUP2 SWAP1 POP SWAP2 SWAP1 POP JUMP JUMPDEST PUSH2 0x7D7 DUP2 PUSH2 0x7C4 JUMP JUMPDEST DUP2 EQ PUSH2 0x7E2 JUMPI PUSH1 0x0 DUP1 REVERT JUMPDEST POP JUMP JUMPDEST PUSH1 0x0 DUP2 CALLDATALOAD SWAP1 POP PUSH2 0x7F4 DUP2 PUSH2 0x7CE JUMP JUMPDEST SWAP3 SWAP2 POP POP JUMP JUMPDEST PUSH1 0x0 DUP1 REVERT JUMPDEST PUSH1 0x0 DUP1 REVERT JUMPDEST PUSH1 0x0 PUSH1 0x1F NOT PUSH1 0x1F DUP4 ADD AND SWAP1 POP SWAP2 SWAP1 POP JUMP JUMPDEST PUSH32 0x4E487B7100000000000000000000000000000000000000000000000000000000 PUSH1 0x0 MSTORE PUSH1 0x41 PUSH1 0x4 MSTORE PUSH1 0x24 PUSH1 0x0 REVERT JUMPDEST PUSH2 0x84D DUP3 PUSH2 0x804 JUMP JUMPDEST DUP2 ADD DUP2 DUP2 LT PUSH8 0xFFFFFFFFFFFFFFFF DUP3 GT OR ISZERO PUSH2 0x86C JUMPI PUSH2 0x86B PUSH2 0x815 JUMP JUMPDEST JUMPDEST DUP1 PUSH1 0x40 MSTORE POP POP POP JUMP JUMPDEST PUSH1 0x0 PUSH2 0x87F PUSH2 0x752 JUMP JUMPDEST SWAP1 POP PUSH2 0x88B DUP3 DUP3 PUSH2 0x844 JUMP JUMPDEST SWAP2 SWAP1 POP JUMP JUMPDEST PUSH1 0x0 PUSH8 0xFFFFFFFFFFFFFFFF DUP3 GT ISZERO PUSH2 0x8AB JUMPI PUSH2 0x8AA PUSH2 0x815 JUMP JUMPDEST JUMPDEST PUSH2 0x8B4 DUP3 PUSH2 0x804 JUMP JUMPDEST SWAP1 POP PUSH1 0x20 DUP2 ADD SWAP1 POP SWAP2 SWAP1 POP JUMP JUMPDEST DUP3 DUP2 DUP4 CALLDATACOPY PUSH1 0x0 DUP4 DUP4 ADD MSTORE POP POP POP JUMP JUMPDEST PUSH1 0x0 PUSH2 0x8E3 PUSH2 0x8DE DUP5 PUSH2 0x890 JUMP JUMPDEST PUSH2 0x875 JUMP JUMPDEST SWAP1 POP DUP3 DUP2 MSTORE PUSH1 0x20 DUP2 ADD DUP5 DUP5 DUP5 ADD GT ISZERO PUSH2 0x8FF JUMPI PUSH2 0x8FE PUSH2 0x7FF JUMP JUMPDEST JUMPDEST PUSH2 0x90A DUP5 DUP3 DUP6 PUSH2 0x8C1 JUMP JUMPDEST POP SWAP4 SWAP3 POP POP POP JUMP JUMPDEST PUSH1 0x0 DUP3 PUSH1 0x1F DUP4 ADD SLT PUSH2 0x927 JUMPI PUSH2 0x926 PUSH2 0x7FA JUMP JUMPDEST JUMPDEST DUP2 CALLDATALOAD PUSH2 0x937 DUP5 DUP3 PUSH1 0x20 DUP7 ADD PUSH2 0x8D0 JUMP JUMPDEST SWAP2 POP POP SWAP3 SWAP2 POP POP JUMP JUMPDEST PUSH1 0x0 DUP1 PUSH1 0x0 DUP1 PUSH1 0x80 DUP6 DUP8 SUB SLT ISZERO PUSH2 0x95A JUMPI PUSH2 0x959 PUSH2 0x75C JUMP JUMPDEST JUMPDEST PUSH1 0x0 PUSH2 0x968 DUP8 DUP3 DUP9 ADD PUSH2 0x7AF JUMP JUMPDEST SWAP5 POP POP PUSH1 0x20 PUSH2 0x979 DUP8 DUP3 DUP9 ADD PUSH2 0x7AF JUMP JUMPDEST SWAP4 POP POP PUSH1 0x40 PUSH2 0x98A DUP8 DUP3 DUP9 ADD PUSH2 0x7E5 JUMP JUMPDEST SWAP3 POP POP PUSH1 0x60 DUP6 ADD CALLDATALOAD PUSH8 0xFFFFFFFFFFFFFFFF DUP2 GT ISZERO PUSH2 0x9AB JUMPI PUSH2 0x9AA PUSH2 0x761 JUMP JUMPDEST JUMPDEST PUSH2 0x9B7 DUP8 DUP3 DUP9 ADD PUSH2 0x912 JUMP JUMPDEST SWAP2 POP POP SWAP3 SWAP6 SWAP2 SWAP5 POP SWAP3 POP JUMP JUMPDEST PUSH1 0x0 PUSH32 0xFFFFFFFF00000000000000000000000000000000000000000000000000000000 DUP3 AND SWAP1 POP SWAP2 SWAP1 POP JUMP JUMPDEST PUSH2 0x9F8 DUP2 PUSH2 0x9C3 JUMP JUMPDEST DUP3 MSTORE POP POP JUMP JUMPDEST PUSH1 0x0 PUSH1 0x20 DUP3 ADD SWAP1 POP PUSH2 0xA13 PUSH1 0x0 DUP4 ADD DUP5 PUSH2 0x9EF JUMP JUMPDEST SWAP3 SWAP2 POP POP JUMP JUMPDEST PUSH1 0x0 PUSH1 0x20 DUP3 DUP5 SUB SLT ISZERO PUSH2 0xA2F JUMPI PUSH2 0xA2E PUSH2 0x75C JUMP JUMPDEST JUMPDEST PUSH1 0x0 PUSH2 0xA3D DUP5 DUP3 DUP6 ADD PUSH2 0x7AF JUMP JUMPDEST SWAP2 POP POP SWAP3 SWAP2 POP POP JUMP JUMPDEST PUSH1 0x0 DUP1 REVERT JUMPDEST PUSH1 0x0 DUP1 REVERT JUMPDEST PUSH1 0x0 DUP1 DUP4 PUSH1 0x1F DUP5 ADD SLT PUSH2 0xA66 JUMPI PUSH2 0xA65 PUSH2 0x7FA JUMP JUMPDEST JUMPDEST DUP3 CALLDATALOAD SWAP1 POP PUSH8 0xFFFFFFFFFFFFFFFF DUP2 GT ISZERO PUSH2 0xA83 JUMPI PUSH2 0xA82 PUSH2 0xA46 JUMP JUMPDEST JUMPDEST PUSH1 0x20 DUP4 ADD SWAP2 POP DUP4 PUSH1 0x20 DUP3 MUL DUP4 ADD GT ISZERO PUSH2 0xA9F JUMPI PUSH2 0xA9E PUSH2 0xA4B JUMP JUMPDEST JUMPDEST SWAP3 POP SWAP3 SWAP1 POP JUMP JUMPDEST PUSH1 0x0 DUP1 PUSH1 0x0 PUSH1 0x40 DUP5 DUP7 SUB SLT ISZERO PUSH2 0xABF JUMPI PUSH2 0xABE PUSH2 0x75C JUMP JUMPDEST JUMPDEST PUSH1 0x0 PUSH2 0xACD DUP7 DUP3 DUP8 ADD PUSH2 0x7AF JUMP JUMPDEST SWAP4 POP POP PUSH1 0x20 DUP5 ADD CALLDATALOAD PUSH8 0xFFFFFFFFFFFFFFFF DUP2 GT ISZERO PUSH2 0xAEE JUMPI PUSH2 0xAED PUSH2 0x761 JUMP JUMPDEST JUMPDEST PUSH2 0xAFA DUP7 DUP3 DUP8 ADD PUSH2 0xA50 JUMP JUMPDEST SWAP3 POP SWAP3 POP POP SWAP3 POP SWAP3 POP SWAP3 JUMP JUMPDEST PUSH1 0x0 DUP1 PUSH1 0x40 DUP4 DUP6 SUB SLT ISZERO PUSH2 0xB1D JUMPI PUSH2 0xB1C PUSH2 0x75C JUMP JUMPDEST JUMPDEST PUSH1 0x0 PUSH2 0xB2B DUP6 DUP3 DUP7 ADD PUSH2 0x7AF JUMP JUMPDEST SWAP3 POP POP PUSH1 0x20 PUSH2 0xB3C DUP6 DUP3 DUP7 ADD PUSH2 0x7E5 JUMP JUMPDEST SWAP2 POP POP SWAP3 POP SWAP3 SWAP1 POP JUMP JUMPDEST PUSH1 0x0 DUP1 DUP4 PUSH1 0x1F DUP5 ADD SLT PUSH2 0xB5C JUMPI PUSH2 0xB5B PUSH2 0x7FA JUMP JUMPDEST JUMPDEST DUP3 CALLDATALOAD SWAP1 POP PUSH8 0xFFFFFFFFFFFFFFFF DUP2 GT ISZERO PUSH2 0xB79 JUMPI PUSH2 0xB78 PUSH2 0xA46 JUMP JUMPDEST JUMPDEST PUSH1 0x20 DUP4 ADD SWAP2 POP DUP4 PUSH1 0x1 DUP3 MUL DUP4 ADD GT ISZERO PUSH2 0xB95 JUMPI PUSH2 0xB94 PUSH2 0xA4B JUMP JUMPDEST JUMPDEST SWAP3 POP SWAP3 SWAP1 POP JUMP JUMPDEST PUSH1 0x0 DUP1 PUSH1 0x0 PUSH1 0x40 DUP5 DUP7 SUB SLT ISZERO PUSH2 0xBB5 JUMPI PUSH2 0xBB4 PUSH2 0x75C JUMP JUMPDEST JUMPDEST PUSH1 0x0 PUSH2 0xBC3 DUP7 DUP3 DUP8 ADD PUSH2 0x7AF JUMP JUMPDEST SWAP4 POP POP PUSH1 0x20 DUP5 ADD CALLDATALOAD PUSH8 0xFFFFFFFFFFFFFFFF DUP2 GT ISZERO PUSH2 0xBE4 JUMPI PUSH2 0xBE3 PUSH2 0x761 JUMP JUMPDEST JUMPDEST PUSH2 0xBF0 DUP7 DUP3 DUP8 ADD PUSH2 0xB46 JUMP JUMPDEST SWAP3 POP SWAP3 POP POP SWAP3 POP SWAP3 POP SWAP3 JUMP JUMPDEST PUSH1 0x0 DUP2 MLOAD SWAP1 POP SWAP2 SWAP1 POP JUMP JUMPDEST PUSH1 0x0 DUP3 DUP3 MSTORE PUSH1 0x20 DUP3 ADD SWAP1 POP SWAP3 SWAP2 POP POP JUMP JUMPDEST PUSH1 0x0 DUP2 SWAP1 POP PUSH1 0x20 DUP3 ADD SWAP1 POP SWAP2 SWAP1 POP JUMP JUMPDEST PUSH2 0xC31 DUP2 PUSH2 0x7C4 JUMP JUMPDEST DUP3 MSTORE POP POP JUMP JUMPDEST PUSH1 0x0 PUSH2 0xC43 DUP4 DUP4 PUSH2 0xC28 JUMP JUMPDEST PUSH1 0x20 DUP4 ADD SWAP1 POP SWAP3 SWAP2 POP POP JUMP JUMPDEST PUSH1 0x0 PUSH1 0x20 DUP3 ADD SWAP1 POP SWAP2 SWAP1 POP JUMP JUMPDEST PUSH1 0x0 PUSH2 0xC67 DUP3 PUSH2 0xBFC JUMP JUMPDEST PUSH2 0xC71 DUP2 DUP6 PUSH2 0xC07 JUMP JUMPDEST SWAP4 POP PUSH2 0xC7C DUP4 PUSH2 0xC18 JUMP JUMPDEST DUP1 PUSH1 0x0 JUMPDEST DUP4 DUP2 LT ISZERO PUSH2 0xCAD JUMPI DUP2 MLOAD PUSH2 0xC94 DUP9 DUP3 PUSH2 0xC37 JUMP JUMPDEST SWAP8 POP PUSH2 0xC9F DUP4 PUSH2 0xC4F JUMP JUMPDEST SWAP3 POP POP PUSH1 0x1 DUP2 ADD SWAP1 POP PUSH2 0xC80 JUMP JUMPDEST POP DUP6 SWAP4 POP POP POP POP SWAP3 SWAP2 POP POP JUMP JUMPDEST PUSH1 0x0 PUSH1 0x20 DUP3 ADD SWAP1 POP DUP2 DUP2 SUB PUSH1 0x0 DUP4 ADD MSTORE PUSH2 0xCD4 DUP2 DUP5 PUSH2 0xC5C JUMP JUMPDEST SWAP1 POP SWAP3 SWAP2 POP POP JUMP JUMPDEST PUSH2 0xCE5 DUP2 PUSH2 0x786 JUMP JUMPDEST DUP3 MSTORE POP POP JUMP JUMPDEST PUSH1 0x0 PUSH1 0x20 DUP3 ADD SWAP1 POP PUSH2 0xD00 PUSH1 0x0 DUP4 ADD DUP5 PUSH2 0xCDC JUMP JUMPDEST SWAP3 SWAP2 POP POP JUMP JUMPDEST PUSH32 0x4E487B7100000000000000000000000000000000000000000000000000000000 PUSH1 0x0 MSTORE PUSH1 0x32 PUSH1 0x4 MSTORE PUSH1 0x24 PUSH1 0x0 REVERT JUMPDEST PUSH2 0xD3E DUP2 PUSH2 0x7C4 JUMP JUMPDEST DUP3 MSTORE POP POP JUMP JUMPDEST PUSH1 0x0 PUSH1 0x60 DUP3 ADD SWAP1 POP PUSH2 0xD59 PUSH1 0x0 DUP4 ADD DUP7 PUSH2 0xCDC JUMP JUMPDEST PUSH2 0xD66 PUSH1 0x20 DUP4 ADD DUP6 PUSH2 0xCDC JUMP JUMPDEST PUSH2 0xD73 PUSH1 0x40 DUP4 ADD DUP5 PUSH2 0xD35 JUMP JUMPDEST SWAP5 SWAP4 POP POP POP POP JUMP JUMPDEST PUSH32 0x4E487B7100000000000000000000000000000000000000000000000000000000 PUSH1 0x0 MSTORE PUSH1 0x11 PUSH1 0x4 MSTORE PUSH1 0x24 PUSH1 0x0 REVERT JUMPDEST PUSH1 0x0 PUSH2 0xDB5 DUP3 PUSH2 0x7C4 JUMP JUMPDEST SWAP2 POP PUSH32 0xFFFFFFFFFFFFFFFFFFFFFFFFFFFFFFFFFFFFFFFFFFFFFFFFFFFFFFFFFFFFFFFF DUP3 SUB PUSH2 0xDE7 JUMPI PUSH2 0xDE6 PUSH2 0xD7B JUMP JUMPDEST JUMPDEST PUSH1 0x1 DUP3 ADD SWAP1 POP SWAP2 SWAP1 POP JUMP JUMPDEST PUSH1 0x0 DUP2 SWAP1 POP SWAP3 SWAP2 POP POP JUMP JUMPDEST PUSH1 0x0 PUSH2 0xE09 DUP4 DUP6 PUSH2 0xDF2 JUMP JUMPDEST SWAP4 POP PUSH2 0xE16 DUP4 DUP6 DUP5 PUSH2 0x8C1 JUMP JUMPDEST DUP3 DUP5 ADD SWAP1 POP SWAP4 SWAP3 POP POP POP JUMP JUMPDEST PUSH1 0x0 PUSH2 0xE2F DUP3 DUP5 DUP7 PUSH2 0xDFD JUMP JUMPDEST SWAP2 POP DUP2 SWAP1 POP SWAP4 SWAP3 POP POP POP JUMP INVALID LOG2 PUSH5 0x6970667358 0x22 SLT KECCAK256 0x4D MUL PUSH3 0x7411BC 0xE4 MUL 0x4D SWAP5 DUP2 MSTORE8 0xD6 JUMPI SLOAD 0xAD SWAP15 SWAP5 PC 0xD2 SWAP9 EXTCODEHASH RETURN LOG4 PUSH9 0x640116B183EBA16473 PUSH16 0x6C63430008110033A264697066735822 SLT KECCAK256 0xDA SELFBALANCE PUSH32 0x2550394DC8DF89DCD01E4640BED72C231FD2297CBFE3297A0EA84E8D1164736F PUSH13 0x63430008110033000000000000 "
				},
				"gasEstimates": {
					"creation": {
						"codeDepositCost": "2413200",
						"executionCost": "infinite",
						"totalCost": "infinite"
					},
					"external": {
						"CheckTokenId(address,uint256,uint256)": "infinite",
						"IstokenStoredOnMap(address,uint256)": "infinite",
						"NewtransferBySubContract(address,uint256,uint256)": "infinite",
						"RestoreFactorynft(address,uint256[])": "infinite",
						"RestoreNftFromSubcontract(address,uint256[],uint256)": "infinite",
						"admin()": "2624",
						"deploy(uint256)": "infinite",
						"mint(address,uint256,bytes)": "infinite",
						"mintAndTransfer(address,uint256,bytes)": "infinite",
						"mintBySubContract(address,uint256,bytes)": "infinite",
						"minters(uint256)": "2950",
						"onERC721Received(address,address,uint256,bytes)": "infinite",
						"owner()": "2545",
						"renounceOwnership()": "30465",
						"tokenbalanceBySubcontract(address,uint256)": "infinite",
						"totalSubcontract()": "2483",
						"transferBySubContract(address,uint256)": "infinite",
						"transferOwnership(address)": "30810"
					},
					"internal": {
						"getBytecode()": "infinite"
					}
				},
				"methodIdentifiers": {
					"CheckTokenId(address,uint256,uint256)": "b0eb1c9e",
					"IstokenStoredOnMap(address,uint256)": "5f24be25",
					"NewtransferBySubContract(address,uint256,uint256)": "5a0f1001",
					"RestoreFactorynft(address,uint256[])": "73738a9d",
					"RestoreNftFromSubcontract(address,uint256[],uint256)": "b1d95a5c",
					"admin()": "f851a440",
					"deploy(uint256)": "a5e38751",
					"mint(address,uint256,bytes)": "94d008ef",
					"mintAndTransfer(address,uint256,bytes)": "c6046f77",
					"mintBySubContract(address,uint256,bytes)": "f4bbc568",
					"minters(uint256)": "8623ec7b",
					"onERC721Received(address,address,uint256,bytes)": "150b7a02",
					"owner()": "8da5cb5b",
					"renounceOwnership()": "715018a6",
					"tokenbalanceBySubcontract(address,uint256)": "2aca6cea",
					"totalSubcontract()": "17b87dbb",
					"transferBySubContract(address,uint256)": "4e702ab3",
					"transferOwnership(address)": "f2fde38b"
				}
			},
			"storageLayout": {
				"storage": [
					{
						"astId": 7,
						"contract": "Perfect.sol:Factory",
						"label": "_owner",
						"offset": 0,
						"slot": "0",
						"type": "t_address"
					},
					{
						"astId": 494,
						"contract": "Perfect.sol:Factory",
						"label": "admin",
						"offset": 0,
						"slot": "1",
						"type": "t_address"
					},
					{
						"astId": 498,
						"contract": "Perfect.sol:Factory",
						"label": "minters",
						"offset": 0,
						"slot": "2",
						"type": "t_mapping(t_uint256,t_address)"
					},
					{
						"astId": 501,
						"contract": "Perfect.sol:Factory",
						"label": "salt",
						"offset": 0,
						"slot": "3",
						"type": "t_uint256"
					},
					{
						"astId": 503,
						"contract": "Perfect.sol:Factory",
						"label": "tokenId",
						"offset": 0,
						"slot": "4",
						"type": "t_uint256"
					}
				],
				"types": {
					"t_address": {
						"encoding": "inplace",
						"label": "address",
						"numberOfBytes": "20"
					},
					"t_mapping(t_uint256,t_address)": {
						"encoding": "mapping",
						"key": "t_uint256",
						"label": "mapping(uint256 => address)",
						"numberOfBytes": "32",
						"value": "t_address"
					},
					"t_uint256": {
						"encoding": "inplace",
						"label": "uint256",
						"numberOfBytes": "32"
					}
				}
			},
			"userdoc": {
				"kind": "user",
				"methods": {},
				"version": 1
			}
		}
	}
}