{
	"Newnft.sol": {
		"ApesUnshaved": {
			"abi": [
				{
					"inputs": [],
					"stateMutability": "nonpayable",
					"type": "constructor"
				},
				{
					"inputs": [],
					"name": "ApprovalCallerNotOwnerNorApproved",
					"type": "error"
				},
				{
					"inputs": [],
					"name": "ApprovalQueryForNonexistentToken",
					"type": "error"
				},
				{
					"inputs": [],
					"name": "ApproveToCaller",
					"type": "error"
				},
				{
					"inputs": [],
					"name": "BalanceQueryForZeroAddress",
					"type": "error"
				},
				{
					"inputs": [],
					"name": "MintERC2309QuantityExceedsLimit",
					"type": "error"
				},
				{
					"inputs": [],
					"name": "MintToZeroAddress",
					"type": "error"
				},
				{
					"inputs": [],
					"name": "MintZeroQuantity",
					"type": "error"
				},
				{
					"inputs": [],
					"name": "OwnerQueryForNonexistentToken",
					"type": "error"
				},
				{
					"inputs": [],
					"name": "OwnershipNotInitializedForExtraData",
					"type": "error"
				},
				{
					"inputs": [],
					"name": "TransferCallerNotOwnerNorApproved",
					"type": "error"
				},
				{
					"inputs": [],
					"name": "TransferFromIncorrectOwner",
					"type": "error"
				},
				{
					"inputs": [],
					"name": "TransferToNonERC721ReceiverImplementer",
					"type": "error"
				},
				{
					"inputs": [],
					"name": "TransferToZeroAddress",
					"type": "error"
				},
				{
					"inputs": [],
					"name": "URIQueryForNonexistentToken",
					"type": "error"
				},
				{
					"anonymous": false,
					"inputs": [
						{
							"indexed": true,
							"internalType": "address",
							"name": "owner",
							"type": "address"
						},
						{
							"indexed": true,
							"internalType": "address",
							"name": "approved",
							"type": "address"
						},
						{
							"indexed": true,
							"internalType": "uint256",
							"name": "tokenId",
							"type": "uint256"
						}
					],
					"name": "Approval",
					"type": "event"
				},
				{
					"anonymous": false,
					"inputs": [
						{
							"indexed": true,
							"internalType": "address",
							"name": "owner",
							"type": "address"
						},
						{
							"indexed": true,
							"internalType": "address",
							"name": "operator",
							"type": "address"
						},
						{
							"indexed": false,
							"internalType": "bool",
							"name": "approved",
							"type": "bool"
						}
					],
					"name": "ApprovalForAll",
					"type": "event"
				},
				{
					"anonymous": false,
					"inputs": [
						{
							"indexed": true,
							"internalType": "uint256",
							"name": "fromTokenId",
							"type": "uint256"
						},
						{
							"indexed": false,
							"internalType": "uint256",
							"name": "toTokenId",
							"type": "uint256"
						},
						{
							"indexed": true,
							"internalType": "address",
							"name": "from",
							"type": "address"
						},
						{
							"indexed": true,
							"internalType": "address",
							"name": "to",
							"type": "address"
						}
					],
					"name": "ConsecutiveTransfer",
					"type": "event"
				},
				{
					"anonymous": false,
					"inputs": [
						{
							"indexed": true,
							"internalType": "address",
							"name": "from",
							"type": "address"
						},
						{
							"indexed": true,
							"internalType": "address",
							"name": "to",
							"type": "address"
						},
						{
							"indexed": true,
							"internalType": "uint256",
							"name": "tokenId",
							"type": "uint256"
						}
					],
					"name": "Transfer",
					"type": "event"
				},
				{
					"inputs": [],
					"name": "COST",
					"outputs": [
						{
							"internalType": "uint256",
							"name": "",
							"type": "uint256"
						}
					],
					"stateMutability": "view",
					"type": "function"
				},
				{
					"inputs": [],
					"name": "MAX_FREE",
					"outputs": [
						{
							"internalType": "uint256",
							"name": "",
							"type": "uint256"
						}
					],
					"stateMutability": "view",
					"type": "function"
				},
				{
					"inputs": [],
					"name": "MAX_FREE_PER_WALLET",
					"outputs": [
						{
							"internalType": "uint256",
							"name": "",
							"type": "uint256"
						}
					],
					"stateMutability": "view",
					"type": "function"
				},
				{
					"inputs": [],
					"name": "MAX_SUPPLY",
					"outputs": [
						{
							"internalType": "uint256",
							"name": "",
							"type": "uint256"
						}
					],
					"stateMutability": "view",
					"type": "function"
				},
				{
					"inputs": [
						{
							"internalType": "address",
							"name": "to",
							"type": "address"
						},
						{
							"internalType": "uint256",
							"name": "tokenId",
							"type": "uint256"
						}
					],
					"name": "approve",
					"outputs": [],
					"stateMutability": "nonpayable",
					"type": "function"
				},
				{
					"inputs": [
						{
							"internalType": "address",
							"name": "owner",
							"type": "address"
						}
					],
					"name": "balanceOf",
					"outputs": [
						{
							"internalType": "uint256",
							"name": "",
							"type": "uint256"
						}
					],
					"stateMutability": "view",
					"type": "function"
				},
				{
					"inputs": [],
					"name": "freeMint",
					"outputs": [],
					"stateMutability": "nonpayable",
					"type": "function"
				},
				{
					"inputs": [
						{
							"internalType": "uint256",
							"name": "tokenId",
							"type": "uint256"
						}
					],
					"name": "getApproved",
					"outputs": [
						{
							"internalType": "address",
							"name": "",
							"type": "address"
						}
					],
					"stateMutability": "view",
					"type": "function"
				},
				{
					"inputs": [
						{
							"internalType": "address",
							"name": "owner",
							"type": "address"
						},
						{
							"internalType": "address",
							"name": "operator",
							"type": "address"
						}
					],
					"name": "isApprovedForAll",
					"outputs": [
						{
							"internalType": "bool",
							"name": "",
							"type": "bool"
						}
					],
					"stateMutability": "view",
					"type": "function"
				},
				{
					"inputs": [
						{
							"internalType": "uint256",
							"name": "amount",
							"type": "uint256"
						}
					],
					"name": "mint",
					"outputs": [],
					"stateMutability": "payable",
					"type": "function"
				},
				{
					"inputs": [],
					"name": "name",
					"outputs": [
						{
							"internalType": "string",
							"name": "",
							"type": "string"
						}
					],
					"stateMutability": "view",
					"type": "function"
				},
				{
					"inputs": [],
					"name": "owner",
					"outputs": [
						{
							"internalType": "address",
							"name": "",
							"type": "address"
						}
					],
					"stateMutability": "view",
					"type": "function"
				},
				{
					"inputs": [
						{
							"internalType": "uint256",
							"name": "tokenId",
							"type": "uint256"
						}
					],
					"name": "ownerOf",
					"outputs": [
						{
							"internalType": "address",
							"name": "",
							"type": "address"
						}
					],
					"stateMutability": "view",
					"type": "function"
				},
				{
					"inputs": [
						{
							"internalType": "address",
							"name": "from",
							"type": "address"
						},
						{
							"internalType": "address",
							"name": "to",
							"type": "address"
						},
						{
							"internalType": "uint256",
							"name": "tokenId",
							"type": "uint256"
						}
					],
					"name": "safeTransferFrom",
					"outputs": [],
					"stateMutability": "nonpayable",
					"type": "function"
				},
				{
					"inputs": [
						{
							"internalType": "address",
							"name": "from",
							"type": "address"
						},
						{
							"internalType": "address",
							"name": "to",
							"type": "address"
						},
						{
							"internalType": "uint256",
							"name": "tokenId",
							"type": "uint256"
						},
						{
							"internalType": "bytes",
							"name": "_data",
							"type": "bytes"
						}
					],
					"name": "safeTransferFrom",
					"outputs": [],
					"stateMutability": "nonpayable",
					"type": "function"
				},
				{
					"inputs": [
						{
							"internalType": "address",
							"name": "operator",
							"type": "address"
						},
						{
							"internalType": "bool",
							"name": "approved",
							"type": "bool"
						}
					],
					"name": "setApprovalForAll",
					"outputs": [],
					"stateMutability": "nonpayable",
					"type": "function"
				},
				{
					"inputs": [
						{
							"internalType": "uint256",
							"name": "_MAX_FREE_PER_WALLET",
							"type": "uint256"
						},
						{
							"internalType": "uint256",
							"name": "_COST",
							"type": "uint256"
						},
						{
							"internalType": "uint256",
							"name": "_MAX_FREE",
							"type": "uint256"
						}
					],
					"name": "setConfig",
					"outputs": [],
					"stateMutability": "nonpayable",
					"type": "function"
				},
				{
					"inputs": [
						{
							"internalType": "string",
							"name": "_base",
							"type": "string"
						}
					],
					"name": "setData",
					"outputs": [],
					"stateMutability": "nonpayable",
					"type": "function"
				},
				{
					"inputs": [
						{
							"internalType": "bytes4",
							"name": "interfaceId",
							"type": "bytes4"
						}
					],
					"name": "supportsInterface",
					"outputs": [
						{
							"internalType": "bool",
							"name": "",
							"type": "bool"
						}
					],
					"stateMutability": "view",
					"type": "function"
				},
				{
					"inputs": [],
					"name": "symbol",
					"outputs": [
						{
							"internalType": "string",
							"name": "",
							"type": "string"
						}
					],
					"stateMutability": "view",
					"type": "function"
				},
				{
					"inputs": [
						{
							"internalType": "uint256",
							"name": "tokenId",
							"type": "uint256"
						}
					],
					"name": "tokenURI",
					"outputs": [
						{
							"internalType": "string",
							"name": "",
							"type": "string"
						}
					],
					"stateMutability": "view",
					"type": "function"
				},
				{
					"inputs": [],
					"name": "totalSupply",
					"outputs": [
						{
							"internalType": "uint256",
							"name": "",
							"type": "uint256"
						}
					],
					"stateMutability": "view",
					"type": "function"
				},
				{
					"inputs": [
						{
							"internalType": "address",
							"name": "from",
							"type": "address"
						},
						{
							"internalType": "address",
							"name": "to",
							"type": "address"
						},
						{
							"internalType": "uint256",
							"name": "tokenId",
							"type": "uint256"
						}
					],
					"name": "transferFrom",
					"outputs": [],
					"stateMutability": "nonpayable",
					"type": "function"
				},
				{
					"inputs": [],
					"name": "withdraw",
					"outputs": [],
					"stateMutability": "nonpayable",
					"type": "function"
				}
			],
			"devdoc": {
				"kind": "dev",
				"methods": {
					"approve(address,uint256)": {
						"details": "See {IERC721-approve}."
					},
					"balanceOf(address)": {
						"details": "See {IERC721-balanceOf}."
					},
					"getApproved(uint256)": {
						"details": "See {IERC721-getApproved}."
					},
					"isApprovedForAll(address,address)": {
						"details": "See {IERC721-isApprovedForAll}."
					},
					"name()": {
						"details": "See {IERC721Metadata-name}."
					},
					"ownerOf(uint256)": {
						"details": "See {IERC721-ownerOf}."
					},
					"safeTransferFrom(address,address,uint256)": {
						"details": "See {IERC721-safeTransferFrom}."
					},
					"safeTransferFrom(address,address,uint256,bytes)": {
						"details": "See {IERC721-safeTransferFrom}."
					},
					"setApprovalForAll(address,bool)": {
						"details": "See {IERC721-setApprovalForAll}."
					},
					"supportsInterface(bytes4)": {
						"details": "See {IERC165-supportsInterface}."
					},
					"symbol()": {
						"details": "See {IERC721Metadata-symbol}."
					},
					"tokenURI(uint256)": {
						"details": "Returns the Uniform Resource Identifier (URI) for `tokenId` token."
					},
					"totalSupply()": {
						"details": "Returns the total number of tokens in existence. Burned tokens will reduce the count.  To get the total number of tokens minted, please see `_totalMinted`."
					},
					"transferFrom(address,address,uint256)": {
						"details": "See {IERC721-transferFrom}."
					}
				},
				"version": 1
			},
			"evm": {
				"assembly": "    /* \"Newnft.sol\":8733:29263  contract ApesUnshaved is IERC721A { ... */\n  mstore(0x40, 0x80)\n    /* \"Newnft.sol\":9040:9043  666 */\n  0x029a\n    /* \"Newnft.sol\":9014:9043  uint256 public MAX_FREE = 666 */\n  0x01\n  sstore\n    /* \"Newnft.sol\":9086:9087  1 */\n  0x01\n    /* \"Newnft.sol\":9049:9087  uint256 public MAX_FREE_PER_WALLET = 1 */\n  0x02\n  sstore\n    /* \"Newnft.sol\":9115:9126  0.001 ether */\n  0x038d7ea4c68000\n    /* \"Newnft.sol\":9093:9126  uint256 public COST = 0.001 ether */\n  0x03\n  sstore\n    /* \"Newnft.sol\":9239:9313  string private _baseURI = \"QmXSverXvDtSgKaCqmtioPCrK4qWmcaUHVbTNCmbEBeVJd\" */\n  mload(0x40)\n  dup1\n  0x60\n  add\n  0x40\n  mstore\n  dup1\n  0x2e\n  dup2\n  mstore\n  0x20\n  add\n  data_6f9fa96106e85b183c591de689be8f7c4652995ed1a609c3ecc0852b3b08094c\n  0x2e\n  swap2\n  codecopy\n  0x04\n  swap1\n  dup2\n  tag_1\n  swap2\n  swap1\n  tag_2\n  jump\t// in\ntag_1:\n  pop\n    /* \"Newnft.sol\":11181:11182  0 */\n  0x00\n    /* \"Newnft.sol\":11149:11182  uint256 private _currentIndex = 0 */\n  0x05\n  sstore\n    /* \"Newnft.sol\":9320:9370  constructor() {... */\n  callvalue\n  dup1\n  iszero\n  tag_3\n  jumpi\n  0x00\n  dup1\n  revert\ntag_3:\n  pop\n    /* \"Newnft.sol\":9353:9363  msg.sender */\n  caller\n    /* \"Newnft.sol\":9344:9350  _owner */\n  0x00\n  dup1\n    /* \"Newnft.sol\":9344:9363  _owner = msg.sender */\n  0x0100\n  exp\n  dup2\n  sload\n  dup2\n  0xffffffffffffffffffffffffffffffffffffffff\n  mul\n  not\n  and\n  swap1\n  dup4\n  0xffffffffffffffffffffffffffffffffffffffff\n  and\n  mul\n  or\n  swap1\n  sstore\n  pop\n    /* \"Newnft.sol\":8733:29263  contract ApesUnshaved is IERC721A { ... */\n  jump(tag_6)\n    /* \"#utility.yul\":7:106   */\ntag_7:\n    /* \"#utility.yul\":59:65   */\n  0x00\n    /* \"#utility.yul\":93:98   */\n  dup2\n    /* \"#utility.yul\":87:99   */\n  mload\n    /* \"#utility.yul\":77:99   */\n  swap1\n  pop\n    /* \"#utility.yul\":7:106   */\n  swap2\n  swap1\n  pop\n  jump\t// out\n    /* \"#utility.yul\":112:292   */\ntag_8:\n    /* \"#utility.yul\":160:237   */\n  0x4e487b7100000000000000000000000000000000000000000000000000000000\n    /* \"#utility.yul\":157:158   */\n  0x00\n    /* \"#utility.yul\":150:238   */\n  mstore\n    /* \"#utility.yul\":257:261   */\n  0x41\n    /* \"#utility.yul\":254:255   */\n  0x04\n    /* \"#utility.yul\":247:262   */\n  mstore\n    /* \"#utility.yul\":281:285   */\n  0x24\n    /* \"#utility.yul\":278:279   */\n  0x00\n    /* \"#utility.yul\":271:286   */\n  revert\n    /* \"#utility.yul\":298:478   */\ntag_9:\n    /* \"#utility.yul\":346:423   */\n  0x4e487b7100000000000000000000000000000000000000000000000000000000\n    /* \"#utility.yul\":343:344   */\n  0x00\n    /* \"#utility.yul\":336:424   */\n  mstore\n    /* \"#utility.yul\":443:447   */\n  0x22\n    /* \"#utility.yul\":440:441   */\n  0x04\n    /* \"#utility.yul\":433:448   */\n  mstore\n    /* \"#utility.yul\":467:471   */\n  0x24\n    /* \"#utility.yul\":464:465   */\n  0x00\n    /* \"#utility.yul\":457:472   */\n  revert\n    /* \"#utility.yul\":484:804   */\ntag_10:\n    /* \"#utility.yul\":528:534   */\n  0x00\n    /* \"#utility.yul\":565:566   */\n  0x02\n    /* \"#utility.yul\":559:563   */\n  dup3\n    /* \"#utility.yul\":555:567   */\n  div\n    /* \"#utility.yul\":545:567   */\n  swap1\n  pop\n    /* \"#utility.yul\":612:613   */\n  0x01\n    /* \"#utility.yul\":606:610   */\n  dup3\n    /* \"#utility.yul\":602:614   */\n  and\n    /* \"#utility.yul\":633:651   */\n  dup1\n    /* \"#utility.yul\":623:704   */\n  tag_32\n  jumpi\n    /* \"#utility.yul\":689:693   */\n  0x7f\n    /* \"#utility.yul\":681:687   */\n  dup3\n    /* \"#utility.yul\":677:694   */\n  and\n    /* \"#utility.yul\":667:694   */\n  swap2\n  pop\n    /* \"#utility.yul\":623:704   */\ntag_32:\n    /* \"#utility.yul\":751:753   */\n  0x20\n    /* \"#utility.yul\":743:749   */\n  dup3\n    /* \"#utility.yul\":740:754   */\n  lt\n    /* \"#utility.yul\":720:738   */\n  dup2\n    /* \"#utility.yul\":717:755   */\n  sub\n    /* \"#utility.yul\":714:798   */\n  tag_33\n  jumpi\n    /* \"#utility.yul\":770:788   */\n  tag_34\n  tag_9\n  jump\t// in\ntag_34:\n    /* \"#utility.yul\":714:798   */\ntag_33:\n    /* \"#utility.yul\":535:804   */\n  pop\n    /* \"#utility.yul\":484:804   */\n  swap2\n  swap1\n  pop\n  jump\t// out\n    /* \"#utility.yul\":810:951   */\ntag_11:\n    /* \"#utility.yul\":859:863   */\n  0x00\n    /* \"#utility.yul\":882:885   */\n  dup2\n    /* \"#utility.yul\":874:885   */\n  swap1\n  pop\n    /* \"#utility.yul\":905:908   */\n  dup2\n    /* \"#utility.yul\":902:903   */\n  0x00\n    /* \"#utility.yul\":895:909   */\n  mstore\n    /* \"#utility.yul\":939:943   */\n  0x20\n    /* \"#utility.yul\":936:937   */\n  0x00\n    /* \"#utility.yul\":926:944   */\n  keccak256\n    /* \"#utility.yul\":918:944   */\n  swap1\n  pop\n    /* \"#utility.yul\":810:951   */\n  swap2\n  swap1\n  pop\n  jump\t// out\n    /* \"#utility.yul\":957:1050   */\ntag_12:\n    /* \"#utility.yul\":994:1000   */\n  0x00\n    /* \"#utility.yul\":1041:1043   */\n  0x20\n    /* \"#utility.yul\":1036:1038   */\n  0x1f\n    /* \"#utility.yul\":1029:1034   */\n  dup4\n    /* \"#utility.yul\":1025:1039   */\n  add\n    /* \"#utility.yul\":1021:1044   */\n  div\n    /* \"#utility.yul\":1011:1044   */\n  swap1\n  pop\n    /* \"#utility.yul\":957:1050   */\n  swap2\n  swap1\n  pop\n  jump\t// out\n    /* \"#utility.yul\":1056:1163   */\ntag_13:\n    /* \"#utility.yul\":1100:1108   */\n  0x00\n    /* \"#utility.yul\":1150:1155   */\n  dup3\n    /* \"#utility.yul\":1144:1148   */\n  dup3\n    /* \"#utility.yul\":1140:1156   */\n  shl\n    /* \"#utility.yul\":1119:1156   */\n  swap1\n  pop\n    /* \"#utility.yul\":1056:1163   */\n  swap3\n  swap2\n  pop\n  pop\n  jump\t// out\n    /* \"#utility.yul\":1169:1562   */\ntag_14:\n    /* \"#utility.yul\":1238:1244   */\n  0x00\n    /* \"#utility.yul\":1288:1289   */\n  0x08\n    /* \"#utility.yul\":1276:1286   */\n  dup4\n    /* \"#utility.yul\":1272:1290   */\n  mul\n    /* \"#utility.yul\":1311:1408   */\n  tag_39\n    /* \"#utility.yul\":1341:1407   */\n  0xffffffffffffffffffffffffffffffffffffffffffffffffffffffffffffffff\n    /* \"#utility.yul\":1330:1339   */\n  dup3\n    /* \"#utility.yul\":1311:1408   */\n  tag_13\n  jump\t// in\ntag_39:\n    /* \"#utility.yul\":1429:1468   */\n  tag_40\n    /* \"#utility.yul\":1459:1467   */\n  dup7\n    /* \"#utility.yul\":1448:1457   */\n  dup4\n    /* \"#utility.yul\":1429:1468   */\n  tag_13\n  jump\t// in\ntag_40:\n    /* \"#utility.yul\":1417:1468   */\n  swap6\n  pop\n    /* \"#utility.yul\":1501:1505   */\n  dup1\n    /* \"#utility.yul\":1497:1506   */\n  not\n    /* \"#utility.yul\":1490:1495   */\n  dup5\n    /* \"#utility.yul\":1486:1507   */\n  and\n    /* \"#utility.yul\":1477:1507   */\n  swap4\n  pop\n    /* \"#utility.yul\":1550:1554   */\n  dup1\n    /* \"#utility.yul\":1540:1548   */\n  dup7\n    /* \"#utility.yul\":1536:1555   */\n  and\n    /* \"#utility.yul\":1529:1534   */\n  dup5\n    /* \"#utility.yul\":1526:1556   */\n  or\n    /* \"#utility.yul\":1516:1556   */\n  swap3\n  pop\n    /* \"#utility.yul\":1245:1562   */\n  pop\n  pop\n    /* \"#utility.yul\":1169:1562   */\n  swap4\n  swap3\n  pop\n  pop\n  pop\n  jump\t// out\n    /* \"#utility.yul\":1568:1645   */\ntag_15:\n    /* \"#utility.yul\":1605:1612   */\n  0x00\n    /* \"#utility.yul\":1634:1639   */\n  dup2\n    /* \"#utility.yul\":1623:1639   */\n  swap1\n  pop\n    /* \"#utility.yul\":1568:1645   */\n  swap2\n  swap1\n  pop\n  jump\t// out\n    /* \"#utility.yul\":1651:1711   */\ntag_16:\n    /* \"#utility.yul\":1679:1682   */\n  0x00\n    /* \"#utility.yul\":1700:1705   */\n  dup2\n    /* \"#utility.yul\":1693:1705   */\n  swap1\n  pop\n    /* \"#utility.yul\":1651:1711   */\n  swap2\n  swap1\n  pop\n  jump\t// out\n    /* \"#utility.yul\":1717:1859   */\ntag_17:\n    /* \"#utility.yul\":1767:1776   */\n  0x00\n    /* \"#utility.yul\":1800:1853   */\n  tag_44\n    /* \"#utility.yul\":1818:1852   */\n  tag_45\n    /* \"#utility.yul\":1827:1851   */\n  tag_46\n    /* \"#utility.yul\":1845:1850   */\n  dup5\n    /* \"#utility.yul\":1827:1851   */\n  tag_15\n  jump\t// in\ntag_46:\n    /* \"#utility.yul\":1818:1852   */\n  tag_16\n  jump\t// in\ntag_45:\n    /* \"#utility.yul\":1800:1853   */\n  tag_15\n  jump\t// in\ntag_44:\n    /* \"#utility.yul\":1787:1853   */\n  swap1\n  pop\n    /* \"#utility.yul\":1717:1859   */\n  swap2\n  swap1\n  pop\n  jump\t// out\n    /* \"#utility.yul\":1865:1940   */\ntag_18:\n    /* \"#utility.yul\":1908:1911   */\n  0x00\n    /* \"#utility.yul\":1929:1934   */\n  dup2\n    /* \"#utility.yul\":1922:1934   */\n  swap1\n  pop\n    /* \"#utility.yul\":1865:1940   */\n  swap2\n  swap1\n  pop\n  jump\t// out\n    /* \"#utility.yul\":1946:2215   */\ntag_19:\n    /* \"#utility.yul\":2056:2095   */\n  tag_49\n    /* \"#utility.yul\":2087:2094   */\n  dup4\n    /* \"#utility.yul\":2056:2095   */\n  tag_17\n  jump\t// in\ntag_49:\n    /* \"#utility.yul\":2117:2208   */\n  tag_50\n    /* \"#utility.yul\":2166:2207   */\n  tag_51\n    /* \"#utility.yul\":2190:2206   */\n  dup3\n    /* \"#utility.yul\":2166:2207   */\n  tag_18\n  jump\t// in\ntag_51:\n    /* \"#utility.yul\":2158:2164   */\n  dup5\n    /* \"#utility.yul\":2151:2155   */\n  dup5\n    /* \"#utility.yul\":2145:2156   */\n  sload\n    /* \"#utility.yul\":2117:2208   */\n  tag_14\n  jump\t// in\ntag_50:\n    /* \"#utility.yul\":2111:2115   */\n  dup3\n    /* \"#utility.yul\":2104:2209   */\n  sstore\n    /* \"#utility.yul\":2022:2215   */\n  pop\n    /* \"#utility.yul\":1946:2215   */\n  pop\n  pop\n  pop\n  jump\t// out\n    /* \"#utility.yul\":2221:2294   */\ntag_20:\n    /* \"#utility.yul\":2266:2269   */\n  0x00\n    /* \"#utility.yul\":2221:2294   */\n  swap1\n  jump\t// out\n    /* \"#utility.yul\":2300:2489   */\ntag_21:\n    /* \"#utility.yul\":2377:2409   */\n  tag_54\n  tag_20\n  jump\t// in\ntag_54:\n    /* \"#utility.yul\":2418:2483   */\n  tag_55\n    /* \"#utility.yul\":2476:2482   */\n  dup2\n    /* \"#utility.yul\":2468:2474   */\n  dup5\n    /* \"#utility.yul\":2462:2466   */\n  dup5\n    /* \"#utility.yul\":2418:2483   */\n  tag_19\n  jump\t// in\ntag_55:\n    /* \"#utility.yul\":2353:2489   */\n  pop\n    /* \"#utility.yul\":2300:2489   */\n  pop\n  pop\n  jump\t// out\n    /* \"#utility.yul\":2495:2681   */\ntag_22:\n    /* \"#utility.yul\":2555:2675   */\ntag_57:\n    /* \"#utility.yul\":2572:2575   */\n  dup2\n    /* \"#utility.yul\":2565:2570   */\n  dup2\n    /* \"#utility.yul\":2562:2576   */\n  lt\n    /* \"#utility.yul\":2555:2675   */\n  iszero\n  tag_59\n  jumpi\n    /* \"#utility.yul\":2626:2665   */\n  tag_60\n    /* \"#utility.yul\":2663:2664   */\n  0x00\n    /* \"#utility.yul\":2656:2661   */\n  dup3\n    /* \"#utility.yul\":2626:2665   */\n  tag_21\n  jump\t// in\ntag_60:\n    /* \"#utility.yul\":2599:2600   */\n  0x01\n    /* \"#utility.yul\":2592:2597   */\n  dup2\n    /* \"#utility.yul\":2588:2601   */\n  add\n    /* \"#utility.yul\":2579:2601   */\n  swap1\n  pop\n    /* \"#utility.yul\":2555:2675   */\n  jump(tag_57)\ntag_59:\n    /* \"#utility.yul\":2495:2681   */\n  pop\n  pop\n  jump\t// out\n    /* \"#utility.yul\":2687:3230   */\ntag_23:\n    /* \"#utility.yul\":2788:2790   */\n  0x1f\n    /* \"#utility.yul\":2783:2786   */\n  dup3\n    /* \"#utility.yul\":2780:2791   */\n  gt\n    /* \"#utility.yul\":2777:3223   */\n  iszero\n  tag_62\n  jumpi\n    /* \"#utility.yul\":2822:2860   */\n  tag_63\n    /* \"#utility.yul\":2854:2859   */\n  dup2\n    /* \"#utility.yul\":2822:2860   */\n  tag_11\n  jump\t// in\ntag_63:\n    /* \"#utility.yul\":2906:2935   */\n  tag_64\n    /* \"#utility.yul\":2924:2934   */\n  dup5\n    /* \"#utility.yul\":2906:2935   */\n  tag_12\n  jump\t// in\ntag_64:\n    /* \"#utility.yul\":2896:2904   */\n  dup2\n    /* \"#utility.yul\":2892:2936   */\n  add\n    /* \"#utility.yul\":3089:3091   */\n  0x20\n    /* \"#utility.yul\":3077:3087   */\n  dup6\n    /* \"#utility.yul\":3074:3092   */\n  lt\n    /* \"#utility.yul\":3071:3120   */\n  iszero\n  tag_65\n  jumpi\n    /* \"#utility.yul\":3110:3118   */\n  dup2\n    /* \"#utility.yul\":3095:3118   */\n  swap1\n  pop\n    /* \"#utility.yul\":3071:3120   */\ntag_65:\n    /* \"#utility.yul\":3133:3213   */\n  tag_66\n    /* \"#utility.yul\":3189:3211   */\n  tag_67\n    /* \"#utility.yul\":3207:3210   */\n  dup6\n    /* \"#utility.yul\":3189:3211   */\n  tag_12\n  jump\t// in\ntag_67:\n    /* \"#utility.yul\":3179:3187   */\n  dup4\n    /* \"#utility.yul\":3175:3212   */\n  add\n    /* \"#utility.yul\":3162:3173   */\n  dup3\n    /* \"#utility.yul\":3133:3213   */\n  tag_22\n  jump\t// in\ntag_66:\n    /* \"#utility.yul\":2792:3223   */\n  pop\n  pop\n    /* \"#utility.yul\":2777:3223   */\ntag_62:\n    /* \"#utility.yul\":2687:3230   */\n  pop\n  pop\n  pop\n  jump\t// out\n    /* \"#utility.yul\":3236:3353   */\ntag_24:\n    /* \"#utility.yul\":3290:3298   */\n  0x00\n    /* \"#utility.yul\":3340:3345   */\n  dup3\n    /* \"#utility.yul\":3334:3338   */\n  dup3\n    /* \"#utility.yul\":3330:3346   */\n  shr\n    /* \"#utility.yul\":3309:3346   */\n  swap1\n  pop\n    /* \"#utility.yul\":3236:3353   */\n  swap3\n  swap2\n  pop\n  pop\n  jump\t// out\n    /* \"#utility.yul\":3359:3528   */\ntag_25:\n    /* \"#utility.yul\":3403:3409   */\n  0x00\n    /* \"#utility.yul\":3436:3487   */\n  tag_70\n    /* \"#utility.yul\":3484:3485   */\n  0x00\n    /* \"#utility.yul\":3480:3486   */\n  not\n    /* \"#utility.yul\":3472:3477   */\n  dup5\n    /* \"#utility.yul\":3469:3470   */\n  0x08\n    /* \"#utility.yul\":3465:3478   */\n  mul\n    /* \"#utility.yul\":3436:3487   */\n  tag_24\n  jump\t// in\ntag_70:\n    /* \"#utility.yul\":3432:3488   */\n  not\n    /* \"#utility.yul\":3517:3521   */\n  dup1\n    /* \"#utility.yul\":3511:3515   */\n  dup4\n    /* \"#utility.yul\":3507:3522   */\n  and\n    /* \"#utility.yul\":3497:3522   */\n  swap2\n  pop\n    /* \"#utility.yul\":3410:3528   */\n  pop\n    /* \"#utility.yul\":3359:3528   */\n  swap3\n  swap2\n  pop\n  pop\n  jump\t// out\n    /* \"#utility.yul\":3533:3828   */\ntag_26:\n    /* \"#utility.yul\":3609:3613   */\n  0x00\n    /* \"#utility.yul\":3755:3784   */\n  tag_72\n    /* \"#utility.yul\":3780:3783   */\n  dup4\n    /* \"#utility.yul\":3774:3778   */\n  dup4\n    /* \"#utility.yul\":3755:3784   */\n  tag_25\n  jump\t// in\ntag_72:\n    /* \"#utility.yul\":3747:3784   */\n  swap2\n  pop\n    /* \"#utility.yul\":3817:3820   */\n  dup3\n    /* \"#utility.yul\":3814:3815   */\n  0x02\n    /* \"#utility.yul\":3810:3821   */\n  mul\n    /* \"#utility.yul\":3804:3808   */\n  dup3\n    /* \"#utility.yul\":3801:3822   */\n  or\n    /* \"#utility.yul\":3793:3822   */\n  swap1\n  pop\n    /* \"#utility.yul\":3533:3828   */\n  swap3\n  swap2\n  pop\n  pop\n  jump\t// out\n    /* \"#utility.yul\":3833:5228   */\ntag_2:\n    /* \"#utility.yul\":3950:3987   */\n  tag_74\n    /* \"#utility.yul\":3983:3986   */\n  dup3\n    /* \"#utility.yul\":3950:3987   */\n  tag_7\n  jump\t// in\ntag_74:\n    /* \"#utility.yul\":4052:4070   */\n  0xffffffffffffffff\n    /* \"#utility.yul\":4044:4050   */\n  dup2\n    /* \"#utility.yul\":4041:4071   */\n  gt\n    /* \"#utility.yul\":4038:4094   */\n  iszero\n  tag_75\n  jumpi\n    /* \"#utility.yul\":4074:4092   */\n  tag_76\n  tag_8\n  jump\t// in\ntag_76:\n    /* \"#utility.yul\":4038:4094   */\ntag_75:\n    /* \"#utility.yul\":4118:4156   */\n  tag_77\n    /* \"#utility.yul\":4150:4154   */\n  dup3\n    /* \"#utility.yul\":4144:4155   */\n  sload\n    /* \"#utility.yul\":4118:4156   */\n  tag_10\n  jump\t// in\ntag_77:\n    /* \"#utility.yul\":4203:4270   */\n  tag_78\n    /* \"#utility.yul\":4263:4269   */\n  dup3\n    /* \"#utility.yul\":4255:4261   */\n  dup3\n    /* \"#utility.yul\":4249:4253   */\n  dup6\n    /* \"#utility.yul\":4203:4270   */\n  tag_23\n  jump\t// in\ntag_78:\n    /* \"#utility.yul\":4297:4298   */\n  0x00\n    /* \"#utility.yul\":4321:4325   */\n  0x20\n    /* \"#utility.yul\":4308:4325   */\n  swap1\n  pop\n    /* \"#utility.yul\":4353:4355   */\n  0x1f\n    /* \"#utility.yul\":4345:4351   */\n  dup4\n    /* \"#utility.yul\":4342:4356   */\n  gt\n    /* \"#utility.yul\":4370:4371   */\n  0x01\n    /* \"#utility.yul\":4365:4983   */\n  dup2\n  eq\n  tag_80\n  jumpi\n    /* \"#utility.yul\":5027:5028   */\n  0x00\n    /* \"#utility.yul\":5044:5050   */\n  dup5\n    /* \"#utility.yul\":5041:5118   */\n  iszero\n  tag_81\n  jumpi\n    /* \"#utility.yul\":5093:5102   */\n  dup3\n    /* \"#utility.yul\":5088:5091   */\n  dup8\n    /* \"#utility.yul\":5084:5103   */\n  add\n    /* \"#utility.yul\":5078:5104   */\n  mload\n    /* \"#utility.yul\":5069:5104   */\n  swap1\n  pop\n    /* \"#utility.yul\":5041:5118   */\ntag_81:\n    /* \"#utility.yul\":5144:5211   */\n  tag_82\n    /* \"#utility.yul\":5204:5210   */\n  dup6\n    /* \"#utility.yul\":5197:5202   */\n  dup3\n    /* \"#utility.yul\":5144:5211   */\n  tag_26\n  jump\t// in\ntag_82:\n    /* \"#utility.yul\":5138:5142   */\n  dup7\n    /* \"#utility.yul\":5131:5212   */\n  sstore\n    /* \"#utility.yul\":5000:5222   */\n  pop\n    /* \"#utility.yul\":4335:5222   */\n  jump(tag_79)\n    /* \"#utility.yul\":4365:4983   */\ntag_80:\n    /* \"#utility.yul\":4417:4421   */\n  0x1f\n    /* \"#utility.yul\":4413:4422   */\n  not\n    /* \"#utility.yul\":4405:4411   */\n  dup5\n    /* \"#utility.yul\":4401:4423   */\n  and\n    /* \"#utility.yul\":4451:4488   */\n  tag_83\n    /* \"#utility.yul\":4483:4487   */\n  dup7\n    /* \"#utility.yul\":4451:4488   */\n  tag_11\n  jump\t// in\ntag_83:\n    /* \"#utility.yul\":4510:4511   */\n  0x00\n    /* \"#utility.yul\":4524:4732   */\ntag_84:\n    /* \"#utility.yul\":4538:4545   */\n  dup3\n    /* \"#utility.yul\":4535:4536   */\n  dup2\n    /* \"#utility.yul\":4532:4546   */\n  lt\n    /* \"#utility.yul\":4524:4732   */\n  iszero\n  tag_86\n  jumpi\n    /* \"#utility.yul\":4617:4626   */\n  dup5\n    /* \"#utility.yul\":4612:4615   */\n  dup10\n    /* \"#utility.yul\":4608:4627   */\n  add\n    /* \"#utility.yul\":4602:4628   */\n  mload\n    /* \"#utility.yul\":4594:4600   */\n  dup3\n    /* \"#utility.yul\":4587:4629   */\n  sstore\n    /* \"#utility.yul\":4668:4669   */\n  0x01\n    /* \"#utility.yul\":4660:4666   */\n  dup3\n    /* \"#utility.yul\":4656:4670   */\n  add\n    /* \"#utility.yul\":4646:4670   */\n  swap2\n  pop\n    /* \"#utility.yul\":4715:4717   */\n  0x20\n    /* \"#utility.yul\":4704:4713   */\n  dup6\n    /* \"#utility.yul\":4700:4718   */\n  add\n    /* \"#utility.yul\":4687:4718   */\n  swap5\n  pop\n    /* \"#utility.yul\":4561:4565   */\n  0x20\n    /* \"#utility.yul\":4558:4559   */\n  dup2\n    /* \"#utility.yul\":4554:4566   */\n  add\n    /* \"#utility.yul\":4549:4566   */\n  swap1\n  pop\n    /* \"#utility.yul\":4524:4732   */\n  jump(tag_84)\ntag_86:\n    /* \"#utility.yul\":4760:4766   */\n  dup7\n    /* \"#utility.yul\":4751:4758   */\n  dup4\n    /* \"#utility.yul\":4748:4767   */\n  lt\n    /* \"#utility.yul\":4745:4924   */\n  iszero\n  tag_87\n  jumpi\n    /* \"#utility.yul\":4818:4827   */\n  dup5\n    /* \"#utility.yul\":4813:4816   */\n  dup10\n    /* \"#utility.yul\":4809:4828   */\n  add\n    /* \"#utility.yul\":4803:4829   */\n  mload\n    /* \"#utility.yul\":4861:4909   */\n  tag_88\n    /* \"#utility.yul\":4903:4907   */\n  0x1f\n    /* \"#utility.yul\":4895:4901   */\n  dup10\n    /* \"#utility.yul\":4891:4908   */\n  and\n    /* \"#utility.yul\":4880:4889   */\n  dup3\n    /* \"#utility.yul\":4861:4909   */\n  tag_25\n  jump\t// in\ntag_88:\n    /* \"#utility.yul\":4853:4859   */\n  dup4\n    /* \"#utility.yul\":4846:4910   */\n  sstore\n    /* \"#utility.yul\":4768:4924   */\n  pop\n    /* \"#utility.yul\":4745:4924   */\ntag_87:\n    /* \"#utility.yul\":4970:4971   */\n  0x01\n    /* \"#utility.yul\":4966:4967   */\n  0x02\n    /* \"#utility.yul\":4958:4964   */\n  dup9\n    /* \"#utility.yul\":4954:4968   */\n  mul\n    /* \"#utility.yul\":4950:4972   */\n  add\n    /* \"#utility.yul\":4944:4948   */\n  dup9\n    /* \"#utility.yul\":4937:4973   */\n  sstore\n    /* \"#utility.yul\":4372:4983   */\n  pop\n  pop\n  pop\n    /* \"#utility.yul\":4335:5222   */\ntag_79:\n  pop\n    /* \"#utility.yul\":3925:5228   */\n  pop\n  pop\n  pop\n    /* \"#utility.yul\":3833:5228   */\n  pop\n  pop\n  jump\t// out\n    /* \"Newnft.sol\":8733:29263  contract ApesUnshaved is IERC721A { ... */\ntag_6:\n  dataSize(sub_0)\n  dup1\n  dataOffset(sub_0)\n  0x00\n  codecopy\n  0x00\n  return\nstop\ndata_6f9fa96106e85b183c591de689be8f7c4652995ed1a609c3ecc0852b3b08094c 516d58537665725876447453674b6143716d74696f5043724b3471576d636155485662544e436d62454265564a64\n\nsub_0: assembly {\n        /* \"Newnft.sol\":8733:29263  contract ApesUnshaved is IERC721A { ... */\n      mstore(0x40, 0x80)\n      jumpi(tag_1, lt(calldatasize, 0x04))\n      shr(0xe0, calldataload(0x00))\n      dup1\n      0x6352211e\n      gt\n      tag_26\n      jumpi\n      dup1\n      0xa22cb465\n      gt\n      tag_27\n      jumpi\n      dup1\n      0xa22cb465\n      eq\n      tag_20\n      jumpi\n      dup1\n      0xb88d4fde\n      eq\n      tag_21\n      jumpi\n      dup1\n      0xbf8fbbd2\n      eq\n      tag_22\n      jumpi\n      dup1\n      0xc87b56dd\n      eq\n      tag_23\n      jumpi\n      dup1\n      0xe985e9c5\n      eq\n      tag_24\n      jumpi\n      dup1\n      0xed6661c2\n      eq\n      tag_25\n      jumpi\n      jump(tag_1)\n    tag_27:\n      dup1\n      0x6352211e\n      eq\n      tag_14\n      jumpi\n      dup1\n      0x70a08231\n      eq\n      tag_15\n      jumpi\n      dup1\n      0x8da5cb5b\n      eq\n      tag_16\n      jumpi\n      dup1\n      0x95d89b41\n      eq\n      tag_17\n      jumpi\n      dup1\n      0x98710d1e\n      eq\n      tag_18\n      jumpi\n      dup1\n      0xa0712d68\n      eq\n      tag_19\n      jumpi\n      jump(tag_1)\n    tag_26:\n      dup1\n      0x23b872dd\n      gt\n      tag_28\n      jumpi\n      dup1\n      0x23b872dd\n      eq\n      tag_8\n      jumpi\n      dup1\n      0x32cb6b0c\n      eq\n      tag_9\n      jumpi\n      dup1\n      0x3ccfd60b\n      eq\n      tag_10\n      jumpi\n      dup1\n      0x42842e0e\n      eq\n      tag_11\n      jumpi\n      dup1\n      0x47064d6a\n      eq\n      tag_12\n      jumpi\n      dup1\n      0x5b70ea9f\n      eq\n      tag_13\n      jumpi\n      jump(tag_1)\n    tag_28:\n      dup1\n      0x01ffc9a7\n      eq\n      tag_2\n      jumpi\n      dup1\n      0x06fdde03\n      eq\n      tag_3\n      jumpi\n      dup1\n      0x081812fc\n      eq\n      tag_4\n      jumpi\n      dup1\n      0x095ea7b3\n      eq\n      tag_5\n      jumpi\n      dup1\n      0x129ee21a\n      eq\n      tag_6\n      jumpi\n      dup1\n      0x18160ddd\n      eq\n      tag_7\n      jumpi\n    tag_1:\n      0x00\n      dup1\n      revert\n        /* \"Newnft.sol\":13787:14394  function supportsInterface(bytes4 interfaceId) public view virtual override returns (bool) {... */\n    tag_2:\n      callvalue\n      dup1\n      iszero\n      tag_29\n      jumpi\n      0x00\n      dup1\n      revert\n    tag_29:\n      pop\n      tag_30\n      0x04\n      dup1\n      calldatasize\n      sub\n      dup2\n      add\n      swap1\n      tag_31\n      swap2\n      swap1\n      tag_32\n      jump\t// in\n    tag_31:\n      tag_33\n      jump\t// in\n    tag_30:\n      mload(0x40)\n      tag_34\n      swap2\n      swap1\n      tag_35\n      jump\t// in\n    tag_34:\n      mload(0x40)\n      dup1\n      swap2\n      sub\n      swap1\n      return\n        /* \"Newnft.sol\":17888:17986  function name() public view virtual override returns (string memory) {... */\n    tag_3:\n      callvalue\n      dup1\n      iszero\n      tag_36\n      jumpi\n      0x00\n      dup1\n      revert\n    tag_36:\n      pop\n      tag_37\n      tag_38\n      jump\t// in\n    tag_37:\n      mload(0x40)\n      tag_39\n      swap2\n      swap1\n      tag_40\n      jump\t// in\n    tag_39:\n      mload(0x40)\n      dup1\n      swap2\n      sub\n      swap1\n      return\n        /* \"Newnft.sol\":19500:19700  function getApproved(uint256 tokenId) public view override returns (address) {... */\n    tag_4:\n      callvalue\n      dup1\n      iszero\n      tag_41\n      jumpi\n      0x00\n      dup1\n      revert\n    tag_41:\n      pop\n      tag_42\n      0x04\n      dup1\n      calldatasize\n      sub\n      dup2\n      add\n      swap1\n      tag_43\n      swap2\n      swap1\n      tag_44\n      jump\t// in\n    tag_43:\n      tag_45\n      jump\t// in\n    tag_42:\n      mload(0x40)\n      tag_46\n      swap2\n      swap1\n      tag_47\n      jump\t// in\n    tag_46:\n      mload(0x40)\n      dup1\n      swap2\n      sub\n      swap1\n      return\n        /* \"Newnft.sol\":18999:19439  function approve(address to, uint256 tokenId) public override {... */\n    tag_5:\n      callvalue\n      dup1\n      iszero\n      tag_48\n      jumpi\n      0x00\n      dup1\n      revert\n    tag_48:\n      pop\n      tag_49\n      0x04\n      dup1\n      calldatasize\n      sub\n      dup2\n      add\n      swap1\n      tag_50\n      swap2\n      swap1\n      tag_51\n      jump\t// in\n    tag_50:\n      tag_52\n      jump\t// in\n    tag_49:\n      stop\n        /* \"Newnft.sol\":12243:12455  function setConfig(uint256 _MAX_FREE_PER_WALLET, uint256 _COST, uint256 _MAX_FREE) external onlyOwner{... */\n    tag_6:\n      callvalue\n      dup1\n      iszero\n      tag_53\n      jumpi\n      0x00\n      dup1\n      revert\n    tag_53:\n      pop\n      tag_54\n      0x04\n      dup1\n      calldatasize\n      sub\n      dup2\n      add\n      swap1\n      tag_55\n      swap2\n      swap1\n      tag_56\n      jump\t// in\n    tag_55:\n      tag_57\n      jump\t// in\n    tag_54:\n      stop\n        /* \"Newnft.sol\":13053:13347  function totalSupply() public view override returns (uint256) {... */\n    tag_7:\n      callvalue\n      dup1\n      iszero\n      tag_58\n      jumpi\n      0x00\n      dup1\n      revert\n    tag_58:\n      pop\n      tag_59\n      tag_60\n      jump\t// in\n    tag_59:\n      mload(0x40)\n      tag_61\n      swap2\n      swap1\n      tag_62\n      jump\t// in\n    tag_61:\n      mload(0x40)\n      dup1\n      swap2\n      sub\n      swap1\n      return\n        /* \"Newnft.sol\":20360:20544  function transferFrom(... */\n    tag_8:\n      callvalue\n      dup1\n      iszero\n      tag_63\n      jumpi\n      0x00\n      dup1\n      revert\n    tag_63:\n      pop\n      tag_64\n      0x04\n      dup1\n      calldatasize\n      sub\n      dup2\n      add\n      swap1\n      tag_65\n      swap2\n      swap1\n      tag_66\n      jump\t// in\n    tag_65:\n      tag_67\n      jump\t// in\n    tag_64:\n      stop\n        /* \"Newnft.sol\":8968:9008  uint256 public constant MAX_SUPPLY = 970 */\n    tag_9:\n      callvalue\n      dup1\n      iszero\n      tag_68\n      jumpi\n      0x00\n      dup1\n      revert\n    tag_68:\n      pop\n      tag_69\n      tag_70\n      jump\t// in\n    tag_69:\n      mload(0x40)\n      tag_71\n      swap2\n      swap1\n      tag_62\n      jump\t// in\n    tag_71:\n      mload(0x40)\n      dup1\n      swap2\n      sub\n      swap1\n      return\n        /* \"Newnft.sol\":29119:29261  function withdraw() external onlyOwner {... */\n    tag_10:\n      callvalue\n      dup1\n      iszero\n      tag_72\n      jumpi\n      0x00\n      dup1\n      revert\n    tag_72:\n      pop\n      tag_73\n      tag_74\n      jump\t// in\n    tag_73:\n      stop\n        /* \"Newnft.sol\":20610:20809  function safeTransferFrom(... */\n    tag_11:\n      callvalue\n      dup1\n      iszero\n      tag_75\n      jumpi\n      0x00\n      dup1\n      revert\n    tag_75:\n      pop\n      tag_76\n      0x04\n      dup1\n      calldatasize\n      sub\n      dup2\n      add\n      swap1\n      tag_77\n      swap2\n      swap1\n      tag_66\n      jump\t// in\n    tag_77:\n      tag_78\n      jump\t// in\n    tag_76:\n      stop\n        /* \"Newnft.sol\":12148:12237  function setData(string memory _base) external onlyOwner{... */\n    tag_12:\n      callvalue\n      dup1\n      iszero\n      tag_79\n      jumpi\n      0x00\n      dup1\n      revert\n    tag_79:\n      pop\n      tag_80\n      0x04\n      dup1\n      calldatasize\n      sub\n      dup2\n      add\n      swap1\n      tag_81\n      swap2\n      swap1\n      tag_82\n      jump\t// in\n    tag_81:\n      tag_83\n      jump\t// in\n    tag_80:\n      stop\n        /* \"Newnft.sol\":9643:9951  function freeMint() external{... */\n    tag_13:\n      callvalue\n      dup1\n      iszero\n      tag_84\n      jumpi\n      0x00\n      dup1\n      revert\n    tag_84:\n      pop\n      tag_85\n      tag_86\n      jump\t// in\n    tag_85:\n      stop\n        /* \"Newnft.sol\":17684:17826  function ownerOf(uint256 tokenId) public view override returns (address) {... */\n    tag_14:\n      callvalue\n      dup1\n      iszero\n      tag_87\n      jumpi\n      0x00\n      dup1\n      revert\n    tag_87:\n      pop\n      tag_88\n      0x04\n      dup1\n      calldatasize\n      sub\n      dup2\n      add\n      swap1\n      tag_89\n      swap2\n      swap1\n      tag_44\n      jump\t// in\n    tag_89:\n      tag_90\n      jump\t// in\n    tag_88:\n      mload(0x40)\n      tag_91\n      swap2\n      swap1\n      tag_47\n      jump\t// in\n    tag_91:\n      mload(0x40)\n      dup1\n      swap2\n      sub\n      swap1\n      return\n        /* \"Newnft.sol\":14453:14684  function balanceOf(address owner) public view override returns (uint256) {... */\n    tag_15:\n      callvalue\n      dup1\n      iszero\n      tag_92\n      jumpi\n      0x00\n      dup1\n      revert\n    tag_92:\n      pop\n      tag_93\n      0x04\n      dup1\n      calldatasize\n      sub\n      dup2\n      add\n      swap1\n      tag_94\n      swap2\n      swap1\n      tag_95\n      jump\t// in\n    tag_94:\n      tag_96\n      jump\t// in\n    tag_93:\n      mload(0x40)\n      tag_97\n      swap2\n      swap1\n      tag_62\n      jump\t// in\n    tag_97:\n      mload(0x40)\n      dup1\n      swap2\n      sub\n      swap1\n      return\n        /* \"Newnft.sol\":8803:8878  function owner() public view returns(address){... */\n    tag_16:\n      callvalue\n      dup1\n      iszero\n      tag_98\n      jumpi\n      0x00\n      dup1\n      revert\n    tag_98:\n      pop\n      tag_99\n      tag_100\n      jump\t// in\n    tag_99:\n      mload(0x40)\n      tag_101\n      swap2\n      swap1\n      tag_47\n      jump\t// in\n    tag_101:\n      mload(0x40)\n      dup1\n      swap2\n      sub\n      swap1\n      return\n        /* \"Newnft.sol\":18050:18152  function symbol() public view virtual override returns (string memory) {... */\n    tag_17:\n      callvalue\n      dup1\n      iszero\n      tag_102\n      jumpi\n      0x00\n      dup1\n      revert\n    tag_102:\n      pop\n      tag_103\n      tag_104\n      jump\t// in\n    tag_103:\n      mload(0x40)\n      tag_105\n      swap2\n      swap1\n      tag_40\n      jump\t// in\n    tag_105:\n      mload(0x40)\n      dup1\n      swap2\n      sub\n      swap1\n      return\n        /* \"Newnft.sol\":9049:9087  uint256 public MAX_FREE_PER_WALLET = 1 */\n    tag_18:\n      callvalue\n      dup1\n      iszero\n      tag_106\n      jumpi\n      0x00\n      dup1\n      revert\n    tag_106:\n      pop\n      tag_107\n      tag_108\n      jump\t// in\n    tag_107:\n      mload(0x40)\n      tag_109\n      swap2\n      swap1\n      tag_62\n      jump\t// in\n    tag_109:\n      mload(0x40)\n      dup1\n      swap2\n      sub\n      swap1\n      return\n        /* \"Newnft.sol\":9376:9637  function mint(uint256 amount) external payable{... */\n    tag_19:\n      tag_110\n      0x04\n      dup1\n      calldatasize\n      sub\n      dup2\n      add\n      swap1\n      tag_111\n      swap2\n      swap1\n      tag_44\n      jump\t// in\n    tag_111:\n      tag_112\n      jump\t// in\n    tag_110:\n      stop\n        /* \"Newnft.sol\":19767:20070  function setApprovalForAll(address operator, bool approved) public virtual override {... */\n    tag_20:\n      callvalue\n      dup1\n      iszero\n      tag_113\n      jumpi\n      0x00\n      dup1\n      revert\n    tag_113:\n      pop\n      tag_114\n      0x04\n      dup1\n      calldatasize\n      sub\n      dup2\n      add\n      swap1\n      tag_115\n      swap2\n      swap1\n      tag_116\n      jump\t// in\n    tag_115:\n      tag_117\n      jump\t// in\n    tag_114:\n      stop\n        /* \"Newnft.sol\":20875:21095  function safeTransferFrom(... */\n    tag_21:\n      callvalue\n      dup1\n      iszero\n      tag_118\n      jumpi\n      0x00\n      dup1\n      revert\n    tag_118:\n      pop\n      tag_119\n      0x04\n      dup1\n      calldatasize\n      sub\n      dup2\n      add\n      swap1\n      tag_120\n      swap2\n      swap1\n      tag_121\n      jump\t// in\n    tag_120:\n      tag_122\n      jump\t// in\n    tag_119:\n      stop\n        /* \"Newnft.sol\":9093:9126  uint256 public COST = 0.001 ether */\n    tag_22:\n      callvalue\n      dup1\n      iszero\n      tag_123\n      jumpi\n      0x00\n      dup1\n      revert\n    tag_123:\n      pop\n      tag_124\n      tag_125\n      jump\t// in\n    tag_124:\n      mload(0x40)\n      tag_126\n      swap2\n      swap1\n      tag_62\n      jump\t// in\n    tag_126:\n      mload(0x40)\n      dup1\n      swap2\n      sub\n      swap1\n      return\n        /* \"Newnft.sol\":18163:18498  function tokenURI(uint256 tokenId) public view virtual override returns (string memory) {... */\n    tag_23:\n      callvalue\n      dup1\n      iszero\n      tag_127\n      jumpi\n      0x00\n      dup1\n      revert\n    tag_127:\n      pop\n      tag_128\n      0x04\n      dup1\n      calldatasize\n      sub\n      dup2\n      add\n      swap1\n      tag_129\n      swap2\n      swap1\n      tag_44\n      jump\t// in\n    tag_129:\n      tag_130\n      jump\t// in\n    tag_128:\n      mload(0x40)\n      tag_131\n      swap2\n      swap1\n      tag_40\n      jump\t// in\n    tag_131:\n      mload(0x40)\n      dup1\n      swap2\n      sub\n      swap1\n      return\n        /* \"Newnft.sol\":20136:20298  function isApprovedForAll(address owner, address operator) public view virtual override returns (bool) {... */\n    tag_24:\n      callvalue\n      dup1\n      iszero\n      tag_132\n      jumpi\n      0x00\n      dup1\n      revert\n    tag_132:\n      pop\n      tag_133\n      0x04\n      dup1\n      calldatasize\n      sub\n      dup2\n      add\n      swap1\n      tag_134\n      swap2\n      swap1\n      tag_135\n      jump\t// in\n    tag_134:\n      tag_136\n      jump\t// in\n    tag_133:\n      mload(0x40)\n      tag_137\n      swap2\n      swap1\n      tag_35\n      jump\t// in\n    tag_137:\n      mload(0x40)\n      dup1\n      swap2\n      sub\n      swap1\n      return\n        /* \"Newnft.sol\":9014:9043  uint256 public MAX_FREE = 666 */\n    tag_25:\n      callvalue\n      dup1\n      iszero\n      tag_138\n      jumpi\n      0x00\n      dup1\n      revert\n    tag_138:\n      pop\n      tag_139\n      tag_140\n      jump\t// in\n    tag_139:\n      mload(0x40)\n      tag_141\n      swap2\n      swap1\n      tag_62\n      jump\t// in\n    tag_141:\n      mload(0x40)\n      dup1\n      swap2\n      sub\n      swap1\n      return\n        /* \"Newnft.sol\":13787:14394  function supportsInterface(bytes4 interfaceId) public view virtual override returns (bool) {... */\n    tag_33:\n        /* \"Newnft.sol\":13872:13876  bool */\n      0x00\n        /* \"Newnft.sol\":14182:14192  0x01ffc9a7 */\n      0x01ffc9a7\n        /* \"Newnft.sol\":14167:14192  interfaceId == 0x01ffc9a7 */\n      0xe0\n      shl\n        /* \"Newnft.sol\":14167:14178  interfaceId */\n      dup3\n        /* \"Newnft.sol\":14167:14192  interfaceId == 0x01ffc9a7 */\n      not(0xffffffffffffffffffffffffffffffffffffffffffffffffffffffff)\n      and\n      eq\n        /* \"Newnft.sol\":14167:14268  interfaceId == 0x01ffc9a7 || // ERC165 interface ID for ERC165.... */\n      dup1\n      tag_143\n      jumpi\n      pop\n        /* \"Newnft.sol\":14258:14268  0x80ac58cd */\n      0x80ac58cd\n        /* \"Newnft.sol\":14243:14268  interfaceId == 0x80ac58cd */\n      0xe0\n      shl\n        /* \"Newnft.sol\":14243:14254  interfaceId */\n      dup3\n        /* \"Newnft.sol\":14243:14268  interfaceId == 0x80ac58cd */\n      not(0xffffffffffffffffffffffffffffffffffffffffffffffffffffffff)\n      and\n      eq\n        /* \"Newnft.sol\":14167:14268  interfaceId == 0x01ffc9a7 || // ERC165 interface ID for ERC165.... */\n    tag_143:\n        /* \"Newnft.sol\":14167:14344  interfaceId == 0x01ffc9a7 || // ERC165 interface ID for ERC165.... */\n      dup1\n      tag_144\n      jumpi\n      pop\n        /* \"Newnft.sol\":14334:14344  0x5b5e139f */\n      0x5b5e139f\n        /* \"Newnft.sol\":14319:14344  interfaceId == 0x5b5e139f */\n      0xe0\n      shl\n        /* \"Newnft.sol\":14319:14330  interfaceId */\n      dup3\n        /* \"Newnft.sol\":14319:14344  interfaceId == 0x5b5e139f */\n      not(0xffffffffffffffffffffffffffffffffffffffffffffffffffffffff)\n      and\n      eq\n        /* \"Newnft.sol\":14167:14344  interfaceId == 0x01ffc9a7 || // ERC165 interface ID for ERC165.... */\n    tag_144:\n        /* \"Newnft.sol\":14148:14344  return... */\n      swap1\n      pop\n        /* \"Newnft.sol\":13787:14394  function supportsInterface(bytes4 interfaceId) public view virtual override returns (bool) {... */\n      swap2\n      swap1\n      pop\n      jump\t// out\n        /* \"Newnft.sol\":17888:17986  function name() public view virtual override returns (string memory) {... */\n    tag_38:\n        /* \"Newnft.sol\":17942:17955  string memory */\n      0x60\n        /* \"Newnft.sol\":17974:17979  _name */\n      mload(0x40)\n      dup1\n      0x40\n      add\n      0x40\n      mstore\n      dup1\n      0x0d\n      dup2\n      mstore\n      0x20\n      add\n      0x4170657320556e73686176656400000000000000000000000000000000000000\n      dup2\n      mstore\n      pop\n        /* \"Newnft.sol\":17967:17979  return _name */\n      swap1\n      pop\n        /* \"Newnft.sol\":17888:17986  function name() public view virtual override returns (string memory) {... */\n      swap1\n      jump\t// out\n        /* \"Newnft.sol\":19500:19700  function getApproved(uint256 tokenId) public view override returns (address) {... */\n    tag_45:\n        /* \"Newnft.sol\":19568:19575  address */\n      0x00\n        /* \"Newnft.sol\":19592:19608  _exists(tokenId) */\n      tag_147\n        /* \"Newnft.sol\":19600:19607  tokenId */\n      dup3\n        /* \"Newnft.sol\":19592:19599  _exists */\n      tag_148\n        /* \"Newnft.sol\":19592:19608  _exists(tokenId) */\n      jump\t// in\n    tag_147:\n        /* \"Newnft.sol\":19587:19651  if (!_exists(tokenId)) revert ApprovalQueryForNonexistentToken() */\n      tag_149\n      jumpi\n        /* \"Newnft.sol\":19617:19651  ApprovalQueryForNonexistentToken() */\n      mload(0x40)\n      0xcf4700e400000000000000000000000000000000000000000000000000000000\n      dup2\n      mstore\n      0x04\n      add\n      mload(0x40)\n      dup1\n      swap2\n      sub\n      swap1\n      revert\n        /* \"Newnft.sol\":19587:19651  if (!_exists(tokenId)) revert ApprovalQueryForNonexistentToken() */\n    tag_149:\n        /* \"Newnft.sol\":19669:19684  _tokenApprovals */\n      0x08\n        /* \"Newnft.sol\":19669:19693  _tokenApprovals[tokenId] */\n      0x00\n        /* \"Newnft.sol\":19685:19692  tokenId */\n      dup4\n        /* \"Newnft.sol\":19669:19693  _tokenApprovals[tokenId] */\n      dup2\n      mstore\n      0x20\n      add\n      swap1\n      dup2\n      mstore\n      0x20\n      add\n      0x00\n      keccak256\n      0x00\n      swap1\n      sload\n      swap1\n      0x0100\n      exp\n      swap1\n      div\n      0xffffffffffffffffffffffffffffffffffffffff\n      and\n        /* \"Newnft.sol\":19662:19693  return _tokenApprovals[tokenId] */\n      swap1\n      pop\n        /* \"Newnft.sol\":19500:19700  function getApproved(uint256 tokenId) public view override returns (address) {... */\n      swap2\n      swap1\n      pop\n      jump\t// out\n        /* \"Newnft.sol\":18999:19439  function approve(address to, uint256 tokenId) public override {... */\n    tag_52:\n        /* \"Newnft.sol\":19071:19084  address owner */\n      0x00\n        /* \"Newnft.sol\":19103:19130  _packedOwnershipOf(tokenId) */\n      tag_151\n        /* \"Newnft.sol\":19122:19129  tokenId */\n      dup3\n        /* \"Newnft.sol\":19103:19121  _packedOwnershipOf */\n      tag_152\n        /* \"Newnft.sol\":19103:19130  _packedOwnershipOf(tokenId) */\n      jump\t// in\n    tag_151:\n        /* \"Newnft.sol\":19071:19132  address owner = address(uint160(_packedOwnershipOf(tokenId))) */\n      swap1\n      pop\n        /* \"Newnft.sol\":19152:19157  owner */\n      dup1\n        /* \"Newnft.sol\":19146:19157  to == owner */\n      0xffffffffffffffffffffffffffffffffffffffff\n      and\n        /* \"Newnft.sol\":19146:19148  to */\n      dup4\n        /* \"Newnft.sol\":19146:19157  to == owner */\n      0xffffffffffffffffffffffffffffffffffffffff\n      and\n      sub\n        /* \"Newnft.sol\":19142:19167  if (to == owner) revert() */\n      tag_153\n      jumpi\n        /* \"Newnft.sol\":19159:19167  revert() */\n      0x00\n      dup1\n      revert\n        /* \"Newnft.sol\":19142:19167  if (to == owner) revert() */\n    tag_153:\n        /* \"Newnft.sol\":19205:19210  owner */\n      dup1\n        /* \"Newnft.sol\":19182:19210  _msgSenderERC721A() != owner */\n      0xffffffffffffffffffffffffffffffffffffffff\n      and\n        /* \"Newnft.sol\":19182:19201  _msgSenderERC721A() */\n      tag_154\n        /* \"Newnft.sol\":19182:19199  _msgSenderERC721A */\n      tag_155\n        /* \"Newnft.sol\":19182:19201  _msgSenderERC721A() */\n      jump\t// in\n    tag_154:\n        /* \"Newnft.sol\":19182:19210  _msgSenderERC721A() != owner */\n      0xffffffffffffffffffffffffffffffffffffffff\n      and\n      eq\n        /* \"Newnft.sol\":19178:19350  if (_msgSenderERC721A() != owner)... */\n      tag_156\n      jumpi\n        /* \"Newnft.sol\":19229:19273  isApprovedForAll(owner, _msgSenderERC721A()) */\n      tag_157\n        /* \"Newnft.sol\":19246:19251  owner */\n      dup2\n        /* \"Newnft.sol\":19253:19272  _msgSenderERC721A() */\n      tag_158\n        /* \"Newnft.sol\":19253:19270  _msgSenderERC721A */\n      tag_155\n        /* \"Newnft.sol\":19253:19272  _msgSenderERC721A() */\n      jump\t// in\n    tag_158:\n        /* \"Newnft.sol\":19229:19245  isApprovedForAll */\n      tag_136\n        /* \"Newnft.sol\":19229:19273  isApprovedForAll(owner, _msgSenderERC721A()) */\n      jump\t// in\n    tag_157:\n        /* \"Newnft.sol\":19224:19350  if (!isApprovedForAll(owner, _msgSenderERC721A())) {... */\n      tag_159\n      jumpi\n        /* \"Newnft.sol\":19300:19335  ApprovalCallerNotOwnerNorApproved() */\n      mload(0x40)\n      0xcfb3b94200000000000000000000000000000000000000000000000000000000\n      dup2\n      mstore\n      0x04\n      add\n      mload(0x40)\n      dup1\n      swap2\n      sub\n      swap1\n      revert\n        /* \"Newnft.sol\":19224:19350  if (!isApprovedForAll(owner, _msgSenderERC721A())) {... */\n    tag_159:\n        /* \"Newnft.sol\":19178:19350  if (_msgSenderERC721A() != owner)... */\n    tag_156:\n        /* \"Newnft.sol\":19387:19389  to */\n      dup3\n        /* \"Newnft.sol\":19360:19375  _tokenApprovals */\n      0x08\n        /* \"Newnft.sol\":19360:19384  _tokenApprovals[tokenId] */\n      0x00\n        /* \"Newnft.sol\":19376:19383  tokenId */\n      dup5\n        /* \"Newnft.sol\":19360:19384  _tokenApprovals[tokenId] */\n      dup2\n      mstore\n      0x20\n      add\n      swap1\n      dup2\n      mstore\n      0x20\n      add\n      0x00\n      keccak256\n      0x00\n        /* \"Newnft.sol\":19360:19389  _tokenApprovals[tokenId] = to */\n      0x0100\n      exp\n      dup2\n      sload\n      dup2\n      0xffffffffffffffffffffffffffffffffffffffff\n      mul\n      not\n      and\n      swap1\n      dup4\n      0xffffffffffffffffffffffffffffffffffffffff\n      and\n      mul\n      or\n      swap1\n      sstore\n      pop\n        /* \"Newnft.sol\":19424:19431  tokenId */\n      dup2\n        /* \"Newnft.sol\":19420:19422  to */\n      dup4\n        /* \"Newnft.sol\":19404:19432  Approval(owner, to, tokenId) */\n      0xffffffffffffffffffffffffffffffffffffffff\n      and\n        /* \"Newnft.sol\":19413:19418  owner */\n      dup3\n        /* \"Newnft.sol\":19404:19432  Approval(owner, to, tokenId) */\n      0xffffffffffffffffffffffffffffffffffffffff\n      and\n      0x8c5be1e5ebec7d5bd14f71427d1e84f3dd0314c0f7b2291e5b200ac8c7c3b925\n      mload(0x40)\n      mload(0x40)\n      dup1\n      swap2\n      sub\n      swap1\n      log4\n        /* \"Newnft.sol\":19061:19439  {... */\n      pop\n        /* \"Newnft.sol\":18999:19439  function approve(address to, uint256 tokenId) public override {... */\n      pop\n      pop\n      jump\t// out\n        /* \"Newnft.sol\":12243:12455  function setConfig(uint256 _MAX_FREE_PER_WALLET, uint256 _COST, uint256 _MAX_FREE) external onlyOwner{... */\n    tag_57:\n        /* \"Newnft.sol\":8932:8942  msg.sender */\n      caller\n        /* \"Newnft.sol\":8924:8942  _owner==msg.sender */\n      0xffffffffffffffffffffffffffffffffffffffff\n      and\n        /* \"Newnft.sol\":8924:8930  _owner */\n      0x00\n      dup1\n      sload\n      swap1\n      0x0100\n      exp\n      swap1\n      div\n      0xffffffffffffffffffffffffffffffffffffffff\n      and\n        /* \"Newnft.sol\":8924:8942  _owner==msg.sender */\n      0xffffffffffffffffffffffffffffffffffffffff\n      and\n      eq\n        /* \"Newnft.sol\":8916:8943  require(_owner==msg.sender) */\n      tag_161\n      jumpi\n      0x00\n      dup1\n      revert\n    tag_161:\n        /* \"Newnft.sol\":12376:12396  _MAX_FREE_PER_WALLET */\n      dup3\n        /* \"Newnft.sol\":12354:12373  MAX_FREE_PER_WALLET */\n      0x02\n        /* \"Newnft.sol\":12354:12396  MAX_FREE_PER_WALLET = _MAX_FREE_PER_WALLET */\n      dup2\n      swap1\n      sstore\n      pop\n        /* \"Newnft.sol\":12413:12418  _COST */\n      dup2\n        /* \"Newnft.sol\":12406:12410  COST */\n      0x03\n        /* \"Newnft.sol\":12406:12418  COST = _COST */\n      dup2\n      swap1\n      sstore\n      pop\n        /* \"Newnft.sol\":12439:12448  _MAX_FREE */\n      dup1\n        /* \"Newnft.sol\":12428:12436  MAX_FREE */\n      0x01\n        /* \"Newnft.sol\":12428:12448  MAX_FREE = _MAX_FREE */\n      dup2\n      swap1\n      sstore\n      pop\n        /* \"Newnft.sol\":12243:12455  function setConfig(uint256 _MAX_FREE_PER_WALLET, uint256 _COST, uint256 _MAX_FREE) external onlyOwner{... */\n      pop\n      pop\n      pop\n      jump\t// out\n        /* \"Newnft.sol\":13053:13347  function totalSupply() public view override returns (uint256) {... */\n    tag_60:\n        /* \"Newnft.sol\":13106:13113  uint256 */\n      0x00\n        /* \"Newnft.sol\":13315:13330  _startTokenId() */\n      tag_164\n        /* \"Newnft.sol\":13315:13328  _startTokenId */\n      tag_165\n        /* \"Newnft.sol\":13315:13330  _startTokenId() */\n      jump\t// in\n    tag_164:\n        /* \"Newnft.sol\":13299:13312  _currentIndex */\n      sload(0x05)\n        /* \"Newnft.sol\":13299:13330  _currentIndex - _startTokenId() */\n      sub\n        /* \"Newnft.sol\":13292:13330  return _currentIndex - _startTokenId() */\n      swap1\n      pop\n        /* \"Newnft.sol\":13053:13347  function totalSupply() public view override returns (uint256) {... */\n      swap1\n      jump\t// out\n        /* \"Newnft.sol\":20360:20544  function transferFrom(... */\n    tag_67:\n        /* \"Newnft.sol\":20509:20537  _transfer(from, to, tokenId) */\n      tag_167\n        /* \"Newnft.sol\":20519:20523  from */\n      dup4\n        /* \"Newnft.sol\":20525:20527  to */\n      dup4\n        /* \"Newnft.sol\":20529:20536  tokenId */\n      dup4\n        /* \"Newnft.sol\":20509:20518  _transfer */\n      tag_168\n        /* \"Newnft.sol\":20509:20537  _transfer(from, to, tokenId) */\n      jump\t// in\n    tag_167:\n        /* \"Newnft.sol\":20360:20544  function transferFrom(... */\n      pop\n      pop\n      pop\n      jump\t// out\n        /* \"Newnft.sol\":8968:9008  uint256 public constant MAX_SUPPLY = 970 */\n    tag_70:\n        /* \"Newnft.sol\":9005:9008  970 */\n      0x03ca\n        /* \"Newnft.sol\":8968:9008  uint256 public constant MAX_SUPPLY = 970 */\n      dup2\n      jump\t// out\n        /* \"Newnft.sol\":29119:29261  function withdraw() external onlyOwner {... */\n    tag_74:\n        /* \"Newnft.sol\":8932:8942  msg.sender */\n      caller\n        /* \"Newnft.sol\":8924:8942  _owner==msg.sender */\n      0xffffffffffffffffffffffffffffffffffffffff\n      and\n        /* \"Newnft.sol\":8924:8930  _owner */\n      0x00\n      dup1\n      sload\n      swap1\n      0x0100\n      exp\n      swap1\n      div\n      0xffffffffffffffffffffffffffffffffffffffff\n      and\n        /* \"Newnft.sol\":8924:8942  _owner==msg.sender */\n      0xffffffffffffffffffffffffffffffffffffffff\n      and\n      eq\n        /* \"Newnft.sol\":8916:8943  require(_owner==msg.sender) */\n      tag_170\n      jumpi\n      0x00\n      dup1\n      revert\n    tag_170:\n        /* \"Newnft.sol\":29168:29183  uint256 balance */\n      0x00\n        /* \"Newnft.sol\":29186:29207  address(this).balance */\n      selfbalance\n        /* \"Newnft.sol\":29168:29207  uint256 balance = address(this).balance */\n      swap1\n      pop\n        /* \"Newnft.sol\":29225:29235  msg.sender */\n      caller\n        /* \"Newnft.sol\":29217:29245  payable(msg.sender).transfer */\n      0xffffffffffffffffffffffffffffffffffffffff\n      and\n        /* \"Newnft.sol\":29217:29254  payable(msg.sender).transfer(balance) */\n      0x08fc\n        /* \"Newnft.sol\":29246:29253  balance */\n      dup3\n        /* \"Newnft.sol\":29217:29254  payable(msg.sender).transfer(balance) */\n      swap1\n      dup2\n      iszero\n      mul\n      swap1\n      mload(0x40)\n      0x00\n      mload(0x40)\n      dup1\n      dup4\n      sub\n      dup2\n      dup6\n      dup9\n      dup9\n      call\n      swap4\n      pop\n      pop\n      pop\n      pop\n      iszero\n      dup1\n      iszero\n      tag_173\n      jumpi\n      returndatasize\n      0x00\n      dup1\n      returndatacopy\n      revert(0x00, returndatasize)\n    tag_173:\n      pop\n        /* \"Newnft.sol\":29158:29261  {... */\n      pop\n        /* \"Newnft.sol\":29119:29261  function withdraw() external onlyOwner {... */\n      jump\t// out\n        /* \"Newnft.sol\":20610:20809  function safeTransferFrom(... */\n    tag_78:\n        /* \"Newnft.sol\":20763:20802  safeTransferFrom(from, to, tokenId, '') */\n      tag_175\n        /* \"Newnft.sol\":20780:20784  from */\n      dup4\n        /* \"Newnft.sol\":20786:20788  to */\n      dup4\n        /* \"Newnft.sol\":20790:20797  tokenId */\n      dup4\n        /* \"Newnft.sol\":20763:20802  safeTransferFrom(from, to, tokenId, '') */\n      mload(0x40)\n      dup1\n      0x20\n      add\n      0x40\n      mstore\n      dup1\n      0x00\n      dup2\n      mstore\n      pop\n        /* \"Newnft.sol\":20763:20779  safeTransferFrom */\n      tag_122\n        /* \"Newnft.sol\":20763:20802  safeTransferFrom(from, to, tokenId, '') */\n      jump\t// in\n    tag_175:\n        /* \"Newnft.sol\":20610:20809  function safeTransferFrom(... */\n      pop\n      pop\n      pop\n      jump\t// out\n        /* \"Newnft.sol\":12148:12237  function setData(string memory _base) external onlyOwner{... */\n    tag_83:\n        /* \"Newnft.sol\":8932:8942  msg.sender */\n      caller\n        /* \"Newnft.sol\":8924:8942  _owner==msg.sender */\n      0xffffffffffffffffffffffffffffffffffffffff\n      and\n        /* \"Newnft.sol\":8924:8930  _owner */\n      0x00\n      dup1\n      sload\n      swap1\n      0x0100\n      exp\n      swap1\n      div\n      0xffffffffffffffffffffffffffffffffffffffff\n      and\n        /* \"Newnft.sol\":8924:8942  _owner==msg.sender */\n      0xffffffffffffffffffffffffffffffffffffffff\n      and\n      eq\n        /* \"Newnft.sol\":8916:8943  require(_owner==msg.sender) */\n      tag_177\n      jumpi\n      0x00\n      dup1\n      revert\n    tag_177:\n        /* \"Newnft.sol\":12225:12230  _base */\n      dup1\n        /* \"Newnft.sol\":12214:12222  _baseURI */\n      0x04\n        /* \"Newnft.sol\":12214:12230  _baseURI = _base */\n      swap1\n      dup2\n      tag_179\n      swap2\n      swap1\n      tag_180\n      jump\t// in\n    tag_179:\n      pop\n        /* \"Newnft.sol\":12148:12237  function setData(string memory _base) external onlyOwner{... */\n      pop\n      jump\t// out\n        /* \"Newnft.sol\":9643:9951  function freeMint() external{... */\n    tag_86:\n        /* \"Newnft.sol\":9681:9696  address _caller */\n      0x00\n        /* \"Newnft.sol\":9699:9718  _msgSenderERC721A() */\n      tag_182\n        /* \"Newnft.sol\":9699:9716  _msgSenderERC721A */\n      tag_155\n        /* \"Newnft.sol\":9699:9718  _msgSenderERC721A() */\n      jump\t// in\n    tag_182:\n        /* \"Newnft.sol\":9681:9718  address _caller = _msgSenderERC721A() */\n      swap1\n      pop\n        /* \"Newnft.sol\":9728:9742  uint256 amount */\n      0x00\n        /* \"Newnft.sol\":9745:9746  1 */\n      0x01\n        /* \"Newnft.sol\":9728:9746  uint256 amount = 1 */\n      swap1\n      pop\n        /* \"Newnft.sol\":9791:9799  MAX_FREE */\n      sload(0x01)\n        /* \"Newnft.sol\":9781:9787  amount */\n      dup2\n        /* \"Newnft.sol\":9765:9778  totalSupply() */\n      tag_183\n        /* \"Newnft.sol\":9765:9776  totalSupply */\n      tag_60\n        /* \"Newnft.sol\":9765:9778  totalSupply() */\n      jump\t// in\n    tag_183:\n        /* \"Newnft.sol\":9765:9787  totalSupply() + amount */\n      tag_184\n      swap2\n      swap1\n      tag_185\n      jump\t// in\n    tag_184:\n        /* \"Newnft.sol\":9765:9799  totalSupply() + amount <= MAX_FREE */\n      gt\n      iszero\n        /* \"Newnft.sol\":9757:9820  require(totalSupply() + amount <= MAX_FREE, \"Freemint SoldOut\") */\n      tag_186\n      jumpi\n      mload(0x40)\n      0x08c379a000000000000000000000000000000000000000000000000000000000\n      dup2\n      mstore\n      0x04\n      add\n      tag_187\n      swap1\n      tag_188\n      jump\t// in\n    tag_187:\n      mload(0x40)\n      dup1\n      swap2\n      sub\n      swap1\n      revert\n    tag_186:\n        /* \"Newnft.sol\":9873:9892  MAX_FREE_PER_WALLET */\n      sload(0x02)\n        /* \"Newnft.sol\":9847:9869  _numberMinted(_caller) */\n      tag_189\n        /* \"Newnft.sol\":9861:9868  _caller */\n      dup4\n        /* \"Newnft.sol\":9847:9860  _numberMinted */\n      tag_190\n        /* \"Newnft.sol\":9847:9869  _numberMinted(_caller) */\n      jump\t// in\n    tag_189:\n        /* \"Newnft.sol\":9838:9844  amount */\n      dup3\n        /* \"Newnft.sol\":9838:9869  amount + _numberMinted(_caller) */\n      tag_191\n      swap2\n      swap1\n      tag_185\n      jump\t// in\n    tag_191:\n        /* \"Newnft.sol\":9838:9892  amount + _numberMinted(_caller) <= MAX_FREE_PER_WALLET */\n      gt\n      iszero\n        /* \"Newnft.sol\":9830:9911  require(amount + _numberMinted(_caller) <= MAX_FREE_PER_WALLET, \"Max per Wallet\") */\n      tag_192\n      jumpi\n      mload(0x40)\n      0x08c379a000000000000000000000000000000000000000000000000000000000\n      dup2\n      mstore\n      0x04\n      add\n      tag_193\n      swap1\n      tag_194\n      jump\t// in\n    tag_193:\n      mload(0x40)\n      dup1\n      swap2\n      sub\n      swap1\n      revert\n    tag_192:\n        /* \"Newnft.sol\":9922:9944  _mint(_caller, amount) */\n      tag_195\n        /* \"Newnft.sol\":9928:9935  _caller */\n      dup3\n        /* \"Newnft.sol\":9937:9943  amount */\n      dup3\n        /* \"Newnft.sol\":9922:9927  _mint */\n      tag_196\n        /* \"Newnft.sol\":9922:9944  _mint(_caller, amount) */\n      jump\t// in\n    tag_195:\n        /* \"Newnft.sol\":9671:9951  {... */\n      pop\n      pop\n        /* \"Newnft.sol\":9643:9951  function freeMint() external{... */\n      jump\t// out\n        /* \"Newnft.sol\":17684:17826  function ownerOf(uint256 tokenId) public view override returns (address) {... */\n    tag_90:\n        /* \"Newnft.sol\":17748:17755  address */\n      0x00\n        /* \"Newnft.sol\":17790:17817  _packedOwnershipOf(tokenId) */\n      tag_198\n        /* \"Newnft.sol\":17809:17816  tokenId */\n      dup3\n        /* \"Newnft.sol\":17790:17808  _packedOwnershipOf */\n      tag_152\n        /* \"Newnft.sol\":17790:17817  _packedOwnershipOf(tokenId) */\n      jump\t// in\n    tag_198:\n        /* \"Newnft.sol\":17767:17819  return address(uint160(_packedOwnershipOf(tokenId))) */\n      swap1\n      pop\n        /* \"Newnft.sol\":17684:17826  function ownerOf(uint256 tokenId) public view override returns (address) {... */\n      swap2\n      swap1\n      pop\n      jump\t// out\n        /* \"Newnft.sol\":14453:14684  function balanceOf(address owner) public view override returns (uint256) {... */\n    tag_96:\n        /* \"Newnft.sol\":14517:14524  uint256 */\n      0x00\n        /* \"Newnft.sol\":14568:14569  0 */\n      dup1\n        /* \"Newnft.sol\":14540:14564  _addressToUint256(owner) */\n      tag_200\n        /* \"Newnft.sol\":14558:14563  owner */\n      dup4\n        /* \"Newnft.sol\":14540:14557  _addressToUint256 */\n      tag_201\n        /* \"Newnft.sol\":14540:14564  _addressToUint256(owner) */\n      jump\t// in\n    tag_200:\n        /* \"Newnft.sol\":14540:14569  _addressToUint256(owner) == 0 */\n      sub\n        /* \"Newnft.sol\":14536:14606  if (_addressToUint256(owner) == 0) revert BalanceQueryForZeroAddress() */\n      tag_202\n      jumpi\n        /* \"Newnft.sol\":14578:14606  BalanceQueryForZeroAddress() */\n      mload(0x40)\n      0x8f4eb60400000000000000000000000000000000000000000000000000000000\n      dup2\n      mstore\n      0x04\n      add\n      mload(0x40)\n      dup1\n      swap2\n      sub\n      swap1\n      revert\n        /* \"Newnft.sol\":14536:14606  if (_addressToUint256(owner) == 0) revert BalanceQueryForZeroAddress() */\n    tag_202:\n        /* \"Newnft.sol\":10059:10072  (1 << 64) - 1 */\n      0xffffffffffffffff\n        /* \"Newnft.sol\":14623:14641  _packedAddressData */\n      0x07\n        /* \"Newnft.sol\":14623:14648  _packedAddressData[owner] */\n      0x00\n        /* \"Newnft.sol\":14642:14647  owner */\n      dup5\n        /* \"Newnft.sol\":14623:14648  _packedAddressData[owner] */\n      0xffffffffffffffffffffffffffffffffffffffff\n      and\n      0xffffffffffffffffffffffffffffffffffffffff\n      and\n      dup2\n      mstore\n      0x20\n      add\n      swap1\n      dup2\n      mstore\n      0x20\n      add\n      0x00\n      keccak256\n      sload\n        /* \"Newnft.sol\":14623:14677  _packedAddressData[owner] & BITMASK_ADDRESS_DATA_ENTRY */\n      and\n        /* \"Newnft.sol\":14616:14677  return _packedAddressData[owner] & BITMASK_ADDRESS_DATA_ENTRY */\n      swap1\n      pop\n        /* \"Newnft.sol\":14453:14684  function balanceOf(address owner) public view override returns (uint256) {... */\n      swap2\n      swap1\n      pop\n      jump\t// out\n        /* \"Newnft.sol\":8803:8878  function owner() public view returns(address){... */\n    tag_100:\n        /* \"Newnft.sol\":8840:8847  address */\n      0x00\n        /* \"Newnft.sol\":8865:8871  _owner */\n      dup1\n      0x00\n      swap1\n      sload\n      swap1\n      0x0100\n      exp\n      swap1\n      div\n      0xffffffffffffffffffffffffffffffffffffffff\n      and\n        /* \"Newnft.sol\":8858:8871  return _owner */\n      swap1\n      pop\n        /* \"Newnft.sol\":8803:8878  function owner() public view returns(address){... */\n      swap1\n      jump\t// out\n        /* \"Newnft.sol\":18050:18152  function symbol() public view virtual override returns (string memory) {... */\n    tag_104:\n        /* \"Newnft.sol\":18106:18119  string memory */\n      0x60\n        /* \"Newnft.sol\":18138:18145  _symbol */\n      mload(0x40)\n      dup1\n      0x40\n      add\n      0x40\n      mstore\n      dup1\n      0x0b\n      dup2\n      mstore\n      0x20\n      add\n      0x415045554e534841564544000000000000000000000000000000000000000000\n      dup2\n      mstore\n      pop\n        /* \"Newnft.sol\":18131:18145  return _symbol */\n      swap1\n      pop\n        /* \"Newnft.sol\":18050:18152  function symbol() public view virtual override returns (string memory) {... */\n      swap1\n      jump\t// out\n        /* \"Newnft.sol\":9049:9087  uint256 public MAX_FREE_PER_WALLET = 1 */\n    tag_108:\n      sload(0x02)\n      dup2\n      jump\t// out\n        /* \"Newnft.sol\":9376:9637  function mint(uint256 amount) external payable{... */\n    tag_112:\n        /* \"Newnft.sol\":9432:9447  address _caller */\n      0x00\n        /* \"Newnft.sol\":9450:9469  _msgSenderERC721A() */\n      tag_206\n        /* \"Newnft.sol\":9450:9467  _msgSenderERC721A */\n      tag_155\n        /* \"Newnft.sol\":9450:9469  _msgSenderERC721A() */\n      jump\t// in\n    tag_206:\n        /* \"Newnft.sol\":9432:9469  address _caller = _msgSenderERC721A() */\n      swap1\n      pop\n        /* \"Newnft.sol\":9005:9008  970 */\n      0x03ca\n        /* \"Newnft.sol\":9504:9510  amount */\n      dup3\n        /* \"Newnft.sol\":9488:9501  totalSupply() */\n      tag_207\n        /* \"Newnft.sol\":9488:9499  totalSupply */\n      tag_60\n        /* \"Newnft.sol\":9488:9501  totalSupply() */\n      jump\t// in\n    tag_207:\n        /* \"Newnft.sol\":9488:9510  totalSupply() + amount */\n      tag_208\n      swap2\n      swap1\n      tag_185\n      jump\t// in\n    tag_208:\n        /* \"Newnft.sol\":9488:9524  totalSupply() + amount <= MAX_SUPPLY */\n      gt\n      iszero\n        /* \"Newnft.sol\":9480:9536  require(totalSupply() + amount <= MAX_SUPPLY, \"SoldOut\") */\n      tag_209\n      jumpi\n      mload(0x40)\n      0x08c379a000000000000000000000000000000000000000000000000000000000\n      dup2\n      mstore\n      0x04\n      add\n      tag_210\n      swap1\n      tag_211\n      jump\t// in\n    tag_210:\n      mload(0x40)\n      dup1\n      swap2\n      sub\n      swap1\n      revert\n    tag_209:\n        /* \"Newnft.sol\":9608:9630  _mint(_caller, amount) */\n      tag_212\n        /* \"Newnft.sol\":9614:9621  _caller */\n      dup2\n        /* \"Newnft.sol\":9623:9629  amount */\n      dup4\n        /* \"Newnft.sol\":9608:9613  _mint */\n      tag_196\n        /* \"Newnft.sol\":9608:9630  _mint(_caller, amount) */\n      jump\t// in\n    tag_212:\n        /* \"Newnft.sol\":9422:9637  {... */\n      pop\n        /* \"Newnft.sol\":9376:9637  function mint(uint256 amount) external payable{... */\n      pop\n      jump\t// out\n        /* \"Newnft.sol\":19767:20070  function setApprovalForAll(address operator, bool approved) public virtual override {... */\n    tag_117:\n        /* \"Newnft.sol\":19877:19896  _msgSenderERC721A() */\n      tag_214\n        /* \"Newnft.sol\":19877:19894  _msgSenderERC721A */\n      tag_155\n        /* \"Newnft.sol\":19877:19896  _msgSenderERC721A() */\n      jump\t// in\n    tag_214:\n        /* \"Newnft.sol\":19865:19896  operator == _msgSenderERC721A() */\n      0xffffffffffffffffffffffffffffffffffffffff\n      and\n        /* \"Newnft.sol\":19865:19873  operator */\n      dup3\n        /* \"Newnft.sol\":19865:19896  operator == _msgSenderERC721A() */\n      0xffffffffffffffffffffffffffffffffffffffff\n      and\n      sub\n        /* \"Newnft.sol\":19861:19922  if (operator == _msgSenderERC721A()) revert ApproveToCaller() */\n      tag_215\n      jumpi\n        /* \"Newnft.sol\":19905:19922  ApproveToCaller() */\n      mload(0x40)\n      0xb06307db00000000000000000000000000000000000000000000000000000000\n      dup2\n      mstore\n      0x04\n      add\n      mload(0x40)\n      dup1\n      swap2\n      sub\n      swap1\n      revert\n        /* \"Newnft.sol\":19861:19922  if (operator == _msgSenderERC721A()) revert ApproveToCaller() */\n    tag_215:\n        /* \"Newnft.sol\":19985:19993  approved */\n      dup1\n        /* \"Newnft.sol\":19933:19951  _operatorApprovals */\n      0x09\n        /* \"Newnft.sol\":19933:19972  _operatorApprovals[_msgSenderERC721A()] */\n      0x00\n        /* \"Newnft.sol\":19952:19971  _msgSenderERC721A() */\n      tag_216\n        /* \"Newnft.sol\":19952:19969  _msgSenderERC721A */\n      tag_155\n        /* \"Newnft.sol\":19952:19971  _msgSenderERC721A() */\n      jump\t// in\n    tag_216:\n        /* \"Newnft.sol\":19933:19972  _operatorApprovals[_msgSenderERC721A()] */\n      0xffffffffffffffffffffffffffffffffffffffff\n      and\n      0xffffffffffffffffffffffffffffffffffffffff\n      and\n      dup2\n      mstore\n      0x20\n      add\n      swap1\n      dup2\n      mstore\n      0x20\n      add\n      0x00\n      keccak256\n        /* \"Newnft.sol\":19933:19982  _operatorApprovals[_msgSenderERC721A()][operator] */\n      0x00\n        /* \"Newnft.sol\":19973:19981  operator */\n      dup5\n        /* \"Newnft.sol\":19933:19982  _operatorApprovals[_msgSenderERC721A()][operator] */\n      0xffffffffffffffffffffffffffffffffffffffff\n      and\n      0xffffffffffffffffffffffffffffffffffffffff\n      and\n      dup2\n      mstore\n      0x20\n      add\n      swap1\n      dup2\n      mstore\n      0x20\n      add\n      0x00\n      keccak256\n      0x00\n        /* \"Newnft.sol\":19933:19993  _operatorApprovals[_msgSenderERC721A()][operator] = approved */\n      0x0100\n      exp\n      dup2\n      sload\n      dup2\n      0xff\n      mul\n      not\n      and\n      swap1\n      dup4\n      iszero\n      iszero\n      mul\n      or\n      swap1\n      sstore\n      pop\n        /* \"Newnft.sol\":20044:20052  operator */\n      dup2\n        /* \"Newnft.sol\":20008:20063  ApprovalForAll(_msgSenderERC721A(), operator, approved) */\n      0xffffffffffffffffffffffffffffffffffffffff\n      and\n        /* \"Newnft.sol\":20023:20042  _msgSenderERC721A() */\n      tag_217\n        /* \"Newnft.sol\":20023:20040  _msgSenderERC721A */\n      tag_155\n        /* \"Newnft.sol\":20023:20042  _msgSenderERC721A() */\n      jump\t// in\n    tag_217:\n        /* \"Newnft.sol\":20008:20063  ApprovalForAll(_msgSenderERC721A(), operator, approved) */\n      0xffffffffffffffffffffffffffffffffffffffff\n      and\n      0x17307eab39ab6107e8899845ad3d59bd9653f200f220920489ca2b5937696c31\n        /* \"Newnft.sol\":20054:20062  approved */\n      dup4\n        /* \"Newnft.sol\":20008:20063  ApprovalForAll(_msgSenderERC721A(), operator, approved) */\n      mload(0x40)\n      tag_218\n      swap2\n      swap1\n      tag_35\n      jump\t// in\n    tag_218:\n      mload(0x40)\n      dup1\n      swap2\n      sub\n      swap1\n      log3\n        /* \"Newnft.sol\":19767:20070  function setApprovalForAll(address operator, bool approved) public virtual override {... */\n      pop\n      pop\n      jump\t// out\n        /* \"Newnft.sol\":20875:21095  function safeTransferFrom(... */\n    tag_122:\n        /* \"Newnft.sol\":21060:21088  _transfer(from, to, tokenId) */\n      tag_220\n        /* \"Newnft.sol\":21070:21074  from */\n      dup5\n        /* \"Newnft.sol\":21076:21078  to */\n      dup5\n        /* \"Newnft.sol\":21080:21087  tokenId */\n      dup5\n        /* \"Newnft.sol\":21060:21069  _transfer */\n      tag_168\n        /* \"Newnft.sol\":21060:21088  _transfer(from, to, tokenId) */\n      jump\t// in\n    tag_220:\n        /* \"Newnft.sol\":20875:21095  function safeTransferFrom(... */\n      pop\n      pop\n      pop\n      pop\n      jump\t// out\n        /* \"Newnft.sol\":9093:9126  uint256 public COST = 0.001 ether */\n    tag_125:\n      sload(0x03)\n      dup2\n      jump\t// out\n        /* \"Newnft.sol\":18163:18498  function tokenURI(uint256 tokenId) public view virtual override returns (string memory) {... */\n    tag_130:\n        /* \"Newnft.sol\":18236:18249  string memory */\n      0x60\n        /* \"Newnft.sol\":18266:18282  _exists(tokenId) */\n      tag_222\n        /* \"Newnft.sol\":18274:18281  tokenId */\n      dup3\n        /* \"Newnft.sol\":18266:18273  _exists */\n      tag_148\n        /* \"Newnft.sol\":18266:18282  _exists(tokenId) */\n      jump\t// in\n    tag_222:\n        /* \"Newnft.sol\":18261:18320  if (!_exists(tokenId)) revert URIQueryForNonexistentToken() */\n      tag_223\n      jumpi\n        /* \"Newnft.sol\":18291:18320  URIQueryForNonexistentToken() */\n      mload(0x40)\n      0xa14c4b5000000000000000000000000000000000000000000000000000000000\n      dup2\n      mstore\n      0x04\n      add\n      mload(0x40)\n      dup1\n      swap2\n      sub\n      swap1\n      revert\n        /* \"Newnft.sol\":18261:18320  if (!_exists(tokenId)) revert URIQueryForNonexistentToken() */\n    tag_223:\n        /* \"Newnft.sol\":18330:18351  string memory baseURI */\n      0x00\n        /* \"Newnft.sol\":18354:18362  _baseURI */\n      0x04\n        /* \"Newnft.sol\":18330:18362  string memory baseURI = _baseURI */\n      dup1\n      sload\n      tag_224\n      swap1\n      tag_225\n      jump\t// in\n    tag_224:\n      dup1\n      0x1f\n      add\n      0x20\n      dup1\n      swap2\n      div\n      mul\n      0x20\n      add\n      mload(0x40)\n      swap1\n      dup2\n      add\n      0x40\n      mstore\n      dup1\n      swap3\n      swap2\n      swap1\n      dup2\n      dup2\n      mstore\n      0x20\n      add\n      dup3\n      dup1\n      sload\n      tag_226\n      swap1\n      tag_225\n      jump\t// in\n    tag_226:\n      dup1\n      iszero\n      tag_227\n      jumpi\n      dup1\n      0x1f\n      lt\n      tag_228\n      jumpi\n      0x0100\n      dup1\n      dup4\n      sload\n      div\n      mul\n      dup4\n      mstore\n      swap2\n      0x20\n      add\n      swap2\n      jump(tag_227)\n    tag_228:\n      dup3\n      add\n      swap2\n      swap1\n      0x00\n      mstore\n      keccak256(0x00, 0x20)\n      swap1\n    tag_229:\n      dup2\n      sload\n      dup2\n      mstore\n      swap1\n      0x01\n      add\n      swap1\n      0x20\n      add\n      dup1\n      dup4\n      gt\n      tag_229\n      jumpi\n      dup3\n      swap1\n      sub\n      0x1f\n      and\n      dup3\n      add\n      swap2\n    tag_227:\n      pop\n      pop\n      pop\n      pop\n      pop\n      swap1\n      pop\n        /* \"Newnft.sol\":18404:18405  0 */\n      0x00\n        /* \"Newnft.sol\":18385:18392  baseURI */\n      dup2\n        /* \"Newnft.sol\":18379:18400  bytes(baseURI).length */\n      mload\n        /* \"Newnft.sol\":18379:18405  bytes(baseURI).length != 0 */\n      sub\n        /* \"Newnft.sol\":18379:18491  bytes(baseURI).length != 0 ? string(abi.encodePacked(\"ipfs://\", baseURI, \"/\", _toString(tokenId), \".json\")) : \"\" */\n      tag_230\n      jumpi\n      mload(0x40)\n      dup1\n      0x20\n      add\n      0x40\n      mstore\n      dup1\n      0x00\n      dup2\n      mstore\n      pop\n      jump(tag_231)\n    tag_230:\n        /* \"Newnft.sol\":18443:18450  baseURI */\n      dup1\n        /* \"Newnft.sol\":18457:18475  _toString(tokenId) */\n      tag_232\n        /* \"Newnft.sol\":18467:18474  tokenId */\n      dup5\n        /* \"Newnft.sol\":18457:18466  _toString */\n      tag_233\n        /* \"Newnft.sol\":18457:18475  _toString(tokenId) */\n      jump\t// in\n    tag_232:\n        /* \"Newnft.sol\":18415:18485  abi.encodePacked(\"ipfs://\", baseURI, \"/\", _toString(tokenId), \".json\") */\n      add(0x20, mload(0x40))\n      tag_234\n      swap3\n      swap2\n      swap1\n      tag_235\n      jump\t// in\n    tag_234:\n      mload(0x40)\n      0x20\n      dup2\n      dup4\n      sub\n      sub\n      dup2\n      mstore\n      swap1\n      0x40\n      mstore\n        /* \"Newnft.sol\":18379:18491  bytes(baseURI).length != 0 ? string(abi.encodePacked(\"ipfs://\", baseURI, \"/\", _toString(tokenId), \".json\")) : \"\" */\n    tag_231:\n        /* \"Newnft.sol\":18372:18491  return bytes(baseURI).length != 0 ? string(abi.encodePacked(\"ipfs://\", baseURI, \"/\", _toString(tokenId), \".json\")) : \"\" */\n      swap2\n      pop\n      pop\n        /* \"Newnft.sol\":18163:18498  function tokenURI(uint256 tokenId) public view virtual override returns (string memory) {... */\n      swap2\n      swap1\n      pop\n      jump\t// out\n        /* \"Newnft.sol\":20136:20298  function isApprovedForAll(address owner, address operator) public view virtual override returns (bool) {... */\n    tag_136:\n        /* \"Newnft.sol\":20233:20237  bool */\n      0x00\n        /* \"Newnft.sol\":20256:20274  _operatorApprovals */\n      0x09\n        /* \"Newnft.sol\":20256:20281  _operatorApprovals[owner] */\n      0x00\n        /* \"Newnft.sol\":20275:20280  owner */\n      dup5\n        /* \"Newnft.sol\":20256:20281  _operatorApprovals[owner] */\n      0xffffffffffffffffffffffffffffffffffffffff\n      and\n      0xffffffffffffffffffffffffffffffffffffffff\n      and\n      dup2\n      mstore\n      0x20\n      add\n      swap1\n      dup2\n      mstore\n      0x20\n      add\n      0x00\n      keccak256\n        /* \"Newnft.sol\":20256:20291  _operatorApprovals[owner][operator] */\n      0x00\n        /* \"Newnft.sol\":20282:20290  operator */\n      dup4\n        /* \"Newnft.sol\":20256:20291  _operatorApprovals[owner][operator] */\n      0xffffffffffffffffffffffffffffffffffffffff\n      and\n      0xffffffffffffffffffffffffffffffffffffffff\n      and\n      dup2\n      mstore\n      0x20\n      add\n      swap1\n      dup2\n      mstore\n      0x20\n      add\n      0x00\n      keccak256\n      0x00\n      swap1\n      sload\n      swap1\n      0x0100\n      exp\n      swap1\n      div\n      0xff\n      and\n        /* \"Newnft.sol\":20249:20291  return _operatorApprovals[owner][operator] */\n      swap1\n      pop\n        /* \"Newnft.sol\":20136:20298  function isApprovedForAll(address owner, address operator) public view virtual override returns (bool) {... */\n      swap3\n      swap2\n      pop\n      pop\n      jump\t// out\n        /* \"Newnft.sol\":9014:9043  uint256 public MAX_FREE = 666 */\n    tag_140:\n      sload(0x01)\n      dup2\n      jump\t// out\n        /* \"Newnft.sol\":21341:21505  function _exists(uint256 tokenId) internal view returns (bool) {... */\n    tag_148:\n        /* \"Newnft.sol\":21398:21402  bool */\n      0x00\n        /* \"Newnft.sol\":21452:21459  tokenId */\n      dup2\n        /* \"Newnft.sol\":21433:21448  _startTokenId() */\n      tag_238\n        /* \"Newnft.sol\":21433:21446  _startTokenId */\n      tag_165\n        /* \"Newnft.sol\":21433:21448  _startTokenId() */\n      jump\t// in\n    tag_238:\n        /* \"Newnft.sol\":21433:21459  _startTokenId() <= tokenId */\n      gt\n      iszero\n        /* \"Newnft.sol\":21433:21498  _startTokenId() <= tokenId &&... */\n      dup1\n      iszero\n      tag_239\n      jumpi\n      pop\n        /* \"Newnft.sol\":21485:21498  _currentIndex */\n      sload(0x05)\n        /* \"Newnft.sol\":21475:21482  tokenId */\n      dup3\n        /* \"Newnft.sol\":21475:21498  tokenId < _currentIndex */\n      lt\n        /* \"Newnft.sol\":21433:21498  _startTokenId() <= tokenId &&... */\n    tag_239:\n        /* \"Newnft.sol\":21414:21498  return... */\n      swap1\n      pop\n        /* \"Newnft.sol\":21341:21505  function _exists(uint256 tokenId) internal view returns (bool) {... */\n      swap2\n      swap1\n      pop\n      jump\t// out\n        /* \"Newnft.sol\":15261:16366  function _packedOwnershipOf(uint256 tokenId) private view returns (uint256) {... */\n    tag_152:\n        /* \"Newnft.sol\":15328:15335  uint256 */\n      0x00\n        /* \"Newnft.sol\":15347:15359  uint256 curr */\n      dup1\n        /* \"Newnft.sol\":15362:15369  tokenId */\n      dup3\n        /* \"Newnft.sol\":15347:15369  uint256 curr = tokenId */\n      swap1\n      pop\n        /* \"Newnft.sol\":15427:15431  curr */\n      dup1\n        /* \"Newnft.sol\":15408:15423  _startTokenId() */\n      tag_241\n        /* \"Newnft.sol\":15408:15421  _startTokenId */\n      tag_165\n        /* \"Newnft.sol\":15408:15423  _startTokenId() */\n      jump\t// in\n    tag_241:\n        /* \"Newnft.sol\":15408:15431  _startTokenId() <= curr */\n      gt\n        /* \"Newnft.sol\":15404:16302  if (_startTokenId() <= curr)... */\n      tag_242\n      jumpi\n        /* \"Newnft.sol\":15460:15473  _currentIndex */\n      sload(0x05)\n        /* \"Newnft.sol\":15453:15457  curr */\n      dup2\n        /* \"Newnft.sol\":15453:15473  curr < _currentIndex */\n      lt\n        /* \"Newnft.sol\":15449:16302  if (curr < _currentIndex) {... */\n      iszero\n      tag_243\n      jumpi\n        /* \"Newnft.sol\":15497:15511  uint256 packed */\n      0x00\n        /* \"Newnft.sol\":15514:15531  _packedOwnerships */\n      0x06\n        /* \"Newnft.sol\":15514:15537  _packedOwnerships[curr] */\n      0x00\n        /* \"Newnft.sol\":15532:15536  curr */\n      dup4\n        /* \"Newnft.sol\":15514:15537  _packedOwnerships[curr] */\n      dup2\n      mstore\n      0x20\n      add\n      swap1\n      dup2\n      mstore\n      0x20\n      add\n      0x00\n      keccak256\n      sload\n        /* \"Newnft.sol\":15497:15537  uint256 packed = _packedOwnerships[curr] */\n      swap1\n      pop\n        /* \"Newnft.sol\":15628:15629  0 */\n      0x00\n        /* \"Newnft.sol\":10811:10819  1 << 224 */\n      0x0100000000000000000000000000000000000000000000000000000000\n        /* \"Newnft.sol\":15601:15607  packed */\n      dup3\n        /* \"Newnft.sol\":15601:15624  packed & BITMASK_BURNED */\n      and\n        /* \"Newnft.sol\":15601:15629  packed & BITMASK_BURNED == 0 */\n      sub\n        /* \"Newnft.sol\":15597:16284  if (packed & BITMASK_BURNED == 0) {... */\n      tag_244\n      jumpi\n        /* \"Newnft.sol\":16112:16223  while (packed == 0) {... */\n    tag_245:\n        /* \"Newnft.sol\":16129:16130  0 */\n      0x00\n        /* \"Newnft.sol\":16119:16125  packed */\n      dup2\n        /* \"Newnft.sol\":16119:16130  packed == 0 */\n      sub\n        /* \"Newnft.sol\":16112:16223  while (packed == 0) {... */\n      tag_246\n      jumpi\n        /* \"Newnft.sol\":16171:16188  _packedOwnerships */\n      0x06\n        /* \"Newnft.sol\":16171:16196  _packedOwnerships[--curr] */\n      0x00\n        /* \"Newnft.sol\":16189:16195  --curr */\n      dup4\n      0x01\n      swap1\n      sub\n      swap4\n      pop\n      dup4\n        /* \"Newnft.sol\":16171:16196  _packedOwnerships[--curr] */\n      dup2\n      mstore\n      0x20\n      add\n      swap1\n      dup2\n      mstore\n      0x20\n      add\n      0x00\n      keccak256\n      sload\n        /* \"Newnft.sol\":16162:16196  packed = _packedOwnerships[--curr] */\n      swap1\n      pop\n        /* \"Newnft.sol\":16112:16223  while (packed == 0) {... */\n      jump(tag_245)\n    tag_246:\n        /* \"Newnft.sol\":16255:16261  packed */\n      dup1\n        /* \"Newnft.sol\":16248:16261  return packed */\n      swap3\n      pop\n      pop\n      pop\n      jump(tag_240)\n        /* \"Newnft.sol\":15597:16284  if (packed & BITMASK_BURNED == 0) {... */\n    tag_244:\n        /* \"Newnft.sol\":15475:16302  {... */\n      pop\n        /* \"Newnft.sol\":15449:16302  if (curr < _currentIndex) {... */\n    tag_243:\n        /* \"Newnft.sol\":15404:16302  if (_startTokenId() <= curr)... */\n    tag_242:\n        /* \"Newnft.sol\":16328:16359  OwnerQueryForNonexistentToken() */\n      mload(0x40)\n      0xdf2d9b4200000000000000000000000000000000000000000000000000000000\n      dup2\n      mstore\n      0x04\n      add\n      mload(0x40)\n      dup1\n      swap2\n      sub\n      swap1\n      revert\n        /* \"Newnft.sol\":15261:16366  function _packedOwnershipOf(uint256 tokenId) private view returns (uint256) {... */\n    tag_240:\n      swap2\n      swap1\n      pop\n      jump\t// out\n        /* \"Newnft.sol\":27068:27171  function _msgSenderERC721A() internal view virtual returns (address) {... */\n    tag_155:\n        /* \"Newnft.sol\":27128:27135  address */\n      0x00\n        /* \"Newnft.sol\":27154:27164  msg.sender */\n      caller\n        /* \"Newnft.sol\":27147:27164  return msg.sender */\n      swap1\n      pop\n        /* \"Newnft.sol\":27068:27171  function _msgSenderERC721A() internal view virtual returns (address) {... */\n      swap1\n      jump\t// out\n        /* \"Newnft.sol\":12592:12682  function _startTokenId() internal view virtual returns (uint256) {... */\n    tag_165:\n        /* \"Newnft.sol\":12648:12655  uint256 */\n      0x00\n        /* \"Newnft.sol\":12592:12682  function _startTokenId() internal view virtual returns (uint256) {... */\n      swap1\n      jump\t// out\n        /* \"Newnft.sol\":23555:26063  function _transfer(... */\n    tag_168:\n        /* \"Newnft.sol\":23695:23722  uint256 prevOwnershipPacked */\n      0x00\n        /* \"Newnft.sol\":23725:23752  _packedOwnershipOf(tokenId) */\n      tag_250\n        /* \"Newnft.sol\":23744:23751  tokenId */\n      dup3\n        /* \"Newnft.sol\":23725:23743  _packedOwnershipOf */\n      tag_152\n        /* \"Newnft.sol\":23725:23752  _packedOwnershipOf(tokenId) */\n      jump\t// in\n    tag_250:\n        /* \"Newnft.sol\":23695:23752  uint256 prevOwnershipPacked = _packedOwnershipOf(tokenId) */\n      swap1\n      pop\n        /* \"Newnft.sol\":23808:23812  from */\n      dup4\n        /* \"Newnft.sol\":23767:23812  address(uint160(prevOwnershipPacked)) != from */\n      0xffffffffffffffffffffffffffffffffffffffff\n      and\n        /* \"Newnft.sol\":23783:23802  prevOwnershipPacked */\n      dup2\n        /* \"Newnft.sol\":23767:23812  address(uint160(prevOwnershipPacked)) != from */\n      0xffffffffffffffffffffffffffffffffffffffff\n      and\n      eq\n        /* \"Newnft.sol\":23763:23849  if (address(uint160(prevOwnershipPacked)) != from) revert TransferFromIncorrectOwner() */\n      tag_251\n      jumpi\n        /* \"Newnft.sol\":23821:23849  TransferFromIncorrectOwner() */\n      mload(0x40)\n      0xa114810000000000000000000000000000000000000000000000000000000000\n      dup2\n      mstore\n      0x04\n      add\n      mload(0x40)\n      dup1\n      swap2\n      sub\n      swap1\n      revert\n        /* \"Newnft.sol\":23763:23849  if (address(uint160(prevOwnershipPacked)) != from) revert TransferFromIncorrectOwner() */\n    tag_251:\n        /* \"Newnft.sol\":23860:23883  address approvedAddress */\n      0x00\n        /* \"Newnft.sol\":23886:23901  _tokenApprovals */\n      0x08\n        /* \"Newnft.sol\":23886:23910  _tokenApprovals[tokenId] */\n      0x00\n        /* \"Newnft.sol\":23902:23909  tokenId */\n      dup5\n        /* \"Newnft.sol\":23886:23910  _tokenApprovals[tokenId] */\n      dup2\n      mstore\n      0x20\n      add\n      swap1\n      dup2\n      mstore\n      0x20\n      add\n      0x00\n      keccak256\n      0x00\n      swap1\n      sload\n      swap1\n      0x0100\n      exp\n      swap1\n      div\n      0xffffffffffffffffffffffffffffffffffffffff\n      and\n        /* \"Newnft.sol\":23860:23910  address approvedAddress = _tokenApprovals[tokenId] */\n      swap1\n      pop\n        /* \"Newnft.sol\":23921:23943  bool isApprovedOrOwner */\n      0x00\n        /* \"Newnft.sol\":23970:23974  from */\n      dup6\n        /* \"Newnft.sol\":23947:23974  _msgSenderERC721A() == from */\n      0xffffffffffffffffffffffffffffffffffffffff\n      and\n        /* \"Newnft.sol\":23947:23966  _msgSenderERC721A() */\n      tag_252\n        /* \"Newnft.sol\":23947:23964  _msgSenderERC721A */\n      tag_155\n        /* \"Newnft.sol\":23947:23966  _msgSenderERC721A() */\n      jump\t// in\n    tag_252:\n        /* \"Newnft.sol\":23947:23974  _msgSenderERC721A() == from */\n      0xffffffffffffffffffffffffffffffffffffffff\n      and\n      eq\n        /* \"Newnft.sol\":23947:24037  _msgSenderERC721A() == from ||... */\n      dup1\n      tag_253\n      jumpi\n      pop\n        /* \"Newnft.sol\":23994:24037  isApprovedForAll(from, _msgSenderERC721A()) */\n      tag_254\n        /* \"Newnft.sol\":24011:24015  from */\n      dup7\n        /* \"Newnft.sol\":24017:24036  _msgSenderERC721A() */\n      tag_255\n        /* \"Newnft.sol\":24017:24034  _msgSenderERC721A */\n      tag_155\n        /* \"Newnft.sol\":24017:24036  _msgSenderERC721A() */\n      jump\t// in\n    tag_255:\n        /* \"Newnft.sol\":23994:24010  isApprovedForAll */\n      tag_136\n        /* \"Newnft.sol\":23994:24037  isApprovedForAll(from, _msgSenderERC721A()) */\n      jump\t// in\n    tag_254:\n        /* \"Newnft.sol\":23947:24037  _msgSenderERC721A() == from ||... */\n    tag_253:\n        /* \"Newnft.sol\":23947:24095  _msgSenderERC721A() == from ||... */\n      dup1\n      tag_256\n      jumpi\n      pop\n        /* \"Newnft.sol\":24076:24095  _msgSenderERC721A() */\n      tag_257\n        /* \"Newnft.sol\":24076:24093  _msgSenderERC721A */\n      tag_155\n        /* \"Newnft.sol\":24076:24095  _msgSenderERC721A() */\n      jump\t// in\n    tag_257:\n        /* \"Newnft.sol\":24057:24095  approvedAddress == _msgSenderERC721A() */\n      0xffffffffffffffffffffffffffffffffffffffff\n      and\n        /* \"Newnft.sol\":24057:24072  approvedAddress */\n      dup3\n        /* \"Newnft.sol\":24057:24095  approvedAddress == _msgSenderERC721A() */\n      0xffffffffffffffffffffffffffffffffffffffff\n      and\n      eq\n        /* \"Newnft.sol\":23947:24095  _msgSenderERC721A() == from ||... */\n    tag_256:\n        /* \"Newnft.sol\":23921:24096  bool isApprovedOrOwner = (_msgSenderERC721A() == from ||... */\n      swap1\n      pop\n        /* \"Newnft.sol\":24112:24129  isApprovedOrOwner */\n      dup1\n        /* \"Newnft.sol\":24107:24173  if (!isApprovedOrOwner) revert TransferCallerNotOwnerNorApproved() */\n      tag_258\n      jumpi\n        /* \"Newnft.sol\":24138:24173  TransferCallerNotOwnerNorApproved() */\n      mload(0x40)\n      0x59c896be00000000000000000000000000000000000000000000000000000000\n      dup2\n      mstore\n      0x04\n      add\n      mload(0x40)\n      dup1\n      swap2\n      sub\n      swap1\n      revert\n        /* \"Newnft.sol\":24107:24173  if (!isApprovedOrOwner) revert TransferCallerNotOwnerNorApproved() */\n    tag_258:\n        /* \"Newnft.sol\":24279:24280  0 */\n      0x00\n        /* \"Newnft.sol\":24241:24275  _addressToUint256(approvedAddress) */\n      tag_259\n        /* \"Newnft.sol\":24259:24274  approvedAddress */\n      dup4\n        /* \"Newnft.sol\":24241:24258  _addressToUint256 */\n      tag_201\n        /* \"Newnft.sol\":24241:24275  _addressToUint256(approvedAddress) */\n      jump\t// in\n    tag_259:\n        /* \"Newnft.sol\":24241:24280  _addressToUint256(approvedAddress) != 0 */\n      eq\n        /* \"Newnft.sol\":24237:24338  if (_addressToUint256(approvedAddress) != 0) {... */\n      tag_260\n      jumpi\n        /* \"Newnft.sol\":24303:24318  _tokenApprovals */\n      0x08\n        /* \"Newnft.sol\":24303:24327  _tokenApprovals[tokenId] */\n      0x00\n        /* \"Newnft.sol\":24319:24326  tokenId */\n      dup6\n        /* \"Newnft.sol\":24303:24327  _tokenApprovals[tokenId] */\n      dup2\n      mstore\n      0x20\n      add\n      swap1\n      dup2\n      mstore\n      0x20\n      add\n      0x00\n      keccak256\n      0x00\n        /* \"Newnft.sol\":24296:24327  delete _tokenApprovals[tokenId] */\n      0x0100\n      exp\n      dup2\n      sload\n      swap1\n      0xffffffffffffffffffffffffffffffffffffffff\n      mul\n      not\n      and\n      swap1\n      sstore\n        /* \"Newnft.sol\":24237:24338  if (_addressToUint256(approvedAddress) != 0) {... */\n    tag_260:\n        /* \"Newnft.sol\":24698:24716  _packedAddressData */\n      0x07\n        /* \"Newnft.sol\":24698:24722  _packedAddressData[from] */\n      0x00\n        /* \"Newnft.sol\":24717:24721  from */\n      dup8\n        /* \"Newnft.sol\":24698:24722  _packedAddressData[from] */\n      0xffffffffffffffffffffffffffffffffffffffff\n      and\n      0xffffffffffffffffffffffffffffffffffffffff\n      and\n      dup2\n      mstore\n      0x20\n      add\n      swap1\n      dup2\n      mstore\n      0x20\n      add\n      0x00\n      keccak256\n      0x00\n        /* \"Newnft.sol\":24696:24722  --_packedAddressData[from] */\n      dup2\n      sload\n      0x01\n      swap1\n      sub\n      swap2\n      swap1\n      pop\n      dup2\n      swap1\n      sstore\n      pop\n        /* \"Newnft.sol\":24766:24784  _packedAddressData */\n      0x07\n        /* \"Newnft.sol\":24766:24788  _packedAddressData[to] */\n      0x00\n        /* \"Newnft.sol\":24785:24787  to */\n      dup7\n        /* \"Newnft.sol\":24766:24788  _packedAddressData[to] */\n      0xffffffffffffffffffffffffffffffffffffffff\n      and\n      0xffffffffffffffffffffffffffffffffffffffff\n      and\n      dup2\n      mstore\n      0x20\n      add\n      swap1\n      dup2\n      mstore\n      0x20\n      add\n      0x00\n      keccak256\n      0x00\n        /* \"Newnft.sol\":24764:24788  ++_packedAddressData[to] */\n      dup2\n      sload\n      0x01\n      add\n      swap2\n      swap1\n      pop\n      dup2\n      swap1\n      sstore\n      pop\n        /* \"Newnft.sol\":11083:11091  1 << 225 */\n      0x0200000000000000000000000000000000000000000000000000000000\n        /* \"Newnft.sol\":10698:10701  160 */\n      0xa0\n        /* \"Newnft.sol\":25138:25153  block.timestamp */\n      timestamp\n        /* \"Newnft.sol\":25138:25179  block.timestamp << BITPOS_START_TIMESTAMP */\n      swap1\n      shl\n        /* \"Newnft.sol\":25097:25118  _addressToUint256(to) */\n      tag_261\n        /* \"Newnft.sol\":25115:25117  to */\n      dup8\n        /* \"Newnft.sol\":25097:25114  _addressToUint256 */\n      tag_201\n        /* \"Newnft.sol\":25097:25118  _addressToUint256(to) */\n      jump\t// in\n    tag_261:\n        /* \"Newnft.sol\":25097:25180  _addressToUint256(to) |... */\n      or\n        /* \"Newnft.sol\":25097:25223  _addressToUint256(to) |... */\n      or\n        /* \"Newnft.sol\":25052:25069  _packedOwnerships */\n      0x06\n        /* \"Newnft.sol\":25052:25078  _packedOwnerships[tokenId] */\n      0x00\n        /* \"Newnft.sol\":25070:25077  tokenId */\n      dup7\n        /* \"Newnft.sol\":25052:25078  _packedOwnerships[tokenId] */\n      dup2\n      mstore\n      0x20\n      add\n      swap1\n      dup2\n      mstore\n      0x20\n      add\n      0x00\n      keccak256\n        /* \"Newnft.sol\":25052:25223  _packedOwnerships[tokenId] =... */\n      dup2\n      swap1\n      sstore\n      pop\n        /* \"Newnft.sol\":25390:25391  0 */\n      0x00\n        /* \"Newnft.sol\":11083:11091  1 << 225 */\n      0x0200000000000000000000000000000000000000000000000000000000\n        /* \"Newnft.sol\":25340:25359  prevOwnershipPacked */\n      dup5\n        /* \"Newnft.sol\":25340:25386  prevOwnershipPacked & BITMASK_NEXT_INITIALIZED */\n      and\n        /* \"Newnft.sol\":25340:25391  prevOwnershipPacked & BITMASK_NEXT_INITIALIZED == 0 */\n      sub\n        /* \"Newnft.sol\":25336:25952  if (prevOwnershipPacked & BITMASK_NEXT_INITIALIZED == 0) {... */\n      tag_262\n      jumpi\n        /* \"Newnft.sol\":25411:25430  uint256 nextTokenId */\n      0x00\n        /* \"Newnft.sol\":25443:25444  1 */\n      0x01\n        /* \"Newnft.sol\":25433:25440  tokenId */\n      dup6\n        /* \"Newnft.sol\":25433:25444  tokenId + 1 */\n      add\n        /* \"Newnft.sol\":25411:25444  uint256 nextTokenId = tokenId + 1 */\n      swap1\n      pop\n        /* \"Newnft.sol\":25598:25599  0 */\n      0x00\n        /* \"Newnft.sol\":25564:25581  _packedOwnerships */\n      0x06\n        /* \"Newnft.sol\":25564:25594  _packedOwnerships[nextTokenId] */\n      0x00\n        /* \"Newnft.sol\":25582:25593  nextTokenId */\n      dup4\n        /* \"Newnft.sol\":25564:25594  _packedOwnerships[nextTokenId] */\n      dup2\n      mstore\n      0x20\n      add\n      swap1\n      dup2\n      mstore\n      0x20\n      add\n      0x00\n      keccak256\n      sload\n        /* \"Newnft.sol\":25564:25599  _packedOwnerships[nextTokenId] == 0 */\n      sub\n        /* \"Newnft.sol\":25560:25938  if (_packedOwnerships[nextTokenId] == 0) {... */\n      tag_263\n      jumpi\n        /* \"Newnft.sol\":25700:25713  _currentIndex */\n      sload(0x05)\n        /* \"Newnft.sol\":25685:25696  nextTokenId */\n      dup2\n        /* \"Newnft.sol\":25685:25713  nextTokenId != _currentIndex */\n      eq\n        /* \"Newnft.sol\":25681:25920  if (nextTokenId != _currentIndex) {... */\n      tag_264\n      jumpi\n        /* \"Newnft.sol\":25878:25897  prevOwnershipPacked */\n      dup4\n        /* \"Newnft.sol\":25845:25862  _packedOwnerships */\n      0x06\n        /* \"Newnft.sol\":25845:25875  _packedOwnerships[nextTokenId] */\n      0x00\n        /* \"Newnft.sol\":25863:25874  nextTokenId */\n      dup4\n        /* \"Newnft.sol\":25845:25875  _packedOwnerships[nextTokenId] */\n      dup2\n      mstore\n      0x20\n      add\n      swap1\n      dup2\n      mstore\n      0x20\n      add\n      0x00\n      keccak256\n        /* \"Newnft.sol\":25845:25897  _packedOwnerships[nextTokenId] = prevOwnershipPacked */\n      dup2\n      swap1\n      sstore\n      pop\n        /* \"Newnft.sol\":25681:25920  if (nextTokenId != _currentIndex) {... */\n    tag_264:\n        /* \"Newnft.sol\":25560:25938  if (_packedOwnerships[nextTokenId] == 0) {... */\n    tag_263:\n        /* \"Newnft.sol\":25393:25952  {... */\n      pop\n        /* \"Newnft.sol\":25336:25952  if (prevOwnershipPacked & BITMASK_NEXT_INITIALIZED == 0) {... */\n    tag_262:\n        /* \"Newnft.sol\":25996:26003  tokenId */\n      dup4\n        /* \"Newnft.sol\":25992:25994  to */\n      dup6\n        /* \"Newnft.sol\":25977:26004  Transfer(from, to, tokenId) */\n      0xffffffffffffffffffffffffffffffffffffffff\n      and\n        /* \"Newnft.sol\":25986:25990  from */\n      dup8\n        /* \"Newnft.sol\":25977:26004  Transfer(from, to, tokenId) */\n      0xffffffffffffffffffffffffffffffffffffffff\n      and\n      0xddf252ad1be2c89b69c2b068fc378daa952ba7f163c4a11628f55a4df523b3ef\n      mload(0x40)\n      mload(0x40)\n      dup1\n      swap2\n      sub\n      swap1\n      log4\n        /* \"Newnft.sol\":26014:26056  _afterTokenTransfers(from, to, tokenId, 1) */\n      tag_265\n        /* \"Newnft.sol\":26035:26039  from */\n      dup7\n        /* \"Newnft.sol\":26041:26043  to */\n      dup7\n        /* \"Newnft.sol\":26045:26052  tokenId */\n      dup7\n        /* \"Newnft.sol\":26054:26055  1 */\n      0x01\n        /* \"Newnft.sol\":26014:26034  _afterTokenTransfers */\n      tag_266\n        /* \"Newnft.sol\":26014:26056  _afterTokenTransfers(from, to, tokenId, 1) */\n      jump\t// in\n    tag_265:\n        /* \"Newnft.sol\":23684:26063  {... */\n      pop\n      pop\n      pop\n        /* \"Newnft.sol\":23555:26063  function _transfer(... */\n      pop\n      pop\n      pop\n      jump\t// out\n        /* \"Newnft.sol\":14761:14935  function _numberMinted(address owner) internal view returns (uint256) {... */\n    tag_190:\n        /* \"Newnft.sol\":14822:14829  uint256 */\n      0x00\n        /* \"Newnft.sol\":10059:10072  (1 << 64) - 1 */\n      0xffffffffffffffff\n        /* \"Newnft.sol\":10193:10195  64 */\n      0x40\n        /* \"Newnft.sol\":14849:14867  _packedAddressData */\n      0x07\n        /* \"Newnft.sol\":14849:14874  _packedAddressData[owner] */\n      0x00\n        /* \"Newnft.sol\":14868:14873  owner */\n      dup6\n        /* \"Newnft.sol\":14849:14874  _packedAddressData[owner] */\n      0xffffffffffffffffffffffffffffffffffffffff\n      and\n      0xffffffffffffffffffffffffffffffffffffffff\n      and\n      dup2\n      mstore\n      0x20\n      add\n      swap1\n      dup2\n      mstore\n      0x20\n      add\n      0x00\n      keccak256\n      sload\n        /* \"Newnft.sol\":14849:14898  _packedAddressData[owner] >> BITPOS_NUMBER_MINTED */\n      swap1\n      shr\n        /* \"Newnft.sol\":14848:14928  (_packedAddressData[owner] >> BITPOS_NUMBER_MINTED) & BITMASK_ADDRESS_DATA_ENTRY */\n      and\n        /* \"Newnft.sol\":14841:14928  return (_packedAddressData[owner] >> BITPOS_NUMBER_MINTED) & BITMASK_ADDRESS_DATA_ENTRY */\n      swap1\n      pop\n        /* \"Newnft.sol\":14761:14935  function _numberMinted(address owner) internal view returns (uint256) {... */\n      swap2\n      swap1\n      pop\n      jump\t// out\n        /* \"Newnft.sol\":21756:23313  function _mint(address to, uint256 quantity) internal {... */\n    tag_196:\n        /* \"Newnft.sol\":21820:21840  uint256 startTokenId */\n      0x00\n        /* \"Newnft.sol\":21843:21856  _currentIndex */\n      sload(0x05)\n        /* \"Newnft.sol\":21820:21856  uint256 startTokenId = _currentIndex */\n      swap1\n      pop\n        /* \"Newnft.sol\":21895:21896  0 */\n      0x00\n        /* \"Newnft.sol\":21870:21891  _addressToUint256(to) */\n      tag_269\n        /* \"Newnft.sol\":21888:21890  to */\n      dup5\n        /* \"Newnft.sol\":21870:21887  _addressToUint256 */\n      tag_201\n        /* \"Newnft.sol\":21870:21891  _addressToUint256(to) */\n      jump\t// in\n    tag_269:\n        /* \"Newnft.sol\":21870:21896  _addressToUint256(to) == 0 */\n      sub\n        /* \"Newnft.sol\":21866:21924  if (_addressToUint256(to) == 0) revert MintToZeroAddress() */\n      tag_270\n      jumpi\n        /* \"Newnft.sol\":21905:21924  MintToZeroAddress() */\n      mload(0x40)\n      0x2e07630000000000000000000000000000000000000000000000000000000000\n      dup2\n      mstore\n      0x04\n      add\n      mload(0x40)\n      dup1\n      swap2\n      sub\n      swap1\n      revert\n        /* \"Newnft.sol\":21866:21924  if (_addressToUint256(to) == 0) revert MintToZeroAddress() */\n    tag_270:\n        /* \"Newnft.sol\":21950:21951  0 */\n      0x00\n        /* \"Newnft.sol\":21938:21946  quantity */\n      dup3\n        /* \"Newnft.sol\":21938:21951  quantity == 0 */\n      sub\n        /* \"Newnft.sol\":21934:21978  if (quantity == 0) revert MintZeroQuantity() */\n      tag_271\n      jumpi\n        /* \"Newnft.sol\":21960:21978  MintZeroQuantity() */\n      mload(0x40)\n      0xb562e8dd00000000000000000000000000000000000000000000000000000000\n      dup2\n      mstore\n      0x04\n      add\n      mload(0x40)\n      dup1\n      swap2\n      sub\n      swap1\n      revert\n        /* \"Newnft.sol\":21934:21978  if (quantity == 0) revert MintZeroQuantity() */\n    tag_271:\n        /* \"Newnft.sol\":22511:22512  1 */\n      0x01\n        /* \"Newnft.sol\":10193:10195  64 */\n      0x40\n        /* \"Newnft.sol\":22482:22483  1 */\n      0x01\n        /* \"Newnft.sol\":22482:22507  1 << BITPOS_NUMBER_MINTED */\n      swap1\n      shl\n        /* \"Newnft.sol\":22481:22512  (1 << BITPOS_NUMBER_MINTED) | 1 */\n      or\n        /* \"Newnft.sol\":22469:22477  quantity */\n      dup3\n        /* \"Newnft.sol\":22469:22513  quantity * ((1 << BITPOS_NUMBER_MINTED) | 1) */\n      mul\n        /* \"Newnft.sol\":22443:22461  _packedAddressData */\n      0x07\n        /* \"Newnft.sol\":22443:22465  _packedAddressData[to] */\n      0x00\n        /* \"Newnft.sol\":22462:22464  to */\n      dup6\n        /* \"Newnft.sol\":22443:22465  _packedAddressData[to] */\n      0xffffffffffffffffffffffffffffffffffffffff\n      and\n      0xffffffffffffffffffffffffffffffffffffffff\n      and\n      dup2\n      mstore\n      0x20\n      add\n      swap1\n      dup2\n      mstore\n      0x20\n      add\n      0x00\n      keccak256\n      0x00\n        /* \"Newnft.sol\":22443:22513  _packedAddressData[to] += quantity * ((1 << BITPOS_NUMBER_MINTED) | 1) */\n      dup3\n      dup3\n      sload\n      add\n      swap3\n      pop\n      pop\n      dup2\n      swap1\n      sstore\n      pop\n        /* \"Newnft.sol\":10951:10954  225 */\n      0xe1\n        /* \"Newnft.sol\":22902:22931  _boolToUint256(quantity == 1) */\n      tag_272\n        /* \"Newnft.sol\":22929:22930  1 */\n      0x01\n        /* \"Newnft.sol\":22917:22925  quantity */\n      dup5\n        /* \"Newnft.sol\":22917:22930  quantity == 1 */\n      eq\n        /* \"Newnft.sol\":22902:22916  _boolToUint256 */\n      tag_273\n        /* \"Newnft.sol\":22902:22931  _boolToUint256(quantity == 1) */\n      jump\t// in\n    tag_272:\n        /* \"Newnft.sol\":22902:22958  _boolToUint256(quantity == 1) << BITPOS_NEXT_INITIALIZED */\n      swap1\n      shl\n        /* \"Newnft.sol\":10698:10701  160 */\n      0xa0\n        /* \"Newnft.sol\":22840:22855  block.timestamp */\n      timestamp\n        /* \"Newnft.sol\":22840:22881  block.timestamp << BITPOS_START_TIMESTAMP */\n      swap1\n      shl\n        /* \"Newnft.sol\":22799:22820  _addressToUint256(to) */\n      tag_274\n        /* \"Newnft.sol\":22817:22819  to */\n      dup6\n        /* \"Newnft.sol\":22799:22816  _addressToUint256 */\n      tag_201\n        /* \"Newnft.sol\":22799:22820  _addressToUint256(to) */\n      jump\t// in\n    tag_274:\n        /* \"Newnft.sol\":22799:22882  _addressToUint256(to) |... */\n      or\n        /* \"Newnft.sol\":22799:22959  _addressToUint256(to) |... */\n      or\n        /* \"Newnft.sol\":22749:22766  _packedOwnerships */\n      0x06\n        /* \"Newnft.sol\":22749:22780  _packedOwnerships[startTokenId] */\n      0x00\n        /* \"Newnft.sol\":22767:22779  startTokenId */\n      dup4\n        /* \"Newnft.sol\":22749:22780  _packedOwnerships[startTokenId] */\n      dup2\n      mstore\n      0x20\n      add\n      swap1\n      dup2\n      mstore\n      0x20\n      add\n      0x00\n      keccak256\n        /* \"Newnft.sol\":22749:22959  _packedOwnerships[startTokenId] =... */\n      dup2\n      swap1\n      sstore\n      pop\n        /* \"Newnft.sol\":22974:22994  uint256 updatedIndex */\n      0x00\n        /* \"Newnft.sol\":22997:23009  startTokenId */\n      dup2\n        /* \"Newnft.sol\":22974:23009  uint256 updatedIndex = startTokenId */\n      swap1\n      pop\n        /* \"Newnft.sol\":23023:23034  uint256 end */\n      0x00\n        /* \"Newnft.sol\":23052:23060  quantity */\n      dup4\n        /* \"Newnft.sol\":23037:23049  updatedIndex */\n      dup3\n        /* \"Newnft.sol\":23037:23060  updatedIndex + quantity */\n      add\n        /* \"Newnft.sol\":23023:23060  uint256 end = updatedIndex + quantity */\n      swap1\n      pop\n        /* \"Newnft.sol\":23075:23184  do {... */\n    tag_275:\n        /* \"Newnft.sol\":23126:23140  updatedIndex++ */\n      dup2\n      dup1\n      0x01\n      add\n      swap3\n      pop\n        /* \"Newnft.sol\":23122:23124  to */\n      dup6\n        /* \"Newnft.sol\":23101:23141  Transfer(address(0), to, updatedIndex++) */\n      0xffffffffffffffffffffffffffffffffffffffff\n      and\n        /* \"Newnft.sol\":23118:23119  0 */\n      0x00\n        /* \"Newnft.sol\":23101:23141  Transfer(address(0), to, updatedIndex++) */\n      0xffffffffffffffffffffffffffffffffffffffff\n      and\n      0xddf252ad1be2c89b69c2b068fc378daa952ba7f163c4a11628f55a4df523b3ef\n      mload(0x40)\n      mload(0x40)\n      dup1\n      swap2\n      sub\n      swap1\n      log4\n        /* \"Newnft.sol\":23179:23182  end */\n      dup1\n        /* \"Newnft.sol\":23164:23176  updatedIndex */\n      dup3\n        /* \"Newnft.sol\":23164:23182  updatedIndex < end */\n      lt\n        /* \"Newnft.sol\":23075:23184  do {... */\n      tag_275\n      jumpi\n        /* \"Newnft.sol\":23214:23226  updatedIndex */\n      dup2\n        /* \"Newnft.sol\":23198:23211  _currentIndex */\n      0x05\n        /* \"Newnft.sol\":23198:23226  _currentIndex = updatedIndex */\n      dup2\n      swap1\n      sstore\n      pop\n        /* \"Newnft.sol\":22226:23237  unchecked {... */\n      pop\n      pop\n        /* \"Newnft.sol\":23246:23306  _afterTokenTransfers(address(0), to, startTokenId, quantity) */\n      tag_278\n        /* \"Newnft.sol\":23275:23276  0 */\n      0x00\n        /* \"Newnft.sol\":23279:23281  to */\n      dup5\n        /* \"Newnft.sol\":23283:23295  startTokenId */\n      dup4\n        /* \"Newnft.sol\":23297:23305  quantity */\n      dup6\n        /* \"Newnft.sol\":23246:23266  _afterTokenTransfers */\n      tag_266\n        /* \"Newnft.sol\":23246:23306  _afterTokenTransfers(address(0), to, startTokenId, quantity) */\n      jump\t// in\n    tag_278:\n        /* \"Newnft.sol\":21810:23313  {... */\n      pop\n        /* \"Newnft.sol\":21756:23313  function _mint(address to, uint256 quantity) internal {... */\n      pop\n      pop\n      jump\t// out\n        /* \"Newnft.sol\":18578:18722  function _addressToUint256(address value) private pure returns (uint256 result) {... */\n    tag_201:\n        /* \"Newnft.sol\":18642:18656  uint256 result */\n      0x00\n        /* \"Newnft.sol\":18701:18706  value */\n      dup2\n        /* \"Newnft.sol\":18691:18706  result := value */\n      swap1\n      pop\n        /* \"Newnft.sol\":18578:18722  function _addressToUint256(address value) private pure returns (uint256 result) {... */\n      swap2\n      swap1\n      pop\n      jump\t// out\n        /* \"Newnft.sol\":27272:29113  function _toString(uint256 value) internal pure returns (string memory ptr) {... */\n    tag_233:\n        /* \"Newnft.sol\":27329:27346  string memory ptr */\n      0x60\n        /* \"Newnft.sol\":27744:27747  128 */\n      0x80\n        /* \"Newnft.sol\":27737:27741  0x40 */\n      0x40\n        /* \"Newnft.sol\":27731:27742  mload(0x40) */\n      mload\n        /* \"Newnft.sol\":27727:27748  add(mload(0x40), 128) */\n      add\n        /* \"Newnft.sol\":27720:27748  ptr := add(mload(0x40), 128) */\n      swap1\n      pop\n        /* \"Newnft.sol\":27828:27831  ptr */\n      dup1\n        /* \"Newnft.sol\":27822:27826  0x40 */\n      0x40\n        /* \"Newnft.sol\":27815:27832  mstore(0x40, ptr) */\n      mstore\n        /* \"Newnft.sol\":27925:27928  ptr */\n      dup1\n        /* \"Newnft.sol\":28353:28358  value */\n      dup3\n        /* \"Newnft.sol\":28483:28484  1 */\n      0x01\n        /* \"Newnft.sol\":28478:28481  ptr */\n      dup4\n        /* \"Newnft.sol\":28474:28485  sub(ptr, 1) */\n      sub\n        /* \"Newnft.sol\":28467:28485  ptr := sub(ptr, 1) */\n      swap3\n      pop\n        /* \"Newnft.sol\":28620:28622  10 */\n      0x0a\n        /* \"Newnft.sol\":28614:28618  temp */\n      dup2\n        /* \"Newnft.sol\":28610:28623  mod(temp, 10) */\n      mod\n        /* \"Newnft.sol\":28606:28608  48 */\n      0x30\n        /* \"Newnft.sol\":28602:28624  add(48, mod(temp, 10)) */\n      add\n        /* \"Newnft.sol\":28597:28600  ptr */\n      dup4\n        /* \"Newnft.sol\":28589:28625  mstore8(ptr, add(48, mod(temp, 10))) */\n      mstore8\n        /* \"Newnft.sol\":28661:28663  10 */\n      0x0a\n        /* \"Newnft.sol\":28655:28659  temp */\n      dup2\n        /* \"Newnft.sol\":28651:28664  div(temp, 10) */\n      div\n        /* \"Newnft.sol\":28643:28664  temp := div(temp, 10) */\n      swap1\n      pop\n        /* \"Newnft.sol\":28252:28898  for { ... */\n    tag_281:\n        /* \"Newnft.sol\":28676:28680  temp */\n      dup1\n        /* \"Newnft.sol\":28252:28898  for { ... */\n      iszero\n      tag_283\n      jumpi\n        /* \"Newnft.sol\":28839:28840  1 */\n      0x01\n        /* \"Newnft.sol\":28834:28837  ptr */\n      dup4\n        /* \"Newnft.sol\":28830:28841  sub(ptr, 1) */\n      sub\n        /* \"Newnft.sol\":28823:28841  ptr := sub(ptr, 1) */\n      swap3\n      pop\n        /* \"Newnft.sol\":28882:28884  10 */\n      0x0a\n        /* \"Newnft.sol\":28876:28880  temp */\n      dup2\n        /* \"Newnft.sol\":28872:28885  mod(temp, 10) */\n      mod\n        /* \"Newnft.sol\":28868:28870  48 */\n      0x30\n        /* \"Newnft.sol\":28864:28886  add(48, mod(temp, 10)) */\n      add\n        /* \"Newnft.sol\":28859:28862  ptr */\n      dup4\n        /* \"Newnft.sol\":28851:28887  mstore8(ptr, add(48, mod(temp, 10))) */\n      mstore8\n        /* \"Newnft.sol\":28759:28761  10 */\n      0x0a\n        /* \"Newnft.sol\":28753:28757  temp */\n      dup2\n        /* \"Newnft.sol\":28749:28762  div(temp, 10) */\n      div\n        /* \"Newnft.sol\":28741:28762  temp := div(temp, 10) */\n      swap1\n      pop\n        /* \"Newnft.sol\":28252:28898  for { ... */\n      jump(tag_281)\n    tag_283:\n        /* \"Newnft.sol\":28256:28675  { ... */\n      pop\n        /* \"Newnft.sol\":28928:28931  ptr */\n      dup2\n        /* \"Newnft.sol\":28923:28926  end */\n      dup2\n        /* \"Newnft.sol\":28919:28932  sub(end, ptr) */\n      sub\n        /* \"Newnft.sol\":29035:29037  32 */\n      0x20\n        /* \"Newnft.sol\":29030:29033  ptr */\n      dup4\n        /* \"Newnft.sol\":29026:29038  sub(ptr, 32) */\n      sub\n        /* \"Newnft.sol\":29019:29038  ptr := sub(ptr, 32) */\n      swap3\n      pop\n        /* \"Newnft.sol\":29090:29096  length */\n      dup1\n        /* \"Newnft.sol\":29085:29088  ptr */\n      dup4\n        /* \"Newnft.sol\":29078:29097  mstore(ptr, length) */\n      mstore\n        /* \"Newnft.sol\":27367:29107  {... */\n      pop\n      pop\n        /* \"Newnft.sol\":27272:29113  function _toString(uint256 value) internal pure returns (string memory ptr) {... */\n      swap2\n      swap1\n      pop\n      jump\t// out\n        /* \"Newnft.sol\":26707:26884  function _afterTokenTransfers(... */\n    tag_266:\n      pop\n      pop\n      pop\n      pop\n      jump\t// out\n        /* \"Newnft.sol\":18804:18942  function _boolToUint256(bool value) private pure returns (uint256 result) {... */\n    tag_273:\n        /* \"Newnft.sol\":18862:18876  uint256 result */\n      0x00\n        /* \"Newnft.sol\":18921:18926  value */\n      dup2\n        /* \"Newnft.sol\":18911:18926  result := value */\n      swap1\n      pop\n        /* \"Newnft.sol\":18804:18942  function _boolToUint256(bool value) private pure returns (uint256 result) {... */\n      swap2\n      swap1\n      pop\n      jump\t// out\n        /* \"#utility.yul\":7:82   */\n    tag_286:\n        /* \"#utility.yul\":40:46   */\n      0x00\n        /* \"#utility.yul\":73:75   */\n      0x40\n        /* \"#utility.yul\":67:76   */\n      mload\n        /* \"#utility.yul\":57:76   */\n      swap1\n      pop\n        /* \"#utility.yul\":7:82   */\n      swap1\n      jump\t// out\n        /* \"#utility.yul\":88:205   */\n    tag_287:\n        /* \"#utility.yul\":197:198   */\n      0x00\n        /* \"#utility.yul\":194:195   */\n      dup1\n        /* \"#utility.yul\":187:199   */\n      revert\n        /* \"#utility.yul\":211:328   */\n    tag_288:\n        /* \"#utility.yul\":320:321   */\n      0x00\n        /* \"#utility.yul\":317:318   */\n      dup1\n        /* \"#utility.yul\":310:322   */\n      revert\n        /* \"#utility.yul\":334:483   */\n    tag_289:\n        /* \"#utility.yul\":370:377   */\n      0x00\n        /* \"#utility.yul\":410:476   */\n      0xffffffff00000000000000000000000000000000000000000000000000000000\n        /* \"#utility.yul\":403:408   */\n      dup3\n        /* \"#utility.yul\":399:477   */\n      and\n        /* \"#utility.yul\":388:477   */\n      swap1\n      pop\n        /* \"#utility.yul\":334:483   */\n      swap2\n      swap1\n      pop\n      jump\t// out\n        /* \"#utility.yul\":489:609   */\n    tag_290:\n        /* \"#utility.yul\":561:584   */\n      tag_359\n        /* \"#utility.yul\":578:583   */\n      dup2\n        /* \"#utility.yul\":561:584   */\n      tag_289\n      jump\t// in\n    tag_359:\n        /* \"#utility.yul\":554:559   */\n      dup2\n        /* \"#utility.yul\":551:585   */\n      eq\n        /* \"#utility.yul\":541:603   */\n      tag_360\n      jumpi\n        /* \"#utility.yul\":599:600   */\n      0x00\n        /* \"#utility.yul\":596:597   */\n      dup1\n        /* \"#utility.yul\":589:601   */\n      revert\n        /* \"#utility.yul\":541:603   */\n    tag_360:\n        /* \"#utility.yul\":489:609   */\n      pop\n      jump\t// out\n        /* \"#utility.yul\":615:752   */\n    tag_291:\n        /* \"#utility.yul\":660:665   */\n      0x00\n        /* \"#utility.yul\":698:704   */\n      dup2\n        /* \"#utility.yul\":685:705   */\n      calldataload\n        /* \"#utility.yul\":676:705   */\n      swap1\n      pop\n        /* \"#utility.yul\":714:746   */\n      tag_362\n        /* \"#utility.yul\":740:745   */\n      dup2\n        /* \"#utility.yul\":714:746   */\n      tag_290\n      jump\t// in\n    tag_362:\n        /* \"#utility.yul\":615:752   */\n      swap3\n      swap2\n      pop\n      pop\n      jump\t// out\n        /* \"#utility.yul\":758:1085   */\n    tag_32:\n        /* \"#utility.yul\":816:822   */\n      0x00\n        /* \"#utility.yul\":865:867   */\n      0x20\n        /* \"#utility.yul\":853:862   */\n      dup3\n        /* \"#utility.yul\":844:851   */\n      dup5\n        /* \"#utility.yul\":840:863   */\n      sub\n        /* \"#utility.yul\":836:868   */\n      slt\n        /* \"#utility.yul\":833:952   */\n      iszero\n      tag_364\n      jumpi\n        /* \"#utility.yul\":871:950   */\n      tag_365\n      tag_287\n      jump\t// in\n    tag_365:\n        /* \"#utility.yul\":833:952   */\n    tag_364:\n        /* \"#utility.yul\":991:992   */\n      0x00\n        /* \"#utility.yul\":1016:1068   */\n      tag_366\n        /* \"#utility.yul\":1060:1067   */\n      dup5\n        /* \"#utility.yul\":1051:1057   */\n      dup3\n        /* \"#utility.yul\":1040:1049   */\n      dup6\n        /* \"#utility.yul\":1036:1058   */\n      add\n        /* \"#utility.yul\":1016:1068   */\n      tag_291\n      jump\t// in\n    tag_366:\n        /* \"#utility.yul\":1006:1068   */\n      swap2\n      pop\n        /* \"#utility.yul\":962:1078   */\n      pop\n        /* \"#utility.yul\":758:1085   */\n      swap3\n      swap2\n      pop\n      pop\n      jump\t// out\n        /* \"#utility.yul\":1091:1181   */\n    tag_292:\n        /* \"#utility.yul\":1125:1132   */\n      0x00\n        /* \"#utility.yul\":1168:1173   */\n      dup2\n        /* \"#utility.yul\":1161:1174   */\n      iszero\n        /* \"#utility.yul\":1154:1175   */\n      iszero\n        /* \"#utility.yul\":1143:1175   */\n      swap1\n      pop\n        /* \"#utility.yul\":1091:1181   */\n      swap2\n      swap1\n      pop\n      jump\t// out\n        /* \"#utility.yul\":1187:1296   */\n    tag_293:\n        /* \"#utility.yul\":1268:1289   */\n      tag_369\n        /* \"#utility.yul\":1283:1288   */\n      dup2\n        /* \"#utility.yul\":1268:1289   */\n      tag_292\n      jump\t// in\n    tag_369:\n        /* \"#utility.yul\":1263:1266   */\n      dup3\n        /* \"#utility.yul\":1256:1290   */\n      mstore\n        /* \"#utility.yul\":1187:1296   */\n      pop\n      pop\n      jump\t// out\n        /* \"#utility.yul\":1302:1512   */\n    tag_35:\n        /* \"#utility.yul\":1389:1393   */\n      0x00\n        /* \"#utility.yul\":1427:1429   */\n      0x20\n        /* \"#utility.yul\":1416:1425   */\n      dup3\n        /* \"#utility.yul\":1412:1430   */\n      add\n        /* \"#utility.yul\":1404:1430   */\n      swap1\n      pop\n        /* \"#utility.yul\":1440:1505   */\n      tag_371\n        /* \"#utility.yul\":1502:1503   */\n      0x00\n        /* \"#utility.yul\":1491:1500   */\n      dup4\n        /* \"#utility.yul\":1487:1504   */\n      add\n        /* \"#utility.yul\":1478:1484   */\n      dup5\n        /* \"#utility.yul\":1440:1505   */\n      tag_293\n      jump\t// in\n    tag_371:\n        /* \"#utility.yul\":1302:1512   */\n      swap3\n      swap2\n      pop\n      pop\n      jump\t// out\n        /* \"#utility.yul\":1518:1617   */\n    tag_294:\n        /* \"#utility.yul\":1570:1576   */\n      0x00\n        /* \"#utility.yul\":1604:1609   */\n      dup2\n        /* \"#utility.yul\":1598:1610   */\n      mload\n        /* \"#utility.yul\":1588:1610   */\n      swap1\n      pop\n        /* \"#utility.yul\":1518:1617   */\n      swap2\n      swap1\n      pop\n      jump\t// out\n        /* \"#utility.yul\":1623:1792   */\n    tag_295:\n        /* \"#utility.yul\":1707:1718   */\n      0x00\n        /* \"#utility.yul\":1741:1747   */\n      dup3\n        /* \"#utility.yul\":1736:1739   */\n      dup3\n        /* \"#utility.yul\":1729:1748   */\n      mstore\n        /* \"#utility.yul\":1781:1785   */\n      0x20\n        /* \"#utility.yul\":1776:1779   */\n      dup3\n        /* \"#utility.yul\":1772:1786   */\n      add\n        /* \"#utility.yul\":1757:1786   */\n      swap1\n      pop\n        /* \"#utility.yul\":1623:1792   */\n      swap3\n      swap2\n      pop\n      pop\n      jump\t// out\n        /* \"#utility.yul\":1798:2044   */\n    tag_296:\n        /* \"#utility.yul\":1879:1880   */\n      0x00\n        /* \"#utility.yul\":1889:2002   */\n    tag_375:\n        /* \"#utility.yul\":1903:1909   */\n      dup4\n        /* \"#utility.yul\":1900:1901   */\n      dup2\n        /* \"#utility.yul\":1897:1910   */\n      lt\n        /* \"#utility.yul\":1889:2002   */\n      iszero\n      tag_377\n      jumpi\n        /* \"#utility.yul\":1988:1989   */\n      dup1\n        /* \"#utility.yul\":1983:1986   */\n      dup3\n        /* \"#utility.yul\":1979:1990   */\n      add\n        /* \"#utility.yul\":1973:1991   */\n      mload\n        /* \"#utility.yul\":1969:1970   */\n      dup2\n        /* \"#utility.yul\":1964:1967   */\n      dup5\n        /* \"#utility.yul\":1960:1971   */\n      add\n        /* \"#utility.yul\":1953:1992   */\n      mstore\n        /* \"#utility.yul\":1925:1927   */\n      0x20\n        /* \"#utility.yul\":1922:1923   */\n      dup2\n        /* \"#utility.yul\":1918:1928   */\n      add\n        /* \"#utility.yul\":1913:1928   */\n      swap1\n      pop\n        /* \"#utility.yul\":1889:2002   */\n      jump(tag_375)\n    tag_377:\n        /* \"#utility.yul\":2036:2037   */\n      0x00\n        /* \"#utility.yul\":2027:2033   */\n      dup5\n        /* \"#utility.yul\":2022:2025   */\n      dup5\n        /* \"#utility.yul\":2018:2034   */\n      add\n        /* \"#utility.yul\":2011:2038   */\n      mstore\n        /* \"#utility.yul\":1860:2044   */\n      pop\n        /* \"#utility.yul\":1798:2044   */\n      pop\n      pop\n      pop\n      jump\t// out\n        /* \"#utility.yul\":2050:2152   */\n    tag_297:\n        /* \"#utility.yul\":2091:2097   */\n      0x00\n        /* \"#utility.yul\":2142:2144   */\n      0x1f\n        /* \"#utility.yul\":2138:2145   */\n      not\n        /* \"#utility.yul\":2133:2135   */\n      0x1f\n        /* \"#utility.yul\":2126:2131   */\n      dup4\n        /* \"#utility.yul\":2122:2136   */\n      add\n        /* \"#utility.yul\":2118:2146   */\n      and\n        /* \"#utility.yul\":2108:2146   */\n      swap1\n      pop\n        /* \"#utility.yul\":2050:2152   */\n      swap2\n      swap1\n      pop\n      jump\t// out\n        /* \"#utility.yul\":2158:2535   */\n    tag_298:\n        /* \"#utility.yul\":2246:2249   */\n      0x00\n        /* \"#utility.yul\":2274:2313   */\n      tag_380\n        /* \"#utility.yul\":2307:2312   */\n      dup3\n        /* \"#utility.yul\":2274:2313   */\n      tag_294\n      jump\t// in\n    tag_380:\n        /* \"#utility.yul\":2329:2400   */\n      tag_381\n        /* \"#utility.yul\":2393:2399   */\n      dup2\n        /* \"#utility.yul\":2388:2391   */\n      dup6\n        /* \"#utility.yul\":2329:2400   */\n      tag_295\n      jump\t// in\n    tag_381:\n        /* \"#utility.yul\":2322:2400   */\n      swap4\n      pop\n        /* \"#utility.yul\":2409:2474   */\n      tag_382\n        /* \"#utility.yul\":2467:2473   */\n      dup2\n        /* \"#utility.yul\":2462:2465   */\n      dup6\n        /* \"#utility.yul\":2455:2459   */\n      0x20\n        /* \"#utility.yul\":2448:2453   */\n      dup7\n        /* \"#utility.yul\":2444:2460   */\n      add\n        /* \"#utility.yul\":2409:2474   */\n      tag_296\n      jump\t// in\n    tag_382:\n        /* \"#utility.yul\":2499:2528   */\n      tag_383\n        /* \"#utility.yul\":2521:2527   */\n      dup2\n        /* \"#utility.yul\":2499:2528   */\n      tag_297\n      jump\t// in\n    tag_383:\n        /* \"#utility.yul\":2494:2497   */\n      dup5\n        /* \"#utility.yul\":2490:2529   */\n      add\n        /* \"#utility.yul\":2483:2529   */\n      swap2\n      pop\n        /* \"#utility.yul\":2250:2535   */\n      pop\n        /* \"#utility.yul\":2158:2535   */\n      swap3\n      swap2\n      pop\n      pop\n      jump\t// out\n        /* \"#utility.yul\":2541:2854   */\n    tag_40:\n        /* \"#utility.yul\":2654:2658   */\n      0x00\n        /* \"#utility.yul\":2692:2694   */\n      0x20\n        /* \"#utility.yul\":2681:2690   */\n      dup3\n        /* \"#utility.yul\":2677:2695   */\n      add\n        /* \"#utility.yul\":2669:2695   */\n      swap1\n      pop\n        /* \"#utility.yul\":2741:2750   */\n      dup2\n        /* \"#utility.yul\":2735:2739   */\n      dup2\n        /* \"#utility.yul\":2731:2751   */\n      sub\n        /* \"#utility.yul\":2727:2728   */\n      0x00\n        /* \"#utility.yul\":2716:2725   */\n      dup4\n        /* \"#utility.yul\":2712:2729   */\n      add\n        /* \"#utility.yul\":2705:2752   */\n      mstore\n        /* \"#utility.yul\":2769:2847   */\n      tag_385\n        /* \"#utility.yul\":2842:2846   */\n      dup2\n        /* \"#utility.yul\":2833:2839   */\n      dup5\n        /* \"#utility.yul\":2769:2847   */\n      tag_298\n      jump\t// in\n    tag_385:\n        /* \"#utility.yul\":2761:2847   */\n      swap1\n      pop\n        /* \"#utility.yul\":2541:2854   */\n      swap3\n      swap2\n      pop\n      pop\n      jump\t// out\n        /* \"#utility.yul\":2860:2937   */\n    tag_299:\n        /* \"#utility.yul\":2897:2904   */\n      0x00\n        /* \"#utility.yul\":2926:2931   */\n      dup2\n        /* \"#utility.yul\":2915:2931   */\n      swap1\n      pop\n        /* \"#utility.yul\":2860:2937   */\n      swap2\n      swap1\n      pop\n      jump\t// out\n        /* \"#utility.yul\":2943:3065   */\n    tag_300:\n        /* \"#utility.yul\":3016:3040   */\n      tag_388\n        /* \"#utility.yul\":3034:3039   */\n      dup2\n        /* \"#utility.yul\":3016:3040   */\n      tag_299\n      jump\t// in\n    tag_388:\n        /* \"#utility.yul\":3009:3014   */\n      dup2\n        /* \"#utility.yul\":3006:3041   */\n      eq\n        /* \"#utility.yul\":2996:3059   */\n      tag_389\n      jumpi\n        /* \"#utility.yul\":3055:3056   */\n      0x00\n        /* \"#utility.yul\":3052:3053   */\n      dup1\n        /* \"#utility.yul\":3045:3057   */\n      revert\n        /* \"#utility.yul\":2996:3059   */\n    tag_389:\n        /* \"#utility.yul\":2943:3065   */\n      pop\n      jump\t// out\n        /* \"#utility.yul\":3071:3210   */\n    tag_301:\n        /* \"#utility.yul\":3117:3122   */\n      0x00\n        /* \"#utility.yul\":3155:3161   */\n      dup2\n        /* \"#utility.yul\":3142:3162   */\n      calldataload\n        /* \"#utility.yul\":3133:3162   */\n      swap1\n      pop\n        /* \"#utility.yul\":3171:3204   */\n      tag_391\n        /* \"#utility.yul\":3198:3203   */\n      dup2\n        /* \"#utility.yul\":3171:3204   */\n      tag_300\n      jump\t// in\n    tag_391:\n        /* \"#utility.yul\":3071:3210   */\n      swap3\n      swap2\n      pop\n      pop\n      jump\t// out\n        /* \"#utility.yul\":3216:3545   */\n    tag_44:\n        /* \"#utility.yul\":3275:3281   */\n      0x00\n        /* \"#utility.yul\":3324:3326   */\n      0x20\n        /* \"#utility.yul\":3312:3321   */\n      dup3\n        /* \"#utility.yul\":3303:3310   */\n      dup5\n        /* \"#utility.yul\":3299:3322   */\n      sub\n        /* \"#utility.yul\":3295:3327   */\n      slt\n        /* \"#utility.yul\":3292:3411   */\n      iszero\n      tag_393\n      jumpi\n        /* \"#utility.yul\":3330:3409   */\n      tag_394\n      tag_287\n      jump\t// in\n    tag_394:\n        /* \"#utility.yul\":3292:3411   */\n    tag_393:\n        /* \"#utility.yul\":3450:3451   */\n      0x00\n        /* \"#utility.yul\":3475:3528   */\n      tag_395\n        /* \"#utility.yul\":3520:3527   */\n      dup5\n        /* \"#utility.yul\":3511:3517   */\n      dup3\n        /* \"#utility.yul\":3500:3509   */\n      dup6\n        /* \"#utility.yul\":3496:3518   */\n      add\n        /* \"#utility.yul\":3475:3528   */\n      tag_301\n      jump\t// in\n    tag_395:\n        /* \"#utility.yul\":3465:3528   */\n      swap2\n      pop\n        /* \"#utility.yul\":3421:3538   */\n      pop\n        /* \"#utility.yul\":3216:3545   */\n      swap3\n      swap2\n      pop\n      pop\n      jump\t// out\n        /* \"#utility.yul\":3551:3677   */\n    tag_302:\n        /* \"#utility.yul\":3588:3595   */\n      0x00\n        /* \"#utility.yul\":3628:3670   */\n      0xffffffffffffffffffffffffffffffffffffffff\n        /* \"#utility.yul\":3621:3626   */\n      dup3\n        /* \"#utility.yul\":3617:3671   */\n      and\n        /* \"#utility.yul\":3606:3671   */\n      swap1\n      pop\n        /* \"#utility.yul\":3551:3677   */\n      swap2\n      swap1\n      pop\n      jump\t// out\n        /* \"#utility.yul\":3683:3779   */\n    tag_303:\n        /* \"#utility.yul\":3720:3727   */\n      0x00\n        /* \"#utility.yul\":3749:3773   */\n      tag_398\n        /* \"#utility.yul\":3767:3772   */\n      dup3\n        /* \"#utility.yul\":3749:3773   */\n      tag_302\n      jump\t// in\n    tag_398:\n        /* \"#utility.yul\":3738:3773   */\n      swap1\n      pop\n        /* \"#utility.yul\":3683:3779   */\n      swap2\n      swap1\n      pop\n      jump\t// out\n        /* \"#utility.yul\":3785:3903   */\n    tag_304:\n        /* \"#utility.yul\":3872:3896   */\n      tag_400\n        /* \"#utility.yul\":3890:3895   */\n      dup2\n        /* \"#utility.yul\":3872:3896   */\n      tag_303\n      jump\t// in\n    tag_400:\n        /* \"#utility.yul\":3867:3870   */\n      dup3\n        /* \"#utility.yul\":3860:3897   */\n      mstore\n        /* \"#utility.yul\":3785:3903   */\n      pop\n      pop\n      jump\t// out\n        /* \"#utility.yul\":3909:4131   */\n    tag_47:\n        /* \"#utility.yul\":4002:4006   */\n      0x00\n        /* \"#utility.yul\":4040:4042   */\n      0x20\n        /* \"#utility.yul\":4029:4038   */\n      dup3\n        /* \"#utility.yul\":4025:4043   */\n      add\n        /* \"#utility.yul\":4017:4043   */\n      swap1\n      pop\n        /* \"#utility.yul\":4053:4124   */\n      tag_402\n        /* \"#utility.yul\":4121:4122   */\n      0x00\n        /* \"#utility.yul\":4110:4119   */\n      dup4\n        /* \"#utility.yul\":4106:4123   */\n      add\n        /* \"#utility.yul\":4097:4103   */\n      dup5\n        /* \"#utility.yul\":4053:4124   */\n      tag_304\n      jump\t// in\n    tag_402:\n        /* \"#utility.yul\":3909:4131   */\n      swap3\n      swap2\n      pop\n      pop\n      jump\t// out\n        /* \"#utility.yul\":4137:4259   */\n    tag_305:\n        /* \"#utility.yul\":4210:4234   */\n      tag_404\n        /* \"#utility.yul\":4228:4233   */\n      dup2\n        /* \"#utility.yul\":4210:4234   */\n      tag_303\n      jump\t// in\n    tag_404:\n        /* \"#utility.yul\":4203:4208   */\n      dup2\n        /* \"#utility.yul\":4200:4235   */\n      eq\n        /* \"#utility.yul\":4190:4253   */\n      tag_405\n      jumpi\n        /* \"#utility.yul\":4249:4250   */\n      0x00\n        /* \"#utility.yul\":4246:4247   */\n      dup1\n        /* \"#utility.yul\":4239:4251   */\n      revert\n        /* \"#utility.yul\":4190:4253   */\n    tag_405:\n        /* \"#utility.yul\":4137:4259   */\n      pop\n      jump\t// out\n        /* \"#utility.yul\":4265:4404   */\n    tag_306:\n        /* \"#utility.yul\":4311:4316   */\n      0x00\n        /* \"#utility.yul\":4349:4355   */\n      dup2\n        /* \"#utility.yul\":4336:4356   */\n      calldataload\n        /* \"#utility.yul\":4327:4356   */\n      swap1\n      pop\n        /* \"#utility.yul\":4365:4398   */\n      tag_407\n        /* \"#utility.yul\":4392:4397   */\n      dup2\n        /* \"#utility.yul\":4365:4398   */\n      tag_305\n      jump\t// in\n    tag_407:\n        /* \"#utility.yul\":4265:4404   */\n      swap3\n      swap2\n      pop\n      pop\n      jump\t// out\n        /* \"#utility.yul\":4410:4884   */\n    tag_51:\n        /* \"#utility.yul\":4478:4484   */\n      0x00\n        /* \"#utility.yul\":4486:4492   */\n      dup1\n        /* \"#utility.yul\":4535:4537   */\n      0x40\n        /* \"#utility.yul\":4523:4532   */\n      dup4\n        /* \"#utility.yul\":4514:4521   */\n      dup6\n        /* \"#utility.yul\":4510:4533   */\n      sub\n        /* \"#utility.yul\":4506:4538   */\n      slt\n        /* \"#utility.yul\":4503:4622   */\n      iszero\n      tag_409\n      jumpi\n        /* \"#utility.yul\":4541:4620   */\n      tag_410\n      tag_287\n      jump\t// in\n    tag_410:\n        /* \"#utility.yul\":4503:4622   */\n    tag_409:\n        /* \"#utility.yul\":4661:4662   */\n      0x00\n        /* \"#utility.yul\":4686:4739   */\n      tag_411\n        /* \"#utility.yul\":4731:4738   */\n      dup6\n        /* \"#utility.yul\":4722:4728   */\n      dup3\n        /* \"#utility.yul\":4711:4720   */\n      dup7\n        /* \"#utility.yul\":4707:4729   */\n      add\n        /* \"#utility.yul\":4686:4739   */\n      tag_306\n      jump\t// in\n    tag_411:\n        /* \"#utility.yul\":4676:4739   */\n      swap3\n      pop\n        /* \"#utility.yul\":4632:4749   */\n      pop\n        /* \"#utility.yul\":4788:4790   */\n      0x20\n        /* \"#utility.yul\":4814:4867   */\n      tag_412\n        /* \"#utility.yul\":4859:4866   */\n      dup6\n        /* \"#utility.yul\":4850:4856   */\n      dup3\n        /* \"#utility.yul\":4839:4848   */\n      dup7\n        /* \"#utility.yul\":4835:4857   */\n      add\n        /* \"#utility.yul\":4814:4867   */\n      tag_301\n      jump\t// in\n    tag_412:\n        /* \"#utility.yul\":4804:4867   */\n      swap2\n      pop\n        /* \"#utility.yul\":4759:4877   */\n      pop\n        /* \"#utility.yul\":4410:4884   */\n      swap3\n      pop\n      swap3\n      swap1\n      pop\n      jump\t// out\n        /* \"#utility.yul\":4890:5509   */\n    tag_56:\n        /* \"#utility.yul\":4967:4973   */\n      0x00\n        /* \"#utility.yul\":4975:4981   */\n      dup1\n        /* \"#utility.yul\":4983:4989   */\n      0x00\n        /* \"#utility.yul\":5032:5034   */\n      0x60\n        /* \"#utility.yul\":5020:5029   */\n      dup5\n        /* \"#utility.yul\":5011:5018   */\n      dup7\n        /* \"#utility.yul\":5007:5030   */\n      sub\n        /* \"#utility.yul\":5003:5035   */\n      slt\n        /* \"#utility.yul\":5000:5119   */\n      iszero\n      tag_414\n      jumpi\n        /* \"#utility.yul\":5038:5117   */\n      tag_415\n      tag_287\n      jump\t// in\n    tag_415:\n        /* \"#utility.yul\":5000:5119   */\n    tag_414:\n        /* \"#utility.yul\":5158:5159   */\n      0x00\n        /* \"#utility.yul\":5183:5236   */\n      tag_416\n        /* \"#utility.yul\":5228:5235   */\n      dup7\n        /* \"#utility.yul\":5219:5225   */\n      dup3\n        /* \"#utility.yul\":5208:5217   */\n      dup8\n        /* \"#utility.yul\":5204:5226   */\n      add\n        /* \"#utility.yul\":5183:5236   */\n      tag_301\n      jump\t// in\n    tag_416:\n        /* \"#utility.yul\":5173:5236   */\n      swap4\n      pop\n        /* \"#utility.yul\":5129:5246   */\n      pop\n        /* \"#utility.yul\":5285:5287   */\n      0x20\n        /* \"#utility.yul\":5311:5364   */\n      tag_417\n        /* \"#utility.yul\":5356:5363   */\n      dup7\n        /* \"#utility.yul\":5347:5353   */\n      dup3\n        /* \"#utility.yul\":5336:5345   */\n      dup8\n        /* \"#utility.yul\":5332:5354   */\n      add\n        /* \"#utility.yul\":5311:5364   */\n      tag_301\n      jump\t// in\n    tag_417:\n        /* \"#utility.yul\":5301:5364   */\n      swap3\n      pop\n        /* \"#utility.yul\":5256:5374   */\n      pop\n        /* \"#utility.yul\":5413:5415   */\n      0x40\n        /* \"#utility.yul\":5439:5492   */\n      tag_418\n        /* \"#utility.yul\":5484:5491   */\n      dup7\n        /* \"#utility.yul\":5475:5481   */\n      dup3\n        /* \"#utility.yul\":5464:5473   */\n      dup8\n        /* \"#utility.yul\":5460:5482   */\n      add\n        /* \"#utility.yul\":5439:5492   */\n      tag_301\n      jump\t// in\n    tag_418:\n        /* \"#utility.yul\":5429:5492   */\n      swap2\n      pop\n        /* \"#utility.yul\":5384:5502   */\n      pop\n        /* \"#utility.yul\":4890:5509   */\n      swap3\n      pop\n      swap3\n      pop\n      swap3\n      jump\t// out\n        /* \"#utility.yul\":5515:5633   */\n    tag_307:\n        /* \"#utility.yul\":5602:5626   */\n      tag_420\n        /* \"#utility.yul\":5620:5625   */\n      dup2\n        /* \"#utility.yul\":5602:5626   */\n      tag_299\n      jump\t// in\n    tag_420:\n        /* \"#utility.yul\":5597:5600   */\n      dup3\n        /* \"#utility.yul\":5590:5627   */\n      mstore\n        /* \"#utility.yul\":5515:5633   */\n      pop\n      pop\n      jump\t// out\n        /* \"#utility.yul\":5639:5861   */\n    tag_62:\n        /* \"#utility.yul\":5732:5736   */\n      0x00\n        /* \"#utility.yul\":5770:5772   */\n      0x20\n        /* \"#utility.yul\":5759:5768   */\n      dup3\n        /* \"#utility.yul\":5755:5773   */\n      add\n        /* \"#utility.yul\":5747:5773   */\n      swap1\n      pop\n        /* \"#utility.yul\":5783:5854   */\n      tag_422\n        /* \"#utility.yul\":5851:5852   */\n      0x00\n        /* \"#utility.yul\":5840:5849   */\n      dup4\n        /* \"#utility.yul\":5836:5853   */\n      add\n        /* \"#utility.yul\":5827:5833   */\n      dup5\n        /* \"#utility.yul\":5783:5854   */\n      tag_307\n      jump\t// in\n    tag_422:\n        /* \"#utility.yul\":5639:5861   */\n      swap3\n      swap2\n      pop\n      pop\n      jump\t// out\n        /* \"#utility.yul\":5867:6486   */\n    tag_66:\n        /* \"#utility.yul\":5944:5950   */\n      0x00\n        /* \"#utility.yul\":5952:5958   */\n      dup1\n        /* \"#utility.yul\":5960:5966   */\n      0x00\n        /* \"#utility.yul\":6009:6011   */\n      0x60\n        /* \"#utility.yul\":5997:6006   */\n      dup5\n        /* \"#utility.yul\":5988:5995   */\n      dup7\n        /* \"#utility.yul\":5984:6007   */\n      sub\n        /* \"#utility.yul\":5980:6012   */\n      slt\n        /* \"#utility.yul\":5977:6096   */\n      iszero\n      tag_424\n      jumpi\n        /* \"#utility.yul\":6015:6094   */\n      tag_425\n      tag_287\n      jump\t// in\n    tag_425:\n        /* \"#utility.yul\":5977:6096   */\n    tag_424:\n        /* \"#utility.yul\":6135:6136   */\n      0x00\n        /* \"#utility.yul\":6160:6213   */\n      tag_426\n        /* \"#utility.yul\":6205:6212   */\n      dup7\n        /* \"#utility.yul\":6196:6202   */\n      dup3\n        /* \"#utility.yul\":6185:6194   */\n      dup8\n        /* \"#utility.yul\":6181:6203   */\n      add\n        /* \"#utility.yul\":6160:6213   */\n      tag_306\n      jump\t// in\n    tag_426:\n        /* \"#utility.yul\":6150:6213   */\n      swap4\n      pop\n        /* \"#utility.yul\":6106:6223   */\n      pop\n        /* \"#utility.yul\":6262:6264   */\n      0x20\n        /* \"#utility.yul\":6288:6341   */\n      tag_427\n        /* \"#utility.yul\":6333:6340   */\n      dup7\n        /* \"#utility.yul\":6324:6330   */\n      dup3\n        /* \"#utility.yul\":6313:6322   */\n      dup8\n        /* \"#utility.yul\":6309:6331   */\n      add\n        /* \"#utility.yul\":6288:6341   */\n      tag_306\n      jump\t// in\n    tag_427:\n        /* \"#utility.yul\":6278:6341   */\n      swap3\n      pop\n        /* \"#utility.yul\":6233:6351   */\n      pop\n        /* \"#utility.yul\":6390:6392   */\n      0x40\n        /* \"#utility.yul\":6416:6469   */\n      tag_428\n        /* \"#utility.yul\":6461:6468   */\n      dup7\n        /* \"#utility.yul\":6452:6458   */\n      dup3\n        /* \"#utility.yul\":6441:6450   */\n      dup8\n        /* \"#utility.yul\":6437:6459   */\n      add\n        /* \"#utility.yul\":6416:6469   */\n      tag_301\n      jump\t// in\n    tag_428:\n        /* \"#utility.yul\":6406:6469   */\n      swap2\n      pop\n        /* \"#utility.yul\":6361:6479   */\n      pop\n        /* \"#utility.yul\":5867:6486   */\n      swap3\n      pop\n      swap3\n      pop\n      swap3\n      jump\t// out\n        /* \"#utility.yul\":6492:6609   */\n    tag_308:\n        /* \"#utility.yul\":6601:6602   */\n      0x00\n        /* \"#utility.yul\":6598:6599   */\n      dup1\n        /* \"#utility.yul\":6591:6603   */\n      revert\n        /* \"#utility.yul\":6615:6732   */\n    tag_309:\n        /* \"#utility.yul\":6724:6725   */\n      0x00\n        /* \"#utility.yul\":6721:6722   */\n      dup1\n        /* \"#utility.yul\":6714:6726   */\n      revert\n        /* \"#utility.yul\":6738:6918   */\n    tag_310:\n        /* \"#utility.yul\":6786:6863   */\n      0x4e487b7100000000000000000000000000000000000000000000000000000000\n        /* \"#utility.yul\":6783:6784   */\n      0x00\n        /* \"#utility.yul\":6776:6864   */\n      mstore\n        /* \"#utility.yul\":6883:6887   */\n      0x41\n        /* \"#utility.yul\":6880:6881   */\n      0x04\n        /* \"#utility.yul\":6873:6888   */\n      mstore\n        /* \"#utility.yul\":6907:6911   */\n      0x24\n        /* \"#utility.yul\":6904:6905   */\n      0x00\n        /* \"#utility.yul\":6897:6912   */\n      revert\n        /* \"#utility.yul\":6924:7205   */\n    tag_311:\n        /* \"#utility.yul\":7007:7034   */\n      tag_433\n        /* \"#utility.yul\":7029:7033   */\n      dup3\n        /* \"#utility.yul\":7007:7034   */\n      tag_297\n      jump\t// in\n    tag_433:\n        /* \"#utility.yul\":6999:7005   */\n      dup2\n        /* \"#utility.yul\":6995:7035   */\n      add\n        /* \"#utility.yul\":7137:7143   */\n      dup2\n        /* \"#utility.yul\":7125:7135   */\n      dup2\n        /* \"#utility.yul\":7122:7144   */\n      lt\n        /* \"#utility.yul\":7101:7119   */\n      0xffffffffffffffff\n        /* \"#utility.yul\":7089:7099   */\n      dup3\n        /* \"#utility.yul\":7086:7120   */\n      gt\n        /* \"#utility.yul\":7083:7145   */\n      or\n        /* \"#utility.yul\":7080:7168   */\n      iszero\n      tag_434\n      jumpi\n        /* \"#utility.yul\":7148:7166   */\n      tag_435\n      tag_310\n      jump\t// in\n    tag_435:\n        /* \"#utility.yul\":7080:7168   */\n    tag_434:\n        /* \"#utility.yul\":7188:7198   */\n      dup1\n        /* \"#utility.yul\":7184:7186   */\n      0x40\n        /* \"#utility.yul\":7177:7199   */\n      mstore\n        /* \"#utility.yul\":6967:7205   */\n      pop\n        /* \"#utility.yul\":6924:7205   */\n      pop\n      pop\n      jump\t// out\n        /* \"#utility.yul\":7211:7340   */\n    tag_312:\n        /* \"#utility.yul\":7245:7251   */\n      0x00\n        /* \"#utility.yul\":7272:7292   */\n      tag_437\n      tag_286\n      jump\t// in\n    tag_437:\n        /* \"#utility.yul\":7262:7292   */\n      swap1\n      pop\n        /* \"#utility.yul\":7301:7334   */\n      tag_438\n        /* \"#utility.yul\":7329:7333   */\n      dup3\n        /* \"#utility.yul\":7321:7327   */\n      dup3\n        /* \"#utility.yul\":7301:7334   */\n      tag_311\n      jump\t// in\n    tag_438:\n        /* \"#utility.yul\":7211:7340   */\n      swap2\n      swap1\n      pop\n      jump\t// out\n        /* \"#utility.yul\":7346:7654   */\n    tag_313:\n        /* \"#utility.yul\":7408:7412   */\n      0x00\n        /* \"#utility.yul\":7498:7516   */\n      0xffffffffffffffff\n        /* \"#utility.yul\":7490:7496   */\n      dup3\n        /* \"#utility.yul\":7487:7517   */\n      gt\n        /* \"#utility.yul\":7484:7540   */\n      iszero\n      tag_440\n      jumpi\n        /* \"#utility.yul\":7520:7538   */\n      tag_441\n      tag_310\n      jump\t// in\n    tag_441:\n        /* \"#utility.yul\":7484:7540   */\n    tag_440:\n        /* \"#utility.yul\":7558:7587   */\n      tag_442\n        /* \"#utility.yul\":7580:7586   */\n      dup3\n        /* \"#utility.yul\":7558:7587   */\n      tag_297\n      jump\t// in\n    tag_442:\n        /* \"#utility.yul\":7550:7587   */\n      swap1\n      pop\n        /* \"#utility.yul\":7642:7646   */\n      0x20\n        /* \"#utility.yul\":7636:7640   */\n      dup2\n        /* \"#utility.yul\":7632:7647   */\n      add\n        /* \"#utility.yul\":7624:7647   */\n      swap1\n      pop\n        /* \"#utility.yul\":7346:7654   */\n      swap2\n      swap1\n      pop\n      jump\t// out\n        /* \"#utility.yul\":7660:7806   */\n    tag_314:\n        /* \"#utility.yul\":7757:7763   */\n      dup3\n        /* \"#utility.yul\":7752:7755   */\n      dup2\n        /* \"#utility.yul\":7747:7750   */\n      dup4\n        /* \"#utility.yul\":7734:7764   */\n      calldatacopy\n        /* \"#utility.yul\":7798:7799   */\n      0x00\n        /* \"#utility.yul\":7789:7795   */\n      dup4\n        /* \"#utility.yul\":7784:7787   */\n      dup4\n        /* \"#utility.yul\":7780:7796   */\n      add\n        /* \"#utility.yul\":7773:7800   */\n      mstore\n        /* \"#utility.yul\":7660:7806   */\n      pop\n      pop\n      pop\n      jump\t// out\n        /* \"#utility.yul\":7812:8237   */\n    tag_315:\n        /* \"#utility.yul\":7890:7895   */\n      0x00\n        /* \"#utility.yul\":7915:7981   */\n      tag_445\n        /* \"#utility.yul\":7931:7980   */\n      tag_446\n        /* \"#utility.yul\":7973:7979   */\n      dup5\n        /* \"#utility.yul\":7931:7980   */\n      tag_313\n      jump\t// in\n    tag_446:\n        /* \"#utility.yul\":7915:7981   */\n      tag_312\n      jump\t// in\n    tag_445:\n        /* \"#utility.yul\":7906:7981   */\n      swap1\n      pop\n        /* \"#utility.yul\":8004:8010   */\n      dup3\n        /* \"#utility.yul\":7997:8002   */\n      dup2\n        /* \"#utility.yul\":7990:8011   */\n      mstore\n        /* \"#utility.yul\":8042:8046   */\n      0x20\n        /* \"#utility.yul\":8035:8040   */\n      dup2\n        /* \"#utility.yul\":8031:8047   */\n      add\n        /* \"#utility.yul\":8080:8083   */\n      dup5\n        /* \"#utility.yul\":8071:8077   */\n      dup5\n        /* \"#utility.yul\":8066:8069   */\n      dup5\n        /* \"#utility.yul\":8062:8078   */\n      add\n        /* \"#utility.yul\":8059:8084   */\n      gt\n        /* \"#utility.yul\":8056:8168   */\n      iszero\n      tag_447\n      jumpi\n        /* \"#utility.yul\":8087:8166   */\n      tag_448\n      tag_309\n      jump\t// in\n    tag_448:\n        /* \"#utility.yul\":8056:8168   */\n    tag_447:\n        /* \"#utility.yul\":8177:8231   */\n      tag_449\n        /* \"#utility.yul\":8224:8230   */\n      dup5\n        /* \"#utility.yul\":8219:8222   */\n      dup3\n        /* \"#utility.yul\":8214:8217   */\n      dup6\n        /* \"#utility.yul\":8177:8231   */\n      tag_314\n      jump\t// in\n    tag_449:\n        /* \"#utility.yul\":7896:8237   */\n      pop\n        /* \"#utility.yul\":7812:8237   */\n      swap4\n      swap3\n      pop\n      pop\n      pop\n      jump\t// out\n        /* \"#utility.yul\":8257:8597   */\n    tag_316:\n        /* \"#utility.yul\":8313:8318   */\n      0x00\n        /* \"#utility.yul\":8362:8365   */\n      dup3\n        /* \"#utility.yul\":8355:8359   */\n      0x1f\n        /* \"#utility.yul\":8347:8353   */\n      dup4\n        /* \"#utility.yul\":8343:8360   */\n      add\n        /* \"#utility.yul\":8339:8366   */\n      slt\n        /* \"#utility.yul\":8329:8451   */\n      tag_451\n      jumpi\n        /* \"#utility.yul\":8370:8449   */\n      tag_452\n      tag_308\n      jump\t// in\n    tag_452:\n        /* \"#utility.yul\":8329:8451   */\n    tag_451:\n        /* \"#utility.yul\":8487:8493   */\n      dup2\n        /* \"#utility.yul\":8474:8494   */\n      calldataload\n        /* \"#utility.yul\":8512:8591   */\n      tag_453\n        /* \"#utility.yul\":8587:8590   */\n      dup5\n        /* \"#utility.yul\":8579:8585   */\n      dup3\n        /* \"#utility.yul\":8572:8576   */\n      0x20\n        /* \"#utility.yul\":8564:8570   */\n      dup7\n        /* \"#utility.yul\":8560:8577   */\n      add\n        /* \"#utility.yul\":8512:8591   */\n      tag_315\n      jump\t// in\n    tag_453:\n        /* \"#utility.yul\":8503:8591   */\n      swap2\n      pop\n        /* \"#utility.yul\":8319:8597   */\n      pop\n        /* \"#utility.yul\":8257:8597   */\n      swap3\n      swap2\n      pop\n      pop\n      jump\t// out\n        /* \"#utility.yul\":8603:9112   */\n    tag_82:\n        /* \"#utility.yul\":8672:8678   */\n      0x00\n        /* \"#utility.yul\":8721:8723   */\n      0x20\n        /* \"#utility.yul\":8709:8718   */\n      dup3\n        /* \"#utility.yul\":8700:8707   */\n      dup5\n        /* \"#utility.yul\":8696:8719   */\n      sub\n        /* \"#utility.yul\":8692:8724   */\n      slt\n        /* \"#utility.yul\":8689:8808   */\n      iszero\n      tag_455\n      jumpi\n        /* \"#utility.yul\":8727:8806   */\n      tag_456\n      tag_287\n      jump\t// in\n    tag_456:\n        /* \"#utility.yul\":8689:8808   */\n    tag_455:\n        /* \"#utility.yul\":8875:8876   */\n      0x00\n        /* \"#utility.yul\":8864:8873   */\n      dup3\n        /* \"#utility.yul\":8860:8877   */\n      add\n        /* \"#utility.yul\":8847:8878   */\n      calldataload\n        /* \"#utility.yul\":8905:8923   */\n      0xffffffffffffffff\n        /* \"#utility.yul\":8897:8903   */\n      dup2\n        /* \"#utility.yul\":8894:8924   */\n      gt\n        /* \"#utility.yul\":8891:9008   */\n      iszero\n      tag_457\n      jumpi\n        /* \"#utility.yul\":8927:9006   */\n      tag_458\n      tag_288\n      jump\t// in\n    tag_458:\n        /* \"#utility.yul\":8891:9008   */\n    tag_457:\n        /* \"#utility.yul\":9032:9095   */\n      tag_459\n        /* \"#utility.yul\":9087:9094   */\n      dup5\n        /* \"#utility.yul\":9078:9084   */\n      dup3\n        /* \"#utility.yul\":9067:9076   */\n      dup6\n        /* \"#utility.yul\":9063:9085   */\n      add\n        /* \"#utility.yul\":9032:9095   */\n      tag_316\n      jump\t// in\n    tag_459:\n        /* \"#utility.yul\":9022:9095   */\n      swap2\n      pop\n        /* \"#utility.yul\":8818:9105   */\n      pop\n        /* \"#utility.yul\":8603:9112   */\n      swap3\n      swap2\n      pop\n      pop\n      jump\t// out\n        /* \"#utility.yul\":9118:9447   */\n    tag_95:\n        /* \"#utility.yul\":9177:9183   */\n      0x00\n        /* \"#utility.yul\":9226:9228   */\n      0x20\n        /* \"#utility.yul\":9214:9223   */\n      dup3\n        /* \"#utility.yul\":9205:9212   */\n      dup5\n        /* \"#utility.yul\":9201:9224   */\n      sub\n        /* \"#utility.yul\":9197:9229   */\n      slt\n        /* \"#utility.yul\":9194:9313   */\n      iszero\n      tag_461\n      jumpi\n        /* \"#utility.yul\":9232:9311   */\n      tag_462\n      tag_287\n      jump\t// in\n    tag_462:\n        /* \"#utility.yul\":9194:9313   */\n    tag_461:\n        /* \"#utility.yul\":9352:9353   */\n      0x00\n        /* \"#utility.yul\":9377:9430   */\n      tag_463\n        /* \"#utility.yul\":9422:9429   */\n      dup5\n        /* \"#utility.yul\":9413:9419   */\n      dup3\n        /* \"#utility.yul\":9402:9411   */\n      dup6\n        /* \"#utility.yul\":9398:9420   */\n      add\n        /* \"#utility.yul\":9377:9430   */\n      tag_306\n      jump\t// in\n    tag_463:\n        /* \"#utility.yul\":9367:9430   */\n      swap2\n      pop\n        /* \"#utility.yul\":9323:9440   */\n      pop\n        /* \"#utility.yul\":9118:9447   */\n      swap3\n      swap2\n      pop\n      pop\n      jump\t// out\n        /* \"#utility.yul\":9453:9569   */\n    tag_317:\n        /* \"#utility.yul\":9523:9544   */\n      tag_465\n        /* \"#utility.yul\":9538:9543   */\n      dup2\n        /* \"#utility.yul\":9523:9544   */\n      tag_292\n      jump\t// in\n    tag_465:\n        /* \"#utility.yul\":9516:9521   */\n      dup2\n        /* \"#utility.yul\":9513:9545   */\n      eq\n        /* \"#utility.yul\":9503:9563   */\n      tag_466\n      jumpi\n        /* \"#utility.yul\":9559:9560   */\n      0x00\n        /* \"#utility.yul\":9556:9557   */\n      dup1\n        /* \"#utility.yul\":9549:9561   */\n      revert\n        /* \"#utility.yul\":9503:9563   */\n    tag_466:\n        /* \"#utility.yul\":9453:9569   */\n      pop\n      jump\t// out\n        /* \"#utility.yul\":9575:9708   */\n    tag_318:\n        /* \"#utility.yul\":9618:9623   */\n      0x00\n        /* \"#utility.yul\":9656:9662   */\n      dup2\n        /* \"#utility.yul\":9643:9663   */\n      calldataload\n        /* \"#utility.yul\":9634:9663   */\n      swap1\n      pop\n        /* \"#utility.yul\":9672:9702   */\n      tag_468\n        /* \"#utility.yul\":9696:9701   */\n      dup2\n        /* \"#utility.yul\":9672:9702   */\n      tag_317\n      jump\t// in\n    tag_468:\n        /* \"#utility.yul\":9575:9708   */\n      swap3\n      swap2\n      pop\n      pop\n      jump\t// out\n        /* \"#utility.yul\":9714:10182   */\n    tag_116:\n        /* \"#utility.yul\":9779:9785   */\n      0x00\n        /* \"#utility.yul\":9787:9793   */\n      dup1\n        /* \"#utility.yul\":9836:9838   */\n      0x40\n        /* \"#utility.yul\":9824:9833   */\n      dup4\n        /* \"#utility.yul\":9815:9822   */\n      dup6\n        /* \"#utility.yul\":9811:9834   */\n      sub\n        /* \"#utility.yul\":9807:9839   */\n      slt\n        /* \"#utility.yul\":9804:9923   */\n      iszero\n      tag_470\n      jumpi\n        /* \"#utility.yul\":9842:9921   */\n      tag_471\n      tag_287\n      jump\t// in\n    tag_471:\n        /* \"#utility.yul\":9804:9923   */\n    tag_470:\n        /* \"#utility.yul\":9962:9963   */\n      0x00\n        /* \"#utility.yul\":9987:10040   */\n      tag_472\n        /* \"#utility.yul\":10032:10039   */\n      dup6\n        /* \"#utility.yul\":10023:10029   */\n      dup3\n        /* \"#utility.yul\":10012:10021   */\n      dup7\n        /* \"#utility.yul\":10008:10030   */\n      add\n        /* \"#utility.yul\":9987:10040   */\n      tag_306\n      jump\t// in\n    tag_472:\n        /* \"#utility.yul\":9977:10040   */\n      swap3\n      pop\n        /* \"#utility.yul\":9933:10050   */\n      pop\n        /* \"#utility.yul\":10089:10091   */\n      0x20\n        /* \"#utility.yul\":10115:10165   */\n      tag_473\n        /* \"#utility.yul\":10157:10164   */\n      dup6\n        /* \"#utility.yul\":10148:10154   */\n      dup3\n        /* \"#utility.yul\":10137:10146   */\n      dup7\n        /* \"#utility.yul\":10133:10155   */\n      add\n        /* \"#utility.yul\":10115:10165   */\n      tag_318\n      jump\t// in\n    tag_473:\n        /* \"#utility.yul\":10105:10165   */\n      swap2\n      pop\n        /* \"#utility.yul\":10060:10175   */\n      pop\n        /* \"#utility.yul\":9714:10182   */\n      swap3\n      pop\n      swap3\n      swap1\n      pop\n      jump\t// out\n        /* \"#utility.yul\":10188:10495   */\n    tag_319:\n        /* \"#utility.yul\":10249:10253   */\n      0x00\n        /* \"#utility.yul\":10339:10357   */\n      0xffffffffffffffff\n        /* \"#utility.yul\":10331:10337   */\n      dup3\n        /* \"#utility.yul\":10328:10358   */\n      gt\n        /* \"#utility.yul\":10325:10381   */\n      iszero\n      tag_475\n      jumpi\n        /* \"#utility.yul\":10361:10379   */\n      tag_476\n      tag_310\n      jump\t// in\n    tag_476:\n        /* \"#utility.yul\":10325:10381   */\n    tag_475:\n        /* \"#utility.yul\":10399:10428   */\n      tag_477\n        /* \"#utility.yul\":10421:10427   */\n      dup3\n        /* \"#utility.yul\":10399:10428   */\n      tag_297\n      jump\t// in\n    tag_477:\n        /* \"#utility.yul\":10391:10428   */\n      swap1\n      pop\n        /* \"#utility.yul\":10483:10487   */\n      0x20\n        /* \"#utility.yul\":10477:10481   */\n      dup2\n        /* \"#utility.yul\":10473:10488   */\n      add\n        /* \"#utility.yul\":10465:10488   */\n      swap1\n      pop\n        /* \"#utility.yul\":10188:10495   */\n      swap2\n      swap1\n      pop\n      jump\t// out\n        /* \"#utility.yul\":10501:10924   */\n    tag_320:\n        /* \"#utility.yul\":10578:10583   */\n      0x00\n        /* \"#utility.yul\":10603:10668   */\n      tag_479\n        /* \"#utility.yul\":10619:10667   */\n      tag_480\n        /* \"#utility.yul\":10660:10666   */\n      dup5\n        /* \"#utility.yul\":10619:10667   */\n      tag_319\n      jump\t// in\n    tag_480:\n        /* \"#utility.yul\":10603:10668   */\n      tag_312\n      jump\t// in\n    tag_479:\n        /* \"#utility.yul\":10594:10668   */\n      swap1\n      pop\n        /* \"#utility.yul\":10691:10697   */\n      dup3\n        /* \"#utility.yul\":10684:10689   */\n      dup2\n        /* \"#utility.yul\":10677:10698   */\n      mstore\n        /* \"#utility.yul\":10729:10733   */\n      0x20\n        /* \"#utility.yul\":10722:10727   */\n      dup2\n        /* \"#utility.yul\":10718:10734   */\n      add\n        /* \"#utility.yul\":10767:10770   */\n      dup5\n        /* \"#utility.yul\":10758:10764   */\n      dup5\n        /* \"#utility.yul\":10753:10756   */\n      dup5\n        /* \"#utility.yul\":10749:10765   */\n      add\n        /* \"#utility.yul\":10746:10771   */\n      gt\n        /* \"#utility.yul\":10743:10855   */\n      iszero\n      tag_481\n      jumpi\n        /* \"#utility.yul\":10774:10853   */\n      tag_482\n      tag_309\n      jump\t// in\n    tag_482:\n        /* \"#utility.yul\":10743:10855   */\n    tag_481:\n        /* \"#utility.yul\":10864:10918   */\n      tag_483\n        /* \"#utility.yul\":10911:10917   */\n      dup5\n        /* \"#utility.yul\":10906:10909   */\n      dup3\n        /* \"#utility.yul\":10901:10904   */\n      dup6\n        /* \"#utility.yul\":10864:10918   */\n      tag_314\n      jump\t// in\n    tag_483:\n        /* \"#utility.yul\":10584:10924   */\n      pop\n        /* \"#utility.yul\":10501:10924   */\n      swap4\n      swap3\n      pop\n      pop\n      pop\n      jump\t// out\n        /* \"#utility.yul\":10943:11281   */\n    tag_321:\n        /* \"#utility.yul\":10998:11003   */\n      0x00\n        /* \"#utility.yul\":11047:11050   */\n      dup3\n        /* \"#utility.yul\":11040:11044   */\n      0x1f\n        /* \"#utility.yul\":11032:11038   */\n      dup4\n        /* \"#utility.yul\":11028:11045   */\n      add\n        /* \"#utility.yul\":11024:11051   */\n      slt\n        /* \"#utility.yul\":11014:11136   */\n      tag_485\n      jumpi\n        /* \"#utility.yul\":11055:11134   */\n      tag_486\n      tag_308\n      jump\t// in\n    tag_486:\n        /* \"#utility.yul\":11014:11136   */\n    tag_485:\n        /* \"#utility.yul\":11172:11178   */\n      dup2\n        /* \"#utility.yul\":11159:11179   */\n      calldataload\n        /* \"#utility.yul\":11197:11275   */\n      tag_487\n        /* \"#utility.yul\":11271:11274   */\n      dup5\n        /* \"#utility.yul\":11263:11269   */\n      dup3\n        /* \"#utility.yul\":11256:11260   */\n      0x20\n        /* \"#utility.yul\":11248:11254   */\n      dup7\n        /* \"#utility.yul\":11244:11261   */\n      add\n        /* \"#utility.yul\":11197:11275   */\n      tag_320\n      jump\t// in\n    tag_487:\n        /* \"#utility.yul\":11188:11275   */\n      swap2\n      pop\n        /* \"#utility.yul\":11004:11281   */\n      pop\n        /* \"#utility.yul\":10943:11281   */\n      swap3\n      swap2\n      pop\n      pop\n      jump\t// out\n        /* \"#utility.yul\":11287:12230   */\n    tag_121:\n        /* \"#utility.yul\":11382:11388   */\n      0x00\n        /* \"#utility.yul\":11390:11396   */\n      dup1\n        /* \"#utility.yul\":11398:11404   */\n      0x00\n        /* \"#utility.yul\":11406:11412   */\n      dup1\n        /* \"#utility.yul\":11455:11458   */\n      0x80\n        /* \"#utility.yul\":11443:11452   */\n      dup6\n        /* \"#utility.yul\":11434:11441   */\n      dup8\n        /* \"#utility.yul\":11430:11453   */\n      sub\n        /* \"#utility.yul\":11426:11459   */\n      slt\n        /* \"#utility.yul\":11423:11543   */\n      iszero\n      tag_489\n      jumpi\n        /* \"#utility.yul\":11462:11541   */\n      tag_490\n      tag_287\n      jump\t// in\n    tag_490:\n        /* \"#utility.yul\":11423:11543   */\n    tag_489:\n        /* \"#utility.yul\":11582:11583   */\n      0x00\n        /* \"#utility.yul\":11607:11660   */\n      tag_491\n        /* \"#utility.yul\":11652:11659   */\n      dup8\n        /* \"#utility.yul\":11643:11649   */\n      dup3\n        /* \"#utility.yul\":11632:11641   */\n      dup9\n        /* \"#utility.yul\":11628:11650   */\n      add\n        /* \"#utility.yul\":11607:11660   */\n      tag_306\n      jump\t// in\n    tag_491:\n        /* \"#utility.yul\":11597:11660   */\n      swap5\n      pop\n        /* \"#utility.yul\":11553:11670   */\n      pop\n        /* \"#utility.yul\":11709:11711   */\n      0x20\n        /* \"#utility.yul\":11735:11788   */\n      tag_492\n        /* \"#utility.yul\":11780:11787   */\n      dup8\n        /* \"#utility.yul\":11771:11777   */\n      dup3\n        /* \"#utility.yul\":11760:11769   */\n      dup9\n        /* \"#utility.yul\":11756:11778   */\n      add\n        /* \"#utility.yul\":11735:11788   */\n      tag_306\n      jump\t// in\n    tag_492:\n        /* \"#utility.yul\":11725:11788   */\n      swap4\n      pop\n        /* \"#utility.yul\":11680:11798   */\n      pop\n        /* \"#utility.yul\":11837:11839   */\n      0x40\n        /* \"#utility.yul\":11863:11916   */\n      tag_493\n        /* \"#utility.yul\":11908:11915   */\n      dup8\n        /* \"#utility.yul\":11899:11905   */\n      dup3\n        /* \"#utility.yul\":11888:11897   */\n      dup9\n        /* \"#utility.yul\":11884:11906   */\n      add\n        /* \"#utility.yul\":11863:11916   */\n      tag_301\n      jump\t// in\n    tag_493:\n        /* \"#utility.yul\":11853:11916   */\n      swap3\n      pop\n        /* \"#utility.yul\":11808:11926   */\n      pop\n        /* \"#utility.yul\":11993:11995   */\n      0x60\n        /* \"#utility.yul\":11982:11991   */\n      dup6\n        /* \"#utility.yul\":11978:11996   */\n      add\n        /* \"#utility.yul\":11965:11997   */\n      calldataload\n        /* \"#utility.yul\":12024:12042   */\n      0xffffffffffffffff\n        /* \"#utility.yul\":12016:12022   */\n      dup2\n        /* \"#utility.yul\":12013:12043   */\n      gt\n        /* \"#utility.yul\":12010:12127   */\n      iszero\n      tag_494\n      jumpi\n        /* \"#utility.yul\":12046:12125   */\n      tag_495\n      tag_288\n      jump\t// in\n    tag_495:\n        /* \"#utility.yul\":12010:12127   */\n    tag_494:\n        /* \"#utility.yul\":12151:12213   */\n      tag_496\n        /* \"#utility.yul\":12205:12212   */\n      dup8\n        /* \"#utility.yul\":12196:12202   */\n      dup3\n        /* \"#utility.yul\":12185:12194   */\n      dup9\n        /* \"#utility.yul\":12181:12203   */\n      add\n        /* \"#utility.yul\":12151:12213   */\n      tag_321\n      jump\t// in\n    tag_496:\n        /* \"#utility.yul\":12141:12213   */\n      swap2\n      pop\n        /* \"#utility.yul\":11936:12223   */\n      pop\n        /* \"#utility.yul\":11287:12230   */\n      swap3\n      swap6\n      swap2\n      swap5\n      pop\n      swap3\n      pop\n      jump\t// out\n        /* \"#utility.yul\":12236:12710   */\n    tag_135:\n        /* \"#utility.yul\":12304:12310   */\n      0x00\n        /* \"#utility.yul\":12312:12318   */\n      dup1\n        /* \"#utility.yul\":12361:12363   */\n      0x40\n        /* \"#utility.yul\":12349:12358   */\n      dup4\n        /* \"#utility.yul\":12340:12347   */\n      dup6\n        /* \"#utility.yul\":12336:12359   */\n      sub\n        /* \"#utility.yul\":12332:12364   */\n      slt\n        /* \"#utility.yul\":12329:12448   */\n      iszero\n      tag_498\n      jumpi\n        /* \"#utility.yul\":12367:12446   */\n      tag_499\n      tag_287\n      jump\t// in\n    tag_499:\n        /* \"#utility.yul\":12329:12448   */\n    tag_498:\n        /* \"#utility.yul\":12487:12488   */\n      0x00\n        /* \"#utility.yul\":12512:12565   */\n      tag_500\n        /* \"#utility.yul\":12557:12564   */\n      dup6\n        /* \"#utility.yul\":12548:12554   */\n      dup3\n        /* \"#utility.yul\":12537:12546   */\n      dup7\n        /* \"#utility.yul\":12533:12555   */\n      add\n        /* \"#utility.yul\":12512:12565   */\n      tag_306\n      jump\t// in\n    tag_500:\n        /* \"#utility.yul\":12502:12565   */\n      swap3\n      pop\n        /* \"#utility.yul\":12458:12575   */\n      pop\n        /* \"#utility.yul\":12614:12616   */\n      0x20\n        /* \"#utility.yul\":12640:12693   */\n      tag_501\n        /* \"#utility.yul\":12685:12692   */\n      dup6\n        /* \"#utility.yul\":12676:12682   */\n      dup3\n        /* \"#utility.yul\":12665:12674   */\n      dup7\n        /* \"#utility.yul\":12661:12683   */\n      add\n        /* \"#utility.yul\":12640:12693   */\n      tag_306\n      jump\t// in\n    tag_501:\n        /* \"#utility.yul\":12630:12693   */\n      swap2\n      pop\n        /* \"#utility.yul\":12585:12703   */\n      pop\n        /* \"#utility.yul\":12236:12710   */\n      swap3\n      pop\n      swap3\n      swap1\n      pop\n      jump\t// out\n        /* \"#utility.yul\":12716:12896   */\n    tag_322:\n        /* \"#utility.yul\":12764:12841   */\n      0x4e487b7100000000000000000000000000000000000000000000000000000000\n        /* \"#utility.yul\":12761:12762   */\n      0x00\n        /* \"#utility.yul\":12754:12842   */\n      mstore\n        /* \"#utility.yul\":12861:12865   */\n      0x22\n        /* \"#utility.yul\":12858:12859   */\n      0x04\n        /* \"#utility.yul\":12851:12866   */\n      mstore\n        /* \"#utility.yul\":12885:12889   */\n      0x24\n        /* \"#utility.yul\":12882:12883   */\n      0x00\n        /* \"#utility.yul\":12875:12890   */\n      revert\n        /* \"#utility.yul\":12902:13222   */\n    tag_225:\n        /* \"#utility.yul\":12946:12952   */\n      0x00\n        /* \"#utility.yul\":12983:12984   */\n      0x02\n        /* \"#utility.yul\":12977:12981   */\n      dup3\n        /* \"#utility.yul\":12973:12985   */\n      div\n        /* \"#utility.yul\":12963:12985   */\n      swap1\n      pop\n        /* \"#utility.yul\":13030:13031   */\n      0x01\n        /* \"#utility.yul\":13024:13028   */\n      dup3\n        /* \"#utility.yul\":13020:13032   */\n      and\n        /* \"#utility.yul\":13051:13069   */\n      dup1\n        /* \"#utility.yul\":13041:13122   */\n      tag_504\n      jumpi\n        /* \"#utility.yul\":13107:13111   */\n      0x7f\n        /* \"#utility.yul\":13099:13105   */\n      dup3\n        /* \"#utility.yul\":13095:13112   */\n      and\n        /* \"#utility.yul\":13085:13112   */\n      swap2\n      pop\n        /* \"#utility.yul\":13041:13122   */\n    tag_504:\n        /* \"#utility.yul\":13169:13171   */\n      0x20\n        /* \"#utility.yul\":13161:13167   */\n      dup3\n        /* \"#utility.yul\":13158:13172   */\n      lt\n        /* \"#utility.yul\":13138:13156   */\n      dup2\n        /* \"#utility.yul\":13135:13173   */\n      sub\n        /* \"#utility.yul\":13132:13216   */\n      tag_505\n      jumpi\n        /* \"#utility.yul\":13188:13206   */\n      tag_506\n      tag_322\n      jump\t// in\n    tag_506:\n        /* \"#utility.yul\":13132:13216   */\n    tag_505:\n        /* \"#utility.yul\":12953:13222   */\n      pop\n        /* \"#utility.yul\":12902:13222   */\n      swap2\n      swap1\n      pop\n      jump\t// out\n        /* \"#utility.yul\":13228:13369   */\n    tag_323:\n        /* \"#utility.yul\":13277:13281   */\n      0x00\n        /* \"#utility.yul\":13300:13303   */\n      dup2\n        /* \"#utility.yul\":13292:13303   */\n      swap1\n      pop\n        /* \"#utility.yul\":13323:13326   */\n      dup2\n        /* \"#utility.yul\":13320:13321   */\n      0x00\n        /* \"#utility.yul\":13313:13327   */\n      mstore\n        /* \"#utility.yul\":13357:13361   */\n      0x20\n        /* \"#utility.yul\":13354:13355   */\n      0x00\n        /* \"#utility.yul\":13344:13362   */\n      keccak256\n        /* \"#utility.yul\":13336:13362   */\n      swap1\n      pop\n        /* \"#utility.yul\":13228:13369   */\n      swap2\n      swap1\n      pop\n      jump\t// out\n        /* \"#utility.yul\":13375:13468   */\n    tag_324:\n        /* \"#utility.yul\":13412:13418   */\n      0x00\n        /* \"#utility.yul\":13459:13461   */\n      0x20\n        /* \"#utility.yul\":13454:13456   */\n      0x1f\n        /* \"#utility.yul\":13447:13452   */\n      dup4\n        /* \"#utility.yul\":13443:13457   */\n      add\n        /* \"#utility.yul\":13439:13462   */\n      div\n        /* \"#utility.yul\":13429:13462   */\n      swap1\n      pop\n        /* \"#utility.yul\":13375:13468   */\n      swap2\n      swap1\n      pop\n      jump\t// out\n        /* \"#utility.yul\":13474:13581   */\n    tag_325:\n        /* \"#utility.yul\":13518:13526   */\n      0x00\n        /* \"#utility.yul\":13568:13573   */\n      dup3\n        /* \"#utility.yul\":13562:13566   */\n      dup3\n        /* \"#utility.yul\":13558:13574   */\n      shl\n        /* \"#utility.yul\":13537:13574   */\n      swap1\n      pop\n        /* \"#utility.yul\":13474:13581   */\n      swap3\n      swap2\n      pop\n      pop\n      jump\t// out\n        /* \"#utility.yul\":13587:13980   */\n    tag_326:\n        /* \"#utility.yul\":13656:13662   */\n      0x00\n        /* \"#utility.yul\":13706:13707   */\n      0x08\n        /* \"#utility.yul\":13694:13704   */\n      dup4\n        /* \"#utility.yul\":13690:13708   */\n      mul\n        /* \"#utility.yul\":13729:13826   */\n      tag_511\n        /* \"#utility.yul\":13759:13825   */\n      0xffffffffffffffffffffffffffffffffffffffffffffffffffffffffffffffff\n        /* \"#utility.yul\":13748:13757   */\n      dup3\n        /* \"#utility.yul\":13729:13826   */\n      tag_325\n      jump\t// in\n    tag_511:\n        /* \"#utility.yul\":13847:13886   */\n      tag_512\n        /* \"#utility.yul\":13877:13885   */\n      dup7\n        /* \"#utility.yul\":13866:13875   */\n      dup4\n        /* \"#utility.yul\":13847:13886   */\n      tag_325\n      jump\t// in\n    tag_512:\n        /* \"#utility.yul\":13835:13886   */\n      swap6\n      pop\n        /* \"#utility.yul\":13919:13923   */\n      dup1\n        /* \"#utility.yul\":13915:13924   */\n      not\n        /* \"#utility.yul\":13908:13913   */\n      dup5\n        /* \"#utility.yul\":13904:13925   */\n      and\n        /* \"#utility.yul\":13895:13925   */\n      swap4\n      pop\n        /* \"#utility.yul\":13968:13972   */\n      dup1\n        /* \"#utility.yul\":13958:13966   */\n      dup7\n        /* \"#utility.yul\":13954:13973   */\n      and\n        /* \"#utility.yul\":13947:13952   */\n      dup5\n        /* \"#utility.yul\":13944:13974   */\n      or\n        /* \"#utility.yul\":13934:13974   */\n      swap3\n      pop\n        /* \"#utility.yul\":13663:13980   */\n      pop\n      pop\n        /* \"#utility.yul\":13587:13980   */\n      swap4\n      swap3\n      pop\n      pop\n      pop\n      jump\t// out\n        /* \"#utility.yul\":13986:14046   */\n    tag_327:\n        /* \"#utility.yul\":14014:14017   */\n      0x00\n        /* \"#utility.yul\":14035:14040   */\n      dup2\n        /* \"#utility.yul\":14028:14040   */\n      swap1\n      pop\n        /* \"#utility.yul\":13986:14046   */\n      swap2\n      swap1\n      pop\n      jump\t// out\n        /* \"#utility.yul\":14052:14194   */\n    tag_328:\n        /* \"#utility.yul\":14102:14111   */\n      0x00\n        /* \"#utility.yul\":14135:14188   */\n      tag_515\n        /* \"#utility.yul\":14153:14187   */\n      tag_516\n        /* \"#utility.yul\":14162:14186   */\n      tag_517\n        /* \"#utility.yul\":14180:14185   */\n      dup5\n        /* \"#utility.yul\":14162:14186   */\n      tag_299\n      jump\t// in\n    tag_517:\n        /* \"#utility.yul\":14153:14187   */\n      tag_327\n      jump\t// in\n    tag_516:\n        /* \"#utility.yul\":14135:14188   */\n      tag_299\n      jump\t// in\n    tag_515:\n        /* \"#utility.yul\":14122:14188   */\n      swap1\n      pop\n        /* \"#utility.yul\":14052:14194   */\n      swap2\n      swap1\n      pop\n      jump\t// out\n        /* \"#utility.yul\":14200:14275   */\n    tag_329:\n        /* \"#utility.yul\":14243:14246   */\n      0x00\n        /* \"#utility.yul\":14264:14269   */\n      dup2\n        /* \"#utility.yul\":14257:14269   */\n      swap1\n      pop\n        /* \"#utility.yul\":14200:14275   */\n      swap2\n      swap1\n      pop\n      jump\t// out\n        /* \"#utility.yul\":14281:14550   */\n    tag_330:\n        /* \"#utility.yul\":14391:14430   */\n      tag_520\n        /* \"#utility.yul\":14422:14429   */\n      dup4\n        /* \"#utility.yul\":14391:14430   */\n      tag_328\n      jump\t// in\n    tag_520:\n        /* \"#utility.yul\":14452:14543   */\n      tag_521\n        /* \"#utility.yul\":14501:14542   */\n      tag_522\n        /* \"#utility.yul\":14525:14541   */\n      dup3\n        /* \"#utility.yul\":14501:14542   */\n      tag_329\n      jump\t// in\n    tag_522:\n        /* \"#utility.yul\":14493:14499   */\n      dup5\n        /* \"#utility.yul\":14486:14490   */\n      dup5\n        /* \"#utility.yul\":14480:14491   */\n      sload\n        /* \"#utility.yul\":14452:14543   */\n      tag_326\n      jump\t// in\n    tag_521:\n        /* \"#utility.yul\":14446:14450   */\n      dup3\n        /* \"#utility.yul\":14439:14544   */\n      sstore\n        /* \"#utility.yul\":14357:14550   */\n      pop\n        /* \"#utility.yul\":14281:14550   */\n      pop\n      pop\n      pop\n      jump\t// out\n        /* \"#utility.yul\":14556:14629   */\n    tag_331:\n        /* \"#utility.yul\":14601:14604   */\n      0x00\n        /* \"#utility.yul\":14556:14629   */\n      swap1\n      jump\t// out\n        /* \"#utility.yul\":14635:14824   */\n    tag_332:\n        /* \"#utility.yul\":14712:14744   */\n      tag_525\n      tag_331\n      jump\t// in\n    tag_525:\n        /* \"#utility.yul\":14753:14818   */\n      tag_526\n        /* \"#utility.yul\":14811:14817   */\n      dup2\n        /* \"#utility.yul\":14803:14809   */\n      dup5\n        /* \"#utility.yul\":14797:14801   */\n      dup5\n        /* \"#utility.yul\":14753:14818   */\n      tag_330\n      jump\t// in\n    tag_526:\n        /* \"#utility.yul\":14688:14824   */\n      pop\n        /* \"#utility.yul\":14635:14824   */\n      pop\n      pop\n      jump\t// out\n        /* \"#utility.yul\":14830:15016   */\n    tag_333:\n        /* \"#utility.yul\":14890:15010   */\n    tag_528:\n        /* \"#utility.yul\":14907:14910   */\n      dup2\n        /* \"#utility.yul\":14900:14905   */\n      dup2\n        /* \"#utility.yul\":14897:14911   */\n      lt\n        /* \"#utility.yul\":14890:15010   */\n      iszero\n      tag_530\n      jumpi\n        /* \"#utility.yul\":14961:15000   */\n      tag_531\n        /* \"#utility.yul\":14998:14999   */\n      0x00\n        /* \"#utility.yul\":14991:14996   */\n      dup3\n        /* \"#utility.yul\":14961:15000   */\n      tag_332\n      jump\t// in\n    tag_531:\n        /* \"#utility.yul\":14934:14935   */\n      0x01\n        /* \"#utility.yul\":14927:14932   */\n      dup2\n        /* \"#utility.yul\":14923:14936   */\n      add\n        /* \"#utility.yul\":14914:14936   */\n      swap1\n      pop\n        /* \"#utility.yul\":14890:15010   */\n      jump(tag_528)\n    tag_530:\n        /* \"#utility.yul\":14830:15016   */\n      pop\n      pop\n      jump\t// out\n        /* \"#utility.yul\":15022:15565   */\n    tag_334:\n        /* \"#utility.yul\":15123:15125   */\n      0x1f\n        /* \"#utility.yul\":15118:15121   */\n      dup3\n        /* \"#utility.yul\":15115:15126   */\n      gt\n        /* \"#utility.yul\":15112:15558   */\n      iszero\n      tag_533\n      jumpi\n        /* \"#utility.yul\":15157:15195   */\n      tag_534\n        /* \"#utility.yul\":15189:15194   */\n      dup2\n        /* \"#utility.yul\":15157:15195   */\n      tag_323\n      jump\t// in\n    tag_534:\n        /* \"#utility.yul\":15241:15270   */\n      tag_535\n        /* \"#utility.yul\":15259:15269   */\n      dup5\n        /* \"#utility.yul\":15241:15270   */\n      tag_324\n      jump\t// in\n    tag_535:\n        /* \"#utility.yul\":15231:15239   */\n      dup2\n        /* \"#utility.yul\":15227:15271   */\n      add\n        /* \"#utility.yul\":15424:15426   */\n      0x20\n        /* \"#utility.yul\":15412:15422   */\n      dup6\n        /* \"#utility.yul\":15409:15427   */\n      lt\n        /* \"#utility.yul\":15406:15455   */\n      iszero\n      tag_536\n      jumpi\n        /* \"#utility.yul\":15445:15453   */\n      dup2\n        /* \"#utility.yul\":15430:15453   */\n      swap1\n      pop\n        /* \"#utility.yul\":15406:15455   */\n    tag_536:\n        /* \"#utility.yul\":15468:15548   */\n      tag_537\n        /* \"#utility.yul\":15524:15546   */\n      tag_538\n        /* \"#utility.yul\":15542:15545   */\n      dup6\n        /* \"#utility.yul\":15524:15546   */\n      tag_324\n      jump\t// in\n    tag_538:\n        /* \"#utility.yul\":15514:15522   */\n      dup4\n        /* \"#utility.yul\":15510:15547   */\n      add\n        /* \"#utility.yul\":15497:15508   */\n      dup3\n        /* \"#utility.yul\":15468:15548   */\n      tag_333\n      jump\t// in\n    tag_537:\n        /* \"#utility.yul\":15127:15558   */\n      pop\n      pop\n        /* \"#utility.yul\":15112:15558   */\n    tag_533:\n        /* \"#utility.yul\":15022:15565   */\n      pop\n      pop\n      pop\n      jump\t// out\n        /* \"#utility.yul\":15571:15688   */\n    tag_335:\n        /* \"#utility.yul\":15625:15633   */\n      0x00\n        /* \"#utility.yul\":15675:15680   */\n      dup3\n        /* \"#utility.yul\":15669:15673   */\n      dup3\n        /* \"#utility.yul\":15665:15681   */\n      shr\n        /* \"#utility.yul\":15644:15681   */\n      swap1\n      pop\n        /* \"#utility.yul\":15571:15688   */\n      swap3\n      swap2\n      pop\n      pop\n      jump\t// out\n        /* \"#utility.yul\":15694:15863   */\n    tag_336:\n        /* \"#utility.yul\":15738:15744   */\n      0x00\n        /* \"#utility.yul\":15771:15822   */\n      tag_541\n        /* \"#utility.yul\":15819:15820   */\n      0x00\n        /* \"#utility.yul\":15815:15821   */\n      not\n        /* \"#utility.yul\":15807:15812   */\n      dup5\n        /* \"#utility.yul\":15804:15805   */\n      0x08\n        /* \"#utility.yul\":15800:15813   */\n      mul\n        /* \"#utility.yul\":15771:15822   */\n      tag_335\n      jump\t// in\n    tag_541:\n        /* \"#utility.yul\":15767:15823   */\n      not\n        /* \"#utility.yul\":15852:15856   */\n      dup1\n        /* \"#utility.yul\":15846:15850   */\n      dup4\n        /* \"#utility.yul\":15842:15857   */\n      and\n        /* \"#utility.yul\":15832:15857   */\n      swap2\n      pop\n        /* \"#utility.yul\":15745:15863   */\n      pop\n        /* \"#utility.yul\":15694:15863   */\n      swap3\n      swap2\n      pop\n      pop\n      jump\t// out\n        /* \"#utility.yul\":15868:16163   */\n    tag_337:\n        /* \"#utility.yul\":15944:15948   */\n      0x00\n        /* \"#utility.yul\":16090:16119   */\n      tag_543\n        /* \"#utility.yul\":16115:16118   */\n      dup4\n        /* \"#utility.yul\":16109:16113   */\n      dup4\n        /* \"#utility.yul\":16090:16119   */\n      tag_336\n      jump\t// in\n    tag_543:\n        /* \"#utility.yul\":16082:16119   */\n      swap2\n      pop\n        /* \"#utility.yul\":16152:16155   */\n      dup3\n        /* \"#utility.yul\":16149:16150   */\n      0x02\n        /* \"#utility.yul\":16145:16156   */\n      mul\n        /* \"#utility.yul\":16139:16143   */\n      dup3\n        /* \"#utility.yul\":16136:16157   */\n      or\n        /* \"#utility.yul\":16128:16157   */\n      swap1\n      pop\n        /* \"#utility.yul\":15868:16163   */\n      swap3\n      swap2\n      pop\n      pop\n      jump\t// out\n        /* \"#utility.yul\":16168:17563   */\n    tag_180:\n        /* \"#utility.yul\":16285:16322   */\n      tag_545\n        /* \"#utility.yul\":16318:16321   */\n      dup3\n        /* \"#utility.yul\":16285:16322   */\n      tag_294\n      jump\t// in\n    tag_545:\n        /* \"#utility.yul\":16387:16405   */\n      0xffffffffffffffff\n        /* \"#utility.yul\":16379:16385   */\n      dup2\n        /* \"#utility.yul\":16376:16406   */\n      gt\n        /* \"#utility.yul\":16373:16429   */\n      iszero\n      tag_546\n      jumpi\n        /* \"#utility.yul\":16409:16427   */\n      tag_547\n      tag_310\n      jump\t// in\n    tag_547:\n        /* \"#utility.yul\":16373:16429   */\n    tag_546:\n        /* \"#utility.yul\":16453:16491   */\n      tag_548\n        /* \"#utility.yul\":16485:16489   */\n      dup3\n        /* \"#utility.yul\":16479:16490   */\n      sload\n        /* \"#utility.yul\":16453:16491   */\n      tag_225\n      jump\t// in\n    tag_548:\n        /* \"#utility.yul\":16538:16605   */\n      tag_549\n        /* \"#utility.yul\":16598:16604   */\n      dup3\n        /* \"#utility.yul\":16590:16596   */\n      dup3\n        /* \"#utility.yul\":16584:16588   */\n      dup6\n        /* \"#utility.yul\":16538:16605   */\n      tag_334\n      jump\t// in\n    tag_549:\n        /* \"#utility.yul\":16632:16633   */\n      0x00\n        /* \"#utility.yul\":16656:16660   */\n      0x20\n        /* \"#utility.yul\":16643:16660   */\n      swap1\n      pop\n        /* \"#utility.yul\":16688:16690   */\n      0x1f\n        /* \"#utility.yul\":16680:16686   */\n      dup4\n        /* \"#utility.yul\":16677:16691   */\n      gt\n        /* \"#utility.yul\":16705:16706   */\n      0x01\n        /* \"#utility.yul\":16700:17318   */\n      dup2\n      eq\n      tag_551\n      jumpi\n        /* \"#utility.yul\":17362:17363   */\n      0x00\n        /* \"#utility.yul\":17379:17385   */\n      dup5\n        /* \"#utility.yul\":17376:17453   */\n      iszero\n      tag_552\n      jumpi\n        /* \"#utility.yul\":17428:17437   */\n      dup3\n        /* \"#utility.yul\":17423:17426   */\n      dup8\n        /* \"#utility.yul\":17419:17438   */\n      add\n        /* \"#utility.yul\":17413:17439   */\n      mload\n        /* \"#utility.yul\":17404:17439   */\n      swap1\n      pop\n        /* \"#utility.yul\":17376:17453   */\n    tag_552:\n        /* \"#utility.yul\":17479:17546   */\n      tag_553\n        /* \"#utility.yul\":17539:17545   */\n      dup6\n        /* \"#utility.yul\":17532:17537   */\n      dup3\n        /* \"#utility.yul\":17479:17546   */\n      tag_337\n      jump\t// in\n    tag_553:\n        /* \"#utility.yul\":17473:17477   */\n      dup7\n        /* \"#utility.yul\":17466:17547   */\n      sstore\n        /* \"#utility.yul\":17335:17557   */\n      pop\n        /* \"#utility.yul\":16670:17557   */\n      jump(tag_550)\n        /* \"#utility.yul\":16700:17318   */\n    tag_551:\n        /* \"#utility.yul\":16752:16756   */\n      0x1f\n        /* \"#utility.yul\":16748:16757   */\n      not\n        /* \"#utility.yul\":16740:16746   */\n      dup5\n        /* \"#utility.yul\":16736:16758   */\n      and\n        /* \"#utility.yul\":16786:16823   */\n      tag_554\n        /* \"#utility.yul\":16818:16822   */\n      dup7\n        /* \"#utility.yul\":16786:16823   */\n      tag_323\n      jump\t// in\n    tag_554:\n        /* \"#utility.yul\":16845:16846   */\n      0x00\n        /* \"#utility.yul\":16859:17067   */\n    tag_555:\n        /* \"#utility.yul\":16873:16880   */\n      dup3\n        /* \"#utility.yul\":16870:16871   */\n      dup2\n        /* \"#utility.yul\":16867:16881   */\n      lt\n        /* \"#utility.yul\":16859:17067   */\n      iszero\n      tag_557\n      jumpi\n        /* \"#utility.yul\":16952:16961   */\n      dup5\n        /* \"#utility.yul\":16947:16950   */\n      dup10\n        /* \"#utility.yul\":16943:16962   */\n      add\n        /* \"#utility.yul\":16937:16963   */\n      mload\n        /* \"#utility.yul\":16929:16935   */\n      dup3\n        /* \"#utility.yul\":16922:16964   */\n      sstore\n        /* \"#utility.yul\":17003:17004   */\n      0x01\n        /* \"#utility.yul\":16995:17001   */\n      dup3\n        /* \"#utility.yul\":16991:17005   */\n      add\n        /* \"#utility.yul\":16981:17005   */\n      swap2\n      pop\n        /* \"#utility.yul\":17050:17052   */\n      0x20\n        /* \"#utility.yul\":17039:17048   */\n      dup6\n        /* \"#utility.yul\":17035:17053   */\n      add\n        /* \"#utility.yul\":17022:17053   */\n      swap5\n      pop\n        /* \"#utility.yul\":16896:16900   */\n      0x20\n        /* \"#utility.yul\":16893:16894   */\n      dup2\n        /* \"#utility.yul\":16889:16901   */\n      add\n        /* \"#utility.yul\":16884:16901   */\n      swap1\n      pop\n        /* \"#utility.yul\":16859:17067   */\n      jump(tag_555)\n    tag_557:\n        /* \"#utility.yul\":17095:17101   */\n      dup7\n        /* \"#utility.yul\":17086:17093   */\n      dup4\n        /* \"#utility.yul\":17083:17102   */\n      lt\n        /* \"#utility.yul\":17080:17259   */\n      iszero\n      tag_558\n      jumpi\n        /* \"#utility.yul\":17153:17162   */\n      dup5\n        /* \"#utility.yul\":17148:17151   */\n      dup10\n        /* \"#utility.yul\":17144:17163   */\n      add\n        /* \"#utility.yul\":17138:17164   */\n      mload\n        /* \"#utility.yul\":17196:17244   */\n      tag_559\n        /* \"#utility.yul\":17238:17242   */\n      0x1f\n        /* \"#utility.yul\":17230:17236   */\n      dup10\n        /* \"#utility.yul\":17226:17243   */\n      and\n        /* \"#utility.yul\":17215:17224   */\n      dup3\n        /* \"#utility.yul\":17196:17244   */\n      tag_336\n      jump\t// in\n    tag_559:\n        /* \"#utility.yul\":17188:17194   */\n      dup4\n        /* \"#utility.yul\":17181:17245   */\n      sstore\n        /* \"#utility.yul\":17103:17259   */\n      pop\n        /* \"#utility.yul\":17080:17259   */\n    tag_558:\n        /* \"#utility.yul\":17305:17306   */\n      0x01\n        /* \"#utility.yul\":17301:17302   */\n      0x02\n        /* \"#utility.yul\":17293:17299   */\n      dup9\n        /* \"#utility.yul\":17289:17303   */\n      mul\n        /* \"#utility.yul\":17285:17307   */\n      add\n        /* \"#utility.yul\":17279:17283   */\n      dup9\n        /* \"#utility.yul\":17272:17308   */\n      sstore\n        /* \"#utility.yul\":16707:17318   */\n      pop\n      pop\n      pop\n        /* \"#utility.yul\":16670:17557   */\n    tag_550:\n      pop\n        /* \"#utility.yul\":16260:17563   */\n      pop\n      pop\n      pop\n        /* \"#utility.yul\":16168:17563   */\n      pop\n      pop\n      jump\t// out\n        /* \"#utility.yul\":17569:17749   */\n    tag_338:\n        /* \"#utility.yul\":17617:17694   */\n      0x4e487b7100000000000000000000000000000000000000000000000000000000\n        /* \"#utility.yul\":17614:17615   */\n      0x00\n        /* \"#utility.yul\":17607:17695   */\n      mstore\n        /* \"#utility.yul\":17714:17718   */\n      0x11\n        /* \"#utility.yul\":17711:17712   */\n      0x04\n        /* \"#utility.yul\":17704:17719   */\n      mstore\n        /* \"#utility.yul\":17738:17742   */\n      0x24\n        /* \"#utility.yul\":17735:17736   */\n      0x00\n        /* \"#utility.yul\":17728:17743   */\n      revert\n        /* \"#utility.yul\":17755:17946   */\n    tag_185:\n        /* \"#utility.yul\":17795:17798   */\n      0x00\n        /* \"#utility.yul\":17814:17834   */\n      tag_562\n        /* \"#utility.yul\":17832:17833   */\n      dup3\n        /* \"#utility.yul\":17814:17834   */\n      tag_299\n      jump\t// in\n    tag_562:\n        /* \"#utility.yul\":17809:17834   */\n      swap2\n      pop\n        /* \"#utility.yul\":17848:17868   */\n      tag_563\n        /* \"#utility.yul\":17866:17867   */\n      dup4\n        /* \"#utility.yul\":17848:17868   */\n      tag_299\n      jump\t// in\n    tag_563:\n        /* \"#utility.yul\":17843:17868   */\n      swap3\n      pop\n        /* \"#utility.yul\":17891:17892   */\n      dup3\n        /* \"#utility.yul\":17888:17889   */\n      dup3\n        /* \"#utility.yul\":17884:17893   */\n      add\n        /* \"#utility.yul\":17877:17893   */\n      swap1\n      pop\n        /* \"#utility.yul\":17912:17915   */\n      dup1\n        /* \"#utility.yul\":17909:17910   */\n      dup3\n        /* \"#utility.yul\":17906:17916   */\n      gt\n        /* \"#utility.yul\":17903:17939   */\n      iszero\n      tag_564\n      jumpi\n        /* \"#utility.yul\":17919:17937   */\n      tag_565\n      tag_338\n      jump\t// in\n    tag_565:\n        /* \"#utility.yul\":17903:17939   */\n    tag_564:\n        /* \"#utility.yul\":17755:17946   */\n      swap3\n      swap2\n      pop\n      pop\n      jump\t// out\n        /* \"#utility.yul\":17952:18118   */\n    tag_339:\n        /* \"#utility.yul\":18092:18110   */\n      0x467265656d696e7420536f6c644f757400000000000000000000000000000000\n        /* \"#utility.yul\":18088:18089   */\n      0x00\n        /* \"#utility.yul\":18080:18086   */\n      dup3\n        /* \"#utility.yul\":18076:18090   */\n      add\n        /* \"#utility.yul\":18069:18111   */\n      mstore\n        /* \"#utility.yul\":17952:18118   */\n      pop\n      jump\t// out\n        /* \"#utility.yul\":18124:18490   */\n    tag_340:\n        /* \"#utility.yul\":18266:18269   */\n      0x00\n        /* \"#utility.yul\":18287:18354   */\n      tag_568\n        /* \"#utility.yul\":18351:18353   */\n      0x10\n        /* \"#utility.yul\":18346:18349   */\n      dup4\n        /* \"#utility.yul\":18287:18354   */\n      tag_295\n      jump\t// in\n    tag_568:\n        /* \"#utility.yul\":18280:18354   */\n      swap2\n      pop\n        /* \"#utility.yul\":18363:18456   */\n      tag_569\n        /* \"#utility.yul\":18452:18455   */\n      dup3\n        /* \"#utility.yul\":18363:18456   */\n      tag_339\n      jump\t// in\n    tag_569:\n        /* \"#utility.yul\":18481:18483   */\n      0x20\n        /* \"#utility.yul\":18476:18479   */\n      dup3\n        /* \"#utility.yul\":18472:18484   */\n      add\n        /* \"#utility.yul\":18465:18484   */\n      swap1\n      pop\n        /* \"#utility.yul\":18124:18490   */\n      swap2\n      swap1\n      pop\n      jump\t// out\n        /* \"#utility.yul\":18496:18915   */\n    tag_188:\n        /* \"#utility.yul\":18662:18666   */\n      0x00\n        /* \"#utility.yul\":18700:18702   */\n      0x20\n        /* \"#utility.yul\":18689:18698   */\n      dup3\n        /* \"#utility.yul\":18685:18703   */\n      add\n        /* \"#utility.yul\":18677:18703   */\n      swap1\n      pop\n        /* \"#utility.yul\":18749:18758   */\n      dup2\n        /* \"#utility.yul\":18743:18747   */\n      dup2\n        /* \"#utility.yul\":18739:18759   */\n      sub\n        /* \"#utility.yul\":18735:18736   */\n      0x00\n        /* \"#utility.yul\":18724:18733   */\n      dup4\n        /* \"#utility.yul\":18720:18737   */\n      add\n        /* \"#utility.yul\":18713:18760   */\n      mstore\n        /* \"#utility.yul\":18777:18908   */\n      tag_571\n        /* \"#utility.yul\":18903:18907   */\n      dup2\n        /* \"#utility.yul\":18777:18908   */\n      tag_340\n      jump\t// in\n    tag_571:\n        /* \"#utility.yul\":18769:18908   */\n      swap1\n      pop\n        /* \"#utility.yul\":18496:18915   */\n      swap2\n      swap1\n      pop\n      jump\t// out\n        /* \"#utility.yul\":18921:19085   */\n    tag_341:\n        /* \"#utility.yul\":19061:19077   */\n      0x4d6178207065722057616c6c6574000000000000000000000000000000000000\n        /* \"#utility.yul\":19057:19058   */\n      0x00\n        /* \"#utility.yul\":19049:19055   */\n      dup3\n        /* \"#utility.yul\":19045:19059   */\n      add\n        /* \"#utility.yul\":19038:19078   */\n      mstore\n        /* \"#utility.yul\":18921:19085   */\n      pop\n      jump\t// out\n        /* \"#utility.yul\":19091:19457   */\n    tag_342:\n        /* \"#utility.yul\":19233:19236   */\n      0x00\n        /* \"#utility.yul\":19254:19321   */\n      tag_574\n        /* \"#utility.yul\":19318:19320   */\n      0x0e\n        /* \"#utility.yul\":19313:19316   */\n      dup4\n        /* \"#utility.yul\":19254:19321   */\n      tag_295\n      jump\t// in\n    tag_574:\n        /* \"#utility.yul\":19247:19321   */\n      swap2\n      pop\n        /* \"#utility.yul\":19330:19423   */\n      tag_575\n        /* \"#utility.yul\":19419:19422   */\n      dup3\n        /* \"#utility.yul\":19330:19423   */\n      tag_341\n      jump\t// in\n    tag_575:\n        /* \"#utility.yul\":19448:19450   */\n      0x20\n        /* \"#utility.yul\":19443:19446   */\n      dup3\n        /* \"#utility.yul\":19439:19451   */\n      add\n        /* \"#utility.yul\":19432:19451   */\n      swap1\n      pop\n        /* \"#utility.yul\":19091:19457   */\n      swap2\n      swap1\n      pop\n      jump\t// out\n        /* \"#utility.yul\":19463:19882   */\n    tag_194:\n        /* \"#utility.yul\":19629:19633   */\n      0x00\n        /* \"#utility.yul\":19667:19669   */\n      0x20\n        /* \"#utility.yul\":19656:19665   */\n      dup3\n        /* \"#utility.yul\":19652:19670   */\n      add\n        /* \"#utility.yul\":19644:19670   */\n      swap1\n      pop\n        /* \"#utility.yul\":19716:19725   */\n      dup2\n        /* \"#utility.yul\":19710:19714   */\n      dup2\n        /* \"#utility.yul\":19706:19726   */\n      sub\n        /* \"#utility.yul\":19702:19703   */\n      0x00\n        /* \"#utility.yul\":19691:19700   */\n      dup4\n        /* \"#utility.yul\":19687:19704   */\n      add\n        /* \"#utility.yul\":19680:19727   */\n      mstore\n        /* \"#utility.yul\":19744:19875   */\n      tag_577\n        /* \"#utility.yul\":19870:19874   */\n      dup2\n        /* \"#utility.yul\":19744:19875   */\n      tag_342\n      jump\t// in\n    tag_577:\n        /* \"#utility.yul\":19736:19875   */\n      swap1\n      pop\n        /* \"#utility.yul\":19463:19882   */\n      swap2\n      swap1\n      pop\n      jump\t// out\n        /* \"#utility.yul\":19888:20045   */\n    tag_343:\n        /* \"#utility.yul\":20028:20037   */\n      0x536f6c644f757400000000000000000000000000000000000000000000000000\n        /* \"#utility.yul\":20024:20025   */\n      0x00\n        /* \"#utility.yul\":20016:20022   */\n      dup3\n        /* \"#utility.yul\":20012:20026   */\n      add\n        /* \"#utility.yul\":20005:20038   */\n      mstore\n        /* \"#utility.yul\":19888:20045   */\n      pop\n      jump\t// out\n        /* \"#utility.yul\":20051:20416   */\n    tag_344:\n        /* \"#utility.yul\":20193:20196   */\n      0x00\n        /* \"#utility.yul\":20214:20280   */\n      tag_580\n        /* \"#utility.yul\":20278:20279   */\n      0x07\n        /* \"#utility.yul\":20273:20276   */\n      dup4\n        /* \"#utility.yul\":20214:20280   */\n      tag_295\n      jump\t// in\n    tag_580:\n        /* \"#utility.yul\":20207:20280   */\n      swap2\n      pop\n        /* \"#utility.yul\":20289:20382   */\n      tag_581\n        /* \"#utility.yul\":20378:20381   */\n      dup3\n        /* \"#utility.yul\":20289:20382   */\n      tag_343\n      jump\t// in\n    tag_581:\n        /* \"#utility.yul\":20407:20409   */\n      0x20\n        /* \"#utility.yul\":20402:20405   */\n      dup3\n        /* \"#utility.yul\":20398:20410   */\n      add\n        /* \"#utility.yul\":20391:20410   */\n      swap1\n      pop\n        /* \"#utility.yul\":20051:20416   */\n      swap2\n      swap1\n      pop\n      jump\t// out\n        /* \"#utility.yul\":20422:20841   */\n    tag_211:\n        /* \"#utility.yul\":20588:20592   */\n      0x00\n        /* \"#utility.yul\":20626:20628   */\n      0x20\n        /* \"#utility.yul\":20615:20624   */\n      dup3\n        /* \"#utility.yul\":20611:20629   */\n      add\n        /* \"#utility.yul\":20603:20629   */\n      swap1\n      pop\n        /* \"#utility.yul\":20675:20684   */\n      dup2\n        /* \"#utility.yul\":20669:20673   */\n      dup2\n        /* \"#utility.yul\":20665:20685   */\n      sub\n        /* \"#utility.yul\":20661:20662   */\n      0x00\n        /* \"#utility.yul\":20650:20659   */\n      dup4\n        /* \"#utility.yul\":20646:20663   */\n      add\n        /* \"#utility.yul\":20639:20686   */\n      mstore\n        /* \"#utility.yul\":20703:20834   */\n      tag_583\n        /* \"#utility.yul\":20829:20833   */\n      dup2\n        /* \"#utility.yul\":20703:20834   */\n      tag_344\n      jump\t// in\n    tag_583:\n        /* \"#utility.yul\":20695:20834   */\n      swap1\n      pop\n        /* \"#utility.yul\":20422:20841   */\n      swap2\n      swap1\n      pop\n      jump\t// out\n        /* \"#utility.yul\":20847:20995   */\n    tag_345:\n        /* \"#utility.yul\":20949:20960   */\n      0x00\n        /* \"#utility.yul\":20986:20989   */\n      dup2\n        /* \"#utility.yul\":20971:20989   */\n      swap1\n      pop\n        /* \"#utility.yul\":20847:20995   */\n      swap3\n      swap2\n      pop\n      pop\n      jump\t// out\n        /* \"#utility.yul\":21001:21162   */\n    tag_346:\n        /* \"#utility.yul\":21141:21150   */\n      0x697066733a2f2f00000000000000000000000000000000000000000000000000\n        /* \"#utility.yul\":21137:21138   */\n      0x00\n        /* \"#utility.yul\":21129:21135   */\n      dup3\n        /* \"#utility.yul\":21125:21139   */\n      add\n        /* \"#utility.yul\":21118:21151   */\n      mstore\n        /* \"#utility.yul\":21001:21162   */\n      pop\n      jump\t// out\n        /* \"#utility.yul\":21172:21588   */\n    tag_347:\n        /* \"#utility.yul\":21332:21335   */\n      0x00\n        /* \"#utility.yul\":21357:21441   */\n      tag_587\n        /* \"#utility.yul\":21439:21440   */\n      0x07\n        /* \"#utility.yul\":21434:21437   */\n      dup4\n        /* \"#utility.yul\":21357:21441   */\n      tag_345\n      jump\t// in\n    tag_587:\n        /* \"#utility.yul\":21350:21441   */\n      swap2\n      pop\n        /* \"#utility.yul\":21454:21547   */\n      tag_588\n        /* \"#utility.yul\":21543:21546   */\n      dup3\n        /* \"#utility.yul\":21454:21547   */\n      tag_346\n      jump\t// in\n    tag_588:\n        /* \"#utility.yul\":21576:21577   */\n      0x07\n        /* \"#utility.yul\":21571:21574   */\n      dup3\n        /* \"#utility.yul\":21567:21578   */\n      add\n        /* \"#utility.yul\":21560:21578   */\n      swap1\n      pop\n        /* \"#utility.yul\":21172:21588   */\n      swap2\n      swap1\n      pop\n      jump\t// out\n        /* \"#utility.yul\":21598:22008   */\n    tag_348:\n        /* \"#utility.yul\":21704:21707   */\n      0x00\n        /* \"#utility.yul\":21736:21775   */\n      tag_590\n        /* \"#utility.yul\":21769:21774   */\n      dup3\n        /* \"#utility.yul\":21736:21775   */\n      tag_294\n      jump\t// in\n    tag_590:\n        /* \"#utility.yul\":21795:21884   */\n      tag_591\n        /* \"#utility.yul\":21877:21883   */\n      dup2\n        /* \"#utility.yul\":21872:21875   */\n      dup6\n        /* \"#utility.yul\":21795:21884   */\n      tag_345\n      jump\t// in\n    tag_591:\n        /* \"#utility.yul\":21788:21884   */\n      swap4\n      pop\n        /* \"#utility.yul\":21897:21962   */\n      tag_592\n        /* \"#utility.yul\":21955:21961   */\n      dup2\n        /* \"#utility.yul\":21950:21953   */\n      dup6\n        /* \"#utility.yul\":21943:21947   */\n      0x20\n        /* \"#utility.yul\":21936:21941   */\n      dup7\n        /* \"#utility.yul\":21932:21948   */\n      add\n        /* \"#utility.yul\":21897:21962   */\n      tag_296\n      jump\t// in\n    tag_592:\n        /* \"#utility.yul\":21991:21997   */\n      dup1\n        /* \"#utility.yul\":21986:21989   */\n      dup5\n        /* \"#utility.yul\":21982:21998   */\n      add\n        /* \"#utility.yul\":21975:21998   */\n      swap2\n      pop\n        /* \"#utility.yul\":21708:22008   */\n      pop\n        /* \"#utility.yul\":21598:22008   */\n      swap3\n      swap2\n      pop\n      pop\n      jump\t// out\n        /* \"#utility.yul\":22018:22177   */\n    tag_349:\n        /* \"#utility.yul\":22162:22165   */\n      0x2f00000000000000000000000000000000000000000000000000000000000000\n        /* \"#utility.yul\":22158:22159   */\n      0x00\n        /* \"#utility.yul\":22150:22156   */\n      dup3\n        /* \"#utility.yul\":22146:22160   */\n      add\n        /* \"#utility.yul\":22139:22166   */\n      mstore\n        /* \"#utility.yul\":22018:22177   */\n      pop\n      jump\t// out\n        /* \"#utility.yul\":22187:22603   */\n    tag_350:\n        /* \"#utility.yul\":22347:22350   */\n      0x00\n        /* \"#utility.yul\":22372:22456   */\n      tag_595\n        /* \"#utility.yul\":22454:22455   */\n      0x01\n        /* \"#utility.yul\":22449:22452   */\n      dup4\n        /* \"#utility.yul\":22372:22456   */\n      tag_345\n      jump\t// in\n    tag_595:\n        /* \"#utility.yul\":22365:22456   */\n      swap2\n      pop\n        /* \"#utility.yul\":22469:22562   */\n      tag_596\n        /* \"#utility.yul\":22558:22561   */\n      dup3\n        /* \"#utility.yul\":22469:22562   */\n      tag_349\n      jump\t// in\n    tag_596:\n        /* \"#utility.yul\":22591:22592   */\n      0x01\n        /* \"#utility.yul\":22586:22589   */\n      dup3\n        /* \"#utility.yul\":22582:22593   */\n      add\n        /* \"#utility.yul\":22575:22593   */\n      swap1\n      pop\n        /* \"#utility.yul\":22187:22603   */\n      swap2\n      swap1\n      pop\n      jump\t// out\n        /* \"#utility.yul\":22613:22776   */\n    tag_351:\n        /* \"#utility.yul\":22757:22764   */\n      0x2e6a736f6e000000000000000000000000000000000000000000000000000000\n        /* \"#utility.yul\":22753:22754   */\n      0x00\n        /* \"#utility.yul\":22745:22751   */\n      dup3\n        /* \"#utility.yul\":22741:22755   */\n      add\n        /* \"#utility.yul\":22734:22765   */\n      mstore\n        /* \"#utility.yul\":22613:22776   */\n      pop\n      jump\t// out\n        /* \"#utility.yul\":22786:23202   */\n    tag_352:\n        /* \"#utility.yul\":22946:22949   */\n      0x00\n        /* \"#utility.yul\":22971:23055   */\n      tag_599\n        /* \"#utility.yul\":23053:23054   */\n      0x05\n        /* \"#utility.yul\":23048:23051   */\n      dup4\n        /* \"#utility.yul\":22971:23055   */\n      tag_345\n      jump\t// in\n    tag_599:\n        /* \"#utility.yul\":22964:23055   */\n      swap2\n      pop\n        /* \"#utility.yul\":23068:23161   */\n      tag_600\n        /* \"#utility.yul\":23157:23160   */\n      dup3\n        /* \"#utility.yul\":23068:23161   */\n      tag_351\n      jump\t// in\n    tag_600:\n        /* \"#utility.yul\":23190:23191   */\n      0x05\n        /* \"#utility.yul\":23185:23188   */\n      dup3\n        /* \"#utility.yul\":23181:23192   */\n      add\n        /* \"#utility.yul\":23174:23192   */\n      swap1\n      pop\n        /* \"#utility.yul\":22786:23202   */\n      swap2\n      swap1\n      pop\n      jump\t// out\n        /* \"#utility.yul\":23212:24473   */\n    tag_235:\n        /* \"#utility.yul\":23695:23698   */\n      0x00\n        /* \"#utility.yul\":23721:23869   */\n      tag_602\n        /* \"#utility.yul\":23865:23868   */\n      dup3\n        /* \"#utility.yul\":23721:23869   */\n      tag_347\n      jump\t// in\n    tag_602:\n        /* \"#utility.yul\":23714:23869   */\n      swap2\n      pop\n        /* \"#utility.yul\":23890:23985   */\n      tag_603\n        /* \"#utility.yul\":23981:23984   */\n      dup3\n        /* \"#utility.yul\":23972:23978   */\n      dup6\n        /* \"#utility.yul\":23890:23985   */\n      tag_348\n      jump\t// in\n    tag_603:\n        /* \"#utility.yul\":23883:23985   */\n      swap2\n      pop\n        /* \"#utility.yul\":24006:24154   */\n      tag_604\n        /* \"#utility.yul\":24150:24153   */\n      dup3\n        /* \"#utility.yul\":24006:24154   */\n      tag_350\n      jump\t// in\n    tag_604:\n        /* \"#utility.yul\":23999:24154   */\n      swap2\n      pop\n        /* \"#utility.yul\":24175:24270   */\n      tag_605\n        /* \"#utility.yul\":24266:24269   */\n      dup3\n        /* \"#utility.yul\":24257:24263   */\n      dup5\n        /* \"#utility.yul\":24175:24270   */\n      tag_348\n      jump\t// in\n    tag_605:\n        /* \"#utility.yul\":24168:24270   */\n      swap2\n      pop\n        /* \"#utility.yul\":24291:24439   */\n      tag_606\n        /* \"#utility.yul\":24435:24438   */\n      dup3\n        /* \"#utility.yul\":24291:24439   */\n      tag_352\n      jump\t// in\n    tag_606:\n        /* \"#utility.yul\":24284:24439   */\n      swap2\n      pop\n        /* \"#utility.yul\":24460:24463   */\n      dup2\n        /* \"#utility.yul\":24453:24463   */\n      swap1\n      pop\n        /* \"#utility.yul\":23212:24473   */\n      swap4\n      swap3\n      pop\n      pop\n      pop\n      jump\t// out\n\n    auxdata: 0xa264697066735822122014ccfe16452d287ccc44ff8a994722171c80404962b739717c606c6f81a50e0964736f6c63430008110033\n}\n",
				"bytecode": {
					"linkReferences": {},
					"object": "608060405261029a600155600160025566038d7ea4c680006003556040518060600160405280602e8152602001620027ae602e91396004908162000044919062000318565b5060006005553480156200005757600080fd5b50336000806101000a81548173ffffffffffffffffffffffffffffffffffffffff021916908373ffffffffffffffffffffffffffffffffffffffff160217905550620003ff565b600081519050919050565b7f4e487b7100000000000000000000000000000000000000000000000000000000600052604160045260246000fd5b7f4e487b7100000000000000000000000000000000000000000000000000000000600052602260045260246000fd5b600060028204905060018216806200012057607f821691505b602082108103620001365762000135620000d8565b5b50919050565b60008190508160005260206000209050919050565b60006020601f8301049050919050565b600082821b905092915050565b600060088302620001a07fffffffffffffffffffffffffffffffffffffffffffffffffffffffffffffffff8262000161565b620001ac868362000161565b95508019841693508086168417925050509392505050565b6000819050919050565b6000819050919050565b6000620001f9620001f3620001ed84620001c4565b620001ce565b620001c4565b9050919050565b6000819050919050565b6200021583620001d8565b6200022d620002248262000200565b8484546200016e565b825550505050565b600090565b6200024462000235565b620002518184846200020a565b505050565b5b8181101562000279576200026d6000826200023a565b60018101905062000257565b5050565b601f821115620002c85762000292816200013c565b6200029d8462000151565b81016020851015620002ad578190505b620002c5620002bc8562000151565b83018262000256565b50505b505050565b600082821c905092915050565b6000620002ed60001984600802620002cd565b1980831691505092915050565b6000620003088383620002da565b9150826002028217905092915050565b62000323826200009e565b67ffffffffffffffff8111156200033f576200033e620000a9565b5b6200034b825462000107565b620003588282856200027d565b600060209050601f8311600181146200039057600084156200037b578287015190505b620003878582620002fa565b865550620003f7565b601f198416620003a0866200013c565b60005b82811015620003ca57848901518255600182019150602085019450602081019050620003a3565b86831015620003ea5784890151620003e6601f891682620002da565b8355505b6001600288020188555050505b505050505050565b61239f806200040f6000396000f3fe60806040526004361061014b5760003560e01c80636352211e116100b6578063a22cb4651161006f578063a22cb4651461045d578063b88d4fde14610486578063bf8fbbd2146104af578063c87b56dd146104da578063e985e9c514610517578063ed6661c2146105545761014b565b80636352211e1461034657806370a08231146103835780638da5cb5b146103c057806395d89b41146103eb57806398710d1e14610416578063a0712d68146104415761014b565b806323b872dd1161010857806323b872dd1461027257806332cb6b0c1461029b5780633ccfd60b146102c657806342842e0e146102dd57806347064d6a146103065780635b70ea9f1461032f5761014b565b806301ffc9a71461015057806306fdde031461018d578063081812fc146101b8578063095ea7b3146101f5578063129ee21a1461021e57806318160ddd14610247575b600080fd5b34801561015c57600080fd5b50610177600480360381019061017291906116f4565b61057f565b604051610184919061173c565b60405180910390f35b34801561019957600080fd5b506101a2610611565b6040516101af91906117e7565b60405180910390f35b3480156101c457600080fd5b506101df60048036038101906101da919061183f565b61064e565b6040516101ec91906118ad565b60405180910390f35b34801561020157600080fd5b5061021c600480360381019061021791906118f4565b6106ca565b005b34801561022a57600080fd5b5061024560048036038101906102409190611934565b610843565b005b34801561025357600080fd5b5061025c6108b5565b6040516102699190611996565b60405180910390f35b34801561027e57600080fd5b50610299600480360381019061029491906119b1565b6108c8565b005b3480156102a757600080fd5b506102b06108d8565b6040516102bd9190611996565b60405180910390f35b3480156102d257600080fd5b506102db6108de565b005b3480156102e957600080fd5b5061030460048036038101906102ff91906119b1565b610985565b005b34801561031257600080fd5b5061032d60048036038101906103289190611b39565b6109a5565b005b34801561033b57600080fd5b50610344610a10565b005b34801561035257600080fd5b5061036d6004803603810190610368919061183f565b610adf565b60405161037a91906118ad565b60405180910390f35b34801561038f57600080fd5b506103aa60048036038101906103a59190611b82565b610af1565b6040516103b79190611996565b60405180910390f35b3480156103cc57600080fd5b506103d5610b85565b6040516103e291906118ad565b60405180910390f35b3480156103f757600080fd5b50610400610bae565b60405161040d91906117e7565b60405180910390f35b34801561042257600080fd5b5061042b610beb565b6040516104389190611996565b60405180910390f35b61045b6004803603810190610456919061183f565b610bf1565b005b34801561046957600080fd5b50610484600480360381019061047f9190611bdb565b610c62565b005b34801561049257600080fd5b506104ad60048036038101906104a89190611cbc565b610dd9565b005b3480156104bb57600080fd5b506104c4610dea565b6040516104d19190611996565b60405180910390f35b3480156104e657600080fd5b5061050160048036038101906104fc919061183f565b610df0565b60405161050e91906117e7565b60405180910390f35b34801561052357600080fd5b5061053e60048036038101906105399190611d3f565b610f11565b60405161054b919061173c565b60405180910390f35b34801561056057600080fd5b50610569610fa5565b6040516105769190611996565b60405180910390f35b60006301ffc9a760e01b827bffffffffffffffffffffffffffffffffffffffffffffffffffffffff191614806105da57506380ac58cd60e01b827bffffffffffffffffffffffffffffffffffffffffffffffffffffffff1916145b8061060a5750635b5e139f60e01b827bffffffffffffffffffffffffffffffffffffffffffffffffffffffff1916145b9050919050565b60606040518060400160405280600d81526020017f4170657320556e73686176656400000000000000000000000000000000000000815250905090565b600061065982610fab565b61068f576040517fcf4700e400000000000000000000000000000000000000000000000000000000815260040160405180910390fd5b6008600083815260200190815260200160002060009054906101000a900473ffffffffffffffffffffffffffffffffffffffff169050919050565b60006106d582610fcc565b90508073ffffffffffffffffffffffffffffffffffffffff168373ffffffffffffffffffffffffffffffffffffffff160361070f57600080fd5b8073ffffffffffffffffffffffffffffffffffffffff1661072e611098565b73ffffffffffffffffffffffffffffffffffffffff16146107915761075a81610755611098565b610f11565b610790576040517fcfb3b94200000000000000000000000000000000000000000000000000000000815260040160405180910390fd5b5b826008600084815260200190815260200160002060006101000a81548173ffffffffffffffffffffffffffffffffffffffff021916908373ffffffffffffffffffffffffffffffffffffffff160217905550818373ffffffffffffffffffffffffffffffffffffffff168273ffffffffffffffffffffffffffffffffffffffff167f8c5be1e5ebec7d5bd14f71427d1e84f3dd0314c0f7b2291e5b200ac8c7c3b92560405160405180910390a4505050565b3373ffffffffffffffffffffffffffffffffffffffff1660008054906101000a900473ffffffffffffffffffffffffffffffffffffffff1673ffffffffffffffffffffffffffffffffffffffff161461089b57600080fd5b826002819055508160038190555080600181905550505050565b60006108bf6110a0565b60055403905090565b6108d38383836110a5565b505050565b6103ca81565b3373ffffffffffffffffffffffffffffffffffffffff1660008054906101000a900473ffffffffffffffffffffffffffffffffffffffff1673ffffffffffffffffffffffffffffffffffffffff161461093657600080fd5b60004790503373ffffffffffffffffffffffffffffffffffffffff166108fc829081150290604051600060405180830381858888f19350505050158015610981573d6000803e3d6000fd5b5050565b6109a083838360405180602001604052806000815250610dd9565b505050565b3373ffffffffffffffffffffffffffffffffffffffff1660008054906101000a900473ffffffffffffffffffffffffffffffffffffffff1673ffffffffffffffffffffffffffffffffffffffff16146109fd57600080fd5b8060049081610a0c9190611f8b565b5050565b6000610a1a611098565b905060006001905060015481610a2e6108b5565b610a38919061208c565b1115610a79576040517f08c379a0000000000000000000000000000000000000000000000000000000008152600401610a709061210c565b60405180910390fd5b600254610a858361141b565b82610a90919061208c565b1115610ad1576040517f08c379a0000000000000000000000000000000000000000000000000000000008152600401610ac890612178565b60405180910390fd5b610adb8282611472565b5050565b6000610aea82610fcc565b9050919050565b600080610afd83611614565b03610b34576040517f8f4eb60400000000000000000000000000000000000000000000000000000000815260040160405180910390fd5b67ffffffffffffffff600760008473ffffffffffffffffffffffffffffffffffffffff1673ffffffffffffffffffffffffffffffffffffffff16815260200190815260200160002054169050919050565b60008060009054906101000a900473ffffffffffffffffffffffffffffffffffffffff16905090565b60606040518060400160405280600b81526020017f415045554e534841564544000000000000000000000000000000000000000000815250905090565b60025481565b6000610bfb611098565b90506103ca82610c096108b5565b610c13919061208c565b1115610c54576040517f08c379a0000000000000000000000000000000000000000000000000000000008152600401610c4b906121e4565b60405180910390fd5b610c5e8183611472565b5050565b610c6a611098565b73ffffffffffffffffffffffffffffffffffffffff168273ffffffffffffffffffffffffffffffffffffffff1603610cce576040517fb06307db00000000000000000000000000000000000000000000000000000000815260040160405180910390fd5b8060096000610cdb611098565b73ffffffffffffffffffffffffffffffffffffffff1673ffffffffffffffffffffffffffffffffffffffff16815260200190815260200160002060008473ffffffffffffffffffffffffffffffffffffffff1673ffffffffffffffffffffffffffffffffffffffff16815260200190815260200160002060006101000a81548160ff0219169083151502179055508173ffffffffffffffffffffffffffffffffffffffff16610d88611098565b73ffffffffffffffffffffffffffffffffffffffff167f17307eab39ab6107e8899845ad3d59bd9653f200f220920489ca2b5937696c3183604051610dcd919061173c565b60405180910390a35050565b610de48484846110a5565b50505050565b60035481565b6060610dfb82610fab565b610e31576040517fa14c4b5000000000000000000000000000000000000000000000000000000000815260040160405180910390fd5b600060048054610e4090611dae565b80601f0160208091040260200160405190810160405280929190818152602001828054610e6c90611dae565b8015610eb95780601f10610e8e57610100808354040283529160200191610eb9565b820191906000526020600020905b815481529060010190602001808311610e9c57829003601f168201915b505050505090506000815103610ede5760405180602001604052806000815250610f09565b80610ee88461161e565b604051602001610ef9929190612324565b6040516020818303038152906040525b915050919050565b6000600960008473ffffffffffffffffffffffffffffffffffffffff1673ffffffffffffffffffffffffffffffffffffffff16815260200190815260200160002060008373ffffffffffffffffffffffffffffffffffffffff1673ffffffffffffffffffffffffffffffffffffffff16815260200190815260200160002060009054906101000a900460ff16905092915050565b60015481565b600081610fb66110a0565b11158015610fc5575060055482105b9050919050565b60008082905080610fdb6110a0565b11611061576005548110156110605760006006600083815260200190815260200160002054905060007c010000000000000000000000000000000000000000000000000000000082160361105e575b6000810361105457600660008360019003935083815260200190815260200160002054905061102a565b8092505050611093565b505b5b6040517fdf2d9b4200000000000000000000000000000000000000000000000000000000815260040160405180910390fd5b919050565b600033905090565b600090565b60006110b082610fcc565b90508373ffffffffffffffffffffffffffffffffffffffff168173ffffffffffffffffffffffffffffffffffffffff1614611117576040517fa114810000000000000000000000000000000000000000000000000000000000815260040160405180910390fd5b60006008600084815260200190815260200160002060009054906101000a900473ffffffffffffffffffffffffffffffffffffffff16905060008573ffffffffffffffffffffffffffffffffffffffff16611170611098565b73ffffffffffffffffffffffffffffffffffffffff16148061119f575061119e86611199611098565b610f11565b5b806111dc57506111ad611098565b73ffffffffffffffffffffffffffffffffffffffff168273ffffffffffffffffffffffffffffffffffffffff16145b905080611215576040517f59c896be00000000000000000000000000000000000000000000000000000000815260040160405180910390fd5b600061122083611614565b1461125c576008600085815260200190815260200160002060006101000a81549073ffffffffffffffffffffffffffffffffffffffff02191690555b600760008773ffffffffffffffffffffffffffffffffffffffff1673ffffffffffffffffffffffffffffffffffffffff168152602001908152602001600020600081546001900391905081905550600760008673ffffffffffffffffffffffffffffffffffffffff1673ffffffffffffffffffffffffffffffffffffffff16815260200190815260200160002060008154600101919050819055507c020000000000000000000000000000000000000000000000000000000060a042901b61132387611614565b1717600660008681526020019081526020016000208190555060007c02000000000000000000000000000000000000000000000000000000008416036113ab57600060018501905060006006600083815260200190815260200160002054036113a95760055481146113a8578360066000838152602001908152602001600020819055505b5b505b838573ffffffffffffffffffffffffffffffffffffffff168773ffffffffffffffffffffffffffffffffffffffff167fddf252ad1be2c89b69c2b068fc378daa952ba7f163c4a11628f55a4df523b3ef60405160405180910390a46114138686866001611678565b505050505050565b600067ffffffffffffffff6040600760008573ffffffffffffffffffffffffffffffffffffffff1673ffffffffffffffffffffffffffffffffffffffff16815260200190815260200160002054901c169050919050565b60006005549050600061148484611614565b036114bb576040517f2e07630000000000000000000000000000000000000000000000000000000000815260040160405180910390fd5b600082036114f5576040517fb562e8dd00000000000000000000000000000000000000000000000000000000815260040160405180910390fd5b600160406001901b178202600760008573ffffffffffffffffffffffffffffffffffffffff1673ffffffffffffffffffffffffffffffffffffffff1681526020019081526020016000206000828254019250508190555060e161155a6001841461167e565b901b60a042901b61156a85611614565b171760066000838152602001908152602001600020819055506000819050600083820190505b818060010192508573ffffffffffffffffffffffffffffffffffffffff16600073ffffffffffffffffffffffffffffffffffffffff167fddf252ad1be2c89b69c2b068fc378daa952ba7f163c4a11628f55a4df523b3ef60405160405180910390a48082106115905781600581905550505061160f6000848385611678565b505050565b6000819050919050565b60606080604051019050806040528082600183039250600a81066030018353600a810490505b801561166457600183039250600a81066030018353600a81049050611644565b508181036020830392508083525050919050565b50505050565b6000819050919050565b6000604051905090565b600080fd5b600080fd5b60007fffffffff0000000000000000000000000000000000000000000000000000000082169050919050565b6116d18161169c565b81146116dc57600080fd5b50565b6000813590506116ee816116c8565b92915050565b60006020828403121561170a57611709611692565b5b6000611718848285016116df565b91505092915050565b60008115159050919050565b61173681611721565b82525050565b6000602082019050611751600083018461172d565b92915050565b600081519050919050565b600082825260208201905092915050565b60005b83811015611791578082015181840152602081019050611776565b60008484015250505050565b6000601f19601f8301169050919050565b60006117b982611757565b6117c38185611762565b93506117d3818560208601611773565b6117dc8161179d565b840191505092915050565b6000602082019050818103600083015261180181846117ae565b905092915050565b6000819050919050565b61181c81611809565b811461182757600080fd5b50565b60008135905061183981611813565b92915050565b60006020828403121561185557611854611692565b5b60006118638482850161182a565b91505092915050565b600073ffffffffffffffffffffffffffffffffffffffff82169050919050565b60006118978261186c565b9050919050565b6118a78161188c565b82525050565b60006020820190506118c2600083018461189e565b92915050565b6118d18161188c565b81146118dc57600080fd5b50565b6000813590506118ee816118c8565b92915050565b6000806040838503121561190b5761190a611692565b5b6000611919858286016118df565b925050602061192a8582860161182a565b9150509250929050565b60008060006060848603121561194d5761194c611692565b5b600061195b8682870161182a565b935050602061196c8682870161182a565b925050604061197d8682870161182a565b9150509250925092565b61199081611809565b82525050565b60006020820190506119ab6000830184611987565b92915050565b6000806000606084860312156119ca576119c9611692565b5b60006119d8868287016118df565b93505060206119e9868287016118df565b92505060406119fa8682870161182a565b9150509250925092565b600080fd5b600080fd5b7f4e487b7100000000000000000000000000000000000000000000000000000000600052604160045260246000fd5b611a468261179d565b810181811067ffffffffffffffff82111715611a6557611a64611a0e565b5b80604052505050565b6000611a78611688565b9050611a848282611a3d565b919050565b600067ffffffffffffffff821115611aa457611aa3611a0e565b5b611aad8261179d565b9050602081019050919050565b82818337600083830152505050565b6000611adc611ad784611a89565b611a6e565b905082815260208101848484011115611af857611af7611a09565b5b611b03848285611aba565b509392505050565b600082601f830112611b2057611b1f611a04565b5b8135611b30848260208601611ac9565b91505092915050565b600060208284031215611b4f57611b4e611692565b5b600082013567ffffffffffffffff811115611b6d57611b6c611697565b5b611b7984828501611b0b565b91505092915050565b600060208284031215611b9857611b97611692565b5b6000611ba6848285016118df565b91505092915050565b611bb881611721565b8114611bc357600080fd5b50565b600081359050611bd581611baf565b92915050565b60008060408385031215611bf257611bf1611692565b5b6000611c00858286016118df565b9250506020611c1185828601611bc6565b9150509250929050565b600067ffffffffffffffff821115611c3657611c35611a0e565b5b611c3f8261179d565b9050602081019050919050565b6000611c5f611c5a84611c1b565b611a6e565b905082815260208101848484011115611c7b57611c7a611a09565b5b611c86848285611aba565b509392505050565b600082601f830112611ca357611ca2611a04565b5b8135611cb3848260208601611c4c565b91505092915050565b60008060008060808587031215611cd657611cd5611692565b5b6000611ce4878288016118df565b9450506020611cf5878288016118df565b9350506040611d068782880161182a565b925050606085013567ffffffffffffffff811115611d2757611d26611697565b5b611d3387828801611c8e565b91505092959194509250565b60008060408385031215611d5657611d55611692565b5b6000611d64858286016118df565b9250506020611d75858286016118df565b9150509250929050565b7f4e487b7100000000000000000000000000000000000000000000000000000000600052602260045260246000fd5b60006002820490506001821680611dc657607f821691505b602082108103611dd957611dd8611d7f565b5b50919050565b60008190508160005260206000209050919050565b60006020601f8301049050919050565b600082821b905092915050565b600060088302611e417fffffffffffffffffffffffffffffffffffffffffffffffffffffffffffffffff82611e04565b611e4b8683611e04565b95508019841693508086168417925050509392505050565b6000819050919050565b6000611e88611e83611e7e84611809565b611e63565b611809565b9050919050565b6000819050919050565b611ea283611e6d565b611eb6611eae82611e8f565b848454611e11565b825550505050565b600090565b611ecb611ebe565b611ed6818484611e99565b505050565b5b81811015611efa57611eef600082611ec3565b600181019050611edc565b5050565b601f821115611f3f57611f1081611ddf565b611f1984611df4565b81016020851015611f28578190505b611f3c611f3485611df4565b830182611edb565b50505b505050565b600082821c905092915050565b6000611f6260001984600802611f44565b1980831691505092915050565b6000611f7b8383611f51565b9150826002028217905092915050565b611f9482611757565b67ffffffffffffffff811115611fad57611fac611a0e565b5b611fb78254611dae565b611fc2828285611efe565b600060209050601f831160018114611ff55760008415611fe3578287015190505b611fed8582611f6f565b865550612055565b601f19841661200386611ddf565b60005b8281101561202b57848901518255600182019150602085019450602081019050612006565b868310156120485784890151612044601f891682611f51565b8355505b6001600288020188555050505b505050505050565b7f4e487b7100000000000000000000000000000000000000000000000000000000600052601160045260246000fd5b600061209782611809565b91506120a283611809565b92508282019050808211156120ba576120b961205d565b5b92915050565b7f467265656d696e7420536f6c644f757400000000000000000000000000000000600082015250565b60006120f6601083611762565b9150612101826120c0565b602082019050919050565b60006020820190508181036000830152612125816120e9565b9050919050565b7f4d6178207065722057616c6c6574000000000000000000000000000000000000600082015250565b6000612162600e83611762565b915061216d8261212c565b602082019050919050565b6000602082019050818103600083015261219181612155565b9050919050565b7f536f6c644f757400000000000000000000000000000000000000000000000000600082015250565b60006121ce600783611762565b91506121d982612198565b602082019050919050565b600060208201905081810360008301526121fd816121c1565b9050919050565b600081905092915050565b7f697066733a2f2f00000000000000000000000000000000000000000000000000600082015250565b6000612245600783612204565b91506122508261220f565b600782019050919050565b600061226682611757565b6122708185612204565b9350612280818560208601611773565b80840191505092915050565b7f2f00000000000000000000000000000000000000000000000000000000000000600082015250565b60006122c2600183612204565b91506122cd8261228c565b600182019050919050565b7f2e6a736f6e000000000000000000000000000000000000000000000000000000600082015250565b600061230e600583612204565b9150612319826122d8565b600582019050919050565b600061232f82612238565b915061233b828561225b565b9150612346826122b5565b9150612352828461225b565b915061235d82612301565b9150819050939250505056fea264697066735822122014ccfe16452d287ccc44ff8a994722171c80404962b739717c606c6f81a50e0964736f6c63430008110033516d58537665725876447453674b6143716d74696f5043724b3471576d636155485662544e436d62454265564a64",
					"opcodes": "PUSH1 0x80 PUSH1 0x40 MSTORE PUSH2 0x29A PUSH1 0x1 SSTORE PUSH1 0x1 PUSH1 0x2 SSTORE PUSH7 0x38D7EA4C68000 PUSH1 0x3 SSTORE PUSH1 0x40 MLOAD DUP1 PUSH1 0x60 ADD PUSH1 0x40 MSTORE DUP1 PUSH1 0x2E DUP2 MSTORE PUSH1 0x20 ADD PUSH3 0x27AE PUSH1 0x2E SWAP2 CODECOPY PUSH1 0x4 SWAP1 DUP2 PUSH3 0x44 SWAP2 SWAP1 PUSH3 0x318 JUMP JUMPDEST POP PUSH1 0x0 PUSH1 0x5 SSTORE CALLVALUE DUP1 ISZERO PUSH3 0x57 JUMPI PUSH1 0x0 DUP1 REVERT JUMPDEST POP CALLER PUSH1 0x0 DUP1 PUSH2 0x100 EXP DUP2 SLOAD DUP2 PUSH20 0xFFFFFFFFFFFFFFFFFFFFFFFFFFFFFFFFFFFFFFFF MUL NOT AND SWAP1 DUP4 PUSH20 0xFFFFFFFFFFFFFFFFFFFFFFFFFFFFFFFFFFFFFFFF AND MUL OR SWAP1 SSTORE POP PUSH3 0x3FF JUMP JUMPDEST PUSH1 0x0 DUP2 MLOAD SWAP1 POP SWAP2 SWAP1 POP JUMP JUMPDEST PUSH32 0x4E487B7100000000000000000000000000000000000000000000000000000000 PUSH1 0x0 MSTORE PUSH1 0x41 PUSH1 0x4 MSTORE PUSH1 0x24 PUSH1 0x0 REVERT JUMPDEST PUSH32 0x4E487B7100000000000000000000000000000000000000000000000000000000 PUSH1 0x0 MSTORE PUSH1 0x22 PUSH1 0x4 MSTORE PUSH1 0x24 PUSH1 0x0 REVERT JUMPDEST PUSH1 0x0 PUSH1 0x2 DUP3 DIV SWAP1 POP PUSH1 0x1 DUP3 AND DUP1 PUSH3 0x120 JUMPI PUSH1 0x7F DUP3 AND SWAP2 POP JUMPDEST PUSH1 0x20 DUP3 LT DUP2 SUB PUSH3 0x136 JUMPI PUSH3 0x135 PUSH3 0xD8 JUMP JUMPDEST JUMPDEST POP SWAP2 SWAP1 POP JUMP JUMPDEST PUSH1 0x0 DUP2 SWAP1 POP DUP2 PUSH1 0x0 MSTORE PUSH1 0x20 PUSH1 0x0 KECCAK256 SWAP1 POP SWAP2 SWAP1 POP JUMP JUMPDEST PUSH1 0x0 PUSH1 0x20 PUSH1 0x1F DUP4 ADD DIV SWAP1 POP SWAP2 SWAP1 POP JUMP JUMPDEST PUSH1 0x0 DUP3 DUP3 SHL SWAP1 POP SWAP3 SWAP2 POP POP JUMP JUMPDEST PUSH1 0x0 PUSH1 0x8 DUP4 MUL PUSH3 0x1A0 PUSH32 0xFFFFFFFFFFFFFFFFFFFFFFFFFFFFFFFFFFFFFFFFFFFFFFFFFFFFFFFFFFFFFFFF DUP3 PUSH3 0x161 JUMP JUMPDEST PUSH3 0x1AC DUP7 DUP4 PUSH3 0x161 JUMP JUMPDEST SWAP6 POP DUP1 NOT DUP5 AND SWAP4 POP DUP1 DUP7 AND DUP5 OR SWAP3 POP POP POP SWAP4 SWAP3 POP POP POP JUMP JUMPDEST PUSH1 0x0 DUP2 SWAP1 POP SWAP2 SWAP1 POP JUMP JUMPDEST PUSH1 0x0 DUP2 SWAP1 POP SWAP2 SWAP1 POP JUMP JUMPDEST PUSH1 0x0 PUSH3 0x1F9 PUSH3 0x1F3 PUSH3 0x1ED DUP5 PUSH3 0x1C4 JUMP JUMPDEST PUSH3 0x1CE JUMP JUMPDEST PUSH3 0x1C4 JUMP JUMPDEST SWAP1 POP SWAP2 SWAP1 POP JUMP JUMPDEST PUSH1 0x0 DUP2 SWAP1 POP SWAP2 SWAP1 POP JUMP JUMPDEST PUSH3 0x215 DUP4 PUSH3 0x1D8 JUMP JUMPDEST PUSH3 0x22D PUSH3 0x224 DUP3 PUSH3 0x200 JUMP JUMPDEST DUP5 DUP5 SLOAD PUSH3 0x16E JUMP JUMPDEST DUP3 SSTORE POP POP POP POP JUMP JUMPDEST PUSH1 0x0 SWAP1 JUMP JUMPDEST PUSH3 0x244 PUSH3 0x235 JUMP JUMPDEST PUSH3 0x251 DUP2 DUP5 DUP5 PUSH3 0x20A JUMP JUMPDEST POP POP POP JUMP JUMPDEST JUMPDEST DUP2 DUP2 LT ISZERO PUSH3 0x279 JUMPI PUSH3 0x26D PUSH1 0x0 DUP3 PUSH3 0x23A JUMP JUMPDEST PUSH1 0x1 DUP2 ADD SWAP1 POP PUSH3 0x257 JUMP JUMPDEST POP POP JUMP JUMPDEST PUSH1 0x1F DUP3 GT ISZERO PUSH3 0x2C8 JUMPI PUSH3 0x292 DUP2 PUSH3 0x13C JUMP JUMPDEST PUSH3 0x29D DUP5 PUSH3 0x151 JUMP JUMPDEST DUP2 ADD PUSH1 0x20 DUP6 LT ISZERO PUSH3 0x2AD JUMPI DUP2 SWAP1 POP JUMPDEST PUSH3 0x2C5 PUSH3 0x2BC DUP6 PUSH3 0x151 JUMP JUMPDEST DUP4 ADD DUP3 PUSH3 0x256 JUMP JUMPDEST POP POP JUMPDEST POP POP POP JUMP JUMPDEST PUSH1 0x0 DUP3 DUP3 SHR SWAP1 POP SWAP3 SWAP2 POP POP JUMP JUMPDEST PUSH1 0x0 PUSH3 0x2ED PUSH1 0x0 NOT DUP5 PUSH1 0x8 MUL PUSH3 0x2CD JUMP JUMPDEST NOT DUP1 DUP4 AND SWAP2 POP POP SWAP3 SWAP2 POP POP JUMP JUMPDEST PUSH1 0x0 PUSH3 0x308 DUP4 DUP4 PUSH3 0x2DA JUMP JUMPDEST SWAP2 POP DUP3 PUSH1 0x2 MUL DUP3 OR SWAP1 POP SWAP3 SWAP2 POP POP JUMP JUMPDEST PUSH3 0x323 DUP3 PUSH3 0x9E JUMP JUMPDEST PUSH8 0xFFFFFFFFFFFFFFFF DUP2 GT ISZERO PUSH3 0x33F JUMPI PUSH3 0x33E PUSH3 0xA9 JUMP JUMPDEST JUMPDEST PUSH3 0x34B DUP3 SLOAD PUSH3 0x107 JUMP JUMPDEST PUSH3 0x358 DUP3 DUP3 DUP6 PUSH3 0x27D JUMP JUMPDEST PUSH1 0x0 PUSH1 0x20 SWAP1 POP PUSH1 0x1F DUP4 GT PUSH1 0x1 DUP2 EQ PUSH3 0x390 JUMPI PUSH1 0x0 DUP5 ISZERO PUSH3 0x37B JUMPI DUP3 DUP8 ADD MLOAD SWAP1 POP JUMPDEST PUSH3 0x387 DUP6 DUP3 PUSH3 0x2FA JUMP JUMPDEST DUP7 SSTORE POP PUSH3 0x3F7 JUMP JUMPDEST PUSH1 0x1F NOT DUP5 AND PUSH3 0x3A0 DUP7 PUSH3 0x13C JUMP JUMPDEST PUSH1 0x0 JUMPDEST DUP3 DUP2 LT ISZERO PUSH3 0x3CA JUMPI DUP5 DUP10 ADD MLOAD DUP3 SSTORE PUSH1 0x1 DUP3 ADD SWAP2 POP PUSH1 0x20 DUP6 ADD SWAP5 POP PUSH1 0x20 DUP2 ADD SWAP1 POP PUSH3 0x3A3 JUMP JUMPDEST DUP7 DUP4 LT ISZERO PUSH3 0x3EA JUMPI DUP5 DUP10 ADD MLOAD PUSH3 0x3E6 PUSH1 0x1F DUP10 AND DUP3 PUSH3 0x2DA JUMP JUMPDEST DUP4 SSTORE POP JUMPDEST PUSH1 0x1 PUSH1 0x2 DUP9 MUL ADD DUP9 SSTORE POP POP POP JUMPDEST POP POP POP POP POP POP JUMP JUMPDEST PUSH2 0x239F DUP1 PUSH3 0x40F PUSH1 0x0 CODECOPY PUSH1 0x0 RETURN INVALID PUSH1 0x80 PUSH1 0x40 MSTORE PUSH1 0x4 CALLDATASIZE LT PUSH2 0x14B JUMPI PUSH1 0x0 CALLDATALOAD PUSH1 0xE0 SHR DUP1 PUSH4 0x6352211E GT PUSH2 0xB6 JUMPI DUP1 PUSH4 0xA22CB465 GT PUSH2 0x6F JUMPI DUP1 PUSH4 0xA22CB465 EQ PUSH2 0x45D JUMPI DUP1 PUSH4 0xB88D4FDE EQ PUSH2 0x486 JUMPI DUP1 PUSH4 0xBF8FBBD2 EQ PUSH2 0x4AF JUMPI DUP1 PUSH4 0xC87B56DD EQ PUSH2 0x4DA JUMPI DUP1 PUSH4 0xE985E9C5 EQ PUSH2 0x517 JUMPI DUP1 PUSH4 0xED6661C2 EQ PUSH2 0x554 JUMPI PUSH2 0x14B JUMP JUMPDEST DUP1 PUSH4 0x6352211E EQ PUSH2 0x346 JUMPI DUP1 PUSH4 0x70A08231 EQ PUSH2 0x383 JUMPI DUP1 PUSH4 0x8DA5CB5B EQ PUSH2 0x3C0 JUMPI DUP1 PUSH4 0x95D89B41 EQ PUSH2 0x3EB JUMPI DUP1 PUSH4 0x98710D1E EQ PUSH2 0x416 JUMPI DUP1 PUSH4 0xA0712D68 EQ PUSH2 0x441 JUMPI PUSH2 0x14B JUMP JUMPDEST DUP1 PUSH4 0x23B872DD GT PUSH2 0x108 JUMPI DUP1 PUSH4 0x23B872DD EQ PUSH2 0x272 JUMPI DUP1 PUSH4 0x32CB6B0C EQ PUSH2 0x29B JUMPI DUP1 PUSH4 0x3CCFD60B EQ PUSH2 0x2C6 JUMPI DUP1 PUSH4 0x42842E0E EQ PUSH2 0x2DD JUMPI DUP1 PUSH4 0x47064D6A EQ PUSH2 0x306 JUMPI DUP1 PUSH4 0x5B70EA9F EQ PUSH2 0x32F JUMPI PUSH2 0x14B JUMP JUMPDEST DUP1 PUSH4 0x1FFC9A7 EQ PUSH2 0x150 JUMPI DUP1 PUSH4 0x6FDDE03 EQ PUSH2 0x18D JUMPI DUP1 PUSH4 0x81812FC EQ PUSH2 0x1B8 JUMPI DUP1 PUSH4 0x95EA7B3 EQ PUSH2 0x1F5 JUMPI DUP1 PUSH4 0x129EE21A EQ PUSH2 0x21E JUMPI DUP1 PUSH4 0x18160DDD EQ PUSH2 0x247 JUMPI JUMPDEST PUSH1 0x0 DUP1 REVERT JUMPDEST CALLVALUE DUP1 ISZERO PUSH2 0x15C JUMPI PUSH1 0x0 DUP1 REVERT JUMPDEST POP PUSH2 0x177 PUSH1 0x4 DUP1 CALLDATASIZE SUB DUP2 ADD SWAP1 PUSH2 0x172 SWAP2 SWAP1 PUSH2 0x16F4 JUMP JUMPDEST PUSH2 0x57F JUMP JUMPDEST PUSH1 0x40 MLOAD PUSH2 0x184 SWAP2 SWAP1 PUSH2 0x173C JUMP JUMPDEST PUSH1 0x40 MLOAD DUP1 SWAP2 SUB SWAP1 RETURN JUMPDEST CALLVALUE DUP1 ISZERO PUSH2 0x199 JUMPI PUSH1 0x0 DUP1 REVERT JUMPDEST POP PUSH2 0x1A2 PUSH2 0x611 JUMP JUMPDEST PUSH1 0x40 MLOAD PUSH2 0x1AF SWAP2 SWAP1 PUSH2 0x17E7 JUMP JUMPDEST PUSH1 0x40 MLOAD DUP1 SWAP2 SUB SWAP1 RETURN JUMPDEST CALLVALUE DUP1 ISZERO PUSH2 0x1C4 JUMPI PUSH1 0x0 DUP1 REVERT JUMPDEST POP PUSH2 0x1DF PUSH1 0x4 DUP1 CALLDATASIZE SUB DUP2 ADD SWAP1 PUSH2 0x1DA SWAP2 SWAP1 PUSH2 0x183F JUMP JUMPDEST PUSH2 0x64E JUMP JUMPDEST PUSH1 0x40 MLOAD PUSH2 0x1EC SWAP2 SWAP1 PUSH2 0x18AD JUMP JUMPDEST PUSH1 0x40 MLOAD DUP1 SWAP2 SUB SWAP1 RETURN JUMPDEST CALLVALUE DUP1 ISZERO PUSH2 0x201 JUMPI PUSH1 0x0 DUP1 REVERT JUMPDEST POP PUSH2 0x21C PUSH1 0x4 DUP1 CALLDATASIZE SUB DUP2 ADD SWAP1 PUSH2 0x217 SWAP2 SWAP1 PUSH2 0x18F4 JUMP JUMPDEST PUSH2 0x6CA JUMP JUMPDEST STOP JUMPDEST CALLVALUE DUP1 ISZERO PUSH2 0x22A JUMPI PUSH1 0x0 DUP1 REVERT JUMPDEST POP PUSH2 0x245 PUSH1 0x4 DUP1 CALLDATASIZE SUB DUP2 ADD SWAP1 PUSH2 0x240 SWAP2 SWAP1 PUSH2 0x1934 JUMP JUMPDEST PUSH2 0x843 JUMP JUMPDEST STOP JUMPDEST CALLVALUE DUP1 ISZERO PUSH2 0x253 JUMPI PUSH1 0x0 DUP1 REVERT JUMPDEST POP PUSH2 0x25C PUSH2 0x8B5 JUMP JUMPDEST PUSH1 0x40 MLOAD PUSH2 0x269 SWAP2 SWAP1 PUSH2 0x1996 JUMP JUMPDEST PUSH1 0x40 MLOAD DUP1 SWAP2 SUB SWAP1 RETURN JUMPDEST CALLVALUE DUP1 ISZERO PUSH2 0x27E JUMPI PUSH1 0x0 DUP1 REVERT JUMPDEST POP PUSH2 0x299 PUSH1 0x4 DUP1 CALLDATASIZE SUB DUP2 ADD SWAP1 PUSH2 0x294 SWAP2 SWAP1 PUSH2 0x19B1 JUMP JUMPDEST PUSH2 0x8C8 JUMP JUMPDEST STOP JUMPDEST CALLVALUE DUP1 ISZERO PUSH2 0x2A7 JUMPI PUSH1 0x0 DUP1 REVERT JUMPDEST POP PUSH2 0x2B0 PUSH2 0x8D8 JUMP JUMPDEST PUSH1 0x40 MLOAD PUSH2 0x2BD SWAP2 SWAP1 PUSH2 0x1996 JUMP JUMPDEST PUSH1 0x40 MLOAD DUP1 SWAP2 SUB SWAP1 RETURN JUMPDEST CALLVALUE DUP1 ISZERO PUSH2 0x2D2 JUMPI PUSH1 0x0 DUP1 REVERT JUMPDEST POP PUSH2 0x2DB PUSH2 0x8DE JUMP JUMPDEST STOP JUMPDEST CALLVALUE DUP1 ISZERO PUSH2 0x2E9 JUMPI PUSH1 0x0 DUP1 REVERT JUMPDEST POP PUSH2 0x304 PUSH1 0x4 DUP1 CALLDATASIZE SUB DUP2 ADD SWAP1 PUSH2 0x2FF SWAP2 SWAP1 PUSH2 0x19B1 JUMP JUMPDEST PUSH2 0x985 JUMP JUMPDEST STOP JUMPDEST CALLVALUE DUP1 ISZERO PUSH2 0x312 JUMPI PUSH1 0x0 DUP1 REVERT JUMPDEST POP PUSH2 0x32D PUSH1 0x4 DUP1 CALLDATASIZE SUB DUP2 ADD SWAP1 PUSH2 0x328 SWAP2 SWAP1 PUSH2 0x1B39 JUMP JUMPDEST PUSH2 0x9A5 JUMP JUMPDEST STOP JUMPDEST CALLVALUE DUP1 ISZERO PUSH2 0x33B JUMPI PUSH1 0x0 DUP1 REVERT JUMPDEST POP PUSH2 0x344 PUSH2 0xA10 JUMP JUMPDEST STOP JUMPDEST CALLVALUE DUP1 ISZERO PUSH2 0x352 JUMPI PUSH1 0x0 DUP1 REVERT JUMPDEST POP PUSH2 0x36D PUSH1 0x4 DUP1 CALLDATASIZE SUB DUP2 ADD SWAP1 PUSH2 0x368 SWAP2 SWAP1 PUSH2 0x183F JUMP JUMPDEST PUSH2 0xADF JUMP JUMPDEST PUSH1 0x40 MLOAD PUSH2 0x37A SWAP2 SWAP1 PUSH2 0x18AD JUMP JUMPDEST PUSH1 0x40 MLOAD DUP1 SWAP2 SUB SWAP1 RETURN JUMPDEST CALLVALUE DUP1 ISZERO PUSH2 0x38F JUMPI PUSH1 0x0 DUP1 REVERT JUMPDEST POP PUSH2 0x3AA PUSH1 0x4 DUP1 CALLDATASIZE SUB DUP2 ADD SWAP1 PUSH2 0x3A5 SWAP2 SWAP1 PUSH2 0x1B82 JUMP JUMPDEST PUSH2 0xAF1 JUMP JUMPDEST PUSH1 0x40 MLOAD PUSH2 0x3B7 SWAP2 SWAP1 PUSH2 0x1996 JUMP JUMPDEST PUSH1 0x40 MLOAD DUP1 SWAP2 SUB SWAP1 RETURN JUMPDEST CALLVALUE DUP1 ISZERO PUSH2 0x3CC JUMPI PUSH1 0x0 DUP1 REVERT JUMPDEST POP PUSH2 0x3D5 PUSH2 0xB85 JUMP JUMPDEST PUSH1 0x40 MLOAD PUSH2 0x3E2 SWAP2 SWAP1 PUSH2 0x18AD JUMP JUMPDEST PUSH1 0x40 MLOAD DUP1 SWAP2 SUB SWAP1 RETURN JUMPDEST CALLVALUE DUP1 ISZERO PUSH2 0x3F7 JUMPI PUSH1 0x0 DUP1 REVERT JUMPDEST POP PUSH2 0x400 PUSH2 0xBAE JUMP JUMPDEST PUSH1 0x40 MLOAD PUSH2 0x40D SWAP2 SWAP1 PUSH2 0x17E7 JUMP JUMPDEST PUSH1 0x40 MLOAD DUP1 SWAP2 SUB SWAP1 RETURN JUMPDEST CALLVALUE DUP1 ISZERO PUSH2 0x422 JUMPI PUSH1 0x0 DUP1 REVERT JUMPDEST POP PUSH2 0x42B PUSH2 0xBEB JUMP JUMPDEST PUSH1 0x40 MLOAD PUSH2 0x438 SWAP2 SWAP1 PUSH2 0x1996 JUMP JUMPDEST PUSH1 0x40 MLOAD DUP1 SWAP2 SUB SWAP1 RETURN JUMPDEST PUSH2 0x45B PUSH1 0x4 DUP1 CALLDATASIZE SUB DUP2 ADD SWAP1 PUSH2 0x456 SWAP2 SWAP1 PUSH2 0x183F JUMP JUMPDEST PUSH2 0xBF1 JUMP JUMPDEST STOP JUMPDEST CALLVALUE DUP1 ISZERO PUSH2 0x469 JUMPI PUSH1 0x0 DUP1 REVERT JUMPDEST POP PUSH2 0x484 PUSH1 0x4 DUP1 CALLDATASIZE SUB DUP2 ADD SWAP1 PUSH2 0x47F SWAP2 SWAP1 PUSH2 0x1BDB JUMP JUMPDEST PUSH2 0xC62 JUMP JUMPDEST STOP JUMPDEST CALLVALUE DUP1 ISZERO PUSH2 0x492 JUMPI PUSH1 0x0 DUP1 REVERT JUMPDEST POP PUSH2 0x4AD PUSH1 0x4 DUP1 CALLDATASIZE SUB DUP2 ADD SWAP1 PUSH2 0x4A8 SWAP2 SWAP1 PUSH2 0x1CBC JUMP JUMPDEST PUSH2 0xDD9 JUMP JUMPDEST STOP JUMPDEST CALLVALUE DUP1 ISZERO PUSH2 0x4BB JUMPI PUSH1 0x0 DUP1 REVERT JUMPDEST POP PUSH2 0x4C4 PUSH2 0xDEA JUMP JUMPDEST PUSH1 0x40 MLOAD PUSH2 0x4D1 SWAP2 SWAP1 PUSH2 0x1996 JUMP JUMPDEST PUSH1 0x40 MLOAD DUP1 SWAP2 SUB SWAP1 RETURN JUMPDEST CALLVALUE DUP1 ISZERO PUSH2 0x4E6 JUMPI PUSH1 0x0 DUP1 REVERT JUMPDEST POP PUSH2 0x501 PUSH1 0x4 DUP1 CALLDATASIZE SUB DUP2 ADD SWAP1 PUSH2 0x4FC SWAP2 SWAP1 PUSH2 0x183F JUMP JUMPDEST PUSH2 0xDF0 JUMP JUMPDEST PUSH1 0x40 MLOAD PUSH2 0x50E SWAP2 SWAP1 PUSH2 0x17E7 JUMP JUMPDEST PUSH1 0x40 MLOAD DUP1 SWAP2 SUB SWAP1 RETURN JUMPDEST CALLVALUE DUP1 ISZERO PUSH2 0x523 JUMPI PUSH1 0x0 DUP1 REVERT JUMPDEST POP PUSH2 0x53E PUSH1 0x4 DUP1 CALLDATASIZE SUB DUP2 ADD SWAP1 PUSH2 0x539 SWAP2 SWAP1 PUSH2 0x1D3F JUMP JUMPDEST PUSH2 0xF11 JUMP JUMPDEST PUSH1 0x40 MLOAD PUSH2 0x54B SWAP2 SWAP1 PUSH2 0x173C JUMP JUMPDEST PUSH1 0x40 MLOAD DUP1 SWAP2 SUB SWAP1 RETURN JUMPDEST CALLVALUE DUP1 ISZERO PUSH2 0x560 JUMPI PUSH1 0x0 DUP1 REVERT JUMPDEST POP PUSH2 0x569 PUSH2 0xFA5 JUMP JUMPDEST PUSH1 0x40 MLOAD PUSH2 0x576 SWAP2 SWAP1 PUSH2 0x1996 JUMP JUMPDEST PUSH1 0x40 MLOAD DUP1 SWAP2 SUB SWAP1 RETURN JUMPDEST PUSH1 0x0 PUSH4 0x1FFC9A7 PUSH1 0xE0 SHL DUP3 PUSH28 0xFFFFFFFFFFFFFFFFFFFFFFFFFFFFFFFFFFFFFFFFFFFFFFFFFFFFFFFF NOT AND EQ DUP1 PUSH2 0x5DA JUMPI POP PUSH4 0x80AC58CD PUSH1 0xE0 SHL DUP3 PUSH28 0xFFFFFFFFFFFFFFFFFFFFFFFFFFFFFFFFFFFFFFFFFFFFFFFFFFFFFFFF NOT AND EQ JUMPDEST DUP1 PUSH2 0x60A JUMPI POP PUSH4 0x5B5E139F PUSH1 0xE0 SHL DUP3 PUSH28 0xFFFFFFFFFFFFFFFFFFFFFFFFFFFFFFFFFFFFFFFFFFFFFFFFFFFFFFFF NOT AND EQ JUMPDEST SWAP1 POP SWAP2 SWAP1 POP JUMP JUMPDEST PUSH1 0x60 PUSH1 0x40 MLOAD DUP1 PUSH1 0x40 ADD PUSH1 0x40 MSTORE DUP1 PUSH1 0xD DUP2 MSTORE PUSH1 0x20 ADD PUSH32 0x4170657320556E73686176656400000000000000000000000000000000000000 DUP2 MSTORE POP SWAP1 POP SWAP1 JUMP JUMPDEST PUSH1 0x0 PUSH2 0x659 DUP3 PUSH2 0xFAB JUMP JUMPDEST PUSH2 0x68F JUMPI PUSH1 0x40 MLOAD PUSH32 0xCF4700E400000000000000000000000000000000000000000000000000000000 DUP2 MSTORE PUSH1 0x4 ADD PUSH1 0x40 MLOAD DUP1 SWAP2 SUB SWAP1 REVERT JUMPDEST PUSH1 0x8 PUSH1 0x0 DUP4 DUP2 MSTORE PUSH1 0x20 ADD SWAP1 DUP2 MSTORE PUSH1 0x20 ADD PUSH1 0x0 KECCAK256 PUSH1 0x0 SWAP1 SLOAD SWAP1 PUSH2 0x100 EXP SWAP1 DIV PUSH20 0xFFFFFFFFFFFFFFFFFFFFFFFFFFFFFFFFFFFFFFFF AND SWAP1 POP SWAP2 SWAP1 POP JUMP JUMPDEST PUSH1 0x0 PUSH2 0x6D5 DUP3 PUSH2 0xFCC JUMP JUMPDEST SWAP1 POP DUP1 PUSH20 0xFFFFFFFFFFFFFFFFFFFFFFFFFFFFFFFFFFFFFFFF AND DUP4 PUSH20 0xFFFFFFFFFFFFFFFFFFFFFFFFFFFFFFFFFFFFFFFF AND SUB PUSH2 0x70F JUMPI PUSH1 0x0 DUP1 REVERT JUMPDEST DUP1 PUSH20 0xFFFFFFFFFFFFFFFFFFFFFFFFFFFFFFFFFFFFFFFF AND PUSH2 0x72E PUSH2 0x1098 JUMP JUMPDEST PUSH20 0xFFFFFFFFFFFFFFFFFFFFFFFFFFFFFFFFFFFFFFFF AND EQ PUSH2 0x791 JUMPI PUSH2 0x75A DUP2 PUSH2 0x755 PUSH2 0x1098 JUMP JUMPDEST PUSH2 0xF11 JUMP JUMPDEST PUSH2 0x790 JUMPI PUSH1 0x40 MLOAD PUSH32 0xCFB3B94200000000000000000000000000000000000000000000000000000000 DUP2 MSTORE PUSH1 0x4 ADD PUSH1 0x40 MLOAD DUP1 SWAP2 SUB SWAP1 REVERT JUMPDEST JUMPDEST DUP3 PUSH1 0x8 PUSH1 0x0 DUP5 DUP2 MSTORE PUSH1 0x20 ADD SWAP1 DUP2 MSTORE PUSH1 0x20 ADD PUSH1 0x0 KECCAK256 PUSH1 0x0 PUSH2 0x100 EXP DUP2 SLOAD DUP2 PUSH20 0xFFFFFFFFFFFFFFFFFFFFFFFFFFFFFFFFFFFFFFFF MUL NOT AND SWAP1 DUP4 PUSH20 0xFFFFFFFFFFFFFFFFFFFFFFFFFFFFFFFFFFFFFFFF AND MUL OR SWAP1 SSTORE POP DUP2 DUP4 PUSH20 0xFFFFFFFFFFFFFFFFFFFFFFFFFFFFFFFFFFFFFFFF AND DUP3 PUSH20 0xFFFFFFFFFFFFFFFFFFFFFFFFFFFFFFFFFFFFFFFF AND PUSH32 0x8C5BE1E5EBEC7D5BD14F71427D1E84F3DD0314C0F7B2291E5B200AC8C7C3B925 PUSH1 0x40 MLOAD PUSH1 0x40 MLOAD DUP1 SWAP2 SUB SWAP1 LOG4 POP POP POP JUMP JUMPDEST CALLER PUSH20 0xFFFFFFFFFFFFFFFFFFFFFFFFFFFFFFFFFFFFFFFF AND PUSH1 0x0 DUP1 SLOAD SWAP1 PUSH2 0x100 EXP SWAP1 DIV PUSH20 0xFFFFFFFFFFFFFFFFFFFFFFFFFFFFFFFFFFFFFFFF AND PUSH20 0xFFFFFFFFFFFFFFFFFFFFFFFFFFFFFFFFFFFFFFFF AND EQ PUSH2 0x89B JUMPI PUSH1 0x0 DUP1 REVERT JUMPDEST DUP3 PUSH1 0x2 DUP2 SWAP1 SSTORE POP DUP2 PUSH1 0x3 DUP2 SWAP1 SSTORE POP DUP1 PUSH1 0x1 DUP2 SWAP1 SSTORE POP POP POP POP JUMP JUMPDEST PUSH1 0x0 PUSH2 0x8BF PUSH2 0x10A0 JUMP JUMPDEST PUSH1 0x5 SLOAD SUB SWAP1 POP SWAP1 JUMP JUMPDEST PUSH2 0x8D3 DUP4 DUP4 DUP4 PUSH2 0x10A5 JUMP JUMPDEST POP POP POP JUMP JUMPDEST PUSH2 0x3CA DUP2 JUMP JUMPDEST CALLER PUSH20 0xFFFFFFFFFFFFFFFFFFFFFFFFFFFFFFFFFFFFFFFF AND PUSH1 0x0 DUP1 SLOAD SWAP1 PUSH2 0x100 EXP SWAP1 DIV PUSH20 0xFFFFFFFFFFFFFFFFFFFFFFFFFFFFFFFFFFFFFFFF AND PUSH20 0xFFFFFFFFFFFFFFFFFFFFFFFFFFFFFFFFFFFFFFFF AND EQ PUSH2 0x936 JUMPI PUSH1 0x0 DUP1 REVERT JUMPDEST PUSH1 0x0 SELFBALANCE SWAP1 POP CALLER PUSH20 0xFFFFFFFFFFFFFFFFFFFFFFFFFFFFFFFFFFFFFFFF AND PUSH2 0x8FC DUP3 SWAP1 DUP2 ISZERO MUL SWAP1 PUSH1 0x40 MLOAD PUSH1 0x0 PUSH1 0x40 MLOAD DUP1 DUP4 SUB DUP2 DUP6 DUP9 DUP9 CALL SWAP4 POP POP POP POP ISZERO DUP1 ISZERO PUSH2 0x981 JUMPI RETURNDATASIZE PUSH1 0x0 DUP1 RETURNDATACOPY RETURNDATASIZE PUSH1 0x0 REVERT JUMPDEST POP POP JUMP JUMPDEST PUSH2 0x9A0 DUP4 DUP4 DUP4 PUSH1 0x40 MLOAD DUP1 PUSH1 0x20 ADD PUSH1 0x40 MSTORE DUP1 PUSH1 0x0 DUP2 MSTORE POP PUSH2 0xDD9 JUMP JUMPDEST POP POP POP JUMP JUMPDEST CALLER PUSH20 0xFFFFFFFFFFFFFFFFFFFFFFFFFFFFFFFFFFFFFFFF AND PUSH1 0x0 DUP1 SLOAD SWAP1 PUSH2 0x100 EXP SWAP1 DIV PUSH20 0xFFFFFFFFFFFFFFFFFFFFFFFFFFFFFFFFFFFFFFFF AND PUSH20 0xFFFFFFFFFFFFFFFFFFFFFFFFFFFFFFFFFFFFFFFF AND EQ PUSH2 0x9FD JUMPI PUSH1 0x0 DUP1 REVERT JUMPDEST DUP1 PUSH1 0x4 SWAP1 DUP2 PUSH2 0xA0C SWAP2 SWAP1 PUSH2 0x1F8B JUMP JUMPDEST POP POP JUMP JUMPDEST PUSH1 0x0 PUSH2 0xA1A PUSH2 0x1098 JUMP JUMPDEST SWAP1 POP PUSH1 0x0 PUSH1 0x1 SWAP1 POP PUSH1 0x1 SLOAD DUP2 PUSH2 0xA2E PUSH2 0x8B5 JUMP JUMPDEST PUSH2 0xA38 SWAP2 SWAP1 PUSH2 0x208C JUMP JUMPDEST GT ISZERO PUSH2 0xA79 JUMPI PUSH1 0x40 MLOAD PUSH32 0x8C379A000000000000000000000000000000000000000000000000000000000 DUP2 MSTORE PUSH1 0x4 ADD PUSH2 0xA70 SWAP1 PUSH2 0x210C JUMP JUMPDEST PUSH1 0x40 MLOAD DUP1 SWAP2 SUB SWAP1 REVERT JUMPDEST PUSH1 0x2 SLOAD PUSH2 0xA85 DUP4 PUSH2 0x141B JUMP JUMPDEST DUP3 PUSH2 0xA90 SWAP2 SWAP1 PUSH2 0x208C JUMP JUMPDEST GT ISZERO PUSH2 0xAD1 JUMPI PUSH1 0x40 MLOAD PUSH32 0x8C379A000000000000000000000000000000000000000000000000000000000 DUP2 MSTORE PUSH1 0x4 ADD PUSH2 0xAC8 SWAP1 PUSH2 0x2178 JUMP JUMPDEST PUSH1 0x40 MLOAD DUP1 SWAP2 SUB SWAP1 REVERT JUMPDEST PUSH2 0xADB DUP3 DUP3 PUSH2 0x1472 JUMP JUMPDEST POP POP JUMP JUMPDEST PUSH1 0x0 PUSH2 0xAEA DUP3 PUSH2 0xFCC JUMP JUMPDEST SWAP1 POP SWAP2 SWAP1 POP JUMP JUMPDEST PUSH1 0x0 DUP1 PUSH2 0xAFD DUP4 PUSH2 0x1614 JUMP JUMPDEST SUB PUSH2 0xB34 JUMPI PUSH1 0x40 MLOAD PUSH32 0x8F4EB60400000000000000000000000000000000000000000000000000000000 DUP2 MSTORE PUSH1 0x4 ADD PUSH1 0x40 MLOAD DUP1 SWAP2 SUB SWAP1 REVERT JUMPDEST PUSH8 0xFFFFFFFFFFFFFFFF PUSH1 0x7 PUSH1 0x0 DUP5 PUSH20 0xFFFFFFFFFFFFFFFFFFFFFFFFFFFFFFFFFFFFFFFF AND PUSH20 0xFFFFFFFFFFFFFFFFFFFFFFFFFFFFFFFFFFFFFFFF AND DUP2 MSTORE PUSH1 0x20 ADD SWAP1 DUP2 MSTORE PUSH1 0x20 ADD PUSH1 0x0 KECCAK256 SLOAD AND SWAP1 POP SWAP2 SWAP1 POP JUMP JUMPDEST PUSH1 0x0 DUP1 PUSH1 0x0 SWAP1 SLOAD SWAP1 PUSH2 0x100 EXP SWAP1 DIV PUSH20 0xFFFFFFFFFFFFFFFFFFFFFFFFFFFFFFFFFFFFFFFF AND SWAP1 POP SWAP1 JUMP JUMPDEST PUSH1 0x60 PUSH1 0x40 MLOAD DUP1 PUSH1 0x40 ADD PUSH1 0x40 MSTORE DUP1 PUSH1 0xB DUP2 MSTORE PUSH1 0x20 ADD PUSH32 0x415045554E534841564544000000000000000000000000000000000000000000 DUP2 MSTORE POP SWAP1 POP SWAP1 JUMP JUMPDEST PUSH1 0x2 SLOAD DUP2 JUMP JUMPDEST PUSH1 0x0 PUSH2 0xBFB PUSH2 0x1098 JUMP JUMPDEST SWAP1 POP PUSH2 0x3CA DUP3 PUSH2 0xC09 PUSH2 0x8B5 JUMP JUMPDEST PUSH2 0xC13 SWAP2 SWAP1 PUSH2 0x208C JUMP JUMPDEST GT ISZERO PUSH2 0xC54 JUMPI PUSH1 0x40 MLOAD PUSH32 0x8C379A000000000000000000000000000000000000000000000000000000000 DUP2 MSTORE PUSH1 0x4 ADD PUSH2 0xC4B SWAP1 PUSH2 0x21E4 JUMP JUMPDEST PUSH1 0x40 MLOAD DUP1 SWAP2 SUB SWAP1 REVERT JUMPDEST PUSH2 0xC5E DUP2 DUP4 PUSH2 0x1472 JUMP JUMPDEST POP POP JUMP JUMPDEST PUSH2 0xC6A PUSH2 0x1098 JUMP JUMPDEST PUSH20 0xFFFFFFFFFFFFFFFFFFFFFFFFFFFFFFFFFFFFFFFF AND DUP3 PUSH20 0xFFFFFFFFFFFFFFFFFFFFFFFFFFFFFFFFFFFFFFFF AND SUB PUSH2 0xCCE JUMPI PUSH1 0x40 MLOAD PUSH32 0xB06307DB00000000000000000000000000000000000000000000000000000000 DUP2 MSTORE PUSH1 0x4 ADD PUSH1 0x40 MLOAD DUP1 SWAP2 SUB SWAP1 REVERT JUMPDEST DUP1 PUSH1 0x9 PUSH1 0x0 PUSH2 0xCDB PUSH2 0x1098 JUMP JUMPDEST PUSH20 0xFFFFFFFFFFFFFFFFFFFFFFFFFFFFFFFFFFFFFFFF AND PUSH20 0xFFFFFFFFFFFFFFFFFFFFFFFFFFFFFFFFFFFFFFFF AND DUP2 MSTORE PUSH1 0x20 ADD SWAP1 DUP2 MSTORE PUSH1 0x20 ADD PUSH1 0x0 KECCAK256 PUSH1 0x0 DUP5 PUSH20 0xFFFFFFFFFFFFFFFFFFFFFFFFFFFFFFFFFFFFFFFF AND PUSH20 0xFFFFFFFFFFFFFFFFFFFFFFFFFFFFFFFFFFFFFFFF AND DUP2 MSTORE PUSH1 0x20 ADD SWAP1 DUP2 MSTORE PUSH1 0x20 ADD PUSH1 0x0 KECCAK256 PUSH1 0x0 PUSH2 0x100 EXP DUP2 SLOAD DUP2 PUSH1 0xFF MUL NOT AND SWAP1 DUP4 ISZERO ISZERO MUL OR SWAP1 SSTORE POP DUP2 PUSH20 0xFFFFFFFFFFFFFFFFFFFFFFFFFFFFFFFFFFFFFFFF AND PUSH2 0xD88 PUSH2 0x1098 JUMP JUMPDEST PUSH20 0xFFFFFFFFFFFFFFFFFFFFFFFFFFFFFFFFFFFFFFFF AND PUSH32 0x17307EAB39AB6107E8899845AD3D59BD9653F200F220920489CA2B5937696C31 DUP4 PUSH1 0x40 MLOAD PUSH2 0xDCD SWAP2 SWAP1 PUSH2 0x173C JUMP JUMPDEST PUSH1 0x40 MLOAD DUP1 SWAP2 SUB SWAP1 LOG3 POP POP JUMP JUMPDEST PUSH2 0xDE4 DUP5 DUP5 DUP5 PUSH2 0x10A5 JUMP JUMPDEST POP POP POP POP JUMP JUMPDEST PUSH1 0x3 SLOAD DUP2 JUMP JUMPDEST PUSH1 0x60 PUSH2 0xDFB DUP3 PUSH2 0xFAB JUMP JUMPDEST PUSH2 0xE31 JUMPI PUSH1 0x40 MLOAD PUSH32 0xA14C4B5000000000000000000000000000000000000000000000000000000000 DUP2 MSTORE PUSH1 0x4 ADD PUSH1 0x40 MLOAD DUP1 SWAP2 SUB SWAP1 REVERT JUMPDEST PUSH1 0x0 PUSH1 0x4 DUP1 SLOAD PUSH2 0xE40 SWAP1 PUSH2 0x1DAE JUMP JUMPDEST DUP1 PUSH1 0x1F ADD PUSH1 0x20 DUP1 SWAP2 DIV MUL PUSH1 0x20 ADD PUSH1 0x40 MLOAD SWAP1 DUP2 ADD PUSH1 0x40 MSTORE DUP1 SWAP3 SWAP2 SWAP1 DUP2 DUP2 MSTORE PUSH1 0x20 ADD DUP3 DUP1 SLOAD PUSH2 0xE6C SWAP1 PUSH2 0x1DAE JUMP JUMPDEST DUP1 ISZERO PUSH2 0xEB9 JUMPI DUP1 PUSH1 0x1F LT PUSH2 0xE8E JUMPI PUSH2 0x100 DUP1 DUP4 SLOAD DIV MUL DUP4 MSTORE SWAP2 PUSH1 0x20 ADD SWAP2 PUSH2 0xEB9 JUMP JUMPDEST DUP3 ADD SWAP2 SWAP1 PUSH1 0x0 MSTORE PUSH1 0x20 PUSH1 0x0 KECCAK256 SWAP1 JUMPDEST DUP2 SLOAD DUP2 MSTORE SWAP1 PUSH1 0x1 ADD SWAP1 PUSH1 0x20 ADD DUP1 DUP4 GT PUSH2 0xE9C JUMPI DUP3 SWAP1 SUB PUSH1 0x1F AND DUP3 ADD SWAP2 JUMPDEST POP POP POP POP POP SWAP1 POP PUSH1 0x0 DUP2 MLOAD SUB PUSH2 0xEDE JUMPI PUSH1 0x40 MLOAD DUP1 PUSH1 0x20 ADD PUSH1 0x40 MSTORE DUP1 PUSH1 0x0 DUP2 MSTORE POP PUSH2 0xF09 JUMP JUMPDEST DUP1 PUSH2 0xEE8 DUP5 PUSH2 0x161E JUMP JUMPDEST PUSH1 0x40 MLOAD PUSH1 0x20 ADD PUSH2 0xEF9 SWAP3 SWAP2 SWAP1 PUSH2 0x2324 JUMP JUMPDEST PUSH1 0x40 MLOAD PUSH1 0x20 DUP2 DUP4 SUB SUB DUP2 MSTORE SWAP1 PUSH1 0x40 MSTORE JUMPDEST SWAP2 POP POP SWAP2 SWAP1 POP JUMP JUMPDEST PUSH1 0x0 PUSH1 0x9 PUSH1 0x0 DUP5 PUSH20 0xFFFFFFFFFFFFFFFFFFFFFFFFFFFFFFFFFFFFFFFF AND PUSH20 0xFFFFFFFFFFFFFFFFFFFFFFFFFFFFFFFFFFFFFFFF AND DUP2 MSTORE PUSH1 0x20 ADD SWAP1 DUP2 MSTORE PUSH1 0x20 ADD PUSH1 0x0 KECCAK256 PUSH1 0x0 DUP4 PUSH20 0xFFFFFFFFFFFFFFFFFFFFFFFFFFFFFFFFFFFFFFFF AND PUSH20 0xFFFFFFFFFFFFFFFFFFFFFFFFFFFFFFFFFFFFFFFF AND DUP2 MSTORE PUSH1 0x20 ADD SWAP1 DUP2 MSTORE PUSH1 0x20 ADD PUSH1 0x0 KECCAK256 PUSH1 0x0 SWAP1 SLOAD SWAP1 PUSH2 0x100 EXP SWAP1 DIV PUSH1 0xFF AND SWAP1 POP SWAP3 SWAP2 POP POP JUMP JUMPDEST PUSH1 0x1 SLOAD DUP2 JUMP JUMPDEST PUSH1 0x0 DUP2 PUSH2 0xFB6 PUSH2 0x10A0 JUMP JUMPDEST GT ISZERO DUP1 ISZERO PUSH2 0xFC5 JUMPI POP PUSH1 0x5 SLOAD DUP3 LT JUMPDEST SWAP1 POP SWAP2 SWAP1 POP JUMP JUMPDEST PUSH1 0x0 DUP1 DUP3 SWAP1 POP DUP1 PUSH2 0xFDB PUSH2 0x10A0 JUMP JUMPDEST GT PUSH2 0x1061 JUMPI PUSH1 0x5 SLOAD DUP2 LT ISZERO PUSH2 0x1060 JUMPI PUSH1 0x0 PUSH1 0x6 PUSH1 0x0 DUP4 DUP2 MSTORE PUSH1 0x20 ADD SWAP1 DUP2 MSTORE PUSH1 0x20 ADD PUSH1 0x0 KECCAK256 SLOAD SWAP1 POP PUSH1 0x0 PUSH29 0x100000000000000000000000000000000000000000000000000000000 DUP3 AND SUB PUSH2 0x105E JUMPI JUMPDEST PUSH1 0x0 DUP2 SUB PUSH2 0x1054 JUMPI PUSH1 0x6 PUSH1 0x0 DUP4 PUSH1 0x1 SWAP1 SUB SWAP4 POP DUP4 DUP2 MSTORE PUSH1 0x20 ADD SWAP1 DUP2 MSTORE PUSH1 0x20 ADD PUSH1 0x0 KECCAK256 SLOAD SWAP1 POP PUSH2 0x102A JUMP JUMPDEST DUP1 SWAP3 POP POP POP PUSH2 0x1093 JUMP JUMPDEST POP JUMPDEST JUMPDEST PUSH1 0x40 MLOAD PUSH32 0xDF2D9B4200000000000000000000000000000000000000000000000000000000 DUP2 MSTORE PUSH1 0x4 ADD PUSH1 0x40 MLOAD DUP1 SWAP2 SUB SWAP1 REVERT JUMPDEST SWAP2 SWAP1 POP JUMP JUMPDEST PUSH1 0x0 CALLER SWAP1 POP SWAP1 JUMP JUMPDEST PUSH1 0x0 SWAP1 JUMP JUMPDEST PUSH1 0x0 PUSH2 0x10B0 DUP3 PUSH2 0xFCC JUMP JUMPDEST SWAP1 POP DUP4 PUSH20 0xFFFFFFFFFFFFFFFFFFFFFFFFFFFFFFFFFFFFFFFF AND DUP2 PUSH20 0xFFFFFFFFFFFFFFFFFFFFFFFFFFFFFFFFFFFFFFFF AND EQ PUSH2 0x1117 JUMPI PUSH1 0x40 MLOAD PUSH32 0xA114810000000000000000000000000000000000000000000000000000000000 DUP2 MSTORE PUSH1 0x4 ADD PUSH1 0x40 MLOAD DUP1 SWAP2 SUB SWAP1 REVERT JUMPDEST PUSH1 0x0 PUSH1 0x8 PUSH1 0x0 DUP5 DUP2 MSTORE PUSH1 0x20 ADD SWAP1 DUP2 MSTORE PUSH1 0x20 ADD PUSH1 0x0 KECCAK256 PUSH1 0x0 SWAP1 SLOAD SWAP1 PUSH2 0x100 EXP SWAP1 DIV PUSH20 0xFFFFFFFFFFFFFFFFFFFFFFFFFFFFFFFFFFFFFFFF AND SWAP1 POP PUSH1 0x0 DUP6 PUSH20 0xFFFFFFFFFFFFFFFFFFFFFFFFFFFFFFFFFFFFFFFF AND PUSH2 0x1170 PUSH2 0x1098 JUMP JUMPDEST PUSH20 0xFFFFFFFFFFFFFFFFFFFFFFFFFFFFFFFFFFFFFFFF AND EQ DUP1 PUSH2 0x119F JUMPI POP PUSH2 0x119E DUP7 PUSH2 0x1199 PUSH2 0x1098 JUMP JUMPDEST PUSH2 0xF11 JUMP JUMPDEST JUMPDEST DUP1 PUSH2 0x11DC JUMPI POP PUSH2 0x11AD PUSH2 0x1098 JUMP JUMPDEST PUSH20 0xFFFFFFFFFFFFFFFFFFFFFFFFFFFFFFFFFFFFFFFF AND DUP3 PUSH20 0xFFFFFFFFFFFFFFFFFFFFFFFFFFFFFFFFFFFFFFFF AND EQ JUMPDEST SWAP1 POP DUP1 PUSH2 0x1215 JUMPI PUSH1 0x40 MLOAD PUSH32 0x59C896BE00000000000000000000000000000000000000000000000000000000 DUP2 MSTORE PUSH1 0x4 ADD PUSH1 0x40 MLOAD DUP1 SWAP2 SUB SWAP1 REVERT JUMPDEST PUSH1 0x0 PUSH2 0x1220 DUP4 PUSH2 0x1614 JUMP JUMPDEST EQ PUSH2 0x125C JUMPI PUSH1 0x8 PUSH1 0x0 DUP6 DUP2 MSTORE PUSH1 0x20 ADD SWAP1 DUP2 MSTORE PUSH1 0x20 ADD PUSH1 0x0 KECCAK256 PUSH1 0x0 PUSH2 0x100 EXP DUP2 SLOAD SWAP1 PUSH20 0xFFFFFFFFFFFFFFFFFFFFFFFFFFFFFFFFFFFFFFFF MUL NOT AND SWAP1 SSTORE JUMPDEST PUSH1 0x7 PUSH1 0x0 DUP8 PUSH20 0xFFFFFFFFFFFFFFFFFFFFFFFFFFFFFFFFFFFFFFFF AND PUSH20 0xFFFFFFFFFFFFFFFFFFFFFFFFFFFFFFFFFFFFFFFF AND DUP2 MSTORE PUSH1 0x20 ADD SWAP1 DUP2 MSTORE PUSH1 0x20 ADD PUSH1 0x0 KECCAK256 PUSH1 0x0 DUP2 SLOAD PUSH1 0x1 SWAP1 SUB SWAP2 SWAP1 POP DUP2 SWAP1 SSTORE POP PUSH1 0x7 PUSH1 0x0 DUP7 PUSH20 0xFFFFFFFFFFFFFFFFFFFFFFFFFFFFFFFFFFFFFFFF AND PUSH20 0xFFFFFFFFFFFFFFFFFFFFFFFFFFFFFFFFFFFFFFFF AND DUP2 MSTORE PUSH1 0x20 ADD SWAP1 DUP2 MSTORE PUSH1 0x20 ADD PUSH1 0x0 KECCAK256 PUSH1 0x0 DUP2 SLOAD PUSH1 0x1 ADD SWAP2 SWAP1 POP DUP2 SWAP1 SSTORE POP PUSH29 0x200000000000000000000000000000000000000000000000000000000 PUSH1 0xA0 TIMESTAMP SWAP1 SHL PUSH2 0x1323 DUP8 PUSH2 0x1614 JUMP JUMPDEST OR OR PUSH1 0x6 PUSH1 0x0 DUP7 DUP2 MSTORE PUSH1 0x20 ADD SWAP1 DUP2 MSTORE PUSH1 0x20 ADD PUSH1 0x0 KECCAK256 DUP2 SWAP1 SSTORE POP PUSH1 0x0 PUSH29 0x200000000000000000000000000000000000000000000000000000000 DUP5 AND SUB PUSH2 0x13AB JUMPI PUSH1 0x0 PUSH1 0x1 DUP6 ADD SWAP1 POP PUSH1 0x0 PUSH1 0x6 PUSH1 0x0 DUP4 DUP2 MSTORE PUSH1 0x20 ADD SWAP1 DUP2 MSTORE PUSH1 0x20 ADD PUSH1 0x0 KECCAK256 SLOAD SUB PUSH2 0x13A9 JUMPI PUSH1 0x5 SLOAD DUP2 EQ PUSH2 0x13A8 JUMPI DUP4 PUSH1 0x6 PUSH1 0x0 DUP4 DUP2 MSTORE PUSH1 0x20 ADD SWAP1 DUP2 MSTORE PUSH1 0x20 ADD PUSH1 0x0 KECCAK256 DUP2 SWAP1 SSTORE POP JUMPDEST JUMPDEST POP JUMPDEST DUP4 DUP6 PUSH20 0xFFFFFFFFFFFFFFFFFFFFFFFFFFFFFFFFFFFFFFFF AND DUP8 PUSH20 0xFFFFFFFFFFFFFFFFFFFFFFFFFFFFFFFFFFFFFFFF AND PUSH32 0xDDF252AD1BE2C89B69C2B068FC378DAA952BA7F163C4A11628F55A4DF523B3EF PUSH1 0x40 MLOAD PUSH1 0x40 MLOAD DUP1 SWAP2 SUB SWAP1 LOG4 PUSH2 0x1413 DUP7 DUP7 DUP7 PUSH1 0x1 PUSH2 0x1678 JUMP JUMPDEST POP POP POP POP POP POP JUMP JUMPDEST PUSH1 0x0 PUSH8 0xFFFFFFFFFFFFFFFF PUSH1 0x40 PUSH1 0x7 PUSH1 0x0 DUP6 PUSH20 0xFFFFFFFFFFFFFFFFFFFFFFFFFFFFFFFFFFFFFFFF AND PUSH20 0xFFFFFFFFFFFFFFFFFFFFFFFFFFFFFFFFFFFFFFFF AND DUP2 MSTORE PUSH1 0x20 ADD SWAP1 DUP2 MSTORE PUSH1 0x20 ADD PUSH1 0x0 KECCAK256 SLOAD SWAP1 SHR AND SWAP1 POP SWAP2 SWAP1 POP JUMP JUMPDEST PUSH1 0x0 PUSH1 0x5 SLOAD SWAP1 POP PUSH1 0x0 PUSH2 0x1484 DUP5 PUSH2 0x1614 JUMP JUMPDEST SUB PUSH2 0x14BB JUMPI PUSH1 0x40 MLOAD PUSH32 0x2E07630000000000000000000000000000000000000000000000000000000000 DUP2 MSTORE PUSH1 0x4 ADD PUSH1 0x40 MLOAD DUP1 SWAP2 SUB SWAP1 REVERT JUMPDEST PUSH1 0x0 DUP3 SUB PUSH2 0x14F5 JUMPI PUSH1 0x40 MLOAD PUSH32 0xB562E8DD00000000000000000000000000000000000000000000000000000000 DUP2 MSTORE PUSH1 0x4 ADD PUSH1 0x40 MLOAD DUP1 SWAP2 SUB SWAP1 REVERT JUMPDEST PUSH1 0x1 PUSH1 0x40 PUSH1 0x1 SWAP1 SHL OR DUP3 MUL PUSH1 0x7 PUSH1 0x0 DUP6 PUSH20 0xFFFFFFFFFFFFFFFFFFFFFFFFFFFFFFFFFFFFFFFF AND PUSH20 0xFFFFFFFFFFFFFFFFFFFFFFFFFFFFFFFFFFFFFFFF AND DUP2 MSTORE PUSH1 0x20 ADD SWAP1 DUP2 MSTORE PUSH1 0x20 ADD PUSH1 0x0 KECCAK256 PUSH1 0x0 DUP3 DUP3 SLOAD ADD SWAP3 POP POP DUP2 SWAP1 SSTORE POP PUSH1 0xE1 PUSH2 0x155A PUSH1 0x1 DUP5 EQ PUSH2 0x167E JUMP JUMPDEST SWAP1 SHL PUSH1 0xA0 TIMESTAMP SWAP1 SHL PUSH2 0x156A DUP6 PUSH2 0x1614 JUMP JUMPDEST OR OR PUSH1 0x6 PUSH1 0x0 DUP4 DUP2 MSTORE PUSH1 0x20 ADD SWAP1 DUP2 MSTORE PUSH1 0x20 ADD PUSH1 0x0 KECCAK256 DUP2 SWAP1 SSTORE POP PUSH1 0x0 DUP2 SWAP1 POP PUSH1 0x0 DUP4 DUP3 ADD SWAP1 POP JUMPDEST DUP2 DUP1 PUSH1 0x1 ADD SWAP3 POP DUP6 PUSH20 0xFFFFFFFFFFFFFFFFFFFFFFFFFFFFFFFFFFFFFFFF AND PUSH1 0x0 PUSH20 0xFFFFFFFFFFFFFFFFFFFFFFFFFFFFFFFFFFFFFFFF AND PUSH32 0xDDF252AD1BE2C89B69C2B068FC378DAA952BA7F163C4A11628F55A4DF523B3EF PUSH1 0x40 MLOAD PUSH1 0x40 MLOAD DUP1 SWAP2 SUB SWAP1 LOG4 DUP1 DUP3 LT PUSH2 0x1590 JUMPI DUP2 PUSH1 0x5 DUP2 SWAP1 SSTORE POP POP POP PUSH2 0x160F PUSH1 0x0 DUP5 DUP4 DUP6 PUSH2 0x1678 JUMP JUMPDEST POP POP POP JUMP JUMPDEST PUSH1 0x0 DUP2 SWAP1 POP SWAP2 SWAP1 POP JUMP JUMPDEST PUSH1 0x60 PUSH1 0x80 PUSH1 0x40 MLOAD ADD SWAP1 POP DUP1 PUSH1 0x40 MSTORE DUP1 DUP3 PUSH1 0x1 DUP4 SUB SWAP3 POP PUSH1 0xA DUP2 MOD PUSH1 0x30 ADD DUP4 MSTORE8 PUSH1 0xA DUP2 DIV SWAP1 POP JUMPDEST DUP1 ISZERO PUSH2 0x1664 JUMPI PUSH1 0x1 DUP4 SUB SWAP3 POP PUSH1 0xA DUP2 MOD PUSH1 0x30 ADD DUP4 MSTORE8 PUSH1 0xA DUP2 DIV SWAP1 POP PUSH2 0x1644 JUMP JUMPDEST POP DUP2 DUP2 SUB PUSH1 0x20 DUP4 SUB SWAP3 POP DUP1 DUP4 MSTORE POP POP SWAP2 SWAP1 POP JUMP JUMPDEST POP POP POP POP JUMP JUMPDEST PUSH1 0x0 DUP2 SWAP1 POP SWAP2 SWAP1 POP JUMP JUMPDEST PUSH1 0x0 PUSH1 0x40 MLOAD SWAP1 POP SWAP1 JUMP JUMPDEST PUSH1 0x0 DUP1 REVERT JUMPDEST PUSH1 0x0 DUP1 REVERT JUMPDEST PUSH1 0x0 PUSH32 0xFFFFFFFF00000000000000000000000000000000000000000000000000000000 DUP3 AND SWAP1 POP SWAP2 SWAP1 POP JUMP JUMPDEST PUSH2 0x16D1 DUP2 PUSH2 0x169C JUMP JUMPDEST DUP2 EQ PUSH2 0x16DC JUMPI PUSH1 0x0 DUP1 REVERT JUMPDEST POP JUMP JUMPDEST PUSH1 0x0 DUP2 CALLDATALOAD SWAP1 POP PUSH2 0x16EE DUP2 PUSH2 0x16C8 JUMP JUMPDEST SWAP3 SWAP2 POP POP JUMP JUMPDEST PUSH1 0x0 PUSH1 0x20 DUP3 DUP5 SUB SLT ISZERO PUSH2 0x170A JUMPI PUSH2 0x1709 PUSH2 0x1692 JUMP JUMPDEST JUMPDEST PUSH1 0x0 PUSH2 0x1718 DUP5 DUP3 DUP6 ADD PUSH2 0x16DF JUMP JUMPDEST SWAP2 POP POP SWAP3 SWAP2 POP POP JUMP JUMPDEST PUSH1 0x0 DUP2 ISZERO ISZERO SWAP1 POP SWAP2 SWAP1 POP JUMP JUMPDEST PUSH2 0x1736 DUP2 PUSH2 0x1721 JUMP JUMPDEST DUP3 MSTORE POP POP JUMP JUMPDEST PUSH1 0x0 PUSH1 0x20 DUP3 ADD SWAP1 POP PUSH2 0x1751 PUSH1 0x0 DUP4 ADD DUP5 PUSH2 0x172D JUMP JUMPDEST SWAP3 SWAP2 POP POP JUMP JUMPDEST PUSH1 0x0 DUP2 MLOAD SWAP1 POP SWAP2 SWAP1 POP JUMP JUMPDEST PUSH1 0x0 DUP3 DUP3 MSTORE PUSH1 0x20 DUP3 ADD SWAP1 POP SWAP3 SWAP2 POP POP JUMP JUMPDEST PUSH1 0x0 JUMPDEST DUP4 DUP2 LT ISZERO PUSH2 0x1791 JUMPI DUP1 DUP3 ADD MLOAD DUP2 DUP5 ADD MSTORE PUSH1 0x20 DUP2 ADD SWAP1 POP PUSH2 0x1776 JUMP JUMPDEST PUSH1 0x0 DUP5 DUP5 ADD MSTORE POP POP POP POP JUMP JUMPDEST PUSH1 0x0 PUSH1 0x1F NOT PUSH1 0x1F DUP4 ADD AND SWAP1 POP SWAP2 SWAP1 POP JUMP JUMPDEST PUSH1 0x0 PUSH2 0x17B9 DUP3 PUSH2 0x1757 JUMP JUMPDEST PUSH2 0x17C3 DUP2 DUP6 PUSH2 0x1762 JUMP JUMPDEST SWAP4 POP PUSH2 0x17D3 DUP2 DUP6 PUSH1 0x20 DUP7 ADD PUSH2 0x1773 JUMP JUMPDEST PUSH2 0x17DC DUP2 PUSH2 0x179D JUMP JUMPDEST DUP5 ADD SWAP2 POP POP SWAP3 SWAP2 POP POP JUMP JUMPDEST PUSH1 0x0 PUSH1 0x20 DUP3 ADD SWAP1 POP DUP2 DUP2 SUB PUSH1 0x0 DUP4 ADD MSTORE PUSH2 0x1801 DUP2 DUP5 PUSH2 0x17AE JUMP JUMPDEST SWAP1 POP SWAP3 SWAP2 POP POP JUMP JUMPDEST PUSH1 0x0 DUP2 SWAP1 POP SWAP2 SWAP1 POP JUMP JUMPDEST PUSH2 0x181C DUP2 PUSH2 0x1809 JUMP JUMPDEST DUP2 EQ PUSH2 0x1827 JUMPI PUSH1 0x0 DUP1 REVERT JUMPDEST POP JUMP JUMPDEST PUSH1 0x0 DUP2 CALLDATALOAD SWAP1 POP PUSH2 0x1839 DUP2 PUSH2 0x1813 JUMP JUMPDEST SWAP3 SWAP2 POP POP JUMP JUMPDEST PUSH1 0x0 PUSH1 0x20 DUP3 DUP5 SUB SLT ISZERO PUSH2 0x1855 JUMPI PUSH2 0x1854 PUSH2 0x1692 JUMP JUMPDEST JUMPDEST PUSH1 0x0 PUSH2 0x1863 DUP5 DUP3 DUP6 ADD PUSH2 0x182A JUMP JUMPDEST SWAP2 POP POP SWAP3 SWAP2 POP POP JUMP JUMPDEST PUSH1 0x0 PUSH20 0xFFFFFFFFFFFFFFFFFFFFFFFFFFFFFFFFFFFFFFFF DUP3 AND SWAP1 POP SWAP2 SWAP1 POP JUMP JUMPDEST PUSH1 0x0 PUSH2 0x1897 DUP3 PUSH2 0x186C JUMP JUMPDEST SWAP1 POP SWAP2 SWAP1 POP JUMP JUMPDEST PUSH2 0x18A7 DUP2 PUSH2 0x188C JUMP JUMPDEST DUP3 MSTORE POP POP JUMP JUMPDEST PUSH1 0x0 PUSH1 0x20 DUP3 ADD SWAP1 POP PUSH2 0x18C2 PUSH1 0x0 DUP4 ADD DUP5 PUSH2 0x189E JUMP JUMPDEST SWAP3 SWAP2 POP POP JUMP JUMPDEST PUSH2 0x18D1 DUP2 PUSH2 0x188C JUMP JUMPDEST DUP2 EQ PUSH2 0x18DC JUMPI PUSH1 0x0 DUP1 REVERT JUMPDEST POP JUMP JUMPDEST PUSH1 0x0 DUP2 CALLDATALOAD SWAP1 POP PUSH2 0x18EE DUP2 PUSH2 0x18C8 JUMP JUMPDEST SWAP3 SWAP2 POP POP JUMP JUMPDEST PUSH1 0x0 DUP1 PUSH1 0x40 DUP4 DUP6 SUB SLT ISZERO PUSH2 0x190B JUMPI PUSH2 0x190A PUSH2 0x1692 JUMP JUMPDEST JUMPDEST PUSH1 0x0 PUSH2 0x1919 DUP6 DUP3 DUP7 ADD PUSH2 0x18DF JUMP JUMPDEST SWAP3 POP POP PUSH1 0x20 PUSH2 0x192A DUP6 DUP3 DUP7 ADD PUSH2 0x182A JUMP JUMPDEST SWAP2 POP POP SWAP3 POP SWAP3 SWAP1 POP JUMP JUMPDEST PUSH1 0x0 DUP1 PUSH1 0x0 PUSH1 0x60 DUP5 DUP7 SUB SLT ISZERO PUSH2 0x194D JUMPI PUSH2 0x194C PUSH2 0x1692 JUMP JUMPDEST JUMPDEST PUSH1 0x0 PUSH2 0x195B DUP7 DUP3 DUP8 ADD PUSH2 0x182A JUMP JUMPDEST SWAP4 POP POP PUSH1 0x20 PUSH2 0x196C DUP7 DUP3 DUP8 ADD PUSH2 0x182A JUMP JUMPDEST SWAP3 POP POP PUSH1 0x40 PUSH2 0x197D DUP7 DUP3 DUP8 ADD PUSH2 0x182A JUMP JUMPDEST SWAP2 POP POP SWAP3 POP SWAP3 POP SWAP3 JUMP JUMPDEST PUSH2 0x1990 DUP2 PUSH2 0x1809 JUMP JUMPDEST DUP3 MSTORE POP POP JUMP JUMPDEST PUSH1 0x0 PUSH1 0x20 DUP3 ADD SWAP1 POP PUSH2 0x19AB PUSH1 0x0 DUP4 ADD DUP5 PUSH2 0x1987 JUMP JUMPDEST SWAP3 SWAP2 POP POP JUMP JUMPDEST PUSH1 0x0 DUP1 PUSH1 0x0 PUSH1 0x60 DUP5 DUP7 SUB SLT ISZERO PUSH2 0x19CA JUMPI PUSH2 0x19C9 PUSH2 0x1692 JUMP JUMPDEST JUMPDEST PUSH1 0x0 PUSH2 0x19D8 DUP7 DUP3 DUP8 ADD PUSH2 0x18DF JUMP JUMPDEST SWAP4 POP POP PUSH1 0x20 PUSH2 0x19E9 DUP7 DUP3 DUP8 ADD PUSH2 0x18DF JUMP JUMPDEST SWAP3 POP POP PUSH1 0x40 PUSH2 0x19FA DUP7 DUP3 DUP8 ADD PUSH2 0x182A JUMP JUMPDEST SWAP2 POP POP SWAP3 POP SWAP3 POP SWAP3 JUMP JUMPDEST PUSH1 0x0 DUP1 REVERT JUMPDEST PUSH1 0x0 DUP1 REVERT JUMPDEST PUSH32 0x4E487B7100000000000000000000000000000000000000000000000000000000 PUSH1 0x0 MSTORE PUSH1 0x41 PUSH1 0x4 MSTORE PUSH1 0x24 PUSH1 0x0 REVERT JUMPDEST PUSH2 0x1A46 DUP3 PUSH2 0x179D JUMP JUMPDEST DUP2 ADD DUP2 DUP2 LT PUSH8 0xFFFFFFFFFFFFFFFF DUP3 GT OR ISZERO PUSH2 0x1A65 JUMPI PUSH2 0x1A64 PUSH2 0x1A0E JUMP JUMPDEST JUMPDEST DUP1 PUSH1 0x40 MSTORE POP POP POP JUMP JUMPDEST PUSH1 0x0 PUSH2 0x1A78 PUSH2 0x1688 JUMP JUMPDEST SWAP1 POP PUSH2 0x1A84 DUP3 DUP3 PUSH2 0x1A3D JUMP JUMPDEST SWAP2 SWAP1 POP JUMP JUMPDEST PUSH1 0x0 PUSH8 0xFFFFFFFFFFFFFFFF DUP3 GT ISZERO PUSH2 0x1AA4 JUMPI PUSH2 0x1AA3 PUSH2 0x1A0E JUMP JUMPDEST JUMPDEST PUSH2 0x1AAD DUP3 PUSH2 0x179D JUMP JUMPDEST SWAP1 POP PUSH1 0x20 DUP2 ADD SWAP1 POP SWAP2 SWAP1 POP JUMP JUMPDEST DUP3 DUP2 DUP4 CALLDATACOPY PUSH1 0x0 DUP4 DUP4 ADD MSTORE POP POP POP JUMP JUMPDEST PUSH1 0x0 PUSH2 0x1ADC PUSH2 0x1AD7 DUP5 PUSH2 0x1A89 JUMP JUMPDEST PUSH2 0x1A6E JUMP JUMPDEST SWAP1 POP DUP3 DUP2 MSTORE PUSH1 0x20 DUP2 ADD DUP5 DUP5 DUP5 ADD GT ISZERO PUSH2 0x1AF8 JUMPI PUSH2 0x1AF7 PUSH2 0x1A09 JUMP JUMPDEST JUMPDEST PUSH2 0x1B03 DUP5 DUP3 DUP6 PUSH2 0x1ABA JUMP JUMPDEST POP SWAP4 SWAP3 POP POP POP JUMP JUMPDEST PUSH1 0x0 DUP3 PUSH1 0x1F DUP4 ADD SLT PUSH2 0x1B20 JUMPI PUSH2 0x1B1F PUSH2 0x1A04 JUMP JUMPDEST JUMPDEST DUP2 CALLDATALOAD PUSH2 0x1B30 DUP5 DUP3 PUSH1 0x20 DUP7 ADD PUSH2 0x1AC9 JUMP JUMPDEST SWAP2 POP POP SWAP3 SWAP2 POP POP JUMP JUMPDEST PUSH1 0x0 PUSH1 0x20 DUP3 DUP5 SUB SLT ISZERO PUSH2 0x1B4F JUMPI PUSH2 0x1B4E PUSH2 0x1692 JUMP JUMPDEST JUMPDEST PUSH1 0x0 DUP3 ADD CALLDATALOAD PUSH8 0xFFFFFFFFFFFFFFFF DUP2 GT ISZERO PUSH2 0x1B6D JUMPI PUSH2 0x1B6C PUSH2 0x1697 JUMP JUMPDEST JUMPDEST PUSH2 0x1B79 DUP5 DUP3 DUP6 ADD PUSH2 0x1B0B JUMP JUMPDEST SWAP2 POP POP SWAP3 SWAP2 POP POP JUMP JUMPDEST PUSH1 0x0 PUSH1 0x20 DUP3 DUP5 SUB SLT ISZERO PUSH2 0x1B98 JUMPI PUSH2 0x1B97 PUSH2 0x1692 JUMP JUMPDEST JUMPDEST PUSH1 0x0 PUSH2 0x1BA6 DUP5 DUP3 DUP6 ADD PUSH2 0x18DF JUMP JUMPDEST SWAP2 POP POP SWAP3 SWAP2 POP POP JUMP JUMPDEST PUSH2 0x1BB8 DUP2 PUSH2 0x1721 JUMP JUMPDEST DUP2 EQ PUSH2 0x1BC3 JUMPI PUSH1 0x0 DUP1 REVERT JUMPDEST POP JUMP JUMPDEST PUSH1 0x0 DUP2 CALLDATALOAD SWAP1 POP PUSH2 0x1BD5 DUP2 PUSH2 0x1BAF JUMP JUMPDEST SWAP3 SWAP2 POP POP JUMP JUMPDEST PUSH1 0x0 DUP1 PUSH1 0x40 DUP4 DUP6 SUB SLT ISZERO PUSH2 0x1BF2 JUMPI PUSH2 0x1BF1 PUSH2 0x1692 JUMP JUMPDEST JUMPDEST PUSH1 0x0 PUSH2 0x1C00 DUP6 DUP3 DUP7 ADD PUSH2 0x18DF JUMP JUMPDEST SWAP3 POP POP PUSH1 0x20 PUSH2 0x1C11 DUP6 DUP3 DUP7 ADD PUSH2 0x1BC6 JUMP JUMPDEST SWAP2 POP POP SWAP3 POP SWAP3 SWAP1 POP JUMP JUMPDEST PUSH1 0x0 PUSH8 0xFFFFFFFFFFFFFFFF DUP3 GT ISZERO PUSH2 0x1C36 JUMPI PUSH2 0x1C35 PUSH2 0x1A0E JUMP JUMPDEST JUMPDEST PUSH2 0x1C3F DUP3 PUSH2 0x179D JUMP JUMPDEST SWAP1 POP PUSH1 0x20 DUP2 ADD SWAP1 POP SWAP2 SWAP1 POP JUMP JUMPDEST PUSH1 0x0 PUSH2 0x1C5F PUSH2 0x1C5A DUP5 PUSH2 0x1C1B JUMP JUMPDEST PUSH2 0x1A6E JUMP JUMPDEST SWAP1 POP DUP3 DUP2 MSTORE PUSH1 0x20 DUP2 ADD DUP5 DUP5 DUP5 ADD GT ISZERO PUSH2 0x1C7B JUMPI PUSH2 0x1C7A PUSH2 0x1A09 JUMP JUMPDEST JUMPDEST PUSH2 0x1C86 DUP5 DUP3 DUP6 PUSH2 0x1ABA JUMP JUMPDEST POP SWAP4 SWAP3 POP POP POP JUMP JUMPDEST PUSH1 0x0 DUP3 PUSH1 0x1F DUP4 ADD SLT PUSH2 0x1CA3 JUMPI PUSH2 0x1CA2 PUSH2 0x1A04 JUMP JUMPDEST JUMPDEST DUP2 CALLDATALOAD PUSH2 0x1CB3 DUP5 DUP3 PUSH1 0x20 DUP7 ADD PUSH2 0x1C4C JUMP JUMPDEST SWAP2 POP POP SWAP3 SWAP2 POP POP JUMP JUMPDEST PUSH1 0x0 DUP1 PUSH1 0x0 DUP1 PUSH1 0x80 DUP6 DUP8 SUB SLT ISZERO PUSH2 0x1CD6 JUMPI PUSH2 0x1CD5 PUSH2 0x1692 JUMP JUMPDEST JUMPDEST PUSH1 0x0 PUSH2 0x1CE4 DUP8 DUP3 DUP9 ADD PUSH2 0x18DF JUMP JUMPDEST SWAP5 POP POP PUSH1 0x20 PUSH2 0x1CF5 DUP8 DUP3 DUP9 ADD PUSH2 0x18DF JUMP JUMPDEST SWAP4 POP POP PUSH1 0x40 PUSH2 0x1D06 DUP8 DUP3 DUP9 ADD PUSH2 0x182A JUMP JUMPDEST SWAP3 POP POP PUSH1 0x60 DUP6 ADD CALLDATALOAD PUSH8 0xFFFFFFFFFFFFFFFF DUP2 GT ISZERO PUSH2 0x1D27 JUMPI PUSH2 0x1D26 PUSH2 0x1697 JUMP JUMPDEST JUMPDEST PUSH2 0x1D33 DUP8 DUP3 DUP9 ADD PUSH2 0x1C8E JUMP JUMPDEST SWAP2 POP POP SWAP3 SWAP6 SWAP2 SWAP5 POP SWAP3 POP JUMP JUMPDEST PUSH1 0x0 DUP1 PUSH1 0x40 DUP4 DUP6 SUB SLT ISZERO PUSH2 0x1D56 JUMPI PUSH2 0x1D55 PUSH2 0x1692 JUMP JUMPDEST JUMPDEST PUSH1 0x0 PUSH2 0x1D64 DUP6 DUP3 DUP7 ADD PUSH2 0x18DF JUMP JUMPDEST SWAP3 POP POP PUSH1 0x20 PUSH2 0x1D75 DUP6 DUP3 DUP7 ADD PUSH2 0x18DF JUMP JUMPDEST SWAP2 POP POP SWAP3 POP SWAP3 SWAP1 POP JUMP JUMPDEST PUSH32 0x4E487B7100000000000000000000000000000000000000000000000000000000 PUSH1 0x0 MSTORE PUSH1 0x22 PUSH1 0x4 MSTORE PUSH1 0x24 PUSH1 0x0 REVERT JUMPDEST PUSH1 0x0 PUSH1 0x2 DUP3 DIV SWAP1 POP PUSH1 0x1 DUP3 AND DUP1 PUSH2 0x1DC6 JUMPI PUSH1 0x7F DUP3 AND SWAP2 POP JUMPDEST PUSH1 0x20 DUP3 LT DUP2 SUB PUSH2 0x1DD9 JUMPI PUSH2 0x1DD8 PUSH2 0x1D7F JUMP JUMPDEST JUMPDEST POP SWAP2 SWAP1 POP JUMP JUMPDEST PUSH1 0x0 DUP2 SWAP1 POP DUP2 PUSH1 0x0 MSTORE PUSH1 0x20 PUSH1 0x0 KECCAK256 SWAP1 POP SWAP2 SWAP1 POP JUMP JUMPDEST PUSH1 0x0 PUSH1 0x20 PUSH1 0x1F DUP4 ADD DIV SWAP1 POP SWAP2 SWAP1 POP JUMP JUMPDEST PUSH1 0x0 DUP3 DUP3 SHL SWAP1 POP SWAP3 SWAP2 POP POP JUMP JUMPDEST PUSH1 0x0 PUSH1 0x8 DUP4 MUL PUSH2 0x1E41 PUSH32 0xFFFFFFFFFFFFFFFFFFFFFFFFFFFFFFFFFFFFFFFFFFFFFFFFFFFFFFFFFFFFFFFF DUP3 PUSH2 0x1E04 JUMP JUMPDEST PUSH2 0x1E4B DUP7 DUP4 PUSH2 0x1E04 JUMP JUMPDEST SWAP6 POP DUP1 NOT DUP5 AND SWAP4 POP DUP1 DUP7 AND DUP5 OR SWAP3 POP POP POP SWAP4 SWAP3 POP POP POP JUMP JUMPDEST PUSH1 0x0 DUP2 SWAP1 POP SWAP2 SWAP1 POP JUMP JUMPDEST PUSH1 0x0 PUSH2 0x1E88 PUSH2 0x1E83 PUSH2 0x1E7E DUP5 PUSH2 0x1809 JUMP JUMPDEST PUSH2 0x1E63 JUMP JUMPDEST PUSH2 0x1809 JUMP JUMPDEST SWAP1 POP SWAP2 SWAP1 POP JUMP JUMPDEST PUSH1 0x0 DUP2 SWAP1 POP SWAP2 SWAP1 POP JUMP JUMPDEST PUSH2 0x1EA2 DUP4 PUSH2 0x1E6D JUMP JUMPDEST PUSH2 0x1EB6 PUSH2 0x1EAE DUP3 PUSH2 0x1E8F JUMP JUMPDEST DUP5 DUP5 SLOAD PUSH2 0x1E11 JUMP JUMPDEST DUP3 SSTORE POP POP POP POP JUMP JUMPDEST PUSH1 0x0 SWAP1 JUMP JUMPDEST PUSH2 0x1ECB PUSH2 0x1EBE JUMP JUMPDEST PUSH2 0x1ED6 DUP2 DUP5 DUP5 PUSH2 0x1E99 JUMP JUMPDEST POP POP POP JUMP JUMPDEST JUMPDEST DUP2 DUP2 LT ISZERO PUSH2 0x1EFA JUMPI PUSH2 0x1EEF PUSH1 0x0 DUP3 PUSH2 0x1EC3 JUMP JUMPDEST PUSH1 0x1 DUP2 ADD SWAP1 POP PUSH2 0x1EDC JUMP JUMPDEST POP POP JUMP JUMPDEST PUSH1 0x1F DUP3 GT ISZERO PUSH2 0x1F3F JUMPI PUSH2 0x1F10 DUP2 PUSH2 0x1DDF JUMP JUMPDEST PUSH2 0x1F19 DUP5 PUSH2 0x1DF4 JUMP JUMPDEST DUP2 ADD PUSH1 0x20 DUP6 LT ISZERO PUSH2 0x1F28 JUMPI DUP2 SWAP1 POP JUMPDEST PUSH2 0x1F3C PUSH2 0x1F34 DUP6 PUSH2 0x1DF4 JUMP JUMPDEST DUP4 ADD DUP3 PUSH2 0x1EDB JUMP JUMPDEST POP POP JUMPDEST POP POP POP JUMP JUMPDEST PUSH1 0x0 DUP3 DUP3 SHR SWAP1 POP SWAP3 SWAP2 POP POP JUMP JUMPDEST PUSH1 0x0 PUSH2 0x1F62 PUSH1 0x0 NOT DUP5 PUSH1 0x8 MUL PUSH2 0x1F44 JUMP JUMPDEST NOT DUP1 DUP4 AND SWAP2 POP POP SWAP3 SWAP2 POP POP JUMP JUMPDEST PUSH1 0x0 PUSH2 0x1F7B DUP4 DUP4 PUSH2 0x1F51 JUMP JUMPDEST SWAP2 POP DUP3 PUSH1 0x2 MUL DUP3 OR SWAP1 POP SWAP3 SWAP2 POP POP JUMP JUMPDEST PUSH2 0x1F94 DUP3 PUSH2 0x1757 JUMP JUMPDEST PUSH8 0xFFFFFFFFFFFFFFFF DUP2 GT ISZERO PUSH2 0x1FAD JUMPI PUSH2 0x1FAC PUSH2 0x1A0E JUMP JUMPDEST JUMPDEST PUSH2 0x1FB7 DUP3 SLOAD PUSH2 0x1DAE JUMP JUMPDEST PUSH2 0x1FC2 DUP3 DUP3 DUP6 PUSH2 0x1EFE JUMP JUMPDEST PUSH1 0x0 PUSH1 0x20 SWAP1 POP PUSH1 0x1F DUP4 GT PUSH1 0x1 DUP2 EQ PUSH2 0x1FF5 JUMPI PUSH1 0x0 DUP5 ISZERO PUSH2 0x1FE3 JUMPI DUP3 DUP8 ADD MLOAD SWAP1 POP JUMPDEST PUSH2 0x1FED DUP6 DUP3 PUSH2 0x1F6F JUMP JUMPDEST DUP7 SSTORE POP PUSH2 0x2055 JUMP JUMPDEST PUSH1 0x1F NOT DUP5 AND PUSH2 0x2003 DUP7 PUSH2 0x1DDF JUMP JUMPDEST PUSH1 0x0 JUMPDEST DUP3 DUP2 LT ISZERO PUSH2 0x202B JUMPI DUP5 DUP10 ADD MLOAD DUP3 SSTORE PUSH1 0x1 DUP3 ADD SWAP2 POP PUSH1 0x20 DUP6 ADD SWAP5 POP PUSH1 0x20 DUP2 ADD SWAP1 POP PUSH2 0x2006 JUMP JUMPDEST DUP7 DUP4 LT ISZERO PUSH2 0x2048 JUMPI DUP5 DUP10 ADD MLOAD PUSH2 0x2044 PUSH1 0x1F DUP10 AND DUP3 PUSH2 0x1F51 JUMP JUMPDEST DUP4 SSTORE POP JUMPDEST PUSH1 0x1 PUSH1 0x2 DUP9 MUL ADD DUP9 SSTORE POP POP POP JUMPDEST POP POP POP POP POP POP JUMP JUMPDEST PUSH32 0x4E487B7100000000000000000000000000000000000000000000000000000000 PUSH1 0x0 MSTORE PUSH1 0x11 PUSH1 0x4 MSTORE PUSH1 0x24 PUSH1 0x0 REVERT JUMPDEST PUSH1 0x0 PUSH2 0x2097 DUP3 PUSH2 0x1809 JUMP JUMPDEST SWAP2 POP PUSH2 0x20A2 DUP4 PUSH2 0x1809 JUMP JUMPDEST SWAP3 POP DUP3 DUP3 ADD SWAP1 POP DUP1 DUP3 GT ISZERO PUSH2 0x20BA JUMPI PUSH2 0x20B9 PUSH2 0x205D JUMP JUMPDEST JUMPDEST SWAP3 SWAP2 POP POP JUMP JUMPDEST PUSH32 0x467265656D696E7420536F6C644F757400000000000000000000000000000000 PUSH1 0x0 DUP3 ADD MSTORE POP JUMP JUMPDEST PUSH1 0x0 PUSH2 0x20F6 PUSH1 0x10 DUP4 PUSH2 0x1762 JUMP JUMPDEST SWAP2 POP PUSH2 0x2101 DUP3 PUSH2 0x20C0 JUMP JUMPDEST PUSH1 0x20 DUP3 ADD SWAP1 POP SWAP2 SWAP1 POP JUMP JUMPDEST PUSH1 0x0 PUSH1 0x20 DUP3 ADD SWAP1 POP DUP2 DUP2 SUB PUSH1 0x0 DUP4 ADD MSTORE PUSH2 0x2125 DUP2 PUSH2 0x20E9 JUMP JUMPDEST SWAP1 POP SWAP2 SWAP1 POP JUMP JUMPDEST PUSH32 0x4D6178207065722057616C6C6574000000000000000000000000000000000000 PUSH1 0x0 DUP3 ADD MSTORE POP JUMP JUMPDEST PUSH1 0x0 PUSH2 0x2162 PUSH1 0xE DUP4 PUSH2 0x1762 JUMP JUMPDEST SWAP2 POP PUSH2 0x216D DUP3 PUSH2 0x212C JUMP JUMPDEST PUSH1 0x20 DUP3 ADD SWAP1 POP SWAP2 SWAP1 POP JUMP JUMPDEST PUSH1 0x0 PUSH1 0x20 DUP3 ADD SWAP1 POP DUP2 DUP2 SUB PUSH1 0x0 DUP4 ADD MSTORE PUSH2 0x2191 DUP2 PUSH2 0x2155 JUMP JUMPDEST SWAP1 POP SWAP2 SWAP1 POP JUMP JUMPDEST PUSH32 0x536F6C644F757400000000000000000000000000000000000000000000000000 PUSH1 0x0 DUP3 ADD MSTORE POP JUMP JUMPDEST PUSH1 0x0 PUSH2 0x21CE PUSH1 0x7 DUP4 PUSH2 0x1762 JUMP JUMPDEST SWAP2 POP PUSH2 0x21D9 DUP3 PUSH2 0x2198 JUMP JUMPDEST PUSH1 0x20 DUP3 ADD SWAP1 POP SWAP2 SWAP1 POP JUMP JUMPDEST PUSH1 0x0 PUSH1 0x20 DUP3 ADD SWAP1 POP DUP2 DUP2 SUB PUSH1 0x0 DUP4 ADD MSTORE PUSH2 0x21FD DUP2 PUSH2 0x21C1 JUMP JUMPDEST SWAP1 POP SWAP2 SWAP1 POP JUMP JUMPDEST PUSH1 0x0 DUP2 SWAP1 POP SWAP3 SWAP2 POP POP JUMP JUMPDEST PUSH32 0x697066733A2F2F00000000000000000000000000000000000000000000000000 PUSH1 0x0 DUP3 ADD MSTORE POP JUMP JUMPDEST PUSH1 0x0 PUSH2 0x2245 PUSH1 0x7 DUP4 PUSH2 0x2204 JUMP JUMPDEST SWAP2 POP PUSH2 0x2250 DUP3 PUSH2 0x220F JUMP JUMPDEST PUSH1 0x7 DUP3 ADD SWAP1 POP SWAP2 SWAP1 POP JUMP JUMPDEST PUSH1 0x0 PUSH2 0x2266 DUP3 PUSH2 0x1757 JUMP JUMPDEST PUSH2 0x2270 DUP2 DUP6 PUSH2 0x2204 JUMP JUMPDEST SWAP4 POP PUSH2 0x2280 DUP2 DUP6 PUSH1 0x20 DUP7 ADD PUSH2 0x1773 JUMP JUMPDEST DUP1 DUP5 ADD SWAP2 POP POP SWAP3 SWAP2 POP POP JUMP JUMPDEST PUSH32 0x2F00000000000000000000000000000000000000000000000000000000000000 PUSH1 0x0 DUP3 ADD MSTORE POP JUMP JUMPDEST PUSH1 0x0 PUSH2 0x22C2 PUSH1 0x1 DUP4 PUSH2 0x2204 JUMP JUMPDEST SWAP2 POP PUSH2 0x22CD DUP3 PUSH2 0x228C JUMP JUMPDEST PUSH1 0x1 DUP3 ADD SWAP1 POP SWAP2 SWAP1 POP JUMP JUMPDEST PUSH32 0x2E6A736F6E000000000000000000000000000000000000000000000000000000 PUSH1 0x0 DUP3 ADD MSTORE POP JUMP JUMPDEST PUSH1 0x0 PUSH2 0x230E PUSH1 0x5 DUP4 PUSH2 0x2204 JUMP JUMPDEST SWAP2 POP PUSH2 0x2319 DUP3 PUSH2 0x22D8 JUMP JUMPDEST PUSH1 0x5 DUP3 ADD SWAP1 POP SWAP2 SWAP1 POP JUMP JUMPDEST PUSH1 0x0 PUSH2 0x232F DUP3 PUSH2 0x2238 JUMP JUMPDEST SWAP2 POP PUSH2 0x233B DUP3 DUP6 PUSH2 0x225B JUMP JUMPDEST SWAP2 POP PUSH2 0x2346 DUP3 PUSH2 0x22B5 JUMP JUMPDEST SWAP2 POP PUSH2 0x2352 DUP3 DUP5 PUSH2 0x225B JUMP JUMPDEST SWAP2 POP PUSH2 0x235D DUP3 PUSH2 0x2301 JUMP JUMPDEST SWAP2 POP DUP2 SWAP1 POP SWAP4 SWAP3 POP POP POP JUMP INVALID LOG2 PUSH5 0x6970667358 0x22 SLT KECCAK256 EQ 0xCC INVALID AND GASLIMIT 0x2D 0x28 PUSH29 0xCC44FF8A994722171C80404962B739717C606C6F81A50E0964736F6C63 NUMBER STOP ADDMOD GT STOP CALLER MLOAD PUSH14 0x58537665725876447453674B6143 PUSH18 0x6D74696F5043724B3471576D636155485662 SLOAD 0x4E NUMBER PUSH14 0x62454265564A6400000000000000 "
				},
				"gasEstimates": {
					"creation": {
						"codeDepositCost": "1823800",
						"executionCost": "infinite",
						"totalCost": "infinite"
					},
					"external": {
						"COST()": "2495",
						"MAX_FREE()": "2561",
						"MAX_FREE_PER_WALLET()": "2540",
						"MAX_SUPPLY()": "374",
						"approve(address,uint256)": "infinite",
						"balanceOf(address)": "2958",
						"freeMint()": "infinite",
						"getApproved(uint256)": "5160",
						"isApprovedForAll(address,address)": "infinite",
						"mint(uint256)": "infinite",
						"name()": "infinite",
						"owner()": "2589",
						"ownerOf(uint256)": "infinite",
						"safeTransferFrom(address,address,uint256)": "infinite",
						"safeTransferFrom(address,address,uint256,bytes)": "infinite",
						"setApprovalForAll(address,bool)": "infinite",
						"setConfig(uint256,uint256,uint256)": "infinite",
						"setData(string)": "infinite",
						"supportsInterface(bytes4)": "745",
						"symbol()": "infinite",
						"tokenURI(uint256)": "infinite",
						"totalSupply()": "2604",
						"transferFrom(address,address,uint256)": "infinite",
						"withdraw()": "infinite"
					},
					"internal": {
						"_addressToUint256(address)": "28",
						"_afterTokenTransfers(address,address,uint256,uint256)": "17",
						"_boolToUint256(bool)": "28",
						"_exists(uint256)": "2195",
						"_getAux(address)": "infinite",
						"_initializeOwnershipAt(uint256)": "infinite",
						"_mint(address,uint256)": "infinite",
						"_msgSenderERC721A()": "22",
						"_nextTokenId()": "infinite",
						"_numberMinted(address)": "2239",
						"_ownershipAt(uint256)": "infinite",
						"_ownershipOf(uint256)": "infinite",
						"_packedOwnershipOf(uint256)": "infinite",
						"_startTokenId()": "15",
						"_toString(uint256)": "infinite",
						"_totalMinted()": "infinite",
						"_transfer(address,address,uint256)": "infinite",
						"_unpackedOwnership(uint256)": "infinite"
					}
				},
				"methodIdentifiers": {
					"COST()": "bf8fbbd2",
					"MAX_FREE()": "ed6661c2",
					"MAX_FREE_PER_WALLET()": "98710d1e",
					"MAX_SUPPLY()": "32cb6b0c",
					"approve(address,uint256)": "095ea7b3",
					"balanceOf(address)": "70a08231",
					"freeMint()": "5b70ea9f",
					"getApproved(uint256)": "081812fc",
					"isApprovedForAll(address,address)": "e985e9c5",
					"mint(uint256)": "a0712d68",
					"name()": "06fdde03",
					"owner()": "8da5cb5b",
					"ownerOf(uint256)": "6352211e",
					"safeTransferFrom(address,address,uint256)": "42842e0e",
					"safeTransferFrom(address,address,uint256,bytes)": "b88d4fde",
					"setApprovalForAll(address,bool)": "a22cb465",
					"setConfig(uint256,uint256,uint256)": "129ee21a",
					"setData(string)": "47064d6a",
					"supportsInterface(bytes4)": "01ffc9a7",
					"symbol()": "95d89b41",
					"tokenURI(uint256)": "c87b56dd",
					"totalSupply()": "18160ddd",
					"transferFrom(address,address,uint256)": "23b872dd",
					"withdraw()": "3ccfd60b"
				}
			},
			"storageLayout": {
				"storage": [
					{
						"astId": 212,
						"contract": "Newnft.sol:ApesUnshaved",
						"label": "_owner",
						"offset": 0,
						"slot": "0",
						"type": "t_address"
					},
					{
						"astId": 237,
						"contract": "Newnft.sol:ApesUnshaved",
						"label": "MAX_FREE",
						"offset": 0,
						"slot": "1",
						"type": "t_uint256"
					},
					{
						"astId": 240,
						"contract": "Newnft.sol:ApesUnshaved",
						"label": "MAX_FREE_PER_WALLET",
						"offset": 0,
						"slot": "2",
						"type": "t_uint256"
					},
					{
						"astId": 243,
						"contract": "Newnft.sol:ApesUnshaved",
						"label": "COST",
						"offset": 0,
						"slot": "3",
						"type": "t_uint256"
					},
					{
						"astId": 252,
						"contract": "Newnft.sol:ApesUnshaved",
						"label": "_baseURI",
						"offset": 0,
						"slot": "4",
						"type": "t_string_storage"
					},
					{
						"astId": 370,
						"contract": "Newnft.sol:ApesUnshaved",
						"label": "_currentIndex",
						"offset": 0,
						"slot": "5",
						"type": "t_uint256"
					},
					{
						"astId": 374,
						"contract": "Newnft.sol:ApesUnshaved",
						"label": "_packedOwnerships",
						"offset": 0,
						"slot": "6",
						"type": "t_mapping(t_uint256,t_uint256)"
					},
					{
						"astId": 378,
						"contract": "Newnft.sol:ApesUnshaved",
						"label": "_packedAddressData",
						"offset": 0,
						"slot": "7",
						"type": "t_mapping(t_address,t_uint256)"
					},
					{
						"astId": 382,
						"contract": "Newnft.sol:ApesUnshaved",
						"label": "_tokenApprovals",
						"offset": 0,
						"slot": "8",
						"type": "t_mapping(t_uint256,t_address)"
					},
					{
						"astId": 388,
						"contract": "Newnft.sol:ApesUnshaved",
						"label": "_operatorApprovals",
						"offset": 0,
						"slot": "9",
						"type": "t_mapping(t_address,t_mapping(t_address,t_bool))"
					}
				],
				"types": {
					"t_address": {
						"encoding": "inplace",
						"label": "address",
						"numberOfBytes": "20"
					},
					"t_bool": {
						"encoding": "inplace",
						"label": "bool",
						"numberOfBytes": "1"
					},
					"t_mapping(t_address,t_bool)": {
						"encoding": "mapping",
						"key": "t_address",
						"label": "mapping(address => bool)",
						"numberOfBytes": "32",
						"value": "t_bool"
					},
					"t_mapping(t_address,t_mapping(t_address,t_bool))": {
						"encoding": "mapping",
						"key": "t_address",
						"label": "mapping(address => mapping(address => bool))",
						"numberOfBytes": "32",
						"value": "t_mapping(t_address,t_bool)"
					},
					"t_mapping(t_address,t_uint256)": {
						"encoding": "mapping",
						"key": "t_address",
						"label": "mapping(address => uint256)",
						"numberOfBytes": "32",
						"value": "t_uint256"
					},
					"t_mapping(t_uint256,t_address)": {
						"encoding": "mapping",
						"key": "t_uint256",
						"label": "mapping(uint256 => address)",
						"numberOfBytes": "32",
						"value": "t_address"
					},
					"t_mapping(t_uint256,t_uint256)": {
						"encoding": "mapping",
						"key": "t_uint256",
						"label": "mapping(uint256 => uint256)",
						"numberOfBytes": "32",
						"value": "t_uint256"
					},
					"t_string_storage": {
						"encoding": "bytes",
						"label": "string",
						"numberOfBytes": "32"
					},
					"t_uint256": {
						"encoding": "inplace",
						"label": "uint256",
						"numberOfBytes": "32"
					}
				}
			},
			"userdoc": {
				"errors": {
					"ApprovalCallerNotOwnerNorApproved()": [
						{
							"notice": "The caller must own the token or be an approved operator."
						}
					],
					"ApprovalQueryForNonexistentToken()": [
						{
							"notice": "The token does not exist."
						}
					],
					"ApproveToCaller()": [
						{
							"notice": "The caller cannot approve to their own address."
						}
					],
					"BalanceQueryForZeroAddress()": [
						{
							"notice": "Cannot query the balance for the zero address."
						}
					],
					"MintERC2309QuantityExceedsLimit()": [
						{
							"notice": "The `quantity` minted with ERC2309 exceeds the safety limit."
						}
					],
					"MintToZeroAddress()": [
						{
							"notice": "Cannot mint to the zero address."
						}
					],
					"MintZeroQuantity()": [
						{
							"notice": "The quantity of tokens minted must be more than zero."
						}
					],
					"OwnerQueryForNonexistentToken()": [
						{
							"notice": "The token does not exist."
						}
					],
					"OwnershipNotInitializedForExtraData()": [
						{
							"notice": "The `extraData` cannot be set on an unintialized ownership slot."
						}
					],
					"TransferCallerNotOwnerNorApproved()": [
						{
							"notice": "The caller must own the token or be an approved operator."
						}
					],
					"TransferFromIncorrectOwner()": [
						{
							"notice": "The token must be owned by `from`."
						}
					],
					"TransferToNonERC721ReceiverImplementer()": [
						{
							"notice": "Cannot safely transfer to a contract that does not implement the ERC721Receiver interface."
						}
					],
					"TransferToZeroAddress()": [
						{
							"notice": "Cannot transfer to the zero address."
						}
					],
					"URIQueryForNonexistentToken()": [
						{
							"notice": "The token does not exist."
						}
					]
				},
				"kind": "user",
				"methods": {},
				"version": 1
			}
		}
	}
}