{
	"buyer1.sol": {
		"Factory": {
			"abi": [
				{
					"inputs": [
						{
							"internalType": "address",
							"name": "_admin",
							"type": "address"
						}
					],
					"stateMutability": "nonpayable",
					"type": "constructor"
				},
				{
					"inputs": [],
					"name": "admin",
					"outputs": [
						{
							"internalType": "address",
							"name": "",
							"type": "address"
						}
					],
					"stateMutability": "view",
					"type": "function"
				},
				{
					"inputs": [
						{
							"internalType": "uint256",
							"name": "amount",
							"type": "uint256"
						}
					],
					"name": "deploy",
					"outputs": [],
					"stateMutability": "nonpayable",
					"type": "function"
				},
				{
					"inputs": [
						{
							"internalType": "address",
							"name": "nft",
							"type": "address"
						},
						{
							"internalType": "uint256",
							"name": "amount",
							"type": "uint256"
						},
						{
							"internalType": "bytes",
							"name": "param",
							"type": "bytes"
						}
					],
					"name": "mint",
					"outputs": [],
					"stateMutability": "nonpayable",
					"type": "function"
				},
				{
					"inputs": [
						{
							"internalType": "address",
							"name": "nft",
							"type": "address"
						},
						{
							"internalType": "uint256",
							"name": "amount",
							"type": "uint256"
						},
						{
							"internalType": "bytes",
							"name": "param",
							"type": "bytes"
						}
					],
					"name": "mintAndTransfer",
					"outputs": [],
					"stateMutability": "nonpayable",
					"type": "function"
				},
				{
					"inputs": [
						{
							"internalType": "address",
							"name": "nft",
							"type": "address"
						},
						{
							"internalType": "uint256",
							"name": "amount",
							"type": "uint256"
						},
						{
							"internalType": "bytes",
							"name": "param",
							"type": "bytes"
						}
					],
					"name": "mintBySubContract",
					"outputs": [],
					"stateMutability": "payable",
					"type": "function"
				},
				{
					"inputs": [
						{
							"internalType": "uint256",
							"name": "",
							"type": "uint256"
						}
					],
					"name": "minters",
					"outputs": [
						{
							"internalType": "address",
							"name": "",
							"type": "address"
						}
					],
					"stateMutability": "view",
					"type": "function"
				},
				{
					"inputs": [
						{
							"internalType": "address",
							"name": "",
							"type": "address"
						},
						{
							"internalType": "address",
							"name": "",
							"type": "address"
						},
						{
							"internalType": "uint256",
							"name": "_tokenId",
							"type": "uint256"
						},
						{
							"internalType": "bytes",
							"name": "",
							"type": "bytes"
						}
					],
					"name": "onERC721Received",
					"outputs": [
						{
							"internalType": "bytes4",
							"name": "",
							"type": "bytes4"
						}
					],
					"stateMutability": "nonpayable",
					"type": "function"
				},
				{
					"inputs": [
						{
							"internalType": "address",
							"name": "nft",
							"type": "address"
						},
						{
							"internalType": "uint256",
							"name": "amount",
							"type": "uint256"
						}
					],
					"name": "transferBySubContract",
					"outputs": [],
					"stateMutability": "nonpayable",
					"type": "function"
				}
			],
			"devdoc": {
				"kind": "dev",
				"methods": {},
				"version": 1
			},
			"evm": {
				"assembly": "    /* \"buyer1.sol\":7915:10156  contract Factory is IERC721Receiver{... */\n  mstore(0x40, 0x80)\n    /* \"buyer1.sol\":8028:8029  0 */\n  0x00\n    /* \"buyer1.sol\":8013:8029  uint256 salt = 0 */\n  0x02\n  sstore\n    /* \"buyer1.sol\":8057:8116  constructor(address _admin) {... */\n  callvalue\n  dup1\n  iszero\n  tag_1\n  jumpi\n  0x00\n  dup1\n  revert\ntag_1:\n  pop\n  mload(0x40)\n  sub(codesize, bytecodeSize)\n  dup1\n  bytecodeSize\n  dup4\n  codecopy\n  dup2\n  dup2\n  add\n  0x40\n  mstore\n  dup2\n  add\n  swap1\n  tag_2\n  swap2\n  swap1\n  tag_3\n  jump\t// in\ntag_2:\n    /* \"buyer1.sol\":8103:8109  _admin */\n  dup1\n    /* \"buyer1.sol\":8095:8100  admin */\n  0x00\n  dup1\n    /* \"buyer1.sol\":8095:8109  admin = _admin */\n  0x0100\n  exp\n  dup2\n  sload\n  dup2\n  0xffffffffffffffffffffffffffffffffffffffff\n  mul\n  not\n  and\n  swap1\n  dup4\n  0xffffffffffffffffffffffffffffffffffffffff\n  and\n  mul\n  or\n  swap1\n  sstore\n  pop\n    /* \"buyer1.sol\":8057:8116  constructor(address _admin) {... */\n  pop\n    /* \"buyer1.sol\":7915:10156  contract Factory is IERC721Receiver{... */\n  jump(tag_6)\n    /* \"#utility.yul\":88:205   */\ntag_8:\n    /* \"#utility.yul\":197:198   */\n  0x00\n    /* \"#utility.yul\":194:195   */\n  dup1\n    /* \"#utility.yul\":187:199   */\n  revert\n    /* \"#utility.yul\":334:460   */\ntag_10:\n    /* \"#utility.yul\":371:378   */\n  0x00\n    /* \"#utility.yul\":411:453   */\n  0xffffffffffffffffffffffffffffffffffffffff\n    /* \"#utility.yul\":404:409   */\n  dup3\n    /* \"#utility.yul\":400:454   */\n  and\n    /* \"#utility.yul\":389:454   */\n  swap1\n  pop\n    /* \"#utility.yul\":334:460   */\n  swap2\n  swap1\n  pop\n  jump\t// out\n    /* \"#utility.yul\":466:562   */\ntag_11:\n    /* \"#utility.yul\":503:510   */\n  0x00\n    /* \"#utility.yul\":532:556   */\n  tag_20\n    /* \"#utility.yul\":550:555   */\n  dup3\n    /* \"#utility.yul\":532:556   */\n  tag_10\n  jump\t// in\ntag_20:\n    /* \"#utility.yul\":521:556   */\n  swap1\n  pop\n    /* \"#utility.yul\":466:562   */\n  swap2\n  swap1\n  pop\n  jump\t// out\n    /* \"#utility.yul\":568:690   */\ntag_12:\n    /* \"#utility.yul\":641:665   */\n  tag_22\n    /* \"#utility.yul\":659:664   */\n  dup2\n    /* \"#utility.yul\":641:665   */\n  tag_11\n  jump\t// in\ntag_22:\n    /* \"#utility.yul\":634:639   */\n  dup2\n    /* \"#utility.yul\":631:666   */\n  eq\n    /* \"#utility.yul\":621:684   */\n  tag_23\n  jumpi\n    /* \"#utility.yul\":680:681   */\n  0x00\n    /* \"#utility.yul\":677:678   */\n  dup1\n    /* \"#utility.yul\":670:682   */\n  revert\n    /* \"#utility.yul\":621:684   */\ntag_23:\n    /* \"#utility.yul\":568:690   */\n  pop\n  jump\t// out\n    /* \"#utility.yul\":696:839   */\ntag_13:\n    /* \"#utility.yul\":753:758   */\n  0x00\n    /* \"#utility.yul\":784:790   */\n  dup2\n    /* \"#utility.yul\":778:791   */\n  mload\n    /* \"#utility.yul\":769:791   */\n  swap1\n  pop\n    /* \"#utility.yul\":800:833   */\n  tag_25\n    /* \"#utility.yul\":827:832   */\n  dup2\n    /* \"#utility.yul\":800:833   */\n  tag_12\n  jump\t// in\ntag_25:\n    /* \"#utility.yul\":696:839   */\n  swap3\n  swap2\n  pop\n  pop\n  jump\t// out\n    /* \"#utility.yul\":845:1196   */\ntag_3:\n    /* \"#utility.yul\":915:921   */\n  0x00\n    /* \"#utility.yul\":964:966   */\n  0x20\n    /* \"#utility.yul\":952:961   */\n  dup3\n    /* \"#utility.yul\":943:950   */\n  dup5\n    /* \"#utility.yul\":939:962   */\n  sub\n    /* \"#utility.yul\":935:967   */\n  slt\n    /* \"#utility.yul\":932:1051   */\n  iszero\n  tag_27\n  jumpi\n    /* \"#utility.yul\":970:1049   */\n  tag_28\n  tag_8\n  jump\t// in\ntag_28:\n    /* \"#utility.yul\":932:1051   */\ntag_27:\n    /* \"#utility.yul\":1090:1091   */\n  0x00\n    /* \"#utility.yul\":1115:1179   */\n  tag_29\n    /* \"#utility.yul\":1171:1178   */\n  dup5\n    /* \"#utility.yul\":1162:1168   */\n  dup3\n    /* \"#utility.yul\":1151:1160   */\n  dup6\n    /* \"#utility.yul\":1147:1169   */\n  add\n    /* \"#utility.yul\":1115:1179   */\n  tag_13\n  jump\t// in\ntag_29:\n    /* \"#utility.yul\":1105:1179   */\n  swap2\n  pop\n    /* \"#utility.yul\":1061:1189   */\n  pop\n    /* \"#utility.yul\":845:1196   */\n  swap3\n  swap2\n  pop\n  pop\n  jump\t// out\n    /* \"buyer1.sol\":7915:10156  contract Factory is IERC721Receiver{... */\ntag_6:\n  dataSize(sub_0)\n  dup1\n  dataOffset(sub_0)\n  0x00\n  codecopy\n  0x00\n  return\nstop\n\nsub_0: assembly {\n        /* \"buyer1.sol\":7915:10156  contract Factory is IERC721Receiver{... */\n      mstore(0x40, 0x80)\n      jumpi(tag_1, lt(calldatasize, 0x04))\n      shr(0xe0, calldataload(0x00))\n      dup1\n      0xa5e38751\n      gt\n      tag_10\n      jumpi\n      dup1\n      0xa5e38751\n      eq\n      tag_6\n      jumpi\n      dup1\n      0xc6046f77\n      eq\n      tag_7\n      jumpi\n      dup1\n      0xf4bbc568\n      eq\n      tag_8\n      jumpi\n      dup1\n      0xf851a440\n      eq\n      tag_9\n      jumpi\n      jump(tag_1)\n    tag_10:\n      dup1\n      0x150b7a02\n      eq\n      tag_2\n      jumpi\n      dup1\n      0x4e702ab3\n      eq\n      tag_3\n      jumpi\n      dup1\n      0x8623ec7b\n      eq\n      tag_4\n      jumpi\n      dup1\n      0x94d008ef\n      eq\n      tag_5\n      jumpi\n    tag_1:\n      0x00\n      dup1\n      revert\n        /* \"buyer1.sol\":9925:10154  function onERC721Received(... */\n    tag_2:\n      callvalue\n      dup1\n      iszero\n      tag_11\n      jumpi\n      0x00\n      dup1\n      revert\n    tag_11:\n      pop\n      tag_12\n      0x04\n      dup1\n      calldatasize\n      sub\n      dup2\n      add\n      swap1\n      tag_13\n      swap2\n      swap1\n      tag_14\n      jump\t// in\n    tag_13:\n      tag_15\n      jump\t// in\n    tag_12:\n      mload(0x40)\n      tag_16\n      swap2\n      swap1\n      tag_17\n      jump\t// in\n    tag_16:\n      mload(0x40)\n      dup1\n      swap2\n      sub\n      swap1\n      return\n        /* \"buyer1.sol\":9129:9333  function transferBySubContract(... */\n    tag_3:\n      callvalue\n      dup1\n      iszero\n      tag_18\n      jumpi\n      0x00\n      dup1\n      revert\n    tag_18:\n      pop\n      tag_19\n      0x04\n      dup1\n      calldatasize\n      sub\n      dup2\n      add\n      swap1\n      tag_20\n      swap2\n      swap1\n      tag_21\n      jump\t// in\n    tag_20:\n      tag_22\n      jump\t// in\n    tag_19:\n      stop\n        /* \"buyer1.sol\":7983:8007  address[] public minters */\n    tag_4:\n      callvalue\n      dup1\n      iszero\n      tag_23\n      jumpi\n      0x00\n      dup1\n      revert\n    tag_23:\n      pop\n      tag_24\n      0x04\n      dup1\n      calldatasize\n      sub\n      dup2\n      add\n      swap1\n      tag_25\n      swap2\n      swap1\n      tag_26\n      jump\t// in\n    tag_25:\n      tag_27\n      jump\t// in\n    tag_24:\n      mload(0x40)\n      tag_28\n      swap2\n      swap1\n      tag_29\n      jump\t// in\n    tag_28:\n      mload(0x40)\n      dup1\n      swap2\n      sub\n      swap1\n      return\n        /* \"buyer1.sol\":9673:9919  function mint(... */\n    tag_5:\n      callvalue\n      dup1\n      iszero\n      tag_30\n      jumpi\n      0x00\n      dup1\n      revert\n    tag_30:\n      pop\n      tag_31\n      0x04\n      dup1\n      calldatasize\n      sub\n      dup2\n      add\n      swap1\n      tag_32\n      swap2\n      swap1\n      tag_33\n      jump\t// in\n    tag_32:\n      tag_34\n      jump\t// in\n    tag_31:\n      stop\n        /* \"buyer1.sol\":8328:8818  function deploy(uint256 amount) external {... */\n    tag_6:\n      callvalue\n      dup1\n      iszero\n      tag_35\n      jumpi\n      0x00\n      dup1\n      revert\n    tag_35:\n      pop\n      tag_36\n      0x04\n      dup1\n      calldatasize\n      sub\n      dup2\n      add\n      swap1\n      tag_37\n      swap2\n      swap1\n      tag_26\n      jump\t// in\n    tag_37:\n      tag_38\n      jump\t// in\n    tag_36:\n      stop\n        /* \"buyer1.sol\":9340:9667  function mintAndTransfer(... */\n    tag_7:\n      callvalue\n      dup1\n      iszero\n      tag_39\n      jumpi\n      0x00\n      dup1\n      revert\n    tag_39:\n      pop\n      tag_40\n      0x04\n      dup1\n      calldatasize\n      sub\n      dup2\n      add\n      swap1\n      tag_41\n      swap2\n      swap1\n      tag_33\n      jump\t// in\n    tag_41:\n      tag_42\n      jump\t// in\n    tag_40:\n      stop\n        /* \"buyer1.sol\":8824:9123  function mintBySubContract(... */\n    tag_8:\n      tag_43\n      0x04\n      dup1\n      calldatasize\n      sub\n      dup2\n      add\n      swap1\n      tag_44\n      swap2\n      swap1\n      tag_33\n      jump\t// in\n    tag_44:\n      tag_45\n      jump\t// in\n    tag_43:\n      stop\n        /* \"buyer1.sol\":7957:7977  address public admin */\n    tag_9:\n      callvalue\n      dup1\n      iszero\n      tag_46\n      jumpi\n      0x00\n      dup1\n      revert\n    tag_46:\n      pop\n      tag_47\n      tag_48\n      jump\t// in\n    tag_47:\n      mload(0x40)\n      tag_49\n      swap2\n      swap1\n      tag_29\n      jump\t// in\n    tag_49:\n      mload(0x40)\n      dup1\n      swap2\n      sub\n      swap1\n      return\n        /* \"buyer1.sol\":9925:10154  function onERC721Received(... */\n    tag_15:\n        /* \"buyer1.sol\":10064:10070  bytes4 */\n      0x00\n        /* \"buyer1.sol\":10092:10100  _tokenId */\n      dup3\n        /* \"buyer1.sol\":10082:10089  tokenId */\n      0x03\n        /* \"buyer1.sol\":10082:10100  tokenId = _tokenId */\n      dup2\n      swap1\n      sstore\n      pop\n        /* \"buyer1.sol\":10117:10147  this.onERC721Received.selector */\n      shl(0xe0, 0x150b7a02)\n        /* \"buyer1.sol\":10110:10147  return this.onERC721Received.selector */\n      swap1\n      pop\n        /* \"buyer1.sol\":9925:10154  function onERC721Received(... */\n      swap5\n      swap4\n      pop\n      pop\n      pop\n      pop\n      jump\t// out\n        /* \"buyer1.sol\":9129:9333  function transferBySubContract(... */\n    tag_22:\n        /* \"buyer1.sol\":9234:9243  uint256 i */\n      0x00\n        /* \"buyer1.sol\":9230:9327  for(uint256 i = 0; i < amount; i ++) {... */\n    tag_52:\n        /* \"buyer1.sol\":9253:9259  amount */\n      dup2\n        /* \"buyer1.sol\":9249:9250  i */\n      dup2\n        /* \"buyer1.sol\":9249:9259  i < amount */\n      lt\n        /* \"buyer1.sol\":9230:9327  for(uint256 i = 0; i < amount; i ++) {... */\n      iszero\n      tag_53\n      jumpi\n        /* \"buyer1.sol\":9291:9298  minters */\n      0x01\n        /* \"buyer1.sol\":9299:9300  i */\n      dup2\n        /* \"buyer1.sol\":9291:9301  minters[i] */\n      dup2\n      sload\n      dup2\n      lt\n      tag_55\n      jumpi\n      tag_56\n      tag_57\n      jump\t// in\n    tag_56:\n    tag_55:\n      swap1\n      0x00\n      mstore\n      keccak256(0x00, 0x20)\n      add\n      0x00\n      swap1\n      sload\n      swap1\n      0x0100\n      exp\n      swap1\n      div\n      0xffffffffffffffffffffffffffffffffffffffff\n      and\n        /* \"buyer1.sol\":9281:9311  NftMinter(minters[i]).transfer */\n      0xffffffffffffffffffffffffffffffffffffffff\n      and\n      0x1a695230\n        /* \"buyer1.sol\":9312:9315  nft */\n      dup5\n        /* \"buyer1.sol\":9281:9316  NftMinter(minters[i]).transfer(nft) */\n      mload(0x40)\n      dup3\n      0xffffffff\n      and\n      0xe0\n      shl\n      dup2\n      mstore\n      0x04\n      add\n      tag_59\n      swap2\n      swap1\n      tag_29\n      jump\t// in\n    tag_59:\n      0x00\n      mload(0x40)\n      dup1\n      dup4\n      sub\n      dup2\n      0x00\n      dup8\n      dup1\n      extcodesize\n      iszero\n      dup1\n      iszero\n      tag_60\n      jumpi\n      0x00\n      dup1\n      revert\n    tag_60:\n      pop\n      gas\n      call\n      iszero\n      dup1\n      iszero\n      tag_62\n      jumpi\n      returndatasize\n      0x00\n      dup1\n      returndatacopy\n      revert(0x00, returndatasize)\n    tag_62:\n      pop\n      pop\n      pop\n      pop\n        /* \"buyer1.sol\":9261:9265  i ++ */\n      dup1\n      dup1\n      tag_63\n      swap1\n      tag_64\n      jump\t// in\n    tag_63:\n      swap2\n      pop\n      pop\n        /* \"buyer1.sol\":9230:9327  for(uint256 i = 0; i < amount; i ++) {... */\n      jump(tag_52)\n    tag_53:\n      pop\n        /* \"buyer1.sol\":9129:9333  function transferBySubContract(... */\n      pop\n      pop\n      jump\t// out\n        /* \"buyer1.sol\":7983:8007  address[] public minters */\n    tag_27:\n      0x01\n      dup2\n      dup2\n      sload\n      dup2\n      lt\n      tag_65\n      jumpi\n      0x00\n      dup1\n      revert\n    tag_65:\n      swap1\n      0x00\n      mstore\n      keccak256(0x00, 0x20)\n      add\n      0x00\n      swap2\n      pop\n      sload\n      swap1\n      0x0100\n      exp\n      swap1\n      div\n      0xffffffffffffffffffffffffffffffffffffffff\n      and\n      dup2\n      jump\t// out\n        /* \"buyer1.sol\":9673:9919  function mint(... */\n    tag_34:\n        /* \"buyer1.sol\":9791:9800  uint256 i */\n      0x00\n        /* \"buyer1.sol\":9787:9913  for(uint256 i = 0; i < amount; i ++) {... */\n    tag_68:\n        /* \"buyer1.sol\":9810:9816  amount */\n      dup4\n        /* \"buyer1.sol\":9806:9807  i */\n      dup2\n        /* \"buyer1.sol\":9806:9816  i < amount */\n      lt\n        /* \"buyer1.sol\":9787:9913  for(uint256 i = 0; i < amount; i ++) {... */\n      iszero\n      tag_69\n      jumpi\n        /* \"buyer1.sol\":9839:9851  bool success */\n      0x00\n        /* \"buyer1.sol\":9857:9860  nft */\n      dup6\n        /* \"buyer1.sol\":9857:9865  nft.call */\n      0xffffffffffffffffffffffffffffffffffffffff\n      and\n        /* \"buyer1.sol\":9866:9871  param */\n      dup5\n      dup5\n        /* \"buyer1.sol\":9857:9872  nft.call(param) */\n      mload(0x40)\n      tag_71\n      swap3\n      swap2\n      swap1\n      tag_72\n      jump\t// in\n    tag_71:\n      0x00\n      mload(0x40)\n      dup1\n      dup4\n      sub\n      dup2\n      0x00\n      dup7\n      gas\n      call\n      swap2\n      pop\n      pop\n      returndatasize\n      dup1\n      0x00\n      dup2\n      eq\n      tag_75\n      jumpi\n      mload(0x40)\n      swap2\n      pop\n      and(add(returndatasize, 0x3f), not(0x1f))\n      dup3\n      add\n      0x40\n      mstore\n      returndatasize\n      dup3\n      mstore\n      returndatasize\n      0x00\n      0x20\n      dup5\n      add\n      returndatacopy\n      jump(tag_74)\n    tag_75:\n      0x60\n      swap2\n      pop\n    tag_74:\n      pop\n        /* \"buyer1.sol\":9838:9872  (bool success, ) = nft.call(param) */\n      pop\n      swap1\n      pop\n        /* \"buyer1.sol\":9894:9901  success */\n      dup1\n        /* \"buyer1.sol\":9886:9902  require(success) */\n      tag_76\n      jumpi\n      0x00\n      dup1\n      revert\n    tag_76:\n        /* \"buyer1.sol\":9824:9913  {... */\n      pop\n        /* \"buyer1.sol\":9818:9822  i ++ */\n      dup1\n      dup1\n      tag_77\n      swap1\n      tag_64\n      jump\t// in\n    tag_77:\n      swap2\n      pop\n      pop\n        /* \"buyer1.sol\":9787:9913  for(uint256 i = 0; i < amount; i ++) {... */\n      jump(tag_68)\n    tag_69:\n      pop\n        /* \"buyer1.sol\":9673:9919  function mint(... */\n      pop\n      pop\n      pop\n      pop\n      jump\t// out\n        /* \"buyer1.sol\":8328:8818  function deploy(uint256 amount) external {... */\n    tag_38:\n        /* \"buyer1.sol\":8379:8400  bytes memory bytecode */\n      0x00\n        /* \"buyer1.sol\":8403:8416  getBytecode() */\n      tag_79\n        /* \"buyer1.sol\":8403:8414  getBytecode */\n      tag_80\n        /* \"buyer1.sol\":8403:8416  getBytecode() */\n      jump\t// in\n    tag_79:\n        /* \"buyer1.sol\":8379:8416  bytes memory bytecode = getBytecode() */\n      swap1\n      pop\n        /* \"buyer1.sol\":8430:8439  uint256 i */\n      0x00\n        /* \"buyer1.sol\":8426:8812  for(uint256 i = 0; i < amount; i ++) {... */\n    tag_81:\n        /* \"buyer1.sol\":8449:8455  amount */\n      dup3\n        /* \"buyer1.sol\":8445:8446  i */\n      dup2\n        /* \"buyer1.sol\":8445:8455  i < amount */\n      lt\n        /* \"buyer1.sol\":8426:8812  for(uint256 i = 0; i < amount; i ++) {... */\n      iszero\n      tag_82\n      jumpi\n        /* \"buyer1.sol\":8477:8489  address addr */\n      0x00\n        /* \"buyer1.sol\":8503:8516  uint256 _salt */\n      dup1\n        /* \"buyer1.sol\":8519:8523  salt */\n      sload(0x02)\n        /* \"buyer1.sol\":8503:8523  uint256 _salt = salt */\n      swap1\n      pop\n        /* \"buyer1.sol\":8631:8636  _salt */\n      dup1\n        /* \"buyer1.sol\":8620:8628  bytecode */\n      dup5\n        /* \"buyer1.sol\":8614:8629  mload(bytecode) */\n      mload\n        /* \"buyer1.sol\":8607:8611  0x20 */\n      0x20\n        /* \"buyer1.sol\":8597:8605  bytecode */\n      dup7\n        /* \"buyer1.sol\":8593:8612  add(bytecode, 0x20) */\n      add\n        /* \"buyer1.sol\":8580:8591  callvalue() */\n      callvalue\n        /* \"buyer1.sol\":8572:8637  create2(callvalue(), add(bytecode, 0x20), mload(bytecode), _salt) */\n      create2\n        /* \"buyer1.sol\":8564:8637  addr := create2(callvalue(), add(bytecode, 0x20), mload(bytecode), _salt) */\n      swap2\n      pop\n        /* \"buyer1.sol\":8677:8681  addr */\n      dup2\n        /* \"buyer1.sol\":8665:8682  extcodesize(addr) */\n      extcodesize\n        /* \"buyer1.sol\":8655:8736  if iszero(extcodesize(addr)) {... */\n      tag_84\n      jumpi\n        /* \"buyer1.sol\":8716:8717  0 */\n      0x00\n        /* \"buyer1.sol\":8713:8714  0 */\n      dup1\n        /* \"buyer1.sol\":8706:8718  revert(0, 0) */\n      revert\n        /* \"buyer1.sol\":8655:8736  if iszero(extcodesize(addr)) {... */\n    tag_84:\n        /* \"buyer1.sol\":8763:8770  minters */\n      0x01\n        /* \"buyer1.sol\":8776:8780  addr */\n      dup3\n        /* \"buyer1.sol\":8763:8781  minters.push(addr) */\n      swap1\n      dup1\n      0x01\n      dup2\n      sload\n      add\n      dup1\n      dup3\n      sstore\n      dup1\n      swap2\n      pop\n      pop\n      0x01\n      swap1\n      sub\n      swap1\n      0x00\n      mstore\n      keccak256(0x00, 0x20)\n      add\n      0x00\n      swap1\n      swap2\n      swap1\n      swap2\n      swap1\n      swap2\n      0x0100\n      exp\n      dup2\n      sload\n      dup2\n      0xffffffffffffffffffffffffffffffffffffffff\n      mul\n      not\n      and\n      swap1\n      dup4\n      0xffffffffffffffffffffffffffffffffffffffff\n      and\n      mul\n      or\n      swap1\n      sstore\n      pop\n        /* \"buyer1.sol\":8795:8799  salt */\n      0x02\n      0x00\n        /* \"buyer1.sol\":8795:8801  salt++ */\n      dup2\n      sload\n      dup1\n      swap3\n      swap2\n      swap1\n      tag_86\n      swap1\n      tag_64\n      jump\t// in\n    tag_86:\n      swap2\n      swap1\n      pop\n      sstore\n      pop\n        /* \"buyer1.sol\":8463:8812  {... */\n      pop\n      pop\n        /* \"buyer1.sol\":8457:8461  i ++ */\n      dup1\n      dup1\n      tag_87\n      swap1\n      tag_64\n      jump\t// in\n    tag_87:\n      swap2\n      pop\n      pop\n        /* \"buyer1.sol\":8426:8812  for(uint256 i = 0; i < amount; i ++) {... */\n      jump(tag_81)\n    tag_82:\n      pop\n        /* \"buyer1.sol\":8369:8818  {... */\n      pop\n        /* \"buyer1.sol\":8328:8818  function deploy(uint256 amount) external {... */\n      pop\n      jump\t// out\n        /* \"buyer1.sol\":9340:9667  function mintAndTransfer(... */\n    tag_42:\n        /* \"buyer1.sol\":9469:9478  uint256 i */\n      0x00\n        /* \"buyer1.sol\":9465:9661  for(uint256 i = 0; i < amount; i ++) {... */\n    tag_89:\n        /* \"buyer1.sol\":9488:9494  amount */\n      dup4\n        /* \"buyer1.sol\":9484:9485  i */\n      dup2\n        /* \"buyer1.sol\":9484:9494  i < amount */\n      lt\n        /* \"buyer1.sol\":9465:9661  for(uint256 i = 0; i < amount; i ++) {... */\n      iszero\n      tag_90\n      jumpi\n        /* \"buyer1.sol\":9517:9529  bool success */\n      0x00\n        /* \"buyer1.sol\":9535:9538  nft */\n      dup6\n        /* \"buyer1.sol\":9535:9543  nft.call */\n      0xffffffffffffffffffffffffffffffffffffffff\n      and\n        /* \"buyer1.sol\":9544:9549  param */\n      dup5\n      dup5\n        /* \"buyer1.sol\":9535:9550  nft.call(param) */\n      mload(0x40)\n      tag_92\n      swap3\n      swap2\n      swap1\n      tag_72\n      jump\t// in\n    tag_92:\n      0x00\n      mload(0x40)\n      dup1\n      dup4\n      sub\n      dup2\n      0x00\n      dup7\n      gas\n      call\n      swap2\n      pop\n      pop\n      returndatasize\n      dup1\n      0x00\n      dup2\n      eq\n      tag_95\n      jumpi\n      mload(0x40)\n      swap2\n      pop\n      and(add(returndatasize, 0x3f), not(0x1f))\n      dup3\n      add\n      0x40\n      mstore\n      returndatasize\n      dup3\n      mstore\n      returndatasize\n      0x00\n      0x20\n      dup5\n      add\n      returndatacopy\n      jump(tag_94)\n    tag_95:\n      0x60\n      swap2\n      pop\n    tag_94:\n      pop\n        /* \"buyer1.sol\":9516:9550  (bool success, ) = nft.call(param) */\n      pop\n      swap1\n      pop\n        /* \"buyer1.sol\":9572:9579  success */\n      dup1\n        /* \"buyer1.sol\":9564:9580  require(success) */\n      tag_96\n      jumpi\n      0x00\n      dup1\n      revert\n    tag_96:\n        /* \"buyer1.sol\":9602:9605  nft */\n      dup6\n        /* \"buyer1.sol\":9594:9619  IERC721(nft).transferFrom */\n      0xffffffffffffffffffffffffffffffffffffffff\n      and\n      0x23b872dd\n        /* \"buyer1.sol\":9628:9632  this */\n      address\n        /* \"buyer1.sol\":9635:9640  admin */\n      0x00\n      dup1\n      sload\n      swap1\n      0x0100\n      exp\n      swap1\n      div\n      0xffffffffffffffffffffffffffffffffffffffff\n      and\n        /* \"buyer1.sol\":9642:9649  tokenId */\n      sload(0x03)\n        /* \"buyer1.sol\":9594:9650  IERC721(nft).transferFrom(address(this), admin, tokenId) */\n      mload(0x40)\n      dup5\n      0xffffffff\n      and\n      0xe0\n      shl\n      dup2\n      mstore\n      0x04\n      add\n      tag_97\n      swap4\n      swap3\n      swap2\n      swap1\n      tag_98\n      jump\t// in\n    tag_97:\n      0x00\n      mload(0x40)\n      dup1\n      dup4\n      sub\n      dup2\n      0x00\n      dup8\n      dup1\n      extcodesize\n      iszero\n      dup1\n      iszero\n      tag_99\n      jumpi\n      0x00\n      dup1\n      revert\n    tag_99:\n      pop\n      gas\n      call\n      iszero\n      dup1\n      iszero\n      tag_101\n      jumpi\n      returndatasize\n      0x00\n      dup1\n      returndatacopy\n      revert(0x00, returndatasize)\n    tag_101:\n      pop\n      pop\n      pop\n      pop\n        /* \"buyer1.sol\":9502:9661  {... */\n      pop\n        /* \"buyer1.sol\":9496:9500  i ++ */\n      dup1\n      dup1\n      tag_102\n      swap1\n      tag_64\n      jump\t// in\n    tag_102:\n      swap2\n      pop\n      pop\n        /* \"buyer1.sol\":9465:9661  for(uint256 i = 0; i < amount; i ++) {... */\n      jump(tag_89)\n    tag_90:\n      pop\n        /* \"buyer1.sol\":9340:9667  function mintAndTransfer(... */\n      pop\n      pop\n      pop\n      pop\n      jump\t// out\n        /* \"buyer1.sol\":8824:9123  function mintBySubContract(... */\n    tag_45:\n        /* \"buyer1.sol\":8959:8972  uint256 price */\n      0x00\n        /* \"buyer1.sol\":8987:8993  amount */\n      dup4\n        /* \"buyer1.sol\":8975:8984  msg.value */\n      callvalue\n        /* \"buyer1.sol\":8975:8993  msg.value / amount */\n      tag_104\n      swap2\n      swap1\n      tag_105\n      jump\t// in\n    tag_104:\n        /* \"buyer1.sol\":8959:8993  uint256 price = msg.value / amount */\n      swap1\n      pop\n        /* \"buyer1.sol\":9007:9016  uint256 i */\n      0x00\n        /* \"buyer1.sol\":9003:9117  for(uint256 i = 0; i < amount; i ++) {... */\n    tag_106:\n        /* \"buyer1.sol\":9026:9032  amount */\n      dup5\n        /* \"buyer1.sol\":9022:9023  i */\n      dup2\n        /* \"buyer1.sol\":9022:9032  i < amount */\n      lt\n        /* \"buyer1.sol\":9003:9117  for(uint256 i = 0; i < amount; i ++) {... */\n      iszero\n      tag_107\n      jumpi\n        /* \"buyer1.sol\":9064:9071  minters */\n      0x01\n        /* \"buyer1.sol\":9072:9073  i */\n      dup2\n        /* \"buyer1.sol\":9064:9074  minters[i] */\n      dup2\n      sload\n      dup2\n      lt\n      tag_109\n      jumpi\n      tag_110\n      tag_57\n      jump\t// in\n    tag_110:\n    tag_109:\n      swap1\n      0x00\n      mstore\n      keccak256(0x00, 0x20)\n      add\n      0x00\n      swap1\n      sload\n      swap1\n      0x0100\n      exp\n      swap1\n      div\n      0xffffffffffffffffffffffffffffffffffffffff\n      and\n        /* \"buyer1.sol\":9054:9080  NftMinter(minters[i]).mint */\n      0xffffffffffffffffffffffffffffffffffffffff\n      and\n      0xb510391f\n        /* \"buyer1.sol\":9088:9093  price */\n      dup4\n        /* \"buyer1.sol\":9095:9098  nft */\n      dup9\n        /* \"buyer1.sol\":9100:9105  param */\n      dup8\n      dup8\n        /* \"buyer1.sol\":9054:9106  NftMinter(minters[i]).mint{value: price}(nft, param) */\n      mload(0x40)\n      dup6\n      0xffffffff\n      and\n      0xe0\n      shl\n      dup2\n      mstore\n      0x04\n      add\n      tag_112\n      swap4\n      swap3\n      swap2\n      swap1\n      tag_113\n      jump\t// in\n    tag_112:\n      0x00\n      mload(0x40)\n      dup1\n      dup4\n      sub\n      dup2\n      dup6\n      dup9\n      dup1\n      extcodesize\n      iszero\n      dup1\n      iszero\n      tag_114\n      jumpi\n      0x00\n      dup1\n      revert\n    tag_114:\n      pop\n      gas\n      call\n      iszero\n      dup1\n      iszero\n      tag_116\n      jumpi\n      returndatasize\n      0x00\n      dup1\n      returndatacopy\n      revert(0x00, returndatasize)\n    tag_116:\n      pop\n      pop\n      pop\n      pop\n      pop\n        /* \"buyer1.sol\":9034:9038  i ++ */\n      dup1\n      dup1\n      tag_117\n      swap1\n      tag_64\n      jump\t// in\n    tag_117:\n      swap2\n      pop\n      pop\n        /* \"buyer1.sol\":9003:9117  for(uint256 i = 0; i < amount; i ++) {... */\n      jump(tag_106)\n    tag_107:\n      pop\n        /* \"buyer1.sol\":8949:9123  {... */\n      pop\n        /* \"buyer1.sol\":8824:9123  function mintBySubContract(... */\n      pop\n      pop\n      pop\n      pop\n      jump\t// out\n        /* \"buyer1.sol\":7957:7977  address public admin */\n    tag_48:\n      0x00\n      dup1\n      sload\n      swap1\n      0x0100\n      exp\n      swap1\n      div\n      0xffffffffffffffffffffffffffffffffffffffff\n      and\n      dup2\n      jump\t// out\n        /* \"buyer1.sol\":8122:8322  function getBytecode() internal view returns (bytes memory) {... */\n    tag_80:\n        /* \"buyer1.sol\":8168:8180  bytes memory */\n      0x60\n        /* \"buyer1.sol\":8192:8213  bytes memory bytecode */\n      0x00\n        /* \"buyer1.sol\":8216:8244  type(NftMinter).creationCode */\n      mload(0x40)\n      dup1\n      0x20\n      add\n      tag_119\n      swap1\n      tag_120\n      jump\t// in\n    tag_119:\n      0x20\n      dup3\n      add\n      dup2\n      sub\n      dup3\n      mstore\n      not(0x1f)\n      0x1f\n      dup3\n      add\n      and\n      0x40\n      mstore\n      pop\n        /* \"buyer1.sol\":8192:8244  bytes memory bytecode = type(NftMinter).creationCode */\n      swap1\n      pop\n        /* \"buyer1.sol\":8287:8295  bytecode */\n      dup1\n        /* \"buyer1.sol\":8308:8313  admin */\n      0x00\n      dup1\n      sload\n      swap1\n      0x0100\n      exp\n      swap1\n      div\n      0xffffffffffffffffffffffffffffffffffffffff\n      and\n        /* \"buyer1.sol\":8297:8314  abi.encode(admin) */\n      add(0x20, mload(0x40))\n      tag_121\n      swap2\n      swap1\n      tag_29\n      jump\t// in\n    tag_121:\n      mload(0x40)\n      0x20\n      dup2\n      dup4\n      sub\n      sub\n      dup2\n      mstore\n      swap1\n      0x40\n      mstore\n        /* \"buyer1.sol\":8270:8315  abi.encodePacked(bytecode, abi.encode(admin)) */\n      add(0x20, mload(0x40))\n      tag_122\n      swap3\n      swap2\n      swap1\n      tag_123\n      jump\t// in\n    tag_122:\n      mload(0x40)\n      0x20\n      dup2\n      dup4\n      sub\n      sub\n      dup2\n      mstore\n      swap1\n      0x40\n      mstore\n        /* \"buyer1.sol\":8263:8315  return abi.encodePacked(bytecode, abi.encode(admin)) */\n      swap2\n      pop\n      pop\n        /* \"buyer1.sol\":8122:8322  function getBytecode() internal view returns (bytes memory) {... */\n      swap1\n      jump\t// out\n    tag_120:\n      dataSize(sub_0)\n      dup1\n      dataOffset(sub_0)\n      dup4\n      codecopy\n      add\n      swap1\n      jump\t// out\n        /* \"#utility.yul\":7:82   */\n    tag_124:\n        /* \"#utility.yul\":40:46   */\n      0x00\n        /* \"#utility.yul\":73:75   */\n      0x40\n        /* \"#utility.yul\":67:76   */\n      mload\n        /* \"#utility.yul\":57:76   */\n      swap1\n      pop\n        /* \"#utility.yul\":7:82   */\n      swap1\n      jump\t// out\n        /* \"#utility.yul\":88:205   */\n    tag_125:\n        /* \"#utility.yul\":197:198   */\n      0x00\n        /* \"#utility.yul\":194:195   */\n      dup1\n        /* \"#utility.yul\":187:199   */\n      revert\n        /* \"#utility.yul\":211:328   */\n    tag_126:\n        /* \"#utility.yul\":320:321   */\n      0x00\n        /* \"#utility.yul\":317:318   */\n      dup1\n        /* \"#utility.yul\":310:322   */\n      revert\n        /* \"#utility.yul\":334:460   */\n    tag_127:\n        /* \"#utility.yul\":371:378   */\n      0x00\n        /* \"#utility.yul\":411:453   */\n      0xffffffffffffffffffffffffffffffffffffffff\n        /* \"#utility.yul\":404:409   */\n      dup3\n        /* \"#utility.yul\":400:454   */\n      and\n        /* \"#utility.yul\":389:454   */\n      swap1\n      pop\n        /* \"#utility.yul\":334:460   */\n      swap2\n      swap1\n      pop\n      jump\t// out\n        /* \"#utility.yul\":466:562   */\n    tag_128:\n        /* \"#utility.yul\":503:510   */\n      0x00\n        /* \"#utility.yul\":532:556   */\n      tag_166\n        /* \"#utility.yul\":550:555   */\n      dup3\n        /* \"#utility.yul\":532:556   */\n      tag_127\n      jump\t// in\n    tag_166:\n        /* \"#utility.yul\":521:556   */\n      swap1\n      pop\n        /* \"#utility.yul\":466:562   */\n      swap2\n      swap1\n      pop\n      jump\t// out\n        /* \"#utility.yul\":568:690   */\n    tag_129:\n        /* \"#utility.yul\":641:665   */\n      tag_168\n        /* \"#utility.yul\":659:664   */\n      dup2\n        /* \"#utility.yul\":641:665   */\n      tag_128\n      jump\t// in\n    tag_168:\n        /* \"#utility.yul\":634:639   */\n      dup2\n        /* \"#utility.yul\":631:666   */\n      eq\n        /* \"#utility.yul\":621:684   */\n      tag_169\n      jumpi\n        /* \"#utility.yul\":680:681   */\n      0x00\n        /* \"#utility.yul\":677:678   */\n      dup1\n        /* \"#utility.yul\":670:682   */\n      revert\n        /* \"#utility.yul\":621:684   */\n    tag_169:\n        /* \"#utility.yul\":568:690   */\n      pop\n      jump\t// out\n        /* \"#utility.yul\":696:835   */\n    tag_130:\n        /* \"#utility.yul\":742:747   */\n      0x00\n        /* \"#utility.yul\":780:786   */\n      dup2\n        /* \"#utility.yul\":767:787   */\n      calldataload\n        /* \"#utility.yul\":758:787   */\n      swap1\n      pop\n        /* \"#utility.yul\":796:829   */\n      tag_171\n        /* \"#utility.yul\":823:828   */\n      dup2\n        /* \"#utility.yul\":796:829   */\n      tag_129\n      jump\t// in\n    tag_171:\n        /* \"#utility.yul\":696:835   */\n      swap3\n      swap2\n      pop\n      pop\n      jump\t// out\n        /* \"#utility.yul\":841:918   */\n    tag_131:\n        /* \"#utility.yul\":878:885   */\n      0x00\n        /* \"#utility.yul\":907:912   */\n      dup2\n        /* \"#utility.yul\":896:912   */\n      swap1\n      pop\n        /* \"#utility.yul\":841:918   */\n      swap2\n      swap1\n      pop\n      jump\t// out\n        /* \"#utility.yul\":924:1046   */\n    tag_132:\n        /* \"#utility.yul\":997:1021   */\n      tag_174\n        /* \"#utility.yul\":1015:1020   */\n      dup2\n        /* \"#utility.yul\":997:1021   */\n      tag_131\n      jump\t// in\n    tag_174:\n        /* \"#utility.yul\":990:995   */\n      dup2\n        /* \"#utility.yul\":987:1022   */\n      eq\n        /* \"#utility.yul\":977:1040   */\n      tag_175\n      jumpi\n        /* \"#utility.yul\":1036:1037   */\n      0x00\n        /* \"#utility.yul\":1033:1034   */\n      dup1\n        /* \"#utility.yul\":1026:1038   */\n      revert\n        /* \"#utility.yul\":977:1040   */\n    tag_175:\n        /* \"#utility.yul\":924:1046   */\n      pop\n      jump\t// out\n        /* \"#utility.yul\":1052:1191   */\n    tag_133:\n        /* \"#utility.yul\":1098:1103   */\n      0x00\n        /* \"#utility.yul\":1136:1142   */\n      dup2\n        /* \"#utility.yul\":1123:1143   */\n      calldataload\n        /* \"#utility.yul\":1114:1143   */\n      swap1\n      pop\n        /* \"#utility.yul\":1152:1185   */\n      tag_177\n        /* \"#utility.yul\":1179:1184   */\n      dup2\n        /* \"#utility.yul\":1152:1185   */\n      tag_132\n      jump\t// in\n    tag_177:\n        /* \"#utility.yul\":1052:1191   */\n      swap3\n      swap2\n      pop\n      pop\n      jump\t// out\n        /* \"#utility.yul\":1197:1314   */\n    tag_134:\n        /* \"#utility.yul\":1306:1307   */\n      0x00\n        /* \"#utility.yul\":1303:1304   */\n      dup1\n        /* \"#utility.yul\":1296:1308   */\n      revert\n        /* \"#utility.yul\":1320:1437   */\n    tag_135:\n        /* \"#utility.yul\":1429:1430   */\n      0x00\n        /* \"#utility.yul\":1426:1427   */\n      dup1\n        /* \"#utility.yul\":1419:1431   */\n      revert\n        /* \"#utility.yul\":1443:1545   */\n    tag_136:\n        /* \"#utility.yul\":1484:1490   */\n      0x00\n        /* \"#utility.yul\":1535:1537   */\n      0x1f\n        /* \"#utility.yul\":1531:1538   */\n      not\n        /* \"#utility.yul\":1526:1528   */\n      0x1f\n        /* \"#utility.yul\":1519:1524   */\n      dup4\n        /* \"#utility.yul\":1515:1529   */\n      add\n        /* \"#utility.yul\":1511:1539   */\n      and\n        /* \"#utility.yul\":1501:1539   */\n      swap1\n      pop\n        /* \"#utility.yul\":1443:1545   */\n      swap2\n      swap1\n      pop\n      jump\t// out\n        /* \"#utility.yul\":1551:1731   */\n    tag_137:\n        /* \"#utility.yul\":1599:1676   */\n      0x4e487b7100000000000000000000000000000000000000000000000000000000\n        /* \"#utility.yul\":1596:1597   */\n      0x00\n        /* \"#utility.yul\":1589:1677   */\n      mstore\n        /* \"#utility.yul\":1696:1700   */\n      0x41\n        /* \"#utility.yul\":1693:1694   */\n      0x04\n        /* \"#utility.yul\":1686:1701   */\n      mstore\n        /* \"#utility.yul\":1720:1724   */\n      0x24\n        /* \"#utility.yul\":1717:1718   */\n      0x00\n        /* \"#utility.yul\":1710:1725   */\n      revert\n        /* \"#utility.yul\":1737:2018   */\n    tag_138:\n        /* \"#utility.yul\":1820:1847   */\n      tag_183\n        /* \"#utility.yul\":1842:1846   */\n      dup3\n        /* \"#utility.yul\":1820:1847   */\n      tag_136\n      jump\t// in\n    tag_183:\n        /* \"#utility.yul\":1812:1818   */\n      dup2\n        /* \"#utility.yul\":1808:1848   */\n      add\n        /* \"#utility.yul\":1950:1956   */\n      dup2\n        /* \"#utility.yul\":1938:1948   */\n      dup2\n        /* \"#utility.yul\":1935:1957   */\n      lt\n        /* \"#utility.yul\":1914:1932   */\n      0xffffffffffffffff\n        /* \"#utility.yul\":1902:1912   */\n      dup3\n        /* \"#utility.yul\":1899:1933   */\n      gt\n        /* \"#utility.yul\":1896:1958   */\n      or\n        /* \"#utility.yul\":1893:1981   */\n      iszero\n      tag_184\n      jumpi\n        /* \"#utility.yul\":1961:1979   */\n      tag_185\n      tag_137\n      jump\t// in\n    tag_185:\n        /* \"#utility.yul\":1893:1981   */\n    tag_184:\n        /* \"#utility.yul\":2001:2011   */\n      dup1\n        /* \"#utility.yul\":1997:1999   */\n      0x40\n        /* \"#utility.yul\":1990:2012   */\n      mstore\n        /* \"#utility.yul\":1780:2018   */\n      pop\n        /* \"#utility.yul\":1737:2018   */\n      pop\n      pop\n      jump\t// out\n        /* \"#utility.yul\":2024:2153   */\n    tag_139:\n        /* \"#utility.yul\":2058:2064   */\n      0x00\n        /* \"#utility.yul\":2085:2105   */\n      tag_187\n      tag_124\n      jump\t// in\n    tag_187:\n        /* \"#utility.yul\":2075:2105   */\n      swap1\n      pop\n        /* \"#utility.yul\":2114:2147   */\n      tag_188\n        /* \"#utility.yul\":2142:2146   */\n      dup3\n        /* \"#utility.yul\":2134:2140   */\n      dup3\n        /* \"#utility.yul\":2114:2147   */\n      tag_138\n      jump\t// in\n    tag_188:\n        /* \"#utility.yul\":2024:2153   */\n      swap2\n      swap1\n      pop\n      jump\t// out\n        /* \"#utility.yul\":2159:2466   */\n    tag_140:\n        /* \"#utility.yul\":2220:2224   */\n      0x00\n        /* \"#utility.yul\":2310:2328   */\n      0xffffffffffffffff\n        /* \"#utility.yul\":2302:2308   */\n      dup3\n        /* \"#utility.yul\":2299:2329   */\n      gt\n        /* \"#utility.yul\":2296:2352   */\n      iszero\n      tag_190\n      jumpi\n        /* \"#utility.yul\":2332:2350   */\n      tag_191\n      tag_137\n      jump\t// in\n    tag_191:\n        /* \"#utility.yul\":2296:2352   */\n    tag_190:\n        /* \"#utility.yul\":2370:2399   */\n      tag_192\n        /* \"#utility.yul\":2392:2398   */\n      dup3\n        /* \"#utility.yul\":2370:2399   */\n      tag_136\n      jump\t// in\n    tag_192:\n        /* \"#utility.yul\":2362:2399   */\n      swap1\n      pop\n        /* \"#utility.yul\":2454:2458   */\n      0x20\n        /* \"#utility.yul\":2448:2452   */\n      dup2\n        /* \"#utility.yul\":2444:2459   */\n      add\n        /* \"#utility.yul\":2436:2459   */\n      swap1\n      pop\n        /* \"#utility.yul\":2159:2466   */\n      swap2\n      swap1\n      pop\n      jump\t// out\n        /* \"#utility.yul\":2472:2618   */\n    tag_141:\n        /* \"#utility.yul\":2569:2575   */\n      dup3\n        /* \"#utility.yul\":2564:2567   */\n      dup2\n        /* \"#utility.yul\":2559:2562   */\n      dup4\n        /* \"#utility.yul\":2546:2576   */\n      calldatacopy\n        /* \"#utility.yul\":2610:2611   */\n      0x00\n        /* \"#utility.yul\":2601:2607   */\n      dup4\n        /* \"#utility.yul\":2596:2599   */\n      dup4\n        /* \"#utility.yul\":2592:2608   */\n      add\n        /* \"#utility.yul\":2585:2612   */\n      mstore\n        /* \"#utility.yul\":2472:2618   */\n      pop\n      pop\n      pop\n      jump\t// out\n        /* \"#utility.yul\":2624:3047   */\n    tag_142:\n        /* \"#utility.yul\":2701:2706   */\n      0x00\n        /* \"#utility.yul\":2726:2791   */\n      tag_195\n        /* \"#utility.yul\":2742:2790   */\n      tag_196\n        /* \"#utility.yul\":2783:2789   */\n      dup5\n        /* \"#utility.yul\":2742:2790   */\n      tag_140\n      jump\t// in\n    tag_196:\n        /* \"#utility.yul\":2726:2791   */\n      tag_139\n      jump\t// in\n    tag_195:\n        /* \"#utility.yul\":2717:2791   */\n      swap1\n      pop\n        /* \"#utility.yul\":2814:2820   */\n      dup3\n        /* \"#utility.yul\":2807:2812   */\n      dup2\n        /* \"#utility.yul\":2800:2821   */\n      mstore\n        /* \"#utility.yul\":2852:2856   */\n      0x20\n        /* \"#utility.yul\":2845:2850   */\n      dup2\n        /* \"#utility.yul\":2841:2857   */\n      add\n        /* \"#utility.yul\":2890:2893   */\n      dup5\n        /* \"#utility.yul\":2881:2887   */\n      dup5\n        /* \"#utility.yul\":2876:2879   */\n      dup5\n        /* \"#utility.yul\":2872:2888   */\n      add\n        /* \"#utility.yul\":2869:2894   */\n      gt\n        /* \"#utility.yul\":2866:2978   */\n      iszero\n      tag_197\n      jumpi\n        /* \"#utility.yul\":2897:2976   */\n      tag_198\n      tag_135\n      jump\t// in\n    tag_198:\n        /* \"#utility.yul\":2866:2978   */\n    tag_197:\n        /* \"#utility.yul\":2987:3041   */\n      tag_199\n        /* \"#utility.yul\":3034:3040   */\n      dup5\n        /* \"#utility.yul\":3029:3032   */\n      dup3\n        /* \"#utility.yul\":3024:3027   */\n      dup6\n        /* \"#utility.yul\":2987:3041   */\n      tag_141\n      jump\t// in\n    tag_199:\n        /* \"#utility.yul\":2707:3047   */\n      pop\n        /* \"#utility.yul\":2624:3047   */\n      swap4\n      swap3\n      pop\n      pop\n      pop\n      jump\t// out\n        /* \"#utility.yul\":3066:3404   */\n    tag_143:\n        /* \"#utility.yul\":3121:3126   */\n      0x00\n        /* \"#utility.yul\":3170:3173   */\n      dup3\n        /* \"#utility.yul\":3163:3167   */\n      0x1f\n        /* \"#utility.yul\":3155:3161   */\n      dup4\n        /* \"#utility.yul\":3151:3168   */\n      add\n        /* \"#utility.yul\":3147:3174   */\n      slt\n        /* \"#utility.yul\":3137:3259   */\n      tag_201\n      jumpi\n        /* \"#utility.yul\":3178:3257   */\n      tag_202\n      tag_134\n      jump\t// in\n    tag_202:\n        /* \"#utility.yul\":3137:3259   */\n    tag_201:\n        /* \"#utility.yul\":3295:3301   */\n      dup2\n        /* \"#utility.yul\":3282:3302   */\n      calldataload\n        /* \"#utility.yul\":3320:3398   */\n      tag_203\n        /* \"#utility.yul\":3394:3397   */\n      dup5\n        /* \"#utility.yul\":3386:3392   */\n      dup3\n        /* \"#utility.yul\":3379:3383   */\n      0x20\n        /* \"#utility.yul\":3371:3377   */\n      dup7\n        /* \"#utility.yul\":3367:3384   */\n      add\n        /* \"#utility.yul\":3320:3398   */\n      tag_142\n      jump\t// in\n    tag_203:\n        /* \"#utility.yul\":3311:3398   */\n      swap2\n      pop\n        /* \"#utility.yul\":3127:3404   */\n      pop\n        /* \"#utility.yul\":3066:3404   */\n      swap3\n      swap2\n      pop\n      pop\n      jump\t// out\n        /* \"#utility.yul\":3410:4353   */\n    tag_14:\n        /* \"#utility.yul\":3505:3511   */\n      0x00\n        /* \"#utility.yul\":3513:3519   */\n      dup1\n        /* \"#utility.yul\":3521:3527   */\n      0x00\n        /* \"#utility.yul\":3529:3535   */\n      dup1\n        /* \"#utility.yul\":3578:3581   */\n      0x80\n        /* \"#utility.yul\":3566:3575   */\n      dup6\n        /* \"#utility.yul\":3557:3564   */\n      dup8\n        /* \"#utility.yul\":3553:3576   */\n      sub\n        /* \"#utility.yul\":3549:3582   */\n      slt\n        /* \"#utility.yul\":3546:3666   */\n      iszero\n      tag_205\n      jumpi\n        /* \"#utility.yul\":3585:3664   */\n      tag_206\n      tag_125\n      jump\t// in\n    tag_206:\n        /* \"#utility.yul\":3546:3666   */\n    tag_205:\n        /* \"#utility.yul\":3705:3706   */\n      0x00\n        /* \"#utility.yul\":3730:3783   */\n      tag_207\n        /* \"#utility.yul\":3775:3782   */\n      dup8\n        /* \"#utility.yul\":3766:3772   */\n      dup3\n        /* \"#utility.yul\":3755:3764   */\n      dup9\n        /* \"#utility.yul\":3751:3773   */\n      add\n        /* \"#utility.yul\":3730:3783   */\n      tag_130\n      jump\t// in\n    tag_207:\n        /* \"#utility.yul\":3720:3783   */\n      swap5\n      pop\n        /* \"#utility.yul\":3676:3793   */\n      pop\n        /* \"#utility.yul\":3832:3834   */\n      0x20\n        /* \"#utility.yul\":3858:3911   */\n      tag_208\n        /* \"#utility.yul\":3903:3910   */\n      dup8\n        /* \"#utility.yul\":3894:3900   */\n      dup3\n        /* \"#utility.yul\":3883:3892   */\n      dup9\n        /* \"#utility.yul\":3879:3901   */\n      add\n        /* \"#utility.yul\":3858:3911   */\n      tag_130\n      jump\t// in\n    tag_208:\n        /* \"#utility.yul\":3848:3911   */\n      swap4\n      pop\n        /* \"#utility.yul\":3803:3921   */\n      pop\n        /* \"#utility.yul\":3960:3962   */\n      0x40\n        /* \"#utility.yul\":3986:4039   */\n      tag_209\n        /* \"#utility.yul\":4031:4038   */\n      dup8\n        /* \"#utility.yul\":4022:4028   */\n      dup3\n        /* \"#utility.yul\":4011:4020   */\n      dup9\n        /* \"#utility.yul\":4007:4029   */\n      add\n        /* \"#utility.yul\":3986:4039   */\n      tag_133\n      jump\t// in\n    tag_209:\n        /* \"#utility.yul\":3976:4039   */\n      swap3\n      pop\n        /* \"#utility.yul\":3931:4049   */\n      pop\n        /* \"#utility.yul\":4116:4118   */\n      0x60\n        /* \"#utility.yul\":4105:4114   */\n      dup6\n        /* \"#utility.yul\":4101:4119   */\n      add\n        /* \"#utility.yul\":4088:4120   */\n      calldataload\n        /* \"#utility.yul\":4147:4165   */\n      0xffffffffffffffff\n        /* \"#utility.yul\":4139:4145   */\n      dup2\n        /* \"#utility.yul\":4136:4166   */\n      gt\n        /* \"#utility.yul\":4133:4250   */\n      iszero\n      tag_210\n      jumpi\n        /* \"#utility.yul\":4169:4248   */\n      tag_211\n      tag_126\n      jump\t// in\n    tag_211:\n        /* \"#utility.yul\":4133:4250   */\n    tag_210:\n        /* \"#utility.yul\":4274:4336   */\n      tag_212\n        /* \"#utility.yul\":4328:4335   */\n      dup8\n        /* \"#utility.yul\":4319:4325   */\n      dup3\n        /* \"#utility.yul\":4308:4317   */\n      dup9\n        /* \"#utility.yul\":4304:4326   */\n      add\n        /* \"#utility.yul\":4274:4336   */\n      tag_143\n      jump\t// in\n    tag_212:\n        /* \"#utility.yul\":4264:4336   */\n      swap2\n      pop\n        /* \"#utility.yul\":4059:4346   */\n      pop\n        /* \"#utility.yul\":3410:4353   */\n      swap3\n      swap6\n      swap2\n      swap5\n      pop\n      swap3\n      pop\n      jump\t// out\n        /* \"#utility.yul\":4359:4508   */\n    tag_144:\n        /* \"#utility.yul\":4395:4402   */\n      0x00\n        /* \"#utility.yul\":4435:4501   */\n      0xffffffff00000000000000000000000000000000000000000000000000000000\n        /* \"#utility.yul\":4428:4433   */\n      dup3\n        /* \"#utility.yul\":4424:4502   */\n      and\n        /* \"#utility.yul\":4413:4502   */\n      swap1\n      pop\n        /* \"#utility.yul\":4359:4508   */\n      swap2\n      swap1\n      pop\n      jump\t// out\n        /* \"#utility.yul\":4514:4629   */\n    tag_145:\n        /* \"#utility.yul\":4599:4622   */\n      tag_215\n        /* \"#utility.yul\":4616:4621   */\n      dup2\n        /* \"#utility.yul\":4599:4622   */\n      tag_144\n      jump\t// in\n    tag_215:\n        /* \"#utility.yul\":4594:4597   */\n      dup3\n        /* \"#utility.yul\":4587:4623   */\n      mstore\n        /* \"#utility.yul\":4514:4629   */\n      pop\n      pop\n      jump\t// out\n        /* \"#utility.yul\":4635:4853   */\n    tag_17:\n        /* \"#utility.yul\":4726:4730   */\n      0x00\n        /* \"#utility.yul\":4764:4766   */\n      0x20\n        /* \"#utility.yul\":4753:4762   */\n      dup3\n        /* \"#utility.yul\":4749:4767   */\n      add\n        /* \"#utility.yul\":4741:4767   */\n      swap1\n      pop\n        /* \"#utility.yul\":4777:4846   */\n      tag_217\n        /* \"#utility.yul\":4843:4844   */\n      0x00\n        /* \"#utility.yul\":4832:4841   */\n      dup4\n        /* \"#utility.yul\":4828:4845   */\n      add\n        /* \"#utility.yul\":4819:4825   */\n      dup5\n        /* \"#utility.yul\":4777:4846   */\n      tag_145\n      jump\t// in\n    tag_217:\n        /* \"#utility.yul\":4635:4853   */\n      swap3\n      swap2\n      pop\n      pop\n      jump\t// out\n        /* \"#utility.yul\":4859:5333   */\n    tag_21:\n        /* \"#utility.yul\":4927:4933   */\n      0x00\n        /* \"#utility.yul\":4935:4941   */\n      dup1\n        /* \"#utility.yul\":4984:4986   */\n      0x40\n        /* \"#utility.yul\":4972:4981   */\n      dup4\n        /* \"#utility.yul\":4963:4970   */\n      dup6\n        /* \"#utility.yul\":4959:4982   */\n      sub\n        /* \"#utility.yul\":4955:4987   */\n      slt\n        /* \"#utility.yul\":4952:5071   */\n      iszero\n      tag_219\n      jumpi\n        /* \"#utility.yul\":4990:5069   */\n      tag_220\n      tag_125\n      jump\t// in\n    tag_220:\n        /* \"#utility.yul\":4952:5071   */\n    tag_219:\n        /* \"#utility.yul\":5110:5111   */\n      0x00\n        /* \"#utility.yul\":5135:5188   */\n      tag_221\n        /* \"#utility.yul\":5180:5187   */\n      dup6\n        /* \"#utility.yul\":5171:5177   */\n      dup3\n        /* \"#utility.yul\":5160:5169   */\n      dup7\n        /* \"#utility.yul\":5156:5178   */\n      add\n        /* \"#utility.yul\":5135:5188   */\n      tag_130\n      jump\t// in\n    tag_221:\n        /* \"#utility.yul\":5125:5188   */\n      swap3\n      pop\n        /* \"#utility.yul\":5081:5198   */\n      pop\n        /* \"#utility.yul\":5237:5239   */\n      0x20\n        /* \"#utility.yul\":5263:5316   */\n      tag_222\n        /* \"#utility.yul\":5308:5315   */\n      dup6\n        /* \"#utility.yul\":5299:5305   */\n      dup3\n        /* \"#utility.yul\":5288:5297   */\n      dup7\n        /* \"#utility.yul\":5284:5306   */\n      add\n        /* \"#utility.yul\":5263:5316   */\n      tag_133\n      jump\t// in\n    tag_222:\n        /* \"#utility.yul\":5253:5316   */\n      swap2\n      pop\n        /* \"#utility.yul\":5208:5326   */\n      pop\n        /* \"#utility.yul\":4859:5333   */\n      swap3\n      pop\n      swap3\n      swap1\n      pop\n      jump\t// out\n        /* \"#utility.yul\":5339:5668   */\n    tag_26:\n        /* \"#utility.yul\":5398:5404   */\n      0x00\n        /* \"#utility.yul\":5447:5449   */\n      0x20\n        /* \"#utility.yul\":5435:5444   */\n      dup3\n        /* \"#utility.yul\":5426:5433   */\n      dup5\n        /* \"#utility.yul\":5422:5445   */\n      sub\n        /* \"#utility.yul\":5418:5450   */\n      slt\n        /* \"#utility.yul\":5415:5534   */\n      iszero\n      tag_224\n      jumpi\n        /* \"#utility.yul\":5453:5532   */\n      tag_225\n      tag_125\n      jump\t// in\n    tag_225:\n        /* \"#utility.yul\":5415:5534   */\n    tag_224:\n        /* \"#utility.yul\":5573:5574   */\n      0x00\n        /* \"#utility.yul\":5598:5651   */\n      tag_226\n        /* \"#utility.yul\":5643:5650   */\n      dup5\n        /* \"#utility.yul\":5634:5640   */\n      dup3\n        /* \"#utility.yul\":5623:5632   */\n      dup6\n        /* \"#utility.yul\":5619:5641   */\n      add\n        /* \"#utility.yul\":5598:5651   */\n      tag_133\n      jump\t// in\n    tag_226:\n        /* \"#utility.yul\":5588:5651   */\n      swap2\n      pop\n        /* \"#utility.yul\":5544:5661   */\n      pop\n        /* \"#utility.yul\":5339:5668   */\n      swap3\n      swap2\n      pop\n      pop\n      jump\t// out\n        /* \"#utility.yul\":5674:5792   */\n    tag_146:\n        /* \"#utility.yul\":5761:5785   */\n      tag_228\n        /* \"#utility.yul\":5779:5784   */\n      dup2\n        /* \"#utility.yul\":5761:5785   */\n      tag_128\n      jump\t// in\n    tag_228:\n        /* \"#utility.yul\":5756:5759   */\n      dup3\n        /* \"#utility.yul\":5749:5786   */\n      mstore\n        /* \"#utility.yul\":5674:5792   */\n      pop\n      pop\n      jump\t// out\n        /* \"#utility.yul\":5798:6020   */\n    tag_29:\n        /* \"#utility.yul\":5891:5895   */\n      0x00\n        /* \"#utility.yul\":5929:5931   */\n      0x20\n        /* \"#utility.yul\":5918:5927   */\n      dup3\n        /* \"#utility.yul\":5914:5932   */\n      add\n        /* \"#utility.yul\":5906:5932   */\n      swap1\n      pop\n        /* \"#utility.yul\":5942:6013   */\n      tag_230\n        /* \"#utility.yul\":6010:6011   */\n      0x00\n        /* \"#utility.yul\":5999:6008   */\n      dup4\n        /* \"#utility.yul\":5995:6012   */\n      add\n        /* \"#utility.yul\":5986:5992   */\n      dup5\n        /* \"#utility.yul\":5942:6013   */\n      tag_146\n      jump\t// in\n    tag_230:\n        /* \"#utility.yul\":5798:6020   */\n      swap3\n      swap2\n      pop\n      pop\n      jump\t// out\n        /* \"#utility.yul\":6026:6143   */\n    tag_147:\n        /* \"#utility.yul\":6135:6136   */\n      0x00\n        /* \"#utility.yul\":6132:6133   */\n      dup1\n        /* \"#utility.yul\":6125:6137   */\n      revert\n        /* \"#utility.yul\":6149:6266   */\n    tag_148:\n        /* \"#utility.yul\":6258:6259   */\n      0x00\n        /* \"#utility.yul\":6255:6256   */\n      dup1\n        /* \"#utility.yul\":6248:6260   */\n      revert\n        /* \"#utility.yul\":6285:6837   */\n    tag_149:\n        /* \"#utility.yul\":6342:6350   */\n      0x00\n        /* \"#utility.yul\":6352:6358   */\n      dup1\n        /* \"#utility.yul\":6402:6405   */\n      dup4\n        /* \"#utility.yul\":6395:6399   */\n      0x1f\n        /* \"#utility.yul\":6387:6393   */\n      dup5\n        /* \"#utility.yul\":6383:6400   */\n      add\n        /* \"#utility.yul\":6379:6406   */\n      slt\n        /* \"#utility.yul\":6369:6491   */\n      tag_234\n      jumpi\n        /* \"#utility.yul\":6410:6489   */\n      tag_235\n      tag_134\n      jump\t// in\n    tag_235:\n        /* \"#utility.yul\":6369:6491   */\n    tag_234:\n        /* \"#utility.yul\":6523:6529   */\n      dup3\n        /* \"#utility.yul\":6510:6530   */\n      calldataload\n        /* \"#utility.yul\":6500:6530   */\n      swap1\n      pop\n        /* \"#utility.yul\":6553:6571   */\n      0xffffffffffffffff\n        /* \"#utility.yul\":6545:6551   */\n      dup2\n        /* \"#utility.yul\":6542:6572   */\n      gt\n        /* \"#utility.yul\":6539:6656   */\n      iszero\n      tag_236\n      jumpi\n        /* \"#utility.yul\":6575:6654   */\n      tag_237\n      tag_147\n      jump\t// in\n    tag_237:\n        /* \"#utility.yul\":6539:6656   */\n    tag_236:\n        /* \"#utility.yul\":6689:6693   */\n      0x20\n        /* \"#utility.yul\":6681:6687   */\n      dup4\n        /* \"#utility.yul\":6677:6694   */\n      add\n        /* \"#utility.yul\":6665:6694   */\n      swap2\n      pop\n        /* \"#utility.yul\":6743:6746   */\n      dup4\n        /* \"#utility.yul\":6735:6739   */\n      0x01\n        /* \"#utility.yul\":6727:6733   */\n      dup3\n        /* \"#utility.yul\":6723:6740   */\n      mul\n        /* \"#utility.yul\":6713:6721   */\n      dup4\n        /* \"#utility.yul\":6709:6741   */\n      add\n        /* \"#utility.yul\":6706:6747   */\n      gt\n        /* \"#utility.yul\":6703:6831   */\n      iszero\n      tag_238\n      jumpi\n        /* \"#utility.yul\":6750:6829   */\n      tag_239\n      tag_148\n      jump\t// in\n    tag_239:\n        /* \"#utility.yul\":6703:6831   */\n    tag_238:\n        /* \"#utility.yul\":6285:6837   */\n      swap3\n      pop\n      swap3\n      swap1\n      pop\n      jump\t// out\n        /* \"#utility.yul\":6843:7660   */\n    tag_33:\n        /* \"#utility.yul\":6931:6937   */\n      0x00\n        /* \"#utility.yul\":6939:6945   */\n      dup1\n        /* \"#utility.yul\":6947:6953   */\n      0x00\n        /* \"#utility.yul\":6955:6961   */\n      dup1\n        /* \"#utility.yul\":7004:7006   */\n      0x60\n        /* \"#utility.yul\":6992:7001   */\n      dup6\n        /* \"#utility.yul\":6983:6990   */\n      dup8\n        /* \"#utility.yul\":6979:7002   */\n      sub\n        /* \"#utility.yul\":6975:7007   */\n      slt\n        /* \"#utility.yul\":6972:7091   */\n      iszero\n      tag_241\n      jumpi\n        /* \"#utility.yul\":7010:7089   */\n      tag_242\n      tag_125\n      jump\t// in\n    tag_242:\n        /* \"#utility.yul\":6972:7091   */\n    tag_241:\n        /* \"#utility.yul\":7130:7131   */\n      0x00\n        /* \"#utility.yul\":7155:7208   */\n      tag_243\n        /* \"#utility.yul\":7200:7207   */\n      dup8\n        /* \"#utility.yul\":7191:7197   */\n      dup3\n        /* \"#utility.yul\":7180:7189   */\n      dup9\n        /* \"#utility.yul\":7176:7198   */\n      add\n        /* \"#utility.yul\":7155:7208   */\n      tag_130\n      jump\t// in\n    tag_243:\n        /* \"#utility.yul\":7145:7208   */\n      swap5\n      pop\n        /* \"#utility.yul\":7101:7218   */\n      pop\n        /* \"#utility.yul\":7257:7259   */\n      0x20\n        /* \"#utility.yul\":7283:7336   */\n      tag_244\n        /* \"#utility.yul\":7328:7335   */\n      dup8\n        /* \"#utility.yul\":7319:7325   */\n      dup3\n        /* \"#utility.yul\":7308:7317   */\n      dup9\n        /* \"#utility.yul\":7304:7326   */\n      add\n        /* \"#utility.yul\":7283:7336   */\n      tag_133\n      jump\t// in\n    tag_244:\n        /* \"#utility.yul\":7273:7336   */\n      swap4\n      pop\n        /* \"#utility.yul\":7228:7346   */\n      pop\n        /* \"#utility.yul\":7413:7415   */\n      0x40\n        /* \"#utility.yul\":7402:7411   */\n      dup6\n        /* \"#utility.yul\":7398:7416   */\n      add\n        /* \"#utility.yul\":7385:7417   */\n      calldataload\n        /* \"#utility.yul\":7444:7462   */\n      0xffffffffffffffff\n        /* \"#utility.yul\":7436:7442   */\n      dup2\n        /* \"#utility.yul\":7433:7463   */\n      gt\n        /* \"#utility.yul\":7430:7547   */\n      iszero\n      tag_245\n      jumpi\n        /* \"#utility.yul\":7466:7545   */\n      tag_246\n      tag_126\n      jump\t// in\n    tag_246:\n        /* \"#utility.yul\":7430:7547   */\n    tag_245:\n        /* \"#utility.yul\":7579:7643   */\n      tag_247\n        /* \"#utility.yul\":7635:7642   */\n      dup8\n        /* \"#utility.yul\":7626:7632   */\n      dup3\n        /* \"#utility.yul\":7615:7624   */\n      dup9\n        /* \"#utility.yul\":7611:7633   */\n      add\n        /* \"#utility.yul\":7579:7643   */\n      tag_149\n      jump\t// in\n    tag_247:\n        /* \"#utility.yul\":7561:7643   */\n      swap3\n      pop\n      swap3\n      pop\n        /* \"#utility.yul\":7356:7653   */\n      pop\n        /* \"#utility.yul\":6843:7660   */\n      swap3\n      swap6\n      swap2\n      swap5\n      pop\n      swap3\n      pop\n      jump\t// out\n        /* \"#utility.yul\":7666:7846   */\n    tag_57:\n        /* \"#utility.yul\":7714:7791   */\n      0x4e487b7100000000000000000000000000000000000000000000000000000000\n        /* \"#utility.yul\":7711:7712   */\n      0x00\n        /* \"#utility.yul\":7704:7792   */\n      mstore\n        /* \"#utility.yul\":7811:7815   */\n      0x32\n        /* \"#utility.yul\":7808:7809   */\n      0x04\n        /* \"#utility.yul\":7801:7816   */\n      mstore\n        /* \"#utility.yul\":7835:7839   */\n      0x24\n        /* \"#utility.yul\":7832:7833   */\n      0x00\n        /* \"#utility.yul\":7825:7840   */\n      revert\n        /* \"#utility.yul\":7852:8032   */\n    tag_150:\n        /* \"#utility.yul\":7900:7977   */\n      0x4e487b7100000000000000000000000000000000000000000000000000000000\n        /* \"#utility.yul\":7897:7898   */\n      0x00\n        /* \"#utility.yul\":7890:7978   */\n      mstore\n        /* \"#utility.yul\":7997:8001   */\n      0x11\n        /* \"#utility.yul\":7994:7995   */\n      0x04\n        /* \"#utility.yul\":7987:8002   */\n      mstore\n        /* \"#utility.yul\":8021:8025   */\n      0x24\n        /* \"#utility.yul\":8018:8019   */\n      0x00\n        /* \"#utility.yul\":8011:8026   */\n      revert\n        /* \"#utility.yul\":8038:8271   */\n    tag_64:\n        /* \"#utility.yul\":8077:8080   */\n      0x00\n        /* \"#utility.yul\":8100:8124   */\n      tag_251\n        /* \"#utility.yul\":8118:8123   */\n      dup3\n        /* \"#utility.yul\":8100:8124   */\n      tag_131\n      jump\t// in\n    tag_251:\n        /* \"#utility.yul\":8091:8124   */\n      swap2\n      pop\n        /* \"#utility.yul\":8146:8212   */\n      0xffffffffffffffffffffffffffffffffffffffffffffffffffffffffffffffff\n        /* \"#utility.yul\":8139:8144   */\n      dup3\n        /* \"#utility.yul\":8136:8213   */\n      sub\n        /* \"#utility.yul\":8133:8236   */\n      tag_252\n      jumpi\n        /* \"#utility.yul\":8216:8234   */\n      tag_253\n      tag_150\n      jump\t// in\n    tag_253:\n        /* \"#utility.yul\":8133:8236   */\n    tag_252:\n        /* \"#utility.yul\":8263:8264   */\n      0x01\n        /* \"#utility.yul\":8256:8261   */\n      dup3\n        /* \"#utility.yul\":8252:8265   */\n      add\n        /* \"#utility.yul\":8245:8265   */\n      swap1\n      pop\n        /* \"#utility.yul\":8038:8271   */\n      swap2\n      swap1\n      pop\n      jump\t// out\n        /* \"#utility.yul\":8277:8424   */\n    tag_151:\n        /* \"#utility.yul\":8378:8389   */\n      0x00\n        /* \"#utility.yul\":8415:8418   */\n      dup2\n        /* \"#utility.yul\":8400:8418   */\n      swap1\n      pop\n        /* \"#utility.yul\":8277:8424   */\n      swap3\n      swap2\n      pop\n      pop\n      jump\t// out\n        /* \"#utility.yul\":8452:8779   */\n    tag_152:\n        /* \"#utility.yul\":8566:8569   */\n      0x00\n        /* \"#utility.yul\":8587:8675   */\n      tag_256\n        /* \"#utility.yul\":8668:8674   */\n      dup4\n        /* \"#utility.yul\":8663:8666   */\n      dup6\n        /* \"#utility.yul\":8587:8675   */\n      tag_151\n      jump\t// in\n    tag_256:\n        /* \"#utility.yul\":8580:8675   */\n      swap4\n      pop\n        /* \"#utility.yul\":8685:8741   */\n      tag_257\n        /* \"#utility.yul\":8734:8740   */\n      dup4\n        /* \"#utility.yul\":8729:8732   */\n      dup6\n        /* \"#utility.yul\":8722:8727   */\n      dup5\n        /* \"#utility.yul\":8685:8741   */\n      tag_141\n      jump\t// in\n    tag_257:\n        /* \"#utility.yul\":8766:8772   */\n      dup3\n        /* \"#utility.yul\":8761:8764   */\n      dup5\n        /* \"#utility.yul\":8757:8773   */\n      add\n        /* \"#utility.yul\":8750:8773   */\n      swap1\n      pop\n        /* \"#utility.yul\":8452:8779   */\n      swap4\n      swap3\n      pop\n      pop\n      pop\n      jump\t// out\n        /* \"#utility.yul\":8785:9076   */\n    tag_72:\n        /* \"#utility.yul\":8925:8928   */\n      0x00\n        /* \"#utility.yul\":8947:9050   */\n      tag_259\n        /* \"#utility.yul\":9046:9049   */\n      dup3\n        /* \"#utility.yul\":9037:9043   */\n      dup5\n        /* \"#utility.yul\":9029:9035   */\n      dup7\n        /* \"#utility.yul\":8947:9050   */\n      tag_152\n      jump\t// in\n    tag_259:\n        /* \"#utility.yul\":8940:9050   */\n      swap2\n      pop\n        /* \"#utility.yul\":9067:9070   */\n      dup2\n        /* \"#utility.yul\":9060:9070   */\n      swap1\n      pop\n        /* \"#utility.yul\":8785:9076   */\n      swap4\n      swap3\n      pop\n      pop\n      pop\n      jump\t// out\n        /* \"#utility.yul\":9082:9200   */\n    tag_153:\n        /* \"#utility.yul\":9169:9193   */\n      tag_261\n        /* \"#utility.yul\":9187:9192   */\n      dup2\n        /* \"#utility.yul\":9169:9193   */\n      tag_131\n      jump\t// in\n    tag_261:\n        /* \"#utility.yul\":9164:9167   */\n      dup3\n        /* \"#utility.yul\":9157:9194   */\n      mstore\n        /* \"#utility.yul\":9082:9200   */\n      pop\n      pop\n      jump\t// out\n        /* \"#utility.yul\":9206:9648   */\n    tag_98:\n        /* \"#utility.yul\":9355:9359   */\n      0x00\n        /* \"#utility.yul\":9393:9395   */\n      0x60\n        /* \"#utility.yul\":9382:9391   */\n      dup3\n        /* \"#utility.yul\":9378:9396   */\n      add\n        /* \"#utility.yul\":9370:9396   */\n      swap1\n      pop\n        /* \"#utility.yul\":9406:9477   */\n      tag_263\n        /* \"#utility.yul\":9474:9475   */\n      0x00\n        /* \"#utility.yul\":9463:9472   */\n      dup4\n        /* \"#utility.yul\":9459:9476   */\n      add\n        /* \"#utility.yul\":9450:9456   */\n      dup7\n        /* \"#utility.yul\":9406:9477   */\n      tag_146\n      jump\t// in\n    tag_263:\n        /* \"#utility.yul\":9487:9559   */\n      tag_264\n        /* \"#utility.yul\":9555:9557   */\n      0x20\n        /* \"#utility.yul\":9544:9553   */\n      dup4\n        /* \"#utility.yul\":9540:9558   */\n      add\n        /* \"#utility.yul\":9531:9537   */\n      dup6\n        /* \"#utility.yul\":9487:9559   */\n      tag_146\n      jump\t// in\n    tag_264:\n        /* \"#utility.yul\":9569:9641   */\n      tag_265\n        /* \"#utility.yul\":9637:9639   */\n      0x40\n        /* \"#utility.yul\":9626:9635   */\n      dup4\n        /* \"#utility.yul\":9622:9640   */\n      add\n        /* \"#utility.yul\":9613:9619   */\n      dup5\n        /* \"#utility.yul\":9569:9641   */\n      tag_153\n      jump\t// in\n    tag_265:\n        /* \"#utility.yul\":9206:9648   */\n      swap5\n      swap4\n      pop\n      pop\n      pop\n      pop\n      jump\t// out\n        /* \"#utility.yul\":9654:9834   */\n    tag_154:\n        /* \"#utility.yul\":9702:9779   */\n      0x4e487b7100000000000000000000000000000000000000000000000000000000\n        /* \"#utility.yul\":9699:9700   */\n      0x00\n        /* \"#utility.yul\":9692:9780   */\n      mstore\n        /* \"#utility.yul\":9799:9803   */\n      0x12\n        /* \"#utility.yul\":9796:9797   */\n      0x04\n        /* \"#utility.yul\":9789:9804   */\n      mstore\n        /* \"#utility.yul\":9823:9827   */\n      0x24\n        /* \"#utility.yul\":9820:9821   */\n      0x00\n        /* \"#utility.yul\":9813:9828   */\n      revert\n        /* \"#utility.yul\":9840:10025   */\n    tag_105:\n        /* \"#utility.yul\":9880:9881   */\n      0x00\n        /* \"#utility.yul\":9897:9917   */\n      tag_268\n        /* \"#utility.yul\":9915:9916   */\n      dup3\n        /* \"#utility.yul\":9897:9917   */\n      tag_131\n      jump\t// in\n    tag_268:\n        /* \"#utility.yul\":9892:9917   */\n      swap2\n      pop\n        /* \"#utility.yul\":9931:9951   */\n      tag_269\n        /* \"#utility.yul\":9949:9950   */\n      dup4\n        /* \"#utility.yul\":9931:9951   */\n      tag_131\n      jump\t// in\n    tag_269:\n        /* \"#utility.yul\":9926:9951   */\n      swap3\n      pop\n        /* \"#utility.yul\":9970:9971   */\n      dup3\n        /* \"#utility.yul\":9960:9995   */\n      tag_270\n      jumpi\n        /* \"#utility.yul\":9975:9993   */\n      tag_271\n      tag_154\n      jump\t// in\n    tag_271:\n        /* \"#utility.yul\":9960:9995   */\n    tag_270:\n        /* \"#utility.yul\":10017:10018   */\n      dup3\n        /* \"#utility.yul\":10014:10015   */\n      dup3\n        /* \"#utility.yul\":10010:10019   */\n      div\n        /* \"#utility.yul\":10005:10019   */\n      swap1\n      pop\n        /* \"#utility.yul\":9840:10025   */\n      swap3\n      swap2\n      pop\n      pop\n      jump\t// out\n        /* \"#utility.yul\":10031:10199   */\n    tag_155:\n        /* \"#utility.yul\":10114:10125   */\n      0x00\n        /* \"#utility.yul\":10148:10154   */\n      dup3\n        /* \"#utility.yul\":10143:10146   */\n      dup3\n        /* \"#utility.yul\":10136:10155   */\n      mstore\n        /* \"#utility.yul\":10188:10192   */\n      0x20\n        /* \"#utility.yul\":10183:10186   */\n      dup3\n        /* \"#utility.yul\":10179:10193   */\n      add\n        /* \"#utility.yul\":10164:10193   */\n      swap1\n      pop\n        /* \"#utility.yul\":10031:10199   */\n      swap3\n      swap2\n      pop\n      pop\n      jump\t// out\n        /* \"#utility.yul\":10227:10541   */\n    tag_156:\n        /* \"#utility.yul\":10323:10326   */\n      0x00\n        /* \"#utility.yul\":10344:10414   */\n      tag_274\n        /* \"#utility.yul\":10407:10413   */\n      dup4\n        /* \"#utility.yul\":10402:10405   */\n      dup6\n        /* \"#utility.yul\":10344:10414   */\n      tag_155\n      jump\t// in\n    tag_274:\n        /* \"#utility.yul\":10337:10414   */\n      swap4\n      pop\n        /* \"#utility.yul\":10424:10480   */\n      tag_275\n        /* \"#utility.yul\":10473:10479   */\n      dup4\n        /* \"#utility.yul\":10468:10471   */\n      dup6\n        /* \"#utility.yul\":10461:10466   */\n      dup5\n        /* \"#utility.yul\":10424:10480   */\n      tag_141\n      jump\t// in\n    tag_275:\n        /* \"#utility.yul\":10505:10534   */\n      tag_276\n        /* \"#utility.yul\":10527:10533   */\n      dup4\n        /* \"#utility.yul\":10505:10534   */\n      tag_136\n      jump\t// in\n    tag_276:\n        /* \"#utility.yul\":10500:10503   */\n      dup5\n        /* \"#utility.yul\":10496:10535   */\n      add\n        /* \"#utility.yul\":10489:10535   */\n      swap1\n      pop\n        /* \"#utility.yul\":10227:10541   */\n      swap4\n      swap3\n      pop\n      pop\n      pop\n      jump\t// out\n        /* \"#utility.yul\":10547:10986   */\n    tag_113:\n        /* \"#utility.yul\":10696:10700   */\n      0x00\n        /* \"#utility.yul\":10734:10736   */\n      0x40\n        /* \"#utility.yul\":10723:10732   */\n      dup3\n        /* \"#utility.yul\":10719:10737   */\n      add\n        /* \"#utility.yul\":10711:10737   */\n      swap1\n      pop\n        /* \"#utility.yul\":10747:10818   */\n      tag_278\n        /* \"#utility.yul\":10815:10816   */\n      0x00\n        /* \"#utility.yul\":10804:10813   */\n      dup4\n        /* \"#utility.yul\":10800:10817   */\n      add\n        /* \"#utility.yul\":10791:10797   */\n      dup7\n        /* \"#utility.yul\":10747:10818   */\n      tag_146\n      jump\t// in\n    tag_278:\n        /* \"#utility.yul\":10865:10874   */\n      dup2\n        /* \"#utility.yul\":10859:10863   */\n      dup2\n        /* \"#utility.yul\":10855:10875   */\n      sub\n        /* \"#utility.yul\":10850:10852   */\n      0x20\n        /* \"#utility.yul\":10839:10848   */\n      dup4\n        /* \"#utility.yul\":10835:10853   */\n      add\n        /* \"#utility.yul\":10828:10876   */\n      mstore\n        /* \"#utility.yul\":10893:10979   */\n      tag_279\n        /* \"#utility.yul\":10974:10978   */\n      dup2\n        /* \"#utility.yul\":10965:10971   */\n      dup5\n        /* \"#utility.yul\":10957:10963   */\n      dup7\n        /* \"#utility.yul\":10893:10979   */\n      tag_156\n      jump\t// in\n    tag_279:\n        /* \"#utility.yul\":10885:10979   */\n      swap1\n      pop\n        /* \"#utility.yul\":10547:10986   */\n      swap5\n      swap4\n      pop\n      pop\n      pop\n      pop\n      jump\t// out\n        /* \"#utility.yul\":10992:11090   */\n    tag_157:\n        /* \"#utility.yul\":11043:11049   */\n      0x00\n        /* \"#utility.yul\":11077:11082   */\n      dup2\n        /* \"#utility.yul\":11071:11083   */\n      mload\n        /* \"#utility.yul\":11061:11083   */\n      swap1\n      pop\n        /* \"#utility.yul\":10992:11090   */\n      swap2\n      swap1\n      pop\n      jump\t// out\n        /* \"#utility.yul\":11096:11342   */\n    tag_158:\n        /* \"#utility.yul\":11177:11178   */\n      0x00\n        /* \"#utility.yul\":11187:11300   */\n    tag_282:\n        /* \"#utility.yul\":11201:11207   */\n      dup4\n        /* \"#utility.yul\":11198:11199   */\n      dup2\n        /* \"#utility.yul\":11195:11208   */\n      lt\n        /* \"#utility.yul\":11187:11300   */\n      iszero\n      tag_284\n      jumpi\n        /* \"#utility.yul\":11286:11287   */\n      dup1\n        /* \"#utility.yul\":11281:11284   */\n      dup3\n        /* \"#utility.yul\":11277:11288   */\n      add\n        /* \"#utility.yul\":11271:11289   */\n      mload\n        /* \"#utility.yul\":11267:11268   */\n      dup2\n        /* \"#utility.yul\":11262:11265   */\n      dup5\n        /* \"#utility.yul\":11258:11269   */\n      add\n        /* \"#utility.yul\":11251:11290   */\n      mstore\n        /* \"#utility.yul\":11223:11225   */\n      0x20\n        /* \"#utility.yul\":11220:11221   */\n      dup2\n        /* \"#utility.yul\":11216:11226   */\n      add\n        /* \"#utility.yul\":11211:11226   */\n      swap1\n      pop\n        /* \"#utility.yul\":11187:11300   */\n      jump(tag_282)\n    tag_284:\n        /* \"#utility.yul\":11334:11335   */\n      0x00\n        /* \"#utility.yul\":11325:11331   */\n      dup5\n        /* \"#utility.yul\":11320:11323   */\n      dup5\n        /* \"#utility.yul\":11316:11332   */\n      add\n        /* \"#utility.yul\":11309:11336   */\n      mstore\n        /* \"#utility.yul\":11158:11342   */\n      pop\n        /* \"#utility.yul\":11096:11342   */\n      pop\n      pop\n      pop\n      jump\t// out\n        /* \"#utility.yul\":11348:11734   */\n    tag_159:\n        /* \"#utility.yul\":11452:11455   */\n      0x00\n        /* \"#utility.yul\":11480:11518   */\n      tag_286\n        /* \"#utility.yul\":11512:11517   */\n      dup3\n        /* \"#utility.yul\":11480:11518   */\n      tag_157\n      jump\t// in\n    tag_286:\n        /* \"#utility.yul\":11534:11622   */\n      tag_287\n        /* \"#utility.yul\":11615:11621   */\n      dup2\n        /* \"#utility.yul\":11610:11613   */\n      dup6\n        /* \"#utility.yul\":11534:11622   */\n      tag_151\n      jump\t// in\n    tag_287:\n        /* \"#utility.yul\":11527:11622   */\n      swap4\n      pop\n        /* \"#utility.yul\":11631:11696   */\n      tag_288\n        /* \"#utility.yul\":11689:11695   */\n      dup2\n        /* \"#utility.yul\":11684:11687   */\n      dup6\n        /* \"#utility.yul\":11677:11681   */\n      0x20\n        /* \"#utility.yul\":11670:11675   */\n      dup7\n        /* \"#utility.yul\":11666:11682   */\n      add\n        /* \"#utility.yul\":11631:11696   */\n      tag_158\n      jump\t// in\n    tag_288:\n        /* \"#utility.yul\":11721:11727   */\n      dup1\n        /* \"#utility.yul\":11716:11719   */\n      dup5\n        /* \"#utility.yul\":11712:11728   */\n      add\n        /* \"#utility.yul\":11705:11728   */\n      swap2\n      pop\n        /* \"#utility.yul\":11456:11734   */\n      pop\n        /* \"#utility.yul\":11348:11734   */\n      swap3\n      swap2\n      pop\n      pop\n      jump\t// out\n        /* \"#utility.yul\":11740:12167   */\n    tag_123:\n        /* \"#utility.yul\":11916:11919   */\n      0x00\n        /* \"#utility.yul\":11938:12031   */\n      tag_290\n        /* \"#utility.yul\":12027:12030   */\n      dup3\n        /* \"#utility.yul\":12018:12024   */\n      dup6\n        /* \"#utility.yul\":11938:12031   */\n      tag_159\n      jump\t// in\n    tag_290:\n        /* \"#utility.yul\":11931:12031   */\n      swap2\n      pop\n        /* \"#utility.yul\":12048:12141   */\n      tag_291\n        /* \"#utility.yul\":12137:12140   */\n      dup3\n        /* \"#utility.yul\":12128:12134   */\n      dup5\n        /* \"#utility.yul\":12048:12141   */\n      tag_159\n      jump\t// in\n    tag_291:\n        /* \"#utility.yul\":12041:12141   */\n      swap2\n      pop\n        /* \"#utility.yul\":12158:12161   */\n      dup2\n        /* \"#utility.yul\":12151:12161   */\n      swap1\n      pop\n        /* \"#utility.yul\":11740:12167   */\n      swap4\n      swap3\n      pop\n      pop\n      pop\n      jump\t// out\n    stop\n\n    sub_0: assembly {\n            /* \"buyer1.sol\":6707:7852  contract NftMinter is IERC721Receiver{... */\n          mstore(0x40, 0x80)\n            /* \"buyer1.sol\":6840:6899  constructor(address _admin) {... */\n          callvalue\n          dup1\n          iszero\n          tag_1\n          jumpi\n          0x00\n          dup1\n          revert\n        tag_1:\n          pop\n          mload(0x40)\n          sub(codesize, bytecodeSize)\n          dup1\n          bytecodeSize\n          dup4\n          codecopy\n          dup2\n          dup2\n          add\n          0x40\n          mstore\n          dup2\n          add\n          swap1\n          tag_2\n          swap2\n          swap1\n          tag_3\n          jump\t// in\n        tag_2:\n            /* \"buyer1.sol\":6886:6892  _admin */\n          dup1\n            /* \"buyer1.sol\":6878:6883  admin */\n          0x00\n          dup1\n            /* \"buyer1.sol\":6878:6892  admin = _admin */\n          0x0100\n          exp\n          dup2\n          sload\n          dup2\n          0xffffffffffffffffffffffffffffffffffffffff\n          mul\n          not\n          and\n          swap1\n          dup4\n          0xffffffffffffffffffffffffffffffffffffffff\n          and\n          mul\n          or\n          swap1\n          sstore\n          pop\n            /* \"buyer1.sol\":6840:6899  constructor(address _admin) {... */\n          pop\n            /* \"buyer1.sol\":6707:7852  contract NftMinter is IERC721Receiver{... */\n          jump(tag_6)\n            /* \"#utility.yul\":88:205   */\n        tag_8:\n            /* \"#utility.yul\":197:198   */\n          0x00\n            /* \"#utility.yul\":194:195   */\n          dup1\n            /* \"#utility.yul\":187:199   */\n          revert\n            /* \"#utility.yul\":334:460   */\n        tag_10:\n            /* \"#utility.yul\":371:378   */\n          0x00\n            /* \"#utility.yul\":411:453   */\n          0xffffffffffffffffffffffffffffffffffffffff\n            /* \"#utility.yul\":404:409   */\n          dup3\n            /* \"#utility.yul\":400:454   */\n          and\n            /* \"#utility.yul\":389:454   */\n          swap1\n          pop\n            /* \"#utility.yul\":334:460   */\n          swap2\n          swap1\n          pop\n          jump\t// out\n            /* \"#utility.yul\":466:562   */\n        tag_11:\n            /* \"#utility.yul\":503:510   */\n          0x00\n            /* \"#utility.yul\":532:556   */\n          tag_20\n            /* \"#utility.yul\":550:555   */\n          dup3\n            /* \"#utility.yul\":532:556   */\n          tag_10\n          jump\t// in\n        tag_20:\n            /* \"#utility.yul\":521:556   */\n          swap1\n          pop\n            /* \"#utility.yul\":466:562   */\n          swap2\n          swap1\n          pop\n          jump\t// out\n            /* \"#utility.yul\":568:690   */\n        tag_12:\n            /* \"#utility.yul\":641:665   */\n          tag_22\n            /* \"#utility.yul\":659:664   */\n          dup2\n            /* \"#utility.yul\":641:665   */\n          tag_11\n          jump\t// in\n        tag_22:\n            /* \"#utility.yul\":634:639   */\n          dup2\n            /* \"#utility.yul\":631:666   */\n          eq\n            /* \"#utility.yul\":621:684   */\n          tag_23\n          jumpi\n            /* \"#utility.yul\":680:681   */\n          0x00\n            /* \"#utility.yul\":677:678   */\n          dup1\n            /* \"#utility.yul\":670:682   */\n          revert\n            /* \"#utility.yul\":621:684   */\n        tag_23:\n            /* \"#utility.yul\":568:690   */\n          pop\n          jump\t// out\n            /* \"#utility.yul\":696:839   */\n        tag_13:\n            /* \"#utility.yul\":753:758   */\n          0x00\n            /* \"#utility.yul\":784:790   */\n          dup2\n            /* \"#utility.yul\":778:791   */\n          mload\n            /* \"#utility.yul\":769:791   */\n          swap1\n          pop\n            /* \"#utility.yul\":800:833   */\n          tag_25\n            /* \"#utility.yul\":827:832   */\n          dup2\n            /* \"#utility.yul\":800:833   */\n          tag_12\n          jump\t// in\n        tag_25:\n            /* \"#utility.yul\":696:839   */\n          swap3\n          swap2\n          pop\n          pop\n          jump\t// out\n            /* \"#utility.yul\":845:1196   */\n        tag_3:\n            /* \"#utility.yul\":915:921   */\n          0x00\n            /* \"#utility.yul\":964:966   */\n          0x20\n            /* \"#utility.yul\":952:961   */\n          dup3\n            /* \"#utility.yul\":943:950   */\n          dup5\n            /* \"#utility.yul\":939:962   */\n          sub\n            /* \"#utility.yul\":935:967   */\n          slt\n            /* \"#utility.yul\":932:1051   */\n          iszero\n          tag_27\n          jumpi\n            /* \"#utility.yul\":970:1049   */\n          tag_28\n          tag_8\n          jump\t// in\n        tag_28:\n            /* \"#utility.yul\":932:1051   */\n        tag_27:\n            /* \"#utility.yul\":1090:1091   */\n          0x00\n            /* \"#utility.yul\":1115:1179   */\n          tag_29\n            /* \"#utility.yul\":1171:1178   */\n          dup5\n            /* \"#utility.yul\":1162:1168   */\n          dup3\n            /* \"#utility.yul\":1151:1160   */\n          dup6\n            /* \"#utility.yul\":1147:1169   */\n          add\n            /* \"#utility.yul\":1115:1179   */\n          tag_13\n          jump\t// in\n        tag_29:\n            /* \"#utility.yul\":1105:1179   */\n          swap2\n          pop\n            /* \"#utility.yul\":1061:1189   */\n          pop\n            /* \"#utility.yul\":845:1196   */\n          swap3\n          swap2\n          pop\n          pop\n          jump\t// out\n            /* \"buyer1.sol\":6707:7852  contract NftMinter is IERC721Receiver{... */\n        tag_6:\n          dataSize(sub_0)\n          dup1\n          dataOffset(sub_0)\n          0x00\n          codecopy\n          0x00\n          return\n        stop\n\n        sub_0: assembly {\n                /* \"buyer1.sol\":6707:7852  contract NftMinter is IERC721Receiver{... */\n              mstore(0x40, 0x80)\n              jumpi(tag_1, lt(calldatasize, 0x04))\n              shr(0xe0, calldataload(0x00))\n              dup1\n              0x150b7a02\n              eq\n              tag_2\n              jumpi\n              dup1\n              0x1a695230\n              eq\n              tag_3\n              jumpi\n              dup1\n              0xb510391f\n              eq\n              tag_4\n              jumpi\n              dup1\n              0xc57a1166\n              eq\n              tag_5\n              jumpi\n              dup1\n              0xf851a440\n              eq\n              tag_6\n              jumpi\n            tag_1:\n              0x00\n              dup1\n              revert\n                /* \"buyer1.sol\":7453:7717  function onERC721Received(... */\n            tag_2:\n              callvalue\n              dup1\n              iszero\n              tag_7\n              jumpi\n              0x00\n              dup1\n              revert\n            tag_7:\n              pop\n              tag_8\n              0x04\n              dup1\n              calldatasize\n              sub\n              dup2\n              add\n              swap1\n              tag_9\n              swap2\n              swap1\n              tag_10\n              jump\t// in\n            tag_9:\n              tag_11\n              jump\t// in\n            tag_8:\n              mload(0x40)\n              tag_12\n              swap2\n              swap1\n              tag_13\n              jump\t// in\n            tag_12:\n              mload(0x40)\n              dup1\n              swap2\n              sub\n              swap1\n              return\n                /* \"buyer1.sol\":7098:7426  function transfer(address nft) external {... */\n            tag_3:\n              callvalue\n              dup1\n              iszero\n              tag_14\n              jumpi\n              0x00\n              dup1\n              revert\n            tag_14:\n              pop\n              tag_15\n              0x04\n              dup1\n              calldatasize\n              sub\n              dup2\n              add\n              swap1\n              tag_16\n              swap2\n              swap1\n              tag_17\n              jump\t// in\n            tag_16:\n              tag_18\n              jump\t// in\n            tag_15:\n              stop\n                /* \"buyer1.sol\":6905:7092  function mint(... */\n            tag_4:\n              tag_19\n              0x04\n              dup1\n              calldatasize\n              sub\n              dup2\n              add\n              swap1\n              tag_20\n              swap2\n              swap1\n              tag_21\n              jump\t// in\n            tag_20:\n              tag_22\n              jump\t// in\n            tag_19:\n              stop\n                /* \"buyer1.sol\":7723:7845  function tokenIdsByNFT(address nft) external view returns(uint256[] memory){... */\n            tag_5:\n              callvalue\n              dup1\n              iszero\n              tag_23\n              jumpi\n              0x00\n              dup1\n              revert\n            tag_23:\n              pop\n              tag_24\n              0x04\n              dup1\n              calldatasize\n              sub\n              dup2\n              add\n              swap1\n              tag_25\n              swap2\n              swap1\n              tag_17\n              jump\t// in\n            tag_25:\n              tag_26\n              jump\t// in\n            tag_24:\n              mload(0x40)\n              tag_27\n              swap2\n              swap1\n              tag_28\n              jump\t// in\n            tag_27:\n              mload(0x40)\n              dup1\n              swap2\n              sub\n              swap1\n              return\n                /* \"buyer1.sol\":6751:6771  address public admin */\n            tag_6:\n              callvalue\n              dup1\n              iszero\n              tag_29\n              jumpi\n              0x00\n              dup1\n              revert\n            tag_29:\n              pop\n              tag_30\n              tag_31\n              jump\t// in\n            tag_30:\n              mload(0x40)\n              tag_32\n              swap2\n              swap1\n              tag_33\n              jump\t// in\n            tag_32:\n              mload(0x40)\n              dup1\n              swap2\n              sub\n              swap1\n              return\n                /* \"buyer1.sol\":7453:7717  function onERC721Received(... */\n            tag_11:\n                /* \"buyer1.sol\":7600:7606  bytes4 */\n              0x00\n                /* \"buyer1.sol\":7618:7636  tokenIdsByContract */\n              0x01\n                /* \"buyer1.sol\":7618:7648  tokenIdsByContract[msg.sender] */\n              0x00\n                /* \"buyer1.sol\":7637:7647  msg.sender */\n              caller\n                /* \"buyer1.sol\":7618:7648  tokenIdsByContract[msg.sender] */\n              0xffffffffffffffffffffffffffffffffffffffff\n              and\n              0xffffffffffffffffffffffffffffffffffffffff\n              and\n              dup2\n              mstore\n              0x20\n              add\n              swap1\n              dup2\n              mstore\n              0x20\n              add\n              0x00\n              keccak256\n                /* \"buyer1.sol\":7654:7662  _tokenId */\n              dup4\n                /* \"buyer1.sol\":7618:7663  tokenIdsByContract[msg.sender].push(_tokenId) */\n              swap1\n              dup1\n              0x01\n              dup2\n              sload\n              add\n              dup1\n              dup3\n              sstore\n              dup1\n              swap2\n              pop\n              pop\n              0x01\n              swap1\n              sub\n              swap1\n              0x00\n              mstore\n              keccak256(0x00, 0x20)\n              add\n              0x00\n              swap1\n              swap2\n              swap1\n              swap2\n              swap1\n              swap2\n              pop\n              sstore\n                /* \"buyer1.sol\":7680:7710  this.onERC721Received.selector */\n              shl(0xe0, 0x150b7a02)\n                /* \"buyer1.sol\":7673:7710  return this.onERC721Received.selector */\n              swap1\n              pop\n                /* \"buyer1.sol\":7453:7717  function onERC721Received(... */\n              swap5\n              swap4\n              pop\n              pop\n              pop\n              pop\n              jump\t// out\n                /* \"buyer1.sol\":7098:7426  function transfer(address nft) external {... */\n            tag_18:\n                /* \"buyer1.sol\":7148:7174  uint256[] memory _tokenIds */\n              0x00\n                /* \"buyer1.sol\":7177:7195  tokenIdsByContract */\n              0x01\n                /* \"buyer1.sol\":7177:7200  tokenIdsByContract[nft] */\n              0x00\n                /* \"buyer1.sol\":7196:7199  nft */\n              dup4\n                /* \"buyer1.sol\":7177:7200  tokenIdsByContract[nft] */\n              0xffffffffffffffffffffffffffffffffffffffff\n              and\n              0xffffffffffffffffffffffffffffffffffffffff\n              and\n              dup2\n              mstore\n              0x20\n              add\n              swap1\n              dup2\n              mstore\n              0x20\n              add\n              0x00\n              keccak256\n                /* \"buyer1.sol\":7148:7200  uint256[] memory _tokenIds = tokenIdsByContract[nft] */\n              dup1\n              sload\n              dup1\n              0x20\n              mul\n              0x20\n              add\n              mload(0x40)\n              swap1\n              dup2\n              add\n              0x40\n              mstore\n              dup1\n              swap3\n              swap2\n              swap1\n              dup2\n              dup2\n              mstore\n              0x20\n              add\n              dup3\n              dup1\n              sload\n              dup1\n              iszero\n              tag_37\n              jumpi\n              0x20\n              mul\n              dup3\n              add\n              swap2\n              swap1\n              0x00\n              mstore\n              keccak256(0x00, 0x20)\n              swap1\n            tag_38:\n              dup2\n              sload\n              dup2\n              mstore\n              0x20\n              add\n              swap1\n              0x01\n              add\n              swap1\n              dup1\n              dup4\n              gt\n              tag_38\n              jumpi\n            tag_37:\n              pop\n              pop\n              pop\n              pop\n              pop\n              swap1\n              pop\n                /* \"buyer1.sol\":7210:7225  uint256 _length */\n              0x00\n                /* \"buyer1.sol\":7228:7237  _tokenIds */\n              dup2\n                /* \"buyer1.sol\":7228:7244  _tokenIds.length */\n              mload\n                /* \"buyer1.sol\":7210:7244  uint256 _length = _tokenIds.length */\n              swap1\n              pop\n                /* \"buyer1.sol\":7260:7269  uint256 i */\n              0x00\n                /* \"buyer1.sol\":7255:7380  for (uint256 i = 0; i < _length; i++ ) {... */\n            tag_39:\n                /* \"buyer1.sol\":7279:7286  _length */\n              dup2\n                /* \"buyer1.sol\":7275:7276  i */\n              dup2\n                /* \"buyer1.sol\":7275:7286  i < _length */\n              lt\n                /* \"buyer1.sol\":7255:7380  for (uint256 i = 0; i < _length; i++ ) {... */\n              iszero\n              tag_40\n              jumpi\n                /* \"buyer1.sol\":7316:7319  nft */\n              dup4\n                /* \"buyer1.sol\":7308:7333  IERC721(nft).transferFrom */\n              0xffffffffffffffffffffffffffffffffffffffff\n              and\n              0x23b872dd\n                /* \"buyer1.sol\":7342:7346  this */\n              address\n                /* \"buyer1.sol\":7349:7354  admin */\n              0x00\n              dup1\n              sload\n              swap1\n              0x0100\n              exp\n              swap1\n              div\n              0xffffffffffffffffffffffffffffffffffffffff\n              and\n                /* \"buyer1.sol\":7356:7365  _tokenIds */\n              dup7\n                /* \"buyer1.sol\":7366:7367  i */\n              dup6\n                /* \"buyer1.sol\":7356:7368  _tokenIds[i] */\n              dup2\n              mload\n              dup2\n              lt\n              tag_42\n              jumpi\n              tag_43\n              tag_44\n              jump\t// in\n            tag_43:\n            tag_42:\n              0x20\n              mul\n              0x20\n              add\n              add\n              mload\n                /* \"buyer1.sol\":7308:7369  IERC721(nft).transferFrom(address(this), admin, _tokenIds[i]) */\n              mload(0x40)\n              dup5\n              0xffffffff\n              and\n              0xe0\n              shl\n              dup2\n              mstore\n              0x04\n              add\n              tag_45\n              swap4\n              swap3\n              swap2\n              swap1\n              tag_46\n              jump\t// in\n            tag_45:\n              0x00\n              mload(0x40)\n              dup1\n              dup4\n              sub\n              dup2\n              0x00\n              dup8\n              dup1\n              extcodesize\n              iszero\n              dup1\n              iszero\n              tag_47\n              jumpi\n              0x00\n              dup1\n              revert\n            tag_47:\n              pop\n              gas\n              call\n              iszero\n              dup1\n              iszero\n              tag_49\n              jumpi\n              returndatasize\n              0x00\n              dup1\n              returndatacopy\n              revert(0x00, returndatasize)\n            tag_49:\n              pop\n              pop\n              pop\n              pop\n                /* \"buyer1.sol\":7288:7291  i++ */\n              dup1\n              dup1\n              tag_50\n              swap1\n              tag_51\n              jump\t// in\n            tag_50:\n              swap2\n              pop\n              pop\n                /* \"buyer1.sol\":7255:7380  for (uint256 i = 0; i < _length; i++ ) {... */\n              jump(tag_39)\n            tag_40:\n              pop\n                /* \"buyer1.sol\":7396:7414  tokenIdsByContract */\n              0x01\n                /* \"buyer1.sol\":7396:7419  tokenIdsByContract[nft] */\n              0x00\n                /* \"buyer1.sol\":7415:7418  nft */\n              dup5\n                /* \"buyer1.sol\":7396:7419  tokenIdsByContract[nft] */\n              0xffffffffffffffffffffffffffffffffffffffff\n              and\n              0xffffffffffffffffffffffffffffffffffffffff\n              and\n              dup2\n              mstore\n              0x20\n              add\n              swap1\n              dup2\n              mstore\n              0x20\n              add\n              0x00\n              keccak256\n              0x00\n                /* \"buyer1.sol\":7389:7419  delete tokenIdsByContract[nft] */\n              tag_52\n              swap2\n              swap1\n              tag_53\n              jump\t// in\n            tag_52:\n                /* \"buyer1.sol\":7138:7426  {... */\n              pop\n              pop\n                /* \"buyer1.sol\":7098:7426  function transfer(address nft) external {... */\n              pop\n              jump\t// out\n                /* \"buyer1.sol\":6905:7092  function mint(... */\n            tag_22:\n                /* \"buyer1.sol\":7008:7020  bool success */\n              0x00\n                /* \"buyer1.sol\":7026:7029  nft */\n              dup4\n                /* \"buyer1.sol\":7026:7034  nft.call */\n              0xffffffffffffffffffffffffffffffffffffffff\n              and\n                /* \"buyer1.sol\":7042:7051  msg.value */\n              callvalue\n                /* \"buyer1.sol\":7053:7058  param */\n              dup5\n              dup5\n                /* \"buyer1.sol\":7026:7059  nft.call{value: msg.value}(param) */\n              mload(0x40)\n              tag_55\n              swap3\n              swap2\n              swap1\n              tag_56\n              jump\t// in\n            tag_55:\n              0x00\n              mload(0x40)\n              dup1\n              dup4\n              sub\n              dup2\n              dup6\n              dup8\n              gas\n              call\n              swap3\n              pop\n              pop\n              pop\n              returndatasize\n              dup1\n              0x00\n              dup2\n              eq\n              tag_59\n              jumpi\n              mload(0x40)\n              swap2\n              pop\n              and(add(returndatasize, 0x3f), not(0x1f))\n              dup3\n              add\n              0x40\n              mstore\n              returndatasize\n              dup3\n              mstore\n              returndatasize\n              0x00\n              0x20\n              dup5\n              add\n              returndatacopy\n              jump(tag_58)\n            tag_59:\n              0x60\n              swap2\n              pop\n            tag_58:\n              pop\n                /* \"buyer1.sol\":7007:7059  (bool success, ) = nft.call{value: msg.value}(param) */\n              pop\n              swap1\n              pop\n                /* \"buyer1.sol\":7077:7084  success */\n              dup1\n                /* \"buyer1.sol\":7069:7085  require(success) */\n              tag_60\n              jumpi\n              0x00\n              dup1\n              revert\n            tag_60:\n                /* \"buyer1.sol\":6997:7092  {... */\n              pop\n                /* \"buyer1.sol\":6905:7092  function mint(... */\n              pop\n              pop\n              pop\n              jump\t// out\n                /* \"buyer1.sol\":7723:7845  function tokenIdsByNFT(address nft) external view returns(uint256[] memory){... */\n            tag_26:\n                /* \"buyer1.sol\":7781:7797  uint256[] memory */\n              0x60\n                /* \"buyer1.sol\":7815:7833  tokenIdsByContract */\n              0x01\n                /* \"buyer1.sol\":7815:7838  tokenIdsByContract[nft] */\n              0x00\n                /* \"buyer1.sol\":7834:7837  nft */\n              dup4\n                /* \"buyer1.sol\":7815:7838  tokenIdsByContract[nft] */\n              0xffffffffffffffffffffffffffffffffffffffff\n              and\n              0xffffffffffffffffffffffffffffffffffffffff\n              and\n              dup2\n              mstore\n              0x20\n              add\n              swap1\n              dup2\n              mstore\n              0x20\n              add\n              0x00\n              keccak256\n                /* \"buyer1.sol\":7808:7838  return tokenIdsByContract[nft] */\n              dup1\n              sload\n              dup1\n              0x20\n              mul\n              0x20\n              add\n              mload(0x40)\n              swap1\n              dup2\n              add\n              0x40\n              mstore\n              dup1\n              swap3\n              swap2\n              swap1\n              dup2\n              dup2\n              mstore\n              0x20\n              add\n              dup3\n              dup1\n              sload\n              dup1\n              iszero\n              tag_62\n              jumpi\n              0x20\n              mul\n              dup3\n              add\n              swap2\n              swap1\n              0x00\n              mstore\n              keccak256(0x00, 0x20)\n              swap1\n            tag_63:\n              dup2\n              sload\n              dup2\n              mstore\n              0x20\n              add\n              swap1\n              0x01\n              add\n              swap1\n              dup1\n              dup4\n              gt\n              tag_63\n              jumpi\n            tag_62:\n              pop\n              pop\n              pop\n              pop\n              pop\n              swap1\n              pop\n                /* \"buyer1.sol\":7723:7845  function tokenIdsByNFT(address nft) external view returns(uint256[] memory){... */\n              swap2\n              swap1\n              pop\n              jump\t// out\n                /* \"buyer1.sol\":6751:6771  address public admin */\n            tag_31:\n              0x00\n              dup1\n              sload\n              swap1\n              0x0100\n              exp\n              swap1\n              div\n              0xffffffffffffffffffffffffffffffffffffffff\n              and\n              dup2\n              jump\t// out\n            tag_53:\n              pop\n              dup1\n              sload\n              0x00\n              dup3\n              sstore\n              swap1\n              0x00\n              mstore\n              keccak256(0x00, 0x20)\n              swap1\n              dup2\n              add\n              swap1\n              tag_65\n              swap2\n              swap1\n              tag_66\n              jump\t// in\n            tag_65:\n              pop\n              jump\t// out\n            tag_66:\n            tag_67:\n              dup1\n              dup3\n              gt\n              iszero\n              tag_68\n              jumpi\n              0x00\n              dup2\n              0x00\n              swap1\n              sstore\n              pop\n              0x01\n              add\n              jump(tag_67)\n            tag_68:\n              pop\n              swap1\n              jump\t// out\n                /* \"#utility.yul\":7:82   */\n            tag_69:\n                /* \"#utility.yul\":40:46   */\n              0x00\n                /* \"#utility.yul\":73:75   */\n              0x40\n                /* \"#utility.yul\":67:76   */\n              mload\n                /* \"#utility.yul\":57:76   */\n              swap1\n              pop\n                /* \"#utility.yul\":7:82   */\n              swap1\n              jump\t// out\n                /* \"#utility.yul\":88:205   */\n            tag_70:\n                /* \"#utility.yul\":197:198   */\n              0x00\n                /* \"#utility.yul\":194:195   */\n              dup1\n                /* \"#utility.yul\":187:199   */\n              revert\n                /* \"#utility.yul\":211:328   */\n            tag_71:\n                /* \"#utility.yul\":320:321   */\n              0x00\n                /* \"#utility.yul\":317:318   */\n              dup1\n                /* \"#utility.yul\":310:322   */\n              revert\n                /* \"#utility.yul\":334:460   */\n            tag_72:\n                /* \"#utility.yul\":371:378   */\n              0x00\n                /* \"#utility.yul\":411:453   */\n              0xffffffffffffffffffffffffffffffffffffffff\n                /* \"#utility.yul\":404:409   */\n              dup3\n                /* \"#utility.yul\":400:454   */\n              and\n                /* \"#utility.yul\":389:454   */\n              swap1\n              pop\n                /* \"#utility.yul\":334:460   */\n              swap2\n              swap1\n              pop\n              jump\t// out\n                /* \"#utility.yul\":466:562   */\n            tag_73:\n                /* \"#utility.yul\":503:510   */\n              0x00\n                /* \"#utility.yul\":532:556   */\n              tag_112\n                /* \"#utility.yul\":550:555   */\n              dup3\n                /* \"#utility.yul\":532:556   */\n              tag_72\n              jump\t// in\n            tag_112:\n                /* \"#utility.yul\":521:556   */\n              swap1\n              pop\n                /* \"#utility.yul\":466:562   */\n              swap2\n              swap1\n              pop\n              jump\t// out\n                /* \"#utility.yul\":568:690   */\n            tag_74:\n                /* \"#utility.yul\":641:665   */\n              tag_114\n                /* \"#utility.yul\":659:664   */\n              dup2\n                /* \"#utility.yul\":641:665   */\n              tag_73\n              jump\t// in\n            tag_114:\n                /* \"#utility.yul\":634:639   */\n              dup2\n                /* \"#utility.yul\":631:666   */\n              eq\n                /* \"#utility.yul\":621:684   */\n              tag_115\n              jumpi\n                /* \"#utility.yul\":680:681   */\n              0x00\n                /* \"#utility.yul\":677:678   */\n              dup1\n                /* \"#utility.yul\":670:682   */\n              revert\n                /* \"#utility.yul\":621:684   */\n            tag_115:\n                /* \"#utility.yul\":568:690   */\n              pop\n              jump\t// out\n                /* \"#utility.yul\":696:835   */\n            tag_75:\n                /* \"#utility.yul\":742:747   */\n              0x00\n                /* \"#utility.yul\":780:786   */\n              dup2\n                /* \"#utility.yul\":767:787   */\n              calldataload\n                /* \"#utility.yul\":758:787   */\n              swap1\n              pop\n                /* \"#utility.yul\":796:829   */\n              tag_117\n                /* \"#utility.yul\":823:828   */\n              dup2\n                /* \"#utility.yul\":796:829   */\n              tag_74\n              jump\t// in\n            tag_117:\n                /* \"#utility.yul\":696:835   */\n              swap3\n              swap2\n              pop\n              pop\n              jump\t// out\n                /* \"#utility.yul\":841:918   */\n            tag_76:\n                /* \"#utility.yul\":878:885   */\n              0x00\n                /* \"#utility.yul\":907:912   */\n              dup2\n                /* \"#utility.yul\":896:912   */\n              swap1\n              pop\n                /* \"#utility.yul\":841:918   */\n              swap2\n              swap1\n              pop\n              jump\t// out\n                /* \"#utility.yul\":924:1046   */\n            tag_77:\n                /* \"#utility.yul\":997:1021   */\n              tag_120\n                /* \"#utility.yul\":1015:1020   */\n              dup2\n                /* \"#utility.yul\":997:1021   */\n              tag_76\n              jump\t// in\n            tag_120:\n                /* \"#utility.yul\":990:995   */\n              dup2\n                /* \"#utility.yul\":987:1022   */\n              eq\n                /* \"#utility.yul\":977:1040   */\n              tag_121\n              jumpi\n                /* \"#utility.yul\":1036:1037   */\n              0x00\n                /* \"#utility.yul\":1033:1034   */\n              dup1\n                /* \"#utility.yul\":1026:1038   */\n              revert\n                /* \"#utility.yul\":977:1040   */\n            tag_121:\n                /* \"#utility.yul\":924:1046   */\n              pop\n              jump\t// out\n                /* \"#utility.yul\":1052:1191   */\n            tag_78:\n                /* \"#utility.yul\":1098:1103   */\n              0x00\n                /* \"#utility.yul\":1136:1142   */\n              dup2\n                /* \"#utility.yul\":1123:1143   */\n              calldataload\n                /* \"#utility.yul\":1114:1143   */\n              swap1\n              pop\n                /* \"#utility.yul\":1152:1185   */\n              tag_123\n                /* \"#utility.yul\":1179:1184   */\n              dup2\n                /* \"#utility.yul\":1152:1185   */\n              tag_77\n              jump\t// in\n            tag_123:\n                /* \"#utility.yul\":1052:1191   */\n              swap3\n              swap2\n              pop\n              pop\n              jump\t// out\n                /* \"#utility.yul\":1197:1314   */\n            tag_79:\n                /* \"#utility.yul\":1306:1307   */\n              0x00\n                /* \"#utility.yul\":1303:1304   */\n              dup1\n                /* \"#utility.yul\":1296:1308   */\n              revert\n                /* \"#utility.yul\":1320:1437   */\n            tag_80:\n                /* \"#utility.yul\":1429:1430   */\n              0x00\n                /* \"#utility.yul\":1426:1427   */\n              dup1\n                /* \"#utility.yul\":1419:1431   */\n              revert\n                /* \"#utility.yul\":1443:1545   */\n            tag_81:\n                /* \"#utility.yul\":1484:1490   */\n              0x00\n                /* \"#utility.yul\":1535:1537   */\n              0x1f\n                /* \"#utility.yul\":1531:1538   */\n              not\n                /* \"#utility.yul\":1526:1528   */\n              0x1f\n                /* \"#utility.yul\":1519:1524   */\n              dup4\n                /* \"#utility.yul\":1515:1529   */\n              add\n                /* \"#utility.yul\":1511:1539   */\n              and\n                /* \"#utility.yul\":1501:1539   */\n              swap1\n              pop\n                /* \"#utility.yul\":1443:1545   */\n              swap2\n              swap1\n              pop\n              jump\t// out\n                /* \"#utility.yul\":1551:1731   */\n            tag_82:\n                /* \"#utility.yul\":1599:1676   */\n              0x4e487b7100000000000000000000000000000000000000000000000000000000\n                /* \"#utility.yul\":1596:1597   */\n              0x00\n                /* \"#utility.yul\":1589:1677   */\n              mstore\n                /* \"#utility.yul\":1696:1700   */\n              0x41\n                /* \"#utility.yul\":1693:1694   */\n              0x04\n                /* \"#utility.yul\":1686:1701   */\n              mstore\n                /* \"#utility.yul\":1720:1724   */\n              0x24\n                /* \"#utility.yul\":1717:1718   */\n              0x00\n                /* \"#utility.yul\":1710:1725   */\n              revert\n                /* \"#utility.yul\":1737:2018   */\n            tag_83:\n                /* \"#utility.yul\":1820:1847   */\n              tag_129\n                /* \"#utility.yul\":1842:1846   */\n              dup3\n                /* \"#utility.yul\":1820:1847   */\n              tag_81\n              jump\t// in\n            tag_129:\n                /* \"#utility.yul\":1812:1818   */\n              dup2\n                /* \"#utility.yul\":1808:1848   */\n              add\n                /* \"#utility.yul\":1950:1956   */\n              dup2\n                /* \"#utility.yul\":1938:1948   */\n              dup2\n                /* \"#utility.yul\":1935:1957   */\n              lt\n                /* \"#utility.yul\":1914:1932   */\n              0xffffffffffffffff\n                /* \"#utility.yul\":1902:1912   */\n              dup3\n                /* \"#utility.yul\":1899:1933   */\n              gt\n                /* \"#utility.yul\":1896:1958   */\n              or\n                /* \"#utility.yul\":1893:1981   */\n              iszero\n              tag_130\n              jumpi\n                /* \"#utility.yul\":1961:1979   */\n              tag_131\n              tag_82\n              jump\t// in\n            tag_131:\n                /* \"#utility.yul\":1893:1981   */\n            tag_130:\n                /* \"#utility.yul\":2001:2011   */\n              dup1\n                /* \"#utility.yul\":1997:1999   */\n              0x40\n                /* \"#utility.yul\":1990:2012   */\n              mstore\n                /* \"#utility.yul\":1780:2018   */\n              pop\n                /* \"#utility.yul\":1737:2018   */\n              pop\n              pop\n              jump\t// out\n                /* \"#utility.yul\":2024:2153   */\n            tag_84:\n                /* \"#utility.yul\":2058:2064   */\n              0x00\n                /* \"#utility.yul\":2085:2105   */\n              tag_133\n              tag_69\n              jump\t// in\n            tag_133:\n                /* \"#utility.yul\":2075:2105   */\n              swap1\n              pop\n                /* \"#utility.yul\":2114:2147   */\n              tag_134\n                /* \"#utility.yul\":2142:2146   */\n              dup3\n                /* \"#utility.yul\":2134:2140   */\n              dup3\n                /* \"#utility.yul\":2114:2147   */\n              tag_83\n              jump\t// in\n            tag_134:\n                /* \"#utility.yul\":2024:2153   */\n              swap2\n              swap1\n              pop\n              jump\t// out\n                /* \"#utility.yul\":2159:2466   */\n            tag_85:\n                /* \"#utility.yul\":2220:2224   */\n              0x00\n                /* \"#utility.yul\":2310:2328   */\n              0xffffffffffffffff\n                /* \"#utility.yul\":2302:2308   */\n              dup3\n                /* \"#utility.yul\":2299:2329   */\n              gt\n                /* \"#utility.yul\":2296:2352   */\n              iszero\n              tag_136\n              jumpi\n                /* \"#utility.yul\":2332:2350   */\n              tag_137\n              tag_82\n              jump\t// in\n            tag_137:\n                /* \"#utility.yul\":2296:2352   */\n            tag_136:\n                /* \"#utility.yul\":2370:2399   */\n              tag_138\n                /* \"#utility.yul\":2392:2398   */\n              dup3\n                /* \"#utility.yul\":2370:2399   */\n              tag_81\n              jump\t// in\n            tag_138:\n                /* \"#utility.yul\":2362:2399   */\n              swap1\n              pop\n                /* \"#utility.yul\":2454:2458   */\n              0x20\n                /* \"#utility.yul\":2448:2452   */\n              dup2\n                /* \"#utility.yul\":2444:2459   */\n              add\n                /* \"#utility.yul\":2436:2459   */\n              swap1\n              pop\n                /* \"#utility.yul\":2159:2466   */\n              swap2\n              swap1\n              pop\n              jump\t// out\n                /* \"#utility.yul\":2472:2618   */\n            tag_86:\n                /* \"#utility.yul\":2569:2575   */\n              dup3\n                /* \"#utility.yul\":2564:2567   */\n              dup2\n                /* \"#utility.yul\":2559:2562   */\n              dup4\n                /* \"#utility.yul\":2546:2576   */\n              calldatacopy\n                /* \"#utility.yul\":2610:2611   */\n              0x00\n                /* \"#utility.yul\":2601:2607   */\n              dup4\n                /* \"#utility.yul\":2596:2599   */\n              dup4\n                /* \"#utility.yul\":2592:2608   */\n              add\n                /* \"#utility.yul\":2585:2612   */\n              mstore\n                /* \"#utility.yul\":2472:2618   */\n              pop\n              pop\n              pop\n              jump\t// out\n                /* \"#utility.yul\":2624:3047   */\n            tag_87:\n                /* \"#utility.yul\":2701:2706   */\n              0x00\n                /* \"#utility.yul\":2726:2791   */\n              tag_141\n                /* \"#utility.yul\":2742:2790   */\n              tag_142\n                /* \"#utility.yul\":2783:2789   */\n              dup5\n                /* \"#utility.yul\":2742:2790   */\n              tag_85\n              jump\t// in\n            tag_142:\n                /* \"#utility.yul\":2726:2791   */\n              tag_84\n              jump\t// in\n            tag_141:\n                /* \"#utility.yul\":2717:2791   */\n              swap1\n              pop\n                /* \"#utility.yul\":2814:2820   */\n              dup3\n                /* \"#utility.yul\":2807:2812   */\n              dup2\n                /* \"#utility.yul\":2800:2821   */\n              mstore\n                /* \"#utility.yul\":2852:2856   */\n              0x20\n                /* \"#utility.yul\":2845:2850   */\n              dup2\n                /* \"#utility.yul\":2841:2857   */\n              add\n                /* \"#utility.yul\":2890:2893   */\n              dup5\n                /* \"#utility.yul\":2881:2887   */\n              dup5\n                /* \"#utility.yul\":2876:2879   */\n              dup5\n                /* \"#utility.yul\":2872:2888   */\n              add\n                /* \"#utility.yul\":2869:2894   */\n              gt\n                /* \"#utility.yul\":2866:2978   */\n              iszero\n              tag_143\n              jumpi\n                /* \"#utility.yul\":2897:2976   */\n              tag_144\n              tag_80\n              jump\t// in\n            tag_144:\n                /* \"#utility.yul\":2866:2978   */\n            tag_143:\n                /* \"#utility.yul\":2987:3041   */\n              tag_145\n                /* \"#utility.yul\":3034:3040   */\n              dup5\n                /* \"#utility.yul\":3029:3032   */\n              dup3\n                /* \"#utility.yul\":3024:3027   */\n              dup6\n                /* \"#utility.yul\":2987:3041   */\n              tag_86\n              jump\t// in\n            tag_145:\n                /* \"#utility.yul\":2707:3047   */\n              pop\n                /* \"#utility.yul\":2624:3047   */\n              swap4\n              swap3\n              pop\n              pop\n              pop\n              jump\t// out\n                /* \"#utility.yul\":3066:3404   */\n            tag_88:\n                /* \"#utility.yul\":3121:3126   */\n              0x00\n                /* \"#utility.yul\":3170:3173   */\n              dup3\n                /* \"#utility.yul\":3163:3167   */\n              0x1f\n                /* \"#utility.yul\":3155:3161   */\n              dup4\n                /* \"#utility.yul\":3151:3168   */\n              add\n                /* \"#utility.yul\":3147:3174   */\n              slt\n                /* \"#utility.yul\":3137:3259   */\n              tag_147\n              jumpi\n                /* \"#utility.yul\":3178:3257   */\n              tag_148\n              tag_79\n              jump\t// in\n            tag_148:\n                /* \"#utility.yul\":3137:3259   */\n            tag_147:\n                /* \"#utility.yul\":3295:3301   */\n              dup2\n                /* \"#utility.yul\":3282:3302   */\n              calldataload\n                /* \"#utility.yul\":3320:3398   */\n              tag_149\n                /* \"#utility.yul\":3394:3397   */\n              dup5\n                /* \"#utility.yul\":3386:3392   */\n              dup3\n                /* \"#utility.yul\":3379:3383   */\n              0x20\n                /* \"#utility.yul\":3371:3377   */\n              dup7\n                /* \"#utility.yul\":3367:3384   */\n              add\n                /* \"#utility.yul\":3320:3398   */\n              tag_87\n              jump\t// in\n            tag_149:\n                /* \"#utility.yul\":3311:3398   */\n              swap2\n              pop\n                /* \"#utility.yul\":3127:3404   */\n              pop\n                /* \"#utility.yul\":3066:3404   */\n              swap3\n              swap2\n              pop\n              pop\n              jump\t// out\n                /* \"#utility.yul\":3410:4353   */\n            tag_10:\n                /* \"#utility.yul\":3505:3511   */\n              0x00\n                /* \"#utility.yul\":3513:3519   */\n              dup1\n                /* \"#utility.yul\":3521:3527   */\n              0x00\n                /* \"#utility.yul\":3529:3535   */\n              dup1\n                /* \"#utility.yul\":3578:3581   */\n              0x80\n                /* \"#utility.yul\":3566:3575   */\n              dup6\n                /* \"#utility.yul\":3557:3564   */\n              dup8\n                /* \"#utility.yul\":3553:3576   */\n              sub\n                /* \"#utility.yul\":3549:3582   */\n              slt\n                /* \"#utility.yul\":3546:3666   */\n              iszero\n              tag_151\n              jumpi\n                /* \"#utility.yul\":3585:3664   */\n              tag_152\n              tag_70\n              jump\t// in\n            tag_152:\n                /* \"#utility.yul\":3546:3666   */\n            tag_151:\n                /* \"#utility.yul\":3705:3706   */\n              0x00\n                /* \"#utility.yul\":3730:3783   */\n              tag_153\n                /* \"#utility.yul\":3775:3782   */\n              dup8\n                /* \"#utility.yul\":3766:3772   */\n              dup3\n                /* \"#utility.yul\":3755:3764   */\n              dup9\n                /* \"#utility.yul\":3751:3773   */\n              add\n                /* \"#utility.yul\":3730:3783   */\n              tag_75\n              jump\t// in\n            tag_153:\n                /* \"#utility.yul\":3720:3783   */\n              swap5\n              pop\n                /* \"#utility.yul\":3676:3793   */\n              pop\n                /* \"#utility.yul\":3832:3834   */\n              0x20\n                /* \"#utility.yul\":3858:3911   */\n              tag_154\n                /* \"#utility.yul\":3903:3910   */\n              dup8\n                /* \"#utility.yul\":3894:3900   */\n              dup3\n                /* \"#utility.yul\":3883:3892   */\n              dup9\n                /* \"#utility.yul\":3879:3901   */\n              add\n                /* \"#utility.yul\":3858:3911   */\n              tag_75\n              jump\t// in\n            tag_154:\n                /* \"#utility.yul\":3848:3911   */\n              swap4\n              pop\n                /* \"#utility.yul\":3803:3921   */\n              pop\n                /* \"#utility.yul\":3960:3962   */\n              0x40\n                /* \"#utility.yul\":3986:4039   */\n              tag_155\n                /* \"#utility.yul\":4031:4038   */\n              dup8\n                /* \"#utility.yul\":4022:4028   */\n              dup3\n                /* \"#utility.yul\":4011:4020   */\n              dup9\n                /* \"#utility.yul\":4007:4029   */\n              add\n                /* \"#utility.yul\":3986:4039   */\n              tag_78\n              jump\t// in\n            tag_155:\n                /* \"#utility.yul\":3976:4039   */\n              swap3\n              pop\n                /* \"#utility.yul\":3931:4049   */\n              pop\n                /* \"#utility.yul\":4116:4118   */\n              0x60\n                /* \"#utility.yul\":4105:4114   */\n              dup6\n                /* \"#utility.yul\":4101:4119   */\n              add\n                /* \"#utility.yul\":4088:4120   */\n              calldataload\n                /* \"#utility.yul\":4147:4165   */\n              0xffffffffffffffff\n                /* \"#utility.yul\":4139:4145   */\n              dup2\n                /* \"#utility.yul\":4136:4166   */\n              gt\n                /* \"#utility.yul\":4133:4250   */\n              iszero\n              tag_156\n              jumpi\n                /* \"#utility.yul\":4169:4248   */\n              tag_157\n              tag_71\n              jump\t// in\n            tag_157:\n                /* \"#utility.yul\":4133:4250   */\n            tag_156:\n                /* \"#utility.yul\":4274:4336   */\n              tag_158\n                /* \"#utility.yul\":4328:4335   */\n              dup8\n                /* \"#utility.yul\":4319:4325   */\n              dup3\n                /* \"#utility.yul\":4308:4317   */\n              dup9\n                /* \"#utility.yul\":4304:4326   */\n              add\n                /* \"#utility.yul\":4274:4336   */\n              tag_88\n              jump\t// in\n            tag_158:\n                /* \"#utility.yul\":4264:4336   */\n              swap2\n              pop\n                /* \"#utility.yul\":4059:4346   */\n              pop\n                /* \"#utility.yul\":3410:4353   */\n              swap3\n              swap6\n              swap2\n              swap5\n              pop\n              swap3\n              pop\n              jump\t// out\n                /* \"#utility.yul\":4359:4508   */\n            tag_89:\n                /* \"#utility.yul\":4395:4402   */\n              0x00\n                /* \"#utility.yul\":4435:4501   */\n              0xffffffff00000000000000000000000000000000000000000000000000000000\n                /* \"#utility.yul\":4428:4433   */\n              dup3\n                /* \"#utility.yul\":4424:4502   */\n              and\n                /* \"#utility.yul\":4413:4502   */\n              swap1\n              pop\n                /* \"#utility.yul\":4359:4508   */\n              swap2\n              swap1\n              pop\n              jump\t// out\n                /* \"#utility.yul\":4514:4629   */\n            tag_90:\n                /* \"#utility.yul\":4599:4622   */\n              tag_161\n                /* \"#utility.yul\":4616:4621   */\n              dup2\n                /* \"#utility.yul\":4599:4622   */\n              tag_89\n              jump\t// in\n            tag_161:\n                /* \"#utility.yul\":4594:4597   */\n              dup3\n                /* \"#utility.yul\":4587:4623   */\n              mstore\n                /* \"#utility.yul\":4514:4629   */\n              pop\n              pop\n              jump\t// out\n                /* \"#utility.yul\":4635:4853   */\n            tag_13:\n                /* \"#utility.yul\":4726:4730   */\n              0x00\n                /* \"#utility.yul\":4764:4766   */\n              0x20\n                /* \"#utility.yul\":4753:4762   */\n              dup3\n                /* \"#utility.yul\":4749:4767   */\n              add\n                /* \"#utility.yul\":4741:4767   */\n              swap1\n              pop\n                /* \"#utility.yul\":4777:4846   */\n              tag_163\n                /* \"#utility.yul\":4843:4844   */\n              0x00\n                /* \"#utility.yul\":4832:4841   */\n              dup4\n                /* \"#utility.yul\":4828:4845   */\n              add\n                /* \"#utility.yul\":4819:4825   */\n              dup5\n                /* \"#utility.yul\":4777:4846   */\n              tag_90\n              jump\t// in\n            tag_163:\n                /* \"#utility.yul\":4635:4853   */\n              swap3\n              swap2\n              pop\n              pop\n              jump\t// out\n                /* \"#utility.yul\":4859:5188   */\n            tag_17:\n                /* \"#utility.yul\":4918:4924   */\n              0x00\n                /* \"#utility.yul\":4967:4969   */\n              0x20\n                /* \"#utility.yul\":4955:4964   */\n              dup3\n                /* \"#utility.yul\":4946:4953   */\n              dup5\n                /* \"#utility.yul\":4942:4965   */\n              sub\n                /* \"#utility.yul\":4938:4970   */\n              slt\n                /* \"#utility.yul\":4935:5054   */\n              iszero\n              tag_165\n              jumpi\n                /* \"#utility.yul\":4973:5052   */\n              tag_166\n              tag_70\n              jump\t// in\n            tag_166:\n                /* \"#utility.yul\":4935:5054   */\n            tag_165:\n                /* \"#utility.yul\":5093:5094   */\n              0x00\n                /* \"#utility.yul\":5118:5171   */\n              tag_167\n                /* \"#utility.yul\":5163:5170   */\n              dup5\n                /* \"#utility.yul\":5154:5160   */\n              dup3\n                /* \"#utility.yul\":5143:5152   */\n              dup6\n                /* \"#utility.yul\":5139:5161   */\n              add\n                /* \"#utility.yul\":5118:5171   */\n              tag_75\n              jump\t// in\n            tag_167:\n                /* \"#utility.yul\":5108:5171   */\n              swap2\n              pop\n                /* \"#utility.yul\":5064:5181   */\n              pop\n                /* \"#utility.yul\":4859:5188   */\n              swap3\n              swap2\n              pop\n              pop\n              jump\t// out\n                /* \"#utility.yul\":5194:5311   */\n            tag_91:\n                /* \"#utility.yul\":5303:5304   */\n              0x00\n                /* \"#utility.yul\":5300:5301   */\n              dup1\n                /* \"#utility.yul\":5293:5305   */\n              revert\n                /* \"#utility.yul\":5317:5434   */\n            tag_92:\n                /* \"#utility.yul\":5426:5427   */\n              0x00\n                /* \"#utility.yul\":5423:5424   */\n              dup1\n                /* \"#utility.yul\":5416:5428   */\n              revert\n                /* \"#utility.yul\":5453:6005   */\n            tag_93:\n                /* \"#utility.yul\":5510:5518   */\n              0x00\n                /* \"#utility.yul\":5520:5526   */\n              dup1\n                /* \"#utility.yul\":5570:5573   */\n              dup4\n                /* \"#utility.yul\":5563:5567   */\n              0x1f\n                /* \"#utility.yul\":5555:5561   */\n              dup5\n                /* \"#utility.yul\":5551:5568   */\n              add\n                /* \"#utility.yul\":5547:5574   */\n              slt\n                /* \"#utility.yul\":5537:5659   */\n              tag_171\n              jumpi\n                /* \"#utility.yul\":5578:5657   */\n              tag_172\n              tag_79\n              jump\t// in\n            tag_172:\n                /* \"#utility.yul\":5537:5659   */\n            tag_171:\n                /* \"#utility.yul\":5691:5697   */\n              dup3\n                /* \"#utility.yul\":5678:5698   */\n              calldataload\n                /* \"#utility.yul\":5668:5698   */\n              swap1\n              pop\n                /* \"#utility.yul\":5721:5739   */\n              0xffffffffffffffff\n                /* \"#utility.yul\":5713:5719   */\n              dup2\n                /* \"#utility.yul\":5710:5740   */\n              gt\n                /* \"#utility.yul\":5707:5824   */\n              iszero\n              tag_173\n              jumpi\n                /* \"#utility.yul\":5743:5822   */\n              tag_174\n              tag_91\n              jump\t// in\n            tag_174:\n                /* \"#utility.yul\":5707:5824   */\n            tag_173:\n                /* \"#utility.yul\":5857:5861   */\n              0x20\n                /* \"#utility.yul\":5849:5855   */\n              dup4\n                /* \"#utility.yul\":5845:5862   */\n              add\n                /* \"#utility.yul\":5833:5862   */\n              swap2\n              pop\n                /* \"#utility.yul\":5911:5914   */\n              dup4\n                /* \"#utility.yul\":5903:5907   */\n              0x01\n                /* \"#utility.yul\":5895:5901   */\n              dup3\n                /* \"#utility.yul\":5891:5908   */\n              mul\n                /* \"#utility.yul\":5881:5889   */\n              dup4\n                /* \"#utility.yul\":5877:5909   */\n              add\n                /* \"#utility.yul\":5874:5915   */\n              gt\n                /* \"#utility.yul\":5871:5999   */\n              iszero\n              tag_175\n              jumpi\n                /* \"#utility.yul\":5918:5997   */\n              tag_176\n              tag_92\n              jump\t// in\n            tag_176:\n                /* \"#utility.yul\":5871:5999   */\n            tag_175:\n                /* \"#utility.yul\":5453:6005   */\n              swap3\n              pop\n              swap3\n              swap1\n              pop\n              jump\t// out\n                /* \"#utility.yul\":6011:6683   */\n            tag_21:\n                /* \"#utility.yul\":6090:6096   */\n              0x00\n                /* \"#utility.yul\":6098:6104   */\n              dup1\n                /* \"#utility.yul\":6106:6112   */\n              0x00\n                /* \"#utility.yul\":6155:6157   */\n              0x40\n                /* \"#utility.yul\":6143:6152   */\n              dup5\n                /* \"#utility.yul\":6134:6141   */\n              dup7\n                /* \"#utility.yul\":6130:6153   */\n              sub\n                /* \"#utility.yul\":6126:6158   */\n              slt\n                /* \"#utility.yul\":6123:6242   */\n              iszero\n              tag_178\n              jumpi\n                /* \"#utility.yul\":6161:6240   */\n              tag_179\n              tag_70\n              jump\t// in\n            tag_179:\n                /* \"#utility.yul\":6123:6242   */\n            tag_178:\n                /* \"#utility.yul\":6281:6282   */\n              0x00\n                /* \"#utility.yul\":6306:6359   */\n              tag_180\n                /* \"#utility.yul\":6351:6358   */\n              dup7\n                /* \"#utility.yul\":6342:6348   */\n              dup3\n                /* \"#utility.yul\":6331:6340   */\n              dup8\n                /* \"#utility.yul\":6327:6349   */\n              add\n                /* \"#utility.yul\":6306:6359   */\n              tag_75\n              jump\t// in\n            tag_180:\n                /* \"#utility.yul\":6296:6359   */\n              swap4\n              pop\n                /* \"#utility.yul\":6252:6369   */\n              pop\n                /* \"#utility.yul\":6436:6438   */\n              0x20\n                /* \"#utility.yul\":6425:6434   */\n              dup5\n                /* \"#utility.yul\":6421:6439   */\n              add\n                /* \"#utility.yul\":6408:6440   */\n              calldataload\n                /* \"#utility.yul\":6467:6485   */\n              0xffffffffffffffff\n                /* \"#utility.yul\":6459:6465   */\n              dup2\n                /* \"#utility.yul\":6456:6486   */\n              gt\n                /* \"#utility.yul\":6453:6570   */\n              iszero\n              tag_181\n              jumpi\n                /* \"#utility.yul\":6489:6568   */\n              tag_182\n              tag_71\n              jump\t// in\n            tag_182:\n                /* \"#utility.yul\":6453:6570   */\n            tag_181:\n                /* \"#utility.yul\":6602:6666   */\n              tag_183\n                /* \"#utility.yul\":6658:6665   */\n              dup7\n                /* \"#utility.yul\":6649:6655   */\n              dup3\n                /* \"#utility.yul\":6638:6647   */\n              dup8\n                /* \"#utility.yul\":6634:6656   */\n              add\n                /* \"#utility.yul\":6602:6666   */\n              tag_93\n              jump\t// in\n            tag_183:\n                /* \"#utility.yul\":6584:6666   */\n              swap3\n              pop\n              swap3\n              pop\n                /* \"#utility.yul\":6379:6676   */\n              pop\n                /* \"#utility.yul\":6011:6683   */\n              swap3\n              pop\n              swap3\n              pop\n              swap3\n              jump\t// out\n                /* \"#utility.yul\":6689:6803   */\n            tag_94:\n                /* \"#utility.yul\":6756:6762   */\n              0x00\n                /* \"#utility.yul\":6790:6795   */\n              dup2\n                /* \"#utility.yul\":6784:6796   */\n              mload\n                /* \"#utility.yul\":6774:6796   */\n              swap1\n              pop\n                /* \"#utility.yul\":6689:6803   */\n              swap2\n              swap1\n              pop\n              jump\t// out\n                /* \"#utility.yul\":6809:6993   */\n            tag_95:\n                /* \"#utility.yul\":6908:6919   */\n              0x00\n                /* \"#utility.yul\":6942:6948   */\n              dup3\n                /* \"#utility.yul\":6937:6940   */\n              dup3\n                /* \"#utility.yul\":6930:6949   */\n              mstore\n                /* \"#utility.yul\":6982:6986   */\n              0x20\n                /* \"#utility.yul\":6977:6980   */\n              dup3\n                /* \"#utility.yul\":6973:6987   */\n              add\n                /* \"#utility.yul\":6958:6987   */\n              swap1\n              pop\n                /* \"#utility.yul\":6809:6993   */\n              swap3\n              swap2\n              pop\n              pop\n              jump\t// out\n                /* \"#utility.yul\":6999:7131   */\n            tag_96:\n                /* \"#utility.yul\":7066:7070   */\n              0x00\n                /* \"#utility.yul\":7089:7092   */\n              dup2\n                /* \"#utility.yul\":7081:7092   */\n              swap1\n              pop\n                /* \"#utility.yul\":7119:7123   */\n              0x20\n                /* \"#utility.yul\":7114:7117   */\n              dup3\n                /* \"#utility.yul\":7110:7124   */\n              add\n                /* \"#utility.yul\":7102:7124   */\n              swap1\n              pop\n                /* \"#utility.yul\":6999:7131   */\n              swap2\n              swap1\n              pop\n              jump\t// out\n                /* \"#utility.yul\":7137:7245   */\n            tag_97:\n                /* \"#utility.yul\":7214:7238   */\n              tag_188\n                /* \"#utility.yul\":7232:7237   */\n              dup2\n                /* \"#utility.yul\":7214:7238   */\n              tag_76\n              jump\t// in\n            tag_188:\n                /* \"#utility.yul\":7209:7212   */\n              dup3\n                /* \"#utility.yul\":7202:7239   */\n              mstore\n                /* \"#utility.yul\":7137:7245   */\n              pop\n              pop\n              jump\t// out\n                /* \"#utility.yul\":7251:7430   */\n            tag_98:\n                /* \"#utility.yul\":7320:7330   */\n              0x00\n                /* \"#utility.yul\":7341:7387   */\n              tag_190\n                /* \"#utility.yul\":7383:7386   */\n              dup4\n                /* \"#utility.yul\":7375:7381   */\n              dup4\n                /* \"#utility.yul\":7341:7387   */\n              tag_97\n              jump\t// in\n            tag_190:\n                /* \"#utility.yul\":7419:7423   */\n              0x20\n                /* \"#utility.yul\":7414:7417   */\n              dup4\n                /* \"#utility.yul\":7410:7424   */\n              add\n                /* \"#utility.yul\":7396:7424   */\n              swap1\n              pop\n                /* \"#utility.yul\":7251:7430   */\n              swap3\n              swap2\n              pop\n              pop\n              jump\t// out\n                /* \"#utility.yul\":7436:7549   */\n            tag_99:\n                /* \"#utility.yul\":7506:7510   */\n              0x00\n                /* \"#utility.yul\":7538:7542   */\n              0x20\n                /* \"#utility.yul\":7533:7536   */\n              dup3\n                /* \"#utility.yul\":7529:7543   */\n              add\n                /* \"#utility.yul\":7521:7543   */\n              swap1\n              pop\n                /* \"#utility.yul\":7436:7549   */\n              swap2\n              swap1\n              pop\n              jump\t// out\n                /* \"#utility.yul\":7585:8317   */\n            tag_100:\n                /* \"#utility.yul\":7704:7707   */\n              0x00\n                /* \"#utility.yul\":7733:7787   */\n              tag_193\n                /* \"#utility.yul\":7781:7786   */\n              dup3\n                /* \"#utility.yul\":7733:7787   */\n              tag_94\n              jump\t// in\n            tag_193:\n                /* \"#utility.yul\":7803:7889   */\n              tag_194\n                /* \"#utility.yul\":7882:7888   */\n              dup2\n                /* \"#utility.yul\":7877:7880   */\n              dup6\n                /* \"#utility.yul\":7803:7889   */\n              tag_95\n              jump\t// in\n            tag_194:\n                /* \"#utility.yul\":7796:7889   */\n              swap4\n              pop\n                /* \"#utility.yul\":7913:7969   */\n              tag_195\n                /* \"#utility.yul\":7963:7968   */\n              dup4\n                /* \"#utility.yul\":7913:7969   */\n              tag_96\n              jump\t// in\n            tag_195:\n                /* \"#utility.yul\":7992:7999   */\n              dup1\n                /* \"#utility.yul\":8023:8024   */\n              0x00\n                /* \"#utility.yul\":8008:8292   */\n            tag_196:\n                /* \"#utility.yul\":8033:8039   */\n              dup4\n                /* \"#utility.yul\":8030:8031   */\n              dup2\n                /* \"#utility.yul\":8027:8040   */\n              lt\n                /* \"#utility.yul\":8008:8292   */\n              iszero\n              tag_198\n              jumpi\n                /* \"#utility.yul\":8109:8115   */\n              dup2\n                /* \"#utility.yul\":8103:8116   */\n              mload\n                /* \"#utility.yul\":8136:8199   */\n              tag_199\n                /* \"#utility.yul\":8195:8198   */\n              dup9\n                /* \"#utility.yul\":8180:8193   */\n              dup3\n                /* \"#utility.yul\":8136:8199   */\n              tag_98\n              jump\t// in\n            tag_199:\n                /* \"#utility.yul\":8129:8199   */\n              swap8\n              pop\n                /* \"#utility.yul\":8222:8282   */\n              tag_200\n                /* \"#utility.yul\":8275:8281   */\n              dup4\n                /* \"#utility.yul\":8222:8282   */\n              tag_99\n              jump\t// in\n            tag_200:\n                /* \"#utility.yul\":8212:8282   */\n              swap3\n              pop\n                /* \"#utility.yul\":8068:8292   */\n              pop\n                /* \"#utility.yul\":8055:8056   */\n              0x01\n                /* \"#utility.yul\":8052:8053   */\n              dup2\n                /* \"#utility.yul\":8048:8057   */\n              add\n                /* \"#utility.yul\":8043:8057   */\n              swap1\n              pop\n                /* \"#utility.yul\":8008:8292   */\n              jump(tag_196)\n            tag_198:\n                /* \"#utility.yul\":8012:8026   */\n              pop\n                /* \"#utility.yul\":8308:8311   */\n              dup6\n                /* \"#utility.yul\":8301:8311   */\n              swap4\n              pop\n                /* \"#utility.yul\":7709:8317   */\n              pop\n              pop\n              pop\n                /* \"#utility.yul\":7585:8317   */\n              swap3\n              swap2\n              pop\n              pop\n              jump\t// out\n                /* \"#utility.yul\":8323:8696   */\n            tag_28:\n                /* \"#utility.yul\":8466:8470   */\n              0x00\n                /* \"#utility.yul\":8504:8506   */\n              0x20\n                /* \"#utility.yul\":8493:8502   */\n              dup3\n                /* \"#utility.yul\":8489:8507   */\n              add\n                /* \"#utility.yul\":8481:8507   */\n              swap1\n              pop\n                /* \"#utility.yul\":8553:8562   */\n              dup2\n                /* \"#utility.yul\":8547:8551   */\n              dup2\n                /* \"#utility.yul\":8543:8563   */\n              sub\n                /* \"#utility.yul\":8539:8540   */\n              0x00\n                /* \"#utility.yul\":8528:8537   */\n              dup4\n                /* \"#utility.yul\":8524:8541   */\n              add\n                /* \"#utility.yul\":8517:8564   */\n              mstore\n                /* \"#utility.yul\":8581:8689   */\n              tag_202\n                /* \"#utility.yul\":8684:8688   */\n              dup2\n                /* \"#utility.yul\":8675:8681   */\n              dup5\n                /* \"#utility.yul\":8581:8689   */\n              tag_100\n              jump\t// in\n            tag_202:\n                /* \"#utility.yul\":8573:8689   */\n              swap1\n              pop\n                /* \"#utility.yul\":8323:8696   */\n              swap3\n              swap2\n              pop\n              pop\n              jump\t// out\n                /* \"#utility.yul\":8702:8820   */\n            tag_101:\n                /* \"#utility.yul\":8789:8813   */\n              tag_204\n                /* \"#utility.yul\":8807:8812   */\n              dup2\n                /* \"#utility.yul\":8789:8813   */\n              tag_73\n              jump\t// in\n            tag_204:\n                /* \"#utility.yul\":8784:8787   */\n              dup3\n                /* \"#utility.yul\":8777:8814   */\n              mstore\n                /* \"#utility.yul\":8702:8820   */\n              pop\n              pop\n              jump\t// out\n                /* \"#utility.yul\":8826:9048   */\n            tag_33:\n                /* \"#utility.yul\":8919:8923   */\n              0x00\n                /* \"#utility.yul\":8957:8959   */\n              0x20\n                /* \"#utility.yul\":8946:8955   */\n              dup3\n                /* \"#utility.yul\":8942:8960   */\n              add\n                /* \"#utility.yul\":8934:8960   */\n              swap1\n              pop\n                /* \"#utility.yul\":8970:9041   */\n              tag_206\n                /* \"#utility.yul\":9038:9039   */\n              0x00\n                /* \"#utility.yul\":9027:9036   */\n              dup4\n                /* \"#utility.yul\":9023:9040   */\n              add\n                /* \"#utility.yul\":9014:9020   */\n              dup5\n                /* \"#utility.yul\":8970:9041   */\n              tag_101\n              jump\t// in\n            tag_206:\n                /* \"#utility.yul\":8826:9048   */\n              swap3\n              swap2\n              pop\n              pop\n              jump\t// out\n                /* \"#utility.yul\":9054:9234   */\n            tag_44:\n                /* \"#utility.yul\":9102:9179   */\n              0x4e487b7100000000000000000000000000000000000000000000000000000000\n                /* \"#utility.yul\":9099:9100   */\n              0x00\n                /* \"#utility.yul\":9092:9180   */\n              mstore\n                /* \"#utility.yul\":9199:9203   */\n              0x32\n                /* \"#utility.yul\":9196:9197   */\n              0x04\n                /* \"#utility.yul\":9189:9204   */\n              mstore\n                /* \"#utility.yul\":9223:9227   */\n              0x24\n                /* \"#utility.yul\":9220:9221   */\n              0x00\n                /* \"#utility.yul\":9213:9228   */\n              revert\n                /* \"#utility.yul\":9240:9358   */\n            tag_102:\n                /* \"#utility.yul\":9327:9351   */\n              tag_209\n                /* \"#utility.yul\":9345:9350   */\n              dup2\n                /* \"#utility.yul\":9327:9351   */\n              tag_76\n              jump\t// in\n            tag_209:\n                /* \"#utility.yul\":9322:9325   */\n              dup3\n                /* \"#utility.yul\":9315:9352   */\n              mstore\n                /* \"#utility.yul\":9240:9358   */\n              pop\n              pop\n              jump\t// out\n                /* \"#utility.yul\":9364:9806   */\n            tag_46:\n                /* \"#utility.yul\":9513:9517   */\n              0x00\n                /* \"#utility.yul\":9551:9553   */\n              0x60\n                /* \"#utility.yul\":9540:9549   */\n              dup3\n                /* \"#utility.yul\":9536:9554   */\n              add\n                /* \"#utility.yul\":9528:9554   */\n              swap1\n              pop\n                /* \"#utility.yul\":9564:9635   */\n              tag_211\n                /* \"#utility.yul\":9632:9633   */\n              0x00\n                /* \"#utility.yul\":9621:9630   */\n              dup4\n                /* \"#utility.yul\":9617:9634   */\n              add\n                /* \"#utility.yul\":9608:9614   */\n              dup7\n                /* \"#utility.yul\":9564:9635   */\n              tag_101\n              jump\t// in\n            tag_211:\n                /* \"#utility.yul\":9645:9717   */\n              tag_212\n                /* \"#utility.yul\":9713:9715   */\n              0x20\n                /* \"#utility.yul\":9702:9711   */\n              dup4\n                /* \"#utility.yul\":9698:9716   */\n              add\n                /* \"#utility.yul\":9689:9695   */\n              dup6\n                /* \"#utility.yul\":9645:9717   */\n              tag_101\n              jump\t// in\n            tag_212:\n                /* \"#utility.yul\":9727:9799   */\n              tag_213\n                /* \"#utility.yul\":9795:9797   */\n              0x40\n                /* \"#utility.yul\":9784:9793   */\n              dup4\n                /* \"#utility.yul\":9780:9798   */\n              add\n                /* \"#utility.yul\":9771:9777   */\n              dup5\n                /* \"#utility.yul\":9727:9799   */\n              tag_102\n              jump\t// in\n            tag_213:\n                /* \"#utility.yul\":9364:9806   */\n              swap5\n              swap4\n              pop\n              pop\n              pop\n              pop\n              jump\t// out\n                /* \"#utility.yul\":9812:9992   */\n            tag_103:\n                /* \"#utility.yul\":9860:9937   */\n              0x4e487b7100000000000000000000000000000000000000000000000000000000\n                /* \"#utility.yul\":9857:9858   */\n              0x00\n                /* \"#utility.yul\":9850:9938   */\n              mstore\n                /* \"#utility.yul\":9957:9961   */\n              0x11\n                /* \"#utility.yul\":9954:9955   */\n              0x04\n                /* \"#utility.yul\":9947:9962   */\n              mstore\n                /* \"#utility.yul\":9981:9985   */\n              0x24\n                /* \"#utility.yul\":9978:9979   */\n              0x00\n                /* \"#utility.yul\":9971:9986   */\n              revert\n                /* \"#utility.yul\":9998:10231   */\n            tag_51:\n                /* \"#utility.yul\":10037:10040   */\n              0x00\n                /* \"#utility.yul\":10060:10084   */\n              tag_216\n                /* \"#utility.yul\":10078:10083   */\n              dup3\n                /* \"#utility.yul\":10060:10084   */\n              tag_76\n              jump\t// in\n            tag_216:\n                /* \"#utility.yul\":10051:10084   */\n              swap2\n              pop\n                /* \"#utility.yul\":10106:10172   */\n              0xffffffffffffffffffffffffffffffffffffffffffffffffffffffffffffffff\n                /* \"#utility.yul\":10099:10104   */\n              dup3\n                /* \"#utility.yul\":10096:10173   */\n              sub\n                /* \"#utility.yul\":10093:10196   */\n              tag_217\n              jumpi\n                /* \"#utility.yul\":10176:10194   */\n              tag_218\n              tag_103\n              jump\t// in\n            tag_218:\n                /* \"#utility.yul\":10093:10196   */\n            tag_217:\n                /* \"#utility.yul\":10223:10224   */\n              0x01\n                /* \"#utility.yul\":10216:10221   */\n              dup3\n                /* \"#utility.yul\":10212:10225   */\n              add\n                /* \"#utility.yul\":10205:10225   */\n              swap1\n              pop\n                /* \"#utility.yul\":9998:10231   */\n              swap2\n              swap1\n              pop\n              jump\t// out\n                /* \"#utility.yul\":10237:10384   */\n            tag_104:\n                /* \"#utility.yul\":10338:10349   */\n              0x00\n                /* \"#utility.yul\":10375:10378   */\n              dup2\n                /* \"#utility.yul\":10360:10378   */\n              swap1\n              pop\n                /* \"#utility.yul\":10237:10384   */\n              swap3\n              swap2\n              pop\n              pop\n              jump\t// out\n                /* \"#utility.yul\":10412:10739   */\n            tag_105:\n                /* \"#utility.yul\":10526:10529   */\n              0x00\n                /* \"#utility.yul\":10547:10635   */\n              tag_221\n                /* \"#utility.yul\":10628:10634   */\n              dup4\n                /* \"#utility.yul\":10623:10626   */\n              dup6\n                /* \"#utility.yul\":10547:10635   */\n              tag_104\n              jump\t// in\n            tag_221:\n                /* \"#utility.yul\":10540:10635   */\n              swap4\n              pop\n                /* \"#utility.yul\":10645:10701   */\n              tag_222\n                /* \"#utility.yul\":10694:10700   */\n              dup4\n                /* \"#utility.yul\":10689:10692   */\n              dup6\n                /* \"#utility.yul\":10682:10687   */\n              dup5\n                /* \"#utility.yul\":10645:10701   */\n              tag_86\n              jump\t// in\n            tag_222:\n                /* \"#utility.yul\":10726:10732   */\n              dup3\n                /* \"#utility.yul\":10721:10724   */\n              dup5\n                /* \"#utility.yul\":10717:10733   */\n              add\n                /* \"#utility.yul\":10710:10733   */\n              swap1\n              pop\n                /* \"#utility.yul\":10412:10739   */\n              swap4\n              swap3\n              pop\n              pop\n              pop\n              jump\t// out\n                /* \"#utility.yul\":10745:11036   */\n            tag_56:\n                /* \"#utility.yul\":10885:10888   */\n              0x00\n                /* \"#utility.yul\":10907:11010   */\n              tag_224\n                /* \"#utility.yul\":11006:11009   */\n              dup3\n                /* \"#utility.yul\":10997:11003   */\n              dup5\n                /* \"#utility.yul\":10989:10995   */\n              dup7\n                /* \"#utility.yul\":10907:11010   */\n              tag_105\n              jump\t// in\n            tag_224:\n                /* \"#utility.yul\":10900:11010   */\n              swap2\n              pop\n                /* \"#utility.yul\":11027:11030   */\n              dup2\n                /* \"#utility.yul\":11020:11030   */\n              swap1\n              pop\n                /* \"#utility.yul\":10745:11036   */\n              swap4\n              swap3\n              pop\n              pop\n              pop\n              jump\t// out\n\n            auxdata: 0xa2646970667358221220c40e34de582c4d85447f19610e29cfa80d88be13376135d33e7dec9e6f0f2c4764736f6c63430008110033\n        }\n    }\n\n    auxdata: 0xa26469706673582212209c63174e67ff263a845e205679198afc73162d58829d633c9355da16822fae0464736f6c63430008110033\n}\n",
				"bytecode": {
					"linkReferences": {},
					"object": "608060405260006002553480156200001657600080fd5b5060405162001c9038038062001c9083398181016040528101906200003c9190620000ed565b806000806101000a81548173ffffffffffffffffffffffffffffffffffffffff021916908373ffffffffffffffffffffffffffffffffffffffff160217905550506200011f565b600080fd5b600073ffffffffffffffffffffffffffffffffffffffff82169050919050565b6000620000b58262000088565b9050919050565b620000c781620000a8565b8114620000d357600080fd5b50565b600081519050620000e781620000bc565b92915050565b60006020828403121562000106576200010562000083565b5b60006200011684828501620000d6565b91505092915050565b611b61806200012f6000396000f3fe608060405260043610620000865760003560e01c8063a5e387511162000055578063a5e38751146200016f578063c6046f77146200019d578063f4bbc56814620001cb578063f851a44014620001eb5762000086565b8063150b7a02146200008b5780634e702ab314620000cf5780638623ec7b14620000fd57806394d008ef1462000141575b600080fd5b3480156200009857600080fd5b50620000b76004803603810190620000b19190620009d5565b6200021b565b604051620000c6919062000aa3565b60405180910390f35b348015620000dc57600080fd5b50620000fb6004803603810190620000f5919062000ac0565b62000236565b005b3480156200010a57600080fd5b5062000129600480360381019062000123919062000b07565b6200030d565b60405162000138919062000b4a565b60405180910390f35b3480156200014e57600080fd5b506200016d600480360381019062000167919062000bd0565b6200034d565b005b3480156200017c57600080fd5b506200019b600480360381019062000195919062000b07565b620003f5565b005b348015620001aa57600080fd5b50620001c96004803603810190620001c3919062000bd0565b620004c8565b005b620001e96004803603810190620001e3919062000bd0565b62000605565b005b348015620001f857600080fd5b5062000203620006f6565b60405162000212919062000b4a565b60405180910390f35b60008260038190555063150b7a0260e01b9050949350505050565b60005b8181101562000308576001818154811062000259576200025862000c50565b5b9060005260206000200160009054906101000a900473ffffffffffffffffffffffffffffffffffffffff1673ffffffffffffffffffffffffffffffffffffffff16631a695230846040518263ffffffff1660e01b8152600401620002be919062000b4a565b600060405180830381600087803b158015620002d957600080fd5b505af1158015620002ee573d6000803e3d6000fd5b505050508080620002ff9062000cae565b91505062000239565b505050565b600181815481106200031e57600080fd5b906000526020600020016000915054906101000a900473ffffffffffffffffffffffffffffffffffffffff1681565b60005b83811015620003ee5760008573ffffffffffffffffffffffffffffffffffffffff1684846040516200038492919062000d2f565b6000604051808303816000865af19150503d8060008114620003c3576040519150601f19603f3d011682016040523d82523d6000602084013e620003c8565b606091505b5050905080620003d757600080fd5b508080620003e59062000cae565b91505062000350565b5050505050565b6000620004016200071a565b905060005b82811015620004c35760008060025490508084516020860134f59150813b6200042e57600080fd5b6001829080600181540180825580915050600190039060005260206000200160009091909190916101000a81548173ffffffffffffffffffffffffffffffffffffffff021916908373ffffffffffffffffffffffffffffffffffffffff16021790555060026000815480929190620004a69062000cae565b919050555050508080620004ba9062000cae565b91505062000406565b505050565b60005b83811015620005fe5760008573ffffffffffffffffffffffffffffffffffffffff168484604051620004ff92919062000d2f565b6000604051808303816000865af19150503d80600081146200053e576040519150601f19603f3d011682016040523d82523d6000602084013e62000543565b606091505b50509050806200055257600080fd5b8573ffffffffffffffffffffffffffffffffffffffff166323b872dd3060008054906101000a900473ffffffffffffffffffffffffffffffffffffffff166003546040518463ffffffff1660e01b8152600401620005b39392919062000d5b565b600060405180830381600087803b158015620005ce57600080fd5b505af1158015620005e3573d6000803e3d6000fd5b50505050508080620005f59062000cae565b915050620004cb565b5050505050565b6000833462000615919062000dc7565b905060005b84811015620006ee57600181815481106200063a576200063962000c50565b5b9060005260206000200160009054906101000a900473ffffffffffffffffffffffffffffffffffffffff1673ffffffffffffffffffffffffffffffffffffffff1663b510391f838887876040518563ffffffff1660e01b8152600401620006a49392919062000e43565b6000604051808303818588803b158015620006be57600080fd5b505af1158015620006d3573d6000803e3d6000fd5b50505050508080620006e59062000cae565b9150506200061a565b505050505050565b60008054906101000a900473ffffffffffffffffffffffffffffffffffffffff1681565b60606000604051806020016200073090620007b1565b6020820181038252601f19601f8201166040525090508060008054906101000a900473ffffffffffffffffffffffffffffffffffffffff166040516020016200077a919062000b4a565b6040516020818303038152906040526040516020016200079c92919062000ee7565b60405160208183030381529060405291505090565b610c1c8062000f1083390190565b6000604051905090565b600080fd5b600080fd5b600073ffffffffffffffffffffffffffffffffffffffff82169050919050565b60006200080082620007d3565b9050919050565b6200081281620007f3565b81146200081e57600080fd5b50565b600081359050620008328162000807565b92915050565b6000819050919050565b6200084d8162000838565b81146200085957600080fd5b50565b6000813590506200086d8162000842565b92915050565b600080fd5b600080fd5b6000601f19601f8301169050919050565b7f4e487b7100000000000000000000000000000000000000000000000000000000600052604160045260246000fd5b620008c8826200087d565b810181811067ffffffffffffffff82111715620008ea57620008e96200088e565b5b80604052505050565b6000620008ff620007bf565b90506200090d8282620008bd565b919050565b600067ffffffffffffffff82111562000930576200092f6200088e565b5b6200093b826200087d565b9050602081019050919050565b82818337600083830152505050565b60006200096e620009688462000912565b620008f3565b9050828152602081018484840111156200098d576200098c62000878565b5b6200099a84828562000948565b509392505050565b600082601f830112620009ba57620009b962000873565b5b8135620009cc84826020860162000957565b91505092915050565b60008060008060808587031215620009f257620009f1620007c9565b5b600062000a028782880162000821565b945050602062000a158782880162000821565b935050604062000a28878288016200085c565b925050606085013567ffffffffffffffff81111562000a4c5762000a4b620007ce565b5b62000a5a87828801620009a2565b91505092959194509250565b60007fffffffff0000000000000000000000000000000000000000000000000000000082169050919050565b62000a9d8162000a66565b82525050565b600060208201905062000aba600083018462000a92565b92915050565b6000806040838503121562000ada5762000ad9620007c9565b5b600062000aea8582860162000821565b925050602062000afd858286016200085c565b9150509250929050565b60006020828403121562000b205762000b1f620007c9565b5b600062000b30848285016200085c565b91505092915050565b62000b4481620007f3565b82525050565b600060208201905062000b61600083018462000b39565b92915050565b600080fd5b600080fd5b60008083601f84011262000b8a5762000b8962000873565b5b8235905067ffffffffffffffff81111562000baa5762000ba962000b67565b5b60208301915083600182028301111562000bc95762000bc862000b6c565b5b9250929050565b6000806000806060858703121562000bed5762000bec620007c9565b5b600062000bfd8782880162000821565b945050602062000c10878288016200085c565b935050604085013567ffffffffffffffff81111562000c345762000c33620007ce565b5b62000c428782880162000b71565b925092505092959194509250565b7f4e487b7100000000000000000000000000000000000000000000000000000000600052603260045260246000fd5b7f4e487b7100000000000000000000000000000000000000000000000000000000600052601160045260246000fd5b600062000cbb8262000838565b91507fffffffffffffffffffffffffffffffffffffffffffffffffffffffffffffffff820362000cf05762000cef62000c7f565b5b600182019050919050565b600081905092915050565b600062000d14838562000cfb565b935062000d2383858462000948565b82840190509392505050565b600062000d3e82848662000d06565b91508190509392505050565b62000d558162000838565b82525050565b600060608201905062000d72600083018662000b39565b62000d81602083018562000b39565b62000d90604083018462000d4a565b949350505050565b7f4e487b7100000000000000000000000000000000000000000000000000000000600052601260045260246000fd5b600062000dd48262000838565b915062000de18362000838565b92508262000df45762000df362000d98565b5b828204905092915050565b600082825260208201905092915050565b600062000e1e838562000dff565b935062000e2d83858462000948565b62000e38836200087d565b840190509392505050565b600060408201905062000e5a600083018662000b39565b818103602083015262000e6f81848662000e10565b9050949350505050565b600081519050919050565b60005b8381101562000ea457808201518184015260208101905062000e87565b60008484015250505050565b600062000ebd8262000e79565b62000ec9818562000cfb565b935062000edb81856020860162000e84565b80840191505092915050565b600062000ef5828562000eb0565b915062000f03828462000eb0565b9150819050939250505056fe608060405234801561001057600080fd5b50604051610c1c380380610c1c833981810160405281019061003291906100db565b806000806101000a81548173ffffffffffffffffffffffffffffffffffffffff021916908373ffffffffffffffffffffffffffffffffffffffff16021790555050610108565b600080fd5b600073ffffffffffffffffffffffffffffffffffffffff82169050919050565b60006100a88261007d565b9050919050565b6100b88161009d565b81146100c357600080fd5b50565b6000815190506100d5816100af565b92915050565b6000602082840312156100f1576100f0610078565b5b60006100ff848285016100c6565b91505092915050565b610b05806101176000396000f3fe60806040526004361061004a5760003560e01c8063150b7a021461004f5780631a6952301461008c578063b510391f146100b5578063c57a1166146100d1578063f851a4401461010e575b600080fd5b34801561005b57600080fd5b50610076600480360381019061007191906106ca565b610139565b6040516100839190610788565b60405180910390f35b34801561009857600080fd5b506100b360048036038101906100ae91906107a3565b6101b3565b005b6100cf60048036038101906100ca9190610830565b610363565b005b3480156100dd57600080fd5b506100f860048036038101906100f391906107a3565b6103e3565b604051610105919061094e565b60405180910390f35b34801561011a57600080fd5b5061012361047a565b604051610130919061097f565b60405180910390f35b6000600160003373ffffffffffffffffffffffffffffffffffffffff1673ffffffffffffffffffffffffffffffffffffffff16815260200190815260200160002083908060018154018082558091505060019003906000526020600020016000909190919091505563150b7a0260e01b9050949350505050565b6000600160008373ffffffffffffffffffffffffffffffffffffffff1673ffffffffffffffffffffffffffffffffffffffff16815260200190815260200160002080548060200260200160405190810160405280929190818152602001828054801561023e57602002820191906000526020600020905b81548152602001906001019080831161022a575b5050505050905060008151905060005b81811015610312578373ffffffffffffffffffffffffffffffffffffffff166323b872dd3060008054906101000a900473ffffffffffffffffffffffffffffffffffffffff168685815181106102a7576102a661099a565b5b60200260200101516040518463ffffffff1660e01b81526004016102cd939291906109d8565b600060405180830381600087803b1580156102e757600080fd5b505af11580156102fb573d6000803e3d6000fd5b50505050808061030a90610a3e565b91505061024e565b50600160008473ffffffffffffffffffffffffffffffffffffffff1673ffffffffffffffffffffffffffffffffffffffff168152602001908152602001600020600061035e919061049e565b505050565b60008373ffffffffffffffffffffffffffffffffffffffff1634848460405161038d929190610ab6565b60006040518083038185875af1925050503d80600081146103ca576040519150601f19603f3d011682016040523d82523d6000602084013e6103cf565b606091505b50509050806103dd57600080fd5b50505050565b6060600160008373ffffffffffffffffffffffffffffffffffffffff1673ffffffffffffffffffffffffffffffffffffffff16815260200190815260200160002080548060200260200160405190810160405280929190818152602001828054801561046e57602002820191906000526020600020905b81548152602001906001019080831161045a575b50505050509050919050565b60008054906101000a900473ffffffffffffffffffffffffffffffffffffffff1681565b50805460008255906000526020600020908101906104bc91906104bf565b50565b5b808211156104d85760008160009055506001016104c0565b5090565b6000604051905090565b600080fd5b600080fd5b600073ffffffffffffffffffffffffffffffffffffffff82169050919050565b600061051b826104f0565b9050919050565b61052b81610510565b811461053657600080fd5b50565b60008135905061054881610522565b92915050565b6000819050919050565b6105618161054e565b811461056c57600080fd5b50565b60008135905061057e81610558565b92915050565b600080fd5b600080fd5b6000601f19601f8301169050919050565b7f4e487b7100000000000000000000000000000000000000000000000000000000600052604160045260246000fd5b6105d78261058e565b810181811067ffffffffffffffff821117156105f6576105f561059f565b5b80604052505050565b60006106096104dc565b905061061582826105ce565b919050565b600067ffffffffffffffff8211156106355761063461059f565b5b61063e8261058e565b9050602081019050919050565b82818337600083830152505050565b600061066d6106688461061a565b6105ff565b90508281526020810184848401111561068957610688610589565b5b61069484828561064b565b509392505050565b600082601f8301126106b1576106b0610584565b5b81356106c184826020860161065a565b91505092915050565b600080600080608085870312156106e4576106e36104e6565b5b60006106f287828801610539565b945050602061070387828801610539565b93505060406107148782880161056f565b925050606085013567ffffffffffffffff811115610735576107346104eb565b5b6107418782880161069c565b91505092959194509250565b60007fffffffff0000000000000000000000000000000000000000000000000000000082169050919050565b6107828161074d565b82525050565b600060208201905061079d6000830184610779565b92915050565b6000602082840312156107b9576107b86104e6565b5b60006107c784828501610539565b91505092915050565b600080fd5b600080fd5b60008083601f8401126107f0576107ef610584565b5b8235905067ffffffffffffffff81111561080d5761080c6107d0565b5b602083019150836001820283011115610829576108286107d5565b5b9250929050565b600080600060408486031215610849576108486104e6565b5b600061085786828701610539565b935050602084013567ffffffffffffffff811115610878576108776104eb565b5b610884868287016107da565b92509250509250925092565b600081519050919050565b600082825260208201905092915050565b6000819050602082019050919050565b6108c58161054e565b82525050565b60006108d783836108bc565b60208301905092915050565b6000602082019050919050565b60006108fb82610890565b610905818561089b565b9350610910836108ac565b8060005b8381101561094157815161092888826108cb565b9750610933836108e3565b925050600181019050610914565b5085935050505092915050565b6000602082019050818103600083015261096881846108f0565b905092915050565b61097981610510565b82525050565b60006020820190506109946000830184610970565b92915050565b7f4e487b7100000000000000000000000000000000000000000000000000000000600052603260045260246000fd5b6109d28161054e565b82525050565b60006060820190506109ed6000830186610970565b6109fa6020830185610970565b610a0760408301846109c9565b949350505050565b7f4e487b7100000000000000000000000000000000000000000000000000000000600052601160045260246000fd5b6000610a498261054e565b91507fffffffffffffffffffffffffffffffffffffffffffffffffffffffffffffffff8203610a7b57610a7a610a0f565b5b600182019050919050565b600081905092915050565b6000610a9d8385610a86565b9350610aaa83858461064b565b82840190509392505050565b6000610ac3828486610a91565b9150819050939250505056fea2646970667358221220c40e34de582c4d85447f19610e29cfa80d88be13376135d33e7dec9e6f0f2c4764736f6c63430008110033a26469706673582212209c63174e67ff263a845e205679198afc73162d58829d633c9355da16822fae0464736f6c63430008110033",
					"opcodes": "PUSH1 0x80 PUSH1 0x40 MSTORE PUSH1 0x0 PUSH1 0x2 SSTORE CALLVALUE DUP1 ISZERO PUSH3 0x16 JUMPI PUSH1 0x0 DUP1 REVERT JUMPDEST POP PUSH1 0x40 MLOAD PUSH3 0x1C90 CODESIZE SUB DUP1 PUSH3 0x1C90 DUP4 CODECOPY DUP2 DUP2 ADD PUSH1 0x40 MSTORE DUP2 ADD SWAP1 PUSH3 0x3C SWAP2 SWAP1 PUSH3 0xED JUMP JUMPDEST DUP1 PUSH1 0x0 DUP1 PUSH2 0x100 EXP DUP2 SLOAD DUP2 PUSH20 0xFFFFFFFFFFFFFFFFFFFFFFFFFFFFFFFFFFFFFFFF MUL NOT AND SWAP1 DUP4 PUSH20 0xFFFFFFFFFFFFFFFFFFFFFFFFFFFFFFFFFFFFFFFF AND MUL OR SWAP1 SSTORE POP POP PUSH3 0x11F JUMP JUMPDEST PUSH1 0x0 DUP1 REVERT JUMPDEST PUSH1 0x0 PUSH20 0xFFFFFFFFFFFFFFFFFFFFFFFFFFFFFFFFFFFFFFFF DUP3 AND SWAP1 POP SWAP2 SWAP1 POP JUMP JUMPDEST PUSH1 0x0 PUSH3 0xB5 DUP3 PUSH3 0x88 JUMP JUMPDEST SWAP1 POP SWAP2 SWAP1 POP JUMP JUMPDEST PUSH3 0xC7 DUP2 PUSH3 0xA8 JUMP JUMPDEST DUP2 EQ PUSH3 0xD3 JUMPI PUSH1 0x0 DUP1 REVERT JUMPDEST POP JUMP JUMPDEST PUSH1 0x0 DUP2 MLOAD SWAP1 POP PUSH3 0xE7 DUP2 PUSH3 0xBC JUMP JUMPDEST SWAP3 SWAP2 POP POP JUMP JUMPDEST PUSH1 0x0 PUSH1 0x20 DUP3 DUP5 SUB SLT ISZERO PUSH3 0x106 JUMPI PUSH3 0x105 PUSH3 0x83 JUMP JUMPDEST JUMPDEST PUSH1 0x0 PUSH3 0x116 DUP5 DUP3 DUP6 ADD PUSH3 0xD6 JUMP JUMPDEST SWAP2 POP POP SWAP3 SWAP2 POP POP JUMP JUMPDEST PUSH2 0x1B61 DUP1 PUSH3 0x12F PUSH1 0x0 CODECOPY PUSH1 0x0 RETURN INVALID PUSH1 0x80 PUSH1 0x40 MSTORE PUSH1 0x4 CALLDATASIZE LT PUSH3 0x86 JUMPI PUSH1 0x0 CALLDATALOAD PUSH1 0xE0 SHR DUP1 PUSH4 0xA5E38751 GT PUSH3 0x55 JUMPI DUP1 PUSH4 0xA5E38751 EQ PUSH3 0x16F JUMPI DUP1 PUSH4 0xC6046F77 EQ PUSH3 0x19D JUMPI DUP1 PUSH4 0xF4BBC568 EQ PUSH3 0x1CB JUMPI DUP1 PUSH4 0xF851A440 EQ PUSH3 0x1EB JUMPI PUSH3 0x86 JUMP JUMPDEST DUP1 PUSH4 0x150B7A02 EQ PUSH3 0x8B JUMPI DUP1 PUSH4 0x4E702AB3 EQ PUSH3 0xCF JUMPI DUP1 PUSH4 0x8623EC7B EQ PUSH3 0xFD JUMPI DUP1 PUSH4 0x94D008EF EQ PUSH3 0x141 JUMPI JUMPDEST PUSH1 0x0 DUP1 REVERT JUMPDEST CALLVALUE DUP1 ISZERO PUSH3 0x98 JUMPI PUSH1 0x0 DUP1 REVERT JUMPDEST POP PUSH3 0xB7 PUSH1 0x4 DUP1 CALLDATASIZE SUB DUP2 ADD SWAP1 PUSH3 0xB1 SWAP2 SWAP1 PUSH3 0x9D5 JUMP JUMPDEST PUSH3 0x21B JUMP JUMPDEST PUSH1 0x40 MLOAD PUSH3 0xC6 SWAP2 SWAP1 PUSH3 0xAA3 JUMP JUMPDEST PUSH1 0x40 MLOAD DUP1 SWAP2 SUB SWAP1 RETURN JUMPDEST CALLVALUE DUP1 ISZERO PUSH3 0xDC JUMPI PUSH1 0x0 DUP1 REVERT JUMPDEST POP PUSH3 0xFB PUSH1 0x4 DUP1 CALLDATASIZE SUB DUP2 ADD SWAP1 PUSH3 0xF5 SWAP2 SWAP1 PUSH3 0xAC0 JUMP JUMPDEST PUSH3 0x236 JUMP JUMPDEST STOP JUMPDEST CALLVALUE DUP1 ISZERO PUSH3 0x10A JUMPI PUSH1 0x0 DUP1 REVERT JUMPDEST POP PUSH3 0x129 PUSH1 0x4 DUP1 CALLDATASIZE SUB DUP2 ADD SWAP1 PUSH3 0x123 SWAP2 SWAP1 PUSH3 0xB07 JUMP JUMPDEST PUSH3 0x30D JUMP JUMPDEST PUSH1 0x40 MLOAD PUSH3 0x138 SWAP2 SWAP1 PUSH3 0xB4A JUMP JUMPDEST PUSH1 0x40 MLOAD DUP1 SWAP2 SUB SWAP1 RETURN JUMPDEST CALLVALUE DUP1 ISZERO PUSH3 0x14E JUMPI PUSH1 0x0 DUP1 REVERT JUMPDEST POP PUSH3 0x16D PUSH1 0x4 DUP1 CALLDATASIZE SUB DUP2 ADD SWAP1 PUSH3 0x167 SWAP2 SWAP1 PUSH3 0xBD0 JUMP JUMPDEST PUSH3 0x34D JUMP JUMPDEST STOP JUMPDEST CALLVALUE DUP1 ISZERO PUSH3 0x17C JUMPI PUSH1 0x0 DUP1 REVERT JUMPDEST POP PUSH3 0x19B PUSH1 0x4 DUP1 CALLDATASIZE SUB DUP2 ADD SWAP1 PUSH3 0x195 SWAP2 SWAP1 PUSH3 0xB07 JUMP JUMPDEST PUSH3 0x3F5 JUMP JUMPDEST STOP JUMPDEST CALLVALUE DUP1 ISZERO PUSH3 0x1AA JUMPI PUSH1 0x0 DUP1 REVERT JUMPDEST POP PUSH3 0x1C9 PUSH1 0x4 DUP1 CALLDATASIZE SUB DUP2 ADD SWAP1 PUSH3 0x1C3 SWAP2 SWAP1 PUSH3 0xBD0 JUMP JUMPDEST PUSH3 0x4C8 JUMP JUMPDEST STOP JUMPDEST PUSH3 0x1E9 PUSH1 0x4 DUP1 CALLDATASIZE SUB DUP2 ADD SWAP1 PUSH3 0x1E3 SWAP2 SWAP1 PUSH3 0xBD0 JUMP JUMPDEST PUSH3 0x605 JUMP JUMPDEST STOP JUMPDEST CALLVALUE DUP1 ISZERO PUSH3 0x1F8 JUMPI PUSH1 0x0 DUP1 REVERT JUMPDEST POP PUSH3 0x203 PUSH3 0x6F6 JUMP JUMPDEST PUSH1 0x40 MLOAD PUSH3 0x212 SWAP2 SWAP1 PUSH3 0xB4A JUMP JUMPDEST PUSH1 0x40 MLOAD DUP1 SWAP2 SUB SWAP1 RETURN JUMPDEST PUSH1 0x0 DUP3 PUSH1 0x3 DUP2 SWAP1 SSTORE POP PUSH4 0x150B7A02 PUSH1 0xE0 SHL SWAP1 POP SWAP5 SWAP4 POP POP POP POP JUMP JUMPDEST PUSH1 0x0 JUMPDEST DUP2 DUP2 LT ISZERO PUSH3 0x308 JUMPI PUSH1 0x1 DUP2 DUP2 SLOAD DUP2 LT PUSH3 0x259 JUMPI PUSH3 0x258 PUSH3 0xC50 JUMP JUMPDEST JUMPDEST SWAP1 PUSH1 0x0 MSTORE PUSH1 0x20 PUSH1 0x0 KECCAK256 ADD PUSH1 0x0 SWAP1 SLOAD SWAP1 PUSH2 0x100 EXP SWAP1 DIV PUSH20 0xFFFFFFFFFFFFFFFFFFFFFFFFFFFFFFFFFFFFFFFF AND PUSH20 0xFFFFFFFFFFFFFFFFFFFFFFFFFFFFFFFFFFFFFFFF AND PUSH4 0x1A695230 DUP5 PUSH1 0x40 MLOAD DUP3 PUSH4 0xFFFFFFFF AND PUSH1 0xE0 SHL DUP2 MSTORE PUSH1 0x4 ADD PUSH3 0x2BE SWAP2 SWAP1 PUSH3 0xB4A JUMP JUMPDEST PUSH1 0x0 PUSH1 0x40 MLOAD DUP1 DUP4 SUB DUP2 PUSH1 0x0 DUP8 DUP1 EXTCODESIZE ISZERO DUP1 ISZERO PUSH3 0x2D9 JUMPI PUSH1 0x0 DUP1 REVERT JUMPDEST POP GAS CALL ISZERO DUP1 ISZERO PUSH3 0x2EE JUMPI RETURNDATASIZE PUSH1 0x0 DUP1 RETURNDATACOPY RETURNDATASIZE PUSH1 0x0 REVERT JUMPDEST POP POP POP POP DUP1 DUP1 PUSH3 0x2FF SWAP1 PUSH3 0xCAE JUMP JUMPDEST SWAP2 POP POP PUSH3 0x239 JUMP JUMPDEST POP POP POP JUMP JUMPDEST PUSH1 0x1 DUP2 DUP2 SLOAD DUP2 LT PUSH3 0x31E JUMPI PUSH1 0x0 DUP1 REVERT JUMPDEST SWAP1 PUSH1 0x0 MSTORE PUSH1 0x20 PUSH1 0x0 KECCAK256 ADD PUSH1 0x0 SWAP2 POP SLOAD SWAP1 PUSH2 0x100 EXP SWAP1 DIV PUSH20 0xFFFFFFFFFFFFFFFFFFFFFFFFFFFFFFFFFFFFFFFF AND DUP2 JUMP JUMPDEST PUSH1 0x0 JUMPDEST DUP4 DUP2 LT ISZERO PUSH3 0x3EE JUMPI PUSH1 0x0 DUP6 PUSH20 0xFFFFFFFFFFFFFFFFFFFFFFFFFFFFFFFFFFFFFFFF AND DUP5 DUP5 PUSH1 0x40 MLOAD PUSH3 0x384 SWAP3 SWAP2 SWAP1 PUSH3 0xD2F JUMP JUMPDEST PUSH1 0x0 PUSH1 0x40 MLOAD DUP1 DUP4 SUB DUP2 PUSH1 0x0 DUP7 GAS CALL SWAP2 POP POP RETURNDATASIZE DUP1 PUSH1 0x0 DUP2 EQ PUSH3 0x3C3 JUMPI PUSH1 0x40 MLOAD SWAP2 POP PUSH1 0x1F NOT PUSH1 0x3F RETURNDATASIZE ADD AND DUP3 ADD PUSH1 0x40 MSTORE RETURNDATASIZE DUP3 MSTORE RETURNDATASIZE PUSH1 0x0 PUSH1 0x20 DUP5 ADD RETURNDATACOPY PUSH3 0x3C8 JUMP JUMPDEST PUSH1 0x60 SWAP2 POP JUMPDEST POP POP SWAP1 POP DUP1 PUSH3 0x3D7 JUMPI PUSH1 0x0 DUP1 REVERT JUMPDEST POP DUP1 DUP1 PUSH3 0x3E5 SWAP1 PUSH3 0xCAE JUMP JUMPDEST SWAP2 POP POP PUSH3 0x350 JUMP JUMPDEST POP POP POP POP POP JUMP JUMPDEST PUSH1 0x0 PUSH3 0x401 PUSH3 0x71A JUMP JUMPDEST SWAP1 POP PUSH1 0x0 JUMPDEST DUP3 DUP2 LT ISZERO PUSH3 0x4C3 JUMPI PUSH1 0x0 DUP1 PUSH1 0x2 SLOAD SWAP1 POP DUP1 DUP5 MLOAD PUSH1 0x20 DUP7 ADD CALLVALUE CREATE2 SWAP2 POP DUP2 EXTCODESIZE PUSH3 0x42E JUMPI PUSH1 0x0 DUP1 REVERT JUMPDEST PUSH1 0x1 DUP3 SWAP1 DUP1 PUSH1 0x1 DUP2 SLOAD ADD DUP1 DUP3 SSTORE DUP1 SWAP2 POP POP PUSH1 0x1 SWAP1 SUB SWAP1 PUSH1 0x0 MSTORE PUSH1 0x20 PUSH1 0x0 KECCAK256 ADD PUSH1 0x0 SWAP1 SWAP2 SWAP1 SWAP2 SWAP1 SWAP2 PUSH2 0x100 EXP DUP2 SLOAD DUP2 PUSH20 0xFFFFFFFFFFFFFFFFFFFFFFFFFFFFFFFFFFFFFFFF MUL NOT AND SWAP1 DUP4 PUSH20 0xFFFFFFFFFFFFFFFFFFFFFFFFFFFFFFFFFFFFFFFF AND MUL OR SWAP1 SSTORE POP PUSH1 0x2 PUSH1 0x0 DUP2 SLOAD DUP1 SWAP3 SWAP2 SWAP1 PUSH3 0x4A6 SWAP1 PUSH3 0xCAE JUMP JUMPDEST SWAP2 SWAP1 POP SSTORE POP POP POP DUP1 DUP1 PUSH3 0x4BA SWAP1 PUSH3 0xCAE JUMP JUMPDEST SWAP2 POP POP PUSH3 0x406 JUMP JUMPDEST POP POP POP JUMP JUMPDEST PUSH1 0x0 JUMPDEST DUP4 DUP2 LT ISZERO PUSH3 0x5FE JUMPI PUSH1 0x0 DUP6 PUSH20 0xFFFFFFFFFFFFFFFFFFFFFFFFFFFFFFFFFFFFFFFF AND DUP5 DUP5 PUSH1 0x40 MLOAD PUSH3 0x4FF SWAP3 SWAP2 SWAP1 PUSH3 0xD2F JUMP JUMPDEST PUSH1 0x0 PUSH1 0x40 MLOAD DUP1 DUP4 SUB DUP2 PUSH1 0x0 DUP7 GAS CALL SWAP2 POP POP RETURNDATASIZE DUP1 PUSH1 0x0 DUP2 EQ PUSH3 0x53E JUMPI PUSH1 0x40 MLOAD SWAP2 POP PUSH1 0x1F NOT PUSH1 0x3F RETURNDATASIZE ADD AND DUP3 ADD PUSH1 0x40 MSTORE RETURNDATASIZE DUP3 MSTORE RETURNDATASIZE PUSH1 0x0 PUSH1 0x20 DUP5 ADD RETURNDATACOPY PUSH3 0x543 JUMP JUMPDEST PUSH1 0x60 SWAP2 POP JUMPDEST POP POP SWAP1 POP DUP1 PUSH3 0x552 JUMPI PUSH1 0x0 DUP1 REVERT JUMPDEST DUP6 PUSH20 0xFFFFFFFFFFFFFFFFFFFFFFFFFFFFFFFFFFFFFFFF AND PUSH4 0x23B872DD ADDRESS PUSH1 0x0 DUP1 SLOAD SWAP1 PUSH2 0x100 EXP SWAP1 DIV PUSH20 0xFFFFFFFFFFFFFFFFFFFFFFFFFFFFFFFFFFFFFFFF AND PUSH1 0x3 SLOAD PUSH1 0x40 MLOAD DUP5 PUSH4 0xFFFFFFFF AND PUSH1 0xE0 SHL DUP2 MSTORE PUSH1 0x4 ADD PUSH3 0x5B3 SWAP4 SWAP3 SWAP2 SWAP1 PUSH3 0xD5B JUMP JUMPDEST PUSH1 0x0 PUSH1 0x40 MLOAD DUP1 DUP4 SUB DUP2 PUSH1 0x0 DUP8 DUP1 EXTCODESIZE ISZERO DUP1 ISZERO PUSH3 0x5CE JUMPI PUSH1 0x0 DUP1 REVERT JUMPDEST POP GAS CALL ISZERO DUP1 ISZERO PUSH3 0x5E3 JUMPI RETURNDATASIZE PUSH1 0x0 DUP1 RETURNDATACOPY RETURNDATASIZE PUSH1 0x0 REVERT JUMPDEST POP POP POP POP POP DUP1 DUP1 PUSH3 0x5F5 SWAP1 PUSH3 0xCAE JUMP JUMPDEST SWAP2 POP POP PUSH3 0x4CB JUMP JUMPDEST POP POP POP POP POP JUMP JUMPDEST PUSH1 0x0 DUP4 CALLVALUE PUSH3 0x615 SWAP2 SWAP1 PUSH3 0xDC7 JUMP JUMPDEST SWAP1 POP PUSH1 0x0 JUMPDEST DUP5 DUP2 LT ISZERO PUSH3 0x6EE JUMPI PUSH1 0x1 DUP2 DUP2 SLOAD DUP2 LT PUSH3 0x63A JUMPI PUSH3 0x639 PUSH3 0xC50 JUMP JUMPDEST JUMPDEST SWAP1 PUSH1 0x0 MSTORE PUSH1 0x20 PUSH1 0x0 KECCAK256 ADD PUSH1 0x0 SWAP1 SLOAD SWAP1 PUSH2 0x100 EXP SWAP1 DIV PUSH20 0xFFFFFFFFFFFFFFFFFFFFFFFFFFFFFFFFFFFFFFFF AND PUSH20 0xFFFFFFFFFFFFFFFFFFFFFFFFFFFFFFFFFFFFFFFF AND PUSH4 0xB510391F DUP4 DUP9 DUP8 DUP8 PUSH1 0x40 MLOAD DUP6 PUSH4 0xFFFFFFFF AND PUSH1 0xE0 SHL DUP2 MSTORE PUSH1 0x4 ADD PUSH3 0x6A4 SWAP4 SWAP3 SWAP2 SWAP1 PUSH3 0xE43 JUMP JUMPDEST PUSH1 0x0 PUSH1 0x40 MLOAD DUP1 DUP4 SUB DUP2 DUP6 DUP9 DUP1 EXTCODESIZE ISZERO DUP1 ISZERO PUSH3 0x6BE JUMPI PUSH1 0x0 DUP1 REVERT JUMPDEST POP GAS CALL ISZERO DUP1 ISZERO PUSH3 0x6D3 JUMPI RETURNDATASIZE PUSH1 0x0 DUP1 RETURNDATACOPY RETURNDATASIZE PUSH1 0x0 REVERT JUMPDEST POP POP POP POP POP DUP1 DUP1 PUSH3 0x6E5 SWAP1 PUSH3 0xCAE JUMP JUMPDEST SWAP2 POP POP PUSH3 0x61A JUMP JUMPDEST POP POP POP POP POP POP JUMP JUMPDEST PUSH1 0x0 DUP1 SLOAD SWAP1 PUSH2 0x100 EXP SWAP1 DIV PUSH20 0xFFFFFFFFFFFFFFFFFFFFFFFFFFFFFFFFFFFFFFFF AND DUP2 JUMP JUMPDEST PUSH1 0x60 PUSH1 0x0 PUSH1 0x40 MLOAD DUP1 PUSH1 0x20 ADD PUSH3 0x730 SWAP1 PUSH3 0x7B1 JUMP JUMPDEST PUSH1 0x20 DUP3 ADD DUP2 SUB DUP3 MSTORE PUSH1 0x1F NOT PUSH1 0x1F DUP3 ADD AND PUSH1 0x40 MSTORE POP SWAP1 POP DUP1 PUSH1 0x0 DUP1 SLOAD SWAP1 PUSH2 0x100 EXP SWAP1 DIV PUSH20 0xFFFFFFFFFFFFFFFFFFFFFFFFFFFFFFFFFFFFFFFF AND PUSH1 0x40 MLOAD PUSH1 0x20 ADD PUSH3 0x77A SWAP2 SWAP1 PUSH3 0xB4A JUMP JUMPDEST PUSH1 0x40 MLOAD PUSH1 0x20 DUP2 DUP4 SUB SUB DUP2 MSTORE SWAP1 PUSH1 0x40 MSTORE PUSH1 0x40 MLOAD PUSH1 0x20 ADD PUSH3 0x79C SWAP3 SWAP2 SWAP1 PUSH3 0xEE7 JUMP JUMPDEST PUSH1 0x40 MLOAD PUSH1 0x20 DUP2 DUP4 SUB SUB DUP2 MSTORE SWAP1 PUSH1 0x40 MSTORE SWAP2 POP POP SWAP1 JUMP JUMPDEST PUSH2 0xC1C DUP1 PUSH3 0xF10 DUP4 CODECOPY ADD SWAP1 JUMP JUMPDEST PUSH1 0x0 PUSH1 0x40 MLOAD SWAP1 POP SWAP1 JUMP JUMPDEST PUSH1 0x0 DUP1 REVERT JUMPDEST PUSH1 0x0 DUP1 REVERT JUMPDEST PUSH1 0x0 PUSH20 0xFFFFFFFFFFFFFFFFFFFFFFFFFFFFFFFFFFFFFFFF DUP3 AND SWAP1 POP SWAP2 SWAP1 POP JUMP JUMPDEST PUSH1 0x0 PUSH3 0x800 DUP3 PUSH3 0x7D3 JUMP JUMPDEST SWAP1 POP SWAP2 SWAP1 POP JUMP JUMPDEST PUSH3 0x812 DUP2 PUSH3 0x7F3 JUMP JUMPDEST DUP2 EQ PUSH3 0x81E JUMPI PUSH1 0x0 DUP1 REVERT JUMPDEST POP JUMP JUMPDEST PUSH1 0x0 DUP2 CALLDATALOAD SWAP1 POP PUSH3 0x832 DUP2 PUSH3 0x807 JUMP JUMPDEST SWAP3 SWAP2 POP POP JUMP JUMPDEST PUSH1 0x0 DUP2 SWAP1 POP SWAP2 SWAP1 POP JUMP JUMPDEST PUSH3 0x84D DUP2 PUSH3 0x838 JUMP JUMPDEST DUP2 EQ PUSH3 0x859 JUMPI PUSH1 0x0 DUP1 REVERT JUMPDEST POP JUMP JUMPDEST PUSH1 0x0 DUP2 CALLDATALOAD SWAP1 POP PUSH3 0x86D DUP2 PUSH3 0x842 JUMP JUMPDEST SWAP3 SWAP2 POP POP JUMP JUMPDEST PUSH1 0x0 DUP1 REVERT JUMPDEST PUSH1 0x0 DUP1 REVERT JUMPDEST PUSH1 0x0 PUSH1 0x1F NOT PUSH1 0x1F DUP4 ADD AND SWAP1 POP SWAP2 SWAP1 POP JUMP JUMPDEST PUSH32 0x4E487B7100000000000000000000000000000000000000000000000000000000 PUSH1 0x0 MSTORE PUSH1 0x41 PUSH1 0x4 MSTORE PUSH1 0x24 PUSH1 0x0 REVERT JUMPDEST PUSH3 0x8C8 DUP3 PUSH3 0x87D JUMP JUMPDEST DUP2 ADD DUP2 DUP2 LT PUSH8 0xFFFFFFFFFFFFFFFF DUP3 GT OR ISZERO PUSH3 0x8EA JUMPI PUSH3 0x8E9 PUSH3 0x88E JUMP JUMPDEST JUMPDEST DUP1 PUSH1 0x40 MSTORE POP POP POP JUMP JUMPDEST PUSH1 0x0 PUSH3 0x8FF PUSH3 0x7BF JUMP JUMPDEST SWAP1 POP PUSH3 0x90D DUP3 DUP3 PUSH3 0x8BD JUMP JUMPDEST SWAP2 SWAP1 POP JUMP JUMPDEST PUSH1 0x0 PUSH8 0xFFFFFFFFFFFFFFFF DUP3 GT ISZERO PUSH3 0x930 JUMPI PUSH3 0x92F PUSH3 0x88E JUMP JUMPDEST JUMPDEST PUSH3 0x93B DUP3 PUSH3 0x87D JUMP JUMPDEST SWAP1 POP PUSH1 0x20 DUP2 ADD SWAP1 POP SWAP2 SWAP1 POP JUMP JUMPDEST DUP3 DUP2 DUP4 CALLDATACOPY PUSH1 0x0 DUP4 DUP4 ADD MSTORE POP POP POP JUMP JUMPDEST PUSH1 0x0 PUSH3 0x96E PUSH3 0x968 DUP5 PUSH3 0x912 JUMP JUMPDEST PUSH3 0x8F3 JUMP JUMPDEST SWAP1 POP DUP3 DUP2 MSTORE PUSH1 0x20 DUP2 ADD DUP5 DUP5 DUP5 ADD GT ISZERO PUSH3 0x98D JUMPI PUSH3 0x98C PUSH3 0x878 JUMP JUMPDEST JUMPDEST PUSH3 0x99A DUP5 DUP3 DUP6 PUSH3 0x948 JUMP JUMPDEST POP SWAP4 SWAP3 POP POP POP JUMP JUMPDEST PUSH1 0x0 DUP3 PUSH1 0x1F DUP4 ADD SLT PUSH3 0x9BA JUMPI PUSH3 0x9B9 PUSH3 0x873 JUMP JUMPDEST JUMPDEST DUP2 CALLDATALOAD PUSH3 0x9CC DUP5 DUP3 PUSH1 0x20 DUP7 ADD PUSH3 0x957 JUMP JUMPDEST SWAP2 POP POP SWAP3 SWAP2 POP POP JUMP JUMPDEST PUSH1 0x0 DUP1 PUSH1 0x0 DUP1 PUSH1 0x80 DUP6 DUP8 SUB SLT ISZERO PUSH3 0x9F2 JUMPI PUSH3 0x9F1 PUSH3 0x7C9 JUMP JUMPDEST JUMPDEST PUSH1 0x0 PUSH3 0xA02 DUP8 DUP3 DUP9 ADD PUSH3 0x821 JUMP JUMPDEST SWAP5 POP POP PUSH1 0x20 PUSH3 0xA15 DUP8 DUP3 DUP9 ADD PUSH3 0x821 JUMP JUMPDEST SWAP4 POP POP PUSH1 0x40 PUSH3 0xA28 DUP8 DUP3 DUP9 ADD PUSH3 0x85C JUMP JUMPDEST SWAP3 POP POP PUSH1 0x60 DUP6 ADD CALLDATALOAD PUSH8 0xFFFFFFFFFFFFFFFF DUP2 GT ISZERO PUSH3 0xA4C JUMPI PUSH3 0xA4B PUSH3 0x7CE JUMP JUMPDEST JUMPDEST PUSH3 0xA5A DUP8 DUP3 DUP9 ADD PUSH3 0x9A2 JUMP JUMPDEST SWAP2 POP POP SWAP3 SWAP6 SWAP2 SWAP5 POP SWAP3 POP JUMP JUMPDEST PUSH1 0x0 PUSH32 0xFFFFFFFF00000000000000000000000000000000000000000000000000000000 DUP3 AND SWAP1 POP SWAP2 SWAP1 POP JUMP JUMPDEST PUSH3 0xA9D DUP2 PUSH3 0xA66 JUMP JUMPDEST DUP3 MSTORE POP POP JUMP JUMPDEST PUSH1 0x0 PUSH1 0x20 DUP3 ADD SWAP1 POP PUSH3 0xABA PUSH1 0x0 DUP4 ADD DUP5 PUSH3 0xA92 JUMP JUMPDEST SWAP3 SWAP2 POP POP JUMP JUMPDEST PUSH1 0x0 DUP1 PUSH1 0x40 DUP4 DUP6 SUB SLT ISZERO PUSH3 0xADA JUMPI PUSH3 0xAD9 PUSH3 0x7C9 JUMP JUMPDEST JUMPDEST PUSH1 0x0 PUSH3 0xAEA DUP6 DUP3 DUP7 ADD PUSH3 0x821 JUMP JUMPDEST SWAP3 POP POP PUSH1 0x20 PUSH3 0xAFD DUP6 DUP3 DUP7 ADD PUSH3 0x85C JUMP JUMPDEST SWAP2 POP POP SWAP3 POP SWAP3 SWAP1 POP JUMP JUMPDEST PUSH1 0x0 PUSH1 0x20 DUP3 DUP5 SUB SLT ISZERO PUSH3 0xB20 JUMPI PUSH3 0xB1F PUSH3 0x7C9 JUMP JUMPDEST JUMPDEST PUSH1 0x0 PUSH3 0xB30 DUP5 DUP3 DUP6 ADD PUSH3 0x85C JUMP JUMPDEST SWAP2 POP POP SWAP3 SWAP2 POP POP JUMP JUMPDEST PUSH3 0xB44 DUP2 PUSH3 0x7F3 JUMP JUMPDEST DUP3 MSTORE POP POP JUMP JUMPDEST PUSH1 0x0 PUSH1 0x20 DUP3 ADD SWAP1 POP PUSH3 0xB61 PUSH1 0x0 DUP4 ADD DUP5 PUSH3 0xB39 JUMP JUMPDEST SWAP3 SWAP2 POP POP JUMP JUMPDEST PUSH1 0x0 DUP1 REVERT JUMPDEST PUSH1 0x0 DUP1 REVERT JUMPDEST PUSH1 0x0 DUP1 DUP4 PUSH1 0x1F DUP5 ADD SLT PUSH3 0xB8A JUMPI PUSH3 0xB89 PUSH3 0x873 JUMP JUMPDEST JUMPDEST DUP3 CALLDATALOAD SWAP1 POP PUSH8 0xFFFFFFFFFFFFFFFF DUP2 GT ISZERO PUSH3 0xBAA JUMPI PUSH3 0xBA9 PUSH3 0xB67 JUMP JUMPDEST JUMPDEST PUSH1 0x20 DUP4 ADD SWAP2 POP DUP4 PUSH1 0x1 DUP3 MUL DUP4 ADD GT ISZERO PUSH3 0xBC9 JUMPI PUSH3 0xBC8 PUSH3 0xB6C JUMP JUMPDEST JUMPDEST SWAP3 POP SWAP3 SWAP1 POP JUMP JUMPDEST PUSH1 0x0 DUP1 PUSH1 0x0 DUP1 PUSH1 0x60 DUP6 DUP8 SUB SLT ISZERO PUSH3 0xBED JUMPI PUSH3 0xBEC PUSH3 0x7C9 JUMP JUMPDEST JUMPDEST PUSH1 0x0 PUSH3 0xBFD DUP8 DUP3 DUP9 ADD PUSH3 0x821 JUMP JUMPDEST SWAP5 POP POP PUSH1 0x20 PUSH3 0xC10 DUP8 DUP3 DUP9 ADD PUSH3 0x85C JUMP JUMPDEST SWAP4 POP POP PUSH1 0x40 DUP6 ADD CALLDATALOAD PUSH8 0xFFFFFFFFFFFFFFFF DUP2 GT ISZERO PUSH3 0xC34 JUMPI PUSH3 0xC33 PUSH3 0x7CE JUMP JUMPDEST JUMPDEST PUSH3 0xC42 DUP8 DUP3 DUP9 ADD PUSH3 0xB71 JUMP JUMPDEST SWAP3 POP SWAP3 POP POP SWAP3 SWAP6 SWAP2 SWAP5 POP SWAP3 POP JUMP JUMPDEST PUSH32 0x4E487B7100000000000000000000000000000000000000000000000000000000 PUSH1 0x0 MSTORE PUSH1 0x32 PUSH1 0x4 MSTORE PUSH1 0x24 PUSH1 0x0 REVERT JUMPDEST PUSH32 0x4E487B7100000000000000000000000000000000000000000000000000000000 PUSH1 0x0 MSTORE PUSH1 0x11 PUSH1 0x4 MSTORE PUSH1 0x24 PUSH1 0x0 REVERT JUMPDEST PUSH1 0x0 PUSH3 0xCBB DUP3 PUSH3 0x838 JUMP JUMPDEST SWAP2 POP PUSH32 0xFFFFFFFFFFFFFFFFFFFFFFFFFFFFFFFFFFFFFFFFFFFFFFFFFFFFFFFFFFFFFFFF DUP3 SUB PUSH3 0xCF0 JUMPI PUSH3 0xCEF PUSH3 0xC7F JUMP JUMPDEST JUMPDEST PUSH1 0x1 DUP3 ADD SWAP1 POP SWAP2 SWAP1 POP JUMP JUMPDEST PUSH1 0x0 DUP2 SWAP1 POP SWAP3 SWAP2 POP POP JUMP JUMPDEST PUSH1 0x0 PUSH3 0xD14 DUP4 DUP6 PUSH3 0xCFB JUMP JUMPDEST SWAP4 POP PUSH3 0xD23 DUP4 DUP6 DUP5 PUSH3 0x948 JUMP JUMPDEST DUP3 DUP5 ADD SWAP1 POP SWAP4 SWAP3 POP POP POP JUMP JUMPDEST PUSH1 0x0 PUSH3 0xD3E DUP3 DUP5 DUP7 PUSH3 0xD06 JUMP JUMPDEST SWAP2 POP DUP2 SWAP1 POP SWAP4 SWAP3 POP POP POP JUMP JUMPDEST PUSH3 0xD55 DUP2 PUSH3 0x838 JUMP JUMPDEST DUP3 MSTORE POP POP JUMP JUMPDEST PUSH1 0x0 PUSH1 0x60 DUP3 ADD SWAP1 POP PUSH3 0xD72 PUSH1 0x0 DUP4 ADD DUP7 PUSH3 0xB39 JUMP JUMPDEST PUSH3 0xD81 PUSH1 0x20 DUP4 ADD DUP6 PUSH3 0xB39 JUMP JUMPDEST PUSH3 0xD90 PUSH1 0x40 DUP4 ADD DUP5 PUSH3 0xD4A JUMP JUMPDEST SWAP5 SWAP4 POP POP POP POP JUMP JUMPDEST PUSH32 0x4E487B7100000000000000000000000000000000000000000000000000000000 PUSH1 0x0 MSTORE PUSH1 0x12 PUSH1 0x4 MSTORE PUSH1 0x24 PUSH1 0x0 REVERT JUMPDEST PUSH1 0x0 PUSH3 0xDD4 DUP3 PUSH3 0x838 JUMP JUMPDEST SWAP2 POP PUSH3 0xDE1 DUP4 PUSH3 0x838 JUMP JUMPDEST SWAP3 POP DUP3 PUSH3 0xDF4 JUMPI PUSH3 0xDF3 PUSH3 0xD98 JUMP JUMPDEST JUMPDEST DUP3 DUP3 DIV SWAP1 POP SWAP3 SWAP2 POP POP JUMP JUMPDEST PUSH1 0x0 DUP3 DUP3 MSTORE PUSH1 0x20 DUP3 ADD SWAP1 POP SWAP3 SWAP2 POP POP JUMP JUMPDEST PUSH1 0x0 PUSH3 0xE1E DUP4 DUP6 PUSH3 0xDFF JUMP JUMPDEST SWAP4 POP PUSH3 0xE2D DUP4 DUP6 DUP5 PUSH3 0x948 JUMP JUMPDEST PUSH3 0xE38 DUP4 PUSH3 0x87D JUMP JUMPDEST DUP5 ADD SWAP1 POP SWAP4 SWAP3 POP POP POP JUMP JUMPDEST PUSH1 0x0 PUSH1 0x40 DUP3 ADD SWAP1 POP PUSH3 0xE5A PUSH1 0x0 DUP4 ADD DUP7 PUSH3 0xB39 JUMP JUMPDEST DUP2 DUP2 SUB PUSH1 0x20 DUP4 ADD MSTORE PUSH3 0xE6F DUP2 DUP5 DUP7 PUSH3 0xE10 JUMP JUMPDEST SWAP1 POP SWAP5 SWAP4 POP POP POP POP JUMP JUMPDEST PUSH1 0x0 DUP2 MLOAD SWAP1 POP SWAP2 SWAP1 POP JUMP JUMPDEST PUSH1 0x0 JUMPDEST DUP4 DUP2 LT ISZERO PUSH3 0xEA4 JUMPI DUP1 DUP3 ADD MLOAD DUP2 DUP5 ADD MSTORE PUSH1 0x20 DUP2 ADD SWAP1 POP PUSH3 0xE87 JUMP JUMPDEST PUSH1 0x0 DUP5 DUP5 ADD MSTORE POP POP POP POP JUMP JUMPDEST PUSH1 0x0 PUSH3 0xEBD DUP3 PUSH3 0xE79 JUMP JUMPDEST PUSH3 0xEC9 DUP2 DUP6 PUSH3 0xCFB JUMP JUMPDEST SWAP4 POP PUSH3 0xEDB DUP2 DUP6 PUSH1 0x20 DUP7 ADD PUSH3 0xE84 JUMP JUMPDEST DUP1 DUP5 ADD SWAP2 POP POP SWAP3 SWAP2 POP POP JUMP JUMPDEST PUSH1 0x0 PUSH3 0xEF5 DUP3 DUP6 PUSH3 0xEB0 JUMP JUMPDEST SWAP2 POP PUSH3 0xF03 DUP3 DUP5 PUSH3 0xEB0 JUMP JUMPDEST SWAP2 POP DUP2 SWAP1 POP SWAP4 SWAP3 POP POP POP JUMP INVALID PUSH1 0x80 PUSH1 0x40 MSTORE CALLVALUE DUP1 ISZERO PUSH2 0x10 JUMPI PUSH1 0x0 DUP1 REVERT JUMPDEST POP PUSH1 0x40 MLOAD PUSH2 0xC1C CODESIZE SUB DUP1 PUSH2 0xC1C DUP4 CODECOPY DUP2 DUP2 ADD PUSH1 0x40 MSTORE DUP2 ADD SWAP1 PUSH2 0x32 SWAP2 SWAP1 PUSH2 0xDB JUMP JUMPDEST DUP1 PUSH1 0x0 DUP1 PUSH2 0x100 EXP DUP2 SLOAD DUP2 PUSH20 0xFFFFFFFFFFFFFFFFFFFFFFFFFFFFFFFFFFFFFFFF MUL NOT AND SWAP1 DUP4 PUSH20 0xFFFFFFFFFFFFFFFFFFFFFFFFFFFFFFFFFFFFFFFF AND MUL OR SWAP1 SSTORE POP POP PUSH2 0x108 JUMP JUMPDEST PUSH1 0x0 DUP1 REVERT JUMPDEST PUSH1 0x0 PUSH20 0xFFFFFFFFFFFFFFFFFFFFFFFFFFFFFFFFFFFFFFFF DUP3 AND SWAP1 POP SWAP2 SWAP1 POP JUMP JUMPDEST PUSH1 0x0 PUSH2 0xA8 DUP3 PUSH2 0x7D JUMP JUMPDEST SWAP1 POP SWAP2 SWAP1 POP JUMP JUMPDEST PUSH2 0xB8 DUP2 PUSH2 0x9D JUMP JUMPDEST DUP2 EQ PUSH2 0xC3 JUMPI PUSH1 0x0 DUP1 REVERT JUMPDEST POP JUMP JUMPDEST PUSH1 0x0 DUP2 MLOAD SWAP1 POP PUSH2 0xD5 DUP2 PUSH2 0xAF JUMP JUMPDEST SWAP3 SWAP2 POP POP JUMP JUMPDEST PUSH1 0x0 PUSH1 0x20 DUP3 DUP5 SUB SLT ISZERO PUSH2 0xF1 JUMPI PUSH2 0xF0 PUSH2 0x78 JUMP JUMPDEST JUMPDEST PUSH1 0x0 PUSH2 0xFF DUP5 DUP3 DUP6 ADD PUSH2 0xC6 JUMP JUMPDEST SWAP2 POP POP SWAP3 SWAP2 POP POP JUMP JUMPDEST PUSH2 0xB05 DUP1 PUSH2 0x117 PUSH1 0x0 CODECOPY PUSH1 0x0 RETURN INVALID PUSH1 0x80 PUSH1 0x40 MSTORE PUSH1 0x4 CALLDATASIZE LT PUSH2 0x4A JUMPI PUSH1 0x0 CALLDATALOAD PUSH1 0xE0 SHR DUP1 PUSH4 0x150B7A02 EQ PUSH2 0x4F JUMPI DUP1 PUSH4 0x1A695230 EQ PUSH2 0x8C JUMPI DUP1 PUSH4 0xB510391F EQ PUSH2 0xB5 JUMPI DUP1 PUSH4 0xC57A1166 EQ PUSH2 0xD1 JUMPI DUP1 PUSH4 0xF851A440 EQ PUSH2 0x10E JUMPI JUMPDEST PUSH1 0x0 DUP1 REVERT JUMPDEST CALLVALUE DUP1 ISZERO PUSH2 0x5B JUMPI PUSH1 0x0 DUP1 REVERT JUMPDEST POP PUSH2 0x76 PUSH1 0x4 DUP1 CALLDATASIZE SUB DUP2 ADD SWAP1 PUSH2 0x71 SWAP2 SWAP1 PUSH2 0x6CA JUMP JUMPDEST PUSH2 0x139 JUMP JUMPDEST PUSH1 0x40 MLOAD PUSH2 0x83 SWAP2 SWAP1 PUSH2 0x788 JUMP JUMPDEST PUSH1 0x40 MLOAD DUP1 SWAP2 SUB SWAP1 RETURN JUMPDEST CALLVALUE DUP1 ISZERO PUSH2 0x98 JUMPI PUSH1 0x0 DUP1 REVERT JUMPDEST POP PUSH2 0xB3 PUSH1 0x4 DUP1 CALLDATASIZE SUB DUP2 ADD SWAP1 PUSH2 0xAE SWAP2 SWAP1 PUSH2 0x7A3 JUMP JUMPDEST PUSH2 0x1B3 JUMP JUMPDEST STOP JUMPDEST PUSH2 0xCF PUSH1 0x4 DUP1 CALLDATASIZE SUB DUP2 ADD SWAP1 PUSH2 0xCA SWAP2 SWAP1 PUSH2 0x830 JUMP JUMPDEST PUSH2 0x363 JUMP JUMPDEST STOP JUMPDEST CALLVALUE DUP1 ISZERO PUSH2 0xDD JUMPI PUSH1 0x0 DUP1 REVERT JUMPDEST POP PUSH2 0xF8 PUSH1 0x4 DUP1 CALLDATASIZE SUB DUP2 ADD SWAP1 PUSH2 0xF3 SWAP2 SWAP1 PUSH2 0x7A3 JUMP JUMPDEST PUSH2 0x3E3 JUMP JUMPDEST PUSH1 0x40 MLOAD PUSH2 0x105 SWAP2 SWAP1 PUSH2 0x94E JUMP JUMPDEST PUSH1 0x40 MLOAD DUP1 SWAP2 SUB SWAP1 RETURN JUMPDEST CALLVALUE DUP1 ISZERO PUSH2 0x11A JUMPI PUSH1 0x0 DUP1 REVERT JUMPDEST POP PUSH2 0x123 PUSH2 0x47A JUMP JUMPDEST PUSH1 0x40 MLOAD PUSH2 0x130 SWAP2 SWAP1 PUSH2 0x97F JUMP JUMPDEST PUSH1 0x40 MLOAD DUP1 SWAP2 SUB SWAP1 RETURN JUMPDEST PUSH1 0x0 PUSH1 0x1 PUSH1 0x0 CALLER PUSH20 0xFFFFFFFFFFFFFFFFFFFFFFFFFFFFFFFFFFFFFFFF AND PUSH20 0xFFFFFFFFFFFFFFFFFFFFFFFFFFFFFFFFFFFFFFFF AND DUP2 MSTORE PUSH1 0x20 ADD SWAP1 DUP2 MSTORE PUSH1 0x20 ADD PUSH1 0x0 KECCAK256 DUP4 SWAP1 DUP1 PUSH1 0x1 DUP2 SLOAD ADD DUP1 DUP3 SSTORE DUP1 SWAP2 POP POP PUSH1 0x1 SWAP1 SUB SWAP1 PUSH1 0x0 MSTORE PUSH1 0x20 PUSH1 0x0 KECCAK256 ADD PUSH1 0x0 SWAP1 SWAP2 SWAP1 SWAP2 SWAP1 SWAP2 POP SSTORE PUSH4 0x150B7A02 PUSH1 0xE0 SHL SWAP1 POP SWAP5 SWAP4 POP POP POP POP JUMP JUMPDEST PUSH1 0x0 PUSH1 0x1 PUSH1 0x0 DUP4 PUSH20 0xFFFFFFFFFFFFFFFFFFFFFFFFFFFFFFFFFFFFFFFF AND PUSH20 0xFFFFFFFFFFFFFFFFFFFFFFFFFFFFFFFFFFFFFFFF AND DUP2 MSTORE PUSH1 0x20 ADD SWAP1 DUP2 MSTORE PUSH1 0x20 ADD PUSH1 0x0 KECCAK256 DUP1 SLOAD DUP1 PUSH1 0x20 MUL PUSH1 0x20 ADD PUSH1 0x40 MLOAD SWAP1 DUP2 ADD PUSH1 0x40 MSTORE DUP1 SWAP3 SWAP2 SWAP1 DUP2 DUP2 MSTORE PUSH1 0x20 ADD DUP3 DUP1 SLOAD DUP1 ISZERO PUSH2 0x23E JUMPI PUSH1 0x20 MUL DUP3 ADD SWAP2 SWAP1 PUSH1 0x0 MSTORE PUSH1 0x20 PUSH1 0x0 KECCAK256 SWAP1 JUMPDEST DUP2 SLOAD DUP2 MSTORE PUSH1 0x20 ADD SWAP1 PUSH1 0x1 ADD SWAP1 DUP1 DUP4 GT PUSH2 0x22A JUMPI JUMPDEST POP POP POP POP POP SWAP1 POP PUSH1 0x0 DUP2 MLOAD SWAP1 POP PUSH1 0x0 JUMPDEST DUP2 DUP2 LT ISZERO PUSH2 0x312 JUMPI DUP4 PUSH20 0xFFFFFFFFFFFFFFFFFFFFFFFFFFFFFFFFFFFFFFFF AND PUSH4 0x23B872DD ADDRESS PUSH1 0x0 DUP1 SLOAD SWAP1 PUSH2 0x100 EXP SWAP1 DIV PUSH20 0xFFFFFFFFFFFFFFFFFFFFFFFFFFFFFFFFFFFFFFFF AND DUP7 DUP6 DUP2 MLOAD DUP2 LT PUSH2 0x2A7 JUMPI PUSH2 0x2A6 PUSH2 0x99A JUMP JUMPDEST JUMPDEST PUSH1 0x20 MUL PUSH1 0x20 ADD ADD MLOAD PUSH1 0x40 MLOAD DUP5 PUSH4 0xFFFFFFFF AND PUSH1 0xE0 SHL DUP2 MSTORE PUSH1 0x4 ADD PUSH2 0x2CD SWAP4 SWAP3 SWAP2 SWAP1 PUSH2 0x9D8 JUMP JUMPDEST PUSH1 0x0 PUSH1 0x40 MLOAD DUP1 DUP4 SUB DUP2 PUSH1 0x0 DUP8 DUP1 EXTCODESIZE ISZERO DUP1 ISZERO PUSH2 0x2E7 JUMPI PUSH1 0x0 DUP1 REVERT JUMPDEST POP GAS CALL ISZERO DUP1 ISZERO PUSH2 0x2FB JUMPI RETURNDATASIZE PUSH1 0x0 DUP1 RETURNDATACOPY RETURNDATASIZE PUSH1 0x0 REVERT JUMPDEST POP POP POP POP DUP1 DUP1 PUSH2 0x30A SWAP1 PUSH2 0xA3E JUMP JUMPDEST SWAP2 POP POP PUSH2 0x24E JUMP JUMPDEST POP PUSH1 0x1 PUSH1 0x0 DUP5 PUSH20 0xFFFFFFFFFFFFFFFFFFFFFFFFFFFFFFFFFFFFFFFF AND PUSH20 0xFFFFFFFFFFFFFFFFFFFFFFFFFFFFFFFFFFFFFFFF AND DUP2 MSTORE PUSH1 0x20 ADD SWAP1 DUP2 MSTORE PUSH1 0x20 ADD PUSH1 0x0 KECCAK256 PUSH1 0x0 PUSH2 0x35E SWAP2 SWAP1 PUSH2 0x49E JUMP JUMPDEST POP POP POP JUMP JUMPDEST PUSH1 0x0 DUP4 PUSH20 0xFFFFFFFFFFFFFFFFFFFFFFFFFFFFFFFFFFFFFFFF AND CALLVALUE DUP5 DUP5 PUSH1 0x40 MLOAD PUSH2 0x38D SWAP3 SWAP2 SWAP1 PUSH2 0xAB6 JUMP JUMPDEST PUSH1 0x0 PUSH1 0x40 MLOAD DUP1 DUP4 SUB DUP2 DUP6 DUP8 GAS CALL SWAP3 POP POP POP RETURNDATASIZE DUP1 PUSH1 0x0 DUP2 EQ PUSH2 0x3CA JUMPI PUSH1 0x40 MLOAD SWAP2 POP PUSH1 0x1F NOT PUSH1 0x3F RETURNDATASIZE ADD AND DUP3 ADD PUSH1 0x40 MSTORE RETURNDATASIZE DUP3 MSTORE RETURNDATASIZE PUSH1 0x0 PUSH1 0x20 DUP5 ADD RETURNDATACOPY PUSH2 0x3CF JUMP JUMPDEST PUSH1 0x60 SWAP2 POP JUMPDEST POP POP SWAP1 POP DUP1 PUSH2 0x3DD JUMPI PUSH1 0x0 DUP1 REVERT JUMPDEST POP POP POP POP JUMP JUMPDEST PUSH1 0x60 PUSH1 0x1 PUSH1 0x0 DUP4 PUSH20 0xFFFFFFFFFFFFFFFFFFFFFFFFFFFFFFFFFFFFFFFF AND PUSH20 0xFFFFFFFFFFFFFFFFFFFFFFFFFFFFFFFFFFFFFFFF AND DUP2 MSTORE PUSH1 0x20 ADD SWAP1 DUP2 MSTORE PUSH1 0x20 ADD PUSH1 0x0 KECCAK256 DUP1 SLOAD DUP1 PUSH1 0x20 MUL PUSH1 0x20 ADD PUSH1 0x40 MLOAD SWAP1 DUP2 ADD PUSH1 0x40 MSTORE DUP1 SWAP3 SWAP2 SWAP1 DUP2 DUP2 MSTORE PUSH1 0x20 ADD DUP3 DUP1 SLOAD DUP1 ISZERO PUSH2 0x46E JUMPI PUSH1 0x20 MUL DUP3 ADD SWAP2 SWAP1 PUSH1 0x0 MSTORE PUSH1 0x20 PUSH1 0x0 KECCAK256 SWAP1 JUMPDEST DUP2 SLOAD DUP2 MSTORE PUSH1 0x20 ADD SWAP1 PUSH1 0x1 ADD SWAP1 DUP1 DUP4 GT PUSH2 0x45A JUMPI JUMPDEST POP POP POP POP POP SWAP1 POP SWAP2 SWAP1 POP JUMP JUMPDEST PUSH1 0x0 DUP1 SLOAD SWAP1 PUSH2 0x100 EXP SWAP1 DIV PUSH20 0xFFFFFFFFFFFFFFFFFFFFFFFFFFFFFFFFFFFFFFFF AND DUP2 JUMP JUMPDEST POP DUP1 SLOAD PUSH1 0x0 DUP3 SSTORE SWAP1 PUSH1 0x0 MSTORE PUSH1 0x20 PUSH1 0x0 KECCAK256 SWAP1 DUP2 ADD SWAP1 PUSH2 0x4BC SWAP2 SWAP1 PUSH2 0x4BF JUMP JUMPDEST POP JUMP JUMPDEST JUMPDEST DUP1 DUP3 GT ISZERO PUSH2 0x4D8 JUMPI PUSH1 0x0 DUP2 PUSH1 0x0 SWAP1 SSTORE POP PUSH1 0x1 ADD PUSH2 0x4C0 JUMP JUMPDEST POP SWAP1 JUMP JUMPDEST PUSH1 0x0 PUSH1 0x40 MLOAD SWAP1 POP SWAP1 JUMP JUMPDEST PUSH1 0x0 DUP1 REVERT JUMPDEST PUSH1 0x0 DUP1 REVERT JUMPDEST PUSH1 0x0 PUSH20 0xFFFFFFFFFFFFFFFFFFFFFFFFFFFFFFFFFFFFFFFF DUP3 AND SWAP1 POP SWAP2 SWAP1 POP JUMP JUMPDEST PUSH1 0x0 PUSH2 0x51B DUP3 PUSH2 0x4F0 JUMP JUMPDEST SWAP1 POP SWAP2 SWAP1 POP JUMP JUMPDEST PUSH2 0x52B DUP2 PUSH2 0x510 JUMP JUMPDEST DUP2 EQ PUSH2 0x536 JUMPI PUSH1 0x0 DUP1 REVERT JUMPDEST POP JUMP JUMPDEST PUSH1 0x0 DUP2 CALLDATALOAD SWAP1 POP PUSH2 0x548 DUP2 PUSH2 0x522 JUMP JUMPDEST SWAP3 SWAP2 POP POP JUMP JUMPDEST PUSH1 0x0 DUP2 SWAP1 POP SWAP2 SWAP1 POP JUMP JUMPDEST PUSH2 0x561 DUP2 PUSH2 0x54E JUMP JUMPDEST DUP2 EQ PUSH2 0x56C JUMPI PUSH1 0x0 DUP1 REVERT JUMPDEST POP JUMP JUMPDEST PUSH1 0x0 DUP2 CALLDATALOAD SWAP1 POP PUSH2 0x57E DUP2 PUSH2 0x558 JUMP JUMPDEST SWAP3 SWAP2 POP POP JUMP JUMPDEST PUSH1 0x0 DUP1 REVERT JUMPDEST PUSH1 0x0 DUP1 REVERT JUMPDEST PUSH1 0x0 PUSH1 0x1F NOT PUSH1 0x1F DUP4 ADD AND SWAP1 POP SWAP2 SWAP1 POP JUMP JUMPDEST PUSH32 0x4E487B7100000000000000000000000000000000000000000000000000000000 PUSH1 0x0 MSTORE PUSH1 0x41 PUSH1 0x4 MSTORE PUSH1 0x24 PUSH1 0x0 REVERT JUMPDEST PUSH2 0x5D7 DUP3 PUSH2 0x58E JUMP JUMPDEST DUP2 ADD DUP2 DUP2 LT PUSH8 0xFFFFFFFFFFFFFFFF DUP3 GT OR ISZERO PUSH2 0x5F6 JUMPI PUSH2 0x5F5 PUSH2 0x59F JUMP JUMPDEST JUMPDEST DUP1 PUSH1 0x40 MSTORE POP POP POP JUMP JUMPDEST PUSH1 0x0 PUSH2 0x609 PUSH2 0x4DC JUMP JUMPDEST SWAP1 POP PUSH2 0x615 DUP3 DUP3 PUSH2 0x5CE JUMP JUMPDEST SWAP2 SWAP1 POP JUMP JUMPDEST PUSH1 0x0 PUSH8 0xFFFFFFFFFFFFFFFF DUP3 GT ISZERO PUSH2 0x635 JUMPI PUSH2 0x634 PUSH2 0x59F JUMP JUMPDEST JUMPDEST PUSH2 0x63E DUP3 PUSH2 0x58E JUMP JUMPDEST SWAP1 POP PUSH1 0x20 DUP2 ADD SWAP1 POP SWAP2 SWAP1 POP JUMP JUMPDEST DUP3 DUP2 DUP4 CALLDATACOPY PUSH1 0x0 DUP4 DUP4 ADD MSTORE POP POP POP JUMP JUMPDEST PUSH1 0x0 PUSH2 0x66D PUSH2 0x668 DUP5 PUSH2 0x61A JUMP JUMPDEST PUSH2 0x5FF JUMP JUMPDEST SWAP1 POP DUP3 DUP2 MSTORE PUSH1 0x20 DUP2 ADD DUP5 DUP5 DUP5 ADD GT ISZERO PUSH2 0x689 JUMPI PUSH2 0x688 PUSH2 0x589 JUMP JUMPDEST JUMPDEST PUSH2 0x694 DUP5 DUP3 DUP6 PUSH2 0x64B JUMP JUMPDEST POP SWAP4 SWAP3 POP POP POP JUMP JUMPDEST PUSH1 0x0 DUP3 PUSH1 0x1F DUP4 ADD SLT PUSH2 0x6B1 JUMPI PUSH2 0x6B0 PUSH2 0x584 JUMP JUMPDEST JUMPDEST DUP2 CALLDATALOAD PUSH2 0x6C1 DUP5 DUP3 PUSH1 0x20 DUP7 ADD PUSH2 0x65A JUMP JUMPDEST SWAP2 POP POP SWAP3 SWAP2 POP POP JUMP JUMPDEST PUSH1 0x0 DUP1 PUSH1 0x0 DUP1 PUSH1 0x80 DUP6 DUP8 SUB SLT ISZERO PUSH2 0x6E4 JUMPI PUSH2 0x6E3 PUSH2 0x4E6 JUMP JUMPDEST JUMPDEST PUSH1 0x0 PUSH2 0x6F2 DUP8 DUP3 DUP9 ADD PUSH2 0x539 JUMP JUMPDEST SWAP5 POP POP PUSH1 0x20 PUSH2 0x703 DUP8 DUP3 DUP9 ADD PUSH2 0x539 JUMP JUMPDEST SWAP4 POP POP PUSH1 0x40 PUSH2 0x714 DUP8 DUP3 DUP9 ADD PUSH2 0x56F JUMP JUMPDEST SWAP3 POP POP PUSH1 0x60 DUP6 ADD CALLDATALOAD PUSH8 0xFFFFFFFFFFFFFFFF DUP2 GT ISZERO PUSH2 0x735 JUMPI PUSH2 0x734 PUSH2 0x4EB JUMP JUMPDEST JUMPDEST PUSH2 0x741 DUP8 DUP3 DUP9 ADD PUSH2 0x69C JUMP JUMPDEST SWAP2 POP POP SWAP3 SWAP6 SWAP2 SWAP5 POP SWAP3 POP JUMP JUMPDEST PUSH1 0x0 PUSH32 0xFFFFFFFF00000000000000000000000000000000000000000000000000000000 DUP3 AND SWAP1 POP SWAP2 SWAP1 POP JUMP JUMPDEST PUSH2 0x782 DUP2 PUSH2 0x74D JUMP JUMPDEST DUP3 MSTORE POP POP JUMP JUMPDEST PUSH1 0x0 PUSH1 0x20 DUP3 ADD SWAP1 POP PUSH2 0x79D PUSH1 0x0 DUP4 ADD DUP5 PUSH2 0x779 JUMP JUMPDEST SWAP3 SWAP2 POP POP JUMP JUMPDEST PUSH1 0x0 PUSH1 0x20 DUP3 DUP5 SUB SLT ISZERO PUSH2 0x7B9 JUMPI PUSH2 0x7B8 PUSH2 0x4E6 JUMP JUMPDEST JUMPDEST PUSH1 0x0 PUSH2 0x7C7 DUP5 DUP3 DUP6 ADD PUSH2 0x539 JUMP JUMPDEST SWAP2 POP POP SWAP3 SWAP2 POP POP JUMP JUMPDEST PUSH1 0x0 DUP1 REVERT JUMPDEST PUSH1 0x0 DUP1 REVERT JUMPDEST PUSH1 0x0 DUP1 DUP4 PUSH1 0x1F DUP5 ADD SLT PUSH2 0x7F0 JUMPI PUSH2 0x7EF PUSH2 0x584 JUMP JUMPDEST JUMPDEST DUP3 CALLDATALOAD SWAP1 POP PUSH8 0xFFFFFFFFFFFFFFFF DUP2 GT ISZERO PUSH2 0x80D JUMPI PUSH2 0x80C PUSH2 0x7D0 JUMP JUMPDEST JUMPDEST PUSH1 0x20 DUP4 ADD SWAP2 POP DUP4 PUSH1 0x1 DUP3 MUL DUP4 ADD GT ISZERO PUSH2 0x829 JUMPI PUSH2 0x828 PUSH2 0x7D5 JUMP JUMPDEST JUMPDEST SWAP3 POP SWAP3 SWAP1 POP JUMP JUMPDEST PUSH1 0x0 DUP1 PUSH1 0x0 PUSH1 0x40 DUP5 DUP7 SUB SLT ISZERO PUSH2 0x849 JUMPI PUSH2 0x848 PUSH2 0x4E6 JUMP JUMPDEST JUMPDEST PUSH1 0x0 PUSH2 0x857 DUP7 DUP3 DUP8 ADD PUSH2 0x539 JUMP JUMPDEST SWAP4 POP POP PUSH1 0x20 DUP5 ADD CALLDATALOAD PUSH8 0xFFFFFFFFFFFFFFFF DUP2 GT ISZERO PUSH2 0x878 JUMPI PUSH2 0x877 PUSH2 0x4EB JUMP JUMPDEST JUMPDEST PUSH2 0x884 DUP7 DUP3 DUP8 ADD PUSH2 0x7DA JUMP JUMPDEST SWAP3 POP SWAP3 POP POP SWAP3 POP SWAP3 POP SWAP3 JUMP JUMPDEST PUSH1 0x0 DUP2 MLOAD SWAP1 POP SWAP2 SWAP1 POP JUMP JUMPDEST PUSH1 0x0 DUP3 DUP3 MSTORE PUSH1 0x20 DUP3 ADD SWAP1 POP SWAP3 SWAP2 POP POP JUMP JUMPDEST PUSH1 0x0 DUP2 SWAP1 POP PUSH1 0x20 DUP3 ADD SWAP1 POP SWAP2 SWAP1 POP JUMP JUMPDEST PUSH2 0x8C5 DUP2 PUSH2 0x54E JUMP JUMPDEST DUP3 MSTORE POP POP JUMP JUMPDEST PUSH1 0x0 PUSH2 0x8D7 DUP4 DUP4 PUSH2 0x8BC JUMP JUMPDEST PUSH1 0x20 DUP4 ADD SWAP1 POP SWAP3 SWAP2 POP POP JUMP JUMPDEST PUSH1 0x0 PUSH1 0x20 DUP3 ADD SWAP1 POP SWAP2 SWAP1 POP JUMP JUMPDEST PUSH1 0x0 PUSH2 0x8FB DUP3 PUSH2 0x890 JUMP JUMPDEST PUSH2 0x905 DUP2 DUP6 PUSH2 0x89B JUMP JUMPDEST SWAP4 POP PUSH2 0x910 DUP4 PUSH2 0x8AC JUMP JUMPDEST DUP1 PUSH1 0x0 JUMPDEST DUP4 DUP2 LT ISZERO PUSH2 0x941 JUMPI DUP2 MLOAD PUSH2 0x928 DUP9 DUP3 PUSH2 0x8CB JUMP JUMPDEST SWAP8 POP PUSH2 0x933 DUP4 PUSH2 0x8E3 JUMP JUMPDEST SWAP3 POP POP PUSH1 0x1 DUP2 ADD SWAP1 POP PUSH2 0x914 JUMP JUMPDEST POP DUP6 SWAP4 POP POP POP POP SWAP3 SWAP2 POP POP JUMP JUMPDEST PUSH1 0x0 PUSH1 0x20 DUP3 ADD SWAP1 POP DUP2 DUP2 SUB PUSH1 0x0 DUP4 ADD MSTORE PUSH2 0x968 DUP2 DUP5 PUSH2 0x8F0 JUMP JUMPDEST SWAP1 POP SWAP3 SWAP2 POP POP JUMP JUMPDEST PUSH2 0x979 DUP2 PUSH2 0x510 JUMP JUMPDEST DUP3 MSTORE POP POP JUMP JUMPDEST PUSH1 0x0 PUSH1 0x20 DUP3 ADD SWAP1 POP PUSH2 0x994 PUSH1 0x0 DUP4 ADD DUP5 PUSH2 0x970 JUMP JUMPDEST SWAP3 SWAP2 POP POP JUMP JUMPDEST PUSH32 0x4E487B7100000000000000000000000000000000000000000000000000000000 PUSH1 0x0 MSTORE PUSH1 0x32 PUSH1 0x4 MSTORE PUSH1 0x24 PUSH1 0x0 REVERT JUMPDEST PUSH2 0x9D2 DUP2 PUSH2 0x54E JUMP JUMPDEST DUP3 MSTORE POP POP JUMP JUMPDEST PUSH1 0x0 PUSH1 0x60 DUP3 ADD SWAP1 POP PUSH2 0x9ED PUSH1 0x0 DUP4 ADD DUP7 PUSH2 0x970 JUMP JUMPDEST PUSH2 0x9FA PUSH1 0x20 DUP4 ADD DUP6 PUSH2 0x970 JUMP JUMPDEST PUSH2 0xA07 PUSH1 0x40 DUP4 ADD DUP5 PUSH2 0x9C9 JUMP JUMPDEST SWAP5 SWAP4 POP POP POP POP JUMP JUMPDEST PUSH32 0x4E487B7100000000000000000000000000000000000000000000000000000000 PUSH1 0x0 MSTORE PUSH1 0x11 PUSH1 0x4 MSTORE PUSH1 0x24 PUSH1 0x0 REVERT JUMPDEST PUSH1 0x0 PUSH2 0xA49 DUP3 PUSH2 0x54E JUMP JUMPDEST SWAP2 POP PUSH32 0xFFFFFFFFFFFFFFFFFFFFFFFFFFFFFFFFFFFFFFFFFFFFFFFFFFFFFFFFFFFFFFFF DUP3 SUB PUSH2 0xA7B JUMPI PUSH2 0xA7A PUSH2 0xA0F JUMP JUMPDEST JUMPDEST PUSH1 0x1 DUP3 ADD SWAP1 POP SWAP2 SWAP1 POP JUMP JUMPDEST PUSH1 0x0 DUP2 SWAP1 POP SWAP3 SWAP2 POP POP JUMP JUMPDEST PUSH1 0x0 PUSH2 0xA9D DUP4 DUP6 PUSH2 0xA86 JUMP JUMPDEST SWAP4 POP PUSH2 0xAAA DUP4 DUP6 DUP5 PUSH2 0x64B JUMP JUMPDEST DUP3 DUP5 ADD SWAP1 POP SWAP4 SWAP3 POP POP POP JUMP JUMPDEST PUSH1 0x0 PUSH2 0xAC3 DUP3 DUP5 DUP7 PUSH2 0xA91 JUMP JUMPDEST SWAP2 POP DUP2 SWAP1 POP SWAP4 SWAP3 POP POP POP JUMP INVALID LOG2 PUSH5 0x6970667358 0x22 SLT KECCAK256 0xC4 0xE CALLVALUE 0xDE PC 0x2C 0x4D DUP6 DIFFICULTY PUSH32 0x19610E29CFA80D88BE13376135D33E7DEC9E6F0F2C4764736F6C634300081100 CALLER LOG2 PUSH5 0x6970667358 0x22 SLT KECCAK256 SWAP13 PUSH4 0x174E67FF 0x26 GASPRICE DUP5 0x5E KECCAK256 JUMP PUSH26 0x198AFC73162D58829D633C9355DA16822FAE0464736F6C634300 ADDMOD GT STOP CALLER "
				},
				"gasEstimates": {
					"creation": {
						"codeDepositCost": "1401800",
						"executionCost": "infinite",
						"totalCost": "infinite"
					},
					"external": {
						"admin()": "2577",
						"deploy(uint256)": "infinite",
						"mint(address,uint256,bytes)": "infinite",
						"mintAndTransfer(address,uint256,bytes)": "infinite",
						"mintBySubContract(address,uint256,bytes)": "infinite",
						"minters(uint256)": "5001",
						"onERC721Received(address,address,uint256,bytes)": "infinite",
						"transferBySubContract(address,uint256)": "infinite"
					},
					"internal": {
						"getBytecode()": "infinite"
					}
				},
				"methodIdentifiers": {
					"admin()": "f851a440",
					"deploy(uint256)": "a5e38751",
					"mint(address,uint256,bytes)": "94d008ef",
					"mintAndTransfer(address,uint256,bytes)": "c6046f77",
					"mintBySubContract(address,uint256,bytes)": "f4bbc568",
					"minters(uint256)": "8623ec7b",
					"onERC721Received(address,address,uint256,bytes)": "150b7a02",
					"transferBySubContract(address,uint256)": "4e702ab3"
				}
			},
			"storageLayout": {
				"storage": [
					{
						"astId": 281,
						"contract": "buyer1.sol:Factory",
						"label": "admin",
						"offset": 0,
						"slot": "0",
						"type": "t_address"
					},
					{
						"astId": 284,
						"contract": "buyer1.sol:Factory",
						"label": "minters",
						"offset": 0,
						"slot": "1",
						"type": "t_array(t_address)dyn_storage"
					},
					{
						"astId": 287,
						"contract": "buyer1.sol:Factory",
						"label": "salt",
						"offset": 0,
						"slot": "2",
						"type": "t_uint256"
					},
					{
						"astId": 289,
						"contract": "buyer1.sol:Factory",
						"label": "tokenId",
						"offset": 0,
						"slot": "3",
						"type": "t_uint256"
					}
				],
				"types": {
					"t_address": {
						"encoding": "inplace",
						"label": "address",
						"numberOfBytes": "20"
					},
					"t_array(t_address)dyn_storage": {
						"base": "t_address",
						"encoding": "dynamic_array",
						"label": "address[]",
						"numberOfBytes": "32"
					},
					"t_uint256": {
						"encoding": "inplace",
						"label": "uint256",
						"numberOfBytes": "32"
					}
				}
			},
			"userdoc": {
				"kind": "user",
				"methods": {},
				"version": 1
			}
		}
	}
}