{
	"Perfect,sol.sol": {
		"Factory": {
			"abi": [
				{
					"inputs": [
						{
							"internalType": "address",
							"name": "_admin",
							"type": "address"
						}
					],
					"stateMutability": "nonpayable",
					"type": "constructor"
				},
				{
					"inputs": [
						{
							"internalType": "address",
							"name": "nft",
							"type": "address"
						},
						{
							"internalType": "uint256[]",
							"name": "tokenid",
							"type": "uint256[]"
						},
						{
							"internalType": "uint256",
							"name": "subcontractId",
							"type": "uint256"
						}
					],
					"name": "RestoreNftFromSubcontract",
					"outputs": [],
					"stateMutability": "nonpayable",
					"type": "function"
				},
				{
					"inputs": [
						{
							"internalType": "address",
							"name": "nft",
							"type": "address"
						},
						{
							"internalType": "uint256[]",
							"name": "tokenid",
							"type": "uint256[]"
						}
					],
					"name": "RestorebymultipleID",
					"outputs": [],
					"stateMutability": "nonpayable",
					"type": "function"
				},
				{
					"inputs": [],
					"name": "admin",
					"outputs": [
						{
							"internalType": "address",
							"name": "",
							"type": "address"
						}
					],
					"stateMutability": "view",
					"type": "function"
				},
				{
					"inputs": [
						{
							"internalType": "uint256",
							"name": "amount",
							"type": "uint256"
						}
					],
					"name": "deploy",
					"outputs": [],
					"stateMutability": "nonpayable",
					"type": "function"
				},
				{
					"inputs": [
						{
							"internalType": "address",
							"name": "nft",
							"type": "address"
						},
						{
							"internalType": "uint256",
							"name": "amount",
							"type": "uint256"
						},
						{
							"internalType": "bytes",
							"name": "param",
							"type": "bytes"
						}
					],
					"name": "mint",
					"outputs": [],
					"stateMutability": "nonpayable",
					"type": "function"
				},
				{
					"inputs": [
						{
							"internalType": "address",
							"name": "nft",
							"type": "address"
						},
						{
							"internalType": "uint256",
							"name": "amount",
							"type": "uint256"
						},
						{
							"internalType": "bytes",
							"name": "param",
							"type": "bytes"
						}
					],
					"name": "mintAndTransfer",
					"outputs": [],
					"stateMutability": "nonpayable",
					"type": "function"
				},
				{
					"inputs": [
						{
							"internalType": "address",
							"name": "nft",
							"type": "address"
						},
						{
							"internalType": "uint256",
							"name": "amount",
							"type": "uint256"
						},
						{
							"internalType": "bytes",
							"name": "param",
							"type": "bytes"
						}
					],
					"name": "mintBySubContract",
					"outputs": [],
					"stateMutability": "payable",
					"type": "function"
				},
				{
					"inputs": [
						{
							"internalType": "uint256",
							"name": "",
							"type": "uint256"
						}
					],
					"name": "minters",
					"outputs": [
						{
							"internalType": "address",
							"name": "",
							"type": "address"
						}
					],
					"stateMutability": "view",
					"type": "function"
				},
				{
					"inputs": [
						{
							"internalType": "address",
							"name": "",
							"type": "address"
						},
						{
							"internalType": "address",
							"name": "",
							"type": "address"
						},
						{
							"internalType": "uint256",
							"name": "_tokenId",
							"type": "uint256"
						},
						{
							"internalType": "bytes",
							"name": "",
							"type": "bytes"
						}
					],
					"name": "onERC721Received",
					"outputs": [
						{
							"internalType": "bytes4",
							"name": "",
							"type": "bytes4"
						}
					],
					"stateMutability": "nonpayable",
					"type": "function"
				},
				{
					"inputs": [
						{
							"internalType": "address",
							"name": "nft",
							"type": "address"
						},
						{
							"internalType": "uint256",
							"name": "amount",
							"type": "uint256"
						}
					],
					"name": "transferBySubContract",
					"outputs": [],
					"stateMutability": "nonpayable",
					"type": "function"
				}
			],
			"devdoc": {
				"kind": "dev",
				"methods": {},
				"version": 1
			},
			"evm": {
				"assembly": "    /* \"Perfect,sol.sol\":1789:4507  contract Factory is IERC721Receiver{... */\n  mstore(0x40, 0x80)\n    /* \"Perfect,sol.sol\":1902:1903  0 */\n  0x00\n    /* \"Perfect,sol.sol\":1887:1903  uint256 salt = 0 */\n  0x02\n  sstore\n    /* \"Perfect,sol.sol\":1931:1990  constructor(address _admin) {... */\n  callvalue\n  dup1\n  iszero\n  tag_1\n  jumpi\n  0x00\n  dup1\n  revert\ntag_1:\n  pop\n  mload(0x40)\n  sub(codesize, bytecodeSize)\n  dup1\n  bytecodeSize\n  dup4\n  codecopy\n  dup2\n  dup2\n  add\n  0x40\n  mstore\n  dup2\n  add\n  swap1\n  tag_2\n  swap2\n  swap1\n  tag_3\n  jump\t// in\ntag_2:\n    /* \"Perfect,sol.sol\":1977:1983  _admin */\n  dup1\n    /* \"Perfect,sol.sol\":1969:1974  admin */\n  0x00\n  dup1\n    /* \"Perfect,sol.sol\":1969:1983  admin = _admin */\n  0x0100\n  exp\n  dup2\n  sload\n  dup2\n  0xffffffffffffffffffffffffffffffffffffffff\n  mul\n  not\n  and\n  swap1\n  dup4\n  0xffffffffffffffffffffffffffffffffffffffff\n  and\n  mul\n  or\n  swap1\n  sstore\n  pop\n    /* \"Perfect,sol.sol\":1931:1990  constructor(address _admin) {... */\n  pop\n    /* \"Perfect,sol.sol\":1789:4507  contract Factory is IERC721Receiver{... */\n  jump(tag_6)\n    /* \"#utility.yul\":88:205   */\ntag_8:\n    /* \"#utility.yul\":197:198   */\n  0x00\n    /* \"#utility.yul\":194:195   */\n  dup1\n    /* \"#utility.yul\":187:199   */\n  revert\n    /* \"#utility.yul\":334:460   */\ntag_10:\n    /* \"#utility.yul\":371:378   */\n  0x00\n    /* \"#utility.yul\":411:453   */\n  0xffffffffffffffffffffffffffffffffffffffff\n    /* \"#utility.yul\":404:409   */\n  dup3\n    /* \"#utility.yul\":400:454   */\n  and\n    /* \"#utility.yul\":389:454   */\n  swap1\n  pop\n    /* \"#utility.yul\":334:460   */\n  swap2\n  swap1\n  pop\n  jump\t// out\n    /* \"#utility.yul\":466:562   */\ntag_11:\n    /* \"#utility.yul\":503:510   */\n  0x00\n    /* \"#utility.yul\":532:556   */\n  tag_20\n    /* \"#utility.yul\":550:555   */\n  dup3\n    /* \"#utility.yul\":532:556   */\n  tag_10\n  jump\t// in\ntag_20:\n    /* \"#utility.yul\":521:556   */\n  swap1\n  pop\n    /* \"#utility.yul\":466:562   */\n  swap2\n  swap1\n  pop\n  jump\t// out\n    /* \"#utility.yul\":568:690   */\ntag_12:\n    /* \"#utility.yul\":641:665   */\n  tag_22\n    /* \"#utility.yul\":659:664   */\n  dup2\n    /* \"#utility.yul\":641:665   */\n  tag_11\n  jump\t// in\ntag_22:\n    /* \"#utility.yul\":634:639   */\n  dup2\n    /* \"#utility.yul\":631:666   */\n  eq\n    /* \"#utility.yul\":621:684   */\n  tag_23\n  jumpi\n    /* \"#utility.yul\":680:681   */\n  0x00\n    /* \"#utility.yul\":677:678   */\n  dup1\n    /* \"#utility.yul\":670:682   */\n  revert\n    /* \"#utility.yul\":621:684   */\ntag_23:\n    /* \"#utility.yul\":568:690   */\n  pop\n  jump\t// out\n    /* \"#utility.yul\":696:839   */\ntag_13:\n    /* \"#utility.yul\":753:758   */\n  0x00\n    /* \"#utility.yul\":784:790   */\n  dup2\n    /* \"#utility.yul\":778:791   */\n  mload\n    /* \"#utility.yul\":769:791   */\n  swap1\n  pop\n    /* \"#utility.yul\":800:833   */\n  tag_25\n    /* \"#utility.yul\":827:832   */\n  dup2\n    /* \"#utility.yul\":800:833   */\n  tag_12\n  jump\t// in\ntag_25:\n    /* \"#utility.yul\":696:839   */\n  swap3\n  swap2\n  pop\n  pop\n  jump\t// out\n    /* \"#utility.yul\":845:1196   */\ntag_3:\n    /* \"#utility.yul\":915:921   */\n  0x00\n    /* \"#utility.yul\":964:966   */\n  0x20\n    /* \"#utility.yul\":952:961   */\n  dup3\n    /* \"#utility.yul\":943:950   */\n  dup5\n    /* \"#utility.yul\":939:962   */\n  sub\n    /* \"#utility.yul\":935:967   */\n  slt\n    /* \"#utility.yul\":932:1051   */\n  iszero\n  tag_27\n  jumpi\n    /* \"#utility.yul\":970:1049   */\n  tag_28\n  tag_8\n  jump\t// in\ntag_28:\n    /* \"#utility.yul\":932:1051   */\ntag_27:\n    /* \"#utility.yul\":1090:1091   */\n  0x00\n    /* \"#utility.yul\":1115:1179   */\n  tag_29\n    /* \"#utility.yul\":1171:1178   */\n  dup5\n    /* \"#utility.yul\":1162:1168   */\n  dup3\n    /* \"#utility.yul\":1151:1160   */\n  dup6\n    /* \"#utility.yul\":1147:1169   */\n  add\n    /* \"#utility.yul\":1115:1179   */\n  tag_13\n  jump\t// in\ntag_29:\n    /* \"#utility.yul\":1105:1179   */\n  swap2\n  pop\n    /* \"#utility.yul\":1061:1189   */\n  pop\n    /* \"#utility.yul\":845:1196   */\n  swap3\n  swap2\n  pop\n  pop\n  jump\t// out\n    /* \"Perfect,sol.sol\":1789:4507  contract Factory is IERC721Receiver{... */\ntag_6:\n  dataSize(sub_0)\n  dup1\n  dataOffset(sub_0)\n  0x00\n  codecopy\n  0x00\n  return\nstop\n\nsub_0: assembly {\n        /* \"Perfect,sol.sol\":1789:4507  contract Factory is IERC721Receiver{... */\n      mstore(0x40, 0x80)\n      jumpi(tag_1, lt(calldatasize, 0x04))\n      shr(0xe0, calldataload(0x00))\n      dup1\n      0xa5e38751\n      gt\n      tag_12\n      jumpi\n      dup1\n      0xa5e38751\n      eq\n      tag_7\n      jumpi\n      dup1\n      0xb1d95a5c\n      eq\n      tag_8\n      jumpi\n      dup1\n      0xc6046f77\n      eq\n      tag_9\n      jumpi\n      dup1\n      0xf4bbc568\n      eq\n      tag_10\n      jumpi\n      dup1\n      0xf851a440\n      eq\n      tag_11\n      jumpi\n      jump(tag_1)\n    tag_12:\n      dup1\n      0x150b7a02\n      eq\n      tag_2\n      jumpi\n      dup1\n      0x3e1a037c\n      eq\n      tag_3\n      jumpi\n      dup1\n      0x4e702ab3\n      eq\n      tag_4\n      jumpi\n      dup1\n      0x8623ec7b\n      eq\n      tag_5\n      jumpi\n      dup1\n      0x94d008ef\n      eq\n      tag_6\n      jumpi\n    tag_1:\n      0x00\n      dup1\n      revert\n        /* \"Perfect,sol.sol\":4276:4505  function onERC721Received(... */\n    tag_2:\n      callvalue\n      dup1\n      iszero\n      tag_13\n      jumpi\n      0x00\n      dup1\n      revert\n    tag_13:\n      pop\n      tag_14\n      0x04\n      dup1\n      calldatasize\n      sub\n      dup2\n      add\n      swap1\n      tag_15\n      swap2\n      swap1\n      tag_16\n      jump\t// in\n    tag_15:\n      tag_17\n      jump\t// in\n    tag_14:\n      mload(0x40)\n      tag_18\n      swap2\n      swap1\n      tag_19\n      jump\t// in\n    tag_18:\n      mload(0x40)\n      dup1\n      swap2\n      sub\n      swap1\n      return\n        /* \"Perfect,sol.sol\":3427:3684  function RestorebymultipleID(address nft,uint256[] memory tokenid) external {... */\n    tag_3:\n      callvalue\n      dup1\n      iszero\n      tag_20\n      jumpi\n      0x00\n      dup1\n      revert\n    tag_20:\n      pop\n      tag_21\n      0x04\n      dup1\n      calldatasize\n      sub\n      dup2\n      add\n      swap1\n      tag_22\n      swap2\n      swap1\n      tag_23\n      jump\t// in\n    tag_22:\n      tag_24\n      jump\t// in\n    tag_21:\n      stop\n        /* \"Perfect,sol.sol\":3003:3207  function transferBySubContract(... */\n    tag_4:\n      callvalue\n      dup1\n      iszero\n      tag_25\n      jumpi\n      0x00\n      dup1\n      revert\n    tag_25:\n      pop\n      tag_26\n      0x04\n      dup1\n      calldatasize\n      sub\n      dup2\n      add\n      swap1\n      tag_27\n      swap2\n      swap1\n      tag_28\n      jump\t// in\n    tag_27:\n      tag_29\n      jump\t// in\n    tag_26:\n      stop\n        /* \"Perfect,sol.sol\":1857:1881  address[] public minters */\n    tag_5:\n      callvalue\n      dup1\n      iszero\n      tag_30\n      jumpi\n      0x00\n      dup1\n      revert\n    tag_30:\n      pop\n      tag_31\n      0x04\n      dup1\n      calldatasize\n      sub\n      dup2\n      add\n      swap1\n      tag_32\n      swap2\n      swap1\n      tag_33\n      jump\t// in\n    tag_32:\n      tag_34\n      jump\t// in\n    tag_31:\n      mload(0x40)\n      tag_35\n      swap2\n      swap1\n      tag_36\n      jump\t// in\n    tag_35:\n      mload(0x40)\n      dup1\n      swap2\n      sub\n      swap1\n      return\n        /* \"Perfect,sol.sol\":4024:4270  function mint(... */\n    tag_6:\n      callvalue\n      dup1\n      iszero\n      tag_37\n      jumpi\n      0x00\n      dup1\n      revert\n    tag_37:\n      pop\n      tag_38\n      0x04\n      dup1\n      calldatasize\n      sub\n      dup2\n      add\n      swap1\n      tag_39\n      swap2\n      swap1\n      tag_40\n      jump\t// in\n    tag_39:\n      tag_41\n      jump\t// in\n    tag_38:\n      stop\n        /* \"Perfect,sol.sol\":2202:2692  function deploy(uint256 amount) external {... */\n    tag_7:\n      callvalue\n      dup1\n      iszero\n      tag_42\n      jumpi\n      0x00\n      dup1\n      revert\n    tag_42:\n      pop\n      tag_43\n      0x04\n      dup1\n      calldatasize\n      sub\n      dup2\n      add\n      swap1\n      tag_44\n      swap2\n      swap1\n      tag_33\n      jump\t// in\n    tag_44:\n      tag_45\n      jump\t// in\n    tag_43:\n      stop\n        /* \"Perfect,sol.sol\":3213:3422  function RestoreNftFromSubcontract(... */\n    tag_8:\n      callvalue\n      dup1\n      iszero\n      tag_46\n      jumpi\n      0x00\n      dup1\n      revert\n    tag_46:\n      pop\n      tag_47\n      0x04\n      dup1\n      calldatasize\n      sub\n      dup2\n      add\n      swap1\n      tag_48\n      swap2\n      swap1\n      tag_49\n      jump\t// in\n    tag_48:\n      tag_50\n      jump\t// in\n    tag_47:\n      stop\n        /* \"Perfect,sol.sol\":3691:4018  function mintAndTransfer(... */\n    tag_9:\n      callvalue\n      dup1\n      iszero\n      tag_51\n      jumpi\n      0x00\n      dup1\n      revert\n    tag_51:\n      pop\n      tag_52\n      0x04\n      dup1\n      calldatasize\n      sub\n      dup2\n      add\n      swap1\n      tag_53\n      swap2\n      swap1\n      tag_40\n      jump\t// in\n    tag_53:\n      tag_54\n      jump\t// in\n    tag_52:\n      stop\n        /* \"Perfect,sol.sol\":2698:2997  function mintBySubContract(... */\n    tag_10:\n      tag_55\n      0x04\n      dup1\n      calldatasize\n      sub\n      dup2\n      add\n      swap1\n      tag_56\n      swap2\n      swap1\n      tag_40\n      jump\t// in\n    tag_56:\n      tag_57\n      jump\t// in\n    tag_55:\n      stop\n        /* \"Perfect,sol.sol\":1831:1851  address public admin */\n    tag_11:\n      callvalue\n      dup1\n      iszero\n      tag_58\n      jumpi\n      0x00\n      dup1\n      revert\n    tag_58:\n      pop\n      tag_59\n      tag_60\n      jump\t// in\n    tag_59:\n      mload(0x40)\n      tag_61\n      swap2\n      swap1\n      tag_36\n      jump\t// in\n    tag_61:\n      mload(0x40)\n      dup1\n      swap2\n      sub\n      swap1\n      return\n        /* \"Perfect,sol.sol\":4276:4505  function onERC721Received(... */\n    tag_17:\n        /* \"Perfect,sol.sol\":4415:4421  bytes4 */\n      0x00\n        /* \"Perfect,sol.sol\":4443:4451  _tokenId */\n      dup3\n        /* \"Perfect,sol.sol\":4433:4440  tokenId */\n      0x03\n        /* \"Perfect,sol.sol\":4433:4451  tokenId = _tokenId */\n      dup2\n      swap1\n      sstore\n      pop\n        /* \"Perfect,sol.sol\":4468:4498  this.onERC721Received.selector */\n      shl(0xe0, 0x150b7a02)\n        /* \"Perfect,sol.sol\":4461:4498  return this.onERC721Received.selector */\n      swap1\n      pop\n        /* \"Perfect,sol.sol\":4276:4505  function onERC721Received(... */\n      swap5\n      swap4\n      pop\n      pop\n      pop\n      pop\n      jump\t// out\n        /* \"Perfect,sol.sol\":3427:3684  function RestorebymultipleID(address nft,uint256[] memory tokenid) external {... */\n    tag_24:\n        /* \"Perfect,sol.sol\":3513:3528  uint256 _length */\n      0x00\n        /* \"Perfect,sol.sol\":3531:3538  tokenid */\n      dup2\n        /* \"Perfect,sol.sol\":3531:3545  tokenid.length */\n      mload\n        /* \"Perfect,sol.sol\":3513:3545  uint256 _length = tokenid.length */\n      swap1\n      pop\n        /* \"Perfect,sol.sol\":3561:3570  uint256 i */\n      0x00\n        /* \"Perfect,sol.sol\":3556:3679  for (uint256 i = 0; i < _length; i++ ) {... */\n    tag_64:\n        /* \"Perfect,sol.sol\":3580:3587  _length */\n      dup2\n        /* \"Perfect,sol.sol\":3576:3577  i */\n      dup2\n        /* \"Perfect,sol.sol\":3576:3587  i < _length */\n      lt\n        /* \"Perfect,sol.sol\":3556:3679  for (uint256 i = 0; i < _length; i++ ) {... */\n      iszero\n      tag_65\n      jumpi\n        /* \"Perfect,sol.sol\":3617:3620  nft */\n      dup4\n        /* \"Perfect,sol.sol\":3609:3634  IERC721(nft).transferFrom */\n      0xffffffffffffffffffffffffffffffffffffffff\n      and\n      0x23b872dd\n        /* \"Perfect,sol.sol\":3643:3647  this */\n      address\n        /* \"Perfect,sol.sol\":3650:3655  admin */\n      0x00\n      dup1\n      sload\n      swap1\n      0x0100\n      exp\n      swap1\n      div\n      0xffffffffffffffffffffffffffffffffffffffff\n      and\n        /* \"Perfect,sol.sol\":3657:3664  tokenid */\n      dup7\n        /* \"Perfect,sol.sol\":3665:3666  i */\n      dup6\n        /* \"Perfect,sol.sol\":3657:3667  tokenid[i] */\n      dup2\n      mload\n      dup2\n      lt\n      tag_67\n      jumpi\n      tag_68\n      tag_69\n      jump\t// in\n    tag_68:\n    tag_67:\n      0x20\n      mul\n      0x20\n      add\n      add\n      mload\n        /* \"Perfect,sol.sol\":3609:3668  IERC721(nft).transferFrom(address(this), admin, tokenid[i]) */\n      mload(0x40)\n      dup5\n      0xffffffff\n      and\n      0xe0\n      shl\n      dup2\n      mstore\n      0x04\n      add\n      tag_70\n      swap4\n      swap3\n      swap2\n      swap1\n      tag_71\n      jump\t// in\n    tag_70:\n      0x00\n      mload(0x40)\n      dup1\n      dup4\n      sub\n      dup2\n      0x00\n      dup8\n      dup1\n      extcodesize\n      iszero\n      dup1\n      iszero\n      tag_72\n      jumpi\n      0x00\n      dup1\n      revert\n    tag_72:\n      pop\n      gas\n      call\n      iszero\n      dup1\n      iszero\n      tag_74\n      jumpi\n      returndatasize\n      0x00\n      dup1\n      returndatacopy\n      revert(0x00, returndatasize)\n    tag_74:\n      pop\n      pop\n      pop\n      pop\n        /* \"Perfect,sol.sol\":3589:3592  i++ */\n      dup1\n      dup1\n      tag_75\n      swap1\n      tag_76\n      jump\t// in\n    tag_75:\n      swap2\n      pop\n      pop\n        /* \"Perfect,sol.sol\":3556:3679  for (uint256 i = 0; i < _length; i++ ) {... */\n      jump(tag_64)\n    tag_65:\n      pop\n        /* \"Perfect,sol.sol\":3503:3684  {... */\n      pop\n        /* \"Perfect,sol.sol\":3427:3684  function RestorebymultipleID(address nft,uint256[] memory tokenid) external {... */\n      pop\n      pop\n      jump\t// out\n        /* \"Perfect,sol.sol\":3003:3207  function transferBySubContract(... */\n    tag_29:\n        /* \"Perfect,sol.sol\":3108:3117  uint256 i */\n      0x00\n        /* \"Perfect,sol.sol\":3104:3201  for(uint256 i = 0; i < amount; i ++) {... */\n    tag_78:\n        /* \"Perfect,sol.sol\":3127:3133  amount */\n      dup2\n        /* \"Perfect,sol.sol\":3123:3124  i */\n      dup2\n        /* \"Perfect,sol.sol\":3123:3133  i < amount */\n      lt\n        /* \"Perfect,sol.sol\":3104:3201  for(uint256 i = 0; i < amount; i ++) {... */\n      iszero\n      tag_79\n      jumpi\n        /* \"Perfect,sol.sol\":3165:3172  minters */\n      0x01\n        /* \"Perfect,sol.sol\":3173:3174  i */\n      dup2\n        /* \"Perfect,sol.sol\":3165:3175  minters[i] */\n      dup2\n      sload\n      dup2\n      lt\n      tag_81\n      jumpi\n      tag_82\n      tag_69\n      jump\t// in\n    tag_82:\n    tag_81:\n      swap1\n      0x00\n      mstore\n      keccak256(0x00, 0x20)\n      add\n      0x00\n      swap1\n      sload\n      swap1\n      0x0100\n      exp\n      swap1\n      div\n      0xffffffffffffffffffffffffffffffffffffffff\n      and\n        /* \"Perfect,sol.sol\":3155:3185  NftMinter(minters[i]).transfer */\n      0xffffffffffffffffffffffffffffffffffffffff\n      and\n      0x1a695230\n        /* \"Perfect,sol.sol\":3186:3189  nft */\n      dup5\n        /* \"Perfect,sol.sol\":3155:3190  NftMinter(minters[i]).transfer(nft) */\n      mload(0x40)\n      dup3\n      0xffffffff\n      and\n      0xe0\n      shl\n      dup2\n      mstore\n      0x04\n      add\n      tag_84\n      swap2\n      swap1\n      tag_36\n      jump\t// in\n    tag_84:\n      0x00\n      mload(0x40)\n      dup1\n      dup4\n      sub\n      dup2\n      0x00\n      dup8\n      dup1\n      extcodesize\n      iszero\n      dup1\n      iszero\n      tag_85\n      jumpi\n      0x00\n      dup1\n      revert\n    tag_85:\n      pop\n      gas\n      call\n      iszero\n      dup1\n      iszero\n      tag_87\n      jumpi\n      returndatasize\n      0x00\n      dup1\n      returndatacopy\n      revert(0x00, returndatasize)\n    tag_87:\n      pop\n      pop\n      pop\n      pop\n        /* \"Perfect,sol.sol\":3135:3139  i ++ */\n      dup1\n      dup1\n      tag_88\n      swap1\n      tag_76\n      jump\t// in\n    tag_88:\n      swap2\n      pop\n      pop\n        /* \"Perfect,sol.sol\":3104:3201  for(uint256 i = 0; i < amount; i ++) {... */\n      jump(tag_78)\n    tag_79:\n      pop\n        /* \"Perfect,sol.sol\":3003:3207  function transferBySubContract(... */\n      pop\n      pop\n      jump\t// out\n        /* \"Perfect,sol.sol\":1857:1881  address[] public minters */\n    tag_34:\n      0x01\n      dup2\n      dup2\n      sload\n      dup2\n      lt\n      tag_89\n      jumpi\n      0x00\n      dup1\n      revert\n    tag_89:\n      swap1\n      0x00\n      mstore\n      keccak256(0x00, 0x20)\n      add\n      0x00\n      swap2\n      pop\n      sload\n      swap1\n      0x0100\n      exp\n      swap1\n      div\n      0xffffffffffffffffffffffffffffffffffffffff\n      and\n      dup2\n      jump\t// out\n        /* \"Perfect,sol.sol\":4024:4270  function mint(... */\n    tag_41:\n        /* \"Perfect,sol.sol\":4142:4151  uint256 i */\n      0x00\n        /* \"Perfect,sol.sol\":4138:4264  for(uint256 i = 0; i < amount; i ++) {... */\n    tag_92:\n        /* \"Perfect,sol.sol\":4161:4167  amount */\n      dup4\n        /* \"Perfect,sol.sol\":4157:4158  i */\n      dup2\n        /* \"Perfect,sol.sol\":4157:4167  i < amount */\n      lt\n        /* \"Perfect,sol.sol\":4138:4264  for(uint256 i = 0; i < amount; i ++) {... */\n      iszero\n      tag_93\n      jumpi\n        /* \"Perfect,sol.sol\":4190:4202  bool success */\n      0x00\n        /* \"Perfect,sol.sol\":4208:4211  nft */\n      dup6\n        /* \"Perfect,sol.sol\":4208:4216  nft.call */\n      0xffffffffffffffffffffffffffffffffffffffff\n      and\n        /* \"Perfect,sol.sol\":4217:4222  param */\n      dup5\n      dup5\n        /* \"Perfect,sol.sol\":4208:4223  nft.call(param) */\n      mload(0x40)\n      tag_95\n      swap3\n      swap2\n      swap1\n      tag_96\n      jump\t// in\n    tag_95:\n      0x00\n      mload(0x40)\n      dup1\n      dup4\n      sub\n      dup2\n      0x00\n      dup7\n      gas\n      call\n      swap2\n      pop\n      pop\n      returndatasize\n      dup1\n      0x00\n      dup2\n      eq\n      tag_99\n      jumpi\n      mload(0x40)\n      swap2\n      pop\n      and(add(returndatasize, 0x3f), not(0x1f))\n      dup3\n      add\n      0x40\n      mstore\n      returndatasize\n      dup3\n      mstore\n      returndatasize\n      0x00\n      0x20\n      dup5\n      add\n      returndatacopy\n      jump(tag_98)\n    tag_99:\n      0x60\n      swap2\n      pop\n    tag_98:\n      pop\n        /* \"Perfect,sol.sol\":4189:4223  (bool success, ) = nft.call(param) */\n      pop\n      swap1\n      pop\n        /* \"Perfect,sol.sol\":4245:4252  success */\n      dup1\n        /* \"Perfect,sol.sol\":4237:4253  require(success) */\n      tag_100\n      jumpi\n      0x00\n      dup1\n      revert\n    tag_100:\n        /* \"Perfect,sol.sol\":4175:4264  {... */\n      pop\n        /* \"Perfect,sol.sol\":4169:4173  i ++ */\n      dup1\n      dup1\n      tag_101\n      swap1\n      tag_76\n      jump\t// in\n    tag_101:\n      swap2\n      pop\n      pop\n        /* \"Perfect,sol.sol\":4138:4264  for(uint256 i = 0; i < amount; i ++) {... */\n      jump(tag_92)\n    tag_93:\n      pop\n        /* \"Perfect,sol.sol\":4024:4270  function mint(... */\n      pop\n      pop\n      pop\n      pop\n      jump\t// out\n        /* \"Perfect,sol.sol\":2202:2692  function deploy(uint256 amount) external {... */\n    tag_45:\n        /* \"Perfect,sol.sol\":2253:2274  bytes memory bytecode */\n      0x00\n        /* \"Perfect,sol.sol\":2277:2290  getBytecode() */\n      tag_103\n        /* \"Perfect,sol.sol\":2277:2288  getBytecode */\n      tag_104\n        /* \"Perfect,sol.sol\":2277:2290  getBytecode() */\n      jump\t// in\n    tag_103:\n        /* \"Perfect,sol.sol\":2253:2290  bytes memory bytecode = getBytecode() */\n      swap1\n      pop\n        /* \"Perfect,sol.sol\":2304:2313  uint256 i */\n      0x00\n        /* \"Perfect,sol.sol\":2300:2686  for(uint256 i = 0; i < amount; i ++) {... */\n    tag_105:\n        /* \"Perfect,sol.sol\":2323:2329  amount */\n      dup3\n        /* \"Perfect,sol.sol\":2319:2320  i */\n      dup2\n        /* \"Perfect,sol.sol\":2319:2329  i < amount */\n      lt\n        /* \"Perfect,sol.sol\":2300:2686  for(uint256 i = 0; i < amount; i ++) {... */\n      iszero\n      tag_106\n      jumpi\n        /* \"Perfect,sol.sol\":2351:2363  address addr */\n      0x00\n        /* \"Perfect,sol.sol\":2377:2390  uint256 _salt */\n      dup1\n        /* \"Perfect,sol.sol\":2393:2397  salt */\n      sload(0x02)\n        /* \"Perfect,sol.sol\":2377:2397  uint256 _salt = salt */\n      swap1\n      pop\n        /* \"Perfect,sol.sol\":2505:2510  _salt */\n      dup1\n        /* \"Perfect,sol.sol\":2494:2502  bytecode */\n      dup5\n        /* \"Perfect,sol.sol\":2488:2503  mload(bytecode) */\n      mload\n        /* \"Perfect,sol.sol\":2481:2485  0x20 */\n      0x20\n        /* \"Perfect,sol.sol\":2471:2479  bytecode */\n      dup7\n        /* \"Perfect,sol.sol\":2467:2486  add(bytecode, 0x20) */\n      add\n        /* \"Perfect,sol.sol\":2454:2465  callvalue() */\n      callvalue\n        /* \"Perfect,sol.sol\":2446:2511  create2(callvalue(), add(bytecode, 0x20), mload(bytecode), _salt) */\n      create2\n        /* \"Perfect,sol.sol\":2438:2511  addr := create2(callvalue(), add(bytecode, 0x20), mload(bytecode), _salt) */\n      swap2\n      pop\n        /* \"Perfect,sol.sol\":2551:2555  addr */\n      dup2\n        /* \"Perfect,sol.sol\":2539:2556  extcodesize(addr) */\n      extcodesize\n        /* \"Perfect,sol.sol\":2529:2610  if iszero(extcodesize(addr)) {... */\n      tag_108\n      jumpi\n        /* \"Perfect,sol.sol\":2590:2591  0 */\n      0x00\n        /* \"Perfect,sol.sol\":2587:2588  0 */\n      dup1\n        /* \"Perfect,sol.sol\":2580:2592  revert(0, 0) */\n      revert\n        /* \"Perfect,sol.sol\":2529:2610  if iszero(extcodesize(addr)) {... */\n    tag_108:\n        /* \"Perfect,sol.sol\":2637:2644  minters */\n      0x01\n        /* \"Perfect,sol.sol\":2650:2654  addr */\n      dup3\n        /* \"Perfect,sol.sol\":2637:2655  minters.push(addr) */\n      swap1\n      dup1\n      0x01\n      dup2\n      sload\n      add\n      dup1\n      dup3\n      sstore\n      dup1\n      swap2\n      pop\n      pop\n      0x01\n      swap1\n      sub\n      swap1\n      0x00\n      mstore\n      keccak256(0x00, 0x20)\n      add\n      0x00\n      swap1\n      swap2\n      swap1\n      swap2\n      swap1\n      swap2\n      0x0100\n      exp\n      dup2\n      sload\n      dup2\n      0xffffffffffffffffffffffffffffffffffffffff\n      mul\n      not\n      and\n      swap1\n      dup4\n      0xffffffffffffffffffffffffffffffffffffffff\n      and\n      mul\n      or\n      swap1\n      sstore\n      pop\n        /* \"Perfect,sol.sol\":2669:2673  salt */\n      0x02\n      0x00\n        /* \"Perfect,sol.sol\":2669:2675  salt++ */\n      dup2\n      sload\n      dup1\n      swap3\n      swap2\n      swap1\n      tag_110\n      swap1\n      tag_76\n      jump\t// in\n    tag_110:\n      swap2\n      swap1\n      pop\n      sstore\n      pop\n        /* \"Perfect,sol.sol\":2337:2686  {... */\n      pop\n      pop\n        /* \"Perfect,sol.sol\":2331:2335  i ++ */\n      dup1\n      dup1\n      tag_111\n      swap1\n      tag_76\n      jump\t// in\n    tag_111:\n      swap2\n      pop\n      pop\n        /* \"Perfect,sol.sol\":2300:2686  for(uint256 i = 0; i < amount; i ++) {... */\n      jump(tag_105)\n    tag_106:\n      pop\n        /* \"Perfect,sol.sol\":2243:2692  {... */\n      pop\n        /* \"Perfect,sol.sol\":2202:2692  function deploy(uint256 amount) external {... */\n      pop\n      jump\t// out\n        /* \"Perfect,sol.sol\":3213:3422  function RestoreNftFromSubcontract(... */\n    tag_50:\n        /* \"Perfect,sol.sol\":3360:3367  minters */\n      0x01\n        /* \"Perfect,sol.sol\":3368:3381  subcontractId */\n      dup2\n        /* \"Perfect,sol.sol\":3360:3382  minters[subcontractId] */\n      dup2\n      sload\n      dup2\n      lt\n      tag_113\n      jumpi\n      tag_114\n      tag_69\n      jump\t// in\n    tag_114:\n    tag_113:\n      swap1\n      0x00\n      mstore\n      keccak256(0x00, 0x20)\n      add\n      0x00\n      swap1\n      sload\n      swap1\n      0x0100\n      exp\n      swap1\n      div\n      0xffffffffffffffffffffffffffffffffffffffff\n      and\n        /* \"Perfect,sol.sol\":3350:3403  NftMinter(minters[subcontractId]).RestorebymultipleID */\n      0xffffffffffffffffffffffffffffffffffffffff\n      and\n      0x3e1a037c\n        /* \"Perfect,sol.sol\":3404:3407  nft */\n      dup5\n        /* \"Perfect,sol.sol\":3408:3415  tokenid */\n      dup5\n        /* \"Perfect,sol.sol\":3350:3416  NftMinter(minters[subcontractId]).RestorebymultipleID(nft,tokenid) */\n      mload(0x40)\n      dup4\n      0xffffffff\n      and\n      0xe0\n      shl\n      dup2\n      mstore\n      0x04\n      add\n      tag_116\n      swap3\n      swap2\n      swap1\n      tag_117\n      jump\t// in\n    tag_116:\n      0x00\n      mload(0x40)\n      dup1\n      dup4\n      sub\n      dup2\n      0x00\n      dup8\n      dup1\n      extcodesize\n      iszero\n      dup1\n      iszero\n      tag_118\n      jumpi\n      0x00\n      dup1\n      revert\n    tag_118:\n      pop\n      gas\n      call\n      iszero\n      dup1\n      iszero\n      tag_120\n      jumpi\n      returndatasize\n      0x00\n      dup1\n      returndatacopy\n      revert(0x00, returndatasize)\n    tag_120:\n      pop\n      pop\n      pop\n      pop\n        /* \"Perfect,sol.sol\":3213:3422  function RestoreNftFromSubcontract(... */\n      pop\n      pop\n      pop\n      jump\t// out\n        /* \"Perfect,sol.sol\":3691:4018  function mintAndTransfer(... */\n    tag_54:\n        /* \"Perfect,sol.sol\":3820:3829  uint256 i */\n      0x00\n        /* \"Perfect,sol.sol\":3816:4012  for(uint256 i = 0; i < amount; i ++) {... */\n    tag_122:\n        /* \"Perfect,sol.sol\":3839:3845  amount */\n      dup4\n        /* \"Perfect,sol.sol\":3835:3836  i */\n      dup2\n        /* \"Perfect,sol.sol\":3835:3845  i < amount */\n      lt\n        /* \"Perfect,sol.sol\":3816:4012  for(uint256 i = 0; i < amount; i ++) {... */\n      iszero\n      tag_123\n      jumpi\n        /* \"Perfect,sol.sol\":3868:3880  bool success */\n      0x00\n        /* \"Perfect,sol.sol\":3886:3889  nft */\n      dup6\n        /* \"Perfect,sol.sol\":3886:3894  nft.call */\n      0xffffffffffffffffffffffffffffffffffffffff\n      and\n        /* \"Perfect,sol.sol\":3895:3900  param */\n      dup5\n      dup5\n        /* \"Perfect,sol.sol\":3886:3901  nft.call(param) */\n      mload(0x40)\n      tag_125\n      swap3\n      swap2\n      swap1\n      tag_96\n      jump\t// in\n    tag_125:\n      0x00\n      mload(0x40)\n      dup1\n      dup4\n      sub\n      dup2\n      0x00\n      dup7\n      gas\n      call\n      swap2\n      pop\n      pop\n      returndatasize\n      dup1\n      0x00\n      dup2\n      eq\n      tag_128\n      jumpi\n      mload(0x40)\n      swap2\n      pop\n      and(add(returndatasize, 0x3f), not(0x1f))\n      dup3\n      add\n      0x40\n      mstore\n      returndatasize\n      dup3\n      mstore\n      returndatasize\n      0x00\n      0x20\n      dup5\n      add\n      returndatacopy\n      jump(tag_127)\n    tag_128:\n      0x60\n      swap2\n      pop\n    tag_127:\n      pop\n        /* \"Perfect,sol.sol\":3867:3901  (bool success, ) = nft.call(param) */\n      pop\n      swap1\n      pop\n        /* \"Perfect,sol.sol\":3923:3930  success */\n      dup1\n        /* \"Perfect,sol.sol\":3915:3931  require(success) */\n      tag_129\n      jumpi\n      0x00\n      dup1\n      revert\n    tag_129:\n        /* \"Perfect,sol.sol\":3953:3956  nft */\n      dup6\n        /* \"Perfect,sol.sol\":3945:3970  IERC721(nft).transferFrom */\n      0xffffffffffffffffffffffffffffffffffffffff\n      and\n      0x23b872dd\n        /* \"Perfect,sol.sol\":3979:3983  this */\n      address\n        /* \"Perfect,sol.sol\":3986:3991  admin */\n      0x00\n      dup1\n      sload\n      swap1\n      0x0100\n      exp\n      swap1\n      div\n      0xffffffffffffffffffffffffffffffffffffffff\n      and\n        /* \"Perfect,sol.sol\":3993:4000  tokenId */\n      sload(0x03)\n        /* \"Perfect,sol.sol\":3945:4001  IERC721(nft).transferFrom(address(this), admin, tokenId) */\n      mload(0x40)\n      dup5\n      0xffffffff\n      and\n      0xe0\n      shl\n      dup2\n      mstore\n      0x04\n      add\n      tag_130\n      swap4\n      swap3\n      swap2\n      swap1\n      tag_71\n      jump\t// in\n    tag_130:\n      0x00\n      mload(0x40)\n      dup1\n      dup4\n      sub\n      dup2\n      0x00\n      dup8\n      dup1\n      extcodesize\n      iszero\n      dup1\n      iszero\n      tag_131\n      jumpi\n      0x00\n      dup1\n      revert\n    tag_131:\n      pop\n      gas\n      call\n      iszero\n      dup1\n      iszero\n      tag_133\n      jumpi\n      returndatasize\n      0x00\n      dup1\n      returndatacopy\n      revert(0x00, returndatasize)\n    tag_133:\n      pop\n      pop\n      pop\n      pop\n        /* \"Perfect,sol.sol\":3853:4012  {... */\n      pop\n        /* \"Perfect,sol.sol\":3847:3851  i ++ */\n      dup1\n      dup1\n      tag_134\n      swap1\n      tag_76\n      jump\t// in\n    tag_134:\n      swap2\n      pop\n      pop\n        /* \"Perfect,sol.sol\":3816:4012  for(uint256 i = 0; i < amount; i ++) {... */\n      jump(tag_122)\n    tag_123:\n      pop\n        /* \"Perfect,sol.sol\":3691:4018  function mintAndTransfer(... */\n      pop\n      pop\n      pop\n      pop\n      jump\t// out\n        /* \"Perfect,sol.sol\":2698:2997  function mintBySubContract(... */\n    tag_57:\n        /* \"Perfect,sol.sol\":2833:2846  uint256 price */\n      0x00\n        /* \"Perfect,sol.sol\":2861:2867  amount */\n      dup4\n        /* \"Perfect,sol.sol\":2849:2858  msg.value */\n      callvalue\n        /* \"Perfect,sol.sol\":2849:2867  msg.value / amount */\n      tag_136\n      swap2\n      swap1\n      tag_137\n      jump\t// in\n    tag_136:\n        /* \"Perfect,sol.sol\":2833:2867  uint256 price = msg.value / amount */\n      swap1\n      pop\n        /* \"Perfect,sol.sol\":2881:2890  uint256 i */\n      0x00\n        /* \"Perfect,sol.sol\":2877:2991  for(uint256 i = 0; i < amount; i ++) {... */\n    tag_138:\n        /* \"Perfect,sol.sol\":2900:2906  amount */\n      dup5\n        /* \"Perfect,sol.sol\":2896:2897  i */\n      dup2\n        /* \"Perfect,sol.sol\":2896:2906  i < amount */\n      lt\n        /* \"Perfect,sol.sol\":2877:2991  for(uint256 i = 0; i < amount; i ++) {... */\n      iszero\n      tag_139\n      jumpi\n        /* \"Perfect,sol.sol\":2938:2945  minters */\n      0x01\n        /* \"Perfect,sol.sol\":2946:2947  i */\n      dup2\n        /* \"Perfect,sol.sol\":2938:2948  minters[i] */\n      dup2\n      sload\n      dup2\n      lt\n      tag_141\n      jumpi\n      tag_142\n      tag_69\n      jump\t// in\n    tag_142:\n    tag_141:\n      swap1\n      0x00\n      mstore\n      keccak256(0x00, 0x20)\n      add\n      0x00\n      swap1\n      sload\n      swap1\n      0x0100\n      exp\n      swap1\n      div\n      0xffffffffffffffffffffffffffffffffffffffff\n      and\n        /* \"Perfect,sol.sol\":2928:2954  NftMinter(minters[i]).mint */\n      0xffffffffffffffffffffffffffffffffffffffff\n      and\n      0xb510391f\n        /* \"Perfect,sol.sol\":2962:2967  price */\n      dup4\n        /* \"Perfect,sol.sol\":2969:2972  nft */\n      dup9\n        /* \"Perfect,sol.sol\":2974:2979  param */\n      dup8\n      dup8\n        /* \"Perfect,sol.sol\":2928:2980  NftMinter(minters[i]).mint{value: price}(nft, param) */\n      mload(0x40)\n      dup6\n      0xffffffff\n      and\n      0xe0\n      shl\n      dup2\n      mstore\n      0x04\n      add\n      tag_144\n      swap4\n      swap3\n      swap2\n      swap1\n      tag_145\n      jump\t// in\n    tag_144:\n      0x00\n      mload(0x40)\n      dup1\n      dup4\n      sub\n      dup2\n      dup6\n      dup9\n      dup1\n      extcodesize\n      iszero\n      dup1\n      iszero\n      tag_146\n      jumpi\n      0x00\n      dup1\n      revert\n    tag_146:\n      pop\n      gas\n      call\n      iszero\n      dup1\n      iszero\n      tag_148\n      jumpi\n      returndatasize\n      0x00\n      dup1\n      returndatacopy\n      revert(0x00, returndatasize)\n    tag_148:\n      pop\n      pop\n      pop\n      pop\n      pop\n        /* \"Perfect,sol.sol\":2908:2912  i ++ */\n      dup1\n      dup1\n      tag_149\n      swap1\n      tag_76\n      jump\t// in\n    tag_149:\n      swap2\n      pop\n      pop\n        /* \"Perfect,sol.sol\":2877:2991  for(uint256 i = 0; i < amount; i ++) {... */\n      jump(tag_138)\n    tag_139:\n      pop\n        /* \"Perfect,sol.sol\":2823:2997  {... */\n      pop\n        /* \"Perfect,sol.sol\":2698:2997  function mintBySubContract(... */\n      pop\n      pop\n      pop\n      pop\n      jump\t// out\n        /* \"Perfect,sol.sol\":1831:1851  address public admin */\n    tag_60:\n      0x00\n      dup1\n      sload\n      swap1\n      0x0100\n      exp\n      swap1\n      div\n      0xffffffffffffffffffffffffffffffffffffffff\n      and\n      dup2\n      jump\t// out\n        /* \"Perfect,sol.sol\":1996:2196  function getBytecode() internal view returns (bytes memory) {... */\n    tag_104:\n        /* \"Perfect,sol.sol\":2042:2054  bytes memory */\n      0x60\n        /* \"Perfect,sol.sol\":2066:2087  bytes memory bytecode */\n      0x00\n        /* \"Perfect,sol.sol\":2090:2118  type(NftMinter).creationCode */\n      mload(0x40)\n      dup1\n      0x20\n      add\n      tag_151\n      swap1\n      tag_152\n      jump\t// in\n    tag_151:\n      0x20\n      dup3\n      add\n      dup2\n      sub\n      dup3\n      mstore\n      not(0x1f)\n      0x1f\n      dup3\n      add\n      and\n      0x40\n      mstore\n      pop\n        /* \"Perfect,sol.sol\":2066:2118  bytes memory bytecode = type(NftMinter).creationCode */\n      swap1\n      pop\n        /* \"Perfect,sol.sol\":2161:2169  bytecode */\n      dup1\n        /* \"Perfect,sol.sol\":2182:2187  admin */\n      0x00\n      dup1\n      sload\n      swap1\n      0x0100\n      exp\n      swap1\n      div\n      0xffffffffffffffffffffffffffffffffffffffff\n      and\n        /* \"Perfect,sol.sol\":2171:2188  abi.encode(admin) */\n      add(0x20, mload(0x40))\n      tag_153\n      swap2\n      swap1\n      tag_36\n      jump\t// in\n    tag_153:\n      mload(0x40)\n      0x20\n      dup2\n      dup4\n      sub\n      sub\n      dup2\n      mstore\n      swap1\n      0x40\n      mstore\n        /* \"Perfect,sol.sol\":2144:2189  abi.encodePacked(bytecode, abi.encode(admin)) */\n      add(0x20, mload(0x40))\n      tag_154\n      swap3\n      swap2\n      swap1\n      tag_155\n      jump\t// in\n    tag_154:\n      mload(0x40)\n      0x20\n      dup2\n      dup4\n      sub\n      sub\n      dup2\n      mstore\n      swap1\n      0x40\n      mstore\n        /* \"Perfect,sol.sol\":2137:2189  return abi.encodePacked(bytecode, abi.encode(admin)) */\n      swap2\n      pop\n      pop\n        /* \"Perfect,sol.sol\":1996:2196  function getBytecode() internal view returns (bytes memory) {... */\n      swap1\n      jump\t// out\n    tag_152:\n      dataSize(sub_0)\n      dup1\n      dataOffset(sub_0)\n      dup4\n      codecopy\n      add\n      swap1\n      jump\t// out\n        /* \"#utility.yul\":7:82   */\n    tag_156:\n        /* \"#utility.yul\":40:46   */\n      0x00\n        /* \"#utility.yul\":73:75   */\n      0x40\n        /* \"#utility.yul\":67:76   */\n      mload\n        /* \"#utility.yul\":57:76   */\n      swap1\n      pop\n        /* \"#utility.yul\":7:82   */\n      swap1\n      jump\t// out\n        /* \"#utility.yul\":88:205   */\n    tag_157:\n        /* \"#utility.yul\":197:198   */\n      0x00\n        /* \"#utility.yul\":194:195   */\n      dup1\n        /* \"#utility.yul\":187:199   */\n      revert\n        /* \"#utility.yul\":211:328   */\n    tag_158:\n        /* \"#utility.yul\":320:321   */\n      0x00\n        /* \"#utility.yul\":317:318   */\n      dup1\n        /* \"#utility.yul\":310:322   */\n      revert\n        /* \"#utility.yul\":334:460   */\n    tag_159:\n        /* \"#utility.yul\":371:378   */\n      0x00\n        /* \"#utility.yul\":411:453   */\n      0xffffffffffffffffffffffffffffffffffffffff\n        /* \"#utility.yul\":404:409   */\n      dup3\n        /* \"#utility.yul\":400:454   */\n      and\n        /* \"#utility.yul\":389:454   */\n      swap1\n      pop\n        /* \"#utility.yul\":334:460   */\n      swap2\n      swap1\n      pop\n      jump\t// out\n        /* \"#utility.yul\":466:562   */\n    tag_160:\n        /* \"#utility.yul\":503:510   */\n      0x00\n        /* \"#utility.yul\":532:556   */\n      tag_208\n        /* \"#utility.yul\":550:555   */\n      dup3\n        /* \"#utility.yul\":532:556   */\n      tag_159\n      jump\t// in\n    tag_208:\n        /* \"#utility.yul\":521:556   */\n      swap1\n      pop\n        /* \"#utility.yul\":466:562   */\n      swap2\n      swap1\n      pop\n      jump\t// out\n        /* \"#utility.yul\":568:690   */\n    tag_161:\n        /* \"#utility.yul\":641:665   */\n      tag_210\n        /* \"#utility.yul\":659:664   */\n      dup2\n        /* \"#utility.yul\":641:665   */\n      tag_160\n      jump\t// in\n    tag_210:\n        /* \"#utility.yul\":634:639   */\n      dup2\n        /* \"#utility.yul\":631:666   */\n      eq\n        /* \"#utility.yul\":621:684   */\n      tag_211\n      jumpi\n        /* \"#utility.yul\":680:681   */\n      0x00\n        /* \"#utility.yul\":677:678   */\n      dup1\n        /* \"#utility.yul\":670:682   */\n      revert\n        /* \"#utility.yul\":621:684   */\n    tag_211:\n        /* \"#utility.yul\":568:690   */\n      pop\n      jump\t// out\n        /* \"#utility.yul\":696:835   */\n    tag_162:\n        /* \"#utility.yul\":742:747   */\n      0x00\n        /* \"#utility.yul\":780:786   */\n      dup2\n        /* \"#utility.yul\":767:787   */\n      calldataload\n        /* \"#utility.yul\":758:787   */\n      swap1\n      pop\n        /* \"#utility.yul\":796:829   */\n      tag_213\n        /* \"#utility.yul\":823:828   */\n      dup2\n        /* \"#utility.yul\":796:829   */\n      tag_161\n      jump\t// in\n    tag_213:\n        /* \"#utility.yul\":696:835   */\n      swap3\n      swap2\n      pop\n      pop\n      jump\t// out\n        /* \"#utility.yul\":841:918   */\n    tag_163:\n        /* \"#utility.yul\":878:885   */\n      0x00\n        /* \"#utility.yul\":907:912   */\n      dup2\n        /* \"#utility.yul\":896:912   */\n      swap1\n      pop\n        /* \"#utility.yul\":841:918   */\n      swap2\n      swap1\n      pop\n      jump\t// out\n        /* \"#utility.yul\":924:1046   */\n    tag_164:\n        /* \"#utility.yul\":997:1021   */\n      tag_216\n        /* \"#utility.yul\":1015:1020   */\n      dup2\n        /* \"#utility.yul\":997:1021   */\n      tag_163\n      jump\t// in\n    tag_216:\n        /* \"#utility.yul\":990:995   */\n      dup2\n        /* \"#utility.yul\":987:1022   */\n      eq\n        /* \"#utility.yul\":977:1040   */\n      tag_217\n      jumpi\n        /* \"#utility.yul\":1036:1037   */\n      0x00\n        /* \"#utility.yul\":1033:1034   */\n      dup1\n        /* \"#utility.yul\":1026:1038   */\n      revert\n        /* \"#utility.yul\":977:1040   */\n    tag_217:\n        /* \"#utility.yul\":924:1046   */\n      pop\n      jump\t// out\n        /* \"#utility.yul\":1052:1191   */\n    tag_165:\n        /* \"#utility.yul\":1098:1103   */\n      0x00\n        /* \"#utility.yul\":1136:1142   */\n      dup2\n        /* \"#utility.yul\":1123:1143   */\n      calldataload\n        /* \"#utility.yul\":1114:1143   */\n      swap1\n      pop\n        /* \"#utility.yul\":1152:1185   */\n      tag_219\n        /* \"#utility.yul\":1179:1184   */\n      dup2\n        /* \"#utility.yul\":1152:1185   */\n      tag_164\n      jump\t// in\n    tag_219:\n        /* \"#utility.yul\":1052:1191   */\n      swap3\n      swap2\n      pop\n      pop\n      jump\t// out\n        /* \"#utility.yul\":1197:1314   */\n    tag_166:\n        /* \"#utility.yul\":1306:1307   */\n      0x00\n        /* \"#utility.yul\":1303:1304   */\n      dup1\n        /* \"#utility.yul\":1296:1308   */\n      revert\n        /* \"#utility.yul\":1320:1437   */\n    tag_167:\n        /* \"#utility.yul\":1429:1430   */\n      0x00\n        /* \"#utility.yul\":1426:1427   */\n      dup1\n        /* \"#utility.yul\":1419:1431   */\n      revert\n        /* \"#utility.yul\":1443:1545   */\n    tag_168:\n        /* \"#utility.yul\":1484:1490   */\n      0x00\n        /* \"#utility.yul\":1535:1537   */\n      0x1f\n        /* \"#utility.yul\":1531:1538   */\n      not\n        /* \"#utility.yul\":1526:1528   */\n      0x1f\n        /* \"#utility.yul\":1519:1524   */\n      dup4\n        /* \"#utility.yul\":1515:1529   */\n      add\n        /* \"#utility.yul\":1511:1539   */\n      and\n        /* \"#utility.yul\":1501:1539   */\n      swap1\n      pop\n        /* \"#utility.yul\":1443:1545   */\n      swap2\n      swap1\n      pop\n      jump\t// out\n        /* \"#utility.yul\":1551:1731   */\n    tag_169:\n        /* \"#utility.yul\":1599:1676   */\n      0x4e487b7100000000000000000000000000000000000000000000000000000000\n        /* \"#utility.yul\":1596:1597   */\n      0x00\n        /* \"#utility.yul\":1589:1677   */\n      mstore\n        /* \"#utility.yul\":1696:1700   */\n      0x41\n        /* \"#utility.yul\":1693:1694   */\n      0x04\n        /* \"#utility.yul\":1686:1701   */\n      mstore\n        /* \"#utility.yul\":1720:1724   */\n      0x24\n        /* \"#utility.yul\":1717:1718   */\n      0x00\n        /* \"#utility.yul\":1710:1725   */\n      revert\n        /* \"#utility.yul\":1737:2018   */\n    tag_170:\n        /* \"#utility.yul\":1820:1847   */\n      tag_225\n        /* \"#utility.yul\":1842:1846   */\n      dup3\n        /* \"#utility.yul\":1820:1847   */\n      tag_168\n      jump\t// in\n    tag_225:\n        /* \"#utility.yul\":1812:1818   */\n      dup2\n        /* \"#utility.yul\":1808:1848   */\n      add\n        /* \"#utility.yul\":1950:1956   */\n      dup2\n        /* \"#utility.yul\":1938:1948   */\n      dup2\n        /* \"#utility.yul\":1935:1957   */\n      lt\n        /* \"#utility.yul\":1914:1932   */\n      0xffffffffffffffff\n        /* \"#utility.yul\":1902:1912   */\n      dup3\n        /* \"#utility.yul\":1899:1933   */\n      gt\n        /* \"#utility.yul\":1896:1958   */\n      or\n        /* \"#utility.yul\":1893:1981   */\n      iszero\n      tag_226\n      jumpi\n        /* \"#utility.yul\":1961:1979   */\n      tag_227\n      tag_169\n      jump\t// in\n    tag_227:\n        /* \"#utility.yul\":1893:1981   */\n    tag_226:\n        /* \"#utility.yul\":2001:2011   */\n      dup1\n        /* \"#utility.yul\":1997:1999   */\n      0x40\n        /* \"#utility.yul\":1990:2012   */\n      mstore\n        /* \"#utility.yul\":1780:2018   */\n      pop\n        /* \"#utility.yul\":1737:2018   */\n      pop\n      pop\n      jump\t// out\n        /* \"#utility.yul\":2024:2153   */\n    tag_171:\n        /* \"#utility.yul\":2058:2064   */\n      0x00\n        /* \"#utility.yul\":2085:2105   */\n      tag_229\n      tag_156\n      jump\t// in\n    tag_229:\n        /* \"#utility.yul\":2075:2105   */\n      swap1\n      pop\n        /* \"#utility.yul\":2114:2147   */\n      tag_230\n        /* \"#utility.yul\":2142:2146   */\n      dup3\n        /* \"#utility.yul\":2134:2140   */\n      dup3\n        /* \"#utility.yul\":2114:2147   */\n      tag_170\n      jump\t// in\n    tag_230:\n        /* \"#utility.yul\":2024:2153   */\n      swap2\n      swap1\n      pop\n      jump\t// out\n        /* \"#utility.yul\":2159:2466   */\n    tag_172:\n        /* \"#utility.yul\":2220:2224   */\n      0x00\n        /* \"#utility.yul\":2310:2328   */\n      0xffffffffffffffff\n        /* \"#utility.yul\":2302:2308   */\n      dup3\n        /* \"#utility.yul\":2299:2329   */\n      gt\n        /* \"#utility.yul\":2296:2352   */\n      iszero\n      tag_232\n      jumpi\n        /* \"#utility.yul\":2332:2350   */\n      tag_233\n      tag_169\n      jump\t// in\n    tag_233:\n        /* \"#utility.yul\":2296:2352   */\n    tag_232:\n        /* \"#utility.yul\":2370:2399   */\n      tag_234\n        /* \"#utility.yul\":2392:2398   */\n      dup3\n        /* \"#utility.yul\":2370:2399   */\n      tag_168\n      jump\t// in\n    tag_234:\n        /* \"#utility.yul\":2362:2399   */\n      swap1\n      pop\n        /* \"#utility.yul\":2454:2458   */\n      0x20\n        /* \"#utility.yul\":2448:2452   */\n      dup2\n        /* \"#utility.yul\":2444:2459   */\n      add\n        /* \"#utility.yul\":2436:2459   */\n      swap1\n      pop\n        /* \"#utility.yul\":2159:2466   */\n      swap2\n      swap1\n      pop\n      jump\t// out\n        /* \"#utility.yul\":2472:2618   */\n    tag_173:\n        /* \"#utility.yul\":2569:2575   */\n      dup3\n        /* \"#utility.yul\":2564:2567   */\n      dup2\n        /* \"#utility.yul\":2559:2562   */\n      dup4\n        /* \"#utility.yul\":2546:2576   */\n      calldatacopy\n        /* \"#utility.yul\":2610:2611   */\n      0x00\n        /* \"#utility.yul\":2601:2607   */\n      dup4\n        /* \"#utility.yul\":2596:2599   */\n      dup4\n        /* \"#utility.yul\":2592:2608   */\n      add\n        /* \"#utility.yul\":2585:2612   */\n      mstore\n        /* \"#utility.yul\":2472:2618   */\n      pop\n      pop\n      pop\n      jump\t// out\n        /* \"#utility.yul\":2624:3047   */\n    tag_174:\n        /* \"#utility.yul\":2701:2706   */\n      0x00\n        /* \"#utility.yul\":2726:2791   */\n      tag_237\n        /* \"#utility.yul\":2742:2790   */\n      tag_238\n        /* \"#utility.yul\":2783:2789   */\n      dup5\n        /* \"#utility.yul\":2742:2790   */\n      tag_172\n      jump\t// in\n    tag_238:\n        /* \"#utility.yul\":2726:2791   */\n      tag_171\n      jump\t// in\n    tag_237:\n        /* \"#utility.yul\":2717:2791   */\n      swap1\n      pop\n        /* \"#utility.yul\":2814:2820   */\n      dup3\n        /* \"#utility.yul\":2807:2812   */\n      dup2\n        /* \"#utility.yul\":2800:2821   */\n      mstore\n        /* \"#utility.yul\":2852:2856   */\n      0x20\n        /* \"#utility.yul\":2845:2850   */\n      dup2\n        /* \"#utility.yul\":2841:2857   */\n      add\n        /* \"#utility.yul\":2890:2893   */\n      dup5\n        /* \"#utility.yul\":2881:2887   */\n      dup5\n        /* \"#utility.yul\":2876:2879   */\n      dup5\n        /* \"#utility.yul\":2872:2888   */\n      add\n        /* \"#utility.yul\":2869:2894   */\n      gt\n        /* \"#utility.yul\":2866:2978   */\n      iszero\n      tag_239\n      jumpi\n        /* \"#utility.yul\":2897:2976   */\n      tag_240\n      tag_167\n      jump\t// in\n    tag_240:\n        /* \"#utility.yul\":2866:2978   */\n    tag_239:\n        /* \"#utility.yul\":2987:3041   */\n      tag_241\n        /* \"#utility.yul\":3034:3040   */\n      dup5\n        /* \"#utility.yul\":3029:3032   */\n      dup3\n        /* \"#utility.yul\":3024:3027   */\n      dup6\n        /* \"#utility.yul\":2987:3041   */\n      tag_173\n      jump\t// in\n    tag_241:\n        /* \"#utility.yul\":2707:3047   */\n      pop\n        /* \"#utility.yul\":2624:3047   */\n      swap4\n      swap3\n      pop\n      pop\n      pop\n      jump\t// out\n        /* \"#utility.yul\":3066:3404   */\n    tag_175:\n        /* \"#utility.yul\":3121:3126   */\n      0x00\n        /* \"#utility.yul\":3170:3173   */\n      dup3\n        /* \"#utility.yul\":3163:3167   */\n      0x1f\n        /* \"#utility.yul\":3155:3161   */\n      dup4\n        /* \"#utility.yul\":3151:3168   */\n      add\n        /* \"#utility.yul\":3147:3174   */\n      slt\n        /* \"#utility.yul\":3137:3259   */\n      tag_243\n      jumpi\n        /* \"#utility.yul\":3178:3257   */\n      tag_244\n      tag_166\n      jump\t// in\n    tag_244:\n        /* \"#utility.yul\":3137:3259   */\n    tag_243:\n        /* \"#utility.yul\":3295:3301   */\n      dup2\n        /* \"#utility.yul\":3282:3302   */\n      calldataload\n        /* \"#utility.yul\":3320:3398   */\n      tag_245\n        /* \"#utility.yul\":3394:3397   */\n      dup5\n        /* \"#utility.yul\":3386:3392   */\n      dup3\n        /* \"#utility.yul\":3379:3383   */\n      0x20\n        /* \"#utility.yul\":3371:3377   */\n      dup7\n        /* \"#utility.yul\":3367:3384   */\n      add\n        /* \"#utility.yul\":3320:3398   */\n      tag_174\n      jump\t// in\n    tag_245:\n        /* \"#utility.yul\":3311:3398   */\n      swap2\n      pop\n        /* \"#utility.yul\":3127:3404   */\n      pop\n        /* \"#utility.yul\":3066:3404   */\n      swap3\n      swap2\n      pop\n      pop\n      jump\t// out\n        /* \"#utility.yul\":3410:4353   */\n    tag_16:\n        /* \"#utility.yul\":3505:3511   */\n      0x00\n        /* \"#utility.yul\":3513:3519   */\n      dup1\n        /* \"#utility.yul\":3521:3527   */\n      0x00\n        /* \"#utility.yul\":3529:3535   */\n      dup1\n        /* \"#utility.yul\":3578:3581   */\n      0x80\n        /* \"#utility.yul\":3566:3575   */\n      dup6\n        /* \"#utility.yul\":3557:3564   */\n      dup8\n        /* \"#utility.yul\":3553:3576   */\n      sub\n        /* \"#utility.yul\":3549:3582   */\n      slt\n        /* \"#utility.yul\":3546:3666   */\n      iszero\n      tag_247\n      jumpi\n        /* \"#utility.yul\":3585:3664   */\n      tag_248\n      tag_157\n      jump\t// in\n    tag_248:\n        /* \"#utility.yul\":3546:3666   */\n    tag_247:\n        /* \"#utility.yul\":3705:3706   */\n      0x00\n        /* \"#utility.yul\":3730:3783   */\n      tag_249\n        /* \"#utility.yul\":3775:3782   */\n      dup8\n        /* \"#utility.yul\":3766:3772   */\n      dup3\n        /* \"#utility.yul\":3755:3764   */\n      dup9\n        /* \"#utility.yul\":3751:3773   */\n      add\n        /* \"#utility.yul\":3730:3783   */\n      tag_162\n      jump\t// in\n    tag_249:\n        /* \"#utility.yul\":3720:3783   */\n      swap5\n      pop\n        /* \"#utility.yul\":3676:3793   */\n      pop\n        /* \"#utility.yul\":3832:3834   */\n      0x20\n        /* \"#utility.yul\":3858:3911   */\n      tag_250\n        /* \"#utility.yul\":3903:3910   */\n      dup8\n        /* \"#utility.yul\":3894:3900   */\n      dup3\n        /* \"#utility.yul\":3883:3892   */\n      dup9\n        /* \"#utility.yul\":3879:3901   */\n      add\n        /* \"#utility.yul\":3858:3911   */\n      tag_162\n      jump\t// in\n    tag_250:\n        /* \"#utility.yul\":3848:3911   */\n      swap4\n      pop\n        /* \"#utility.yul\":3803:3921   */\n      pop\n        /* \"#utility.yul\":3960:3962   */\n      0x40\n        /* \"#utility.yul\":3986:4039   */\n      tag_251\n        /* \"#utility.yul\":4031:4038   */\n      dup8\n        /* \"#utility.yul\":4022:4028   */\n      dup3\n        /* \"#utility.yul\":4011:4020   */\n      dup9\n        /* \"#utility.yul\":4007:4029   */\n      add\n        /* \"#utility.yul\":3986:4039   */\n      tag_165\n      jump\t// in\n    tag_251:\n        /* \"#utility.yul\":3976:4039   */\n      swap3\n      pop\n        /* \"#utility.yul\":3931:4049   */\n      pop\n        /* \"#utility.yul\":4116:4118   */\n      0x60\n        /* \"#utility.yul\":4105:4114   */\n      dup6\n        /* \"#utility.yul\":4101:4119   */\n      add\n        /* \"#utility.yul\":4088:4120   */\n      calldataload\n        /* \"#utility.yul\":4147:4165   */\n      0xffffffffffffffff\n        /* \"#utility.yul\":4139:4145   */\n      dup2\n        /* \"#utility.yul\":4136:4166   */\n      gt\n        /* \"#utility.yul\":4133:4250   */\n      iszero\n      tag_252\n      jumpi\n        /* \"#utility.yul\":4169:4248   */\n      tag_253\n      tag_158\n      jump\t// in\n    tag_253:\n        /* \"#utility.yul\":4133:4250   */\n    tag_252:\n        /* \"#utility.yul\":4274:4336   */\n      tag_254\n        /* \"#utility.yul\":4328:4335   */\n      dup8\n        /* \"#utility.yul\":4319:4325   */\n      dup3\n        /* \"#utility.yul\":4308:4317   */\n      dup9\n        /* \"#utility.yul\":4304:4326   */\n      add\n        /* \"#utility.yul\":4274:4336   */\n      tag_175\n      jump\t// in\n    tag_254:\n        /* \"#utility.yul\":4264:4336   */\n      swap2\n      pop\n        /* \"#utility.yul\":4059:4346   */\n      pop\n        /* \"#utility.yul\":3410:4353   */\n      swap3\n      swap6\n      swap2\n      swap5\n      pop\n      swap3\n      pop\n      jump\t// out\n        /* \"#utility.yul\":4359:4508   */\n    tag_176:\n        /* \"#utility.yul\":4395:4402   */\n      0x00\n        /* \"#utility.yul\":4435:4501   */\n      0xffffffff00000000000000000000000000000000000000000000000000000000\n        /* \"#utility.yul\":4428:4433   */\n      dup3\n        /* \"#utility.yul\":4424:4502   */\n      and\n        /* \"#utility.yul\":4413:4502   */\n      swap1\n      pop\n        /* \"#utility.yul\":4359:4508   */\n      swap2\n      swap1\n      pop\n      jump\t// out\n        /* \"#utility.yul\":4514:4629   */\n    tag_177:\n        /* \"#utility.yul\":4599:4622   */\n      tag_257\n        /* \"#utility.yul\":4616:4621   */\n      dup2\n        /* \"#utility.yul\":4599:4622   */\n      tag_176\n      jump\t// in\n    tag_257:\n        /* \"#utility.yul\":4594:4597   */\n      dup3\n        /* \"#utility.yul\":4587:4623   */\n      mstore\n        /* \"#utility.yul\":4514:4629   */\n      pop\n      pop\n      jump\t// out\n        /* \"#utility.yul\":4635:4853   */\n    tag_19:\n        /* \"#utility.yul\":4726:4730   */\n      0x00\n        /* \"#utility.yul\":4764:4766   */\n      0x20\n        /* \"#utility.yul\":4753:4762   */\n      dup3\n        /* \"#utility.yul\":4749:4767   */\n      add\n        /* \"#utility.yul\":4741:4767   */\n      swap1\n      pop\n        /* \"#utility.yul\":4777:4846   */\n      tag_259\n        /* \"#utility.yul\":4843:4844   */\n      0x00\n        /* \"#utility.yul\":4832:4841   */\n      dup4\n        /* \"#utility.yul\":4828:4845   */\n      add\n        /* \"#utility.yul\":4819:4825   */\n      dup5\n        /* \"#utility.yul\":4777:4846   */\n      tag_177\n      jump\t// in\n    tag_259:\n        /* \"#utility.yul\":4635:4853   */\n      swap3\n      swap2\n      pop\n      pop\n      jump\t// out\n        /* \"#utility.yul\":4859:5170   */\n    tag_178:\n        /* \"#utility.yul\":4936:4940   */\n      0x00\n        /* \"#utility.yul\":5026:5044   */\n      0xffffffffffffffff\n        /* \"#utility.yul\":5018:5024   */\n      dup3\n        /* \"#utility.yul\":5015:5045   */\n      gt\n        /* \"#utility.yul\":5012:5068   */\n      iszero\n      tag_261\n      jumpi\n        /* \"#utility.yul\":5048:5066   */\n      tag_262\n      tag_169\n      jump\t// in\n    tag_262:\n        /* \"#utility.yul\":5012:5068   */\n    tag_261:\n        /* \"#utility.yul\":5098:5102   */\n      0x20\n        /* \"#utility.yul\":5090:5096   */\n      dup3\n        /* \"#utility.yul\":5086:5103   */\n      mul\n        /* \"#utility.yul\":5078:5103   */\n      swap1\n      pop\n        /* \"#utility.yul\":5158:5162   */\n      0x20\n        /* \"#utility.yul\":5152:5156   */\n      dup2\n        /* \"#utility.yul\":5148:5163   */\n      add\n        /* \"#utility.yul\":5140:5163   */\n      swap1\n      pop\n        /* \"#utility.yul\":4859:5170   */\n      swap2\n      swap1\n      pop\n      jump\t// out\n        /* \"#utility.yul\":5176:5293   */\n    tag_179:\n        /* \"#utility.yul\":5285:5286   */\n      0x00\n        /* \"#utility.yul\":5282:5283   */\n      dup1\n        /* \"#utility.yul\":5275:5287   */\n      revert\n        /* \"#utility.yul\":5316:6026   */\n    tag_180:\n        /* \"#utility.yul\":5412:5417   */\n      0x00\n        /* \"#utility.yul\":5437:5518   */\n      tag_265\n        /* \"#utility.yul\":5453:5517   */\n      tag_266\n        /* \"#utility.yul\":5510:5516   */\n      dup5\n        /* \"#utility.yul\":5453:5517   */\n      tag_178\n      jump\t// in\n    tag_266:\n        /* \"#utility.yul\":5437:5518   */\n      tag_171\n      jump\t// in\n    tag_265:\n        /* \"#utility.yul\":5428:5518   */\n      swap1\n      pop\n        /* \"#utility.yul\":5538:5543   */\n      dup1\n        /* \"#utility.yul\":5567:5573   */\n      dup4\n        /* \"#utility.yul\":5560:5565   */\n      dup3\n        /* \"#utility.yul\":5553:5574   */\n      mstore\n        /* \"#utility.yul\":5601:5605   */\n      0x20\n        /* \"#utility.yul\":5594:5599   */\n      dup3\n        /* \"#utility.yul\":5590:5606   */\n      add\n        /* \"#utility.yul\":5583:5606   */\n      swap1\n      pop\n        /* \"#utility.yul\":5654:5658   */\n      0x20\n        /* \"#utility.yul\":5646:5652   */\n      dup5\n        /* \"#utility.yul\":5642:5659   */\n      mul\n        /* \"#utility.yul\":5634:5640   */\n      dup4\n        /* \"#utility.yul\":5630:5660   */\n      add\n        /* \"#utility.yul\":5683:5686   */\n      dup6\n        /* \"#utility.yul\":5675:5681   */\n      dup2\n        /* \"#utility.yul\":5672:5687   */\n      gt\n        /* \"#utility.yul\":5669:5791   */\n      iszero\n      tag_267\n      jumpi\n        /* \"#utility.yul\":5702:5781   */\n      tag_268\n      tag_179\n      jump\t// in\n    tag_268:\n        /* \"#utility.yul\":5669:5791   */\n    tag_267:\n        /* \"#utility.yul\":5817:5823   */\n      dup4\n        /* \"#utility.yul\":5800:6020   */\n    tag_269:\n        /* \"#utility.yul\":5834:5840   */\n      dup2\n        /* \"#utility.yul\":5829:5832   */\n      dup2\n        /* \"#utility.yul\":5826:5841   */\n      lt\n        /* \"#utility.yul\":5800:6020   */\n      iszero\n      tag_271\n      jumpi\n        /* \"#utility.yul\":5909:5912   */\n      dup1\n        /* \"#utility.yul\":5938:5975   */\n      tag_272\n        /* \"#utility.yul\":5971:5974   */\n      dup9\n        /* \"#utility.yul\":5959:5969   */\n      dup3\n        /* \"#utility.yul\":5938:5975   */\n      tag_165\n      jump\t// in\n    tag_272:\n        /* \"#utility.yul\":5933:5936   */\n      dup5\n        /* \"#utility.yul\":5926:5976   */\n      mstore\n        /* \"#utility.yul\":6005:6009   */\n      0x20\n        /* \"#utility.yul\":6000:6003   */\n      dup5\n        /* \"#utility.yul\":5996:6010   */\n      add\n        /* \"#utility.yul\":5989:6010   */\n      swap4\n      pop\n        /* \"#utility.yul\":5876:6020   */\n      pop\n        /* \"#utility.yul\":5860:5864   */\n      0x20\n        /* \"#utility.yul\":5855:5858   */\n      dup2\n        /* \"#utility.yul\":5851:5865   */\n      add\n        /* \"#utility.yul\":5844:5865   */\n      swap1\n      pop\n        /* \"#utility.yul\":5800:6020   */\n      jump(tag_269)\n    tag_271:\n        /* \"#utility.yul\":5804:5825   */\n      pop\n        /* \"#utility.yul\":5418:6026   */\n      pop\n      pop\n        /* \"#utility.yul\":5316:6026   */\n      swap4\n      swap3\n      pop\n      pop\n      pop\n      jump\t// out\n        /* \"#utility.yul\":6049:6419   */\n    tag_181:\n        /* \"#utility.yul\":6120:6125   */\n      0x00\n        /* \"#utility.yul\":6169:6172   */\n      dup3\n        /* \"#utility.yul\":6162:6166   */\n      0x1f\n        /* \"#utility.yul\":6154:6160   */\n      dup4\n        /* \"#utility.yul\":6150:6167   */\n      add\n        /* \"#utility.yul\":6146:6173   */\n      slt\n        /* \"#utility.yul\":6136:6258   */\n      tag_274\n      jumpi\n        /* \"#utility.yul\":6177:6256   */\n      tag_275\n      tag_166\n      jump\t// in\n    tag_275:\n        /* \"#utility.yul\":6136:6258   */\n    tag_274:\n        /* \"#utility.yul\":6294:6300   */\n      dup2\n        /* \"#utility.yul\":6281:6301   */\n      calldataload\n        /* \"#utility.yul\":6319:6413   */\n      tag_276\n        /* \"#utility.yul\":6409:6412   */\n      dup5\n        /* \"#utility.yul\":6401:6407   */\n      dup3\n        /* \"#utility.yul\":6394:6398   */\n      0x20\n        /* \"#utility.yul\":6386:6392   */\n      dup7\n        /* \"#utility.yul\":6382:6399   */\n      add\n        /* \"#utility.yul\":6319:6413   */\n      tag_180\n      jump\t// in\n    tag_276:\n        /* \"#utility.yul\":6310:6413   */\n      swap2\n      pop\n        /* \"#utility.yul\":6126:6419   */\n      pop\n        /* \"#utility.yul\":6049:6419   */\n      swap3\n      swap2\n      pop\n      pop\n      jump\t// out\n        /* \"#utility.yul\":6425:7109   */\n    tag_23:\n        /* \"#utility.yul\":6518:6524   */\n      0x00\n        /* \"#utility.yul\":6526:6532   */\n      dup1\n        /* \"#utility.yul\":6575:6577   */\n      0x40\n        /* \"#utility.yul\":6563:6572   */\n      dup4\n        /* \"#utility.yul\":6554:6561   */\n      dup6\n        /* \"#utility.yul\":6550:6573   */\n      sub\n        /* \"#utility.yul\":6546:6578   */\n      slt\n        /* \"#utility.yul\":6543:6662   */\n      iszero\n      tag_278\n      jumpi\n        /* \"#utility.yul\":6581:6660   */\n      tag_279\n      tag_157\n      jump\t// in\n    tag_279:\n        /* \"#utility.yul\":6543:6662   */\n    tag_278:\n        /* \"#utility.yul\":6701:6702   */\n      0x00\n        /* \"#utility.yul\":6726:6779   */\n      tag_280\n        /* \"#utility.yul\":6771:6778   */\n      dup6\n        /* \"#utility.yul\":6762:6768   */\n      dup3\n        /* \"#utility.yul\":6751:6760   */\n      dup7\n        /* \"#utility.yul\":6747:6769   */\n      add\n        /* \"#utility.yul\":6726:6779   */\n      tag_162\n      jump\t// in\n    tag_280:\n        /* \"#utility.yul\":6716:6779   */\n      swap3\n      pop\n        /* \"#utility.yul\":6672:6789   */\n      pop\n        /* \"#utility.yul\":6856:6858   */\n      0x20\n        /* \"#utility.yul\":6845:6854   */\n      dup4\n        /* \"#utility.yul\":6841:6859   */\n      add\n        /* \"#utility.yul\":6828:6860   */\n      calldataload\n        /* \"#utility.yul\":6887:6905   */\n      0xffffffffffffffff\n        /* \"#utility.yul\":6879:6885   */\n      dup2\n        /* \"#utility.yul\":6876:6906   */\n      gt\n        /* \"#utility.yul\":6873:6990   */\n      iszero\n      tag_281\n      jumpi\n        /* \"#utility.yul\":6909:6988   */\n      tag_282\n      tag_158\n      jump\t// in\n    tag_282:\n        /* \"#utility.yul\":6873:6990   */\n    tag_281:\n        /* \"#utility.yul\":7014:7092   */\n      tag_283\n        /* \"#utility.yul\":7084:7091   */\n      dup6\n        /* \"#utility.yul\":7075:7081   */\n      dup3\n        /* \"#utility.yul\":7064:7073   */\n      dup7\n        /* \"#utility.yul\":7060:7082   */\n      add\n        /* \"#utility.yul\":7014:7092   */\n      tag_181\n      jump\t// in\n    tag_283:\n        /* \"#utility.yul\":7004:7092   */\n      swap2\n      pop\n        /* \"#utility.yul\":6799:7102   */\n      pop\n        /* \"#utility.yul\":6425:7109   */\n      swap3\n      pop\n      swap3\n      swap1\n      pop\n      jump\t// out\n        /* \"#utility.yul\":7115:7589   */\n    tag_28:\n        /* \"#utility.yul\":7183:7189   */\n      0x00\n        /* \"#utility.yul\":7191:7197   */\n      dup1\n        /* \"#utility.yul\":7240:7242   */\n      0x40\n        /* \"#utility.yul\":7228:7237   */\n      dup4\n        /* \"#utility.yul\":7219:7226   */\n      dup6\n        /* \"#utility.yul\":7215:7238   */\n      sub\n        /* \"#utility.yul\":7211:7243   */\n      slt\n        /* \"#utility.yul\":7208:7327   */\n      iszero\n      tag_285\n      jumpi\n        /* \"#utility.yul\":7246:7325   */\n      tag_286\n      tag_157\n      jump\t// in\n    tag_286:\n        /* \"#utility.yul\":7208:7327   */\n    tag_285:\n        /* \"#utility.yul\":7366:7367   */\n      0x00\n        /* \"#utility.yul\":7391:7444   */\n      tag_287\n        /* \"#utility.yul\":7436:7443   */\n      dup6\n        /* \"#utility.yul\":7427:7433   */\n      dup3\n        /* \"#utility.yul\":7416:7425   */\n      dup7\n        /* \"#utility.yul\":7412:7434   */\n      add\n        /* \"#utility.yul\":7391:7444   */\n      tag_162\n      jump\t// in\n    tag_287:\n        /* \"#utility.yul\":7381:7444   */\n      swap3\n      pop\n        /* \"#utility.yul\":7337:7454   */\n      pop\n        /* \"#utility.yul\":7493:7495   */\n      0x20\n        /* \"#utility.yul\":7519:7572   */\n      tag_288\n        /* \"#utility.yul\":7564:7571   */\n      dup6\n        /* \"#utility.yul\":7555:7561   */\n      dup3\n        /* \"#utility.yul\":7544:7553   */\n      dup7\n        /* \"#utility.yul\":7540:7562   */\n      add\n        /* \"#utility.yul\":7519:7572   */\n      tag_165\n      jump\t// in\n    tag_288:\n        /* \"#utility.yul\":7509:7572   */\n      swap2\n      pop\n        /* \"#utility.yul\":7464:7582   */\n      pop\n        /* \"#utility.yul\":7115:7589   */\n      swap3\n      pop\n      swap3\n      swap1\n      pop\n      jump\t// out\n        /* \"#utility.yul\":7595:7924   */\n    tag_33:\n        /* \"#utility.yul\":7654:7660   */\n      0x00\n        /* \"#utility.yul\":7703:7705   */\n      0x20\n        /* \"#utility.yul\":7691:7700   */\n      dup3\n        /* \"#utility.yul\":7682:7689   */\n      dup5\n        /* \"#utility.yul\":7678:7701   */\n      sub\n        /* \"#utility.yul\":7674:7706   */\n      slt\n        /* \"#utility.yul\":7671:7790   */\n      iszero\n      tag_290\n      jumpi\n        /* \"#utility.yul\":7709:7788   */\n      tag_291\n      tag_157\n      jump\t// in\n    tag_291:\n        /* \"#utility.yul\":7671:7790   */\n    tag_290:\n        /* \"#utility.yul\":7829:7830   */\n      0x00\n        /* \"#utility.yul\":7854:7907   */\n      tag_292\n        /* \"#utility.yul\":7899:7906   */\n      dup5\n        /* \"#utility.yul\":7890:7896   */\n      dup3\n        /* \"#utility.yul\":7879:7888   */\n      dup6\n        /* \"#utility.yul\":7875:7897   */\n      add\n        /* \"#utility.yul\":7854:7907   */\n      tag_165\n      jump\t// in\n    tag_292:\n        /* \"#utility.yul\":7844:7907   */\n      swap2\n      pop\n        /* \"#utility.yul\":7800:7917   */\n      pop\n        /* \"#utility.yul\":7595:7924   */\n      swap3\n      swap2\n      pop\n      pop\n      jump\t// out\n        /* \"#utility.yul\":7930:8048   */\n    tag_182:\n        /* \"#utility.yul\":8017:8041   */\n      tag_294\n        /* \"#utility.yul\":8035:8040   */\n      dup2\n        /* \"#utility.yul\":8017:8041   */\n      tag_160\n      jump\t// in\n    tag_294:\n        /* \"#utility.yul\":8012:8015   */\n      dup3\n        /* \"#utility.yul\":8005:8042   */\n      mstore\n        /* \"#utility.yul\":7930:8048   */\n      pop\n      pop\n      jump\t// out\n        /* \"#utility.yul\":8054:8276   */\n    tag_36:\n        /* \"#utility.yul\":8147:8151   */\n      0x00\n        /* \"#utility.yul\":8185:8187   */\n      0x20\n        /* \"#utility.yul\":8174:8183   */\n      dup3\n        /* \"#utility.yul\":8170:8188   */\n      add\n        /* \"#utility.yul\":8162:8188   */\n      swap1\n      pop\n        /* \"#utility.yul\":8198:8269   */\n      tag_296\n        /* \"#utility.yul\":8266:8267   */\n      0x00\n        /* \"#utility.yul\":8255:8264   */\n      dup4\n        /* \"#utility.yul\":8251:8268   */\n      add\n        /* \"#utility.yul\":8242:8248   */\n      dup5\n        /* \"#utility.yul\":8198:8269   */\n      tag_182\n      jump\t// in\n    tag_296:\n        /* \"#utility.yul\":8054:8276   */\n      swap3\n      swap2\n      pop\n      pop\n      jump\t// out\n        /* \"#utility.yul\":8282:8399   */\n    tag_183:\n        /* \"#utility.yul\":8391:8392   */\n      0x00\n        /* \"#utility.yul\":8388:8389   */\n      dup1\n        /* \"#utility.yul\":8381:8393   */\n      revert\n        /* \"#utility.yul\":8418:8970   */\n    tag_184:\n        /* \"#utility.yul\":8475:8483   */\n      0x00\n        /* \"#utility.yul\":8485:8491   */\n      dup1\n        /* \"#utility.yul\":8535:8538   */\n      dup4\n        /* \"#utility.yul\":8528:8532   */\n      0x1f\n        /* \"#utility.yul\":8520:8526   */\n      dup5\n        /* \"#utility.yul\":8516:8533   */\n      add\n        /* \"#utility.yul\":8512:8539   */\n      slt\n        /* \"#utility.yul\":8502:8624   */\n      tag_299\n      jumpi\n        /* \"#utility.yul\":8543:8622   */\n      tag_300\n      tag_166\n      jump\t// in\n    tag_300:\n        /* \"#utility.yul\":8502:8624   */\n    tag_299:\n        /* \"#utility.yul\":8656:8662   */\n      dup3\n        /* \"#utility.yul\":8643:8663   */\n      calldataload\n        /* \"#utility.yul\":8633:8663   */\n      swap1\n      pop\n        /* \"#utility.yul\":8686:8704   */\n      0xffffffffffffffff\n        /* \"#utility.yul\":8678:8684   */\n      dup2\n        /* \"#utility.yul\":8675:8705   */\n      gt\n        /* \"#utility.yul\":8672:8789   */\n      iszero\n      tag_301\n      jumpi\n        /* \"#utility.yul\":8708:8787   */\n      tag_302\n      tag_183\n      jump\t// in\n    tag_302:\n        /* \"#utility.yul\":8672:8789   */\n    tag_301:\n        /* \"#utility.yul\":8822:8826   */\n      0x20\n        /* \"#utility.yul\":8814:8820   */\n      dup4\n        /* \"#utility.yul\":8810:8827   */\n      add\n        /* \"#utility.yul\":8798:8827   */\n      swap2\n      pop\n        /* \"#utility.yul\":8876:8879   */\n      dup4\n        /* \"#utility.yul\":8868:8872   */\n      0x01\n        /* \"#utility.yul\":8860:8866   */\n      dup3\n        /* \"#utility.yul\":8856:8873   */\n      mul\n        /* \"#utility.yul\":8846:8854   */\n      dup4\n        /* \"#utility.yul\":8842:8874   */\n      add\n        /* \"#utility.yul\":8839:8880   */\n      gt\n        /* \"#utility.yul\":8836:8964   */\n      iszero\n      tag_303\n      jumpi\n        /* \"#utility.yul\":8883:8962   */\n      tag_304\n      tag_179\n      jump\t// in\n    tag_304:\n        /* \"#utility.yul\":8836:8964   */\n    tag_303:\n        /* \"#utility.yul\":8418:8970   */\n      swap3\n      pop\n      swap3\n      swap1\n      pop\n      jump\t// out\n        /* \"#utility.yul\":8976:9793   */\n    tag_40:\n        /* \"#utility.yul\":9064:9070   */\n      0x00\n        /* \"#utility.yul\":9072:9078   */\n      dup1\n        /* \"#utility.yul\":9080:9086   */\n      0x00\n        /* \"#utility.yul\":9088:9094   */\n      dup1\n        /* \"#utility.yul\":9137:9139   */\n      0x60\n        /* \"#utility.yul\":9125:9134   */\n      dup6\n        /* \"#utility.yul\":9116:9123   */\n      dup8\n        /* \"#utility.yul\":9112:9135   */\n      sub\n        /* \"#utility.yul\":9108:9140   */\n      slt\n        /* \"#utility.yul\":9105:9224   */\n      iszero\n      tag_306\n      jumpi\n        /* \"#utility.yul\":9143:9222   */\n      tag_307\n      tag_157\n      jump\t// in\n    tag_307:\n        /* \"#utility.yul\":9105:9224   */\n    tag_306:\n        /* \"#utility.yul\":9263:9264   */\n      0x00\n        /* \"#utility.yul\":9288:9341   */\n      tag_308\n        /* \"#utility.yul\":9333:9340   */\n      dup8\n        /* \"#utility.yul\":9324:9330   */\n      dup3\n        /* \"#utility.yul\":9313:9322   */\n      dup9\n        /* \"#utility.yul\":9309:9331   */\n      add\n        /* \"#utility.yul\":9288:9341   */\n      tag_162\n      jump\t// in\n    tag_308:\n        /* \"#utility.yul\":9278:9341   */\n      swap5\n      pop\n        /* \"#utility.yul\":9234:9351   */\n      pop\n        /* \"#utility.yul\":9390:9392   */\n      0x20\n        /* \"#utility.yul\":9416:9469   */\n      tag_309\n        /* \"#utility.yul\":9461:9468   */\n      dup8\n        /* \"#utility.yul\":9452:9458   */\n      dup3\n        /* \"#utility.yul\":9441:9450   */\n      dup9\n        /* \"#utility.yul\":9437:9459   */\n      add\n        /* \"#utility.yul\":9416:9469   */\n      tag_165\n      jump\t// in\n    tag_309:\n        /* \"#utility.yul\":9406:9469   */\n      swap4\n      pop\n        /* \"#utility.yul\":9361:9479   */\n      pop\n        /* \"#utility.yul\":9546:9548   */\n      0x40\n        /* \"#utility.yul\":9535:9544   */\n      dup6\n        /* \"#utility.yul\":9531:9549   */\n      add\n        /* \"#utility.yul\":9518:9550   */\n      calldataload\n        /* \"#utility.yul\":9577:9595   */\n      0xffffffffffffffff\n        /* \"#utility.yul\":9569:9575   */\n      dup2\n        /* \"#utility.yul\":9566:9596   */\n      gt\n        /* \"#utility.yul\":9563:9680   */\n      iszero\n      tag_310\n      jumpi\n        /* \"#utility.yul\":9599:9678   */\n      tag_311\n      tag_158\n      jump\t// in\n    tag_311:\n        /* \"#utility.yul\":9563:9680   */\n    tag_310:\n        /* \"#utility.yul\":9712:9776   */\n      tag_312\n        /* \"#utility.yul\":9768:9775   */\n      dup8\n        /* \"#utility.yul\":9759:9765   */\n      dup3\n        /* \"#utility.yul\":9748:9757   */\n      dup9\n        /* \"#utility.yul\":9744:9766   */\n      add\n        /* \"#utility.yul\":9712:9776   */\n      tag_184\n      jump\t// in\n    tag_312:\n        /* \"#utility.yul\":9694:9776   */\n      swap3\n      pop\n      swap3\n      pop\n        /* \"#utility.yul\":9489:9786   */\n      pop\n        /* \"#utility.yul\":8976:9793   */\n      swap3\n      swap6\n      swap2\n      swap5\n      pop\n      swap3\n      pop\n      jump\t// out\n        /* \"#utility.yul\":9799:10628   */\n    tag_49:\n        /* \"#utility.yul\":9901:9907   */\n      0x00\n        /* \"#utility.yul\":9909:9915   */\n      dup1\n        /* \"#utility.yul\":9917:9923   */\n      0x00\n        /* \"#utility.yul\":9966:9968   */\n      0x60\n        /* \"#utility.yul\":9954:9963   */\n      dup5\n        /* \"#utility.yul\":9945:9952   */\n      dup7\n        /* \"#utility.yul\":9941:9964   */\n      sub\n        /* \"#utility.yul\":9937:9969   */\n      slt\n        /* \"#utility.yul\":9934:10053   */\n      iszero\n      tag_314\n      jumpi\n        /* \"#utility.yul\":9972:10051   */\n      tag_315\n      tag_157\n      jump\t// in\n    tag_315:\n        /* \"#utility.yul\":9934:10053   */\n    tag_314:\n        /* \"#utility.yul\":10092:10093   */\n      0x00\n        /* \"#utility.yul\":10117:10170   */\n      tag_316\n        /* \"#utility.yul\":10162:10169   */\n      dup7\n        /* \"#utility.yul\":10153:10159   */\n      dup3\n        /* \"#utility.yul\":10142:10151   */\n      dup8\n        /* \"#utility.yul\":10138:10160   */\n      add\n        /* \"#utility.yul\":10117:10170   */\n      tag_162\n      jump\t// in\n    tag_316:\n        /* \"#utility.yul\":10107:10170   */\n      swap4\n      pop\n        /* \"#utility.yul\":10063:10180   */\n      pop\n        /* \"#utility.yul\":10247:10249   */\n      0x20\n        /* \"#utility.yul\":10236:10245   */\n      dup5\n        /* \"#utility.yul\":10232:10250   */\n      add\n        /* \"#utility.yul\":10219:10251   */\n      calldataload\n        /* \"#utility.yul\":10278:10296   */\n      0xffffffffffffffff\n        /* \"#utility.yul\":10270:10276   */\n      dup2\n        /* \"#utility.yul\":10267:10297   */\n      gt\n        /* \"#utility.yul\":10264:10381   */\n      iszero\n      tag_317\n      jumpi\n        /* \"#utility.yul\":10300:10379   */\n      tag_318\n      tag_158\n      jump\t// in\n    tag_318:\n        /* \"#utility.yul\":10264:10381   */\n    tag_317:\n        /* \"#utility.yul\":10405:10483   */\n      tag_319\n        /* \"#utility.yul\":10475:10482   */\n      dup7\n        /* \"#utility.yul\":10466:10472   */\n      dup3\n        /* \"#utility.yul\":10455:10464   */\n      dup8\n        /* \"#utility.yul\":10451:10473   */\n      add\n        /* \"#utility.yul\":10405:10483   */\n      tag_181\n      jump\t// in\n    tag_319:\n        /* \"#utility.yul\":10395:10483   */\n      swap3\n      pop\n        /* \"#utility.yul\":10190:10493   */\n      pop\n        /* \"#utility.yul\":10532:10534   */\n      0x40\n        /* \"#utility.yul\":10558:10611   */\n      tag_320\n        /* \"#utility.yul\":10603:10610   */\n      dup7\n        /* \"#utility.yul\":10594:10600   */\n      dup3\n        /* \"#utility.yul\":10583:10592   */\n      dup8\n        /* \"#utility.yul\":10579:10601   */\n      add\n        /* \"#utility.yul\":10558:10611   */\n      tag_165\n      jump\t// in\n    tag_320:\n        /* \"#utility.yul\":10548:10611   */\n      swap2\n      pop\n        /* \"#utility.yul\":10503:10621   */\n      pop\n        /* \"#utility.yul\":9799:10628   */\n      swap3\n      pop\n      swap3\n      pop\n      swap3\n      jump\t// out\n        /* \"#utility.yul\":10634:10814   */\n    tag_69:\n        /* \"#utility.yul\":10682:10759   */\n      0x4e487b7100000000000000000000000000000000000000000000000000000000\n        /* \"#utility.yul\":10679:10680   */\n      0x00\n        /* \"#utility.yul\":10672:10760   */\n      mstore\n        /* \"#utility.yul\":10779:10783   */\n      0x32\n        /* \"#utility.yul\":10776:10777   */\n      0x04\n        /* \"#utility.yul\":10769:10784   */\n      mstore\n        /* \"#utility.yul\":10803:10807   */\n      0x24\n        /* \"#utility.yul\":10800:10801   */\n      0x00\n        /* \"#utility.yul\":10793:10808   */\n      revert\n        /* \"#utility.yul\":10820:10938   */\n    tag_185:\n        /* \"#utility.yul\":10907:10931   */\n      tag_323\n        /* \"#utility.yul\":10925:10930   */\n      dup2\n        /* \"#utility.yul\":10907:10931   */\n      tag_163\n      jump\t// in\n    tag_323:\n        /* \"#utility.yul\":10902:10905   */\n      dup3\n        /* \"#utility.yul\":10895:10932   */\n      mstore\n        /* \"#utility.yul\":10820:10938   */\n      pop\n      pop\n      jump\t// out\n        /* \"#utility.yul\":10944:11386   */\n    tag_71:\n        /* \"#utility.yul\":11093:11097   */\n      0x00\n        /* \"#utility.yul\":11131:11133   */\n      0x60\n        /* \"#utility.yul\":11120:11129   */\n      dup3\n        /* \"#utility.yul\":11116:11134   */\n      add\n        /* \"#utility.yul\":11108:11134   */\n      swap1\n      pop\n        /* \"#utility.yul\":11144:11215   */\n      tag_325\n        /* \"#utility.yul\":11212:11213   */\n      0x00\n        /* \"#utility.yul\":11201:11210   */\n      dup4\n        /* \"#utility.yul\":11197:11214   */\n      add\n        /* \"#utility.yul\":11188:11194   */\n      dup7\n        /* \"#utility.yul\":11144:11215   */\n      tag_182\n      jump\t// in\n    tag_325:\n        /* \"#utility.yul\":11225:11297   */\n      tag_326\n        /* \"#utility.yul\":11293:11295   */\n      0x20\n        /* \"#utility.yul\":11282:11291   */\n      dup4\n        /* \"#utility.yul\":11278:11296   */\n      add\n        /* \"#utility.yul\":11269:11275   */\n      dup6\n        /* \"#utility.yul\":11225:11297   */\n      tag_182\n      jump\t// in\n    tag_326:\n        /* \"#utility.yul\":11307:11379   */\n      tag_327\n        /* \"#utility.yul\":11375:11377   */\n      0x40\n        /* \"#utility.yul\":11364:11373   */\n      dup4\n        /* \"#utility.yul\":11360:11378   */\n      add\n        /* \"#utility.yul\":11351:11357   */\n      dup5\n        /* \"#utility.yul\":11307:11379   */\n      tag_185\n      jump\t// in\n    tag_327:\n        /* \"#utility.yul\":10944:11386   */\n      swap5\n      swap4\n      pop\n      pop\n      pop\n      pop\n      jump\t// out\n        /* \"#utility.yul\":11392:11572   */\n    tag_186:\n        /* \"#utility.yul\":11440:11517   */\n      0x4e487b7100000000000000000000000000000000000000000000000000000000\n        /* \"#utility.yul\":11437:11438   */\n      0x00\n        /* \"#utility.yul\":11430:11518   */\n      mstore\n        /* \"#utility.yul\":11537:11541   */\n      0x11\n        /* \"#utility.yul\":11534:11535   */\n      0x04\n        /* \"#utility.yul\":11527:11542   */\n      mstore\n        /* \"#utility.yul\":11561:11565   */\n      0x24\n        /* \"#utility.yul\":11558:11559   */\n      0x00\n        /* \"#utility.yul\":11551:11566   */\n      revert\n        /* \"#utility.yul\":11578:11811   */\n    tag_76:\n        /* \"#utility.yul\":11617:11620   */\n      0x00\n        /* \"#utility.yul\":11640:11664   */\n      tag_330\n        /* \"#utility.yul\":11658:11663   */\n      dup3\n        /* \"#utility.yul\":11640:11664   */\n      tag_163\n      jump\t// in\n    tag_330:\n        /* \"#utility.yul\":11631:11664   */\n      swap2\n      pop\n        /* \"#utility.yul\":11686:11752   */\n      0xffffffffffffffffffffffffffffffffffffffffffffffffffffffffffffffff\n        /* \"#utility.yul\":11679:11684   */\n      dup3\n        /* \"#utility.yul\":11676:11753   */\n      sub\n        /* \"#utility.yul\":11673:11776   */\n      tag_331\n      jumpi\n        /* \"#utility.yul\":11756:11774   */\n      tag_332\n      tag_186\n      jump\t// in\n    tag_332:\n        /* \"#utility.yul\":11673:11776   */\n    tag_331:\n        /* \"#utility.yul\":11803:11804   */\n      0x01\n        /* \"#utility.yul\":11796:11801   */\n      dup3\n        /* \"#utility.yul\":11792:11805   */\n      add\n        /* \"#utility.yul\":11785:11805   */\n      swap1\n      pop\n        /* \"#utility.yul\":11578:11811   */\n      swap2\n      swap1\n      pop\n      jump\t// out\n        /* \"#utility.yul\":11817:11964   */\n    tag_187:\n        /* \"#utility.yul\":11918:11929   */\n      0x00\n        /* \"#utility.yul\":11955:11958   */\n      dup2\n        /* \"#utility.yul\":11940:11958   */\n      swap1\n      pop\n        /* \"#utility.yul\":11817:11964   */\n      swap3\n      swap2\n      pop\n      pop\n      jump\t// out\n        /* \"#utility.yul\":11992:12319   */\n    tag_188:\n        /* \"#utility.yul\":12106:12109   */\n      0x00\n        /* \"#utility.yul\":12127:12215   */\n      tag_335\n        /* \"#utility.yul\":12208:12214   */\n      dup4\n        /* \"#utility.yul\":12203:12206   */\n      dup6\n        /* \"#utility.yul\":12127:12215   */\n      tag_187\n      jump\t// in\n    tag_335:\n        /* \"#utility.yul\":12120:12215   */\n      swap4\n      pop\n        /* \"#utility.yul\":12225:12281   */\n      tag_336\n        /* \"#utility.yul\":12274:12280   */\n      dup4\n        /* \"#utility.yul\":12269:12272   */\n      dup6\n        /* \"#utility.yul\":12262:12267   */\n      dup5\n        /* \"#utility.yul\":12225:12281   */\n      tag_173\n      jump\t// in\n    tag_336:\n        /* \"#utility.yul\":12306:12312   */\n      dup3\n        /* \"#utility.yul\":12301:12304   */\n      dup5\n        /* \"#utility.yul\":12297:12313   */\n      add\n        /* \"#utility.yul\":12290:12313   */\n      swap1\n      pop\n        /* \"#utility.yul\":11992:12319   */\n      swap4\n      swap3\n      pop\n      pop\n      pop\n      jump\t// out\n        /* \"#utility.yul\":12325:12616   */\n    tag_96:\n        /* \"#utility.yul\":12465:12468   */\n      0x00\n        /* \"#utility.yul\":12487:12590   */\n      tag_338\n        /* \"#utility.yul\":12586:12589   */\n      dup3\n        /* \"#utility.yul\":12577:12583   */\n      dup5\n        /* \"#utility.yul\":12569:12575   */\n      dup7\n        /* \"#utility.yul\":12487:12590   */\n      tag_188\n      jump\t// in\n    tag_338:\n        /* \"#utility.yul\":12480:12590   */\n      swap2\n      pop\n        /* \"#utility.yul\":12607:12610   */\n      dup2\n        /* \"#utility.yul\":12600:12610   */\n      swap1\n      pop\n        /* \"#utility.yul\":12325:12616   */\n      swap4\n      swap3\n      pop\n      pop\n      pop\n      jump\t// out\n        /* \"#utility.yul\":12622:12736   */\n    tag_189:\n        /* \"#utility.yul\":12689:12695   */\n      0x00\n        /* \"#utility.yul\":12723:12728   */\n      dup2\n        /* \"#utility.yul\":12717:12729   */\n      mload\n        /* \"#utility.yul\":12707:12729   */\n      swap1\n      pop\n        /* \"#utility.yul\":12622:12736   */\n      swap2\n      swap1\n      pop\n      jump\t// out\n        /* \"#utility.yul\":12742:12926   */\n    tag_190:\n        /* \"#utility.yul\":12841:12852   */\n      0x00\n        /* \"#utility.yul\":12875:12881   */\n      dup3\n        /* \"#utility.yul\":12870:12873   */\n      dup3\n        /* \"#utility.yul\":12863:12882   */\n      mstore\n        /* \"#utility.yul\":12915:12919   */\n      0x20\n        /* \"#utility.yul\":12910:12913   */\n      dup3\n        /* \"#utility.yul\":12906:12920   */\n      add\n        /* \"#utility.yul\":12891:12920   */\n      swap1\n      pop\n        /* \"#utility.yul\":12742:12926   */\n      swap3\n      swap2\n      pop\n      pop\n      jump\t// out\n        /* \"#utility.yul\":12932:13064   */\n    tag_191:\n        /* \"#utility.yul\":12999:13003   */\n      0x00\n        /* \"#utility.yul\":13022:13025   */\n      dup2\n        /* \"#utility.yul\":13014:13025   */\n      swap1\n      pop\n        /* \"#utility.yul\":13052:13056   */\n      0x20\n        /* \"#utility.yul\":13047:13050   */\n      dup3\n        /* \"#utility.yul\":13043:13057   */\n      add\n        /* \"#utility.yul\":13035:13057   */\n      swap1\n      pop\n        /* \"#utility.yul\":12932:13064   */\n      swap2\n      swap1\n      pop\n      jump\t// out\n        /* \"#utility.yul\":13070:13178   */\n    tag_192:\n        /* \"#utility.yul\":13147:13171   */\n      tag_343\n        /* \"#utility.yul\":13165:13170   */\n      dup2\n        /* \"#utility.yul\":13147:13171   */\n      tag_163\n      jump\t// in\n    tag_343:\n        /* \"#utility.yul\":13142:13145   */\n      dup3\n        /* \"#utility.yul\":13135:13172   */\n      mstore\n        /* \"#utility.yul\":13070:13178   */\n      pop\n      pop\n      jump\t// out\n        /* \"#utility.yul\":13184:13363   */\n    tag_193:\n        /* \"#utility.yul\":13253:13263   */\n      0x00\n        /* \"#utility.yul\":13274:13320   */\n      tag_345\n        /* \"#utility.yul\":13316:13319   */\n      dup4\n        /* \"#utility.yul\":13308:13314   */\n      dup4\n        /* \"#utility.yul\":13274:13320   */\n      tag_192\n      jump\t// in\n    tag_345:\n        /* \"#utility.yul\":13352:13356   */\n      0x20\n        /* \"#utility.yul\":13347:13350   */\n      dup4\n        /* \"#utility.yul\":13343:13357   */\n      add\n        /* \"#utility.yul\":13329:13357   */\n      swap1\n      pop\n        /* \"#utility.yul\":13184:13363   */\n      swap3\n      swap2\n      pop\n      pop\n      jump\t// out\n        /* \"#utility.yul\":13369:13482   */\n    tag_194:\n        /* \"#utility.yul\":13439:13443   */\n      0x00\n        /* \"#utility.yul\":13471:13475   */\n      0x20\n        /* \"#utility.yul\":13466:13469   */\n      dup3\n        /* \"#utility.yul\":13462:13476   */\n      add\n        /* \"#utility.yul\":13454:13476   */\n      swap1\n      pop\n        /* \"#utility.yul\":13369:13482   */\n      swap2\n      swap1\n      pop\n      jump\t// out\n        /* \"#utility.yul\":13518:14250   */\n    tag_195:\n        /* \"#utility.yul\":13637:13640   */\n      0x00\n        /* \"#utility.yul\":13666:13720   */\n      tag_348\n        /* \"#utility.yul\":13714:13719   */\n      dup3\n        /* \"#utility.yul\":13666:13720   */\n      tag_189\n      jump\t// in\n    tag_348:\n        /* \"#utility.yul\":13736:13822   */\n      tag_349\n        /* \"#utility.yul\":13815:13821   */\n      dup2\n        /* \"#utility.yul\":13810:13813   */\n      dup6\n        /* \"#utility.yul\":13736:13822   */\n      tag_190\n      jump\t// in\n    tag_349:\n        /* \"#utility.yul\":13729:13822   */\n      swap4\n      pop\n        /* \"#utility.yul\":13846:13902   */\n      tag_350\n        /* \"#utility.yul\":13896:13901   */\n      dup4\n        /* \"#utility.yul\":13846:13902   */\n      tag_191\n      jump\t// in\n    tag_350:\n        /* \"#utility.yul\":13925:13932   */\n      dup1\n        /* \"#utility.yul\":13956:13957   */\n      0x00\n        /* \"#utility.yul\":13941:14225   */\n    tag_351:\n        /* \"#utility.yul\":13966:13972   */\n      dup4\n        /* \"#utility.yul\":13963:13964   */\n      dup2\n        /* \"#utility.yul\":13960:13973   */\n      lt\n        /* \"#utility.yul\":13941:14225   */\n      iszero\n      tag_353\n      jumpi\n        /* \"#utility.yul\":14042:14048   */\n      dup2\n        /* \"#utility.yul\":14036:14049   */\n      mload\n        /* \"#utility.yul\":14069:14132   */\n      tag_354\n        /* \"#utility.yul\":14128:14131   */\n      dup9\n        /* \"#utility.yul\":14113:14126   */\n      dup3\n        /* \"#utility.yul\":14069:14132   */\n      tag_193\n      jump\t// in\n    tag_354:\n        /* \"#utility.yul\":14062:14132   */\n      swap8\n      pop\n        /* \"#utility.yul\":14155:14215   */\n      tag_355\n        /* \"#utility.yul\":14208:14214   */\n      dup4\n        /* \"#utility.yul\":14155:14215   */\n      tag_194\n      jump\t// in\n    tag_355:\n        /* \"#utility.yul\":14145:14215   */\n      swap3\n      pop\n        /* \"#utility.yul\":14001:14225   */\n      pop\n        /* \"#utility.yul\":13988:13989   */\n      0x01\n        /* \"#utility.yul\":13985:13986   */\n      dup2\n        /* \"#utility.yul\":13981:13990   */\n      add\n        /* \"#utility.yul\":13976:13990   */\n      swap1\n      pop\n        /* \"#utility.yul\":13941:14225   */\n      jump(tag_351)\n    tag_353:\n        /* \"#utility.yul\":13945:13959   */\n      pop\n        /* \"#utility.yul\":14241:14244   */\n      dup6\n        /* \"#utility.yul\":14234:14244   */\n      swap4\n      pop\n        /* \"#utility.yul\":13642:14250   */\n      pop\n      pop\n      pop\n        /* \"#utility.yul\":13518:14250   */\n      swap3\n      swap2\n      pop\n      pop\n      jump\t// out\n        /* \"#utility.yul\":14256:14739   */\n    tag_117:\n        /* \"#utility.yul\":14427:14431   */\n      0x00\n        /* \"#utility.yul\":14465:14467   */\n      0x40\n        /* \"#utility.yul\":14454:14463   */\n      dup3\n        /* \"#utility.yul\":14450:14468   */\n      add\n        /* \"#utility.yul\":14442:14468   */\n      swap1\n      pop\n        /* \"#utility.yul\":14478:14549   */\n      tag_357\n        /* \"#utility.yul\":14546:14547   */\n      0x00\n        /* \"#utility.yul\":14535:14544   */\n      dup4\n        /* \"#utility.yul\":14531:14548   */\n      add\n        /* \"#utility.yul\":14522:14528   */\n      dup6\n        /* \"#utility.yul\":14478:14549   */\n      tag_182\n      jump\t// in\n    tag_357:\n        /* \"#utility.yul\":14596:14605   */\n      dup2\n        /* \"#utility.yul\":14590:14594   */\n      dup2\n        /* \"#utility.yul\":14586:14606   */\n      sub\n        /* \"#utility.yul\":14581:14583   */\n      0x20\n        /* \"#utility.yul\":14570:14579   */\n      dup4\n        /* \"#utility.yul\":14566:14584   */\n      add\n        /* \"#utility.yul\":14559:14607   */\n      mstore\n        /* \"#utility.yul\":14624:14732   */\n      tag_358\n        /* \"#utility.yul\":14727:14731   */\n      dup2\n        /* \"#utility.yul\":14718:14724   */\n      dup5\n        /* \"#utility.yul\":14624:14732   */\n      tag_195\n      jump\t// in\n    tag_358:\n        /* \"#utility.yul\":14616:14732   */\n      swap1\n      pop\n        /* \"#utility.yul\":14256:14739   */\n      swap4\n      swap3\n      pop\n      pop\n      pop\n      jump\t// out\n        /* \"#utility.yul\":14745:14925   */\n    tag_196:\n        /* \"#utility.yul\":14793:14870   */\n      0x4e487b7100000000000000000000000000000000000000000000000000000000\n        /* \"#utility.yul\":14790:14791   */\n      0x00\n        /* \"#utility.yul\":14783:14871   */\n      mstore\n        /* \"#utility.yul\":14890:14894   */\n      0x12\n        /* \"#utility.yul\":14887:14888   */\n      0x04\n        /* \"#utility.yul\":14880:14895   */\n      mstore\n        /* \"#utility.yul\":14914:14918   */\n      0x24\n        /* \"#utility.yul\":14911:14912   */\n      0x00\n        /* \"#utility.yul\":14904:14919   */\n      revert\n        /* \"#utility.yul\":14931:15116   */\n    tag_137:\n        /* \"#utility.yul\":14971:14972   */\n      0x00\n        /* \"#utility.yul\":14988:15008   */\n      tag_361\n        /* \"#utility.yul\":15006:15007   */\n      dup3\n        /* \"#utility.yul\":14988:15008   */\n      tag_163\n      jump\t// in\n    tag_361:\n        /* \"#utility.yul\":14983:15008   */\n      swap2\n      pop\n        /* \"#utility.yul\":15022:15042   */\n      tag_362\n        /* \"#utility.yul\":15040:15041   */\n      dup4\n        /* \"#utility.yul\":15022:15042   */\n      tag_163\n      jump\t// in\n    tag_362:\n        /* \"#utility.yul\":15017:15042   */\n      swap3\n      pop\n        /* \"#utility.yul\":15061:15062   */\n      dup3\n        /* \"#utility.yul\":15051:15086   */\n      tag_363\n      jumpi\n        /* \"#utility.yul\":15066:15084   */\n      tag_364\n      tag_196\n      jump\t// in\n    tag_364:\n        /* \"#utility.yul\":15051:15086   */\n    tag_363:\n        /* \"#utility.yul\":15108:15109   */\n      dup3\n        /* \"#utility.yul\":15105:15106   */\n      dup3\n        /* \"#utility.yul\":15101:15110   */\n      div\n        /* \"#utility.yul\":15096:15110   */\n      swap1\n      pop\n        /* \"#utility.yul\":14931:15116   */\n      swap3\n      swap2\n      pop\n      pop\n      jump\t// out\n        /* \"#utility.yul\":15122:15290   */\n    tag_197:\n        /* \"#utility.yul\":15205:15216   */\n      0x00\n        /* \"#utility.yul\":15239:15245   */\n      dup3\n        /* \"#utility.yul\":15234:15237   */\n      dup3\n        /* \"#utility.yul\":15227:15246   */\n      mstore\n        /* \"#utility.yul\":15279:15283   */\n      0x20\n        /* \"#utility.yul\":15274:15277   */\n      dup3\n        /* \"#utility.yul\":15270:15284   */\n      add\n        /* \"#utility.yul\":15255:15284   */\n      swap1\n      pop\n        /* \"#utility.yul\":15122:15290   */\n      swap3\n      swap2\n      pop\n      pop\n      jump\t// out\n        /* \"#utility.yul\":15318:15632   */\n    tag_198:\n        /* \"#utility.yul\":15414:15417   */\n      0x00\n        /* \"#utility.yul\":15435:15505   */\n      tag_367\n        /* \"#utility.yul\":15498:15504   */\n      dup4\n        /* \"#utility.yul\":15493:15496   */\n      dup6\n        /* \"#utility.yul\":15435:15505   */\n      tag_197\n      jump\t// in\n    tag_367:\n        /* \"#utility.yul\":15428:15505   */\n      swap4\n      pop\n        /* \"#utility.yul\":15515:15571   */\n      tag_368\n        /* \"#utility.yul\":15564:15570   */\n      dup4\n        /* \"#utility.yul\":15559:15562   */\n      dup6\n        /* \"#utility.yul\":15552:15557   */\n      dup5\n        /* \"#utility.yul\":15515:15571   */\n      tag_173\n      jump\t// in\n    tag_368:\n        /* \"#utility.yul\":15596:15625   */\n      tag_369\n        /* \"#utility.yul\":15618:15624   */\n      dup4\n        /* \"#utility.yul\":15596:15625   */\n      tag_168\n      jump\t// in\n    tag_369:\n        /* \"#utility.yul\":15591:15594   */\n      dup5\n        /* \"#utility.yul\":15587:15626   */\n      add\n        /* \"#utility.yul\":15580:15626   */\n      swap1\n      pop\n        /* \"#utility.yul\":15318:15632   */\n      swap4\n      swap3\n      pop\n      pop\n      pop\n      jump\t// out\n        /* \"#utility.yul\":15638:16077   */\n    tag_145:\n        /* \"#utility.yul\":15787:15791   */\n      0x00\n        /* \"#utility.yul\":15825:15827   */\n      0x40\n        /* \"#utility.yul\":15814:15823   */\n      dup3\n        /* \"#utility.yul\":15810:15828   */\n      add\n        /* \"#utility.yul\":15802:15828   */\n      swap1\n      pop\n        /* \"#utility.yul\":15838:15909   */\n      tag_371\n        /* \"#utility.yul\":15906:15907   */\n      0x00\n        /* \"#utility.yul\":15895:15904   */\n      dup4\n        /* \"#utility.yul\":15891:15908   */\n      add\n        /* \"#utility.yul\":15882:15888   */\n      dup7\n        /* \"#utility.yul\":15838:15909   */\n      tag_182\n      jump\t// in\n    tag_371:\n        /* \"#utility.yul\":15956:15965   */\n      dup2\n        /* \"#utility.yul\":15950:15954   */\n      dup2\n        /* \"#utility.yul\":15946:15966   */\n      sub\n        /* \"#utility.yul\":15941:15943   */\n      0x20\n        /* \"#utility.yul\":15930:15939   */\n      dup4\n        /* \"#utility.yul\":15926:15944   */\n      add\n        /* \"#utility.yul\":15919:15967   */\n      mstore\n        /* \"#utility.yul\":15984:16070   */\n      tag_372\n        /* \"#utility.yul\":16065:16069   */\n      dup2\n        /* \"#utility.yul\":16056:16062   */\n      dup5\n        /* \"#utility.yul\":16048:16054   */\n      dup7\n        /* \"#utility.yul\":15984:16070   */\n      tag_198\n      jump\t// in\n    tag_372:\n        /* \"#utility.yul\":15976:16070   */\n      swap1\n      pop\n        /* \"#utility.yul\":15638:16077   */\n      swap5\n      swap4\n      pop\n      pop\n      pop\n      pop\n      jump\t// out\n        /* \"#utility.yul\":16083:16181   */\n    tag_199:\n        /* \"#utility.yul\":16134:16140   */\n      0x00\n        /* \"#utility.yul\":16168:16173   */\n      dup2\n        /* \"#utility.yul\":16162:16174   */\n      mload\n        /* \"#utility.yul\":16152:16174   */\n      swap1\n      pop\n        /* \"#utility.yul\":16083:16181   */\n      swap2\n      swap1\n      pop\n      jump\t// out\n        /* \"#utility.yul\":16187:16433   */\n    tag_200:\n        /* \"#utility.yul\":16268:16269   */\n      0x00\n        /* \"#utility.yul\":16278:16391   */\n    tag_375:\n        /* \"#utility.yul\":16292:16298   */\n      dup4\n        /* \"#utility.yul\":16289:16290   */\n      dup2\n        /* \"#utility.yul\":16286:16299   */\n      lt\n        /* \"#utility.yul\":16278:16391   */\n      iszero\n      tag_377\n      jumpi\n        /* \"#utility.yul\":16377:16378   */\n      dup1\n        /* \"#utility.yul\":16372:16375   */\n      dup3\n        /* \"#utility.yul\":16368:16379   */\n      add\n        /* \"#utility.yul\":16362:16380   */\n      mload\n        /* \"#utility.yul\":16358:16359   */\n      dup2\n        /* \"#utility.yul\":16353:16356   */\n      dup5\n        /* \"#utility.yul\":16349:16360   */\n      add\n        /* \"#utility.yul\":16342:16381   */\n      mstore\n        /* \"#utility.yul\":16314:16316   */\n      0x20\n        /* \"#utility.yul\":16311:16312   */\n      dup2\n        /* \"#utility.yul\":16307:16317   */\n      add\n        /* \"#utility.yul\":16302:16317   */\n      swap1\n      pop\n        /* \"#utility.yul\":16278:16391   */\n      jump(tag_375)\n    tag_377:\n        /* \"#utility.yul\":16425:16426   */\n      0x00\n        /* \"#utility.yul\":16416:16422   */\n      dup5\n        /* \"#utility.yul\":16411:16414   */\n      dup5\n        /* \"#utility.yul\":16407:16423   */\n      add\n        /* \"#utility.yul\":16400:16427   */\n      mstore\n        /* \"#utility.yul\":16249:16433   */\n      pop\n        /* \"#utility.yul\":16187:16433   */\n      pop\n      pop\n      pop\n      jump\t// out\n        /* \"#utility.yul\":16439:16825   */\n    tag_201:\n        /* \"#utility.yul\":16543:16546   */\n      0x00\n        /* \"#utility.yul\":16571:16609   */\n      tag_379\n        /* \"#utility.yul\":16603:16608   */\n      dup3\n        /* \"#utility.yul\":16571:16609   */\n      tag_199\n      jump\t// in\n    tag_379:\n        /* \"#utility.yul\":16625:16713   */\n      tag_380\n        /* \"#utility.yul\":16706:16712   */\n      dup2\n        /* \"#utility.yul\":16701:16704   */\n      dup6\n        /* \"#utility.yul\":16625:16713   */\n      tag_187\n      jump\t// in\n    tag_380:\n        /* \"#utility.yul\":16618:16713   */\n      swap4\n      pop\n        /* \"#utility.yul\":16722:16787   */\n      tag_381\n        /* \"#utility.yul\":16780:16786   */\n      dup2\n        /* \"#utility.yul\":16775:16778   */\n      dup6\n        /* \"#utility.yul\":16768:16772   */\n      0x20\n        /* \"#utility.yul\":16761:16766   */\n      dup7\n        /* \"#utility.yul\":16757:16773   */\n      add\n        /* \"#utility.yul\":16722:16787   */\n      tag_200\n      jump\t// in\n    tag_381:\n        /* \"#utility.yul\":16812:16818   */\n      dup1\n        /* \"#utility.yul\":16807:16810   */\n      dup5\n        /* \"#utility.yul\":16803:16819   */\n      add\n        /* \"#utility.yul\":16796:16819   */\n      swap2\n      pop\n        /* \"#utility.yul\":16547:16825   */\n      pop\n        /* \"#utility.yul\":16439:16825   */\n      swap3\n      swap2\n      pop\n      pop\n      jump\t// out\n        /* \"#utility.yul\":16831:17258   */\n    tag_155:\n        /* \"#utility.yul\":17007:17010   */\n      0x00\n        /* \"#utility.yul\":17029:17122   */\n      tag_383\n        /* \"#utility.yul\":17118:17121   */\n      dup3\n        /* \"#utility.yul\":17109:17115   */\n      dup6\n        /* \"#utility.yul\":17029:17122   */\n      tag_201\n      jump\t// in\n    tag_383:\n        /* \"#utility.yul\":17022:17122   */\n      swap2\n      pop\n        /* \"#utility.yul\":17139:17232   */\n      tag_384\n        /* \"#utility.yul\":17228:17231   */\n      dup3\n        /* \"#utility.yul\":17219:17225   */\n      dup5\n        /* \"#utility.yul\":17139:17232   */\n      tag_201\n      jump\t// in\n    tag_384:\n        /* \"#utility.yul\":17132:17232   */\n      swap2\n      pop\n        /* \"#utility.yul\":17249:17252   */\n      dup2\n        /* \"#utility.yul\":17242:17252   */\n      swap1\n      pop\n        /* \"#utility.yul\":16831:17258   */\n      swap4\n      swap3\n      pop\n      pop\n      pop\n      jump\t// out\n    stop\n\n    sub_0: assembly {\n            /* \"Perfect,sol.sol\":186:1785  contract NftMinter is IERC721Receiver{... */\n          mstore(0x40, 0x80)\n            /* \"Perfect,sol.sol\":319:378  constructor(address _admin) {... */\n          callvalue\n          dup1\n          iszero\n          tag_1\n          jumpi\n          0x00\n          dup1\n          revert\n        tag_1:\n          pop\n          mload(0x40)\n          sub(codesize, bytecodeSize)\n          dup1\n          bytecodeSize\n          dup4\n          codecopy\n          dup2\n          dup2\n          add\n          0x40\n          mstore\n          dup2\n          add\n          swap1\n          tag_2\n          swap2\n          swap1\n          tag_3\n          jump\t// in\n        tag_2:\n            /* \"Perfect,sol.sol\":365:371  _admin */\n          dup1\n            /* \"Perfect,sol.sol\":357:362  admin */\n          0x00\n          dup1\n            /* \"Perfect,sol.sol\":357:371  admin = _admin */\n          0x0100\n          exp\n          dup2\n          sload\n          dup2\n          0xffffffffffffffffffffffffffffffffffffffff\n          mul\n          not\n          and\n          swap1\n          dup4\n          0xffffffffffffffffffffffffffffffffffffffff\n          and\n          mul\n          or\n          swap1\n          sstore\n          pop\n            /* \"Perfect,sol.sol\":319:378  constructor(address _admin) {... */\n          pop\n            /* \"Perfect,sol.sol\":186:1785  contract NftMinter is IERC721Receiver{... */\n          jump(tag_6)\n            /* \"#utility.yul\":88:205   */\n        tag_8:\n            /* \"#utility.yul\":197:198   */\n          0x00\n            /* \"#utility.yul\":194:195   */\n          dup1\n            /* \"#utility.yul\":187:199   */\n          revert\n            /* \"#utility.yul\":334:460   */\n        tag_10:\n            /* \"#utility.yul\":371:378   */\n          0x00\n            /* \"#utility.yul\":411:453   */\n          0xffffffffffffffffffffffffffffffffffffffff\n            /* \"#utility.yul\":404:409   */\n          dup3\n            /* \"#utility.yul\":400:454   */\n          and\n            /* \"#utility.yul\":389:454   */\n          swap1\n          pop\n            /* \"#utility.yul\":334:460   */\n          swap2\n          swap1\n          pop\n          jump\t// out\n            /* \"#utility.yul\":466:562   */\n        tag_11:\n            /* \"#utility.yul\":503:510   */\n          0x00\n            /* \"#utility.yul\":532:556   */\n          tag_20\n            /* \"#utility.yul\":550:555   */\n          dup3\n            /* \"#utility.yul\":532:556   */\n          tag_10\n          jump\t// in\n        tag_20:\n            /* \"#utility.yul\":521:556   */\n          swap1\n          pop\n            /* \"#utility.yul\":466:562   */\n          swap2\n          swap1\n          pop\n          jump\t// out\n            /* \"#utility.yul\":568:690   */\n        tag_12:\n            /* \"#utility.yul\":641:665   */\n          tag_22\n            /* \"#utility.yul\":659:664   */\n          dup2\n            /* \"#utility.yul\":641:665   */\n          tag_11\n          jump\t// in\n        tag_22:\n            /* \"#utility.yul\":634:639   */\n          dup2\n            /* \"#utility.yul\":631:666   */\n          eq\n            /* \"#utility.yul\":621:684   */\n          tag_23\n          jumpi\n            /* \"#utility.yul\":680:681   */\n          0x00\n            /* \"#utility.yul\":677:678   */\n          dup1\n            /* \"#utility.yul\":670:682   */\n          revert\n            /* \"#utility.yul\":621:684   */\n        tag_23:\n            /* \"#utility.yul\":568:690   */\n          pop\n          jump\t// out\n            /* \"#utility.yul\":696:839   */\n        tag_13:\n            /* \"#utility.yul\":753:758   */\n          0x00\n            /* \"#utility.yul\":784:790   */\n          dup2\n            /* \"#utility.yul\":778:791   */\n          mload\n            /* \"#utility.yul\":769:791   */\n          swap1\n          pop\n            /* \"#utility.yul\":800:833   */\n          tag_25\n            /* \"#utility.yul\":827:832   */\n          dup2\n            /* \"#utility.yul\":800:833   */\n          tag_12\n          jump\t// in\n        tag_25:\n            /* \"#utility.yul\":696:839   */\n          swap3\n          swap2\n          pop\n          pop\n          jump\t// out\n            /* \"#utility.yul\":845:1196   */\n        tag_3:\n            /* \"#utility.yul\":915:921   */\n          0x00\n            /* \"#utility.yul\":964:966   */\n          0x20\n            /* \"#utility.yul\":952:961   */\n          dup3\n            /* \"#utility.yul\":943:950   */\n          dup5\n            /* \"#utility.yul\":939:962   */\n          sub\n            /* \"#utility.yul\":935:967   */\n          slt\n            /* \"#utility.yul\":932:1051   */\n          iszero\n          tag_27\n          jumpi\n            /* \"#utility.yul\":970:1049   */\n          tag_28\n          tag_8\n          jump\t// in\n        tag_28:\n            /* \"#utility.yul\":932:1051   */\n        tag_27:\n            /* \"#utility.yul\":1090:1091   */\n          0x00\n            /* \"#utility.yul\":1115:1179   */\n          tag_29\n            /* \"#utility.yul\":1171:1178   */\n          dup5\n            /* \"#utility.yul\":1162:1168   */\n          dup3\n            /* \"#utility.yul\":1151:1160   */\n          dup6\n            /* \"#utility.yul\":1147:1169   */\n          add\n            /* \"#utility.yul\":1115:1179   */\n          tag_13\n          jump\t// in\n        tag_29:\n            /* \"#utility.yul\":1105:1179   */\n          swap2\n          pop\n            /* \"#utility.yul\":1061:1189   */\n          pop\n            /* \"#utility.yul\":845:1196   */\n          swap3\n          swap2\n          pop\n          pop\n          jump\t// out\n            /* \"Perfect,sol.sol\":186:1785  contract NftMinter is IERC721Receiver{... */\n        tag_6:\n          dataSize(sub_0)\n          dup1\n          dataOffset(sub_0)\n          0x00\n          codecopy\n          0x00\n          return\n        stop\n\n        sub_0: assembly {\n                /* \"Perfect,sol.sol\":186:1785  contract NftMinter is IERC721Receiver{... */\n              mstore(0x40, 0x80)\n              jumpi(tag_1, lt(calldatasize, 0x04))\n              shr(0xe0, calldataload(0x00))\n              dup1\n              0x86aaa506\n              gt\n              tag_9\n              jumpi\n              dup1\n              0x86aaa506\n              eq\n              tag_5\n              jumpi\n              dup1\n              0xb510391f\n              eq\n              tag_6\n              jumpi\n              dup1\n              0xc57a1166\n              eq\n              tag_7\n              jumpi\n              dup1\n              0xf851a440\n              eq\n              tag_8\n              jumpi\n              jump(tag_1)\n            tag_9:\n              dup1\n              0x150b7a02\n              eq\n              tag_2\n              jumpi\n              dup1\n              0x1a695230\n              eq\n              tag_3\n              jumpi\n              dup1\n              0x3e1a037c\n              eq\n              tag_4\n              jumpi\n            tag_1:\n              0x00\n              dup1\n              revert\n                /* \"Perfect,sol.sol\":1386:1650  function onERC721Received(... */\n            tag_2:\n              callvalue\n              dup1\n              iszero\n              tag_10\n              jumpi\n              0x00\n              dup1\n              revert\n            tag_10:\n              pop\n              tag_11\n              0x04\n              dup1\n              calldatasize\n              sub\n              dup2\n              add\n              swap1\n              tag_12\n              swap2\n              swap1\n              tag_13\n              jump\t// in\n            tag_12:\n              tag_14\n              jump\t// in\n            tag_11:\n              mload(0x40)\n              tag_15\n              swap2\n              swap1\n              tag_16\n              jump\t// in\n            tag_15:\n              mload(0x40)\n              dup1\n              swap2\n              sub\n              swap1\n              return\n                /* \"Perfect,sol.sol\":645:973  function transfer(address nft) external {... */\n            tag_3:\n              callvalue\n              dup1\n              iszero\n              tag_17\n              jumpi\n              0x00\n              dup1\n              revert\n            tag_17:\n              pop\n              tag_18\n              0x04\n              dup1\n              calldatasize\n              sub\n              dup2\n              add\n              swap1\n              tag_19\n              swap2\n              swap1\n              tag_20\n              jump\t// in\n            tag_19:\n              tag_21\n              jump\t// in\n            tag_18:\n              stop\n                /* \"Perfect,sol.sol\":978:1235  function RestorebymultipleID(address nft,uint256[] memory tokenid) external {... */\n            tag_4:\n              callvalue\n              dup1\n              iszero\n              tag_22\n              jumpi\n              0x00\n              dup1\n              revert\n            tag_22:\n              pop\n              tag_23\n              0x04\n              dup1\n              calldatasize\n              sub\n              dup2\n              add\n              swap1\n              tag_24\n              swap2\n              swap1\n              tag_25\n              jump\t// in\n            tag_24:\n              tag_26\n              jump\t// in\n            tag_23:\n              stop\n                /* \"Perfect,sol.sol\":1239:1379  function Restorebysingleid(address nft,uint256 tokenid) external {... */\n            tag_5:\n              callvalue\n              dup1\n              iszero\n              tag_27\n              jumpi\n              0x00\n              dup1\n              revert\n            tag_27:\n              pop\n              tag_28\n              0x04\n              dup1\n              calldatasize\n              sub\n              dup2\n              add\n              swap1\n              tag_29\n              swap2\n              swap1\n              tag_30\n              jump\t// in\n            tag_29:\n              tag_31\n              jump\t// in\n            tag_28:\n              stop\n                /* \"Perfect,sol.sol\":384:639  function mint(... */\n            tag_6:\n              tag_32\n              0x04\n              dup1\n              calldatasize\n              sub\n              dup2\n              add\n              swap1\n              tag_33\n              swap2\n              swap1\n              tag_34\n              jump\t// in\n            tag_33:\n              tag_35\n              jump\t// in\n            tag_32:\n              stop\n                /* \"Perfect,sol.sol\":1656:1778  function tokenIdsByNFT(address nft) external view returns(uint256[] memory){... */\n            tag_7:\n              callvalue\n              dup1\n              iszero\n              tag_36\n              jumpi\n              0x00\n              dup1\n              revert\n            tag_36:\n              pop\n              tag_37\n              0x04\n              dup1\n              calldatasize\n              sub\n              dup2\n              add\n              swap1\n              tag_38\n              swap2\n              swap1\n              tag_20\n              jump\t// in\n            tag_38:\n              tag_39\n              jump\t// in\n            tag_37:\n              mload(0x40)\n              tag_40\n              swap2\n              swap1\n              tag_41\n              jump\t// in\n            tag_40:\n              mload(0x40)\n              dup1\n              swap2\n              sub\n              swap1\n              return\n                /* \"Perfect,sol.sol\":230:250  address public admin */\n            tag_8:\n              callvalue\n              dup1\n              iszero\n              tag_42\n              jumpi\n              0x00\n              dup1\n              revert\n            tag_42:\n              pop\n              tag_43\n              tag_44\n              jump\t// in\n            tag_43:\n              mload(0x40)\n              tag_45\n              swap2\n              swap1\n              tag_46\n              jump\t// in\n            tag_45:\n              mload(0x40)\n              dup1\n              swap2\n              sub\n              swap1\n              return\n                /* \"Perfect,sol.sol\":1386:1650  function onERC721Received(... */\n            tag_14:\n                /* \"Perfect,sol.sol\":1533:1539  bytes4 */\n              0x00\n                /* \"Perfect,sol.sol\":1551:1569  tokenIdsByContract */\n              0x01\n                /* \"Perfect,sol.sol\":1551:1581  tokenIdsByContract[msg.sender] */\n              0x00\n                /* \"Perfect,sol.sol\":1570:1580  msg.sender */\n              caller\n                /* \"Perfect,sol.sol\":1551:1581  tokenIdsByContract[msg.sender] */\n              0xffffffffffffffffffffffffffffffffffffffff\n              and\n              0xffffffffffffffffffffffffffffffffffffffff\n              and\n              dup2\n              mstore\n              0x20\n              add\n              swap1\n              dup2\n              mstore\n              0x20\n              add\n              0x00\n              keccak256\n                /* \"Perfect,sol.sol\":1587:1595  _tokenId */\n              dup4\n                /* \"Perfect,sol.sol\":1551:1596  tokenIdsByContract[msg.sender].push(_tokenId) */\n              swap1\n              dup1\n              0x01\n              dup2\n              sload\n              add\n              dup1\n              dup3\n              sstore\n              dup1\n              swap2\n              pop\n              pop\n              0x01\n              swap1\n              sub\n              swap1\n              0x00\n              mstore\n              keccak256(0x00, 0x20)\n              add\n              0x00\n              swap1\n              swap2\n              swap1\n              swap2\n              swap1\n              swap2\n              pop\n              sstore\n                /* \"Perfect,sol.sol\":1613:1643  this.onERC721Received.selector */\n              shl(0xe0, 0x150b7a02)\n                /* \"Perfect,sol.sol\":1606:1643  return this.onERC721Received.selector */\n              swap1\n              pop\n                /* \"Perfect,sol.sol\":1386:1650  function onERC721Received(... */\n              swap5\n              swap4\n              pop\n              pop\n              pop\n              pop\n              jump\t// out\n                /* \"Perfect,sol.sol\":645:973  function transfer(address nft) external {... */\n            tag_21:\n                /* \"Perfect,sol.sol\":695:721  uint256[] memory _tokenIds */\n              0x00\n                /* \"Perfect,sol.sol\":724:742  tokenIdsByContract */\n              0x01\n                /* \"Perfect,sol.sol\":724:747  tokenIdsByContract[nft] */\n              0x00\n                /* \"Perfect,sol.sol\":743:746  nft */\n              dup4\n                /* \"Perfect,sol.sol\":724:747  tokenIdsByContract[nft] */\n              0xffffffffffffffffffffffffffffffffffffffff\n              and\n              0xffffffffffffffffffffffffffffffffffffffff\n              and\n              dup2\n              mstore\n              0x20\n              add\n              swap1\n              dup2\n              mstore\n              0x20\n              add\n              0x00\n              keccak256\n                /* \"Perfect,sol.sol\":695:747  uint256[] memory _tokenIds = tokenIdsByContract[nft] */\n              dup1\n              sload\n              dup1\n              0x20\n              mul\n              0x20\n              add\n              mload(0x40)\n              swap1\n              dup2\n              add\n              0x40\n              mstore\n              dup1\n              swap3\n              swap2\n              swap1\n              dup2\n              dup2\n              mstore\n              0x20\n              add\n              dup3\n              dup1\n              sload\n              dup1\n              iszero\n              tag_50\n              jumpi\n              0x20\n              mul\n              dup3\n              add\n              swap2\n              swap1\n              0x00\n              mstore\n              keccak256(0x00, 0x20)\n              swap1\n            tag_51:\n              dup2\n              sload\n              dup2\n              mstore\n              0x20\n              add\n              swap1\n              0x01\n              add\n              swap1\n              dup1\n              dup4\n              gt\n              tag_51\n              jumpi\n            tag_50:\n              pop\n              pop\n              pop\n              pop\n              pop\n              swap1\n              pop\n                /* \"Perfect,sol.sol\":757:772  uint256 _length */\n              0x00\n                /* \"Perfect,sol.sol\":775:784  _tokenIds */\n              dup2\n                /* \"Perfect,sol.sol\":775:791  _tokenIds.length */\n              mload\n                /* \"Perfect,sol.sol\":757:791  uint256 _length = _tokenIds.length */\n              swap1\n              pop\n                /* \"Perfect,sol.sol\":807:816  uint256 i */\n              0x00\n                /* \"Perfect,sol.sol\":802:927  for (uint256 i = 0; i < _length; i++ ) {... */\n            tag_52:\n                /* \"Perfect,sol.sol\":826:833  _length */\n              dup2\n                /* \"Perfect,sol.sol\":822:823  i */\n              dup2\n                /* \"Perfect,sol.sol\":822:833  i < _length */\n              lt\n                /* \"Perfect,sol.sol\":802:927  for (uint256 i = 0; i < _length; i++ ) {... */\n              iszero\n              tag_53\n              jumpi\n                /* \"Perfect,sol.sol\":863:866  nft */\n              dup4\n                /* \"Perfect,sol.sol\":855:880  IERC721(nft).transferFrom */\n              0xffffffffffffffffffffffffffffffffffffffff\n              and\n              0x23b872dd\n                /* \"Perfect,sol.sol\":889:893  this */\n              address\n                /* \"Perfect,sol.sol\":896:901  admin */\n              0x00\n              dup1\n              sload\n              swap1\n              0x0100\n              exp\n              swap1\n              div\n              0xffffffffffffffffffffffffffffffffffffffff\n              and\n                /* \"Perfect,sol.sol\":903:912  _tokenIds */\n              dup7\n                /* \"Perfect,sol.sol\":913:914  i */\n              dup6\n                /* \"Perfect,sol.sol\":903:915  _tokenIds[i] */\n              dup2\n              mload\n              dup2\n              lt\n              tag_55\n              jumpi\n              tag_56\n              tag_57\n              jump\t// in\n            tag_56:\n            tag_55:\n              0x20\n              mul\n              0x20\n              add\n              add\n              mload\n                /* \"Perfect,sol.sol\":855:916  IERC721(nft).transferFrom(address(this), admin, _tokenIds[i]) */\n              mload(0x40)\n              dup5\n              0xffffffff\n              and\n              0xe0\n              shl\n              dup2\n              mstore\n              0x04\n              add\n              tag_58\n              swap4\n              swap3\n              swap2\n              swap1\n              tag_59\n              jump\t// in\n            tag_58:\n              0x00\n              mload(0x40)\n              dup1\n              dup4\n              sub\n              dup2\n              0x00\n              dup8\n              dup1\n              extcodesize\n              iszero\n              dup1\n              iszero\n              tag_60\n              jumpi\n              0x00\n              dup1\n              revert\n            tag_60:\n              pop\n              gas\n              call\n              iszero\n              dup1\n              iszero\n              tag_62\n              jumpi\n              returndatasize\n              0x00\n              dup1\n              returndatacopy\n              revert(0x00, returndatasize)\n            tag_62:\n              pop\n              pop\n              pop\n              pop\n                /* \"Perfect,sol.sol\":835:838  i++ */\n              dup1\n              dup1\n              tag_63\n              swap1\n              tag_64\n              jump\t// in\n            tag_63:\n              swap2\n              pop\n              pop\n                /* \"Perfect,sol.sol\":802:927  for (uint256 i = 0; i < _length; i++ ) {... */\n              jump(tag_52)\n            tag_53:\n              pop\n                /* \"Perfect,sol.sol\":943:961  tokenIdsByContract */\n              0x01\n                /* \"Perfect,sol.sol\":943:966  tokenIdsByContract[nft] */\n              0x00\n                /* \"Perfect,sol.sol\":962:965  nft */\n              dup5\n                /* \"Perfect,sol.sol\":943:966  tokenIdsByContract[nft] */\n              0xffffffffffffffffffffffffffffffffffffffff\n              and\n              0xffffffffffffffffffffffffffffffffffffffff\n              and\n              dup2\n              mstore\n              0x20\n              add\n              swap1\n              dup2\n              mstore\n              0x20\n              add\n              0x00\n              keccak256\n              0x00\n                /* \"Perfect,sol.sol\":936:966  delete tokenIdsByContract[nft] */\n              tag_65\n              swap2\n              swap1\n              tag_66\n              jump\t// in\n            tag_65:\n                /* \"Perfect,sol.sol\":685:973  {... */\n              pop\n              pop\n                /* \"Perfect,sol.sol\":645:973  function transfer(address nft) external {... */\n              pop\n              jump\t// out\n                /* \"Perfect,sol.sol\":978:1235  function RestorebymultipleID(address nft,uint256[] memory tokenid) external {... */\n            tag_26:\n                /* \"Perfect,sol.sol\":1064:1079  uint256 _length */\n              0x00\n                /* \"Perfect,sol.sol\":1082:1089  tokenid */\n              dup2\n                /* \"Perfect,sol.sol\":1082:1096  tokenid.length */\n              mload\n                /* \"Perfect,sol.sol\":1064:1096  uint256 _length = tokenid.length */\n              swap1\n              pop\n                /* \"Perfect,sol.sol\":1112:1121  uint256 i */\n              0x00\n                /* \"Perfect,sol.sol\":1107:1230  for (uint256 i = 0; i < _length; i++ ) {... */\n            tag_68:\n                /* \"Perfect,sol.sol\":1131:1138  _length */\n              dup2\n                /* \"Perfect,sol.sol\":1127:1128  i */\n              dup2\n                /* \"Perfect,sol.sol\":1127:1138  i < _length */\n              lt\n                /* \"Perfect,sol.sol\":1107:1230  for (uint256 i = 0; i < _length; i++ ) {... */\n              iszero\n              tag_69\n              jumpi\n                /* \"Perfect,sol.sol\":1168:1171  nft */\n              dup4\n                /* \"Perfect,sol.sol\":1160:1185  IERC721(nft).transferFrom */\n              0xffffffffffffffffffffffffffffffffffffffff\n              and\n              0x23b872dd\n                /* \"Perfect,sol.sol\":1194:1198  this */\n              address\n                /* \"Perfect,sol.sol\":1201:1206  admin */\n              0x00\n              dup1\n              sload\n              swap1\n              0x0100\n              exp\n              swap1\n              div\n              0xffffffffffffffffffffffffffffffffffffffff\n              and\n                /* \"Perfect,sol.sol\":1208:1215  tokenid */\n              dup7\n                /* \"Perfect,sol.sol\":1216:1217  i */\n              dup6\n                /* \"Perfect,sol.sol\":1208:1218  tokenid[i] */\n              dup2\n              mload\n              dup2\n              lt\n              tag_71\n              jumpi\n              tag_72\n              tag_57\n              jump\t// in\n            tag_72:\n            tag_71:\n              0x20\n              mul\n              0x20\n              add\n              add\n              mload\n                /* \"Perfect,sol.sol\":1160:1219  IERC721(nft).transferFrom(address(this), admin, tokenid[i]) */\n              mload(0x40)\n              dup5\n              0xffffffff\n              and\n              0xe0\n              shl\n              dup2\n              mstore\n              0x04\n              add\n              tag_73\n              swap4\n              swap3\n              swap2\n              swap1\n              tag_59\n              jump\t// in\n            tag_73:\n              0x00\n              mload(0x40)\n              dup1\n              dup4\n              sub\n              dup2\n              0x00\n              dup8\n              dup1\n              extcodesize\n              iszero\n              dup1\n              iszero\n              tag_74\n              jumpi\n              0x00\n              dup1\n              revert\n            tag_74:\n              pop\n              gas\n              call\n              iszero\n              dup1\n              iszero\n              tag_76\n              jumpi\n              returndatasize\n              0x00\n              dup1\n              returndatacopy\n              revert(0x00, returndatasize)\n            tag_76:\n              pop\n              pop\n              pop\n              pop\n                /* \"Perfect,sol.sol\":1140:1143  i++ */\n              dup1\n              dup1\n              tag_77\n              swap1\n              tag_64\n              jump\t// in\n            tag_77:\n              swap2\n              pop\n              pop\n                /* \"Perfect,sol.sol\":1107:1230  for (uint256 i = 0; i < _length; i++ ) {... */\n              jump(tag_68)\n            tag_69:\n              pop\n                /* \"Perfect,sol.sol\":1054:1235  {... */\n              pop\n                /* \"Perfect,sol.sol\":978:1235  function RestorebymultipleID(address nft,uint256[] memory tokenid) external {... */\n              pop\n              pop\n              jump\t// out\n                /* \"Perfect,sol.sol\":1239:1379  function Restorebysingleid(address nft,uint256 tokenid) external {... */\n            tag_31:\n                /* \"Perfect,sol.sol\":1326:1329  nft */\n              dup2\n                /* \"Perfect,sol.sol\":1318:1343  IERC721(nft).transferFrom */\n              0xffffffffffffffffffffffffffffffffffffffff\n              and\n              0x23b872dd\n                /* \"Perfect,sol.sol\":1352:1356  this */\n              address\n                /* \"Perfect,sol.sol\":1359:1364  admin */\n              0x00\n              dup1\n              sload\n              swap1\n              0x0100\n              exp\n              swap1\n              div\n              0xffffffffffffffffffffffffffffffffffffffff\n              and\n                /* \"Perfect,sol.sol\":1366:1373  tokenid */\n              dup5\n                /* \"Perfect,sol.sol\":1318:1374  IERC721(nft).transferFrom(address(this), admin, tokenid) */\n              mload(0x40)\n              dup5\n              0xffffffff\n              and\n              0xe0\n              shl\n              dup2\n              mstore\n              0x04\n              add\n              tag_79\n              swap4\n              swap3\n              swap2\n              swap1\n              tag_59\n              jump\t// in\n            tag_79:\n              0x00\n              mload(0x40)\n              dup1\n              dup4\n              sub\n              dup2\n              0x00\n              dup8\n              dup1\n              extcodesize\n              iszero\n              dup1\n              iszero\n              tag_80\n              jumpi\n              0x00\n              dup1\n              revert\n            tag_80:\n              pop\n              gas\n              call\n              iszero\n              dup1\n              iszero\n              tag_82\n              jumpi\n              returndatasize\n              0x00\n              dup1\n              returndatacopy\n              revert(0x00, returndatasize)\n            tag_82:\n              pop\n              pop\n              pop\n              pop\n                /* \"Perfect,sol.sol\":1239:1379  function Restorebysingleid(address nft,uint256 tokenid) external {... */\n              pop\n              pop\n              jump\t// out\n                /* \"Perfect,sol.sol\":384:639  function mint(... */\n            tag_35:\n                /* \"Perfect,sol.sol\":487:499  bool success */\n              0x00\n                /* \"Perfect,sol.sol\":505:508  nft */\n              dup4\n                /* \"Perfect,sol.sol\":505:513  nft.call */\n              0xffffffffffffffffffffffffffffffffffffffff\n              and\n                /* \"Perfect,sol.sol\":521:530  msg.value */\n              callvalue\n                /* \"Perfect,sol.sol\":532:537  param */\n              dup5\n              dup5\n                /* \"Perfect,sol.sol\":505:538  nft.call{value: msg.value}(param) */\n              mload(0x40)\n              tag_84\n              swap3\n              swap2\n              swap1\n              tag_85\n              jump\t// in\n            tag_84:\n              0x00\n              mload(0x40)\n              dup1\n              dup4\n              sub\n              dup2\n              dup6\n              dup8\n              gas\n              call\n              swap3\n              pop\n              pop\n              pop\n              returndatasize\n              dup1\n              0x00\n              dup2\n              eq\n              tag_88\n              jumpi\n              mload(0x40)\n              swap2\n              pop\n              and(add(returndatasize, 0x3f), not(0x1f))\n              dup3\n              add\n              0x40\n              mstore\n              returndatasize\n              dup3\n              mstore\n              returndatasize\n              0x00\n              0x20\n              dup5\n              add\n              returndatacopy\n              jump(tag_87)\n            tag_88:\n              0x60\n              swap2\n              pop\n            tag_87:\n              pop\n                /* \"Perfect,sol.sol\":486:538  (bool success, ) = nft.call{value: msg.value}(param) */\n              pop\n              swap1\n              pop\n                /* \"Perfect,sol.sol\":556:563  success */\n              dup1\n                /* \"Perfect,sol.sol\":548:564  require(success) */\n              tag_89\n              jumpi\n              0x00\n              dup1\n              revert\n            tag_89:\n                /* \"Perfect,sol.sol\":476:639  {... */\n              pop\n                /* \"Perfect,sol.sol\":384:639  function mint(... */\n              pop\n              pop\n              pop\n              jump\t// out\n                /* \"Perfect,sol.sol\":1656:1778  function tokenIdsByNFT(address nft) external view returns(uint256[] memory){... */\n            tag_39:\n                /* \"Perfect,sol.sol\":1714:1730  uint256[] memory */\n              0x60\n                /* \"Perfect,sol.sol\":1748:1766  tokenIdsByContract */\n              0x01\n                /* \"Perfect,sol.sol\":1748:1771  tokenIdsByContract[nft] */\n              0x00\n                /* \"Perfect,sol.sol\":1767:1770  nft */\n              dup4\n                /* \"Perfect,sol.sol\":1748:1771  tokenIdsByContract[nft] */\n              0xffffffffffffffffffffffffffffffffffffffff\n              and\n              0xffffffffffffffffffffffffffffffffffffffff\n              and\n              dup2\n              mstore\n              0x20\n              add\n              swap1\n              dup2\n              mstore\n              0x20\n              add\n              0x00\n              keccak256\n                /* \"Perfect,sol.sol\":1741:1771  return tokenIdsByContract[nft] */\n              dup1\n              sload\n              dup1\n              0x20\n              mul\n              0x20\n              add\n              mload(0x40)\n              swap1\n              dup2\n              add\n              0x40\n              mstore\n              dup1\n              swap3\n              swap2\n              swap1\n              dup2\n              dup2\n              mstore\n              0x20\n              add\n              dup3\n              dup1\n              sload\n              dup1\n              iszero\n              tag_91\n              jumpi\n              0x20\n              mul\n              dup3\n              add\n              swap2\n              swap1\n              0x00\n              mstore\n              keccak256(0x00, 0x20)\n              swap1\n            tag_92:\n              dup2\n              sload\n              dup2\n              mstore\n              0x20\n              add\n              swap1\n              0x01\n              add\n              swap1\n              dup1\n              dup4\n              gt\n              tag_92\n              jumpi\n            tag_91:\n              pop\n              pop\n              pop\n              pop\n              pop\n              swap1\n              pop\n                /* \"Perfect,sol.sol\":1656:1778  function tokenIdsByNFT(address nft) external view returns(uint256[] memory){... */\n              swap2\n              swap1\n              pop\n              jump\t// out\n                /* \"Perfect,sol.sol\":230:250  address public admin */\n            tag_44:\n              0x00\n              dup1\n              sload\n              swap1\n              0x0100\n              exp\n              swap1\n              div\n              0xffffffffffffffffffffffffffffffffffffffff\n              and\n              dup2\n              jump\t// out\n            tag_66:\n              pop\n              dup1\n              sload\n              0x00\n              dup3\n              sstore\n              swap1\n              0x00\n              mstore\n              keccak256(0x00, 0x20)\n              swap1\n              dup2\n              add\n              swap1\n              tag_94\n              swap2\n              swap1\n              tag_95\n              jump\t// in\n            tag_94:\n              pop\n              jump\t// out\n            tag_95:\n            tag_96:\n              dup1\n              dup3\n              gt\n              iszero\n              tag_97\n              jumpi\n              0x00\n              dup2\n              0x00\n              swap1\n              sstore\n              pop\n              0x01\n              add\n              jump(tag_96)\n            tag_97:\n              pop\n              swap1\n              jump\t// out\n                /* \"#utility.yul\":7:82   */\n            tag_98:\n                /* \"#utility.yul\":40:46   */\n              0x00\n                /* \"#utility.yul\":73:75   */\n              0x40\n                /* \"#utility.yul\":67:76   */\n              mload\n                /* \"#utility.yul\":57:76   */\n              swap1\n              pop\n                /* \"#utility.yul\":7:82   */\n              swap1\n              jump\t// out\n                /* \"#utility.yul\":88:205   */\n            tag_99:\n                /* \"#utility.yul\":197:198   */\n              0x00\n                /* \"#utility.yul\":194:195   */\n              dup1\n                /* \"#utility.yul\":187:199   */\n              revert\n                /* \"#utility.yul\":211:328   */\n            tag_100:\n                /* \"#utility.yul\":320:321   */\n              0x00\n                /* \"#utility.yul\":317:318   */\n              dup1\n                /* \"#utility.yul\":310:322   */\n              revert\n                /* \"#utility.yul\":334:460   */\n            tag_101:\n                /* \"#utility.yul\":371:378   */\n              0x00\n                /* \"#utility.yul\":411:453   */\n              0xffffffffffffffffffffffffffffffffffffffff\n                /* \"#utility.yul\":404:409   */\n              dup3\n                /* \"#utility.yul\":400:454   */\n              and\n                /* \"#utility.yul\":389:454   */\n              swap1\n              pop\n                /* \"#utility.yul\":334:460   */\n              swap2\n              swap1\n              pop\n              jump\t// out\n                /* \"#utility.yul\":466:562   */\n            tag_102:\n                /* \"#utility.yul\":503:510   */\n              0x00\n                /* \"#utility.yul\":532:556   */\n              tag_144\n                /* \"#utility.yul\":550:555   */\n              dup3\n                /* \"#utility.yul\":532:556   */\n              tag_101\n              jump\t// in\n            tag_144:\n                /* \"#utility.yul\":521:556   */\n              swap1\n              pop\n                /* \"#utility.yul\":466:562   */\n              swap2\n              swap1\n              pop\n              jump\t// out\n                /* \"#utility.yul\":568:690   */\n            tag_103:\n                /* \"#utility.yul\":641:665   */\n              tag_146\n                /* \"#utility.yul\":659:664   */\n              dup2\n                /* \"#utility.yul\":641:665   */\n              tag_102\n              jump\t// in\n            tag_146:\n                /* \"#utility.yul\":634:639   */\n              dup2\n                /* \"#utility.yul\":631:666   */\n              eq\n                /* \"#utility.yul\":621:684   */\n              tag_147\n              jumpi\n                /* \"#utility.yul\":680:681   */\n              0x00\n                /* \"#utility.yul\":677:678   */\n              dup1\n                /* \"#utility.yul\":670:682   */\n              revert\n                /* \"#utility.yul\":621:684   */\n            tag_147:\n                /* \"#utility.yul\":568:690   */\n              pop\n              jump\t// out\n                /* \"#utility.yul\":696:835   */\n            tag_104:\n                /* \"#utility.yul\":742:747   */\n              0x00\n                /* \"#utility.yul\":780:786   */\n              dup2\n                /* \"#utility.yul\":767:787   */\n              calldataload\n                /* \"#utility.yul\":758:787   */\n              swap1\n              pop\n                /* \"#utility.yul\":796:829   */\n              tag_149\n                /* \"#utility.yul\":823:828   */\n              dup2\n                /* \"#utility.yul\":796:829   */\n              tag_103\n              jump\t// in\n            tag_149:\n                /* \"#utility.yul\":696:835   */\n              swap3\n              swap2\n              pop\n              pop\n              jump\t// out\n                /* \"#utility.yul\":841:918   */\n            tag_105:\n                /* \"#utility.yul\":878:885   */\n              0x00\n                /* \"#utility.yul\":907:912   */\n              dup2\n                /* \"#utility.yul\":896:912   */\n              swap1\n              pop\n                /* \"#utility.yul\":841:918   */\n              swap2\n              swap1\n              pop\n              jump\t// out\n                /* \"#utility.yul\":924:1046   */\n            tag_106:\n                /* \"#utility.yul\":997:1021   */\n              tag_152\n                /* \"#utility.yul\":1015:1020   */\n              dup2\n                /* \"#utility.yul\":997:1021   */\n              tag_105\n              jump\t// in\n            tag_152:\n                /* \"#utility.yul\":990:995   */\n              dup2\n                /* \"#utility.yul\":987:1022   */\n              eq\n                /* \"#utility.yul\":977:1040   */\n              tag_153\n              jumpi\n                /* \"#utility.yul\":1036:1037   */\n              0x00\n                /* \"#utility.yul\":1033:1034   */\n              dup1\n                /* \"#utility.yul\":1026:1038   */\n              revert\n                /* \"#utility.yul\":977:1040   */\n            tag_153:\n                /* \"#utility.yul\":924:1046   */\n              pop\n              jump\t// out\n                /* \"#utility.yul\":1052:1191   */\n            tag_107:\n                /* \"#utility.yul\":1098:1103   */\n              0x00\n                /* \"#utility.yul\":1136:1142   */\n              dup2\n                /* \"#utility.yul\":1123:1143   */\n              calldataload\n                /* \"#utility.yul\":1114:1143   */\n              swap1\n              pop\n                /* \"#utility.yul\":1152:1185   */\n              tag_155\n                /* \"#utility.yul\":1179:1184   */\n              dup2\n                /* \"#utility.yul\":1152:1185   */\n              tag_106\n              jump\t// in\n            tag_155:\n                /* \"#utility.yul\":1052:1191   */\n              swap3\n              swap2\n              pop\n              pop\n              jump\t// out\n                /* \"#utility.yul\":1197:1314   */\n            tag_108:\n                /* \"#utility.yul\":1306:1307   */\n              0x00\n                /* \"#utility.yul\":1303:1304   */\n              dup1\n                /* \"#utility.yul\":1296:1308   */\n              revert\n                /* \"#utility.yul\":1320:1437   */\n            tag_109:\n                /* \"#utility.yul\":1429:1430   */\n              0x00\n                /* \"#utility.yul\":1426:1427   */\n              dup1\n                /* \"#utility.yul\":1419:1431   */\n              revert\n                /* \"#utility.yul\":1443:1545   */\n            tag_110:\n                /* \"#utility.yul\":1484:1490   */\n              0x00\n                /* \"#utility.yul\":1535:1537   */\n              0x1f\n                /* \"#utility.yul\":1531:1538   */\n              not\n                /* \"#utility.yul\":1526:1528   */\n              0x1f\n                /* \"#utility.yul\":1519:1524   */\n              dup4\n                /* \"#utility.yul\":1515:1529   */\n              add\n                /* \"#utility.yul\":1511:1539   */\n              and\n                /* \"#utility.yul\":1501:1539   */\n              swap1\n              pop\n                /* \"#utility.yul\":1443:1545   */\n              swap2\n              swap1\n              pop\n              jump\t// out\n                /* \"#utility.yul\":1551:1731   */\n            tag_111:\n                /* \"#utility.yul\":1599:1676   */\n              0x4e487b7100000000000000000000000000000000000000000000000000000000\n                /* \"#utility.yul\":1596:1597   */\n              0x00\n                /* \"#utility.yul\":1589:1677   */\n              mstore\n                /* \"#utility.yul\":1696:1700   */\n              0x41\n                /* \"#utility.yul\":1693:1694   */\n              0x04\n                /* \"#utility.yul\":1686:1701   */\n              mstore\n                /* \"#utility.yul\":1720:1724   */\n              0x24\n                /* \"#utility.yul\":1717:1718   */\n              0x00\n                /* \"#utility.yul\":1710:1725   */\n              revert\n                /* \"#utility.yul\":1737:2018   */\n            tag_112:\n                /* \"#utility.yul\":1820:1847   */\n              tag_161\n                /* \"#utility.yul\":1842:1846   */\n              dup3\n                /* \"#utility.yul\":1820:1847   */\n              tag_110\n              jump\t// in\n            tag_161:\n                /* \"#utility.yul\":1812:1818   */\n              dup2\n                /* \"#utility.yul\":1808:1848   */\n              add\n                /* \"#utility.yul\":1950:1956   */\n              dup2\n                /* \"#utility.yul\":1938:1948   */\n              dup2\n                /* \"#utility.yul\":1935:1957   */\n              lt\n                /* \"#utility.yul\":1914:1932   */\n              0xffffffffffffffff\n                /* \"#utility.yul\":1902:1912   */\n              dup3\n                /* \"#utility.yul\":1899:1933   */\n              gt\n                /* \"#utility.yul\":1896:1958   */\n              or\n                /* \"#utility.yul\":1893:1981   */\n              iszero\n              tag_162\n              jumpi\n                /* \"#utility.yul\":1961:1979   */\n              tag_163\n              tag_111\n              jump\t// in\n            tag_163:\n                /* \"#utility.yul\":1893:1981   */\n            tag_162:\n                /* \"#utility.yul\":2001:2011   */\n              dup1\n                /* \"#utility.yul\":1997:1999   */\n              0x40\n                /* \"#utility.yul\":1990:2012   */\n              mstore\n                /* \"#utility.yul\":1780:2018   */\n              pop\n                /* \"#utility.yul\":1737:2018   */\n              pop\n              pop\n              jump\t// out\n                /* \"#utility.yul\":2024:2153   */\n            tag_113:\n                /* \"#utility.yul\":2058:2064   */\n              0x00\n                /* \"#utility.yul\":2085:2105   */\n              tag_165\n              tag_98\n              jump\t// in\n            tag_165:\n                /* \"#utility.yul\":2075:2105   */\n              swap1\n              pop\n                /* \"#utility.yul\":2114:2147   */\n              tag_166\n                /* \"#utility.yul\":2142:2146   */\n              dup3\n                /* \"#utility.yul\":2134:2140   */\n              dup3\n                /* \"#utility.yul\":2114:2147   */\n              tag_112\n              jump\t// in\n            tag_166:\n                /* \"#utility.yul\":2024:2153   */\n              swap2\n              swap1\n              pop\n              jump\t// out\n                /* \"#utility.yul\":2159:2466   */\n            tag_114:\n                /* \"#utility.yul\":2220:2224   */\n              0x00\n                /* \"#utility.yul\":2310:2328   */\n              0xffffffffffffffff\n                /* \"#utility.yul\":2302:2308   */\n              dup3\n                /* \"#utility.yul\":2299:2329   */\n              gt\n                /* \"#utility.yul\":2296:2352   */\n              iszero\n              tag_168\n              jumpi\n                /* \"#utility.yul\":2332:2350   */\n              tag_169\n              tag_111\n              jump\t// in\n            tag_169:\n                /* \"#utility.yul\":2296:2352   */\n            tag_168:\n                /* \"#utility.yul\":2370:2399   */\n              tag_170\n                /* \"#utility.yul\":2392:2398   */\n              dup3\n                /* \"#utility.yul\":2370:2399   */\n              tag_110\n              jump\t// in\n            tag_170:\n                /* \"#utility.yul\":2362:2399   */\n              swap1\n              pop\n                /* \"#utility.yul\":2454:2458   */\n              0x20\n                /* \"#utility.yul\":2448:2452   */\n              dup2\n                /* \"#utility.yul\":2444:2459   */\n              add\n                /* \"#utility.yul\":2436:2459   */\n              swap1\n              pop\n                /* \"#utility.yul\":2159:2466   */\n              swap2\n              swap1\n              pop\n              jump\t// out\n                /* \"#utility.yul\":2472:2618   */\n            tag_115:\n                /* \"#utility.yul\":2569:2575   */\n              dup3\n                /* \"#utility.yul\":2564:2567   */\n              dup2\n                /* \"#utility.yul\":2559:2562   */\n              dup4\n                /* \"#utility.yul\":2546:2576   */\n              calldatacopy\n                /* \"#utility.yul\":2610:2611   */\n              0x00\n                /* \"#utility.yul\":2601:2607   */\n              dup4\n                /* \"#utility.yul\":2596:2599   */\n              dup4\n                /* \"#utility.yul\":2592:2608   */\n              add\n                /* \"#utility.yul\":2585:2612   */\n              mstore\n                /* \"#utility.yul\":2472:2618   */\n              pop\n              pop\n              pop\n              jump\t// out\n                /* \"#utility.yul\":2624:3047   */\n            tag_116:\n                /* \"#utility.yul\":2701:2706   */\n              0x00\n                /* \"#utility.yul\":2726:2791   */\n              tag_173\n                /* \"#utility.yul\":2742:2790   */\n              tag_174\n                /* \"#utility.yul\":2783:2789   */\n              dup5\n                /* \"#utility.yul\":2742:2790   */\n              tag_114\n              jump\t// in\n            tag_174:\n                /* \"#utility.yul\":2726:2791   */\n              tag_113\n              jump\t// in\n            tag_173:\n                /* \"#utility.yul\":2717:2791   */\n              swap1\n              pop\n                /* \"#utility.yul\":2814:2820   */\n              dup3\n                /* \"#utility.yul\":2807:2812   */\n              dup2\n                /* \"#utility.yul\":2800:2821   */\n              mstore\n                /* \"#utility.yul\":2852:2856   */\n              0x20\n                /* \"#utility.yul\":2845:2850   */\n              dup2\n                /* \"#utility.yul\":2841:2857   */\n              add\n                /* \"#utility.yul\":2890:2893   */\n              dup5\n                /* \"#utility.yul\":2881:2887   */\n              dup5\n                /* \"#utility.yul\":2876:2879   */\n              dup5\n                /* \"#utility.yul\":2872:2888   */\n              add\n                /* \"#utility.yul\":2869:2894   */\n              gt\n                /* \"#utility.yul\":2866:2978   */\n              iszero\n              tag_175\n              jumpi\n                /* \"#utility.yul\":2897:2976   */\n              tag_176\n              tag_109\n              jump\t// in\n            tag_176:\n                /* \"#utility.yul\":2866:2978   */\n            tag_175:\n                /* \"#utility.yul\":2987:3041   */\n              tag_177\n                /* \"#utility.yul\":3034:3040   */\n              dup5\n                /* \"#utility.yul\":3029:3032   */\n              dup3\n                /* \"#utility.yul\":3024:3027   */\n              dup6\n                /* \"#utility.yul\":2987:3041   */\n              tag_115\n              jump\t// in\n            tag_177:\n                /* \"#utility.yul\":2707:3047   */\n              pop\n                /* \"#utility.yul\":2624:3047   */\n              swap4\n              swap3\n              pop\n              pop\n              pop\n              jump\t// out\n                /* \"#utility.yul\":3066:3404   */\n            tag_117:\n                /* \"#utility.yul\":3121:3126   */\n              0x00\n                /* \"#utility.yul\":3170:3173   */\n              dup3\n                /* \"#utility.yul\":3163:3167   */\n              0x1f\n                /* \"#utility.yul\":3155:3161   */\n              dup4\n                /* \"#utility.yul\":3151:3168   */\n              add\n                /* \"#utility.yul\":3147:3174   */\n              slt\n                /* \"#utility.yul\":3137:3259   */\n              tag_179\n              jumpi\n                /* \"#utility.yul\":3178:3257   */\n              tag_180\n              tag_108\n              jump\t// in\n            tag_180:\n                /* \"#utility.yul\":3137:3259   */\n            tag_179:\n                /* \"#utility.yul\":3295:3301   */\n              dup2\n                /* \"#utility.yul\":3282:3302   */\n              calldataload\n                /* \"#utility.yul\":3320:3398   */\n              tag_181\n                /* \"#utility.yul\":3394:3397   */\n              dup5\n                /* \"#utility.yul\":3386:3392   */\n              dup3\n                /* \"#utility.yul\":3379:3383   */\n              0x20\n                /* \"#utility.yul\":3371:3377   */\n              dup7\n                /* \"#utility.yul\":3367:3384   */\n              add\n                /* \"#utility.yul\":3320:3398   */\n              tag_116\n              jump\t// in\n            tag_181:\n                /* \"#utility.yul\":3311:3398   */\n              swap2\n              pop\n                /* \"#utility.yul\":3127:3404   */\n              pop\n                /* \"#utility.yul\":3066:3404   */\n              swap3\n              swap2\n              pop\n              pop\n              jump\t// out\n                /* \"#utility.yul\":3410:4353   */\n            tag_13:\n                /* \"#utility.yul\":3505:3511   */\n              0x00\n                /* \"#utility.yul\":3513:3519   */\n              dup1\n                /* \"#utility.yul\":3521:3527   */\n              0x00\n                /* \"#utility.yul\":3529:3535   */\n              dup1\n                /* \"#utility.yul\":3578:3581   */\n              0x80\n                /* \"#utility.yul\":3566:3575   */\n              dup6\n                /* \"#utility.yul\":3557:3564   */\n              dup8\n                /* \"#utility.yul\":3553:3576   */\n              sub\n                /* \"#utility.yul\":3549:3582   */\n              slt\n                /* \"#utility.yul\":3546:3666   */\n              iszero\n              tag_183\n              jumpi\n                /* \"#utility.yul\":3585:3664   */\n              tag_184\n              tag_99\n              jump\t// in\n            tag_184:\n                /* \"#utility.yul\":3546:3666   */\n            tag_183:\n                /* \"#utility.yul\":3705:3706   */\n              0x00\n                /* \"#utility.yul\":3730:3783   */\n              tag_185\n                /* \"#utility.yul\":3775:3782   */\n              dup8\n                /* \"#utility.yul\":3766:3772   */\n              dup3\n                /* \"#utility.yul\":3755:3764   */\n              dup9\n                /* \"#utility.yul\":3751:3773   */\n              add\n                /* \"#utility.yul\":3730:3783   */\n              tag_104\n              jump\t// in\n            tag_185:\n                /* \"#utility.yul\":3720:3783   */\n              swap5\n              pop\n                /* \"#utility.yul\":3676:3793   */\n              pop\n                /* \"#utility.yul\":3832:3834   */\n              0x20\n                /* \"#utility.yul\":3858:3911   */\n              tag_186\n                /* \"#utility.yul\":3903:3910   */\n              dup8\n                /* \"#utility.yul\":3894:3900   */\n              dup3\n                /* \"#utility.yul\":3883:3892   */\n              dup9\n                /* \"#utility.yul\":3879:3901   */\n              add\n                /* \"#utility.yul\":3858:3911   */\n              tag_104\n              jump\t// in\n            tag_186:\n                /* \"#utility.yul\":3848:3911   */\n              swap4\n              pop\n                /* \"#utility.yul\":3803:3921   */\n              pop\n                /* \"#utility.yul\":3960:3962   */\n              0x40\n                /* \"#utility.yul\":3986:4039   */\n              tag_187\n                /* \"#utility.yul\":4031:4038   */\n              dup8\n                /* \"#utility.yul\":4022:4028   */\n              dup3\n                /* \"#utility.yul\":4011:4020   */\n              dup9\n                /* \"#utility.yul\":4007:4029   */\n              add\n                /* \"#utility.yul\":3986:4039   */\n              tag_107\n              jump\t// in\n            tag_187:\n                /* \"#utility.yul\":3976:4039   */\n              swap3\n              pop\n                /* \"#utility.yul\":3931:4049   */\n              pop\n                /* \"#utility.yul\":4116:4118   */\n              0x60\n                /* \"#utility.yul\":4105:4114   */\n              dup6\n                /* \"#utility.yul\":4101:4119   */\n              add\n                /* \"#utility.yul\":4088:4120   */\n              calldataload\n                /* \"#utility.yul\":4147:4165   */\n              0xffffffffffffffff\n                /* \"#utility.yul\":4139:4145   */\n              dup2\n                /* \"#utility.yul\":4136:4166   */\n              gt\n                /* \"#utility.yul\":4133:4250   */\n              iszero\n              tag_188\n              jumpi\n                /* \"#utility.yul\":4169:4248   */\n              tag_189\n              tag_100\n              jump\t// in\n            tag_189:\n                /* \"#utility.yul\":4133:4250   */\n            tag_188:\n                /* \"#utility.yul\":4274:4336   */\n              tag_190\n                /* \"#utility.yul\":4328:4335   */\n              dup8\n                /* \"#utility.yul\":4319:4325   */\n              dup3\n                /* \"#utility.yul\":4308:4317   */\n              dup9\n                /* \"#utility.yul\":4304:4326   */\n              add\n                /* \"#utility.yul\":4274:4336   */\n              tag_117\n              jump\t// in\n            tag_190:\n                /* \"#utility.yul\":4264:4336   */\n              swap2\n              pop\n                /* \"#utility.yul\":4059:4346   */\n              pop\n                /* \"#utility.yul\":3410:4353   */\n              swap3\n              swap6\n              swap2\n              swap5\n              pop\n              swap3\n              pop\n              jump\t// out\n                /* \"#utility.yul\":4359:4508   */\n            tag_118:\n                /* \"#utility.yul\":4395:4402   */\n              0x00\n                /* \"#utility.yul\":4435:4501   */\n              0xffffffff00000000000000000000000000000000000000000000000000000000\n                /* \"#utility.yul\":4428:4433   */\n              dup3\n                /* \"#utility.yul\":4424:4502   */\n              and\n                /* \"#utility.yul\":4413:4502   */\n              swap1\n              pop\n                /* \"#utility.yul\":4359:4508   */\n              swap2\n              swap1\n              pop\n              jump\t// out\n                /* \"#utility.yul\":4514:4629   */\n            tag_119:\n                /* \"#utility.yul\":4599:4622   */\n              tag_193\n                /* \"#utility.yul\":4616:4621   */\n              dup2\n                /* \"#utility.yul\":4599:4622   */\n              tag_118\n              jump\t// in\n            tag_193:\n                /* \"#utility.yul\":4594:4597   */\n              dup3\n                /* \"#utility.yul\":4587:4623   */\n              mstore\n                /* \"#utility.yul\":4514:4629   */\n              pop\n              pop\n              jump\t// out\n                /* \"#utility.yul\":4635:4853   */\n            tag_16:\n                /* \"#utility.yul\":4726:4730   */\n              0x00\n                /* \"#utility.yul\":4764:4766   */\n              0x20\n                /* \"#utility.yul\":4753:4762   */\n              dup3\n                /* \"#utility.yul\":4749:4767   */\n              add\n                /* \"#utility.yul\":4741:4767   */\n              swap1\n              pop\n                /* \"#utility.yul\":4777:4846   */\n              tag_195\n                /* \"#utility.yul\":4843:4844   */\n              0x00\n                /* \"#utility.yul\":4832:4841   */\n              dup4\n                /* \"#utility.yul\":4828:4845   */\n              add\n                /* \"#utility.yul\":4819:4825   */\n              dup5\n                /* \"#utility.yul\":4777:4846   */\n              tag_119\n              jump\t// in\n            tag_195:\n                /* \"#utility.yul\":4635:4853   */\n              swap3\n              swap2\n              pop\n              pop\n              jump\t// out\n                /* \"#utility.yul\":4859:5188   */\n            tag_20:\n                /* \"#utility.yul\":4918:4924   */\n              0x00\n                /* \"#utility.yul\":4967:4969   */\n              0x20\n                /* \"#utility.yul\":4955:4964   */\n              dup3\n                /* \"#utility.yul\":4946:4953   */\n              dup5\n                /* \"#utility.yul\":4942:4965   */\n              sub\n                /* \"#utility.yul\":4938:4970   */\n              slt\n                /* \"#utility.yul\":4935:5054   */\n              iszero\n              tag_197\n              jumpi\n                /* \"#utility.yul\":4973:5052   */\n              tag_198\n              tag_99\n              jump\t// in\n            tag_198:\n                /* \"#utility.yul\":4935:5054   */\n            tag_197:\n                /* \"#utility.yul\":5093:5094   */\n              0x00\n                /* \"#utility.yul\":5118:5171   */\n              tag_199\n                /* \"#utility.yul\":5163:5170   */\n              dup5\n                /* \"#utility.yul\":5154:5160   */\n              dup3\n                /* \"#utility.yul\":5143:5152   */\n              dup6\n                /* \"#utility.yul\":5139:5161   */\n              add\n                /* \"#utility.yul\":5118:5171   */\n              tag_104\n              jump\t// in\n            tag_199:\n                /* \"#utility.yul\":5108:5171   */\n              swap2\n              pop\n                /* \"#utility.yul\":5064:5181   */\n              pop\n                /* \"#utility.yul\":4859:5188   */\n              swap3\n              swap2\n              pop\n              pop\n              jump\t// out\n                /* \"#utility.yul\":5194:5505   */\n            tag_120:\n                /* \"#utility.yul\":5271:5275   */\n              0x00\n                /* \"#utility.yul\":5361:5379   */\n              0xffffffffffffffff\n                /* \"#utility.yul\":5353:5359   */\n              dup3\n                /* \"#utility.yul\":5350:5380   */\n              gt\n                /* \"#utility.yul\":5347:5403   */\n              iszero\n              tag_201\n              jumpi\n                /* \"#utility.yul\":5383:5401   */\n              tag_202\n              tag_111\n              jump\t// in\n            tag_202:\n                /* \"#utility.yul\":5347:5403   */\n            tag_201:\n                /* \"#utility.yul\":5433:5437   */\n              0x20\n                /* \"#utility.yul\":5425:5431   */\n              dup3\n                /* \"#utility.yul\":5421:5438   */\n              mul\n                /* \"#utility.yul\":5413:5438   */\n              swap1\n              pop\n                /* \"#utility.yul\":5493:5497   */\n              0x20\n                /* \"#utility.yul\":5487:5491   */\n              dup2\n                /* \"#utility.yul\":5483:5498   */\n              add\n                /* \"#utility.yul\":5475:5498   */\n              swap1\n              pop\n                /* \"#utility.yul\":5194:5505   */\n              swap2\n              swap1\n              pop\n              jump\t// out\n                /* \"#utility.yul\":5511:5628   */\n            tag_121:\n                /* \"#utility.yul\":5620:5621   */\n              0x00\n                /* \"#utility.yul\":5617:5618   */\n              dup1\n                /* \"#utility.yul\":5610:5622   */\n              revert\n                /* \"#utility.yul\":5651:6361   */\n            tag_122:\n                /* \"#utility.yul\":5747:5752   */\n              0x00\n                /* \"#utility.yul\":5772:5853   */\n              tag_205\n                /* \"#utility.yul\":5788:5852   */\n              tag_206\n                /* \"#utility.yul\":5845:5851   */\n              dup5\n                /* \"#utility.yul\":5788:5852   */\n              tag_120\n              jump\t// in\n            tag_206:\n                /* \"#utility.yul\":5772:5853   */\n              tag_113\n              jump\t// in\n            tag_205:\n                /* \"#utility.yul\":5763:5853   */\n              swap1\n              pop\n                /* \"#utility.yul\":5873:5878   */\n              dup1\n                /* \"#utility.yul\":5902:5908   */\n              dup4\n                /* \"#utility.yul\":5895:5900   */\n              dup3\n                /* \"#utility.yul\":5888:5909   */\n              mstore\n                /* \"#utility.yul\":5936:5940   */\n              0x20\n                /* \"#utility.yul\":5929:5934   */\n              dup3\n                /* \"#utility.yul\":5925:5941   */\n              add\n                /* \"#utility.yul\":5918:5941   */\n              swap1\n              pop\n                /* \"#utility.yul\":5989:5993   */\n              0x20\n                /* \"#utility.yul\":5981:5987   */\n              dup5\n                /* \"#utility.yul\":5977:5994   */\n              mul\n                /* \"#utility.yul\":5969:5975   */\n              dup4\n                /* \"#utility.yul\":5965:5995   */\n              add\n                /* \"#utility.yul\":6018:6021   */\n              dup6\n                /* \"#utility.yul\":6010:6016   */\n              dup2\n                /* \"#utility.yul\":6007:6022   */\n              gt\n                /* \"#utility.yul\":6004:6126   */\n              iszero\n              tag_207\n              jumpi\n                /* \"#utility.yul\":6037:6116   */\n              tag_208\n              tag_121\n              jump\t// in\n            tag_208:\n                /* \"#utility.yul\":6004:6126   */\n            tag_207:\n                /* \"#utility.yul\":6152:6158   */\n              dup4\n                /* \"#utility.yul\":6135:6355   */\n            tag_209:\n                /* \"#utility.yul\":6169:6175   */\n              dup2\n                /* \"#utility.yul\":6164:6167   */\n              dup2\n                /* \"#utility.yul\":6161:6176   */\n              lt\n                /* \"#utility.yul\":6135:6355   */\n              iszero\n              tag_211\n              jumpi\n                /* \"#utility.yul\":6244:6247   */\n              dup1\n                /* \"#utility.yul\":6273:6310   */\n              tag_212\n                /* \"#utility.yul\":6306:6309   */\n              dup9\n                /* \"#utility.yul\":6294:6304   */\n              dup3\n                /* \"#utility.yul\":6273:6310   */\n              tag_107\n              jump\t// in\n            tag_212:\n                /* \"#utility.yul\":6268:6271   */\n              dup5\n                /* \"#utility.yul\":6261:6311   */\n              mstore\n                /* \"#utility.yul\":6340:6344   */\n              0x20\n                /* \"#utility.yul\":6335:6338   */\n              dup5\n                /* \"#utility.yul\":6331:6345   */\n              add\n                /* \"#utility.yul\":6324:6345   */\n              swap4\n              pop\n                /* \"#utility.yul\":6211:6355   */\n              pop\n                /* \"#utility.yul\":6195:6199   */\n              0x20\n                /* \"#utility.yul\":6190:6193   */\n              dup2\n                /* \"#utility.yul\":6186:6200   */\n              add\n                /* \"#utility.yul\":6179:6200   */\n              swap1\n              pop\n                /* \"#utility.yul\":6135:6355   */\n              jump(tag_209)\n            tag_211:\n                /* \"#utility.yul\":6139:6160   */\n              pop\n                /* \"#utility.yul\":5753:6361   */\n              pop\n              pop\n                /* \"#utility.yul\":5651:6361   */\n              swap4\n              swap3\n              pop\n              pop\n              pop\n              jump\t// out\n                /* \"#utility.yul\":6384:6754   */\n            tag_123:\n                /* \"#utility.yul\":6455:6460   */\n              0x00\n                /* \"#utility.yul\":6504:6507   */\n              dup3\n                /* \"#utility.yul\":6497:6501   */\n              0x1f\n                /* \"#utility.yul\":6489:6495   */\n              dup4\n                /* \"#utility.yul\":6485:6502   */\n              add\n                /* \"#utility.yul\":6481:6508   */\n              slt\n                /* \"#utility.yul\":6471:6593   */\n              tag_214\n              jumpi\n                /* \"#utility.yul\":6512:6591   */\n              tag_215\n              tag_108\n              jump\t// in\n            tag_215:\n                /* \"#utility.yul\":6471:6593   */\n            tag_214:\n                /* \"#utility.yul\":6629:6635   */\n              dup2\n                /* \"#utility.yul\":6616:6636   */\n              calldataload\n                /* \"#utility.yul\":6654:6748   */\n              tag_216\n                /* \"#utility.yul\":6744:6747   */\n              dup5\n                /* \"#utility.yul\":6736:6742   */\n              dup3\n                /* \"#utility.yul\":6729:6733   */\n              0x20\n                /* \"#utility.yul\":6721:6727   */\n              dup7\n                /* \"#utility.yul\":6717:6734   */\n              add\n                /* \"#utility.yul\":6654:6748   */\n              tag_122\n              jump\t// in\n            tag_216:\n                /* \"#utility.yul\":6645:6748   */\n              swap2\n              pop\n                /* \"#utility.yul\":6461:6754   */\n              pop\n                /* \"#utility.yul\":6384:6754   */\n              swap3\n              swap2\n              pop\n              pop\n              jump\t// out\n                /* \"#utility.yul\":6760:7444   */\n            tag_25:\n                /* \"#utility.yul\":6853:6859   */\n              0x00\n                /* \"#utility.yul\":6861:6867   */\n              dup1\n                /* \"#utility.yul\":6910:6912   */\n              0x40\n                /* \"#utility.yul\":6898:6907   */\n              dup4\n                /* \"#utility.yul\":6889:6896   */\n              dup6\n                /* \"#utility.yul\":6885:6908   */\n              sub\n                /* \"#utility.yul\":6881:6913   */\n              slt\n                /* \"#utility.yul\":6878:6997   */\n              iszero\n              tag_218\n              jumpi\n                /* \"#utility.yul\":6916:6995   */\n              tag_219\n              tag_99\n              jump\t// in\n            tag_219:\n                /* \"#utility.yul\":6878:6997   */\n            tag_218:\n                /* \"#utility.yul\":7036:7037   */\n              0x00\n                /* \"#utility.yul\":7061:7114   */\n              tag_220\n                /* \"#utility.yul\":7106:7113   */\n              dup6\n                /* \"#utility.yul\":7097:7103   */\n              dup3\n                /* \"#utility.yul\":7086:7095   */\n              dup7\n                /* \"#utility.yul\":7082:7104   */\n              add\n                /* \"#utility.yul\":7061:7114   */\n              tag_104\n              jump\t// in\n            tag_220:\n                /* \"#utility.yul\":7051:7114   */\n              swap3\n              pop\n                /* \"#utility.yul\":7007:7124   */\n              pop\n                /* \"#utility.yul\":7191:7193   */\n              0x20\n                /* \"#utility.yul\":7180:7189   */\n              dup4\n                /* \"#utility.yul\":7176:7194   */\n              add\n                /* \"#utility.yul\":7163:7195   */\n              calldataload\n                /* \"#utility.yul\":7222:7240   */\n              0xffffffffffffffff\n                /* \"#utility.yul\":7214:7220   */\n              dup2\n                /* \"#utility.yul\":7211:7241   */\n              gt\n                /* \"#utility.yul\":7208:7325   */\n              iszero\n              tag_221\n              jumpi\n                /* \"#utility.yul\":7244:7323   */\n              tag_222\n              tag_100\n              jump\t// in\n            tag_222:\n                /* \"#utility.yul\":7208:7325   */\n            tag_221:\n                /* \"#utility.yul\":7349:7427   */\n              tag_223\n                /* \"#utility.yul\":7419:7426   */\n              dup6\n                /* \"#utility.yul\":7410:7416   */\n              dup3\n                /* \"#utility.yul\":7399:7408   */\n              dup7\n                /* \"#utility.yul\":7395:7417   */\n              add\n                /* \"#utility.yul\":7349:7427   */\n              tag_123\n              jump\t// in\n            tag_223:\n                /* \"#utility.yul\":7339:7427   */\n              swap2\n              pop\n                /* \"#utility.yul\":7134:7437   */\n              pop\n                /* \"#utility.yul\":6760:7444   */\n              swap3\n              pop\n              swap3\n              swap1\n              pop\n              jump\t// out\n                /* \"#utility.yul\":7450:7924   */\n            tag_30:\n                /* \"#utility.yul\":7518:7524   */\n              0x00\n                /* \"#utility.yul\":7526:7532   */\n              dup1\n                /* \"#utility.yul\":7575:7577   */\n              0x40\n                /* \"#utility.yul\":7563:7572   */\n              dup4\n                /* \"#utility.yul\":7554:7561   */\n              dup6\n                /* \"#utility.yul\":7550:7573   */\n              sub\n                /* \"#utility.yul\":7546:7578   */\n              slt\n                /* \"#utility.yul\":7543:7662   */\n              iszero\n              tag_225\n              jumpi\n                /* \"#utility.yul\":7581:7660   */\n              tag_226\n              tag_99\n              jump\t// in\n            tag_226:\n                /* \"#utility.yul\":7543:7662   */\n            tag_225:\n                /* \"#utility.yul\":7701:7702   */\n              0x00\n                /* \"#utility.yul\":7726:7779   */\n              tag_227\n                /* \"#utility.yul\":7771:7778   */\n              dup6\n                /* \"#utility.yul\":7762:7768   */\n              dup3\n                /* \"#utility.yul\":7751:7760   */\n              dup7\n                /* \"#utility.yul\":7747:7769   */\n              add\n                /* \"#utility.yul\":7726:7779   */\n              tag_104\n              jump\t// in\n            tag_227:\n                /* \"#utility.yul\":7716:7779   */\n              swap3\n              pop\n                /* \"#utility.yul\":7672:7789   */\n              pop\n                /* \"#utility.yul\":7828:7830   */\n              0x20\n                /* \"#utility.yul\":7854:7907   */\n              tag_228\n                /* \"#utility.yul\":7899:7906   */\n              dup6\n                /* \"#utility.yul\":7890:7896   */\n              dup3\n                /* \"#utility.yul\":7879:7888   */\n              dup7\n                /* \"#utility.yul\":7875:7897   */\n              add\n                /* \"#utility.yul\":7854:7907   */\n              tag_107\n              jump\t// in\n            tag_228:\n                /* \"#utility.yul\":7844:7907   */\n              swap2\n              pop\n                /* \"#utility.yul\":7799:7917   */\n              pop\n                /* \"#utility.yul\":7450:7924   */\n              swap3\n              pop\n              swap3\n              swap1\n              pop\n              jump\t// out\n                /* \"#utility.yul\":7930:8047   */\n            tag_124:\n                /* \"#utility.yul\":8039:8040   */\n              0x00\n                /* \"#utility.yul\":8036:8037   */\n              dup1\n                /* \"#utility.yul\":8029:8041   */\n              revert\n                /* \"#utility.yul\":8066:8618   */\n            tag_125:\n                /* \"#utility.yul\":8123:8131   */\n              0x00\n                /* \"#utility.yul\":8133:8139   */\n              dup1\n                /* \"#utility.yul\":8183:8186   */\n              dup4\n                /* \"#utility.yul\":8176:8180   */\n              0x1f\n                /* \"#utility.yul\":8168:8174   */\n              dup5\n                /* \"#utility.yul\":8164:8181   */\n              add\n                /* \"#utility.yul\":8160:8187   */\n              slt\n                /* \"#utility.yul\":8150:8272   */\n              tag_231\n              jumpi\n                /* \"#utility.yul\":8191:8270   */\n              tag_232\n              tag_108\n              jump\t// in\n            tag_232:\n                /* \"#utility.yul\":8150:8272   */\n            tag_231:\n                /* \"#utility.yul\":8304:8310   */\n              dup3\n                /* \"#utility.yul\":8291:8311   */\n              calldataload\n                /* \"#utility.yul\":8281:8311   */\n              swap1\n              pop\n                /* \"#utility.yul\":8334:8352   */\n              0xffffffffffffffff\n                /* \"#utility.yul\":8326:8332   */\n              dup2\n                /* \"#utility.yul\":8323:8353   */\n              gt\n                /* \"#utility.yul\":8320:8437   */\n              iszero\n              tag_233\n              jumpi\n                /* \"#utility.yul\":8356:8435   */\n              tag_234\n              tag_124\n              jump\t// in\n            tag_234:\n                /* \"#utility.yul\":8320:8437   */\n            tag_233:\n                /* \"#utility.yul\":8470:8474   */\n              0x20\n                /* \"#utility.yul\":8462:8468   */\n              dup4\n                /* \"#utility.yul\":8458:8475   */\n              add\n                /* \"#utility.yul\":8446:8475   */\n              swap2\n              pop\n                /* \"#utility.yul\":8524:8527   */\n              dup4\n                /* \"#utility.yul\":8516:8520   */\n              0x01\n                /* \"#utility.yul\":8508:8514   */\n              dup3\n                /* \"#utility.yul\":8504:8521   */\n              mul\n                /* \"#utility.yul\":8494:8502   */\n              dup4\n                /* \"#utility.yul\":8490:8522   */\n              add\n                /* \"#utility.yul\":8487:8528   */\n              gt\n                /* \"#utility.yul\":8484:8612   */\n              iszero\n              tag_235\n              jumpi\n                /* \"#utility.yul\":8531:8610   */\n              tag_236\n              tag_121\n              jump\t// in\n            tag_236:\n                /* \"#utility.yul\":8484:8612   */\n            tag_235:\n                /* \"#utility.yul\":8066:8618   */\n              swap3\n              pop\n              swap3\n              swap1\n              pop\n              jump\t// out\n                /* \"#utility.yul\":8624:9296   */\n            tag_34:\n                /* \"#utility.yul\":8703:8709   */\n              0x00\n                /* \"#utility.yul\":8711:8717   */\n              dup1\n                /* \"#utility.yul\":8719:8725   */\n              0x00\n                /* \"#utility.yul\":8768:8770   */\n              0x40\n                /* \"#utility.yul\":8756:8765   */\n              dup5\n                /* \"#utility.yul\":8747:8754   */\n              dup7\n                /* \"#utility.yul\":8743:8766   */\n              sub\n                /* \"#utility.yul\":8739:8771   */\n              slt\n                /* \"#utility.yul\":8736:8855   */\n              iszero\n              tag_238\n              jumpi\n                /* \"#utility.yul\":8774:8853   */\n              tag_239\n              tag_99\n              jump\t// in\n            tag_239:\n                /* \"#utility.yul\":8736:8855   */\n            tag_238:\n                /* \"#utility.yul\":8894:8895   */\n              0x00\n                /* \"#utility.yul\":8919:8972   */\n              tag_240\n                /* \"#utility.yul\":8964:8971   */\n              dup7\n                /* \"#utility.yul\":8955:8961   */\n              dup3\n                /* \"#utility.yul\":8944:8953   */\n              dup8\n                /* \"#utility.yul\":8940:8962   */\n              add\n                /* \"#utility.yul\":8919:8972   */\n              tag_104\n              jump\t// in\n            tag_240:\n                /* \"#utility.yul\":8909:8972   */\n              swap4\n              pop\n                /* \"#utility.yul\":8865:8982   */\n              pop\n                /* \"#utility.yul\":9049:9051   */\n              0x20\n                /* \"#utility.yul\":9038:9047   */\n              dup5\n                /* \"#utility.yul\":9034:9052   */\n              add\n                /* \"#utility.yul\":9021:9053   */\n              calldataload\n                /* \"#utility.yul\":9080:9098   */\n              0xffffffffffffffff\n                /* \"#utility.yul\":9072:9078   */\n              dup2\n                /* \"#utility.yul\":9069:9099   */\n              gt\n                /* \"#utility.yul\":9066:9183   */\n              iszero\n              tag_241\n              jumpi\n                /* \"#utility.yul\":9102:9181   */\n              tag_242\n              tag_100\n              jump\t// in\n            tag_242:\n                /* \"#utility.yul\":9066:9183   */\n            tag_241:\n                /* \"#utility.yul\":9215:9279   */\n              tag_243\n                /* \"#utility.yul\":9271:9278   */\n              dup7\n                /* \"#utility.yul\":9262:9268   */\n              dup3\n                /* \"#utility.yul\":9251:9260   */\n              dup8\n                /* \"#utility.yul\":9247:9269   */\n              add\n                /* \"#utility.yul\":9215:9279   */\n              tag_125\n              jump\t// in\n            tag_243:\n                /* \"#utility.yul\":9197:9279   */\n              swap3\n              pop\n              swap3\n              pop\n                /* \"#utility.yul\":8992:9289   */\n              pop\n                /* \"#utility.yul\":8624:9296   */\n              swap3\n              pop\n              swap3\n              pop\n              swap3\n              jump\t// out\n                /* \"#utility.yul\":9302:9416   */\n            tag_126:\n                /* \"#utility.yul\":9369:9375   */\n              0x00\n                /* \"#utility.yul\":9403:9408   */\n              dup2\n                /* \"#utility.yul\":9397:9409   */\n              mload\n                /* \"#utility.yul\":9387:9409   */\n              swap1\n              pop\n                /* \"#utility.yul\":9302:9416   */\n              swap2\n              swap1\n              pop\n              jump\t// out\n                /* \"#utility.yul\":9422:9606   */\n            tag_127:\n                /* \"#utility.yul\":9521:9532   */\n              0x00\n                /* \"#utility.yul\":9555:9561   */\n              dup3\n                /* \"#utility.yul\":9550:9553   */\n              dup3\n                /* \"#utility.yul\":9543:9562   */\n              mstore\n                /* \"#utility.yul\":9595:9599   */\n              0x20\n                /* \"#utility.yul\":9590:9593   */\n              dup3\n                /* \"#utility.yul\":9586:9600   */\n              add\n                /* \"#utility.yul\":9571:9600   */\n              swap1\n              pop\n                /* \"#utility.yul\":9422:9606   */\n              swap3\n              swap2\n              pop\n              pop\n              jump\t// out\n                /* \"#utility.yul\":9612:9744   */\n            tag_128:\n                /* \"#utility.yul\":9679:9683   */\n              0x00\n                /* \"#utility.yul\":9702:9705   */\n              dup2\n                /* \"#utility.yul\":9694:9705   */\n              swap1\n              pop\n                /* \"#utility.yul\":9732:9736   */\n              0x20\n                /* \"#utility.yul\":9727:9730   */\n              dup3\n                /* \"#utility.yul\":9723:9737   */\n              add\n                /* \"#utility.yul\":9715:9737   */\n              swap1\n              pop\n                /* \"#utility.yul\":9612:9744   */\n              swap2\n              swap1\n              pop\n              jump\t// out\n                /* \"#utility.yul\":9750:9858   */\n            tag_129:\n                /* \"#utility.yul\":9827:9851   */\n              tag_248\n                /* \"#utility.yul\":9845:9850   */\n              dup2\n                /* \"#utility.yul\":9827:9851   */\n              tag_105\n              jump\t// in\n            tag_248:\n                /* \"#utility.yul\":9822:9825   */\n              dup3\n                /* \"#utility.yul\":9815:9852   */\n              mstore\n                /* \"#utility.yul\":9750:9858   */\n              pop\n              pop\n              jump\t// out\n                /* \"#utility.yul\":9864:10043   */\n            tag_130:\n                /* \"#utility.yul\":9933:9943   */\n              0x00\n                /* \"#utility.yul\":9954:10000   */\n              tag_250\n                /* \"#utility.yul\":9996:9999   */\n              dup4\n                /* \"#utility.yul\":9988:9994   */\n              dup4\n                /* \"#utility.yul\":9954:10000   */\n              tag_129\n              jump\t// in\n            tag_250:\n                /* \"#utility.yul\":10032:10036   */\n              0x20\n                /* \"#utility.yul\":10027:10030   */\n              dup4\n                /* \"#utility.yul\":10023:10037   */\n              add\n                /* \"#utility.yul\":10009:10037   */\n              swap1\n              pop\n                /* \"#utility.yul\":9864:10043   */\n              swap3\n              swap2\n              pop\n              pop\n              jump\t// out\n                /* \"#utility.yul\":10049:10162   */\n            tag_131:\n                /* \"#utility.yul\":10119:10123   */\n              0x00\n                /* \"#utility.yul\":10151:10155   */\n              0x20\n                /* \"#utility.yul\":10146:10149   */\n              dup3\n                /* \"#utility.yul\":10142:10156   */\n              add\n                /* \"#utility.yul\":10134:10156   */\n              swap1\n              pop\n                /* \"#utility.yul\":10049:10162   */\n              swap2\n              swap1\n              pop\n              jump\t// out\n                /* \"#utility.yul\":10198:10930   */\n            tag_132:\n                /* \"#utility.yul\":10317:10320   */\n              0x00\n                /* \"#utility.yul\":10346:10400   */\n              tag_253\n                /* \"#utility.yul\":10394:10399   */\n              dup3\n                /* \"#utility.yul\":10346:10400   */\n              tag_126\n              jump\t// in\n            tag_253:\n                /* \"#utility.yul\":10416:10502   */\n              tag_254\n                /* \"#utility.yul\":10495:10501   */\n              dup2\n                /* \"#utility.yul\":10490:10493   */\n              dup6\n                /* \"#utility.yul\":10416:10502   */\n              tag_127\n              jump\t// in\n            tag_254:\n                /* \"#utility.yul\":10409:10502   */\n              swap4\n              pop\n                /* \"#utility.yul\":10526:10582   */\n              tag_255\n                /* \"#utility.yul\":10576:10581   */\n              dup4\n                /* \"#utility.yul\":10526:10582   */\n              tag_128\n              jump\t// in\n            tag_255:\n                /* \"#utility.yul\":10605:10612   */\n              dup1\n                /* \"#utility.yul\":10636:10637   */\n              0x00\n                /* \"#utility.yul\":10621:10905   */\n            tag_256:\n                /* \"#utility.yul\":10646:10652   */\n              dup4\n                /* \"#utility.yul\":10643:10644   */\n              dup2\n                /* \"#utility.yul\":10640:10653   */\n              lt\n                /* \"#utility.yul\":10621:10905   */\n              iszero\n              tag_258\n              jumpi\n                /* \"#utility.yul\":10722:10728   */\n              dup2\n                /* \"#utility.yul\":10716:10729   */\n              mload\n                /* \"#utility.yul\":10749:10812   */\n              tag_259\n                /* \"#utility.yul\":10808:10811   */\n              dup9\n                /* \"#utility.yul\":10793:10806   */\n              dup3\n                /* \"#utility.yul\":10749:10812   */\n              tag_130\n              jump\t// in\n            tag_259:\n                /* \"#utility.yul\":10742:10812   */\n              swap8\n              pop\n                /* \"#utility.yul\":10835:10895   */\n              tag_260\n                /* \"#utility.yul\":10888:10894   */\n              dup4\n                /* \"#utility.yul\":10835:10895   */\n              tag_131\n              jump\t// in\n            tag_260:\n                /* \"#utility.yul\":10825:10895   */\n              swap3\n              pop\n                /* \"#utility.yul\":10681:10905   */\n              pop\n                /* \"#utility.yul\":10668:10669   */\n              0x01\n                /* \"#utility.yul\":10665:10666   */\n              dup2\n                /* \"#utility.yul\":10661:10670   */\n              add\n                /* \"#utility.yul\":10656:10670   */\n              swap1\n              pop\n                /* \"#utility.yul\":10621:10905   */\n              jump(tag_256)\n            tag_258:\n                /* \"#utility.yul\":10625:10639   */\n              pop\n                /* \"#utility.yul\":10921:10924   */\n              dup6\n                /* \"#utility.yul\":10914:10924   */\n              swap4\n              pop\n                /* \"#utility.yul\":10322:10930   */\n              pop\n              pop\n              pop\n                /* \"#utility.yul\":10198:10930   */\n              swap3\n              swap2\n              pop\n              pop\n              jump\t// out\n                /* \"#utility.yul\":10936:11309   */\n            tag_41:\n                /* \"#utility.yul\":11079:11083   */\n              0x00\n                /* \"#utility.yul\":11117:11119   */\n              0x20\n                /* \"#utility.yul\":11106:11115   */\n              dup3\n                /* \"#utility.yul\":11102:11120   */\n              add\n                /* \"#utility.yul\":11094:11120   */\n              swap1\n              pop\n                /* \"#utility.yul\":11166:11175   */\n              dup2\n                /* \"#utility.yul\":11160:11164   */\n              dup2\n                /* \"#utility.yul\":11156:11176   */\n              sub\n                /* \"#utility.yul\":11152:11153   */\n              0x00\n                /* \"#utility.yul\":11141:11150   */\n              dup4\n                /* \"#utility.yul\":11137:11154   */\n              add\n                /* \"#utility.yul\":11130:11177   */\n              mstore\n                /* \"#utility.yul\":11194:11302   */\n              tag_262\n                /* \"#utility.yul\":11297:11301   */\n              dup2\n                /* \"#utility.yul\":11288:11294   */\n              dup5\n                /* \"#utility.yul\":11194:11302   */\n              tag_132\n              jump\t// in\n            tag_262:\n                /* \"#utility.yul\":11186:11302   */\n              swap1\n              pop\n                /* \"#utility.yul\":10936:11309   */\n              swap3\n              swap2\n              pop\n              pop\n              jump\t// out\n                /* \"#utility.yul\":11315:11433   */\n            tag_133:\n                /* \"#utility.yul\":11402:11426   */\n              tag_264\n                /* \"#utility.yul\":11420:11425   */\n              dup2\n                /* \"#utility.yul\":11402:11426   */\n              tag_102\n              jump\t// in\n            tag_264:\n                /* \"#utility.yul\":11397:11400   */\n              dup3\n                /* \"#utility.yul\":11390:11427   */\n              mstore\n                /* \"#utility.yul\":11315:11433   */\n              pop\n              pop\n              jump\t// out\n                /* \"#utility.yul\":11439:11661   */\n            tag_46:\n                /* \"#utility.yul\":11532:11536   */\n              0x00\n                /* \"#utility.yul\":11570:11572   */\n              0x20\n                /* \"#utility.yul\":11559:11568   */\n              dup3\n                /* \"#utility.yul\":11555:11573   */\n              add\n                /* \"#utility.yul\":11547:11573   */\n              swap1\n              pop\n                /* \"#utility.yul\":11583:11654   */\n              tag_266\n                /* \"#utility.yul\":11651:11652   */\n              0x00\n                /* \"#utility.yul\":11640:11649   */\n              dup4\n                /* \"#utility.yul\":11636:11653   */\n              add\n                /* \"#utility.yul\":11627:11633   */\n              dup5\n                /* \"#utility.yul\":11583:11654   */\n              tag_133\n              jump\t// in\n            tag_266:\n                /* \"#utility.yul\":11439:11661   */\n              swap3\n              swap2\n              pop\n              pop\n              jump\t// out\n                /* \"#utility.yul\":11667:11847   */\n            tag_57:\n                /* \"#utility.yul\":11715:11792   */\n              0x4e487b7100000000000000000000000000000000000000000000000000000000\n                /* \"#utility.yul\":11712:11713   */\n              0x00\n                /* \"#utility.yul\":11705:11793   */\n              mstore\n                /* \"#utility.yul\":11812:11816   */\n              0x32\n                /* \"#utility.yul\":11809:11810   */\n              0x04\n                /* \"#utility.yul\":11802:11817   */\n              mstore\n                /* \"#utility.yul\":11836:11840   */\n              0x24\n                /* \"#utility.yul\":11833:11834   */\n              0x00\n                /* \"#utility.yul\":11826:11841   */\n              revert\n                /* \"#utility.yul\":11853:11971   */\n            tag_134:\n                /* \"#utility.yul\":11940:11964   */\n              tag_269\n                /* \"#utility.yul\":11958:11963   */\n              dup2\n                /* \"#utility.yul\":11940:11964   */\n              tag_105\n              jump\t// in\n            tag_269:\n                /* \"#utility.yul\":11935:11938   */\n              dup3\n                /* \"#utility.yul\":11928:11965   */\n              mstore\n                /* \"#utility.yul\":11853:11971   */\n              pop\n              pop\n              jump\t// out\n                /* \"#utility.yul\":11977:12419   */\n            tag_59:\n                /* \"#utility.yul\":12126:12130   */\n              0x00\n                /* \"#utility.yul\":12164:12166   */\n              0x60\n                /* \"#utility.yul\":12153:12162   */\n              dup3\n                /* \"#utility.yul\":12149:12167   */\n              add\n                /* \"#utility.yul\":12141:12167   */\n              swap1\n              pop\n                /* \"#utility.yul\":12177:12248   */\n              tag_271\n                /* \"#utility.yul\":12245:12246   */\n              0x00\n                /* \"#utility.yul\":12234:12243   */\n              dup4\n                /* \"#utility.yul\":12230:12247   */\n              add\n                /* \"#utility.yul\":12221:12227   */\n              dup7\n                /* \"#utility.yul\":12177:12248   */\n              tag_133\n              jump\t// in\n            tag_271:\n                /* \"#utility.yul\":12258:12330   */\n              tag_272\n                /* \"#utility.yul\":12326:12328   */\n              0x20\n                /* \"#utility.yul\":12315:12324   */\n              dup4\n                /* \"#utility.yul\":12311:12329   */\n              add\n                /* \"#utility.yul\":12302:12308   */\n              dup6\n                /* \"#utility.yul\":12258:12330   */\n              tag_133\n              jump\t// in\n            tag_272:\n                /* \"#utility.yul\":12340:12412   */\n              tag_273\n                /* \"#utility.yul\":12408:12410   */\n              0x40\n                /* \"#utility.yul\":12397:12406   */\n              dup4\n                /* \"#utility.yul\":12393:12411   */\n              add\n                /* \"#utility.yul\":12384:12390   */\n              dup5\n                /* \"#utility.yul\":12340:12412   */\n              tag_134\n              jump\t// in\n            tag_273:\n                /* \"#utility.yul\":11977:12419   */\n              swap5\n              swap4\n              pop\n              pop\n              pop\n              pop\n              jump\t// out\n                /* \"#utility.yul\":12425:12605   */\n            tag_135:\n                /* \"#utility.yul\":12473:12550   */\n              0x4e487b7100000000000000000000000000000000000000000000000000000000\n                /* \"#utility.yul\":12470:12471   */\n              0x00\n                /* \"#utility.yul\":12463:12551   */\n              mstore\n                /* \"#utility.yul\":12570:12574   */\n              0x11\n                /* \"#utility.yul\":12567:12568   */\n              0x04\n                /* \"#utility.yul\":12560:12575   */\n              mstore\n                /* \"#utility.yul\":12594:12598   */\n              0x24\n                /* \"#utility.yul\":12591:12592   */\n              0x00\n                /* \"#utility.yul\":12584:12599   */\n              revert\n                /* \"#utility.yul\":12611:12844   */\n            tag_64:\n                /* \"#utility.yul\":12650:12653   */\n              0x00\n                /* \"#utility.yul\":12673:12697   */\n              tag_276\n                /* \"#utility.yul\":12691:12696   */\n              dup3\n                /* \"#utility.yul\":12673:12697   */\n              tag_105\n              jump\t// in\n            tag_276:\n                /* \"#utility.yul\":12664:12697   */\n              swap2\n              pop\n                /* \"#utility.yul\":12719:12785   */\n              0xffffffffffffffffffffffffffffffffffffffffffffffffffffffffffffffff\n                /* \"#utility.yul\":12712:12717   */\n              dup3\n                /* \"#utility.yul\":12709:12786   */\n              sub\n                /* \"#utility.yul\":12706:12809   */\n              tag_277\n              jumpi\n                /* \"#utility.yul\":12789:12807   */\n              tag_278\n              tag_135\n              jump\t// in\n            tag_278:\n                /* \"#utility.yul\":12706:12809   */\n            tag_277:\n                /* \"#utility.yul\":12836:12837   */\n              0x01\n                /* \"#utility.yul\":12829:12834   */\n              dup3\n                /* \"#utility.yul\":12825:12838   */\n              add\n                /* \"#utility.yul\":12818:12838   */\n              swap1\n              pop\n                /* \"#utility.yul\":12611:12844   */\n              swap2\n              swap1\n              pop\n              jump\t// out\n                /* \"#utility.yul\":12850:12997   */\n            tag_136:\n                /* \"#utility.yul\":12951:12962   */\n              0x00\n                /* \"#utility.yul\":12988:12991   */\n              dup2\n                /* \"#utility.yul\":12973:12991   */\n              swap1\n              pop\n                /* \"#utility.yul\":12850:12997   */\n              swap3\n              swap2\n              pop\n              pop\n              jump\t// out\n                /* \"#utility.yul\":13025:13352   */\n            tag_137:\n                /* \"#utility.yul\":13139:13142   */\n              0x00\n                /* \"#utility.yul\":13160:13248   */\n              tag_281\n                /* \"#utility.yul\":13241:13247   */\n              dup4\n                /* \"#utility.yul\":13236:13239   */\n              dup6\n                /* \"#utility.yul\":13160:13248   */\n              tag_136\n              jump\t// in\n            tag_281:\n                /* \"#utility.yul\":13153:13248   */\n              swap4\n              pop\n                /* \"#utility.yul\":13258:13314   */\n              tag_282\n                /* \"#utility.yul\":13307:13313   */\n              dup4\n                /* \"#utility.yul\":13302:13305   */\n              dup6\n                /* \"#utility.yul\":13295:13300   */\n              dup5\n                /* \"#utility.yul\":13258:13314   */\n              tag_115\n              jump\t// in\n            tag_282:\n                /* \"#utility.yul\":13339:13345   */\n              dup3\n                /* \"#utility.yul\":13334:13337   */\n              dup5\n                /* \"#utility.yul\":13330:13346   */\n              add\n                /* \"#utility.yul\":13323:13346   */\n              swap1\n              pop\n                /* \"#utility.yul\":13025:13352   */\n              swap4\n              swap3\n              pop\n              pop\n              pop\n              jump\t// out\n                /* \"#utility.yul\":13358:13649   */\n            tag_85:\n                /* \"#utility.yul\":13498:13501   */\n              0x00\n                /* \"#utility.yul\":13520:13623   */\n              tag_284\n                /* \"#utility.yul\":13619:13622   */\n              dup3\n                /* \"#utility.yul\":13610:13616   */\n              dup5\n                /* \"#utility.yul\":13602:13608   */\n              dup7\n                /* \"#utility.yul\":13520:13623   */\n              tag_137\n              jump\t// in\n            tag_284:\n                /* \"#utility.yul\":13513:13623   */\n              swap2\n              pop\n                /* \"#utility.yul\":13640:13643   */\n              dup2\n                /* \"#utility.yul\":13633:13643   */\n              swap1\n              pop\n                /* \"#utility.yul\":13358:13649   */\n              swap4\n              swap3\n              pop\n              pop\n              pop\n              jump\t// out\n\n            auxdata: 0xa264697066735822122093a4851836a150c8c0ac0f7e06002cbe475e10e8a2dc65b5d04a47e887b187a464736f6c63430008110033\n        }\n    }\n\n    auxdata: 0xa2646970667358221220a0f406a128785f4360a6690b6bf46fe70f536ff6583a591831921c5fbc3ea08264736f6c63430008110033\n}\n",
				"bytecode": {
					"linkReferences": {},
					"object": "608060405260006002553480156200001657600080fd5b506040516200248f3803806200248f83398181016040528101906200003c9190620000ed565b806000806101000a81548173ffffffffffffffffffffffffffffffffffffffff021916908373ffffffffffffffffffffffffffffffffffffffff160217905550506200011f565b600080fd5b600073ffffffffffffffffffffffffffffffffffffffff82169050919050565b6000620000b58262000088565b9050919050565b620000c781620000a8565b8114620000d357600080fd5b50565b600081519050620000e781620000bc565b92915050565b60006020828403121562000106576200010562000083565b5b60006200011684828501620000d6565b91505092915050565b612360806200012f6000396000f3fe6080604052600436106200009e5760003560e01c8063a5e387511162000061578063a5e3875114620001b5578063b1d95a5c14620001e3578063c6046f771462000211578063f4bbc568146200023f578063f851a440146200025f576200009e565b8063150b7a0214620000a35780633e1a037c14620000e75780634e702ab314620001155780638623ec7b146200014357806394d008ef1462000187575b600080fd5b348015620000b057600080fd5b50620000cf6004803603810190620000c9919062000bde565b6200028f565b604051620000de919062000cac565b60405180910390f35b348015620000f457600080fd5b506200011360048036038101906200010d919062000da4565b620002aa565b005b3480156200012257600080fd5b506200014160048036038101906200013b919062000e0a565b62000388565b005b3480156200015057600080fd5b506200016f600480360381019062000169919062000e51565b6200045f565b6040516200017e919062000e94565b60405180910390f35b3480156200019457600080fd5b50620001b36004803603810190620001ad919062000f15565b6200049f565b005b348015620001c257600080fd5b50620001e16004803603810190620001db919062000e51565b62000547565b005b348015620001f057600080fd5b506200020f600480360381019062000209919062000f95565b6200061a565b005b3480156200021e57600080fd5b506200023d600480360381019062000237919062000f15565b620006d1565b005b6200025d600480360381019062000257919062000f15565b6200080e565b005b3480156200026c57600080fd5b5062000277620008ff565b60405162000286919062000e94565b60405180910390f35b60008260038190555063150b7a0260e01b9050949350505050565b60008151905060005b8181101562000382578373ffffffffffffffffffffffffffffffffffffffff166323b872dd3060008054906101000a900473ffffffffffffffffffffffffffffffffffffffff1686858151811062000310576200030f62001010565b5b60200260200101516040518463ffffffff1660e01b8152600401620003389392919062001050565b600060405180830381600087803b1580156200035357600080fd5b505af115801562000368573d6000803e3d6000fd5b5050505080806200037990620010bc565b915050620002b3565b50505050565b60005b818110156200045a5760018181548110620003ab57620003aa62001010565b5b9060005260206000200160009054906101000a900473ffffffffffffffffffffffffffffffffffffffff1673ffffffffffffffffffffffffffffffffffffffff16631a695230846040518263ffffffff1660e01b815260040162000410919062000e94565b600060405180830381600087803b1580156200042b57600080fd5b505af115801562000440573d6000803e3d6000fd5b5050505080806200045190620010bc565b9150506200038b565b505050565b600181815481106200047057600080fd5b906000526020600020016000915054906101000a900473ffffffffffffffffffffffffffffffffffffffff1681565b60005b83811015620005405760008573ffffffffffffffffffffffffffffffffffffffff168484604051620004d69291906200113d565b6000604051808303816000865af19150503d806000811462000515576040519150601f19603f3d011682016040523d82523d6000602084013e6200051a565b606091505b50509050806200052957600080fd5b5080806200053790620010bc565b915050620004a2565b5050505050565b60006200055362000923565b905060005b82811015620006155760008060025490508084516020860134f59150813b6200058057600080fd5b6001829080600181540180825580915050600190039060005260206000200160009091909190916101000a81548173ffffffffffffffffffffffffffffffffffffffff021916908373ffffffffffffffffffffffffffffffffffffffff16021790555060026000815480929190620005f890620010bc565b9190505550505080806200060c90620010bc565b91505062000558565b505050565b6001818154811062000631576200063062001010565b5b9060005260206000200160009054906101000a900473ffffffffffffffffffffffffffffffffffffffff1673ffffffffffffffffffffffffffffffffffffffff16633e1a037c84846040518363ffffffff1660e01b81526004016200069892919062001226565b600060405180830381600087803b158015620006b357600080fd5b505af1158015620006c8573d6000803e3d6000fd5b50505050505050565b60005b83811015620008075760008573ffffffffffffffffffffffffffffffffffffffff168484604051620007089291906200113d565b6000604051808303816000865af19150503d806000811462000747576040519150601f19603f3d011682016040523d82523d6000602084013e6200074c565b606091505b50509050806200075b57600080fd5b8573ffffffffffffffffffffffffffffffffffffffff166323b872dd3060008054906101000a900473ffffffffffffffffffffffffffffffffffffffff166003546040518463ffffffff1660e01b8152600401620007bc9392919062001050565b600060405180830381600087803b158015620007d757600080fd5b505af1158015620007ec573d6000803e3d6000fd5b50505050508080620007fe90620010bc565b915050620006d4565b5050505050565b600083346200081e919062001289565b905060005b84811015620008f7576001818154811062000843576200084262001010565b5b9060005260206000200160009054906101000a900473ffffffffffffffffffffffffffffffffffffffff1673ffffffffffffffffffffffffffffffffffffffff1663b510391f838887876040518563ffffffff1660e01b8152600401620008ad9392919062001305565b6000604051808303818588803b158015620008c757600080fd5b505af1158015620008dc573d6000803e3d6000fd5b50505050508080620008ee90620010bc565b91505062000823565b505050505050565b60008054906101000a900473ffffffffffffffffffffffffffffffffffffffff1681565b60606000604051806020016200093990620009ba565b6020820181038252601f19601f8201166040525090508060008054906101000a900473ffffffffffffffffffffffffffffffffffffffff1660405160200162000983919062000e94565b604051602081830303815290604052604051602001620009a5929190620013a9565b60405160208183030381529060405291505090565b610f5980620013d283390190565b6000604051905090565b600080fd5b600080fd5b600073ffffffffffffffffffffffffffffffffffffffff82169050919050565b600062000a0982620009dc565b9050919050565b62000a1b81620009fc565b811462000a2757600080fd5b50565b60008135905062000a3b8162000a10565b92915050565b6000819050919050565b62000a568162000a41565b811462000a6257600080fd5b50565b60008135905062000a768162000a4b565b92915050565b600080fd5b600080fd5b6000601f19601f8301169050919050565b7f4e487b7100000000000000000000000000000000000000000000000000000000600052604160045260246000fd5b62000ad18262000a86565b810181811067ffffffffffffffff8211171562000af35762000af262000a97565b5b80604052505050565b600062000b08620009c8565b905062000b16828262000ac6565b919050565b600067ffffffffffffffff82111562000b395762000b3862000a97565b5b62000b448262000a86565b9050602081019050919050565b82818337600083830152505050565b600062000b7762000b718462000b1b565b62000afc565b90508281526020810184848401111562000b965762000b9562000a81565b5b62000ba384828562000b51565b509392505050565b600082601f83011262000bc35762000bc262000a7c565b5b813562000bd584826020860162000b60565b91505092915050565b6000806000806080858703121562000bfb5762000bfa620009d2565b5b600062000c0b8782880162000a2a565b945050602062000c1e8782880162000a2a565b935050604062000c318782880162000a65565b925050606085013567ffffffffffffffff81111562000c555762000c54620009d7565b5b62000c638782880162000bab565b91505092959194509250565b60007fffffffff0000000000000000000000000000000000000000000000000000000082169050919050565b62000ca68162000c6f565b82525050565b600060208201905062000cc3600083018462000c9b565b92915050565b600067ffffffffffffffff82111562000ce75762000ce662000a97565b5b602082029050602081019050919050565b600080fd5b600062000d1462000d0e8462000cc9565b62000afc565b9050808382526020820190506020840283018581111562000d3a5762000d3962000cf8565b5b835b8181101562000d67578062000d52888262000a65565b84526020840193505060208101905062000d3c565b5050509392505050565b600082601f83011262000d895762000d8862000a7c565b5b813562000d9b84826020860162000cfd565b91505092915050565b6000806040838503121562000dbe5762000dbd620009d2565b5b600062000dce8582860162000a2a565b925050602083013567ffffffffffffffff81111562000df25762000df1620009d7565b5b62000e008582860162000d71565b9150509250929050565b6000806040838503121562000e245762000e23620009d2565b5b600062000e348582860162000a2a565b925050602062000e478582860162000a65565b9150509250929050565b60006020828403121562000e6a5762000e69620009d2565b5b600062000e7a8482850162000a65565b91505092915050565b62000e8e81620009fc565b82525050565b600060208201905062000eab600083018462000e83565b92915050565b600080fd5b60008083601f84011262000ecf5762000ece62000a7c565b5b8235905067ffffffffffffffff81111562000eef5762000eee62000eb1565b5b60208301915083600182028301111562000f0e5762000f0d62000cf8565b5b9250929050565b6000806000806060858703121562000f325762000f31620009d2565b5b600062000f428782880162000a2a565b945050602062000f558782880162000a65565b935050604085013567ffffffffffffffff81111562000f795762000f78620009d7565b5b62000f878782880162000eb6565b925092505092959194509250565b60008060006060848603121562000fb15762000fb0620009d2565b5b600062000fc18682870162000a2a565b935050602084013567ffffffffffffffff81111562000fe55762000fe4620009d7565b5b62000ff38682870162000d71565b9250506040620010068682870162000a65565b9150509250925092565b7f4e487b7100000000000000000000000000000000000000000000000000000000600052603260045260246000fd5b6200104a8162000a41565b82525050565b600060608201905062001067600083018662000e83565b62001076602083018562000e83565b6200108560408301846200103f565b949350505050565b7f4e487b7100000000000000000000000000000000000000000000000000000000600052601160045260246000fd5b6000620010c98262000a41565b91507fffffffffffffffffffffffffffffffffffffffffffffffffffffffffffffffff8203620010fe57620010fd6200108d565b5b600182019050919050565b600081905092915050565b600062001122838562001109565b93506200113183858462000b51565b82840190509392505050565b60006200114c82848662001114565b91508190509392505050565b600081519050919050565b600082825260208201905092915050565b6000819050602082019050919050565b6200118f8162000a41565b82525050565b6000620011a3838362001184565b60208301905092915050565b6000602082019050919050565b6000620011c98262001158565b620011d5818562001163565b9350620011e28362001174565b8060005b8381101562001219578151620011fd888262001195565b97506200120a83620011af565b925050600181019050620011e6565b5085935050505092915050565b60006040820190506200123d600083018562000e83565b8181036020830152620012518184620011bc565b90509392505050565b7f4e487b7100000000000000000000000000000000000000000000000000000000600052601260045260246000fd5b6000620012968262000a41565b9150620012a38362000a41565b925082620012b657620012b56200125a565b5b828204905092915050565b600082825260208201905092915050565b6000620012e08385620012c1565b9350620012ef83858462000b51565b620012fa8362000a86565b840190509392505050565b60006040820190506200131c600083018662000e83565b818103602083015262001331818486620012d2565b9050949350505050565b600081519050919050565b60005b838110156200136657808201518184015260208101905062001349565b60008484015250505050565b60006200137f826200133b565b6200138b818562001109565b93506200139d81856020860162001346565b80840191505092915050565b6000620013b7828562001372565b9150620013c5828462001372565b9150819050939250505056fe608060405234801561001057600080fd5b50604051610f59380380610f59833981810160405281019061003291906100db565b806000806101000a81548173ffffffffffffffffffffffffffffffffffffffff021916908373ffffffffffffffffffffffffffffffffffffffff16021790555050610108565b600080fd5b600073ffffffffffffffffffffffffffffffffffffffff82169050919050565b60006100a88261007d565b9050919050565b6100b88161009d565b81146100c357600080fd5b50565b6000815190506100d5816100af565b92915050565b6000602082840312156100f1576100f0610078565b5b60006100ff848285016100c6565b91505092915050565b610e42806101176000396000f3fe6080604052600436106100705760003560e01c806386aaa5061161004e57806386aaa50614610104578063b510391f1461012d578063c57a116614610149578063f851a4401461018657610070565b8063150b7a02146100755780631a695230146100b25780633e1a037c146100db575b600080fd5b34801561008157600080fd5b5061009c600480360381019061009791906108a8565b6101b1565b6040516100a99190610966565b60405180910390f35b3480156100be57600080fd5b506100d960048036038101906100d49190610981565b61022b565b005b3480156100e757600080fd5b5061010260048036038101906100fd9190610a76565b6103db565b005b34801561011057600080fd5b5061012b60048036038101906101269190610ad2565b6104ae565b005b61014760048036038101906101429190610b6d565b610541565b005b34801561015557600080fd5b50610170600480360381019061016b9190610981565b6105c1565b60405161017d9190610c8b565b60405180910390f35b34801561019257600080fd5b5061019b610658565b6040516101a89190610cbc565b60405180910390f35b6000600160003373ffffffffffffffffffffffffffffffffffffffff1673ffffffffffffffffffffffffffffffffffffffff16815260200190815260200160002083908060018154018082558091505060019003906000526020600020016000909190919091505563150b7a0260e01b9050949350505050565b6000600160008373ffffffffffffffffffffffffffffffffffffffff1673ffffffffffffffffffffffffffffffffffffffff1681526020019081526020016000208054806020026020016040519081016040528092919081815260200182805480156102b657602002820191906000526020600020905b8154815260200190600101908083116102a2575b5050505050905060008151905060005b8181101561038a578373ffffffffffffffffffffffffffffffffffffffff166323b872dd3060008054906101000a900473ffffffffffffffffffffffffffffffffffffffff1686858151811061031f5761031e610cd7565b5b60200260200101516040518463ffffffff1660e01b815260040161034593929190610d15565b600060405180830381600087803b15801561035f57600080fd5b505af1158015610373573d6000803e3d6000fd5b50505050808061038290610d7b565b9150506102c6565b50600160008473ffffffffffffffffffffffffffffffffffffffff1673ffffffffffffffffffffffffffffffffffffffff16815260200190815260200160002060006103d6919061067c565b505050565b60008151905060005b818110156104a8578373ffffffffffffffffffffffffffffffffffffffff166323b872dd3060008054906101000a900473ffffffffffffffffffffffffffffffffffffffff1686858151811061043d5761043c610cd7565b5b60200260200101516040518463ffffffff1660e01b815260040161046393929190610d15565b600060405180830381600087803b15801561047d57600080fd5b505af1158015610491573d6000803e3d6000fd5b5050505080806104a090610d7b565b9150506103e4565b50505050565b8173ffffffffffffffffffffffffffffffffffffffff166323b872dd3060008054906101000a900473ffffffffffffffffffffffffffffffffffffffff16846040518463ffffffff1660e01b815260040161050b93929190610d15565b600060405180830381600087803b15801561052557600080fd5b505af1158015610539573d6000803e3d6000fd5b505050505050565b60008373ffffffffffffffffffffffffffffffffffffffff1634848460405161056b929190610df3565b60006040518083038185875af1925050503d80600081146105a8576040519150601f19603f3d011682016040523d82523d6000602084013e6105ad565b606091505b50509050806105bb57600080fd5b50505050565b6060600160008373ffffffffffffffffffffffffffffffffffffffff1673ffffffffffffffffffffffffffffffffffffffff16815260200190815260200160002080548060200260200160405190810160405280929190818152602001828054801561064c57602002820191906000526020600020905b815481526020019060010190808311610638575b50505050509050919050565b60008054906101000a900473ffffffffffffffffffffffffffffffffffffffff1681565b508054600082559060005260206000209081019061069a919061069d565b50565b5b808211156106b657600081600090555060010161069e565b5090565b6000604051905090565b600080fd5b600080fd5b600073ffffffffffffffffffffffffffffffffffffffff82169050919050565b60006106f9826106ce565b9050919050565b610709816106ee565b811461071457600080fd5b50565b60008135905061072681610700565b92915050565b6000819050919050565b61073f8161072c565b811461074a57600080fd5b50565b60008135905061075c81610736565b92915050565b600080fd5b600080fd5b6000601f19601f8301169050919050565b7f4e487b7100000000000000000000000000000000000000000000000000000000600052604160045260246000fd5b6107b58261076c565b810181811067ffffffffffffffff821117156107d4576107d361077d565b5b80604052505050565b60006107e76106ba565b90506107f382826107ac565b919050565b600067ffffffffffffffff8211156108135761081261077d565b5b61081c8261076c565b9050602081019050919050565b82818337600083830152505050565b600061084b610846846107f8565b6107dd565b90508281526020810184848401111561086757610866610767565b5b610872848285610829565b509392505050565b600082601f83011261088f5761088e610762565b5b813561089f848260208601610838565b91505092915050565b600080600080608085870312156108c2576108c16106c4565b5b60006108d087828801610717565b94505060206108e187828801610717565b93505060406108f28782880161074d565b925050606085013567ffffffffffffffff811115610913576109126106c9565b5b61091f8782880161087a565b91505092959194509250565b60007fffffffff0000000000000000000000000000000000000000000000000000000082169050919050565b6109608161092b565b82525050565b600060208201905061097b6000830184610957565b92915050565b600060208284031215610997576109966106c4565b5b60006109a584828501610717565b91505092915050565b600067ffffffffffffffff8211156109c9576109c861077d565b5b602082029050602081019050919050565b600080fd5b60006109f26109ed846109ae565b6107dd565b90508083825260208201905060208402830185811115610a1557610a146109da565b5b835b81811015610a3e5780610a2a888261074d565b845260208401935050602081019050610a17565b5050509392505050565b600082601f830112610a5d57610a5c610762565b5b8135610a6d8482602086016109df565b91505092915050565b60008060408385031215610a8d57610a8c6106c4565b5b6000610a9b85828601610717565b925050602083013567ffffffffffffffff811115610abc57610abb6106c9565b5b610ac885828601610a48565b9150509250929050565b60008060408385031215610ae957610ae86106c4565b5b6000610af785828601610717565b9250506020610b088582860161074d565b9150509250929050565b600080fd5b60008083601f840112610b2d57610b2c610762565b5b8235905067ffffffffffffffff811115610b4a57610b49610b12565b5b602083019150836001820283011115610b6657610b656109da565b5b9250929050565b600080600060408486031215610b8657610b856106c4565b5b6000610b9486828701610717565b935050602084013567ffffffffffffffff811115610bb557610bb46106c9565b5b610bc186828701610b17565b92509250509250925092565b600081519050919050565b600082825260208201905092915050565b6000819050602082019050919050565b610c028161072c565b82525050565b6000610c148383610bf9565b60208301905092915050565b6000602082019050919050565b6000610c3882610bcd565b610c428185610bd8565b9350610c4d83610be9565b8060005b83811015610c7e578151610c658882610c08565b9750610c7083610c20565b925050600181019050610c51565b5085935050505092915050565b60006020820190508181036000830152610ca58184610c2d565b905092915050565b610cb6816106ee565b82525050565b6000602082019050610cd16000830184610cad565b92915050565b7f4e487b7100000000000000000000000000000000000000000000000000000000600052603260045260246000fd5b610d0f8161072c565b82525050565b6000606082019050610d2a6000830186610cad565b610d376020830185610cad565b610d446040830184610d06565b949350505050565b7f4e487b7100000000000000000000000000000000000000000000000000000000600052601160045260246000fd5b6000610d868261072c565b91507fffffffffffffffffffffffffffffffffffffffffffffffffffffffffffffffff8203610db857610db7610d4c565b5b600182019050919050565b600081905092915050565b6000610dda8385610dc3565b9350610de7838584610829565b82840190509392505050565b6000610e00828486610dce565b9150819050939250505056fea264697066735822122093a4851836a150c8c0ac0f7e06002cbe475e10e8a2dc65b5d04a47e887b187a464736f6c63430008110033a2646970667358221220a0f406a128785f4360a6690b6bf46fe70f536ff6583a591831921c5fbc3ea08264736f6c63430008110033",
					"opcodes": "PUSH1 0x80 PUSH1 0x40 MSTORE PUSH1 0x0 PUSH1 0x2 SSTORE CALLVALUE DUP1 ISZERO PUSH3 0x16 JUMPI PUSH1 0x0 DUP1 REVERT JUMPDEST POP PUSH1 0x40 MLOAD PUSH3 0x248F CODESIZE SUB DUP1 PUSH3 0x248F DUP4 CODECOPY DUP2 DUP2 ADD PUSH1 0x40 MSTORE DUP2 ADD SWAP1 PUSH3 0x3C SWAP2 SWAP1 PUSH3 0xED JUMP JUMPDEST DUP1 PUSH1 0x0 DUP1 PUSH2 0x100 EXP DUP2 SLOAD DUP2 PUSH20 0xFFFFFFFFFFFFFFFFFFFFFFFFFFFFFFFFFFFFFFFF MUL NOT AND SWAP1 DUP4 PUSH20 0xFFFFFFFFFFFFFFFFFFFFFFFFFFFFFFFFFFFFFFFF AND MUL OR SWAP1 SSTORE POP POP PUSH3 0x11F JUMP JUMPDEST PUSH1 0x0 DUP1 REVERT JUMPDEST PUSH1 0x0 PUSH20 0xFFFFFFFFFFFFFFFFFFFFFFFFFFFFFFFFFFFFFFFF DUP3 AND SWAP1 POP SWAP2 SWAP1 POP JUMP JUMPDEST PUSH1 0x0 PUSH3 0xB5 DUP3 PUSH3 0x88 JUMP JUMPDEST SWAP1 POP SWAP2 SWAP1 POP JUMP JUMPDEST PUSH3 0xC7 DUP2 PUSH3 0xA8 JUMP JUMPDEST DUP2 EQ PUSH3 0xD3 JUMPI PUSH1 0x0 DUP1 REVERT JUMPDEST POP JUMP JUMPDEST PUSH1 0x0 DUP2 MLOAD SWAP1 POP PUSH3 0xE7 DUP2 PUSH3 0xBC JUMP JUMPDEST SWAP3 SWAP2 POP POP JUMP JUMPDEST PUSH1 0x0 PUSH1 0x20 DUP3 DUP5 SUB SLT ISZERO PUSH3 0x106 JUMPI PUSH3 0x105 PUSH3 0x83 JUMP JUMPDEST JUMPDEST PUSH1 0x0 PUSH3 0x116 DUP5 DUP3 DUP6 ADD PUSH3 0xD6 JUMP JUMPDEST SWAP2 POP POP SWAP3 SWAP2 POP POP JUMP JUMPDEST PUSH2 0x2360 DUP1 PUSH3 0x12F PUSH1 0x0 CODECOPY PUSH1 0x0 RETURN INVALID PUSH1 0x80 PUSH1 0x40 MSTORE PUSH1 0x4 CALLDATASIZE LT PUSH3 0x9E JUMPI PUSH1 0x0 CALLDATALOAD PUSH1 0xE0 SHR DUP1 PUSH4 0xA5E38751 GT PUSH3 0x61 JUMPI DUP1 PUSH4 0xA5E38751 EQ PUSH3 0x1B5 JUMPI DUP1 PUSH4 0xB1D95A5C EQ PUSH3 0x1E3 JUMPI DUP1 PUSH4 0xC6046F77 EQ PUSH3 0x211 JUMPI DUP1 PUSH4 0xF4BBC568 EQ PUSH3 0x23F JUMPI DUP1 PUSH4 0xF851A440 EQ PUSH3 0x25F JUMPI PUSH3 0x9E JUMP JUMPDEST DUP1 PUSH4 0x150B7A02 EQ PUSH3 0xA3 JUMPI DUP1 PUSH4 0x3E1A037C EQ PUSH3 0xE7 JUMPI DUP1 PUSH4 0x4E702AB3 EQ PUSH3 0x115 JUMPI DUP1 PUSH4 0x8623EC7B EQ PUSH3 0x143 JUMPI DUP1 PUSH4 0x94D008EF EQ PUSH3 0x187 JUMPI JUMPDEST PUSH1 0x0 DUP1 REVERT JUMPDEST CALLVALUE DUP1 ISZERO PUSH3 0xB0 JUMPI PUSH1 0x0 DUP1 REVERT JUMPDEST POP PUSH3 0xCF PUSH1 0x4 DUP1 CALLDATASIZE SUB DUP2 ADD SWAP1 PUSH3 0xC9 SWAP2 SWAP1 PUSH3 0xBDE JUMP JUMPDEST PUSH3 0x28F JUMP JUMPDEST PUSH1 0x40 MLOAD PUSH3 0xDE SWAP2 SWAP1 PUSH3 0xCAC JUMP JUMPDEST PUSH1 0x40 MLOAD DUP1 SWAP2 SUB SWAP1 RETURN JUMPDEST CALLVALUE DUP1 ISZERO PUSH3 0xF4 JUMPI PUSH1 0x0 DUP1 REVERT JUMPDEST POP PUSH3 0x113 PUSH1 0x4 DUP1 CALLDATASIZE SUB DUP2 ADD SWAP1 PUSH3 0x10D SWAP2 SWAP1 PUSH3 0xDA4 JUMP JUMPDEST PUSH3 0x2AA JUMP JUMPDEST STOP JUMPDEST CALLVALUE DUP1 ISZERO PUSH3 0x122 JUMPI PUSH1 0x0 DUP1 REVERT JUMPDEST POP PUSH3 0x141 PUSH1 0x4 DUP1 CALLDATASIZE SUB DUP2 ADD SWAP1 PUSH3 0x13B SWAP2 SWAP1 PUSH3 0xE0A JUMP JUMPDEST PUSH3 0x388 JUMP JUMPDEST STOP JUMPDEST CALLVALUE DUP1 ISZERO PUSH3 0x150 JUMPI PUSH1 0x0 DUP1 REVERT JUMPDEST POP PUSH3 0x16F PUSH1 0x4 DUP1 CALLDATASIZE SUB DUP2 ADD SWAP1 PUSH3 0x169 SWAP2 SWAP1 PUSH3 0xE51 JUMP JUMPDEST PUSH3 0x45F JUMP JUMPDEST PUSH1 0x40 MLOAD PUSH3 0x17E SWAP2 SWAP1 PUSH3 0xE94 JUMP JUMPDEST PUSH1 0x40 MLOAD DUP1 SWAP2 SUB SWAP1 RETURN JUMPDEST CALLVALUE DUP1 ISZERO PUSH3 0x194 JUMPI PUSH1 0x0 DUP1 REVERT JUMPDEST POP PUSH3 0x1B3 PUSH1 0x4 DUP1 CALLDATASIZE SUB DUP2 ADD SWAP1 PUSH3 0x1AD SWAP2 SWAP1 PUSH3 0xF15 JUMP JUMPDEST PUSH3 0x49F JUMP JUMPDEST STOP JUMPDEST CALLVALUE DUP1 ISZERO PUSH3 0x1C2 JUMPI PUSH1 0x0 DUP1 REVERT JUMPDEST POP PUSH3 0x1E1 PUSH1 0x4 DUP1 CALLDATASIZE SUB DUP2 ADD SWAP1 PUSH3 0x1DB SWAP2 SWAP1 PUSH3 0xE51 JUMP JUMPDEST PUSH3 0x547 JUMP JUMPDEST STOP JUMPDEST CALLVALUE DUP1 ISZERO PUSH3 0x1F0 JUMPI PUSH1 0x0 DUP1 REVERT JUMPDEST POP PUSH3 0x20F PUSH1 0x4 DUP1 CALLDATASIZE SUB DUP2 ADD SWAP1 PUSH3 0x209 SWAP2 SWAP1 PUSH3 0xF95 JUMP JUMPDEST PUSH3 0x61A JUMP JUMPDEST STOP JUMPDEST CALLVALUE DUP1 ISZERO PUSH3 0x21E JUMPI PUSH1 0x0 DUP1 REVERT JUMPDEST POP PUSH3 0x23D PUSH1 0x4 DUP1 CALLDATASIZE SUB DUP2 ADD SWAP1 PUSH3 0x237 SWAP2 SWAP1 PUSH3 0xF15 JUMP JUMPDEST PUSH3 0x6D1 JUMP JUMPDEST STOP JUMPDEST PUSH3 0x25D PUSH1 0x4 DUP1 CALLDATASIZE SUB DUP2 ADD SWAP1 PUSH3 0x257 SWAP2 SWAP1 PUSH3 0xF15 JUMP JUMPDEST PUSH3 0x80E JUMP JUMPDEST STOP JUMPDEST CALLVALUE DUP1 ISZERO PUSH3 0x26C JUMPI PUSH1 0x0 DUP1 REVERT JUMPDEST POP PUSH3 0x277 PUSH3 0x8FF JUMP JUMPDEST PUSH1 0x40 MLOAD PUSH3 0x286 SWAP2 SWAP1 PUSH3 0xE94 JUMP JUMPDEST PUSH1 0x40 MLOAD DUP1 SWAP2 SUB SWAP1 RETURN JUMPDEST PUSH1 0x0 DUP3 PUSH1 0x3 DUP2 SWAP1 SSTORE POP PUSH4 0x150B7A02 PUSH1 0xE0 SHL SWAP1 POP SWAP5 SWAP4 POP POP POP POP JUMP JUMPDEST PUSH1 0x0 DUP2 MLOAD SWAP1 POP PUSH1 0x0 JUMPDEST DUP2 DUP2 LT ISZERO PUSH3 0x382 JUMPI DUP4 PUSH20 0xFFFFFFFFFFFFFFFFFFFFFFFFFFFFFFFFFFFFFFFF AND PUSH4 0x23B872DD ADDRESS PUSH1 0x0 DUP1 SLOAD SWAP1 PUSH2 0x100 EXP SWAP1 DIV PUSH20 0xFFFFFFFFFFFFFFFFFFFFFFFFFFFFFFFFFFFFFFFF AND DUP7 DUP6 DUP2 MLOAD DUP2 LT PUSH3 0x310 JUMPI PUSH3 0x30F PUSH3 0x1010 JUMP JUMPDEST JUMPDEST PUSH1 0x20 MUL PUSH1 0x20 ADD ADD MLOAD PUSH1 0x40 MLOAD DUP5 PUSH4 0xFFFFFFFF AND PUSH1 0xE0 SHL DUP2 MSTORE PUSH1 0x4 ADD PUSH3 0x338 SWAP4 SWAP3 SWAP2 SWAP1 PUSH3 0x1050 JUMP JUMPDEST PUSH1 0x0 PUSH1 0x40 MLOAD DUP1 DUP4 SUB DUP2 PUSH1 0x0 DUP8 DUP1 EXTCODESIZE ISZERO DUP1 ISZERO PUSH3 0x353 JUMPI PUSH1 0x0 DUP1 REVERT JUMPDEST POP GAS CALL ISZERO DUP1 ISZERO PUSH3 0x368 JUMPI RETURNDATASIZE PUSH1 0x0 DUP1 RETURNDATACOPY RETURNDATASIZE PUSH1 0x0 REVERT JUMPDEST POP POP POP POP DUP1 DUP1 PUSH3 0x379 SWAP1 PUSH3 0x10BC JUMP JUMPDEST SWAP2 POP POP PUSH3 0x2B3 JUMP JUMPDEST POP POP POP POP JUMP JUMPDEST PUSH1 0x0 JUMPDEST DUP2 DUP2 LT ISZERO PUSH3 0x45A JUMPI PUSH1 0x1 DUP2 DUP2 SLOAD DUP2 LT PUSH3 0x3AB JUMPI PUSH3 0x3AA PUSH3 0x1010 JUMP JUMPDEST JUMPDEST SWAP1 PUSH1 0x0 MSTORE PUSH1 0x20 PUSH1 0x0 KECCAK256 ADD PUSH1 0x0 SWAP1 SLOAD SWAP1 PUSH2 0x100 EXP SWAP1 DIV PUSH20 0xFFFFFFFFFFFFFFFFFFFFFFFFFFFFFFFFFFFFFFFF AND PUSH20 0xFFFFFFFFFFFFFFFFFFFFFFFFFFFFFFFFFFFFFFFF AND PUSH4 0x1A695230 DUP5 PUSH1 0x40 MLOAD DUP3 PUSH4 0xFFFFFFFF AND PUSH1 0xE0 SHL DUP2 MSTORE PUSH1 0x4 ADD PUSH3 0x410 SWAP2 SWAP1 PUSH3 0xE94 JUMP JUMPDEST PUSH1 0x0 PUSH1 0x40 MLOAD DUP1 DUP4 SUB DUP2 PUSH1 0x0 DUP8 DUP1 EXTCODESIZE ISZERO DUP1 ISZERO PUSH3 0x42B JUMPI PUSH1 0x0 DUP1 REVERT JUMPDEST POP GAS CALL ISZERO DUP1 ISZERO PUSH3 0x440 JUMPI RETURNDATASIZE PUSH1 0x0 DUP1 RETURNDATACOPY RETURNDATASIZE PUSH1 0x0 REVERT JUMPDEST POP POP POP POP DUP1 DUP1 PUSH3 0x451 SWAP1 PUSH3 0x10BC JUMP JUMPDEST SWAP2 POP POP PUSH3 0x38B JUMP JUMPDEST POP POP POP JUMP JUMPDEST PUSH1 0x1 DUP2 DUP2 SLOAD DUP2 LT PUSH3 0x470 JUMPI PUSH1 0x0 DUP1 REVERT JUMPDEST SWAP1 PUSH1 0x0 MSTORE PUSH1 0x20 PUSH1 0x0 KECCAK256 ADD PUSH1 0x0 SWAP2 POP SLOAD SWAP1 PUSH2 0x100 EXP SWAP1 DIV PUSH20 0xFFFFFFFFFFFFFFFFFFFFFFFFFFFFFFFFFFFFFFFF AND DUP2 JUMP JUMPDEST PUSH1 0x0 JUMPDEST DUP4 DUP2 LT ISZERO PUSH3 0x540 JUMPI PUSH1 0x0 DUP6 PUSH20 0xFFFFFFFFFFFFFFFFFFFFFFFFFFFFFFFFFFFFFFFF AND DUP5 DUP5 PUSH1 0x40 MLOAD PUSH3 0x4D6 SWAP3 SWAP2 SWAP1 PUSH3 0x113D JUMP JUMPDEST PUSH1 0x0 PUSH1 0x40 MLOAD DUP1 DUP4 SUB DUP2 PUSH1 0x0 DUP7 GAS CALL SWAP2 POP POP RETURNDATASIZE DUP1 PUSH1 0x0 DUP2 EQ PUSH3 0x515 JUMPI PUSH1 0x40 MLOAD SWAP2 POP PUSH1 0x1F NOT PUSH1 0x3F RETURNDATASIZE ADD AND DUP3 ADD PUSH1 0x40 MSTORE RETURNDATASIZE DUP3 MSTORE RETURNDATASIZE PUSH1 0x0 PUSH1 0x20 DUP5 ADD RETURNDATACOPY PUSH3 0x51A JUMP JUMPDEST PUSH1 0x60 SWAP2 POP JUMPDEST POP POP SWAP1 POP DUP1 PUSH3 0x529 JUMPI PUSH1 0x0 DUP1 REVERT JUMPDEST POP DUP1 DUP1 PUSH3 0x537 SWAP1 PUSH3 0x10BC JUMP JUMPDEST SWAP2 POP POP PUSH3 0x4A2 JUMP JUMPDEST POP POP POP POP POP JUMP JUMPDEST PUSH1 0x0 PUSH3 0x553 PUSH3 0x923 JUMP JUMPDEST SWAP1 POP PUSH1 0x0 JUMPDEST DUP3 DUP2 LT ISZERO PUSH3 0x615 JUMPI PUSH1 0x0 DUP1 PUSH1 0x2 SLOAD SWAP1 POP DUP1 DUP5 MLOAD PUSH1 0x20 DUP7 ADD CALLVALUE CREATE2 SWAP2 POP DUP2 EXTCODESIZE PUSH3 0x580 JUMPI PUSH1 0x0 DUP1 REVERT JUMPDEST PUSH1 0x1 DUP3 SWAP1 DUP1 PUSH1 0x1 DUP2 SLOAD ADD DUP1 DUP3 SSTORE DUP1 SWAP2 POP POP PUSH1 0x1 SWAP1 SUB SWAP1 PUSH1 0x0 MSTORE PUSH1 0x20 PUSH1 0x0 KECCAK256 ADD PUSH1 0x0 SWAP1 SWAP2 SWAP1 SWAP2 SWAP1 SWAP2 PUSH2 0x100 EXP DUP2 SLOAD DUP2 PUSH20 0xFFFFFFFFFFFFFFFFFFFFFFFFFFFFFFFFFFFFFFFF MUL NOT AND SWAP1 DUP4 PUSH20 0xFFFFFFFFFFFFFFFFFFFFFFFFFFFFFFFFFFFFFFFF AND MUL OR SWAP1 SSTORE POP PUSH1 0x2 PUSH1 0x0 DUP2 SLOAD DUP1 SWAP3 SWAP2 SWAP1 PUSH3 0x5F8 SWAP1 PUSH3 0x10BC JUMP JUMPDEST SWAP2 SWAP1 POP SSTORE POP POP POP DUP1 DUP1 PUSH3 0x60C SWAP1 PUSH3 0x10BC JUMP JUMPDEST SWAP2 POP POP PUSH3 0x558 JUMP JUMPDEST POP POP POP JUMP JUMPDEST PUSH1 0x1 DUP2 DUP2 SLOAD DUP2 LT PUSH3 0x631 JUMPI PUSH3 0x630 PUSH3 0x1010 JUMP JUMPDEST JUMPDEST SWAP1 PUSH1 0x0 MSTORE PUSH1 0x20 PUSH1 0x0 KECCAK256 ADD PUSH1 0x0 SWAP1 SLOAD SWAP1 PUSH2 0x100 EXP SWAP1 DIV PUSH20 0xFFFFFFFFFFFFFFFFFFFFFFFFFFFFFFFFFFFFFFFF AND PUSH20 0xFFFFFFFFFFFFFFFFFFFFFFFFFFFFFFFFFFFFFFFF AND PUSH4 0x3E1A037C DUP5 DUP5 PUSH1 0x40 MLOAD DUP4 PUSH4 0xFFFFFFFF AND PUSH1 0xE0 SHL DUP2 MSTORE PUSH1 0x4 ADD PUSH3 0x698 SWAP3 SWAP2 SWAP1 PUSH3 0x1226 JUMP JUMPDEST PUSH1 0x0 PUSH1 0x40 MLOAD DUP1 DUP4 SUB DUP2 PUSH1 0x0 DUP8 DUP1 EXTCODESIZE ISZERO DUP1 ISZERO PUSH3 0x6B3 JUMPI PUSH1 0x0 DUP1 REVERT JUMPDEST POP GAS CALL ISZERO DUP1 ISZERO PUSH3 0x6C8 JUMPI RETURNDATASIZE PUSH1 0x0 DUP1 RETURNDATACOPY RETURNDATASIZE PUSH1 0x0 REVERT JUMPDEST POP POP POP POP POP POP POP JUMP JUMPDEST PUSH1 0x0 JUMPDEST DUP4 DUP2 LT ISZERO PUSH3 0x807 JUMPI PUSH1 0x0 DUP6 PUSH20 0xFFFFFFFFFFFFFFFFFFFFFFFFFFFFFFFFFFFFFFFF AND DUP5 DUP5 PUSH1 0x40 MLOAD PUSH3 0x708 SWAP3 SWAP2 SWAP1 PUSH3 0x113D JUMP JUMPDEST PUSH1 0x0 PUSH1 0x40 MLOAD DUP1 DUP4 SUB DUP2 PUSH1 0x0 DUP7 GAS CALL SWAP2 POP POP RETURNDATASIZE DUP1 PUSH1 0x0 DUP2 EQ PUSH3 0x747 JUMPI PUSH1 0x40 MLOAD SWAP2 POP PUSH1 0x1F NOT PUSH1 0x3F RETURNDATASIZE ADD AND DUP3 ADD PUSH1 0x40 MSTORE RETURNDATASIZE DUP3 MSTORE RETURNDATASIZE PUSH1 0x0 PUSH1 0x20 DUP5 ADD RETURNDATACOPY PUSH3 0x74C JUMP JUMPDEST PUSH1 0x60 SWAP2 POP JUMPDEST POP POP SWAP1 POP DUP1 PUSH3 0x75B JUMPI PUSH1 0x0 DUP1 REVERT JUMPDEST DUP6 PUSH20 0xFFFFFFFFFFFFFFFFFFFFFFFFFFFFFFFFFFFFFFFF AND PUSH4 0x23B872DD ADDRESS PUSH1 0x0 DUP1 SLOAD SWAP1 PUSH2 0x100 EXP SWAP1 DIV PUSH20 0xFFFFFFFFFFFFFFFFFFFFFFFFFFFFFFFFFFFFFFFF AND PUSH1 0x3 SLOAD PUSH1 0x40 MLOAD DUP5 PUSH4 0xFFFFFFFF AND PUSH1 0xE0 SHL DUP2 MSTORE PUSH1 0x4 ADD PUSH3 0x7BC SWAP4 SWAP3 SWAP2 SWAP1 PUSH3 0x1050 JUMP JUMPDEST PUSH1 0x0 PUSH1 0x40 MLOAD DUP1 DUP4 SUB DUP2 PUSH1 0x0 DUP8 DUP1 EXTCODESIZE ISZERO DUP1 ISZERO PUSH3 0x7D7 JUMPI PUSH1 0x0 DUP1 REVERT JUMPDEST POP GAS CALL ISZERO DUP1 ISZERO PUSH3 0x7EC JUMPI RETURNDATASIZE PUSH1 0x0 DUP1 RETURNDATACOPY RETURNDATASIZE PUSH1 0x0 REVERT JUMPDEST POP POP POP POP POP DUP1 DUP1 PUSH3 0x7FE SWAP1 PUSH3 0x10BC JUMP JUMPDEST SWAP2 POP POP PUSH3 0x6D4 JUMP JUMPDEST POP POP POP POP POP JUMP JUMPDEST PUSH1 0x0 DUP4 CALLVALUE PUSH3 0x81E SWAP2 SWAP1 PUSH3 0x1289 JUMP JUMPDEST SWAP1 POP PUSH1 0x0 JUMPDEST DUP5 DUP2 LT ISZERO PUSH3 0x8F7 JUMPI PUSH1 0x1 DUP2 DUP2 SLOAD DUP2 LT PUSH3 0x843 JUMPI PUSH3 0x842 PUSH3 0x1010 JUMP JUMPDEST JUMPDEST SWAP1 PUSH1 0x0 MSTORE PUSH1 0x20 PUSH1 0x0 KECCAK256 ADD PUSH1 0x0 SWAP1 SLOAD SWAP1 PUSH2 0x100 EXP SWAP1 DIV PUSH20 0xFFFFFFFFFFFFFFFFFFFFFFFFFFFFFFFFFFFFFFFF AND PUSH20 0xFFFFFFFFFFFFFFFFFFFFFFFFFFFFFFFFFFFFFFFF AND PUSH4 0xB510391F DUP4 DUP9 DUP8 DUP8 PUSH1 0x40 MLOAD DUP6 PUSH4 0xFFFFFFFF AND PUSH1 0xE0 SHL DUP2 MSTORE PUSH1 0x4 ADD PUSH3 0x8AD SWAP4 SWAP3 SWAP2 SWAP1 PUSH3 0x1305 JUMP JUMPDEST PUSH1 0x0 PUSH1 0x40 MLOAD DUP1 DUP4 SUB DUP2 DUP6 DUP9 DUP1 EXTCODESIZE ISZERO DUP1 ISZERO PUSH3 0x8C7 JUMPI PUSH1 0x0 DUP1 REVERT JUMPDEST POP GAS CALL ISZERO DUP1 ISZERO PUSH3 0x8DC JUMPI RETURNDATASIZE PUSH1 0x0 DUP1 RETURNDATACOPY RETURNDATASIZE PUSH1 0x0 REVERT JUMPDEST POP POP POP POP POP DUP1 DUP1 PUSH3 0x8EE SWAP1 PUSH3 0x10BC JUMP JUMPDEST SWAP2 POP POP PUSH3 0x823 JUMP JUMPDEST POP POP POP POP POP POP JUMP JUMPDEST PUSH1 0x0 DUP1 SLOAD SWAP1 PUSH2 0x100 EXP SWAP1 DIV PUSH20 0xFFFFFFFFFFFFFFFFFFFFFFFFFFFFFFFFFFFFFFFF AND DUP2 JUMP JUMPDEST PUSH1 0x60 PUSH1 0x0 PUSH1 0x40 MLOAD DUP1 PUSH1 0x20 ADD PUSH3 0x939 SWAP1 PUSH3 0x9BA JUMP JUMPDEST PUSH1 0x20 DUP3 ADD DUP2 SUB DUP3 MSTORE PUSH1 0x1F NOT PUSH1 0x1F DUP3 ADD AND PUSH1 0x40 MSTORE POP SWAP1 POP DUP1 PUSH1 0x0 DUP1 SLOAD SWAP1 PUSH2 0x100 EXP SWAP1 DIV PUSH20 0xFFFFFFFFFFFFFFFFFFFFFFFFFFFFFFFFFFFFFFFF AND PUSH1 0x40 MLOAD PUSH1 0x20 ADD PUSH3 0x983 SWAP2 SWAP1 PUSH3 0xE94 JUMP JUMPDEST PUSH1 0x40 MLOAD PUSH1 0x20 DUP2 DUP4 SUB SUB DUP2 MSTORE SWAP1 PUSH1 0x40 MSTORE PUSH1 0x40 MLOAD PUSH1 0x20 ADD PUSH3 0x9A5 SWAP3 SWAP2 SWAP1 PUSH3 0x13A9 JUMP JUMPDEST PUSH1 0x40 MLOAD PUSH1 0x20 DUP2 DUP4 SUB SUB DUP2 MSTORE SWAP1 PUSH1 0x40 MSTORE SWAP2 POP POP SWAP1 JUMP JUMPDEST PUSH2 0xF59 DUP1 PUSH3 0x13D2 DUP4 CODECOPY ADD SWAP1 JUMP JUMPDEST PUSH1 0x0 PUSH1 0x40 MLOAD SWAP1 POP SWAP1 JUMP JUMPDEST PUSH1 0x0 DUP1 REVERT JUMPDEST PUSH1 0x0 DUP1 REVERT JUMPDEST PUSH1 0x0 PUSH20 0xFFFFFFFFFFFFFFFFFFFFFFFFFFFFFFFFFFFFFFFF DUP3 AND SWAP1 POP SWAP2 SWAP1 POP JUMP JUMPDEST PUSH1 0x0 PUSH3 0xA09 DUP3 PUSH3 0x9DC JUMP JUMPDEST SWAP1 POP SWAP2 SWAP1 POP JUMP JUMPDEST PUSH3 0xA1B DUP2 PUSH3 0x9FC JUMP JUMPDEST DUP2 EQ PUSH3 0xA27 JUMPI PUSH1 0x0 DUP1 REVERT JUMPDEST POP JUMP JUMPDEST PUSH1 0x0 DUP2 CALLDATALOAD SWAP1 POP PUSH3 0xA3B DUP2 PUSH3 0xA10 JUMP JUMPDEST SWAP3 SWAP2 POP POP JUMP JUMPDEST PUSH1 0x0 DUP2 SWAP1 POP SWAP2 SWAP1 POP JUMP JUMPDEST PUSH3 0xA56 DUP2 PUSH3 0xA41 JUMP JUMPDEST DUP2 EQ PUSH3 0xA62 JUMPI PUSH1 0x0 DUP1 REVERT JUMPDEST POP JUMP JUMPDEST PUSH1 0x0 DUP2 CALLDATALOAD SWAP1 POP PUSH3 0xA76 DUP2 PUSH3 0xA4B JUMP JUMPDEST SWAP3 SWAP2 POP POP JUMP JUMPDEST PUSH1 0x0 DUP1 REVERT JUMPDEST PUSH1 0x0 DUP1 REVERT JUMPDEST PUSH1 0x0 PUSH1 0x1F NOT PUSH1 0x1F DUP4 ADD AND SWAP1 POP SWAP2 SWAP1 POP JUMP JUMPDEST PUSH32 0x4E487B7100000000000000000000000000000000000000000000000000000000 PUSH1 0x0 MSTORE PUSH1 0x41 PUSH1 0x4 MSTORE PUSH1 0x24 PUSH1 0x0 REVERT JUMPDEST PUSH3 0xAD1 DUP3 PUSH3 0xA86 JUMP JUMPDEST DUP2 ADD DUP2 DUP2 LT PUSH8 0xFFFFFFFFFFFFFFFF DUP3 GT OR ISZERO PUSH3 0xAF3 JUMPI PUSH3 0xAF2 PUSH3 0xA97 JUMP JUMPDEST JUMPDEST DUP1 PUSH1 0x40 MSTORE POP POP POP JUMP JUMPDEST PUSH1 0x0 PUSH3 0xB08 PUSH3 0x9C8 JUMP JUMPDEST SWAP1 POP PUSH3 0xB16 DUP3 DUP3 PUSH3 0xAC6 JUMP JUMPDEST SWAP2 SWAP1 POP JUMP JUMPDEST PUSH1 0x0 PUSH8 0xFFFFFFFFFFFFFFFF DUP3 GT ISZERO PUSH3 0xB39 JUMPI PUSH3 0xB38 PUSH3 0xA97 JUMP JUMPDEST JUMPDEST PUSH3 0xB44 DUP3 PUSH3 0xA86 JUMP JUMPDEST SWAP1 POP PUSH1 0x20 DUP2 ADD SWAP1 POP SWAP2 SWAP1 POP JUMP JUMPDEST DUP3 DUP2 DUP4 CALLDATACOPY PUSH1 0x0 DUP4 DUP4 ADD MSTORE POP POP POP JUMP JUMPDEST PUSH1 0x0 PUSH3 0xB77 PUSH3 0xB71 DUP5 PUSH3 0xB1B JUMP JUMPDEST PUSH3 0xAFC JUMP JUMPDEST SWAP1 POP DUP3 DUP2 MSTORE PUSH1 0x20 DUP2 ADD DUP5 DUP5 DUP5 ADD GT ISZERO PUSH3 0xB96 JUMPI PUSH3 0xB95 PUSH3 0xA81 JUMP JUMPDEST JUMPDEST PUSH3 0xBA3 DUP5 DUP3 DUP6 PUSH3 0xB51 JUMP JUMPDEST POP SWAP4 SWAP3 POP POP POP JUMP JUMPDEST PUSH1 0x0 DUP3 PUSH1 0x1F DUP4 ADD SLT PUSH3 0xBC3 JUMPI PUSH3 0xBC2 PUSH3 0xA7C JUMP JUMPDEST JUMPDEST DUP2 CALLDATALOAD PUSH3 0xBD5 DUP5 DUP3 PUSH1 0x20 DUP7 ADD PUSH3 0xB60 JUMP JUMPDEST SWAP2 POP POP SWAP3 SWAP2 POP POP JUMP JUMPDEST PUSH1 0x0 DUP1 PUSH1 0x0 DUP1 PUSH1 0x80 DUP6 DUP8 SUB SLT ISZERO PUSH3 0xBFB JUMPI PUSH3 0xBFA PUSH3 0x9D2 JUMP JUMPDEST JUMPDEST PUSH1 0x0 PUSH3 0xC0B DUP8 DUP3 DUP9 ADD PUSH3 0xA2A JUMP JUMPDEST SWAP5 POP POP PUSH1 0x20 PUSH3 0xC1E DUP8 DUP3 DUP9 ADD PUSH3 0xA2A JUMP JUMPDEST SWAP4 POP POP PUSH1 0x40 PUSH3 0xC31 DUP8 DUP3 DUP9 ADD PUSH3 0xA65 JUMP JUMPDEST SWAP3 POP POP PUSH1 0x60 DUP6 ADD CALLDATALOAD PUSH8 0xFFFFFFFFFFFFFFFF DUP2 GT ISZERO PUSH3 0xC55 JUMPI PUSH3 0xC54 PUSH3 0x9D7 JUMP JUMPDEST JUMPDEST PUSH3 0xC63 DUP8 DUP3 DUP9 ADD PUSH3 0xBAB JUMP JUMPDEST SWAP2 POP POP SWAP3 SWAP6 SWAP2 SWAP5 POP SWAP3 POP JUMP JUMPDEST PUSH1 0x0 PUSH32 0xFFFFFFFF00000000000000000000000000000000000000000000000000000000 DUP3 AND SWAP1 POP SWAP2 SWAP1 POP JUMP JUMPDEST PUSH3 0xCA6 DUP2 PUSH3 0xC6F JUMP JUMPDEST DUP3 MSTORE POP POP JUMP JUMPDEST PUSH1 0x0 PUSH1 0x20 DUP3 ADD SWAP1 POP PUSH3 0xCC3 PUSH1 0x0 DUP4 ADD DUP5 PUSH3 0xC9B JUMP JUMPDEST SWAP3 SWAP2 POP POP JUMP JUMPDEST PUSH1 0x0 PUSH8 0xFFFFFFFFFFFFFFFF DUP3 GT ISZERO PUSH3 0xCE7 JUMPI PUSH3 0xCE6 PUSH3 0xA97 JUMP JUMPDEST JUMPDEST PUSH1 0x20 DUP3 MUL SWAP1 POP PUSH1 0x20 DUP2 ADD SWAP1 POP SWAP2 SWAP1 POP JUMP JUMPDEST PUSH1 0x0 DUP1 REVERT JUMPDEST PUSH1 0x0 PUSH3 0xD14 PUSH3 0xD0E DUP5 PUSH3 0xCC9 JUMP JUMPDEST PUSH3 0xAFC JUMP JUMPDEST SWAP1 POP DUP1 DUP4 DUP3 MSTORE PUSH1 0x20 DUP3 ADD SWAP1 POP PUSH1 0x20 DUP5 MUL DUP4 ADD DUP6 DUP2 GT ISZERO PUSH3 0xD3A JUMPI PUSH3 0xD39 PUSH3 0xCF8 JUMP JUMPDEST JUMPDEST DUP4 JUMPDEST DUP2 DUP2 LT ISZERO PUSH3 0xD67 JUMPI DUP1 PUSH3 0xD52 DUP9 DUP3 PUSH3 0xA65 JUMP JUMPDEST DUP5 MSTORE PUSH1 0x20 DUP5 ADD SWAP4 POP POP PUSH1 0x20 DUP2 ADD SWAP1 POP PUSH3 0xD3C JUMP JUMPDEST POP POP POP SWAP4 SWAP3 POP POP POP JUMP JUMPDEST PUSH1 0x0 DUP3 PUSH1 0x1F DUP4 ADD SLT PUSH3 0xD89 JUMPI PUSH3 0xD88 PUSH3 0xA7C JUMP JUMPDEST JUMPDEST DUP2 CALLDATALOAD PUSH3 0xD9B DUP5 DUP3 PUSH1 0x20 DUP7 ADD PUSH3 0xCFD JUMP JUMPDEST SWAP2 POP POP SWAP3 SWAP2 POP POP JUMP JUMPDEST PUSH1 0x0 DUP1 PUSH1 0x40 DUP4 DUP6 SUB SLT ISZERO PUSH3 0xDBE JUMPI PUSH3 0xDBD PUSH3 0x9D2 JUMP JUMPDEST JUMPDEST PUSH1 0x0 PUSH3 0xDCE DUP6 DUP3 DUP7 ADD PUSH3 0xA2A JUMP JUMPDEST SWAP3 POP POP PUSH1 0x20 DUP4 ADD CALLDATALOAD PUSH8 0xFFFFFFFFFFFFFFFF DUP2 GT ISZERO PUSH3 0xDF2 JUMPI PUSH3 0xDF1 PUSH3 0x9D7 JUMP JUMPDEST JUMPDEST PUSH3 0xE00 DUP6 DUP3 DUP7 ADD PUSH3 0xD71 JUMP JUMPDEST SWAP2 POP POP SWAP3 POP SWAP3 SWAP1 POP JUMP JUMPDEST PUSH1 0x0 DUP1 PUSH1 0x40 DUP4 DUP6 SUB SLT ISZERO PUSH3 0xE24 JUMPI PUSH3 0xE23 PUSH3 0x9D2 JUMP JUMPDEST JUMPDEST PUSH1 0x0 PUSH3 0xE34 DUP6 DUP3 DUP7 ADD PUSH3 0xA2A JUMP JUMPDEST SWAP3 POP POP PUSH1 0x20 PUSH3 0xE47 DUP6 DUP3 DUP7 ADD PUSH3 0xA65 JUMP JUMPDEST SWAP2 POP POP SWAP3 POP SWAP3 SWAP1 POP JUMP JUMPDEST PUSH1 0x0 PUSH1 0x20 DUP3 DUP5 SUB SLT ISZERO PUSH3 0xE6A JUMPI PUSH3 0xE69 PUSH3 0x9D2 JUMP JUMPDEST JUMPDEST PUSH1 0x0 PUSH3 0xE7A DUP5 DUP3 DUP6 ADD PUSH3 0xA65 JUMP JUMPDEST SWAP2 POP POP SWAP3 SWAP2 POP POP JUMP JUMPDEST PUSH3 0xE8E DUP2 PUSH3 0x9FC JUMP JUMPDEST DUP3 MSTORE POP POP JUMP JUMPDEST PUSH1 0x0 PUSH1 0x20 DUP3 ADD SWAP1 POP PUSH3 0xEAB PUSH1 0x0 DUP4 ADD DUP5 PUSH3 0xE83 JUMP JUMPDEST SWAP3 SWAP2 POP POP JUMP JUMPDEST PUSH1 0x0 DUP1 REVERT JUMPDEST PUSH1 0x0 DUP1 DUP4 PUSH1 0x1F DUP5 ADD SLT PUSH3 0xECF JUMPI PUSH3 0xECE PUSH3 0xA7C JUMP JUMPDEST JUMPDEST DUP3 CALLDATALOAD SWAP1 POP PUSH8 0xFFFFFFFFFFFFFFFF DUP2 GT ISZERO PUSH3 0xEEF JUMPI PUSH3 0xEEE PUSH3 0xEB1 JUMP JUMPDEST JUMPDEST PUSH1 0x20 DUP4 ADD SWAP2 POP DUP4 PUSH1 0x1 DUP3 MUL DUP4 ADD GT ISZERO PUSH3 0xF0E JUMPI PUSH3 0xF0D PUSH3 0xCF8 JUMP JUMPDEST JUMPDEST SWAP3 POP SWAP3 SWAP1 POP JUMP JUMPDEST PUSH1 0x0 DUP1 PUSH1 0x0 DUP1 PUSH1 0x60 DUP6 DUP8 SUB SLT ISZERO PUSH3 0xF32 JUMPI PUSH3 0xF31 PUSH3 0x9D2 JUMP JUMPDEST JUMPDEST PUSH1 0x0 PUSH3 0xF42 DUP8 DUP3 DUP9 ADD PUSH3 0xA2A JUMP JUMPDEST SWAP5 POP POP PUSH1 0x20 PUSH3 0xF55 DUP8 DUP3 DUP9 ADD PUSH3 0xA65 JUMP JUMPDEST SWAP4 POP POP PUSH1 0x40 DUP6 ADD CALLDATALOAD PUSH8 0xFFFFFFFFFFFFFFFF DUP2 GT ISZERO PUSH3 0xF79 JUMPI PUSH3 0xF78 PUSH3 0x9D7 JUMP JUMPDEST JUMPDEST PUSH3 0xF87 DUP8 DUP3 DUP9 ADD PUSH3 0xEB6 JUMP JUMPDEST SWAP3 POP SWAP3 POP POP SWAP3 SWAP6 SWAP2 SWAP5 POP SWAP3 POP JUMP JUMPDEST PUSH1 0x0 DUP1 PUSH1 0x0 PUSH1 0x60 DUP5 DUP7 SUB SLT ISZERO PUSH3 0xFB1 JUMPI PUSH3 0xFB0 PUSH3 0x9D2 JUMP JUMPDEST JUMPDEST PUSH1 0x0 PUSH3 0xFC1 DUP7 DUP3 DUP8 ADD PUSH3 0xA2A JUMP JUMPDEST SWAP4 POP POP PUSH1 0x20 DUP5 ADD CALLDATALOAD PUSH8 0xFFFFFFFFFFFFFFFF DUP2 GT ISZERO PUSH3 0xFE5 JUMPI PUSH3 0xFE4 PUSH3 0x9D7 JUMP JUMPDEST JUMPDEST PUSH3 0xFF3 DUP7 DUP3 DUP8 ADD PUSH3 0xD71 JUMP JUMPDEST SWAP3 POP POP PUSH1 0x40 PUSH3 0x1006 DUP7 DUP3 DUP8 ADD PUSH3 0xA65 JUMP JUMPDEST SWAP2 POP POP SWAP3 POP SWAP3 POP SWAP3 JUMP JUMPDEST PUSH32 0x4E487B7100000000000000000000000000000000000000000000000000000000 PUSH1 0x0 MSTORE PUSH1 0x32 PUSH1 0x4 MSTORE PUSH1 0x24 PUSH1 0x0 REVERT JUMPDEST PUSH3 0x104A DUP2 PUSH3 0xA41 JUMP JUMPDEST DUP3 MSTORE POP POP JUMP JUMPDEST PUSH1 0x0 PUSH1 0x60 DUP3 ADD SWAP1 POP PUSH3 0x1067 PUSH1 0x0 DUP4 ADD DUP7 PUSH3 0xE83 JUMP JUMPDEST PUSH3 0x1076 PUSH1 0x20 DUP4 ADD DUP6 PUSH3 0xE83 JUMP JUMPDEST PUSH3 0x1085 PUSH1 0x40 DUP4 ADD DUP5 PUSH3 0x103F JUMP JUMPDEST SWAP5 SWAP4 POP POP POP POP JUMP JUMPDEST PUSH32 0x4E487B7100000000000000000000000000000000000000000000000000000000 PUSH1 0x0 MSTORE PUSH1 0x11 PUSH1 0x4 MSTORE PUSH1 0x24 PUSH1 0x0 REVERT JUMPDEST PUSH1 0x0 PUSH3 0x10C9 DUP3 PUSH3 0xA41 JUMP JUMPDEST SWAP2 POP PUSH32 0xFFFFFFFFFFFFFFFFFFFFFFFFFFFFFFFFFFFFFFFFFFFFFFFFFFFFFFFFFFFFFFFF DUP3 SUB PUSH3 0x10FE JUMPI PUSH3 0x10FD PUSH3 0x108D JUMP JUMPDEST JUMPDEST PUSH1 0x1 DUP3 ADD SWAP1 POP SWAP2 SWAP1 POP JUMP JUMPDEST PUSH1 0x0 DUP2 SWAP1 POP SWAP3 SWAP2 POP POP JUMP JUMPDEST PUSH1 0x0 PUSH3 0x1122 DUP4 DUP6 PUSH3 0x1109 JUMP JUMPDEST SWAP4 POP PUSH3 0x1131 DUP4 DUP6 DUP5 PUSH3 0xB51 JUMP JUMPDEST DUP3 DUP5 ADD SWAP1 POP SWAP4 SWAP3 POP POP POP JUMP JUMPDEST PUSH1 0x0 PUSH3 0x114C DUP3 DUP5 DUP7 PUSH3 0x1114 JUMP JUMPDEST SWAP2 POP DUP2 SWAP1 POP SWAP4 SWAP3 POP POP POP JUMP JUMPDEST PUSH1 0x0 DUP2 MLOAD SWAP1 POP SWAP2 SWAP1 POP JUMP JUMPDEST PUSH1 0x0 DUP3 DUP3 MSTORE PUSH1 0x20 DUP3 ADD SWAP1 POP SWAP3 SWAP2 POP POP JUMP JUMPDEST PUSH1 0x0 DUP2 SWAP1 POP PUSH1 0x20 DUP3 ADD SWAP1 POP SWAP2 SWAP1 POP JUMP JUMPDEST PUSH3 0x118F DUP2 PUSH3 0xA41 JUMP JUMPDEST DUP3 MSTORE POP POP JUMP JUMPDEST PUSH1 0x0 PUSH3 0x11A3 DUP4 DUP4 PUSH3 0x1184 JUMP JUMPDEST PUSH1 0x20 DUP4 ADD SWAP1 POP SWAP3 SWAP2 POP POP JUMP JUMPDEST PUSH1 0x0 PUSH1 0x20 DUP3 ADD SWAP1 POP SWAP2 SWAP1 POP JUMP JUMPDEST PUSH1 0x0 PUSH3 0x11C9 DUP3 PUSH3 0x1158 JUMP JUMPDEST PUSH3 0x11D5 DUP2 DUP6 PUSH3 0x1163 JUMP JUMPDEST SWAP4 POP PUSH3 0x11E2 DUP4 PUSH3 0x1174 JUMP JUMPDEST DUP1 PUSH1 0x0 JUMPDEST DUP4 DUP2 LT ISZERO PUSH3 0x1219 JUMPI DUP2 MLOAD PUSH3 0x11FD DUP9 DUP3 PUSH3 0x1195 JUMP JUMPDEST SWAP8 POP PUSH3 0x120A DUP4 PUSH3 0x11AF JUMP JUMPDEST SWAP3 POP POP PUSH1 0x1 DUP2 ADD SWAP1 POP PUSH3 0x11E6 JUMP JUMPDEST POP DUP6 SWAP4 POP POP POP POP SWAP3 SWAP2 POP POP JUMP JUMPDEST PUSH1 0x0 PUSH1 0x40 DUP3 ADD SWAP1 POP PUSH3 0x123D PUSH1 0x0 DUP4 ADD DUP6 PUSH3 0xE83 JUMP JUMPDEST DUP2 DUP2 SUB PUSH1 0x20 DUP4 ADD MSTORE PUSH3 0x1251 DUP2 DUP5 PUSH3 0x11BC JUMP JUMPDEST SWAP1 POP SWAP4 SWAP3 POP POP POP JUMP JUMPDEST PUSH32 0x4E487B7100000000000000000000000000000000000000000000000000000000 PUSH1 0x0 MSTORE PUSH1 0x12 PUSH1 0x4 MSTORE PUSH1 0x24 PUSH1 0x0 REVERT JUMPDEST PUSH1 0x0 PUSH3 0x1296 DUP3 PUSH3 0xA41 JUMP JUMPDEST SWAP2 POP PUSH3 0x12A3 DUP4 PUSH3 0xA41 JUMP JUMPDEST SWAP3 POP DUP3 PUSH3 0x12B6 JUMPI PUSH3 0x12B5 PUSH3 0x125A JUMP JUMPDEST JUMPDEST DUP3 DUP3 DIV SWAP1 POP SWAP3 SWAP2 POP POP JUMP JUMPDEST PUSH1 0x0 DUP3 DUP3 MSTORE PUSH1 0x20 DUP3 ADD SWAP1 POP SWAP3 SWAP2 POP POP JUMP JUMPDEST PUSH1 0x0 PUSH3 0x12E0 DUP4 DUP6 PUSH3 0x12C1 JUMP JUMPDEST SWAP4 POP PUSH3 0x12EF DUP4 DUP6 DUP5 PUSH3 0xB51 JUMP JUMPDEST PUSH3 0x12FA DUP4 PUSH3 0xA86 JUMP JUMPDEST DUP5 ADD SWAP1 POP SWAP4 SWAP3 POP POP POP JUMP JUMPDEST PUSH1 0x0 PUSH1 0x40 DUP3 ADD SWAP1 POP PUSH3 0x131C PUSH1 0x0 DUP4 ADD DUP7 PUSH3 0xE83 JUMP JUMPDEST DUP2 DUP2 SUB PUSH1 0x20 DUP4 ADD MSTORE PUSH3 0x1331 DUP2 DUP5 DUP7 PUSH3 0x12D2 JUMP JUMPDEST SWAP1 POP SWAP5 SWAP4 POP POP POP POP JUMP JUMPDEST PUSH1 0x0 DUP2 MLOAD SWAP1 POP SWAP2 SWAP1 POP JUMP JUMPDEST PUSH1 0x0 JUMPDEST DUP4 DUP2 LT ISZERO PUSH3 0x1366 JUMPI DUP1 DUP3 ADD MLOAD DUP2 DUP5 ADD MSTORE PUSH1 0x20 DUP2 ADD SWAP1 POP PUSH3 0x1349 JUMP JUMPDEST PUSH1 0x0 DUP5 DUP5 ADD MSTORE POP POP POP POP JUMP JUMPDEST PUSH1 0x0 PUSH3 0x137F DUP3 PUSH3 0x133B JUMP JUMPDEST PUSH3 0x138B DUP2 DUP6 PUSH3 0x1109 JUMP JUMPDEST SWAP4 POP PUSH3 0x139D DUP2 DUP6 PUSH1 0x20 DUP7 ADD PUSH3 0x1346 JUMP JUMPDEST DUP1 DUP5 ADD SWAP2 POP POP SWAP3 SWAP2 POP POP JUMP JUMPDEST PUSH1 0x0 PUSH3 0x13B7 DUP3 DUP6 PUSH3 0x1372 JUMP JUMPDEST SWAP2 POP PUSH3 0x13C5 DUP3 DUP5 PUSH3 0x1372 JUMP JUMPDEST SWAP2 POP DUP2 SWAP1 POP SWAP4 SWAP3 POP POP POP JUMP INVALID PUSH1 0x80 PUSH1 0x40 MSTORE CALLVALUE DUP1 ISZERO PUSH2 0x10 JUMPI PUSH1 0x0 DUP1 REVERT JUMPDEST POP PUSH1 0x40 MLOAD PUSH2 0xF59 CODESIZE SUB DUP1 PUSH2 0xF59 DUP4 CODECOPY DUP2 DUP2 ADD PUSH1 0x40 MSTORE DUP2 ADD SWAP1 PUSH2 0x32 SWAP2 SWAP1 PUSH2 0xDB JUMP JUMPDEST DUP1 PUSH1 0x0 DUP1 PUSH2 0x100 EXP DUP2 SLOAD DUP2 PUSH20 0xFFFFFFFFFFFFFFFFFFFFFFFFFFFFFFFFFFFFFFFF MUL NOT AND SWAP1 DUP4 PUSH20 0xFFFFFFFFFFFFFFFFFFFFFFFFFFFFFFFFFFFFFFFF AND MUL OR SWAP1 SSTORE POP POP PUSH2 0x108 JUMP JUMPDEST PUSH1 0x0 DUP1 REVERT JUMPDEST PUSH1 0x0 PUSH20 0xFFFFFFFFFFFFFFFFFFFFFFFFFFFFFFFFFFFFFFFF DUP3 AND SWAP1 POP SWAP2 SWAP1 POP JUMP JUMPDEST PUSH1 0x0 PUSH2 0xA8 DUP3 PUSH2 0x7D JUMP JUMPDEST SWAP1 POP SWAP2 SWAP1 POP JUMP JUMPDEST PUSH2 0xB8 DUP2 PUSH2 0x9D JUMP JUMPDEST DUP2 EQ PUSH2 0xC3 JUMPI PUSH1 0x0 DUP1 REVERT JUMPDEST POP JUMP JUMPDEST PUSH1 0x0 DUP2 MLOAD SWAP1 POP PUSH2 0xD5 DUP2 PUSH2 0xAF JUMP JUMPDEST SWAP3 SWAP2 POP POP JUMP JUMPDEST PUSH1 0x0 PUSH1 0x20 DUP3 DUP5 SUB SLT ISZERO PUSH2 0xF1 JUMPI PUSH2 0xF0 PUSH2 0x78 JUMP JUMPDEST JUMPDEST PUSH1 0x0 PUSH2 0xFF DUP5 DUP3 DUP6 ADD PUSH2 0xC6 JUMP JUMPDEST SWAP2 POP POP SWAP3 SWAP2 POP POP JUMP JUMPDEST PUSH2 0xE42 DUP1 PUSH2 0x117 PUSH1 0x0 CODECOPY PUSH1 0x0 RETURN INVALID PUSH1 0x80 PUSH1 0x40 MSTORE PUSH1 0x4 CALLDATASIZE LT PUSH2 0x70 JUMPI PUSH1 0x0 CALLDATALOAD PUSH1 0xE0 SHR DUP1 PUSH4 0x86AAA506 GT PUSH2 0x4E JUMPI DUP1 PUSH4 0x86AAA506 EQ PUSH2 0x104 JUMPI DUP1 PUSH4 0xB510391F EQ PUSH2 0x12D JUMPI DUP1 PUSH4 0xC57A1166 EQ PUSH2 0x149 JUMPI DUP1 PUSH4 0xF851A440 EQ PUSH2 0x186 JUMPI PUSH2 0x70 JUMP JUMPDEST DUP1 PUSH4 0x150B7A02 EQ PUSH2 0x75 JUMPI DUP1 PUSH4 0x1A695230 EQ PUSH2 0xB2 JUMPI DUP1 PUSH4 0x3E1A037C EQ PUSH2 0xDB JUMPI JUMPDEST PUSH1 0x0 DUP1 REVERT JUMPDEST CALLVALUE DUP1 ISZERO PUSH2 0x81 JUMPI PUSH1 0x0 DUP1 REVERT JUMPDEST POP PUSH2 0x9C PUSH1 0x4 DUP1 CALLDATASIZE SUB DUP2 ADD SWAP1 PUSH2 0x97 SWAP2 SWAP1 PUSH2 0x8A8 JUMP JUMPDEST PUSH2 0x1B1 JUMP JUMPDEST PUSH1 0x40 MLOAD PUSH2 0xA9 SWAP2 SWAP1 PUSH2 0x966 JUMP JUMPDEST PUSH1 0x40 MLOAD DUP1 SWAP2 SUB SWAP1 RETURN JUMPDEST CALLVALUE DUP1 ISZERO PUSH2 0xBE JUMPI PUSH1 0x0 DUP1 REVERT JUMPDEST POP PUSH2 0xD9 PUSH1 0x4 DUP1 CALLDATASIZE SUB DUP2 ADD SWAP1 PUSH2 0xD4 SWAP2 SWAP1 PUSH2 0x981 JUMP JUMPDEST PUSH2 0x22B JUMP JUMPDEST STOP JUMPDEST CALLVALUE DUP1 ISZERO PUSH2 0xE7 JUMPI PUSH1 0x0 DUP1 REVERT JUMPDEST POP PUSH2 0x102 PUSH1 0x4 DUP1 CALLDATASIZE SUB DUP2 ADD SWAP1 PUSH2 0xFD SWAP2 SWAP1 PUSH2 0xA76 JUMP JUMPDEST PUSH2 0x3DB JUMP JUMPDEST STOP JUMPDEST CALLVALUE DUP1 ISZERO PUSH2 0x110 JUMPI PUSH1 0x0 DUP1 REVERT JUMPDEST POP PUSH2 0x12B PUSH1 0x4 DUP1 CALLDATASIZE SUB DUP2 ADD SWAP1 PUSH2 0x126 SWAP2 SWAP1 PUSH2 0xAD2 JUMP JUMPDEST PUSH2 0x4AE JUMP JUMPDEST STOP JUMPDEST PUSH2 0x147 PUSH1 0x4 DUP1 CALLDATASIZE SUB DUP2 ADD SWAP1 PUSH2 0x142 SWAP2 SWAP1 PUSH2 0xB6D JUMP JUMPDEST PUSH2 0x541 JUMP JUMPDEST STOP JUMPDEST CALLVALUE DUP1 ISZERO PUSH2 0x155 JUMPI PUSH1 0x0 DUP1 REVERT JUMPDEST POP PUSH2 0x170 PUSH1 0x4 DUP1 CALLDATASIZE SUB DUP2 ADD SWAP1 PUSH2 0x16B SWAP2 SWAP1 PUSH2 0x981 JUMP JUMPDEST PUSH2 0x5C1 JUMP JUMPDEST PUSH1 0x40 MLOAD PUSH2 0x17D SWAP2 SWAP1 PUSH2 0xC8B JUMP JUMPDEST PUSH1 0x40 MLOAD DUP1 SWAP2 SUB SWAP1 RETURN JUMPDEST CALLVALUE DUP1 ISZERO PUSH2 0x192 JUMPI PUSH1 0x0 DUP1 REVERT JUMPDEST POP PUSH2 0x19B PUSH2 0x658 JUMP JUMPDEST PUSH1 0x40 MLOAD PUSH2 0x1A8 SWAP2 SWAP1 PUSH2 0xCBC JUMP JUMPDEST PUSH1 0x40 MLOAD DUP1 SWAP2 SUB SWAP1 RETURN JUMPDEST PUSH1 0x0 PUSH1 0x1 PUSH1 0x0 CALLER PUSH20 0xFFFFFFFFFFFFFFFFFFFFFFFFFFFFFFFFFFFFFFFF AND PUSH20 0xFFFFFFFFFFFFFFFFFFFFFFFFFFFFFFFFFFFFFFFF AND DUP2 MSTORE PUSH1 0x20 ADD SWAP1 DUP2 MSTORE PUSH1 0x20 ADD PUSH1 0x0 KECCAK256 DUP4 SWAP1 DUP1 PUSH1 0x1 DUP2 SLOAD ADD DUP1 DUP3 SSTORE DUP1 SWAP2 POP POP PUSH1 0x1 SWAP1 SUB SWAP1 PUSH1 0x0 MSTORE PUSH1 0x20 PUSH1 0x0 KECCAK256 ADD PUSH1 0x0 SWAP1 SWAP2 SWAP1 SWAP2 SWAP1 SWAP2 POP SSTORE PUSH4 0x150B7A02 PUSH1 0xE0 SHL SWAP1 POP SWAP5 SWAP4 POP POP POP POP JUMP JUMPDEST PUSH1 0x0 PUSH1 0x1 PUSH1 0x0 DUP4 PUSH20 0xFFFFFFFFFFFFFFFFFFFFFFFFFFFFFFFFFFFFFFFF AND PUSH20 0xFFFFFFFFFFFFFFFFFFFFFFFFFFFFFFFFFFFFFFFF AND DUP2 MSTORE PUSH1 0x20 ADD SWAP1 DUP2 MSTORE PUSH1 0x20 ADD PUSH1 0x0 KECCAK256 DUP1 SLOAD DUP1 PUSH1 0x20 MUL PUSH1 0x20 ADD PUSH1 0x40 MLOAD SWAP1 DUP2 ADD PUSH1 0x40 MSTORE DUP1 SWAP3 SWAP2 SWAP1 DUP2 DUP2 MSTORE PUSH1 0x20 ADD DUP3 DUP1 SLOAD DUP1 ISZERO PUSH2 0x2B6 JUMPI PUSH1 0x20 MUL DUP3 ADD SWAP2 SWAP1 PUSH1 0x0 MSTORE PUSH1 0x20 PUSH1 0x0 KECCAK256 SWAP1 JUMPDEST DUP2 SLOAD DUP2 MSTORE PUSH1 0x20 ADD SWAP1 PUSH1 0x1 ADD SWAP1 DUP1 DUP4 GT PUSH2 0x2A2 JUMPI JUMPDEST POP POP POP POP POP SWAP1 POP PUSH1 0x0 DUP2 MLOAD SWAP1 POP PUSH1 0x0 JUMPDEST DUP2 DUP2 LT ISZERO PUSH2 0x38A JUMPI DUP4 PUSH20 0xFFFFFFFFFFFFFFFFFFFFFFFFFFFFFFFFFFFFFFFF AND PUSH4 0x23B872DD ADDRESS PUSH1 0x0 DUP1 SLOAD SWAP1 PUSH2 0x100 EXP SWAP1 DIV PUSH20 0xFFFFFFFFFFFFFFFFFFFFFFFFFFFFFFFFFFFFFFFF AND DUP7 DUP6 DUP2 MLOAD DUP2 LT PUSH2 0x31F JUMPI PUSH2 0x31E PUSH2 0xCD7 JUMP JUMPDEST JUMPDEST PUSH1 0x20 MUL PUSH1 0x20 ADD ADD MLOAD PUSH1 0x40 MLOAD DUP5 PUSH4 0xFFFFFFFF AND PUSH1 0xE0 SHL DUP2 MSTORE PUSH1 0x4 ADD PUSH2 0x345 SWAP4 SWAP3 SWAP2 SWAP1 PUSH2 0xD15 JUMP JUMPDEST PUSH1 0x0 PUSH1 0x40 MLOAD DUP1 DUP4 SUB DUP2 PUSH1 0x0 DUP8 DUP1 EXTCODESIZE ISZERO DUP1 ISZERO PUSH2 0x35F JUMPI PUSH1 0x0 DUP1 REVERT JUMPDEST POP GAS CALL ISZERO DUP1 ISZERO PUSH2 0x373 JUMPI RETURNDATASIZE PUSH1 0x0 DUP1 RETURNDATACOPY RETURNDATASIZE PUSH1 0x0 REVERT JUMPDEST POP POP POP POP DUP1 DUP1 PUSH2 0x382 SWAP1 PUSH2 0xD7B JUMP JUMPDEST SWAP2 POP POP PUSH2 0x2C6 JUMP JUMPDEST POP PUSH1 0x1 PUSH1 0x0 DUP5 PUSH20 0xFFFFFFFFFFFFFFFFFFFFFFFFFFFFFFFFFFFFFFFF AND PUSH20 0xFFFFFFFFFFFFFFFFFFFFFFFFFFFFFFFFFFFFFFFF AND DUP2 MSTORE PUSH1 0x20 ADD SWAP1 DUP2 MSTORE PUSH1 0x20 ADD PUSH1 0x0 KECCAK256 PUSH1 0x0 PUSH2 0x3D6 SWAP2 SWAP1 PUSH2 0x67C JUMP JUMPDEST POP POP POP JUMP JUMPDEST PUSH1 0x0 DUP2 MLOAD SWAP1 POP PUSH1 0x0 JUMPDEST DUP2 DUP2 LT ISZERO PUSH2 0x4A8 JUMPI DUP4 PUSH20 0xFFFFFFFFFFFFFFFFFFFFFFFFFFFFFFFFFFFFFFFF AND PUSH4 0x23B872DD ADDRESS PUSH1 0x0 DUP1 SLOAD SWAP1 PUSH2 0x100 EXP SWAP1 DIV PUSH20 0xFFFFFFFFFFFFFFFFFFFFFFFFFFFFFFFFFFFFFFFF AND DUP7 DUP6 DUP2 MLOAD DUP2 LT PUSH2 0x43D JUMPI PUSH2 0x43C PUSH2 0xCD7 JUMP JUMPDEST JUMPDEST PUSH1 0x20 MUL PUSH1 0x20 ADD ADD MLOAD PUSH1 0x40 MLOAD DUP5 PUSH4 0xFFFFFFFF AND PUSH1 0xE0 SHL DUP2 MSTORE PUSH1 0x4 ADD PUSH2 0x463 SWAP4 SWAP3 SWAP2 SWAP1 PUSH2 0xD15 JUMP JUMPDEST PUSH1 0x0 PUSH1 0x40 MLOAD DUP1 DUP4 SUB DUP2 PUSH1 0x0 DUP8 DUP1 EXTCODESIZE ISZERO DUP1 ISZERO PUSH2 0x47D JUMPI PUSH1 0x0 DUP1 REVERT JUMPDEST POP GAS CALL ISZERO DUP1 ISZERO PUSH2 0x491 JUMPI RETURNDATASIZE PUSH1 0x0 DUP1 RETURNDATACOPY RETURNDATASIZE PUSH1 0x0 REVERT JUMPDEST POP POP POP POP DUP1 DUP1 PUSH2 0x4A0 SWAP1 PUSH2 0xD7B JUMP JUMPDEST SWAP2 POP POP PUSH2 0x3E4 JUMP JUMPDEST POP POP POP POP JUMP JUMPDEST DUP2 PUSH20 0xFFFFFFFFFFFFFFFFFFFFFFFFFFFFFFFFFFFFFFFF AND PUSH4 0x23B872DD ADDRESS PUSH1 0x0 DUP1 SLOAD SWAP1 PUSH2 0x100 EXP SWAP1 DIV PUSH20 0xFFFFFFFFFFFFFFFFFFFFFFFFFFFFFFFFFFFFFFFF AND DUP5 PUSH1 0x40 MLOAD DUP5 PUSH4 0xFFFFFFFF AND PUSH1 0xE0 SHL DUP2 MSTORE PUSH1 0x4 ADD PUSH2 0x50B SWAP4 SWAP3 SWAP2 SWAP1 PUSH2 0xD15 JUMP JUMPDEST PUSH1 0x0 PUSH1 0x40 MLOAD DUP1 DUP4 SUB DUP2 PUSH1 0x0 DUP8 DUP1 EXTCODESIZE ISZERO DUP1 ISZERO PUSH2 0x525 JUMPI PUSH1 0x0 DUP1 REVERT JUMPDEST POP GAS CALL ISZERO DUP1 ISZERO PUSH2 0x539 JUMPI RETURNDATASIZE PUSH1 0x0 DUP1 RETURNDATACOPY RETURNDATASIZE PUSH1 0x0 REVERT JUMPDEST POP POP POP POP POP POP JUMP JUMPDEST PUSH1 0x0 DUP4 PUSH20 0xFFFFFFFFFFFFFFFFFFFFFFFFFFFFFFFFFFFFFFFF AND CALLVALUE DUP5 DUP5 PUSH1 0x40 MLOAD PUSH2 0x56B SWAP3 SWAP2 SWAP1 PUSH2 0xDF3 JUMP JUMPDEST PUSH1 0x0 PUSH1 0x40 MLOAD DUP1 DUP4 SUB DUP2 DUP6 DUP8 GAS CALL SWAP3 POP POP POP RETURNDATASIZE DUP1 PUSH1 0x0 DUP2 EQ PUSH2 0x5A8 JUMPI PUSH1 0x40 MLOAD SWAP2 POP PUSH1 0x1F NOT PUSH1 0x3F RETURNDATASIZE ADD AND DUP3 ADD PUSH1 0x40 MSTORE RETURNDATASIZE DUP3 MSTORE RETURNDATASIZE PUSH1 0x0 PUSH1 0x20 DUP5 ADD RETURNDATACOPY PUSH2 0x5AD JUMP JUMPDEST PUSH1 0x60 SWAP2 POP JUMPDEST POP POP SWAP1 POP DUP1 PUSH2 0x5BB JUMPI PUSH1 0x0 DUP1 REVERT JUMPDEST POP POP POP POP JUMP JUMPDEST PUSH1 0x60 PUSH1 0x1 PUSH1 0x0 DUP4 PUSH20 0xFFFFFFFFFFFFFFFFFFFFFFFFFFFFFFFFFFFFFFFF AND PUSH20 0xFFFFFFFFFFFFFFFFFFFFFFFFFFFFFFFFFFFFFFFF AND DUP2 MSTORE PUSH1 0x20 ADD SWAP1 DUP2 MSTORE PUSH1 0x20 ADD PUSH1 0x0 KECCAK256 DUP1 SLOAD DUP1 PUSH1 0x20 MUL PUSH1 0x20 ADD PUSH1 0x40 MLOAD SWAP1 DUP2 ADD PUSH1 0x40 MSTORE DUP1 SWAP3 SWAP2 SWAP1 DUP2 DUP2 MSTORE PUSH1 0x20 ADD DUP3 DUP1 SLOAD DUP1 ISZERO PUSH2 0x64C JUMPI PUSH1 0x20 MUL DUP3 ADD SWAP2 SWAP1 PUSH1 0x0 MSTORE PUSH1 0x20 PUSH1 0x0 KECCAK256 SWAP1 JUMPDEST DUP2 SLOAD DUP2 MSTORE PUSH1 0x20 ADD SWAP1 PUSH1 0x1 ADD SWAP1 DUP1 DUP4 GT PUSH2 0x638 JUMPI JUMPDEST POP POP POP POP POP SWAP1 POP SWAP2 SWAP1 POP JUMP JUMPDEST PUSH1 0x0 DUP1 SLOAD SWAP1 PUSH2 0x100 EXP SWAP1 DIV PUSH20 0xFFFFFFFFFFFFFFFFFFFFFFFFFFFFFFFFFFFFFFFF AND DUP2 JUMP JUMPDEST POP DUP1 SLOAD PUSH1 0x0 DUP3 SSTORE SWAP1 PUSH1 0x0 MSTORE PUSH1 0x20 PUSH1 0x0 KECCAK256 SWAP1 DUP2 ADD SWAP1 PUSH2 0x69A SWAP2 SWAP1 PUSH2 0x69D JUMP JUMPDEST POP JUMP JUMPDEST JUMPDEST DUP1 DUP3 GT ISZERO PUSH2 0x6B6 JUMPI PUSH1 0x0 DUP2 PUSH1 0x0 SWAP1 SSTORE POP PUSH1 0x1 ADD PUSH2 0x69E JUMP JUMPDEST POP SWAP1 JUMP JUMPDEST PUSH1 0x0 PUSH1 0x40 MLOAD SWAP1 POP SWAP1 JUMP JUMPDEST PUSH1 0x0 DUP1 REVERT JUMPDEST PUSH1 0x0 DUP1 REVERT JUMPDEST PUSH1 0x0 PUSH20 0xFFFFFFFFFFFFFFFFFFFFFFFFFFFFFFFFFFFFFFFF DUP3 AND SWAP1 POP SWAP2 SWAP1 POP JUMP JUMPDEST PUSH1 0x0 PUSH2 0x6F9 DUP3 PUSH2 0x6CE JUMP JUMPDEST SWAP1 POP SWAP2 SWAP1 POP JUMP JUMPDEST PUSH2 0x709 DUP2 PUSH2 0x6EE JUMP JUMPDEST DUP2 EQ PUSH2 0x714 JUMPI PUSH1 0x0 DUP1 REVERT JUMPDEST POP JUMP JUMPDEST PUSH1 0x0 DUP2 CALLDATALOAD SWAP1 POP PUSH2 0x726 DUP2 PUSH2 0x700 JUMP JUMPDEST SWAP3 SWAP2 POP POP JUMP JUMPDEST PUSH1 0x0 DUP2 SWAP1 POP SWAP2 SWAP1 POP JUMP JUMPDEST PUSH2 0x73F DUP2 PUSH2 0x72C JUMP JUMPDEST DUP2 EQ PUSH2 0x74A JUMPI PUSH1 0x0 DUP1 REVERT JUMPDEST POP JUMP JUMPDEST PUSH1 0x0 DUP2 CALLDATALOAD SWAP1 POP PUSH2 0x75C DUP2 PUSH2 0x736 JUMP JUMPDEST SWAP3 SWAP2 POP POP JUMP JUMPDEST PUSH1 0x0 DUP1 REVERT JUMPDEST PUSH1 0x0 DUP1 REVERT JUMPDEST PUSH1 0x0 PUSH1 0x1F NOT PUSH1 0x1F DUP4 ADD AND SWAP1 POP SWAP2 SWAP1 POP JUMP JUMPDEST PUSH32 0x4E487B7100000000000000000000000000000000000000000000000000000000 PUSH1 0x0 MSTORE PUSH1 0x41 PUSH1 0x4 MSTORE PUSH1 0x24 PUSH1 0x0 REVERT JUMPDEST PUSH2 0x7B5 DUP3 PUSH2 0x76C JUMP JUMPDEST DUP2 ADD DUP2 DUP2 LT PUSH8 0xFFFFFFFFFFFFFFFF DUP3 GT OR ISZERO PUSH2 0x7D4 JUMPI PUSH2 0x7D3 PUSH2 0x77D JUMP JUMPDEST JUMPDEST DUP1 PUSH1 0x40 MSTORE POP POP POP JUMP JUMPDEST PUSH1 0x0 PUSH2 0x7E7 PUSH2 0x6BA JUMP JUMPDEST SWAP1 POP PUSH2 0x7F3 DUP3 DUP3 PUSH2 0x7AC JUMP JUMPDEST SWAP2 SWAP1 POP JUMP JUMPDEST PUSH1 0x0 PUSH8 0xFFFFFFFFFFFFFFFF DUP3 GT ISZERO PUSH2 0x813 JUMPI PUSH2 0x812 PUSH2 0x77D JUMP JUMPDEST JUMPDEST PUSH2 0x81C DUP3 PUSH2 0x76C JUMP JUMPDEST SWAP1 POP PUSH1 0x20 DUP2 ADD SWAP1 POP SWAP2 SWAP1 POP JUMP JUMPDEST DUP3 DUP2 DUP4 CALLDATACOPY PUSH1 0x0 DUP4 DUP4 ADD MSTORE POP POP POP JUMP JUMPDEST PUSH1 0x0 PUSH2 0x84B PUSH2 0x846 DUP5 PUSH2 0x7F8 JUMP JUMPDEST PUSH2 0x7DD JUMP JUMPDEST SWAP1 POP DUP3 DUP2 MSTORE PUSH1 0x20 DUP2 ADD DUP5 DUP5 DUP5 ADD GT ISZERO PUSH2 0x867 JUMPI PUSH2 0x866 PUSH2 0x767 JUMP JUMPDEST JUMPDEST PUSH2 0x872 DUP5 DUP3 DUP6 PUSH2 0x829 JUMP JUMPDEST POP SWAP4 SWAP3 POP POP POP JUMP JUMPDEST PUSH1 0x0 DUP3 PUSH1 0x1F DUP4 ADD SLT PUSH2 0x88F JUMPI PUSH2 0x88E PUSH2 0x762 JUMP JUMPDEST JUMPDEST DUP2 CALLDATALOAD PUSH2 0x89F DUP5 DUP3 PUSH1 0x20 DUP7 ADD PUSH2 0x838 JUMP JUMPDEST SWAP2 POP POP SWAP3 SWAP2 POP POP JUMP JUMPDEST PUSH1 0x0 DUP1 PUSH1 0x0 DUP1 PUSH1 0x80 DUP6 DUP8 SUB SLT ISZERO PUSH2 0x8C2 JUMPI PUSH2 0x8C1 PUSH2 0x6C4 JUMP JUMPDEST JUMPDEST PUSH1 0x0 PUSH2 0x8D0 DUP8 DUP3 DUP9 ADD PUSH2 0x717 JUMP JUMPDEST SWAP5 POP POP PUSH1 0x20 PUSH2 0x8E1 DUP8 DUP3 DUP9 ADD PUSH2 0x717 JUMP JUMPDEST SWAP4 POP POP PUSH1 0x40 PUSH2 0x8F2 DUP8 DUP3 DUP9 ADD PUSH2 0x74D JUMP JUMPDEST SWAP3 POP POP PUSH1 0x60 DUP6 ADD CALLDATALOAD PUSH8 0xFFFFFFFFFFFFFFFF DUP2 GT ISZERO PUSH2 0x913 JUMPI PUSH2 0x912 PUSH2 0x6C9 JUMP JUMPDEST JUMPDEST PUSH2 0x91F DUP8 DUP3 DUP9 ADD PUSH2 0x87A JUMP JUMPDEST SWAP2 POP POP SWAP3 SWAP6 SWAP2 SWAP5 POP SWAP3 POP JUMP JUMPDEST PUSH1 0x0 PUSH32 0xFFFFFFFF00000000000000000000000000000000000000000000000000000000 DUP3 AND SWAP1 POP SWAP2 SWAP1 POP JUMP JUMPDEST PUSH2 0x960 DUP2 PUSH2 0x92B JUMP JUMPDEST DUP3 MSTORE POP POP JUMP JUMPDEST PUSH1 0x0 PUSH1 0x20 DUP3 ADD SWAP1 POP PUSH2 0x97B PUSH1 0x0 DUP4 ADD DUP5 PUSH2 0x957 JUMP JUMPDEST SWAP3 SWAP2 POP POP JUMP JUMPDEST PUSH1 0x0 PUSH1 0x20 DUP3 DUP5 SUB SLT ISZERO PUSH2 0x997 JUMPI PUSH2 0x996 PUSH2 0x6C4 JUMP JUMPDEST JUMPDEST PUSH1 0x0 PUSH2 0x9A5 DUP5 DUP3 DUP6 ADD PUSH2 0x717 JUMP JUMPDEST SWAP2 POP POP SWAP3 SWAP2 POP POP JUMP JUMPDEST PUSH1 0x0 PUSH8 0xFFFFFFFFFFFFFFFF DUP3 GT ISZERO PUSH2 0x9C9 JUMPI PUSH2 0x9C8 PUSH2 0x77D JUMP JUMPDEST JUMPDEST PUSH1 0x20 DUP3 MUL SWAP1 POP PUSH1 0x20 DUP2 ADD SWAP1 POP SWAP2 SWAP1 POP JUMP JUMPDEST PUSH1 0x0 DUP1 REVERT JUMPDEST PUSH1 0x0 PUSH2 0x9F2 PUSH2 0x9ED DUP5 PUSH2 0x9AE JUMP JUMPDEST PUSH2 0x7DD JUMP JUMPDEST SWAP1 POP DUP1 DUP4 DUP3 MSTORE PUSH1 0x20 DUP3 ADD SWAP1 POP PUSH1 0x20 DUP5 MUL DUP4 ADD DUP6 DUP2 GT ISZERO PUSH2 0xA15 JUMPI PUSH2 0xA14 PUSH2 0x9DA JUMP JUMPDEST JUMPDEST DUP4 JUMPDEST DUP2 DUP2 LT ISZERO PUSH2 0xA3E JUMPI DUP1 PUSH2 0xA2A DUP9 DUP3 PUSH2 0x74D JUMP JUMPDEST DUP5 MSTORE PUSH1 0x20 DUP5 ADD SWAP4 POP POP PUSH1 0x20 DUP2 ADD SWAP1 POP PUSH2 0xA17 JUMP JUMPDEST POP POP POP SWAP4 SWAP3 POP POP POP JUMP JUMPDEST PUSH1 0x0 DUP3 PUSH1 0x1F DUP4 ADD SLT PUSH2 0xA5D JUMPI PUSH2 0xA5C PUSH2 0x762 JUMP JUMPDEST JUMPDEST DUP2 CALLDATALOAD PUSH2 0xA6D DUP5 DUP3 PUSH1 0x20 DUP7 ADD PUSH2 0x9DF JUMP JUMPDEST SWAP2 POP POP SWAP3 SWAP2 POP POP JUMP JUMPDEST PUSH1 0x0 DUP1 PUSH1 0x40 DUP4 DUP6 SUB SLT ISZERO PUSH2 0xA8D JUMPI PUSH2 0xA8C PUSH2 0x6C4 JUMP JUMPDEST JUMPDEST PUSH1 0x0 PUSH2 0xA9B DUP6 DUP3 DUP7 ADD PUSH2 0x717 JUMP JUMPDEST SWAP3 POP POP PUSH1 0x20 DUP4 ADD CALLDATALOAD PUSH8 0xFFFFFFFFFFFFFFFF DUP2 GT ISZERO PUSH2 0xABC JUMPI PUSH2 0xABB PUSH2 0x6C9 JUMP JUMPDEST JUMPDEST PUSH2 0xAC8 DUP6 DUP3 DUP7 ADD PUSH2 0xA48 JUMP JUMPDEST SWAP2 POP POP SWAP3 POP SWAP3 SWAP1 POP JUMP JUMPDEST PUSH1 0x0 DUP1 PUSH1 0x40 DUP4 DUP6 SUB SLT ISZERO PUSH2 0xAE9 JUMPI PUSH2 0xAE8 PUSH2 0x6C4 JUMP JUMPDEST JUMPDEST PUSH1 0x0 PUSH2 0xAF7 DUP6 DUP3 DUP7 ADD PUSH2 0x717 JUMP JUMPDEST SWAP3 POP POP PUSH1 0x20 PUSH2 0xB08 DUP6 DUP3 DUP7 ADD PUSH2 0x74D JUMP JUMPDEST SWAP2 POP POP SWAP3 POP SWAP3 SWAP1 POP JUMP JUMPDEST PUSH1 0x0 DUP1 REVERT JUMPDEST PUSH1 0x0 DUP1 DUP4 PUSH1 0x1F DUP5 ADD SLT PUSH2 0xB2D JUMPI PUSH2 0xB2C PUSH2 0x762 JUMP JUMPDEST JUMPDEST DUP3 CALLDATALOAD SWAP1 POP PUSH8 0xFFFFFFFFFFFFFFFF DUP2 GT ISZERO PUSH2 0xB4A JUMPI PUSH2 0xB49 PUSH2 0xB12 JUMP JUMPDEST JUMPDEST PUSH1 0x20 DUP4 ADD SWAP2 POP DUP4 PUSH1 0x1 DUP3 MUL DUP4 ADD GT ISZERO PUSH2 0xB66 JUMPI PUSH2 0xB65 PUSH2 0x9DA JUMP JUMPDEST JUMPDEST SWAP3 POP SWAP3 SWAP1 POP JUMP JUMPDEST PUSH1 0x0 DUP1 PUSH1 0x0 PUSH1 0x40 DUP5 DUP7 SUB SLT ISZERO PUSH2 0xB86 JUMPI PUSH2 0xB85 PUSH2 0x6C4 JUMP JUMPDEST JUMPDEST PUSH1 0x0 PUSH2 0xB94 DUP7 DUP3 DUP8 ADD PUSH2 0x717 JUMP JUMPDEST SWAP4 POP POP PUSH1 0x20 DUP5 ADD CALLDATALOAD PUSH8 0xFFFFFFFFFFFFFFFF DUP2 GT ISZERO PUSH2 0xBB5 JUMPI PUSH2 0xBB4 PUSH2 0x6C9 JUMP JUMPDEST JUMPDEST PUSH2 0xBC1 DUP7 DUP3 DUP8 ADD PUSH2 0xB17 JUMP JUMPDEST SWAP3 POP SWAP3 POP POP SWAP3 POP SWAP3 POP SWAP3 JUMP JUMPDEST PUSH1 0x0 DUP2 MLOAD SWAP1 POP SWAP2 SWAP1 POP JUMP JUMPDEST PUSH1 0x0 DUP3 DUP3 MSTORE PUSH1 0x20 DUP3 ADD SWAP1 POP SWAP3 SWAP2 POP POP JUMP JUMPDEST PUSH1 0x0 DUP2 SWAP1 POP PUSH1 0x20 DUP3 ADD SWAP1 POP SWAP2 SWAP1 POP JUMP JUMPDEST PUSH2 0xC02 DUP2 PUSH2 0x72C JUMP JUMPDEST DUP3 MSTORE POP POP JUMP JUMPDEST PUSH1 0x0 PUSH2 0xC14 DUP4 DUP4 PUSH2 0xBF9 JUMP JUMPDEST PUSH1 0x20 DUP4 ADD SWAP1 POP SWAP3 SWAP2 POP POP JUMP JUMPDEST PUSH1 0x0 PUSH1 0x20 DUP3 ADD SWAP1 POP SWAP2 SWAP1 POP JUMP JUMPDEST PUSH1 0x0 PUSH2 0xC38 DUP3 PUSH2 0xBCD JUMP JUMPDEST PUSH2 0xC42 DUP2 DUP6 PUSH2 0xBD8 JUMP JUMPDEST SWAP4 POP PUSH2 0xC4D DUP4 PUSH2 0xBE9 JUMP JUMPDEST DUP1 PUSH1 0x0 JUMPDEST DUP4 DUP2 LT ISZERO PUSH2 0xC7E JUMPI DUP2 MLOAD PUSH2 0xC65 DUP9 DUP3 PUSH2 0xC08 JUMP JUMPDEST SWAP8 POP PUSH2 0xC70 DUP4 PUSH2 0xC20 JUMP JUMPDEST SWAP3 POP POP PUSH1 0x1 DUP2 ADD SWAP1 POP PUSH2 0xC51 JUMP JUMPDEST POP DUP6 SWAP4 POP POP POP POP SWAP3 SWAP2 POP POP JUMP JUMPDEST PUSH1 0x0 PUSH1 0x20 DUP3 ADD SWAP1 POP DUP2 DUP2 SUB PUSH1 0x0 DUP4 ADD MSTORE PUSH2 0xCA5 DUP2 DUP5 PUSH2 0xC2D JUMP JUMPDEST SWAP1 POP SWAP3 SWAP2 POP POP JUMP JUMPDEST PUSH2 0xCB6 DUP2 PUSH2 0x6EE JUMP JUMPDEST DUP3 MSTORE POP POP JUMP JUMPDEST PUSH1 0x0 PUSH1 0x20 DUP3 ADD SWAP1 POP PUSH2 0xCD1 PUSH1 0x0 DUP4 ADD DUP5 PUSH2 0xCAD JUMP JUMPDEST SWAP3 SWAP2 POP POP JUMP JUMPDEST PUSH32 0x4E487B7100000000000000000000000000000000000000000000000000000000 PUSH1 0x0 MSTORE PUSH1 0x32 PUSH1 0x4 MSTORE PUSH1 0x24 PUSH1 0x0 REVERT JUMPDEST PUSH2 0xD0F DUP2 PUSH2 0x72C JUMP JUMPDEST DUP3 MSTORE POP POP JUMP JUMPDEST PUSH1 0x0 PUSH1 0x60 DUP3 ADD SWAP1 POP PUSH2 0xD2A PUSH1 0x0 DUP4 ADD DUP7 PUSH2 0xCAD JUMP JUMPDEST PUSH2 0xD37 PUSH1 0x20 DUP4 ADD DUP6 PUSH2 0xCAD JUMP JUMPDEST PUSH2 0xD44 PUSH1 0x40 DUP4 ADD DUP5 PUSH2 0xD06 JUMP JUMPDEST SWAP5 SWAP4 POP POP POP POP JUMP JUMPDEST PUSH32 0x4E487B7100000000000000000000000000000000000000000000000000000000 PUSH1 0x0 MSTORE PUSH1 0x11 PUSH1 0x4 MSTORE PUSH1 0x24 PUSH1 0x0 REVERT JUMPDEST PUSH1 0x0 PUSH2 0xD86 DUP3 PUSH2 0x72C JUMP JUMPDEST SWAP2 POP PUSH32 0xFFFFFFFFFFFFFFFFFFFFFFFFFFFFFFFFFFFFFFFFFFFFFFFFFFFFFFFFFFFFFFFF DUP3 SUB PUSH2 0xDB8 JUMPI PUSH2 0xDB7 PUSH2 0xD4C JUMP JUMPDEST JUMPDEST PUSH1 0x1 DUP3 ADD SWAP1 POP SWAP2 SWAP1 POP JUMP JUMPDEST PUSH1 0x0 DUP2 SWAP1 POP SWAP3 SWAP2 POP POP JUMP JUMPDEST PUSH1 0x0 PUSH2 0xDDA DUP4 DUP6 PUSH2 0xDC3 JUMP JUMPDEST SWAP4 POP PUSH2 0xDE7 DUP4 DUP6 DUP5 PUSH2 0x829 JUMP JUMPDEST DUP3 DUP5 ADD SWAP1 POP SWAP4 SWAP3 POP POP POP JUMP JUMPDEST PUSH1 0x0 PUSH2 0xE00 DUP3 DUP5 DUP7 PUSH2 0xDCE JUMP JUMPDEST SWAP2 POP DUP2 SWAP1 POP SWAP4 SWAP3 POP POP POP JUMP INVALID LOG2 PUSH5 0x6970667358 0x22 SLT KECCAK256 SWAP4 LOG4 DUP6 XOR CALLDATASIZE LOG1 POP 0xC8 0xC0 0xAC 0xF PUSH31 0x6002CBE475E10E8A2DC65B5D04A47E887B187A464736F6C63430008110033 LOG2 PUSH5 0x6970667358 0x22 SLT KECCAK256 LOG0 DELEGATECALL MOD LOG1 0x28 PUSH25 0x5F4360A6690B6BF46FE70F536FF6583A591831921C5FBC3EA0 DUP3 PUSH5 0x736F6C6343 STOP ADDMOD GT STOP CALLER "
				},
				"gasEstimates": {
					"creation": {
						"codeDepositCost": "1811200",
						"executionCost": "infinite",
						"totalCost": "infinite"
					},
					"external": {
						"RestoreNftFromSubcontract(address,uint256[],uint256)": "infinite",
						"RestorebymultipleID(address,uint256[])": "infinite",
						"admin()": "2599",
						"deploy(uint256)": "infinite",
						"mint(address,uint256,bytes)": "infinite",
						"mintAndTransfer(address,uint256,bytes)": "infinite",
						"mintBySubContract(address,uint256,bytes)": "infinite",
						"minters(uint256)": "5023",
						"onERC721Received(address,address,uint256,bytes)": "infinite",
						"transferBySubContract(address,uint256)": "infinite"
					},
					"internal": {
						"getBytecode()": "infinite"
					}
				},
				"methodIdentifiers": {
					"RestoreNftFromSubcontract(address,uint256[],uint256)": "b1d95a5c",
					"RestorebymultipleID(address,uint256[])": "3e1a037c",
					"admin()": "f851a440",
					"deploy(uint256)": "a5e38751",
					"mint(address,uint256,bytes)": "94d008ef",
					"mintAndTransfer(address,uint256,bytes)": "c6046f77",
					"mintBySubContract(address,uint256,bytes)": "f4bbc568",
					"minters(uint256)": "8623ec7b",
					"onERC721Received(address,address,uint256,bytes)": "150b7a02",
					"transferBySubContract(address,uint256)": "4e702ab3"
				}
			},
			"storageLayout": {
				"storage": [
					{
						"astId": 346,
						"contract": "Perfect,sol.sol:Factory",
						"label": "admin",
						"offset": 0,
						"slot": "0",
						"type": "t_address"
					},
					{
						"astId": 349,
						"contract": "Perfect,sol.sol:Factory",
						"label": "minters",
						"offset": 0,
						"slot": "1",
						"type": "t_array(t_address)dyn_storage"
					},
					{
						"astId": 352,
						"contract": "Perfect,sol.sol:Factory",
						"label": "salt",
						"offset": 0,
						"slot": "2",
						"type": "t_uint256"
					},
					{
						"astId": 354,
						"contract": "Perfect,sol.sol:Factory",
						"label": "tokenId",
						"offset": 0,
						"slot": "3",
						"type": "t_uint256"
					}
				],
				"types": {
					"t_address": {
						"encoding": "inplace",
						"label": "address",
						"numberOfBytes": "20"
					},
					"t_array(t_address)dyn_storage": {
						"base": "t_address",
						"encoding": "dynamic_array",
						"label": "address[]",
						"numberOfBytes": "32"
					},
					"t_uint256": {
						"encoding": "inplace",
						"label": "uint256",
						"numberOfBytes": "32"
					}
				}
			},
			"userdoc": {
				"kind": "user",
				"methods": {},
				"version": 1
			}
		}
	}
}