{
	"Perfect,sol.sol": {
		"NftMinter": {
			"abi": [
				{
					"inputs": [
						{
							"internalType": "address",
							"name": "_admin",
							"type": "address"
						}
					],
					"stateMutability": "nonpayable",
					"type": "constructor"
				},
				{
					"inputs": [
						{
							"internalType": "address",
							"name": "nft",
							"type": "address"
						},
						{
							"internalType": "uint256[]",
							"name": "tokenid",
							"type": "uint256[]"
						}
					],
					"name": "RestorebymultipleID",
					"outputs": [],
					"stateMutability": "nonpayable",
					"type": "function"
				},
				{
					"inputs": [
						{
							"internalType": "address",
							"name": "nft",
							"type": "address"
						},
						{
							"internalType": "uint256",
							"name": "tokenid",
							"type": "uint256"
						}
					],
					"name": "Restorebysingleid",
					"outputs": [],
					"stateMutability": "nonpayable",
					"type": "function"
				},
				{
					"inputs": [],
					"name": "admin",
					"outputs": [
						{
							"internalType": "address",
							"name": "",
							"type": "address"
						}
					],
					"stateMutability": "view",
					"type": "function"
				},
				{
					"inputs": [
						{
							"internalType": "address",
							"name": "nft",
							"type": "address"
						},
						{
							"internalType": "bytes",
							"name": "param",
							"type": "bytes"
						}
					],
					"name": "mint",
					"outputs": [],
					"stateMutability": "payable",
					"type": "function"
				},
				{
					"inputs": [
						{
							"internalType": "address",
							"name": "",
							"type": "address"
						},
						{
							"internalType": "address",
							"name": "",
							"type": "address"
						},
						{
							"internalType": "uint256",
							"name": "_tokenId",
							"type": "uint256"
						},
						{
							"internalType": "bytes",
							"name": "",
							"type": "bytes"
						}
					],
					"name": "onERC721Received",
					"outputs": [
						{
							"internalType": "bytes4",
							"name": "",
							"type": "bytes4"
						}
					],
					"stateMutability": "nonpayable",
					"type": "function"
				},
				{
					"inputs": [
						{
							"internalType": "address",
							"name": "nft",
							"type": "address"
						}
					],
					"name": "tokenIdsByNFT",
					"outputs": [
						{
							"internalType": "uint256[]",
							"name": "",
							"type": "uint256[]"
						}
					],
					"stateMutability": "view",
					"type": "function"
				},
				{
					"inputs": [
						{
							"internalType": "address",
							"name": "nft",
							"type": "address"
						}
					],
					"name": "transfer",
					"outputs": [],
					"stateMutability": "nonpayable",
					"type": "function"
				}
			],
			"devdoc": {
				"kind": "dev",
				"methods": {},
				"version": 1
			},
			"evm": {
				"assembly": "    /* \"Perfect,sol.sol\":186:1785  contract NftMinter is IERC721Receiver{... */\n  mstore(0x40, 0x80)\n    /* \"Perfect,sol.sol\":319:378  constructor(address _admin) {... */\n  callvalue\n  dup1\n  iszero\n  tag_1\n  jumpi\n  0x00\n  dup1\n  revert\ntag_1:\n  pop\n  mload(0x40)\n  sub(codesize, bytecodeSize)\n  dup1\n  bytecodeSize\n  dup4\n  codecopy\n  dup2\n  dup2\n  add\n  0x40\n  mstore\n  dup2\n  add\n  swap1\n  tag_2\n  swap2\n  swap1\n  tag_3\n  jump\t// in\ntag_2:\n    /* \"Perfect,sol.sol\":365:371  _admin */\n  dup1\n    /* \"Perfect,sol.sol\":357:362  admin */\n  0x00\n  dup1\n    /* \"Perfect,sol.sol\":357:371  admin = _admin */\n  0x0100\n  exp\n  dup2\n  sload\n  dup2\n  0xffffffffffffffffffffffffffffffffffffffff\n  mul\n  not\n  and\n  swap1\n  dup4\n  0xffffffffffffffffffffffffffffffffffffffff\n  and\n  mul\n  or\n  swap1\n  sstore\n  pop\n    /* \"Perfect,sol.sol\":319:378  constructor(address _admin) {... */\n  pop\n    /* \"Perfect,sol.sol\":186:1785  contract NftMinter is IERC721Receiver{... */\n  jump(tag_6)\n    /* \"#utility.yul\":88:205   */\ntag_8:\n    /* \"#utility.yul\":197:198   */\n  0x00\n    /* \"#utility.yul\":194:195   */\n  dup1\n    /* \"#utility.yul\":187:199   */\n  revert\n    /* \"#utility.yul\":334:460   */\ntag_10:\n    /* \"#utility.yul\":371:378   */\n  0x00\n    /* \"#utility.yul\":411:453   */\n  0xffffffffffffffffffffffffffffffffffffffff\n    /* \"#utility.yul\":404:409   */\n  dup3\n    /* \"#utility.yul\":400:454   */\n  and\n    /* \"#utility.yul\":389:454   */\n  swap1\n  pop\n    /* \"#utility.yul\":334:460   */\n  swap2\n  swap1\n  pop\n  jump\t// out\n    /* \"#utility.yul\":466:562   */\ntag_11:\n    /* \"#utility.yul\":503:510   */\n  0x00\n    /* \"#utility.yul\":532:556   */\n  tag_20\n    /* \"#utility.yul\":550:555   */\n  dup3\n    /* \"#utility.yul\":532:556   */\n  tag_10\n  jump\t// in\ntag_20:\n    /* \"#utility.yul\":521:556   */\n  swap1\n  pop\n    /* \"#utility.yul\":466:562   */\n  swap2\n  swap1\n  pop\n  jump\t// out\n    /* \"#utility.yul\":568:690   */\ntag_12:\n    /* \"#utility.yul\":641:665   */\n  tag_22\n    /* \"#utility.yul\":659:664   */\n  dup2\n    /* \"#utility.yul\":641:665   */\n  tag_11\n  jump\t// in\ntag_22:\n    /* \"#utility.yul\":634:639   */\n  dup2\n    /* \"#utility.yul\":631:666   */\n  eq\n    /* \"#utility.yul\":621:684   */\n  tag_23\n  jumpi\n    /* \"#utility.yul\":680:681   */\n  0x00\n    /* \"#utility.yul\":677:678   */\n  dup1\n    /* \"#utility.yul\":670:682   */\n  revert\n    /* \"#utility.yul\":621:684   */\ntag_23:\n    /* \"#utility.yul\":568:690   */\n  pop\n  jump\t// out\n    /* \"#utility.yul\":696:839   */\ntag_13:\n    /* \"#utility.yul\":753:758   */\n  0x00\n    /* \"#utility.yul\":784:790   */\n  dup2\n    /* \"#utility.yul\":778:791   */\n  mload\n    /* \"#utility.yul\":769:791   */\n  swap1\n  pop\n    /* \"#utility.yul\":800:833   */\n  tag_25\n    /* \"#utility.yul\":827:832   */\n  dup2\n    /* \"#utility.yul\":800:833   */\n  tag_12\n  jump\t// in\ntag_25:\n    /* \"#utility.yul\":696:839   */\n  swap3\n  swap2\n  pop\n  pop\n  jump\t// out\n    /* \"#utility.yul\":845:1196   */\ntag_3:\n    /* \"#utility.yul\":915:921   */\n  0x00\n    /* \"#utility.yul\":964:966   */\n  0x20\n    /* \"#utility.yul\":952:961   */\n  dup3\n    /* \"#utility.yul\":943:950   */\n  dup5\n    /* \"#utility.yul\":939:962   */\n  sub\n    /* \"#utility.yul\":935:967   */\n  slt\n    /* \"#utility.yul\":932:1051   */\n  iszero\n  tag_27\n  jumpi\n    /* \"#utility.yul\":970:1049   */\n  tag_28\n  tag_8\n  jump\t// in\ntag_28:\n    /* \"#utility.yul\":932:1051   */\ntag_27:\n    /* \"#utility.yul\":1090:1091   */\n  0x00\n    /* \"#utility.yul\":1115:1179   */\n  tag_29\n    /* \"#utility.yul\":1171:1178   */\n  dup5\n    /* \"#utility.yul\":1162:1168   */\n  dup3\n    /* \"#utility.yul\":1151:1160   */\n  dup6\n    /* \"#utility.yul\":1147:1169   */\n  add\n    /* \"#utility.yul\":1115:1179   */\n  tag_13\n  jump\t// in\ntag_29:\n    /* \"#utility.yul\":1105:1179   */\n  swap2\n  pop\n    /* \"#utility.yul\":1061:1189   */\n  pop\n    /* \"#utility.yul\":845:1196   */\n  swap3\n  swap2\n  pop\n  pop\n  jump\t// out\n    /* \"Perfect,sol.sol\":186:1785  contract NftMinter is IERC721Receiver{... */\ntag_6:\n  dataSize(sub_0)\n  dup1\n  dataOffset(sub_0)\n  0x00\n  codecopy\n  0x00\n  return\nstop\n\nsub_0: assembly {\n        /* \"Perfect,sol.sol\":186:1785  contract NftMinter is IERC721Receiver{... */\n      mstore(0x40, 0x80)\n      jumpi(tag_1, lt(calldatasize, 0x04))\n      shr(0xe0, calldataload(0x00))\n      dup1\n      0x86aaa506\n      gt\n      tag_9\n      jumpi\n      dup1\n      0x86aaa506\n      eq\n      tag_5\n      jumpi\n      dup1\n      0xb510391f\n      eq\n      tag_6\n      jumpi\n      dup1\n      0xc57a1166\n      eq\n      tag_7\n      jumpi\n      dup1\n      0xf851a440\n      eq\n      tag_8\n      jumpi\n      jump(tag_1)\n    tag_9:\n      dup1\n      0x150b7a02\n      eq\n      tag_2\n      jumpi\n      dup1\n      0x1a695230\n      eq\n      tag_3\n      jumpi\n      dup1\n      0x3e1a037c\n      eq\n      tag_4\n      jumpi\n    tag_1:\n      0x00\n      dup1\n      revert\n        /* \"Perfect,sol.sol\":1386:1650  function onERC721Received(... */\n    tag_2:\n      callvalue\n      dup1\n      iszero\n      tag_10\n      jumpi\n      0x00\n      dup1\n      revert\n    tag_10:\n      pop\n      tag_11\n      0x04\n      dup1\n      calldatasize\n      sub\n      dup2\n      add\n      swap1\n      tag_12\n      swap2\n      swap1\n      tag_13\n      jump\t// in\n    tag_12:\n      tag_14\n      jump\t// in\n    tag_11:\n      mload(0x40)\n      tag_15\n      swap2\n      swap1\n      tag_16\n      jump\t// in\n    tag_15:\n      mload(0x40)\n      dup1\n      swap2\n      sub\n      swap1\n      return\n        /* \"Perfect,sol.sol\":645:973  function transfer(address nft) external {... */\n    tag_3:\n      callvalue\n      dup1\n      iszero\n      tag_17\n      jumpi\n      0x00\n      dup1\n      revert\n    tag_17:\n      pop\n      tag_18\n      0x04\n      dup1\n      calldatasize\n      sub\n      dup2\n      add\n      swap1\n      tag_19\n      swap2\n      swap1\n      tag_20\n      jump\t// in\n    tag_19:\n      tag_21\n      jump\t// in\n    tag_18:\n      stop\n        /* \"Perfect,sol.sol\":978:1235  function RestorebymultipleID(address nft,uint256[] memory tokenid) external {... */\n    tag_4:\n      callvalue\n      dup1\n      iszero\n      tag_22\n      jumpi\n      0x00\n      dup1\n      revert\n    tag_22:\n      pop\n      tag_23\n      0x04\n      dup1\n      calldatasize\n      sub\n      dup2\n      add\n      swap1\n      tag_24\n      swap2\n      swap1\n      tag_25\n      jump\t// in\n    tag_24:\n      tag_26\n      jump\t// in\n    tag_23:\n      stop\n        /* \"Perfect,sol.sol\":1239:1379  function Restorebysingleid(address nft,uint256 tokenid) external {... */\n    tag_5:\n      callvalue\n      dup1\n      iszero\n      tag_27\n      jumpi\n      0x00\n      dup1\n      revert\n    tag_27:\n      pop\n      tag_28\n      0x04\n      dup1\n      calldatasize\n      sub\n      dup2\n      add\n      swap1\n      tag_29\n      swap2\n      swap1\n      tag_30\n      jump\t// in\n    tag_29:\n      tag_31\n      jump\t// in\n    tag_28:\n      stop\n        /* \"Perfect,sol.sol\":384:639  function mint(... */\n    tag_6:\n      tag_32\n      0x04\n      dup1\n      calldatasize\n      sub\n      dup2\n      add\n      swap1\n      tag_33\n      swap2\n      swap1\n      tag_34\n      jump\t// in\n    tag_33:\n      tag_35\n      jump\t// in\n    tag_32:\n      stop\n        /* \"Perfect,sol.sol\":1656:1778  function tokenIdsByNFT(address nft) external view returns(uint256[] memory){... */\n    tag_7:\n      callvalue\n      dup1\n      iszero\n      tag_36\n      jumpi\n      0x00\n      dup1\n      revert\n    tag_36:\n      pop\n      tag_37\n      0x04\n      dup1\n      calldatasize\n      sub\n      dup2\n      add\n      swap1\n      tag_38\n      swap2\n      swap1\n      tag_20\n      jump\t// in\n    tag_38:\n      tag_39\n      jump\t// in\n    tag_37:\n      mload(0x40)\n      tag_40\n      swap2\n      swap1\n      tag_41\n      jump\t// in\n    tag_40:\n      mload(0x40)\n      dup1\n      swap2\n      sub\n      swap1\n      return\n        /* \"Perfect,sol.sol\":230:250  address public admin */\n    tag_8:\n      callvalue\n      dup1\n      iszero\n      tag_42\n      jumpi\n      0x00\n      dup1\n      revert\n    tag_42:\n      pop\n      tag_43\n      tag_44\n      jump\t// in\n    tag_43:\n      mload(0x40)\n      tag_45\n      swap2\n      swap1\n      tag_46\n      jump\t// in\n    tag_45:\n      mload(0x40)\n      dup1\n      swap2\n      sub\n      swap1\n      return\n        /* \"Perfect,sol.sol\":1386:1650  function onERC721Received(... */\n    tag_14:\n        /* \"Perfect,sol.sol\":1533:1539  bytes4 */\n      0x00\n        /* \"Perfect,sol.sol\":1551:1569  tokenIdsByContract */\n      0x01\n        /* \"Perfect,sol.sol\":1551:1581  tokenIdsByContract[msg.sender] */\n      0x00\n        /* \"Perfect,sol.sol\":1570:1580  msg.sender */\n      caller\n        /* \"Perfect,sol.sol\":1551:1581  tokenIdsByContract[msg.sender] */\n      0xffffffffffffffffffffffffffffffffffffffff\n      and\n      0xffffffffffffffffffffffffffffffffffffffff\n      and\n      dup2\n      mstore\n      0x20\n      add\n      swap1\n      dup2\n      mstore\n      0x20\n      add\n      0x00\n      keccak256\n        /* \"Perfect,sol.sol\":1587:1595  _tokenId */\n      dup4\n        /* \"Perfect,sol.sol\":1551:1596  tokenIdsByContract[msg.sender].push(_tokenId) */\n      swap1\n      dup1\n      0x01\n      dup2\n      sload\n      add\n      dup1\n      dup3\n      sstore\n      dup1\n      swap2\n      pop\n      pop\n      0x01\n      swap1\n      sub\n      swap1\n      0x00\n      mstore\n      keccak256(0x00, 0x20)\n      add\n      0x00\n      swap1\n      swap2\n      swap1\n      swap2\n      swap1\n      swap2\n      pop\n      sstore\n        /* \"Perfect,sol.sol\":1613:1643  this.onERC721Received.selector */\n      shl(0xe0, 0x150b7a02)\n        /* \"Perfect,sol.sol\":1606:1643  return this.onERC721Received.selector */\n      swap1\n      pop\n        /* \"Perfect,sol.sol\":1386:1650  function onERC721Received(... */\n      swap5\n      swap4\n      pop\n      pop\n      pop\n      pop\n      jump\t// out\n        /* \"Perfect,sol.sol\":645:973  function transfer(address nft) external {... */\n    tag_21:\n        /* \"Perfect,sol.sol\":695:721  uint256[] memory _tokenIds */\n      0x00\n        /* \"Perfect,sol.sol\":724:742  tokenIdsByContract */\n      0x01\n        /* \"Perfect,sol.sol\":724:747  tokenIdsByContract[nft] */\n      0x00\n        /* \"Perfect,sol.sol\":743:746  nft */\n      dup4\n        /* \"Perfect,sol.sol\":724:747  tokenIdsByContract[nft] */\n      0xffffffffffffffffffffffffffffffffffffffff\n      and\n      0xffffffffffffffffffffffffffffffffffffffff\n      and\n      dup2\n      mstore\n      0x20\n      add\n      swap1\n      dup2\n      mstore\n      0x20\n      add\n      0x00\n      keccak256\n        /* \"Perfect,sol.sol\":695:747  uint256[] memory _tokenIds = tokenIdsByContract[nft] */\n      dup1\n      sload\n      dup1\n      0x20\n      mul\n      0x20\n      add\n      mload(0x40)\n      swap1\n      dup2\n      add\n      0x40\n      mstore\n      dup1\n      swap3\n      swap2\n      swap1\n      dup2\n      dup2\n      mstore\n      0x20\n      add\n      dup3\n      dup1\n      sload\n      dup1\n      iszero\n      tag_50\n      jumpi\n      0x20\n      mul\n      dup3\n      add\n      swap2\n      swap1\n      0x00\n      mstore\n      keccak256(0x00, 0x20)\n      swap1\n    tag_51:\n      dup2\n      sload\n      dup2\n      mstore\n      0x20\n      add\n      swap1\n      0x01\n      add\n      swap1\n      dup1\n      dup4\n      gt\n      tag_51\n      jumpi\n    tag_50:\n      pop\n      pop\n      pop\n      pop\n      pop\n      swap1\n      pop\n        /* \"Perfect,sol.sol\":757:772  uint256 _length */\n      0x00\n        /* \"Perfect,sol.sol\":775:784  _tokenIds */\n      dup2\n        /* \"Perfect,sol.sol\":775:791  _tokenIds.length */\n      mload\n        /* \"Perfect,sol.sol\":757:791  uint256 _length = _tokenIds.length */\n      swap1\n      pop\n        /* \"Perfect,sol.sol\":807:816  uint256 i */\n      0x00\n        /* \"Perfect,sol.sol\":802:927  for (uint256 i = 0; i < _length; i++ ) {... */\n    tag_52:\n        /* \"Perfect,sol.sol\":826:833  _length */\n      dup2\n        /* \"Perfect,sol.sol\":822:823  i */\n      dup2\n        /* \"Perfect,sol.sol\":822:833  i < _length */\n      lt\n        /* \"Perfect,sol.sol\":802:927  for (uint256 i = 0; i < _length; i++ ) {... */\n      iszero\n      tag_53\n      jumpi\n        /* \"Perfect,sol.sol\":863:866  nft */\n      dup4\n        /* \"Perfect,sol.sol\":855:880  IERC721(nft).transferFrom */\n      0xffffffffffffffffffffffffffffffffffffffff\n      and\n      0x23b872dd\n        /* \"Perfect,sol.sol\":889:893  this */\n      address\n        /* \"Perfect,sol.sol\":896:901  admin */\n      0x00\n      dup1\n      sload\n      swap1\n      0x0100\n      exp\n      swap1\n      div\n      0xffffffffffffffffffffffffffffffffffffffff\n      and\n        /* \"Perfect,sol.sol\":903:912  _tokenIds */\n      dup7\n        /* \"Perfect,sol.sol\":913:914  i */\n      dup6\n        /* \"Perfect,sol.sol\":903:915  _tokenIds[i] */\n      dup2\n      mload\n      dup2\n      lt\n      tag_55\n      jumpi\n      tag_56\n      tag_57\n      jump\t// in\n    tag_56:\n    tag_55:\n      0x20\n      mul\n      0x20\n      add\n      add\n      mload\n        /* \"Perfect,sol.sol\":855:916  IERC721(nft).transferFrom(address(this), admin, _tokenIds[i]) */\n      mload(0x40)\n      dup5\n      0xffffffff\n      and\n      0xe0\n      shl\n      dup2\n      mstore\n      0x04\n      add\n      tag_58\n      swap4\n      swap3\n      swap2\n      swap1\n      tag_59\n      jump\t// in\n    tag_58:\n      0x00\n      mload(0x40)\n      dup1\n      dup4\n      sub\n      dup2\n      0x00\n      dup8\n      dup1\n      extcodesize\n      iszero\n      dup1\n      iszero\n      tag_60\n      jumpi\n      0x00\n      dup1\n      revert\n    tag_60:\n      pop\n      gas\n      call\n      iszero\n      dup1\n      iszero\n      tag_62\n      jumpi\n      returndatasize\n      0x00\n      dup1\n      returndatacopy\n      revert(0x00, returndatasize)\n    tag_62:\n      pop\n      pop\n      pop\n      pop\n        /* \"Perfect,sol.sol\":835:838  i++ */\n      dup1\n      dup1\n      tag_63\n      swap1\n      tag_64\n      jump\t// in\n    tag_63:\n      swap2\n      pop\n      pop\n        /* \"Perfect,sol.sol\":802:927  for (uint256 i = 0; i < _length; i++ ) {... */\n      jump(tag_52)\n    tag_53:\n      pop\n        /* \"Perfect,sol.sol\":943:961  tokenIdsByContract */\n      0x01\n        /* \"Perfect,sol.sol\":943:966  tokenIdsByContract[nft] */\n      0x00\n        /* \"Perfect,sol.sol\":962:965  nft */\n      dup5\n        /* \"Perfect,sol.sol\":943:966  tokenIdsByContract[nft] */\n      0xffffffffffffffffffffffffffffffffffffffff\n      and\n      0xffffffffffffffffffffffffffffffffffffffff\n      and\n      dup2\n      mstore\n      0x20\n      add\n      swap1\n      dup2\n      mstore\n      0x20\n      add\n      0x00\n      keccak256\n      0x00\n        /* \"Perfect,sol.sol\":936:966  delete tokenIdsByContract[nft] */\n      tag_65\n      swap2\n      swap1\n      tag_66\n      jump\t// in\n    tag_65:\n        /* \"Perfect,sol.sol\":685:973  {... */\n      pop\n      pop\n        /* \"Perfect,sol.sol\":645:973  function transfer(address nft) external {... */\n      pop\n      jump\t// out\n        /* \"Perfect,sol.sol\":978:1235  function RestorebymultipleID(address nft,uint256[] memory tokenid) external {... */\n    tag_26:\n        /* \"Perfect,sol.sol\":1064:1079  uint256 _length */\n      0x00\n        /* \"Perfect,sol.sol\":1082:1089  tokenid */\n      dup2\n        /* \"Perfect,sol.sol\":1082:1096  tokenid.length */\n      mload\n        /* \"Perfect,sol.sol\":1064:1096  uint256 _length = tokenid.length */\n      swap1\n      pop\n        /* \"Perfect,sol.sol\":1112:1121  uint256 i */\n      0x00\n        /* \"Perfect,sol.sol\":1107:1230  for (uint256 i = 0; i < _length; i++ ) {... */\n    tag_68:\n        /* \"Perfect,sol.sol\":1131:1138  _length */\n      dup2\n        /* \"Perfect,sol.sol\":1127:1128  i */\n      dup2\n        /* \"Perfect,sol.sol\":1127:1138  i < _length */\n      lt\n        /* \"Perfect,sol.sol\":1107:1230  for (uint256 i = 0; i < _length; i++ ) {... */\n      iszero\n      tag_69\n      jumpi\n        /* \"Perfect,sol.sol\":1168:1171  nft */\n      dup4\n        /* \"Perfect,sol.sol\":1160:1185  IERC721(nft).transferFrom */\n      0xffffffffffffffffffffffffffffffffffffffff\n      and\n      0x23b872dd\n        /* \"Perfect,sol.sol\":1194:1198  this */\n      address\n        /* \"Perfect,sol.sol\":1201:1206  admin */\n      0x00\n      dup1\n      sload\n      swap1\n      0x0100\n      exp\n      swap1\n      div\n      0xffffffffffffffffffffffffffffffffffffffff\n      and\n        /* \"Perfect,sol.sol\":1208:1215  tokenid */\n      dup7\n        /* \"Perfect,sol.sol\":1216:1217  i */\n      dup6\n        /* \"Perfect,sol.sol\":1208:1218  tokenid[i] */\n      dup2\n      mload\n      dup2\n      lt\n      tag_71\n      jumpi\n      tag_72\n      tag_57\n      jump\t// in\n    tag_72:\n    tag_71:\n      0x20\n      mul\n      0x20\n      add\n      add\n      mload\n        /* \"Perfect,sol.sol\":1160:1219  IERC721(nft).transferFrom(address(this), admin, tokenid[i]) */\n      mload(0x40)\n      dup5\n      0xffffffff\n      and\n      0xe0\n      shl\n      dup2\n      mstore\n      0x04\n      add\n      tag_73\n      swap4\n      swap3\n      swap2\n      swap1\n      tag_59\n      jump\t// in\n    tag_73:\n      0x00\n      mload(0x40)\n      dup1\n      dup4\n      sub\n      dup2\n      0x00\n      dup8\n      dup1\n      extcodesize\n      iszero\n      dup1\n      iszero\n      tag_74\n      jumpi\n      0x00\n      dup1\n      revert\n    tag_74:\n      pop\n      gas\n      call\n      iszero\n      dup1\n      iszero\n      tag_76\n      jumpi\n      returndatasize\n      0x00\n      dup1\n      returndatacopy\n      revert(0x00, returndatasize)\n    tag_76:\n      pop\n      pop\n      pop\n      pop\n        /* \"Perfect,sol.sol\":1140:1143  i++ */\n      dup1\n      dup1\n      tag_77\n      swap1\n      tag_64\n      jump\t// in\n    tag_77:\n      swap2\n      pop\n      pop\n        /* \"Perfect,sol.sol\":1107:1230  for (uint256 i = 0; i < _length; i++ ) {... */\n      jump(tag_68)\n    tag_69:\n      pop\n        /* \"Perfect,sol.sol\":1054:1235  {... */\n      pop\n        /* \"Perfect,sol.sol\":978:1235  function RestorebymultipleID(address nft,uint256[] memory tokenid) external {... */\n      pop\n      pop\n      jump\t// out\n        /* \"Perfect,sol.sol\":1239:1379  function Restorebysingleid(address nft,uint256 tokenid) external {... */\n    tag_31:\n        /* \"Perfect,sol.sol\":1326:1329  nft */\n      dup2\n        /* \"Perfect,sol.sol\":1318:1343  IERC721(nft).transferFrom */\n      0xffffffffffffffffffffffffffffffffffffffff\n      and\n      0x23b872dd\n        /* \"Perfect,sol.sol\":1352:1356  this */\n      address\n        /* \"Perfect,sol.sol\":1359:1364  admin */\n      0x00\n      dup1\n      sload\n      swap1\n      0x0100\n      exp\n      swap1\n      div\n      0xffffffffffffffffffffffffffffffffffffffff\n      and\n        /* \"Perfect,sol.sol\":1366:1373  tokenid */\n      dup5\n        /* \"Perfect,sol.sol\":1318:1374  IERC721(nft).transferFrom(address(this), admin, tokenid) */\n      mload(0x40)\n      dup5\n      0xffffffff\n      and\n      0xe0\n      shl\n      dup2\n      mstore\n      0x04\n      add\n      tag_79\n      swap4\n      swap3\n      swap2\n      swap1\n      tag_59\n      jump\t// in\n    tag_79:\n      0x00\n      mload(0x40)\n      dup1\n      dup4\n      sub\n      dup2\n      0x00\n      dup8\n      dup1\n      extcodesize\n      iszero\n      dup1\n      iszero\n      tag_80\n      jumpi\n      0x00\n      dup1\n      revert\n    tag_80:\n      pop\n      gas\n      call\n      iszero\n      dup1\n      iszero\n      tag_82\n      jumpi\n      returndatasize\n      0x00\n      dup1\n      returndatacopy\n      revert(0x00, returndatasize)\n    tag_82:\n      pop\n      pop\n      pop\n      pop\n        /* \"Perfect,sol.sol\":1239:1379  function Restorebysingleid(address nft,uint256 tokenid) external {... */\n      pop\n      pop\n      jump\t// out\n        /* \"Perfect,sol.sol\":384:639  function mint(... */\n    tag_35:\n        /* \"Perfect,sol.sol\":487:499  bool success */\n      0x00\n        /* \"Perfect,sol.sol\":505:508  nft */\n      dup4\n        /* \"Perfect,sol.sol\":505:513  nft.call */\n      0xffffffffffffffffffffffffffffffffffffffff\n      and\n        /* \"Perfect,sol.sol\":521:530  msg.value */\n      callvalue\n        /* \"Perfect,sol.sol\":532:537  param */\n      dup5\n      dup5\n        /* \"Perfect,sol.sol\":505:538  nft.call{value: msg.value}(param) */\n      mload(0x40)\n      tag_84\n      swap3\n      swap2\n      swap1\n      tag_85\n      jump\t// in\n    tag_84:\n      0x00\n      mload(0x40)\n      dup1\n      dup4\n      sub\n      dup2\n      dup6\n      dup8\n      gas\n      call\n      swap3\n      pop\n      pop\n      pop\n      returndatasize\n      dup1\n      0x00\n      dup2\n      eq\n      tag_88\n      jumpi\n      mload(0x40)\n      swap2\n      pop\n      and(add(returndatasize, 0x3f), not(0x1f))\n      dup3\n      add\n      0x40\n      mstore\n      returndatasize\n      dup3\n      mstore\n      returndatasize\n      0x00\n      0x20\n      dup5\n      add\n      returndatacopy\n      jump(tag_87)\n    tag_88:\n      0x60\n      swap2\n      pop\n    tag_87:\n      pop\n        /* \"Perfect,sol.sol\":486:538  (bool success, ) = nft.call{value: msg.value}(param) */\n      pop\n      swap1\n      pop\n        /* \"Perfect,sol.sol\":556:563  success */\n      dup1\n        /* \"Perfect,sol.sol\":548:564  require(success) */\n      tag_89\n      jumpi\n      0x00\n      dup1\n      revert\n    tag_89:\n        /* \"Perfect,sol.sol\":476:639  {... */\n      pop\n        /* \"Perfect,sol.sol\":384:639  function mint(... */\n      pop\n      pop\n      pop\n      jump\t// out\n        /* \"Perfect,sol.sol\":1656:1778  function tokenIdsByNFT(address nft) external view returns(uint256[] memory){... */\n    tag_39:\n        /* \"Perfect,sol.sol\":1714:1730  uint256[] memory */\n      0x60\n        /* \"Perfect,sol.sol\":1748:1766  tokenIdsByContract */\n      0x01\n        /* \"Perfect,sol.sol\":1748:1771  tokenIdsByContract[nft] */\n      0x00\n        /* \"Perfect,sol.sol\":1767:1770  nft */\n      dup4\n        /* \"Perfect,sol.sol\":1748:1771  tokenIdsByContract[nft] */\n      0xffffffffffffffffffffffffffffffffffffffff\n      and\n      0xffffffffffffffffffffffffffffffffffffffff\n      and\n      dup2\n      mstore\n      0x20\n      add\n      swap1\n      dup2\n      mstore\n      0x20\n      add\n      0x00\n      keccak256\n        /* \"Perfect,sol.sol\":1741:1771  return tokenIdsByContract[nft] */\n      dup1\n      sload\n      dup1\n      0x20\n      mul\n      0x20\n      add\n      mload(0x40)\n      swap1\n      dup2\n      add\n      0x40\n      mstore\n      dup1\n      swap3\n      swap2\n      swap1\n      dup2\n      dup2\n      mstore\n      0x20\n      add\n      dup3\n      dup1\n      sload\n      dup1\n      iszero\n      tag_91\n      jumpi\n      0x20\n      mul\n      dup3\n      add\n      swap2\n      swap1\n      0x00\n      mstore\n      keccak256(0x00, 0x20)\n      swap1\n    tag_92:\n      dup2\n      sload\n      dup2\n      mstore\n      0x20\n      add\n      swap1\n      0x01\n      add\n      swap1\n      dup1\n      dup4\n      gt\n      tag_92\n      jumpi\n    tag_91:\n      pop\n      pop\n      pop\n      pop\n      pop\n      swap1\n      pop\n        /* \"Perfect,sol.sol\":1656:1778  function tokenIdsByNFT(address nft) external view returns(uint256[] memory){... */\n      swap2\n      swap1\n      pop\n      jump\t// out\n        /* \"Perfect,sol.sol\":230:250  address public admin */\n    tag_44:\n      0x00\n      dup1\n      sload\n      swap1\n      0x0100\n      exp\n      swap1\n      div\n      0xffffffffffffffffffffffffffffffffffffffff\n      and\n      dup2\n      jump\t// out\n    tag_66:\n      pop\n      dup1\n      sload\n      0x00\n      dup3\n      sstore\n      swap1\n      0x00\n      mstore\n      keccak256(0x00, 0x20)\n      swap1\n      dup2\n      add\n      swap1\n      tag_94\n      swap2\n      swap1\n      tag_95\n      jump\t// in\n    tag_94:\n      pop\n      jump\t// out\n    tag_95:\n    tag_96:\n      dup1\n      dup3\n      gt\n      iszero\n      tag_97\n      jumpi\n      0x00\n      dup2\n      0x00\n      swap1\n      sstore\n      pop\n      0x01\n      add\n      jump(tag_96)\n    tag_97:\n      pop\n      swap1\n      jump\t// out\n        /* \"#utility.yul\":7:82   */\n    tag_98:\n        /* \"#utility.yul\":40:46   */\n      0x00\n        /* \"#utility.yul\":73:75   */\n      0x40\n        /* \"#utility.yul\":67:76   */\n      mload\n        /* \"#utility.yul\":57:76   */\n      swap1\n      pop\n        /* \"#utility.yul\":7:82   */\n      swap1\n      jump\t// out\n        /* \"#utility.yul\":88:205   */\n    tag_99:\n        /* \"#utility.yul\":197:198   */\n      0x00\n        /* \"#utility.yul\":194:195   */\n      dup1\n        /* \"#utility.yul\":187:199   */\n      revert\n        /* \"#utility.yul\":211:328   */\n    tag_100:\n        /* \"#utility.yul\":320:321   */\n      0x00\n        /* \"#utility.yul\":317:318   */\n      dup1\n        /* \"#utility.yul\":310:322   */\n      revert\n        /* \"#utility.yul\":334:460   */\n    tag_101:\n        /* \"#utility.yul\":371:378   */\n      0x00\n        /* \"#utility.yul\":411:453   */\n      0xffffffffffffffffffffffffffffffffffffffff\n        /* \"#utility.yul\":404:409   */\n      dup3\n        /* \"#utility.yul\":400:454   */\n      and\n        /* \"#utility.yul\":389:454   */\n      swap1\n      pop\n        /* \"#utility.yul\":334:460   */\n      swap2\n      swap1\n      pop\n      jump\t// out\n        /* \"#utility.yul\":466:562   */\n    tag_102:\n        /* \"#utility.yul\":503:510   */\n      0x00\n        /* \"#utility.yul\":532:556   */\n      tag_144\n        /* \"#utility.yul\":550:555   */\n      dup3\n        /* \"#utility.yul\":532:556   */\n      tag_101\n      jump\t// in\n    tag_144:\n        /* \"#utility.yul\":521:556   */\n      swap1\n      pop\n        /* \"#utility.yul\":466:562   */\n      swap2\n      swap1\n      pop\n      jump\t// out\n        /* \"#utility.yul\":568:690   */\n    tag_103:\n        /* \"#utility.yul\":641:665   */\n      tag_146\n        /* \"#utility.yul\":659:664   */\n      dup2\n        /* \"#utility.yul\":641:665   */\n      tag_102\n      jump\t// in\n    tag_146:\n        /* \"#utility.yul\":634:639   */\n      dup2\n        /* \"#utility.yul\":631:666   */\n      eq\n        /* \"#utility.yul\":621:684   */\n      tag_147\n      jumpi\n        /* \"#utility.yul\":680:681   */\n      0x00\n        /* \"#utility.yul\":677:678   */\n      dup1\n        /* \"#utility.yul\":670:682   */\n      revert\n        /* \"#utility.yul\":621:684   */\n    tag_147:\n        /* \"#utility.yul\":568:690   */\n      pop\n      jump\t// out\n        /* \"#utility.yul\":696:835   */\n    tag_104:\n        /* \"#utility.yul\":742:747   */\n      0x00\n        /* \"#utility.yul\":780:786   */\n      dup2\n        /* \"#utility.yul\":767:787   */\n      calldataload\n        /* \"#utility.yul\":758:787   */\n      swap1\n      pop\n        /* \"#utility.yul\":796:829   */\n      tag_149\n        /* \"#utility.yul\":823:828   */\n      dup2\n        /* \"#utility.yul\":796:829   */\n      tag_103\n      jump\t// in\n    tag_149:\n        /* \"#utility.yul\":696:835   */\n      swap3\n      swap2\n      pop\n      pop\n      jump\t// out\n        /* \"#utility.yul\":841:918   */\n    tag_105:\n        /* \"#utility.yul\":878:885   */\n      0x00\n        /* \"#utility.yul\":907:912   */\n      dup2\n        /* \"#utility.yul\":896:912   */\n      swap1\n      pop\n        /* \"#utility.yul\":841:918   */\n      swap2\n      swap1\n      pop\n      jump\t// out\n        /* \"#utility.yul\":924:1046   */\n    tag_106:\n        /* \"#utility.yul\":997:1021   */\n      tag_152\n        /* \"#utility.yul\":1015:1020   */\n      dup2\n        /* \"#utility.yul\":997:1021   */\n      tag_105\n      jump\t// in\n    tag_152:\n        /* \"#utility.yul\":990:995   */\n      dup2\n        /* \"#utility.yul\":987:1022   */\n      eq\n        /* \"#utility.yul\":977:1040   */\n      tag_153\n      jumpi\n        /* \"#utility.yul\":1036:1037   */\n      0x00\n        /* \"#utility.yul\":1033:1034   */\n      dup1\n        /* \"#utility.yul\":1026:1038   */\n      revert\n        /* \"#utility.yul\":977:1040   */\n    tag_153:\n        /* \"#utility.yul\":924:1046   */\n      pop\n      jump\t// out\n        /* \"#utility.yul\":1052:1191   */\n    tag_107:\n        /* \"#utility.yul\":1098:1103   */\n      0x00\n        /* \"#utility.yul\":1136:1142   */\n      dup2\n        /* \"#utility.yul\":1123:1143   */\n      calldataload\n        /* \"#utility.yul\":1114:1143   */\n      swap1\n      pop\n        /* \"#utility.yul\":1152:1185   */\n      tag_155\n        /* \"#utility.yul\":1179:1184   */\n      dup2\n        /* \"#utility.yul\":1152:1185   */\n      tag_106\n      jump\t// in\n    tag_155:\n        /* \"#utility.yul\":1052:1191   */\n      swap3\n      swap2\n      pop\n      pop\n      jump\t// out\n        /* \"#utility.yul\":1197:1314   */\n    tag_108:\n        /* \"#utility.yul\":1306:1307   */\n      0x00\n        /* \"#utility.yul\":1303:1304   */\n      dup1\n        /* \"#utility.yul\":1296:1308   */\n      revert\n        /* \"#utility.yul\":1320:1437   */\n    tag_109:\n        /* \"#utility.yul\":1429:1430   */\n      0x00\n        /* \"#utility.yul\":1426:1427   */\n      dup1\n        /* \"#utility.yul\":1419:1431   */\n      revert\n        /* \"#utility.yul\":1443:1545   */\n    tag_110:\n        /* \"#utility.yul\":1484:1490   */\n      0x00\n        /* \"#utility.yul\":1535:1537   */\n      0x1f\n        /* \"#utility.yul\":1531:1538   */\n      not\n        /* \"#utility.yul\":1526:1528   */\n      0x1f\n        /* \"#utility.yul\":1519:1524   */\n      dup4\n        /* \"#utility.yul\":1515:1529   */\n      add\n        /* \"#utility.yul\":1511:1539   */\n      and\n        /* \"#utility.yul\":1501:1539   */\n      swap1\n      pop\n        /* \"#utility.yul\":1443:1545   */\n      swap2\n      swap1\n      pop\n      jump\t// out\n        /* \"#utility.yul\":1551:1731   */\n    tag_111:\n        /* \"#utility.yul\":1599:1676   */\n      0x4e487b7100000000000000000000000000000000000000000000000000000000\n        /* \"#utility.yul\":1596:1597   */\n      0x00\n        /* \"#utility.yul\":1589:1677   */\n      mstore\n        /* \"#utility.yul\":1696:1700   */\n      0x41\n        /* \"#utility.yul\":1693:1694   */\n      0x04\n        /* \"#utility.yul\":1686:1701   */\n      mstore\n        /* \"#utility.yul\":1720:1724   */\n      0x24\n        /* \"#utility.yul\":1717:1718   */\n      0x00\n        /* \"#utility.yul\":1710:1725   */\n      revert\n        /* \"#utility.yul\":1737:2018   */\n    tag_112:\n        /* \"#utility.yul\":1820:1847   */\n      tag_161\n        /* \"#utility.yul\":1842:1846   */\n      dup3\n        /* \"#utility.yul\":1820:1847   */\n      tag_110\n      jump\t// in\n    tag_161:\n        /* \"#utility.yul\":1812:1818   */\n      dup2\n        /* \"#utility.yul\":1808:1848   */\n      add\n        /* \"#utility.yul\":1950:1956   */\n      dup2\n        /* \"#utility.yul\":1938:1948   */\n      dup2\n        /* \"#utility.yul\":1935:1957   */\n      lt\n        /* \"#utility.yul\":1914:1932   */\n      0xffffffffffffffff\n        /* \"#utility.yul\":1902:1912   */\n      dup3\n        /* \"#utility.yul\":1899:1933   */\n      gt\n        /* \"#utility.yul\":1896:1958   */\n      or\n        /* \"#utility.yul\":1893:1981   */\n      iszero\n      tag_162\n      jumpi\n        /* \"#utility.yul\":1961:1979   */\n      tag_163\n      tag_111\n      jump\t// in\n    tag_163:\n        /* \"#utility.yul\":1893:1981   */\n    tag_162:\n        /* \"#utility.yul\":2001:2011   */\n      dup1\n        /* \"#utility.yul\":1997:1999   */\n      0x40\n        /* \"#utility.yul\":1990:2012   */\n      mstore\n        /* \"#utility.yul\":1780:2018   */\n      pop\n        /* \"#utility.yul\":1737:2018   */\n      pop\n      pop\n      jump\t// out\n        /* \"#utility.yul\":2024:2153   */\n    tag_113:\n        /* \"#utility.yul\":2058:2064   */\n      0x00\n        /* \"#utility.yul\":2085:2105   */\n      tag_165\n      tag_98\n      jump\t// in\n    tag_165:\n        /* \"#utility.yul\":2075:2105   */\n      swap1\n      pop\n        /* \"#utility.yul\":2114:2147   */\n      tag_166\n        /* \"#utility.yul\":2142:2146   */\n      dup3\n        /* \"#utility.yul\":2134:2140   */\n      dup3\n        /* \"#utility.yul\":2114:2147   */\n      tag_112\n      jump\t// in\n    tag_166:\n        /* \"#utility.yul\":2024:2153   */\n      swap2\n      swap1\n      pop\n      jump\t// out\n        /* \"#utility.yul\":2159:2466   */\n    tag_114:\n        /* \"#utility.yul\":2220:2224   */\n      0x00\n        /* \"#utility.yul\":2310:2328   */\n      0xffffffffffffffff\n        /* \"#utility.yul\":2302:2308   */\n      dup3\n        /* \"#utility.yul\":2299:2329   */\n      gt\n        /* \"#utility.yul\":2296:2352   */\n      iszero\n      tag_168\n      jumpi\n        /* \"#utility.yul\":2332:2350   */\n      tag_169\n      tag_111\n      jump\t// in\n    tag_169:\n        /* \"#utility.yul\":2296:2352   */\n    tag_168:\n        /* \"#utility.yul\":2370:2399   */\n      tag_170\n        /* \"#utility.yul\":2392:2398   */\n      dup3\n        /* \"#utility.yul\":2370:2399   */\n      tag_110\n      jump\t// in\n    tag_170:\n        /* \"#utility.yul\":2362:2399   */\n      swap1\n      pop\n        /* \"#utility.yul\":2454:2458   */\n      0x20\n        /* \"#utility.yul\":2448:2452   */\n      dup2\n        /* \"#utility.yul\":2444:2459   */\n      add\n        /* \"#utility.yul\":2436:2459   */\n      swap1\n      pop\n        /* \"#utility.yul\":2159:2466   */\n      swap2\n      swap1\n      pop\n      jump\t// out\n        /* \"#utility.yul\":2472:2618   */\n    tag_115:\n        /* \"#utility.yul\":2569:2575   */\n      dup3\n        /* \"#utility.yul\":2564:2567   */\n      dup2\n        /* \"#utility.yul\":2559:2562   */\n      dup4\n        /* \"#utility.yul\":2546:2576   */\n      calldatacopy\n        /* \"#utility.yul\":2610:2611   */\n      0x00\n        /* \"#utility.yul\":2601:2607   */\n      dup4\n        /* \"#utility.yul\":2596:2599   */\n      dup4\n        /* \"#utility.yul\":2592:2608   */\n      add\n        /* \"#utility.yul\":2585:2612   */\n      mstore\n        /* \"#utility.yul\":2472:2618   */\n      pop\n      pop\n      pop\n      jump\t// out\n        /* \"#utility.yul\":2624:3047   */\n    tag_116:\n        /* \"#utility.yul\":2701:2706   */\n      0x00\n        /* \"#utility.yul\":2726:2791   */\n      tag_173\n        /* \"#utility.yul\":2742:2790   */\n      tag_174\n        /* \"#utility.yul\":2783:2789   */\n      dup5\n        /* \"#utility.yul\":2742:2790   */\n      tag_114\n      jump\t// in\n    tag_174:\n        /* \"#utility.yul\":2726:2791   */\n      tag_113\n      jump\t// in\n    tag_173:\n        /* \"#utility.yul\":2717:2791   */\n      swap1\n      pop\n        /* \"#utility.yul\":2814:2820   */\n      dup3\n        /* \"#utility.yul\":2807:2812   */\n      dup2\n        /* \"#utility.yul\":2800:2821   */\n      mstore\n        /* \"#utility.yul\":2852:2856   */\n      0x20\n        /* \"#utility.yul\":2845:2850   */\n      dup2\n        /* \"#utility.yul\":2841:2857   */\n      add\n        /* \"#utility.yul\":2890:2893   */\n      dup5\n        /* \"#utility.yul\":2881:2887   */\n      dup5\n        /* \"#utility.yul\":2876:2879   */\n      dup5\n        /* \"#utility.yul\":2872:2888   */\n      add\n        /* \"#utility.yul\":2869:2894   */\n      gt\n        /* \"#utility.yul\":2866:2978   */\n      iszero\n      tag_175\n      jumpi\n        /* \"#utility.yul\":2897:2976   */\n      tag_176\n      tag_109\n      jump\t// in\n    tag_176:\n        /* \"#utility.yul\":2866:2978   */\n    tag_175:\n        /* \"#utility.yul\":2987:3041   */\n      tag_177\n        /* \"#utility.yul\":3034:3040   */\n      dup5\n        /* \"#utility.yul\":3029:3032   */\n      dup3\n        /* \"#utility.yul\":3024:3027   */\n      dup6\n        /* \"#utility.yul\":2987:3041   */\n      tag_115\n      jump\t// in\n    tag_177:\n        /* \"#utility.yul\":2707:3047   */\n      pop\n        /* \"#utility.yul\":2624:3047   */\n      swap4\n      swap3\n      pop\n      pop\n      pop\n      jump\t// out\n        /* \"#utility.yul\":3066:3404   */\n    tag_117:\n        /* \"#utility.yul\":3121:3126   */\n      0x00\n        /* \"#utility.yul\":3170:3173   */\n      dup3\n        /* \"#utility.yul\":3163:3167   */\n      0x1f\n        /* \"#utility.yul\":3155:3161   */\n      dup4\n        /* \"#utility.yul\":3151:3168   */\n      add\n        /* \"#utility.yul\":3147:3174   */\n      slt\n        /* \"#utility.yul\":3137:3259   */\n      tag_179\n      jumpi\n        /* \"#utility.yul\":3178:3257   */\n      tag_180\n      tag_108\n      jump\t// in\n    tag_180:\n        /* \"#utility.yul\":3137:3259   */\n    tag_179:\n        /* \"#utility.yul\":3295:3301   */\n      dup2\n        /* \"#utility.yul\":3282:3302   */\n      calldataload\n        /* \"#utility.yul\":3320:3398   */\n      tag_181\n        /* \"#utility.yul\":3394:3397   */\n      dup5\n        /* \"#utility.yul\":3386:3392   */\n      dup3\n        /* \"#utility.yul\":3379:3383   */\n      0x20\n        /* \"#utility.yul\":3371:3377   */\n      dup7\n        /* \"#utility.yul\":3367:3384   */\n      add\n        /* \"#utility.yul\":3320:3398   */\n      tag_116\n      jump\t// in\n    tag_181:\n        /* \"#utility.yul\":3311:3398   */\n      swap2\n      pop\n        /* \"#utility.yul\":3127:3404   */\n      pop\n        /* \"#utility.yul\":3066:3404   */\n      swap3\n      swap2\n      pop\n      pop\n      jump\t// out\n        /* \"#utility.yul\":3410:4353   */\n    tag_13:\n        /* \"#utility.yul\":3505:3511   */\n      0x00\n        /* \"#utility.yul\":3513:3519   */\n      dup1\n        /* \"#utility.yul\":3521:3527   */\n      0x00\n        /* \"#utility.yul\":3529:3535   */\n      dup1\n        /* \"#utility.yul\":3578:3581   */\n      0x80\n        /* \"#utility.yul\":3566:3575   */\n      dup6\n        /* \"#utility.yul\":3557:3564   */\n      dup8\n        /* \"#utility.yul\":3553:3576   */\n      sub\n        /* \"#utility.yul\":3549:3582   */\n      slt\n        /* \"#utility.yul\":3546:3666   */\n      iszero\n      tag_183\n      jumpi\n        /* \"#utility.yul\":3585:3664   */\n      tag_184\n      tag_99\n      jump\t// in\n    tag_184:\n        /* \"#utility.yul\":3546:3666   */\n    tag_183:\n        /* \"#utility.yul\":3705:3706   */\n      0x00\n        /* \"#utility.yul\":3730:3783   */\n      tag_185\n        /* \"#utility.yul\":3775:3782   */\n      dup8\n        /* \"#utility.yul\":3766:3772   */\n      dup3\n        /* \"#utility.yul\":3755:3764   */\n      dup9\n        /* \"#utility.yul\":3751:3773   */\n      add\n        /* \"#utility.yul\":3730:3783   */\n      tag_104\n      jump\t// in\n    tag_185:\n        /* \"#utility.yul\":3720:3783   */\n      swap5\n      pop\n        /* \"#utility.yul\":3676:3793   */\n      pop\n        /* \"#utility.yul\":3832:3834   */\n      0x20\n        /* \"#utility.yul\":3858:3911   */\n      tag_186\n        /* \"#utility.yul\":3903:3910   */\n      dup8\n        /* \"#utility.yul\":3894:3900   */\n      dup3\n        /* \"#utility.yul\":3883:3892   */\n      dup9\n        /* \"#utility.yul\":3879:3901   */\n      add\n        /* \"#utility.yul\":3858:3911   */\n      tag_104\n      jump\t// in\n    tag_186:\n        /* \"#utility.yul\":3848:3911   */\n      swap4\n      pop\n        /* \"#utility.yul\":3803:3921   */\n      pop\n        /* \"#utility.yul\":3960:3962   */\n      0x40\n        /* \"#utility.yul\":3986:4039   */\n      tag_187\n        /* \"#utility.yul\":4031:4038   */\n      dup8\n        /* \"#utility.yul\":4022:4028   */\n      dup3\n        /* \"#utility.yul\":4011:4020   */\n      dup9\n        /* \"#utility.yul\":4007:4029   */\n      add\n        /* \"#utility.yul\":3986:4039   */\n      tag_107\n      jump\t// in\n    tag_187:\n        /* \"#utility.yul\":3976:4039   */\n      swap3\n      pop\n        /* \"#utility.yul\":3931:4049   */\n      pop\n        /* \"#utility.yul\":4116:4118   */\n      0x60\n        /* \"#utility.yul\":4105:4114   */\n      dup6\n        /* \"#utility.yul\":4101:4119   */\n      add\n        /* \"#utility.yul\":4088:4120   */\n      calldataload\n        /* \"#utility.yul\":4147:4165   */\n      0xffffffffffffffff\n        /* \"#utility.yul\":4139:4145   */\n      dup2\n        /* \"#utility.yul\":4136:4166   */\n      gt\n        /* \"#utility.yul\":4133:4250   */\n      iszero\n      tag_188\n      jumpi\n        /* \"#utility.yul\":4169:4248   */\n      tag_189\n      tag_100\n      jump\t// in\n    tag_189:\n        /* \"#utility.yul\":4133:4250   */\n    tag_188:\n        /* \"#utility.yul\":4274:4336   */\n      tag_190\n        /* \"#utility.yul\":4328:4335   */\n      dup8\n        /* \"#utility.yul\":4319:4325   */\n      dup3\n        /* \"#utility.yul\":4308:4317   */\n      dup9\n        /* \"#utility.yul\":4304:4326   */\n      add\n        /* \"#utility.yul\":4274:4336   */\n      tag_117\n      jump\t// in\n    tag_190:\n        /* \"#utility.yul\":4264:4336   */\n      swap2\n      pop\n        /* \"#utility.yul\":4059:4346   */\n      pop\n        /* \"#utility.yul\":3410:4353   */\n      swap3\n      swap6\n      swap2\n      swap5\n      pop\n      swap3\n      pop\n      jump\t// out\n        /* \"#utility.yul\":4359:4508   */\n    tag_118:\n        /* \"#utility.yul\":4395:4402   */\n      0x00\n        /* \"#utility.yul\":4435:4501   */\n      0xffffffff00000000000000000000000000000000000000000000000000000000\n        /* \"#utility.yul\":4428:4433   */\n      dup3\n        /* \"#utility.yul\":4424:4502   */\n      and\n        /* \"#utility.yul\":4413:4502   */\n      swap1\n      pop\n        /* \"#utility.yul\":4359:4508   */\n      swap2\n      swap1\n      pop\n      jump\t// out\n        /* \"#utility.yul\":4514:4629   */\n    tag_119:\n        /* \"#utility.yul\":4599:4622   */\n      tag_193\n        /* \"#utility.yul\":4616:4621   */\n      dup2\n        /* \"#utility.yul\":4599:4622   */\n      tag_118\n      jump\t// in\n    tag_193:\n        /* \"#utility.yul\":4594:4597   */\n      dup3\n        /* \"#utility.yul\":4587:4623   */\n      mstore\n        /* \"#utility.yul\":4514:4629   */\n      pop\n      pop\n      jump\t// out\n        /* \"#utility.yul\":4635:4853   */\n    tag_16:\n        /* \"#utility.yul\":4726:4730   */\n      0x00\n        /* \"#utility.yul\":4764:4766   */\n      0x20\n        /* \"#utility.yul\":4753:4762   */\n      dup3\n        /* \"#utility.yul\":4749:4767   */\n      add\n        /* \"#utility.yul\":4741:4767   */\n      swap1\n      pop\n        /* \"#utility.yul\":4777:4846   */\n      tag_195\n        /* \"#utility.yul\":4843:4844   */\n      0x00\n        /* \"#utility.yul\":4832:4841   */\n      dup4\n        /* \"#utility.yul\":4828:4845   */\n      add\n        /* \"#utility.yul\":4819:4825   */\n      dup5\n        /* \"#utility.yul\":4777:4846   */\n      tag_119\n      jump\t// in\n    tag_195:\n        /* \"#utility.yul\":4635:4853   */\n      swap3\n      swap2\n      pop\n      pop\n      jump\t// out\n        /* \"#utility.yul\":4859:5188   */\n    tag_20:\n        /* \"#utility.yul\":4918:4924   */\n      0x00\n        /* \"#utility.yul\":4967:4969   */\n      0x20\n        /* \"#utility.yul\":4955:4964   */\n      dup3\n        /* \"#utility.yul\":4946:4953   */\n      dup5\n        /* \"#utility.yul\":4942:4965   */\n      sub\n        /* \"#utility.yul\":4938:4970   */\n      slt\n        /* \"#utility.yul\":4935:5054   */\n      iszero\n      tag_197\n      jumpi\n        /* \"#utility.yul\":4973:5052   */\n      tag_198\n      tag_99\n      jump\t// in\n    tag_198:\n        /* \"#utility.yul\":4935:5054   */\n    tag_197:\n        /* \"#utility.yul\":5093:5094   */\n      0x00\n        /* \"#utility.yul\":5118:5171   */\n      tag_199\n        /* \"#utility.yul\":5163:5170   */\n      dup5\n        /* \"#utility.yul\":5154:5160   */\n      dup3\n        /* \"#utility.yul\":5143:5152   */\n      dup6\n        /* \"#utility.yul\":5139:5161   */\n      add\n        /* \"#utility.yul\":5118:5171   */\n      tag_104\n      jump\t// in\n    tag_199:\n        /* \"#utility.yul\":5108:5171   */\n      swap2\n      pop\n        /* \"#utility.yul\":5064:5181   */\n      pop\n        /* \"#utility.yul\":4859:5188   */\n      swap3\n      swap2\n      pop\n      pop\n      jump\t// out\n        /* \"#utility.yul\":5194:5505   */\n    tag_120:\n        /* \"#utility.yul\":5271:5275   */\n      0x00\n        /* \"#utility.yul\":5361:5379   */\n      0xffffffffffffffff\n        /* \"#utility.yul\":5353:5359   */\n      dup3\n        /* \"#utility.yul\":5350:5380   */\n      gt\n        /* \"#utility.yul\":5347:5403   */\n      iszero\n      tag_201\n      jumpi\n        /* \"#utility.yul\":5383:5401   */\n      tag_202\n      tag_111\n      jump\t// in\n    tag_202:\n        /* \"#utility.yul\":5347:5403   */\n    tag_201:\n        /* \"#utility.yul\":5433:5437   */\n      0x20\n        /* \"#utility.yul\":5425:5431   */\n      dup3\n        /* \"#utility.yul\":5421:5438   */\n      mul\n        /* \"#utility.yul\":5413:5438   */\n      swap1\n      pop\n        /* \"#utility.yul\":5493:5497   */\n      0x20\n        /* \"#utility.yul\":5487:5491   */\n      dup2\n        /* \"#utility.yul\":5483:5498   */\n      add\n        /* \"#utility.yul\":5475:5498   */\n      swap1\n      pop\n        /* \"#utility.yul\":5194:5505   */\n      swap2\n      swap1\n      pop\n      jump\t// out\n        /* \"#utility.yul\":5511:5628   */\n    tag_121:\n        /* \"#utility.yul\":5620:5621   */\n      0x00\n        /* \"#utility.yul\":5617:5618   */\n      dup1\n        /* \"#utility.yul\":5610:5622   */\n      revert\n        /* \"#utility.yul\":5651:6361   */\n    tag_122:\n        /* \"#utility.yul\":5747:5752   */\n      0x00\n        /* \"#utility.yul\":5772:5853   */\n      tag_205\n        /* \"#utility.yul\":5788:5852   */\n      tag_206\n        /* \"#utility.yul\":5845:5851   */\n      dup5\n        /* \"#utility.yul\":5788:5852   */\n      tag_120\n      jump\t// in\n    tag_206:\n        /* \"#utility.yul\":5772:5853   */\n      tag_113\n      jump\t// in\n    tag_205:\n        /* \"#utility.yul\":5763:5853   */\n      swap1\n      pop\n        /* \"#utility.yul\":5873:5878   */\n      dup1\n        /* \"#utility.yul\":5902:5908   */\n      dup4\n        /* \"#utility.yul\":5895:5900   */\n      dup3\n        /* \"#utility.yul\":5888:5909   */\n      mstore\n        /* \"#utility.yul\":5936:5940   */\n      0x20\n        /* \"#utility.yul\":5929:5934   */\n      dup3\n        /* \"#utility.yul\":5925:5941   */\n      add\n        /* \"#utility.yul\":5918:5941   */\n      swap1\n      pop\n        /* \"#utility.yul\":5989:5993   */\n      0x20\n        /* \"#utility.yul\":5981:5987   */\n      dup5\n        /* \"#utility.yul\":5977:5994   */\n      mul\n        /* \"#utility.yul\":5969:5975   */\n      dup4\n        /* \"#utility.yul\":5965:5995   */\n      add\n        /* \"#utility.yul\":6018:6021   */\n      dup6\n        /* \"#utility.yul\":6010:6016   */\n      dup2\n        /* \"#utility.yul\":6007:6022   */\n      gt\n        /* \"#utility.yul\":6004:6126   */\n      iszero\n      tag_207\n      jumpi\n        /* \"#utility.yul\":6037:6116   */\n      tag_208\n      tag_121\n      jump\t// in\n    tag_208:\n        /* \"#utility.yul\":6004:6126   */\n    tag_207:\n        /* \"#utility.yul\":6152:6158   */\n      dup4\n        /* \"#utility.yul\":6135:6355   */\n    tag_209:\n        /* \"#utility.yul\":6169:6175   */\n      dup2\n        /* \"#utility.yul\":6164:6167   */\n      dup2\n        /* \"#utility.yul\":6161:6176   */\n      lt\n        /* \"#utility.yul\":6135:6355   */\n      iszero\n      tag_211\n      jumpi\n        /* \"#utility.yul\":6244:6247   */\n      dup1\n        /* \"#utility.yul\":6273:6310   */\n      tag_212\n        /* \"#utility.yul\":6306:6309   */\n      dup9\n        /* \"#utility.yul\":6294:6304   */\n      dup3\n        /* \"#utility.yul\":6273:6310   */\n      tag_107\n      jump\t// in\n    tag_212:\n        /* \"#utility.yul\":6268:6271   */\n      dup5\n        /* \"#utility.yul\":6261:6311   */\n      mstore\n        /* \"#utility.yul\":6340:6344   */\n      0x20\n        /* \"#utility.yul\":6335:6338   */\n      dup5\n        /* \"#utility.yul\":6331:6345   */\n      add\n        /* \"#utility.yul\":6324:6345   */\n      swap4\n      pop\n        /* \"#utility.yul\":6211:6355   */\n      pop\n        /* \"#utility.yul\":6195:6199   */\n      0x20\n        /* \"#utility.yul\":6190:6193   */\n      dup2\n        /* \"#utility.yul\":6186:6200   */\n      add\n        /* \"#utility.yul\":6179:6200   */\n      swap1\n      pop\n        /* \"#utility.yul\":6135:6355   */\n      jump(tag_209)\n    tag_211:\n        /* \"#utility.yul\":6139:6160   */\n      pop\n        /* \"#utility.yul\":5753:6361   */\n      pop\n      pop\n        /* \"#utility.yul\":5651:6361   */\n      swap4\n      swap3\n      pop\n      pop\n      pop\n      jump\t// out\n        /* \"#utility.yul\":6384:6754   */\n    tag_123:\n        /* \"#utility.yul\":6455:6460   */\n      0x00\n        /* \"#utility.yul\":6504:6507   */\n      dup3\n        /* \"#utility.yul\":6497:6501   */\n      0x1f\n        /* \"#utility.yul\":6489:6495   */\n      dup4\n        /* \"#utility.yul\":6485:6502   */\n      add\n        /* \"#utility.yul\":6481:6508   */\n      slt\n        /* \"#utility.yul\":6471:6593   */\n      tag_214\n      jumpi\n        /* \"#utility.yul\":6512:6591   */\n      tag_215\n      tag_108\n      jump\t// in\n    tag_215:\n        /* \"#utility.yul\":6471:6593   */\n    tag_214:\n        /* \"#utility.yul\":6629:6635   */\n      dup2\n        /* \"#utility.yul\":6616:6636   */\n      calldataload\n        /* \"#utility.yul\":6654:6748   */\n      tag_216\n        /* \"#utility.yul\":6744:6747   */\n      dup5\n        /* \"#utility.yul\":6736:6742   */\n      dup3\n        /* \"#utility.yul\":6729:6733   */\n      0x20\n        /* \"#utility.yul\":6721:6727   */\n      dup7\n        /* \"#utility.yul\":6717:6734   */\n      add\n        /* \"#utility.yul\":6654:6748   */\n      tag_122\n      jump\t// in\n    tag_216:\n        /* \"#utility.yul\":6645:6748   */\n      swap2\n      pop\n        /* \"#utility.yul\":6461:6754   */\n      pop\n        /* \"#utility.yul\":6384:6754   */\n      swap3\n      swap2\n      pop\n      pop\n      jump\t// out\n        /* \"#utility.yul\":6760:7444   */\n    tag_25:\n        /* \"#utility.yul\":6853:6859   */\n      0x00\n        /* \"#utility.yul\":6861:6867   */\n      dup1\n        /* \"#utility.yul\":6910:6912   */\n      0x40\n        /* \"#utility.yul\":6898:6907   */\n      dup4\n        /* \"#utility.yul\":6889:6896   */\n      dup6\n        /* \"#utility.yul\":6885:6908   */\n      sub\n        /* \"#utility.yul\":6881:6913   */\n      slt\n        /* \"#utility.yul\":6878:6997   */\n      iszero\n      tag_218\n      jumpi\n        /* \"#utility.yul\":6916:6995   */\n      tag_219\n      tag_99\n      jump\t// in\n    tag_219:\n        /* \"#utility.yul\":6878:6997   */\n    tag_218:\n        /* \"#utility.yul\":7036:7037   */\n      0x00\n        /* \"#utility.yul\":7061:7114   */\n      tag_220\n        /* \"#utility.yul\":7106:7113   */\n      dup6\n        /* \"#utility.yul\":7097:7103   */\n      dup3\n        /* \"#utility.yul\":7086:7095   */\n      dup7\n        /* \"#utility.yul\":7082:7104   */\n      add\n        /* \"#utility.yul\":7061:7114   */\n      tag_104\n      jump\t// in\n    tag_220:\n        /* \"#utility.yul\":7051:7114   */\n      swap3\n      pop\n        /* \"#utility.yul\":7007:7124   */\n      pop\n        /* \"#utility.yul\":7191:7193   */\n      0x20\n        /* \"#utility.yul\":7180:7189   */\n      dup4\n        /* \"#utility.yul\":7176:7194   */\n      add\n        /* \"#utility.yul\":7163:7195   */\n      calldataload\n        /* \"#utility.yul\":7222:7240   */\n      0xffffffffffffffff\n        /* \"#utility.yul\":7214:7220   */\n      dup2\n        /* \"#utility.yul\":7211:7241   */\n      gt\n        /* \"#utility.yul\":7208:7325   */\n      iszero\n      tag_221\n      jumpi\n        /* \"#utility.yul\":7244:7323   */\n      tag_222\n      tag_100\n      jump\t// in\n    tag_222:\n        /* \"#utility.yul\":7208:7325   */\n    tag_221:\n        /* \"#utility.yul\":7349:7427   */\n      tag_223\n        /* \"#utility.yul\":7419:7426   */\n      dup6\n        /* \"#utility.yul\":7410:7416   */\n      dup3\n        /* \"#utility.yul\":7399:7408   */\n      dup7\n        /* \"#utility.yul\":7395:7417   */\n      add\n        /* \"#utility.yul\":7349:7427   */\n      tag_123\n      jump\t// in\n    tag_223:\n        /* \"#utility.yul\":7339:7427   */\n      swap2\n      pop\n        /* \"#utility.yul\":7134:7437   */\n      pop\n        /* \"#utility.yul\":6760:7444   */\n      swap3\n      pop\n      swap3\n      swap1\n      pop\n      jump\t// out\n        /* \"#utility.yul\":7450:7924   */\n    tag_30:\n        /* \"#utility.yul\":7518:7524   */\n      0x00\n        /* \"#utility.yul\":7526:7532   */\n      dup1\n        /* \"#utility.yul\":7575:7577   */\n      0x40\n        /* \"#utility.yul\":7563:7572   */\n      dup4\n        /* \"#utility.yul\":7554:7561   */\n      dup6\n        /* \"#utility.yul\":7550:7573   */\n      sub\n        /* \"#utility.yul\":7546:7578   */\n      slt\n        /* \"#utility.yul\":7543:7662   */\n      iszero\n      tag_225\n      jumpi\n        /* \"#utility.yul\":7581:7660   */\n      tag_226\n      tag_99\n      jump\t// in\n    tag_226:\n        /* \"#utility.yul\":7543:7662   */\n    tag_225:\n        /* \"#utility.yul\":7701:7702   */\n      0x00\n        /* \"#utility.yul\":7726:7779   */\n      tag_227\n        /* \"#utility.yul\":7771:7778   */\n      dup6\n        /* \"#utility.yul\":7762:7768   */\n      dup3\n        /* \"#utility.yul\":7751:7760   */\n      dup7\n        /* \"#utility.yul\":7747:7769   */\n      add\n        /* \"#utility.yul\":7726:7779   */\n      tag_104\n      jump\t// in\n    tag_227:\n        /* \"#utility.yul\":7716:7779   */\n      swap3\n      pop\n        /* \"#utility.yul\":7672:7789   */\n      pop\n        /* \"#utility.yul\":7828:7830   */\n      0x20\n        /* \"#utility.yul\":7854:7907   */\n      tag_228\n        /* \"#utility.yul\":7899:7906   */\n      dup6\n        /* \"#utility.yul\":7890:7896   */\n      dup3\n        /* \"#utility.yul\":7879:7888   */\n      dup7\n        /* \"#utility.yul\":7875:7897   */\n      add\n        /* \"#utility.yul\":7854:7907   */\n      tag_107\n      jump\t// in\n    tag_228:\n        /* \"#utility.yul\":7844:7907   */\n      swap2\n      pop\n        /* \"#utility.yul\":7799:7917   */\n      pop\n        /* \"#utility.yul\":7450:7924   */\n      swap3\n      pop\n      swap3\n      swap1\n      pop\n      jump\t// out\n        /* \"#utility.yul\":7930:8047   */\n    tag_124:\n        /* \"#utility.yul\":8039:8040   */\n      0x00\n        /* \"#utility.yul\":8036:8037   */\n      dup1\n        /* \"#utility.yul\":8029:8041   */\n      revert\n        /* \"#utility.yul\":8066:8618   */\n    tag_125:\n        /* \"#utility.yul\":8123:8131   */\n      0x00\n        /* \"#utility.yul\":8133:8139   */\n      dup1\n        /* \"#utility.yul\":8183:8186   */\n      dup4\n        /* \"#utility.yul\":8176:8180   */\n      0x1f\n        /* \"#utility.yul\":8168:8174   */\n      dup5\n        /* \"#utility.yul\":8164:8181   */\n      add\n        /* \"#utility.yul\":8160:8187   */\n      slt\n        /* \"#utility.yul\":8150:8272   */\n      tag_231\n      jumpi\n        /* \"#utility.yul\":8191:8270   */\n      tag_232\n      tag_108\n      jump\t// in\n    tag_232:\n        /* \"#utility.yul\":8150:8272   */\n    tag_231:\n        /* \"#utility.yul\":8304:8310   */\n      dup3\n        /* \"#utility.yul\":8291:8311   */\n      calldataload\n        /* \"#utility.yul\":8281:8311   */\n      swap1\n      pop\n        /* \"#utility.yul\":8334:8352   */\n      0xffffffffffffffff\n        /* \"#utility.yul\":8326:8332   */\n      dup2\n        /* \"#utility.yul\":8323:8353   */\n      gt\n        /* \"#utility.yul\":8320:8437   */\n      iszero\n      tag_233\n      jumpi\n        /* \"#utility.yul\":8356:8435   */\n      tag_234\n      tag_124\n      jump\t// in\n    tag_234:\n        /* \"#utility.yul\":8320:8437   */\n    tag_233:\n        /* \"#utility.yul\":8470:8474   */\n      0x20\n        /* \"#utility.yul\":8462:8468   */\n      dup4\n        /* \"#utility.yul\":8458:8475   */\n      add\n        /* \"#utility.yul\":8446:8475   */\n      swap2\n      pop\n        /* \"#utility.yul\":8524:8527   */\n      dup4\n        /* \"#utility.yul\":8516:8520   */\n      0x01\n        /* \"#utility.yul\":8508:8514   */\n      dup3\n        /* \"#utility.yul\":8504:8521   */\n      mul\n        /* \"#utility.yul\":8494:8502   */\n      dup4\n        /* \"#utility.yul\":8490:8522   */\n      add\n        /* \"#utility.yul\":8487:8528   */\n      gt\n        /* \"#utility.yul\":8484:8612   */\n      iszero\n      tag_235\n      jumpi\n        /* \"#utility.yul\":8531:8610   */\n      tag_236\n      tag_121\n      jump\t// in\n    tag_236:\n        /* \"#utility.yul\":8484:8612   */\n    tag_235:\n        /* \"#utility.yul\":8066:8618   */\n      swap3\n      pop\n      swap3\n      swap1\n      pop\n      jump\t// out\n        /* \"#utility.yul\":8624:9296   */\n    tag_34:\n        /* \"#utility.yul\":8703:8709   */\n      0x00\n        /* \"#utility.yul\":8711:8717   */\n      dup1\n        /* \"#utility.yul\":8719:8725   */\n      0x00\n        /* \"#utility.yul\":8768:8770   */\n      0x40\n        /* \"#utility.yul\":8756:8765   */\n      dup5\n        /* \"#utility.yul\":8747:8754   */\n      dup7\n        /* \"#utility.yul\":8743:8766   */\n      sub\n        /* \"#utility.yul\":8739:8771   */\n      slt\n        /* \"#utility.yul\":8736:8855   */\n      iszero\n      tag_238\n      jumpi\n        /* \"#utility.yul\":8774:8853   */\n      tag_239\n      tag_99\n      jump\t// in\n    tag_239:\n        /* \"#utility.yul\":8736:8855   */\n    tag_238:\n        /* \"#utility.yul\":8894:8895   */\n      0x00\n        /* \"#utility.yul\":8919:8972   */\n      tag_240\n        /* \"#utility.yul\":8964:8971   */\n      dup7\n        /* \"#utility.yul\":8955:8961   */\n      dup3\n        /* \"#utility.yul\":8944:8953   */\n      dup8\n        /* \"#utility.yul\":8940:8962   */\n      add\n        /* \"#utility.yul\":8919:8972   */\n      tag_104\n      jump\t// in\n    tag_240:\n        /* \"#utility.yul\":8909:8972   */\n      swap4\n      pop\n        /* \"#utility.yul\":8865:8982   */\n      pop\n        /* \"#utility.yul\":9049:9051   */\n      0x20\n        /* \"#utility.yul\":9038:9047   */\n      dup5\n        /* \"#utility.yul\":9034:9052   */\n      add\n        /* \"#utility.yul\":9021:9053   */\n      calldataload\n        /* \"#utility.yul\":9080:9098   */\n      0xffffffffffffffff\n        /* \"#utility.yul\":9072:9078   */\n      dup2\n        /* \"#utility.yul\":9069:9099   */\n      gt\n        /* \"#utility.yul\":9066:9183   */\n      iszero\n      tag_241\n      jumpi\n        /* \"#utility.yul\":9102:9181   */\n      tag_242\n      tag_100\n      jump\t// in\n    tag_242:\n        /* \"#utility.yul\":9066:9183   */\n    tag_241:\n        /* \"#utility.yul\":9215:9279   */\n      tag_243\n        /* \"#utility.yul\":9271:9278   */\n      dup7\n        /* \"#utility.yul\":9262:9268   */\n      dup3\n        /* \"#utility.yul\":9251:9260   */\n      dup8\n        /* \"#utility.yul\":9247:9269   */\n      add\n        /* \"#utility.yul\":9215:9279   */\n      tag_125\n      jump\t// in\n    tag_243:\n        /* \"#utility.yul\":9197:9279   */\n      swap3\n      pop\n      swap3\n      pop\n        /* \"#utility.yul\":8992:9289   */\n      pop\n        /* \"#utility.yul\":8624:9296   */\n      swap3\n      pop\n      swap3\n      pop\n      swap3\n      jump\t// out\n        /* \"#utility.yul\":9302:9416   */\n    tag_126:\n        /* \"#utility.yul\":9369:9375   */\n      0x00\n        /* \"#utility.yul\":9403:9408   */\n      dup2\n        /* \"#utility.yul\":9397:9409   */\n      mload\n        /* \"#utility.yul\":9387:9409   */\n      swap1\n      pop\n        /* \"#utility.yul\":9302:9416   */\n      swap2\n      swap1\n      pop\n      jump\t// out\n        /* \"#utility.yul\":9422:9606   */\n    tag_127:\n        /* \"#utility.yul\":9521:9532   */\n      0x00\n        /* \"#utility.yul\":9555:9561   */\n      dup3\n        /* \"#utility.yul\":9550:9553   */\n      dup3\n        /* \"#utility.yul\":9543:9562   */\n      mstore\n        /* \"#utility.yul\":9595:9599   */\n      0x20\n        /* \"#utility.yul\":9590:9593   */\n      dup3\n        /* \"#utility.yul\":9586:9600   */\n      add\n        /* \"#utility.yul\":9571:9600   */\n      swap1\n      pop\n        /* \"#utility.yul\":9422:9606   */\n      swap3\n      swap2\n      pop\n      pop\n      jump\t// out\n        /* \"#utility.yul\":9612:9744   */\n    tag_128:\n        /* \"#utility.yul\":9679:9683   */\n      0x00\n        /* \"#utility.yul\":9702:9705   */\n      dup2\n        /* \"#utility.yul\":9694:9705   */\n      swap1\n      pop\n        /* \"#utility.yul\":9732:9736   */\n      0x20\n        /* \"#utility.yul\":9727:9730   */\n      dup3\n        /* \"#utility.yul\":9723:9737   */\n      add\n        /* \"#utility.yul\":9715:9737   */\n      swap1\n      pop\n        /* \"#utility.yul\":9612:9744   */\n      swap2\n      swap1\n      pop\n      jump\t// out\n        /* \"#utility.yul\":9750:9858   */\n    tag_129:\n        /* \"#utility.yul\":9827:9851   */\n      tag_248\n        /* \"#utility.yul\":9845:9850   */\n      dup2\n        /* \"#utility.yul\":9827:9851   */\n      tag_105\n      jump\t// in\n    tag_248:\n        /* \"#utility.yul\":9822:9825   */\n      dup3\n        /* \"#utility.yul\":9815:9852   */\n      mstore\n        /* \"#utility.yul\":9750:9858   */\n      pop\n      pop\n      jump\t// out\n        /* \"#utility.yul\":9864:10043   */\n    tag_130:\n        /* \"#utility.yul\":9933:9943   */\n      0x00\n        /* \"#utility.yul\":9954:10000   */\n      tag_250\n        /* \"#utility.yul\":9996:9999   */\n      dup4\n        /* \"#utility.yul\":9988:9994   */\n      dup4\n        /* \"#utility.yul\":9954:10000   */\n      tag_129\n      jump\t// in\n    tag_250:\n        /* \"#utility.yul\":10032:10036   */\n      0x20\n        /* \"#utility.yul\":10027:10030   */\n      dup4\n        /* \"#utility.yul\":10023:10037   */\n      add\n        /* \"#utility.yul\":10009:10037   */\n      swap1\n      pop\n        /* \"#utility.yul\":9864:10043   */\n      swap3\n      swap2\n      pop\n      pop\n      jump\t// out\n        /* \"#utility.yul\":10049:10162   */\n    tag_131:\n        /* \"#utility.yul\":10119:10123   */\n      0x00\n        /* \"#utility.yul\":10151:10155   */\n      0x20\n        /* \"#utility.yul\":10146:10149   */\n      dup3\n        /* \"#utility.yul\":10142:10156   */\n      add\n        /* \"#utility.yul\":10134:10156   */\n      swap1\n      pop\n        /* \"#utility.yul\":10049:10162   */\n      swap2\n      swap1\n      pop\n      jump\t// out\n        /* \"#utility.yul\":10198:10930   */\n    tag_132:\n        /* \"#utility.yul\":10317:10320   */\n      0x00\n        /* \"#utility.yul\":10346:10400   */\n      tag_253\n        /* \"#utility.yul\":10394:10399   */\n      dup3\n        /* \"#utility.yul\":10346:10400   */\n      tag_126\n      jump\t// in\n    tag_253:\n        /* \"#utility.yul\":10416:10502   */\n      tag_254\n        /* \"#utility.yul\":10495:10501   */\n      dup2\n        /* \"#utility.yul\":10490:10493   */\n      dup6\n        /* \"#utility.yul\":10416:10502   */\n      tag_127\n      jump\t// in\n    tag_254:\n        /* \"#utility.yul\":10409:10502   */\n      swap4\n      pop\n        /* \"#utility.yul\":10526:10582   */\n      tag_255\n        /* \"#utility.yul\":10576:10581   */\n      dup4\n        /* \"#utility.yul\":10526:10582   */\n      tag_128\n      jump\t// in\n    tag_255:\n        /* \"#utility.yul\":10605:10612   */\n      dup1\n        /* \"#utility.yul\":10636:10637   */\n      0x00\n        /* \"#utility.yul\":10621:10905   */\n    tag_256:\n        /* \"#utility.yul\":10646:10652   */\n      dup4\n        /* \"#utility.yul\":10643:10644   */\n      dup2\n        /* \"#utility.yul\":10640:10653   */\n      lt\n        /* \"#utility.yul\":10621:10905   */\n      iszero\n      tag_258\n      jumpi\n        /* \"#utility.yul\":10722:10728   */\n      dup2\n        /* \"#utility.yul\":10716:10729   */\n      mload\n        /* \"#utility.yul\":10749:10812   */\n      tag_259\n        /* \"#utility.yul\":10808:10811   */\n      dup9\n        /* \"#utility.yul\":10793:10806   */\n      dup3\n        /* \"#utility.yul\":10749:10812   */\n      tag_130\n      jump\t// in\n    tag_259:\n        /* \"#utility.yul\":10742:10812   */\n      swap8\n      pop\n        /* \"#utility.yul\":10835:10895   */\n      tag_260\n        /* \"#utility.yul\":10888:10894   */\n      dup4\n        /* \"#utility.yul\":10835:10895   */\n      tag_131\n      jump\t// in\n    tag_260:\n        /* \"#utility.yul\":10825:10895   */\n      swap3\n      pop\n        /* \"#utility.yul\":10681:10905   */\n      pop\n        /* \"#utility.yul\":10668:10669   */\n      0x01\n        /* \"#utility.yul\":10665:10666   */\n      dup2\n        /* \"#utility.yul\":10661:10670   */\n      add\n        /* \"#utility.yul\":10656:10670   */\n      swap1\n      pop\n        /* \"#utility.yul\":10621:10905   */\n      jump(tag_256)\n    tag_258:\n        /* \"#utility.yul\":10625:10639   */\n      pop\n        /* \"#utility.yul\":10921:10924   */\n      dup6\n        /* \"#utility.yul\":10914:10924   */\n      swap4\n      pop\n        /* \"#utility.yul\":10322:10930   */\n      pop\n      pop\n      pop\n        /* \"#utility.yul\":10198:10930   */\n      swap3\n      swap2\n      pop\n      pop\n      jump\t// out\n        /* \"#utility.yul\":10936:11309   */\n    tag_41:\n        /* \"#utility.yul\":11079:11083   */\n      0x00\n        /* \"#utility.yul\":11117:11119   */\n      0x20\n        /* \"#utility.yul\":11106:11115   */\n      dup3\n        /* \"#utility.yul\":11102:11120   */\n      add\n        /* \"#utility.yul\":11094:11120   */\n      swap1\n      pop\n        /* \"#utility.yul\":11166:11175   */\n      dup2\n        /* \"#utility.yul\":11160:11164   */\n      dup2\n        /* \"#utility.yul\":11156:11176   */\n      sub\n        /* \"#utility.yul\":11152:11153   */\n      0x00\n        /* \"#utility.yul\":11141:11150   */\n      dup4\n        /* \"#utility.yul\":11137:11154   */\n      add\n        /* \"#utility.yul\":11130:11177   */\n      mstore\n        /* \"#utility.yul\":11194:11302   */\n      tag_262\n        /* \"#utility.yul\":11297:11301   */\n      dup2\n        /* \"#utility.yul\":11288:11294   */\n      dup5\n        /* \"#utility.yul\":11194:11302   */\n      tag_132\n      jump\t// in\n    tag_262:\n        /* \"#utility.yul\":11186:11302   */\n      swap1\n      pop\n        /* \"#utility.yul\":10936:11309   */\n      swap3\n      swap2\n      pop\n      pop\n      jump\t// out\n        /* \"#utility.yul\":11315:11433   */\n    tag_133:\n        /* \"#utility.yul\":11402:11426   */\n      tag_264\n        /* \"#utility.yul\":11420:11425   */\n      dup2\n        /* \"#utility.yul\":11402:11426   */\n      tag_102\n      jump\t// in\n    tag_264:\n        /* \"#utility.yul\":11397:11400   */\n      dup3\n        /* \"#utility.yul\":11390:11427   */\n      mstore\n        /* \"#utility.yul\":11315:11433   */\n      pop\n      pop\n      jump\t// out\n        /* \"#utility.yul\":11439:11661   */\n    tag_46:\n        /* \"#utility.yul\":11532:11536   */\n      0x00\n        /* \"#utility.yul\":11570:11572   */\n      0x20\n        /* \"#utility.yul\":11559:11568   */\n      dup3\n        /* \"#utility.yul\":11555:11573   */\n      add\n        /* \"#utility.yul\":11547:11573   */\n      swap1\n      pop\n        /* \"#utility.yul\":11583:11654   */\n      tag_266\n        /* \"#utility.yul\":11651:11652   */\n      0x00\n        /* \"#utility.yul\":11640:11649   */\n      dup4\n        /* \"#utility.yul\":11636:11653   */\n      add\n        /* \"#utility.yul\":11627:11633   */\n      dup5\n        /* \"#utility.yul\":11583:11654   */\n      tag_133\n      jump\t// in\n    tag_266:\n        /* \"#utility.yul\":11439:11661   */\n      swap3\n      swap2\n      pop\n      pop\n      jump\t// out\n        /* \"#utility.yul\":11667:11847   */\n    tag_57:\n        /* \"#utility.yul\":11715:11792   */\n      0x4e487b7100000000000000000000000000000000000000000000000000000000\n        /* \"#utility.yul\":11712:11713   */\n      0x00\n        /* \"#utility.yul\":11705:11793   */\n      mstore\n        /* \"#utility.yul\":11812:11816   */\n      0x32\n        /* \"#utility.yul\":11809:11810   */\n      0x04\n        /* \"#utility.yul\":11802:11817   */\n      mstore\n        /* \"#utility.yul\":11836:11840   */\n      0x24\n        /* \"#utility.yul\":11833:11834   */\n      0x00\n        /* \"#utility.yul\":11826:11841   */\n      revert\n        /* \"#utility.yul\":11853:11971   */\n    tag_134:\n        /* \"#utility.yul\":11940:11964   */\n      tag_269\n        /* \"#utility.yul\":11958:11963   */\n      dup2\n        /* \"#utility.yul\":11940:11964   */\n      tag_105\n      jump\t// in\n    tag_269:\n        /* \"#utility.yul\":11935:11938   */\n      dup3\n        /* \"#utility.yul\":11928:11965   */\n      mstore\n        /* \"#utility.yul\":11853:11971   */\n      pop\n      pop\n      jump\t// out\n        /* \"#utility.yul\":11977:12419   */\n    tag_59:\n        /* \"#utility.yul\":12126:12130   */\n      0x00\n        /* \"#utility.yul\":12164:12166   */\n      0x60\n        /* \"#utility.yul\":12153:12162   */\n      dup3\n        /* \"#utility.yul\":12149:12167   */\n      add\n        /* \"#utility.yul\":12141:12167   */\n      swap1\n      pop\n        /* \"#utility.yul\":12177:12248   */\n      tag_271\n        /* \"#utility.yul\":12245:12246   */\n      0x00\n        /* \"#utility.yul\":12234:12243   */\n      dup4\n        /* \"#utility.yul\":12230:12247   */\n      add\n        /* \"#utility.yul\":12221:12227   */\n      dup7\n        /* \"#utility.yul\":12177:12248   */\n      tag_133\n      jump\t// in\n    tag_271:\n        /* \"#utility.yul\":12258:12330   */\n      tag_272\n        /* \"#utility.yul\":12326:12328   */\n      0x20\n        /* \"#utility.yul\":12315:12324   */\n      dup4\n        /* \"#utility.yul\":12311:12329   */\n      add\n        /* \"#utility.yul\":12302:12308   */\n      dup6\n        /* \"#utility.yul\":12258:12330   */\n      tag_133\n      jump\t// in\n    tag_272:\n        /* \"#utility.yul\":12340:12412   */\n      tag_273\n        /* \"#utility.yul\":12408:12410   */\n      0x40\n        /* \"#utility.yul\":12397:12406   */\n      dup4\n        /* \"#utility.yul\":12393:12411   */\n      add\n        /* \"#utility.yul\":12384:12390   */\n      dup5\n        /* \"#utility.yul\":12340:12412   */\n      tag_134\n      jump\t// in\n    tag_273:\n        /* \"#utility.yul\":11977:12419   */\n      swap5\n      swap4\n      pop\n      pop\n      pop\n      pop\n      jump\t// out\n        /* \"#utility.yul\":12425:12605   */\n    tag_135:\n        /* \"#utility.yul\":12473:12550   */\n      0x4e487b7100000000000000000000000000000000000000000000000000000000\n        /* \"#utility.yul\":12470:12471   */\n      0x00\n        /* \"#utility.yul\":12463:12551   */\n      mstore\n        /* \"#utility.yul\":12570:12574   */\n      0x11\n        /* \"#utility.yul\":12567:12568   */\n      0x04\n        /* \"#utility.yul\":12560:12575   */\n      mstore\n        /* \"#utility.yul\":12594:12598   */\n      0x24\n        /* \"#utility.yul\":12591:12592   */\n      0x00\n        /* \"#utility.yul\":12584:12599   */\n      revert\n        /* \"#utility.yul\":12611:12844   */\n    tag_64:\n        /* \"#utility.yul\":12650:12653   */\n      0x00\n        /* \"#utility.yul\":12673:12697   */\n      tag_276\n        /* \"#utility.yul\":12691:12696   */\n      dup3\n        /* \"#utility.yul\":12673:12697   */\n      tag_105\n      jump\t// in\n    tag_276:\n        /* \"#utility.yul\":12664:12697   */\n      swap2\n      pop\n        /* \"#utility.yul\":12719:12785   */\n      0xffffffffffffffffffffffffffffffffffffffffffffffffffffffffffffffff\n        /* \"#utility.yul\":12712:12717   */\n      dup3\n        /* \"#utility.yul\":12709:12786   */\n      sub\n        /* \"#utility.yul\":12706:12809   */\n      tag_277\n      jumpi\n        /* \"#utility.yul\":12789:12807   */\n      tag_278\n      tag_135\n      jump\t// in\n    tag_278:\n        /* \"#utility.yul\":12706:12809   */\n    tag_277:\n        /* \"#utility.yul\":12836:12837   */\n      0x01\n        /* \"#utility.yul\":12829:12834   */\n      dup3\n        /* \"#utility.yul\":12825:12838   */\n      add\n        /* \"#utility.yul\":12818:12838   */\n      swap1\n      pop\n        /* \"#utility.yul\":12611:12844   */\n      swap2\n      swap1\n      pop\n      jump\t// out\n        /* \"#utility.yul\":12850:12997   */\n    tag_136:\n        /* \"#utility.yul\":12951:12962   */\n      0x00\n        /* \"#utility.yul\":12988:12991   */\n      dup2\n        /* \"#utility.yul\":12973:12991   */\n      swap1\n      pop\n        /* \"#utility.yul\":12850:12997   */\n      swap3\n      swap2\n      pop\n      pop\n      jump\t// out\n        /* \"#utility.yul\":13025:13352   */\n    tag_137:\n        /* \"#utility.yul\":13139:13142   */\n      0x00\n        /* \"#utility.yul\":13160:13248   */\n      tag_281\n        /* \"#utility.yul\":13241:13247   */\n      dup4\n        /* \"#utility.yul\":13236:13239   */\n      dup6\n        /* \"#utility.yul\":13160:13248   */\n      tag_136\n      jump\t// in\n    tag_281:\n        /* \"#utility.yul\":13153:13248   */\n      swap4\n      pop\n        /* \"#utility.yul\":13258:13314   */\n      tag_282\n        /* \"#utility.yul\":13307:13313   */\n      dup4\n        /* \"#utility.yul\":13302:13305   */\n      dup6\n        /* \"#utility.yul\":13295:13300   */\n      dup5\n        /* \"#utility.yul\":13258:13314   */\n      tag_115\n      jump\t// in\n    tag_282:\n        /* \"#utility.yul\":13339:13345   */\n      dup3\n        /* \"#utility.yul\":13334:13337   */\n      dup5\n        /* \"#utility.yul\":13330:13346   */\n      add\n        /* \"#utility.yul\":13323:13346   */\n      swap1\n      pop\n        /* \"#utility.yul\":13025:13352   */\n      swap4\n      swap3\n      pop\n      pop\n      pop\n      jump\t// out\n        /* \"#utility.yul\":13358:13649   */\n    tag_85:\n        /* \"#utility.yul\":13498:13501   */\n      0x00\n        /* \"#utility.yul\":13520:13623   */\n      tag_284\n        /* \"#utility.yul\":13619:13622   */\n      dup3\n        /* \"#utility.yul\":13610:13616   */\n      dup5\n        /* \"#utility.yul\":13602:13608   */\n      dup7\n        /* \"#utility.yul\":13520:13623   */\n      tag_137\n      jump\t// in\n    tag_284:\n        /* \"#utility.yul\":13513:13623   */\n      swap2\n      pop\n        /* \"#utility.yul\":13640:13643   */\n      dup2\n        /* \"#utility.yul\":13633:13643   */\n      swap1\n      pop\n        /* \"#utility.yul\":13358:13649   */\n      swap4\n      swap3\n      pop\n      pop\n      pop\n      jump\t// out\n\n    auxdata: 0xa264697066735822122093a4851836a150c8c0ac0f7e06002cbe475e10e8a2dc65b5d04a47e887b187a464736f6c63430008110033\n}\n",
				"bytecode": {
					"linkReferences": {},
					"object": "608060405234801561001057600080fd5b50604051610f59380380610f59833981810160405281019061003291906100db565b806000806101000a81548173ffffffffffffffffffffffffffffffffffffffff021916908373ffffffffffffffffffffffffffffffffffffffff16021790555050610108565b600080fd5b600073ffffffffffffffffffffffffffffffffffffffff82169050919050565b60006100a88261007d565b9050919050565b6100b88161009d565b81146100c357600080fd5b50565b6000815190506100d5816100af565b92915050565b6000602082840312156100f1576100f0610078565b5b60006100ff848285016100c6565b91505092915050565b610e42806101176000396000f3fe6080604052600436106100705760003560e01c806386aaa5061161004e57806386aaa50614610104578063b510391f1461012d578063c57a116614610149578063f851a4401461018657610070565b8063150b7a02146100755780631a695230146100b25780633e1a037c146100db575b600080fd5b34801561008157600080fd5b5061009c600480360381019061009791906108a8565b6101b1565b6040516100a99190610966565b60405180910390f35b3480156100be57600080fd5b506100d960048036038101906100d49190610981565b61022b565b005b3480156100e757600080fd5b5061010260048036038101906100fd9190610a76565b6103db565b005b34801561011057600080fd5b5061012b60048036038101906101269190610ad2565b6104ae565b005b61014760048036038101906101429190610b6d565b610541565b005b34801561015557600080fd5b50610170600480360381019061016b9190610981565b6105c1565b60405161017d9190610c8b565b60405180910390f35b34801561019257600080fd5b5061019b610658565b6040516101a89190610cbc565b60405180910390f35b6000600160003373ffffffffffffffffffffffffffffffffffffffff1673ffffffffffffffffffffffffffffffffffffffff16815260200190815260200160002083908060018154018082558091505060019003906000526020600020016000909190919091505563150b7a0260e01b9050949350505050565b6000600160008373ffffffffffffffffffffffffffffffffffffffff1673ffffffffffffffffffffffffffffffffffffffff1681526020019081526020016000208054806020026020016040519081016040528092919081815260200182805480156102b657602002820191906000526020600020905b8154815260200190600101908083116102a2575b5050505050905060008151905060005b8181101561038a578373ffffffffffffffffffffffffffffffffffffffff166323b872dd3060008054906101000a900473ffffffffffffffffffffffffffffffffffffffff1686858151811061031f5761031e610cd7565b5b60200260200101516040518463ffffffff1660e01b815260040161034593929190610d15565b600060405180830381600087803b15801561035f57600080fd5b505af1158015610373573d6000803e3d6000fd5b50505050808061038290610d7b565b9150506102c6565b50600160008473ffffffffffffffffffffffffffffffffffffffff1673ffffffffffffffffffffffffffffffffffffffff16815260200190815260200160002060006103d6919061067c565b505050565b60008151905060005b818110156104a8578373ffffffffffffffffffffffffffffffffffffffff166323b872dd3060008054906101000a900473ffffffffffffffffffffffffffffffffffffffff1686858151811061043d5761043c610cd7565b5b60200260200101516040518463ffffffff1660e01b815260040161046393929190610d15565b600060405180830381600087803b15801561047d57600080fd5b505af1158015610491573d6000803e3d6000fd5b5050505080806104a090610d7b565b9150506103e4565b50505050565b8173ffffffffffffffffffffffffffffffffffffffff166323b872dd3060008054906101000a900473ffffffffffffffffffffffffffffffffffffffff16846040518463ffffffff1660e01b815260040161050b93929190610d15565b600060405180830381600087803b15801561052557600080fd5b505af1158015610539573d6000803e3d6000fd5b505050505050565b60008373ffffffffffffffffffffffffffffffffffffffff1634848460405161056b929190610df3565b60006040518083038185875af1925050503d80600081146105a8576040519150601f19603f3d011682016040523d82523d6000602084013e6105ad565b606091505b50509050806105bb57600080fd5b50505050565b6060600160008373ffffffffffffffffffffffffffffffffffffffff1673ffffffffffffffffffffffffffffffffffffffff16815260200190815260200160002080548060200260200160405190810160405280929190818152602001828054801561064c57602002820191906000526020600020905b815481526020019060010190808311610638575b50505050509050919050565b60008054906101000a900473ffffffffffffffffffffffffffffffffffffffff1681565b508054600082559060005260206000209081019061069a919061069d565b50565b5b808211156106b657600081600090555060010161069e565b5090565b6000604051905090565b600080fd5b600080fd5b600073ffffffffffffffffffffffffffffffffffffffff82169050919050565b60006106f9826106ce565b9050919050565b610709816106ee565b811461071457600080fd5b50565b60008135905061072681610700565b92915050565b6000819050919050565b61073f8161072c565b811461074a57600080fd5b50565b60008135905061075c81610736565b92915050565b600080fd5b600080fd5b6000601f19601f8301169050919050565b7f4e487b7100000000000000000000000000000000000000000000000000000000600052604160045260246000fd5b6107b58261076c565b810181811067ffffffffffffffff821117156107d4576107d361077d565b5b80604052505050565b60006107e76106ba565b90506107f382826107ac565b919050565b600067ffffffffffffffff8211156108135761081261077d565b5b61081c8261076c565b9050602081019050919050565b82818337600083830152505050565b600061084b610846846107f8565b6107dd565b90508281526020810184848401111561086757610866610767565b5b610872848285610829565b509392505050565b600082601f83011261088f5761088e610762565b5b813561089f848260208601610838565b91505092915050565b600080600080608085870312156108c2576108c16106c4565b5b60006108d087828801610717565b94505060206108e187828801610717565b93505060406108f28782880161074d565b925050606085013567ffffffffffffffff811115610913576109126106c9565b5b61091f8782880161087a565b91505092959194509250565b60007fffffffff0000000000000000000000000000000000000000000000000000000082169050919050565b6109608161092b565b82525050565b600060208201905061097b6000830184610957565b92915050565b600060208284031215610997576109966106c4565b5b60006109a584828501610717565b91505092915050565b600067ffffffffffffffff8211156109c9576109c861077d565b5b602082029050602081019050919050565b600080fd5b60006109f26109ed846109ae565b6107dd565b90508083825260208201905060208402830185811115610a1557610a146109da565b5b835b81811015610a3e5780610a2a888261074d565b845260208401935050602081019050610a17565b5050509392505050565b600082601f830112610a5d57610a5c610762565b5b8135610a6d8482602086016109df565b91505092915050565b60008060408385031215610a8d57610a8c6106c4565b5b6000610a9b85828601610717565b925050602083013567ffffffffffffffff811115610abc57610abb6106c9565b5b610ac885828601610a48565b9150509250929050565b60008060408385031215610ae957610ae86106c4565b5b6000610af785828601610717565b9250506020610b088582860161074d565b9150509250929050565b600080fd5b60008083601f840112610b2d57610b2c610762565b5b8235905067ffffffffffffffff811115610b4a57610b49610b12565b5b602083019150836001820283011115610b6657610b656109da565b5b9250929050565b600080600060408486031215610b8657610b856106c4565b5b6000610b9486828701610717565b935050602084013567ffffffffffffffff811115610bb557610bb46106c9565b5b610bc186828701610b17565b92509250509250925092565b600081519050919050565b600082825260208201905092915050565b6000819050602082019050919050565b610c028161072c565b82525050565b6000610c148383610bf9565b60208301905092915050565b6000602082019050919050565b6000610c3882610bcd565b610c428185610bd8565b9350610c4d83610be9565b8060005b83811015610c7e578151610c658882610c08565b9750610c7083610c20565b925050600181019050610c51565b5085935050505092915050565b60006020820190508181036000830152610ca58184610c2d565b905092915050565b610cb6816106ee565b82525050565b6000602082019050610cd16000830184610cad565b92915050565b7f4e487b7100000000000000000000000000000000000000000000000000000000600052603260045260246000fd5b610d0f8161072c565b82525050565b6000606082019050610d2a6000830186610cad565b610d376020830185610cad565b610d446040830184610d06565b949350505050565b7f4e487b7100000000000000000000000000000000000000000000000000000000600052601160045260246000fd5b6000610d868261072c565b91507fffffffffffffffffffffffffffffffffffffffffffffffffffffffffffffffff8203610db857610db7610d4c565b5b600182019050919050565b600081905092915050565b6000610dda8385610dc3565b9350610de7838584610829565b82840190509392505050565b6000610e00828486610dce565b9150819050939250505056fea264697066735822122093a4851836a150c8c0ac0f7e06002cbe475e10e8a2dc65b5d04a47e887b187a464736f6c63430008110033",
					"opcodes": "PUSH1 0x80 PUSH1 0x40 MSTORE CALLVALUE DUP1 ISZERO PUSH2 0x10 JUMPI PUSH1 0x0 DUP1 REVERT JUMPDEST POP PUSH1 0x40 MLOAD PUSH2 0xF59 CODESIZE SUB DUP1 PUSH2 0xF59 DUP4 CODECOPY DUP2 DUP2 ADD PUSH1 0x40 MSTORE DUP2 ADD SWAP1 PUSH2 0x32 SWAP2 SWAP1 PUSH2 0xDB JUMP JUMPDEST DUP1 PUSH1 0x0 DUP1 PUSH2 0x100 EXP DUP2 SLOAD DUP2 PUSH20 0xFFFFFFFFFFFFFFFFFFFFFFFFFFFFFFFFFFFFFFFF MUL NOT AND SWAP1 DUP4 PUSH20 0xFFFFFFFFFFFFFFFFFFFFFFFFFFFFFFFFFFFFFFFF AND MUL OR SWAP1 SSTORE POP POP PUSH2 0x108 JUMP JUMPDEST PUSH1 0x0 DUP1 REVERT JUMPDEST PUSH1 0x0 PUSH20 0xFFFFFFFFFFFFFFFFFFFFFFFFFFFFFFFFFFFFFFFF DUP3 AND SWAP1 POP SWAP2 SWAP1 POP JUMP JUMPDEST PUSH1 0x0 PUSH2 0xA8 DUP3 PUSH2 0x7D JUMP JUMPDEST SWAP1 POP SWAP2 SWAP1 POP JUMP JUMPDEST PUSH2 0xB8 DUP2 PUSH2 0x9D JUMP JUMPDEST DUP2 EQ PUSH2 0xC3 JUMPI PUSH1 0x0 DUP1 REVERT JUMPDEST POP JUMP JUMPDEST PUSH1 0x0 DUP2 MLOAD SWAP1 POP PUSH2 0xD5 DUP2 PUSH2 0xAF JUMP JUMPDEST SWAP3 SWAP2 POP POP JUMP JUMPDEST PUSH1 0x0 PUSH1 0x20 DUP3 DUP5 SUB SLT ISZERO PUSH2 0xF1 JUMPI PUSH2 0xF0 PUSH2 0x78 JUMP JUMPDEST JUMPDEST PUSH1 0x0 PUSH2 0xFF DUP5 DUP3 DUP6 ADD PUSH2 0xC6 JUMP JUMPDEST SWAP2 POP POP SWAP3 SWAP2 POP POP JUMP JUMPDEST PUSH2 0xE42 DUP1 PUSH2 0x117 PUSH1 0x0 CODECOPY PUSH1 0x0 RETURN INVALID PUSH1 0x80 PUSH1 0x40 MSTORE PUSH1 0x4 CALLDATASIZE LT PUSH2 0x70 JUMPI PUSH1 0x0 CALLDATALOAD PUSH1 0xE0 SHR DUP1 PUSH4 0x86AAA506 GT PUSH2 0x4E JUMPI DUP1 PUSH4 0x86AAA506 EQ PUSH2 0x104 JUMPI DUP1 PUSH4 0xB510391F EQ PUSH2 0x12D JUMPI DUP1 PUSH4 0xC57A1166 EQ PUSH2 0x149 JUMPI DUP1 PUSH4 0xF851A440 EQ PUSH2 0x186 JUMPI PUSH2 0x70 JUMP JUMPDEST DUP1 PUSH4 0x150B7A02 EQ PUSH2 0x75 JUMPI DUP1 PUSH4 0x1A695230 EQ PUSH2 0xB2 JUMPI DUP1 PUSH4 0x3E1A037C EQ PUSH2 0xDB JUMPI JUMPDEST PUSH1 0x0 DUP1 REVERT JUMPDEST CALLVALUE DUP1 ISZERO PUSH2 0x81 JUMPI PUSH1 0x0 DUP1 REVERT JUMPDEST POP PUSH2 0x9C PUSH1 0x4 DUP1 CALLDATASIZE SUB DUP2 ADD SWAP1 PUSH2 0x97 SWAP2 SWAP1 PUSH2 0x8A8 JUMP JUMPDEST PUSH2 0x1B1 JUMP JUMPDEST PUSH1 0x40 MLOAD PUSH2 0xA9 SWAP2 SWAP1 PUSH2 0x966 JUMP JUMPDEST PUSH1 0x40 MLOAD DUP1 SWAP2 SUB SWAP1 RETURN JUMPDEST CALLVALUE DUP1 ISZERO PUSH2 0xBE JUMPI PUSH1 0x0 DUP1 REVERT JUMPDEST POP PUSH2 0xD9 PUSH1 0x4 DUP1 CALLDATASIZE SUB DUP2 ADD SWAP1 PUSH2 0xD4 SWAP2 SWAP1 PUSH2 0x981 JUMP JUMPDEST PUSH2 0x22B JUMP JUMPDEST STOP JUMPDEST CALLVALUE DUP1 ISZERO PUSH2 0xE7 JUMPI PUSH1 0x0 DUP1 REVERT JUMPDEST POP PUSH2 0x102 PUSH1 0x4 DUP1 CALLDATASIZE SUB DUP2 ADD SWAP1 PUSH2 0xFD SWAP2 SWAP1 PUSH2 0xA76 JUMP JUMPDEST PUSH2 0x3DB JUMP JUMPDEST STOP JUMPDEST CALLVALUE DUP1 ISZERO PUSH2 0x110 JUMPI PUSH1 0x0 DUP1 REVERT JUMPDEST POP PUSH2 0x12B PUSH1 0x4 DUP1 CALLDATASIZE SUB DUP2 ADD SWAP1 PUSH2 0x126 SWAP2 SWAP1 PUSH2 0xAD2 JUMP JUMPDEST PUSH2 0x4AE JUMP JUMPDEST STOP JUMPDEST PUSH2 0x147 PUSH1 0x4 DUP1 CALLDATASIZE SUB DUP2 ADD SWAP1 PUSH2 0x142 SWAP2 SWAP1 PUSH2 0xB6D JUMP JUMPDEST PUSH2 0x541 JUMP JUMPDEST STOP JUMPDEST CALLVALUE DUP1 ISZERO PUSH2 0x155 JUMPI PUSH1 0x0 DUP1 REVERT JUMPDEST POP PUSH2 0x170 PUSH1 0x4 DUP1 CALLDATASIZE SUB DUP2 ADD SWAP1 PUSH2 0x16B SWAP2 SWAP1 PUSH2 0x981 JUMP JUMPDEST PUSH2 0x5C1 JUMP JUMPDEST PUSH1 0x40 MLOAD PUSH2 0x17D SWAP2 SWAP1 PUSH2 0xC8B JUMP JUMPDEST PUSH1 0x40 MLOAD DUP1 SWAP2 SUB SWAP1 RETURN JUMPDEST CALLVALUE DUP1 ISZERO PUSH2 0x192 JUMPI PUSH1 0x0 DUP1 REVERT JUMPDEST POP PUSH2 0x19B PUSH2 0x658 JUMP JUMPDEST PUSH1 0x40 MLOAD PUSH2 0x1A8 SWAP2 SWAP1 PUSH2 0xCBC JUMP JUMPDEST PUSH1 0x40 MLOAD DUP1 SWAP2 SUB SWAP1 RETURN JUMPDEST PUSH1 0x0 PUSH1 0x1 PUSH1 0x0 CALLER PUSH20 0xFFFFFFFFFFFFFFFFFFFFFFFFFFFFFFFFFFFFFFFF AND PUSH20 0xFFFFFFFFFFFFFFFFFFFFFFFFFFFFFFFFFFFFFFFF AND DUP2 MSTORE PUSH1 0x20 ADD SWAP1 DUP2 MSTORE PUSH1 0x20 ADD PUSH1 0x0 KECCAK256 DUP4 SWAP1 DUP1 PUSH1 0x1 DUP2 SLOAD ADD DUP1 DUP3 SSTORE DUP1 SWAP2 POP POP PUSH1 0x1 SWAP1 SUB SWAP1 PUSH1 0x0 MSTORE PUSH1 0x20 PUSH1 0x0 KECCAK256 ADD PUSH1 0x0 SWAP1 SWAP2 SWAP1 SWAP2 SWAP1 SWAP2 POP SSTORE PUSH4 0x150B7A02 PUSH1 0xE0 SHL SWAP1 POP SWAP5 SWAP4 POP POP POP POP JUMP JUMPDEST PUSH1 0x0 PUSH1 0x1 PUSH1 0x0 DUP4 PUSH20 0xFFFFFFFFFFFFFFFFFFFFFFFFFFFFFFFFFFFFFFFF AND PUSH20 0xFFFFFFFFFFFFFFFFFFFFFFFFFFFFFFFFFFFFFFFF AND DUP2 MSTORE PUSH1 0x20 ADD SWAP1 DUP2 MSTORE PUSH1 0x20 ADD PUSH1 0x0 KECCAK256 DUP1 SLOAD DUP1 PUSH1 0x20 MUL PUSH1 0x20 ADD PUSH1 0x40 MLOAD SWAP1 DUP2 ADD PUSH1 0x40 MSTORE DUP1 SWAP3 SWAP2 SWAP1 DUP2 DUP2 MSTORE PUSH1 0x20 ADD DUP3 DUP1 SLOAD DUP1 ISZERO PUSH2 0x2B6 JUMPI PUSH1 0x20 MUL DUP3 ADD SWAP2 SWAP1 PUSH1 0x0 MSTORE PUSH1 0x20 PUSH1 0x0 KECCAK256 SWAP1 JUMPDEST DUP2 SLOAD DUP2 MSTORE PUSH1 0x20 ADD SWAP1 PUSH1 0x1 ADD SWAP1 DUP1 DUP4 GT PUSH2 0x2A2 JUMPI JUMPDEST POP POP POP POP POP SWAP1 POP PUSH1 0x0 DUP2 MLOAD SWAP1 POP PUSH1 0x0 JUMPDEST DUP2 DUP2 LT ISZERO PUSH2 0x38A JUMPI DUP4 PUSH20 0xFFFFFFFFFFFFFFFFFFFFFFFFFFFFFFFFFFFFFFFF AND PUSH4 0x23B872DD ADDRESS PUSH1 0x0 DUP1 SLOAD SWAP1 PUSH2 0x100 EXP SWAP1 DIV PUSH20 0xFFFFFFFFFFFFFFFFFFFFFFFFFFFFFFFFFFFFFFFF AND DUP7 DUP6 DUP2 MLOAD DUP2 LT PUSH2 0x31F JUMPI PUSH2 0x31E PUSH2 0xCD7 JUMP JUMPDEST JUMPDEST PUSH1 0x20 MUL PUSH1 0x20 ADD ADD MLOAD PUSH1 0x40 MLOAD DUP5 PUSH4 0xFFFFFFFF AND PUSH1 0xE0 SHL DUP2 MSTORE PUSH1 0x4 ADD PUSH2 0x345 SWAP4 SWAP3 SWAP2 SWAP1 PUSH2 0xD15 JUMP JUMPDEST PUSH1 0x0 PUSH1 0x40 MLOAD DUP1 DUP4 SUB DUP2 PUSH1 0x0 DUP8 DUP1 EXTCODESIZE ISZERO DUP1 ISZERO PUSH2 0x35F JUMPI PUSH1 0x0 DUP1 REVERT JUMPDEST POP GAS CALL ISZERO DUP1 ISZERO PUSH2 0x373 JUMPI RETURNDATASIZE PUSH1 0x0 DUP1 RETURNDATACOPY RETURNDATASIZE PUSH1 0x0 REVERT JUMPDEST POP POP POP POP DUP1 DUP1 PUSH2 0x382 SWAP1 PUSH2 0xD7B JUMP JUMPDEST SWAP2 POP POP PUSH2 0x2C6 JUMP JUMPDEST POP PUSH1 0x1 PUSH1 0x0 DUP5 PUSH20 0xFFFFFFFFFFFFFFFFFFFFFFFFFFFFFFFFFFFFFFFF AND PUSH20 0xFFFFFFFFFFFFFFFFFFFFFFFFFFFFFFFFFFFFFFFF AND DUP2 MSTORE PUSH1 0x20 ADD SWAP1 DUP2 MSTORE PUSH1 0x20 ADD PUSH1 0x0 KECCAK256 PUSH1 0x0 PUSH2 0x3D6 SWAP2 SWAP1 PUSH2 0x67C JUMP JUMPDEST POP POP POP JUMP JUMPDEST PUSH1 0x0 DUP2 MLOAD SWAP1 POP PUSH1 0x0 JUMPDEST DUP2 DUP2 LT ISZERO PUSH2 0x4A8 JUMPI DUP4 PUSH20 0xFFFFFFFFFFFFFFFFFFFFFFFFFFFFFFFFFFFFFFFF AND PUSH4 0x23B872DD ADDRESS PUSH1 0x0 DUP1 SLOAD SWAP1 PUSH2 0x100 EXP SWAP1 DIV PUSH20 0xFFFFFFFFFFFFFFFFFFFFFFFFFFFFFFFFFFFFFFFF AND DUP7 DUP6 DUP2 MLOAD DUP2 LT PUSH2 0x43D JUMPI PUSH2 0x43C PUSH2 0xCD7 JUMP JUMPDEST JUMPDEST PUSH1 0x20 MUL PUSH1 0x20 ADD ADD MLOAD PUSH1 0x40 MLOAD DUP5 PUSH4 0xFFFFFFFF AND PUSH1 0xE0 SHL DUP2 MSTORE PUSH1 0x4 ADD PUSH2 0x463 SWAP4 SWAP3 SWAP2 SWAP1 PUSH2 0xD15 JUMP JUMPDEST PUSH1 0x0 PUSH1 0x40 MLOAD DUP1 DUP4 SUB DUP2 PUSH1 0x0 DUP8 DUP1 EXTCODESIZE ISZERO DUP1 ISZERO PUSH2 0x47D JUMPI PUSH1 0x0 DUP1 REVERT JUMPDEST POP GAS CALL ISZERO DUP1 ISZERO PUSH2 0x491 JUMPI RETURNDATASIZE PUSH1 0x0 DUP1 RETURNDATACOPY RETURNDATASIZE PUSH1 0x0 REVERT JUMPDEST POP POP POP POP DUP1 DUP1 PUSH2 0x4A0 SWAP1 PUSH2 0xD7B JUMP JUMPDEST SWAP2 POP POP PUSH2 0x3E4 JUMP JUMPDEST POP POP POP POP JUMP JUMPDEST DUP2 PUSH20 0xFFFFFFFFFFFFFFFFFFFFFFFFFFFFFFFFFFFFFFFF AND PUSH4 0x23B872DD ADDRESS PUSH1 0x0 DUP1 SLOAD SWAP1 PUSH2 0x100 EXP SWAP1 DIV PUSH20 0xFFFFFFFFFFFFFFFFFFFFFFFFFFFFFFFFFFFFFFFF AND DUP5 PUSH1 0x40 MLOAD DUP5 PUSH4 0xFFFFFFFF AND PUSH1 0xE0 SHL DUP2 MSTORE PUSH1 0x4 ADD PUSH2 0x50B SWAP4 SWAP3 SWAP2 SWAP1 PUSH2 0xD15 JUMP JUMPDEST PUSH1 0x0 PUSH1 0x40 MLOAD DUP1 DUP4 SUB DUP2 PUSH1 0x0 DUP8 DUP1 EXTCODESIZE ISZERO DUP1 ISZERO PUSH2 0x525 JUMPI PUSH1 0x0 DUP1 REVERT JUMPDEST POP GAS CALL ISZERO DUP1 ISZERO PUSH2 0x539 JUMPI RETURNDATASIZE PUSH1 0x0 DUP1 RETURNDATACOPY RETURNDATASIZE PUSH1 0x0 REVERT JUMPDEST POP POP POP POP POP POP JUMP JUMPDEST PUSH1 0x0 DUP4 PUSH20 0xFFFFFFFFFFFFFFFFFFFFFFFFFFFFFFFFFFFFFFFF AND CALLVALUE DUP5 DUP5 PUSH1 0x40 MLOAD PUSH2 0x56B SWAP3 SWAP2 SWAP1 PUSH2 0xDF3 JUMP JUMPDEST PUSH1 0x0 PUSH1 0x40 MLOAD DUP1 DUP4 SUB DUP2 DUP6 DUP8 GAS CALL SWAP3 POP POP POP RETURNDATASIZE DUP1 PUSH1 0x0 DUP2 EQ PUSH2 0x5A8 JUMPI PUSH1 0x40 MLOAD SWAP2 POP PUSH1 0x1F NOT PUSH1 0x3F RETURNDATASIZE ADD AND DUP3 ADD PUSH1 0x40 MSTORE RETURNDATASIZE DUP3 MSTORE RETURNDATASIZE PUSH1 0x0 PUSH1 0x20 DUP5 ADD RETURNDATACOPY PUSH2 0x5AD JUMP JUMPDEST PUSH1 0x60 SWAP2 POP JUMPDEST POP POP SWAP1 POP DUP1 PUSH2 0x5BB JUMPI PUSH1 0x0 DUP1 REVERT JUMPDEST POP POP POP POP JUMP JUMPDEST PUSH1 0x60 PUSH1 0x1 PUSH1 0x0 DUP4 PUSH20 0xFFFFFFFFFFFFFFFFFFFFFFFFFFFFFFFFFFFFFFFF AND PUSH20 0xFFFFFFFFFFFFFFFFFFFFFFFFFFFFFFFFFFFFFFFF AND DUP2 MSTORE PUSH1 0x20 ADD SWAP1 DUP2 MSTORE PUSH1 0x20 ADD PUSH1 0x0 KECCAK256 DUP1 SLOAD DUP1 PUSH1 0x20 MUL PUSH1 0x20 ADD PUSH1 0x40 MLOAD SWAP1 DUP2 ADD PUSH1 0x40 MSTORE DUP1 SWAP3 SWAP2 SWAP1 DUP2 DUP2 MSTORE PUSH1 0x20 ADD DUP3 DUP1 SLOAD DUP1 ISZERO PUSH2 0x64C JUMPI PUSH1 0x20 MUL DUP3 ADD SWAP2 SWAP1 PUSH1 0x0 MSTORE PUSH1 0x20 PUSH1 0x0 KECCAK256 SWAP1 JUMPDEST DUP2 SLOAD DUP2 MSTORE PUSH1 0x20 ADD SWAP1 PUSH1 0x1 ADD SWAP1 DUP1 DUP4 GT PUSH2 0x638 JUMPI JUMPDEST POP POP POP POP POP SWAP1 POP SWAP2 SWAP1 POP JUMP JUMPDEST PUSH1 0x0 DUP1 SLOAD SWAP1 PUSH2 0x100 EXP SWAP1 DIV PUSH20 0xFFFFFFFFFFFFFFFFFFFFFFFFFFFFFFFFFFFFFFFF AND DUP2 JUMP JUMPDEST POP DUP1 SLOAD PUSH1 0x0 DUP3 SSTORE SWAP1 PUSH1 0x0 MSTORE PUSH1 0x20 PUSH1 0x0 KECCAK256 SWAP1 DUP2 ADD SWAP1 PUSH2 0x69A SWAP2 SWAP1 PUSH2 0x69D JUMP JUMPDEST POP JUMP JUMPDEST JUMPDEST DUP1 DUP3 GT ISZERO PUSH2 0x6B6 JUMPI PUSH1 0x0 DUP2 PUSH1 0x0 SWAP1 SSTORE POP PUSH1 0x1 ADD PUSH2 0x69E JUMP JUMPDEST POP SWAP1 JUMP JUMPDEST PUSH1 0x0 PUSH1 0x40 MLOAD SWAP1 POP SWAP1 JUMP JUMPDEST PUSH1 0x0 DUP1 REVERT JUMPDEST PUSH1 0x0 DUP1 REVERT JUMPDEST PUSH1 0x0 PUSH20 0xFFFFFFFFFFFFFFFFFFFFFFFFFFFFFFFFFFFFFFFF DUP3 AND SWAP1 POP SWAP2 SWAP1 POP JUMP JUMPDEST PUSH1 0x0 PUSH2 0x6F9 DUP3 PUSH2 0x6CE JUMP JUMPDEST SWAP1 POP SWAP2 SWAP1 POP JUMP JUMPDEST PUSH2 0x709 DUP2 PUSH2 0x6EE JUMP JUMPDEST DUP2 EQ PUSH2 0x714 JUMPI PUSH1 0x0 DUP1 REVERT JUMPDEST POP JUMP JUMPDEST PUSH1 0x0 DUP2 CALLDATALOAD SWAP1 POP PUSH2 0x726 DUP2 PUSH2 0x700 JUMP JUMPDEST SWAP3 SWAP2 POP POP JUMP JUMPDEST PUSH1 0x0 DUP2 SWAP1 POP SWAP2 SWAP1 POP JUMP JUMPDEST PUSH2 0x73F DUP2 PUSH2 0x72C JUMP JUMPDEST DUP2 EQ PUSH2 0x74A JUMPI PUSH1 0x0 DUP1 REVERT JUMPDEST POP JUMP JUMPDEST PUSH1 0x0 DUP2 CALLDATALOAD SWAP1 POP PUSH2 0x75C DUP2 PUSH2 0x736 JUMP JUMPDEST SWAP3 SWAP2 POP POP JUMP JUMPDEST PUSH1 0x0 DUP1 REVERT JUMPDEST PUSH1 0x0 DUP1 REVERT JUMPDEST PUSH1 0x0 PUSH1 0x1F NOT PUSH1 0x1F DUP4 ADD AND SWAP1 POP SWAP2 SWAP1 POP JUMP JUMPDEST PUSH32 0x4E487B7100000000000000000000000000000000000000000000000000000000 PUSH1 0x0 MSTORE PUSH1 0x41 PUSH1 0x4 MSTORE PUSH1 0x24 PUSH1 0x0 REVERT JUMPDEST PUSH2 0x7B5 DUP3 PUSH2 0x76C JUMP JUMPDEST DUP2 ADD DUP2 DUP2 LT PUSH8 0xFFFFFFFFFFFFFFFF DUP3 GT OR ISZERO PUSH2 0x7D4 JUMPI PUSH2 0x7D3 PUSH2 0x77D JUMP JUMPDEST JUMPDEST DUP1 PUSH1 0x40 MSTORE POP POP POP JUMP JUMPDEST PUSH1 0x0 PUSH2 0x7E7 PUSH2 0x6BA JUMP JUMPDEST SWAP1 POP PUSH2 0x7F3 DUP3 DUP3 PUSH2 0x7AC JUMP JUMPDEST SWAP2 SWAP1 POP JUMP JUMPDEST PUSH1 0x0 PUSH8 0xFFFFFFFFFFFFFFFF DUP3 GT ISZERO PUSH2 0x813 JUMPI PUSH2 0x812 PUSH2 0x77D JUMP JUMPDEST JUMPDEST PUSH2 0x81C DUP3 PUSH2 0x76C JUMP JUMPDEST SWAP1 POP PUSH1 0x20 DUP2 ADD SWAP1 POP SWAP2 SWAP1 POP JUMP JUMPDEST DUP3 DUP2 DUP4 CALLDATACOPY PUSH1 0x0 DUP4 DUP4 ADD MSTORE POP POP POP JUMP JUMPDEST PUSH1 0x0 PUSH2 0x84B PUSH2 0x846 DUP5 PUSH2 0x7F8 JUMP JUMPDEST PUSH2 0x7DD JUMP JUMPDEST SWAP1 POP DUP3 DUP2 MSTORE PUSH1 0x20 DUP2 ADD DUP5 DUP5 DUP5 ADD GT ISZERO PUSH2 0x867 JUMPI PUSH2 0x866 PUSH2 0x767 JUMP JUMPDEST JUMPDEST PUSH2 0x872 DUP5 DUP3 DUP6 PUSH2 0x829 JUMP JUMPDEST POP SWAP4 SWAP3 POP POP POP JUMP JUMPDEST PUSH1 0x0 DUP3 PUSH1 0x1F DUP4 ADD SLT PUSH2 0x88F JUMPI PUSH2 0x88E PUSH2 0x762 JUMP JUMPDEST JUMPDEST DUP2 CALLDATALOAD PUSH2 0x89F DUP5 DUP3 PUSH1 0x20 DUP7 ADD PUSH2 0x838 JUMP JUMPDEST SWAP2 POP POP SWAP3 SWAP2 POP POP JUMP JUMPDEST PUSH1 0x0 DUP1 PUSH1 0x0 DUP1 PUSH1 0x80 DUP6 DUP8 SUB SLT ISZERO PUSH2 0x8C2 JUMPI PUSH2 0x8C1 PUSH2 0x6C4 JUMP JUMPDEST JUMPDEST PUSH1 0x0 PUSH2 0x8D0 DUP8 DUP3 DUP9 ADD PUSH2 0x717 JUMP JUMPDEST SWAP5 POP POP PUSH1 0x20 PUSH2 0x8E1 DUP8 DUP3 DUP9 ADD PUSH2 0x717 JUMP JUMPDEST SWAP4 POP POP PUSH1 0x40 PUSH2 0x8F2 DUP8 DUP3 DUP9 ADD PUSH2 0x74D JUMP JUMPDEST SWAP3 POP POP PUSH1 0x60 DUP6 ADD CALLDATALOAD PUSH8 0xFFFFFFFFFFFFFFFF DUP2 GT ISZERO PUSH2 0x913 JUMPI PUSH2 0x912 PUSH2 0x6C9 JUMP JUMPDEST JUMPDEST PUSH2 0x91F DUP8 DUP3 DUP9 ADD PUSH2 0x87A JUMP JUMPDEST SWAP2 POP POP SWAP3 SWAP6 SWAP2 SWAP5 POP SWAP3 POP JUMP JUMPDEST PUSH1 0x0 PUSH32 0xFFFFFFFF00000000000000000000000000000000000000000000000000000000 DUP3 AND SWAP1 POP SWAP2 SWAP1 POP JUMP JUMPDEST PUSH2 0x960 DUP2 PUSH2 0x92B JUMP JUMPDEST DUP3 MSTORE POP POP JUMP JUMPDEST PUSH1 0x0 PUSH1 0x20 DUP3 ADD SWAP1 POP PUSH2 0x97B PUSH1 0x0 DUP4 ADD DUP5 PUSH2 0x957 JUMP JUMPDEST SWAP3 SWAP2 POP POP JUMP JUMPDEST PUSH1 0x0 PUSH1 0x20 DUP3 DUP5 SUB SLT ISZERO PUSH2 0x997 JUMPI PUSH2 0x996 PUSH2 0x6C4 JUMP JUMPDEST JUMPDEST PUSH1 0x0 PUSH2 0x9A5 DUP5 DUP3 DUP6 ADD PUSH2 0x717 JUMP JUMPDEST SWAP2 POP POP SWAP3 SWAP2 POP POP JUMP JUMPDEST PUSH1 0x0 PUSH8 0xFFFFFFFFFFFFFFFF DUP3 GT ISZERO PUSH2 0x9C9 JUMPI PUSH2 0x9C8 PUSH2 0x77D JUMP JUMPDEST JUMPDEST PUSH1 0x20 DUP3 MUL SWAP1 POP PUSH1 0x20 DUP2 ADD SWAP1 POP SWAP2 SWAP1 POP JUMP JUMPDEST PUSH1 0x0 DUP1 REVERT JUMPDEST PUSH1 0x0 PUSH2 0x9F2 PUSH2 0x9ED DUP5 PUSH2 0x9AE JUMP JUMPDEST PUSH2 0x7DD JUMP JUMPDEST SWAP1 POP DUP1 DUP4 DUP3 MSTORE PUSH1 0x20 DUP3 ADD SWAP1 POP PUSH1 0x20 DUP5 MUL DUP4 ADD DUP6 DUP2 GT ISZERO PUSH2 0xA15 JUMPI PUSH2 0xA14 PUSH2 0x9DA JUMP JUMPDEST JUMPDEST DUP4 JUMPDEST DUP2 DUP2 LT ISZERO PUSH2 0xA3E JUMPI DUP1 PUSH2 0xA2A DUP9 DUP3 PUSH2 0x74D JUMP JUMPDEST DUP5 MSTORE PUSH1 0x20 DUP5 ADD SWAP4 POP POP PUSH1 0x20 DUP2 ADD SWAP1 POP PUSH2 0xA17 JUMP JUMPDEST POP POP POP SWAP4 SWAP3 POP POP POP JUMP JUMPDEST PUSH1 0x0 DUP3 PUSH1 0x1F DUP4 ADD SLT PUSH2 0xA5D JUMPI PUSH2 0xA5C PUSH2 0x762 JUMP JUMPDEST JUMPDEST DUP2 CALLDATALOAD PUSH2 0xA6D DUP5 DUP3 PUSH1 0x20 DUP7 ADD PUSH2 0x9DF JUMP JUMPDEST SWAP2 POP POP SWAP3 SWAP2 POP POP JUMP JUMPDEST PUSH1 0x0 DUP1 PUSH1 0x40 DUP4 DUP6 SUB SLT ISZERO PUSH2 0xA8D JUMPI PUSH2 0xA8C PUSH2 0x6C4 JUMP JUMPDEST JUMPDEST PUSH1 0x0 PUSH2 0xA9B DUP6 DUP3 DUP7 ADD PUSH2 0x717 JUMP JUMPDEST SWAP3 POP POP PUSH1 0x20 DUP4 ADD CALLDATALOAD PUSH8 0xFFFFFFFFFFFFFFFF DUP2 GT ISZERO PUSH2 0xABC JUMPI PUSH2 0xABB PUSH2 0x6C9 JUMP JUMPDEST JUMPDEST PUSH2 0xAC8 DUP6 DUP3 DUP7 ADD PUSH2 0xA48 JUMP JUMPDEST SWAP2 POP POP SWAP3 POP SWAP3 SWAP1 POP JUMP JUMPDEST PUSH1 0x0 DUP1 PUSH1 0x40 DUP4 DUP6 SUB SLT ISZERO PUSH2 0xAE9 JUMPI PUSH2 0xAE8 PUSH2 0x6C4 JUMP JUMPDEST JUMPDEST PUSH1 0x0 PUSH2 0xAF7 DUP6 DUP3 DUP7 ADD PUSH2 0x717 JUMP JUMPDEST SWAP3 POP POP PUSH1 0x20 PUSH2 0xB08 DUP6 DUP3 DUP7 ADD PUSH2 0x74D JUMP JUMPDEST SWAP2 POP POP SWAP3 POP SWAP3 SWAP1 POP JUMP JUMPDEST PUSH1 0x0 DUP1 REVERT JUMPDEST PUSH1 0x0 DUP1 DUP4 PUSH1 0x1F DUP5 ADD SLT PUSH2 0xB2D JUMPI PUSH2 0xB2C PUSH2 0x762 JUMP JUMPDEST JUMPDEST DUP3 CALLDATALOAD SWAP1 POP PUSH8 0xFFFFFFFFFFFFFFFF DUP2 GT ISZERO PUSH2 0xB4A JUMPI PUSH2 0xB49 PUSH2 0xB12 JUMP JUMPDEST JUMPDEST PUSH1 0x20 DUP4 ADD SWAP2 POP DUP4 PUSH1 0x1 DUP3 MUL DUP4 ADD GT ISZERO PUSH2 0xB66 JUMPI PUSH2 0xB65 PUSH2 0x9DA JUMP JUMPDEST JUMPDEST SWAP3 POP SWAP3 SWAP1 POP JUMP JUMPDEST PUSH1 0x0 DUP1 PUSH1 0x0 PUSH1 0x40 DUP5 DUP7 SUB SLT ISZERO PUSH2 0xB86 JUMPI PUSH2 0xB85 PUSH2 0x6C4 JUMP JUMPDEST JUMPDEST PUSH1 0x0 PUSH2 0xB94 DUP7 DUP3 DUP8 ADD PUSH2 0x717 JUMP JUMPDEST SWAP4 POP POP PUSH1 0x20 DUP5 ADD CALLDATALOAD PUSH8 0xFFFFFFFFFFFFFFFF DUP2 GT ISZERO PUSH2 0xBB5 JUMPI PUSH2 0xBB4 PUSH2 0x6C9 JUMP JUMPDEST JUMPDEST PUSH2 0xBC1 DUP7 DUP3 DUP8 ADD PUSH2 0xB17 JUMP JUMPDEST SWAP3 POP SWAP3 POP POP SWAP3 POP SWAP3 POP SWAP3 JUMP JUMPDEST PUSH1 0x0 DUP2 MLOAD SWAP1 POP SWAP2 SWAP1 POP JUMP JUMPDEST PUSH1 0x0 DUP3 DUP3 MSTORE PUSH1 0x20 DUP3 ADD SWAP1 POP SWAP3 SWAP2 POP POP JUMP JUMPDEST PUSH1 0x0 DUP2 SWAP1 POP PUSH1 0x20 DUP3 ADD SWAP1 POP SWAP2 SWAP1 POP JUMP JUMPDEST PUSH2 0xC02 DUP2 PUSH2 0x72C JUMP JUMPDEST DUP3 MSTORE POP POP JUMP JUMPDEST PUSH1 0x0 PUSH2 0xC14 DUP4 DUP4 PUSH2 0xBF9 JUMP JUMPDEST PUSH1 0x20 DUP4 ADD SWAP1 POP SWAP3 SWAP2 POP POP JUMP JUMPDEST PUSH1 0x0 PUSH1 0x20 DUP3 ADD SWAP1 POP SWAP2 SWAP1 POP JUMP JUMPDEST PUSH1 0x0 PUSH2 0xC38 DUP3 PUSH2 0xBCD JUMP JUMPDEST PUSH2 0xC42 DUP2 DUP6 PUSH2 0xBD8 JUMP JUMPDEST SWAP4 POP PUSH2 0xC4D DUP4 PUSH2 0xBE9 JUMP JUMPDEST DUP1 PUSH1 0x0 JUMPDEST DUP4 DUP2 LT ISZERO PUSH2 0xC7E JUMPI DUP2 MLOAD PUSH2 0xC65 DUP9 DUP3 PUSH2 0xC08 JUMP JUMPDEST SWAP8 POP PUSH2 0xC70 DUP4 PUSH2 0xC20 JUMP JUMPDEST SWAP3 POP POP PUSH1 0x1 DUP2 ADD SWAP1 POP PUSH2 0xC51 JUMP JUMPDEST POP DUP6 SWAP4 POP POP POP POP SWAP3 SWAP2 POP POP JUMP JUMPDEST PUSH1 0x0 PUSH1 0x20 DUP3 ADD SWAP1 POP DUP2 DUP2 SUB PUSH1 0x0 DUP4 ADD MSTORE PUSH2 0xCA5 DUP2 DUP5 PUSH2 0xC2D JUMP JUMPDEST SWAP1 POP SWAP3 SWAP2 POP POP JUMP JUMPDEST PUSH2 0xCB6 DUP2 PUSH2 0x6EE JUMP JUMPDEST DUP3 MSTORE POP POP JUMP JUMPDEST PUSH1 0x0 PUSH1 0x20 DUP3 ADD SWAP1 POP PUSH2 0xCD1 PUSH1 0x0 DUP4 ADD DUP5 PUSH2 0xCAD JUMP JUMPDEST SWAP3 SWAP2 POP POP JUMP JUMPDEST PUSH32 0x4E487B7100000000000000000000000000000000000000000000000000000000 PUSH1 0x0 MSTORE PUSH1 0x32 PUSH1 0x4 MSTORE PUSH1 0x24 PUSH1 0x0 REVERT JUMPDEST PUSH2 0xD0F DUP2 PUSH2 0x72C JUMP JUMPDEST DUP3 MSTORE POP POP JUMP JUMPDEST PUSH1 0x0 PUSH1 0x60 DUP3 ADD SWAP1 POP PUSH2 0xD2A PUSH1 0x0 DUP4 ADD DUP7 PUSH2 0xCAD JUMP JUMPDEST PUSH2 0xD37 PUSH1 0x20 DUP4 ADD DUP6 PUSH2 0xCAD JUMP JUMPDEST PUSH2 0xD44 PUSH1 0x40 DUP4 ADD DUP5 PUSH2 0xD06 JUMP JUMPDEST SWAP5 SWAP4 POP POP POP POP JUMP JUMPDEST PUSH32 0x4E487B7100000000000000000000000000000000000000000000000000000000 PUSH1 0x0 MSTORE PUSH1 0x11 PUSH1 0x4 MSTORE PUSH1 0x24 PUSH1 0x0 REVERT JUMPDEST PUSH1 0x0 PUSH2 0xD86 DUP3 PUSH2 0x72C JUMP JUMPDEST SWAP2 POP PUSH32 0xFFFFFFFFFFFFFFFFFFFFFFFFFFFFFFFFFFFFFFFFFFFFFFFFFFFFFFFFFFFFFFFF DUP3 SUB PUSH2 0xDB8 JUMPI PUSH2 0xDB7 PUSH2 0xD4C JUMP JUMPDEST JUMPDEST PUSH1 0x1 DUP3 ADD SWAP1 POP SWAP2 SWAP1 POP JUMP JUMPDEST PUSH1 0x0 DUP2 SWAP1 POP SWAP3 SWAP2 POP POP JUMP JUMPDEST PUSH1 0x0 PUSH2 0xDDA DUP4 DUP6 PUSH2 0xDC3 JUMP JUMPDEST SWAP4 POP PUSH2 0xDE7 DUP4 DUP6 DUP5 PUSH2 0x829 JUMP JUMPDEST DUP3 DUP5 ADD SWAP1 POP SWAP4 SWAP3 POP POP POP JUMP JUMPDEST PUSH1 0x0 PUSH2 0xE00 DUP3 DUP5 DUP7 PUSH2 0xDCE JUMP JUMPDEST SWAP2 POP DUP2 SWAP1 POP SWAP4 SWAP3 POP POP POP JUMP INVALID LOG2 PUSH5 0x6970667358 0x22 SLT KECCAK256 SWAP4 LOG4 DUP6 XOR CALLDATASIZE LOG1 POP 0xC8 0xC0 0xAC 0xF PUSH31 0x6002CBE475E10E8A2DC65B5D04A47E887B187A464736F6C63430008110033 "
				},
				"gasEstimates": {
					"creation": {
						"codeDepositCost": "730000",
						"executionCost": "infinite",
						"totalCost": "infinite"
					},
					"external": {
						"RestorebymultipleID(address,uint256[])": "infinite",
						"Restorebysingleid(address,uint256)": "infinite",
						"admin()": "2577",
						"mint(address,bytes)": "infinite",
						"onERC721Received(address,address,uint256,bytes)": "infinite",
						"tokenIdsByNFT(address)": "infinite",
						"transfer(address)": "infinite"
					}
				},
				"methodIdentifiers": {
					"RestorebymultipleID(address,uint256[])": "3e1a037c",
					"Restorebysingleid(address,uint256)": "86aaa506",
					"admin()": "f851a440",
					"mint(address,bytes)": "b510391f",
					"onERC721Received(address,address,uint256,bytes)": "150b7a02",
					"tokenIdsByNFT(address)": "c57a1166",
					"transfer(address)": "1a695230"
				}
			},
			"storageLayout": {
				"storage": [
					{
						"astId": 153,
						"contract": "Perfect,sol.sol:NftMinter",
						"label": "admin",
						"offset": 0,
						"slot": "0",
						"type": "t_address"
					},
					{
						"astId": 158,
						"contract": "Perfect,sol.sol:NftMinter",
						"label": "tokenIdsByContract",
						"offset": 0,
						"slot": "1",
						"type": "t_mapping(t_address,t_array(t_uint256)dyn_storage)"
					}
				],
				"types": {
					"t_address": {
						"encoding": "inplace",
						"label": "address",
						"numberOfBytes": "20"
					},
					"t_array(t_uint256)dyn_storage": {
						"base": "t_uint256",
						"encoding": "dynamic_array",
						"label": "uint256[]",
						"numberOfBytes": "32"
					},
					"t_mapping(t_address,t_array(t_uint256)dyn_storage)": {
						"encoding": "mapping",
						"key": "t_address",
						"label": "mapping(address => uint256[])",
						"numberOfBytes": "32",
						"value": "t_array(t_uint256)dyn_storage"
					},
					"t_uint256": {
						"encoding": "inplace",
						"label": "uint256",
						"numberOfBytes": "32"
					}
				}
			},
			"userdoc": {
				"kind": "user",
				"methods": {},
				"version": 1
			}
		}
	}
}