{
	"newone.sol": {
		"ERC721A": {
			"abi": [
				{
					"inputs": [
						{
							"internalType": "string",
							"name": "name_",
							"type": "string"
						},
						{
							"internalType": "string",
							"name": "symbol_",
							"type": "string"
						}
					],
					"stateMutability": "nonpayable",
					"type": "constructor"
				},
				{
					"inputs": [],
					"name": "ApprovalCallerNotOwnerNorApproved",
					"type": "error"
				},
				{
					"inputs": [],
					"name": "ApprovalQueryForNonexistentToken",
					"type": "error"
				},
				{
					"inputs": [],
					"name": "BalanceQueryForZeroAddress",
					"type": "error"
				},
				{
					"inputs": [],
					"name": "MintERC2309QuantityExceedsLimit",
					"type": "error"
				},
				{
					"inputs": [],
					"name": "MintToZeroAddress",
					"type": "error"
				},
				{
					"inputs": [],
					"name": "MintZeroQuantity",
					"type": "error"
				},
				{
					"inputs": [],
					"name": "OwnerQueryForNonexistentToken",
					"type": "error"
				},
				{
					"inputs": [],
					"name": "OwnershipNotInitializedForExtraData",
					"type": "error"
				},
				{
					"inputs": [],
					"name": "TransferCallerNotOwnerNorApproved",
					"type": "error"
				},
				{
					"inputs": [],
					"name": "TransferFromIncorrectOwner",
					"type": "error"
				},
				{
					"inputs": [],
					"name": "TransferToNonERC721ReceiverImplementer",
					"type": "error"
				},
				{
					"inputs": [],
					"name": "TransferToZeroAddress",
					"type": "error"
				},
				{
					"inputs": [],
					"name": "URIQueryForNonexistentToken",
					"type": "error"
				},
				{
					"anonymous": false,
					"inputs": [
						{
							"indexed": true,
							"internalType": "address",
							"name": "owner",
							"type": "address"
						},
						{
							"indexed": true,
							"internalType": "address",
							"name": "approved",
							"type": "address"
						},
						{
							"indexed": true,
							"internalType": "uint256",
							"name": "tokenId",
							"type": "uint256"
						}
					],
					"name": "Approval",
					"type": "event"
				},
				{
					"anonymous": false,
					"inputs": [
						{
							"indexed": true,
							"internalType": "address",
							"name": "owner",
							"type": "address"
						},
						{
							"indexed": true,
							"internalType": "address",
							"name": "operator",
							"type": "address"
						},
						{
							"indexed": false,
							"internalType": "bool",
							"name": "approved",
							"type": "bool"
						}
					],
					"name": "ApprovalForAll",
					"type": "event"
				},
				{
					"anonymous": false,
					"inputs": [
						{
							"indexed": true,
							"internalType": "uint256",
							"name": "fromTokenId",
							"type": "uint256"
						},
						{
							"indexed": false,
							"internalType": "uint256",
							"name": "toTokenId",
							"type": "uint256"
						},
						{
							"indexed": true,
							"internalType": "address",
							"name": "from",
							"type": "address"
						},
						{
							"indexed": true,
							"internalType": "address",
							"name": "to",
							"type": "address"
						}
					],
					"name": "ConsecutiveTransfer",
					"type": "event"
				},
				{
					"anonymous": false,
					"inputs": [
						{
							"indexed": true,
							"internalType": "address",
							"name": "from",
							"type": "address"
						},
						{
							"indexed": true,
							"internalType": "address",
							"name": "to",
							"type": "address"
						},
						{
							"indexed": true,
							"internalType": "uint256",
							"name": "tokenId",
							"type": "uint256"
						}
					],
					"name": "Transfer",
					"type": "event"
				},
				{
					"inputs": [
						{
							"internalType": "address",
							"name": "to",
							"type": "address"
						},
						{
							"internalType": "uint256",
							"name": "tokenId",
							"type": "uint256"
						}
					],
					"name": "approve",
					"outputs": [],
					"stateMutability": "payable",
					"type": "function"
				},
				{
					"inputs": [
						{
							"internalType": "address",
							"name": "owner",
							"type": "address"
						}
					],
					"name": "balanceOf",
					"outputs": [
						{
							"internalType": "uint256",
							"name": "",
							"type": "uint256"
						}
					],
					"stateMutability": "view",
					"type": "function"
				},
				{
					"inputs": [
						{
							"internalType": "uint256",
							"name": "tokenId",
							"type": "uint256"
						}
					],
					"name": "getApproved",
					"outputs": [
						{
							"internalType": "address",
							"name": "",
							"type": "address"
						}
					],
					"stateMutability": "view",
					"type": "function"
				},
				{
					"inputs": [
						{
							"internalType": "address",
							"name": "owner",
							"type": "address"
						},
						{
							"internalType": "address",
							"name": "operator",
							"type": "address"
						}
					],
					"name": "isApprovedForAll",
					"outputs": [
						{
							"internalType": "bool",
							"name": "",
							"type": "bool"
						}
					],
					"stateMutability": "view",
					"type": "function"
				},
				{
					"inputs": [
						{
							"internalType": "uint256",
							"name": "quantity",
							"type": "uint256"
						}
					],
					"name": "mintToken",
					"outputs": [],
					"stateMutability": "payable",
					"type": "function"
				},
				{
					"inputs": [],
					"name": "name",
					"outputs": [
						{
							"internalType": "string",
							"name": "",
							"type": "string"
						}
					],
					"stateMutability": "view",
					"type": "function"
				},
				{
					"inputs": [
						{
							"internalType": "uint256",
							"name": "tokenId",
							"type": "uint256"
						}
					],
					"name": "ownerOf",
					"outputs": [
						{
							"internalType": "address",
							"name": "",
							"type": "address"
						}
					],
					"stateMutability": "view",
					"type": "function"
				},
				{
					"inputs": [
						{
							"internalType": "address",
							"name": "from",
							"type": "address"
						},
						{
							"internalType": "address",
							"name": "to",
							"type": "address"
						},
						{
							"internalType": "uint256",
							"name": "tokenId",
							"type": "uint256"
						}
					],
					"name": "safeTransferFrom",
					"outputs": [],
					"stateMutability": "payable",
					"type": "function"
				},
				{
					"inputs": [
						{
							"internalType": "address",
							"name": "from",
							"type": "address"
						},
						{
							"internalType": "address",
							"name": "to",
							"type": "address"
						},
						{
							"internalType": "uint256",
							"name": "tokenId",
							"type": "uint256"
						},
						{
							"internalType": "bytes",
							"name": "_data",
							"type": "bytes"
						}
					],
					"name": "safeTransferFrom",
					"outputs": [],
					"stateMutability": "payable",
					"type": "function"
				},
				{
					"inputs": [
						{
							"internalType": "address",
							"name": "operator",
							"type": "address"
						},
						{
							"internalType": "bool",
							"name": "approved",
							"type": "bool"
						}
					],
					"name": "setApprovalForAll",
					"outputs": [],
					"stateMutability": "nonpayable",
					"type": "function"
				},
				{
					"inputs": [
						{
							"internalType": "bytes4",
							"name": "interfaceId",
							"type": "bytes4"
						}
					],
					"name": "supportsInterface",
					"outputs": [
						{
							"internalType": "bool",
							"name": "",
							"type": "bool"
						}
					],
					"stateMutability": "view",
					"type": "function"
				},
				{
					"inputs": [],
					"name": "symbol",
					"outputs": [
						{
							"internalType": "string",
							"name": "",
							"type": "string"
						}
					],
					"stateMutability": "view",
					"type": "function"
				},
				{
					"inputs": [
						{
							"internalType": "uint256",
							"name": "tokenId",
							"type": "uint256"
						}
					],
					"name": "tokenURI",
					"outputs": [
						{
							"internalType": "string",
							"name": "",
							"type": "string"
						}
					],
					"stateMutability": "view",
					"type": "function"
				},
				{
					"inputs": [],
					"name": "totalSupply",
					"outputs": [
						{
							"internalType": "uint256",
							"name": "",
							"type": "uint256"
						}
					],
					"stateMutability": "view",
					"type": "function"
				},
				{
					"inputs": [
						{
							"internalType": "address",
							"name": "from",
							"type": "address"
						},
						{
							"internalType": "address",
							"name": "to",
							"type": "address"
						},
						{
							"internalType": "uint256",
							"name": "tokenId",
							"type": "uint256"
						}
					],
					"name": "transferFrom",
					"outputs": [],
					"stateMutability": "payable",
					"type": "function"
				}
			],
			"devdoc": {
				"details": "Implementation of the [ERC721](https://eips.ethereum.org/EIPS/eip-721) Non-Fungible Token Standard, including the Metadata extension. Optimized for lower gas during batch mints. Token IDs are minted in sequential order (e.g. 0, 1, 2, 3, ...) starting from `_startTokenId()`. Assumptions: - An owner cannot have more than 2**64 - 1 (max value of uint64) of supply. - The maximum token ID cannot exceed 2**256 - 1 (max value of uint256).",
				"kind": "dev",
				"methods": {
					"approve(address,uint256)": {
						"details": "Gives permission to `to` to transfer `tokenId` token to another account. See {ERC721A-_approve}. Requirements: - The caller must own the token or be an approved operator."
					},
					"balanceOf(address)": {
						"details": "Returns the number of tokens in `owner`'s account."
					},
					"getApproved(uint256)": {
						"details": "Returns the account approved for `tokenId` token. Requirements: - `tokenId` must exist."
					},
					"isApprovedForAll(address,address)": {
						"details": "Returns if the `operator` is allowed to manage all of the assets of `owner`. See {setApprovalForAll}."
					},
					"name()": {
						"details": "Returns the token collection name."
					},
					"ownerOf(uint256)": {
						"details": "Returns the owner of the `tokenId` token. Requirements: - `tokenId` must exist."
					},
					"safeTransferFrom(address,address,uint256)": {
						"details": "Equivalent to `safeTransferFrom(from, to, tokenId, '')`."
					},
					"safeTransferFrom(address,address,uint256,bytes)": {
						"details": "Safely transfers `tokenId` token from `from` to `to`. Requirements: - `from` cannot be the zero address. - `to` cannot be the zero address. - `tokenId` token must exist and be owned by `from`. - If the caller is not `from`, it must be approved to move this token by either {approve} or {setApprovalForAll}. - If `to` refers to a smart contract, it must implement {IERC721Receiver-onERC721Received}, which is called upon a safe transfer. Emits a {Transfer} event."
					},
					"setApprovalForAll(address,bool)": {
						"details": "Approve or remove `operator` as an operator for the caller. Operators can call {transferFrom} or {safeTransferFrom} for any token owned by the caller. Requirements: - The `operator` cannot be the caller. Emits an {ApprovalForAll} event."
					},
					"supportsInterface(bytes4)": {
						"details": "Returns true if this contract implements the interface defined by `interfaceId`. See the corresponding [EIP section](https://eips.ethereum.org/EIPS/eip-165#how-interfaces-are-identified) to learn more about how these ids are created. This function call must use less than 30000 gas."
					},
					"symbol()": {
						"details": "Returns the token collection symbol."
					},
					"tokenURI(uint256)": {
						"details": "Returns the Uniform Resource Identifier (URI) for `tokenId` token."
					},
					"totalSupply()": {
						"details": "Returns the total number of tokens in existence. Burned tokens will reduce the count. To get the total number of tokens minted, please see {_totalMinted}."
					},
					"transferFrom(address,address,uint256)": {
						"details": "Transfers `tokenId` from `from` to `to`. Requirements: - `from` cannot be the zero address. - `to` cannot be the zero address. - `tokenId` token must be owned by `from`. - If the caller is not `from`, it must be approved to move this token by either {approve} or {setApprovalForAll}. Emits a {Transfer} event."
					}
				},
				"title": "ERC721A",
				"version": 1
			},
			"evm": {
				"assembly": "    /* \"newone.sol\":895:42959  contract ERC721A is IERC721A {... */\n  mstore(0x40, 0x80)\n    /* \"newone.sol\":5052:5206  constructor(string memory name_, string memory symbol_) {... */\n  callvalue\n  dup1\n  iszero\n  tag_1\n  jumpi\n  0x00\n  dup1\n  revert\ntag_1:\n  pop\n  mload(0x40)\n  sub(codesize, bytecodeSize)\n  dup1\n  bytecodeSize\n  dup4\n  codecopy\n  dup2\n  add\n  0x40\n  dup2\n  swap1\n  mstore\n  tag_2\n  swap2\n  tag_3\n  jump\t// in\ntag_2:\n    /* \"newone.sol\":5118:5123  _name */\n  0x02\n    /* \"newone.sol\":5118:5131  _name = name_ */\n  tag_6\n    /* \"newone.sol\":5126:5131  name_ */\n  dup4\n    /* \"newone.sol\":5118:5123  _name */\n  dup3\n    /* \"newone.sol\":5118:5131  _name = name_ */\n  tag_7\n  jump\t// in\ntag_6:\n  pop\n    /* \"newone.sol\":5141:5148  _symbol */\n  0x03\n    /* \"newone.sol\":5141:5158  _symbol = symbol_ */\n  tag_8\n    /* \"newone.sol\":5151:5158  symbol_ */\n  dup3\n    /* \"newone.sol\":5141:5148  _symbol */\n  dup3\n    /* \"newone.sol\":5141:5158  _symbol = symbol_ */\n  tag_7\n  jump\t// in\ntag_8:\n  pop\n  pop\n    /* \"newone.sol\":5588:5595  uint256 */\n  0x00\n    /* \"newone.sol\":5168:5199  _currentIndex = _startTokenId() */\n  dup1\n  sstore\n  pop\n    /* \"newone.sol\":895:42959  contract ERC721A is IERC721A {... */\n  jump(tag_19)\n    /* \"#utility.yul\":14:141   */\ntag_13:\n    /* \"#utility.yul\":75:85   */\n  0x4e487b71\n    /* \"#utility.yul\":70:73   */\n  0xe0\n    /* \"#utility.yul\":66:86   */\n  shl\n    /* \"#utility.yul\":63:64   */\n  0x00\n    /* \"#utility.yul\":56:87   */\n  mstore\n    /* \"#utility.yul\":106:110   */\n  0x41\n    /* \"#utility.yul\":103:104   */\n  0x04\n    /* \"#utility.yul\":96:111   */\n  mstore\n    /* \"#utility.yul\":130:134   */\n  0x24\n    /* \"#utility.yul\":127:128   */\n  0x00\n    /* \"#utility.yul\":120:135   */\n  revert\n    /* \"#utility.yul\":146:986   */\ntag_14:\n    /* \"#utility.yul\":200:205   */\n  0x00\n    /* \"#utility.yul\":253:256   */\n  dup3\n    /* \"#utility.yul\":246:250   */\n  0x1f\n    /* \"#utility.yul\":238:244   */\n  dup4\n    /* \"#utility.yul\":234:251   */\n  add\n    /* \"#utility.yul\":230:257   */\n  slt\n    /* \"#utility.yul\":220:275   */\n  tag_22\n  jumpi\n    /* \"#utility.yul\":271:272   */\n  0x00\n    /* \"#utility.yul\":268:269   */\n  dup1\n    /* \"#utility.yul\":261:273   */\n  revert\n    /* \"#utility.yul\":220:275   */\ntag_22:\n    /* \"#utility.yul\":294:307   */\n  dup2\n  mload\n  sub(shl(0x40, 0x01), 0x01)\n    /* \"#utility.yul\":356:366   */\n  dup1\n  dup3\n  gt\n    /* \"#utility.yul\":353:389   */\n  iszero\n  tag_24\n  jumpi\n    /* \"#utility.yul\":369:387   */\n  tag_24\n  tag_13\n  jump\t// in\ntag_24:\n    /* \"#utility.yul\":444:446   */\n  0x40\n    /* \"#utility.yul\":438:447   */\n  mload\n    /* \"#utility.yul\":412:414   */\n  0x1f\n    /* \"#utility.yul\":498:511   */\n  dup4\n  add\n  not(0x1f)\n    /* \"#utility.yul\":494:516   */\n  swap1\n  dup2\n  and\n    /* \"#utility.yul\":518:520   */\n  0x3f\n    /* \"#utility.yul\":490:521   */\n  add\n    /* \"#utility.yul\":486:526   */\n  and\n    /* \"#utility.yul\":474:527   */\n  dup2\n  add\n  swap1\n    /* \"#utility.yul\":542:560   */\n  dup3\n  dup3\n  gt\n    /* \"#utility.yul\":562:584   */\n  dup2\n  dup4\n  lt\n    /* \"#utility.yul\":539:585   */\n  or\n    /* \"#utility.yul\":536:608   */\n  iszero\n  tag_26\n  jumpi\n    /* \"#utility.yul\":588:606   */\n  tag_26\n  tag_13\n  jump\t// in\ntag_26:\n    /* \"#utility.yul\":628:638   */\n  dup2\n    /* \"#utility.yul\":624:626   */\n  0x40\n    /* \"#utility.yul\":617:639   */\n  mstore\n    /* \"#utility.yul\":663:665   */\n  dup4\n    /* \"#utility.yul\":655:661   */\n  dup2\n    /* \"#utility.yul\":648:666   */\n  mstore\n    /* \"#utility.yul\":685:689   */\n  0x20\n    /* \"#utility.yul\":675:689   */\n  swap3\n  pop\n    /* \"#utility.yul\":730:733   */\n  dup7\n    /* \"#utility.yul\":725:727   */\n  dup4\n    /* \"#utility.yul\":720:722   */\n  dup6\n    /* \"#utility.yul\":712:718   */\n  dup9\n    /* \"#utility.yul\":708:723   */\n  add\n    /* \"#utility.yul\":704:728   */\n  add\n    /* \"#utility.yul\":701:734   */\n  gt\n    /* \"#utility.yul\":698:751   */\n  iszero\n  tag_27\n  jumpi\n    /* \"#utility.yul\":747:748   */\n  0x00\n    /* \"#utility.yul\":744:745   */\n  dup1\n    /* \"#utility.yul\":737:749   */\n  revert\n    /* \"#utility.yul\":698:751   */\ntag_27:\n    /* \"#utility.yul\":769:770   */\n  0x00\n    /* \"#utility.yul\":760:770   */\n  swap2\n  pop\n    /* \"#utility.yul\":779:912   */\ntag_28:\n    /* \"#utility.yul\":793:795   */\n  dup4\n    /* \"#utility.yul\":790:791   */\n  dup3\n    /* \"#utility.yul\":787:796   */\n  lt\n    /* \"#utility.yul\":779:912   */\n  iszero\n  tag_30\n  jumpi\n    /* \"#utility.yul\":881:895   */\n  dup6\n  dup3\n  add\n    /* \"#utility.yul\":877:900   */\n  dup4\n  add\n    /* \"#utility.yul\":871:901   */\n  mload\n    /* \"#utility.yul\":850:864   */\n  dup2\n  dup4\n  add\n    /* \"#utility.yul\":846:869   */\n  dup5\n  add\n    /* \"#utility.yul\":839:902   */\n  mstore\n    /* \"#utility.yul\":804:814   */\n  swap1\n  dup3\n  add\n  swap1\n    /* \"#utility.yul\":779:912   */\n  jump(tag_28)\ntag_30:\n    /* \"#utility.yul\":954:955   */\n  0x00\n    /* \"#utility.yul\":932:947   */\n  swap4\n  dup2\n  add\n    /* \"#utility.yul\":928:952   */\n  swap1\n  swap3\n  add\n    /* \"#utility.yul\":921:956   */\n  swap3\n  swap1\n  swap3\n  mstore\n    /* \"#utility.yul\":936:942   */\n  swap5\n    /* \"#utility.yul\":146:986   */\n  swap4\n  pop\n  pop\n  pop\n  pop\n  jump\t// out\n    /* \"#utility.yul\":991:1553   */\ntag_3:\n    /* \"#utility.yul\":1090:1096   */\n  0x00\n    /* \"#utility.yul\":1098:1104   */\n  dup1\n    /* \"#utility.yul\":1151:1153   */\n  0x40\n    /* \"#utility.yul\":1139:1148   */\n  dup4\n    /* \"#utility.yul\":1130:1137   */\n  dup6\n    /* \"#utility.yul\":1126:1149   */\n  sub\n    /* \"#utility.yul\":1122:1154   */\n  slt\n    /* \"#utility.yul\":1119:1171   */\n  iszero\n  tag_32\n  jumpi\n    /* \"#utility.yul\":1167:1168   */\n  0x00\n    /* \"#utility.yul\":1164:1165   */\n  dup1\n    /* \"#utility.yul\":1157:1169   */\n  revert\n    /* \"#utility.yul\":1119:1171   */\ntag_32:\n    /* \"#utility.yul\":1194:1210   */\n  dup3\n  mload\n  sub(shl(0x40, 0x01), 0x01)\n    /* \"#utility.yul\":1259:1273   */\n  dup1\n  dup3\n  gt\n    /* \"#utility.yul\":1256:1290   */\n  iszero\n  tag_33\n  jumpi\n    /* \"#utility.yul\":1286:1287   */\n  0x00\n    /* \"#utility.yul\":1283:1284   */\n  dup1\n    /* \"#utility.yul\":1276:1288   */\n  revert\n    /* \"#utility.yul\":1256:1290   */\ntag_33:\n    /* \"#utility.yul\":1309:1370   */\n  tag_34\n    /* \"#utility.yul\":1362:1369   */\n  dup7\n    /* \"#utility.yul\":1353:1359   */\n  dup4\n    /* \"#utility.yul\":1342:1351   */\n  dup8\n    /* \"#utility.yul\":1338:1360   */\n  add\n    /* \"#utility.yul\":1309:1370   */\n  tag_14\n  jump\t// in\ntag_34:\n    /* \"#utility.yul\":1299:1370   */\n  swap4\n  pop\n    /* \"#utility.yul\":1416:1418   */\n  0x20\n    /* \"#utility.yul\":1405:1414   */\n  dup6\n    /* \"#utility.yul\":1401:1419   */\n  add\n    /* \"#utility.yul\":1395:1420   */\n  mload\n    /* \"#utility.yul\":1379:1420   */\n  swap2\n  pop\n    /* \"#utility.yul\":1445:1447   */\n  dup1\n    /* \"#utility.yul\":1435:1443   */\n  dup3\n    /* \"#utility.yul\":1432:1448   */\n  gt\n    /* \"#utility.yul\":1429:1465   */\n  iszero\n  tag_35\n  jumpi\n    /* \"#utility.yul\":1461:1462   */\n  0x00\n    /* \"#utility.yul\":1458:1459   */\n  dup1\n    /* \"#utility.yul\":1451:1463   */\n  revert\n    /* \"#utility.yul\":1429:1465   */\ntag_35:\n  pop\n    /* \"#utility.yul\":1484:1547   */\n  tag_36\n    /* \"#utility.yul\":1539:1546   */\n  dup6\n    /* \"#utility.yul\":1528:1536   */\n  dup3\n    /* \"#utility.yul\":1517:1526   */\n  dup7\n    /* \"#utility.yul\":1513:1537   */\n  add\n    /* \"#utility.yul\":1484:1547   */\n  tag_14\n  jump\t// in\ntag_36:\n    /* \"#utility.yul\":1474:1547   */\n  swap2\n  pop\n  pop\n    /* \"#utility.yul\":991:1553   */\n  swap3\n  pop\n  swap3\n  swap1\n  pop\n  jump\t// out\n    /* \"#utility.yul\":1558:1938   */\ntag_15:\n    /* \"#utility.yul\":1637:1638   */\n  0x01\n    /* \"#utility.yul\":1633:1645   */\n  dup2\n  dup2\n  shr\n  swap1\n    /* \"#utility.yul\":1680:1692   */\n  dup3\n  and\n  dup1\n    /* \"#utility.yul\":1701:1762   */\n  tag_38\n  jumpi\n    /* \"#utility.yul\":1755:1759   */\n  0x7f\n    /* \"#utility.yul\":1747:1753   */\n  dup3\n    /* \"#utility.yul\":1743:1760   */\n  and\n    /* \"#utility.yul\":1733:1760   */\n  swap2\n  pop\n    /* \"#utility.yul\":1701:1762   */\ntag_38:\n    /* \"#utility.yul\":1808:1810   */\n  0x20\n    /* \"#utility.yul\":1800:1806   */\n  dup3\n    /* \"#utility.yul\":1797:1811   */\n  lt\n    /* \"#utility.yul\":1777:1795   */\n  dup2\n    /* \"#utility.yul\":1774:1812   */\n  sub\n    /* \"#utility.yul\":1771:1932   */\n  tag_39\n  jumpi\n    /* \"#utility.yul\":1854:1864   */\n  0x4e487b71\n    /* \"#utility.yul\":1849:1852   */\n  0xe0\n    /* \"#utility.yul\":1845:1865   */\n  shl\n    /* \"#utility.yul\":1842:1843   */\n  0x00\n    /* \"#utility.yul\":1835:1866   */\n  mstore\n    /* \"#utility.yul\":1889:1893   */\n  0x22\n    /* \"#utility.yul\":1886:1887   */\n  0x04\n    /* \"#utility.yul\":1879:1894   */\n  mstore\n    /* \"#utility.yul\":1917:1921   */\n  0x24\n    /* \"#utility.yul\":1914:1915   */\n  0x00\n    /* \"#utility.yul\":1907:1922   */\n  revert\n    /* \"#utility.yul\":1771:1932   */\ntag_39:\n  pop\n    /* \"#utility.yul\":1558:1938   */\n  swap2\n  swap1\n  pop\n  jump\t// out\n    /* \"#utility.yul\":2069:2614   */\ntag_17:\n    /* \"#utility.yul\":2171:2173   */\n  0x1f\n    /* \"#utility.yul\":2166:2169   */\n  dup3\n    /* \"#utility.yul\":2163:2174   */\n  gt\n    /* \"#utility.yul\":2160:2608   */\n  iszero\n  tag_42\n  jumpi\n    /* \"#utility.yul\":2207:2208   */\n  0x00\n    /* \"#utility.yul\":2232:2237   */\n  dup2\n    /* \"#utility.yul\":2228:2230   */\n  dup2\n    /* \"#utility.yul\":2221:2238   */\n  mstore\n    /* \"#utility.yul\":2277:2281   */\n  0x20\n    /* \"#utility.yul\":2273:2275   */\n  dup2\n    /* \"#utility.yul\":2263:2282   */\n  keccak256\n    /* \"#utility.yul\":2347:2349   */\n  0x1f\n    /* \"#utility.yul\":2335:2345   */\n  dup6\n    /* \"#utility.yul\":2331:2350   */\n  add\n    /* \"#utility.yul\":2328:2329   */\n  0x05\n    /* \"#utility.yul\":2324:2351   */\n  shr\n    /* \"#utility.yul\":2318:2322   */\n  dup2\n    /* \"#utility.yul\":2314:2352   */\n  add\n    /* \"#utility.yul\":2383:2387   */\n  0x20\n    /* \"#utility.yul\":2371:2381   */\n  dup7\n    /* \"#utility.yul\":2368:2388   */\n  lt\n    /* \"#utility.yul\":2365:2412   */\n  iszero\n  tag_43\n  jumpi\n  pop\n    /* \"#utility.yul\":2406:2410   */\n  dup1\n    /* \"#utility.yul\":2365:2412   */\ntag_43:\n    /* \"#utility.yul\":2461:2463   */\n  0x1f\n    /* \"#utility.yul\":2456:2459   */\n  dup6\n    /* \"#utility.yul\":2452:2464   */\n  add\n    /* \"#utility.yul\":2449:2450   */\n  0x05\n    /* \"#utility.yul\":2445:2465   */\n  shr\n    /* \"#utility.yul\":2439:2443   */\n  dup3\n    /* \"#utility.yul\":2435:2466   */\n  add\n    /* \"#utility.yul\":2425:2466   */\n  swap2\n  pop\n    /* \"#utility.yul\":2516:2598   */\ntag_44:\n    /* \"#utility.yul\":2534:2536   */\n  dup2\n    /* \"#utility.yul\":2527:2532   */\n  dup2\n    /* \"#utility.yul\":2524:2537   */\n  lt\n    /* \"#utility.yul\":2516:2598   */\n  iszero\n  tag_46\n  jumpi\n    /* \"#utility.yul\":2579:2596   */\n  dup3\n  dup2\n  sstore\n    /* \"#utility.yul\":2560:2561   */\n  0x01\n    /* \"#utility.yul\":2549:2562   */\n  add\n    /* \"#utility.yul\":2516:2598   */\n  jump(tag_44)\ntag_46:\n    /* \"#utility.yul\":2520:2523   */\n  pop\n  pop\n  pop\n    /* \"#utility.yul\":2160:2608   */\ntag_42:\n    /* \"#utility.yul\":2069:2614   */\n  pop\n  pop\n  pop\n  jump\t// out\n    /* \"#utility.yul\":2790:4142   */\ntag_7:\n    /* \"#utility.yul\":2910:2920   */\n  dup2\n  mload\n  sub(shl(0x40, 0x01), 0x01)\n    /* \"#utility.yul\":2932:2962   */\n  dup2\n  gt\n    /* \"#utility.yul\":2929:2985   */\n  iszero\n  tag_50\n  jumpi\n    /* \"#utility.yul\":2965:2983   */\n  tag_50\n  tag_13\n  jump\t// in\ntag_50:\n    /* \"#utility.yul\":2994:3091   */\n  tag_51\n    /* \"#utility.yul\":3084:3090   */\n  dup2\n    /* \"#utility.yul\":3044:3082   */\n  tag_52\n    /* \"#utility.yul\":3076:3080   */\n  dup5\n    /* \"#utility.yul\":3070:3081   */\n  sload\n    /* \"#utility.yul\":3044:3082   */\n  tag_15\n  jump\t// in\ntag_52:\n    /* \"#utility.yul\":3038:3042   */\n  dup5\n    /* \"#utility.yul\":2994:3091   */\n  tag_17\n  jump\t// in\ntag_51:\n    /* \"#utility.yul\":3146:3150   */\n  0x20\n  dup1\n    /* \"#utility.yul\":3210:3212   */\n  0x1f\n    /* \"#utility.yul\":3199:3213   */\n  dup4\n  gt\n    /* \"#utility.yul\":3227:3228   */\n  0x01\n    /* \"#utility.yul\":3222:3885   */\n  dup2\n  eq\n  tag_54\n  jumpi\n    /* \"#utility.yul\":3929:3930   */\n  0x00\n    /* \"#utility.yul\":3946:3952   */\n  dup5\n    /* \"#utility.yul\":3943:4032   */\n  iszero\n  tag_55\n  jumpi\n  pop\n    /* \"#utility.yul\":3998:4017   */\n  dup6\n  dup4\n  add\n    /* \"#utility.yul\":3992:4018   */\n  mload\n    /* \"#utility.yul\":3943:4032   */\ntag_55:\n  not(0x00)\n    /* \"#utility.yul\":2747:2748   */\n  0x03\n    /* \"#utility.yul\":2743:2754   */\n  dup7\n  swap1\n  shl\n    /* \"#utility.yul\":2739:2763   */\n  shr\n    /* \"#utility.yul\":2735:2764   */\n  not\n    /* \"#utility.yul\":2725:2765   */\n  and\n    /* \"#utility.yul\":2771:2772   */\n  0x01\n    /* \"#utility.yul\":2767:2778   */\n  dup6\n  swap1\n  shl\n    /* \"#utility.yul\":2722:2779   */\n  or\n    /* \"#utility.yul\":4045:4126   */\n  dup6\n  sstore\n    /* \"#utility.yul\":3192:4136   */\n  jump(tag_46)\n    /* \"#utility.yul\":3222:3885   */\ntag_54:\n    /* \"#utility.yul\":2016:2017   */\n  0x00\n    /* \"#utility.yul\":2009:2023   */\n  dup6\n  dup2\n  mstore\n    /* \"#utility.yul\":2053:2057   */\n  0x20\n    /* \"#utility.yul\":2040:2058   */\n  dup2\n  keccak256\n  not(0x1f)\n    /* \"#utility.yul\":3258:3278   */\n  dup7\n  and\n  swap2\n    /* \"#utility.yul\":3376:3612   */\ntag_58:\n    /* \"#utility.yul\":3390:3397   */\n  dup3\n    /* \"#utility.yul\":3387:3388   */\n  dup2\n    /* \"#utility.yul\":3384:3398   */\n  lt\n    /* \"#utility.yul\":3376:3612   */\n  iszero\n  tag_60\n  jumpi\n    /* \"#utility.yul\":3479:3498   */\n  dup9\n  dup7\n  add\n    /* \"#utility.yul\":3473:3499   */\n  mload\n    /* \"#utility.yul\":3458:3500   */\n  dup3\n  sstore\n    /* \"#utility.yul\":3571:3598   */\n  swap5\n  dup5\n  add\n  swap5\n    /* \"#utility.yul\":3539:3540   */\n  0x01\n    /* \"#utility.yul\":3527:3541   */\n  swap1\n  swap2\n  add\n  swap1\n    /* \"#utility.yul\":3406:3425   */\n  dup5\n  add\n    /* \"#utility.yul\":3376:3612   */\n  jump(tag_58)\ntag_60:\n    /* \"#utility.yul\":3380:3383   */\n  pop\n    /* \"#utility.yul\":3640:3646   */\n  dup6\n    /* \"#utility.yul\":3631:3638   */\n  dup3\n    /* \"#utility.yul\":3628:3647   */\n  lt\n    /* \"#utility.yul\":3625:3826   */\n  iszero\n  tag_61\n  jumpi\n    /* \"#utility.yul\":3701:3720   */\n  dup8\n  dup6\n  add\n    /* \"#utility.yul\":3695:3721   */\n  mload\n  not(0x00)\n    /* \"#utility.yul\":3784:3785   */\n  0x03\n    /* \"#utility.yul\":3780:3794   */\n  dup9\n  swap1\n  shl\n    /* \"#utility.yul\":3796:3799   */\n  0xf8\n    /* \"#utility.yul\":3776:3800   */\n  and\n    /* \"#utility.yul\":3772:3809   */\n  shr\n    /* \"#utility.yul\":3768:3810   */\n  not\n    /* \"#utility.yul\":3753:3811   */\n  and\n    /* \"#utility.yul\":3738:3812   */\n  dup2\n  sstore\n    /* \"#utility.yul\":3625:3826   */\ntag_61:\n  pop\n  pop\n  pop\n  pop\n  pop\n    /* \"#utility.yul\":3872:3873   */\n  0x01\n    /* \"#utility.yul\":3856:3870   */\n  swap1\n  dup2\n  shl\n    /* \"#utility.yul\":3852:3874   */\n  add\n    /* \"#utility.yul\":3839:3875   */\n  swap1\n  sstore\n  pop\n    /* \"#utility.yul\":2790:4142   */\n  jump\t// out\ntag_19:\n    /* \"newone.sol\":895:42959  contract ERC721A is IERC721A {... */\n  dataSize(sub_0)\n  dup1\n  dataOffset(sub_0)\n  0x00\n  codecopy\n  0x00\n  return\nstop\n\nsub_0: assembly {\n        /* \"newone.sol\":895:42959  contract ERC721A is IERC721A {... */\n      mstore(0x40, 0x80)\n      jumpi(tag_1, lt(calldatasize, 0x04))\n      shr(0xe0, calldataload(0x00))\n      dup1\n      0x6352211e\n      gt\n      tag_17\n      jumpi\n      dup1\n      0xb88d4fde\n      gt\n      tag_18\n      jumpi\n      dup1\n      0xb88d4fde\n      eq\n      tag_13\n      jumpi\n      dup1\n      0xc634d032\n      eq\n      tag_14\n      jumpi\n      dup1\n      0xc87b56dd\n      eq\n      tag_15\n      jumpi\n      dup1\n      0xe985e9c5\n      eq\n      tag_16\n      jumpi\n      0x00\n      dup1\n      revert\n    tag_18:\n      dup1\n      0x6352211e\n      eq\n      tag_9\n      jumpi\n      dup1\n      0x70a08231\n      eq\n      tag_10\n      jumpi\n      dup1\n      0x95d89b41\n      eq\n      tag_11\n      jumpi\n      dup1\n      0xa22cb465\n      eq\n      tag_12\n      jumpi\n      0x00\n      dup1\n      revert\n    tag_17:\n      dup1\n      0x095ea7b3\n      gt\n      tag_19\n      jumpi\n      dup1\n      0x095ea7b3\n      eq\n      tag_5\n      jumpi\n      dup1\n      0x18160ddd\n      eq\n      tag_6\n      jumpi\n      dup1\n      0x23b872dd\n      eq\n      tag_7\n      jumpi\n      dup1\n      0x42842e0e\n      eq\n      tag_8\n      jumpi\n      0x00\n      dup1\n      revert\n    tag_19:\n      dup1\n      0x01ffc9a7\n      eq\n      tag_2\n      jumpi\n      dup1\n      0x06fdde03\n      eq\n      tag_3\n      jumpi\n      dup1\n      0x081812fc\n      eq\n      tag_4\n      jumpi\n    tag_1:\n      0x00\n      dup1\n      revert\n        /* \"newone.sol\":9270:9900  function supportsInterface(bytes4 interfaceId) public view virtual override returns (bool) {... */\n    tag_2:\n      callvalue\n      dup1\n      iszero\n      tag_20\n      jumpi\n      0x00\n      dup1\n      revert\n    tag_20:\n      pop\n      tag_21\n      tag_22\n      calldatasize\n      0x04\n      tag_23\n      jump\t// in\n    tag_22:\n      tag_24\n      jump\t// in\n    tag_21:\n      mload(0x40)\n        /* \"#utility.yul\":611:625   */\n      swap1\n      iszero\n        /* \"#utility.yul\":604:626   */\n      iszero\n        /* \"#utility.yul\":586:627   */\n      dup2\n      mstore\n        /* \"#utility.yul\":574:576   */\n      0x20\n        /* \"#utility.yul\":559:577   */\n      add\n        /* \"newone.sol\":9270:9900  function supportsInterface(bytes4 interfaceId) public view virtual override returns (bool) {... */\n    tag_25:\n      mload(0x40)\n      dup1\n      swap2\n      sub\n      swap1\n      return\n        /* \"newone.sol\":10154:10252  function name() public view virtual override returns (string memory) {... */\n    tag_3:\n      callvalue\n      dup1\n      iszero\n      tag_27\n      jumpi\n      0x00\n      dup1\n      revert\n    tag_27:\n      pop\n      tag_28\n      tag_29\n      jump\t// in\n    tag_28:\n      mload(0x40)\n      tag_25\n      swap2\n      swap1\n      tag_31\n      jump\t// in\n        /* \"newone.sol\":16420:16643  function getApproved(uint256 tokenId) public view virtual override returns (address) {... */\n    tag_4:\n      callvalue\n      dup1\n      iszero\n      tag_32\n      jumpi\n      0x00\n      dup1\n      revert\n    tag_32:\n      pop\n      tag_33\n      tag_34\n      calldatasize\n      0x04\n      tag_35\n      jump\t// in\n    tag_34:\n      tag_36\n      jump\t// in\n    tag_33:\n      mload(0x40)\n        /* \"#utility.yul\":1814:1856   */\n      0xffffffffffffffffffffffffffffffffffffffff\n        /* \"#utility.yul\":1802:1857   */\n      swap1\n      swap2\n      and\n        /* \"#utility.yul\":1784:1858   */\n      dup2\n      mstore\n        /* \"#utility.yul\":1772:1774   */\n      0x20\n        /* \"#utility.yul\":1757:1775   */\n      add\n        /* \"newone.sol\":16420:16643  function getApproved(uint256 tokenId) public view virtual override returns (address) {... */\n      tag_25\n        /* \"#utility.yul\":1638:1864   */\n      jump\n        /* \"newone.sol\":16148:16270  function approve(address to, uint256 tokenId) public payable virtual override {... */\n    tag_5:\n      tag_39\n      tag_40\n      calldatasize\n      0x04\n      tag_41\n      jump\t// in\n    tag_40:\n      tag_42\n      jump\t// in\n    tag_39:\n      stop\n        /* \"newone.sol\":6000:6317  function totalSupply() public view virtual override returns (uint256) {... */\n    tag_6:\n      callvalue\n      dup1\n      iszero\n      tag_43\n      jumpi\n      0x00\n      dup1\n      revert\n    tag_43:\n      pop\n        /* \"newone.sol\":6270:6282  _burnCounter */\n      sload(0x01)\n        /* \"newone.sol\":6061:6068  uint256 */\n      0x00\n        /* \"newone.sol\":6254:6267  _currentIndex */\n      sload\n        /* \"newone.sol\":6254:6282  _currentIndex - _burnCounter */\n      sub\n        /* \"newone.sol\":6000:6317  function totalSupply() public view virtual override returns (uint256) {... */\n    tag_44:\n      mload(0x40)\n        /* \"#utility.yul\":2475:2500   */\n      swap1\n      dup2\n      mstore\n        /* \"#utility.yul\":2463:2465   */\n      0x20\n        /* \"#utility.yul\":2448:2466   */\n      add\n        /* \"newone.sol\":6000:6317  function totalSupply() public view virtual override returns (uint256) {... */\n      tag_25\n        /* \"#utility.yul\":2329:2506   */\n      jump\n        /* \"newone.sol\":19972:23419  function transferFrom(... */\n    tag_7:\n      tag_39\n      tag_49\n      calldatasize\n      0x04\n      tag_50\n      jump\t// in\n    tag_49:\n      tag_51\n      jump\t// in\n        /* \"newone.sol\":23510:23697  function safeTransferFrom(... */\n    tag_8:\n      tag_39\n      tag_53\n      calldatasize\n      0x04\n      tag_50\n      jump\t// in\n    tag_53:\n      tag_54\n      jump\t// in\n        /* \"newone.sol\":11515:11665  function ownerOf(uint256 tokenId) public view virtual override returns (address) {... */\n    tag_9:\n      callvalue\n      dup1\n      iszero\n      tag_55\n      jumpi\n      0x00\n      dup1\n      revert\n    tag_55:\n      pop\n      tag_33\n      tag_57\n      calldatasize\n      0x04\n      tag_35\n      jump\t// in\n    tag_57:\n      tag_58\n      jump\t// in\n        /* \"newone.sol\":7151:7390  function balanceOf(address owner) public view virtual override returns (uint256) {... */\n    tag_10:\n      callvalue\n      dup1\n      iszero\n      tag_60\n      jumpi\n      0x00\n      dup1\n      revert\n    tag_60:\n      pop\n      tag_44\n      tag_62\n      calldatasize\n      0x04\n      tag_63\n      jump\t// in\n    tag_62:\n      tag_64\n      jump\t// in\n        /* \"newone.sol\":10323:10425  function symbol() public view virtual override returns (string memory) {... */\n    tag_11:\n      callvalue\n      dup1\n      iszero\n      tag_66\n      jumpi\n      0x00\n      dup1\n      revert\n    tag_66:\n      pop\n      tag_28\n      tag_68\n      jump\t// in\n        /* \"newone.sol\":16970:17201  function setApprovalForAll(address operator, bool approved) public virtual override {... */\n    tag_12:\n      callvalue\n      dup1\n      iszero\n      tag_70\n      jumpi\n      0x00\n      dup1\n      revert\n    tag_70:\n      pop\n      tag_39\n      tag_72\n      calldatasize\n      0x04\n      tag_73\n      jump\t// in\n    tag_72:\n      tag_74\n      jump\t// in\n        /* \"newone.sol\":24278:24683  function safeTransferFrom(... */\n    tag_13:\n      tag_39\n      tag_76\n      calldatasize\n      0x04\n      tag_77\n      jump\t// in\n    tag_76:\n      tag_78\n      jump\t// in\n        /* \"newone.sol\":1075:1176  function mintToken(uint256 quantity) public payable  {... */\n    tag_14:\n      tag_39\n      tag_80\n      calldatasize\n      0x04\n      tag_35\n      jump\t// in\n    tag_80:\n      tag_81\n      jump\t// in\n        /* \"newone.sol\":10526:10848  function tokenURI(uint256 tokenId) public view virtual override returns (string memory) {... */\n    tag_15:\n      callvalue\n      dup1\n      iszero\n      tag_82\n      jumpi\n      0x00\n      dup1\n      revert\n    tag_82:\n      pop\n      tag_28\n      tag_84\n      calldatasize\n      0x04\n      tag_35\n      jump\t// in\n    tag_84:\n      tag_85\n      jump\t// in\n        /* \"newone.sol\":17351:17513  function isApprovedForAll(address owner, address operator) public view virtual override returns (bool) {... */\n    tag_16:\n      callvalue\n      dup1\n      iszero\n      tag_87\n      jumpi\n      0x00\n      dup1\n      revert\n    tag_87:\n      pop\n      tag_21\n      tag_89\n      calldatasize\n      0x04\n      tag_90\n      jump\t// in\n    tag_89:\n        /* \"newone.sol\":17471:17496  _operatorApprovals[owner] */\n      0xffffffffffffffffffffffffffffffffffffffff\n      swap2\n      dup3\n      and\n        /* \"newone.sol\":17448:17452  bool */\n      0x00\n        /* \"newone.sol\":17471:17496  _operatorApprovals[owner] */\n      swap1\n      dup2\n      mstore\n        /* \"newone.sol\":17471:17489  _operatorApprovals */\n      0x07\n        /* \"newone.sol\":17471:17496  _operatorApprovals[owner] */\n      0x20\n      swap1\n      dup2\n      mstore\n      0x40\n      dup1\n      dup4\n      keccak256\n        /* \"newone.sol\":17471:17506  _operatorApprovals[owner][operator] */\n      swap4\n      swap1\n      swap5\n      and\n      dup3\n      mstore\n      swap2\n      swap1\n      swap2\n      mstore\n      keccak256\n      sload\n      0xff\n      and\n      swap1\n        /* \"newone.sol\":17351:17513  function isApprovedForAll(address owner, address operator) public view virtual override returns (bool) {... */\n      jump\n        /* \"newone.sol\":9270:9900  function supportsInterface(bytes4 interfaceId) public view virtual override returns (bool) {... */\n    tag_24:\n        /* \"newone.sol\":9355:9359  bool */\n      0x00\n        /* \"newone.sol\":9673:9698  interfaceId == 0x01ffc9a7 */\n      0x01ffc9a700000000000000000000000000000000000000000000000000000000\n      0xffffffff00000000000000000000000000000000000000000000000000000000\n      dup4\n      and\n      eq\n      dup1\n        /* \"newone.sol\":9673:9774  interfaceId == 0x01ffc9a7 || // ERC165 interface ID for ERC165.... */\n      tag_94\n      jumpi\n      pop\n        /* \"newone.sol\":9749:9774  interfaceId == 0x80ac58cd */\n      0x80ac58cd00000000000000000000000000000000000000000000000000000000\n      0xffffffff00000000000000000000000000000000000000000000000000000000\n      dup4\n      and\n      eq\n        /* \"newone.sol\":9673:9774  interfaceId == 0x01ffc9a7 || // ERC165 interface ID for ERC165.... */\n    tag_94:\n        /* \"newone.sol\":9673:9850  interfaceId == 0x01ffc9a7 || // ERC165 interface ID for ERC165.... */\n      dup1\n      tag_95\n      jumpi\n      pop\n        /* \"newone.sol\":9825:9850  interfaceId == 0x5b5e139f */\n      0x5b5e139f00000000000000000000000000000000000000000000000000000000\n      0xffffffff00000000000000000000000000000000000000000000000000000000\n      dup4\n      and\n      eq\n        /* \"newone.sol\":9673:9850  interfaceId == 0x01ffc9a7 || // ERC165 interface ID for ERC165.... */\n    tag_95:\n        /* \"newone.sol\":9654:9850  return... */\n      swap3\n        /* \"newone.sol\":9270:9900  function supportsInterface(bytes4 interfaceId) public view virtual override returns (bool) {... */\n      swap2\n      pop\n      pop\n      jump\t// out\n        /* \"newone.sol\":10154:10252  function name() public view virtual override returns (string memory) {... */\n    tag_29:\n        /* \"newone.sol\":10208:10221  string memory */\n      0x60\n        /* \"newone.sol\":10240:10245  _name */\n      0x02\n        /* \"newone.sol\":10233:10245  return _name */\n      dup1\n      sload\n      tag_97\n      swap1\n      tag_98\n      jump\t// in\n    tag_97:\n      dup1\n      0x1f\n      add\n      0x20\n      dup1\n      swap2\n      div\n      mul\n      0x20\n      add\n      mload(0x40)\n      swap1\n      dup2\n      add\n      0x40\n      mstore\n      dup1\n      swap3\n      swap2\n      swap1\n      dup2\n      dup2\n      mstore\n      0x20\n      add\n      dup3\n      dup1\n      sload\n      tag_99\n      swap1\n      tag_98\n      jump\t// in\n    tag_99:\n      dup1\n      iszero\n      tag_100\n      jumpi\n      dup1\n      0x1f\n      lt\n      tag_101\n      jumpi\n      0x0100\n      dup1\n      dup4\n      sload\n      div\n      mul\n      dup4\n      mstore\n      swap2\n      0x20\n      add\n      swap2\n      jump(tag_100)\n    tag_101:\n      dup3\n      add\n      swap2\n      swap1\n      0x00\n      mstore\n      keccak256(0x00, 0x20)\n      swap1\n    tag_102:\n      dup2\n      sload\n      dup2\n      mstore\n      swap1\n      0x01\n      add\n      swap1\n      0x20\n      add\n      dup1\n      dup4\n      gt\n      tag_102\n      jumpi\n      dup3\n      swap1\n      sub\n      0x1f\n      and\n      dup3\n      add\n      swap2\n    tag_100:\n      pop\n      pop\n      pop\n      pop\n      pop\n      swap1\n      pop\n        /* \"newone.sol\":10154:10252  function name() public view virtual override returns (string memory) {... */\n      swap1\n      jump\t// out\n        /* \"newone.sol\":16420:16643  function getApproved(uint256 tokenId) public view virtual override returns (address) {... */\n    tag_36:\n        /* \"newone.sol\":16496:16503  address */\n      0x00\n        /* \"newone.sol\":16520:16536  _exists(tokenId) */\n      tag_104\n        /* \"newone.sol\":16528:16535  tokenId */\n      dup3\n        /* \"newone.sol\":16520:16527  _exists */\n      tag_105\n        /* \"newone.sol\":16520:16536  _exists(tokenId) */\n      jump\t// in\n    tag_104:\n        /* \"newone.sol\":16515:16588  if (!_exists(tokenId)) _revert(ApprovalQueryForNonexistentToken.selector) */\n      tag_107\n      jumpi\n        /* \"newone.sol\":16538:16588  _revert(ApprovalQueryForNonexistentToken.selector) */\n      tag_107\n        /* \"newone.sol\":16546:16587  ApprovalQueryForNonexistentToken.selector */\n      0xcf4700e400000000000000000000000000000000000000000000000000000000\n        /* \"newone.sol\":16538:16545  _revert */\n      tag_108\n        /* \"newone.sol\":16538:16588  _revert(ApprovalQueryForNonexistentToken.selector) */\n      jump\t// in\n    tag_107:\n      pop\n        /* \"newone.sol\":16606:16630  _tokenApprovals[tokenId] */\n      0x00\n      swap1\n      dup2\n      mstore\n        /* \"newone.sol\":16606:16621  _tokenApprovals */\n      0x06\n        /* \"newone.sol\":16606:16630  _tokenApprovals[tokenId] */\n      0x20\n      mstore\n      0x40\n      swap1\n      keccak256\n        /* \"newone.sol\":16606:16636  _tokenApprovals[tokenId].value */\n      sload\n      0xffffffffffffffffffffffffffffffffffffffff\n      and\n      swap1\n        /* \"newone.sol\":16420:16643  function getApproved(uint256 tokenId) public view virtual override returns (address) {... */\n      jump\t// out\n        /* \"newone.sol\":16148:16270  function approve(address to, uint256 tokenId) public payable virtual override {... */\n    tag_42:\n        /* \"newone.sol\":16236:16263  _approve(to, tokenId, true) */\n      tag_110\n        /* \"newone.sol\":16245:16247  to */\n      dup3\n        /* \"newone.sol\":16249:16256  tokenId */\n      dup3\n        /* \"newone.sol\":16258:16262  true */\n      0x01\n        /* \"newone.sol\":16236:16244  _approve */\n      tag_111\n        /* \"newone.sol\":16236:16263  _approve(to, tokenId, true) */\n      jump\t// in\n    tag_110:\n        /* \"newone.sol\":16148:16270  function approve(address to, uint256 tokenId) public payable virtual override {... */\n      pop\n      pop\n      jump\t// out\n        /* \"newone.sol\":19972:23419  function transferFrom(... */\n    tag_51:\n        /* \"newone.sol\":20109:20136  uint256 prevOwnershipPacked */\n      0x00\n        /* \"newone.sol\":20139:20166  _packedOwnershipOf(tokenId) */\n      tag_116\n        /* \"newone.sol\":20158:20165  tokenId */\n      dup3\n        /* \"newone.sol\":20139:20157  _packedOwnershipOf */\n      tag_117\n        /* \"newone.sol\":20139:20166  _packedOwnershipOf(tokenId) */\n      jump\t// in\n    tag_116:\n        /* \"newone.sol\":2891:2905  (1 << 160) - 1 */\n      0xffffffffffffffffffffffffffffffffffffffff\n        /* \"newone.sol\":20291:20313  uint256(uint160(from)) */\n      swap5\n      dup6\n      and\n      swap5\n        /* \"newone.sol\":20109:20166  uint256 prevOwnershipPacked = _packedOwnershipOf(tokenId) */\n      swap1\n      swap2\n      pop\n        /* \"newone.sol\":20349:20394  address(uint160(prevOwnershipPacked)) != from */\n      dup2\n      and\n      dup5\n      eq\n        /* \"newone.sol\":20345:20440  if (address(uint160(prevOwnershipPacked)) != from) _revert(TransferFromIncorrectOwner.selector) */\n      tag_119\n      jumpi\n        /* \"newone.sol\":20396:20440  _revert(TransferFromIncorrectOwner.selector) */\n      tag_119\n        /* \"newone.sol\":20404:20439  TransferFromIncorrectOwner.selector */\n      0xa114810000000000000000000000000000000000000000000000000000000000\n        /* \"newone.sol\":20396:20403  _revert */\n      tag_108\n        /* \"newone.sol\":20396:20440  _revert(TransferFromIncorrectOwner.selector) */\n      jump\t// in\n    tag_119:\n        /* \"newone.sol\":20452:20479  uint256 approvedAddressSlot */\n      0x00\n        /* \"newone.sol\":19105:19129  _tokenApprovals[tokenId] */\n      dup3\n      dup2\n      mstore\n        /* \"newone.sol\":19105:19120  _tokenApprovals */\n      0x06\n        /* \"newone.sol\":19105:19129  _tokenApprovals[tokenId] */\n      0x20\n      mstore\n      0x40\n      swap1\n      keccak256\n        /* \"newone.sol\":19329:19355  sload(approvedAddressSlot) */\n      dup1\n      sload\n        /* \"newone.sol\":40913:40923  msg.sender */\n      caller\n        /* \"newone.sol\":18742:18772  eq(msgSender, approvedAddress) */\n      dup1\n      dup3\n      eq\n        /* \"newone.sol\":18450:18466  _BITMASK_ADDRESS */\n      0xffffffffffffffffffffffffffffffffffffffff\n        /* \"newone.sol\":18439:18467  and(owner, _BITMASK_ADDRESS) */\n      dup9\n      and\n        /* \"newone.sol\":18720:18740  eq(msgSender, owner) */\n      swap1\n      swap2\n      eq\n        /* \"newone.sol\":18717:18773  or(eq(msgSender, owner), eq(msgSender, approvedAddress)) */\n      or\n        /* \"newone.sol\":20635:20823  if (!_isSenderApprovedOrOwner(approvedAddress, from, _msgSenderERC721A()))... */\n      tag_130\n      jumpi\n        /* \"newone.sol\":20727:20770  isApprovedForAll(from, _msgSenderERC721A()) */\n      tag_127\n        /* \"newone.sol\":20744:20748  from */\n      dup7\n        /* \"newone.sol\":40913:40923  msg.sender */\n      caller\n        /* \"newone.sol\":17351:17513  function isApprovedForAll(address owner, address operator) public view virtual override returns (bool) {... */\n      tag_89\n      jump\t// in\n        /* \"newone.sol\":20727:20770  isApprovedForAll(from, _msgSenderERC721A()) */\n    tag_127:\n        /* \"newone.sol\":20722:20823  if (!isApprovedForAll(from, _msgSenderERC721A())) _revert(TransferCallerNotOwnerNorApproved.selector) */\n      tag_130\n      jumpi\n        /* \"newone.sol\":20772:20823  _revert(TransferCallerNotOwnerNorApproved.selector) */\n      tag_130\n        /* \"newone.sol\":20780:20822  TransferCallerNotOwnerNorApproved.selector */\n      0x59c896be00000000000000000000000000000000000000000000000000000000\n        /* \"newone.sol\":20772:20779  _revert */\n      tag_108\n        /* \"newone.sol\":20772:20823  _revert(TransferCallerNotOwnerNorApproved.selector) */\n      jump\t// in\n    tag_130:\n        /* \"newone.sol\":20966:20981  approvedAddress */\n      dup1\n        /* \"newone.sol\":20963:21120  if approvedAddress {... */\n      iszero\n      tag_133\n      jumpi\n        /* \"newone.sol\":21104:21105  0 */\n      0x00\n        /* \"newone.sol\":21083:21102  approvedAddressSlot */\n      dup3\n        /* \"newone.sol\":21076:21106  sstore(approvedAddressSlot, 0) */\n      sstore\n        /* \"newone.sol\":20963:21120  if approvedAddress {... */\n    tag_133:\n        /* \"newone.sol\":21492:21516  _packedAddressData[from] */\n      0xffffffffffffffffffffffffffffffffffffffff\n      dup7\n      dup2\n      and\n      0x00\n      swap1\n      dup2\n      mstore\n        /* \"newone.sol\":21492:21510  _packedAddressData */\n      0x05\n        /* \"newone.sol\":21492:21516  _packedAddressData[from] */\n      0x20\n      mstore\n      0x40\n      dup1\n      dup3\n      keccak256\n        /* \"newone.sol\":21490:21516  --_packedAddressData[from] */\n      dup1\n      sload\n      0xffffffffffffffffffffffffffffffffffffffffffffffffffffffffffffffff\n      add\n      swap1\n      sstore\n        /* \"newone.sol\":21560:21582  _packedAddressData[to] */\n      swap2\n      dup8\n      and\n      dup1\n      dup3\n      mstore\n      swap2\n      swap1\n      keccak256\n        /* \"newone.sol\":21558:21582  ++_packedAddressData[to] */\n      dup1\n      sload\n      0x01\n      add\n      swap1\n      sstore\n        /* \"newone.sol\":15276:15287  timestamp() */\n      timestamp\n        /* \"newone.sol\":15251:15274  _BITPOS_START_TIMESTAMP */\n      0xa0\n        /* \"newone.sol\":15247:15288  shl(_BITPOS_START_TIMESTAMP, timestamp()) */\n      shl\n        /* \"newone.sol\":15234:15297  or(owner, or(shl(_BITPOS_START_TIMESTAMP, timestamp()), flags)) */\n      or\n        /* \"newone.sol\":2498:2506  1 << 225 */\n      0x0200000000000000000000000000000000000000000000000000000000\n        /* \"newone.sol\":15234:15297  or(owner, or(shl(_BITPOS_START_TIMESTAMP, timestamp()), flags)) */\n      or\n        /* \"newone.sol\":21846:21872  _packedOwnerships[tokenId] */\n      0x00\n      dup6\n      dup2\n      mstore\n        /* \"newone.sol\":21846:21863  _packedOwnerships */\n      0x04\n        /* \"newone.sol\":21846:21872  _packedOwnerships[tokenId] */\n      0x20\n      mstore\n      0x40\n      dup2\n      keccak256\n        /* \"newone.sol\":21846:22018  _packedOwnerships[tokenId] = _packOwnershipData(... */\n      swap2\n      swap1\n      swap2\n      sstore\n        /* \"newone.sol\":2498:2506  1 << 225 */\n      0x0200000000000000000000000000000000000000000000000000000000\n        /* \"newone.sol\":22135:22182  prevOwnershipPacked & _BITMASK_NEXT_INITIALIZED */\n      dup5\n      and\n        /* \"newone.sol\":22135:22187  prevOwnershipPacked & _BITMASK_NEXT_INITIALIZED == 0 */\n      swap1\n      sub\n        /* \"newone.sol\":22131:22748  if (prevOwnershipPacked & _BITMASK_NEXT_INITIALIZED == 0) {... */\n      tag_138\n      jumpi\n        /* \"newone.sol\":22239:22240  1 */\n      0x01\n        /* \"newone.sol\":22229:22240  tokenId + 1 */\n      dup5\n      add\n        /* \"newone.sol\":22207:22226  uint256 nextTokenId */\n      0x00\n        /* \"newone.sol\":22360:22390  _packedOwnerships[nextTokenId] */\n      dup2\n      dup2\n      mstore\n        /* \"newone.sol\":22360:22377  _packedOwnerships */\n      0x04\n        /* \"newone.sol\":22360:22390  _packedOwnerships[nextTokenId] */\n      0x20\n      mstore\n      0x40\n      dup2\n      keccak256\n      sload\n        /* \"newone.sol\":22360:22395  _packedOwnerships[nextTokenId] == 0 */\n      swap1\n      sub\n        /* \"newone.sol\":22356:22734  if (_packedOwnerships[nextTokenId] == 0) {... */\n      tag_140\n      jumpi\n        /* \"newone.sol\":22496:22509  _currentIndex */\n      sload(0x00)\n        /* \"newone.sol\":22481:22492  nextTokenId */\n      dup2\n        /* \"newone.sol\":22481:22509  nextTokenId != _currentIndex */\n      eq\n        /* \"newone.sol\":22477:22716  if (nextTokenId != _currentIndex) {... */\n      tag_140\n      jumpi\n        /* \"newone.sol\":22641:22671  _packedOwnerships[nextTokenId] */\n      0x00\n      dup2\n      dup2\n      mstore\n        /* \"newone.sol\":22641:22658  _packedOwnerships */\n      0x04\n        /* \"newone.sol\":22641:22671  _packedOwnerships[nextTokenId] */\n      0x20\n      mstore\n      0x40\n      swap1\n      keccak256\n        /* \"newone.sol\":22641:22693  _packedOwnerships[nextTokenId] = prevOwnershipPacked */\n      dup5\n      swap1\n      sstore\n        /* \"newone.sol\":22477:22716  if (nextTokenId != _currentIndex) {... */\n    tag_140:\n        /* \"newone.sol\":22189:22748  {... */\n      pop\n        /* \"newone.sol\":22131:22748  if (prevOwnershipPacked & _BITMASK_NEXT_INITIALIZED == 0) {... */\n    tag_138:\n        /* \"newone.sol\":2891:2905  (1 << 160) - 1 */\n      0xffffffffffffffffffffffffffffffffffffffff\n        /* \"newone.sol\":22876:22896  uint256(uint160(to)) */\n      dup6\n      and\n        /* \"newone.sol\":23247:23254  tokenId */\n      dup5\n        /* \"newone.sol\":22876:22896  uint256(uint160(to)) */\n      dup2\n        /* \"newone.sol\":23179:23183  from */\n      dup9\n        /* \"newone.sol\":23122:23147  _TRANSFER_EVENT_SIGNATURE */\n      0xddf252ad1be2c89b69c2b068fc378daa952ba7f163c4a11628f55a4df523b3ef\n        /* \"newone.sol\":22857:22873  uint256 toMasked */\n      0x00\n      dup1\n        /* \"newone.sol\":22990:23282  log4(... */\n      log4\n        /* \"newone.sol\":23305:23313  toMasked */\n      dup1\n        /* \"newone.sol\":23317:23318  0 */\n      0x00\n        /* \"newone.sol\":23305:23318  toMasked == 0 */\n      sub\n        /* \"newone.sol\":23301:23359  if (toMasked == 0) _revert(TransferToZeroAddress.selector) */\n      tag_142\n      jumpi\n        /* \"newone.sol\":23320:23359  _revert(TransferToZeroAddress.selector) */\n      tag_142\n        /* \"newone.sol\":23328:23358  TransferToZeroAddress.selector */\n      0xea553b3400000000000000000000000000000000000000000000000000000000\n        /* \"newone.sol\":23320:23327  _revert */\n      tag_108\n        /* \"newone.sol\":23320:23359  _revert(TransferToZeroAddress.selector) */\n      jump\t// in\n    tag_142:\n        /* \"newone.sol\":20099:23419  {... */\n      pop\n      pop\n      pop\n      pop\n        /* \"newone.sol\":19972:23419  function transferFrom(... */\n      pop\n      pop\n      pop\n      jump\t// out\n        /* \"newone.sol\":23510:23697  function safeTransferFrom(... */\n    tag_54:\n        /* \"newone.sol\":23651:23690  safeTransferFrom(from, to, tokenId, '') */\n      tag_146\n        /* \"newone.sol\":23668:23672  from */\n      dup4\n        /* \"newone.sol\":23674:23676  to */\n      dup4\n        /* \"newone.sol\":23678:23685  tokenId */\n      dup4\n        /* \"newone.sol\":23651:23690  safeTransferFrom(from, to, tokenId, '') */\n      mload(0x40)\n      dup1\n      0x20\n      add\n      0x40\n      mstore\n      dup1\n      0x00\n      dup2\n      mstore\n      pop\n        /* \"newone.sol\":23651:23667  safeTransferFrom */\n      tag_78\n        /* \"newone.sol\":23651:23690  safeTransferFrom(from, to, tokenId, '') */\n      jump\t// in\n    tag_146:\n        /* \"newone.sol\":23510:23697  function safeTransferFrom(... */\n      pop\n      pop\n      pop\n      jump\t// out\n        /* \"newone.sol\":11515:11665  function ownerOf(uint256 tokenId) public view virtual override returns (address) {... */\n    tag_58:\n        /* \"newone.sol\":11587:11594  address */\n      0x00\n        /* \"newone.sol\":11629:11656  _packedOwnershipOf(tokenId) */\n      tag_95\n        /* \"newone.sol\":11648:11655  tokenId */\n      dup3\n        /* \"newone.sol\":11629:11647  _packedOwnershipOf */\n      tag_117\n        /* \"newone.sol\":11629:11656  _packedOwnershipOf(tokenId) */\n      jump\t// in\n        /* \"newone.sol\":7151:7390  function balanceOf(address owner) public view virtual override returns (uint256) {... */\n    tag_64:\n        /* \"newone.sol\":7223:7230  uint256 */\n      0x00\n        /* \"newone.sol\":7246:7265  owner == address(0) */\n      0xffffffffffffffffffffffffffffffffffffffff\n      dup3\n      and\n        /* \"newone.sol\":7242:7311  if (owner == address(0)) _revert(BalanceQueryForZeroAddress.selector) */\n      tag_151\n      jumpi\n        /* \"newone.sol\":7267:7311  _revert(BalanceQueryForZeroAddress.selector) */\n      tag_151\n        /* \"newone.sol\":7275:7310  BalanceQueryForZeroAddress.selector */\n      0x8f4eb60400000000000000000000000000000000000000000000000000000000\n        /* \"newone.sol\":7267:7274  _revert */\n      tag_108\n        /* \"newone.sol\":7267:7311  _revert(BalanceQueryForZeroAddress.selector) */\n      jump\t// in\n    tag_151:\n      pop\n        /* \"newone.sol\":7328:7353  _packedAddressData[owner] */\n      0xffffffffffffffffffffffffffffffffffffffff\n      and\n      0x00\n      swap1\n      dup2\n      mstore\n        /* \"newone.sol\":7328:7346  _packedAddressData */\n      0x05\n        /* \"newone.sol\":7328:7353  _packedAddressData[owner] */\n      0x20\n      mstore\n      0x40\n      swap1\n      keccak256\n      sload\n        /* \"newone.sol\":1466:1479  (1 << 64) - 1 */\n      0xffffffffffffffff\n        /* \"newone.sol\":7328:7383  _packedAddressData[owner] & _BITMASK_ADDRESS_DATA_ENTRY */\n      and\n      swap1\n        /* \"newone.sol\":7151:7390  function balanceOf(address owner) public view virtual override returns (uint256) {... */\n      jump\t// out\n        /* \"newone.sol\":10323:10425  function symbol() public view virtual override returns (string memory) {... */\n    tag_68:\n        /* \"newone.sol\":10379:10392  string memory */\n      0x60\n        /* \"newone.sol\":10411:10418  _symbol */\n      0x03\n        /* \"newone.sol\":10404:10418  return _symbol */\n      dup1\n      sload\n      tag_97\n      swap1\n      tag_98\n      jump\t// in\n        /* \"newone.sol\":16970:17201  function setApprovalForAll(address operator, bool approved) public virtual override {... */\n    tag_74:\n        /* \"newone.sol\":40913:40923  msg.sender */\n      caller\n        /* \"newone.sol\":17064:17103  _operatorApprovals[_msgSenderERC721A()] */\n      0x00\n      dup2\n      dup2\n      mstore\n        /* \"newone.sol\":17064:17082  _operatorApprovals */\n      0x07\n        /* \"newone.sol\":17064:17103  _operatorApprovals[_msgSenderERC721A()] */\n      0x20\n      swap1\n      dup2\n      mstore\n      0x40\n      dup1\n      dup4\n      keccak256\n      0xffffffffffffffffffffffffffffffffffffffff\n        /* \"newone.sol\":17064:17113  _operatorApprovals[_msgSenderERC721A()][operator] */\n      dup8\n      and\n      dup1\n      dup6\n      mstore\n      swap1\n      dup4\n      mstore\n      swap3\n      dup2\n      swap1\n      keccak256\n        /* \"newone.sol\":17064:17124  _operatorApprovals[_msgSenderERC721A()][operator] = approved */\n      dup1\n      sload\n      0xffffffffffffffffffffffffffffffffffffffffffffffffffffffffffffff00\n      and\n      dup7\n      iszero\n      iszero\n      swap1\n      dup2\n      or\n      swap1\n      swap2\n      sstore\n        /* \"newone.sol\":17139:17194  ApprovalForAll(_msgSenderERC721A(), operator, approved) */\n      swap1\n      mload\n        /* \"#utility.yul\":586:627   */\n      swap1\n      dup2\n      mstore\n        /* \"newone.sol\":17064:17113  _operatorApprovals[_msgSenderERC721A()][operator] */\n      swap2\n      swap3\n        /* \"newone.sol\":40913:40923  msg.sender */\n      swap2\n        /* \"newone.sol\":17139:17194  ApprovalForAll(_msgSenderERC721A(), operator, approved) */\n      0x17307eab39ab6107e8899845ad3d59bd9653f200f220920489ca2b5937696c31\n      swap2\n        /* \"#utility.yul\":559:577   */\n      add\n        /* \"newone.sol\":17139:17194  ApprovalForAll(_msgSenderERC721A(), operator, approved) */\n      mload(0x40)\n      dup1\n      swap2\n      sub\n      swap1\n      log3\n        /* \"newone.sol\":16970:17201  function setApprovalForAll(address operator, bool approved) public virtual override {... */\n      pop\n      pop\n      jump\t// out\n        /* \"newone.sol\":24278:24683  function safeTransferFrom(... */\n    tag_78:\n        /* \"newone.sol\":24447:24478  transferFrom(from, to, tokenId) */\n      tag_163\n        /* \"newone.sol\":24460:24464  from */\n      dup5\n        /* \"newone.sol\":24466:24468  to */\n      dup5\n        /* \"newone.sol\":24470:24477  tokenId */\n      dup5\n        /* \"newone.sol\":24447:24459  transferFrom */\n      tag_51\n        /* \"newone.sol\":24447:24478  transferFrom(from, to, tokenId) */\n      jump\t// in\n    tag_163:\n        /* \"newone.sol\":24492:24506  to.code.length */\n      0xffffffffffffffffffffffffffffffffffffffff\n      dup4\n      and\n      extcodesize\n        /* \"newone.sol\":24492:24511  to.code.length != 0 */\n      iszero\n        /* \"newone.sol\":24488:24677  if (to.code.length != 0)... */\n      tag_168\n      jumpi\n        /* \"newone.sol\":24530:24586  _checkContractOnERC721Received(from, to, tokenId, _data) */\n      tag_165\n        /* \"newone.sol\":24561:24565  from */\n      dup5\n        /* \"newone.sol\":24567:24569  to */\n      dup5\n        /* \"newone.sol\":24571:24578  tokenId */\n      dup5\n        /* \"newone.sol\":24580:24585  _data */\n      dup5\n        /* \"newone.sol\":24530:24560  _checkContractOnERC721Received */\n      tag_166\n        /* \"newone.sol\":24530:24586  _checkContractOnERC721Received(from, to, tokenId, _data) */\n      jump\t// in\n    tag_165:\n        /* \"newone.sol\":24525:24677  if (!_checkContractOnERC721Received(from, to, tokenId, _data)) {... */\n      tag_168\n      jumpi\n        /* \"newone.sol\":24606:24662  _revert(TransferToNonERC721ReceiverImplementer.selector) */\n      tag_168\n        /* \"newone.sol\":24614:24661  TransferToNonERC721ReceiverImplementer.selector */\n      0xd1a57ed600000000000000000000000000000000000000000000000000000000\n        /* \"newone.sol\":24606:24613  _revert */\n      tag_108\n        /* \"newone.sol\":24606:24662  _revert(TransferToNonERC721ReceiverImplementer.selector) */\n      jump\t// in\n    tag_168:\n        /* \"newone.sol\":24278:24683  function safeTransferFrom(... */\n      pop\n      pop\n      pop\n      pop\n      jump\t// out\n        /* \"newone.sol\":1075:1176  function mintToken(uint256 quantity) public payable  {... */\n    tag_81:\n        /* \"newone.sol\":1138:1169  _safeMint(msg.sender, quantity) */\n      tag_170\n        /* \"newone.sol\":1148:1158  msg.sender */\n      caller\n        /* \"newone.sol\":1160:1168  quantity */\n      dup3\n        /* \"newone.sol\":1138:1147  _safeMint */\n      tag_171\n        /* \"newone.sol\":1138:1169  _safeMint(msg.sender, quantity) */\n      jump\t// in\n    tag_170:\n        /* \"newone.sol\":1075:1176  function mintToken(uint256 quantity) public payable  {... */\n      pop\n      jump\t// out\n        /* \"newone.sol\":10526:10848  function tokenURI(uint256 tokenId) public view virtual override returns (string memory) {... */\n    tag_85:\n        /* \"newone.sol\":10599:10612  string memory */\n      0x60\n        /* \"newone.sol\":10629:10645  _exists(tokenId) */\n      tag_173\n        /* \"newone.sol\":10637:10644  tokenId */\n      dup3\n        /* \"newone.sol\":10629:10636  _exists */\n      tag_105\n        /* \"newone.sol\":10629:10645  _exists(tokenId) */\n      jump\t// in\n    tag_173:\n        /* \"newone.sol\":10624:10692  if (!_exists(tokenId)) _revert(URIQueryForNonexistentToken.selector) */\n      tag_175\n      jumpi\n        /* \"newone.sol\":10647:10692  _revert(URIQueryForNonexistentToken.selector) */\n      tag_175\n        /* \"newone.sol\":10655:10691  URIQueryForNonexistentToken.selector */\n      0xa14c4b5000000000000000000000000000000000000000000000000000000000\n        /* \"newone.sol\":10647:10654  _revert */\n      tag_108\n        /* \"newone.sol\":10647:10692  _revert(URIQueryForNonexistentToken.selector) */\n      jump\t// in\n    tag_175:\n        /* \"newone.sol\":10703:10724  string memory baseURI */\n      0x00\n        /* \"newone.sol\":10727:10737  _baseURI() */\n      tag_176\n        /* \"newone.sol\":11169:11178  return '' */\n      0x40\n      dup1\n      mload\n      0x20\n      dup2\n      add\n      swap1\n      swap2\n      mstore\n      0x00\n      dup2\n      mstore\n      swap1\n        /* \"newone.sol\":11093:11185  function _baseURI() internal view virtual returns (string memory) {... */\n      jump\n        /* \"newone.sol\":10727:10737  _baseURI() */\n    tag_176:\n        /* \"newone.sol\":10703:10737  string memory baseURI = _baseURI() */\n      swap1\n      pop\n        /* \"newone.sol\":10760:10767  baseURI */\n      dup1\n        /* \"newone.sol\":10754:10775  bytes(baseURI).length */\n      mload\n        /* \"newone.sol\":10779:10780  0 */\n      0x00\n        /* \"newone.sol\":10754:10780  bytes(baseURI).length != 0 */\n      sub\n        /* \"newone.sol\":10754:10841  bytes(baseURI).length != 0 ? string(abi.encodePacked(baseURI, _toString(tokenId))) : '' */\n      tag_178\n      jumpi\n      mload(0x40)\n      dup1\n      0x20\n      add\n      0x40\n      mstore\n      dup1\n      0x00\n      dup2\n      mstore\n      pop\n      jump(tag_179)\n    tag_178:\n        /* \"newone.sol\":10807:10814  baseURI */\n      dup1\n        /* \"newone.sol\":10816:10834  _toString(tokenId) */\n      tag_180\n        /* \"newone.sol\":10826:10833  tokenId */\n      dup5\n        /* \"newone.sol\":10816:10825  _toString */\n      tag_181\n        /* \"newone.sol\":10816:10834  _toString(tokenId) */\n      jump\t// in\n    tag_180:\n        /* \"newone.sol\":10790:10835  abi.encodePacked(baseURI, _toString(tokenId)) */\n      add(0x20, mload(0x40))\n      tag_182\n      swap3\n      swap2\n      swap1\n      tag_183\n      jump\t// in\n    tag_182:\n      mload(0x40)\n      0x20\n      dup2\n      dup4\n      sub\n      sub\n      dup2\n      mstore\n      swap1\n      0x40\n      mstore\n        /* \"newone.sol\":10754:10841  bytes(baseURI).length != 0 ? string(abi.encodePacked(baseURI, _toString(tokenId))) : '' */\n    tag_179:\n        /* \"newone.sol\":10747:10841  return bytes(baseURI).length != 0 ? string(abi.encodePacked(baseURI, _toString(tokenId))) : '' */\n      swap4\n        /* \"newone.sol\":10526:10848  function tokenURI(uint256 tokenId) public view virtual override returns (string memory) {... */\n      swap3\n      pop\n      pop\n      pop\n      jump\t// out\n        /* \"newone.sol\":17762:18039  function _exists(uint256 tokenId) internal view virtual returns (bool) {... */\n    tag_105:\n        /* \"newone.sol\":17827:17831  bool */\n      0x00\n        /* \"newone.sol\":17914:17927  _currentIndex */\n      dup1\n      sload\n        /* \"newone.sol\":17904:17911  tokenId */\n      dup3\n        /* \"newone.sol\":17904:17927  tokenId < _currentIndex */\n      lt\n        /* \"newone.sol\":17862:18013  _startTokenId() <= tokenId &&... */\n      dup1\n      iszero\n      tag_95\n      jumpi\n      pop\n      pop\n        /* \"newone.sol\":17964:17990  _packedOwnerships[tokenId] */\n      0x00\n      swap1\n      dup2\n      mstore\n        /* \"newone.sol\":17964:17981  _packedOwnerships */\n      0x04\n        /* \"newone.sol\":17964:17990  _packedOwnerships[tokenId] */\n      0x20\n      mstore\n      0x40\n      swap1\n      keccak256\n      sload\n        /* \"newone.sol\":2224:2232  1 << 224 */\n      0x0100000000000000000000000000000000000000000000000000000000\n        /* \"newone.sol\":17964:18008  _packedOwnerships[tokenId] & _BITMASK_BURNED */\n      and\n        /* \"newone.sol\":17964:18013  _packedOwnerships[tokenId] & _BITMASK_BURNED == 0 */\n      iszero\n      swap1\n        /* \"newone.sol\":17762:18039  function _exists(uint256 tokenId) internal view virtual returns (bool) {... */\n      jump\t// out\n        /* \"newone.sol\":42797:42957  function _revert(bytes4 errorSelector) internal pure {... */\n    tag_108:\n        /* \"newone.sol\":42896:42909  errorSelector */\n      dup1\n        /* \"newone.sol\":42890:42894  0x00 */\n      0x00\n        /* \"newone.sol\":42883:42910  mstore(0x00, errorSelector) */\n      mstore\n        /* \"newone.sol\":42936:42940  0x04 */\n      0x04\n        /* \"newone.sol\":42930:42934  0x00 */\n      0x00\n        /* \"newone.sol\":42923:42941  revert(0x00, 0x04) */\n      revert\n        /* \"newone.sol\":34445:34905  function _approve(... */\n    tag_111:\n        /* \"newone.sol\":34569:34582  address owner */\n      0x00\n        /* \"newone.sol\":34585:34601  ownerOf(tokenId) */\n      tag_191\n        /* \"newone.sol\":34593:34600  tokenId */\n      dup4\n        /* \"newone.sol\":34585:34592  ownerOf */\n      tag_58\n        /* \"newone.sol\":34585:34601  ownerOf(tokenId) */\n      jump\t// in\n    tag_191:\n        /* \"newone.sol\":34569:34601  address owner = ownerOf(tokenId) */\n      swap1\n      pop\n        /* \"newone.sol\":34616:34629  approvalCheck */\n      dup2\n        /* \"newone.sol\":34616:34661  approvalCheck && _msgSenderERC721A() != owner */\n      dup1\n      iszero\n      tag_192\n      jumpi\n      pop\n        /* \"newone.sol\":40913:40923  msg.sender */\n      caller\n        /* \"newone.sol\":34633:34661  _msgSenderERC721A() != owner */\n      0xffffffffffffffffffffffffffffffffffffffff\n      dup3\n      and\n      eq\n      iszero\n        /* \"newone.sol\":34616:34661  approvalCheck && _msgSenderERC721A() != owner */\n    tag_192:\n        /* \"newone.sol\":34612:34810  if (approvalCheck && _msgSenderERC721A() != owner)... */\n      iszero\n      tag_198\n      jumpi\n        /* \"newone.sol\":34680:34724  isApprovedForAll(owner, _msgSenderERC721A()) */\n      tag_195\n        /* \"newone.sol\":34697:34702  owner */\n      dup2\n        /* \"newone.sol\":40913:40923  msg.sender */\n      caller\n        /* \"newone.sol\":17351:17513  function isApprovedForAll(address owner, address operator) public view virtual override returns (bool) {... */\n      tag_89\n      jump\t// in\n        /* \"newone.sol\":34680:34724  isApprovedForAll(owner, _msgSenderERC721A()) */\n    tag_195:\n        /* \"newone.sol\":34675:34810  if (!isApprovedForAll(owner, _msgSenderERC721A())) {... */\n      tag_198\n      jumpi\n        /* \"newone.sol\":34744:34795  _revert(ApprovalCallerNotOwnerNorApproved.selector) */\n      tag_198\n        /* \"newone.sol\":34752:34794  ApprovalCallerNotOwnerNorApproved.selector */\n      0xcfb3b94200000000000000000000000000000000000000000000000000000000\n        /* \"newone.sol\":34744:34751  _revert */\n      tag_108\n        /* \"newone.sol\":34744:34795  _revert(ApprovalCallerNotOwnerNorApproved.selector) */\n      jump\t// in\n    tag_198:\n        /* \"newone.sol\":34820:34844  _tokenApprovals[tokenId] */\n      0x00\n      dup4\n      dup2\n      mstore\n        /* \"newone.sol\":34820:34835  _tokenApprovals */\n      0x06\n        /* \"newone.sol\":34820:34844  _tokenApprovals[tokenId] */\n      0x20\n      mstore\n      0x40\n      dup1\n      dup3\n      keccak256\n        /* \"newone.sol\":34820:34855  _tokenApprovals[tokenId].value = to */\n      dup1\n      sload\n      0xffffffffffffffffffffffff0000000000000000000000000000000000000000\n      and\n      0xffffffffffffffffffffffffffffffffffffffff\n      dup9\n      dup2\n      and\n      swap2\n      dup3\n      or\n      swap1\n      swap3\n      sstore\n        /* \"newone.sol\":34870:34898  Approval(owner, to, tokenId) */\n      swap2\n      mload\n        /* \"newone.sol\":34820:34844  _tokenApprovals[tokenId] */\n      dup7\n      swap4\n        /* \"newone.sol\":34870:34898  Approval(owner, to, tokenId) */\n      swap2\n      dup6\n      and\n      swap2\n      0x8c5be1e5ebec7d5bd14f71427d1e84f3dd0314c0f7b2291e5b200ac8c7c3b925\n      swap2\n      log4\n        /* \"newone.sol\":34559:34905  {... */\n      pop\n        /* \"newone.sol\":34445:34905  function _approve(... */\n      pop\n      pop\n      pop\n      jump\t// out\n        /* \"newone.sol\":12639:14337  function _packedOwnershipOf(uint256 tokenId) private view returns (uint256 packed) {... */\n    tag_117:\n        /* \"newone.sol\":12787:12813  _packedOwnerships[tokenId] */\n      0x00\n      dup2\n      dup2\n      mstore\n        /* \"newone.sol\":12787:12804  _packedOwnerships */\n      0x04\n        /* \"newone.sol\":12787:12813  _packedOwnerships[tokenId] */\n      0x20\n      mstore\n      0x40\n      dup2\n      keccak256\n      sload\n      swap1\n        /* \"newone.sol\":2224:2232  1 << 224 */\n      0x0100000000000000000000000000000000000000000000000000000000\n        /* \"newone.sol\":12861:12885  packed & _BITMASK_BURNED */\n      dup3\n      and\n        /* \"newone.sol\":12861:12890  packed & _BITMASK_BURNED == 0 */\n      swap1\n      sub\n        /* \"newone.sol\":12857:14264  if (packed & _BITMASK_BURNED == 0) {... */\n      tag_203\n      jumpi\n        /* \"newone.sol\":12998:13004  packed */\n      dup1\n        /* \"newone.sol\":13008:13009  0 */\n      0x00\n        /* \"newone.sol\":12998:13009  packed == 0 */\n      sub\n        /* \"newone.sol\":12994:13966  if (packed == 0) {... */\n      tag_210\n      jumpi\n        /* \"newone.sol\":13048:13061  _currentIndex */\n      sload(0x00)\n        /* \"newone.sol\":13037:13044  tokenId */\n      dup3\n        /* \"newone.sol\":13037:13061  tokenId >= _currentIndex */\n      lt\n        /* \"newone.sol\":13033:13110  if (tokenId >= _currentIndex) _revert(OwnerQueryForNonexistentToken.selector) */\n      tag_206\n      jumpi\n        /* \"newone.sol\":13063:13110  _revert(OwnerQueryForNonexistentToken.selector) */\n      tag_206\n        /* \"newone.sol\":13071:13109  OwnerQueryForNonexistentToken.selector */\n      0xdf2d9b4200000000000000000000000000000000000000000000000000000000\n        /* \"newone.sol\":13063:13070  _revert */\n      tag_108\n        /* \"newone.sol\":13063:13110  _revert(OwnerQueryForNonexistentToken.selector) */\n      jump\t// in\n    tag_206:\n        /* \"newone.sol\":13697:13948  for (;;) {... */\n    tag_207:\n      pop\n        /* \"newone.sol\":13799:13808  --tokenId */\n      0xffffffffffffffffffffffffffffffffffffffffffffffffffffffffffffffff\n      add\n        /* \"newone.sol\":13781:13809  _packedOwnerships[--tokenId] */\n      0x00\n      dup2\n      dup2\n      mstore\n        /* \"newone.sol\":13781:13798  _packedOwnerships */\n      0x04\n        /* \"newone.sol\":13781:13809  _packedOwnerships[--tokenId] */\n      0x20\n      mstore\n      0x40\n      swap1\n      keccak256\n      sload\n        /* \"newone.sol\":13861:13886  if (packed == 0) continue */\n      dup1\n      iszero\n        /* \"newone.sol\":13697:13948  for (;;) {... */\n      tag_207\n        /* \"newone.sol\":13861:13886  if (packed == 0) continue */\n      jumpi\n    tag_210:\n        /* \"newone.sol\":12639:14337  function _packedOwnershipOf(uint256 tokenId) private view returns (uint256 packed) {... */\n      swap2\n      swap1\n      pop\n      jump\t// out\n        /* \"newone.sol\":12857:14264  if (packed & _BITMASK_BURNED == 0) {... */\n    tag_203:\n        /* \"newone.sol\":14283:14330  _revert(OwnerQueryForNonexistentToken.selector) */\n      tag_210\n        /* \"newone.sol\":14291:14329  OwnerQueryForNonexistentToken.selector */\n      0xdf2d9b4200000000000000000000000000000000000000000000000000000000\n        /* \"newone.sol\":14283:14290  _revert */\n      tag_108\n        /* \"newone.sol\":14283:14330  _revert(OwnerQueryForNonexistentToken.selector) */\n      jump\t// in\n        /* \"newone.sol\":26709:27382  function _checkContractOnERC721Received(... */\n    tag_166:\n        /* \"newone.sol\":26887:26975  ERC721A__IERC721Receiver(to).onERC721Received(_msgSenderERC721A(), from, tokenId, _data) */\n      mload(0x40)\n      0x150b7a0200000000000000000000000000000000000000000000000000000000\n      dup2\n      mstore\n        /* \"newone.sol\":26867:26871  bool */\n      0x00\n      swap1\n        /* \"newone.sol\":26887:26932  ERC721A__IERC721Receiver(to).onERC721Received */\n      0xffffffffffffffffffffffffffffffffffffffff\n      dup6\n      and\n      swap1\n      0x150b7a02\n      swap1\n        /* \"newone.sol\":26887:26975  ERC721A__IERC721Receiver(to).onERC721Received(_msgSenderERC721A(), from, tokenId, _data) */\n      tag_223\n      swap1\n        /* \"newone.sol\":40913:40923  msg.sender */\n      caller\n      swap1\n        /* \"newone.sol\":26954:26958  from */\n      dup10\n      swap1\n        /* \"newone.sol\":26960:26967  tokenId */\n      dup9\n      swap1\n        /* \"newone.sol\":26969:26974  _data */\n      dup9\n      swap1\n        /* \"newone.sol\":26887:26975  ERC721A__IERC721Receiver(to).onERC721Received(_msgSenderERC721A(), from, tokenId, _data) */\n      0x04\n      add\n      tag_224\n      jump\t// in\n    tag_223:\n      0x20\n      mload(0x40)\n      dup1\n      dup4\n      sub\n      dup2\n      0x00\n      dup8\n      gas\n      call\n      swap3\n      pop\n      pop\n      pop\n      dup1\n      iszero\n      tag_225\n      jumpi\n      pop\n      0x40\n      dup1\n      mload\n      0x1f\n      returndatasize\n      swap1\n      dup2\n      add\n      0xffffffffffffffffffffffffffffffffffffffffffffffffffffffffffffffe0\n      and\n      dup3\n      add\n      swap1\n      swap3\n      mstore\n      tag_226\n      swap2\n      dup2\n      add\n      swap1\n      tag_227\n      jump\t// in\n    tag_226:\n      0x01\n    tag_225:\n        /* \"newone.sol\":26883:27376  try ERC721A__IERC721Receiver(to).onERC721Received(_msgSenderERC721A(), from, tokenId, _data) returns (... */\n      tag_228\n      jumpi\n      returndatasize\n      dup1\n      dup1\n      iszero\n      tag_233\n      jumpi\n      mload(0x40)\n      swap2\n      pop\n      and(add(returndatasize, 0x3f), not(0x1f))\n      dup3\n      add\n      0x40\n      mstore\n      returndatasize\n      dup3\n      mstore\n      returndatasize\n      0x00\n      0x20\n      dup5\n      add\n      returndatacopy\n      jump(tag_232)\n    tag_233:\n      0x60\n      swap2\n      pop\n    tag_232:\n      pop\n        /* \"newone.sol\":27165:27171  reason */\n      dup1\n        /* \"newone.sol\":27165:27178  reason.length */\n      mload\n        /* \"newone.sol\":27182:27183  0 */\n      0x00\n        /* \"newone.sol\":27165:27183  reason.length == 0 */\n      sub\n        /* \"newone.sol\":27161:27274  if (reason.length == 0) {... */\n      tag_235\n      jumpi\n        /* \"newone.sol\":27203:27259  _revert(TransferToNonERC721ReceiverImplementer.selector) */\n      tag_235\n        /* \"newone.sol\":27211:27258  TransferToNonERC721ReceiverImplementer.selector */\n      0xd1a57ed600000000000000000000000000000000000000000000000000000000\n        /* \"newone.sol\":27203:27210  _revert */\n      tag_108\n        /* \"newone.sol\":27203:27259  _revert(TransferToNonERC721ReceiverImplementer.selector) */\n      jump\t// in\n    tag_235:\n        /* \"newone.sol\":27344:27350  reason */\n      dup1\n        /* \"newone.sol\":27338:27351  mload(reason) */\n      mload\n        /* \"newone.sol\":27329:27335  reason */\n      dup2\n        /* \"newone.sol\":27325:27327  32 */\n      0x20\n        /* \"newone.sol\":27321:27336  add(32, reason) */\n      add\n        /* \"newone.sol\":27314:27352  revert(add(32, reason), mload(reason)) */\n      revert\n        /* \"newone.sol\":26883:27376  try ERC721A__IERC721Receiver(to).onERC721Received(_msgSenderERC721A(), from, tokenId, _data) returns (... */\n    tag_228:\n        /* \"newone.sol\":27043:27107  retval == ERC721A__IERC721Receiver(to).onERC721Received.selector */\n      0xffffffff00000000000000000000000000000000000000000000000000000000\n      and\n        /* \"newone.sol\":27053:27107  ERC721A__IERC721Receiver(to).onERC721Received.selector */\n      0x150b7a0200000000000000000000000000000000000000000000000000000000\n        /* \"newone.sol\":27043:27107  retval == ERC721A__IERC721Receiver(to).onERC721Received.selector */\n      eq\n      swap1\n      pop\n        /* \"newone.sol\":26709:27382  function _checkContractOnERC721Received(... */\n      swap5\n      swap4\n      pop\n      pop\n      pop\n      pop\n      jump\t// out\n        /* \"newone.sol\":33555:33665  function _safeMint(address to, uint256 quantity) internal virtual {... */\n    tag_171:\n        /* \"newone.sol\":33631:33658  _safeMint(to, quantity, '') */\n      tag_110\n        /* \"newone.sol\":33641:33643  to */\n      dup3\n        /* \"newone.sol\":33645:33653  quantity */\n      dup3\n        /* \"newone.sol\":33631:33658  _safeMint(to, quantity, '') */\n      mload(0x40)\n      dup1\n      0x20\n      add\n      0x40\n      mstore\n      dup1\n      0x00\n      dup2\n      mstore\n      pop\n        /* \"newone.sol\":33631:33640  _safeMint */\n      tag_239\n        /* \"newone.sol\":33631:33658  _safeMint(to, quantity, '') */\n      jump\t// in\n        /* \"newone.sol\":41027:42735  function _toString(uint256 value) internal pure virtual returns (string memory str) {... */\n    tag_181:\n        /* \"newone.sol\":41092:41109  string memory str */\n      0x60\n        /* \"newone.sol\":41520:41524  0xa0 */\n      0xa0\n        /* \"newone.sol\":41513:41517  0x40 */\n      0x40\n        /* \"newone.sol\":41507:41518  mload(0x40) */\n      mload\n        /* \"newone.sol\":41503:41525  add(mload(0x40), 0xa0) */\n      add\n        /* \"newone.sol\":41610:41611  m */\n      dup1\n        /* \"newone.sol\":41604:41608  0x40 */\n      0x40\n        /* \"newone.sol\":41597:41612  mstore(0x40, m) */\n      mstore\n        /* \"newone.sol\":41683:41687  0x20 */\n      0x20\n        /* \"newone.sol\":41680:41681  m */\n      dup2\n        /* \"newone.sol\":41676:41688  sub(m, 0x20) */\n      sub\n        /* \"newone.sol\":41669:41688  str := sub(m, 0x20) */\n      swap2\n      pop\n      pop\n        /* \"newone.sol\":41763:41764  0 */\n      0x00\n        /* \"newone.sol\":41758:41761  str */\n      dup2\n        /* \"newone.sol\":41751:41765  mstore(str, 0) */\n      mstore\n        /* \"newone.sol\":41864:41867  str */\n      dup1\n        /* \"newone.sol\":42098:42103  value */\n      dup3\n        /* \"newone.sol\":42080:42499  for { let temp := value } 1 {} {... */\n    tag_242:\n        /* \"newone.sol\":42145:42146  1 */\n      0x01\n        /* \"newone.sol\":42140:42143  str */\n      dup4\n        /* \"newone.sol\":42136:42147  sub(str, 1) */\n      sub\n        /* \"newone.sol\":42129:42147  str := sub(str, 1) */\n      swap3\n      pop\n        /* \"newone.sol\":42313:42315  10 */\n      0x0a\n        /* \"newone.sol\":42307:42311  temp */\n      dup2\n        /* \"newone.sol\":42303:42316  mod(temp, 10) */\n      mod\n        /* \"newone.sol\":42299:42301  48 */\n      0x30\n        /* \"newone.sol\":42295:42317  add(48, mod(temp, 10)) */\n      add\n        /* \"newone.sol\":42290:42293  str */\n      dup4\n        /* \"newone.sol\":42282:42318  mstore8(str, add(48, mod(temp, 10))) */\n      mstore8\n        /* \"newone.sol\":42405:42407  10 */\n      0x0a\n        /* \"newone.sol\":42395:42408  div(temp, 10) */\n      swap1\n      div\n        /* \"newone.sol\":42460:42485  if iszero(temp) { break } */\n      dup1\n        /* \"newone.sol\":42080:42499  for { let temp := value } 1 {} {... */\n      tag_242\n        /* \"newone.sol\":42460:42485  if iszero(temp) { break } */\n      jumpi\n      pop\n        /* \"newone.sol\":42527:42540  sub(end, str) */\n      dup2\n      swap1\n      sub\n        /* \"newone.sol\":42640:42654  sub(str, 0x20) */\n      0xffffffffffffffffffffffffffffffffffffffffffffffffffffffffffffffe0\n      swap1\n      swap2\n      add\n        /* \"newone.sol\":42700:42719  mstore(str, length) */\n      swap1\n      dup2\n      mstore\n        /* \"newone.sol\":42640:42654  sub(str, 0x20) */\n      swap2\n        /* \"newone.sol\":41027:42735  function _toString(uint256 value) internal pure virtual returns (string memory str) {... */\n      swap1\n      pop\n      jump\t// out\n        /* \"newone.sol\":32788:33476  function _safeMint(... */\n    tag_239:\n        /* \"newone.sol\":32914:32933  _mint(to, quantity) */\n      tag_248\n        /* \"newone.sol\":32920:32922  to */\n      dup4\n        /* \"newone.sol\":32924:32932  quantity */\n      dup4\n        /* \"newone.sol\":32914:32919  _mint */\n      tag_249\n        /* \"newone.sol\":32914:32933  _mint(to, quantity) */\n      jump\t// in\n    tag_248:\n        /* \"newone.sol\":32972:32986  to.code.length */\n      0xffffffffffffffffffffffffffffffffffffffff\n      dup4\n      and\n      extcodesize\n        /* \"newone.sol\":32972:32991  to.code.length != 0 */\n      iszero\n        /* \"newone.sol\":32968:33460  if (to.code.length != 0) {... */\n      tag_146\n      jumpi\n        /* \"newone.sol\":33011:33022  uint256 end */\n      0x00\n        /* \"newone.sol\":33025:33038  _currentIndex */\n      sload\n        /* \"newone.sol\":33072:33086  end - quantity */\n      dup3\n      dup2\n      sub\n        /* \"newone.sol\":33104:33342  do {... */\n    tag_251:\n        /* \"newone.sol\":33134:33196  _checkContractOnERC721Received(address(0), to, index++, _data) */\n      tag_254\n        /* \"newone.sol\":33173:33174  0 */\n      0x00\n        /* \"newone.sol\":33177:33179  to */\n      dup7\n        /* \"newone.sol\":33181:33188  index++ */\n      dup4\n      dup1\n      0x01\n      add\n      swap5\n      pop\n        /* \"newone.sol\":33190:33195  _data */\n      dup7\n        /* \"newone.sol\":33134:33164  _checkContractOnERC721Received */\n      tag_166\n        /* \"newone.sol\":33134:33196  _checkContractOnERC721Received(address(0), to, index++, _data) */\n      jump\t// in\n    tag_254:\n        /* \"newone.sol\":33129:33303  if (!_checkContractOnERC721Received(address(0), to, index++, _data)) {... */\n      tag_256\n      jumpi\n        /* \"newone.sol\":33224:33280  _revert(TransferToNonERC721ReceiverImplementer.selector) */\n      tag_256\n        /* \"newone.sol\":33232:33279  TransferToNonERC721ReceiverImplementer.selector */\n      0xd1a57ed600000000000000000000000000000000000000000000000000000000\n        /* \"newone.sol\":33224:33231  _revert */\n      tag_108\n        /* \"newone.sol\":33224:33280  _revert(TransferToNonERC721ReceiverImplementer.selector) */\n      jump\t// in\n    tag_256:\n        /* \"newone.sol\":33337:33340  end */\n      dup2\n        /* \"newone.sol\":33329:33334  index */\n      dup2\n        /* \"newone.sol\":33329:33340  index < end */\n      lt\n        /* \"newone.sol\":33104:33342  do {... */\n      tag_251\n      jumpi\n        /* \"newone.sol\":33422:33425  end */\n      dup2\n        /* \"newone.sol\":33405:33418  _currentIndex */\n      sload(0x00)\n        /* \"newone.sol\":33405:33425  _currentIndex != end */\n      eq\n        /* \"newone.sol\":33401:33445  if (_currentIndex != end) _revert(bytes4(0)) */\n      tag_258\n      jumpi\n        /* \"newone.sol\":33427:33445  _revert(bytes4(0)) */\n      tag_258\n        /* \"newone.sol\":33442:33443  0 */\n      0x00\n        /* \"newone.sol\":33427:33434  _revert */\n      tag_108\n        /* \"newone.sol\":33427:33445  _revert(bytes4(0)) */\n      jump\t// in\n    tag_258:\n        /* \"newone.sol\":32993:33460  {... */\n      pop\n      pop\n        /* \"newone.sol\":32788:33476  function _safeMint(... */\n      pop\n      pop\n      pop\n      jump\t// out\n        /* \"newone.sol\":27828:30079  function _mint(address to, uint256 quantity) internal virtual {... */\n    tag_249:\n        /* \"newone.sol\":27900:27920  uint256 startTokenId */\n      0x00\n        /* \"newone.sol\":27923:27936  _currentIndex */\n      dup1\n      sload\n      swap1\n        /* \"newone.sol\":27950:27963  quantity == 0 */\n      dup3\n      swap1\n      sub\n        /* \"newone.sol\":27946:27999  if (quantity == 0) _revert(MintZeroQuantity.selector) */\n      tag_261\n      jumpi\n        /* \"newone.sol\":27965:27999  _revert(MintZeroQuantity.selector) */\n      tag_261\n        /* \"newone.sol\":27973:27998  MintZeroQuantity.selector */\n      0xb562e8dd00000000000000000000000000000000000000000000000000000000\n        /* \"newone.sol\":27965:27972  _revert */\n      tag_108\n        /* \"newone.sol\":27965:27999  _revert(MintZeroQuantity.selector) */\n      jump\t// in\n    tag_261:\n        /* \"newone.sol\":28499:28530  _packedOwnerships[startTokenId] */\n      0x00\n      dup2\n      dup2\n      mstore\n        /* \"newone.sol\":28499:28516  _packedOwnerships */\n      0x04\n        /* \"newone.sol\":28499:28530  _packedOwnerships[startTokenId] */\n      0x20\n      swap1\n      dup2\n      mstore\n      0x40\n      dup1\n      dup4\n      keccak256\n        /* \"newone.sol\":15115:15131  _BITMASK_ADDRESS */\n      0xffffffffffffffffffffffffffffffffffffffff\n        /* \"newone.sol\":15104:15132  and(owner, _BITMASK_ADDRESS) */\n      dup8\n      and\n        /* \"newone.sol\":15276:15287  timestamp() */\n      timestamp\n        /* \"newone.sol\":15251:15274  _BITPOS_START_TIMESTAMP */\n      0xa0\n        /* \"newone.sol\":15247:15288  shl(_BITPOS_START_TIMESTAMP, timestamp()) */\n      shl\n        /* \"newone.sol\":15709:15710  1 */\n      0x01\n        /* \"newone.sol\":15696:15711  eq(quantity, 1) */\n      dup9\n      eq\n        /* \"newone.sol\":15670:15694  _BITPOS_NEXT_INITIALIZED */\n      0xe1\n        /* \"newone.sol\":15666:15712  shl(_BITPOS_NEXT_INITIALIZED, eq(quantity, 1)) */\n      shl\n        /* \"newone.sol\":15244:15296  or(shl(_BITPOS_START_TIMESTAMP, timestamp()), flags) */\n      or\n        /* \"newone.sol\":15234:15297  or(owner, or(shl(_BITPOS_START_TIMESTAMP, timestamp()), flags)) */\n      dup2\n      or\n        /* \"newone.sol\":28499:28669  _packedOwnerships[startTokenId] = _packOwnershipData(... */\n      swap1\n      swap2\n      sstore\n        /* \"newone.sol\":28880:28902  _packedAddressData[to] */\n      dup1\n      dup5\n      mstore\n        /* \"newone.sol\":28880:28898  _packedAddressData */\n      0x05\n        /* \"newone.sol\":28880:28902  _packedAddressData[to] */\n      swap1\n      swap3\n      mstore\n      dup3\n      keccak256\n        /* \"newone.sol\":28880:28951  _packedAddressData[to] += quantity * ((1 << _BITPOS_NUMBER_MINTED) | 1) */\n      dup1\n      sload\n        /* \"newone.sol\":28918:28950  (1 << _BITPOS_NUMBER_MINTED) | 1 */\n      0x010000000000000001\n        /* \"newone.sol\":28906:28951  quantity * ((1 << _BITPOS_NUMBER_MINTED) | 1) */\n      dup7\n      mul\n        /* \"newone.sol\":28880:28951  _packedAddressData[to] += quantity * ((1 << _BITPOS_NUMBER_MINTED) | 1) */\n      add\n      swap1\n      sstore\n        /* \"newone.sol\":15104:15132  and(owner, _BITMASK_ADDRESS) */\n      swap1\n        /* \"newone.sol\":29136:29149  toMasked == 0 */\n      dup2\n      swap1\n      sub\n        /* \"newone.sol\":29132:29186  if (toMasked == 0) _revert(MintToZeroAddress.selector) */\n      tag_268\n      jumpi\n        /* \"newone.sol\":29151:29186  _revert(MintToZeroAddress.selector) */\n      tag_268\n        /* \"newone.sol\":29159:29185  MintToZeroAddress.selector */\n      0x2e07630000000000000000000000000000000000000000000000000000000000\n        /* \"newone.sol\":29151:29158  _revert */\n      tag_108\n        /* \"newone.sol\":29151:29186  _revert(MintToZeroAddress.selector) */\n      jump\t// in\n    tag_268:\n        /* \"newone.sol\":29215:29238  startTokenId + quantity */\n      dup2\n      dup4\n      add\n        /* \"newone.sol\":29215:29227  startTokenId */\n      dup3\n        /* \"newone.sol\":29297:29959  do {... */\n    tag_269:\n        /* \"newone.sol\":29707:29714  tokenId */\n      dup1\n        /* \"newone.sol\":29664:29672  toMasked */\n      dup4\n        /* \"newone.sol\":29620:29621  0 */\n      0x00\n        /* \"newone.sol\":29555:29580  _TRANSFER_EVENT_SIGNATURE */\n      0xddf252ad1be2c89b69c2b068fc378daa952ba7f163c4a11628f55a4df523b3ef\n        /* \"newone.sol\":29493:29494  0 */\n      0x00\n        /* \"newone.sol\":29429:29430  0 */\n      dup1\n        /* \"newone.sol\":29399:29750  log4(... */\n      log4\n        /* \"newone.sol\":29954:29957  end */\n      dup2\n        /* \"newone.sol\":29941:29950  ++tokenId */\n      dup2\n      0x01\n      add\n      swap2\n      pop\n      dup2\n        /* \"newone.sol\":29941:29957  ++tokenId != end */\n      sub\n        /* \"newone.sol\":29297:29959  do {... */\n      tag_269\n      jumpi\n      pop\n        /* \"newone.sol\":29973:29986  _currentIndex */\n      0x00\n        /* \"newone.sol\":29973:29992  _currentIndex = end */\n      sstore\n      pop\n        /* \"newone.sol\":23510:23697  function safeTransferFrom(... */\n      pop\n      pop\n      pop\n      jump\t// out\n        /* \"#utility.yul\":14:191   */\n    tag_274:\n        /* \"#utility.yul\":99:165   */\n      0xffffffff00000000000000000000000000000000000000000000000000000000\n        /* \"#utility.yul\":92:97   */\n      dup2\n        /* \"#utility.yul\":88:166   */\n      and\n        /* \"#utility.yul\":81:86   */\n      dup2\n        /* \"#utility.yul\":78:167   */\n      eq\n        /* \"#utility.yul\":68:185   */\n      tag_170\n      jumpi\n        /* \"#utility.yul\":181:182   */\n      0x00\n        /* \"#utility.yul\":178:179   */\n      dup1\n        /* \"#utility.yul\":171:183   */\n      revert\n        /* \"#utility.yul\":196:441   */\n    tag_23:\n        /* \"#utility.yul\":254:260   */\n      0x00\n        /* \"#utility.yul\":307:309   */\n      0x20\n        /* \"#utility.yul\":295:304   */\n      dup3\n        /* \"#utility.yul\":286:293   */\n      dup5\n        /* \"#utility.yul\":282:305   */\n      sub\n        /* \"#utility.yul\":278:310   */\n      slt\n        /* \"#utility.yul\":275:327   */\n      iszero\n      tag_283\n      jumpi\n        /* \"#utility.yul\":323:324   */\n      0x00\n        /* \"#utility.yul\":320:321   */\n      dup1\n        /* \"#utility.yul\":313:325   */\n      revert\n        /* \"#utility.yul\":275:327   */\n    tag_283:\n        /* \"#utility.yul\":362:371   */\n      dup2\n        /* \"#utility.yul\":349:372   */\n      calldataload\n        /* \"#utility.yul\":381:411   */\n      tag_179\n        /* \"#utility.yul\":405:410   */\n      dup2\n        /* \"#utility.yul\":381:411   */\n      tag_274\n      jump\t// in\n        /* \"#utility.yul\":638:888   */\n    tag_275:\n        /* \"#utility.yul\":723:724   */\n      0x00\n        /* \"#utility.yul\":733:846   */\n    tag_287:\n        /* \"#utility.yul\":747:753   */\n      dup4\n        /* \"#utility.yul\":744:745   */\n      dup2\n        /* \"#utility.yul\":741:754   */\n      lt\n        /* \"#utility.yul\":733:846   */\n      iszero\n      tag_289\n      jumpi\n        /* \"#utility.yul\":823:834   */\n      dup2\n      dup2\n      add\n        /* \"#utility.yul\":817:835   */\n      mload\n        /* \"#utility.yul\":804:815   */\n      dup4\n      dup3\n      add\n        /* \"#utility.yul\":797:836   */\n      mstore\n        /* \"#utility.yul\":769:771   */\n      0x20\n        /* \"#utility.yul\":762:772   */\n      add\n        /* \"#utility.yul\":733:846   */\n      jump(tag_287)\n    tag_289:\n      pop\n      pop\n        /* \"#utility.yul\":880:881   */\n      0x00\n        /* \"#utility.yul\":862:878   */\n      swap2\n      add\n        /* \"#utility.yul\":855:882   */\n      mstore\n        /* \"#utility.yul\":638:888   */\n      jump\t// out\n        /* \"#utility.yul\":893:1223   */\n    tag_276:\n        /* \"#utility.yul\":935:938   */\n      0x00\n        /* \"#utility.yul\":973:978   */\n      dup2\n        /* \"#utility.yul\":967:979   */\n      mload\n        /* \"#utility.yul\":1000:1006   */\n      dup1\n        /* \"#utility.yul\":995:998   */\n      dup5\n        /* \"#utility.yul\":988:1007   */\n      mstore\n        /* \"#utility.yul\":1016:1092   */\n      tag_291\n        /* \"#utility.yul\":1085:1091   */\n      dup2\n        /* \"#utility.yul\":1078:1082   */\n      0x20\n        /* \"#utility.yul\":1073:1076   */\n      dup7\n        /* \"#utility.yul\":1069:1083   */\n      add\n        /* \"#utility.yul\":1062:1066   */\n      0x20\n        /* \"#utility.yul\":1055:1060   */\n      dup7\n        /* \"#utility.yul\":1051:1067   */\n      add\n        /* \"#utility.yul\":1016:1092   */\n      tag_275\n      jump\t// in\n    tag_291:\n        /* \"#utility.yul\":1137:1139   */\n      0x1f\n        /* \"#utility.yul\":1125:1140   */\n      add\n        /* \"#utility.yul\":1142:1208   */\n      0xffffffffffffffffffffffffffffffffffffffffffffffffffffffffffffffe0\n        /* \"#utility.yul\":1121:1209   */\n      and\n        /* \"#utility.yul\":1112:1210   */\n      swap3\n      swap1\n      swap3\n      add\n        /* \"#utility.yul\":1212:1216   */\n      0x20\n        /* \"#utility.yul\":1108:1217   */\n      add\n      swap3\n        /* \"#utility.yul\":893:1223   */\n      swap2\n      pop\n      pop\n      jump\t// out\n        /* \"#utility.yul\":1228:1448   */\n    tag_31:\n        /* \"#utility.yul\":1377:1379   */\n      0x20\n        /* \"#utility.yul\":1366:1375   */\n      dup2\n        /* \"#utility.yul\":1359:1380   */\n      mstore\n        /* \"#utility.yul\":1340:1344   */\n      0x00\n        /* \"#utility.yul\":1397:1442   */\n      tag_179\n        /* \"#utility.yul\":1438:1440   */\n      0x20\n        /* \"#utility.yul\":1427:1436   */\n      dup4\n        /* \"#utility.yul\":1423:1441   */\n      add\n        /* \"#utility.yul\":1415:1421   */\n      dup5\n        /* \"#utility.yul\":1397:1442   */\n      tag_276\n      jump\t// in\n        /* \"#utility.yul\":1453:1633   */\n    tag_35:\n        /* \"#utility.yul\":1512:1518   */\n      0x00\n        /* \"#utility.yul\":1565:1567   */\n      0x20\n        /* \"#utility.yul\":1553:1562   */\n      dup3\n        /* \"#utility.yul\":1544:1551   */\n      dup5\n        /* \"#utility.yul\":1540:1563   */\n      sub\n        /* \"#utility.yul\":1536:1568   */\n      slt\n        /* \"#utility.yul\":1533:1585   */\n      iszero\n      tag_295\n      jumpi\n        /* \"#utility.yul\":1581:1582   */\n      0x00\n        /* \"#utility.yul\":1578:1579   */\n      dup1\n        /* \"#utility.yul\":1571:1583   */\n      revert\n        /* \"#utility.yul\":1533:1585   */\n    tag_295:\n      pop\n        /* \"#utility.yul\":1604:1627   */\n      calldataload\n      swap2\n        /* \"#utility.yul\":1453:1633   */\n      swap1\n      pop\n      jump\t// out\n        /* \"#utility.yul\":1869:2065   */\n    tag_277:\n        /* \"#utility.yul\":1937:1957   */\n      dup1\n      calldataload\n        /* \"#utility.yul\":1997:2039   */\n      0xffffffffffffffffffffffffffffffffffffffff\n        /* \"#utility.yul\":1986:2040   */\n      dup2\n      and\n        /* \"#utility.yul\":1976:2041   */\n      dup2\n      eq\n        /* \"#utility.yul\":1966:2059   */\n      tag_210\n      jumpi\n        /* \"#utility.yul\":2055:2056   */\n      0x00\n        /* \"#utility.yul\":2052:2053   */\n      dup1\n        /* \"#utility.yul\":2045:2057   */\n      revert\n        /* \"#utility.yul\":2070:2324   */\n    tag_41:\n        /* \"#utility.yul\":2138:2144   */\n      0x00\n        /* \"#utility.yul\":2146:2152   */\n      dup1\n        /* \"#utility.yul\":2199:2201   */\n      0x40\n        /* \"#utility.yul\":2187:2196   */\n      dup4\n        /* \"#utility.yul\":2178:2185   */\n      dup6\n        /* \"#utility.yul\":2174:2197   */\n      sub\n        /* \"#utility.yul\":2170:2202   */\n      slt\n        /* \"#utility.yul\":2167:2219   */\n      iszero\n      tag_300\n      jumpi\n        /* \"#utility.yul\":2215:2216   */\n      0x00\n        /* \"#utility.yul\":2212:2213   */\n      dup1\n        /* \"#utility.yul\":2205:2217   */\n      revert\n        /* \"#utility.yul\":2167:2219   */\n    tag_300:\n        /* \"#utility.yul\":2238:2267   */\n      tag_301\n        /* \"#utility.yul\":2257:2266   */\n      dup4\n        /* \"#utility.yul\":2238:2267   */\n      tag_277\n      jump\t// in\n    tag_301:\n        /* \"#utility.yul\":2228:2267   */\n      swap5\n        /* \"#utility.yul\":2314:2316   */\n      0x20\n        /* \"#utility.yul\":2299:2317   */\n      swap4\n      swap1\n      swap4\n      add\n        /* \"#utility.yul\":2286:2318   */\n      calldataload\n      swap4\n      pop\n      pop\n      pop\n        /* \"#utility.yul\":2070:2324   */\n      jump\t// out\n        /* \"#utility.yul\":2511:2839   */\n    tag_50:\n        /* \"#utility.yul\":2588:2594   */\n      0x00\n        /* \"#utility.yul\":2596:2602   */\n      dup1\n        /* \"#utility.yul\":2604:2610   */\n      0x00\n        /* \"#utility.yul\":2657:2659   */\n      0x60\n        /* \"#utility.yul\":2645:2654   */\n      dup5\n        /* \"#utility.yul\":2636:2643   */\n      dup7\n        /* \"#utility.yul\":2632:2655   */\n      sub\n        /* \"#utility.yul\":2628:2660   */\n      slt\n        /* \"#utility.yul\":2625:2677   */\n      iszero\n      tag_304\n      jumpi\n        /* \"#utility.yul\":2673:2674   */\n      0x00\n        /* \"#utility.yul\":2670:2671   */\n      dup1\n        /* \"#utility.yul\":2663:2675   */\n      revert\n        /* \"#utility.yul\":2625:2677   */\n    tag_304:\n        /* \"#utility.yul\":2696:2725   */\n      tag_305\n        /* \"#utility.yul\":2715:2724   */\n      dup5\n        /* \"#utility.yul\":2696:2725   */\n      tag_277\n      jump\t// in\n    tag_305:\n        /* \"#utility.yul\":2686:2725   */\n      swap3\n      pop\n        /* \"#utility.yul\":2744:2782   */\n      tag_306\n        /* \"#utility.yul\":2778:2780   */\n      0x20\n        /* \"#utility.yul\":2767:2776   */\n      dup6\n        /* \"#utility.yul\":2763:2781   */\n      add\n        /* \"#utility.yul\":2744:2782   */\n      tag_277\n      jump\t// in\n    tag_306:\n        /* \"#utility.yul\":2734:2782   */\n      swap2\n      pop\n        /* \"#utility.yul\":2829:2831   */\n      0x40\n        /* \"#utility.yul\":2818:2827   */\n      dup5\n        /* \"#utility.yul\":2814:2832   */\n      add\n        /* \"#utility.yul\":2801:2833   */\n      calldataload\n        /* \"#utility.yul\":2791:2833   */\n      swap1\n      pop\n        /* \"#utility.yul\":2511:2839   */\n      swap3\n      pop\n      swap3\n      pop\n      swap3\n      jump\t// out\n        /* \"#utility.yul\":2844:3030   */\n    tag_63:\n        /* \"#utility.yul\":2903:2909   */\n      0x00\n        /* \"#utility.yul\":2956:2958   */\n      0x20\n        /* \"#utility.yul\":2944:2953   */\n      dup3\n        /* \"#utility.yul\":2935:2942   */\n      dup5\n        /* \"#utility.yul\":2931:2954   */\n      sub\n        /* \"#utility.yul\":2927:2959   */\n      slt\n        /* \"#utility.yul\":2924:2976   */\n      iszero\n      tag_308\n      jumpi\n        /* \"#utility.yul\":2972:2973   */\n      0x00\n        /* \"#utility.yul\":2969:2970   */\n      dup1\n        /* \"#utility.yul\":2962:2974   */\n      revert\n        /* \"#utility.yul\":2924:2976   */\n    tag_308:\n        /* \"#utility.yul\":2995:3024   */\n      tag_179\n        /* \"#utility.yul\":3014:3023   */\n      dup3\n        /* \"#utility.yul\":2995:3024   */\n      tag_277\n      jump\t// in\n        /* \"#utility.yul\":3035:3382   */\n    tag_73:\n        /* \"#utility.yul\":3100:3106   */\n      0x00\n        /* \"#utility.yul\":3108:3114   */\n      dup1\n        /* \"#utility.yul\":3161:3163   */\n      0x40\n        /* \"#utility.yul\":3149:3158   */\n      dup4\n        /* \"#utility.yul\":3140:3147   */\n      dup6\n        /* \"#utility.yul\":3136:3159   */\n      sub\n        /* \"#utility.yul\":3132:3164   */\n      slt\n        /* \"#utility.yul\":3129:3181   */\n      iszero\n      tag_311\n      jumpi\n        /* \"#utility.yul\":3177:3178   */\n      0x00\n        /* \"#utility.yul\":3174:3175   */\n      dup1\n        /* \"#utility.yul\":3167:3179   */\n      revert\n        /* \"#utility.yul\":3129:3181   */\n    tag_311:\n        /* \"#utility.yul\":3200:3229   */\n      tag_312\n        /* \"#utility.yul\":3219:3228   */\n      dup4\n        /* \"#utility.yul\":3200:3229   */\n      tag_277\n      jump\t// in\n    tag_312:\n        /* \"#utility.yul\":3190:3229   */\n      swap2\n      pop\n        /* \"#utility.yul\":3279:3281   */\n      0x20\n        /* \"#utility.yul\":3268:3277   */\n      dup4\n        /* \"#utility.yul\":3264:3282   */\n      add\n        /* \"#utility.yul\":3251:3283   */\n      calldataload\n        /* \"#utility.yul\":3326:3331   */\n      dup1\n        /* \"#utility.yul\":3319:3332   */\n      iszero\n        /* \"#utility.yul\":3312:3333   */\n      iszero\n        /* \"#utility.yul\":3305:3310   */\n      dup2\n        /* \"#utility.yul\":3302:3334   */\n      eq\n        /* \"#utility.yul\":3292:3352   */\n      tag_313\n      jumpi\n        /* \"#utility.yul\":3348:3349   */\n      0x00\n        /* \"#utility.yul\":3345:3346   */\n      dup1\n        /* \"#utility.yul\":3338:3350   */\n      revert\n        /* \"#utility.yul\":3292:3352   */\n    tag_313:\n        /* \"#utility.yul\":3371:3376   */\n      dup1\n        /* \"#utility.yul\":3361:3376   */\n      swap2\n      pop\n      pop\n        /* \"#utility.yul\":3035:3382   */\n      swap3\n      pop\n      swap3\n      swap1\n      pop\n      jump\t// out\n        /* \"#utility.yul\":3387:3571   */\n    tag_278:\n        /* \"#utility.yul\":3439:3516   */\n      0x4e487b7100000000000000000000000000000000000000000000000000000000\n        /* \"#utility.yul\":3436:3437   */\n      0x00\n        /* \"#utility.yul\":3429:3517   */\n      mstore\n        /* \"#utility.yul\":3536:3540   */\n      0x41\n        /* \"#utility.yul\":3533:3534   */\n      0x04\n        /* \"#utility.yul\":3526:3541   */\n      mstore\n        /* \"#utility.yul\":3560:3564   */\n      0x24\n        /* \"#utility.yul\":3557:3558   */\n      0x00\n        /* \"#utility.yul\":3550:3565   */\n      revert\n        /* \"#utility.yul\":3576:4773   */\n    tag_77:\n        /* \"#utility.yul\":3671:3677   */\n      0x00\n        /* \"#utility.yul\":3679:3685   */\n      dup1\n        /* \"#utility.yul\":3687:3693   */\n      0x00\n        /* \"#utility.yul\":3695:3701   */\n      dup1\n        /* \"#utility.yul\":3748:3751   */\n      0x80\n        /* \"#utility.yul\":3736:3745   */\n      dup6\n        /* \"#utility.yul\":3727:3734   */\n      dup8\n        /* \"#utility.yul\":3723:3746   */\n      sub\n        /* \"#utility.yul\":3719:3752   */\n      slt\n        /* \"#utility.yul\":3716:3769   */\n      iszero\n      tag_316\n      jumpi\n        /* \"#utility.yul\":3765:3766   */\n      0x00\n        /* \"#utility.yul\":3762:3763   */\n      dup1\n        /* \"#utility.yul\":3755:3767   */\n      revert\n        /* \"#utility.yul\":3716:3769   */\n    tag_316:\n        /* \"#utility.yul\":3788:3817   */\n      tag_317\n        /* \"#utility.yul\":3807:3816   */\n      dup6\n        /* \"#utility.yul\":3788:3817   */\n      tag_277\n      jump\t// in\n    tag_317:\n        /* \"#utility.yul\":3778:3817   */\n      swap4\n      pop\n        /* \"#utility.yul\":3836:3874   */\n      tag_318\n        /* \"#utility.yul\":3870:3872   */\n      0x20\n        /* \"#utility.yul\":3859:3868   */\n      dup7\n        /* \"#utility.yul\":3855:3873   */\n      add\n        /* \"#utility.yul\":3836:3874   */\n      tag_277\n      jump\t// in\n    tag_318:\n        /* \"#utility.yul\":3826:3874   */\n      swap3\n      pop\n        /* \"#utility.yul\":3921:3923   */\n      0x40\n        /* \"#utility.yul\":3910:3919   */\n      dup6\n        /* \"#utility.yul\":3906:3924   */\n      add\n        /* \"#utility.yul\":3893:3925   */\n      calldataload\n        /* \"#utility.yul\":3883:3925   */\n      swap2\n      pop\n        /* \"#utility.yul\":3976:3978   */\n      0x60\n        /* \"#utility.yul\":3965:3974   */\n      dup6\n        /* \"#utility.yul\":3961:3979   */\n      add\n        /* \"#utility.yul\":3948:3980   */\n      calldataload\n        /* \"#utility.yul\":3999:4017   */\n      0xffffffffffffffff\n        /* \"#utility.yul\":4040:4042   */\n      dup1\n        /* \"#utility.yul\":4032:4038   */\n      dup3\n        /* \"#utility.yul\":4029:4043   */\n      gt\n        /* \"#utility.yul\":4026:4060   */\n      iszero\n      tag_319\n      jumpi\n        /* \"#utility.yul\":4056:4057   */\n      0x00\n        /* \"#utility.yul\":4053:4054   */\n      dup1\n        /* \"#utility.yul\":4046:4058   */\n      revert\n        /* \"#utility.yul\":4026:4060   */\n    tag_319:\n        /* \"#utility.yul\":4094:4100   */\n      dup2\n        /* \"#utility.yul\":4083:4092   */\n      dup8\n        /* \"#utility.yul\":4079:4101   */\n      add\n        /* \"#utility.yul\":4069:4101   */\n      swap2\n      pop\n        /* \"#utility.yul\":4139:4146   */\n      dup8\n        /* \"#utility.yul\":4132:4136   */\n      0x1f\n        /* \"#utility.yul\":4128:4130   */\n      dup4\n        /* \"#utility.yul\":4124:4137   */\n      add\n        /* \"#utility.yul\":4120:4147   */\n      slt\n        /* \"#utility.yul\":4110:4165   */\n      tag_320\n      jumpi\n        /* \"#utility.yul\":4161:4162   */\n      0x00\n        /* \"#utility.yul\":4158:4159   */\n      dup1\n        /* \"#utility.yul\":4151:4163   */\n      revert\n        /* \"#utility.yul\":4110:4165   */\n    tag_320:\n        /* \"#utility.yul\":4197:4199   */\n      dup2\n        /* \"#utility.yul\":4184:4200   */\n      calldataload\n        /* \"#utility.yul\":4219:4221   */\n      dup2\n        /* \"#utility.yul\":4215:4217   */\n      dup2\n        /* \"#utility.yul\":4212:4222   */\n      gt\n        /* \"#utility.yul\":4209:4245   */\n      iszero\n      tag_322\n      jumpi\n        /* \"#utility.yul\":4225:4243   */\n      tag_322\n      tag_278\n      jump\t// in\n    tag_322:\n        /* \"#utility.yul\":4359:4361   */\n      0x40\n        /* \"#utility.yul\":4353:4362   */\n      mload\n        /* \"#utility.yul\":4421:4425   */\n      0x1f\n        /* \"#utility.yul\":4413:4426   */\n      dup3\n      add\n        /* \"#utility.yul\":4264:4330   */\n      0xffffffffffffffffffffffffffffffffffffffffffffffffffffffffffffffe0\n        /* \"#utility.yul\":4409:4431   */\n      swap1\n      dup2\n      and\n        /* \"#utility.yul\":4433:4435   */\n      0x3f\n        /* \"#utility.yul\":4405:4436   */\n      add\n        /* \"#utility.yul\":4401:4441   */\n      and\n        /* \"#utility.yul\":4389:4442   */\n      dup2\n      add\n      swap1\n        /* \"#utility.yul\":4457:4475   */\n      dup4\n      dup3\n      gt\n        /* \"#utility.yul\":4477:4499   */\n      dup2\n      dup4\n      lt\n        /* \"#utility.yul\":4454:4500   */\n      or\n        /* \"#utility.yul\":4451:4523   */\n      iszero\n      tag_324\n      jumpi\n        /* \"#utility.yul\":4503:4521   */\n      tag_324\n      tag_278\n      jump\t// in\n    tag_324:\n        /* \"#utility.yul\":4543:4553   */\n      dup2\n        /* \"#utility.yul\":4539:4541   */\n      0x40\n        /* \"#utility.yul\":4532:4554   */\n      mstore\n        /* \"#utility.yul\":4578:4580   */\n      dup3\n        /* \"#utility.yul\":4570:4576   */\n      dup2\n        /* \"#utility.yul\":4563:4581   */\n      mstore\n        /* \"#utility.yul\":4618:4625   */\n      dup11\n        /* \"#utility.yul\":4613:4615   */\n      0x20\n        /* \"#utility.yul\":4608:4610   */\n      dup5\n        /* \"#utility.yul\":4604:4606   */\n      dup8\n        /* \"#utility.yul\":4600:4611   */\n      add\n        /* \"#utility.yul\":4596:4616   */\n      add\n        /* \"#utility.yul\":4593:4626   */\n      gt\n        /* \"#utility.yul\":4590:4643   */\n      iszero\n      tag_325\n      jumpi\n        /* \"#utility.yul\":4639:4640   */\n      0x00\n        /* \"#utility.yul\":4636:4637   */\n      dup1\n        /* \"#utility.yul\":4629:4641   */\n      revert\n        /* \"#utility.yul\":4590:4643   */\n    tag_325:\n        /* \"#utility.yul\":4695:4697   */\n      dup3\n        /* \"#utility.yul\":4690:4692   */\n      0x20\n        /* \"#utility.yul\":4686:4688   */\n      dup7\n        /* \"#utility.yul\":4682:4693   */\n      add\n        /* \"#utility.yul\":4677:4679   */\n      0x20\n        /* \"#utility.yul\":4669:4675   */\n      dup4\n        /* \"#utility.yul\":4665:4680   */\n      add\n        /* \"#utility.yul\":4652:4698   */\n      calldatacopy\n        /* \"#utility.yul\":4740:4741   */\n      0x00\n        /* \"#utility.yul\":4735:4737   */\n      0x20\n        /* \"#utility.yul\":4730:4732   */\n      dup5\n        /* \"#utility.yul\":4722:4728   */\n      dup4\n        /* \"#utility.yul\":4718:4733   */\n      add\n        /* \"#utility.yul\":4714:4738   */\n      add\n        /* \"#utility.yul\":4707:4742   */\n      mstore\n        /* \"#utility.yul\":4761:4767   */\n      dup1\n        /* \"#utility.yul\":4751:4767   */\n      swap6\n      pop\n      pop\n      pop\n      pop\n      pop\n      pop\n        /* \"#utility.yul\":3576:4773   */\n      swap3\n      swap6\n      swap2\n      swap5\n      pop\n      swap3\n      pop\n      jump\t// out\n        /* \"#utility.yul\":4778:5038   */\n    tag_90:\n        /* \"#utility.yul\":4846:4852   */\n      0x00\n        /* \"#utility.yul\":4854:4860   */\n      dup1\n        /* \"#utility.yul\":4907:4909   */\n      0x40\n        /* \"#utility.yul\":4895:4904   */\n      dup4\n        /* \"#utility.yul\":4886:4893   */\n      dup6\n        /* \"#utility.yul\":4882:4905   */\n      sub\n        /* \"#utility.yul\":4878:4910   */\n      slt\n        /* \"#utility.yul\":4875:4927   */\n      iszero\n      tag_327\n      jumpi\n        /* \"#utility.yul\":4923:4924   */\n      0x00\n        /* \"#utility.yul\":4920:4921   */\n      dup1\n        /* \"#utility.yul\":4913:4925   */\n      revert\n        /* \"#utility.yul\":4875:4927   */\n    tag_327:\n        /* \"#utility.yul\":4946:4975   */\n      tag_328\n        /* \"#utility.yul\":4965:4974   */\n      dup4\n        /* \"#utility.yul\":4946:4975   */\n      tag_277\n      jump\t// in\n    tag_328:\n        /* \"#utility.yul\":4936:4975   */\n      swap2\n      pop\n        /* \"#utility.yul\":4994:5032   */\n      tag_329\n        /* \"#utility.yul\":5028:5030   */\n      0x20\n        /* \"#utility.yul\":5017:5026   */\n      dup5\n        /* \"#utility.yul\":5013:5031   */\n      add\n        /* \"#utility.yul\":4994:5032   */\n      tag_277\n      jump\t// in\n    tag_329:\n        /* \"#utility.yul\":4984:5032   */\n      swap1\n      pop\n        /* \"#utility.yul\":4778:5038   */\n      swap3\n      pop\n      swap3\n      swap1\n      pop\n      jump\t// out\n        /* \"#utility.yul\":5043:5480   */\n    tag_98:\n        /* \"#utility.yul\":5122:5123   */\n      0x01\n        /* \"#utility.yul\":5118:5130   */\n      dup2\n      dup2\n      shr\n      swap1\n        /* \"#utility.yul\":5165:5177   */\n      dup3\n      and\n      dup1\n        /* \"#utility.yul\":5186:5247   */\n      tag_331\n      jumpi\n        /* \"#utility.yul\":5240:5244   */\n      0x7f\n        /* \"#utility.yul\":5232:5238   */\n      dup3\n        /* \"#utility.yul\":5228:5245   */\n      and\n        /* \"#utility.yul\":5218:5245   */\n      swap2\n      pop\n        /* \"#utility.yul\":5186:5247   */\n    tag_331:\n        /* \"#utility.yul\":5293:5295   */\n      0x20\n        /* \"#utility.yul\":5285:5291   */\n      dup3\n        /* \"#utility.yul\":5282:5296   */\n      lt\n        /* \"#utility.yul\":5262:5280   */\n      dup2\n        /* \"#utility.yul\":5259:5297   */\n      sub\n        /* \"#utility.yul\":5256:5474   */\n      tag_332\n      jumpi\n        /* \"#utility.yul\":5330:5407   */\n      0x4e487b7100000000000000000000000000000000000000000000000000000000\n        /* \"#utility.yul\":5327:5328   */\n      0x00\n        /* \"#utility.yul\":5320:5408   */\n      mstore\n        /* \"#utility.yul\":5431:5435   */\n      0x22\n        /* \"#utility.yul\":5428:5429   */\n      0x04\n        /* \"#utility.yul\":5421:5436   */\n      mstore\n        /* \"#utility.yul\":5459:5463   */\n      0x24\n        /* \"#utility.yul\":5456:5457   */\n      0x00\n        /* \"#utility.yul\":5449:5464   */\n      revert\n        /* \"#utility.yul\":5256:5474   */\n    tag_332:\n      pop\n        /* \"#utility.yul\":5043:5480   */\n      swap2\n      swap1\n      pop\n      jump\t// out\n        /* \"#utility.yul\":5485:5981   */\n    tag_183:\n        /* \"#utility.yul\":5664:5667   */\n      0x00\n        /* \"#utility.yul\":5702:5708   */\n      dup4\n        /* \"#utility.yul\":5696:5709   */\n      mload\n        /* \"#utility.yul\":5718:5784   */\n      tag_334\n        /* \"#utility.yul\":5777:5783   */\n      dup2\n        /* \"#utility.yul\":5772:5775   */\n      dup5\n        /* \"#utility.yul\":5765:5769   */\n      0x20\n        /* \"#utility.yul\":5757:5763   */\n      dup9\n        /* \"#utility.yul\":5753:5770   */\n      add\n        /* \"#utility.yul\":5718:5784   */\n      tag_275\n      jump\t// in\n    tag_334:\n        /* \"#utility.yul\":5847:5860   */\n      dup4\n      mload\n        /* \"#utility.yul\":5806:5822   */\n      swap1\n      dup4\n      add\n      swap1\n        /* \"#utility.yul\":5869:5939   */\n      tag_335\n        /* \"#utility.yul\":5847:5860   */\n      dup2\n        /* \"#utility.yul\":5806:5822   */\n      dup4\n        /* \"#utility.yul\":5916:5920   */\n      0x20\n        /* \"#utility.yul\":5904:5921   */\n      dup9\n      add\n        /* \"#utility.yul\":5869:5939   */\n      tag_275\n      jump\t// in\n    tag_335:\n        /* \"#utility.yul\":5955:5975   */\n      add\n      swap5\n        /* \"#utility.yul\":5485:5981   */\n      swap4\n      pop\n      pop\n      pop\n      pop\n      jump\t// out\n        /* \"#utility.yul\":5986:6498   */\n    tag_224:\n        /* \"#utility.yul\":6180:6184   */\n      0x00\n        /* \"#utility.yul\":6209:6251   */\n      0xffffffffffffffffffffffffffffffffffffffff\n        /* \"#utility.yul\":6290:6292   */\n      dup1\n        /* \"#utility.yul\":6282:6288   */\n      dup8\n        /* \"#utility.yul\":6278:6293   */\n      and\n        /* \"#utility.yul\":6267:6276   */\n      dup4\n        /* \"#utility.yul\":6260:6294   */\n      mstore\n        /* \"#utility.yul\":6342:6344   */\n      dup1\n        /* \"#utility.yul\":6334:6340   */\n      dup7\n        /* \"#utility.yul\":6330:6345   */\n      and\n        /* \"#utility.yul\":6325:6327   */\n      0x20\n        /* \"#utility.yul\":6314:6323   */\n      dup5\n        /* \"#utility.yul\":6310:6328   */\n      add\n        /* \"#utility.yul\":6303:6346   */\n      mstore\n      pop\n        /* \"#utility.yul\":6382:6388   */\n      dup4\n        /* \"#utility.yul\":6377:6379   */\n      0x40\n        /* \"#utility.yul\":6366:6375   */\n      dup4\n        /* \"#utility.yul\":6362:6380   */\n      add\n        /* \"#utility.yul\":6355:6389   */\n      mstore\n        /* \"#utility.yul\":6425:6428   */\n      0x80\n        /* \"#utility.yul\":6420:6422   */\n      0x60\n        /* \"#utility.yul\":6409:6418   */\n      dup4\n        /* \"#utility.yul\":6405:6423   */\n      add\n        /* \"#utility.yul\":6398:6429   */\n      mstore\n        /* \"#utility.yul\":6446:6492   */\n      tag_337\n        /* \"#utility.yul\":6487:6490   */\n      0x80\n        /* \"#utility.yul\":6476:6485   */\n      dup4\n        /* \"#utility.yul\":6472:6491   */\n      add\n        /* \"#utility.yul\":6464:6470   */\n      dup5\n        /* \"#utility.yul\":6446:6492   */\n      tag_276\n      jump\t// in\n    tag_337:\n        /* \"#utility.yul\":6438:6492   */\n      swap7\n        /* \"#utility.yul\":5986:6498   */\n      swap6\n      pop\n      pop\n      pop\n      pop\n      pop\n      pop\n      jump\t// out\n        /* \"#utility.yul\":6503:6752   */\n    tag_227:\n        /* \"#utility.yul\":6572:6578   */\n      0x00\n        /* \"#utility.yul\":6625:6627   */\n      0x20\n        /* \"#utility.yul\":6613:6622   */\n      dup3\n        /* \"#utility.yul\":6604:6611   */\n      dup5\n        /* \"#utility.yul\":6600:6623   */\n      sub\n        /* \"#utility.yul\":6596:6628   */\n      slt\n        /* \"#utility.yul\":6593:6645   */\n      iszero\n      tag_339\n      jumpi\n        /* \"#utility.yul\":6641:6642   */\n      0x00\n        /* \"#utility.yul\":6638:6639   */\n      dup1\n        /* \"#utility.yul\":6631:6643   */\n      revert\n        /* \"#utility.yul\":6593:6645   */\n    tag_339:\n        /* \"#utility.yul\":6673:6682   */\n      dup2\n        /* \"#utility.yul\":6667:6683   */\n      mload\n        /* \"#utility.yul\":6692:6722   */\n      tag_179\n        /* \"#utility.yul\":6716:6721   */\n      dup2\n        /* \"#utility.yul\":6692:6722   */\n      tag_274\n      jump\t// in\n\n    auxdata: 0xa2646970667358221220c56e173a6015eb4583e55fb8f99b85ba820ff970d423c2bbad236a5456f8f33164736f6c63430008110033\n}\n",
				"bytecode": {
					"linkReferences": {},
					"object": "60806040523480156200001157600080fd5b506040516200163638038062001636833981016040819052620000349162000123565b60026200004283826200021c565b5060036200005182826200021c565b50506000805550620002e8565b634e487b7160e01b600052604160045260246000fd5b600082601f8301126200008657600080fd5b81516001600160401b0380821115620000a357620000a36200005e565b604051601f8301601f19908116603f01168101908282118183101715620000ce57620000ce6200005e565b81604052838152602092508683858801011115620000eb57600080fd5b600091505b838210156200010f5785820183015181830184015290820190620000f0565b600093810190920192909252949350505050565b600080604083850312156200013757600080fd5b82516001600160401b03808211156200014f57600080fd5b6200015d8683870162000074565b935060208501519150808211156200017457600080fd5b50620001838582860162000074565b9150509250929050565b600181811c90821680620001a257607f821691505b602082108103620001c357634e487b7160e01b600052602260045260246000fd5b50919050565b601f8211156200021757600081815260208120601f850160051c81016020861015620001f25750805b601f850160051c820191505b818110156200021357828155600101620001fe565b5050505b505050565b81516001600160401b038111156200023857620002386200005e565b62000250816200024984546200018d565b84620001c9565b602080601f8311600181146200028857600084156200026f5750858301515b600019600386901b1c1916600185901b17855562000213565b600085815260208120601f198616915b82811015620002b95788860151825594840194600190910190840162000298565b5085821015620002d85787850151600019600388901b60f8161c191681555b5050505050600190811b01905550565b61133e80620002f86000396000f3fe6080604052600436106100e85760003560e01c80636352211e1161008a578063b88d4fde11610059578063b88d4fde1461025c578063c634d0321461026f578063c87b56dd14610282578063e985e9c5146102a257600080fd5b80636352211e146101e757806370a082311461020757806395d89b4114610227578063a22cb4651461023c57600080fd5b8063095ea7b3116100c6578063095ea7b31461018957806318160ddd1461019e57806323b872dd146101c157806342842e0e146101d457600080fd5b806301ffc9a7146100ed57806306fdde0314610122578063081812fc14610144575b600080fd5b3480156100f957600080fd5b5061010d610108366004610f2c565b6102f8565b60405190151581526020015b60405180910390f35b34801561012e57600080fd5b506101376103dd565b6040516101199190610fb7565b34801561015057600080fd5b5061016461015f366004610fca565b61046f565b60405173ffffffffffffffffffffffffffffffffffffffff9091168152602001610119565b61019c610197366004611007565b6104d0565b005b3480156101aa57600080fd5b50600154600054035b604051908152602001610119565b61019c6101cf366004611031565b6104e0565b61019c6101e2366004611031565b610715565b3480156101f357600080fd5b50610164610202366004610fca565b610735565b34801561021357600080fd5b506101b361022236600461106d565b610740565b34801561023357600080fd5b506101376107b9565b34801561024857600080fd5b5061019c610257366004611088565b6107c8565b61019c61026a3660046110f3565b61085f565b61019c61027d366004610fca565b6108c6565b34801561028e57600080fd5b5061013761029d366004610fca565b6108d3565b3480156102ae57600080fd5b5061010d6102bd3660046111ed565b73ffffffffffffffffffffffffffffffffffffffff918216600090815260076020908152604080832093909416825291909152205460ff1690565b60007f01ffc9a7000000000000000000000000000000000000000000000000000000007fffffffff000000000000000000000000000000000000000000000000000000008316148061038b57507f80ac58cd000000000000000000000000000000000000000000000000000000007fffffffff000000000000000000000000000000000000000000000000000000008316145b806103d757507f5b5e139f000000000000000000000000000000000000000000000000000000007fffffffff000000000000000000000000000000000000000000000000000000008316145b92915050565b6060600280546103ec90611220565b80601f016020809104026020016040519081016040528092919081815260200182805461041890611220565b80156104655780601f1061043a57610100808354040283529160200191610465565b820191906000526020600020905b81548152906001019060200180831161044857829003601f168201915b5050505050905090565b600061047a82610974565b6104a7576104a77fcf4700e4000000000000000000000000000000000000000000000000000000006109b4565b5060009081526006602052604090205473ffffffffffffffffffffffffffffffffffffffff1690565b6104dc828260016109be565b5050565b60006104eb82610aac565b73ffffffffffffffffffffffffffffffffffffffff9485169490915081168414610538576105387fa1148100000000000000000000000000000000000000000000000000000000006109b4565b600082815260066020526040902080543380821473ffffffffffffffffffffffffffffffffffffffff8816909114176105a25761057586336102bd565b6105a2576105a27f59c896be000000000000000000000000000000000000000000000000000000006109b4565b80156105ad57600082555b73ffffffffffffffffffffffffffffffffffffffff86811660009081526005602052604080822080547fffffffffffffffffffffffffffffffffffffffffffffffffffffffffffffffff019055918716808252919020805460010190554260a01b177c0200000000000000000000000000000000000000000000000000000000176000858152600460205260408120919091557c02000000000000000000000000000000000000000000000000000000008416900361069c5760018401600081815260046020526040812054900361069a57600054811461069a5760008181526004602052604090208490555b505b73ffffffffffffffffffffffffffffffffffffffff85168481887fddf252ad1be2c89b69c2b068fc378daa952ba7f163c4a11628f55a4df523b3ef600080a48060000361070c5761070c7fea553b34000000000000000000000000000000000000000000000000000000006109b4565b50505050505050565b6107308383836040518060200160405280600081525061085f565b505050565b60006103d782610aac565b600073ffffffffffffffffffffffffffffffffffffffff8216610786576107867f8f4eb604000000000000000000000000000000000000000000000000000000006109b4565b5073ffffffffffffffffffffffffffffffffffffffff1660009081526005602052604090205467ffffffffffffffff1690565b6060600380546103ec90611220565b33600081815260076020908152604080832073ffffffffffffffffffffffffffffffffffffffff87168085529083529281902080547fffffffffffffffffffffffffffffffffffffffffffffffffffffffffffffff001686151590811790915590519081529192917f17307eab39ab6107e8899845ad3d59bd9653f200f220920489ca2b5937696c31910160405180910390a35050565b61086a8484846104e0565b73ffffffffffffffffffffffffffffffffffffffff83163b156108c05761089384848484610b84565b6108c0576108c07fd1a57ed6000000000000000000000000000000000000000000000000000000006109b4565b50505050565b6108d03382610cf4565b50565b60606108de82610974565b61090b5761090b7fa14c4b50000000000000000000000000000000000000000000000000000000006109b4565b600061092260408051602081019091526000815290565b90508051600003610942576040518060200160405280600081525061096d565b8061094c84610d0e565b60405160200161095d929190611273565b6040516020818303038152906040525b9392505050565b60008054821080156103d75750506000908152600460205260409020547c0100000000000000000000000000000000000000000000000000000000161590565b8060005260046000fd5b60006109c983610735565b90508180156109ee57503373ffffffffffffffffffffffffffffffffffffffff821614155b15610a2a576109fd81336102bd565b610a2a57610a2a7fcfb3b942000000000000000000000000000000000000000000000000000000006109b4565b60008381526006602052604080822080547fffffffffffffffffffffffff00000000000000000000000000000000000000001673ffffffffffffffffffffffffffffffffffffffff88811691821790925591518693918516917f8c5be1e5ebec7d5bd14f71427d1e84f3dd0314c0f7b2291e5b200ac8c7c3b92591a450505050565b600081815260046020526040812054907c010000000000000000000000000000000000000000000000000000000082169003610b5b5780600003610b56576000548210610b1c57610b1c7fdf2d9b42000000000000000000000000000000000000000000000000000000006109b4565b5b507fffffffffffffffffffffffffffffffffffffffffffffffffffffffffffffffff016000818152600460205260409020548015610b1d575b919050565b610b567fdf2d9b42000000000000000000000000000000000000000000000000000000006109b4565b6040517f150b7a0200000000000000000000000000000000000000000000000000000000815260009073ffffffffffffffffffffffffffffffffffffffff85169063150b7a0290610bdf9033908990889088906004016112a2565b6020604051808303816000875af1925050508015610c38575060408051601f3d9081017fffffffffffffffffffffffffffffffffffffffffffffffffffffffffffffffe0168201909252610c35918101906112eb565b60015b610ca6573d808015610c66576040519150601f19603f3d011682016040523d82523d6000602084013e610c6b565b606091505b508051600003610c9e57610c9e7fd1a57ed6000000000000000000000000000000000000000000000000000000006109b4565b805181602001fd5b7fffffffff00000000000000000000000000000000000000000000000000000000167f150b7a0200000000000000000000000000000000000000000000000000000000149050949350505050565b6104dc828260405180602001604052806000815250610d70565b606060a06040510180604052602081039150506000815280825b600183039250600a81066030018353600a900480610d2857508190037fffffffffffffffffffffffffffffffffffffffffffffffffffffffffffffffe0909101908152919050565b610d7a8383610dff565b73ffffffffffffffffffffffffffffffffffffffff83163b15610730576000548281035b610db16000868380600101945086610b84565b610dde57610dde7fd1a57ed6000000000000000000000000000000000000000000000000000000006109b4565b818110610d9e578160005414610df857610df860006109b4565b5050505050565b6000805490829003610e3457610e347fb562e8dd000000000000000000000000000000000000000000000000000000006109b4565b600081815260046020908152604080832073ffffffffffffffffffffffffffffffffffffffff87164260a01b6001881460e11b17811790915580845260059092528220805468010000000000000001860201905590819003610eb957610eb97f2e076300000000000000000000000000000000000000000000000000000000006109b4565b818301825b808360007fddf252ad1be2c89b69c2b068fc378daa952ba7f163c4a11628f55a4df523b3ef600080a4818160010191508103610ebe575060005550505050565b7fffffffff00000000000000000000000000000000000000000000000000000000811681146108d057600080fd5b600060208284031215610f3e57600080fd5b813561096d81610efe565b60005b83811015610f64578181015183820152602001610f4c565b50506000910152565b60008151808452610f85816020860160208601610f49565b601f017fffffffffffffffffffffffffffffffffffffffffffffffffffffffffffffffe0169290920160200192915050565b60208152600061096d6020830184610f6d565b600060208284031215610fdc57600080fd5b5035919050565b803573ffffffffffffffffffffffffffffffffffffffff81168114610b5657600080fd5b6000806040838503121561101a57600080fd5b61102383610fe3565b946020939093013593505050565b60008060006060848603121561104657600080fd5b61104f84610fe3565b925061105d60208501610fe3565b9150604084013590509250925092565b60006020828403121561107f57600080fd5b61096d82610fe3565b6000806040838503121561109b57600080fd5b6110a483610fe3565b9150602083013580151581146110b957600080fd5b809150509250929050565b7f4e487b7100000000000000000000000000000000000000000000000000000000600052604160045260246000fd5b6000806000806080858703121561110957600080fd5b61111285610fe3565b935061112060208601610fe3565b925060408501359150606085013567ffffffffffffffff8082111561114457600080fd5b818701915087601f83011261115857600080fd5b81358181111561116a5761116a6110c4565b604051601f82017fffffffffffffffffffffffffffffffffffffffffffffffffffffffffffffffe0908116603f011681019083821181831017156111b0576111b06110c4565b816040528281528a60208487010111156111c957600080fd5b82602086016020830137600060208483010152809550505050505092959194509250565b6000806040838503121561120057600080fd5b61120983610fe3565b915061121760208401610fe3565b90509250929050565b600181811c9082168061123457607f821691505b60208210810361126d577f4e487b7100000000000000000000000000000000000000000000000000000000600052602260045260246000fd5b50919050565b60008351611285818460208801610f49565b835190830190611299818360208801610f49565b01949350505050565b600073ffffffffffffffffffffffffffffffffffffffff8087168352808616602084015250836040830152608060608301526112e16080830184610f6d565b9695505050505050565b6000602082840312156112fd57600080fd5b815161096d81610efe56fea2646970667358221220c56e173a6015eb4583e55fb8f99b85ba820ff970d423c2bbad236a5456f8f33164736f6c63430008110033",
					"opcodes": "PUSH1 0x80 PUSH1 0x40 MSTORE CALLVALUE DUP1 ISZERO PUSH3 0x11 JUMPI PUSH1 0x0 DUP1 REVERT JUMPDEST POP PUSH1 0x40 MLOAD PUSH3 0x1636 CODESIZE SUB DUP1 PUSH3 0x1636 DUP4 CODECOPY DUP2 ADD PUSH1 0x40 DUP2 SWAP1 MSTORE PUSH3 0x34 SWAP2 PUSH3 0x123 JUMP JUMPDEST PUSH1 0x2 PUSH3 0x42 DUP4 DUP3 PUSH3 0x21C JUMP JUMPDEST POP PUSH1 0x3 PUSH3 0x51 DUP3 DUP3 PUSH3 0x21C JUMP JUMPDEST POP POP PUSH1 0x0 DUP1 SSTORE POP PUSH3 0x2E8 JUMP JUMPDEST PUSH4 0x4E487B71 PUSH1 0xE0 SHL PUSH1 0x0 MSTORE PUSH1 0x41 PUSH1 0x4 MSTORE PUSH1 0x24 PUSH1 0x0 REVERT JUMPDEST PUSH1 0x0 DUP3 PUSH1 0x1F DUP4 ADD SLT PUSH3 0x86 JUMPI PUSH1 0x0 DUP1 REVERT JUMPDEST DUP2 MLOAD PUSH1 0x1 PUSH1 0x1 PUSH1 0x40 SHL SUB DUP1 DUP3 GT ISZERO PUSH3 0xA3 JUMPI PUSH3 0xA3 PUSH3 0x5E JUMP JUMPDEST PUSH1 0x40 MLOAD PUSH1 0x1F DUP4 ADD PUSH1 0x1F NOT SWAP1 DUP2 AND PUSH1 0x3F ADD AND DUP2 ADD SWAP1 DUP3 DUP3 GT DUP2 DUP4 LT OR ISZERO PUSH3 0xCE JUMPI PUSH3 0xCE PUSH3 0x5E JUMP JUMPDEST DUP2 PUSH1 0x40 MSTORE DUP4 DUP2 MSTORE PUSH1 0x20 SWAP3 POP DUP7 DUP4 DUP6 DUP9 ADD ADD GT ISZERO PUSH3 0xEB JUMPI PUSH1 0x0 DUP1 REVERT JUMPDEST PUSH1 0x0 SWAP2 POP JUMPDEST DUP4 DUP3 LT ISZERO PUSH3 0x10F JUMPI DUP6 DUP3 ADD DUP4 ADD MLOAD DUP2 DUP4 ADD DUP5 ADD MSTORE SWAP1 DUP3 ADD SWAP1 PUSH3 0xF0 JUMP JUMPDEST PUSH1 0x0 SWAP4 DUP2 ADD SWAP1 SWAP3 ADD SWAP3 SWAP1 SWAP3 MSTORE SWAP5 SWAP4 POP POP POP POP JUMP JUMPDEST PUSH1 0x0 DUP1 PUSH1 0x40 DUP4 DUP6 SUB SLT ISZERO PUSH3 0x137 JUMPI PUSH1 0x0 DUP1 REVERT JUMPDEST DUP3 MLOAD PUSH1 0x1 PUSH1 0x1 PUSH1 0x40 SHL SUB DUP1 DUP3 GT ISZERO PUSH3 0x14F JUMPI PUSH1 0x0 DUP1 REVERT JUMPDEST PUSH3 0x15D DUP7 DUP4 DUP8 ADD PUSH3 0x74 JUMP JUMPDEST SWAP4 POP PUSH1 0x20 DUP6 ADD MLOAD SWAP2 POP DUP1 DUP3 GT ISZERO PUSH3 0x174 JUMPI PUSH1 0x0 DUP1 REVERT JUMPDEST POP PUSH3 0x183 DUP6 DUP3 DUP7 ADD PUSH3 0x74 JUMP JUMPDEST SWAP2 POP POP SWAP3 POP SWAP3 SWAP1 POP JUMP JUMPDEST PUSH1 0x1 DUP2 DUP2 SHR SWAP1 DUP3 AND DUP1 PUSH3 0x1A2 JUMPI PUSH1 0x7F DUP3 AND SWAP2 POP JUMPDEST PUSH1 0x20 DUP3 LT DUP2 SUB PUSH3 0x1C3 JUMPI PUSH4 0x4E487B71 PUSH1 0xE0 SHL PUSH1 0x0 MSTORE PUSH1 0x22 PUSH1 0x4 MSTORE PUSH1 0x24 PUSH1 0x0 REVERT JUMPDEST POP SWAP2 SWAP1 POP JUMP JUMPDEST PUSH1 0x1F DUP3 GT ISZERO PUSH3 0x217 JUMPI PUSH1 0x0 DUP2 DUP2 MSTORE PUSH1 0x20 DUP2 KECCAK256 PUSH1 0x1F DUP6 ADD PUSH1 0x5 SHR DUP2 ADD PUSH1 0x20 DUP7 LT ISZERO PUSH3 0x1F2 JUMPI POP DUP1 JUMPDEST PUSH1 0x1F DUP6 ADD PUSH1 0x5 SHR DUP3 ADD SWAP2 POP JUMPDEST DUP2 DUP2 LT ISZERO PUSH3 0x213 JUMPI DUP3 DUP2 SSTORE PUSH1 0x1 ADD PUSH3 0x1FE JUMP JUMPDEST POP POP POP JUMPDEST POP POP POP JUMP JUMPDEST DUP2 MLOAD PUSH1 0x1 PUSH1 0x1 PUSH1 0x40 SHL SUB DUP2 GT ISZERO PUSH3 0x238 JUMPI PUSH3 0x238 PUSH3 0x5E JUMP JUMPDEST PUSH3 0x250 DUP2 PUSH3 0x249 DUP5 SLOAD PUSH3 0x18D JUMP JUMPDEST DUP5 PUSH3 0x1C9 JUMP JUMPDEST PUSH1 0x20 DUP1 PUSH1 0x1F DUP4 GT PUSH1 0x1 DUP2 EQ PUSH3 0x288 JUMPI PUSH1 0x0 DUP5 ISZERO PUSH3 0x26F JUMPI POP DUP6 DUP4 ADD MLOAD JUMPDEST PUSH1 0x0 NOT PUSH1 0x3 DUP7 SWAP1 SHL SHR NOT AND PUSH1 0x1 DUP6 SWAP1 SHL OR DUP6 SSTORE PUSH3 0x213 JUMP JUMPDEST PUSH1 0x0 DUP6 DUP2 MSTORE PUSH1 0x20 DUP2 KECCAK256 PUSH1 0x1F NOT DUP7 AND SWAP2 JUMPDEST DUP3 DUP2 LT ISZERO PUSH3 0x2B9 JUMPI DUP9 DUP7 ADD MLOAD DUP3 SSTORE SWAP5 DUP5 ADD SWAP5 PUSH1 0x1 SWAP1 SWAP2 ADD SWAP1 DUP5 ADD PUSH3 0x298 JUMP JUMPDEST POP DUP6 DUP3 LT ISZERO PUSH3 0x2D8 JUMPI DUP8 DUP6 ADD MLOAD PUSH1 0x0 NOT PUSH1 0x3 DUP9 SWAP1 SHL PUSH1 0xF8 AND SHR NOT AND DUP2 SSTORE JUMPDEST POP POP POP POP POP PUSH1 0x1 SWAP1 DUP2 SHL ADD SWAP1 SSTORE POP JUMP JUMPDEST PUSH2 0x133E DUP1 PUSH3 0x2F8 PUSH1 0x0 CODECOPY PUSH1 0x0 RETURN INVALID PUSH1 0x80 PUSH1 0x40 MSTORE PUSH1 0x4 CALLDATASIZE LT PUSH2 0xE8 JUMPI PUSH1 0x0 CALLDATALOAD PUSH1 0xE0 SHR DUP1 PUSH4 0x6352211E GT PUSH2 0x8A JUMPI DUP1 PUSH4 0xB88D4FDE GT PUSH2 0x59 JUMPI DUP1 PUSH4 0xB88D4FDE EQ PUSH2 0x25C JUMPI DUP1 PUSH4 0xC634D032 EQ PUSH2 0x26F JUMPI DUP1 PUSH4 0xC87B56DD EQ PUSH2 0x282 JUMPI DUP1 PUSH4 0xE985E9C5 EQ PUSH2 0x2A2 JUMPI PUSH1 0x0 DUP1 REVERT JUMPDEST DUP1 PUSH4 0x6352211E EQ PUSH2 0x1E7 JUMPI DUP1 PUSH4 0x70A08231 EQ PUSH2 0x207 JUMPI DUP1 PUSH4 0x95D89B41 EQ PUSH2 0x227 JUMPI DUP1 PUSH4 0xA22CB465 EQ PUSH2 0x23C JUMPI PUSH1 0x0 DUP1 REVERT JUMPDEST DUP1 PUSH4 0x95EA7B3 GT PUSH2 0xC6 JUMPI DUP1 PUSH4 0x95EA7B3 EQ PUSH2 0x189 JUMPI DUP1 PUSH4 0x18160DDD EQ PUSH2 0x19E JUMPI DUP1 PUSH4 0x23B872DD EQ PUSH2 0x1C1 JUMPI DUP1 PUSH4 0x42842E0E EQ PUSH2 0x1D4 JUMPI PUSH1 0x0 DUP1 REVERT JUMPDEST DUP1 PUSH4 0x1FFC9A7 EQ PUSH2 0xED JUMPI DUP1 PUSH4 0x6FDDE03 EQ PUSH2 0x122 JUMPI DUP1 PUSH4 0x81812FC EQ PUSH2 0x144 JUMPI JUMPDEST PUSH1 0x0 DUP1 REVERT JUMPDEST CALLVALUE DUP1 ISZERO PUSH2 0xF9 JUMPI PUSH1 0x0 DUP1 REVERT JUMPDEST POP PUSH2 0x10D PUSH2 0x108 CALLDATASIZE PUSH1 0x4 PUSH2 0xF2C JUMP JUMPDEST PUSH2 0x2F8 JUMP JUMPDEST PUSH1 0x40 MLOAD SWAP1 ISZERO ISZERO DUP2 MSTORE PUSH1 0x20 ADD JUMPDEST PUSH1 0x40 MLOAD DUP1 SWAP2 SUB SWAP1 RETURN JUMPDEST CALLVALUE DUP1 ISZERO PUSH2 0x12E JUMPI PUSH1 0x0 DUP1 REVERT JUMPDEST POP PUSH2 0x137 PUSH2 0x3DD JUMP JUMPDEST PUSH1 0x40 MLOAD PUSH2 0x119 SWAP2 SWAP1 PUSH2 0xFB7 JUMP JUMPDEST CALLVALUE DUP1 ISZERO PUSH2 0x150 JUMPI PUSH1 0x0 DUP1 REVERT JUMPDEST POP PUSH2 0x164 PUSH2 0x15F CALLDATASIZE PUSH1 0x4 PUSH2 0xFCA JUMP JUMPDEST PUSH2 0x46F JUMP JUMPDEST PUSH1 0x40 MLOAD PUSH20 0xFFFFFFFFFFFFFFFFFFFFFFFFFFFFFFFFFFFFFFFF SWAP1 SWAP2 AND DUP2 MSTORE PUSH1 0x20 ADD PUSH2 0x119 JUMP JUMPDEST PUSH2 0x19C PUSH2 0x197 CALLDATASIZE PUSH1 0x4 PUSH2 0x1007 JUMP JUMPDEST PUSH2 0x4D0 JUMP JUMPDEST STOP JUMPDEST CALLVALUE DUP1 ISZERO PUSH2 0x1AA JUMPI PUSH1 0x0 DUP1 REVERT JUMPDEST POP PUSH1 0x1 SLOAD PUSH1 0x0 SLOAD SUB JUMPDEST PUSH1 0x40 MLOAD SWAP1 DUP2 MSTORE PUSH1 0x20 ADD PUSH2 0x119 JUMP JUMPDEST PUSH2 0x19C PUSH2 0x1CF CALLDATASIZE PUSH1 0x4 PUSH2 0x1031 JUMP JUMPDEST PUSH2 0x4E0 JUMP JUMPDEST PUSH2 0x19C PUSH2 0x1E2 CALLDATASIZE PUSH1 0x4 PUSH2 0x1031 JUMP JUMPDEST PUSH2 0x715 JUMP JUMPDEST CALLVALUE DUP1 ISZERO PUSH2 0x1F3 JUMPI PUSH1 0x0 DUP1 REVERT JUMPDEST POP PUSH2 0x164 PUSH2 0x202 CALLDATASIZE PUSH1 0x4 PUSH2 0xFCA JUMP JUMPDEST PUSH2 0x735 JUMP JUMPDEST CALLVALUE DUP1 ISZERO PUSH2 0x213 JUMPI PUSH1 0x0 DUP1 REVERT JUMPDEST POP PUSH2 0x1B3 PUSH2 0x222 CALLDATASIZE PUSH1 0x4 PUSH2 0x106D JUMP JUMPDEST PUSH2 0x740 JUMP JUMPDEST CALLVALUE DUP1 ISZERO PUSH2 0x233 JUMPI PUSH1 0x0 DUP1 REVERT JUMPDEST POP PUSH2 0x137 PUSH2 0x7B9 JUMP JUMPDEST CALLVALUE DUP1 ISZERO PUSH2 0x248 JUMPI PUSH1 0x0 DUP1 REVERT JUMPDEST POP PUSH2 0x19C PUSH2 0x257 CALLDATASIZE PUSH1 0x4 PUSH2 0x1088 JUMP JUMPDEST PUSH2 0x7C8 JUMP JUMPDEST PUSH2 0x19C PUSH2 0x26A CALLDATASIZE PUSH1 0x4 PUSH2 0x10F3 JUMP JUMPDEST PUSH2 0x85F JUMP JUMPDEST PUSH2 0x19C PUSH2 0x27D CALLDATASIZE PUSH1 0x4 PUSH2 0xFCA JUMP JUMPDEST PUSH2 0x8C6 JUMP JUMPDEST CALLVALUE DUP1 ISZERO PUSH2 0x28E JUMPI PUSH1 0x0 DUP1 REVERT JUMPDEST POP PUSH2 0x137 PUSH2 0x29D CALLDATASIZE PUSH1 0x4 PUSH2 0xFCA JUMP JUMPDEST PUSH2 0x8D3 JUMP JUMPDEST CALLVALUE DUP1 ISZERO PUSH2 0x2AE JUMPI PUSH1 0x0 DUP1 REVERT JUMPDEST POP PUSH2 0x10D PUSH2 0x2BD CALLDATASIZE PUSH1 0x4 PUSH2 0x11ED JUMP JUMPDEST PUSH20 0xFFFFFFFFFFFFFFFFFFFFFFFFFFFFFFFFFFFFFFFF SWAP2 DUP3 AND PUSH1 0x0 SWAP1 DUP2 MSTORE PUSH1 0x7 PUSH1 0x20 SWAP1 DUP2 MSTORE PUSH1 0x40 DUP1 DUP4 KECCAK256 SWAP4 SWAP1 SWAP5 AND DUP3 MSTORE SWAP2 SWAP1 SWAP2 MSTORE KECCAK256 SLOAD PUSH1 0xFF AND SWAP1 JUMP JUMPDEST PUSH1 0x0 PUSH32 0x1FFC9A700000000000000000000000000000000000000000000000000000000 PUSH32 0xFFFFFFFF00000000000000000000000000000000000000000000000000000000 DUP4 AND EQ DUP1 PUSH2 0x38B JUMPI POP PUSH32 0x80AC58CD00000000000000000000000000000000000000000000000000000000 PUSH32 0xFFFFFFFF00000000000000000000000000000000000000000000000000000000 DUP4 AND EQ JUMPDEST DUP1 PUSH2 0x3D7 JUMPI POP PUSH32 0x5B5E139F00000000000000000000000000000000000000000000000000000000 PUSH32 0xFFFFFFFF00000000000000000000000000000000000000000000000000000000 DUP4 AND EQ JUMPDEST SWAP3 SWAP2 POP POP JUMP JUMPDEST PUSH1 0x60 PUSH1 0x2 DUP1 SLOAD PUSH2 0x3EC SWAP1 PUSH2 0x1220 JUMP JUMPDEST DUP1 PUSH1 0x1F ADD PUSH1 0x20 DUP1 SWAP2 DIV MUL PUSH1 0x20 ADD PUSH1 0x40 MLOAD SWAP1 DUP2 ADD PUSH1 0x40 MSTORE DUP1 SWAP3 SWAP2 SWAP1 DUP2 DUP2 MSTORE PUSH1 0x20 ADD DUP3 DUP1 SLOAD PUSH2 0x418 SWAP1 PUSH2 0x1220 JUMP JUMPDEST DUP1 ISZERO PUSH2 0x465 JUMPI DUP1 PUSH1 0x1F LT PUSH2 0x43A JUMPI PUSH2 0x100 DUP1 DUP4 SLOAD DIV MUL DUP4 MSTORE SWAP2 PUSH1 0x20 ADD SWAP2 PUSH2 0x465 JUMP JUMPDEST DUP3 ADD SWAP2 SWAP1 PUSH1 0x0 MSTORE PUSH1 0x20 PUSH1 0x0 KECCAK256 SWAP1 JUMPDEST DUP2 SLOAD DUP2 MSTORE SWAP1 PUSH1 0x1 ADD SWAP1 PUSH1 0x20 ADD DUP1 DUP4 GT PUSH2 0x448 JUMPI DUP3 SWAP1 SUB PUSH1 0x1F AND DUP3 ADD SWAP2 JUMPDEST POP POP POP POP POP SWAP1 POP SWAP1 JUMP JUMPDEST PUSH1 0x0 PUSH2 0x47A DUP3 PUSH2 0x974 JUMP JUMPDEST PUSH2 0x4A7 JUMPI PUSH2 0x4A7 PUSH32 0xCF4700E400000000000000000000000000000000000000000000000000000000 PUSH2 0x9B4 JUMP JUMPDEST POP PUSH1 0x0 SWAP1 DUP2 MSTORE PUSH1 0x6 PUSH1 0x20 MSTORE PUSH1 0x40 SWAP1 KECCAK256 SLOAD PUSH20 0xFFFFFFFFFFFFFFFFFFFFFFFFFFFFFFFFFFFFFFFF AND SWAP1 JUMP JUMPDEST PUSH2 0x4DC DUP3 DUP3 PUSH1 0x1 PUSH2 0x9BE JUMP JUMPDEST POP POP JUMP JUMPDEST PUSH1 0x0 PUSH2 0x4EB DUP3 PUSH2 0xAAC JUMP JUMPDEST PUSH20 0xFFFFFFFFFFFFFFFFFFFFFFFFFFFFFFFFFFFFFFFF SWAP5 DUP6 AND SWAP5 SWAP1 SWAP2 POP DUP2 AND DUP5 EQ PUSH2 0x538 JUMPI PUSH2 0x538 PUSH32 0xA114810000000000000000000000000000000000000000000000000000000000 PUSH2 0x9B4 JUMP JUMPDEST PUSH1 0x0 DUP3 DUP2 MSTORE PUSH1 0x6 PUSH1 0x20 MSTORE PUSH1 0x40 SWAP1 KECCAK256 DUP1 SLOAD CALLER DUP1 DUP3 EQ PUSH20 0xFFFFFFFFFFFFFFFFFFFFFFFFFFFFFFFFFFFFFFFF DUP9 AND SWAP1 SWAP2 EQ OR PUSH2 0x5A2 JUMPI PUSH2 0x575 DUP7 CALLER PUSH2 0x2BD JUMP JUMPDEST PUSH2 0x5A2 JUMPI PUSH2 0x5A2 PUSH32 0x59C896BE00000000000000000000000000000000000000000000000000000000 PUSH2 0x9B4 JUMP JUMPDEST DUP1 ISZERO PUSH2 0x5AD JUMPI PUSH1 0x0 DUP3 SSTORE JUMPDEST PUSH20 0xFFFFFFFFFFFFFFFFFFFFFFFFFFFFFFFFFFFFFFFF DUP7 DUP2 AND PUSH1 0x0 SWAP1 DUP2 MSTORE PUSH1 0x5 PUSH1 0x20 MSTORE PUSH1 0x40 DUP1 DUP3 KECCAK256 DUP1 SLOAD PUSH32 0xFFFFFFFFFFFFFFFFFFFFFFFFFFFFFFFFFFFFFFFFFFFFFFFFFFFFFFFFFFFFFFFF ADD SWAP1 SSTORE SWAP2 DUP8 AND DUP1 DUP3 MSTORE SWAP2 SWAP1 KECCAK256 DUP1 SLOAD PUSH1 0x1 ADD SWAP1 SSTORE TIMESTAMP PUSH1 0xA0 SHL OR PUSH29 0x200000000000000000000000000000000000000000000000000000000 OR PUSH1 0x0 DUP6 DUP2 MSTORE PUSH1 0x4 PUSH1 0x20 MSTORE PUSH1 0x40 DUP2 KECCAK256 SWAP2 SWAP1 SWAP2 SSTORE PUSH29 0x200000000000000000000000000000000000000000000000000000000 DUP5 AND SWAP1 SUB PUSH2 0x69C JUMPI PUSH1 0x1 DUP5 ADD PUSH1 0x0 DUP2 DUP2 MSTORE PUSH1 0x4 PUSH1 0x20 MSTORE PUSH1 0x40 DUP2 KECCAK256 SLOAD SWAP1 SUB PUSH2 0x69A JUMPI PUSH1 0x0 SLOAD DUP2 EQ PUSH2 0x69A JUMPI PUSH1 0x0 DUP2 DUP2 MSTORE PUSH1 0x4 PUSH1 0x20 MSTORE PUSH1 0x40 SWAP1 KECCAK256 DUP5 SWAP1 SSTORE JUMPDEST POP JUMPDEST PUSH20 0xFFFFFFFFFFFFFFFFFFFFFFFFFFFFFFFFFFFFFFFF DUP6 AND DUP5 DUP2 DUP9 PUSH32 0xDDF252AD1BE2C89B69C2B068FC378DAA952BA7F163C4A11628F55A4DF523B3EF PUSH1 0x0 DUP1 LOG4 DUP1 PUSH1 0x0 SUB PUSH2 0x70C JUMPI PUSH2 0x70C PUSH32 0xEA553B3400000000000000000000000000000000000000000000000000000000 PUSH2 0x9B4 JUMP JUMPDEST POP POP POP POP POP POP POP JUMP JUMPDEST PUSH2 0x730 DUP4 DUP4 DUP4 PUSH1 0x40 MLOAD DUP1 PUSH1 0x20 ADD PUSH1 0x40 MSTORE DUP1 PUSH1 0x0 DUP2 MSTORE POP PUSH2 0x85F JUMP JUMPDEST POP POP POP JUMP JUMPDEST PUSH1 0x0 PUSH2 0x3D7 DUP3 PUSH2 0xAAC JUMP JUMPDEST PUSH1 0x0 PUSH20 0xFFFFFFFFFFFFFFFFFFFFFFFFFFFFFFFFFFFFFFFF DUP3 AND PUSH2 0x786 JUMPI PUSH2 0x786 PUSH32 0x8F4EB60400000000000000000000000000000000000000000000000000000000 PUSH2 0x9B4 JUMP JUMPDEST POP PUSH20 0xFFFFFFFFFFFFFFFFFFFFFFFFFFFFFFFFFFFFFFFF AND PUSH1 0x0 SWAP1 DUP2 MSTORE PUSH1 0x5 PUSH1 0x20 MSTORE PUSH1 0x40 SWAP1 KECCAK256 SLOAD PUSH8 0xFFFFFFFFFFFFFFFF AND SWAP1 JUMP JUMPDEST PUSH1 0x60 PUSH1 0x3 DUP1 SLOAD PUSH2 0x3EC SWAP1 PUSH2 0x1220 JUMP JUMPDEST CALLER PUSH1 0x0 DUP2 DUP2 MSTORE PUSH1 0x7 PUSH1 0x20 SWAP1 DUP2 MSTORE PUSH1 0x40 DUP1 DUP4 KECCAK256 PUSH20 0xFFFFFFFFFFFFFFFFFFFFFFFFFFFFFFFFFFFFFFFF DUP8 AND DUP1 DUP6 MSTORE SWAP1 DUP4 MSTORE SWAP3 DUP2 SWAP1 KECCAK256 DUP1 SLOAD PUSH32 0xFFFFFFFFFFFFFFFFFFFFFFFFFFFFFFFFFFFFFFFFFFFFFFFFFFFFFFFFFFFFFF00 AND DUP7 ISZERO ISZERO SWAP1 DUP2 OR SWAP1 SWAP2 SSTORE SWAP1 MLOAD SWAP1 DUP2 MSTORE SWAP2 SWAP3 SWAP2 PUSH32 0x17307EAB39AB6107E8899845AD3D59BD9653F200F220920489CA2B5937696C31 SWAP2 ADD PUSH1 0x40 MLOAD DUP1 SWAP2 SUB SWAP1 LOG3 POP POP JUMP JUMPDEST PUSH2 0x86A DUP5 DUP5 DUP5 PUSH2 0x4E0 JUMP JUMPDEST PUSH20 0xFFFFFFFFFFFFFFFFFFFFFFFFFFFFFFFFFFFFFFFF DUP4 AND EXTCODESIZE ISZERO PUSH2 0x8C0 JUMPI PUSH2 0x893 DUP5 DUP5 DUP5 DUP5 PUSH2 0xB84 JUMP JUMPDEST PUSH2 0x8C0 JUMPI PUSH2 0x8C0 PUSH32 0xD1A57ED600000000000000000000000000000000000000000000000000000000 PUSH2 0x9B4 JUMP JUMPDEST POP POP POP POP JUMP JUMPDEST PUSH2 0x8D0 CALLER DUP3 PUSH2 0xCF4 JUMP JUMPDEST POP JUMP JUMPDEST PUSH1 0x60 PUSH2 0x8DE DUP3 PUSH2 0x974 JUMP JUMPDEST PUSH2 0x90B JUMPI PUSH2 0x90B PUSH32 0xA14C4B5000000000000000000000000000000000000000000000000000000000 PUSH2 0x9B4 JUMP JUMPDEST PUSH1 0x0 PUSH2 0x922 PUSH1 0x40 DUP1 MLOAD PUSH1 0x20 DUP2 ADD SWAP1 SWAP2 MSTORE PUSH1 0x0 DUP2 MSTORE SWAP1 JUMP JUMPDEST SWAP1 POP DUP1 MLOAD PUSH1 0x0 SUB PUSH2 0x942 JUMPI PUSH1 0x40 MLOAD DUP1 PUSH1 0x20 ADD PUSH1 0x40 MSTORE DUP1 PUSH1 0x0 DUP2 MSTORE POP PUSH2 0x96D JUMP JUMPDEST DUP1 PUSH2 0x94C DUP5 PUSH2 0xD0E JUMP JUMPDEST PUSH1 0x40 MLOAD PUSH1 0x20 ADD PUSH2 0x95D SWAP3 SWAP2 SWAP1 PUSH2 0x1273 JUMP JUMPDEST PUSH1 0x40 MLOAD PUSH1 0x20 DUP2 DUP4 SUB SUB DUP2 MSTORE SWAP1 PUSH1 0x40 MSTORE JUMPDEST SWAP4 SWAP3 POP POP POP JUMP JUMPDEST PUSH1 0x0 DUP1 SLOAD DUP3 LT DUP1 ISZERO PUSH2 0x3D7 JUMPI POP POP PUSH1 0x0 SWAP1 DUP2 MSTORE PUSH1 0x4 PUSH1 0x20 MSTORE PUSH1 0x40 SWAP1 KECCAK256 SLOAD PUSH29 0x100000000000000000000000000000000000000000000000000000000 AND ISZERO SWAP1 JUMP JUMPDEST DUP1 PUSH1 0x0 MSTORE PUSH1 0x4 PUSH1 0x0 REVERT JUMPDEST PUSH1 0x0 PUSH2 0x9C9 DUP4 PUSH2 0x735 JUMP JUMPDEST SWAP1 POP DUP2 DUP1 ISZERO PUSH2 0x9EE JUMPI POP CALLER PUSH20 0xFFFFFFFFFFFFFFFFFFFFFFFFFFFFFFFFFFFFFFFF DUP3 AND EQ ISZERO JUMPDEST ISZERO PUSH2 0xA2A JUMPI PUSH2 0x9FD DUP2 CALLER PUSH2 0x2BD JUMP JUMPDEST PUSH2 0xA2A JUMPI PUSH2 0xA2A PUSH32 0xCFB3B94200000000000000000000000000000000000000000000000000000000 PUSH2 0x9B4 JUMP JUMPDEST PUSH1 0x0 DUP4 DUP2 MSTORE PUSH1 0x6 PUSH1 0x20 MSTORE PUSH1 0x40 DUP1 DUP3 KECCAK256 DUP1 SLOAD PUSH32 0xFFFFFFFFFFFFFFFFFFFFFFFF0000000000000000000000000000000000000000 AND PUSH20 0xFFFFFFFFFFFFFFFFFFFFFFFFFFFFFFFFFFFFFFFF DUP9 DUP2 AND SWAP2 DUP3 OR SWAP1 SWAP3 SSTORE SWAP2 MLOAD DUP7 SWAP4 SWAP2 DUP6 AND SWAP2 PUSH32 0x8C5BE1E5EBEC7D5BD14F71427D1E84F3DD0314C0F7B2291E5B200AC8C7C3B925 SWAP2 LOG4 POP POP POP POP JUMP JUMPDEST PUSH1 0x0 DUP2 DUP2 MSTORE PUSH1 0x4 PUSH1 0x20 MSTORE PUSH1 0x40 DUP2 KECCAK256 SLOAD SWAP1 PUSH29 0x100000000000000000000000000000000000000000000000000000000 DUP3 AND SWAP1 SUB PUSH2 0xB5B JUMPI DUP1 PUSH1 0x0 SUB PUSH2 0xB56 JUMPI PUSH1 0x0 SLOAD DUP3 LT PUSH2 0xB1C JUMPI PUSH2 0xB1C PUSH32 0xDF2D9B4200000000000000000000000000000000000000000000000000000000 PUSH2 0x9B4 JUMP JUMPDEST JUMPDEST POP PUSH32 0xFFFFFFFFFFFFFFFFFFFFFFFFFFFFFFFFFFFFFFFFFFFFFFFFFFFFFFFFFFFFFFFF ADD PUSH1 0x0 DUP2 DUP2 MSTORE PUSH1 0x4 PUSH1 0x20 MSTORE PUSH1 0x40 SWAP1 KECCAK256 SLOAD DUP1 ISZERO PUSH2 0xB1D JUMPI JUMPDEST SWAP2 SWAP1 POP JUMP JUMPDEST PUSH2 0xB56 PUSH32 0xDF2D9B4200000000000000000000000000000000000000000000000000000000 PUSH2 0x9B4 JUMP JUMPDEST PUSH1 0x40 MLOAD PUSH32 0x150B7A0200000000000000000000000000000000000000000000000000000000 DUP2 MSTORE PUSH1 0x0 SWAP1 PUSH20 0xFFFFFFFFFFFFFFFFFFFFFFFFFFFFFFFFFFFFFFFF DUP6 AND SWAP1 PUSH4 0x150B7A02 SWAP1 PUSH2 0xBDF SWAP1 CALLER SWAP1 DUP10 SWAP1 DUP9 SWAP1 DUP9 SWAP1 PUSH1 0x4 ADD PUSH2 0x12A2 JUMP JUMPDEST PUSH1 0x20 PUSH1 0x40 MLOAD DUP1 DUP4 SUB DUP2 PUSH1 0x0 DUP8 GAS CALL SWAP3 POP POP POP DUP1 ISZERO PUSH2 0xC38 JUMPI POP PUSH1 0x40 DUP1 MLOAD PUSH1 0x1F RETURNDATASIZE SWAP1 DUP2 ADD PUSH32 0xFFFFFFFFFFFFFFFFFFFFFFFFFFFFFFFFFFFFFFFFFFFFFFFFFFFFFFFFFFFFFFE0 AND DUP3 ADD SWAP1 SWAP3 MSTORE PUSH2 0xC35 SWAP2 DUP2 ADD SWAP1 PUSH2 0x12EB JUMP JUMPDEST PUSH1 0x1 JUMPDEST PUSH2 0xCA6 JUMPI RETURNDATASIZE DUP1 DUP1 ISZERO PUSH2 0xC66 JUMPI PUSH1 0x40 MLOAD SWAP2 POP PUSH1 0x1F NOT PUSH1 0x3F RETURNDATASIZE ADD AND DUP3 ADD PUSH1 0x40 MSTORE RETURNDATASIZE DUP3 MSTORE RETURNDATASIZE PUSH1 0x0 PUSH1 0x20 DUP5 ADD RETURNDATACOPY PUSH2 0xC6B JUMP JUMPDEST PUSH1 0x60 SWAP2 POP JUMPDEST POP DUP1 MLOAD PUSH1 0x0 SUB PUSH2 0xC9E JUMPI PUSH2 0xC9E PUSH32 0xD1A57ED600000000000000000000000000000000000000000000000000000000 PUSH2 0x9B4 JUMP JUMPDEST DUP1 MLOAD DUP2 PUSH1 0x20 ADD REVERT JUMPDEST PUSH32 0xFFFFFFFF00000000000000000000000000000000000000000000000000000000 AND PUSH32 0x150B7A0200000000000000000000000000000000000000000000000000000000 EQ SWAP1 POP SWAP5 SWAP4 POP POP POP POP JUMP JUMPDEST PUSH2 0x4DC DUP3 DUP3 PUSH1 0x40 MLOAD DUP1 PUSH1 0x20 ADD PUSH1 0x40 MSTORE DUP1 PUSH1 0x0 DUP2 MSTORE POP PUSH2 0xD70 JUMP JUMPDEST PUSH1 0x60 PUSH1 0xA0 PUSH1 0x40 MLOAD ADD DUP1 PUSH1 0x40 MSTORE PUSH1 0x20 DUP2 SUB SWAP2 POP POP PUSH1 0x0 DUP2 MSTORE DUP1 DUP3 JUMPDEST PUSH1 0x1 DUP4 SUB SWAP3 POP PUSH1 0xA DUP2 MOD PUSH1 0x30 ADD DUP4 MSTORE8 PUSH1 0xA SWAP1 DIV DUP1 PUSH2 0xD28 JUMPI POP DUP2 SWAP1 SUB PUSH32 0xFFFFFFFFFFFFFFFFFFFFFFFFFFFFFFFFFFFFFFFFFFFFFFFFFFFFFFFFFFFFFFE0 SWAP1 SWAP2 ADD SWAP1 DUP2 MSTORE SWAP2 SWAP1 POP JUMP JUMPDEST PUSH2 0xD7A DUP4 DUP4 PUSH2 0xDFF JUMP JUMPDEST PUSH20 0xFFFFFFFFFFFFFFFFFFFFFFFFFFFFFFFFFFFFFFFF DUP4 AND EXTCODESIZE ISZERO PUSH2 0x730 JUMPI PUSH1 0x0 SLOAD DUP3 DUP2 SUB JUMPDEST PUSH2 0xDB1 PUSH1 0x0 DUP7 DUP4 DUP1 PUSH1 0x1 ADD SWAP5 POP DUP7 PUSH2 0xB84 JUMP JUMPDEST PUSH2 0xDDE JUMPI PUSH2 0xDDE PUSH32 0xD1A57ED600000000000000000000000000000000000000000000000000000000 PUSH2 0x9B4 JUMP JUMPDEST DUP2 DUP2 LT PUSH2 0xD9E JUMPI DUP2 PUSH1 0x0 SLOAD EQ PUSH2 0xDF8 JUMPI PUSH2 0xDF8 PUSH1 0x0 PUSH2 0x9B4 JUMP JUMPDEST POP POP POP POP POP JUMP JUMPDEST PUSH1 0x0 DUP1 SLOAD SWAP1 DUP3 SWAP1 SUB PUSH2 0xE34 JUMPI PUSH2 0xE34 PUSH32 0xB562E8DD00000000000000000000000000000000000000000000000000000000 PUSH2 0x9B4 JUMP JUMPDEST PUSH1 0x0 DUP2 DUP2 MSTORE PUSH1 0x4 PUSH1 0x20 SWAP1 DUP2 MSTORE PUSH1 0x40 DUP1 DUP4 KECCAK256 PUSH20 0xFFFFFFFFFFFFFFFFFFFFFFFFFFFFFFFFFFFFFFFF DUP8 AND TIMESTAMP PUSH1 0xA0 SHL PUSH1 0x1 DUP9 EQ PUSH1 0xE1 SHL OR DUP2 OR SWAP1 SWAP2 SSTORE DUP1 DUP5 MSTORE PUSH1 0x5 SWAP1 SWAP3 MSTORE DUP3 KECCAK256 DUP1 SLOAD PUSH9 0x10000000000000001 DUP7 MUL ADD SWAP1 SSTORE SWAP1 DUP2 SWAP1 SUB PUSH2 0xEB9 JUMPI PUSH2 0xEB9 PUSH32 0x2E07630000000000000000000000000000000000000000000000000000000000 PUSH2 0x9B4 JUMP JUMPDEST DUP2 DUP4 ADD DUP3 JUMPDEST DUP1 DUP4 PUSH1 0x0 PUSH32 0xDDF252AD1BE2C89B69C2B068FC378DAA952BA7F163C4A11628F55A4DF523B3EF PUSH1 0x0 DUP1 LOG4 DUP2 DUP2 PUSH1 0x1 ADD SWAP2 POP DUP2 SUB PUSH2 0xEBE JUMPI POP PUSH1 0x0 SSTORE POP POP POP POP JUMP JUMPDEST PUSH32 0xFFFFFFFF00000000000000000000000000000000000000000000000000000000 DUP2 AND DUP2 EQ PUSH2 0x8D0 JUMPI PUSH1 0x0 DUP1 REVERT JUMPDEST PUSH1 0x0 PUSH1 0x20 DUP3 DUP5 SUB SLT ISZERO PUSH2 0xF3E JUMPI PUSH1 0x0 DUP1 REVERT JUMPDEST DUP2 CALLDATALOAD PUSH2 0x96D DUP2 PUSH2 0xEFE JUMP JUMPDEST PUSH1 0x0 JUMPDEST DUP4 DUP2 LT ISZERO PUSH2 0xF64 JUMPI DUP2 DUP2 ADD MLOAD DUP4 DUP3 ADD MSTORE PUSH1 0x20 ADD PUSH2 0xF4C JUMP JUMPDEST POP POP PUSH1 0x0 SWAP2 ADD MSTORE JUMP JUMPDEST PUSH1 0x0 DUP2 MLOAD DUP1 DUP5 MSTORE PUSH2 0xF85 DUP2 PUSH1 0x20 DUP7 ADD PUSH1 0x20 DUP7 ADD PUSH2 0xF49 JUMP JUMPDEST PUSH1 0x1F ADD PUSH32 0xFFFFFFFFFFFFFFFFFFFFFFFFFFFFFFFFFFFFFFFFFFFFFFFFFFFFFFFFFFFFFFE0 AND SWAP3 SWAP1 SWAP3 ADD PUSH1 0x20 ADD SWAP3 SWAP2 POP POP JUMP JUMPDEST PUSH1 0x20 DUP2 MSTORE PUSH1 0x0 PUSH2 0x96D PUSH1 0x20 DUP4 ADD DUP5 PUSH2 0xF6D JUMP JUMPDEST PUSH1 0x0 PUSH1 0x20 DUP3 DUP5 SUB SLT ISZERO PUSH2 0xFDC JUMPI PUSH1 0x0 DUP1 REVERT JUMPDEST POP CALLDATALOAD SWAP2 SWAP1 POP JUMP JUMPDEST DUP1 CALLDATALOAD PUSH20 0xFFFFFFFFFFFFFFFFFFFFFFFFFFFFFFFFFFFFFFFF DUP2 AND DUP2 EQ PUSH2 0xB56 JUMPI PUSH1 0x0 DUP1 REVERT JUMPDEST PUSH1 0x0 DUP1 PUSH1 0x40 DUP4 DUP6 SUB SLT ISZERO PUSH2 0x101A JUMPI PUSH1 0x0 DUP1 REVERT JUMPDEST PUSH2 0x1023 DUP4 PUSH2 0xFE3 JUMP JUMPDEST SWAP5 PUSH1 0x20 SWAP4 SWAP1 SWAP4 ADD CALLDATALOAD SWAP4 POP POP POP JUMP JUMPDEST PUSH1 0x0 DUP1 PUSH1 0x0 PUSH1 0x60 DUP5 DUP7 SUB SLT ISZERO PUSH2 0x1046 JUMPI PUSH1 0x0 DUP1 REVERT JUMPDEST PUSH2 0x104F DUP5 PUSH2 0xFE3 JUMP JUMPDEST SWAP3 POP PUSH2 0x105D PUSH1 0x20 DUP6 ADD PUSH2 0xFE3 JUMP JUMPDEST SWAP2 POP PUSH1 0x40 DUP5 ADD CALLDATALOAD SWAP1 POP SWAP3 POP SWAP3 POP SWAP3 JUMP JUMPDEST PUSH1 0x0 PUSH1 0x20 DUP3 DUP5 SUB SLT ISZERO PUSH2 0x107F JUMPI PUSH1 0x0 DUP1 REVERT JUMPDEST PUSH2 0x96D DUP3 PUSH2 0xFE3 JUMP JUMPDEST PUSH1 0x0 DUP1 PUSH1 0x40 DUP4 DUP6 SUB SLT ISZERO PUSH2 0x109B JUMPI PUSH1 0x0 DUP1 REVERT JUMPDEST PUSH2 0x10A4 DUP4 PUSH2 0xFE3 JUMP JUMPDEST SWAP2 POP PUSH1 0x20 DUP4 ADD CALLDATALOAD DUP1 ISZERO ISZERO DUP2 EQ PUSH2 0x10B9 JUMPI PUSH1 0x0 DUP1 REVERT JUMPDEST DUP1 SWAP2 POP POP SWAP3 POP SWAP3 SWAP1 POP JUMP JUMPDEST PUSH32 0x4E487B7100000000000000000000000000000000000000000000000000000000 PUSH1 0x0 MSTORE PUSH1 0x41 PUSH1 0x4 MSTORE PUSH1 0x24 PUSH1 0x0 REVERT JUMPDEST PUSH1 0x0 DUP1 PUSH1 0x0 DUP1 PUSH1 0x80 DUP6 DUP8 SUB SLT ISZERO PUSH2 0x1109 JUMPI PUSH1 0x0 DUP1 REVERT JUMPDEST PUSH2 0x1112 DUP6 PUSH2 0xFE3 JUMP JUMPDEST SWAP4 POP PUSH2 0x1120 PUSH1 0x20 DUP7 ADD PUSH2 0xFE3 JUMP JUMPDEST SWAP3 POP PUSH1 0x40 DUP6 ADD CALLDATALOAD SWAP2 POP PUSH1 0x60 DUP6 ADD CALLDATALOAD PUSH8 0xFFFFFFFFFFFFFFFF DUP1 DUP3 GT ISZERO PUSH2 0x1144 JUMPI PUSH1 0x0 DUP1 REVERT JUMPDEST DUP2 DUP8 ADD SWAP2 POP DUP8 PUSH1 0x1F DUP4 ADD SLT PUSH2 0x1158 JUMPI PUSH1 0x0 DUP1 REVERT JUMPDEST DUP2 CALLDATALOAD DUP2 DUP2 GT ISZERO PUSH2 0x116A JUMPI PUSH2 0x116A PUSH2 0x10C4 JUMP JUMPDEST PUSH1 0x40 MLOAD PUSH1 0x1F DUP3 ADD PUSH32 0xFFFFFFFFFFFFFFFFFFFFFFFFFFFFFFFFFFFFFFFFFFFFFFFFFFFFFFFFFFFFFFE0 SWAP1 DUP2 AND PUSH1 0x3F ADD AND DUP2 ADD SWAP1 DUP4 DUP3 GT DUP2 DUP4 LT OR ISZERO PUSH2 0x11B0 JUMPI PUSH2 0x11B0 PUSH2 0x10C4 JUMP JUMPDEST DUP2 PUSH1 0x40 MSTORE DUP3 DUP2 MSTORE DUP11 PUSH1 0x20 DUP5 DUP8 ADD ADD GT ISZERO PUSH2 0x11C9 JUMPI PUSH1 0x0 DUP1 REVERT JUMPDEST DUP3 PUSH1 0x20 DUP7 ADD PUSH1 0x20 DUP4 ADD CALLDATACOPY PUSH1 0x0 PUSH1 0x20 DUP5 DUP4 ADD ADD MSTORE DUP1 SWAP6 POP POP POP POP POP POP SWAP3 SWAP6 SWAP2 SWAP5 POP SWAP3 POP JUMP JUMPDEST PUSH1 0x0 DUP1 PUSH1 0x40 DUP4 DUP6 SUB SLT ISZERO PUSH2 0x1200 JUMPI PUSH1 0x0 DUP1 REVERT JUMPDEST PUSH2 0x1209 DUP4 PUSH2 0xFE3 JUMP JUMPDEST SWAP2 POP PUSH2 0x1217 PUSH1 0x20 DUP5 ADD PUSH2 0xFE3 JUMP JUMPDEST SWAP1 POP SWAP3 POP SWAP3 SWAP1 POP JUMP JUMPDEST PUSH1 0x1 DUP2 DUP2 SHR SWAP1 DUP3 AND DUP1 PUSH2 0x1234 JUMPI PUSH1 0x7F DUP3 AND SWAP2 POP JUMPDEST PUSH1 0x20 DUP3 LT DUP2 SUB PUSH2 0x126D JUMPI PUSH32 0x4E487B7100000000000000000000000000000000000000000000000000000000 PUSH1 0x0 MSTORE PUSH1 0x22 PUSH1 0x4 MSTORE PUSH1 0x24 PUSH1 0x0 REVERT JUMPDEST POP SWAP2 SWAP1 POP JUMP JUMPDEST PUSH1 0x0 DUP4 MLOAD PUSH2 0x1285 DUP2 DUP5 PUSH1 0x20 DUP9 ADD PUSH2 0xF49 JUMP JUMPDEST DUP4 MLOAD SWAP1 DUP4 ADD SWAP1 PUSH2 0x1299 DUP2 DUP4 PUSH1 0x20 DUP9 ADD PUSH2 0xF49 JUMP JUMPDEST ADD SWAP5 SWAP4 POP POP POP POP JUMP JUMPDEST PUSH1 0x0 PUSH20 0xFFFFFFFFFFFFFFFFFFFFFFFFFFFFFFFFFFFFFFFF DUP1 DUP8 AND DUP4 MSTORE DUP1 DUP7 AND PUSH1 0x20 DUP5 ADD MSTORE POP DUP4 PUSH1 0x40 DUP4 ADD MSTORE PUSH1 0x80 PUSH1 0x60 DUP4 ADD MSTORE PUSH2 0x12E1 PUSH1 0x80 DUP4 ADD DUP5 PUSH2 0xF6D JUMP JUMPDEST SWAP7 SWAP6 POP POP POP POP POP POP JUMP JUMPDEST PUSH1 0x0 PUSH1 0x20 DUP3 DUP5 SUB SLT ISZERO PUSH2 0x12FD JUMPI PUSH1 0x0 DUP1 REVERT JUMPDEST DUP2 MLOAD PUSH2 0x96D DUP2 PUSH2 0xEFE JUMP INVALID LOG2 PUSH5 0x6970667358 0x22 SLT KECCAK256 0xC5 PUSH15 0x173A6015EB4583E55FB8F99B85BA82 0xF 0xF9 PUSH17 0xD423C2BBAD236A5456F8F33164736F6C63 NUMBER STOP ADDMOD GT STOP CALLER "
				},
				"gasEstimates": {
					"creation": {
						"codeDepositCost": "985200",
						"executionCost": "infinite",
						"totalCost": "infinite"
					},
					"external": {
						"approve(address,uint256)": "infinite",
						"balanceOf(address)": "2604",
						"getApproved(uint256)": "6895",
						"isApprovedForAll(address,address)": "infinite",
						"mintToken(uint256)": "infinite",
						"name()": "infinite",
						"ownerOf(uint256)": "infinite",
						"safeTransferFrom(address,address,uint256)": "infinite",
						"safeTransferFrom(address,address,uint256,bytes)": "infinite",
						"setApprovalForAll(address,bool)": "26647",
						"supportsInterface(bytes4)": "456",
						"symbol()": "infinite",
						"tokenURI(uint256)": "infinite",
						"totalSupply()": "4432",
						"transferFrom(address,address,uint256)": "infinite"
					},
					"internal": {
						"_afterTokenTransfers(address,address,uint256,uint256)": "infinite",
						"_approve(address,uint256)": "infinite",
						"_approve(address,uint256,bool)": "infinite",
						"_baseURI()": "infinite",
						"_beforeTokenTransfers(address,address,uint256,uint256)": "infinite",
						"_burn(uint256)": "infinite",
						"_burn(uint256,bool)": "infinite",
						"_checkContractOnERC721Received(address,address,uint256,bytes memory)": "infinite",
						"_exists(uint256)": "4331",
						"_extraData(address,address,uint24)": "infinite",
						"_getApprovedSlotAndAddress(uint256)": "infinite",
						"_getAux(address)": "infinite",
						"_initializeOwnershipAt(uint256)": "infinite",
						"_isSenderApprovedOrOwner(address,address,address)": "infinite",
						"_mint(address,uint256)": "infinite",
						"_mintERC2309(address,uint256)": "infinite",
						"_msgSenderERC721A()": "infinite",
						"_nextExtraData(address,address,uint256)": "infinite",
						"_nextInitializedFlag(uint256)": "infinite",
						"_nextTokenId()": "infinite",
						"_numberBurned(address)": "infinite",
						"_numberMinted(address)": "infinite",
						"_ownershipAt(uint256)": "infinite",
						"_ownershipOf(uint256)": "infinite",
						"_packOwnershipData(address,uint256)": "infinite",
						"_packedOwnershipOf(uint256)": "infinite",
						"_revert(bytes4)": "19",
						"_safeMint(address,uint256)": "infinite",
						"_safeMint(address,uint256,bytes memory)": "infinite",
						"_setAux(address,uint64)": "infinite",
						"_setExtraDataAt(uint256,uint24)": "infinite",
						"_startTokenId()": "infinite",
						"_toString(uint256)": "infinite",
						"_totalBurned()": "infinite",
						"_totalMinted()": "infinite",
						"_unpackedOwnership(uint256)": "infinite"
					}
				},
				"methodIdentifiers": {
					"approve(address,uint256)": "095ea7b3",
					"balanceOf(address)": "70a08231",
					"getApproved(uint256)": "081812fc",
					"isApprovedForAll(address,address)": "e985e9c5",
					"mintToken(uint256)": "c634d032",
					"name()": "06fdde03",
					"ownerOf(uint256)": "6352211e",
					"safeTransferFrom(address,address,uint256)": "42842e0e",
					"safeTransferFrom(address,address,uint256,bytes)": "b88d4fde",
					"setApprovalForAll(address,bool)": "a22cb465",
					"supportsInterface(bytes4)": "01ffc9a7",
					"symbol()": "95d89b41",
					"tokenURI(uint256)": "c87b56dd",
					"totalSupply()": "18160ddd",
					"transferFrom(address,address,uint256)": "23b872dd"
				}
			},
			"storageLayout": {
				"storage": [
					{
						"astId": 328,
						"contract": "newone.sol:ERC721A",
						"label": "_currentIndex",
						"offset": 0,
						"slot": "0",
						"type": "t_uint256"
					},
					{
						"astId": 330,
						"contract": "newone.sol:ERC721A",
						"label": "_burnCounter",
						"offset": 0,
						"slot": "1",
						"type": "t_uint256"
					},
					{
						"astId": 332,
						"contract": "newone.sol:ERC721A",
						"label": "_name",
						"offset": 0,
						"slot": "2",
						"type": "t_string_storage"
					},
					{
						"astId": 334,
						"contract": "newone.sol:ERC721A",
						"label": "_symbol",
						"offset": 0,
						"slot": "3",
						"type": "t_string_storage"
					},
					{
						"astId": 338,
						"contract": "newone.sol:ERC721A",
						"label": "_packedOwnerships",
						"offset": 0,
						"slot": "4",
						"type": "t_mapping(t_uint256,t_uint256)"
					},
					{
						"astId": 342,
						"contract": "newone.sol:ERC721A",
						"label": "_packedAddressData",
						"offset": 0,
						"slot": "5",
						"type": "t_mapping(t_address,t_uint256)"
					},
					{
						"astId": 347,
						"contract": "newone.sol:ERC721A",
						"label": "_tokenApprovals",
						"offset": 0,
						"slot": "6",
						"type": "t_mapping(t_uint256,t_struct(TokenApprovalRef)248_storage)"
					},
					{
						"astId": 353,
						"contract": "newone.sol:ERC721A",
						"label": "_operatorApprovals",
						"offset": 0,
						"slot": "7",
						"type": "t_mapping(t_address,t_mapping(t_address,t_bool))"
					}
				],
				"types": {
					"t_address": {
						"encoding": "inplace",
						"label": "address",
						"numberOfBytes": "20"
					},
					"t_bool": {
						"encoding": "inplace",
						"label": "bool",
						"numberOfBytes": "1"
					},
					"t_mapping(t_address,t_bool)": {
						"encoding": "mapping",
						"key": "t_address",
						"label": "mapping(address => bool)",
						"numberOfBytes": "32",
						"value": "t_bool"
					},
					"t_mapping(t_address,t_mapping(t_address,t_bool))": {
						"encoding": "mapping",
						"key": "t_address",
						"label": "mapping(address => mapping(address => bool))",
						"numberOfBytes": "32",
						"value": "t_mapping(t_address,t_bool)"
					},
					"t_mapping(t_address,t_uint256)": {
						"encoding": "mapping",
						"key": "t_address",
						"label": "mapping(address => uint256)",
						"numberOfBytes": "32",
						"value": "t_uint256"
					},
					"t_mapping(t_uint256,t_struct(TokenApprovalRef)248_storage)": {
						"encoding": "mapping",
						"key": "t_uint256",
						"label": "mapping(uint256 => struct ERC721A.TokenApprovalRef)",
						"numberOfBytes": "32",
						"value": "t_struct(TokenApprovalRef)248_storage"
					},
					"t_mapping(t_uint256,t_uint256)": {
						"encoding": "mapping",
						"key": "t_uint256",
						"label": "mapping(uint256 => uint256)",
						"numberOfBytes": "32",
						"value": "t_uint256"
					},
					"t_string_storage": {
						"encoding": "bytes",
						"label": "string",
						"numberOfBytes": "32"
					},
					"t_struct(TokenApprovalRef)248_storage": {
						"encoding": "inplace",
						"label": "struct ERC721A.TokenApprovalRef",
						"members": [
							{
								"astId": 247,
								"contract": "newone.sol:ERC721A",
								"label": "value",
								"offset": 0,
								"slot": "0",
								"type": "t_address"
							}
						],
						"numberOfBytes": "32"
					},
					"t_uint256": {
						"encoding": "inplace",
						"label": "uint256",
						"numberOfBytes": "32"
					}
				}
			},
			"userdoc": {
				"errors": {
					"ApprovalCallerNotOwnerNorApproved()": [
						{
							"notice": "The caller must own the token or be an approved operator."
						}
					],
					"ApprovalQueryForNonexistentToken()": [
						{
							"notice": "The token does not exist."
						}
					],
					"BalanceQueryForZeroAddress()": [
						{
							"notice": "Cannot query the balance for the zero address."
						}
					],
					"MintERC2309QuantityExceedsLimit()": [
						{
							"notice": "The `quantity` minted with ERC2309 exceeds the safety limit."
						}
					],
					"MintToZeroAddress()": [
						{
							"notice": "Cannot mint to the zero address."
						}
					],
					"MintZeroQuantity()": [
						{
							"notice": "The quantity of tokens minted must be more than zero."
						}
					],
					"OwnerQueryForNonexistentToken()": [
						{
							"notice": "The token does not exist."
						}
					],
					"OwnershipNotInitializedForExtraData()": [
						{
							"notice": "The `extraData` cannot be set on an unintialized ownership slot."
						}
					],
					"TransferCallerNotOwnerNorApproved()": [
						{
							"notice": "The caller must own the token or be an approved operator."
						}
					],
					"TransferFromIncorrectOwner()": [
						{
							"notice": "The token must be owned by `from`."
						}
					],
					"TransferToNonERC721ReceiverImplementer()": [
						{
							"notice": "Cannot safely transfer to a contract that does not implement the ERC721Receiver interface."
						}
					],
					"TransferToZeroAddress()": [
						{
							"notice": "Cannot transfer to the zero address."
						}
					],
					"URIQueryForNonexistentToken()": [
						{
							"notice": "The token does not exist."
						}
					]
				},
				"kind": "user",
				"methods": {},
				"version": 1
			}
		}
	}
}