{
	"encode.sol": {
		"EncodeCall": {
			"abi": [
				{
					"inputs": [
						{
							"internalType": "uint256",
							"name": "amount",
							"type": "uint256"
						}
					],
					"name": "encodeCall",
					"outputs": [
						{
							"internalType": "bytes",
							"name": "",
							"type": "bytes"
						}
					],
					"stateMutability": "pure",
					"type": "function"
				}
			],
			"devdoc": {
				"kind": "dev",
				"methods": {},
				"version": 1
			},
			"evm": {
				"assembly": "    /* \"encode.sol\":24:180  contract EncodeCall{... */\n  mstore(0x40, 0x80)\n  callvalue\n  dup1\n  iszero\n  tag_1\n  jumpi\n  0x00\n  dup1\n  revert\ntag_1:\n  pop\n  dataSize(sub_0)\n  dup1\n  dataOffset(sub_0)\n  0x00\n  codecopy\n  0x00\n  return\nstop\n\nsub_0: assembly {\n        /* \"encode.sol\":24:180  contract EncodeCall{... */\n      mstore(0x40, 0x80)\n      callvalue\n      dup1\n      iszero\n      tag_1\n      jumpi\n      0x00\n      dup1\n      revert\n    tag_1:\n      pop\n      jumpi(tag_2, lt(calldatasize, 0x04))\n      shr(0xe0, calldataload(0x00))\n      dup1\n      0xd7e86d8e\n      eq\n      tag_3\n      jumpi\n    tag_2:\n      0x00\n      dup1\n      revert\n        /* \"encode.sol\":46:176  function encodeCall(uint256 amount) external pure returns (bytes memory){... */\n    tag_3:\n      tag_4\n      tag_5\n      calldatasize\n      0x04\n      tag_6\n      jump\t// in\n    tag_5:\n      tag_7\n      jump\t// in\n    tag_4:\n      mload(0x40)\n      tag_8\n      swap2\n      swap1\n      tag_9\n      jump\t// in\n    tag_8:\n      mload(0x40)\n      dup1\n      swap2\n      sub\n      swap1\n      return\n    tag_7:\n        /* \"encode.sol\":105:117  bytes memory */\n      0x60\n        /* \"encode.sol\":165:171  amount */\n      dup2\n        /* \"encode.sol\":131:173  abi.encodeCall(ERC721A.mintToken,(amount)) */\n      add(0x24, mload(0x40))\n      tag_11\n      swap2\n        /* \"#utility.yul\":955:980   */\n      dup2\n      mstore\n        /* \"#utility.yul\":943:945   */\n      0x20\n        /* \"#utility.yul\":928:946   */\n      add\n      swap1\n        /* \"#utility.yul\":809:986   */\n      jump\n        /* \"encode.sol\":131:173  abi.encodeCall(ERC721A.mintToken,(amount)) */\n    tag_11:\n      0x40\n      dup1\n      mload\n      0xffffffffffffffffffffffffffffffffffffffffffffffffffffffffffffffe0\n      dup2\n      dup5\n      sub\n      add\n      dup2\n      mstore\n      swap2\n      swap1\n      mstore\n      0x20\n      dup2\n      add\n      dup1\n      mload\n      0xffffffffffffffffffffffffffffffffffffffffffffffffffffffff\n      and\n      0xc634d03200000000000000000000000000000000000000000000000000000000\n      or\n      swap1\n      mstore\n      swap3\n        /* \"encode.sol\":46:176  function encodeCall(uint256 amount) external pure returns (bytes memory){... */\n      swap2\n      pop\n      pop\n      jump\t// out\n        /* \"#utility.yul\":14:194   */\n    tag_6:\n        /* \"#utility.yul\":73:79   */\n      0x00\n        /* \"#utility.yul\":126:128   */\n      0x20\n        /* \"#utility.yul\":114:123   */\n      dup3\n        /* \"#utility.yul\":105:112   */\n      dup5\n        /* \"#utility.yul\":101:124   */\n      sub\n        /* \"#utility.yul\":97:129   */\n      slt\n        /* \"#utility.yul\":94:146   */\n      iszero\n      tag_15\n      jumpi\n        /* \"#utility.yul\":142:143   */\n      0x00\n        /* \"#utility.yul\":139:140   */\n      dup1\n        /* \"#utility.yul\":132:144   */\n      revert\n        /* \"#utility.yul\":94:146   */\n    tag_15:\n      pop\n        /* \"#utility.yul\":165:188   */\n      calldataload\n      swap2\n        /* \"#utility.yul\":14:194   */\n      swap1\n      pop\n      jump\t// out\n        /* \"#utility.yul\":199:804   */\n    tag_9:\n        /* \"#utility.yul\":309:313   */\n      0x00\n        /* \"#utility.yul\":338:340   */\n      0x20\n        /* \"#utility.yul\":367:369   */\n      dup1\n        /* \"#utility.yul\":356:365   */\n      dup4\n        /* \"#utility.yul\":349:370   */\n      mstore\n        /* \"#utility.yul\":399:405   */\n      dup4\n        /* \"#utility.yul\":393:406   */\n      mload\n        /* \"#utility.yul\":442:448   */\n      dup1\n        /* \"#utility.yul\":437:439   */\n      dup3\n        /* \"#utility.yul\":426:435   */\n      dup6\n        /* \"#utility.yul\":422:440   */\n      add\n        /* \"#utility.yul\":415:449   */\n      mstore\n        /* \"#utility.yul\":467:468   */\n      0x00\n        /* \"#utility.yul\":477:617   */\n    tag_17:\n        /* \"#utility.yul\":491:497   */\n      dup2\n        /* \"#utility.yul\":488:489   */\n      dup2\n        /* \"#utility.yul\":485:498   */\n      lt\n        /* \"#utility.yul\":477:617   */\n      iszero\n      tag_19\n      jumpi\n        /* \"#utility.yul\":586:600   */\n      dup6\n      dup2\n      add\n        /* \"#utility.yul\":582:605   */\n      dup4\n      add\n        /* \"#utility.yul\":576:606   */\n      mload\n        /* \"#utility.yul\":552:569   */\n      dup6\n      dup3\n      add\n        /* \"#utility.yul\":571:573   */\n      0x40\n        /* \"#utility.yul\":548:574   */\n      add\n        /* \"#utility.yul\":541:607   */\n      mstore\n        /* \"#utility.yul\":506:516   */\n      dup3\n      add\n        /* \"#utility.yul\":477:617   */\n      jump(tag_17)\n    tag_19:\n        /* \"#utility.yul\":481:484   */\n      pop\n        /* \"#utility.yul\":666:667   */\n      0x00\n        /* \"#utility.yul\":661:663   */\n      0x40\n        /* \"#utility.yul\":652:658   */\n      dup3\n        /* \"#utility.yul\":641:650   */\n      dup7\n        /* \"#utility.yul\":637:659   */\n      add\n        /* \"#utility.yul\":633:664   */\n      add\n        /* \"#utility.yul\":626:668   */\n      mstore\n        /* \"#utility.yul\":795:797   */\n      0x40\n        /* \"#utility.yul\":725:791   */\n      0xffffffffffffffffffffffffffffffffffffffffffffffffffffffffffffffe0\n        /* \"#utility.yul\":720:722   */\n      0x1f\n        /* \"#utility.yul\":712:718   */\n      dup4\n        /* \"#utility.yul\":708:723   */\n      add\n        /* \"#utility.yul\":704:792   */\n      and\n        /* \"#utility.yul\":693:702   */\n      dup6\n        /* \"#utility.yul\":689:793   */\n      add\n        /* \"#utility.yul\":685:798   */\n      add\n        /* \"#utility.yul\":677:798   */\n      swap3\n      pop\n      pop\n      pop\n        /* \"#utility.yul\":199:804   */\n      swap3\n      swap2\n      pop\n      pop\n      jump\t// out\n\n    auxdata: 0xa26469706673582212202c5598c95fcb570f469d64dabd17c1c4c8b1f2dd9659ff56157ffe79c087428c64736f6c63430008110033\n}\n",
				"bytecode": {
					"linkReferences": {},
					"object": "608060405234801561001057600080fd5b506101a5806100206000396000f3fe608060405234801561001057600080fd5b506004361061002b5760003560e01c8063d7e86d8e14610030575b600080fd5b61004361003e3660046100ea565b610059565b6040516100509190610103565b60405180910390f35b60608160405160240161006e91815260200190565b604080517fffffffffffffffffffffffffffffffffffffffffffffffffffffffffffffffe08184030181529190526020810180517bffffffffffffffffffffffffffffffffffffffffffffffffffffffff167fc634d0320000000000000000000000000000000000000000000000000000000017905292915050565b6000602082840312156100fc57600080fd5b5035919050565b600060208083528351808285015260005b8181101561013057858101830151858201604001528201610114565b5060006040828601015260407fffffffffffffffffffffffffffffffffffffffffffffffffffffffffffffffe0601f830116850101925050509291505056fea26469706673582212202c5598c95fcb570f469d64dabd17c1c4c8b1f2dd9659ff56157ffe79c087428c64736f6c63430008110033",
					"opcodes": "PUSH1 0x80 PUSH1 0x40 MSTORE CALLVALUE DUP1 ISZERO PUSH2 0x10 JUMPI PUSH1 0x0 DUP1 REVERT JUMPDEST POP PUSH2 0x1A5 DUP1 PUSH2 0x20 PUSH1 0x0 CODECOPY PUSH1 0x0 RETURN INVALID PUSH1 0x80 PUSH1 0x40 MSTORE CALLVALUE DUP1 ISZERO PUSH2 0x10 JUMPI PUSH1 0x0 DUP1 REVERT JUMPDEST POP PUSH1 0x4 CALLDATASIZE LT PUSH2 0x2B JUMPI PUSH1 0x0 CALLDATALOAD PUSH1 0xE0 SHR DUP1 PUSH4 0xD7E86D8E EQ PUSH2 0x30 JUMPI JUMPDEST PUSH1 0x0 DUP1 REVERT JUMPDEST PUSH2 0x43 PUSH2 0x3E CALLDATASIZE PUSH1 0x4 PUSH2 0xEA JUMP JUMPDEST PUSH2 0x59 JUMP JUMPDEST PUSH1 0x40 MLOAD PUSH2 0x50 SWAP2 SWAP1 PUSH2 0x103 JUMP JUMPDEST PUSH1 0x40 MLOAD DUP1 SWAP2 SUB SWAP1 RETURN JUMPDEST PUSH1 0x60 DUP2 PUSH1 0x40 MLOAD PUSH1 0x24 ADD PUSH2 0x6E SWAP2 DUP2 MSTORE PUSH1 0x20 ADD SWAP1 JUMP JUMPDEST PUSH1 0x40 DUP1 MLOAD PUSH32 0xFFFFFFFFFFFFFFFFFFFFFFFFFFFFFFFFFFFFFFFFFFFFFFFFFFFFFFFFFFFFFFE0 DUP2 DUP5 SUB ADD DUP2 MSTORE SWAP2 SWAP1 MSTORE PUSH1 0x20 DUP2 ADD DUP1 MLOAD PUSH28 0xFFFFFFFFFFFFFFFFFFFFFFFFFFFFFFFFFFFFFFFFFFFFFFFFFFFFFFFF AND PUSH32 0xC634D03200000000000000000000000000000000000000000000000000000000 OR SWAP1 MSTORE SWAP3 SWAP2 POP POP JUMP JUMPDEST PUSH1 0x0 PUSH1 0x20 DUP3 DUP5 SUB SLT ISZERO PUSH2 0xFC JUMPI PUSH1 0x0 DUP1 REVERT JUMPDEST POP CALLDATALOAD SWAP2 SWAP1 POP JUMP JUMPDEST PUSH1 0x0 PUSH1 0x20 DUP1 DUP4 MSTORE DUP4 MLOAD DUP1 DUP3 DUP6 ADD MSTORE PUSH1 0x0 JUMPDEST DUP2 DUP2 LT ISZERO PUSH2 0x130 JUMPI DUP6 DUP2 ADD DUP4 ADD MLOAD DUP6 DUP3 ADD PUSH1 0x40 ADD MSTORE DUP3 ADD PUSH2 0x114 JUMP JUMPDEST POP PUSH1 0x0 PUSH1 0x40 DUP3 DUP7 ADD ADD MSTORE PUSH1 0x40 PUSH32 0xFFFFFFFFFFFFFFFFFFFFFFFFFFFFFFFFFFFFFFFFFFFFFFFFFFFFFFFFFFFFFFE0 PUSH1 0x1F DUP4 ADD AND DUP6 ADD ADD SWAP3 POP POP POP SWAP3 SWAP2 POP POP JUMP INVALID LOG2 PUSH5 0x6970667358 0x22 SLT KECCAK256 0x2C SSTORE SWAP9 0xC9 0x5F 0xCB JUMPI 0xF CHAINID SWAP14 PUSH5 0xDABD17C1C4 0xC8 0xB1 CALLCODE 0xDD SWAP7 MSIZE SELFDESTRUCT JUMP ISZERO PUSH32 0xFE79C087428C64736F6C63430008110033000000000000000000000000000000 "
				},
				"gasEstimates": {
					"creation": {
						"codeDepositCost": "84200",
						"executionCost": "135",
						"totalCost": "84335"
					},
					"external": {
						"encodeCall(uint256)": "infinite"
					}
				},
				"methodIdentifiers": {
					"encodeCall(uint256)": "d7e86d8e"
				}
			},
			"storageLayout": {
				"storage": [],
				"types": null
			},
			"userdoc": {
				"kind": "user",
				"methods": {},
				"version": 1
			}
		}
	}
}