{
	"data": {
		"bytecode": {
			"linkReferences": {},
			"object": "6080604052600060cc5534801561001557600080fd5b506001606555616abc806200002b6000396000f3fe608060405234801561001057600080fd5b50600436106103785760003560e01c806370a08231116101d3578063b0fe87c911610104578063e00aab4b116100a2578063f0cdc4991161007c578063f0cdc49914610808578063f2fde38b1461081b578063fe2e1f581461082e578063ffa1ad741461084157600080fd5b8063e00aab4b14610799578063e92a89f6146107ac578063e985e9c5146107bf57600080fd5b8063bb3bafd6116100de578063bb3bafd614610752578063c87b56dd14610773578063ce8aee9d14610786578063d5a06d4c1461075257600080fd5b8063b0fe87c91461070c578063b88d4fde1461071f578063b9c4d9fb1461073257600080fd5b80638da5cb5b11610171578063a22cb4651161014b578063a22cb465146106c0578063aafb2d44146106d3578063ac0c8cfa146106e6578063ad2d0ddd146106f957600080fd5b80638da5cb5b1461068757806395d89b41146106a557806399e0dd7c146106ad57600080fd5b80637884af44116101ad5780637884af44146106465780637aa15f161461065957806382dcc0c81461066c57806383b7db631461067f57600080fd5b806370a0823114610618578063715018a61461062b57806372ff03d31461063357600080fd5b80632a55205a116102ad57806342842e0e1161024b57806361e5bc6b1161022557806361e5bc6b146105cc5780636352211e146105df57806366d1e9d0146105f25780636d73e6691461060557600080fd5b806342842e0e1461059357806342966c68146105a6578063596798ad146105b957600080fd5b806331ae450b1161028757806331ae450b14610545578063332dd1ae1461055a57806338e52e781461056d5780633e6134b81461058057600080fd5b80632a55205a146104e05780632d3456701461051f57806330176e131461053257600080fd5b8063162094c41161031a578063239be317116102f4578063239be3171461048657806323b872dd1461049957806324d7806c146104ac5780632928ca58146104bf57600080fd5b8063162094c41461044257806320e4afe21461045557806322f374d01461046857600080fd5b806306fdde031161035657806306fdde03146103c2578063081812fc146103d7578063095ea7b31461040f5780630ebd4c7f1461042257600080fd5b806301ffc9a71461037d57806302e7afb7146103a55780630500df04146103ba575b600080fd5b61039061038b3660046159d2565b610849565b60405190151581526020015b60405180910390f35b6103b86103b3366004615a11565b610878565b005b6103b861095c565b6103ca610975565b60405161039c9190615a9c565b6103ea6103e5366004615aaf565b610a07565b60405173ffffffffffffffffffffffffffffffffffffffff909116815260200161039c565b6103b861041d366004615ac8565b610a3b565b610435610430366004615aaf565b610bc7565b60405161039c9190615b2f565b6103b8610450366004615b84565b610c5e565b6103b8610463366004615c15565b610d3c565b60cd5473ffffffffffffffffffffffffffffffffffffffff166103ea565b6103ea610494366004615aaf565b610eae565b6103b86104a7366004615c8f565b610f42565b6103906104ba366004615a11565b610fe3565b6104d26104cd366004615a11565b611043565b60405190815260200161039c565b6104f36104ee366004615cd0565b61107f565b6040805173ffffffffffffffffffffffffffffffffffffffff909316835260208301919091520161039c565b6103b861052d366004615a11565b611122565b6103b8610540366004615cf2565b61118c565b61054d61129e565b60405161039c9190615d34565b6103b8610568366004615d8e565b61135a565b61043561057b366004615dfa565b611441565b6103b861058e366004615cf2565b61153c565b6103b86105a1366004615c8f565b611550565b6103b86105b4366004615aaf565b61156b565b6103b86105c7366004615a11565b61160e565b6103b86105da366004615ee4565b6116ea565b6103ea6105ed366004615aaf565b6117b6565b6103b8610600366004615cf2565b611842565b6103b8610613366004615a11565b611854565b6104d2610626366004615a11565b6118b9565b6103b8611987565b6104d2610641366004615a11565b61199b565b6104d2610654366004615f9a565b611a91565b610435610667366004615dfa565b611bba565b6103b861067a366004615fe6565b611d6e565b61054d611d81565b60335473ffffffffffffffffffffffffffffffffffffffff166103ea565b6103ca611e2f565b6103b86106bb366004615cf2565b611e3e565b6103b86106ce36600461603a565b611f1b565b6103b86106e1366004615ee4565b611f26565b6103b86106f436600461606f565b6120bd565b61043561070736600461608a565b6120cf565b6103b861071a3660046160ca565b612255565b6103b861072d366004616150565b612335565b610745610740366004615aaf565b6123d7565b60405161039c9190616240565b610765610760366004615aaf565b61246e565b60405161039c929190616253565b6103ca610781366004615aaf565b612517565b6103b8610794366004615a11565b6125ae565b6104356107a736600461608a565b61268a565b6103b86107ba366004615b84565b612732565b6103906107cd366004616281565b73ffffffffffffffffffffffffffffffffffffffff9182166000908152609f6020908152604080832093909416825291909152205460ff1690565b6103b8610816366004616281565b612745565b6103b8610829366004615a11565b612822565b6104d261083c366004615f9a565b6128d6565b6104d2600281565b600061085482612928565b8061086357506108638261297e565b80610872575061087282612a61565b92915050565b3361089860335473ffffffffffffffffffffffffffffffffffffffff1690565b73ffffffffffffffffffffffffffffffffffffffff1614806108c057506108c0606633612af8565b610950576040517f08c379a0000000000000000000000000000000000000000000000000000000008152602060048201526024808201527f41646d696e436f6e74726f6c3a204d757374206265206f776e6572206f72206160448201527f646d696e0000000000000000000000000000000000000000000000000000000060648201526084015b60405180910390fd5b61095981612b27565b50565b6109593360405180602001604052806000815250612c85565b6060609a8054610984906162af565b80601f01602080910402602001604051908101604052809291908181526020018280546109b0906162af565b80156109fd5780601f106109d2576101008083540402835291602001916109fd565b820191906000526020600020905b8154815290600101906020018083116109e057829003601f168201915b5050505050905090565b6000610a1282612cce565b506000908152609e602052604090205473ffffffffffffffffffffffffffffffffffffffff1690565b6000610a46826117b6565b90508073ffffffffffffffffffffffffffffffffffffffff168373ffffffffffffffffffffffffffffffffffffffff1603610b03576040517f08c379a000000000000000000000000000000000000000000000000000000000815260206004820152602160248201527f4552433732313a20617070726f76616c20746f2063757272656e74206f776e6560448201527f72000000000000000000000000000000000000000000000000000000000000006064820152608401610947565b3373ffffffffffffffffffffffffffffffffffffffff82161480610b2c5750610b2c81336107cd565b610bb8576040517f08c379a000000000000000000000000000000000000000000000000000000000815260206004820152603d60248201527f4552433732313a20617070726f76652063616c6c6572206973206e6f7420746f60448201527f6b656e206f776e6572206f7220617070726f76656420666f7220616c6c0000006064820152608401610947565b610bc28383612d59565b505050565b6000818152609c602052604090205460609073ffffffffffffffffffffffffffffffffffffffff16610c55576040517f08c379a000000000000000000000000000000000000000000000000000000000815260206004820152601160248201527f4e6f6e6578697374656e7420746f6b656e0000000000000000000000000000006044820152606401610947565b61087282612df9565b33610c7e60335473ffffffffffffffffffffffffffffffffffffffff1690565b73ffffffffffffffffffffffffffffffffffffffff161480610ca65750610ca6606633612af8565b610d31576040517f08c379a0000000000000000000000000000000000000000000000000000000008152602060048201526024808201527f41646d696e436f6e74726f6c3a204d757374206265206f776e6572206f72206160448201527f646d696e000000000000000000000000000000000000000000000000000000006064820152608401610947565b610bc2838383612e04565b33610d5c60335473ffffffffffffffffffffffffffffffffffffffff1690565b73ffffffffffffffffffffffffffffffffffffffff161480610d845750610d84606633612af8565b610e0f576040517f08c379a0000000000000000000000000000000000000000000000000000000008152602060048201526024808201527f41646d696e436f6e74726f6c3a204d757374206265206f776e6572206f72206160448201527f646d696e000000000000000000000000000000000000000000000000000000006064820152608401610947565b6000858152609c602052604090205473ffffffffffffffffffffffffffffffffffffffff16610e9a576040517f08c379a000000000000000000000000000000000000000000000000000000000815260206004820152601160248201527f4e6f6e6578697374656e7420746f6b656e0000000000000000000000000000006044820152606401610947565b610ea78585858585612ec3565b5050505050565b6000818152609c602052604081205473ffffffffffffffffffffffffffffffffffffffff16610f39576040517f08c379a000000000000000000000000000000000000000000000000000000000815260206004820152601160248201527f4e6f6e6578697374656e7420746f6b656e0000000000000000000000000000006044820152606401610947565b61087282612f4a565b610f4c3382613048565b610fd8576040517f08c379a000000000000000000000000000000000000000000000000000000000815260206004820152602d60248201527f4552433732313a2063616c6c6572206973206e6f7420746f6b656e206f776e6560448201527f72206f7220617070726f766564000000000000000000000000000000000000006064820152608401610947565b610bc2838383613108565b60008173ffffffffffffffffffffffffffffffffffffffff1661101b60335473ffffffffffffffffffffffffffffffffffffffff1690565b73ffffffffffffffffffffffffffffffffffffffff1614806108725750610872606683612af8565b600061104d613410565b611055613483565b61106e82604051806020016040528060008152506134f4565b905061107a6001606555565b919050565b6000828152609c6020526040812054819073ffffffffffffffffffffffffffffffffffffffff1661110c576040517f08c379a000000000000000000000000000000000000000000000000000000000815260206004820152601160248201527f4e6f6e6578697374656e7420746f6b656e0000000000000000000000000000006044820152606401610947565b6111168484613557565b915091505b9250929050565b61112a613648565b611135606682612af8565b1561095957604051339073ffffffffffffffffffffffffffffffffffffffff8316907f7c0c3c84c67c85fcac635147348bfe374c24a1a93d0366d1cfe9d8853cbf89d590600090a36111886066826136c9565b5050565b336111ac60335473ffffffffffffffffffffffffffffffffffffffff1690565b73ffffffffffffffffffffffffffffffffffffffff1614806111d457506111d4606633612af8565b61125f576040517f08c379a0000000000000000000000000000000000000000000000000000000008152602060048201526024808201527f41646d696e436f6e74726f6c3a204d757374206265206f776e6572206f72206160448201527f646d696e000000000000000000000000000000000000000000000000000000006064820152608401610947565b61118882828080601f0160208091040260200160405190810160405280939291908181526020018383808284376000920191909152506136eb92505050565b60606112aa606661371f565b67ffffffffffffffff8111156112c2576112c2615e42565b6040519080825280602002602001820160405280156112eb578160200160208202803683370190505b50905060005b6112fb606661371f565b8110156113565761130d606682613729565b82828151811061131f5761131f6162fc565b73ffffffffffffffffffffffffffffffffffffffff909216602092830291909101909101528061134e8161635a565b9150506112f1565b5090565b3361137a60335473ffffffffffffffffffffffffffffffffffffffff1690565b73ffffffffffffffffffffffffffffffffffffffff1614806113a257506113a2606633612af8565b61142d576040517f08c379a0000000000000000000000000000000000000000000000000000000008152602060048201526024808201527f41646d696e436f6e74726f6c3a204d757374206265206f776e6572206f72206160448201527f646d696e000000000000000000000000000000000000000000000000000000006064820152608401610947565b61143b600085858585613735565b50505050565b606061144b613410565b611453613483565b8167ffffffffffffffff81111561146c5761146c615e42565b604051908082528060200260200182016040528015611495578160200160208202803683370190505b50905060005b8281101561152a57611505858585848181106114b9576114b96162fc565b90506020028101906114cb9190616392565b8080601f0160208091040260200160405190810160405280939291908181526020018383808284376000920191909152506134f492505050565b828281518110611517576115176162fc565b602090810291909101015260010161149b565b506115356001606555565b9392505050565b611544613483565b61118882826000613863565b610bc283838360405180602001604052806000815250612335565b611573613410565b61157d3382613048565b6115e3576040517f08c379a000000000000000000000000000000000000000000000000000000000815260206004820181905260248201527f43616c6c6572206973206e6f74206f776e6572206e6f7220617070726f7665646044820152606401610947565b60006115ee826117b6565b90506115f9826138be565b61160381836139a4565b506109596001606555565b3361162e60335473ffffffffffffffffffffffffffffffffffffffff1690565b73ffffffffffffffffffffffffffffffffffffffff1614806116565750611656606633612af8565b6116e1576040517f08c379a0000000000000000000000000000000000000000000000000000000008152602060048201526024808201527f41646d696e436f6e74726f6c3a204d757374206265206f776e6572206f72206160448201527f646d696e000000000000000000000000000000000000000000000000000000006064820152608401610947565b61095981613b2a565b6116f2613483565b8251811461175c576040517f08c379a000000000000000000000000000000000000000000000000000000000815260206004820152600d60248201527f496e76616c696420696e707574000000000000000000000000000000000000006044820152606401610947565b60005b835181101561143b576117ae84828151811061177d5761177d6162fc565b6020026020010151848484818110611797576117976162fc565b90506020028101906117a99190616392565b613ba3565b60010161175f565b6000818152609c602052604081205473ffffffffffffffffffffffffffffffffffffffff1680610872576040517f08c379a000000000000000000000000000000000000000000000000000000000815260206004820152601860248201527f4552433732313a20696e76616c696420746f6b656e20494400000000000000006044820152606401610947565b61184a613483565b6111888282613c30565b61185c613648565b611867606682612af8565b61095957604051339073ffffffffffffffffffffffffffffffffffffffff8316907f7e1a1a08d52e4ba0e21554733d66165fd5151f99460116223d9e3a608eec5cb190600090a3611188606682613c4a565b600073ffffffffffffffffffffffffffffffffffffffff821661195e576040517f08c379a000000000000000000000000000000000000000000000000000000000815260206004820152602960248201527f4552433732313a2061646472657373207a65726f206973206e6f74206120766160448201527f6c6964206f776e657200000000000000000000000000000000000000000000006064820152608401610947565b5073ffffffffffffffffffffffffffffffffffffffff166000908152609d602052604090205490565b61198f613648565b6119996000613c6c565b565b60006119a5613410565b336119c560335473ffffffffffffffffffffffffffffffffffffffff1690565b73ffffffffffffffffffffffffffffffffffffffff1614806119ed57506119ed606633612af8565b611a78576040517f08c379a0000000000000000000000000000000000000000000000000000000008152602060048201526024808201527f41646d696e436f6e74726f6c3a204d757374206265206f776e6572206f72206160448201527f646d696e000000000000000000000000000000000000000000000000000000006064820152608401610947565b61106e8260405180602001604052806000815250612c85565b6000611a9b613410565b33611abb60335473ffffffffffffffffffffffffffffffffffffffff1690565b73ffffffffffffffffffffffffffffffffffffffff161480611ae35750611ae3606633612af8565b611b6e576040517f08c379a0000000000000000000000000000000000000000000000000000000008152602060048201526024808201527f41646d696e436f6e74726f6c3a204d757374206265206f776e6572206f72206160448201527f646d696e000000000000000000000000000000000000000000000000000000006064820152608401610947565b611bae8484848080601f016020809104026020016040519081016040528093929190818152602001838380828437600092019190915250612c8592505050565b90506115356001606555565b6060611bc4613410565b33611be460335473ffffffffffffffffffffffffffffffffffffffff1690565b73ffffffffffffffffffffffffffffffffffffffff161480611c0c5750611c0c606633612af8565b611c97576040517f08c379a0000000000000000000000000000000000000000000000000000000008152602060048201526024808201527f41646d696e436f6e74726f6c3a204d757374206265206f776e6572206f72206160448201527f646d696e000000000000000000000000000000000000000000000000000000006064820152608401610947565b8167ffffffffffffffff811115611cb057611cb0615e42565b604051908082528060200260200182016040528015611cd9578160200160208202803683370190505b50905060005b8281101561152a57611d4985858584818110611cfd57611cfd6162fc565b9050602002810190611d0f9190616392565b8080601f016020809104026020016040519081016040528093929190818152602001838380828437600092019190915250612c8592505050565b828281518110611d5b57611d5b6162fc565b6020908102919091010152600101611cdf565b611d76613483565b610bc2838383613863565b6060611d8d60ce61371f565b67ffffffffffffffff811115611da557611da5615e42565b604051908082528060200260200182016040528015611dce578160200160208202803683370190505b50905060005b611dde60ce61371f565b81101561135657611df060ce82613729565b828281518110611e0257611e026162fc565b73ffffffffffffffffffffffffffffffffffffffff90921660209283029190910190910152600101611dd4565b6060609b8054610984906162af565b33611e5e60335473ffffffffffffffffffffffffffffffffffffffff1690565b73ffffffffffffffffffffffffffffffffffffffff161480611e865750611e86606633612af8565b611f11576040517f08c379a0000000000000000000000000000000000000000000000000000000008152602060048201526024808201527f41646d696e436f6e74726f6c3a204d757374206265206f776e6572206f72206160448201527f646d696e000000000000000000000000000000000000000000000000000000006064820152608401610947565b6111888282613ce3565b611188338383613d18565b33611f4660335473ffffffffffffffffffffffffffffffffffffffff1690565b73ffffffffffffffffffffffffffffffffffffffff161480611f6e5750611f6e606633612af8565b611ff9576040517f08c379a0000000000000000000000000000000000000000000000000000000008152602060048201526024808201527f41646d696e436f6e74726f6c3a204d757374206265206f776e6572206f72206160448201527f646d696e000000000000000000000000000000000000000000000000000000006064820152608401610947565b82518114612063576040517f08c379a000000000000000000000000000000000000000000000000000000000815260206004820152600d60248201527f496e76616c696420696e707574000000000000000000000000000000000000006044820152606401610947565b60005b835181101561143b576120b5848281518110612084576120846162fc565b602002602001015184848481811061209e5761209e6162fc565b90506020028101906120b09190616392565b612e04565b600101612066565b6120c5613483565b6109593382613e45565b60606120d9613410565b336120f960335473ffffffffffffffffffffffffffffffffffffffff1690565b73ffffffffffffffffffffffffffffffffffffffff1614806121215750612121606633612af8565b6121ac576040517f08c379a0000000000000000000000000000000000000000000000000000000008152602060048201526024808201527f41646d696e436f6e74726f6c3a204d757374206265206f776e6572206f72206160448201527f646d696e000000000000000000000000000000000000000000000000000000006064820152608401610947565b8161ffff1667ffffffffffffffff8111156121c9576121c9615e42565b6040519080825280602002602001820160405280156121f2578160200160208202803683370190505b50905060005b8261ffff168161ffff16101561224a576122218460405180602001604052806000815250612c85565b828261ffff1681518110612237576122376162fc565b60209081029190910101526001016121f8565b506108726001606555565b3361227560335473ffffffffffffffffffffffffffffffffffffffff1690565b73ffffffffffffffffffffffffffffffffffffffff16148061229d575061229d606633612af8565b612328576040517f08c379a0000000000000000000000000000000000000000000000000000000008152602060048201526024808201527f41646d696e436f6e74726f6c3a204d757374206265206f776e6572206f72206160448201527f646d696e000000000000000000000000000000000000000000000000000000006064820152608401610947565b610ea78585858585613735565b61233f3383613048565b6123cb576040517f08c379a000000000000000000000000000000000000000000000000000000000815260206004820152602d60248201527f4552433732313a2063616c6c6572206973206e6f7420746f6b656e206f776e6560448201527f72206f7220617070726f766564000000000000000000000000000000000000006064820152608401610947565b61143b84848484613efe565b6000818152609c602052604090205460609073ffffffffffffffffffffffffffffffffffffffff16612465576040517f08c379a000000000000000000000000000000000000000000000000000000000815260206004820152601160248201527f4e6f6e6578697374656e7420746f6b656e0000000000000000000000000000006044820152606401610947565b61087282613fa1565b60608061249f836000908152609c602052604090205473ffffffffffffffffffffffffffffffffffffffff16151590565b612505576040517f08c379a000000000000000000000000000000000000000000000000000000000815260206004820152601160248201527f4e6f6e6578697374656e7420746f6b656e0000000000000000000000000000006044820152606401610947565b61250e83613fb3565b91509150915091565b6000818152609c602052604090205460609073ffffffffffffffffffffffffffffffffffffffff166125a5576040517f08c379a000000000000000000000000000000000000000000000000000000000815260206004820152601160248201527f4e6f6e6578697374656e7420746f6b656e0000000000000000000000000000006044820152606401610947565b61087282614450565b336125ce60335473ffffffffffffffffffffffffffffffffffffffff1690565b73ffffffffffffffffffffffffffffffffffffffff1614806125f657506125f6606633612af8565b612681576040517f08c379a0000000000000000000000000000000000000000000000000000000008152602060048201526024808201527f41646d696e436f6e74726f6c3a204d757374206265206f776e6572206f72206160448201527f646d696e000000000000000000000000000000000000000000000000000000006064820152608401610947565b61095981614836565b6060612694613410565b61269c613483565b8161ffff1667ffffffffffffffff8111156126b9576126b9615e42565b6040519080825280602002602001820160405280156126e2578160200160208202803683370190505b50905060005b8261ffff1681101561224a5761270d84604051806020016040528060008152506134f4565b82828151811061271f5761271f6162fc565b60209081029190910101526001016126e8565b61273a613483565b610bc2838383613ba3565b3361276560335473ffffffffffffffffffffffffffffffffffffffff1690565b73ffffffffffffffffffffffffffffffffffffffff16148061278d575061278d606633612af8565b612818576040517f08c379a0000000000000000000000000000000000000000000000000000000008152602060048201526024808201527f41646d696e436f6e74726f6c3a204d757374206265206f776e6572206f72206160448201527f646d696e000000000000000000000000000000000000000000000000000000006064820152608401610947565b6111888282614884565b61282a613648565b73ffffffffffffffffffffffffffffffffffffffff81166128cd576040517f08c379a000000000000000000000000000000000000000000000000000000000815260206004820152602660248201527f4f776e61626c653a206e6577206f776e657220697320746865207a65726f206160448201527f64647265737300000000000000000000000000000000000000000000000000006064820152608401610947565b61095981613c6c565b60006128e0613410565b6128e8613483565b611bae8484848080601f0160208091040260200160405190810160405280939291908181526020018383808284376000920191909152506134f492505050565b60007fffffffff0000000000000000000000000000000000000000000000000000000082167f9088c207000000000000000000000000000000000000000000000000000000001480610872575061087282614a53565b60007fffffffff0000000000000000000000000000000000000000000000000000000082167f80ac58cd000000000000000000000000000000000000000000000000000000001480612a1157507fffffffff0000000000000000000000000000000000000000000000000000000082167f5b5e139f00000000000000000000000000000000000000000000000000000000145b8061087257507f01ffc9a7000000000000000000000000000000000000000000000000000000007fffffffff00000000000000000000000000000000000000000000000000000000831614610872565b60007fffffffff0000000000000000000000000000000000000000000000000000000082167f553e757e00000000000000000000000000000000000000000000000000000000148061087257507f01ffc9a7000000000000000000000000000000000000000000000000000000007fffffffff00000000000000000000000000000000000000000000000000000000831614610872565b73ffffffffffffffffffffffffffffffffffffffff811660009081526001830160205260408120541515611535565b73ffffffffffffffffffffffffffffffffffffffff811615801590612b62575073ffffffffffffffffffffffffffffffffffffffff81163014155b612bc8576040517f08c379a000000000000000000000000000000000000000000000000000000000815260206004820152601960248201527f43616e6e6f7420626c61636b6c69737420796f757273656c66000000000000006044820152606401610947565b612bd360ce82612af8565b15612c2857604051339073ffffffffffffffffffffffffffffffffffffffff8316907fd19cf84cf0fec6bec9ddfa29c63adf83a55707c712f32c8285d6180a7890147990600090a3612c2660ce826136c9565b505b612c3360d082612af8565b61095957604051339073ffffffffffffffffffffffffffffffffffffffff8316907f05ac7bc5a606cd92a63365f9fda244499b9add0526b22d99937b6bd88181059c90600090a361118860d082613c4a565b600060cc60008154612c969061635a565b909155505060cc54612ca88382614c2a565b815115612cc957600081815260d860205260409020612cc7838261643d565b505b610872565b6000818152609c602052604090205473ffffffffffffffffffffffffffffffffffffffff16610959576040517f08c379a000000000000000000000000000000000000000000000000000000000815260206004820152601860248201527f4552433732313a20696e76616c696420746f6b656e20494400000000000000006044820152606401610947565b6000818152609e6020526040902080547fffffffffffffffffffffffff00000000000000000000000000000000000000001673ffffffffffffffffffffffffffffffffffffffff84169081179091558190612db3826117b6565b73ffffffffffffffffffffffffffffffffffffffff167f8c5be1e5ebec7d5bd14f71427d1e84f3dd0314c0f7b2291e5b200ac8c7c3b92560405160405180910390a45050565b606061153582613fb3565b600083118015612e16575060cc548311155b8015612e445750600083815260d4602052604090205473ffffffffffffffffffffffffffffffffffffffff16155b612eaa576040517f08c379a000000000000000000000000000000000000000000000000000000000815260206004820152600d60248201527f496e76616c696420746f6b656e000000000000000000000000000000000000006044820152606401610947565b600083815260d86020526040902061143b828483616557565b612ecf84848484614c44565b600085815260da60205260408120612ee691615900565b612f058484848460da60008b8152602001908152602001600020614d53565b847fabb46fe0761d77584bde75697647804ffd8113abd4d8d06bc664150395eccdee85858585604051612f3b9493929190616671565b60405180910390a25050505050565b600081815260d4602052604090205473ffffffffffffffffffffffffffffffffffffffff1680612fd6576040517f08c379a000000000000000000000000000000000000000000000000000000000815260206004820152601660248201527f4e6f20657874656e73696f6e20666f7220746f6b656e000000000000000000006044820152606401610947565b612fe160d082612af8565b1561107a576040517f08c379a000000000000000000000000000000000000000000000000000000000815260206004820152601560248201527f457874656e73696f6e20626c61636b6c697374656400000000000000000000006044820152606401610947565b600080613054836117b6565b90508073ffffffffffffffffffffffffffffffffffffffff168473ffffffffffffffffffffffffffffffffffffffff1614806130c2575073ffffffffffffffffffffffffffffffffffffffff8082166000908152609f602090815260408083209388168352929052205460ff165b8061310057508373ffffffffffffffffffffffffffffffffffffffff166130e884610a07565b73ffffffffffffffffffffffffffffffffffffffff16145b949350505050565b8273ffffffffffffffffffffffffffffffffffffffff16613128826117b6565b73ffffffffffffffffffffffffffffffffffffffff16146131cb576040517f08c379a000000000000000000000000000000000000000000000000000000000815260206004820152602560248201527f4552433732313a207472616e736665722066726f6d20696e636f72726563742060448201527f6f776e65720000000000000000000000000000000000000000000000000000006064820152608401610947565b73ffffffffffffffffffffffffffffffffffffffff821661326d576040517f08c379a0000000000000000000000000000000000000000000000000000000008152602060048201526024808201527f4552433732313a207472616e7366657220746f20746865207a65726f2061646460448201527f72657373000000000000000000000000000000000000000000000000000000006064820152608401610947565b61327a8383836001614e59565b8273ffffffffffffffffffffffffffffffffffffffff1661329a826117b6565b73ffffffffffffffffffffffffffffffffffffffff161461333d576040517f08c379a000000000000000000000000000000000000000000000000000000000815260206004820152602560248201527f4552433732313a207472616e736665722066726f6d20696e636f72726563742060448201527f6f776e65720000000000000000000000000000000000000000000000000000006064820152608401610947565b6000818152609e6020908152604080832080547fffffffffffffffffffffffff000000000000000000000000000000000000000090811690915573ffffffffffffffffffffffffffffffffffffffff878116808652609d855283862080547fffffffffffffffffffffffffffffffffffffffffffffffffffffffffffffffff01905590871680865283862080546001019055868652609c90945282852080549092168417909155905184937fddf252ad1be2c89b69c2b068fc378daa952ba7f163c4a11628f55a4df523b3ef91a4505050565b60026065540361347c576040517f08c379a000000000000000000000000000000000000000000000000000000000815260206004820152601f60248201527f5265656e7472616e637947756172643a207265656e7472616e742063616c6c006044820152606401610947565b6002606555565b61348e60ce33612af8565b611999576040517f08c379a000000000000000000000000000000000000000000000000000000000815260206004820152601c60248201527f4d757374206265207265676973746572656420657874656e73696f6e000000006044820152606401610947565b600060cc600081546135059061635a565b909155505060cc546135178382614f15565b600081815260d46020526040902080547fffffffffffffffffffffffff00000000000000000000000000000000000000001633179055612ca88382614c2a565b60008060008061356686613fb3565b915091506001825111156135d6576040517f08c379a000000000000000000000000000000000000000000000000000000000815260206004820152601c60248201527f4d6f7265207468616e203120726f79616c7479207265636569766572000000006044820152606401610947565b81516000036135ed5730600093509350505061111b565b81600081518110613600576136006162fc565b6020026020010151612710868360008151811061361f5761361f6162fc565b60200260200101516136319190616715565b61363b919061672c565b9350935050509250929050565b60335473ffffffffffffffffffffffffffffffffffffffff163314611999576040517f08c379a000000000000000000000000000000000000000000000000000000000815260206004820181905260248201527f4f776e61626c653a2063616c6c6572206973206e6f7420746865206f776e65726044820152606401610947565b60006115358373ffffffffffffffffffffffffffffffffffffffff8416614fdc565b6000805260d56020527ff5cbbbf491ecca09b3146460212af7a9a122ceb752655fe793fa94eb0eeed0a6611188828261643d565b6000610872825490565b600061153583836150cf565b61374184848484614c44565b73ffffffffffffffffffffffffffffffffffffffff8516600090815260d96020526040812061376f91615900565b6137ba8484848460d960008b73ffffffffffffffffffffffffffffffffffffffff1673ffffffffffffffffffffffffffffffffffffffff168152602001908152602001600020614d53565b73ffffffffffffffffffffffffffffffffffffffff8516613817577f2b6849d5976d799a5b0ca4dfd6b40a3d7afe9ea72c091fa01a958594f9a2659b8484848460405161380a9493929190616671565b60405180910390a1610ea7565b8473ffffffffffffffffffffffffffffffffffffffff167f535a93d2cb000582c0ebeaa9be4890ec6a287f98eb2df00c54c300612fd78d8f85858585604051612f3b9493929190616671565b33600090815260d56020526040902061387d838583616557565b5033600090815260d66020526040902080547fffffffffffffffffffffffffffffffffffffffffffffffffffffffffffffff00169115159190911790555050565b60006138c9826117b6565b90506138d9816000846001614e59565b6138e2826117b6565b6000838152609e6020908152604080832080547fffffffffffffffffffffffff000000000000000000000000000000000000000090811690915573ffffffffffffffffffffffffffffffffffffffff8516808552609d845282852080547fffffffffffffffffffffffffffffffffffffffffffffffffffffffffffffffff019055878552609c909352818420805490911690555192935084927fddf252ad1be2c89b69c2b068fc378daa952ba7f163c4a11628f55a4df523b3ef908390a45050565b600081815260d4602052604090205473ffffffffffffffffffffffffffffffffffffffff1615613abc57600081815260d46020526040902054613a1d9073ffffffffffffffffffffffffffffffffffffffff167f45a1b92c000000000000000000000000000000000000000000000000000000006150f9565b15613abc57600081815260d46020526040908190205490517f45a1b92c00000000000000000000000000000000000000000000000000000000815273ffffffffffffffffffffffffffffffffffffffff848116600483015260248201849052909116906345a1b92c90604401600060405180830381600087803b158015613aa357600080fd5b505af1158015613ab7573d6000803e3d6000fd5b505050505b600081815260d8602052604090208054613ad5906162af565b159050613af357600081815260d860205260408120613af39161591e565b600090815260d46020526040902080547fffffffffffffffffffffffff000000000000000000000000000000000000000016905550565b60cd80547fffffffffffffffffffffffff00000000000000000000000000000000000000001673ffffffffffffffffffffffffffffffffffffffff83169081179091556040519081527f959c0e47a2fe3cf01e237ba4892e2cc3194d77cbfb33e434e40873225d6b595f9060200160405180910390a150565b600083815260d4602052604090205473ffffffffffffffffffffffffffffffffffffffff163314612eaa576040517f08c379a000000000000000000000000000000000000000000000000000000000815260206004820152600d60248201527f496e76616c696420746f6b656e000000000000000000000000000000000000006044820152606401610947565b33600090815260d760205260409020610bc2828483616557565b60006115358373ffffffffffffffffffffffffffffffffffffffff8416615115565b6033805473ffffffffffffffffffffffffffffffffffffffff8381167fffffffffffffffffffffffff0000000000000000000000000000000000000000831681179093556040519116919082907f8be0079c531659141344cd1fd0a4f28419497f9722a3daafe3b4186f6b6457e090600090a35050565b6000805260d76020527f8c93e91f2d3cdfe48d7e628f6e539bf3196799b8a9f7303c20a1106ca52f335a610bc2828483616557565b8173ffffffffffffffffffffffffffffffffffffffff168373ffffffffffffffffffffffffffffffffffffffff1603613dad576040517f08c379a000000000000000000000000000000000000000000000000000000000815260206004820152601960248201527f4552433732313a20617070726f766520746f2063616c6c6572000000000000006044820152606401610947565b73ffffffffffffffffffffffffffffffffffffffff8381166000818152609f602090815260408083209487168084529482529182902080547fffffffffffffffffffffffffffffffffffffffffffffffffffffffffffffff001686151590811790915591519182527f17307eab39ab6107e8899845ad3d59bd9653f200f220920489ca2b5937696c31910160405180910390a3505050565b613e6f827f45ffcdad000000000000000000000000000000000000000000000000000000006150f9565b156111885773ffffffffffffffffffffffffffffffffffffffff8216600081815260d3602090815260409182902080547fffffffffffffffffffffffffffffffffffffffffffffffffffffffffffffff001685151590811790915591519182527f072a7592283e2c2d1d56d21517ff6013325e0f55483f4828373ff4d98b0a1a36910160405180910390a25050565b613f09848484613108565b613f1584848484615164565b61143b576040517f08c379a000000000000000000000000000000000000000000000000000000000815260206004820152603260248201527f4552433732313a207472616e7366657220746f206e6f6e20455243373231526560448201527f63656976657220696d706c656d656e74657200000000000000000000000000006064820152608401610947565b6060613fac82613fb3565b5092915050565b606080600060da6000858152602001908152602001600020805480602002602001604051908101604052809291908181526020016000905b82821015614053576000848152602090819020604080518082019091529084015473ffffffffffffffffffffffffffffffffffffffff8116825274010000000000000000000000000000000000000000900461ffff1681830152825260019092019101613feb565b505050509050805160000361423757600084815260d4602052604090205473ffffffffffffffffffffffffffffffffffffffff168015614235576140b7817f9ca7dc7a000000000000000000000000000000000000000000000000000000006150f9565b15614186576040517f9ca7dc7a0000000000000000000000000000000000000000000000000000000081523060048201526024810186905273ffffffffffffffffffffffffffffffffffffffff821690639ca7dc7a90604401600060405180830381865afa15801561412d573d6000803e3d6000fd5b505050506040513d6000823e601f3d9081017fffffffffffffffffffffffffffffffffffffffffffffffffffffffffffffffe016820160405261417391908101906167cd565b8151919550935015614186575050915091565b73ffffffffffffffffffffffffffffffffffffffff8116600090815260d96020908152604080832080548251818502810185019093528083529193909284015b8282101561422e576000848152602090819020604080518082019091529084015473ffffffffffffffffffffffffffffffffffffffff8116825274010000000000000000000000000000000000000000900461ffff16818301528252600190920191016141c6565b5050505091505b505b80516000036142f857600080805260d960209081527f665fecb6766038646257fb3193371280b91d4ee69f1071872c4c7b974431a4888054604080518285028101850190915281815293919290919084015b828210156142f1576000848152602090819020604080518082019091529084015473ffffffffffffffffffffffffffffffffffffffff8116825274010000000000000000000000000000000000000000900461ffff1681830152825260019092019101614289565b5050505090505b80511561444a57805167ffffffffffffffff81111561431957614319615e42565b604051908082528060200260200182016040528015614342578160200160208202803683370190505b509250805167ffffffffffffffff81111561435f5761435f615e42565b604051908082528060200260200182016040528015614388578160200160208202803683370190505b50915060005b8151811015614448578181815181106143a9576143a96162fc565b6020026020010151600001518482815181106143c7576143c76162fc565b602002602001019073ffffffffffffffffffffffffffffffffffffffff16908173ffffffffffffffffffffffffffffffffffffffff1681525050818181518110614413576144136162fc565b60200260200101516020015161ffff16838281518110614435576144356162fc565b602090810291909101015260010161438e565b505b50915091565b6060600082118015614464575060cc548211155b6144ca576040517f08c379a000000000000000000000000000000000000000000000000000000000815260206004820152600d60248201527f496e76616c696420746f6b656e000000000000000000000000000000000000006044820152606401610947565b600082815260d4602052604090205473ffffffffffffffffffffffffffffffffffffffff166144fa60d082612af8565b15614561576040517f08c379a000000000000000000000000000000000000000000000000000000000815260206004820152601560248201527f457874656e73696f6e20626c61636b6c697374656400000000000000000000006044820152606401610947565b600083815260d860205260409020805461457a906162af565b1590506146ae5773ffffffffffffffffffffffffffffffffffffffff8116600090815260d76020526040902080546145b1906162af565b15905061460f5773ffffffffffffffffffffffffffffffffffffffff8116600090815260d76020908152604080832086845260d883529281902090516145f8939201616923565b604051602081830303815290604052915050919050565b600083815260d8602052604090208054614628906162af565b80601f0160208091040260200160405190810160405280929190818152602001828054614654906162af565b80156146a15780601f10614676576101008083540402835291602001916146a1565b820191906000526020600020905b81548152906001019060200180831161468457829003601f168201915b5050505050915050919050565b6146d8817fe9dc6375000000000000000000000000000000000000000000000000000000006150f9565b15614794576040517fe9dc63750000000000000000000000000000000000000000000000000000000081523060048201526024810184905273ffffffffffffffffffffffffffffffffffffffff82169063e9dc637590604401600060405180830381865afa15801561474e573d6000803e3d6000fd5b505050506040513d6000823e601f3d9081017fffffffffffffffffffffffffffffffffffffffffffffffffffffffffffffffe01682016040526115359190810190616938565b73ffffffffffffffffffffffffffffffffffffffff8116600090815260d6602052604090205460ff166148005773ffffffffffffffffffffffffffffffffffffffff8116600090815260d5602052604090206147ef84615357565b6040516020016145f89291906169a6565b73ffffffffffffffffffffffffffffffffffffffff8116600090815260d5602052604090208054614628906162af565b50919050565b604051339073ffffffffffffffffffffffffffffffffffffffff8316907fd19cf84cf0fec6bec9ddfa29c63adf83a55707c712f32c8285d6180a7890147990600090a361118860ce826136c9565b61488f60ce83612af8565b6148f5576040517f08c379a000000000000000000000000000000000000000000000000000000000815260206004820152601e60248201527f43726561746f72436f72653a20496e76616c696420657874656e73696f6e00006044820152606401610947565b73ffffffffffffffffffffffffffffffffffffffff8116158061493d575061493d817ff029c2d8000000000000000000000000000000000000000000000000000000006150f9565b6149a3576040517f08c379a000000000000000000000000000000000000000000000000000000000815260206004820152600f60248201527f496e76616c6964206164647265737300000000000000000000000000000000006044820152606401610947565b73ffffffffffffffffffffffffffffffffffffffff828116600090815260d260205260409020548116908216146111885773ffffffffffffffffffffffffffffffffffffffff828116600081815260d2602052604080822080547fffffffffffffffffffffffff000000000000000000000000000000000000000016948616948517905551339392917f6a835c4fcf7e0d398db3762332fdaa1471814ad39f1e2d6d0b3fdabf8efee3e091a45050565b60007fffffffff0000000000000000000000000000000000000000000000000000000082167f5c1b7153000000000000000000000000000000000000000000000000000000001480614ae657507fffffffff0000000000000000000000000000000000000000000000000000000082167f28f10a2100000000000000000000000000000000000000000000000000000000145b80614af55750614af58261297e565b80614b4157507fffffffff0000000000000000000000000000000000000000000000000000000082167fbb3bafd600000000000000000000000000000000000000000000000000000000145b80614b8d57507fffffffff0000000000000000000000000000000000000000000000000000000082167fb779958400000000000000000000000000000000000000000000000000000000145b80614bd957507fffffffff0000000000000000000000000000000000000000000000000000000082167fd5a06d4c00000000000000000000000000000000000000000000000000000000145b8061087257507fffffffff0000000000000000000000000000000000000000000000000000000082167f2a55205a000000000000000000000000000000000000000000000000000000001492915050565b611188828260405180602001604052806000815250615415565b828114614cad576040517f08c379a000000000000000000000000000000000000000000000000000000000815260206004820152600d60248201527f496e76616c696420696e707574000000000000000000000000000000000000006044820152606401610947565b6000805b82811015614ce757838382818110614ccb57614ccb6162fc565b9050602002013582614cdd91906169cb565b9150600101614cb1565b506127108110610ea7576040517f08c379a000000000000000000000000000000000000000000000000000000000815260206004820152601760248201527f496e76616c696420746f74616c20726f79616c746965730000000000000000006044820152606401610947565b60005b82811015614e5157816040518060400160405280888885818110614d7c57614d7c6162fc565b9050602002016020810190614d919190615a11565b73ffffffffffffffffffffffffffffffffffffffff168152602001868685818110614dbe57614dbe6162fc565b61ffff60209182029390930135831690935250835460018181018655600095865294839020845191018054949093015190911674010000000000000000000000000000000000000000027fffffffffffffffffffff0000000000000000000000000000000000000000000090931673ffffffffffffffffffffffffffffffffffffffff9091161791909117905501614d56565b505050505050565b600181111561143b5773ffffffffffffffffffffffffffffffffffffffff841615614eb95773ffffffffffffffffffffffffffffffffffffffff84166000908152609d602052604081208054839290614eb39084906169de565b90915550505b73ffffffffffffffffffffffffffffffffffffffff83161561143b5773ffffffffffffffffffffffffffffffffffffffff83166000908152609d602052604081208054839290614f0a9084906169cb565b909155505050505050565b33600090815260d2602052604090205473ffffffffffffffffffffffffffffffffffffffff16156111885733600081815260d26020526040908190205490517ff029c2d8000000000000000000000000000000000000000000000000000000008152600481019290925273ffffffffffffffffffffffffffffffffffffffff848116602484015260448301849052169063f029c2d890606401600060405180830381600087803b158015614fc857600080fd5b505af1158015614e51573d6000803e3d6000fd5b600081815260018301602052604081205480156150c55760006150006001836169de565b8554909150600090615014906001906169de565b9050818114615079576000866000018281548110615034576150346162fc565b9060005260206000200154905080876000018481548110615057576150576162fc565b6000918252602080832090910192909255918252600188019052604090208390555b855486908061508a5761508a6169f1565b600190038181906000526020600020016000905590558560010160008681526020019081526020016000206000905560019350505050610872565b6000915050610872565b60008260000182815481106150e6576150e66162fc565b9060005260206000200154905092915050565b6000615104836154b8565b80156115355750611535838361551c565b600081815260018301602052604081205461515c57508154600181810184556000848152602080822090930184905584548482528286019093526040902091909155610872565b506000610872565b600073ffffffffffffffffffffffffffffffffffffffff84163b1561534c576040517f150b7a0200000000000000000000000000000000000000000000000000000000815273ffffffffffffffffffffffffffffffffffffffff85169063150b7a02906151db903390899088908890600401616a20565b6020604051808303816000875af1925050508015615234575060408051601f3d9081017fffffffffffffffffffffffffffffffffffffffffffffffffffffffffffffffe016820190925261523191810190616a69565b60015b615301573d808015615262576040519150601f19603f3d011682016040523d82523d6000602084013e615267565b606091505b5080516000036152f9576040517f08c379a000000000000000000000000000000000000000000000000000000000815260206004820152603260248201527f4552433732313a207472616e7366657220746f206e6f6e20455243373231526560448201527f63656976657220696d706c656d656e74657200000000000000000000000000006064820152608401610947565b805181602001fd5b7fffffffff00000000000000000000000000000000000000000000000000000000167f150b7a0200000000000000000000000000000000000000000000000000000000149050613100565b506001949350505050565b60606000615364836155eb565b600101905060008167ffffffffffffffff81111561538457615384615e42565b6040519080825280601f01601f1916602001820160405280156153ae576020820181803683370190505b5090508181016020015b7fffffffffffffffffffffffffffffffffffffffffffffffffffffffffffffffff017f3031323334353637383961626364656600000000000000000000000000000000600a86061a8153600a85049450846153b857509392505050565b61541f83836156cd565b61542c6000848484615164565b610bc2576040517f08c379a000000000000000000000000000000000000000000000000000000000815260206004820152603260248201527f4552433732313a207472616e7366657220746f206e6f6e20455243373231526560448201527f63656976657220696d706c656d656e74657200000000000000000000000000006064820152608401610947565b60006154e4827f01ffc9a70000000000000000000000000000000000000000000000000000000061551c565b80156108725750615515827fffffffff0000000000000000000000000000000000000000000000000000000061551c565b1592915050565b604080517fffffffff000000000000000000000000000000000000000000000000000000008316602480830191909152825180830390910181526044909101909152602080820180517bffffffffffffffffffffffffffffffffffffffffffffffffffffffff167f01ffc9a700000000000000000000000000000000000000000000000000000000178152825160009392849283928392918391908a617530fa92503d915060005190508280156155d4575060208210155b80156155e05750600081115b979650505050505050565b6000807a184f03e93ff9f4daa797ed6e38ed64bf6a1f0100000000000000008310615634577a184f03e93ff9f4daa797ed6e38ed64bf6a1f010000000000000000830492506040015b6d04ee2d6d415b85acef81000000008310615660576d04ee2d6d415b85acef8100000000830492506020015b662386f26fc10000831061567e57662386f26fc10000830492506010015b6305f5e1008310615696576305f5e100830492506008015b61271083106156aa57612710830492506004015b606483106156bc576064830492506002015b600a83106108725760010192915050565b73ffffffffffffffffffffffffffffffffffffffff821661574a576040517f08c379a000000000000000000000000000000000000000000000000000000000815260206004820181905260248201527f4552433732313a206d696e7420746f20746865207a65726f20616464726573736044820152606401610947565b6000818152609c602052604090205473ffffffffffffffffffffffffffffffffffffffff16156157d6576040517f08c379a000000000000000000000000000000000000000000000000000000000815260206004820152601c60248201527f4552433732313a20746f6b656e20616c7265616479206d696e746564000000006044820152606401610947565b6157e4600083836001614e59565b6000818152609c602052604090205473ffffffffffffffffffffffffffffffffffffffff1615615870576040517f08c379a000000000000000000000000000000000000000000000000000000000815260206004820152601c60248201527f4552433732313a20746f6b656e20616c7265616479206d696e746564000000006044820152606401610947565b73ffffffffffffffffffffffffffffffffffffffff82166000818152609d6020908152604080832080546001019055848352609c90915280822080547fffffffffffffffffffffffff0000000000000000000000000000000000000000168417905551839291907fddf252ad1be2c89b69c2b068fc378daa952ba7f163c4a11628f55a4df523b3ef908290a45050565b50805460008255906000526020600020908101906109599190615958565b50805461592a906162af565b6000825580601f1061593a575050565b601f016020900490600052602060002090810190610959919061598f565b5b808211156113565780547fffffffffffffffffffff00000000000000000000000000000000000000000000168155600101615959565b5b808211156113565760008155600101615990565b7fffffffff000000000000000000000000000000000000000000000000000000008116811461095957600080fd5b6000602082840312156159e457600080fd5b8135611535816159a4565b73ffffffffffffffffffffffffffffffffffffffff8116811461095957600080fd5b600060208284031215615a2357600080fd5b8135611535816159ef565b60005b83811015615a49578181015183820152602001615a31565b50506000910152565b60008151808452615a6a816020860160208601615a2e565b601f017fffffffffffffffffffffffffffffffffffffffffffffffffffffffffffffffe0169290920160200192915050565b6020815260006115356020830184615a52565b600060208284031215615ac157600080fd5b5035919050565b60008060408385031215615adb57600080fd5b8235615ae6816159ef565b946020939093013593505050565b600081518084526020808501945080840160005b83811015615b2457815187529582019590820190600101615b08565b509495945050505050565b6020815260006115356020830184615af4565b60008083601f840112615b5457600080fd5b50813567ffffffffffffffff811115615b6c57600080fd5b60208301915083602082850101111561111b57600080fd5b600080600060408486031215615b9957600080fd5b83359250602084013567ffffffffffffffff811115615bb757600080fd5b615bc386828701615b42565b9497909650939450505050565b60008083601f840112615be257600080fd5b50813567ffffffffffffffff811115615bfa57600080fd5b6020830191508360208260051b850101111561111b57600080fd5b600080600080600060608688031215615c2d57600080fd5b85359450602086013567ffffffffffffffff80821115615c4c57600080fd5b615c5889838a01615bd0565b90965094506040880135915080821115615c7157600080fd5b50615c7e88828901615bd0565b969995985093965092949392505050565b600080600060608486031215615ca457600080fd5b8335615caf816159ef565b92506020840135615cbf816159ef565b929592945050506040919091013590565b60008060408385031215615ce357600080fd5b50508035926020909101359150565b60008060208385031215615d0557600080fd5b823567ffffffffffffffff811115615d1c57600080fd5b615d2885828601615b42565b90969095509350505050565b6020808252825182820181905260009190848201906040850190845b81811015615d8257835173ffffffffffffffffffffffffffffffffffffffff1683529284019291840191600101615d50565b50909695505050505050565b60008060008060408587031215615da457600080fd5b843567ffffffffffffffff80821115615dbc57600080fd5b615dc888838901615bd0565b90965094506020870135915080821115615de157600080fd5b50615dee87828801615bd0565b95989497509550505050565b600080600060408486031215615e0f57600080fd5b8335615e1a816159ef565b9250602084013567ffffffffffffffff811115615e3657600080fd5b615bc386828701615bd0565b7f4e487b7100000000000000000000000000000000000000000000000000000000600052604160045260246000fd5b604051601f82017fffffffffffffffffffffffffffffffffffffffffffffffffffffffffffffffe016810167ffffffffffffffff81118282101715615eb857615eb8615e42565b604052919050565b600067ffffffffffffffff821115615eda57615eda615e42565b5060051b60200190565b600080600060408486031215615ef957600080fd5b833567ffffffffffffffff80821115615f1157600080fd5b818601915086601f830112615f2557600080fd5b81356020615f3a615f3583615ec0565b615e71565b82815260059290921b8401810191818101908a841115615f5957600080fd5b948201945b83861015615f7757853582529482019490820190615f5e565b97505087013592505080821115615f8d57600080fd5b50615bc386828701615bd0565b600080600060408486031215615faf57600080fd5b8335615fba816159ef565b9250602084013567ffffffffffffffff811115615bb757600080fd5b8035801515811461107a57600080fd5b600080600060408486031215615ffb57600080fd5b833567ffffffffffffffff81111561601257600080fd5b61601e86828701615b42565b9094509250616031905060208501615fd6565b90509250925092565b6000806040838503121561604d57600080fd5b8235616058816159ef565b915061606660208401615fd6565b90509250929050565b60006020828403121561608157600080fd5b61153582615fd6565b6000806040838503121561609d57600080fd5b82356160a8816159ef565b9150602083013561ffff811681146160bf57600080fd5b809150509250929050565b6000806000806000606086880312156160e257600080fd5b85356160ed816159ef565b9450602086013567ffffffffffffffff80821115615c4c57600080fd5b600067ffffffffffffffff82111561612457616124615e42565b50601f017fffffffffffffffffffffffffffffffffffffffffffffffffffffffffffffffe01660200190565b6000806000806080858703121561616657600080fd5b8435616171816159ef565b93506020850135616181816159ef565b925060408501359150606085013567ffffffffffffffff8111156161a457600080fd5b8501601f810187136161b557600080fd5b80356161c3615f358261610a565b8181528860208385010111156161d857600080fd5b8160208401602083013760006020838301015280935050505092959194509250565b600081518084526020808501945080840160005b83811015615b2457815173ffffffffffffffffffffffffffffffffffffffff168752958201959082019060010161620e565b60208152600061153560208301846161fa565b60408152600061626660408301856161fa565b82810360208401526162788185615af4565b95945050505050565b6000806040838503121561629457600080fd5b823561629f816159ef565b915060208301356160bf816159ef565b600181811c908216806162c357607f821691505b602082108103614830577f4e487b7100000000000000000000000000000000000000000000000000000000600052602260045260246000fd5b7f4e487b7100000000000000000000000000000000000000000000000000000000600052603260045260246000fd5b7f4e487b7100000000000000000000000000000000000000000000000000000000600052601160045260246000fd5b60007fffffffffffffffffffffffffffffffffffffffffffffffffffffffffffffffff820361638b5761638b61632b565b5060010190565b60008083357fffffffffffffffffffffffffffffffffffffffffffffffffffffffffffffffe18436030181126163c757600080fd5b83018035915067ffffffffffffffff8211156163e257600080fd5b60200191503681900382131561111b57600080fd5b601f821115610bc257600081815260208120601f850160051c8101602086101561641e5750805b601f850160051c820191505b81811015614e515782815560010161642a565b815167ffffffffffffffff81111561645757616457615e42565b61646b8161646584546162af565b846163f7565b602080601f8311600181146164be57600084156164885750858301515b7fffffffffffffffffffffffffffffffffffffffffffffffffffffffffffffffff600386901b1c1916600185901b178555614e51565b6000858152602081207fffffffffffffffffffffffffffffffffffffffffffffffffffffffffffffffe08616915b8281101561650b578886015182559484019460019091019084016164ec565b508582101561654757878501517fffffffffffffffffffffffffffffffffffffffffffffffffffffffffffffffff600388901b60f8161c191681555b5050505050600190811b01905550565b67ffffffffffffffff83111561656f5761656f615e42565b6165838361657d83546162af565b836163f7565b6000601f8411600181146165d5576000851561659f5750838201355b7fffffffffffffffffffffffffffffffffffffffffffffffffffffffffffffffff600387901b1c1916600186901b178355610ea7565b6000838152602090207fffffffffffffffffffffffffffffffffffffffffffffffffffffffffffffffe0861690835b828110156166245786850135825560209485019460019092019101616604565b508682101561665f577fffffffffffffffffffffffffffffffffffffffffffffffffffffffffffffffff60f88860031b161c19848701351681555b505060018560011b0183555050505050565b6040808252810184905260008560608301825b878110156166c1578235616697816159ef565b73ffffffffffffffffffffffffffffffffffffffff16825260209283019290910190600101616684565b5083810360208501528481527f07ffffffffffffffffffffffffffffffffffffffffffffffffffffffffffffff8511156166fa57600080fd5b8460051b915081866020830137016020019695505050505050565b80820281158282048414176108725761087261632b565b600082616762577f4e487b7100000000000000000000000000000000000000000000000000000000600052601260045260246000fd5b500490565b600082601f83011261677857600080fd5b81516020616788615f3583615ec0565b82815260059290921b840181019181810190868411156167a757600080fd5b8286015b848110156167c257805183529183019183016167ab565b509695505050505050565b600080604083850312156167e057600080fd5b825167ffffffffffffffff808211156167f857600080fd5b818501915085601f83011261680c57600080fd5b8151602061681c615f3583615ec0565b82815260059290921b8401810191818101908984111561683b57600080fd5b948201945b83861015616862578551616853816159ef565b82529482019490820190616840565b9188015191965090935050508082111561687b57600080fd5b5061688885828601616767565b9150509250929050565b6000815461689f816162af565b600182811680156168b757600181146168ea57616919565b7fffffffffffffffffffffffffffffffffffffffffffffffffffffffffffffff0084168752821515830287019450616919565b8560005260208060002060005b858110156169105781548a8201529084019082016168f7565b50505082870194505b5050505092915050565b60006131006169328386616892565b84616892565b60006020828403121561694a57600080fd5b815167ffffffffffffffff81111561696157600080fd5b8201601f8101841361697257600080fd5b8051616980615f358261610a565b81815285602083850101111561699557600080fd5b616278826020830160208601615a2e565b60006169b28285616892565b83516169c2818360208801615a2e565b01949350505050565b808201808211156108725761087261632b565b818103818111156108725761087261632b565b7f4e487b7100000000000000000000000000000000000000000000000000000000600052603160045260246000fd5b600073ffffffffffffffffffffffffffffffffffffffff808716835280861660208401525083604083015260806060830152616a5f6080830184615a52565b9695505050505050565b600060208284031215616a7b57600080fd5b8151611535816159a456fea2646970667358221220c89c02e8f530a1486ec16028ee988ac61c810c6020706031f116b27b34eb0ac164736f6c63430008110033",
			"opcodes": "PUSH1 0x80 PUSH1 0x40 MSTORE PUSH1 0x0 PUSH1 0xCC SSTORE CALLVALUE DUP1 ISZERO PUSH2 0x15 JUMPI PUSH1 0x0 DUP1 REVERT JUMPDEST POP PUSH1 0x1 PUSH1 0x65 SSTORE PUSH2 0x6ABC DUP1 PUSH3 0x2B PUSH1 0x0 CODECOPY PUSH1 0x0 RETURN INVALID PUSH1 0x80 PUSH1 0x40 MSTORE CALLVALUE DUP1 ISZERO PUSH2 0x10 JUMPI PUSH1 0x0 DUP1 REVERT JUMPDEST POP PUSH1 0x4 CALLDATASIZE LT PUSH2 0x378 JUMPI PUSH1 0x0 CALLDATALOAD PUSH1 0xE0 SHR DUP1 PUSH4 0x70A08231 GT PUSH2 0x1D3 JUMPI DUP1 PUSH4 0xB0FE87C9 GT PUSH2 0x104 JUMPI DUP1 PUSH4 0xE00AAB4B GT PUSH2 0xA2 JUMPI DUP1 PUSH4 0xF0CDC499 GT PUSH2 0x7C JUMPI DUP1 PUSH4 0xF0CDC499 EQ PUSH2 0x808 JUMPI DUP1 PUSH4 0xF2FDE38B EQ PUSH2 0x81B JUMPI DUP1 PUSH4 0xFE2E1F58 EQ PUSH2 0x82E JUMPI DUP1 PUSH4 0xFFA1AD74 EQ PUSH2 0x841 JUMPI PUSH1 0x0 DUP1 REVERT JUMPDEST DUP1 PUSH4 0xE00AAB4B EQ PUSH2 0x799 JUMPI DUP1 PUSH4 0xE92A89F6 EQ PUSH2 0x7AC JUMPI DUP1 PUSH4 0xE985E9C5 EQ PUSH2 0x7BF JUMPI PUSH1 0x0 DUP1 REVERT JUMPDEST DUP1 PUSH4 0xBB3BAFD6 GT PUSH2 0xDE JUMPI DUP1 PUSH4 0xBB3BAFD6 EQ PUSH2 0x752 JUMPI DUP1 PUSH4 0xC87B56DD EQ PUSH2 0x773 JUMPI DUP1 PUSH4 0xCE8AEE9D EQ PUSH2 0x786 JUMPI DUP1 PUSH4 0xD5A06D4C EQ PUSH2 0x752 JUMPI PUSH1 0x0 DUP1 REVERT JUMPDEST DUP1 PUSH4 0xB0FE87C9 EQ PUSH2 0x70C JUMPI DUP1 PUSH4 0xB88D4FDE EQ PUSH2 0x71F JUMPI DUP1 PUSH4 0xB9C4D9FB EQ PUSH2 0x732 JUMPI PUSH1 0x0 DUP1 REVERT JUMPDEST DUP1 PUSH4 0x8DA5CB5B GT PUSH2 0x171 JUMPI DUP1 PUSH4 0xA22CB465 GT PUSH2 0x14B JUMPI DUP1 PUSH4 0xA22CB465 EQ PUSH2 0x6C0 JUMPI DUP1 PUSH4 0xAAFB2D44 EQ PUSH2 0x6D3 JUMPI DUP1 PUSH4 0xAC0C8CFA EQ PUSH2 0x6E6 JUMPI DUP1 PUSH4 0xAD2D0DDD EQ PUSH2 0x6F9 JUMPI PUSH1 0x0 DUP1 REVERT JUMPDEST DUP1 PUSH4 0x8DA5CB5B EQ PUSH2 0x687 JUMPI DUP1 PUSH4 0x95D89B41 EQ PUSH2 0x6A5 JUMPI DUP1 PUSH4 0x99E0DD7C EQ PUSH2 0x6AD JUMPI PUSH1 0x0 DUP1 REVERT JUMPDEST DUP1 PUSH4 0x7884AF44 GT PUSH2 0x1AD JUMPI DUP1 PUSH4 0x7884AF44 EQ PUSH2 0x646 JUMPI DUP1 PUSH4 0x7AA15F16 EQ PUSH2 0x659 JUMPI DUP1 PUSH4 0x82DCC0C8 EQ PUSH2 0x66C JUMPI DUP1 PUSH4 0x83B7DB63 EQ PUSH2 0x67F JUMPI PUSH1 0x0 DUP1 REVERT JUMPDEST DUP1 PUSH4 0x70A08231 EQ PUSH2 0x618 JUMPI DUP1 PUSH4 0x715018A6 EQ PUSH2 0x62B JUMPI DUP1 PUSH4 0x72FF03D3 EQ PUSH2 0x633 JUMPI PUSH1 0x0 DUP1 REVERT JUMPDEST DUP1 PUSH4 0x2A55205A GT PUSH2 0x2AD JUMPI DUP1 PUSH4 0x42842E0E GT PUSH2 0x24B JUMPI DUP1 PUSH4 0x61E5BC6B GT PUSH2 0x225 JUMPI DUP1 PUSH4 0x61E5BC6B EQ PUSH2 0x5CC JUMPI DUP1 PUSH4 0x6352211E EQ PUSH2 0x5DF JUMPI DUP1 PUSH4 0x66D1E9D0 EQ PUSH2 0x5F2 JUMPI DUP1 PUSH4 0x6D73E669 EQ PUSH2 0x605 JUMPI PUSH1 0x0 DUP1 REVERT JUMPDEST DUP1 PUSH4 0x42842E0E EQ PUSH2 0x593 JUMPI DUP1 PUSH4 0x42966C68 EQ PUSH2 0x5A6 JUMPI DUP1 PUSH4 0x596798AD EQ PUSH2 0x5B9 JUMPI PUSH1 0x0 DUP1 REVERT JUMPDEST DUP1 PUSH4 0x31AE450B GT PUSH2 0x287 JUMPI DUP1 PUSH4 0x31AE450B EQ PUSH2 0x545 JUMPI DUP1 PUSH4 0x332DD1AE EQ PUSH2 0x55A JUMPI DUP1 PUSH4 0x38E52E78 EQ PUSH2 0x56D JUMPI DUP1 PUSH4 0x3E6134B8 EQ PUSH2 0x580 JUMPI PUSH1 0x0 DUP1 REVERT JUMPDEST DUP1 PUSH4 0x2A55205A EQ PUSH2 0x4E0 JUMPI DUP1 PUSH4 0x2D345670 EQ PUSH2 0x51F JUMPI DUP1 PUSH4 0x30176E13 EQ PUSH2 0x532 JUMPI PUSH1 0x0 DUP1 REVERT JUMPDEST DUP1 PUSH4 0x162094C4 GT PUSH2 0x31A JUMPI DUP1 PUSH4 0x239BE317 GT PUSH2 0x2F4 JUMPI DUP1 PUSH4 0x239BE317 EQ PUSH2 0x486 JUMPI DUP1 PUSH4 0x23B872DD EQ PUSH2 0x499 JUMPI DUP1 PUSH4 0x24D7806C EQ PUSH2 0x4AC JUMPI DUP1 PUSH4 0x2928CA58 EQ PUSH2 0x4BF JUMPI PUSH1 0x0 DUP1 REVERT JUMPDEST DUP1 PUSH4 0x162094C4 EQ PUSH2 0x442 JUMPI DUP1 PUSH4 0x20E4AFE2 EQ PUSH2 0x455 JUMPI DUP1 PUSH4 0x22F374D0 EQ PUSH2 0x468 JUMPI PUSH1 0x0 DUP1 REVERT JUMPDEST DUP1 PUSH4 0x6FDDE03 GT PUSH2 0x356 JUMPI DUP1 PUSH4 0x6FDDE03 EQ PUSH2 0x3C2 JUMPI DUP1 PUSH4 0x81812FC EQ PUSH2 0x3D7 JUMPI DUP1 PUSH4 0x95EA7B3 EQ PUSH2 0x40F JUMPI DUP1 PUSH4 0xEBD4C7F EQ PUSH2 0x422 JUMPI PUSH1 0x0 DUP1 REVERT JUMPDEST DUP1 PUSH4 0x1FFC9A7 EQ PUSH2 0x37D JUMPI DUP1 PUSH4 0x2E7AFB7 EQ PUSH2 0x3A5 JUMPI DUP1 PUSH4 0x500DF04 EQ PUSH2 0x3BA JUMPI JUMPDEST PUSH1 0x0 DUP1 REVERT JUMPDEST PUSH2 0x390 PUSH2 0x38B CALLDATASIZE PUSH1 0x4 PUSH2 0x59D2 JUMP JUMPDEST PUSH2 0x849 JUMP JUMPDEST PUSH1 0x40 MLOAD SWAP1 ISZERO ISZERO DUP2 MSTORE PUSH1 0x20 ADD JUMPDEST PUSH1 0x40 MLOAD DUP1 SWAP2 SUB SWAP1 RETURN JUMPDEST PUSH2 0x3B8 PUSH2 0x3B3 CALLDATASIZE PUSH1 0x4 PUSH2 0x5A11 JUMP JUMPDEST PUSH2 0x878 JUMP JUMPDEST STOP JUMPDEST PUSH2 0x3B8 PUSH2 0x95C JUMP JUMPDEST PUSH2 0x3CA PUSH2 0x975 JUMP JUMPDEST PUSH1 0x40 MLOAD PUSH2 0x39C SWAP2 SWAP1 PUSH2 0x5A9C JUMP JUMPDEST PUSH2 0x3EA PUSH2 0x3E5 CALLDATASIZE PUSH1 0x4 PUSH2 0x5AAF JUMP JUMPDEST PUSH2 0xA07 JUMP JUMPDEST PUSH1 0x40 MLOAD PUSH20 0xFFFFFFFFFFFFFFFFFFFFFFFFFFFFFFFFFFFFFFFF SWAP1 SWAP2 AND DUP2 MSTORE PUSH1 0x20 ADD PUSH2 0x39C JUMP JUMPDEST PUSH2 0x3B8 PUSH2 0x41D CALLDATASIZE PUSH1 0x4 PUSH2 0x5AC8 JUMP JUMPDEST PUSH2 0xA3B JUMP JUMPDEST PUSH2 0x435 PUSH2 0x430 CALLDATASIZE PUSH1 0x4 PUSH2 0x5AAF JUMP JUMPDEST PUSH2 0xBC7 JUMP JUMPDEST PUSH1 0x40 MLOAD PUSH2 0x39C SWAP2 SWAP1 PUSH2 0x5B2F JUMP JUMPDEST PUSH2 0x3B8 PUSH2 0x450 CALLDATASIZE PUSH1 0x4 PUSH2 0x5B84 JUMP JUMPDEST PUSH2 0xC5E JUMP JUMPDEST PUSH2 0x3B8 PUSH2 0x463 CALLDATASIZE PUSH1 0x4 PUSH2 0x5C15 JUMP JUMPDEST PUSH2 0xD3C JUMP JUMPDEST PUSH1 0xCD SLOAD PUSH20 0xFFFFFFFFFFFFFFFFFFFFFFFFFFFFFFFFFFFFFFFF AND PUSH2 0x3EA JUMP JUMPDEST PUSH2 0x3EA PUSH2 0x494 CALLDATASIZE PUSH1 0x4 PUSH2 0x5AAF JUMP JUMPDEST PUSH2 0xEAE JUMP JUMPDEST PUSH2 0x3B8 PUSH2 0x4A7 CALLDATASIZE PUSH1 0x4 PUSH2 0x5C8F JUMP JUMPDEST PUSH2 0xF42 JUMP JUMPDEST PUSH2 0x390 PUSH2 0x4BA CALLDATASIZE PUSH1 0x4 PUSH2 0x5A11 JUMP JUMPDEST PUSH2 0xFE3 JUMP JUMPDEST PUSH2 0x4D2 PUSH2 0x4CD CALLDATASIZE PUSH1 0x4 PUSH2 0x5A11 JUMP JUMPDEST PUSH2 0x1043 JUMP JUMPDEST PUSH1 0x40 MLOAD SWAP1 DUP2 MSTORE PUSH1 0x20 ADD PUSH2 0x39C JUMP JUMPDEST PUSH2 0x4F3 PUSH2 0x4EE CALLDATASIZE PUSH1 0x4 PUSH2 0x5CD0 JUMP JUMPDEST PUSH2 0x107F JUMP JUMPDEST PUSH1 0x40 DUP1 MLOAD PUSH20 0xFFFFFFFFFFFFFFFFFFFFFFFFFFFFFFFFFFFFFFFF SWAP1 SWAP4 AND DUP4 MSTORE PUSH1 0x20 DUP4 ADD SWAP2 SWAP1 SWAP2 MSTORE ADD PUSH2 0x39C JUMP JUMPDEST PUSH2 0x3B8 PUSH2 0x52D CALLDATASIZE PUSH1 0x4 PUSH2 0x5A11 JUMP JUMPDEST PUSH2 0x1122 JUMP JUMPDEST PUSH2 0x3B8 PUSH2 0x540 CALLDATASIZE PUSH1 0x4 PUSH2 0x5CF2 JUMP JUMPDEST PUSH2 0x118C JUMP JUMPDEST PUSH2 0x54D PUSH2 0x129E JUMP JUMPDEST PUSH1 0x40 MLOAD PUSH2 0x39C SWAP2 SWAP1 PUSH2 0x5D34 JUMP JUMPDEST PUSH2 0x3B8 PUSH2 0x568 CALLDATASIZE PUSH1 0x4 PUSH2 0x5D8E JUMP JUMPDEST PUSH2 0x135A JUMP JUMPDEST PUSH2 0x435 PUSH2 0x57B CALLDATASIZE PUSH1 0x4 PUSH2 0x5DFA JUMP JUMPDEST PUSH2 0x1441 JUMP JUMPDEST PUSH2 0x3B8 PUSH2 0x58E CALLDATASIZE PUSH1 0x4 PUSH2 0x5CF2 JUMP JUMPDEST PUSH2 0x153C JUMP JUMPDEST PUSH2 0x3B8 PUSH2 0x5A1 CALLDATASIZE PUSH1 0x4 PUSH2 0x5C8F JUMP JUMPDEST PUSH2 0x1550 JUMP JUMPDEST PUSH2 0x3B8 PUSH2 0x5B4 CALLDATASIZE PUSH1 0x4 PUSH2 0x5AAF JUMP JUMPDEST PUSH2 0x156B JUMP JUMPDEST PUSH2 0x3B8 PUSH2 0x5C7 CALLDATASIZE PUSH1 0x4 PUSH2 0x5A11 JUMP JUMPDEST PUSH2 0x160E JUMP JUMPDEST PUSH2 0x3B8 PUSH2 0x5DA CALLDATASIZE PUSH1 0x4 PUSH2 0x5EE4 JUMP JUMPDEST PUSH2 0x16EA JUMP JUMPDEST PUSH2 0x3EA PUSH2 0x5ED CALLDATASIZE PUSH1 0x4 PUSH2 0x5AAF JUMP JUMPDEST PUSH2 0x17B6 JUMP JUMPDEST PUSH2 0x3B8 PUSH2 0x600 CALLDATASIZE PUSH1 0x4 PUSH2 0x5CF2 JUMP JUMPDEST PUSH2 0x1842 JUMP JUMPDEST PUSH2 0x3B8 PUSH2 0x613 CALLDATASIZE PUSH1 0x4 PUSH2 0x5A11 JUMP JUMPDEST PUSH2 0x1854 JUMP JUMPDEST PUSH2 0x4D2 PUSH2 0x626 CALLDATASIZE PUSH1 0x4 PUSH2 0x5A11 JUMP JUMPDEST PUSH2 0x18B9 JUMP JUMPDEST PUSH2 0x3B8 PUSH2 0x1987 JUMP JUMPDEST PUSH2 0x4D2 PUSH2 0x641 CALLDATASIZE PUSH1 0x4 PUSH2 0x5A11 JUMP JUMPDEST PUSH2 0x199B JUMP JUMPDEST PUSH2 0x4D2 PUSH2 0x654 CALLDATASIZE PUSH1 0x4 PUSH2 0x5F9A JUMP JUMPDEST PUSH2 0x1A91 JUMP JUMPDEST PUSH2 0x435 PUSH2 0x667 CALLDATASIZE PUSH1 0x4 PUSH2 0x5DFA JUMP JUMPDEST PUSH2 0x1BBA JUMP JUMPDEST PUSH2 0x3B8 PUSH2 0x67A CALLDATASIZE PUSH1 0x4 PUSH2 0x5FE6 JUMP JUMPDEST PUSH2 0x1D6E JUMP JUMPDEST PUSH2 0x54D PUSH2 0x1D81 JUMP JUMPDEST PUSH1 0x33 SLOAD PUSH20 0xFFFFFFFFFFFFFFFFFFFFFFFFFFFFFFFFFFFFFFFF AND PUSH2 0x3EA JUMP JUMPDEST PUSH2 0x3CA PUSH2 0x1E2F JUMP JUMPDEST PUSH2 0x3B8 PUSH2 0x6BB CALLDATASIZE PUSH1 0x4 PUSH2 0x5CF2 JUMP JUMPDEST PUSH2 0x1E3E JUMP JUMPDEST PUSH2 0x3B8 PUSH2 0x6CE CALLDATASIZE PUSH1 0x4 PUSH2 0x603A JUMP JUMPDEST PUSH2 0x1F1B JUMP JUMPDEST PUSH2 0x3B8 PUSH2 0x6E1 CALLDATASIZE PUSH1 0x4 PUSH2 0x5EE4 JUMP JUMPDEST PUSH2 0x1F26 JUMP JUMPDEST PUSH2 0x3B8 PUSH2 0x6F4 CALLDATASIZE PUSH1 0x4 PUSH2 0x606F JUMP JUMPDEST PUSH2 0x20BD JUMP JUMPDEST PUSH2 0x435 PUSH2 0x707 CALLDATASIZE PUSH1 0x4 PUSH2 0x608A JUMP JUMPDEST PUSH2 0x20CF JUMP JUMPDEST PUSH2 0x3B8 PUSH2 0x71A CALLDATASIZE PUSH1 0x4 PUSH2 0x60CA JUMP JUMPDEST PUSH2 0x2255 JUMP JUMPDEST PUSH2 0x3B8 PUSH2 0x72D CALLDATASIZE PUSH1 0x4 PUSH2 0x6150 JUMP JUMPDEST PUSH2 0x2335 JUMP JUMPDEST PUSH2 0x745 PUSH2 0x740 CALLDATASIZE PUSH1 0x4 PUSH2 0x5AAF JUMP JUMPDEST PUSH2 0x23D7 JUMP JUMPDEST PUSH1 0x40 MLOAD PUSH2 0x39C SWAP2 SWAP1 PUSH2 0x6240 JUMP JUMPDEST PUSH2 0x765 PUSH2 0x760 CALLDATASIZE PUSH1 0x4 PUSH2 0x5AAF JUMP JUMPDEST PUSH2 0x246E JUMP JUMPDEST PUSH1 0x40 MLOAD PUSH2 0x39C SWAP3 SWAP2 SWAP1 PUSH2 0x6253 JUMP JUMPDEST PUSH2 0x3CA PUSH2 0x781 CALLDATASIZE PUSH1 0x4 PUSH2 0x5AAF JUMP JUMPDEST PUSH2 0x2517 JUMP JUMPDEST PUSH2 0x3B8 PUSH2 0x794 CALLDATASIZE PUSH1 0x4 PUSH2 0x5A11 JUMP JUMPDEST PUSH2 0x25AE JUMP JUMPDEST PUSH2 0x435 PUSH2 0x7A7 CALLDATASIZE PUSH1 0x4 PUSH2 0x608A JUMP JUMPDEST PUSH2 0x268A JUMP JUMPDEST PUSH2 0x3B8 PUSH2 0x7BA CALLDATASIZE PUSH1 0x4 PUSH2 0x5B84 JUMP JUMPDEST PUSH2 0x2732 JUMP JUMPDEST PUSH2 0x390 PUSH2 0x7CD CALLDATASIZE PUSH1 0x4 PUSH2 0x6281 JUMP JUMPDEST PUSH20 0xFFFFFFFFFFFFFFFFFFFFFFFFFFFFFFFFFFFFFFFF SWAP2 DUP3 AND PUSH1 0x0 SWAP1 DUP2 MSTORE PUSH1 0x9F PUSH1 0x20 SWAP1 DUP2 MSTORE PUSH1 0x40 DUP1 DUP4 KECCAK256 SWAP4 SWAP1 SWAP5 AND DUP3 MSTORE SWAP2 SWAP1 SWAP2 MSTORE KECCAK256 SLOAD PUSH1 0xFF AND SWAP1 JUMP JUMPDEST PUSH2 0x3B8 PUSH2 0x816 CALLDATASIZE PUSH1 0x4 PUSH2 0x6281 JUMP JUMPDEST PUSH2 0x2745 JUMP JUMPDEST PUSH2 0x3B8 PUSH2 0x829 CALLDATASIZE PUSH1 0x4 PUSH2 0x5A11 JUMP JUMPDEST PUSH2 0x2822 JUMP JUMPDEST PUSH2 0x4D2 PUSH2 0x83C CALLDATASIZE PUSH1 0x4 PUSH2 0x5F9A JUMP JUMPDEST PUSH2 0x28D6 JUMP JUMPDEST PUSH2 0x4D2 PUSH1 0x2 DUP2 JUMP JUMPDEST PUSH1 0x0 PUSH2 0x854 DUP3 PUSH2 0x2928 JUMP JUMPDEST DUP1 PUSH2 0x863 JUMPI POP PUSH2 0x863 DUP3 PUSH2 0x297E JUMP JUMPDEST DUP1 PUSH2 0x872 JUMPI POP PUSH2 0x872 DUP3 PUSH2 0x2A61 JUMP JUMPDEST SWAP3 SWAP2 POP POP JUMP JUMPDEST CALLER PUSH2 0x898 PUSH1 0x33 SLOAD PUSH20 0xFFFFFFFFFFFFFFFFFFFFFFFFFFFFFFFFFFFFFFFF AND SWAP1 JUMP JUMPDEST PUSH20 0xFFFFFFFFFFFFFFFFFFFFFFFFFFFFFFFFFFFFFFFF AND EQ DUP1 PUSH2 0x8C0 JUMPI POP PUSH2 0x8C0 PUSH1 0x66 CALLER PUSH2 0x2AF8 JUMP JUMPDEST PUSH2 0x950 JUMPI PUSH1 0x40 MLOAD PUSH32 0x8C379A000000000000000000000000000000000000000000000000000000000 DUP2 MSTORE PUSH1 0x20 PUSH1 0x4 DUP3 ADD MSTORE PUSH1 0x24 DUP1 DUP3 ADD MSTORE PUSH32 0x41646D696E436F6E74726F6C3A204D757374206265206F776E6572206F722061 PUSH1 0x44 DUP3 ADD MSTORE PUSH32 0x646D696E00000000000000000000000000000000000000000000000000000000 PUSH1 0x64 DUP3 ADD MSTORE PUSH1 0x84 ADD JUMPDEST PUSH1 0x40 MLOAD DUP1 SWAP2 SUB SWAP1 REVERT JUMPDEST PUSH2 0x959 DUP2 PUSH2 0x2B27 JUMP JUMPDEST POP JUMP JUMPDEST PUSH2 0x959 CALLER PUSH1 0x40 MLOAD DUP1 PUSH1 0x20 ADD PUSH1 0x40 MSTORE DUP1 PUSH1 0x0 DUP2 MSTORE POP PUSH2 0x2C85 JUMP JUMPDEST PUSH1 0x60 PUSH1 0x9A DUP1 SLOAD PUSH2 0x984 SWAP1 PUSH2 0x62AF JUMP JUMPDEST DUP1 PUSH1 0x1F ADD PUSH1 0x20 DUP1 SWAP2 DIV MUL PUSH1 0x20 ADD PUSH1 0x40 MLOAD SWAP1 DUP2 ADD PUSH1 0x40 MSTORE DUP1 SWAP3 SWAP2 SWAP1 DUP2 DUP2 MSTORE PUSH1 0x20 ADD DUP3 DUP1 SLOAD PUSH2 0x9B0 SWAP1 PUSH2 0x62AF JUMP JUMPDEST DUP1 ISZERO PUSH2 0x9FD JUMPI DUP1 PUSH1 0x1F LT PUSH2 0x9D2 JUMPI PUSH2 0x100 DUP1 DUP4 SLOAD DIV MUL DUP4 MSTORE SWAP2 PUSH1 0x20 ADD SWAP2 PUSH2 0x9FD JUMP JUMPDEST DUP3 ADD SWAP2 SWAP1 PUSH1 0x0 MSTORE PUSH1 0x20 PUSH1 0x0 KECCAK256 SWAP1 JUMPDEST DUP2 SLOAD DUP2 MSTORE SWAP1 PUSH1 0x1 ADD SWAP1 PUSH1 0x20 ADD DUP1 DUP4 GT PUSH2 0x9E0 JUMPI DUP3 SWAP1 SUB PUSH1 0x1F AND DUP3 ADD SWAP2 JUMPDEST POP POP POP POP POP SWAP1 POP SWAP1 JUMP JUMPDEST PUSH1 0x0 PUSH2 0xA12 DUP3 PUSH2 0x2CCE JUMP JUMPDEST POP PUSH1 0x0 SWAP1 DUP2 MSTORE PUSH1 0x9E PUSH1 0x20 MSTORE PUSH1 0x40 SWAP1 KECCAK256 SLOAD PUSH20 0xFFFFFFFFFFFFFFFFFFFFFFFFFFFFFFFFFFFFFFFF AND SWAP1 JUMP JUMPDEST PUSH1 0x0 PUSH2 0xA46 DUP3 PUSH2 0x17B6 JUMP JUMPDEST SWAP1 POP DUP1 PUSH20 0xFFFFFFFFFFFFFFFFFFFFFFFFFFFFFFFFFFFFFFFF AND DUP4 PUSH20 0xFFFFFFFFFFFFFFFFFFFFFFFFFFFFFFFFFFFFFFFF AND SUB PUSH2 0xB03 JUMPI PUSH1 0x40 MLOAD PUSH32 0x8C379A000000000000000000000000000000000000000000000000000000000 DUP2 MSTORE PUSH1 0x20 PUSH1 0x4 DUP3 ADD MSTORE PUSH1 0x21 PUSH1 0x24 DUP3 ADD MSTORE PUSH32 0x4552433732313A20617070726F76616C20746F2063757272656E74206F776E65 PUSH1 0x44 DUP3 ADD MSTORE PUSH32 0x7200000000000000000000000000000000000000000000000000000000000000 PUSH1 0x64 DUP3 ADD MSTORE PUSH1 0x84 ADD PUSH2 0x947 JUMP JUMPDEST CALLER PUSH20 0xFFFFFFFFFFFFFFFFFFFFFFFFFFFFFFFFFFFFFFFF DUP3 AND EQ DUP1 PUSH2 0xB2C JUMPI POP PUSH2 0xB2C DUP2 CALLER PUSH2 0x7CD JUMP JUMPDEST PUSH2 0xBB8 JUMPI PUSH1 0x40 MLOAD PUSH32 0x8C379A000000000000000000000000000000000000000000000000000000000 DUP2 MSTORE PUSH1 0x20 PUSH1 0x4 DUP3 ADD MSTORE PUSH1 0x3D PUSH1 0x24 DUP3 ADD MSTORE PUSH32 0x4552433732313A20617070726F76652063616C6C6572206973206E6F7420746F PUSH1 0x44 DUP3 ADD MSTORE PUSH32 0x6B656E206F776E6572206F7220617070726F76656420666F7220616C6C000000 PUSH1 0x64 DUP3 ADD MSTORE PUSH1 0x84 ADD PUSH2 0x947 JUMP JUMPDEST PUSH2 0xBC2 DUP4 DUP4 PUSH2 0x2D59 JUMP JUMPDEST POP POP POP JUMP JUMPDEST PUSH1 0x0 DUP2 DUP2 MSTORE PUSH1 0x9C PUSH1 0x20 MSTORE PUSH1 0x40 SWAP1 KECCAK256 SLOAD PUSH1 0x60 SWAP1 PUSH20 0xFFFFFFFFFFFFFFFFFFFFFFFFFFFFFFFFFFFFFFFF AND PUSH2 0xC55 JUMPI PUSH1 0x40 MLOAD PUSH32 0x8C379A000000000000000000000000000000000000000000000000000000000 DUP2 MSTORE PUSH1 0x20 PUSH1 0x4 DUP3 ADD MSTORE PUSH1 0x11 PUSH1 0x24 DUP3 ADD MSTORE PUSH32 0x4E6F6E6578697374656E7420746F6B656E000000000000000000000000000000 PUSH1 0x44 DUP3 ADD MSTORE PUSH1 0x64 ADD PUSH2 0x947 JUMP JUMPDEST PUSH2 0x872 DUP3 PUSH2 0x2DF9 JUMP JUMPDEST CALLER PUSH2 0xC7E PUSH1 0x33 SLOAD PUSH20 0xFFFFFFFFFFFFFFFFFFFFFFFFFFFFFFFFFFFFFFFF AND SWAP1 JUMP JUMPDEST PUSH20 0xFFFFFFFFFFFFFFFFFFFFFFFFFFFFFFFFFFFFFFFF AND EQ DUP1 PUSH2 0xCA6 JUMPI POP PUSH2 0xCA6 PUSH1 0x66 CALLER PUSH2 0x2AF8 JUMP JUMPDEST PUSH2 0xD31 JUMPI PUSH1 0x40 MLOAD PUSH32 0x8C379A000000000000000000000000000000000000000000000000000000000 DUP2 MSTORE PUSH1 0x20 PUSH1 0x4 DUP3 ADD MSTORE PUSH1 0x24 DUP1 DUP3 ADD MSTORE PUSH32 0x41646D696E436F6E74726F6C3A204D757374206265206F776E6572206F722061 PUSH1 0x44 DUP3 ADD MSTORE PUSH32 0x646D696E00000000000000000000000000000000000000000000000000000000 PUSH1 0x64 DUP3 ADD MSTORE PUSH1 0x84 ADD PUSH2 0x947 JUMP JUMPDEST PUSH2 0xBC2 DUP4 DUP4 DUP4 PUSH2 0x2E04 JUMP JUMPDEST CALLER PUSH2 0xD5C PUSH1 0x33 SLOAD PUSH20 0xFFFFFFFFFFFFFFFFFFFFFFFFFFFFFFFFFFFFFFFF AND SWAP1 JUMP JUMPDEST PUSH20 0xFFFFFFFFFFFFFFFFFFFFFFFFFFFFFFFFFFFFFFFF AND EQ DUP1 PUSH2 0xD84 JUMPI POP PUSH2 0xD84 PUSH1 0x66 CALLER PUSH2 0x2AF8 JUMP JUMPDEST PUSH2 0xE0F JUMPI PUSH1 0x40 MLOAD PUSH32 0x8C379A000000000000000000000000000000000000000000000000000000000 DUP2 MSTORE PUSH1 0x20 PUSH1 0x4 DUP3 ADD MSTORE PUSH1 0x24 DUP1 DUP3 ADD MSTORE PUSH32 0x41646D696E436F6E74726F6C3A204D757374206265206F776E6572206F722061 PUSH1 0x44 DUP3 ADD MSTORE PUSH32 0x646D696E00000000000000000000000000000000000000000000000000000000 PUSH1 0x64 DUP3 ADD MSTORE PUSH1 0x84 ADD PUSH2 0x947 JUMP JUMPDEST PUSH1 0x0 DUP6 DUP2 MSTORE PUSH1 0x9C PUSH1 0x20 MSTORE PUSH1 0x40 SWAP1 KECCAK256 SLOAD PUSH20 0xFFFFFFFFFFFFFFFFFFFFFFFFFFFFFFFFFFFFFFFF AND PUSH2 0xE9A JUMPI PUSH1 0x40 MLOAD PUSH32 0x8C379A000000000000000000000000000000000000000000000000000000000 DUP2 MSTORE PUSH1 0x20 PUSH1 0x4 DUP3 ADD MSTORE PUSH1 0x11 PUSH1 0x24 DUP3 ADD MSTORE PUSH32 0x4E6F6E6578697374656E7420746F6B656E000000000000000000000000000000 PUSH1 0x44 DUP3 ADD MSTORE PUSH1 0x64 ADD PUSH2 0x947 JUMP JUMPDEST PUSH2 0xEA7 DUP6 DUP6 DUP6 DUP6 DUP6 PUSH2 0x2EC3 JUMP JUMPDEST POP POP POP POP POP JUMP JUMPDEST PUSH1 0x0 DUP2 DUP2 MSTORE PUSH1 0x9C PUSH1 0x20 MSTORE PUSH1 0x40 DUP2 KECCAK256 SLOAD PUSH20 0xFFFFFFFFFFFFFFFFFFFFFFFFFFFFFFFFFFFFFFFF AND PUSH2 0xF39 JUMPI PUSH1 0x40 MLOAD PUSH32 0x8C379A000000000000000000000000000000000000000000000000000000000 DUP2 MSTORE PUSH1 0x20 PUSH1 0x4 DUP3 ADD MSTORE PUSH1 0x11 PUSH1 0x24 DUP3 ADD MSTORE PUSH32 0x4E6F6E6578697374656E7420746F6B656E000000000000000000000000000000 PUSH1 0x44 DUP3 ADD MSTORE PUSH1 0x64 ADD PUSH2 0x947 JUMP JUMPDEST PUSH2 0x872 DUP3 PUSH2 0x2F4A JUMP JUMPDEST PUSH2 0xF4C CALLER DUP3 PUSH2 0x3048 JUMP JUMPDEST PUSH2 0xFD8 JUMPI PUSH1 0x40 MLOAD PUSH32 0x8C379A000000000000000000000000000000000000000000000000000000000 DUP2 MSTORE PUSH1 0x20 PUSH1 0x4 DUP3 ADD MSTORE PUSH1 0x2D PUSH1 0x24 DUP3 ADD MSTORE PUSH32 0x4552433732313A2063616C6C6572206973206E6F7420746F6B656E206F776E65 PUSH1 0x44 DUP3 ADD MSTORE PUSH32 0x72206F7220617070726F76656400000000000000000000000000000000000000 PUSH1 0x64 DUP3 ADD MSTORE PUSH1 0x84 ADD PUSH2 0x947 JUMP JUMPDEST PUSH2 0xBC2 DUP4 DUP4 DUP4 PUSH2 0x3108 JUMP JUMPDEST PUSH1 0x0 DUP2 PUSH20 0xFFFFFFFFFFFFFFFFFFFFFFFFFFFFFFFFFFFFFFFF AND PUSH2 0x101B PUSH1 0x33 SLOAD PUSH20 0xFFFFFFFFFFFFFFFFFFFFFFFFFFFFFFFFFFFFFFFF AND SWAP1 JUMP JUMPDEST PUSH20 0xFFFFFFFFFFFFFFFFFFFFFFFFFFFFFFFFFFFFFFFF AND EQ DUP1 PUSH2 0x872 JUMPI POP PUSH2 0x872 PUSH1 0x66 DUP4 PUSH2 0x2AF8 JUMP JUMPDEST PUSH1 0x0 PUSH2 0x104D PUSH2 0x3410 JUMP JUMPDEST PUSH2 0x1055 PUSH2 0x3483 JUMP JUMPDEST PUSH2 0x106E DUP3 PUSH1 0x40 MLOAD DUP1 PUSH1 0x20 ADD PUSH1 0x40 MSTORE DUP1 PUSH1 0x0 DUP2 MSTORE POP PUSH2 0x34F4 JUMP JUMPDEST SWAP1 POP PUSH2 0x107A PUSH1 0x1 PUSH1 0x65 SSTORE JUMP JUMPDEST SWAP2 SWAP1 POP JUMP JUMPDEST PUSH1 0x0 DUP3 DUP2 MSTORE PUSH1 0x9C PUSH1 0x20 MSTORE PUSH1 0x40 DUP2 KECCAK256 SLOAD DUP2 SWAP1 PUSH20 0xFFFFFFFFFFFFFFFFFFFFFFFFFFFFFFFFFFFFFFFF AND PUSH2 0x110C JUMPI PUSH1 0x40 MLOAD PUSH32 0x8C379A000000000000000000000000000000000000000000000000000000000 DUP2 MSTORE PUSH1 0x20 PUSH1 0x4 DUP3 ADD MSTORE PUSH1 0x11 PUSH1 0x24 DUP3 ADD MSTORE PUSH32 0x4E6F6E6578697374656E7420746F6B656E000000000000000000000000000000 PUSH1 0x44 DUP3 ADD MSTORE PUSH1 0x64 ADD PUSH2 0x947 JUMP JUMPDEST PUSH2 0x1116 DUP5 DUP5 PUSH2 0x3557 JUMP JUMPDEST SWAP2 POP SWAP2 POP JUMPDEST SWAP3 POP SWAP3 SWAP1 POP JUMP JUMPDEST PUSH2 0x112A PUSH2 0x3648 JUMP JUMPDEST PUSH2 0x1135 PUSH1 0x66 DUP3 PUSH2 0x2AF8 JUMP JUMPDEST ISZERO PUSH2 0x959 JUMPI PUSH1 0x40 MLOAD CALLER SWAP1 PUSH20 0xFFFFFFFFFFFFFFFFFFFFFFFFFFFFFFFFFFFFFFFF DUP4 AND SWAP1 PUSH32 0x7C0C3C84C67C85FCAC635147348BFE374C24A1A93D0366D1CFE9D8853CBF89D5 SWAP1 PUSH1 0x0 SWAP1 LOG3 PUSH2 0x1188 PUSH1 0x66 DUP3 PUSH2 0x36C9 JUMP JUMPDEST POP POP JUMP JUMPDEST CALLER PUSH2 0x11AC PUSH1 0x33 SLOAD PUSH20 0xFFFFFFFFFFFFFFFFFFFFFFFFFFFFFFFFFFFFFFFF AND SWAP1 JUMP JUMPDEST PUSH20 0xFFFFFFFFFFFFFFFFFFFFFFFFFFFFFFFFFFFFFFFF AND EQ DUP1 PUSH2 0x11D4 JUMPI POP PUSH2 0x11D4 PUSH1 0x66 CALLER PUSH2 0x2AF8 JUMP JUMPDEST PUSH2 0x125F JUMPI PUSH1 0x40 MLOAD PUSH32 0x8C379A000000000000000000000000000000000000000000000000000000000 DUP2 MSTORE PUSH1 0x20 PUSH1 0x4 DUP3 ADD MSTORE PUSH1 0x24 DUP1 DUP3 ADD MSTORE PUSH32 0x41646D696E436F6E74726F6C3A204D757374206265206F776E6572206F722061 PUSH1 0x44 DUP3 ADD MSTORE PUSH32 0x646D696E00000000000000000000000000000000000000000000000000000000 PUSH1 0x64 DUP3 ADD MSTORE PUSH1 0x84 ADD PUSH2 0x947 JUMP JUMPDEST PUSH2 0x1188 DUP3 DUP3 DUP1 DUP1 PUSH1 0x1F ADD PUSH1 0x20 DUP1 SWAP2 DIV MUL PUSH1 0x20 ADD PUSH1 0x40 MLOAD SWAP1 DUP2 ADD PUSH1 0x40 MSTORE DUP1 SWAP4 SWAP3 SWAP2 SWAP1 DUP2 DUP2 MSTORE PUSH1 0x20 ADD DUP4 DUP4 DUP1 DUP3 DUP5 CALLDATACOPY PUSH1 0x0 SWAP3 ADD SWAP2 SWAP1 SWAP2 MSTORE POP PUSH2 0x36EB SWAP3 POP POP POP JUMP JUMPDEST PUSH1 0x60 PUSH2 0x12AA PUSH1 0x66 PUSH2 0x371F JUMP JUMPDEST PUSH8 0xFFFFFFFFFFFFFFFF DUP2 GT ISZERO PUSH2 0x12C2 JUMPI PUSH2 0x12C2 PUSH2 0x5E42 JUMP JUMPDEST PUSH1 0x40 MLOAD SWAP1 DUP1 DUP3 MSTORE DUP1 PUSH1 0x20 MUL PUSH1 0x20 ADD DUP3 ADD PUSH1 0x40 MSTORE DUP1 ISZERO PUSH2 0x12EB JUMPI DUP2 PUSH1 0x20 ADD PUSH1 0x20 DUP3 MUL DUP1 CALLDATASIZE DUP4 CALLDATACOPY ADD SWAP1 POP JUMPDEST POP SWAP1 POP PUSH1 0x0 JUMPDEST PUSH2 0x12FB PUSH1 0x66 PUSH2 0x371F JUMP JUMPDEST DUP2 LT ISZERO PUSH2 0x1356 JUMPI PUSH2 0x130D PUSH1 0x66 DUP3 PUSH2 0x3729 JUMP JUMPDEST DUP3 DUP3 DUP2 MLOAD DUP2 LT PUSH2 0x131F JUMPI PUSH2 0x131F PUSH2 0x62FC JUMP JUMPDEST PUSH20 0xFFFFFFFFFFFFFFFFFFFFFFFFFFFFFFFFFFFFFFFF SWAP1 SWAP3 AND PUSH1 0x20 SWAP3 DUP4 MUL SWAP2 SWAP1 SWAP2 ADD SWAP1 SWAP2 ADD MSTORE DUP1 PUSH2 0x134E DUP2 PUSH2 0x635A JUMP JUMPDEST SWAP2 POP POP PUSH2 0x12F1 JUMP JUMPDEST POP SWAP1 JUMP JUMPDEST CALLER PUSH2 0x137A PUSH1 0x33 SLOAD PUSH20 0xFFFFFFFFFFFFFFFFFFFFFFFFFFFFFFFFFFFFFFFF AND SWAP1 JUMP JUMPDEST PUSH20 0xFFFFFFFFFFFFFFFFFFFFFFFFFFFFFFFFFFFFFFFF AND EQ DUP1 PUSH2 0x13A2 JUMPI POP PUSH2 0x13A2 PUSH1 0x66 CALLER PUSH2 0x2AF8 JUMP JUMPDEST PUSH2 0x142D JUMPI PUSH1 0x40 MLOAD PUSH32 0x8C379A000000000000000000000000000000000000000000000000000000000 DUP2 MSTORE PUSH1 0x20 PUSH1 0x4 DUP3 ADD MSTORE PUSH1 0x24 DUP1 DUP3 ADD MSTORE PUSH32 0x41646D696E436F6E74726F6C3A204D757374206265206F776E6572206F722061 PUSH1 0x44 DUP3 ADD MSTORE PUSH32 0x646D696E00000000000000000000000000000000000000000000000000000000 PUSH1 0x64 DUP3 ADD MSTORE PUSH1 0x84 ADD PUSH2 0x947 JUMP JUMPDEST PUSH2 0x143B PUSH1 0x0 DUP6 DUP6 DUP6 DUP6 PUSH2 0x3735 JUMP JUMPDEST POP POP POP POP JUMP JUMPDEST PUSH1 0x60 PUSH2 0x144B PUSH2 0x3410 JUMP JUMPDEST PUSH2 0x1453 PUSH2 0x3483 JUMP JUMPDEST DUP2 PUSH8 0xFFFFFFFFFFFFFFFF DUP2 GT ISZERO PUSH2 0x146C JUMPI PUSH2 0x146C PUSH2 0x5E42 JUMP JUMPDEST PUSH1 0x40 MLOAD SWAP1 DUP1 DUP3 MSTORE DUP1 PUSH1 0x20 MUL PUSH1 0x20 ADD DUP3 ADD PUSH1 0x40 MSTORE DUP1 ISZERO PUSH2 0x1495 JUMPI DUP2 PUSH1 0x20 ADD PUSH1 0x20 DUP3 MUL DUP1 CALLDATASIZE DUP4 CALLDATACOPY ADD SWAP1 POP JUMPDEST POP SWAP1 POP PUSH1 0x0 JUMPDEST DUP3 DUP2 LT ISZERO PUSH2 0x152A JUMPI PUSH2 0x1505 DUP6 DUP6 DUP6 DUP5 DUP2 DUP2 LT PUSH2 0x14B9 JUMPI PUSH2 0x14B9 PUSH2 0x62FC JUMP JUMPDEST SWAP1 POP PUSH1 0x20 MUL DUP2 ADD SWAP1 PUSH2 0x14CB SWAP2 SWAP1 PUSH2 0x6392 JUMP JUMPDEST DUP1 DUP1 PUSH1 0x1F ADD PUSH1 0x20 DUP1 SWAP2 DIV MUL PUSH1 0x20 ADD PUSH1 0x40 MLOAD SWAP1 DUP2 ADD PUSH1 0x40 MSTORE DUP1 SWAP4 SWAP3 SWAP2 SWAP1 DUP2 DUP2 MSTORE PUSH1 0x20 ADD DUP4 DUP4 DUP1 DUP3 DUP5 CALLDATACOPY PUSH1 0x0 SWAP3 ADD SWAP2 SWAP1 SWAP2 MSTORE POP PUSH2 0x34F4 SWAP3 POP POP POP JUMP JUMPDEST DUP3 DUP3 DUP2 MLOAD DUP2 LT PUSH2 0x1517 JUMPI PUSH2 0x1517 PUSH2 0x62FC JUMP JUMPDEST PUSH1 0x20 SWAP1 DUP2 MUL SWAP2 SWAP1 SWAP2 ADD ADD MSTORE PUSH1 0x1 ADD PUSH2 0x149B JUMP JUMPDEST POP PUSH2 0x1535 PUSH1 0x1 PUSH1 0x65 SSTORE JUMP JUMPDEST SWAP4 SWAP3 POP POP POP JUMP JUMPDEST PUSH2 0x1544 PUSH2 0x3483 JUMP JUMPDEST PUSH2 0x1188 DUP3 DUP3 PUSH1 0x0 PUSH2 0x3863 JUMP JUMPDEST PUSH2 0xBC2 DUP4 DUP4 DUP4 PUSH1 0x40 MLOAD DUP1 PUSH1 0x20 ADD PUSH1 0x40 MSTORE DUP1 PUSH1 0x0 DUP2 MSTORE POP PUSH2 0x2335 JUMP JUMPDEST PUSH2 0x1573 PUSH2 0x3410 JUMP JUMPDEST PUSH2 0x157D CALLER DUP3 PUSH2 0x3048 JUMP JUMPDEST PUSH2 0x15E3 JUMPI PUSH1 0x40 MLOAD PUSH32 0x8C379A000000000000000000000000000000000000000000000000000000000 DUP2 MSTORE PUSH1 0x20 PUSH1 0x4 DUP3 ADD DUP2 SWAP1 MSTORE PUSH1 0x24 DUP3 ADD MSTORE PUSH32 0x43616C6C6572206973206E6F74206F776E6572206E6F7220617070726F766564 PUSH1 0x44 DUP3 ADD MSTORE PUSH1 0x64 ADD PUSH2 0x947 JUMP JUMPDEST PUSH1 0x0 PUSH2 0x15EE DUP3 PUSH2 0x17B6 JUMP JUMPDEST SWAP1 POP PUSH2 0x15F9 DUP3 PUSH2 0x38BE JUMP JUMPDEST PUSH2 0x1603 DUP2 DUP4 PUSH2 0x39A4 JUMP JUMPDEST POP PUSH2 0x959 PUSH1 0x1 PUSH1 0x65 SSTORE JUMP JUMPDEST CALLER PUSH2 0x162E PUSH1 0x33 SLOAD PUSH20 0xFFFFFFFFFFFFFFFFFFFFFFFFFFFFFFFFFFFFFFFF AND SWAP1 JUMP JUMPDEST PUSH20 0xFFFFFFFFFFFFFFFFFFFFFFFFFFFFFFFFFFFFFFFF AND EQ DUP1 PUSH2 0x1656 JUMPI POP PUSH2 0x1656 PUSH1 0x66 CALLER PUSH2 0x2AF8 JUMP JUMPDEST PUSH2 0x16E1 JUMPI PUSH1 0x40 MLOAD PUSH32 0x8C379A000000000000000000000000000000000000000000000000000000000 DUP2 MSTORE PUSH1 0x20 PUSH1 0x4 DUP3 ADD MSTORE PUSH1 0x24 DUP1 DUP3 ADD MSTORE PUSH32 0x41646D696E436F6E74726F6C3A204D757374206265206F776E6572206F722061 PUSH1 0x44 DUP3 ADD MSTORE PUSH32 0x646D696E00000000000000000000000000000000000000000000000000000000 PUSH1 0x64 DUP3 ADD MSTORE PUSH1 0x84 ADD PUSH2 0x947 JUMP JUMPDEST PUSH2 0x959 DUP2 PUSH2 0x3B2A JUMP JUMPDEST PUSH2 0x16F2 PUSH2 0x3483 JUMP JUMPDEST DUP3 MLOAD DUP2 EQ PUSH2 0x175C JUMPI PUSH1 0x40 MLOAD PUSH32 0x8C379A000000000000000000000000000000000000000000000000000000000 DUP2 MSTORE PUSH1 0x20 PUSH1 0x4 DUP3 ADD MSTORE PUSH1 0xD PUSH1 0x24 DUP3 ADD MSTORE PUSH32 0x496E76616C696420696E70757400000000000000000000000000000000000000 PUSH1 0x44 DUP3 ADD MSTORE PUSH1 0x64 ADD PUSH2 0x947 JUMP JUMPDEST PUSH1 0x0 JUMPDEST DUP4 MLOAD DUP2 LT ISZERO PUSH2 0x143B JUMPI PUSH2 0x17AE DUP5 DUP3 DUP2 MLOAD DUP2 LT PUSH2 0x177D JUMPI PUSH2 0x177D PUSH2 0x62FC JUMP JUMPDEST PUSH1 0x20 MUL PUSH1 0x20 ADD ADD MLOAD DUP5 DUP5 DUP5 DUP2 DUP2 LT PUSH2 0x1797 JUMPI PUSH2 0x1797 PUSH2 0x62FC JUMP JUMPDEST SWAP1 POP PUSH1 0x20 MUL DUP2 ADD SWAP1 PUSH2 0x17A9 SWAP2 SWAP1 PUSH2 0x6392 JUMP JUMPDEST PUSH2 0x3BA3 JUMP JUMPDEST PUSH1 0x1 ADD PUSH2 0x175F JUMP JUMPDEST PUSH1 0x0 DUP2 DUP2 MSTORE PUSH1 0x9C PUSH1 0x20 MSTORE PUSH1 0x40 DUP2 KECCAK256 SLOAD PUSH20 0xFFFFFFFFFFFFFFFFFFFFFFFFFFFFFFFFFFFFFFFF AND DUP1 PUSH2 0x872 JUMPI PUSH1 0x40 MLOAD PUSH32 0x8C379A000000000000000000000000000000000000000000000000000000000 DUP2 MSTORE PUSH1 0x20 PUSH1 0x4 DUP3 ADD MSTORE PUSH1 0x18 PUSH1 0x24 DUP3 ADD MSTORE PUSH32 0x4552433732313A20696E76616C696420746F6B656E2049440000000000000000 PUSH1 0x44 DUP3 ADD MSTORE PUSH1 0x64 ADD PUSH2 0x947 JUMP JUMPDEST PUSH2 0x184A PUSH2 0x3483 JUMP JUMPDEST PUSH2 0x1188 DUP3 DUP3 PUSH2 0x3C30 JUMP JUMPDEST PUSH2 0x185C PUSH2 0x3648 JUMP JUMPDEST PUSH2 0x1867 PUSH1 0x66 DUP3 PUSH2 0x2AF8 JUMP JUMPDEST PUSH2 0x959 JUMPI PUSH1 0x40 MLOAD CALLER SWAP1 PUSH20 0xFFFFFFFFFFFFFFFFFFFFFFFFFFFFFFFFFFFFFFFF DUP4 AND SWAP1 PUSH32 0x7E1A1A08D52E4BA0E21554733D66165FD5151F99460116223D9E3A608EEC5CB1 SWAP1 PUSH1 0x0 SWAP1 LOG3 PUSH2 0x1188 PUSH1 0x66 DUP3 PUSH2 0x3C4A JUMP JUMPDEST PUSH1 0x0 PUSH20 0xFFFFFFFFFFFFFFFFFFFFFFFFFFFFFFFFFFFFFFFF DUP3 AND PUSH2 0x195E JUMPI PUSH1 0x40 MLOAD PUSH32 0x8C379A000000000000000000000000000000000000000000000000000000000 DUP2 MSTORE PUSH1 0x20 PUSH1 0x4 DUP3 ADD MSTORE PUSH1 0x29 PUSH1 0x24 DUP3 ADD MSTORE PUSH32 0x4552433732313A2061646472657373207A65726F206973206E6F742061207661 PUSH1 0x44 DUP3 ADD MSTORE PUSH32 0x6C6964206F776E65720000000000000000000000000000000000000000000000 PUSH1 0x64 DUP3 ADD MSTORE PUSH1 0x84 ADD PUSH2 0x947 JUMP JUMPDEST POP PUSH20 0xFFFFFFFFFFFFFFFFFFFFFFFFFFFFFFFFFFFFFFFF AND PUSH1 0x0 SWAP1 DUP2 MSTORE PUSH1 0x9D PUSH1 0x20 MSTORE PUSH1 0x40 SWAP1 KECCAK256 SLOAD SWAP1 JUMP JUMPDEST PUSH2 0x198F PUSH2 0x3648 JUMP JUMPDEST PUSH2 0x1999 PUSH1 0x0 PUSH2 0x3C6C JUMP JUMPDEST JUMP JUMPDEST PUSH1 0x0 PUSH2 0x19A5 PUSH2 0x3410 JUMP JUMPDEST CALLER PUSH2 0x19C5 PUSH1 0x33 SLOAD PUSH20 0xFFFFFFFFFFFFFFFFFFFFFFFFFFFFFFFFFFFFFFFF AND SWAP1 JUMP JUMPDEST PUSH20 0xFFFFFFFFFFFFFFFFFFFFFFFFFFFFFFFFFFFFFFFF AND EQ DUP1 PUSH2 0x19ED JUMPI POP PUSH2 0x19ED PUSH1 0x66 CALLER PUSH2 0x2AF8 JUMP JUMPDEST PUSH2 0x1A78 JUMPI PUSH1 0x40 MLOAD PUSH32 0x8C379A000000000000000000000000000000000000000000000000000000000 DUP2 MSTORE PUSH1 0x20 PUSH1 0x4 DUP3 ADD MSTORE PUSH1 0x24 DUP1 DUP3 ADD MSTORE PUSH32 0x41646D696E436F6E74726F6C3A204D757374206265206F776E6572206F722061 PUSH1 0x44 DUP3 ADD MSTORE PUSH32 0x646D696E00000000000000000000000000000000000000000000000000000000 PUSH1 0x64 DUP3 ADD MSTORE PUSH1 0x84 ADD PUSH2 0x947 JUMP JUMPDEST PUSH2 0x106E DUP3 PUSH1 0x40 MLOAD DUP1 PUSH1 0x20 ADD PUSH1 0x40 MSTORE DUP1 PUSH1 0x0 DUP2 MSTORE POP PUSH2 0x2C85 JUMP JUMPDEST PUSH1 0x0 PUSH2 0x1A9B PUSH2 0x3410 JUMP JUMPDEST CALLER PUSH2 0x1ABB PUSH1 0x33 SLOAD PUSH20 0xFFFFFFFFFFFFFFFFFFFFFFFFFFFFFFFFFFFFFFFF AND SWAP1 JUMP JUMPDEST PUSH20 0xFFFFFFFFFFFFFFFFFFFFFFFFFFFFFFFFFFFFFFFF AND EQ DUP1 PUSH2 0x1AE3 JUMPI POP PUSH2 0x1AE3 PUSH1 0x66 CALLER PUSH2 0x2AF8 JUMP JUMPDEST PUSH2 0x1B6E JUMPI PUSH1 0x40 MLOAD PUSH32 0x8C379A000000000000000000000000000000000000000000000000000000000 DUP2 MSTORE PUSH1 0x20 PUSH1 0x4 DUP3 ADD MSTORE PUSH1 0x24 DUP1 DUP3 ADD MSTORE PUSH32 0x41646D696E436F6E74726F6C3A204D757374206265206F776E6572206F722061 PUSH1 0x44 DUP3 ADD MSTORE PUSH32 0x646D696E00000000000000000000000000000000000000000000000000000000 PUSH1 0x64 DUP3 ADD MSTORE PUSH1 0x84 ADD PUSH2 0x947 JUMP JUMPDEST PUSH2 0x1BAE DUP5 DUP5 DUP5 DUP1 DUP1 PUSH1 0x1F ADD PUSH1 0x20 DUP1 SWAP2 DIV MUL PUSH1 0x20 ADD PUSH1 0x40 MLOAD SWAP1 DUP2 ADD PUSH1 0x40 MSTORE DUP1 SWAP4 SWAP3 SWAP2 SWAP1 DUP2 DUP2 MSTORE PUSH1 0x20 ADD DUP4 DUP4 DUP1 DUP3 DUP5 CALLDATACOPY PUSH1 0x0 SWAP3 ADD SWAP2 SWAP1 SWAP2 MSTORE POP PUSH2 0x2C85 SWAP3 POP POP POP JUMP JUMPDEST SWAP1 POP PUSH2 0x1535 PUSH1 0x1 PUSH1 0x65 SSTORE JUMP JUMPDEST PUSH1 0x60 PUSH2 0x1BC4 PUSH2 0x3410 JUMP JUMPDEST CALLER PUSH2 0x1BE4 PUSH1 0x33 SLOAD PUSH20 0xFFFFFFFFFFFFFFFFFFFFFFFFFFFFFFFFFFFFFFFF AND SWAP1 JUMP JUMPDEST PUSH20 0xFFFFFFFFFFFFFFFFFFFFFFFFFFFFFFFFFFFFFFFF AND EQ DUP1 PUSH2 0x1C0C JUMPI POP PUSH2 0x1C0C PUSH1 0x66 CALLER PUSH2 0x2AF8 JUMP JUMPDEST PUSH2 0x1C97 JUMPI PUSH1 0x40 MLOAD PUSH32 0x8C379A000000000000000000000000000000000000000000000000000000000 DUP2 MSTORE PUSH1 0x20 PUSH1 0x4 DUP3 ADD MSTORE PUSH1 0x24 DUP1 DUP3 ADD MSTORE PUSH32 0x41646D696E436F6E74726F6C3A204D757374206265206F776E6572206F722061 PUSH1 0x44 DUP3 ADD MSTORE PUSH32 0x646D696E00000000000000000000000000000000000000000000000000000000 PUSH1 0x64 DUP3 ADD MSTORE PUSH1 0x84 ADD PUSH2 0x947 JUMP JUMPDEST DUP2 PUSH8 0xFFFFFFFFFFFFFFFF DUP2 GT ISZERO PUSH2 0x1CB0 JUMPI PUSH2 0x1CB0 PUSH2 0x5E42 JUMP JUMPDEST PUSH1 0x40 MLOAD SWAP1 DUP1 DUP3 MSTORE DUP1 PUSH1 0x20 MUL PUSH1 0x20 ADD DUP3 ADD PUSH1 0x40 MSTORE DUP1 ISZERO PUSH2 0x1CD9 JUMPI DUP2 PUSH1 0x20 ADD PUSH1 0x20 DUP3 MUL DUP1 CALLDATASIZE DUP4 CALLDATACOPY ADD SWAP1 POP JUMPDEST POP SWAP1 POP PUSH1 0x0 JUMPDEST DUP3 DUP2 LT ISZERO PUSH2 0x152A JUMPI PUSH2 0x1D49 DUP6 DUP6 DUP6 DUP5 DUP2 DUP2 LT PUSH2 0x1CFD JUMPI PUSH2 0x1CFD PUSH2 0x62FC JUMP JUMPDEST SWAP1 POP PUSH1 0x20 MUL DUP2 ADD SWAP1 PUSH2 0x1D0F SWAP2 SWAP1 PUSH2 0x6392 JUMP JUMPDEST DUP1 DUP1 PUSH1 0x1F ADD PUSH1 0x20 DUP1 SWAP2 DIV MUL PUSH1 0x20 ADD PUSH1 0x40 MLOAD SWAP1 DUP2 ADD PUSH1 0x40 MSTORE DUP1 SWAP4 SWAP3 SWAP2 SWAP1 DUP2 DUP2 MSTORE PUSH1 0x20 ADD DUP4 DUP4 DUP1 DUP3 DUP5 CALLDATACOPY PUSH1 0x0 SWAP3 ADD SWAP2 SWAP1 SWAP2 MSTORE POP PUSH2 0x2C85 SWAP3 POP POP POP JUMP JUMPDEST DUP3 DUP3 DUP2 MLOAD DUP2 LT PUSH2 0x1D5B JUMPI PUSH2 0x1D5B PUSH2 0x62FC JUMP JUMPDEST PUSH1 0x20 SWAP1 DUP2 MUL SWAP2 SWAP1 SWAP2 ADD ADD MSTORE PUSH1 0x1 ADD PUSH2 0x1CDF JUMP JUMPDEST PUSH2 0x1D76 PUSH2 0x3483 JUMP JUMPDEST PUSH2 0xBC2 DUP4 DUP4 DUP4 PUSH2 0x3863 JUMP JUMPDEST PUSH1 0x60 PUSH2 0x1D8D PUSH1 0xCE PUSH2 0x371F JUMP JUMPDEST PUSH8 0xFFFFFFFFFFFFFFFF DUP2 GT ISZERO PUSH2 0x1DA5 JUMPI PUSH2 0x1DA5 PUSH2 0x5E42 JUMP JUMPDEST PUSH1 0x40 MLOAD SWAP1 DUP1 DUP3 MSTORE DUP1 PUSH1 0x20 MUL PUSH1 0x20 ADD DUP3 ADD PUSH1 0x40 MSTORE DUP1 ISZERO PUSH2 0x1DCE JUMPI DUP2 PUSH1 0x20 ADD PUSH1 0x20 DUP3 MUL DUP1 CALLDATASIZE DUP4 CALLDATACOPY ADD SWAP1 POP JUMPDEST POP SWAP1 POP PUSH1 0x0 JUMPDEST PUSH2 0x1DDE PUSH1 0xCE PUSH2 0x371F JUMP JUMPDEST DUP2 LT ISZERO PUSH2 0x1356 JUMPI PUSH2 0x1DF0 PUSH1 0xCE DUP3 PUSH2 0x3729 JUMP JUMPDEST DUP3 DUP3 DUP2 MLOAD DUP2 LT PUSH2 0x1E02 JUMPI PUSH2 0x1E02 PUSH2 0x62FC JUMP JUMPDEST PUSH20 0xFFFFFFFFFFFFFFFFFFFFFFFFFFFFFFFFFFFFFFFF SWAP1 SWAP3 AND PUSH1 0x20 SWAP3 DUP4 MUL SWAP2 SWAP1 SWAP2 ADD SWAP1 SWAP2 ADD MSTORE PUSH1 0x1 ADD PUSH2 0x1DD4 JUMP JUMPDEST PUSH1 0x60 PUSH1 0x9B DUP1 SLOAD PUSH2 0x984 SWAP1 PUSH2 0x62AF JUMP JUMPDEST CALLER PUSH2 0x1E5E PUSH1 0x33 SLOAD PUSH20 0xFFFFFFFFFFFFFFFFFFFFFFFFFFFFFFFFFFFFFFFF AND SWAP1 JUMP JUMPDEST PUSH20 0xFFFFFFFFFFFFFFFFFFFFFFFFFFFFFFFFFFFFFFFF AND EQ DUP1 PUSH2 0x1E86 JUMPI POP PUSH2 0x1E86 PUSH1 0x66 CALLER PUSH2 0x2AF8 JUMP JUMPDEST PUSH2 0x1F11 JUMPI PUSH1 0x40 MLOAD PUSH32 0x8C379A000000000000000000000000000000000000000000000000000000000 DUP2 MSTORE PUSH1 0x20 PUSH1 0x4 DUP3 ADD MSTORE PUSH1 0x24 DUP1 DUP3 ADD MSTORE PUSH32 0x41646D696E436F6E74726F6C3A204D757374206265206F776E6572206F722061 PUSH1 0x44 DUP3 ADD MSTORE PUSH32 0x646D696E00000000000000000000000000000000000000000000000000000000 PUSH1 0x64 DUP3 ADD MSTORE PUSH1 0x84 ADD PUSH2 0x947 JUMP JUMPDEST PUSH2 0x1188 DUP3 DUP3 PUSH2 0x3CE3 JUMP JUMPDEST PUSH2 0x1188 CALLER DUP4 DUP4 PUSH2 0x3D18 JUMP JUMPDEST CALLER PUSH2 0x1F46 PUSH1 0x33 SLOAD PUSH20 0xFFFFFFFFFFFFFFFFFFFFFFFFFFFFFFFFFFFFFFFF AND SWAP1 JUMP JUMPDEST PUSH20 0xFFFFFFFFFFFFFFFFFFFFFFFFFFFFFFFFFFFFFFFF AND EQ DUP1 PUSH2 0x1F6E JUMPI POP PUSH2 0x1F6E PUSH1 0x66 CALLER PUSH2 0x2AF8 JUMP JUMPDEST PUSH2 0x1FF9 JUMPI PUSH1 0x40 MLOAD PUSH32 0x8C379A000000000000000000000000000000000000000000000000000000000 DUP2 MSTORE PUSH1 0x20 PUSH1 0x4 DUP3 ADD MSTORE PUSH1 0x24 DUP1 DUP3 ADD MSTORE PUSH32 0x41646D696E436F6E74726F6C3A204D757374206265206F776E6572206F722061 PUSH1 0x44 DUP3 ADD MSTORE PUSH32 0x646D696E00000000000000000000000000000000000000000000000000000000 PUSH1 0x64 DUP3 ADD MSTORE PUSH1 0x84 ADD PUSH2 0x947 JUMP JUMPDEST DUP3 MLOAD DUP2 EQ PUSH2 0x2063 JUMPI PUSH1 0x40 MLOAD PUSH32 0x8C379A000000000000000000000000000000000000000000000000000000000 DUP2 MSTORE PUSH1 0x20 PUSH1 0x4 DUP3 ADD MSTORE PUSH1 0xD PUSH1 0x24 DUP3 ADD MSTORE PUSH32 0x496E76616C696420696E70757400000000000000000000000000000000000000 PUSH1 0x44 DUP3 ADD MSTORE PUSH1 0x64 ADD PUSH2 0x947 JUMP JUMPDEST PUSH1 0x0 JUMPDEST DUP4 MLOAD DUP2 LT ISZERO PUSH2 0x143B JUMPI PUSH2 0x20B5 DUP5 DUP3 DUP2 MLOAD DUP2 LT PUSH2 0x2084 JUMPI PUSH2 0x2084 PUSH2 0x62FC JUMP JUMPDEST PUSH1 0x20 MUL PUSH1 0x20 ADD ADD MLOAD DUP5 DUP5 DUP5 DUP2 DUP2 LT PUSH2 0x209E JUMPI PUSH2 0x209E PUSH2 0x62FC JUMP JUMPDEST SWAP1 POP PUSH1 0x20 MUL DUP2 ADD SWAP1 PUSH2 0x20B0 SWAP2 SWAP1 PUSH2 0x6392 JUMP JUMPDEST PUSH2 0x2E04 JUMP JUMPDEST PUSH1 0x1 ADD PUSH2 0x2066 JUMP JUMPDEST PUSH2 0x20C5 PUSH2 0x3483 JUMP JUMPDEST PUSH2 0x959 CALLER DUP3 PUSH2 0x3E45 JUMP JUMPDEST PUSH1 0x60 PUSH2 0x20D9 PUSH2 0x3410 JUMP JUMPDEST CALLER PUSH2 0x20F9 PUSH1 0x33 SLOAD PUSH20 0xFFFFFFFFFFFFFFFFFFFFFFFFFFFFFFFFFFFFFFFF AND SWAP1 JUMP JUMPDEST PUSH20 0xFFFFFFFFFFFFFFFFFFFFFFFFFFFFFFFFFFFFFFFF AND EQ DUP1 PUSH2 0x2121 JUMPI POP PUSH2 0x2121 PUSH1 0x66 CALLER PUSH2 0x2AF8 JUMP JUMPDEST PUSH2 0x21AC JUMPI PUSH1 0x40 MLOAD PUSH32 0x8C379A000000000000000000000000000000000000000000000000000000000 DUP2 MSTORE PUSH1 0x20 PUSH1 0x4 DUP3 ADD MSTORE PUSH1 0x24 DUP1 DUP3 ADD MSTORE PUSH32 0x41646D696E436F6E74726F6C3A204D757374206265206F776E6572206F722061 PUSH1 0x44 DUP3 ADD MSTORE PUSH32 0x646D696E00000000000000000000000000000000000000000000000000000000 PUSH1 0x64 DUP3 ADD MSTORE PUSH1 0x84 ADD PUSH2 0x947 JUMP JUMPDEST DUP2 PUSH2 0xFFFF AND PUSH8 0xFFFFFFFFFFFFFFFF DUP2 GT ISZERO PUSH2 0x21C9 JUMPI PUSH2 0x21C9 PUSH2 0x5E42 JUMP JUMPDEST PUSH1 0x40 MLOAD SWAP1 DUP1 DUP3 MSTORE DUP1 PUSH1 0x20 MUL PUSH1 0x20 ADD DUP3 ADD PUSH1 0x40 MSTORE DUP1 ISZERO PUSH2 0x21F2 JUMPI DUP2 PUSH1 0x20 ADD PUSH1 0x20 DUP3 MUL DUP1 CALLDATASIZE DUP4 CALLDATACOPY ADD SWAP1 POP JUMPDEST POP SWAP1 POP PUSH1 0x0 JUMPDEST DUP3 PUSH2 0xFFFF AND DUP2 PUSH2 0xFFFF AND LT ISZERO PUSH2 0x224A JUMPI PUSH2 0x2221 DUP5 PUSH1 0x40 MLOAD DUP1 PUSH1 0x20 ADD PUSH1 0x40 MSTORE DUP1 PUSH1 0x0 DUP2 MSTORE POP PUSH2 0x2C85 JUMP JUMPDEST DUP3 DUP3 PUSH2 0xFFFF AND DUP2 MLOAD DUP2 LT PUSH2 0x2237 JUMPI PUSH2 0x2237 PUSH2 0x62FC JUMP JUMPDEST PUSH1 0x20 SWAP1 DUP2 MUL SWAP2 SWAP1 SWAP2 ADD ADD MSTORE PUSH1 0x1 ADD PUSH2 0x21F8 JUMP JUMPDEST POP PUSH2 0x872 PUSH1 0x1 PUSH1 0x65 SSTORE JUMP JUMPDEST CALLER PUSH2 0x2275 PUSH1 0x33 SLOAD PUSH20 0xFFFFFFFFFFFFFFFFFFFFFFFFFFFFFFFFFFFFFFFF AND SWAP1 JUMP JUMPDEST PUSH20 0xFFFFFFFFFFFFFFFFFFFFFFFFFFFFFFFFFFFFFFFF AND EQ DUP1 PUSH2 0x229D JUMPI POP PUSH2 0x229D PUSH1 0x66 CALLER PUSH2 0x2AF8 JUMP JUMPDEST PUSH2 0x2328 JUMPI PUSH1 0x40 MLOAD PUSH32 0x8C379A000000000000000000000000000000000000000000000000000000000 DUP2 MSTORE PUSH1 0x20 PUSH1 0x4 DUP3 ADD MSTORE PUSH1 0x24 DUP1 DUP3 ADD MSTORE PUSH32 0x41646D696E436F6E74726F6C3A204D757374206265206F776E6572206F722061 PUSH1 0x44 DUP3 ADD MSTORE PUSH32 0x646D696E00000000000000000000000000000000000000000000000000000000 PUSH1 0x64 DUP3 ADD MSTORE PUSH1 0x84 ADD PUSH2 0x947 JUMP JUMPDEST PUSH2 0xEA7 DUP6 DUP6 DUP6 DUP6 DUP6 PUSH2 0x3735 JUMP JUMPDEST PUSH2 0x233F CALLER DUP4 PUSH2 0x3048 JUMP JUMPDEST PUSH2 0x23CB JUMPI PUSH1 0x40 MLOAD PUSH32 0x8C379A000000000000000000000000000000000000000000000000000000000 DUP2 MSTORE PUSH1 0x20 PUSH1 0x4 DUP3 ADD MSTORE PUSH1 0x2D PUSH1 0x24 DUP3 ADD MSTORE PUSH32 0x4552433732313A2063616C6C6572206973206E6F7420746F6B656E206F776E65 PUSH1 0x44 DUP3 ADD MSTORE PUSH32 0x72206F7220617070726F76656400000000000000000000000000000000000000 PUSH1 0x64 DUP3 ADD MSTORE PUSH1 0x84 ADD PUSH2 0x947 JUMP JUMPDEST PUSH2 0x143B DUP5 DUP5 DUP5 DUP5 PUSH2 0x3EFE JUMP JUMPDEST PUSH1 0x0 DUP2 DUP2 MSTORE PUSH1 0x9C PUSH1 0x20 MSTORE PUSH1 0x40 SWAP1 KECCAK256 SLOAD PUSH1 0x60 SWAP1 PUSH20 0xFFFFFFFFFFFFFFFFFFFFFFFFFFFFFFFFFFFFFFFF AND PUSH2 0x2465 JUMPI PUSH1 0x40 MLOAD PUSH32 0x8C379A000000000000000000000000000000000000000000000000000000000 DUP2 MSTORE PUSH1 0x20 PUSH1 0x4 DUP3 ADD MSTORE PUSH1 0x11 PUSH1 0x24 DUP3 ADD MSTORE PUSH32 0x4E6F6E6578697374656E7420746F6B656E000000000000000000000000000000 PUSH1 0x44 DUP3 ADD MSTORE PUSH1 0x64 ADD PUSH2 0x947 JUMP JUMPDEST PUSH2 0x872 DUP3 PUSH2 0x3FA1 JUMP JUMPDEST PUSH1 0x60 DUP1 PUSH2 0x249F DUP4 PUSH1 0x0 SWAP1 DUP2 MSTORE PUSH1 0x9C PUSH1 0x20 MSTORE PUSH1 0x40 SWAP1 KECCAK256 SLOAD PUSH20 0xFFFFFFFFFFFFFFFFFFFFFFFFFFFFFFFFFFFFFFFF AND ISZERO ISZERO SWAP1 JUMP JUMPDEST PUSH2 0x2505 JUMPI PUSH1 0x40 MLOAD PUSH32 0x8C379A000000000000000000000000000000000000000000000000000000000 DUP2 MSTORE PUSH1 0x20 PUSH1 0x4 DUP3 ADD MSTORE PUSH1 0x11 PUSH1 0x24 DUP3 ADD MSTORE PUSH32 0x4E6F6E6578697374656E7420746F6B656E000000000000000000000000000000 PUSH1 0x44 DUP3 ADD MSTORE PUSH1 0x64 ADD PUSH2 0x947 JUMP JUMPDEST PUSH2 0x250E DUP4 PUSH2 0x3FB3 JUMP JUMPDEST SWAP2 POP SWAP2 POP SWAP2 POP SWAP2 JUMP JUMPDEST PUSH1 0x0 DUP2 DUP2 MSTORE PUSH1 0x9C PUSH1 0x20 MSTORE PUSH1 0x40 SWAP1 KECCAK256 SLOAD PUSH1 0x60 SWAP1 PUSH20 0xFFFFFFFFFFFFFFFFFFFFFFFFFFFFFFFFFFFFFFFF AND PUSH2 0x25A5 JUMPI PUSH1 0x40 MLOAD PUSH32 0x8C379A000000000000000000000000000000000000000000000000000000000 DUP2 MSTORE PUSH1 0x20 PUSH1 0x4 DUP3 ADD MSTORE PUSH1 0x11 PUSH1 0x24 DUP3 ADD MSTORE PUSH32 0x4E6F6E6578697374656E7420746F6B656E000000000000000000000000000000 PUSH1 0x44 DUP3 ADD MSTORE PUSH1 0x64 ADD PUSH2 0x947 JUMP JUMPDEST PUSH2 0x872 DUP3 PUSH2 0x4450 JUMP JUMPDEST CALLER PUSH2 0x25CE PUSH1 0x33 SLOAD PUSH20 0xFFFFFFFFFFFFFFFFFFFFFFFFFFFFFFFFFFFFFFFF AND SWAP1 JUMP JUMPDEST PUSH20 0xFFFFFFFFFFFFFFFFFFFFFFFFFFFFFFFFFFFFFFFF AND EQ DUP1 PUSH2 0x25F6 JUMPI POP PUSH2 0x25F6 PUSH1 0x66 CALLER PUSH2 0x2AF8 JUMP JUMPDEST PUSH2 0x2681 JUMPI PUSH1 0x40 MLOAD PUSH32 0x8C379A000000000000000000000000000000000000000000000000000000000 DUP2 MSTORE PUSH1 0x20 PUSH1 0x4 DUP3 ADD MSTORE PUSH1 0x24 DUP1 DUP3 ADD MSTORE PUSH32 0x41646D696E436F6E74726F6C3A204D757374206265206F776E6572206F722061 PUSH1 0x44 DUP3 ADD MSTORE PUSH32 0x646D696E00000000000000000000000000000000000000000000000000000000 PUSH1 0x64 DUP3 ADD MSTORE PUSH1 0x84 ADD PUSH2 0x947 JUMP JUMPDEST PUSH2 0x959 DUP2 PUSH2 0x4836 JUMP JUMPDEST PUSH1 0x60 PUSH2 0x2694 PUSH2 0x3410 JUMP JUMPDEST PUSH2 0x269C PUSH2 0x3483 JUMP JUMPDEST DUP2 PUSH2 0xFFFF AND PUSH8 0xFFFFFFFFFFFFFFFF DUP2 GT ISZERO PUSH2 0x26B9 JUMPI PUSH2 0x26B9 PUSH2 0x5E42 JUMP JUMPDEST PUSH1 0x40 MLOAD SWAP1 DUP1 DUP3 MSTORE DUP1 PUSH1 0x20 MUL PUSH1 0x20 ADD DUP3 ADD PUSH1 0x40 MSTORE DUP1 ISZERO PUSH2 0x26E2 JUMPI DUP2 PUSH1 0x20 ADD PUSH1 0x20 DUP3 MUL DUP1 CALLDATASIZE DUP4 CALLDATACOPY ADD SWAP1 POP JUMPDEST POP SWAP1 POP PUSH1 0x0 JUMPDEST DUP3 PUSH2 0xFFFF AND DUP2 LT ISZERO PUSH2 0x224A JUMPI PUSH2 0x270D DUP5 PUSH1 0x40 MLOAD DUP1 PUSH1 0x20 ADD PUSH1 0x40 MSTORE DUP1 PUSH1 0x0 DUP2 MSTORE POP PUSH2 0x34F4 JUMP JUMPDEST DUP3 DUP3 DUP2 MLOAD DUP2 LT PUSH2 0x271F JUMPI PUSH2 0x271F PUSH2 0x62FC JUMP JUMPDEST PUSH1 0x20 SWAP1 DUP2 MUL SWAP2 SWAP1 SWAP2 ADD ADD MSTORE PUSH1 0x1 ADD PUSH2 0x26E8 JUMP JUMPDEST PUSH2 0x273A PUSH2 0x3483 JUMP JUMPDEST PUSH2 0xBC2 DUP4 DUP4 DUP4 PUSH2 0x3BA3 JUMP JUMPDEST CALLER PUSH2 0x2765 PUSH1 0x33 SLOAD PUSH20 0xFFFFFFFFFFFFFFFFFFFFFFFFFFFFFFFFFFFFFFFF AND SWAP1 JUMP JUMPDEST PUSH20 0xFFFFFFFFFFFFFFFFFFFFFFFFFFFFFFFFFFFFFFFF AND EQ DUP1 PUSH2 0x278D JUMPI POP PUSH2 0x278D PUSH1 0x66 CALLER PUSH2 0x2AF8 JUMP JUMPDEST PUSH2 0x2818 JUMPI PUSH1 0x40 MLOAD PUSH32 0x8C379A000000000000000000000000000000000000000000000000000000000 DUP2 MSTORE PUSH1 0x20 PUSH1 0x4 DUP3 ADD MSTORE PUSH1 0x24 DUP1 DUP3 ADD MSTORE PUSH32 0x41646D696E436F6E74726F6C3A204D757374206265206F776E6572206F722061 PUSH1 0x44 DUP3 ADD MSTORE PUSH32 0x646D696E00000000000000000000000000000000000000000000000000000000 PUSH1 0x64 DUP3 ADD MSTORE PUSH1 0x84 ADD PUSH2 0x947 JUMP JUMPDEST PUSH2 0x1188 DUP3 DUP3 PUSH2 0x4884 JUMP JUMPDEST PUSH2 0x282A PUSH2 0x3648 JUMP JUMPDEST PUSH20 0xFFFFFFFFFFFFFFFFFFFFFFFFFFFFFFFFFFFFFFFF DUP2 AND PUSH2 0x28CD JUMPI PUSH1 0x40 MLOAD PUSH32 0x8C379A000000000000000000000000000000000000000000000000000000000 DUP2 MSTORE PUSH1 0x20 PUSH1 0x4 DUP3 ADD MSTORE PUSH1 0x26 PUSH1 0x24 DUP3 ADD MSTORE PUSH32 0x4F776E61626C653A206E6577206F776E657220697320746865207A65726F2061 PUSH1 0x44 DUP3 ADD MSTORE PUSH32 0x6464726573730000000000000000000000000000000000000000000000000000 PUSH1 0x64 DUP3 ADD MSTORE PUSH1 0x84 ADD PUSH2 0x947 JUMP JUMPDEST PUSH2 0x959 DUP2 PUSH2 0x3C6C JUMP JUMPDEST PUSH1 0x0 PUSH2 0x28E0 PUSH2 0x3410 JUMP JUMPDEST PUSH2 0x28E8 PUSH2 0x3483 JUMP JUMPDEST PUSH2 0x1BAE DUP5 DUP5 DUP5 DUP1 DUP1 PUSH1 0x1F ADD PUSH1 0x20 DUP1 SWAP2 DIV MUL PUSH1 0x20 ADD PUSH1 0x40 MLOAD SWAP1 DUP2 ADD PUSH1 0x40 MSTORE DUP1 SWAP4 SWAP3 SWAP2 SWAP1 DUP2 DUP2 MSTORE PUSH1 0x20 ADD DUP4 DUP4 DUP1 DUP3 DUP5 CALLDATACOPY PUSH1 0x0 SWAP3 ADD SWAP2 SWAP1 SWAP2 MSTORE POP PUSH2 0x34F4 SWAP3 POP POP POP JUMP JUMPDEST PUSH1 0x0 PUSH32 0xFFFFFFFF00000000000000000000000000000000000000000000000000000000 DUP3 AND PUSH32 0x9088C20700000000000000000000000000000000000000000000000000000000 EQ DUP1 PUSH2 0x872 JUMPI POP PUSH2 0x872 DUP3 PUSH2 0x4A53 JUMP JUMPDEST PUSH1 0x0 PUSH32 0xFFFFFFFF00000000000000000000000000000000000000000000000000000000 DUP3 AND PUSH32 0x80AC58CD00000000000000000000000000000000000000000000000000000000 EQ DUP1 PUSH2 0x2A11 JUMPI POP PUSH32 0xFFFFFFFF00000000000000000000000000000000000000000000000000000000 DUP3 AND PUSH32 0x5B5E139F00000000000000000000000000000000000000000000000000000000 EQ JUMPDEST DUP1 PUSH2 0x872 JUMPI POP PUSH32 0x1FFC9A700000000000000000000000000000000000000000000000000000000 PUSH32 0xFFFFFFFF00000000000000000000000000000000000000000000000000000000 DUP4 AND EQ PUSH2 0x872 JUMP JUMPDEST PUSH1 0x0 PUSH32 0xFFFFFFFF00000000000000000000000000000000000000000000000000000000 DUP3 AND PUSH32 0x553E757E00000000000000000000000000000000000000000000000000000000 EQ DUP1 PUSH2 0x872 JUMPI POP PUSH32 0x1FFC9A700000000000000000000000000000000000000000000000000000000 PUSH32 0xFFFFFFFF00000000000000000000000000000000000000000000000000000000 DUP4 AND EQ PUSH2 0x872 JUMP JUMPDEST PUSH20 0xFFFFFFFFFFFFFFFFFFFFFFFFFFFFFFFFFFFFFFFF DUP2 AND PUSH1 0x0 SWAP1 DUP2 MSTORE PUSH1 0x1 DUP4 ADD PUSH1 0x20 MSTORE PUSH1 0x40 DUP2 KECCAK256 SLOAD ISZERO ISZERO PUSH2 0x1535 JUMP JUMPDEST PUSH20 0xFFFFFFFFFFFFFFFFFFFFFFFFFFFFFFFFFFFFFFFF DUP2 AND ISZERO DUP1 ISZERO SWAP1 PUSH2 0x2B62 JUMPI POP PUSH20 0xFFFFFFFFFFFFFFFFFFFFFFFFFFFFFFFFFFFFFFFF DUP2 AND ADDRESS EQ ISZERO JUMPDEST PUSH2 0x2BC8 JUMPI PUSH1 0x40 MLOAD PUSH32 0x8C379A000000000000000000000000000000000000000000000000000000000 DUP2 MSTORE PUSH1 0x20 PUSH1 0x4 DUP3 ADD MSTORE PUSH1 0x19 PUSH1 0x24 DUP3 ADD MSTORE PUSH32 0x43616E6E6F7420626C61636B6C69737420796F757273656C6600000000000000 PUSH1 0x44 DUP3 ADD MSTORE PUSH1 0x64 ADD PUSH2 0x947 JUMP JUMPDEST PUSH2 0x2BD3 PUSH1 0xCE DUP3 PUSH2 0x2AF8 JUMP JUMPDEST ISZERO PUSH2 0x2C28 JUMPI PUSH1 0x40 MLOAD CALLER SWAP1 PUSH20 0xFFFFFFFFFFFFFFFFFFFFFFFFFFFFFFFFFFFFFFFF DUP4 AND SWAP1 PUSH32 0xD19CF84CF0FEC6BEC9DDFA29C63ADF83A55707C712F32C8285D6180A78901479 SWAP1 PUSH1 0x0 SWAP1 LOG3 PUSH2 0x2C26 PUSH1 0xCE DUP3 PUSH2 0x36C9 JUMP JUMPDEST POP JUMPDEST PUSH2 0x2C33 PUSH1 0xD0 DUP3 PUSH2 0x2AF8 JUMP JUMPDEST PUSH2 0x959 JUMPI PUSH1 0x40 MLOAD CALLER SWAP1 PUSH20 0xFFFFFFFFFFFFFFFFFFFFFFFFFFFFFFFFFFFFFFFF DUP4 AND SWAP1 PUSH32 0x5AC7BC5A606CD92A63365F9FDA244499B9ADD0526B22D99937B6BD88181059C SWAP1 PUSH1 0x0 SWAP1 LOG3 PUSH2 0x1188 PUSH1 0xD0 DUP3 PUSH2 0x3C4A JUMP JUMPDEST PUSH1 0x0 PUSH1 0xCC PUSH1 0x0 DUP2 SLOAD PUSH2 0x2C96 SWAP1 PUSH2 0x635A JUMP JUMPDEST SWAP1 SWAP2 SSTORE POP POP PUSH1 0xCC SLOAD PUSH2 0x2CA8 DUP4 DUP3 PUSH2 0x4C2A JUMP JUMPDEST DUP2 MLOAD ISZERO PUSH2 0x2CC9 JUMPI PUSH1 0x0 DUP2 DUP2 MSTORE PUSH1 0xD8 PUSH1 0x20 MSTORE PUSH1 0x40 SWAP1 KECCAK256 PUSH2 0x2CC7 DUP4 DUP3 PUSH2 0x643D JUMP JUMPDEST POP JUMPDEST PUSH2 0x872 JUMP JUMPDEST PUSH1 0x0 DUP2 DUP2 MSTORE PUSH1 0x9C PUSH1 0x20 MSTORE PUSH1 0x40 SWAP1 KECCAK256 SLOAD PUSH20 0xFFFFFFFFFFFFFFFFFFFFFFFFFFFFFFFFFFFFFFFF AND PUSH2 0x959 JUMPI PUSH1 0x40 MLOAD PUSH32 0x8C379A000000000000000000000000000000000000000000000000000000000 DUP2 MSTORE PUSH1 0x20 PUSH1 0x4 DUP3 ADD MSTORE PUSH1 0x18 PUSH1 0x24 DUP3 ADD MSTORE PUSH32 0x4552433732313A20696E76616C696420746F6B656E2049440000000000000000 PUSH1 0x44 DUP3 ADD MSTORE PUSH1 0x64 ADD PUSH2 0x947 JUMP JUMPDEST PUSH1 0x0 DUP2 DUP2 MSTORE PUSH1 0x9E PUSH1 0x20 MSTORE PUSH1 0x40 SWAP1 KECCAK256 DUP1 SLOAD PUSH32 0xFFFFFFFFFFFFFFFFFFFFFFFF0000000000000000000000000000000000000000 AND PUSH20 0xFFFFFFFFFFFFFFFFFFFFFFFFFFFFFFFFFFFFFFFF DUP5 AND SWAP1 DUP2 OR SWAP1 SWAP2 SSTORE DUP2 SWAP1 PUSH2 0x2DB3 DUP3 PUSH2 0x17B6 JUMP JUMPDEST PUSH20 0xFFFFFFFFFFFFFFFFFFFFFFFFFFFFFFFFFFFFFFFF AND PUSH32 0x8C5BE1E5EBEC7D5BD14F71427D1E84F3DD0314C0F7B2291E5B200AC8C7C3B925 PUSH1 0x40 MLOAD PUSH1 0x40 MLOAD DUP1 SWAP2 SUB SWAP1 LOG4 POP POP JUMP JUMPDEST PUSH1 0x60 PUSH2 0x1535 DUP3 PUSH2 0x3FB3 JUMP JUMPDEST PUSH1 0x0 DUP4 GT DUP1 ISZERO PUSH2 0x2E16 JUMPI POP PUSH1 0xCC SLOAD DUP4 GT ISZERO JUMPDEST DUP1 ISZERO PUSH2 0x2E44 JUMPI POP PUSH1 0x0 DUP4 DUP2 MSTORE PUSH1 0xD4 PUSH1 0x20 MSTORE PUSH1 0x40 SWAP1 KECCAK256 SLOAD PUSH20 0xFFFFFFFFFFFFFFFFFFFFFFFFFFFFFFFFFFFFFFFF AND ISZERO JUMPDEST PUSH2 0x2EAA JUMPI PUSH1 0x40 MLOAD PUSH32 0x8C379A000000000000000000000000000000000000000000000000000000000 DUP2 MSTORE PUSH1 0x20 PUSH1 0x4 DUP3 ADD MSTORE PUSH1 0xD PUSH1 0x24 DUP3 ADD MSTORE PUSH32 0x496E76616C696420746F6B656E00000000000000000000000000000000000000 PUSH1 0x44 DUP3 ADD MSTORE PUSH1 0x64 ADD PUSH2 0x947 JUMP JUMPDEST PUSH1 0x0 DUP4 DUP2 MSTORE PUSH1 0xD8 PUSH1 0x20 MSTORE PUSH1 0x40 SWAP1 KECCAK256 PUSH2 0x143B DUP3 DUP5 DUP4 PUSH2 0x6557 JUMP JUMPDEST PUSH2 0x2ECF DUP5 DUP5 DUP5 DUP5 PUSH2 0x4C44 JUMP JUMPDEST PUSH1 0x0 DUP6 DUP2 MSTORE PUSH1 0xDA PUSH1 0x20 MSTORE PUSH1 0x40 DUP2 KECCAK256 PUSH2 0x2EE6 SWAP2 PUSH2 0x5900 JUMP JUMPDEST PUSH2 0x2F05 DUP5 DUP5 DUP5 DUP5 PUSH1 0xDA PUSH1 0x0 DUP12 DUP2 MSTORE PUSH1 0x20 ADD SWAP1 DUP2 MSTORE PUSH1 0x20 ADD PUSH1 0x0 KECCAK256 PUSH2 0x4D53 JUMP JUMPDEST DUP5 PUSH32 0xABB46FE0761D77584BDE75697647804FFD8113ABD4D8D06BC664150395ECCDEE DUP6 DUP6 DUP6 DUP6 PUSH1 0x40 MLOAD PUSH2 0x2F3B SWAP5 SWAP4 SWAP3 SWAP2 SWAP1 PUSH2 0x6671 JUMP JUMPDEST PUSH1 0x40 MLOAD DUP1 SWAP2 SUB SWAP1 LOG2 POP POP POP POP POP JUMP JUMPDEST PUSH1 0x0 DUP2 DUP2 MSTORE PUSH1 0xD4 PUSH1 0x20 MSTORE PUSH1 0x40 SWAP1 KECCAK256 SLOAD PUSH20 0xFFFFFFFFFFFFFFFFFFFFFFFFFFFFFFFFFFFFFFFF AND DUP1 PUSH2 0x2FD6 JUMPI PUSH1 0x40 MLOAD PUSH32 0x8C379A000000000000000000000000000000000000000000000000000000000 DUP2 MSTORE PUSH1 0x20 PUSH1 0x4 DUP3 ADD MSTORE PUSH1 0x16 PUSH1 0x24 DUP3 ADD MSTORE PUSH32 0x4E6F20657874656E73696F6E20666F7220746F6B656E00000000000000000000 PUSH1 0x44 DUP3 ADD MSTORE PUSH1 0x64 ADD PUSH2 0x947 JUMP JUMPDEST PUSH2 0x2FE1 PUSH1 0xD0 DUP3 PUSH2 0x2AF8 JUMP JUMPDEST ISZERO PUSH2 0x107A JUMPI PUSH1 0x40 MLOAD PUSH32 0x8C379A000000000000000000000000000000000000000000000000000000000 DUP2 MSTORE PUSH1 0x20 PUSH1 0x4 DUP3 ADD MSTORE PUSH1 0x15 PUSH1 0x24 DUP3 ADD MSTORE PUSH32 0x457874656E73696F6E20626C61636B6C69737465640000000000000000000000 PUSH1 0x44 DUP3 ADD MSTORE PUSH1 0x64 ADD PUSH2 0x947 JUMP JUMPDEST PUSH1 0x0 DUP1 PUSH2 0x3054 DUP4 PUSH2 0x17B6 JUMP JUMPDEST SWAP1 POP DUP1 PUSH20 0xFFFFFFFFFFFFFFFFFFFFFFFFFFFFFFFFFFFFFFFF AND DUP5 PUSH20 0xFFFFFFFFFFFFFFFFFFFFFFFFFFFFFFFFFFFFFFFF AND EQ DUP1 PUSH2 0x30C2 JUMPI POP PUSH20 0xFFFFFFFFFFFFFFFFFFFFFFFFFFFFFFFFFFFFFFFF DUP1 DUP3 AND PUSH1 0x0 SWAP1 DUP2 MSTORE PUSH1 0x9F PUSH1 0x20 SWAP1 DUP2 MSTORE PUSH1 0x40 DUP1 DUP4 KECCAK256 SWAP4 DUP9 AND DUP4 MSTORE SWAP3 SWAP1 MSTORE KECCAK256 SLOAD PUSH1 0xFF AND JUMPDEST DUP1 PUSH2 0x3100 JUMPI POP DUP4 PUSH20 0xFFFFFFFFFFFFFFFFFFFFFFFFFFFFFFFFFFFFFFFF AND PUSH2 0x30E8 DUP5 PUSH2 0xA07 JUMP JUMPDEST PUSH20 0xFFFFFFFFFFFFFFFFFFFFFFFFFFFFFFFFFFFFFFFF AND EQ JUMPDEST SWAP5 SWAP4 POP POP POP POP JUMP JUMPDEST DUP3 PUSH20 0xFFFFFFFFFFFFFFFFFFFFFFFFFFFFFFFFFFFFFFFF AND PUSH2 0x3128 DUP3 PUSH2 0x17B6 JUMP JUMPDEST PUSH20 0xFFFFFFFFFFFFFFFFFFFFFFFFFFFFFFFFFFFFFFFF AND EQ PUSH2 0x31CB JUMPI PUSH1 0x40 MLOAD PUSH32 0x8C379A000000000000000000000000000000000000000000000000000000000 DUP2 MSTORE PUSH1 0x20 PUSH1 0x4 DUP3 ADD MSTORE PUSH1 0x25 PUSH1 0x24 DUP3 ADD MSTORE PUSH32 0x4552433732313A207472616E736665722066726F6D20696E636F727265637420 PUSH1 0x44 DUP3 ADD MSTORE PUSH32 0x6F776E6572000000000000000000000000000000000000000000000000000000 PUSH1 0x64 DUP3 ADD MSTORE PUSH1 0x84 ADD PUSH2 0x947 JUMP JUMPDEST PUSH20 0xFFFFFFFFFFFFFFFFFFFFFFFFFFFFFFFFFFFFFFFF DUP3 AND PUSH2 0x326D JUMPI PUSH1 0x40 MLOAD PUSH32 0x8C379A000000000000000000000000000000000000000000000000000000000 DUP2 MSTORE PUSH1 0x20 PUSH1 0x4 DUP3 ADD MSTORE PUSH1 0x24 DUP1 DUP3 ADD MSTORE PUSH32 0x4552433732313A207472616E7366657220746F20746865207A65726F20616464 PUSH1 0x44 DUP3 ADD MSTORE PUSH32 0x7265737300000000000000000000000000000000000000000000000000000000 PUSH1 0x64 DUP3 ADD MSTORE PUSH1 0x84 ADD PUSH2 0x947 JUMP JUMPDEST PUSH2 0x327A DUP4 DUP4 DUP4 PUSH1 0x1 PUSH2 0x4E59 JUMP JUMPDEST DUP3 PUSH20 0xFFFFFFFFFFFFFFFFFFFFFFFFFFFFFFFFFFFFFFFF AND PUSH2 0x329A DUP3 PUSH2 0x17B6 JUMP JUMPDEST PUSH20 0xFFFFFFFFFFFFFFFFFFFFFFFFFFFFFFFFFFFFFFFF AND EQ PUSH2 0x333D JUMPI PUSH1 0x40 MLOAD PUSH32 0x8C379A000000000000000000000000000000000000000000000000000000000 DUP2 MSTORE PUSH1 0x20 PUSH1 0x4 DUP3 ADD MSTORE PUSH1 0x25 PUSH1 0x24 DUP3 ADD MSTORE PUSH32 0x4552433732313A207472616E736665722066726F6D20696E636F727265637420 PUSH1 0x44 DUP3 ADD MSTORE PUSH32 0x6F776E6572000000000000000000000000000000000000000000000000000000 PUSH1 0x64 DUP3 ADD MSTORE PUSH1 0x84 ADD PUSH2 0x947 JUMP JUMPDEST PUSH1 0x0 DUP2 DUP2 MSTORE PUSH1 0x9E PUSH1 0x20 SWAP1 DUP2 MSTORE PUSH1 0x40 DUP1 DUP4 KECCAK256 DUP1 SLOAD PUSH32 0xFFFFFFFFFFFFFFFFFFFFFFFF0000000000000000000000000000000000000000 SWAP1 DUP2 AND SWAP1 SWAP2 SSTORE PUSH20 0xFFFFFFFFFFFFFFFFFFFFFFFFFFFFFFFFFFFFFFFF DUP8 DUP2 AND DUP1 DUP7 MSTORE PUSH1 0x9D DUP6 MSTORE DUP4 DUP7 KECCAK256 DUP1 SLOAD PUSH32 0xFFFFFFFFFFFFFFFFFFFFFFFFFFFFFFFFFFFFFFFFFFFFFFFFFFFFFFFFFFFFFFFF ADD SWAP1 SSTORE SWAP1 DUP8 AND DUP1 DUP7 MSTORE DUP4 DUP7 KECCAK256 DUP1 SLOAD PUSH1 0x1 ADD SWAP1 SSTORE DUP7 DUP7 MSTORE PUSH1 0x9C SWAP1 SWAP5 MSTORE DUP3 DUP6 KECCAK256 DUP1 SLOAD SWAP1 SWAP3 AND DUP5 OR SWAP1 SWAP2 SSTORE SWAP1 MLOAD DUP5 SWAP4 PUSH32 0xDDF252AD1BE2C89B69C2B068FC378DAA952BA7F163C4A11628F55A4DF523B3EF SWAP2 LOG4 POP POP POP JUMP JUMPDEST PUSH1 0x2 PUSH1 0x65 SLOAD SUB PUSH2 0x347C JUMPI PUSH1 0x40 MLOAD PUSH32 0x8C379A000000000000000000000000000000000000000000000000000000000 DUP2 MSTORE PUSH1 0x20 PUSH1 0x4 DUP3 ADD MSTORE PUSH1 0x1F PUSH1 0x24 DUP3 ADD MSTORE PUSH32 0x5265656E7472616E637947756172643A207265656E7472616E742063616C6C00 PUSH1 0x44 DUP3 ADD MSTORE PUSH1 0x64 ADD PUSH2 0x947 JUMP JUMPDEST PUSH1 0x2 PUSH1 0x65 SSTORE JUMP JUMPDEST PUSH2 0x348E PUSH1 0xCE CALLER PUSH2 0x2AF8 JUMP JUMPDEST PUSH2 0x1999 JUMPI PUSH1 0x40 MLOAD PUSH32 0x8C379A000000000000000000000000000000000000000000000000000000000 DUP2 MSTORE PUSH1 0x20 PUSH1 0x4 DUP3 ADD MSTORE PUSH1 0x1C PUSH1 0x24 DUP3 ADD MSTORE PUSH32 0x4D757374206265207265676973746572656420657874656E73696F6E00000000 PUSH1 0x44 DUP3 ADD MSTORE PUSH1 0x64 ADD PUSH2 0x947 JUMP JUMPDEST PUSH1 0x0 PUSH1 0xCC PUSH1 0x0 DUP2 SLOAD PUSH2 0x3505 SWAP1 PUSH2 0x635A JUMP JUMPDEST SWAP1 SWAP2 SSTORE POP POP PUSH1 0xCC SLOAD PUSH2 0x3517 DUP4 DUP3 PUSH2 0x4F15 JUMP JUMPDEST PUSH1 0x0 DUP2 DUP2 MSTORE PUSH1 0xD4 PUSH1 0x20 MSTORE PUSH1 0x40 SWAP1 KECCAK256 DUP1 SLOAD PUSH32 0xFFFFFFFFFFFFFFFFFFFFFFFF0000000000000000000000000000000000000000 AND CALLER OR SWAP1 SSTORE PUSH2 0x2CA8 DUP4 DUP3 PUSH2 0x4C2A JUMP JUMPDEST PUSH1 0x0 DUP1 PUSH1 0x0 DUP1 PUSH2 0x3566 DUP7 PUSH2 0x3FB3 JUMP JUMPDEST SWAP2 POP SWAP2 POP PUSH1 0x1 DUP3 MLOAD GT ISZERO PUSH2 0x35D6 JUMPI PUSH1 0x40 MLOAD PUSH32 0x8C379A000000000000000000000000000000000000000000000000000000000 DUP2 MSTORE PUSH1 0x20 PUSH1 0x4 DUP3 ADD MSTORE PUSH1 0x1C PUSH1 0x24 DUP3 ADD MSTORE PUSH32 0x4D6F7265207468616E203120726F79616C747920726563656976657200000000 PUSH1 0x44 DUP3 ADD MSTORE PUSH1 0x64 ADD PUSH2 0x947 JUMP JUMPDEST DUP2 MLOAD PUSH1 0x0 SUB PUSH2 0x35ED JUMPI ADDRESS PUSH1 0x0 SWAP4 POP SWAP4 POP POP POP PUSH2 0x111B JUMP JUMPDEST DUP2 PUSH1 0x0 DUP2 MLOAD DUP2 LT PUSH2 0x3600 JUMPI PUSH2 0x3600 PUSH2 0x62FC JUMP JUMPDEST PUSH1 0x20 MUL PUSH1 0x20 ADD ADD MLOAD PUSH2 0x2710 DUP7 DUP4 PUSH1 0x0 DUP2 MLOAD DUP2 LT PUSH2 0x361F JUMPI PUSH2 0x361F PUSH2 0x62FC JUMP JUMPDEST PUSH1 0x20 MUL PUSH1 0x20 ADD ADD MLOAD PUSH2 0x3631 SWAP2 SWAP1 PUSH2 0x6715 JUMP JUMPDEST PUSH2 0x363B SWAP2 SWAP1 PUSH2 0x672C JUMP JUMPDEST SWAP4 POP SWAP4 POP POP POP SWAP3 POP SWAP3 SWAP1 POP JUMP JUMPDEST PUSH1 0x33 SLOAD PUSH20 0xFFFFFFFFFFFFFFFFFFFFFFFFFFFFFFFFFFFFFFFF AND CALLER EQ PUSH2 0x1999 JUMPI PUSH1 0x40 MLOAD PUSH32 0x8C379A000000000000000000000000000000000000000000000000000000000 DUP2 MSTORE PUSH1 0x20 PUSH1 0x4 DUP3 ADD DUP2 SWAP1 MSTORE PUSH1 0x24 DUP3 ADD MSTORE PUSH32 0x4F776E61626C653A2063616C6C6572206973206E6F7420746865206F776E6572 PUSH1 0x44 DUP3 ADD MSTORE PUSH1 0x64 ADD PUSH2 0x947 JUMP JUMPDEST PUSH1 0x0 PUSH2 0x1535 DUP4 PUSH20 0xFFFFFFFFFFFFFFFFFFFFFFFFFFFFFFFFFFFFFFFF DUP5 AND PUSH2 0x4FDC JUMP JUMPDEST PUSH1 0x0 DUP1 MSTORE PUSH1 0xD5 PUSH1 0x20 MSTORE PUSH32 0xF5CBBBF491ECCA09B3146460212AF7A9A122CEB752655FE793FA94EB0EEED0A6 PUSH2 0x1188 DUP3 DUP3 PUSH2 0x643D JUMP JUMPDEST PUSH1 0x0 PUSH2 0x872 DUP3 SLOAD SWAP1 JUMP JUMPDEST PUSH1 0x0 PUSH2 0x1535 DUP4 DUP4 PUSH2 0x50CF JUMP JUMPDEST PUSH2 0x3741 DUP5 DUP5 DUP5 DUP5 PUSH2 0x4C44 JUMP JUMPDEST PUSH20 0xFFFFFFFFFFFFFFFFFFFFFFFFFFFFFFFFFFFFFFFF DUP6 AND PUSH1 0x0 SWAP1 DUP2 MSTORE PUSH1 0xD9 PUSH1 0x20 MSTORE PUSH1 0x40 DUP2 KECCAK256 PUSH2 0x376F SWAP2 PUSH2 0x5900 JUMP JUMPDEST PUSH2 0x37BA DUP5 DUP5 DUP5 DUP5 PUSH1 0xD9 PUSH1 0x0 DUP12 PUSH20 0xFFFFFFFFFFFFFFFFFFFFFFFFFFFFFFFFFFFFFFFF AND PUSH20 0xFFFFFFFFFFFFFFFFFFFFFFFFFFFFFFFFFFFFFFFF AND DUP2 MSTORE PUSH1 0x20 ADD SWAP1 DUP2 MSTORE PUSH1 0x20 ADD PUSH1 0x0 KECCAK256 PUSH2 0x4D53 JUMP JUMPDEST PUSH20 0xFFFFFFFFFFFFFFFFFFFFFFFFFFFFFFFFFFFFFFFF DUP6 AND PUSH2 0x3817 JUMPI PUSH32 0x2B6849D5976D799A5B0CA4DFD6B40A3D7AFE9EA72C091FA01A958594F9A2659B DUP5 DUP5 DUP5 DUP5 PUSH1 0x40 MLOAD PUSH2 0x380A SWAP5 SWAP4 SWAP3 SWAP2 SWAP1 PUSH2 0x6671 JUMP JUMPDEST PUSH1 0x40 MLOAD DUP1 SWAP2 SUB SWAP1 LOG1 PUSH2 0xEA7 JUMP JUMPDEST DUP5 PUSH20 0xFFFFFFFFFFFFFFFFFFFFFFFFFFFFFFFFFFFFFFFF AND PUSH32 0x535A93D2CB000582C0EBEAA9BE4890EC6A287F98EB2DF00C54C300612FD78D8F DUP6 DUP6 DUP6 DUP6 PUSH1 0x40 MLOAD PUSH2 0x2F3B SWAP5 SWAP4 SWAP3 SWAP2 SWAP1 PUSH2 0x6671 JUMP JUMPDEST CALLER PUSH1 0x0 SWAP1 DUP2 MSTORE PUSH1 0xD5 PUSH1 0x20 MSTORE PUSH1 0x40 SWAP1 KECCAK256 PUSH2 0x387D DUP4 DUP6 DUP4 PUSH2 0x6557 JUMP JUMPDEST POP CALLER PUSH1 0x0 SWAP1 DUP2 MSTORE PUSH1 0xD6 PUSH1 0x20 MSTORE PUSH1 0x40 SWAP1 KECCAK256 DUP1 SLOAD PUSH32 0xFFFFFFFFFFFFFFFFFFFFFFFFFFFFFFFFFFFFFFFFFFFFFFFFFFFFFFFFFFFFFF00 AND SWAP2 ISZERO ISZERO SWAP2 SWAP1 SWAP2 OR SWAP1 SSTORE POP POP JUMP JUMPDEST PUSH1 0x0 PUSH2 0x38C9 DUP3 PUSH2 0x17B6 JUMP JUMPDEST SWAP1 POP PUSH2 0x38D9 DUP2 PUSH1 0x0 DUP5 PUSH1 0x1 PUSH2 0x4E59 JUMP JUMPDEST PUSH2 0x38E2 DUP3 PUSH2 0x17B6 JUMP JUMPDEST PUSH1 0x0 DUP4 DUP2 MSTORE PUSH1 0x9E PUSH1 0x20 SWAP1 DUP2 MSTORE PUSH1 0x40 DUP1 DUP4 KECCAK256 DUP1 SLOAD PUSH32 0xFFFFFFFFFFFFFFFFFFFFFFFF0000000000000000000000000000000000000000 SWAP1 DUP2 AND SWAP1 SWAP2 SSTORE PUSH20 0xFFFFFFFFFFFFFFFFFFFFFFFFFFFFFFFFFFFFFFFF DUP6 AND DUP1 DUP6 MSTORE PUSH1 0x9D DUP5 MSTORE DUP3 DUP6 KECCAK256 DUP1 SLOAD PUSH32 0xFFFFFFFFFFFFFFFFFFFFFFFFFFFFFFFFFFFFFFFFFFFFFFFFFFFFFFFFFFFFFFFF ADD SWAP1 SSTORE DUP8 DUP6 MSTORE PUSH1 0x9C SWAP1 SWAP4 MSTORE DUP2 DUP5 KECCAK256 DUP1 SLOAD SWAP1 SWAP2 AND SWAP1 SSTORE MLOAD SWAP3 SWAP4 POP DUP5 SWAP3 PUSH32 0xDDF252AD1BE2C89B69C2B068FC378DAA952BA7F163C4A11628F55A4DF523B3EF SWAP1 DUP4 SWAP1 LOG4 POP POP JUMP JUMPDEST PUSH1 0x0 DUP2 DUP2 MSTORE PUSH1 0xD4 PUSH1 0x20 MSTORE PUSH1 0x40 SWAP1 KECCAK256 SLOAD PUSH20 0xFFFFFFFFFFFFFFFFFFFFFFFFFFFFFFFFFFFFFFFF AND ISZERO PUSH2 0x3ABC JUMPI PUSH1 0x0 DUP2 DUP2 MSTORE PUSH1 0xD4 PUSH1 0x20 MSTORE PUSH1 0x40 SWAP1 KECCAK256 SLOAD PUSH2 0x3A1D SWAP1 PUSH20 0xFFFFFFFFFFFFFFFFFFFFFFFFFFFFFFFFFFFFFFFF AND PUSH32 0x45A1B92C00000000000000000000000000000000000000000000000000000000 PUSH2 0x50F9 JUMP JUMPDEST ISZERO PUSH2 0x3ABC JUMPI PUSH1 0x0 DUP2 DUP2 MSTORE PUSH1 0xD4 PUSH1 0x20 MSTORE PUSH1 0x40 SWAP1 DUP2 SWAP1 KECCAK256 SLOAD SWAP1 MLOAD PUSH32 0x45A1B92C00000000000000000000000000000000000000000000000000000000 DUP2 MSTORE PUSH20 0xFFFFFFFFFFFFFFFFFFFFFFFFFFFFFFFFFFFFFFFF DUP5 DUP2 AND PUSH1 0x4 DUP4 ADD MSTORE PUSH1 0x24 DUP3 ADD DUP5 SWAP1 MSTORE SWAP1 SWAP2 AND SWAP1 PUSH4 0x45A1B92C SWAP1 PUSH1 0x44 ADD PUSH1 0x0 PUSH1 0x40 MLOAD DUP1 DUP4 SUB DUP2 PUSH1 0x0 DUP8 DUP1 EXTCODESIZE ISZERO DUP1 ISZERO PUSH2 0x3AA3 JUMPI PUSH1 0x0 DUP1 REVERT JUMPDEST POP GAS CALL ISZERO DUP1 ISZERO PUSH2 0x3AB7 JUMPI RETURNDATASIZE PUSH1 0x0 DUP1 RETURNDATACOPY RETURNDATASIZE PUSH1 0x0 REVERT JUMPDEST POP POP POP POP JUMPDEST PUSH1 0x0 DUP2 DUP2 MSTORE PUSH1 0xD8 PUSH1 0x20 MSTORE PUSH1 0x40 SWAP1 KECCAK256 DUP1 SLOAD PUSH2 0x3AD5 SWAP1 PUSH2 0x62AF JUMP JUMPDEST ISZERO SWAP1 POP PUSH2 0x3AF3 JUMPI PUSH1 0x0 DUP2 DUP2 MSTORE PUSH1 0xD8 PUSH1 0x20 MSTORE PUSH1 0x40 DUP2 KECCAK256 PUSH2 0x3AF3 SWAP2 PUSH2 0x591E JUMP JUMPDEST PUSH1 0x0 SWAP1 DUP2 MSTORE PUSH1 0xD4 PUSH1 0x20 MSTORE PUSH1 0x40 SWAP1 KECCAK256 DUP1 SLOAD PUSH32 0xFFFFFFFFFFFFFFFFFFFFFFFF0000000000000000000000000000000000000000 AND SWAP1 SSTORE POP JUMP JUMPDEST PUSH1 0xCD DUP1 SLOAD PUSH32 0xFFFFFFFFFFFFFFFFFFFFFFFF0000000000000000000000000000000000000000 AND PUSH20 0xFFFFFFFFFFFFFFFFFFFFFFFFFFFFFFFFFFFFFFFF DUP4 AND SWAP1 DUP2 OR SWAP1 SWAP2 SSTORE PUSH1 0x40 MLOAD SWAP1 DUP2 MSTORE PUSH32 0x959C0E47A2FE3CF01E237BA4892E2CC3194D77CBFB33E434E40873225D6B595F SWAP1 PUSH1 0x20 ADD PUSH1 0x40 MLOAD DUP1 SWAP2 SUB SWAP1 LOG1 POP JUMP JUMPDEST PUSH1 0x0 DUP4 DUP2 MSTORE PUSH1 0xD4 PUSH1 0x20 MSTORE PUSH1 0x40 SWAP1 KECCAK256 SLOAD PUSH20 0xFFFFFFFFFFFFFFFFFFFFFFFFFFFFFFFFFFFFFFFF AND CALLER EQ PUSH2 0x2EAA JUMPI PUSH1 0x40 MLOAD PUSH32 0x8C379A000000000000000000000000000000000000000000000000000000000 DUP2 MSTORE PUSH1 0x20 PUSH1 0x4 DUP3 ADD MSTORE PUSH1 0xD PUSH1 0x24 DUP3 ADD MSTORE PUSH32 0x496E76616C696420746F6B656E00000000000000000000000000000000000000 PUSH1 0x44 DUP3 ADD MSTORE PUSH1 0x64 ADD PUSH2 0x947 JUMP JUMPDEST CALLER PUSH1 0x0 SWAP1 DUP2 MSTORE PUSH1 0xD7 PUSH1 0x20 MSTORE PUSH1 0x40 SWAP1 KECCAK256 PUSH2 0xBC2 DUP3 DUP5 DUP4 PUSH2 0x6557 JUMP JUMPDEST PUSH1 0x0 PUSH2 0x1535 DUP4 PUSH20 0xFFFFFFFFFFFFFFFFFFFFFFFFFFFFFFFFFFFFFFFF DUP5 AND PUSH2 0x5115 JUMP JUMPDEST PUSH1 0x33 DUP1 SLOAD PUSH20 0xFFFFFFFFFFFFFFFFFFFFFFFFFFFFFFFFFFFFFFFF DUP4 DUP2 AND PUSH32 0xFFFFFFFFFFFFFFFFFFFFFFFF0000000000000000000000000000000000000000 DUP4 AND DUP2 OR SWAP1 SWAP4 SSTORE PUSH1 0x40 MLOAD SWAP2 AND SWAP2 SWAP1 DUP3 SWAP1 PUSH32 0x8BE0079C531659141344CD1FD0A4F28419497F9722A3DAAFE3B4186F6B6457E0 SWAP1 PUSH1 0x0 SWAP1 LOG3 POP POP JUMP JUMPDEST PUSH1 0x0 DUP1 MSTORE PUSH1 0xD7 PUSH1 0x20 MSTORE PUSH32 0x8C93E91F2D3CDFE48D7E628F6E539BF3196799B8A9F7303C20A1106CA52F335A PUSH2 0xBC2 DUP3 DUP5 DUP4 PUSH2 0x6557 JUMP JUMPDEST DUP2 PUSH20 0xFFFFFFFFFFFFFFFFFFFFFFFFFFFFFFFFFFFFFFFF AND DUP4 PUSH20 0xFFFFFFFFFFFFFFFFFFFFFFFFFFFFFFFFFFFFFFFF AND SUB PUSH2 0x3DAD JUMPI PUSH1 0x40 MLOAD PUSH32 0x8C379A000000000000000000000000000000000000000000000000000000000 DUP2 MSTORE PUSH1 0x20 PUSH1 0x4 DUP3 ADD MSTORE PUSH1 0x19 PUSH1 0x24 DUP3 ADD MSTORE PUSH32 0x4552433732313A20617070726F766520746F2063616C6C657200000000000000 PUSH1 0x44 DUP3 ADD MSTORE PUSH1 0x64 ADD PUSH2 0x947 JUMP JUMPDEST PUSH20 0xFFFFFFFFFFFFFFFFFFFFFFFFFFFFFFFFFFFFFFFF DUP4 DUP2 AND PUSH1 0x0 DUP2 DUP2 MSTORE PUSH1 0x9F PUSH1 0x20 SWAP1 DUP2 MSTORE PUSH1 0x40 DUP1 DUP4 KECCAK256 SWAP5 DUP8 AND DUP1 DUP5 MSTORE SWAP5 DUP3 MSTORE SWAP2 DUP3 SWAP1 KECCAK256 DUP1 SLOAD PUSH32 0xFFFFFFFFFFFFFFFFFFFFFFFFFFFFFFFFFFFFFFFFFFFFFFFFFFFFFFFFFFFFFF00 AND DUP7 ISZERO ISZERO SWAP1 DUP2 OR SWAP1 SWAP2 SSTORE SWAP2 MLOAD SWAP2 DUP3 MSTORE PUSH32 0x17307EAB39AB6107E8899845AD3D59BD9653F200F220920489CA2B5937696C31 SWAP2 ADD PUSH1 0x40 MLOAD DUP1 SWAP2 SUB SWAP1 LOG3 POP POP POP JUMP JUMPDEST PUSH2 0x3E6F DUP3 PUSH32 0x45FFCDAD00000000000000000000000000000000000000000000000000000000 PUSH2 0x50F9 JUMP JUMPDEST ISZERO PUSH2 0x1188 JUMPI PUSH20 0xFFFFFFFFFFFFFFFFFFFFFFFFFFFFFFFFFFFFFFFF DUP3 AND PUSH1 0x0 DUP2 DUP2 MSTORE PUSH1 0xD3 PUSH1 0x20 SWAP1 DUP2 MSTORE PUSH1 0x40 SWAP2 DUP3 SWAP1 KECCAK256 DUP1 SLOAD PUSH32 0xFFFFFFFFFFFFFFFFFFFFFFFFFFFFFFFFFFFFFFFFFFFFFFFFFFFFFFFFFFFFFF00 AND DUP6 ISZERO ISZERO SWAP1 DUP2 OR SWAP1 SWAP2 SSTORE SWAP2 MLOAD SWAP2 DUP3 MSTORE PUSH32 0x72A7592283E2C2D1D56D21517FF6013325E0F55483F4828373FF4D98B0A1A36 SWAP2 ADD PUSH1 0x40 MLOAD DUP1 SWAP2 SUB SWAP1 LOG2 POP POP JUMP JUMPDEST PUSH2 0x3F09 DUP5 DUP5 DUP5 PUSH2 0x3108 JUMP JUMPDEST PUSH2 0x3F15 DUP5 DUP5 DUP5 DUP5 PUSH2 0x5164 JUMP JUMPDEST PUSH2 0x143B JUMPI PUSH1 0x40 MLOAD PUSH32 0x8C379A000000000000000000000000000000000000000000000000000000000 DUP2 MSTORE PUSH1 0x20 PUSH1 0x4 DUP3 ADD MSTORE PUSH1 0x32 PUSH1 0x24 DUP3 ADD MSTORE PUSH32 0x4552433732313A207472616E7366657220746F206E6F6E204552433732315265 PUSH1 0x44 DUP3 ADD MSTORE PUSH32 0x63656976657220696D706C656D656E7465720000000000000000000000000000 PUSH1 0x64 DUP3 ADD MSTORE PUSH1 0x84 ADD PUSH2 0x947 JUMP JUMPDEST PUSH1 0x60 PUSH2 0x3FAC DUP3 PUSH2 0x3FB3 JUMP JUMPDEST POP SWAP3 SWAP2 POP POP JUMP JUMPDEST PUSH1 0x60 DUP1 PUSH1 0x0 PUSH1 0xDA PUSH1 0x0 DUP6 DUP2 MSTORE PUSH1 0x20 ADD SWAP1 DUP2 MSTORE PUSH1 0x20 ADD PUSH1 0x0 KECCAK256 DUP1 SLOAD DUP1 PUSH1 0x20 MUL PUSH1 0x20 ADD PUSH1 0x40 MLOAD SWAP1 DUP2 ADD PUSH1 0x40 MSTORE DUP1 SWAP3 SWAP2 SWAP1 DUP2 DUP2 MSTORE PUSH1 0x20 ADD PUSH1 0x0 SWAP1 JUMPDEST DUP3 DUP3 LT ISZERO PUSH2 0x4053 JUMPI PUSH1 0x0 DUP5 DUP2 MSTORE PUSH1 0x20 SWAP1 DUP2 SWAP1 KECCAK256 PUSH1 0x40 DUP1 MLOAD DUP1 DUP3 ADD SWAP1 SWAP2 MSTORE SWAP1 DUP5 ADD SLOAD PUSH20 0xFFFFFFFFFFFFFFFFFFFFFFFFFFFFFFFFFFFFFFFF DUP2 AND DUP3 MSTORE PUSH21 0x10000000000000000000000000000000000000000 SWAP1 DIV PUSH2 0xFFFF AND DUP2 DUP4 ADD MSTORE DUP3 MSTORE PUSH1 0x1 SWAP1 SWAP3 ADD SWAP2 ADD PUSH2 0x3FEB JUMP JUMPDEST POP POP POP POP SWAP1 POP DUP1 MLOAD PUSH1 0x0 SUB PUSH2 0x4237 JUMPI PUSH1 0x0 DUP5 DUP2 MSTORE PUSH1 0xD4 PUSH1 0x20 MSTORE PUSH1 0x40 SWAP1 KECCAK256 SLOAD PUSH20 0xFFFFFFFFFFFFFFFFFFFFFFFFFFFFFFFFFFFFFFFF AND DUP1 ISZERO PUSH2 0x4235 JUMPI PUSH2 0x40B7 DUP2 PUSH32 0x9CA7DC7A00000000000000000000000000000000000000000000000000000000 PUSH2 0x50F9 JUMP JUMPDEST ISZERO PUSH2 0x4186 JUMPI PUSH1 0x40 MLOAD PUSH32 0x9CA7DC7A00000000000000000000000000000000000000000000000000000000 DUP2 MSTORE ADDRESS PUSH1 0x4 DUP3 ADD MSTORE PUSH1 0x24 DUP2 ADD DUP7 SWAP1 MSTORE PUSH20 0xFFFFFFFFFFFFFFFFFFFFFFFFFFFFFFFFFFFFFFFF DUP3 AND SWAP1 PUSH4 0x9CA7DC7A SWAP1 PUSH1 0x44 ADD PUSH1 0x0 PUSH1 0x40 MLOAD DUP1 DUP4 SUB DUP2 DUP7 GAS STATICCALL ISZERO DUP1 ISZERO PUSH2 0x412D JUMPI RETURNDATASIZE PUSH1 0x0 DUP1 RETURNDATACOPY RETURNDATASIZE PUSH1 0x0 REVERT JUMPDEST POP POP POP POP PUSH1 0x40 MLOAD RETURNDATASIZE PUSH1 0x0 DUP3 RETURNDATACOPY PUSH1 0x1F RETURNDATASIZE SWAP1 DUP2 ADD PUSH32 0xFFFFFFFFFFFFFFFFFFFFFFFFFFFFFFFFFFFFFFFFFFFFFFFFFFFFFFFFFFFFFFE0 AND DUP3 ADD PUSH1 0x40 MSTORE PUSH2 0x4173 SWAP2 SWAP1 DUP2 ADD SWAP1 PUSH2 0x67CD JUMP JUMPDEST DUP2 MLOAD SWAP2 SWAP6 POP SWAP4 POP ISZERO PUSH2 0x4186 JUMPI POP POP SWAP2 POP SWAP2 JUMP JUMPDEST PUSH20 0xFFFFFFFFFFFFFFFFFFFFFFFFFFFFFFFFFFFFFFFF DUP2 AND PUSH1 0x0 SWAP1 DUP2 MSTORE PUSH1 0xD9 PUSH1 0x20 SWAP1 DUP2 MSTORE PUSH1 0x40 DUP1 DUP4 KECCAK256 DUP1 SLOAD DUP3 MLOAD DUP2 DUP6 MUL DUP2 ADD DUP6 ADD SWAP1 SWAP4 MSTORE DUP1 DUP4 MSTORE SWAP2 SWAP4 SWAP1 SWAP3 DUP5 ADD JUMPDEST DUP3 DUP3 LT ISZERO PUSH2 0x422E JUMPI PUSH1 0x0 DUP5 DUP2 MSTORE PUSH1 0x20 SWAP1 DUP2 SWAP1 KECCAK256 PUSH1 0x40 DUP1 MLOAD DUP1 DUP3 ADD SWAP1 SWAP2 MSTORE SWAP1 DUP5 ADD SLOAD PUSH20 0xFFFFFFFFFFFFFFFFFFFFFFFFFFFFFFFFFFFFFFFF DUP2 AND DUP3 MSTORE PUSH21 0x10000000000000000000000000000000000000000 SWAP1 DIV PUSH2 0xFFFF AND DUP2 DUP4 ADD MSTORE DUP3 MSTORE PUSH1 0x1 SWAP1 SWAP3 ADD SWAP2 ADD PUSH2 0x41C6 JUMP JUMPDEST POP POP POP POP SWAP2 POP JUMPDEST POP JUMPDEST DUP1 MLOAD PUSH1 0x0 SUB PUSH2 0x42F8 JUMPI PUSH1 0x0 DUP1 DUP1 MSTORE PUSH1 0xD9 PUSH1 0x20 SWAP1 DUP2 MSTORE PUSH32 0x665FECB6766038646257FB3193371280B91D4EE69F1071872C4C7B974431A488 DUP1 SLOAD PUSH1 0x40 DUP1 MLOAD DUP3 DUP6 MUL DUP2 ADD DUP6 ADD SWAP1 SWAP2 MSTORE DUP2 DUP2 MSTORE SWAP4 SWAP2 SWAP3 SWAP1 SWAP2 SWAP1 DUP5 ADD JUMPDEST DUP3 DUP3 LT ISZERO PUSH2 0x42F1 JUMPI PUSH1 0x0 DUP5 DUP2 MSTORE PUSH1 0x20 SWAP1 DUP2 SWAP1 KECCAK256 PUSH1 0x40 DUP1 MLOAD DUP1 DUP3 ADD SWAP1 SWAP2 MSTORE SWAP1 DUP5 ADD SLOAD PUSH20 0xFFFFFFFFFFFFFFFFFFFFFFFFFFFFFFFFFFFFFFFF DUP2 AND DUP3 MSTORE PUSH21 0x10000000000000000000000000000000000000000 SWAP1 DIV PUSH2 0xFFFF AND DUP2 DUP4 ADD MSTORE DUP3 MSTORE PUSH1 0x1 SWAP1 SWAP3 ADD SWAP2 ADD PUSH2 0x4289 JUMP JUMPDEST POP POP POP POP SWAP1 POP JUMPDEST DUP1 MLOAD ISZERO PUSH2 0x444A JUMPI DUP1 MLOAD PUSH8 0xFFFFFFFFFFFFFFFF DUP2 GT ISZERO PUSH2 0x4319 JUMPI PUSH2 0x4319 PUSH2 0x5E42 JUMP JUMPDEST PUSH1 0x40 MLOAD SWAP1 DUP1 DUP3 MSTORE DUP1 PUSH1 0x20 MUL PUSH1 0x20 ADD DUP3 ADD PUSH1 0x40 MSTORE DUP1 ISZERO PUSH2 0x4342 JUMPI DUP2 PUSH1 0x20 ADD PUSH1 0x20 DUP3 MUL DUP1 CALLDATASIZE DUP4 CALLDATACOPY ADD SWAP1 POP JUMPDEST POP SWAP3 POP DUP1 MLOAD PUSH8 0xFFFFFFFFFFFFFFFF DUP2 GT ISZERO PUSH2 0x435F JUMPI PUSH2 0x435F PUSH2 0x5E42 JUMP JUMPDEST PUSH1 0x40 MLOAD SWAP1 DUP1 DUP3 MSTORE DUP1 PUSH1 0x20 MUL PUSH1 0x20 ADD DUP3 ADD PUSH1 0x40 MSTORE DUP1 ISZERO PUSH2 0x4388 JUMPI DUP2 PUSH1 0x20 ADD PUSH1 0x20 DUP3 MUL DUP1 CALLDATASIZE DUP4 CALLDATACOPY ADD SWAP1 POP JUMPDEST POP SWAP2 POP PUSH1 0x0 JUMPDEST DUP2 MLOAD DUP2 LT ISZERO PUSH2 0x4448 JUMPI DUP2 DUP2 DUP2 MLOAD DUP2 LT PUSH2 0x43A9 JUMPI PUSH2 0x43A9 PUSH2 0x62FC JUMP JUMPDEST PUSH1 0x20 MUL PUSH1 0x20 ADD ADD MLOAD PUSH1 0x0 ADD MLOAD DUP5 DUP3 DUP2 MLOAD DUP2 LT PUSH2 0x43C7 JUMPI PUSH2 0x43C7 PUSH2 0x62FC JUMP JUMPDEST PUSH1 0x20 MUL PUSH1 0x20 ADD ADD SWAP1 PUSH20 0xFFFFFFFFFFFFFFFFFFFFFFFFFFFFFFFFFFFFFFFF AND SWAP1 DUP2 PUSH20 0xFFFFFFFFFFFFFFFFFFFFFFFFFFFFFFFFFFFFFFFF AND DUP2 MSTORE POP POP DUP2 DUP2 DUP2 MLOAD DUP2 LT PUSH2 0x4413 JUMPI PUSH2 0x4413 PUSH2 0x62FC JUMP JUMPDEST PUSH1 0x20 MUL PUSH1 0x20 ADD ADD MLOAD PUSH1 0x20 ADD MLOAD PUSH2 0xFFFF AND DUP4 DUP3 DUP2 MLOAD DUP2 LT PUSH2 0x4435 JUMPI PUSH2 0x4435 PUSH2 0x62FC JUMP JUMPDEST PUSH1 0x20 SWAP1 DUP2 MUL SWAP2 SWAP1 SWAP2 ADD ADD MSTORE PUSH1 0x1 ADD PUSH2 0x438E JUMP JUMPDEST POP JUMPDEST POP SWAP2 POP SWAP2 JUMP JUMPDEST PUSH1 0x60 PUSH1 0x0 DUP3 GT DUP1 ISZERO PUSH2 0x4464 JUMPI POP PUSH1 0xCC SLOAD DUP3 GT ISZERO JUMPDEST PUSH2 0x44CA JUMPI PUSH1 0x40 MLOAD PUSH32 0x8C379A000000000000000000000000000000000000000000000000000000000 DUP2 MSTORE PUSH1 0x20 PUSH1 0x4 DUP3 ADD MSTORE PUSH1 0xD PUSH1 0x24 DUP3 ADD MSTORE PUSH32 0x496E76616C696420746F6B656E00000000000000000000000000000000000000 PUSH1 0x44 DUP3 ADD MSTORE PUSH1 0x64 ADD PUSH2 0x947 JUMP JUMPDEST PUSH1 0x0 DUP3 DUP2 MSTORE PUSH1 0xD4 PUSH1 0x20 MSTORE PUSH1 0x40 SWAP1 KECCAK256 SLOAD PUSH20 0xFFFFFFFFFFFFFFFFFFFFFFFFFFFFFFFFFFFFFFFF AND PUSH2 0x44FA PUSH1 0xD0 DUP3 PUSH2 0x2AF8 JUMP JUMPDEST ISZERO PUSH2 0x4561 JUMPI PUSH1 0x40 MLOAD PUSH32 0x8C379A000000000000000000000000000000000000000000000000000000000 DUP2 MSTORE PUSH1 0x20 PUSH1 0x4 DUP3 ADD MSTORE PUSH1 0x15 PUSH1 0x24 DUP3 ADD MSTORE PUSH32 0x457874656E73696F6E20626C61636B6C69737465640000000000000000000000 PUSH1 0x44 DUP3 ADD MSTORE PUSH1 0x64 ADD PUSH2 0x947 JUMP JUMPDEST PUSH1 0x0 DUP4 DUP2 MSTORE PUSH1 0xD8 PUSH1 0x20 MSTORE PUSH1 0x40 SWAP1 KECCAK256 DUP1 SLOAD PUSH2 0x457A SWAP1 PUSH2 0x62AF JUMP JUMPDEST ISZERO SWAP1 POP PUSH2 0x46AE JUMPI PUSH20 0xFFFFFFFFFFFFFFFFFFFFFFFFFFFFFFFFFFFFFFFF DUP2 AND PUSH1 0x0 SWAP1 DUP2 MSTORE PUSH1 0xD7 PUSH1 0x20 MSTORE PUSH1 0x40 SWAP1 KECCAK256 DUP1 SLOAD PUSH2 0x45B1 SWAP1 PUSH2 0x62AF JUMP JUMPDEST ISZERO SWAP1 POP PUSH2 0x460F JUMPI PUSH20 0xFFFFFFFFFFFFFFFFFFFFFFFFFFFFFFFFFFFFFFFF DUP2 AND PUSH1 0x0 SWAP1 DUP2 MSTORE PUSH1 0xD7 PUSH1 0x20 SWAP1 DUP2 MSTORE PUSH1 0x40 DUP1 DUP4 KECCAK256 DUP7 DUP5 MSTORE PUSH1 0xD8 DUP4 MSTORE SWAP3 DUP2 SWAP1 KECCAK256 SWAP1 MLOAD PUSH2 0x45F8 SWAP4 SWAP3 ADD PUSH2 0x6923 JUMP JUMPDEST PUSH1 0x40 MLOAD PUSH1 0x20 DUP2 DUP4 SUB SUB DUP2 MSTORE SWAP1 PUSH1 0x40 MSTORE SWAP2 POP POP SWAP2 SWAP1 POP JUMP JUMPDEST PUSH1 0x0 DUP4 DUP2 MSTORE PUSH1 0xD8 PUSH1 0x20 MSTORE PUSH1 0x40 SWAP1 KECCAK256 DUP1 SLOAD PUSH2 0x4628 SWAP1 PUSH2 0x62AF JUMP JUMPDEST DUP1 PUSH1 0x1F ADD PUSH1 0x20 DUP1 SWAP2 DIV MUL PUSH1 0x20 ADD PUSH1 0x40 MLOAD SWAP1 DUP2 ADD PUSH1 0x40 MSTORE DUP1 SWAP3 SWAP2 SWAP1 DUP2 DUP2 MSTORE PUSH1 0x20 ADD DUP3 DUP1 SLOAD PUSH2 0x4654 SWAP1 PUSH2 0x62AF JUMP JUMPDEST DUP1 ISZERO PUSH2 0x46A1 JUMPI DUP1 PUSH1 0x1F LT PUSH2 0x4676 JUMPI PUSH2 0x100 DUP1 DUP4 SLOAD DIV MUL DUP4 MSTORE SWAP2 PUSH1 0x20 ADD SWAP2 PUSH2 0x46A1 JUMP JUMPDEST DUP3 ADD SWAP2 SWAP1 PUSH1 0x0 MSTORE PUSH1 0x20 PUSH1 0x0 KECCAK256 SWAP1 JUMPDEST DUP2 SLOAD DUP2 MSTORE SWAP1 PUSH1 0x1 ADD SWAP1 PUSH1 0x20 ADD DUP1 DUP4 GT PUSH2 0x4684 JUMPI DUP3 SWAP1 SUB PUSH1 0x1F AND DUP3 ADD SWAP2 JUMPDEST POP POP POP POP POP SWAP2 POP POP SWAP2 SWAP1 POP JUMP JUMPDEST PUSH2 0x46D8 DUP2 PUSH32 0xE9DC637500000000000000000000000000000000000000000000000000000000 PUSH2 0x50F9 JUMP JUMPDEST ISZERO PUSH2 0x4794 JUMPI PUSH1 0x40 MLOAD PUSH32 0xE9DC637500000000000000000000000000000000000000000000000000000000 DUP2 MSTORE ADDRESS PUSH1 0x4 DUP3 ADD MSTORE PUSH1 0x24 DUP2 ADD DUP5 SWAP1 MSTORE PUSH20 0xFFFFFFFFFFFFFFFFFFFFFFFFFFFFFFFFFFFFFFFF DUP3 AND SWAP1 PUSH4 0xE9DC6375 SWAP1 PUSH1 0x44 ADD PUSH1 0x0 PUSH1 0x40 MLOAD DUP1 DUP4 SUB DUP2 DUP7 GAS STATICCALL ISZERO DUP1 ISZERO PUSH2 0x474E JUMPI RETURNDATASIZE PUSH1 0x0 DUP1 RETURNDATACOPY RETURNDATASIZE PUSH1 0x0 REVERT JUMPDEST POP POP POP POP PUSH1 0x40 MLOAD RETURNDATASIZE PUSH1 0x0 DUP3 RETURNDATACOPY PUSH1 0x1F RETURNDATASIZE SWAP1 DUP2 ADD PUSH32 0xFFFFFFFFFFFFFFFFFFFFFFFFFFFFFFFFFFFFFFFFFFFFFFFFFFFFFFFFFFFFFFE0 AND DUP3 ADD PUSH1 0x40 MSTORE PUSH2 0x1535 SWAP2 SWAP1 DUP2 ADD SWAP1 PUSH2 0x6938 JUMP JUMPDEST PUSH20 0xFFFFFFFFFFFFFFFFFFFFFFFFFFFFFFFFFFFFFFFF DUP2 AND PUSH1 0x0 SWAP1 DUP2 MSTORE PUSH1 0xD6 PUSH1 0x20 MSTORE PUSH1 0x40 SWAP1 KECCAK256 SLOAD PUSH1 0xFF AND PUSH2 0x4800 JUMPI PUSH20 0xFFFFFFFFFFFFFFFFFFFFFFFFFFFFFFFFFFFFFFFF DUP2 AND PUSH1 0x0 SWAP1 DUP2 MSTORE PUSH1 0xD5 PUSH1 0x20 MSTORE PUSH1 0x40 SWAP1 KECCAK256 PUSH2 0x47EF DUP5 PUSH2 0x5357 JUMP JUMPDEST PUSH1 0x40 MLOAD PUSH1 0x20 ADD PUSH2 0x45F8 SWAP3 SWAP2 SWAP1 PUSH2 0x69A6 JUMP JUMPDEST PUSH20 0xFFFFFFFFFFFFFFFFFFFFFFFFFFFFFFFFFFFFFFFF DUP2 AND PUSH1 0x0 SWAP1 DUP2 MSTORE PUSH1 0xD5 PUSH1 0x20 MSTORE PUSH1 0x40 SWAP1 KECCAK256 DUP1 SLOAD PUSH2 0x4628 SWAP1 PUSH2 0x62AF JUMP JUMPDEST POP SWAP2 SWAP1 POP JUMP JUMPDEST PUSH1 0x40 MLOAD CALLER SWAP1 PUSH20 0xFFFFFFFFFFFFFFFFFFFFFFFFFFFFFFFFFFFFFFFF DUP4 AND SWAP1 PUSH32 0xD19CF84CF0FEC6BEC9DDFA29C63ADF83A55707C712F32C8285D6180A78901479 SWAP1 PUSH1 0x0 SWAP1 LOG3 PUSH2 0x1188 PUSH1 0xCE DUP3 PUSH2 0x36C9 JUMP JUMPDEST PUSH2 0x488F PUSH1 0xCE DUP4 PUSH2 0x2AF8 JUMP JUMPDEST PUSH2 0x48F5 JUMPI PUSH1 0x40 MLOAD PUSH32 0x8C379A000000000000000000000000000000000000000000000000000000000 DUP2 MSTORE PUSH1 0x20 PUSH1 0x4 DUP3 ADD MSTORE PUSH1 0x1E PUSH1 0x24 DUP3 ADD MSTORE PUSH32 0x43726561746F72436F72653A20496E76616C696420657874656E73696F6E0000 PUSH1 0x44 DUP3 ADD MSTORE PUSH1 0x64 ADD PUSH2 0x947 JUMP JUMPDEST PUSH20 0xFFFFFFFFFFFFFFFFFFFFFFFFFFFFFFFFFFFFFFFF DUP2 AND ISZERO DUP1 PUSH2 0x493D JUMPI POP PUSH2 0x493D DUP2 PUSH32 0xF029C2D800000000000000000000000000000000000000000000000000000000 PUSH2 0x50F9 JUMP JUMPDEST PUSH2 0x49A3 JUMPI PUSH1 0x40 MLOAD PUSH32 0x8C379A000000000000000000000000000000000000000000000000000000000 DUP2 MSTORE PUSH1 0x20 PUSH1 0x4 DUP3 ADD MSTORE PUSH1 0xF PUSH1 0x24 DUP3 ADD MSTORE PUSH32 0x496E76616C696420616464726573730000000000000000000000000000000000 PUSH1 0x44 DUP3 ADD MSTORE PUSH1 0x64 ADD PUSH2 0x947 JUMP JUMPDEST PUSH20 0xFFFFFFFFFFFFFFFFFFFFFFFFFFFFFFFFFFFFFFFF DUP3 DUP2 AND PUSH1 0x0 SWAP1 DUP2 MSTORE PUSH1 0xD2 PUSH1 0x20 MSTORE PUSH1 0x40 SWAP1 KECCAK256 SLOAD DUP2 AND SWAP1 DUP3 AND EQ PUSH2 0x1188 JUMPI PUSH20 0xFFFFFFFFFFFFFFFFFFFFFFFFFFFFFFFFFFFFFFFF DUP3 DUP2 AND PUSH1 0x0 DUP2 DUP2 MSTORE PUSH1 0xD2 PUSH1 0x20 MSTORE PUSH1 0x40 DUP1 DUP3 KECCAK256 DUP1 SLOAD PUSH32 0xFFFFFFFFFFFFFFFFFFFFFFFF0000000000000000000000000000000000000000 AND SWAP5 DUP7 AND SWAP5 DUP6 OR SWAP1 SSTORE MLOAD CALLER SWAP4 SWAP3 SWAP2 PUSH32 0x6A835C4FCF7E0D398DB3762332FDAA1471814AD39F1E2D6D0B3FDABF8EFEE3E0 SWAP2 LOG4 POP POP JUMP JUMPDEST PUSH1 0x0 PUSH32 0xFFFFFFFF00000000000000000000000000000000000000000000000000000000 DUP3 AND PUSH32 0x5C1B715300000000000000000000000000000000000000000000000000000000 EQ DUP1 PUSH2 0x4AE6 JUMPI POP PUSH32 0xFFFFFFFF00000000000000000000000000000000000000000000000000000000 DUP3 AND PUSH32 0x28F10A2100000000000000000000000000000000000000000000000000000000 EQ JUMPDEST DUP1 PUSH2 0x4AF5 JUMPI POP PUSH2 0x4AF5 DUP3 PUSH2 0x297E JUMP JUMPDEST DUP1 PUSH2 0x4B41 JUMPI POP PUSH32 0xFFFFFFFF00000000000000000000000000000000000000000000000000000000 DUP3 AND PUSH32 0xBB3BAFD600000000000000000000000000000000000000000000000000000000 EQ JUMPDEST DUP1 PUSH2 0x4B8D JUMPI POP PUSH32 0xFFFFFFFF00000000000000000000000000000000000000000000000000000000 DUP3 AND PUSH32 0xB779958400000000000000000000000000000000000000000000000000000000 EQ JUMPDEST DUP1 PUSH2 0x4BD9 JUMPI POP PUSH32 0xFFFFFFFF00000000000000000000000000000000000000000000000000000000 DUP3 AND PUSH32 0xD5A06D4C00000000000000000000000000000000000000000000000000000000 EQ JUMPDEST DUP1 PUSH2 0x872 JUMPI POP PUSH32 0xFFFFFFFF00000000000000000000000000000000000000000000000000000000 DUP3 AND PUSH32 0x2A55205A00000000000000000000000000000000000000000000000000000000 EQ SWAP3 SWAP2 POP POP JUMP JUMPDEST PUSH2 0x1188 DUP3 DUP3 PUSH1 0x40 MLOAD DUP1 PUSH1 0x20 ADD PUSH1 0x40 MSTORE DUP1 PUSH1 0x0 DUP2 MSTORE POP PUSH2 0x5415 JUMP JUMPDEST DUP3 DUP2 EQ PUSH2 0x4CAD JUMPI PUSH1 0x40 MLOAD PUSH32 0x8C379A000000000000000000000000000000000000000000000000000000000 DUP2 MSTORE PUSH1 0x20 PUSH1 0x4 DUP3 ADD MSTORE PUSH1 0xD PUSH1 0x24 DUP3 ADD MSTORE PUSH32 0x496E76616C696420696E70757400000000000000000000000000000000000000 PUSH1 0x44 DUP3 ADD MSTORE PUSH1 0x64 ADD PUSH2 0x947 JUMP JUMPDEST PUSH1 0x0 DUP1 JUMPDEST DUP3 DUP2 LT ISZERO PUSH2 0x4CE7 JUMPI DUP4 DUP4 DUP3 DUP2 DUP2 LT PUSH2 0x4CCB JUMPI PUSH2 0x4CCB PUSH2 0x62FC JUMP JUMPDEST SWAP1 POP PUSH1 0x20 MUL ADD CALLDATALOAD DUP3 PUSH2 0x4CDD SWAP2 SWAP1 PUSH2 0x69CB JUMP JUMPDEST SWAP2 POP PUSH1 0x1 ADD PUSH2 0x4CB1 JUMP JUMPDEST POP PUSH2 0x2710 DUP2 LT PUSH2 0xEA7 JUMPI PUSH1 0x40 MLOAD PUSH32 0x8C379A000000000000000000000000000000000000000000000000000000000 DUP2 MSTORE PUSH1 0x20 PUSH1 0x4 DUP3 ADD MSTORE PUSH1 0x17 PUSH1 0x24 DUP3 ADD MSTORE PUSH32 0x496E76616C696420746F74616C20726F79616C74696573000000000000000000 PUSH1 0x44 DUP3 ADD MSTORE PUSH1 0x64 ADD PUSH2 0x947 JUMP JUMPDEST PUSH1 0x0 JUMPDEST DUP3 DUP2 LT ISZERO PUSH2 0x4E51 JUMPI DUP2 PUSH1 0x40 MLOAD DUP1 PUSH1 0x40 ADD PUSH1 0x40 MSTORE DUP1 DUP9 DUP9 DUP6 DUP2 DUP2 LT PUSH2 0x4D7C JUMPI PUSH2 0x4D7C PUSH2 0x62FC JUMP JUMPDEST SWAP1 POP PUSH1 0x20 MUL ADD PUSH1 0x20 DUP2 ADD SWAP1 PUSH2 0x4D91 SWAP2 SWAP1 PUSH2 0x5A11 JUMP JUMPDEST PUSH20 0xFFFFFFFFFFFFFFFFFFFFFFFFFFFFFFFFFFFFFFFF AND DUP2 MSTORE PUSH1 0x20 ADD DUP7 DUP7 DUP6 DUP2 DUP2 LT PUSH2 0x4DBE JUMPI PUSH2 0x4DBE PUSH2 0x62FC JUMP JUMPDEST PUSH2 0xFFFF PUSH1 0x20 SWAP2 DUP3 MUL SWAP4 SWAP1 SWAP4 ADD CALLDATALOAD DUP4 AND SWAP1 SWAP4 MSTORE POP DUP4 SLOAD PUSH1 0x1 DUP2 DUP2 ADD DUP7 SSTORE PUSH1 0x0 SWAP6 DUP7 MSTORE SWAP5 DUP4 SWAP1 KECCAK256 DUP5 MLOAD SWAP2 ADD DUP1 SLOAD SWAP5 SWAP1 SWAP4 ADD MLOAD SWAP1 SWAP2 AND PUSH21 0x10000000000000000000000000000000000000000 MUL PUSH32 0xFFFFFFFFFFFFFFFFFFFF00000000000000000000000000000000000000000000 SWAP1 SWAP4 AND PUSH20 0xFFFFFFFFFFFFFFFFFFFFFFFFFFFFFFFFFFFFFFFF SWAP1 SWAP2 AND OR SWAP2 SWAP1 SWAP2 OR SWAP1 SSTORE ADD PUSH2 0x4D56 JUMP JUMPDEST POP POP POP POP POP POP JUMP JUMPDEST PUSH1 0x1 DUP2 GT ISZERO PUSH2 0x143B JUMPI PUSH20 0xFFFFFFFFFFFFFFFFFFFFFFFFFFFFFFFFFFFFFFFF DUP5 AND ISZERO PUSH2 0x4EB9 JUMPI PUSH20 0xFFFFFFFFFFFFFFFFFFFFFFFFFFFFFFFFFFFFFFFF DUP5 AND PUSH1 0x0 SWAP1 DUP2 MSTORE PUSH1 0x9D PUSH1 0x20 MSTORE PUSH1 0x40 DUP2 KECCAK256 DUP1 SLOAD DUP4 SWAP3 SWAP1 PUSH2 0x4EB3 SWAP1 DUP5 SWAP1 PUSH2 0x69DE JUMP JUMPDEST SWAP1 SWAP2 SSTORE POP POP JUMPDEST PUSH20 0xFFFFFFFFFFFFFFFFFFFFFFFFFFFFFFFFFFFFFFFF DUP4 AND ISZERO PUSH2 0x143B JUMPI PUSH20 0xFFFFFFFFFFFFFFFFFFFFFFFFFFFFFFFFFFFFFFFF DUP4 AND PUSH1 0x0 SWAP1 DUP2 MSTORE PUSH1 0x9D PUSH1 0x20 MSTORE PUSH1 0x40 DUP2 KECCAK256 DUP1 SLOAD DUP4 SWAP3 SWAP1 PUSH2 0x4F0A SWAP1 DUP5 SWAP1 PUSH2 0x69CB JUMP JUMPDEST SWAP1 SWAP2 SSTORE POP POP POP POP POP POP JUMP JUMPDEST CALLER PUSH1 0x0 SWAP1 DUP2 MSTORE PUSH1 0xD2 PUSH1 0x20 MSTORE PUSH1 0x40 SWAP1 KECCAK256 SLOAD PUSH20 0xFFFFFFFFFFFFFFFFFFFFFFFFFFFFFFFFFFFFFFFF AND ISZERO PUSH2 0x1188 JUMPI CALLER PUSH1 0x0 DUP2 DUP2 MSTORE PUSH1 0xD2 PUSH1 0x20 MSTORE PUSH1 0x40 SWAP1 DUP2 SWAP1 KECCAK256 SLOAD SWAP1 MLOAD PUSH32 0xF029C2D800000000000000000000000000000000000000000000000000000000 DUP2 MSTORE PUSH1 0x4 DUP2 ADD SWAP3 SWAP1 SWAP3 MSTORE PUSH20 0xFFFFFFFFFFFFFFFFFFFFFFFFFFFFFFFFFFFFFFFF DUP5 DUP2 AND PUSH1 0x24 DUP5 ADD MSTORE PUSH1 0x44 DUP4 ADD DUP5 SWAP1 MSTORE AND SWAP1 PUSH4 0xF029C2D8 SWAP1 PUSH1 0x64 ADD PUSH1 0x0 PUSH1 0x40 MLOAD DUP1 DUP4 SUB DUP2 PUSH1 0x0 DUP8 DUP1 EXTCODESIZE ISZERO DUP1 ISZERO PUSH2 0x4FC8 JUMPI PUSH1 0x0 DUP1 REVERT JUMPDEST POP GAS CALL ISZERO DUP1 ISZERO PUSH2 0x4E51 JUMPI RETURNDATASIZE PUSH1 0x0 DUP1 RETURNDATACOPY RETURNDATASIZE PUSH1 0x0 REVERT JUMPDEST PUSH1 0x0 DUP2 DUP2 MSTORE PUSH1 0x1 DUP4 ADD PUSH1 0x20 MSTORE PUSH1 0x40 DUP2 KECCAK256 SLOAD DUP1 ISZERO PUSH2 0x50C5 JUMPI PUSH1 0x0 PUSH2 0x5000 PUSH1 0x1 DUP4 PUSH2 0x69DE JUMP JUMPDEST DUP6 SLOAD SWAP1 SWAP2 POP PUSH1 0x0 SWAP1 PUSH2 0x5014 SWAP1 PUSH1 0x1 SWAP1 PUSH2 0x69DE JUMP JUMPDEST SWAP1 POP DUP2 DUP2 EQ PUSH2 0x5079 JUMPI PUSH1 0x0 DUP7 PUSH1 0x0 ADD DUP3 DUP2 SLOAD DUP2 LT PUSH2 0x5034 JUMPI PUSH2 0x5034 PUSH2 0x62FC JUMP JUMPDEST SWAP1 PUSH1 0x0 MSTORE PUSH1 0x20 PUSH1 0x0 KECCAK256 ADD SLOAD SWAP1 POP DUP1 DUP8 PUSH1 0x0 ADD DUP5 DUP2 SLOAD DUP2 LT PUSH2 0x5057 JUMPI PUSH2 0x5057 PUSH2 0x62FC JUMP JUMPDEST PUSH1 0x0 SWAP2 DUP3 MSTORE PUSH1 0x20 DUP1 DUP4 KECCAK256 SWAP1 SWAP2 ADD SWAP3 SWAP1 SWAP3 SSTORE SWAP2 DUP3 MSTORE PUSH1 0x1 DUP9 ADD SWAP1 MSTORE PUSH1 0x40 SWAP1 KECCAK256 DUP4 SWAP1 SSTORE JUMPDEST DUP6 SLOAD DUP7 SWAP1 DUP1 PUSH2 0x508A JUMPI PUSH2 0x508A PUSH2 0x69F1 JUMP JUMPDEST PUSH1 0x1 SWAP1 SUB DUP2 DUP2 SWAP1 PUSH1 0x0 MSTORE PUSH1 0x20 PUSH1 0x0 KECCAK256 ADD PUSH1 0x0 SWAP1 SSTORE SWAP1 SSTORE DUP6 PUSH1 0x1 ADD PUSH1 0x0 DUP7 DUP2 MSTORE PUSH1 0x20 ADD SWAP1 DUP2 MSTORE PUSH1 0x20 ADD PUSH1 0x0 KECCAK256 PUSH1 0x0 SWAP1 SSTORE PUSH1 0x1 SWAP4 POP POP POP POP PUSH2 0x872 JUMP JUMPDEST PUSH1 0x0 SWAP2 POP POP PUSH2 0x872 JUMP JUMPDEST PUSH1 0x0 DUP3 PUSH1 0x0 ADD DUP3 DUP2 SLOAD DUP2 LT PUSH2 0x50E6 JUMPI PUSH2 0x50E6 PUSH2 0x62FC JUMP JUMPDEST SWAP1 PUSH1 0x0 MSTORE PUSH1 0x20 PUSH1 0x0 KECCAK256 ADD SLOAD SWAP1 POP SWAP3 SWAP2 POP POP JUMP JUMPDEST PUSH1 0x0 PUSH2 0x5104 DUP4 PUSH2 0x54B8 JUMP JUMPDEST DUP1 ISZERO PUSH2 0x1535 JUMPI POP PUSH2 0x1535 DUP4 DUP4 PUSH2 0x551C JUMP JUMPDEST PUSH1 0x0 DUP2 DUP2 MSTORE PUSH1 0x1 DUP4 ADD PUSH1 0x20 MSTORE PUSH1 0x40 DUP2 KECCAK256 SLOAD PUSH2 0x515C JUMPI POP DUP2 SLOAD PUSH1 0x1 DUP2 DUP2 ADD DUP5 SSTORE PUSH1 0x0 DUP5 DUP2 MSTORE PUSH1 0x20 DUP1 DUP3 KECCAK256 SWAP1 SWAP4 ADD DUP5 SWAP1 SSTORE DUP5 SLOAD DUP5 DUP3 MSTORE DUP3 DUP7 ADD SWAP1 SWAP4 MSTORE PUSH1 0x40 SWAP1 KECCAK256 SWAP2 SWAP1 SWAP2 SSTORE PUSH2 0x872 JUMP JUMPDEST POP PUSH1 0x0 PUSH2 0x872 JUMP JUMPDEST PUSH1 0x0 PUSH20 0xFFFFFFFFFFFFFFFFFFFFFFFFFFFFFFFFFFFFFFFF DUP5 AND EXTCODESIZE ISZERO PUSH2 0x534C JUMPI PUSH1 0x40 MLOAD PUSH32 0x150B7A0200000000000000000000000000000000000000000000000000000000 DUP2 MSTORE PUSH20 0xFFFFFFFFFFFFFFFFFFFFFFFFFFFFFFFFFFFFFFFF DUP6 AND SWAP1 PUSH4 0x150B7A02 SWAP1 PUSH2 0x51DB SWAP1 CALLER SWAP1 DUP10 SWAP1 DUP9 SWAP1 DUP9 SWAP1 PUSH1 0x4 ADD PUSH2 0x6A20 JUMP JUMPDEST PUSH1 0x20 PUSH1 0x40 MLOAD DUP1 DUP4 SUB DUP2 PUSH1 0x0 DUP8 GAS CALL SWAP3 POP POP POP DUP1 ISZERO PUSH2 0x5234 JUMPI POP PUSH1 0x40 DUP1 MLOAD PUSH1 0x1F RETURNDATASIZE SWAP1 DUP2 ADD PUSH32 0xFFFFFFFFFFFFFFFFFFFFFFFFFFFFFFFFFFFFFFFFFFFFFFFFFFFFFFFFFFFFFFE0 AND DUP3 ADD SWAP1 SWAP3 MSTORE PUSH2 0x5231 SWAP2 DUP2 ADD SWAP1 PUSH2 0x6A69 JUMP JUMPDEST PUSH1 0x1 JUMPDEST PUSH2 0x5301 JUMPI RETURNDATASIZE DUP1 DUP1 ISZERO PUSH2 0x5262 JUMPI PUSH1 0x40 MLOAD SWAP2 POP PUSH1 0x1F NOT PUSH1 0x3F RETURNDATASIZE ADD AND DUP3 ADD PUSH1 0x40 MSTORE RETURNDATASIZE DUP3 MSTORE RETURNDATASIZE PUSH1 0x0 PUSH1 0x20 DUP5 ADD RETURNDATACOPY PUSH2 0x5267 JUMP JUMPDEST PUSH1 0x60 SWAP2 POP JUMPDEST POP DUP1 MLOAD PUSH1 0x0 SUB PUSH2 0x52F9 JUMPI PUSH1 0x40 MLOAD PUSH32 0x8C379A000000000000000000000000000000000000000000000000000000000 DUP2 MSTORE PUSH1 0x20 PUSH1 0x4 DUP3 ADD MSTORE PUSH1 0x32 PUSH1 0x24 DUP3 ADD MSTORE PUSH32 0x4552433732313A207472616E7366657220746F206E6F6E204552433732315265 PUSH1 0x44 DUP3 ADD MSTORE PUSH32 0x63656976657220696D706C656D656E7465720000000000000000000000000000 PUSH1 0x64 DUP3 ADD MSTORE PUSH1 0x84 ADD PUSH2 0x947 JUMP JUMPDEST DUP1 MLOAD DUP2 PUSH1 0x20 ADD REVERT JUMPDEST PUSH32 0xFFFFFFFF00000000000000000000000000000000000000000000000000000000 AND PUSH32 0x150B7A0200000000000000000000000000000000000000000000000000000000 EQ SWAP1 POP PUSH2 0x3100 JUMP JUMPDEST POP PUSH1 0x1 SWAP5 SWAP4 POP POP POP POP JUMP JUMPDEST PUSH1 0x60 PUSH1 0x0 PUSH2 0x5364 DUP4 PUSH2 0x55EB JUMP JUMPDEST PUSH1 0x1 ADD SWAP1 POP PUSH1 0x0 DUP2 PUSH8 0xFFFFFFFFFFFFFFFF DUP2 GT ISZERO PUSH2 0x5384 JUMPI PUSH2 0x5384 PUSH2 0x5E42 JUMP JUMPDEST PUSH1 0x40 MLOAD SWAP1 DUP1 DUP3 MSTORE DUP1 PUSH1 0x1F ADD PUSH1 0x1F NOT AND PUSH1 0x20 ADD DUP3 ADD PUSH1 0x40 MSTORE DUP1 ISZERO PUSH2 0x53AE JUMPI PUSH1 0x20 DUP3 ADD DUP2 DUP1 CALLDATASIZE DUP4 CALLDATACOPY ADD SWAP1 POP JUMPDEST POP SWAP1 POP DUP2 DUP2 ADD PUSH1 0x20 ADD JUMPDEST PUSH32 0xFFFFFFFFFFFFFFFFFFFFFFFFFFFFFFFFFFFFFFFFFFFFFFFFFFFFFFFFFFFFFFFF ADD PUSH32 0x3031323334353637383961626364656600000000000000000000000000000000 PUSH1 0xA DUP7 MOD BYTE DUP2 MSTORE8 PUSH1 0xA DUP6 DIV SWAP5 POP DUP5 PUSH2 0x53B8 JUMPI POP SWAP4 SWAP3 POP POP POP JUMP JUMPDEST PUSH2 0x541F DUP4 DUP4 PUSH2 0x56CD JUMP JUMPDEST PUSH2 0x542C PUSH1 0x0 DUP5 DUP5 DUP5 PUSH2 0x5164 JUMP JUMPDEST PUSH2 0xBC2 JUMPI PUSH1 0x40 MLOAD PUSH32 0x8C379A000000000000000000000000000000000000000000000000000000000 DUP2 MSTORE PUSH1 0x20 PUSH1 0x4 DUP3 ADD MSTORE PUSH1 0x32 PUSH1 0x24 DUP3 ADD MSTORE PUSH32 0x4552433732313A207472616E7366657220746F206E6F6E204552433732315265 PUSH1 0x44 DUP3 ADD MSTORE PUSH32 0x63656976657220696D706C656D656E7465720000000000000000000000000000 PUSH1 0x64 DUP3 ADD MSTORE PUSH1 0x84 ADD PUSH2 0x947 JUMP JUMPDEST PUSH1 0x0 PUSH2 0x54E4 DUP3 PUSH32 0x1FFC9A700000000000000000000000000000000000000000000000000000000 PUSH2 0x551C JUMP JUMPDEST DUP1 ISZERO PUSH2 0x872 JUMPI POP PUSH2 0x5515 DUP3 PUSH32 0xFFFFFFFF00000000000000000000000000000000000000000000000000000000 PUSH2 0x551C JUMP JUMPDEST ISZERO SWAP3 SWAP2 POP POP JUMP JUMPDEST PUSH1 0x40 DUP1 MLOAD PUSH32 0xFFFFFFFF00000000000000000000000000000000000000000000000000000000 DUP4 AND PUSH1 0x24 DUP1 DUP4 ADD SWAP2 SWAP1 SWAP2 MSTORE DUP3 MLOAD DUP1 DUP4 SUB SWAP1 SWAP2 ADD DUP2 MSTORE PUSH1 0x44 SWAP1 SWAP2 ADD SWAP1 SWAP2 MSTORE PUSH1 0x20 DUP1 DUP3 ADD DUP1 MLOAD PUSH28 0xFFFFFFFFFFFFFFFFFFFFFFFFFFFFFFFFFFFFFFFFFFFFFFFFFFFFFFFF AND PUSH32 0x1FFC9A700000000000000000000000000000000000000000000000000000000 OR DUP2 MSTORE DUP3 MLOAD PUSH1 0x0 SWAP4 SWAP3 DUP5 SWAP3 DUP4 SWAP3 DUP4 SWAP3 SWAP2 DUP4 SWAP2 SWAP1 DUP11 PUSH2 0x7530 STATICCALL SWAP3 POP RETURNDATASIZE SWAP2 POP PUSH1 0x0 MLOAD SWAP1 POP DUP3 DUP1 ISZERO PUSH2 0x55D4 JUMPI POP PUSH1 0x20 DUP3 LT ISZERO JUMPDEST DUP1 ISZERO PUSH2 0x55E0 JUMPI POP PUSH1 0x0 DUP2 GT JUMPDEST SWAP8 SWAP7 POP POP POP POP POP POP POP JUMP JUMPDEST PUSH1 0x0 DUP1 PUSH27 0x184F03E93FF9F4DAA797ED6E38ED64BF6A1F010000000000000000 DUP4 LT PUSH2 0x5634 JUMPI PUSH27 0x184F03E93FF9F4DAA797ED6E38ED64BF6A1F010000000000000000 DUP4 DIV SWAP3 POP PUSH1 0x40 ADD JUMPDEST PUSH14 0x4EE2D6D415B85ACEF8100000000 DUP4 LT PUSH2 0x5660 JUMPI PUSH14 0x4EE2D6D415B85ACEF8100000000 DUP4 DIV SWAP3 POP PUSH1 0x20 ADD JUMPDEST PUSH7 0x2386F26FC10000 DUP4 LT PUSH2 0x567E JUMPI PUSH7 0x2386F26FC10000 DUP4 DIV SWAP3 POP PUSH1 0x10 ADD JUMPDEST PUSH4 0x5F5E100 DUP4 LT PUSH2 0x5696 JUMPI PUSH4 0x5F5E100 DUP4 DIV SWAP3 POP PUSH1 0x8 ADD JUMPDEST PUSH2 0x2710 DUP4 LT PUSH2 0x56AA JUMPI PUSH2 0x2710 DUP4 DIV SWAP3 POP PUSH1 0x4 ADD JUMPDEST PUSH1 0x64 DUP4 LT PUSH2 0x56BC JUMPI PUSH1 0x64 DUP4 DIV SWAP3 POP PUSH1 0x2 ADD JUMPDEST PUSH1 0xA DUP4 LT PUSH2 0x872 JUMPI PUSH1 0x1 ADD SWAP3 SWAP2 POP POP JUMP JUMPDEST PUSH20 0xFFFFFFFFFFFFFFFFFFFFFFFFFFFFFFFFFFFFFFFF DUP3 AND PUSH2 0x574A JUMPI PUSH1 0x40 MLOAD PUSH32 0x8C379A000000000000000000000000000000000000000000000000000000000 DUP2 MSTORE PUSH1 0x20 PUSH1 0x4 DUP3 ADD DUP2 SWAP1 MSTORE PUSH1 0x24 DUP3 ADD MSTORE PUSH32 0x4552433732313A206D696E7420746F20746865207A65726F2061646472657373 PUSH1 0x44 DUP3 ADD MSTORE PUSH1 0x64 ADD PUSH2 0x947 JUMP JUMPDEST PUSH1 0x0 DUP2 DUP2 MSTORE PUSH1 0x9C PUSH1 0x20 MSTORE PUSH1 0x40 SWAP1 KECCAK256 SLOAD PUSH20 0xFFFFFFFFFFFFFFFFFFFFFFFFFFFFFFFFFFFFFFFF AND ISZERO PUSH2 0x57D6 JUMPI PUSH1 0x40 MLOAD PUSH32 0x8C379A000000000000000000000000000000000000000000000000000000000 DUP2 MSTORE PUSH1 0x20 PUSH1 0x4 DUP3 ADD MSTORE PUSH1 0x1C PUSH1 0x24 DUP3 ADD MSTORE PUSH32 0x4552433732313A20746F6B656E20616C7265616479206D696E74656400000000 PUSH1 0x44 DUP3 ADD MSTORE PUSH1 0x64 ADD PUSH2 0x947 JUMP JUMPDEST PUSH2 0x57E4 PUSH1 0x0 DUP4 DUP4 PUSH1 0x1 PUSH2 0x4E59 JUMP JUMPDEST PUSH1 0x0 DUP2 DUP2 MSTORE PUSH1 0x9C PUSH1 0x20 MSTORE PUSH1 0x40 SWAP1 KECCAK256 SLOAD PUSH20 0xFFFFFFFFFFFFFFFFFFFFFFFFFFFFFFFFFFFFFFFF AND ISZERO PUSH2 0x5870 JUMPI PUSH1 0x40 MLOAD PUSH32 0x8C379A000000000000000000000000000000000000000000000000000000000 DUP2 MSTORE PUSH1 0x20 PUSH1 0x4 DUP3 ADD MSTORE PUSH1 0x1C PUSH1 0x24 DUP3 ADD MSTORE PUSH32 0x4552433732313A20746F6B656E20616C7265616479206D696E74656400000000 PUSH1 0x44 DUP3 ADD MSTORE PUSH1 0x64 ADD PUSH2 0x947 JUMP JUMPDEST PUSH20 0xFFFFFFFFFFFFFFFFFFFFFFFFFFFFFFFFFFFFFFFF DUP3 AND PUSH1 0x0 DUP2 DUP2 MSTORE PUSH1 0x9D PUSH1 0x20 SWAP1 DUP2 MSTORE PUSH1 0x40 DUP1 DUP4 KECCAK256 DUP1 SLOAD PUSH1 0x1 ADD SWAP1 SSTORE DUP5 DUP4 MSTORE PUSH1 0x9C SWAP1 SWAP2 MSTORE DUP1 DUP3 KECCAK256 DUP1 SLOAD PUSH32 0xFFFFFFFFFFFFFFFFFFFFFFFF0000000000000000000000000000000000000000 AND DUP5 OR SWAP1 SSTORE MLOAD DUP4 SWAP3 SWAP2 SWAP1 PUSH32 0xDDF252AD1BE2C89B69C2B068FC378DAA952BA7F163C4A11628F55A4DF523B3EF SWAP1 DUP3 SWAP1 LOG4 POP POP JUMP JUMPDEST POP DUP1 SLOAD PUSH1 0x0 DUP3 SSTORE SWAP1 PUSH1 0x0 MSTORE PUSH1 0x20 PUSH1 0x0 KECCAK256 SWAP1 DUP2 ADD SWAP1 PUSH2 0x959 SWAP2 SWAP1 PUSH2 0x5958 JUMP JUMPDEST POP DUP1 SLOAD PUSH2 0x592A SWAP1 PUSH2 0x62AF JUMP JUMPDEST PUSH1 0x0 DUP3 SSTORE DUP1 PUSH1 0x1F LT PUSH2 0x593A JUMPI POP POP JUMP JUMPDEST PUSH1 0x1F ADD PUSH1 0x20 SWAP1 DIV SWAP1 PUSH1 0x0 MSTORE PUSH1 0x20 PUSH1 0x0 KECCAK256 SWAP1 DUP2 ADD SWAP1 PUSH2 0x959 SWAP2 SWAP1 PUSH2 0x598F JUMP JUMPDEST JUMPDEST DUP1 DUP3 GT ISZERO PUSH2 0x1356 JUMPI DUP1 SLOAD PUSH32 0xFFFFFFFFFFFFFFFFFFFF00000000000000000000000000000000000000000000 AND DUP2 SSTORE PUSH1 0x1 ADD PUSH2 0x5959 JUMP JUMPDEST JUMPDEST DUP1 DUP3 GT ISZERO PUSH2 0x1356 JUMPI PUSH1 0x0 DUP2 SSTORE PUSH1 0x1 ADD PUSH2 0x5990 JUMP JUMPDEST PUSH32 0xFFFFFFFF00000000000000000000000000000000000000000000000000000000 DUP2 AND DUP2 EQ PUSH2 0x959 JUMPI PUSH1 0x0 DUP1 REVERT JUMPDEST PUSH1 0x0 PUSH1 0x20 DUP3 DUP5 SUB SLT ISZERO PUSH2 0x59E4 JUMPI PUSH1 0x0 DUP1 REVERT JUMPDEST DUP2 CALLDATALOAD PUSH2 0x1535 DUP2 PUSH2 0x59A4 JUMP JUMPDEST PUSH20 0xFFFFFFFFFFFFFFFFFFFFFFFFFFFFFFFFFFFFFFFF DUP2 AND DUP2 EQ PUSH2 0x959 JUMPI PUSH1 0x0 DUP1 REVERT JUMPDEST PUSH1 0x0 PUSH1 0x20 DUP3 DUP5 SUB SLT ISZERO PUSH2 0x5A23 JUMPI PUSH1 0x0 DUP1 REVERT JUMPDEST DUP2 CALLDATALOAD PUSH2 0x1535 DUP2 PUSH2 0x59EF JUMP JUMPDEST PUSH1 0x0 JUMPDEST DUP4 DUP2 LT ISZERO PUSH2 0x5A49 JUMPI DUP2 DUP2 ADD MLOAD DUP4 DUP3 ADD MSTORE PUSH1 0x20 ADD PUSH2 0x5A31 JUMP JUMPDEST POP POP PUSH1 0x0 SWAP2 ADD MSTORE JUMP JUMPDEST PUSH1 0x0 DUP2 MLOAD DUP1 DUP5 MSTORE PUSH2 0x5A6A DUP2 PUSH1 0x20 DUP7 ADD PUSH1 0x20 DUP7 ADD PUSH2 0x5A2E JUMP JUMPDEST PUSH1 0x1F ADD PUSH32 0xFFFFFFFFFFFFFFFFFFFFFFFFFFFFFFFFFFFFFFFFFFFFFFFFFFFFFFFFFFFFFFE0 AND SWAP3 SWAP1 SWAP3 ADD PUSH1 0x20 ADD SWAP3 SWAP2 POP POP JUMP JUMPDEST PUSH1 0x20 DUP2 MSTORE PUSH1 0x0 PUSH2 0x1535 PUSH1 0x20 DUP4 ADD DUP5 PUSH2 0x5A52 JUMP JUMPDEST PUSH1 0x0 PUSH1 0x20 DUP3 DUP5 SUB SLT ISZERO PUSH2 0x5AC1 JUMPI PUSH1 0x0 DUP1 REVERT JUMPDEST POP CALLDATALOAD SWAP2 SWAP1 POP JUMP JUMPDEST PUSH1 0x0 DUP1 PUSH1 0x40 DUP4 DUP6 SUB SLT ISZERO PUSH2 0x5ADB JUMPI PUSH1 0x0 DUP1 REVERT JUMPDEST DUP3 CALLDATALOAD PUSH2 0x5AE6 DUP2 PUSH2 0x59EF JUMP JUMPDEST SWAP5 PUSH1 0x20 SWAP4 SWAP1 SWAP4 ADD CALLDATALOAD SWAP4 POP POP POP JUMP JUMPDEST PUSH1 0x0 DUP2 MLOAD DUP1 DUP5 MSTORE PUSH1 0x20 DUP1 DUP6 ADD SWAP5 POP DUP1 DUP5 ADD PUSH1 0x0 JUMPDEST DUP4 DUP2 LT ISZERO PUSH2 0x5B24 JUMPI DUP2 MLOAD DUP8 MSTORE SWAP6 DUP3 ADD SWAP6 SWAP1 DUP3 ADD SWAP1 PUSH1 0x1 ADD PUSH2 0x5B08 JUMP JUMPDEST POP SWAP5 SWAP6 SWAP5 POP POP POP POP POP JUMP JUMPDEST PUSH1 0x20 DUP2 MSTORE PUSH1 0x0 PUSH2 0x1535 PUSH1 0x20 DUP4 ADD DUP5 PUSH2 0x5AF4 JUMP JUMPDEST PUSH1 0x0 DUP1 DUP4 PUSH1 0x1F DUP5 ADD SLT PUSH2 0x5B54 JUMPI PUSH1 0x0 DUP1 REVERT JUMPDEST POP DUP2 CALLDATALOAD PUSH8 0xFFFFFFFFFFFFFFFF DUP2 GT ISZERO PUSH2 0x5B6C JUMPI PUSH1 0x0 DUP1 REVERT JUMPDEST PUSH1 0x20 DUP4 ADD SWAP2 POP DUP4 PUSH1 0x20 DUP3 DUP6 ADD ADD GT ISZERO PUSH2 0x111B JUMPI PUSH1 0x0 DUP1 REVERT JUMPDEST PUSH1 0x0 DUP1 PUSH1 0x0 PUSH1 0x40 DUP5 DUP7 SUB SLT ISZERO PUSH2 0x5B99 JUMPI PUSH1 0x0 DUP1 REVERT JUMPDEST DUP4 CALLDATALOAD SWAP3 POP PUSH1 0x20 DUP5 ADD CALLDATALOAD PUSH8 0xFFFFFFFFFFFFFFFF DUP2 GT ISZERO PUSH2 0x5BB7 JUMPI PUSH1 0x0 DUP1 REVERT JUMPDEST PUSH2 0x5BC3 DUP7 DUP3 DUP8 ADD PUSH2 0x5B42 JUMP JUMPDEST SWAP5 SWAP8 SWAP1 SWAP7 POP SWAP4 SWAP5 POP POP POP POP JUMP JUMPDEST PUSH1 0x0 DUP1 DUP4 PUSH1 0x1F DUP5 ADD SLT PUSH2 0x5BE2 JUMPI PUSH1 0x0 DUP1 REVERT JUMPDEST POP DUP2 CALLDATALOAD PUSH8 0xFFFFFFFFFFFFFFFF DUP2 GT ISZERO PUSH2 0x5BFA JUMPI PUSH1 0x0 DUP1 REVERT JUMPDEST PUSH1 0x20 DUP4 ADD SWAP2 POP DUP4 PUSH1 0x20 DUP3 PUSH1 0x5 SHL DUP6 ADD ADD GT ISZERO PUSH2 0x111B JUMPI PUSH1 0x0 DUP1 REVERT JUMPDEST PUSH1 0x0 DUP1 PUSH1 0x0 DUP1 PUSH1 0x0 PUSH1 0x60 DUP7 DUP9 SUB SLT ISZERO PUSH2 0x5C2D JUMPI PUSH1 0x0 DUP1 REVERT JUMPDEST DUP6 CALLDATALOAD SWAP5 POP PUSH1 0x20 DUP7 ADD CALLDATALOAD PUSH8 0xFFFFFFFFFFFFFFFF DUP1 DUP3 GT ISZERO PUSH2 0x5C4C JUMPI PUSH1 0x0 DUP1 REVERT JUMPDEST PUSH2 0x5C58 DUP10 DUP4 DUP11 ADD PUSH2 0x5BD0 JUMP JUMPDEST SWAP1 SWAP7 POP SWAP5 POP PUSH1 0x40 DUP9 ADD CALLDATALOAD SWAP2 POP DUP1 DUP3 GT ISZERO PUSH2 0x5C71 JUMPI PUSH1 0x0 DUP1 REVERT JUMPDEST POP PUSH2 0x5C7E DUP9 DUP3 DUP10 ADD PUSH2 0x5BD0 JUMP JUMPDEST SWAP7 SWAP10 SWAP6 SWAP9 POP SWAP4 SWAP7 POP SWAP3 SWAP5 SWAP4 SWAP3 POP POP POP JUMP JUMPDEST PUSH1 0x0 DUP1 PUSH1 0x0 PUSH1 0x60 DUP5 DUP7 SUB SLT ISZERO PUSH2 0x5CA4 JUMPI PUSH1 0x0 DUP1 REVERT JUMPDEST DUP4 CALLDATALOAD PUSH2 0x5CAF DUP2 PUSH2 0x59EF JUMP JUMPDEST SWAP3 POP PUSH1 0x20 DUP5 ADD CALLDATALOAD PUSH2 0x5CBF DUP2 PUSH2 0x59EF JUMP JUMPDEST SWAP3 SWAP6 SWAP3 SWAP5 POP POP POP PUSH1 0x40 SWAP2 SWAP1 SWAP2 ADD CALLDATALOAD SWAP1 JUMP JUMPDEST PUSH1 0x0 DUP1 PUSH1 0x40 DUP4 DUP6 SUB SLT ISZERO PUSH2 0x5CE3 JUMPI PUSH1 0x0 DUP1 REVERT JUMPDEST POP POP DUP1 CALLDATALOAD SWAP3 PUSH1 0x20 SWAP1 SWAP2 ADD CALLDATALOAD SWAP2 POP JUMP JUMPDEST PUSH1 0x0 DUP1 PUSH1 0x20 DUP4 DUP6 SUB SLT ISZERO PUSH2 0x5D05 JUMPI PUSH1 0x0 DUP1 REVERT JUMPDEST DUP3 CALLDATALOAD PUSH8 0xFFFFFFFFFFFFFFFF DUP2 GT ISZERO PUSH2 0x5D1C JUMPI PUSH1 0x0 DUP1 REVERT JUMPDEST PUSH2 0x5D28 DUP6 DUP3 DUP7 ADD PUSH2 0x5B42 JUMP JUMPDEST SWAP1 SWAP7 SWAP1 SWAP6 POP SWAP4 POP POP POP POP JUMP JUMPDEST PUSH1 0x20 DUP1 DUP3 MSTORE DUP3 MLOAD DUP3 DUP3 ADD DUP2 SWAP1 MSTORE PUSH1 0x0 SWAP2 SWAP1 DUP5 DUP3 ADD SWAP1 PUSH1 0x40 DUP6 ADD SWAP1 DUP5 JUMPDEST DUP2 DUP2 LT ISZERO PUSH2 0x5D82 JUMPI DUP4 MLOAD PUSH20 0xFFFFFFFFFFFFFFFFFFFFFFFFFFFFFFFFFFFFFFFF AND DUP4 MSTORE SWAP3 DUP5 ADD SWAP3 SWAP2 DUP5 ADD SWAP2 PUSH1 0x1 ADD PUSH2 0x5D50 JUMP JUMPDEST POP SWAP1 SWAP7 SWAP6 POP POP POP POP POP POP JUMP JUMPDEST PUSH1 0x0 DUP1 PUSH1 0x0 DUP1 PUSH1 0x40 DUP6 DUP8 SUB SLT ISZERO PUSH2 0x5DA4 JUMPI PUSH1 0x0 DUP1 REVERT JUMPDEST DUP5 CALLDATALOAD PUSH8 0xFFFFFFFFFFFFFFFF DUP1 DUP3 GT ISZERO PUSH2 0x5DBC JUMPI PUSH1 0x0 DUP1 REVERT JUMPDEST PUSH2 0x5DC8 DUP9 DUP4 DUP10 ADD PUSH2 0x5BD0 JUMP JUMPDEST SWAP1 SWAP7 POP SWAP5 POP PUSH1 0x20 DUP8 ADD CALLDATALOAD SWAP2 POP DUP1 DUP3 GT ISZERO PUSH2 0x5DE1 JUMPI PUSH1 0x0 DUP1 REVERT JUMPDEST POP PUSH2 0x5DEE DUP8 DUP3 DUP9 ADD PUSH2 0x5BD0 JUMP JUMPDEST SWAP6 SWAP9 SWAP5 SWAP8 POP SWAP6 POP POP POP POP JUMP JUMPDEST PUSH1 0x0 DUP1 PUSH1 0x0 PUSH1 0x40 DUP5 DUP7 SUB SLT ISZERO PUSH2 0x5E0F JUMPI PUSH1 0x0 DUP1 REVERT JUMPDEST DUP4 CALLDATALOAD PUSH2 0x5E1A DUP2 PUSH2 0x59EF JUMP JUMPDEST SWAP3 POP PUSH1 0x20 DUP5 ADD CALLDATALOAD PUSH8 0xFFFFFFFFFFFFFFFF DUP2 GT ISZERO PUSH2 0x5E36 JUMPI PUSH1 0x0 DUP1 REVERT JUMPDEST PUSH2 0x5BC3 DUP7 DUP3 DUP8 ADD PUSH2 0x5BD0 JUMP JUMPDEST PUSH32 0x4E487B7100000000000000000000000000000000000000000000000000000000 PUSH1 0x0 MSTORE PUSH1 0x41 PUSH1 0x4 MSTORE PUSH1 0x24 PUSH1 0x0 REVERT JUMPDEST PUSH1 0x40 MLOAD PUSH1 0x1F DUP3 ADD PUSH32 0xFFFFFFFFFFFFFFFFFFFFFFFFFFFFFFFFFFFFFFFFFFFFFFFFFFFFFFFFFFFFFFE0 AND DUP2 ADD PUSH8 0xFFFFFFFFFFFFFFFF DUP2 GT DUP3 DUP3 LT OR ISZERO PUSH2 0x5EB8 JUMPI PUSH2 0x5EB8 PUSH2 0x5E42 JUMP JUMPDEST PUSH1 0x40 MSTORE SWAP2 SWAP1 POP JUMP JUMPDEST PUSH1 0x0 PUSH8 0xFFFFFFFFFFFFFFFF DUP3 GT ISZERO PUSH2 0x5EDA JUMPI PUSH2 0x5EDA PUSH2 0x5E42 JUMP JUMPDEST POP PUSH1 0x5 SHL PUSH1 0x20 ADD SWAP1 JUMP JUMPDEST PUSH1 0x0 DUP1 PUSH1 0x0 PUSH1 0x40 DUP5 DUP7 SUB SLT ISZERO PUSH2 0x5EF9 JUMPI PUSH1 0x0 DUP1 REVERT JUMPDEST DUP4 CALLDATALOAD PUSH8 0xFFFFFFFFFFFFFFFF DUP1 DUP3 GT ISZERO PUSH2 0x5F11 JUMPI PUSH1 0x0 DUP1 REVERT JUMPDEST DUP2 DUP7 ADD SWAP2 POP DUP7 PUSH1 0x1F DUP4 ADD SLT PUSH2 0x5F25 JUMPI PUSH1 0x0 DUP1 REVERT JUMPDEST DUP2 CALLDATALOAD PUSH1 0x20 PUSH2 0x5F3A PUSH2 0x5F35 DUP4 PUSH2 0x5EC0 JUMP JUMPDEST PUSH2 0x5E71 JUMP JUMPDEST DUP3 DUP2 MSTORE PUSH1 0x5 SWAP3 SWAP1 SWAP3 SHL DUP5 ADD DUP2 ADD SWAP2 DUP2 DUP2 ADD SWAP1 DUP11 DUP5 GT ISZERO PUSH2 0x5F59 JUMPI PUSH1 0x0 DUP1 REVERT JUMPDEST SWAP5 DUP3 ADD SWAP5 JUMPDEST DUP4 DUP7 LT ISZERO PUSH2 0x5F77 JUMPI DUP6 CALLDATALOAD DUP3 MSTORE SWAP5 DUP3 ADD SWAP5 SWAP1 DUP3 ADD SWAP1 PUSH2 0x5F5E JUMP JUMPDEST SWAP8 POP POP DUP8 ADD CALLDATALOAD SWAP3 POP POP DUP1 DUP3 GT ISZERO PUSH2 0x5F8D JUMPI PUSH1 0x0 DUP1 REVERT JUMPDEST POP PUSH2 0x5BC3 DUP7 DUP3 DUP8 ADD PUSH2 0x5BD0 JUMP JUMPDEST PUSH1 0x0 DUP1 PUSH1 0x0 PUSH1 0x40 DUP5 DUP7 SUB SLT ISZERO PUSH2 0x5FAF JUMPI PUSH1 0x0 DUP1 REVERT JUMPDEST DUP4 CALLDATALOAD PUSH2 0x5FBA DUP2 PUSH2 0x59EF JUMP JUMPDEST SWAP3 POP PUSH1 0x20 DUP5 ADD CALLDATALOAD PUSH8 0xFFFFFFFFFFFFFFFF DUP2 GT ISZERO PUSH2 0x5BB7 JUMPI PUSH1 0x0 DUP1 REVERT JUMPDEST DUP1 CALLDATALOAD DUP1 ISZERO ISZERO DUP2 EQ PUSH2 0x107A JUMPI PUSH1 0x0 DUP1 REVERT JUMPDEST PUSH1 0x0 DUP1 PUSH1 0x0 PUSH1 0x40 DUP5 DUP7 SUB SLT ISZERO PUSH2 0x5FFB JUMPI PUSH1 0x0 DUP1 REVERT JUMPDEST DUP4 CALLDATALOAD PUSH8 0xFFFFFFFFFFFFFFFF DUP2 GT ISZERO PUSH2 0x6012 JUMPI PUSH1 0x0 DUP1 REVERT JUMPDEST PUSH2 0x601E DUP7 DUP3 DUP8 ADD PUSH2 0x5B42 JUMP JUMPDEST SWAP1 SWAP5 POP SWAP3 POP PUSH2 0x6031 SWAP1 POP PUSH1 0x20 DUP6 ADD PUSH2 0x5FD6 JUMP JUMPDEST SWAP1 POP SWAP3 POP SWAP3 POP SWAP3 JUMP JUMPDEST PUSH1 0x0 DUP1 PUSH1 0x40 DUP4 DUP6 SUB SLT ISZERO PUSH2 0x604D JUMPI PUSH1 0x0 DUP1 REVERT JUMPDEST DUP3 CALLDATALOAD PUSH2 0x6058 DUP2 PUSH2 0x59EF JUMP JUMPDEST SWAP2 POP PUSH2 0x6066 PUSH1 0x20 DUP5 ADD PUSH2 0x5FD6 JUMP JUMPDEST SWAP1 POP SWAP3 POP SWAP3 SWAP1 POP JUMP JUMPDEST PUSH1 0x0 PUSH1 0x20 DUP3 DUP5 SUB SLT ISZERO PUSH2 0x6081 JUMPI PUSH1 0x0 DUP1 REVERT JUMPDEST PUSH2 0x1535 DUP3 PUSH2 0x5FD6 JUMP JUMPDEST PUSH1 0x0 DUP1 PUSH1 0x40 DUP4 DUP6 SUB SLT ISZERO PUSH2 0x609D JUMPI PUSH1 0x0 DUP1 REVERT JUMPDEST DUP3 CALLDATALOAD PUSH2 0x60A8 DUP2 PUSH2 0x59EF JUMP JUMPDEST SWAP2 POP PUSH1 0x20 DUP4 ADD CALLDATALOAD PUSH2 0xFFFF DUP2 AND DUP2 EQ PUSH2 0x60BF JUMPI PUSH1 0x0 DUP1 REVERT JUMPDEST DUP1 SWAP2 POP POP SWAP3 POP SWAP3 SWAP1 POP JUMP JUMPDEST PUSH1 0x0 DUP1 PUSH1 0x0 DUP1 PUSH1 0x0 PUSH1 0x60 DUP7 DUP9 SUB SLT ISZERO PUSH2 0x60E2 JUMPI PUSH1 0x0 DUP1 REVERT JUMPDEST DUP6 CALLDATALOAD PUSH2 0x60ED DUP2 PUSH2 0x59EF JUMP JUMPDEST SWAP5 POP PUSH1 0x20 DUP7 ADD CALLDATALOAD PUSH8 0xFFFFFFFFFFFFFFFF DUP1 DUP3 GT ISZERO PUSH2 0x5C4C JUMPI PUSH1 0x0 DUP1 REVERT JUMPDEST PUSH1 0x0 PUSH8 0xFFFFFFFFFFFFFFFF DUP3 GT ISZERO PUSH2 0x6124 JUMPI PUSH2 0x6124 PUSH2 0x5E42 JUMP JUMPDEST POP PUSH1 0x1F ADD PUSH32 0xFFFFFFFFFFFFFFFFFFFFFFFFFFFFFFFFFFFFFFFFFFFFFFFFFFFFFFFFFFFFFFE0 AND PUSH1 0x20 ADD SWAP1 JUMP JUMPDEST PUSH1 0x0 DUP1 PUSH1 0x0 DUP1 PUSH1 0x80 DUP6 DUP8 SUB SLT ISZERO PUSH2 0x6166 JUMPI PUSH1 0x0 DUP1 REVERT JUMPDEST DUP5 CALLDATALOAD PUSH2 0x6171 DUP2 PUSH2 0x59EF JUMP JUMPDEST SWAP4 POP PUSH1 0x20 DUP6 ADD CALLDATALOAD PUSH2 0x6181 DUP2 PUSH2 0x59EF JUMP JUMPDEST SWAP3 POP PUSH1 0x40 DUP6 ADD CALLDATALOAD SWAP2 POP PUSH1 0x60 DUP6 ADD CALLDATALOAD PUSH8 0xFFFFFFFFFFFFFFFF DUP2 GT ISZERO PUSH2 0x61A4 JUMPI PUSH1 0x0 DUP1 REVERT JUMPDEST DUP6 ADD PUSH1 0x1F DUP2 ADD DUP8 SGT PUSH2 0x61B5 JUMPI PUSH1 0x0 DUP1 REVERT JUMPDEST DUP1 CALLDATALOAD PUSH2 0x61C3 PUSH2 0x5F35 DUP3 PUSH2 0x610A JUMP JUMPDEST DUP2 DUP2 MSTORE DUP9 PUSH1 0x20 DUP4 DUP6 ADD ADD GT ISZERO PUSH2 0x61D8 JUMPI PUSH1 0x0 DUP1 REVERT JUMPDEST DUP2 PUSH1 0x20 DUP5 ADD PUSH1 0x20 DUP4 ADD CALLDATACOPY PUSH1 0x0 PUSH1 0x20 DUP4 DUP4 ADD ADD MSTORE DUP1 SWAP4 POP POP POP POP SWAP3 SWAP6 SWAP2 SWAP5 POP SWAP3 POP JUMP JUMPDEST PUSH1 0x0 DUP2 MLOAD DUP1 DUP5 MSTORE PUSH1 0x20 DUP1 DUP6 ADD SWAP5 POP DUP1 DUP5 ADD PUSH1 0x0 JUMPDEST DUP4 DUP2 LT ISZERO PUSH2 0x5B24 JUMPI DUP2 MLOAD PUSH20 0xFFFFFFFFFFFFFFFFFFFFFFFFFFFFFFFFFFFFFFFF AND DUP8 MSTORE SWAP6 DUP3 ADD SWAP6 SWAP1 DUP3 ADD SWAP1 PUSH1 0x1 ADD PUSH2 0x620E JUMP JUMPDEST PUSH1 0x20 DUP2 MSTORE PUSH1 0x0 PUSH2 0x1535 PUSH1 0x20 DUP4 ADD DUP5 PUSH2 0x61FA JUMP JUMPDEST PUSH1 0x40 DUP2 MSTORE PUSH1 0x0 PUSH2 0x6266 PUSH1 0x40 DUP4 ADD DUP6 PUSH2 0x61FA JUMP JUMPDEST DUP3 DUP2 SUB PUSH1 0x20 DUP5 ADD MSTORE PUSH2 0x6278 DUP2 DUP6 PUSH2 0x5AF4 JUMP JUMPDEST SWAP6 SWAP5 POP POP POP POP POP JUMP JUMPDEST PUSH1 0x0 DUP1 PUSH1 0x40 DUP4 DUP6 SUB SLT ISZERO PUSH2 0x6294 JUMPI PUSH1 0x0 DUP1 REVERT JUMPDEST DUP3 CALLDATALOAD PUSH2 0x629F DUP2 PUSH2 0x59EF JUMP JUMPDEST SWAP2 POP PUSH1 0x20 DUP4 ADD CALLDATALOAD PUSH2 0x60BF DUP2 PUSH2 0x59EF JUMP JUMPDEST PUSH1 0x1 DUP2 DUP2 SHR SWAP1 DUP3 AND DUP1 PUSH2 0x62C3 JUMPI PUSH1 0x7F DUP3 AND SWAP2 POP JUMPDEST PUSH1 0x20 DUP3 LT DUP2 SUB PUSH2 0x4830 JUMPI PUSH32 0x4E487B7100000000000000000000000000000000000000000000000000000000 PUSH1 0x0 MSTORE PUSH1 0x22 PUSH1 0x4 MSTORE PUSH1 0x24 PUSH1 0x0 REVERT JUMPDEST PUSH32 0x4E487B7100000000000000000000000000000000000000000000000000000000 PUSH1 0x0 MSTORE PUSH1 0x32 PUSH1 0x4 MSTORE PUSH1 0x24 PUSH1 0x0 REVERT JUMPDEST PUSH32 0x4E487B7100000000000000000000000000000000000000000000000000000000 PUSH1 0x0 MSTORE PUSH1 0x11 PUSH1 0x4 MSTORE PUSH1 0x24 PUSH1 0x0 REVERT JUMPDEST PUSH1 0x0 PUSH32 0xFFFFFFFFFFFFFFFFFFFFFFFFFFFFFFFFFFFFFFFFFFFFFFFFFFFFFFFFFFFFFFFF DUP3 SUB PUSH2 0x638B JUMPI PUSH2 0x638B PUSH2 0x632B JUMP JUMPDEST POP PUSH1 0x1 ADD SWAP1 JUMP JUMPDEST PUSH1 0x0 DUP1 DUP4 CALLDATALOAD PUSH32 0xFFFFFFFFFFFFFFFFFFFFFFFFFFFFFFFFFFFFFFFFFFFFFFFFFFFFFFFFFFFFFFE1 DUP5 CALLDATASIZE SUB ADD DUP2 SLT PUSH2 0x63C7 JUMPI PUSH1 0x0 DUP1 REVERT JUMPDEST DUP4 ADD DUP1 CALLDATALOAD SWAP2 POP PUSH8 0xFFFFFFFFFFFFFFFF DUP3 GT ISZERO PUSH2 0x63E2 JUMPI PUSH1 0x0 DUP1 REVERT JUMPDEST PUSH1 0x20 ADD SWAP2 POP CALLDATASIZE DUP2 SWAP1 SUB DUP3 SGT ISZERO PUSH2 0x111B JUMPI PUSH1 0x0 DUP1 REVERT JUMPDEST PUSH1 0x1F DUP3 GT ISZERO PUSH2 0xBC2 JUMPI PUSH1 0x0 DUP2 DUP2 MSTORE PUSH1 0x20 DUP2 KECCAK256 PUSH1 0x1F DUP6 ADD PUSH1 0x5 SHR DUP2 ADD PUSH1 0x20 DUP7 LT ISZERO PUSH2 0x641E JUMPI POP DUP1 JUMPDEST PUSH1 0x1F DUP6 ADD PUSH1 0x5 SHR DUP3 ADD SWAP2 POP JUMPDEST DUP2 DUP2 LT ISZERO PUSH2 0x4E51 JUMPI DUP3 DUP2 SSTORE PUSH1 0x1 ADD PUSH2 0x642A JUMP JUMPDEST DUP2 MLOAD PUSH8 0xFFFFFFFFFFFFFFFF DUP2 GT ISZERO PUSH2 0x6457 JUMPI PUSH2 0x6457 PUSH2 0x5E42 JUMP JUMPDEST PUSH2 0x646B DUP2 PUSH2 0x6465 DUP5 SLOAD PUSH2 0x62AF JUMP JUMPDEST DUP5 PUSH2 0x63F7 JUMP JUMPDEST PUSH1 0x20 DUP1 PUSH1 0x1F DUP4 GT PUSH1 0x1 DUP2 EQ PUSH2 0x64BE JUMPI PUSH1 0x0 DUP5 ISZERO PUSH2 0x6488 JUMPI POP DUP6 DUP4 ADD MLOAD JUMPDEST PUSH32 0xFFFFFFFFFFFFFFFFFFFFFFFFFFFFFFFFFFFFFFFFFFFFFFFFFFFFFFFFFFFFFFFF PUSH1 0x3 DUP7 SWAP1 SHL SHR NOT AND PUSH1 0x1 DUP6 SWAP1 SHL OR DUP6 SSTORE PUSH2 0x4E51 JUMP JUMPDEST PUSH1 0x0 DUP6 DUP2 MSTORE PUSH1 0x20 DUP2 KECCAK256 PUSH32 0xFFFFFFFFFFFFFFFFFFFFFFFFFFFFFFFFFFFFFFFFFFFFFFFFFFFFFFFFFFFFFFE0 DUP7 AND SWAP2 JUMPDEST DUP3 DUP2 LT ISZERO PUSH2 0x650B JUMPI DUP9 DUP7 ADD MLOAD DUP3 SSTORE SWAP5 DUP5 ADD SWAP5 PUSH1 0x1 SWAP1 SWAP2 ADD SWAP1 DUP5 ADD PUSH2 0x64EC JUMP JUMPDEST POP DUP6 DUP3 LT ISZERO PUSH2 0x6547 JUMPI DUP8 DUP6 ADD MLOAD PUSH32 0xFFFFFFFFFFFFFFFFFFFFFFFFFFFFFFFFFFFFFFFFFFFFFFFFFFFFFFFFFFFFFFFF PUSH1 0x3 DUP9 SWAP1 SHL PUSH1 0xF8 AND SHR NOT AND DUP2 SSTORE JUMPDEST POP POP POP POP POP PUSH1 0x1 SWAP1 DUP2 SHL ADD SWAP1 SSTORE POP JUMP JUMPDEST PUSH8 0xFFFFFFFFFFFFFFFF DUP4 GT ISZERO PUSH2 0x656F JUMPI PUSH2 0x656F PUSH2 0x5E42 JUMP JUMPDEST PUSH2 0x6583 DUP4 PUSH2 0x657D DUP4 SLOAD PUSH2 0x62AF JUMP JUMPDEST DUP4 PUSH2 0x63F7 JUMP JUMPDEST PUSH1 0x0 PUSH1 0x1F DUP5 GT PUSH1 0x1 DUP2 EQ PUSH2 0x65D5 JUMPI PUSH1 0x0 DUP6 ISZERO PUSH2 0x659F JUMPI POP DUP4 DUP3 ADD CALLDATALOAD JUMPDEST PUSH32 0xFFFFFFFFFFFFFFFFFFFFFFFFFFFFFFFFFFFFFFFFFFFFFFFFFFFFFFFFFFFFFFFF PUSH1 0x3 DUP8 SWAP1 SHL SHR NOT AND PUSH1 0x1 DUP7 SWAP1 SHL OR DUP4 SSTORE PUSH2 0xEA7 JUMP JUMPDEST PUSH1 0x0 DUP4 DUP2 MSTORE PUSH1 0x20 SWAP1 KECCAK256 PUSH32 0xFFFFFFFFFFFFFFFFFFFFFFFFFFFFFFFFFFFFFFFFFFFFFFFFFFFFFFFFFFFFFFE0 DUP7 AND SWAP1 DUP4 JUMPDEST DUP3 DUP2 LT ISZERO PUSH2 0x6624 JUMPI DUP7 DUP6 ADD CALLDATALOAD DUP3 SSTORE PUSH1 0x20 SWAP5 DUP6 ADD SWAP5 PUSH1 0x1 SWAP1 SWAP3 ADD SWAP2 ADD PUSH2 0x6604 JUMP JUMPDEST POP DUP7 DUP3 LT ISZERO PUSH2 0x665F JUMPI PUSH32 0xFFFFFFFFFFFFFFFFFFFFFFFFFFFFFFFFFFFFFFFFFFFFFFFFFFFFFFFFFFFFFFFF PUSH1 0xF8 DUP9 PUSH1 0x3 SHL AND SHR NOT DUP5 DUP8 ADD CALLDATALOAD AND DUP2 SSTORE JUMPDEST POP POP PUSH1 0x1 DUP6 PUSH1 0x1 SHL ADD DUP4 SSTORE POP POP POP POP POP JUMP JUMPDEST PUSH1 0x40 DUP1 DUP3 MSTORE DUP2 ADD DUP5 SWAP1 MSTORE PUSH1 0x0 DUP6 PUSH1 0x60 DUP4 ADD DUP3 JUMPDEST DUP8 DUP2 LT ISZERO PUSH2 0x66C1 JUMPI DUP3 CALLDATALOAD PUSH2 0x6697 DUP2 PUSH2 0x59EF JUMP JUMPDEST PUSH20 0xFFFFFFFFFFFFFFFFFFFFFFFFFFFFFFFFFFFFFFFF AND DUP3 MSTORE PUSH1 0x20 SWAP3 DUP4 ADD SWAP3 SWAP1 SWAP2 ADD SWAP1 PUSH1 0x1 ADD PUSH2 0x6684 JUMP JUMPDEST POP DUP4 DUP2 SUB PUSH1 0x20 DUP6 ADD MSTORE DUP5 DUP2 MSTORE PUSH32 0x7FFFFFFFFFFFFFFFFFFFFFFFFFFFFFFFFFFFFFFFFFFFFFFFFFFFFFFFFFFFFFF DUP6 GT ISZERO PUSH2 0x66FA JUMPI PUSH1 0x0 DUP1 REVERT JUMPDEST DUP5 PUSH1 0x5 SHL SWAP2 POP DUP2 DUP7 PUSH1 0x20 DUP4 ADD CALLDATACOPY ADD PUSH1 0x20 ADD SWAP7 SWAP6 POP POP POP POP POP POP JUMP JUMPDEST DUP1 DUP3 MUL DUP2 ISZERO DUP3 DUP3 DIV DUP5 EQ OR PUSH2 0x872 JUMPI PUSH2 0x872 PUSH2 0x632B JUMP JUMPDEST PUSH1 0x0 DUP3 PUSH2 0x6762 JUMPI PUSH32 0x4E487B7100000000000000000000000000000000000000000000000000000000 PUSH1 0x0 MSTORE PUSH1 0x12 PUSH1 0x4 MSTORE PUSH1 0x24 PUSH1 0x0 REVERT JUMPDEST POP DIV SWAP1 JUMP JUMPDEST PUSH1 0x0 DUP3 PUSH1 0x1F DUP4 ADD SLT PUSH2 0x6778 JUMPI PUSH1 0x0 DUP1 REVERT JUMPDEST DUP2 MLOAD PUSH1 0x20 PUSH2 0x6788 PUSH2 0x5F35 DUP4 PUSH2 0x5EC0 JUMP JUMPDEST DUP3 DUP2 MSTORE PUSH1 0x5 SWAP3 SWAP1 SWAP3 SHL DUP5 ADD DUP2 ADD SWAP2 DUP2 DUP2 ADD SWAP1 DUP7 DUP5 GT ISZERO PUSH2 0x67A7 JUMPI PUSH1 0x0 DUP1 REVERT JUMPDEST DUP3 DUP7 ADD JUMPDEST DUP5 DUP2 LT ISZERO PUSH2 0x67C2 JUMPI DUP1 MLOAD DUP4 MSTORE SWAP2 DUP4 ADD SWAP2 DUP4 ADD PUSH2 0x67AB JUMP JUMPDEST POP SWAP7 SWAP6 POP POP POP POP POP POP JUMP JUMPDEST PUSH1 0x0 DUP1 PUSH1 0x40 DUP4 DUP6 SUB SLT ISZERO PUSH2 0x67E0 JUMPI PUSH1 0x0 DUP1 REVERT JUMPDEST DUP3 MLOAD PUSH8 0xFFFFFFFFFFFFFFFF DUP1 DUP3 GT ISZERO PUSH2 0x67F8 JUMPI PUSH1 0x0 DUP1 REVERT JUMPDEST DUP2 DUP6 ADD SWAP2 POP DUP6 PUSH1 0x1F DUP4 ADD SLT PUSH2 0x680C JUMPI PUSH1 0x0 DUP1 REVERT JUMPDEST DUP2 MLOAD PUSH1 0x20 PUSH2 0x681C PUSH2 0x5F35 DUP4 PUSH2 0x5EC0 JUMP JUMPDEST DUP3 DUP2 MSTORE PUSH1 0x5 SWAP3 SWAP1 SWAP3 SHL DUP5 ADD DUP2 ADD SWAP2 DUP2 DUP2 ADD SWAP1 DUP10 DUP5 GT ISZERO PUSH2 0x683B JUMPI PUSH1 0x0 DUP1 REVERT JUMPDEST SWAP5 DUP3 ADD SWAP5 JUMPDEST DUP4 DUP7 LT ISZERO PUSH2 0x6862 JUMPI DUP6 MLOAD PUSH2 0x6853 DUP2 PUSH2 0x59EF JUMP JUMPDEST DUP3 MSTORE SWAP5 DUP3 ADD SWAP5 SWAP1 DUP3 ADD SWAP1 PUSH2 0x6840 JUMP JUMPDEST SWAP2 DUP9 ADD MLOAD SWAP2 SWAP7 POP SWAP1 SWAP4 POP POP POP DUP1 DUP3 GT ISZERO PUSH2 0x687B JUMPI PUSH1 0x0 DUP1 REVERT JUMPDEST POP PUSH2 0x6888 DUP6 DUP3 DUP7 ADD PUSH2 0x6767 JUMP JUMPDEST SWAP2 POP POP SWAP3 POP SWAP3 SWAP1 POP JUMP JUMPDEST PUSH1 0x0 DUP2 SLOAD PUSH2 0x689F DUP2 PUSH2 0x62AF JUMP JUMPDEST PUSH1 0x1 DUP3 DUP2 AND DUP1 ISZERO PUSH2 0x68B7 JUMPI PUSH1 0x1 DUP2 EQ PUSH2 0x68EA JUMPI PUSH2 0x6919 JUMP JUMPDEST PUSH32 0xFFFFFFFFFFFFFFFFFFFFFFFFFFFFFFFFFFFFFFFFFFFFFFFFFFFFFFFFFFFFFF00 DUP5 AND DUP8 MSTORE DUP3 ISZERO ISZERO DUP4 MUL DUP8 ADD SWAP5 POP PUSH2 0x6919 JUMP JUMPDEST DUP6 PUSH1 0x0 MSTORE PUSH1 0x20 DUP1 PUSH1 0x0 KECCAK256 PUSH1 0x0 JUMPDEST DUP6 DUP2 LT ISZERO PUSH2 0x6910 JUMPI DUP2 SLOAD DUP11 DUP3 ADD MSTORE SWAP1 DUP5 ADD SWAP1 DUP3 ADD PUSH2 0x68F7 JUMP JUMPDEST POP POP POP DUP3 DUP8 ADD SWAP5 POP JUMPDEST POP POP POP POP SWAP3 SWAP2 POP POP JUMP JUMPDEST PUSH1 0x0 PUSH2 0x3100 PUSH2 0x6932 DUP4 DUP7 PUSH2 0x6892 JUMP JUMPDEST DUP5 PUSH2 0x6892 JUMP JUMPDEST PUSH1 0x0 PUSH1 0x20 DUP3 DUP5 SUB SLT ISZERO PUSH2 0x694A JUMPI PUSH1 0x0 DUP1 REVERT JUMPDEST DUP2 MLOAD PUSH8 0xFFFFFFFFFFFFFFFF DUP2 GT ISZERO PUSH2 0x6961 JUMPI PUSH1 0x0 DUP1 REVERT JUMPDEST DUP3 ADD PUSH1 0x1F DUP2 ADD DUP5 SGT PUSH2 0x6972 JUMPI PUSH1 0x0 DUP1 REVERT JUMPDEST DUP1 MLOAD PUSH2 0x6980 PUSH2 0x5F35 DUP3 PUSH2 0x610A JUMP JUMPDEST DUP2 DUP2 MSTORE DUP6 PUSH1 0x20 DUP4 DUP6 ADD ADD GT ISZERO PUSH2 0x6995 JUMPI PUSH1 0x0 DUP1 REVERT JUMPDEST PUSH2 0x6278 DUP3 PUSH1 0x20 DUP4 ADD PUSH1 0x20 DUP7 ADD PUSH2 0x5A2E JUMP JUMPDEST PUSH1 0x0 PUSH2 0x69B2 DUP3 DUP6 PUSH2 0x6892 JUMP JUMPDEST DUP4 MLOAD PUSH2 0x69C2 DUP2 DUP4 PUSH1 0x20 DUP9 ADD PUSH2 0x5A2E JUMP JUMPDEST ADD SWAP5 SWAP4 POP POP POP POP JUMP JUMPDEST DUP1 DUP3 ADD DUP1 DUP3 GT ISZERO PUSH2 0x872 JUMPI PUSH2 0x872 PUSH2 0x632B JUMP JUMPDEST DUP2 DUP2 SUB DUP2 DUP2 GT ISZERO PUSH2 0x872 JUMPI PUSH2 0x872 PUSH2 0x632B JUMP JUMPDEST PUSH32 0x4E487B7100000000000000000000000000000000000000000000000000000000 PUSH1 0x0 MSTORE PUSH1 0x31 PUSH1 0x4 MSTORE PUSH1 0x24 PUSH1 0x0 REVERT JUMPDEST PUSH1 0x0 PUSH20 0xFFFFFFFFFFFFFFFFFFFFFFFFFFFFFFFFFFFFFFFF DUP1 DUP8 AND DUP4 MSTORE DUP1 DUP7 AND PUSH1 0x20 DUP5 ADD MSTORE POP DUP4 PUSH1 0x40 DUP4 ADD MSTORE PUSH1 0x80 PUSH1 0x60 DUP4 ADD MSTORE PUSH2 0x6A5F PUSH1 0x80 DUP4 ADD DUP5 PUSH2 0x5A52 JUMP JUMPDEST SWAP7 SWAP6 POP POP POP POP POP POP JUMP JUMPDEST PUSH1 0x0 PUSH1 0x20 DUP3 DUP5 SUB SLT ISZERO PUSH2 0x6A7B JUMPI PUSH1 0x0 DUP1 REVERT JUMPDEST DUP2 MLOAD PUSH2 0x1535 DUP2 PUSH2 0x59A4 JUMP INVALID LOG2 PUSH5 0x6970667358 0x22 SLT KECCAK256 0xC8 SWAP13 MUL 0xE8 CREATE2 ADDRESS LOG1 BASEFEE PUSH15 0xC16028EE988AC61C810C6020706031 CALL AND 0xB2 PUSH28 0x34EB0AC164736F6C6343000811003300000000000000000000000000 "
		},
		"gasEstimates": {
			"creation": {
				"codeDepositCost": "5464800",
				"executionCost": "33711",
				"totalCost": "5498511"
			},
			"external": {
				"VERSION()": "327",
				"approve(address,uint256)": "infinite",
				"approveAdmin(address)": "infinite",
				"balanceOf(address)": "2616",
				"blacklistExtension(address)": "infinite",
				"burn(uint256)": "infinite",
				"getAdmins()": "infinite",
				"getApproveTransfer()": "2420",
				"getApproved(uint256)": "4779",
				"getExtensions()": "infinite",
				"getFeeBps(uint256)": "infinite",
				"getFeeRecipients(uint256)": "infinite",
				"getFees(uint256)": "infinite",
				"getRoyalties(uint256)": "infinite",
				"isAdmin(address)": "infinite",
				"isApprovedForAll(address,address)": "infinite",
				"mintBase(address)": "infinite",
				"mintBase(address,string)": "infinite",
				"mintBaseBatch(address,string[])": "infinite",
				"mintBaseBatch(address,uint16)": "infinite",
				"mintExtension(address)": "infinite",
				"mintExtension(address,string)": "infinite",
				"mintExtensionBatch(address,string[])": "infinite",
				"mintExtensionBatch(address,uint16)": "infinite",
				"mintnew()": "infinite",
				"name()": "infinite",
				"owner()": "2375",
				"ownerOf(uint256)": "2603",
				"renounceOwnership()": "infinite",
				"revokeAdmin(address)": "infinite",
				"royaltyInfo(uint256,uint256)": "infinite",
				"safeTransferFrom(address,address,uint256)": "infinite",
				"safeTransferFrom(address,address,uint256,bytes)": "infinite",
				"setApprovalForAll(address,bool)": "26723",
				"setApproveTransfer(address)": "infinite",
				"setApproveTransferExtension(bool)": "infinite",
				"setBaseTokenURI(string)": "infinite",
				"setBaseTokenURIExtension(string)": "infinite",
				"setBaseTokenURIExtension(string,bool)": "infinite",
				"setMintPermissions(address,address)": "infinite",
				"setRoyalties(address[],uint256[])": "infinite",
				"setRoyalties(uint256,address[],uint256[])": "infinite",
				"setRoyaltiesExtension(address,address[],uint256[])": "infinite",
				"setTokenURI(uint256,string)": "infinite",
				"setTokenURI(uint256[],string[])": "infinite",
				"setTokenURIExtension(uint256,string)": "infinite",
				"setTokenURIExtension(uint256[],string[])": "infinite",
				"setTokenURIPrefix(string)": "infinite",
				"setTokenURIPrefixExtension(string)": "infinite",
				"supportsInterface(bytes4)": "infinite",
				"symbol()": "infinite",
				"tokenExtension(uint256)": "7050",
				"tokenURI(uint256)": "infinite",
				"transferFrom(address,address,uint256)": "infinite",
				"transferOwnership(address)": "infinite",
				"unregisterExtension(address)": "infinite"
			},
			"internal": {
				"_beforeTokenTransfer(address,address,uint256)": "infinite",
				"_mintBase(address,string memory)": "infinite",
				"_mintExtension(address,string memory)": "infinite"
			}
		},
		"methodIdentifiers": {
			"VERSION()": "ffa1ad74",
			"approve(address,uint256)": "095ea7b3",
			"approveAdmin(address)": "6d73e669",
			"balanceOf(address)": "70a08231",
			"blacklistExtension(address)": "02e7afb7",
			"burn(uint256)": "42966c68",
			"getAdmins()": "31ae450b",
			"getApproveTransfer()": "22f374d0",
			"getApproved(uint256)": "081812fc",
			"getExtensions()": "83b7db63",
			"getFeeBps(uint256)": "0ebd4c7f",
			"getFeeRecipients(uint256)": "b9c4d9fb",
			"getFees(uint256)": "d5a06d4c",
			"getRoyalties(uint256)": "bb3bafd6",
			"isAdmin(address)": "24d7806c",
			"isApprovedForAll(address,address)": "e985e9c5",
			"mintBase(address)": "72ff03d3",
			"mintBase(address,string)": "7884af44",
			"mintBaseBatch(address,string[])": "7aa15f16",
			"mintBaseBatch(address,uint16)": "ad2d0ddd",
			"mintExtension(address)": "2928ca58",
			"mintExtension(address,string)": "fe2e1f58",
			"mintExtensionBatch(address,string[])": "38e52e78",
			"mintExtensionBatch(address,uint16)": "e00aab4b",
			"mintnew()": "0500df04",
			"name()": "06fdde03",
			"owner()": "8da5cb5b",
			"ownerOf(uint256)": "6352211e",
			"renounceOwnership()": "715018a6",
			"revokeAdmin(address)": "2d345670",
			"royaltyInfo(uint256,uint256)": "2a55205a",
			"safeTransferFrom(address,address,uint256)": "42842e0e",
			"safeTransferFrom(address,address,uint256,bytes)": "b88d4fde",
			"setApprovalForAll(address,bool)": "a22cb465",
			"setApproveTransfer(address)": "596798ad",
			"setApproveTransferExtension(bool)": "ac0c8cfa",
			"setBaseTokenURI(string)": "30176e13",
			"setBaseTokenURIExtension(string)": "3e6134b8",
			"setBaseTokenURIExtension(string,bool)": "82dcc0c8",
			"setMintPermissions(address,address)": "f0cdc499",
			"setRoyalties(address[],uint256[])": "332dd1ae",
			"setRoyalties(uint256,address[],uint256[])": "20e4afe2",
			"setRoyaltiesExtension(address,address[],uint256[])": "b0fe87c9",
			"setTokenURI(uint256,string)": "162094c4",
			"setTokenURI(uint256[],string[])": "aafb2d44",
			"setTokenURIExtension(uint256,string)": "e92a89f6",
			"setTokenURIExtension(uint256[],string[])": "61e5bc6b",
			"setTokenURIPrefix(string)": "99e0dd7c",
			"setTokenURIPrefixExtension(string)": "66d1e9d0",
			"supportsInterface(bytes4)": "01ffc9a7",
			"symbol()": "95d89b41",
			"tokenExtension(uint256)": "239be317",
			"tokenURI(uint256)": "c87b56dd",
			"transferFrom(address,address,uint256)": "23b872dd",
			"transferOwnership(address)": "f2fde38b",
			"unregisterExtension(address)": "ce8aee9d"
		}
	},
	"abi": [
		{
			"anonymous": false,
			"inputs": [
				{
					"indexed": true,
					"internalType": "address",
					"name": "account",
					"type": "address"
				},
				{
					"indexed": true,
					"internalType": "address",
					"name": "sender",
					"type": "address"
				}
			],
			"name": "AdminApproved",
			"type": "event"
		},
		{
			"anonymous": false,
			"inputs": [
				{
					"indexed": true,
					"internalType": "address",
					"name": "account",
					"type": "address"
				},
				{
					"indexed": true,
					"internalType": "address",
					"name": "sender",
					"type": "address"
				}
			],
			"name": "AdminRevoked",
			"type": "event"
		},
		{
			"anonymous": false,
			"inputs": [
				{
					"indexed": true,
					"internalType": "address",
					"name": "owner",
					"type": "address"
				},
				{
					"indexed": true,
					"internalType": "address",
					"name": "approved",
					"type": "address"
				},
				{
					"indexed": true,
					"internalType": "uint256",
					"name": "tokenId",
					"type": "uint256"
				}
			],
			"name": "Approval",
			"type": "event"
		},
		{
			"anonymous": false,
			"inputs": [
				{
					"indexed": true,
					"internalType": "address",
					"name": "owner",
					"type": "address"
				},
				{
					"indexed": true,
					"internalType": "address",
					"name": "operator",
					"type": "address"
				},
				{
					"indexed": false,
					"internalType": "bool",
					"name": "approved",
					"type": "bool"
				}
			],
			"name": "ApprovalForAll",
			"type": "event"
		},
		{
			"anonymous": false,
			"inputs": [
				{
					"indexed": false,
					"internalType": "address",
					"name": "extension",
					"type": "address"
				}
			],
			"name": "ApproveTransferUpdated",
			"type": "event"
		},
		{
			"anonymous": false,
			"inputs": [
				{
					"indexed": false,
					"internalType": "address payable[]",
					"name": "receivers",
					"type": "address[]"
				},
				{
					"indexed": false,
					"internalType": "uint256[]",
					"name": "basisPoints",
					"type": "uint256[]"
				}
			],
			"name": "DefaultRoyaltiesUpdated",
			"type": "event"
		},
		{
			"anonymous": false,
			"inputs": [
				{
					"indexed": true,
					"internalType": "address",
					"name": "extension",
					"type": "address"
				},
				{
					"indexed": false,
					"internalType": "bool",
					"name": "enabled",
					"type": "bool"
				}
			],
			"name": "ExtensionApproveTransferUpdated",
			"type": "event"
		},
		{
			"anonymous": false,
			"inputs": [
				{
					"indexed": true,
					"internalType": "address",
					"name": "extension",
					"type": "address"
				},
				{
					"indexed": true,
					"internalType": "address",
					"name": "sender",
					"type": "address"
				}
			],
			"name": "ExtensionBlacklisted",
			"type": "event"
		},
		{
			"anonymous": false,
			"inputs": [
				{
					"indexed": true,
					"internalType": "address",
					"name": "extension",
					"type": "address"
				},
				{
					"indexed": true,
					"internalType": "address",
					"name": "sender",
					"type": "address"
				}
			],
			"name": "ExtensionRegistered",
			"type": "event"
		},
		{
			"anonymous": false,
			"inputs": [
				{
					"indexed": true,
					"internalType": "address",
					"name": "extension",
					"type": "address"
				},
				{
					"indexed": false,
					"internalType": "address payable[]",
					"name": "receivers",
					"type": "address[]"
				},
				{
					"indexed": false,
					"internalType": "uint256[]",
					"name": "basisPoints",
					"type": "uint256[]"
				}
			],
			"name": "ExtensionRoyaltiesUpdated",
			"type": "event"
		},
		{
			"anonymous": false,
			"inputs": [
				{
					"indexed": true,
					"internalType": "address",
					"name": "extension",
					"type": "address"
				},
				{
					"indexed": true,
					"internalType": "address",
					"name": "sender",
					"type": "address"
				}
			],
			"name": "ExtensionUnregistered",
			"type": "event"
		},
		{
			"anonymous": false,
			"inputs": [
				{
					"indexed": false,
					"internalType": "uint8",
					"name": "version",
					"type": "uint8"
				}
			],
			"name": "Initialized",
			"type": "event"
		},
		{
			"anonymous": false,
			"inputs": [
				{
					"indexed": true,
					"internalType": "address",
					"name": "extension",
					"type": "address"
				},
				{
					"indexed": true,
					"internalType": "address",
					"name": "permissions",
					"type": "address"
				},
				{
					"indexed": true,
					"internalType": "address",
					"name": "sender",
					"type": "address"
				}
			],
			"name": "MintPermissionsUpdated",
			"type": "event"
		},
		{
			"anonymous": false,
			"inputs": [
				{
					"indexed": true,
					"internalType": "address",
					"name": "previousOwner",
					"type": "address"
				},
				{
					"indexed": true,
					"internalType": "address",
					"name": "newOwner",
					"type": "address"
				}
			],
			"name": "OwnershipTransferred",
			"type": "event"
		},
		{
			"anonymous": false,
			"inputs": [
				{
					"indexed": true,
					"internalType": "uint256",
					"name": "tokenId",
					"type": "uint256"
				},
				{
					"indexed": false,
					"internalType": "address payable[]",
					"name": "receivers",
					"type": "address[]"
				},
				{
					"indexed": false,
					"internalType": "uint256[]",
					"name": "basisPoints",
					"type": "uint256[]"
				}
			],
			"name": "RoyaltiesUpdated",
			"type": "event"
		},
		{
			"anonymous": false,
			"inputs": [
				{
					"indexed": true,
					"internalType": "address",
					"name": "from",
					"type": "address"
				},
				{
					"indexed": true,
					"internalType": "address",
					"name": "to",
					"type": "address"
				},
				{
					"indexed": true,
					"internalType": "uint256",
					"name": "tokenId",
					"type": "uint256"
				}
			],
			"name": "Transfer",
			"type": "event"
		},
		{
			"inputs": [],
			"name": "VERSION",
			"outputs": [
				{
					"internalType": "uint256",
					"name": "",
					"type": "uint256"
				}
			],
			"stateMutability": "view",
			"type": "function"
		},
		{
			"inputs": [
				{
					"internalType": "address",
					"name": "to",
					"type": "address"
				},
				{
					"internalType": "uint256",
					"name": "tokenId",
					"type": "uint256"
				}
			],
			"name": "approve",
			"outputs": [],
			"stateMutability": "nonpayable",
			"type": "function"
		},
		{
			"inputs": [
				{
					"internalType": "address",
					"name": "admin",
					"type": "address"
				}
			],
			"name": "approveAdmin",
			"outputs": [],
			"stateMutability": "nonpayable",
			"type": "function"
		},
		{
			"inputs": [
				{
					"internalType": "address",
					"name": "owner",
					"type": "address"
				}
			],
			"name": "balanceOf",
			"outputs": [
				{
					"internalType": "uint256",
					"name": "",
					"type": "uint256"
				}
			],
			"stateMutability": "view",
			"type": "function"
		},
		{
			"inputs": [
				{
					"internalType": "address",
					"name": "extension",
					"type": "address"
				}
			],
			"name": "blacklistExtension",
			"outputs": [],
			"stateMutability": "nonpayable",
			"type": "function"
		},
		{
			"inputs": [
				{
					"internalType": "uint256",
					"name": "tokenId",
					"type": "uint256"
				}
			],
			"name": "burn",
			"outputs": [],
			"stateMutability": "nonpayable",
			"type": "function"
		},
		{
			"inputs": [],
			"name": "getAdmins",
			"outputs": [
				{
					"internalType": "address[]",
					"name": "admins",
					"type": "address[]"
				}
			],
			"stateMutability": "view",
			"type": "function"
		},
		{
			"inputs": [],
			"name": "getApproveTransfer",
			"outputs": [
				{
					"internalType": "address",
					"name": "",
					"type": "address"
				}
			],
			"stateMutability": "view",
			"type": "function"
		},
		{
			"inputs": [
				{
					"internalType": "uint256",
					"name": "tokenId",
					"type": "uint256"
				}
			],
			"name": "getApproved",
			"outputs": [
				{
					"internalType": "address",
					"name": "",
					"type": "address"
				}
			],
			"stateMutability": "view",
			"type": "function"
		},
		{
			"inputs": [],
			"name": "getExtensions",
			"outputs": [
				{
					"internalType": "address[]",
					"name": "extensions",
					"type": "address[]"
				}
			],
			"stateMutability": "view",
			"type": "function"
		},
		{
			"inputs": [
				{
					"internalType": "uint256",
					"name": "tokenId",
					"type": "uint256"
				}
			],
			"name": "getFeeBps",
			"outputs": [
				{
					"internalType": "uint256[]",
					"name": "",
					"type": "uint256[]"
				}
			],
			"stateMutability": "view",
			"type": "function"
		},
		{
			"inputs": [
				{
					"internalType": "uint256",
					"name": "tokenId",
					"type": "uint256"
				}
			],
			"name": "getFeeRecipients",
			"outputs": [
				{
					"internalType": "address payable[]",
					"name": "",
					"type": "address[]"
				}
			],
			"stateMutability": "view",
			"type": "function"
		},
		{
			"inputs": [
				{
					"internalType": "uint256",
					"name": "tokenId",
					"type": "uint256"
				}
			],
			"name": "getFees",
			"outputs": [
				{
					"internalType": "address payable[]",
					"name": "",
					"type": "address[]"
				},
				{
					"internalType": "uint256[]",
					"name": "",
					"type": "uint256[]"
				}
			],
			"stateMutability": "view",
			"type": "function"
		},
		{
			"inputs": [
				{
					"internalType": "uint256",
					"name": "tokenId",
					"type": "uint256"
				}
			],
			"name": "getRoyalties",
			"outputs": [
				{
					"internalType": "address payable[]",
					"name": "",
					"type": "address[]"
				},
				{
					"internalType": "uint256[]",
					"name": "",
					"type": "uint256[]"
				}
			],
			"stateMutability": "view",
			"type": "function"
		},
		{
			"inputs": [
				{
					"internalType": "address",
					"name": "admin",
					"type": "address"
				}
			],
			"name": "isAdmin",
			"outputs": [
				{
					"internalType": "bool",
					"name": "",
					"type": "bool"
				}
			],
			"stateMutability": "view",
			"type": "function"
		},
		{
			"inputs": [
				{
					"internalType": "address",
					"name": "owner",
					"type": "address"
				},
				{
					"internalType": "address",
					"name": "operator",
					"type": "address"
				}
			],
			"name": "isApprovedForAll",
			"outputs": [
				{
					"internalType": "bool",
					"name": "",
					"type": "bool"
				}
			],
			"stateMutability": "view",
			"type": "function"
		},
		{
			"inputs": [
				{
					"internalType": "address",
					"name": "to",
					"type": "address"
				}
			],
			"name": "mintBase",
			"outputs": [
				{
					"internalType": "uint256",
					"name": "",
					"type": "uint256"
				}
			],
			"stateMutability": "nonpayable",
			"type": "function"
		},
		{
			"inputs": [
				{
					"internalType": "address",
					"name": "to",
					"type": "address"
				},
				{
					"internalType": "string",
					"name": "uri",
					"type": "string"
				}
			],
			"name": "mintBase",
			"outputs": [
				{
					"internalType": "uint256",
					"name": "",
					"type": "uint256"
				}
			],
			"stateMutability": "nonpayable",
			"type": "function"
		},
		{
			"inputs": [
				{
					"internalType": "address",
					"name": "to",
					"type": "address"
				},
				{
					"internalType": "string[]",
					"name": "uris",
					"type": "string[]"
				}
			],
			"name": "mintBaseBatch",
			"outputs": [
				{
					"internalType": "uint256[]",
					"name": "tokenIds",
					"type": "uint256[]"
				}
			],
			"stateMutability": "nonpayable",
			"type": "function"
		},
		{
			"inputs": [
				{
					"internalType": "address",
					"name": "to",
					"type": "address"
				},
				{
					"internalType": "uint16",
					"name": "count",
					"type": "uint16"
				}
			],
			"name": "mintBaseBatch",
			"outputs": [
				{
					"internalType": "uint256[]",
					"name": "tokenIds",
					"type": "uint256[]"
				}
			],
			"stateMutability": "nonpayable",
			"type": "function"
		},
		{
			"inputs": [
				{
					"internalType": "address",
					"name": "to",
					"type": "address"
				}
			],
			"name": "mintExtension",
			"outputs": [
				{
					"internalType": "uint256",
					"name": "",
					"type": "uint256"
				}
			],
			"stateMutability": "nonpayable",
			"type": "function"
		},
		{
			"inputs": [
				{
					"internalType": "address",
					"name": "to",
					"type": "address"
				},
				{
					"internalType": "string",
					"name": "uri",
					"type": "string"
				}
			],
			"name": "mintExtension",
			"outputs": [
				{
					"internalType": "uint256",
					"name": "",
					"type": "uint256"
				}
			],
			"stateMutability": "nonpayable",
			"type": "function"
		},
		{
			"inputs": [
				{
					"internalType": "address",
					"name": "to",
					"type": "address"
				},
				{
					"internalType": "string[]",
					"name": "uris",
					"type": "string[]"
				}
			],
			"name": "mintExtensionBatch",
			"outputs": [
				{
					"internalType": "uint256[]",
					"name": "tokenIds",
					"type": "uint256[]"
				}
			],
			"stateMutability": "nonpayable",
			"type": "function"
		},
		{
			"inputs": [
				{
					"internalType": "address",
					"name": "to",
					"type": "address"
				},
				{
					"internalType": "uint16",
					"name": "count",
					"type": "uint16"
				}
			],
			"name": "mintExtensionBatch",
			"outputs": [
				{
					"internalType": "uint256[]",
					"name": "tokenIds",
					"type": "uint256[]"
				}
			],
			"stateMutability": "nonpayable",
			"type": "function"
		},
		{
			"inputs": [],
			"name": "mintnew",
			"outputs": [],
			"stateMutability": "nonpayable",
			"type": "function"
		},
		{
			"inputs": [],
			"name": "name",
			"outputs": [
				{
					"internalType": "string",
					"name": "",
					"type": "string"
				}
			],
			"stateMutability": "view",
			"type": "function"
		},
		{
			"inputs": [],
			"name": "owner",
			"outputs": [
				{
					"internalType": "address",
					"name": "",
					"type": "address"
				}
			],
			"stateMutability": "view",
			"type": "function"
		},
		{
			"inputs": [
				{
					"internalType": "uint256",
					"name": "tokenId",
					"type": "uint256"
				}
			],
			"name": "ownerOf",
			"outputs": [
				{
					"internalType": "address",
					"name": "",
					"type": "address"
				}
			],
			"stateMutability": "view",
			"type": "function"
		},
		{
			"inputs": [],
			"name": "renounceOwnership",
			"outputs": [],
			"stateMutability": "nonpayable",
			"type": "function"
		},
		{
			"inputs": [
				{
					"internalType": "address",
					"name": "admin",
					"type": "address"
				}
			],
			"name": "revokeAdmin",
			"outputs": [],
			"stateMutability": "nonpayable",
			"type": "function"
		},
		{
			"inputs": [
				{
					"internalType": "uint256",
					"name": "tokenId",
					"type": "uint256"
				},
				{
					"internalType": "uint256",
					"name": "value",
					"type": "uint256"
				}
			],
			"name": "royaltyInfo",
			"outputs": [
				{
					"internalType": "address",
					"name": "",
					"type": "address"
				},
				{
					"internalType": "uint256",
					"name": "",
					"type": "uint256"
				}
			],
			"stateMutability": "view",
			"type": "function"
		},
		{
			"inputs": [
				{
					"internalType": "address",
					"name": "from",
					"type": "address"
				},
				{
					"internalType": "address",
					"name": "to",
					"type": "address"
				},
				{
					"internalType": "uint256",
					"name": "tokenId",
					"type": "uint256"
				}
			],
			"name": "safeTransferFrom",
			"outputs": [],
			"stateMutability": "nonpayable",
			"type": "function"
		},
		{
			"inputs": [
				{
					"internalType": "address",
					"name": "from",
					"type": "address"
				},
				{
					"internalType": "address",
					"name": "to",
					"type": "address"
				},
				{
					"internalType": "uint256",
					"name": "tokenId",
					"type": "uint256"
				},
				{
					"internalType": "bytes",
					"name": "data",
					"type": "bytes"
				}
			],
			"name": "safeTransferFrom",
			"outputs": [],
			"stateMutability": "nonpayable",
			"type": "function"
		},
		{
			"inputs": [
				{
					"internalType": "address",
					"name": "operator",
					"type": "address"
				},
				{
					"internalType": "bool",
					"name": "approved",
					"type": "bool"
				}
			],
			"name": "setApprovalForAll",
			"outputs": [],
			"stateMutability": "nonpayable",
			"type": "function"
		},
		{
			"inputs": [
				{
					"internalType": "address",
					"name": "extension",
					"type": "address"
				}
			],
			"name": "setApproveTransfer",
			"outputs": [],
			"stateMutability": "nonpayable",
			"type": "function"
		},
		{
			"inputs": [
				{
					"internalType": "bool",
					"name": "enabled",
					"type": "bool"
				}
			],
			"name": "setApproveTransferExtension",
			"outputs": [],
			"stateMutability": "nonpayable",
			"type": "function"
		},
		{
			"inputs": [
				{
					"internalType": "string",
					"name": "uri",
					"type": "string"
				}
			],
			"name": "setBaseTokenURI",
			"outputs": [],
			"stateMutability": "nonpayable",
			"type": "function"
		},
		{
			"inputs": [
				{
					"internalType": "string",
					"name": "uri",
					"type": "string"
				}
			],
			"name": "setBaseTokenURIExtension",
			"outputs": [],
			"stateMutability": "nonpayable",
			"type": "function"
		},
		{
			"inputs": [
				{
					"internalType": "string",
					"name": "uri",
					"type": "string"
				},
				{
					"internalType": "bool",
					"name": "identical",
					"type": "bool"
				}
			],
			"name": "setBaseTokenURIExtension",
			"outputs": [],
			"stateMutability": "nonpayable",
			"type": "function"
		},
		{
			"inputs": [
				{
					"internalType": "address",
					"name": "extension",
					"type": "address"
				},
				{
					"internalType": "address",
					"name": "permissions",
					"type": "address"
				}
			],
			"name": "setMintPermissions",
			"outputs": [],
			"stateMutability": "nonpayable",
			"type": "function"
		},
		{
			"inputs": [
				{
					"internalType": "uint256",
					"name": "tokenId",
					"type": "uint256"
				},
				{
					"internalType": "address payable[]",
					"name": "receivers",
					"type": "address[]"
				},
				{
					"internalType": "uint256[]",
					"name": "basisPoints",
					"type": "uint256[]"
				}
			],
			"name": "setRoyalties",
			"outputs": [],
			"stateMutability": "nonpayable",
			"type": "function"
		},
		{
			"inputs": [
				{
					"internalType": "address payable[]",
					"name": "receivers",
					"type": "address[]"
				},
				{
					"internalType": "uint256[]",
					"name": "basisPoints",
					"type": "uint256[]"
				}
			],
			"name": "setRoyalties",
			"outputs": [],
			"stateMutability": "nonpayable",
			"type": "function"
		},
		{
			"inputs": [
				{
					"internalType": "address",
					"name": "extension",
					"type": "address"
				},
				{
					"internalType": "address payable[]",
					"name": "receivers",
					"type": "address[]"
				},
				{
					"internalType": "uint256[]",
					"name": "basisPoints",
					"type": "uint256[]"
				}
			],
			"name": "setRoyaltiesExtension",
			"outputs": [],
			"stateMutability": "nonpayable",
			"type": "function"
		},
		{
			"inputs": [
				{
					"internalType": "uint256",
					"name": "tokenId",
					"type": "uint256"
				},
				{
					"internalType": "string",
					"name": "uri",
					"type": "string"
				}
			],
			"name": "setTokenURI",
			"outputs": [],
			"stateMutability": "nonpayable",
			"type": "function"
		},
		{
			"inputs": [
				{
					"internalType": "uint256[]",
					"name": "tokenIds",
					"type": "uint256[]"
				},
				{
					"internalType": "string[]",
					"name": "uris",
					"type": "string[]"
				}
			],
			"name": "setTokenURI",
			"outputs": [],
			"stateMutability": "nonpayable",
			"type": "function"
		},
		{
			"inputs": [
				{
					"internalType": "uint256[]",
					"name": "tokenIds",
					"type": "uint256[]"
				},
				{
					"internalType": "string[]",
					"name": "uris",
					"type": "string[]"
				}
			],
			"name": "setTokenURIExtension",
			"outputs": [],
			"stateMutability": "nonpayable",
			"type": "function"
		},
		{
			"inputs": [
				{
					"internalType": "uint256",
					"name": "tokenId",
					"type": "uint256"
				},
				{
					"internalType": "string",
					"name": "uri",
					"type": "string"
				}
			],
			"name": "setTokenURIExtension",
			"outputs": [],
			"stateMutability": "nonpayable",
			"type": "function"
		},
		{
			"inputs": [
				{
					"internalType": "string",
					"name": "prefix",
					"type": "string"
				}
			],
			"name": "setTokenURIPrefix",
			"outputs": [],
			"stateMutability": "nonpayable",
			"type": "function"
		},
		{
			"inputs": [
				{
					"internalType": "string",
					"name": "prefix",
					"type": "string"
				}
			],
			"name": "setTokenURIPrefixExtension",
			"outputs": [],
			"stateMutability": "nonpayable",
			"type": "function"
		},
		{
			"inputs": [
				{
					"internalType": "bytes4",
					"name": "interfaceId",
					"type": "bytes4"
				}
			],
			"name": "supportsInterface",
			"outputs": [
				{
					"internalType": "bool",
					"name": "",
					"type": "bool"
				}
			],
			"stateMutability": "view",
			"type": "function"
		},
		{
			"inputs": [],
			"name": "symbol",
			"outputs": [
				{
					"internalType": "string",
					"name": "",
					"type": "string"
				}
			],
			"stateMutability": "view",
			"type": "function"
		},
		{
			"inputs": [
				{
					"internalType": "uint256",
					"name": "tokenId",
					"type": "uint256"
				}
			],
			"name": "tokenExtension",
			"outputs": [
				{
					"internalType": "address",
					"name": "",
					"type": "address"
				}
			],
			"stateMutability": "view",
			"type": "function"
		},
		{
			"inputs": [
				{
					"internalType": "uint256",
					"name": "tokenId",
					"type": "uint256"
				}
			],
			"name": "tokenURI",
			"outputs": [
				{
					"internalType": "string",
					"name": "",
					"type": "string"
				}
			],
			"stateMutability": "view",
			"type": "function"
		},
		{
			"inputs": [
				{
					"internalType": "address",
					"name": "from",
					"type": "address"
				},
				{
					"internalType": "address",
					"name": "to",
					"type": "address"
				},
				{
					"internalType": "uint256",
					"name": "tokenId",
					"type": "uint256"
				}
			],
			"name": "transferFrom",
			"outputs": [],
			"stateMutability": "nonpayable",
			"type": "function"
		},
		{
			"inputs": [
				{
					"internalType": "address",
					"name": "newOwner",
					"type": "address"
				}
			],
			"name": "transferOwnership",
			"outputs": [],
			"stateMutability": "nonpayable",
			"type": "function"
		},
		{
			"inputs": [
				{
					"internalType": "address",
					"name": "extension",
					"type": "address"
				}
			],
			"name": "unregisterExtension",
			"outputs": [],
			"stateMutability": "nonpayable",
			"type": "function"
		}
	]
}